:1000000072C100009AC1000098C1000096C10000B2
:1000100094C1000092C1000090C100008EC1000098
:100020008CC1000086C3000088C1000086C10000AA
:100030000C94011D0C94032C80C100000C942C2CFA
:100040000C94552C0C947E2C0C94A72C0C94D02C36
:100050000C942C0C72C1000070C100000C94BD25E2
:100060000C94E0256AC1000068C1000066C1000070
:1000700064C1000062C1000071C300005EC10000E5
:100080005CC100005AC10000E4C2000095C300003A
:100090000C94E71B0C94F92C50C100000C94222DF9
:1000A0000C94FE260C94212748C100003F183F18ED
:1000B0003F180B18681876183F183F180B18681867
:1000C00072756E2025303258080D0A00424B3948AF
:1000D0002D4258432D3031484C00257320737461F4
:1000E000636B20746F6F206C6F772E2025640D0A70
:1000F000004365760D0A00437365720D0A00506176
:1001000067652025640D0A004857205345543A205E
:10011000253032580D0A004E6F20682025303258A5
:100120000D0A0033204E41434B2C20676976652031
:1001300075700D0A004E41434B2025640D0A005492
:100140006F6F206D75636820776974686F757420B0
:100150007265706C790D0A0074696D656F75742035
:1001600025640D0A00485200484C00565200564C77
:10017000002530325820253032580D0A004E6F20AD
:10018000454550524F4D2042414E4B205553414220
:100190004C450D0A0042616E6B2032204F4B0D0A18
:1001A0000042616E6B2031204F4B0D0A0042616EA0
:1001B0006B2030204F4B0D0A00466163746F7279DB
:1001C0000D0A0067452301FF0000007F00000000CA
:1001D000FF0000007F00000000FF0000007F000023
:1001E0000000FF0000007FFF6800007F340000FF78
:1001F000AF00007F57000000000000FFFFFFFFFF7F
:10020000FFFFFFFFFFFFFFFFFFFFFFFFFFFFFFFFFE
:10021000FFFFFFFFFFFFFFFFFFFFFFFFFFFFFFFFEE
:10022000FFFFFFFFFFFFFFFFFFFFFF0C00EFCDAB66
:10023000894F7574206F6620626F756E64730D0A46
:10024000005061672065322025640D0A004F7574E7
:10025000206F6620626F756E64730D0A00526563CD
:100260002065322025640D0A005772697465207478
:100270006F20256420253032580D0A00496E7669BA
:100280006F0D0A00313030313131313031303131A0
:100290003030303130313130313131313130303155
:1002A000303030300052657365740D0A00466F724D
:1002B00063652053414D204F46460D0A00536C7034
:1002C0002025640D0A004F666620436E7420256465
:1002D0000D0A004572726F7220636F756E746572DD
:1002E0002025640D0A0011241FBECFEFCDBFDFE231
:1002F000DEBFE0E6F6E086818062868381818062EF
:10030000818386818061868381818061818311E21E
:10031000A0E0B0E2E2E9FBE602C005900D92AC3449
:10032000B107D9F721E3ACE4B1E201C01D92AD3EC3
:10033000B207E1F725D00C94C73562CEFC0180816D
:1003400081111DC0109251211092522110925321FF
:100350001092542180914D2190914E21A0914F21D6
:10036000B09150210196A11DB11D80934D21909314
:100370004E21A0934F21B09350210C94C31E089599
:10038000CF938EEF00008150E9F796D30E94A10A27
:100390000E949F0A0E940C19B9D46EE971E080E0B6
:1003A000B3D30E94360A0E94131B0E94541EA2D38C
:1003B0000E94071C0E94E01C80914800817F80936E
:1003C0004800809148008160809348000E94BD20D1
:1003D0000E94B92180915B211F928F9380EC90E065
:1003E0009F938F93C1E0CF931F920E94DC18C0931C
:1003F0004C210E94B30D0F900F900F900F900F9013
:100400000F9080E090E0CF910895809151219091DC
:100410005221A0915321B09154210196A11DB11DEB
:100420008093512190935221A0935321B093542152
:10043000000088950895E82FE695E695E69590E208
:10044000E99FF0011124E05FF94F8770E80FF11D7B
:100450009FB7F894808187708083808188618083D2
:100460009FBF08958091780080935B2180917800F0
:1004700085FF1EC088E190E00E949B35AB01BC0166
:100480004F5F5F4F6F4F7F4F40398FE5580781E0D7
:100490006807710520F488E190E00E94BB358091E7
:1004A00078008062809378001092ED311092EE31E6
:1004B0008091780084FF1EC084E190E00E949B350B
:1004C000AB01BC014F5F5F4F6F4F7F4F40398FE5EE
:1004D000580781E06807710520F484E190E00E94EC
:1004E000BB35809178008061809378001092ED3167
:1004F0001092EE318091780083FF44C08091ED31FD
:100500009091EE310097D9F480E190E00E949B3504
:10051000AB01BC014F5F5F4F6F4F7F4F40398FE59D
:10052000580781E06807710520F480E190E00E949F
:10053000BB358091780088608093780017C003975E
:10054000A9F480E090E00E949B35AB01BC014F5FB5
:100550005F4F6F4F7F4F40398FE5580781E0680745
:10056000710520F480E090E00E94BB358091ED3170
:100570009091EE318430910528F401968093ED310D
:100580009093EE318091780082FF1EC08CE090E065
:100590000E949B35AB01BC014F5F5F4F6F4F7F4F98
:1005A00040398FE5580781E06807710520F48CE039
:1005B00090E00E94BB358091780084608093780041
:1005C0001092ED311092EE318091780081FF1EC0C3
:1005D00088E090E00E949B35AB01BC014F5F5F4F0C
:1005E0006F4F7F4F40398FE5580781E068077105ED
:1005F00020F488E090E00E94BB3580917800826012
:10060000809378001092ED311092EE318091780055
:1006100080FF1EC084E090E00E949B35AB01BC01CE
:100620004F5F5F4F6F4F7F4F40398FE5580781E035
:100630006807710520F484E090E00E94BB3580914A
:1006400078008160809378001092ED311092EE3145
:1006500008951F920F920FB60F9211242F933F937C
:100660004F935F936F937F938F939F93AF93BF93BA
:10067000EF93FF938091240290912502811528E049
:10068000920710F080E090E0209120022370D9F4CE
:100690008093DC2C9093DD2C83E080932602809164
:1006A00020028E61809320028091210287788093BE
:1006B00021028091210280618093210280E092E0FA
:1006C0000E94402B25C0E0912602E295EF70F0E0F9
:1006D000EE0FFF1FEE52F34D80839183809126022F
:1006E000909126029F7082958F70981311C010927E
:1006F0002602809121028778809321028091210235
:10070000886080932102809120028C7F8093200258
:10071000FF91EF91BF91AF919F918F917F916F91D9
:100720005F914F913F912F910F900FBE0F901F90AF
:1007300018951F920F920FB60F9211248F93EF937B
:10074000FF93E0E4F6E084858FEF8487FF91EF91DB
:100750008F910F900FBE0F901F9018951F920F92C0
:100760000FB60F9211248F939F9390910C0693FFD5
:100770000DC08091130687708093130680910C063C
:10078000886080930C0681E08093562194FF0DC011
:100790008091140687708093140680910C06806106
:1007A00080930C0681E0809356219F918F910F904A
:1007B0000FBE0F901F9018951F920F920FB60F92B9
:1007C00011241F932F933F934F935F936F937F93C6
:1007D0008F939F93AF93BF93EF93FF93CF93DF9349
:1007E0001F92CDB7DEB710916C0610FF40C080910C
:1007F0000B2D8823A1F1809168068170909155217D
:1008000091110AC0882321F082E08093650627C0F9
:1008100082E08093660602C0811121C081E080934E
:100820009F2E8091C7219091C821A091C921B0919C
:10083000CA218093A32E9093A42E8091600890915A
:1008400061088093A12E9093A22E1982BE016F5F42
:100850007F4F8FE99EE28BD18981811132D78091C0
:100860006C06816080936C0681E08093562112FFB4
:1008700036C080914C21882351F18091680682FD19
:1008800018C080916009909161098093E62C909343
:10089000E72C80915721909158218093E82C9093D8
:1008A000E92C88E0809349091092E52C1092E42C01
:1008B0000EC08091600990916109A0E0B0E0809342
:1008C000572190935821A0935921B0935A21809198
:1008D0006C06846080936C0681E08093562113FF40
:1008E0000DC08091730687708093730680916C06AB
:1008F000886080936C0681E0809356210F90DF9191
:10090000CF91FF91EF91BF91AF919F918F917F9187
:100910006F915F914F913F912F911F910F900FBE5B
:100920000F901F901895A0E0B0E0E9E9F4E00C9476
:10093000032EDD24D394D092620688E17CDD88E02A
:10094000E82EE09262068BE176DDD0E2D093660677
:10095000D0936106C0E1C0936106C0936606D09251
:10096000420680E168DDC0934606C0934106D093FD
:100970004606D093410610E41093460610934106B4
:1009800000E8009346060093410692E0C92EC0920B
:10099000660689E150DD24E0F22EF09262068AE1DB
:1009A0004ADDD093020685E046DD1093020686E01C
:1009B00042DDC0930206E0920206F0920206D09257
:1009C0000206C092020600930206009362068FE1BF
:1009D00032DD109362068EE12EDDE092420683E165
:1009E0002ADDF092420682E126DD2FEF89EF90E0CA
:1009F000215080409040E1F700C000008091480005
:100A00008160809348001092562180916A068D6023
:100A100080936A06809169068C7F81608093690665
:100A20008091700680937006809172068260809338
:100A30007206809173068093730680910A0688611E
:100A400080930A06809109068C7F81608093090655
:100A500080911306809313068091140680931406E8
:100A600080914800817F84608093480091E080916C
:100A7000680683FF909356217894809156218111C6
:100A800005C0889580915621882389F3F89480E8E1
:100A90008093610688E290E89093670625ED2A9599
:100AA000F1F700008150C1F780E880936506CDB76B
:100AB000DEB7E8E00C941C2E87E08093A20033DFC1
:100AC00078940E943B29CEDCE0E6F6E08285827FC6
:100AD000828781858C7F816081878089808B8289F4
:100AE0008260828B8389838BE0E0F6E08285877E5B
:100AF0008287089580E00E944E1E8F3F21F463E0BC
:100B000080E00C94021F08950F931F93CF93DF93FF
:100B10008B0124E0829FC0011124EC01CA58DE4DF4
:100B200088819981009719F4088319831BC00817DD
:100B30001907C1F08A819B81009791F464E070E00D
:100B400081E090E00E94CC2F009729F0FC011282F6
:100B50001382108211828A839B83892B19F0CE0124
:100B6000EC01DECFDF91CF911F910F910895AB0182
:100B700020E0BC0180917421909175210C94CE14D9
:100B8000CF93DF93EC0180917421909175210E94A5
:100B90002D16823070F481EF90E09F938F9381E067
:100BA0008F931F920E94DC180F900F900F900F9060
:100BB0000AC020E045E050E0BE0180917421909190
:100BC00075210E942E14DF91CF910895A0E1B0E02D
:100BD000ECEEF5E00C94092E198220916A213091F7
:100BE0006B2140916C2150916D2160916E2170912B
:100BF0006F2180917021909171212A833B834C83D6
:100C00005D836E837F8388879987A1E00E94332E5E
:100C100020936A2130936B2140936C2150936D2176
:100C200060936E2170936F21809370219093712156
:100C3000CE010196A5DF6096E2E00C94222E0F9380
:100C40001F93CF93DF93DC01CC91C33038F58C0137
:100C5000B4E0CB9FE0011124CA58DE4DE881F98150
:100C60003097A1F4D801EC91B4E0EB9FF00111248E
:100C7000E25AFE4D80819181A281B3810196A11D2E
:100C8000B11D80839183A283B38308C0C8010995F5
:100C90000A80DB81C02D209709F7E4CFDF91CF9147
:100CA0001F910F91089504E910E2CAEDD0E0FF24EE
:100CB000F39444EF51E06FEA7EE2809174219091C9
:100CC00075210E94FB14882319F08FEA9EE2B7DF9A
:100CD00080915C2191E0980F90935C218111E9CF84
:100CE00080E090E00E94FE0F843618F71F928F93E9
:100CF0001F930F93DF93CF93FF921F920E94DC18F4
:100D00008DB79EB708968DBF9EBFD3CFEF92FF924F
:100D10000F931F9380915D21811134C040E060E109
:100D200084E10E9405148093742190937521E12C35
:100D3000F12C02E020E030E04EEE52E063E870E299
:100D400083E596E021D606EE15E020E030E041E0B4
:100D500068EE73E08EE890E20E94E01680937221C4
:100D6000909373212FD700E010E020E030E0AC0139
:100D700061E080917221909173210E94031781E0BC
:100D800080935D211F910F91FF90EF900895FC01DA
:100D9000EC5BFF4F1082DC01A05CBF4FE254F10915
:100DA000ED93FC9311972FEF2193EA17FB07E1F7DF
:100DB000FC01E95BFF4F10822FE9FC01208322E058
:100DC0002183EB5BFF4F108235961082349710829F
:100DD000329610823196108237972FEF208331960A
:100DE000108208950FB6F8940F921092C2211092BB
:100DF000C12181E0809306200F900FBE089580915D
:100E0000C221833010F51F928F9388E591E09F9364
:100E10008F9381E08F931F920E94DC188091C221F2
:100E20008F5F8093C22120E040E050E060E070E0FE
:100E300080918321909184210E942E140F900F9015
:100E40000F900F900F900F9008958FE391E09F9374
:100E50008F9381E08F931F920E94DC18C3DF0F9065
:100E60000F900F900F9008950F931F93CF93E5E885
:100E7000F1E281EC91E211928E179F07E1F78FE981
:100E80008093852182E08093862190914C2F9093CE
:100E9000872140914A2F50914B2FC3E080E0DA0127
:100EA000A80FB11D2C912F3931F4EC2FF0E0EB5746
:100EB000FE4D2083CF5F2C91EC2FF0E0EB57FE4DE1
:100EC00020838F5FE1E0EC0F981710F0CE2FE7CF73
:100ED000F0E0EB57FE4D8FE98083E2E0EC0FF0E0AD
:100EE000EB57FE4D83E080836DD600E010E020E0FC
:100EF00030E0AC0161E08091C3219091C4210E9457
:100F000003178091552F9091562FCD5F4C2F50E0B5
:100F1000DC011696ED91FC91179765E871E2099551
:100F200084E190E062D7CF911F910F910895809155
:100F30004D2F90914C2FE0914A2FF0914B2FE90FBC
:100F4000F11D818380E0E0914C2FE81788F020911B
:100F50004A2F30914B2FF0E03196E20FF31FD90169
:100F6000A80FB11D40819C91942790838F5FEBCF98
:100F7000EF5FE0934C2F089590914C2F23EC290FB5
:100F8000223C78F09F5F90934C2FE0914A2FF09194
:100F90004B2FE90FF11D808380914D2F8F5F809340
:100FA0004D2F0895AFE0B0E0E8EDF7E00C94F92D97
:100FB0008091552F9091562FDC011A96ED91FC915E
:100FC0001B9701E02EE440E052EC61E070E00995EF
:100FD0009FEAE92E90E2F92E2FEBC22E20E2D22ECC
:100FE00035EB432E30E2532E47E1A42E41E0B42EE0
:100FF0005EEF852E50E0952E60E070E080918321B9
:10100000909184210E947D15882311F02DDF53C01B
:1010100080910620882309F44EC04AE050E0BE01CA
:101020006F5F7F4F8091C5219091C6210E94FB1474
:10103000882309F440C08AE09FE2A9DE89819CDF11
:101040008981833091F128F4882379F1813069F125
:101050002EC0863151F1873171F0843041F58A819B
:101060008BDF8B8189DF8C8187DF8D8185DF8E81AE
:1010700083DF8F811BC08A817FDF8B817DDF8C8145
:101080007BDF8D8179DF8E8177DF8F8175DF10E0E7
:101090008F81181760F4E8E0F0E0EC0FFD1FE10F1E
:1010A000F11D808169DF1F5FF3CF8A8165DF3FDF3C
:1010B000DBDE10920620772473948FE9282E80E2DD
:1010C000382EE091552FF091562F83A592A59817B1
:1010D00009F492CFDF01A80FB11D1C961C918F5F00
:1010E0008E3110F013A601C083A71F921F93FF92A9
:1010F000EF927F921F920E94AC180F900F900F906A
:101100000F900F900F908091032F882329F1109258
:10111000032F123031F48FEB9EE239DE7092062FEE
:101120003BC0133039F48091062F8823A9F17092C7
:10113000052F32C0163019F47092072F04C01531F4
:1011400029F47092082F7092042F26C01F3949F09D
:101150008FEB9EE21CDE20C01F3919F47092032F22
:101160001BC08091012F92EC980F913CA8F09091B8
:10117000062F992339F09091022F911103C01093FB
:10118000022F0AC0E091FF2EF091002F8F5F809315
:10119000012FE80FF11D10838091052F882309F49A
:1011A00090CFDF92CF927F921F920E94AC180F9047
:1011B0000F900F900F908091042F882309F481C025
:1011C0000AE010E020E030E040E050E063E0809191
:1011D000C3219091C4210E9403170E94AA218091EB
:1011E000082F882309F46BC08091C121843008F056
:1011F00058C01F928F9385E391E09F938F937F92C6
:101200001F920E94DC188091022F0F900F900F9078
:101210000F900F900F908F3F09F480E0082F10E09F
:101220009091052F1F929F931F928F933F922F9221
:101230007F921F920E94AC18CDBFDEBF612C0D5F64
:101240001F4F862D90E008171907A4F0FC01E15408
:10125000F14D80811F928F93FF92EF927F921F92A8
:101260000E94AC1863940F900F900F900F900F9006
:101270000F90E7CFDF92CF927F921F920E94AC181F
:1012800020E040E050E060E070E0809183219091A8
:1012900084210E942E148091C1218F5F8093C121EF
:1012A00009C0A3E2B1E0BF93AF937F921F920E9467
:1012B000DC1898DD0F900F900F900F9054C092DDC6
:1012C00052C08091052F882309F451C04091022F0C
:1012D0003091012F632F70E0E091FF2EF091002FED
:1012E000242F80E090E0519125278034910521F052
:1012F000019668177907B8F7431339C0211137C031
:1013000088E0E1E7F0E2DE01119601900D928A9506
:10131000E1F78091552F9091562FDC011696ED91B3
:10132000FC91179748E050E0BE016F5F7F4F099531
:101330000E94AA218091052F882309F48DC0E09195
:10134000FF2EF091002F8081843009F457C0C0F542
:10135000823009F447C008F04DC081117EC0818100
:1013600081110E94AD218FEB9EE211DDAACE80910A
:10137000022F1F928F935F924F927F921F920E9433
:10138000AC1888E0EAE7F0E2DE01119601900D92D8
:101390008A95E1F78091552F9091562FDC01169692
:1013A000ED91FC91179748E050E0BE016F5F7F4FD1
:1013B00009950F900F900F900F900F900F90D3CF33
:1013C0008731A9F140F4853009F047C062818181FD
:1013D0000E94021FC8CF8831C9F08F37F1F50E94F3
:1013E000391EC1CF058124814381628181810E94A0
:1013F000AA1EB9CF81810E94D61EB5CF61817281AC
:101400008381948145810E94241FADCF81818730E3
:1014100009F0A9CF1F928F9388E091E09F938F935B
:101420007F921F920E94DC180E943624C2CF8581D1
:101430001F928F939F928F927F921F920E94DC182F
:10144000E091FF2EF091002F618172818381948160
:1014500045810E94611FADCF8FEF1F928F93BF9286
:10146000AF927F921F920E94DC18A3CFEF92FF925F
:101470000F931F9380918221811136C081E0809368
:10148000822187E090E28093552F9093562FE12C94
:10149000F12C02E020E030E046E351E062EC70E243
:1014A00082ED97E071D240E06FE08CE00E9405147D
:1014B0008093C5219093C6210FEF16E020E030E025
:1014C00040E060EA70E087EC90E20E94E0168093D2
:1014D000C3219093C42143E060E081E00E940514A1
:1014E00080938321909384211F910F91FF90EF901F
:1014F0000895CF93DF93EC018091C5219091C6218F
:101500000E942D16823070F487EF90E09F938F93A6
:1015100081E08F931F920E94DC180F900F900F9024
:101520000F900AC020E042E050E0BE018091C5214A
:101530009091C6210E942E14DF91CF910895A89515
:1015400008950E94042B87E00C94F62A0F931F93B2
:101550008B0171E1FC017083319762E26083319706
:1015600023E32083012E000C220B330B31970083E1
:101570003197108331971082319720E8208331977B
:101580001082319722E02083319723E02083319726
:1015900024E02083319725E02083319726E02083C3
:1015A000319727E02083319728E02083319729E085
:1015B0002083319720E1208331977083319722E196
:1015C0002083319723E12083319724E120833197D1
:1015D00025E12083319726E12083319727E120837D
:1015E000319728E12083319729E12083319720E248
:1015F0002083319721E2208331976083319723E262
:1016000020838A013197408331971083319726E2F6
:101610002083319727E22083319728E22083319776
:1016200029E22083319720E32083319721E320832F
:1016300086971F910F91089580E498E00E944B2DAA
:10164000E0E4F8E08181887F818387818C7F8783D4
:1016500087818160878383EF91E080A791A7789449
:101660008081807F85608083A0911D22B0911E22A1
:10167000CD91CDBFDD91DEBFFF91EF91DF91CF9195
:10168000BF91AF919F918F917F916F915F914F919A
:101690003F912F911F910F91FF90EF90DF90CF908E
:1016A000BF90AF909F908F907F906F905F904F9082
:1016B0003F902F901F900F900FBE0F90089581E0E4
:1016C00008950F920FB6F8940F921F9211242F9243
:1016D0003F924F925F926F927F928F929F92AF92C2
:1016E000BF92CF92DF92EF92FF920F931F932F93AF
:1016F0003F934F935F936F937F938F939F93AF939A
:10170000BF93CF93DF93EF93FF93A0911D22B091EE
:101710001E220DB60D920EB60D9278D3A0911D2209
:10172000B0911E22CD91CDBFDD91DEBFFF91EF9133
:10173000DF91CF91BF91AF919F918F917F916F91E9
:101740005F914F913F912F911F910F91FF90EF90DB
:10175000DF90CF90BF90AF909F908F907F906F90D1
:101760005F904F903F902F901F900F900FBE0F9063
:1017700008950F920FB6F8940F921F9211242F9292
:101780003F924F925F926F927F928F929F92AF9211
:10179000BF92CF92DF92EF92FF920F931F932F93FE
:1017A0003F934F935F936F937F938F939F93AF93E9
:1017B000BF93CF93DF93EF93FF93A0911D22B0913E
:1017C0001E220DB60D920EB60D928091C7219091FA
:1017D000C821A091C921B091CA210196A11DB11DB6
:1017E0008093C7219093C821A093C921B093CA21A7
:1017F000E0E4F8E010A211A2848581608487ECD136
:1018000005D3A0911D22B0911E22CD91CDBFDD91B7
:10181000DEBFFF91EF91DF91CF91BF91AF919F918B
:101820008F917F916F915F914F913F912F911F9178
:101830000F91FF90EF90DF90CF90BF90AF909F906F
:101840008F907F906F905F904F903F902F901F9060
:101850000F900FBE0F9008958CDF1895E091F7213F
:10186000F091F8218081811103C08FEF9FEF0CC0B0
:10187000E091F721F091F8210580F681E02D0680B6
:10188000F781E02D828193818093CE219093CF21A7
:101890000895FF920F931F93CF93DF93EC01F62EE1
:1018A0000091D6211091D72180911D2290911E2266
:1018B00002969AD6CF3F8FEFD80761F4FF2051F000
:1018C00060911D2270911E226E5F7F4F89ED91E223
:1018D00032D629C0C00FD11FE0911D22F0911E22E7
:1018E000C283D38360911D2270911E22C017D1073D
:1018F00040F48091F5219091F6216E5F7F4F3CD6A8
:1019000012C08091F7219091F8216E5F7F4F34D6FD
:101910008091CE219091CF21C817D90720F4C09390
:10192000CE21D093CF21CDB7DEB7E5E00C941F2EAA
:101930008091E221882301F10FB6F8940F92E09193
:10194000E821F091E921C681D781CE0102964CD6DB
:101950008091D82181508093D8218091E2218150BB
:101960008093E2210F900FBE8F89988D0E94AB1853
:10197000CE010E94AB18DCCF80910B22823008F0A0
:10198000A0DE0E940502D4CFA0E0B0E0EAECFCE0CB
:101990000C94FC2D4C01162F572EEA015901CA0157
:1019A0000E9479186C01892B09F4D7C08AE290E073
:1019B0000E9479183C010097C9F0DC015796CD923E
:1019C000DC925897AE0165EA70E0C6010E943F3292
:1019D0002197F3018789908DC80FD91FB301675EE6
:1019E0007F4FE12FF52DCF01089607C0C6010E9459
:1019F000AB18B3C0E817F90749F09F014191DB012B
:101A00004D93BD01D9012C912111F4CFF30110A206
:101A1000011101E0D30156960C93569793960C93BF
:101A2000939794961C926301B2E0CB0ED11CC60131
:101A30007ED5C3010C967BD5F3016086718682E06A
:101A400090E0801B910984879587628A738A15A22A
:101A500016A217A210A611A6A501B401CE0176DD2B
:101A6000F30180839183E114F10419F0D7016D92A1
:101A70007C920FB6F8940F928091D8218F5F80935B
:101A8000D82180911D2290911E22892B51F56092C0
:101A90001D2270921E228091D821813099F58BE011
:101AA00092E237D584E192E234D582E092E231D5F8
:101AB00089EF91E22ED58CEE91E22BD583EE91E267
:101AC00028D589ED91E225D582E092E28093F72135
:101AD0009093F82189EF91E28093F5219093F6217C
:101AE00011C08091D42181110DC0E0911D22F0918F
:101AF0001E229689F3018689891720F060921D22A3
:101B000070921E228091D0218F5F8093D021D301CB
:101B100091968C93919756968C919091D521981788
:101B200010F48093D521B9E08B9FC0011124B60138
:101B3000855F9D4D00D50F900FBE8091D4218823E5
:101B400051F0E0911D22F0911E229689F3018689C1
:101B5000981708F4B6DD81E001C08FEFCDB7DEB78E
:101B6000EFE00C94152EEF92FF920F938CECE82E81
:101B700081E2F82E00E020E030E042E850E06DEC39
:101B800070E288E99CE000DF813091F40E94C11688
:101B9000813071F4F8942FEF3FEF2093CE213093F2
:101BA000CF218093D4211092D6211092D72144DDE9
:101BB0000F91FF90EF9008958091CB218F5F8093DC
:101BC000CB2108950FB6F8940F928091D621909171
:101BD000D7210F900FBE0895A0E0B0E0E2EFFDE046
:101BE0000C94032E8091CB21811188C00091D621C5
:101BF0001091D7210F5F1F4F0093D6211093D7214B
:101C000001151105B1F48091F7219091F8212091EF
:101C1000F5213091F6212093F7213093F82180931C
:101C2000F5219093F6218091D1218F5F8093D1216E
:101C300015DE8091CE219091CF21C0E008171907C1
:101C400008F44CC0D9E0E091F721F091F8218081AF
:101C5000811103C08FEF9FEF11C0E091F721F09148
:101C6000F8210580F681E02DE680F780D7011296F5
:101C70008D919C9113970817190728F48093CE2112
:101C80009093CF212BC06701B2E0CB0ED11CC601CF
:101C9000ABD4F70184899589892B19F0C7010C967B
:101CA000A3D4D70156968C919091D521981710F412
:101CB0008093D521D89FC0011124B601855F9D4D29
:101CC0003AD4E0911D22F0911E22D70156969C91A4
:101CD0008689981708F4B7CFC1E0B5CFE0911D22EF
:101CE000F0911E22E689B9E0EB9FF0011124E55F37
:101CF000FD4D8081823040F0C1E006C08091D3214B
:101D00008F5F8093D321C0E08091D2218111C1E007
:101D10008C2FCDB7DEB7E8E00C941C2EEF92FF922B
:101D20000F931F93CF93DF930FB6F8940F92809188
:101D3000CB2181508093CB218091CB21882311F03E
:101D400080E04CC08091D8218823D1F3C0E0D0E05E
:101D500089E0F82EEE24E3948091EC21882339F178
:101D6000E091F121F091F221C681D781CE010C964C
:101D70003BD48E010E5F1F4FC80136D48E899091DF
:101D8000D521981710F48093D521F89EC001112415
:101D9000B801855F9D4DCFD3E0911D22F0911E22A9
:101DA0009E8986899817C0F2E092D221D5CFCD2B9B
:101DB00009F054DDC091D321CC2349F0D1E00CDFF0
:101DC0008111D093D221C150D1F71092D3218091AB
:101DD000D221882309F4B4CF74DC81E00F900FBEC8
:101DE000CDB7DEB7E6E00C941E2ECF93DF93EC0167
:101DF000892B11F466DC07C0DFDE60E0CE0149DD2F
:101E00008DDF8823B9F3DF91CF9108958091CB21A5
:101E1000882321F081E08093D22108951092D2216D
:101E20008091D52169E0482F50E0649F9001659F23
:101E3000300D1124F901E55FFD4D9081911102C033
:101E40008150F1CFA181B28112960D90BC91A02D4D
:101E5000A183B283225F3D4DA217B30731F41296DE
:101E60002D913C9113972183328399E0949FF00147
:101E7000959FF00D1124E55FFD4D0180F281E02D6D
:101E80002681378120931D2230931E228093D521F5
:101E90000895CF93DF93EB0160911D2270911E2274
:101EA000645F7F4F69D361E0CE01F3DCDF91CF91B6
:101EB00008951F93CF93DF93EB01142F60911D22A0
:101EC00070911E22645F7F4F36D3112311F0CFEF44
:101ED000DFEF612FCE01DDDCDF91CF911F910895FF
:101EE0000F931F93CF93DF93DC011596ED91FC9137
:101EF0001697C681D7818E01045F1F4FC80174D326
:101F00008091CB21811113C00A501109C8016CD3F3
:101F10008E899091D521981710F48093D521B9E03E
:101F20008B9FC0011124B801855F9D4D03C0B8018E
:101F30008CEE91E200D3E0911D22F0911E229E8949
:101F40008689891720F481E08093D22101C080E046
:101F5000DF91CF911F910F9108950FB6F8940F92D2
:101F60002091D121FC0120832091D6213091D721CD
:101F7000218332830F900FBE08952091D121FC015F
:101F800020832091D6213091D72121833283089557
:101F9000CF93DF930FB6F8940F924091D6215091D2
:101FA000D721DB012D913C912F3FBFEF3B07D1F0B3
:101FB000EC01E981FA81A091D121B881BA1719F019
:101FC0004E175F0788F44E1B5F0BFB014217530748
:101FD00030F4241B350B20833183CFDF03C0108204
:101FE000118202C080E001C081E00F900FBEDF913E
:101FF000CF91089581E08093D2210895009721F434
:1020000080911D2290911E22DC015796ED91FC914A
:10201000589780E090E0DC012191253A21F4019667
:10202000A11DB11DF9CF089580911D2290911E220E
:1020300008958091D421882331F08091CB21882389
:1020400021F080E0089581E0089582E008950F93E3
:102050001F93CF93DF93FC01892B09F453C086892A
:10206000A0911D22B0911E2256969C91891708F0CE
:102070003FC02485358537FD0CC0A0911D22B0914D
:102080001E2256969C9122E030E0291B31092487BC
:10209000358729E0829FC0011124855F9D4D2285EF
:1020A000338528173907D9F48F01EF012296CE0125
:1020B0009BD2E0911D22F0911E228689F801868B29
:1020C0009091D521981710F48093D521F9E08F9F36
:1020D000C0011124BE01855F9D4D2DD207C0A09186
:1020E0001D22B0911E2256968C91868B81E00BC0EA
:1020F000A0911D22B0911E2281E023A156969C91B1
:10210000291708F080E0DF91CF911F910F9108957A
:102110000F931F93CF93DF93FC01892B11F480E081
:102120002AC084A1815084A3268993A12917B9F3D9
:102130008111F5CFEF018F010E5F1F4FC80154D2FF
:102140008BA18E8B482F50E022E030E0241B350B12
:102150002C873D879091D521981710F48093D52135
:1021600029E0249FC001259F900D1124B801855FAF
:102170009D4DE1D181E0DF91CF911F910F910895A5
:102180000F931F93CF93DF93FC01892BA9F193A1A8
:10219000961708F4962F8689891771F124A12130AA
:1021A00059F5968B2485358537FD06C022E030E051
:1021B000291B31092487358729E0829FC00111241A
:1021C000855F9D4D2285338528173907A9F4EF01D6
:1021D0008F010E5F1F4FC80107D28E899091D521C4
:1021E000981710F48093D52129E0829FC001112413
:1021F000B801855F9D4D9FD1DF91CF911F910F91C8
:10220000089580911D2290911E22892B39F0E09132
:102210001D22F0911E2284A18F5F84A380911D2234
:1022200090911E2208954F925F926F927F928F92AB
:102230009F92AF92BF92EF92FF920F931F9349012B
:102240005A010FB6F8940F92E0911D22F0911E22D0
:1022500021A5223029F1E0911D22F0911E2225A115
:1022600036A147A150A52B013C01409450946094A5
:102270007094D301C20182239323A423B52385A3A1
:1022800096A3A7A3B0A7E0911D22F0911E2281E0A2
:1022900081A7E114F10421F061E0C701FADA11DA53
:1022A0000F900FBE0FB6F8940F920115110569F04B
:1022B000E0911D22F0911E2285A196A1A7A1B0A5B3
:1022C000F80180839183A283B383E0911D22F09172
:1022D0001E2281A58230C1F4E0911D22F0911E22C0
:1022E00045A156A167A170A5D501C401809590951F
:1022F000A095B09584239523A623B72385A396A301
:10230000A7A3B0A781E001C080E0E0911D22F09179
:102310001E2211A60F900FBE1F910F91FF90EF90FC
:10232000BF90AF909F908F907F906F905F904F90F5
:1023300008950F931F93CF93DF93FC010FB6F8948A
:102340000F920115110549F085A196A1A7A1B0A58D
:10235000E80188839983AA83BB8331A582E081A7A2
:10236000223089F058F4213001F585A196A1A7A16A
:10237000B0A5482B592B6A2B7B2B13C0233089F037
:10238000243069F012C085A196A1A7A1B0A501963D
:10239000A11DB11D85A396A3A7A3B0A706C0323087
:1023A00031F145A356A367A370A73130F1F4EF01D3
:1023B0008F010E5F1F4FC80117D18E899091D521D3
:1023C000981710F48093D52129E0829FC001112431
:1023D000B801855F9D4DAFD0E0911D22F0911E2286
:1023E0009E898689891708F46CD981E001C080E054
:1023F0000F900FBEDF91CF911F910F910895EF9233
:10240000FF920F931F93CF93DF93FC0101151105EA
:1024100049F085A196A1A7A1B0A5E8018883998379
:10242000AA83BB8331A582E081A7223089F058F4CA
:10243000213001F585A196A1A7A1B0A5482B592B64
:102440006A2B7B2B13C0233089F0243069F012C033
:1024500085A196A1A7A1B0A50196A11DB11D85A337
:1024600096A3A7A3B0A706C03230C9F145A356A3CF
:1024700067A370A7313011F081E032C0EF01809185
:10248000CB21811114C08F010E5F1F4FC801ACD04A
:102490008E899091D521981710F48093D521E9E089
:1024A0008E9FC0011124B801855F9D4D05C0BF01FD
:1024B000645F7F4F8CEE91E23ED0E0911D22F0915F
:1024C0001E229E8986898917B8F6E114F10419F055
:1024D00081E0E701888381E08093D22101C080E020
:1024E000CDB7DEB7E6E00C941E2E009721F4809164
:1024F0001D2290911E220FB6F8940F92FC0121A587
:10250000223019F411A681E001C080E00F900FBEC7
:102510000895FC010396818392832FEF3FEF23837D
:102520003483858396838783908710820895FC0186
:10253000108611860895CF93DF939C01FB01DC0187
:102540001196CD91DC911297C283D3838C819D81AA
:10255000848395838C819D81DC0112966D937C939D
:1025600013976C837D8320873187F90180818F5F8A
:102570008083DF91CF9108950F931F93CF93DF93C3
:102580008C01FB01808191818F3F2FEF920721F415
:10259000E801AF81B8850EC0D801139612962D912F
:1025A0003C911397E901488159818417950710F0F0
:1025B000D901F4CF12968D919C91139782839383C6
:1025C000EC01EC83FD83A483B5831296ED93FC9319
:1025D000139700871187F80180818F5F8083DF91D7
:1025E000CF911F910F910895CF93DF93FC01A085A8
:1025F000B1858281938124813581EC012C833D83D7
:10260000C481D5818A839B8311968D919C91129769
:10261000E817F90721F41196CD93DC9312971086F1
:1026200011868C9181508C938C91DF91CF9108957C
:102630000FB6F8940F92FC01928D0F900FBE81E0BF
:10264000911180E008950F931F93CF93DF93EC01D6
:10265000042F1A8D4C8D41110AC088819981892BD4
:10266000E1F58C819D8154DD1C821D8237C050E0D4
:10267000011115C08A819B810E9436322C8D8A817E
:102680009B81820F911D8A839B832C813D818217C0
:10269000930718F1888199818A839B831EC08E815C
:1026A0009F810E9436328C8D90E0919581959109A1
:1026B0002E813F81280F391F2E833F834881598106
:1026C0002417350730F42C813D81820F931F8E83B0
:1026D0009F83023011F41111115080E01F5F1A8F97
:1026E000DF91CF911F910F910895FC01448D4423F8
:1026F000A9F050E026813781240F351F26833783C8
:10270000848195812817390720F080819181868303
:102710009783CB01668177810C9436320895EF92CE
:10272000FF921F93CF93DF93EC010FB6F8940F92B3
:102730001E8D7C0181E1E80EF11C11164CF4898993
:10274000882331F0C701CCDB811154DC1150F5CF67
:102750008FEF8E8F0F900FBE0FB6F8940F921D8DD6
:102760007E0188E0E80EF11C11164CF48885882360
:1027700031F0C701B5DB81113DDC1150F5CF8FEF92
:102780008D8F0F900FBEDF91CF911F91FF90EF9033
:102790000895CF93DF93EC010FB6F8940F92488120
:1027A00059818B8D7C8D9A01879F200D311D1124BD
:1027B0002C833D831A8E4A835B8390E00197789F38
:1027C0009001799F300D1124CA01820F931F8E83CF
:1027D0009F838FEF8D8F8E8F61110BC0888588232B
:1027E00071F0CE0108967CDB882349F00E94610BD2
:1027F00006C0CE0108968DDECE0141968ADE0F908E
:102800000FBE81E0DF91CF910895FF920F931F9348
:10281000CF93DF93082F162FF42E662321F0869F87
:10282000C001112402C080E090E0819662D4EC01E6
:10283000009771F0111103C08883998303C08196BA
:10284000888399830B8F1C8F61E0CE01A2DFF8A2F1
:10285000CE01CDB7DEB7E5E00C941F2EAF92BF924C
:10286000CF92DF92FF920F931F93CF93DF93CDB759
:10287000DEB72597CDBFDEBF8C016B014C835D8336
:10288000F22E80E0580198E0A90EB11C0FB6F89422
:102890000F92F801228D938D291718F0F2E0FF12A4
:1028A00012C04F2DB601C801CEDEF80191899923DF
:1028B00019F0C801419614DB81110E94610B0F9041
:1028C0000FBE81E046C02C813D81232B19F40F906F
:1028D0000FBE3EC0811103C0CE0101964EDB0F90AA
:1028E0000FBE6AD90FB6F8940F92F801858D8F3F0D
:1028F00009F4158EF801868D8F3F09F4168E0F901E
:102900000FBEBE016C5F7F4FCE01019641DB81118E
:102910001CC00FB6F8940F92F801928D0F900FBE65
:10292000838D98130EC06C817D81C501B2DAC80118
:10293000F6DEF4D9882311F081E0A8CF0E94610B64
:10294000FBCFC801ECDEEAD9F7CFC801E8DEE6D953
:1029500080E02596CDBFDEBFDF91CF911F910F9113
:10296000FF90DF90CF90BF90AF900895CF93DF930B
:10297000482F60E081E049DFEC01009759F01C82AC
:102980001D82188219821E8220E040E050E060E043
:1029900070E064DFCE01DF91CF910895EF92FF9256
:1029A0001F93CF93DF93EC019A8D8B8D981710F0C6
:1029B0002230D1F47A011E8D422FCE0144DE1F3F1A
:1029C00079F48989882371F0CE01419689DA8823C8
:1029D00049F0E114F10431F081E0F701808305C092
:1029E0001F5F1E8F81E001C080E0DF91CF911F91BA
:1029F000FF90EF900895AF92BF92CF92DF92FF9237
:102A00000F931F93CF93DF93CDB7DEB72597CDBF3D
:102A1000DEBF8C016B014C835D8380E0580191E146
:102A2000A90EB11C0FB6F8940F92F801F28CFF209A
:102A300099F0B601C80159DEFA94F801F28E80854A
:102A4000882331F0C80108964BDA81110E94610B8E
:102A50000F900FBE81E044C02C813D81232B19F4DF
:102A60000F900FBE3CC0811103C0CE01019685DAE4
:102A70000F900FBEA1D80FB6F8940F92F801858D74
:102A80008F3F09F4158EF801868D8F3F09F4168E5D
:102A90000F900FBEBE016C5F7F4FCE01019678DABA
:102AA000811116C0C801C4DD882371F06C817D815D
:102AB000C501EFD9C80133DE31D9882311F081E097
:102AC000B1CF0E94610BFBCFC80129DE27D9F7CF18
:102AD000C80125DE23D9C801ABDD882381F380E05E
:102AE0002596CDBFDEBFDF91CF911F910F91FF9053
:102AF000DF90CF90BF90AF900895CF92DF92FF927A
:102B00000F931F93CF93DF93CDB7DEB72597CDBF3C
:102B1000DEBF8C016C837D83F12C90E0680181E144
:102B2000C80ED11C0FB6F8940F92D8015A968C910A
:102B30005A978823D9F081505A968C935A978D9141
:102B40009C91892B21F45DDBF80184839583D80166
:102B500018968C91882331F0C8010896C1D981114B
:102B60000E94610B0F900FBE81E06CC02C813D81F3
:102B7000232B09F464C0911103C0CE010196FDD945
:102B80000F900FBE19D80FB6F8940F92F801858DEB
:102B90008F3F09F4158ED8015E968C915E978F3F1A
:102BA00011F45E961C920F900FBEBE016C5F7F4FBA
:102BB000CE010196EDD9811124C0C80139DD8823E9
:102BC000E1F0F80180819181892B49F40FB6F894E6
:102BD0000F92848195813BDAF82E0F900FBE6C81A5
:102BE0007D81C60156D9C8019ADD98D8882311F095
:102BF00091E098CF0E94610BFBCFC80190DD8ED889
:102C0000F7CFC8018CDD8AD8C80112DD882381F393
:102C1000FF20B9F00FB6F8940F92F801818988234C
:102C200039F00688F789E02D808162E0681B01C0D9
:102C300060E0D80114968D919C911597A1DA0F90C0
:102C40000FBE80E02596CDBFDEBFDF91CF911F91F3
:102C50000F91FF90DF90CF9008950FB6F8940F92E8
:102C6000FC01228D0F900FBE838D821B0895E7E536
:102C7000FFE220E030E040815181452B61F4220FDA
:102C8000331F220F331FF901E95AF04D608371831E
:102C90008283938308952F5F3F4F3496253031050B
:102CA00051F70895CF93DF93EC010FB6F8940F928C
:102CB0008D8D8F3F09F41D8E8E8D8F3F09F41E8EF2
:102CC0000F900FBE8A8D811103C0CE014196F1D8BD
:102CD000CE0125DDDF91CF9108950FB6F8940F92C4
:102CE0008091232290912422892BF9F482E392E2AD
:102CF00010DC89E292E20DDC82E392E280932722EB
:102D00009093282289E292E28093252290932622B2
:102D100040E069E080E179DD8093232290932422D2
:102D2000009719F062ED70E2A2DF0F900FBE0895D8
:102D3000FC0162837383808791874617570778F079
:102D4000421B530B8485958548175907C0F4BF0172
:102D50006E5F7F4F80912522909126220DC04217F1
:102D6000530718F46217730750F4BF016E5F7F4F6B
:102D70008091272290912822FFDB80E0089581E056
:102D80000895EF92FF920F93A8DF809123229091F4
:102D90002422892B81F081E2E82E82E2F82E02E0E3
:102DA00020E030E046E950E067ED70E282E897E12C
:102DB0000E94C40C01C080E00F91FF90EF90089535
:102DC000A0E0B0E0E6EEF6E10C94002E5C016B01B1
:102DD000942E790184E190E08CD1EC01892B69F08B
:102DE0007CDFA882B982CC86DD869E86EF86F88A53
:102DF000098B1A8BCE0102969ADBCE01CDB7DEB7D6
:102E0000EBE00C94192EA9E0B0E0E9E0F7E10C94B6
:102E1000072EA0912322B0912422109711F1F901DD
:102E200069834A835B838C839D83663094F401D9E4
:102E3000E0912322F091242220E0823011F4A801B5
:102E400002C040E050E0BE016F5F7F4FCF0106DD62
:102E500009C020E0AF01BE016F5F7F4FCD019EDD55
:102E600001C080E02996E4E00C94202EEF92FF92BE
:102E70000F931F93CF93DF93E0912722F0912822A5
:102E80008081882371F10580F681E02DE080F1805A
:102E9000C681D7818E010E5F1F4FC801A5DBE9896E
:102EA000FA89CE0109958E85813031F78C859D8513
:102EB0008E0D9F1DE816F90658F48A839B83C887F8
:102EC000D987B801809127229091282255DBD4CF51
:102ED00000E010E020E030E0A70160E0CE0193DFE9
:102EE000CBCF809125229091262280932722909308
:102EF0002822E0932522F0932622CDB7DEB7E6E024
:102F00000C941E2EA9E0B0E0E8E8F7E10C94032E43
:102F1000E0912722F0912822D080DD2031F0058039
:102F2000F681E02DE080F18002C0E12CF12C0E94BE
:102F3000DC0D0E94E20D8C0180911F2290912022D5
:102F40000817190718F492DF81E001C080E00093B0
:102F50001F221093202281114CC0DD2099F10E1503
:102F60001F05B8F10E948E0EE0912722F0912822D1
:102F70000580F681E02DC680D780C601029634DB3D
:102F8000D6011E968C911E978130A1F41C966D91EE
:102F90007C911D976E0D7F1D9701A801C601C8DEAB
:102FA000882341F000E010E020E030E0A70160E07D
:102FB000C60129DFD6015196ED91FC915297C601C9
:102FC000099529C0E0912522F0912622808141E0D7
:102FD000811140E0B701601B710B80912322909119
:102FE000242260DE0E948E0E811115C00E94610BAA
:102FF00012C00E948E0E0FC0898187FF09C04E81CA
:103000005F8168857985EA81FB818C819D81099545
:10301000898187FF0DC040E050E0BE016F5F7F4FA8
:103020008091232290912422E6DC8111E5CF70CF9C
:10303000EC80FD80F70182859385892B19F0C7010B
:103040000296D2DA0E94E20D8C0180911F229091AB
:1030500020220817190708F409DF00931F22109394
:103060002022E9818E2FEE0F990BAA0BBB0B8A3021
:10307000910588F6FC01EA5AFF4F0C94B32D2A8182
:103080003B81D7011C966D917C911D97620F731F38
:10309000A801C7014DDE882309F4BDCFD7015196A1
:1030A000ED91FC915297C7010995F7018685813012
:1030B00009F0B1CF4A815B8184859585480F591FFE
:1030C00000E010E020E030E060E0C7019CDEA3CF2C
:1030D0006A817B81D7011C966D937C931D97600F4D
:1030E000711F9801A801C70123DE95CFC70133D016
:1030F00092CFCF93DF93EC010E94DC0D80913B22B5
:1031000090913C22892B31F480E492E280933B221F
:1031100090933C2220913D2230913E22C9018C0F98
:103120009D1F87324AE0940770F42817390758F436
:10313000C0913B22D0913C22C20FD31F80933D22ED
:1031400090933E2202C0C0E0D0E00E948E0ECE01DD
:10315000DF91CF9108950895A0E0B0E0E2EBF8E1AF
:103160000C94092EED81F0E0E559F04D90818E81AF
:103170009817E8F09E01275F3F4F4F81588564E61E
:1031800070E087E69CE20E947032E7E6FCE2019084
:103190000020E9F73197AF0147565C42E0913B20B0
:1031A000F0913C2067E67CE285E390E2099580E0BF
:1031B00090E0E2E00C94222EA0E0B0E0E2EEF8E134
:1031C0000C94092EED81F0E0E559F04D90818E814F
:1031D0009817E8F09E01275F3F4F4F81588564E6BE
:1031E00070E087E69CE20E949932E7E6FCE20190FB
:1031F0000020E9F73197AF0147565C42E0913B2050
:10320000F0913C2067E67CE285E390E2099580E05E
:1032100090E0E2E00C94222E0F9382E080936B2FDB
:10322000E0913F20F091402000E02EE440E054E89F
:1032300063E070E085E390E209950F910895A6E1BF
:10324000B0E0E5E2F9E10C94FB2D6091DC2C70918B
:10325000DD2C80E090E00E94DB2E9B01AC0160EB56
:1032600076E98FE19AE40E94472E20E030E040E0CA
:103270005FE30E94692F0E94AF2E6B8B7C8B8D8B3E
:103280009E8B8091D42C9091D52C2091D62C30916E
:10329000D72CCB88DC88ED88FE88EE24FF24C9017A
:1032A000A0E0B0E09C01AD01220F331F441F551F69
:1032B000C701B6010E94822D29E439E040E050E0C8
:1032C0000E94912D49015A012C153D054E055F05BF
:1032D00038F08B889C8821E0821A9108A12CB12CAF
:1032E000A0ECBDE5A50194010E94C82DA70196019F
:1032F000281939094A095B090E94912D2C3D85E066
:1033000038074105510548F049015A019CED891AD9
:1033100095E0990AA108B10803C0812C912C5401B1
:103320002091D82C3091D92CC901A0E0B0E09C01AB
:10333000AD01220F331F441F551FC701B6010E9464
:10334000822D29E439E040E050E00E94912D2901CE
:103350003A012C153D054E055F0538F04B885C8819
:1033600021E0421A5108612C712CA0ECBDE5A301AB
:1033700092010E94C82DA70196012419350946091A
:1033800057090E94912D2C3D85E0380741055105D4
:1033900048F069017A019CEDC91A95E0D90AE10863
:1033A000F10803C0C12CD12C76012CE2821621E059
:1033B0009206A104B104B8F038EB83163BE0930603
:1033C000A104B10490F088E8881683E19806A1046E
:1033D000B10468F090E1891697E29906A104B1045E
:1033E00040F414E007C011E005C012E003C013E090
:1033F00001C010E0188B198B81E04DD1882311F0AA
:103400001860198B2CE2C21621E0D206E104F10407
:10341000B8F038EBC3163BE0D306E104F10490F0BA
:1034200088E8C81683E1D806E104F10468F090E169
:10343000C91697E2D906E104F10440F414E007C08C
:1034400011E005C012E003C013E001C010E01A8BC8
:1034500080E021D1882311F018601A8B8091CB2C49
:103460009091CC2C8F3F23E0920728F40196809313
:10347000CB2C9093CC2C1A89111103C089898823F5
:1034800031F08FEF93E08093CB2C9093CC2C8091F4
:10349000CB2C9091CC2C8F3F934008F4BFC043E0DD
:1034A00050E06DEC7CE2CE0140960E942932892BDF
:1034B00071F088899989AA898093CD2C9093CE2C1C
:1034C000A093CF2C1092D12C1092D02CA7C0909109
:1034D000D12C9F5F9093D12C8091D02C981708F419
:1034E0009DC01092D12C843618F48B5F8093D02C21
:1034F00001E0098320E1129FC00111241989182BD2
:1035000080E0CCD38230B1F080F4813009F072C019
:103510002EE631E03F932F938F931F924DDE0F9055
:103520000F900F900F90812F66C08330E1F08430B0
:10353000A1F160C08BE691E09F938F930F931F9250
:103540003BDE812F82958770912F9878282F292B29
:1035500030E1139FC00111248077822B0F900F90D0
:103560000F900F9048C088E691E09F938F930F9340
:103570001F9222DEE12FE770E1500F900F900F9025
:103580000F90E43028F4F0E0E951FF4D808101C054
:1035900080E0912F92959F7018C085E691E09F93EF
:1035A0008F930F931F9208DEE12FE295E770E150B1
:1035B0000F900F900F900F90E43028F4F0E0E95155
:1035C000FF4D808101C080E0912F9770923059F0BB
:1035D00020F4913059F4816009C0933031F0943077
:1035E00029F4846003C0836001C08260912F9878C1
:1035F000892B01C080E08A831F921F931F928F93B3
:1036000081E791E09F938F9381E08F931F92D4DDA8
:10361000CE0101960E94790ACDBFDEBFD4D0669656
:10362000E0E10C94142E0F931F934CD00FE119E19D
:1036300020E030E041E064E170E08FED90E2C0DB3B
:103640008093E22C9093E32C0E94E20D04E110E0C1
:1036500020E030E0AC0161E08091E22C9091E32C1D
:10366000D2DB1F910F910895E82FE695E695E69538
:1036700090E2E99FF0011124E05FF94F8770E80FB5
:10368000F11D9FB7F8948081877080838081682BBB
:1036900060839FBF0895882359F0813089F4909109
:1036A000080692959695969593708927817008954E
:1036B0008091080685FB882780F991E08927089585
:1036C00080E00895A1E1B0E0E8E6FBE10C94062E6D
:1036D00061E270E082E00E94722D082F10E0102F4E
:1036E000002760E270E082E00E94722D082B0093B8
:1036F0000C0210930D0200E016E081E0F8018283D5
:1037000060E280E0B1DF92E0F92EF801F28260E23F
:1037100081E0AADF80E1F801828360E284E0A4DF37
:1037200088E0F801828360E283E09EDF84E0F801B4
:10373000828360E282E098DF80E2F801828368E1C0
:1037400085E092DF80E4F801828368E186E08CDF27
:10375000BE01655F7F4F80E092E00E94972B8B85D2
:10376000897E9C859F7892629C8788618B8787E0A1
:103770008E87BE01655F7F4F80E092E00E94532BF1
:10378000AE014F5F5F4F61E080E092E00E94DD2B71
:103790008B81807F81608B838EE1898381E18A8345
:1037A000FC8284E48A87AE014F5F5F4F61E080E076
:1037B00092E00E94B72B80E092E00E94292B619654
:1037C000E5E00C941F2E80E092E00C94292B1F92D0
:1037D0000F920FB60F9211248F938091680682FD8D
:1037E00006C01092E52C81E08093E42C05C081E0B6
:1037F0008093E52C1092E42C80914C098160809399
:103800004C098F910F900FBE0F901F901895CF937A
:10381000DF939FB7F894E2E7F6E0808187708083BA
:103820008081886180839FBFC0E6D6E08A89887FD7
:103830008A8B8A898A8B80E499E00E944B2DE0E490
:10384000F9E08FEF9FEF86A397A38081807F84604C
:10385000808386818C7F868386818160868384E0F5
:103860008A8781E089877894DF91CF910895A8E0D5
:10387000B0E0EDE3FCE10C94FF2D8091E52C81118B
:103880001BC08091E42C811119C00FB6F8940F92DF
:103890002091E82C3091E92C4091E62C5091E72CB6
:1038A000A4E6B0E00E94B92D9A0140E050E00E94E9
:1038B000912D0F900FBE03C020E001C024E680913F
:1038C000EA2C281761F0821710F48F5F03C02817C5
:1038D00030F481508093EA2CDD24D39401C0D12CA4
:1038E0008ED28E010C5F1F4F9E012D5F3F4FAE01A8
:1038F0004E5F5F4FBE016F5F7F4F7B015BD244E045
:1039000050E0B7018BEE9CE20E942932892B69F0CE
:1039100089819A81AB81BC818093EB2C9093EC2CB4
:10392000A093ED2CB093EE2C03C0DD2009F444C02D
:1039300088E0F70111928A95E9F76091EA2C70E02E
:1039400080E090E00E94DD2E20E03FEF4FE757E45B
:103950000E94692F20E030E048EC52E40E94472E9C
:103960004B015C010BEE1CE26E01F9E0CF0ED11CA5
:10397000F80161918F0170E080E090E00E94DD2EFF
:10398000A50194010E94692F20E030E04FE753E445
:103990000E94472E0E94AF2EF701619371937F0121
:1039A000EC15FD0529F72F8138854D815E816B81EE
:1039B0007C8189819A8156D02896ECE00C94182E4F
:1039C0000F931F9368D007E31CE120E030E041E053
:1039D00062E370E08BEE90E2F3D98093EF2C90934A
:1039E000F02C0E94E20D02E310E020E030E0AC0198
:1039F00061E08091EF2C9091F02C05DA1F910F91EE
:103A000008951F920F920FB60F9211248F939F93D8
:103A1000EF93FF938091F72C9091F82CE0E0F8E081
:103A200080A791A78091F52C9091F62C82A793A75F
:103A30008091F32C9091F42C84A795A78091F12C80
:103A40009091F22C86A797A786818C7F86838681AA
:103A50008683FF91EF919F918F910F900FBE0F90F2
:103A60001F9018958093F72C9093F82C6093F52C69
:103A70007093F62C4093F32C5093F42C2093F12C5C
:103A80003093F22CE0E0F8E086818C7F868386819B
:103A9000816086830895CF93DF93C0E4D6E030E160
:103AA0003D8320E22D8390E49D8380E88D833983DC
:103AB00029839983898380E098E00E944B2DE0E080
:103AC000F8E08181887F836081838E858F608E8717
:103AD0008FEF9FEF86A397A310A611A612A613A699
:103AE00014A615A616A617A68481816084838481F6
:103AF00084608483848180618483848180648483FE
:103B00008081807F81608083DF91CF91089521E75C
:103B1000829FC00111248E569F4F1DD291E08111CA
:103B200001C090E0892F0895EF92FF920F931F93A9
:103B3000CF93DF9391E7899F70011124C0E0D0E01B
:103B400000E010E0CE018E0D9F1D8C5D9F4F03D2D3
:103B5000080F111D2196CE36D105A1F7C801CDB7AA
:103B6000DEB7E6E00C941E2EECE6FFE280E090E08B
:103B70002191820F911D2FE2EA3DF207C9F70895C6
:103B80000F931F93CF93DF93C82FC1DF8823F9F0E2
:103B90008C2FCADF8C0181E7C89FE0011124CE0180
:103BA0008D569F4FDBD10817190789F4BE016C5D54
:103BB0007F4F41E750E08CE69FE2DBD1D5DF21E08B
:103BC0004091DB2F5091DC2F4817590709F020E076
:103BD000822FDF91CF911F910F910895ECE6FFE2C4
:103BE00080E090E02191820F911D2FE2EA3DF207E3
:103BF000C9F70895F3DF8093DB2F9093DC2F41E723
:103C000050E064E270E08CE69FE2ABD141E750E027
:103C100065E970E08CE69FE2A4D141E750E066E000
:103C200071E08CE69FE29DC14EE650E063EC71E0EE
:103C30008CE69FE20E942032D1DF8093DB2F9093AD
:103C4000DC2F81E08093DA2F41E750E064E270E0FE
:103C50008CE69FE286D141E750E065E970E08CE6B2
:103C60009FE27FD141E750E066E071E08CE69FE2A1
:103C700078C189EB91E09F938F9381E08F931F929E
:103C80009BDA1092DA2FD0DF8CE291E00E94F50EE1
:103C900074D10F900F900F900F900895E82FF0E0DF
:103CA000E459F04D80AD0895CF93DF9365D1CDE712
:103CB000D1E080E065DF882361F02FEF83EC99E0AD
:103CC000215080409040E1F700C000008DEA91E073
:103CD0001FC02FEF83EC99E0215080409040E1F726
:103CE00000C0000081E04CDF882319F081EA91E0F8
:103CF0000FC02FEF83EC99E0215080409040E1F716
:103D000000C0000082E03CDF882379F085E991E083
:103D10009F938F9381E08F931F924EDA0F900F90B5
:103D20000F900F90DF91CF9108952FEF83EC99E0E2
:103D3000215080409040E1F700C00000DF93CF9316
:103D400081E08F931F9238DA6FDF0F900F900F9002
:103D50000F90AFCF0F938D30A0F4E82FF0E0DF018C
:103D6000AA0FBB1FAA0FBB1FA059B04D6C93EE0F3B
:103D7000FF1FEE0FFF1FE459F04D45832683078395
:103D800039DF0F910895AFE0B0E0E9ECFEE10C946B
:103D9000092E83E089838091D42F8A83CE010196F6
:103DA0000E94790A2F96E2E00C94222E8093D42F61
:103DB00021DFE9CF0F931F938D30E8F4E82FF0E077
:103DC000DF01AA0FBB1FAA0FBB1FA059B04D8C91DA
:103DD000DB018C93EE0FFF1FEE0FFF1FE459F04D38
:103DE0008581DA018C938681D9018C938781F801D2
:103DF000808381E001C080E01F910F910895809140
:103E0000D42F08950F931F93CF938033C8F4C62FF8
:103E1000082F10E01F926F931F928F9389E692E014
:103E20009F938F9381E08F931F92C6D9F801E45935
:103E3000F04DC0AFDFDE8DB79EB708968DBF9EBF39
:103E4000CF911F910F910895AFE0B0E0EAE2FFE15A
:103E50000C94012E5B016C01142FE42EF12C1F92A7
:103E60004F938DE592E09F938F9301E00F931F9204
:103E7000A3D984E089830F900F900F900F900F903B
:103E80000F90103378F4AA82BB82CC82DD821E832D
:103E9000F701E459F04D80AD8F83CE0101960E9469
:103EA000790A0BC08DE492E09F938F930F931F923A
:103EB00083D90F900F900F900F902F96EAE00C94FB
:103EC0001A2EAFE0B0E0E7E6FFE10C94012E5B01B3
:103ED0006C01F42E042F10E01F924F9381E492E0C6
:103EE0009F938F93EE24E394EF921F9265D987E11D
:103EF00089830F900F900F900F900F900F9085E097
:103F00008F15D0F0AA82BB82CC82DD82FE8288E04F
:103F10008F83F80193E0EE0FFF1F9A95E1F7EC55C0
:103F2000F04DDE01189601900D928A95E1F7CE01D1
:103F300001960E94790A0BC081E392E09F938F93D0
:103F4000EF921F9239D90F900F900F900F902F96EC
:103F5000EAE00C941A2E0C94933508950C94A13534
:103F60000895CF93CFB7F8940E944735CFBFCF9134
:103F700008950C9490350895089561E089E790E0E4
:103F80000E947C2DFFCFAFE0B0E0E9ECFFE10C94A4
:103F9000F92D7C01FC016481758180E090E023EFC4
:103FA00031E040E050E00E94D22DF70122803380C2
:103FB000412C512C612C712C43015101C12CD12C6D
:103FC000E12CF12C00E010E00E942A2E49015A0158
:103FD0006B017C012093022D9092032D4093042DC0
:103FE000B092052D6093062DD092072D8093082D59
:103FF000F092092D8091FA2C9091FB2CA091FC2C31
:10400000B091FD2CB501A401481B590B6A0B7B0B29
:104010004131F7E25F076105710520F08FEF809372
:104020000A2D08C0413A8FE058076105710528F054
:1040300010920A2D109255211FC080910A2D4132F5
:1040400053406105710550F0803250F4E82FF0E0E4
:10405000EC57FD4FE491E03361F002C0803210F084
:104060008FEF08C0E82FF0E0EC57FD4FE491E1330B
:10407000B9F78F5F80930A2D8092FA2C9092FB2CD7
:10408000A092FC2CB092FD2CC092FE2CD092FF2C62
:10409000E092002DF092012D80910A2D893194F04B
:1040A0008091552181110EC081E08093552110929D
:1040B000F92C86E18983809155218A83CE0101966E
:1040C0000E94790A2F96E2E10C94122EAFE0B0E044
:1040D000ECE6F0E20C94092EFC018081811127C0EE
:1040E00081E080930B2D9091F92C21E0290F2093F2
:1040F000F92C9230E0F0909155219923B1F02CE702
:1041000032E03F932F938F931F9256D886E1898395
:1041100010925521809155218A83CE0101960E94EB
:10412000790A0F900F900F900F90109255212F96B3
:10413000E2E00C94222EE0E6F6E082E0818381E06A
:1041400082839FB7F89480898770808B808988618B
:10415000808B9FBF82858160828781858C7F826012
:1041600081878089808B63EC7FE181E00E948405F8
:1041700066E670E280E00C948405DDCF08959091AE
:10418000142D8091132D981711F180910E2D8F5FB2
:1041900080930E2D8B3080F01F928F9383ED92E0F1
:1041A0009F938F9381E08F931F9206D80F900F906B
:1041B0000F900F900F900F9080910E2D843110F47E
:1041C0000E949F0A8091122D81110E949F0A809166
:1041D0000C2D813081F030F0823041F1833009F4D0
:1041E0008DC008951092102D1092112D81E08093B2
:1041F0000C2D0C949F0A8091142D882329F00E9485
:104200009F0A82E080930C2D8091102D9091112DAA
:1042100001968093102D9093112D4E9708F499C01C
:104220000E949F0A83E080930C2D08959091142D95
:104230008091132D981355C08091122D82508D3F7F
:1042400098F50E949F0A8091102D9091112D019652
:104250008093102D9093112D8031910588F09F93BC
:104260008F9386EC92E09F938F9381E08F931F92C0
:104270000E94DC180F900F900F900F900F900F90EE
:1042800080910F2D882331F01092102D1092112D56
:1042900010920F2D8091102D9091112D4E9748F175
:1042A00083E080930C2D25C080910D2D1F928F935C
:1042B0008DEB92E09F938F9381E08F931F920E94EA
:1042C000DC1880910D2D91E0980F90930D2D0F909B
:1042D0000F900F900F900F900F908B3050F04DDE9D
:1042E00008C010920D2D0E949F0A1092102D10925E
:1042F000112D8091142D8093132D08950E949F0AF3
:104300008091102D9091112D849758F454D08DEAFE
:1043100092E09F938F9381E08F931F920E94DC180D
:104320000BC05AD085EA92E09F938F9381E08F93E0
:104330001F920E94DC1821DE0F900F900F900F90BB
:104340008091102D9091112D01968093102D9093B6
:10435000112D089510920E2D08958093122D8091A5
:10436000142D8F5F09F481E08093142D10920E2D8F
:1043700008950F931F930FEB10E220E030E041E02F
:1043800064E670E08FED90E20E94E0168093152DB8
:104390009093162D0E94E20D04E610E020E030E03C
:1043A000AC0161E08091152D9091162D0E940317AC
:1043B0001F910F910895E0E6F6E080E18183858307
:1043C00080E285838183E0ECF9E08381877F8383CA
:1043D00083818F7E83830895E0E6F6E080E2868322
:1043E000818380E1818386830895DC0120E030E0D1
:1043F00050E02417350750F4F901E60FF71FEF518D
:10440000F04DE081ED932F5F3F4FF3CFFC01E40FC0
:10441000F51F10820895A2EDB0E0E1E1F2E20C9404
:10442000022EE8E1FDE201900020E9F731978F01CB
:1044300008511D42B02E82E0898311271F930F93EC
:1044400083EF90E29F938F937E0149ECE40EF11C81
:10445000FF92EF920E945132D7018C918A8311967C
:104460003C9111973B8312962C912C8390E00196FE
:10447000830F911D820F911D092E000CAA0BBB0BFF
:1044800028E13DE2FE0131966F010F900F900F90F1
:104490000F900F900F90BF01462F4C194B1560F4F1
:1044A000F90141919F01FB014483840F911DA11DDE
:1044B000B11D6F5F7F4FF0CF9F938F9388EF90E296
:1044C0009F938F93FF92EF920E945132F701D80190
:1044D0001496AC0DBD1DC70104960F900F900F9060
:1044E0000F900F900F9021912D93E817F907D9F7AE
:1044F000FE01E00FF11F83E08187FE01E00FF11F55
:104500008AE082878091DF2F9091E02FA801465F9B
:104510005F4FDC011696ED91FC911797B601099556
:10452000CE52DF4FE9E00C941B2EA3E0B0E0EBE9A4
:10453000F2E20C94092EFC01E60FF71F208129837B
:104540006F5F7F4FFC01E60FF71F80818A831B821C
:1045500040E150E060E070E0CE0101960E9407313A
:10456000862F2396E2E00C94222EAEE1B0E0EBEB36
:10457000F2E20C94042E7B018C010255124DC8010D
:104580008E5A9D42880F991F20914A2E30914B2EB2
:104590008217930758F4B70181EE9FE2C6DFF80156
:1045A00081938F01F2E0EF0EF11CE9CFD090AF2D97
:1045B00081E0D8125EC086E3898380E38A838AE340
:1045C0008B831C828E010F5F1F4FB80188E19DE233
:1045D0000E9446328091CF001F928F938091CE002F
:1045E0001F928F938091CD001F928F938DEF90E259
:1045F0009F938F931F930F930E945132B80188E1CC
:104600009DE20E9446328091FD6F1F928F9385E05C
:10461000E82E81E2F82EFF92EF921F930F930E94F3
:104620005132B80188E19DE20E9446321F928AE031
:104630008F93FF92EF921F930F930E945132B80114
:1046400088E19DE20E9446321F92DF92FF92EF9234
:104650001F930F930E945132B80188E19DE20E949E
:104660004632B80188E19DE20E944632CDBFDEBFEE
:1046700006C069E071E288E19DE20E9446326E96D2
:10468000E7E00C941D2E64E070E081EE9FE24DDFC8
:104690008093AE2D66E070E081EE9FE246DF80936E
:1046A000AF2D44E064E070E088E19DE29EDE809101
:1046B000AE2D803231F468E070E082E090E055DFAA
:1046C00006C069E071E288E19DE20E944632A3CE15
:1046D000A0E0B0E0EEE6F3E20C94032E8091DF2F31
:1046E0009091E02FDC011A96ED91FC911B9701E06F
:1046F0002EE440E052EC61E070E00995F12CC0E05E
:10470000D0E0E091DF2FF091E02F83A592A59817DC
:1047100051F0DF01A80FB11D1C969C918F5F8E3167
:1047200058F013A60AC083E090E00E94F50E8E01B7
:10473000F11020C0E801E5CF83A7FE01EF51F04D55
:104740009083C11522E0D20708F08DC08091E12F3F
:10475000823011F0C0E0D0E08E010F5F1F4FCF51CB
:10476000D04D88818A3021F700934C2E10934D2E26
:1047700000E010E08091E12F823019F0FF24F394E3
:10478000D9CFE0914C2EF0914D2EE052F04D80812A
:104790008A30A1F7C090E22FD091E32FC091E42F8F
:1047A00043E061E070E084E49EE21FDE40E150E01F
:1047B00060E070E084E49EE20E940731AB01609308
:1047C0004A2E70934B2E20914C2E30914D2E2A5014
:1047D00031096217730709F043C0D12CBFEFCB1A20
:1047E000DB0ACD0ED11CCC0ED11C0D2C000CEE081A
:1047F000FF0820E030E0F90134962417350750F423
:10480000EF51F04DE081CE0ED11CE11CF11C2F5F69
:104810003F4FF1CFDB011496AB01485F5F4FFA01C8
:10482000EF51F04D20812330D9F444E0BD0184E400
:104830009EE2DBDD40E150E060E070E084E49EE277
:104840000E940731C626D726E826F926EE24FF2443
:10485000CD28CE28CF2811F0F12C6CCF14DFFCCF5F
:104860001092E12FF9CFC0E0D0E070CFEF92FF922D
:104870000F938091172D811125C081E08093172D12
:1048800087E090E28093DF2F9093E02F90D043E079
:1048900060E081E00E940514009739F020E040E0DC
:1048A00050E060E070E00E942E14E12CF12C00E05A
:1048B00020E030E042E152E06CE071E288E693E211
:1048C0000E94C40C0F91FF90EF900895A1E0B0E01A
:1048D000ECE6F4E20C94072EFC01698384A595A50F
:1048E0000097A1F08F012AE030E041E050E0BE01E6
:1048F0006F5F7F4FEED3D8011296ED91FC91139725
:10490000309709F00995898190E002C08FEF9FEF01
:104910002196E4E00C94202ECF93DF93EC012AE063
:1049200030E08CA59DA5D5D3EA81FB81309709F0B5
:104930000995DF91CF910895A0E0B0E0E2EAF4E2BA
:104940000C94092E80918A2E90918B2E009751F114
:1049500064E670E00E947D15882321F19E01275FA7
:104960003F4F4F8158856CE370E08EE49EE20E94D9
:104970007032EEE4FEE201900020E9F73197AF01DA
:104980004E545E426EE47EE28D819E81C5DF20E062
:1049900040E050E060E070E080918A2E90918B2E94
:1049A0000E942E1480E090E0E2E00C94222E809190
:1049B0008A2E90918B2E892B39F481E00E94B614B7
:1049C00080938A2E90938B2E0895E82FE695E69596
:1049D000E69590E2E99FF0011124E05FF94F8770BE
:1049E000E80FF11D9FB7F8948081877080838081E4
:1049F000682B60839FBF089584E391E29F938F9318
:104A000088E191E29F938F9381E08F931F920E94A0
:104A1000AC180F900F900F900F900F900F9008957B
:104A20008F929F92AF92BF92EF92FF920F93CF938C
:104A3000DF93CDB7DEB72797CDBFDEBF7C014A013C
:104A40005B0180918C2E882331F06CEF74E280E062
:104A50000E94840577C081E080938C2E011117C0DD
:104A600068E182E1B2DF9FB7F89480915206887FB7
:104A70008093520680915206809352069FBF84E035
:104A80008093420660E083E1A0DF88E01BC0809154
:104A90004E06806180934E0668E186E196DF9FB7FF
:104AA000F89480915606887F80935606809156062A
:104AB000809356069FBF80E48093420660E087E1C2
:104AC00084DF80E880934106F70112A613A684A52F
:104AD00095A5892B49F440E061E070E080E290E028
:104AE000B9D2F70184A795A78092632090926420A1
:104AF000A0926520B0926620809167208D8380917E
:104B000068208E83809169208F8389829A82AB820C
:104B1000BC8260E183E0F4D3BE016F5F7F4F80EC25
:104B200098E036D58091C30880618093C308809156
:104B3000C30888608093C3088091C2088F7C80611D
:104B40008093C2082796CDBFDEBFDF91CF910F9132
:104B5000FF90EF90BF90AF909F908F900895E0EC02
:104B6000F8E082818F7C806182830895E0ECF8E038
:104B700082818C7F8160828308951F920F920FB68D
:104B80000F9211248F939F93EF93FF9380915F2057
:104B90009091C008E82FF0E0EB5CFF4D94878F5FA9
:104BA0008E3118F480935F2002C010925F20FF9135
:104BB000EF919F918F910F900FBE0F901F901895BE
:104BC0001F920F920FB60F9211242F933F934F9382
:104BD0005F936F937F938F939F93AF93BF93EF9365
:104BE000FF93CF93DF9300D0CDB7DEB71A829E013B
:104BF0002E5F3F4F41E050E0BE016F5F7F4F8091DD
:104C0000612090916220E1D2892B41F08A8181114B
:104C10000E94610B89818093C00805C08091C20801
:104C20008C7F8093C2080F900F90DF91CF91FF91FE
:104C3000EF91BF91AF919F918F917F916F915F9114
:104C40004F913F912F910F900FBE0F901F9018958D
:104C5000E82FE695E695E69590E2E99FF0011124AC
:104C6000E05FF94F8770E80FF11D9FB7F8948081DE
:104C7000877080838081682B60839FBF089580E464
:104C800091E29F938F9388E191E29F938F9381E0CC
:104C90008F931F920E94AC180F900F900F900F905F
:104CA0000F900F9008958F929F92AF92BF92EF92C4
:104CB000FF920F93CF93DF93CDB7DEB72797CDBF8A
:104CC000DEBF7C014A015B0180918D2E882331F08B
:104CD0006FE376E280E00E94840576C081E08093F5
:104CE0008D2E011117C068E18AE1B2DF9FB7F894F9
:104CF00080917206887F80937206809172068093FD
:104D000072069FBF84E08093620660E08BE1A0DFC3
:104D100088E01BC080916E06806180936E0668E11A
:104D20008EE196DF9FB7F89480917606887F809316
:104D3000760680917606809376069FBF80E4809306
:104D4000620660E08FE184DF80E880936106F7010E
:104D500012A613A684A595A5892B49F440E061E02D
:104D600070E080E290E076D1F70184A795A7809269
:104D70006A2090926B20A0926C20B0926D2080915E
:104D80006E208D8380916F208E83809170208F8321
:104D900089829A82AB82BC8260E184E0B1D2BE019A
:104DA0006F5F7F4F80EC99E0F3D38091C3098061FE
:104DB0008093C3098091C30988608093C30980915F
:104DC000C20980638093C2092796CDBFDEBFDF9101
:104DD000CF910F91FF90EF90BF90AF909F908F90E9
:104DE0000895E0ECF9E08281806382830895E0EC2D
:104DF000F9E082818C7F8160828308951F920F92F7
:104E00000FB60F9211248F939F93EF93FF9380918E
:104E100031209091C009E82FF0E0E95FFF4D9487C1
:104E20008F5F8E3118F48093312002C010923120B0
:104E3000FF91EF919F918F910F900FBE0F901F9058
:104E400018951F920F920FB60F9211242F933F9334
:104E50004F935F936F937F938F939F93AF93BF9382
:104E6000EF93FF93CF93DF9300D0CDB7DEB71A82D5
:104E70009E012E5F3F4F41E050E0BE016F5F7F4FCC
:104E80008091332090913420A0D1892B41F08A81E8
:104E900081110E94610B89818093C00905C08091B6
:104EA000C2098C7F8093C2090F900F90DF91CF9140
:104EB000FF91EF91BF91AF919F918F917F916F91F2
:104EC0005F914F913F912F910F900FBE0F901F90C8
:104ED0001895FC014481558122813381240F351FAF
:104EE00080819181B901681B790BCB01641775072B
:104EF00010F0841B950B0895A0E0B0E0E1E8F7E224
:104F000080C66C015B017A01FC0102811381C481BE
:104F1000D581C01BD10B4C175D0708F4EA01F601DF
:104F200084859585AE01B501800F911F0E943632B0
:104F3000CE15DF0558F4A7014C1B5D0BB5016C0FB6
:104F40007D1FF601848595850E943632C8018E0D3D
:104F50009F1DF601248135818217930710F0821B73
:104F6000930BF60182839383C701CDB7DEB7EAE0E6
:104F700061C6A2E0B0E0EEEBF7E245C649835A8392
:104F800021153105C9F06B017C01FC01868580FD8E
:104F900008C0CA012417350708F4C90189839A8318
:104FA0000EC02017310740F042E050E0BE016F5FB5
:104FB0007F4FC701A1DF03C080E090E005C04981B9
:104FC0005A81B601C70198DF2296E8E035C6A0E015
:104FD000B0E0ECEEF7E215C6EA012417350708F455
:104FE000E901209791F1FC01E080F180C480D58037
:104FF000CE18DF08CC15DD0508F46E015B018C01CD
:10500000FC01648575856E0D7F1DA601C5010E949A
:105010003632CC16DD0658F4AE014C195D09F801A4
:1050200064857585C5018C0D9D1D0E943632CE01AB
:105030008E0D9F1DF801248135818217930710F092
:10504000821B930BF80180839183CE01CDB7DEB72D
:10505000EAE0F0C5EF92FF921F93CF93DF93EB014D
:1050600011E0413009F010E0209711F4C1E0D0E0E8
:105070007C012FEFE21AF20A41960E947918FC0196
:10508000892B71F080E1DF011D928A95E9F7CF014C
:10509000409684879587E482F582C683D7831687F6
:1050A000CF01DF91CF911F91FF90EF900895FC0108
:1050B000248135818081918142815381820F931FA8
:1050C0000197841B950B8217930710F0821B930B9B
:1050D0000895A5E0B0E0EEE6F8E28DC56C012B0185
:1050E0004A012C833D83FC0186853A0180FF03C081
:1050F000F2E06F0E711C8C819D81892B21F4C60119
:10510000D6DF5C0137C0CE0101960E94AD0F0FB60D
:10511000F8940F92C601CBDF5C018615970520F548
:1051200080E090E00E9475120E941410F6018287C0
:1051300093870F900FBEEC80FD8000E010E020E030
:1051400030E0A90160E070E0CB010E941311F6018C
:1051500012861386BE016C5F7F4FCE0101960E94BE
:10516000C80F8823A1F202C00F900FBEA114B10492
:1051700009F4C5CF83019501A401B201C601F9DE8E
:105180005C01892BF1F0C601A4DEF601268137818E
:1051900082179307B0F00E94DC0DF601808591859F
:1051A000892B69F08085918500E010E020E040E0E7
:1051B00050E0BA010E949911F601108611860E94F2
:1051C0008E0EC5012596E0E12FC5A2E0B0E0EAEE23
:1051D000F8E211C56C014B015A013901FC018685C9
:1051E00080FD03C0E12CF12C03C082E0E82EF12CFD
:1051F000C6016FDE8C01E816F90618F0A12CB12C5F
:1052000036C0E114F104C1F0F601408051809C01E8
:10521000A701BE016F5F7F4FC601D9DE89819A81E8
:105220000E191F09A816B90630F4F6014082518202
:10523000A12CB12C01C05C019801A501B401C601EB
:10524000C6DE5C01892BD1F2F60182859385892B1C
:1052500071F082859385730100E010E020E040E06A
:1052600050E0BA010E94FF11F60112861386C501B3
:105270002296E0E1D9C48FEF809370008093710093
:105280008093720080937300809374008093750004
:10529000809376009FB7F89480915000826080934D
:1052A00050009FBF8091510081FFFCCF9FB7F894C1
:1052B000809150008460809350009FBF8091510086
:1052C00082FFFCCF9FB7F89480915600897F80932E
:1052D0005600809156008093560080916000816056
:1052E000809360009FBF61E080E490E005D49FB7A9
:1052F000F894809150008E7F809350009FBF089556
:105300009FB7F894E82FF0E0E059FF4F6095808157
:10531000682360839FBF08959FB7F894E82FF0E05B
:10532000E059FF4F8081682B60839FBF08950097ED
:1053300009F45DC0811524E0920711F464E055C0C2
:10534000803821E0920711F462E04FC0811521E01E
:10535000920711F461E049C0803823E0920711F40C
:1053600061E00BC0811522E0920711F462E005C0F4
:10537000811523E0920719F464E081E037C08115BC
:1053800028E0920711F461E02AC0803428E09207F7
:1053900011F462E024C0803429E0920711F462E045
:1053A00017C0803B28E0920711F464E018C0803EEB
:1053B00028E0920711F468E012C0803C28E09207D0
:1053C00011F460E10CC0803C29E0920719F460E11F
:1053D00084E00CC0803824E0920719F460E483E094
:1053E00005C08036944019F460E880E089CF0895C4
:1053F000A0E0B0E0EDEFF9E202C4EC016A017B014C
:10540000480159018B81B901A80182FF11C0A3E0B5
:105410007695679557954795AA95D1F7D901C80113
:1054200026E1B695A795979587952A95D1F710C04F
:10543000E4E07695679557954795EA95D1F7D901B8
:10544000C801F7E1B695A79597958795FA95D1F795
:105450004C155D056E057F0508F495C0C816D90684
:10546000EA06FB0608F48FC08B8182FD04C0CC0CD9
:10547000DD1CEE1CFF1CC501B401A701960151D330
:1054800019EF8FEF90E0A0E0B0E0281739074A0746
:105490005B0758F0880F991FAA1FBB1F1D3F0CF414
:1054A00081601F5F173089F748C017FF46C0D701DA
:1054B000C601F3E0880F991FAA1FBB1FFA95D1F709
:1054C000881A990AAA0ABB0A812F012E000C990B8F
:1054D0001E3FDCF42DEF3FEFA901481B590B04C020
:1054E000880C991CAA1CBB1C4A95D2F7D701C6018F
:1054F000B695A79597958795BC01CD01680D791D47
:105500008A1D9B1DA701960116C00396A70196014F
:1055100004C0220F331F441F551F8A95D2F7DA01AA
:10552000C901B695A79597958795BC01CD01680DE2
:10553000791D8A1D9B1DF5D21CC083E0810FA70138
:10554000960104C0220F331F441F551F8A95D2F7BE
:10555000DA01C901B695A79597958795BC01CD014C
:10556000680D791D8A1D9B1DDCD22150310941092E
:105570005109932F9F70812F8295807F892B8F8374
:105580002E8381E001C080E0CDB7DEB7ECE050C3F0
:105590000F931F93CF93DF93EC018B01C8DE8C81B7
:1055A0008F738C83F80195818481982B868181117A
:1055B00088E0892B8C83F80140815181628173815D
:1055C00000E018E428EE31E0CE0112DF9B81986004
:1055D0009B839B8190619B83DF91CF911F910F9162
:1055E00008958091820080FDFCCF08959091800005
:1055F00024E0829FB00111246C7392709160692B3A
:1056000080E890E079D2EDCF609180006C736360A8
:1056100080E890E071D2E5CF8115924059F48091F5
:105620008E2E91E0980F90938E2E811103C062E030
:1056300081E066CE08958115924051F480918E2EBE
:10564000815080938E2E811103C062E081E064CE90
:1056500008951F93CF93DF93EC011FB7F894DCDF1D
:105660008881816088831FBF9FB7F894E1EEF1E3E2
:1056700081818F5F81839FBFDF91CF911F910895BB
:10568000CF93CFB7F894FC0120812E7F2083D3DF06
:10569000CFBF9FB7F894E1EEF1E381818150818320
:1056A0009FBFCF910895FF920F931F93CF93DF93E6
:1056B00081159240C1F5EB0161E270E082E012D207
:1056C000082F10E060E270E082E00CD2102F00277B
:1056D000082BFFB6F89480E092E09EDF80910002F4
:1056E000817092E09093000200930C0210930D02DF
:1056F0002C813D8120931802309319029981909357
:1057000002029B81909304029A81909303029881F4
:10571000909301029E81909308028093000280E0A2
:1057200092E089DFFFBECDB7DEB7E5E088C2FF9229
:105730000F931F93CF93DF93EC018B01FFB6F89487
:105740006BDF888D998DF801848395838A818183AD
:105750008C8183838B818283898180838885868302
:10576000CE0169DFFFBECDB7DEB7E5E068C2FF92CC
:105770000F931F93CF93DF93EC018A01FFB6F89448
:105780004BDFF801808188A382818AA3818189A36C
:1057900083818EA384818FA3858188A7868189A731
:1057A00087818AA780858BA781858CA7CE0143DF5F
:1057B000FFBECDB7DEB7E5E042C2FF920F931F9365
:1057C000CF93DF93EC018A01FFB6F89425DF88A11F
:1057D000F80180838AA1828389A181838EA183833A
:1057E0008FA1848388A5858389A586838AA58783DD
:1057F0008BA580878CA58187CE011DDFFFBECDB72D
:10580000DEB7E5E01CC21F920F920FB60F92112473
:105810002F933F934F935F936F937F938F939F93B8
:10582000AF93BF93EF93FF93E0919D2EF0919E2E47
:10583000309709F00995FF91EF91BF91AF919F913A
:105840008F917F916F915F914F913F912F910F9029
:105850000FBE0F901F9018951F920F920FB60F92C8
:1058600011242F933F934F935F936F937F938F9365
:105870009F93AF93BF93EF93FF93E0919B2EF09193
:105880009C2E309709F00995FF91EF91BF91AF9150
:105890009F918F917F916F915F914F913F912F9148
:1058A0000F900FBE0F901F9018951F920F920FB67A
:1058B0000F9211242F933F934F935F936F937F9396
:1058C0008F939F93AF93BF93EF93FF93E091992EA4
:1058D000F0919A2E309709F00995FF91EF91BF91C1
:1058E000AF919F918F917F916F915F914F913F9178
:1058F0002F910F900FBE0F901F9018951F920F922F
:105900000FB60F9211242F933F934F935F936F9392
:105910007F938F939F93AF93BF93EF93FF93E09108
:10592000972EF091982E309709F00995FF91EF91FD
:10593000BF91AF919F918F917F916F915F914F91A7
:105940003F912F910F900FBE0F901F9018951F92AF
:105950000F920FB60F9211242F933F934F935F93A3
:105960006F937F938F939F93AF93BF93EF93FF9327
:10597000E091952EF091962E309709F00995FF91C0
:10598000EF91BF91AF919F918F917F916F915F91B7
:105990004F913F912F910F900FBE0F901F90189530
:1059A0001F920F920FB60F9211242F933F934F9394
:1059B0005F936F937F938F939F93AF93BF93EF9377
:1059C000FF93E091932EF091942E309709F0099572
:1059D000FF91EF91BF91AF919F918F917F916F91C7
:1059E0005F914F913F912F910F900FBE0F901F909D
:1059F00018951F920F920FB60F9211242F933F9379
:105A00004F935F936F937F938F939F93AF93BF93C6
:105A1000EF93FF93E091912EF091922E309709F041
:105A20000995FF91EF91BF91AF919F918F917F91D8
:105A30006F915F914F913F912F910F900FBE0F90FB
:105A40001F9018951F920F920FB60F9211242F934B
:105A50003F934F935F936F937F938F939F93AF93F6
:105A6000BF93EF93FF93E0918F2EF091902E30979C
:105A700009F00995FF91EF91BF91AF919F918F919F
:105A80007F916F915F914F913F912F910F900FBE3A
:105A90000F901F901895CF93CFB7F894811528E0F9
:105AA000920711F461E005C0803428E0920731F4D8
:105AB00062E083E025DC64E083E008C08034994044
:105AC00071F462E084E01CDC64E084E019DC9FB7E0
:105AD000F8948091E2318F5F8093E2319FBFCFBF16
:105AE000CF9108954091CA01E62FF72F8093CA0104
:105AF00084914093CA0108951BBEFC0128ED24BF88
:105B000060830895DB018F939F9342D0BF91AF9143
:105B1000A29F800D911DA39F900DB29F900D112407
:105B20000895A1E21A2EAA1BBB1BFD010DC0AA1FDE
:105B3000BB1FEE1FFF1FA217B307E407F50720F0F6
:105B4000A21BB30BE40BF50B661F771F881F991F71
:105B50001A9469F760957095809590959B01AC01BA
:105B6000BD01CF010895EE0FFF1F0590F491E02DC8
:105B70000994A29FB001B39FC001A39F700D811D26
:105B80001124911DB29F700D811D1124911D089546
:105B9000F0DFA59F900DB49F900DA49F800D911DE7
:105BA00011240895E894DF93CF93FC01DB01E1DF3A
:105BB0007F936F93E9019A01AC01BF93AF933F9339
:105BC0002F93DF01D6DF26F46C1B7D0B820B930B2A
:105BD0009E01EB01FC0153D0AF91BF912F913F91FA
:105BE0004ED0BE01CF01F9012F913F91CF91DF91AE
:105BF00008952F923F924F925F926F927F928F9271
:105C00009F92AF92BF92CF92DF92EF92FF920F934B
:105C10001F93CF93DF93CDB7DEB7CA1BDB0BCDBF8E
:105C2000DEBF09942A88398848885F846E847D8421
:105C30008C849B84AA84B984C884DF80EE80FD8034
:105C40000C811B81AA81B981CE0FD11DCDBFDEBFD2
:105C5000ED0108952A0D3B1D4C1D5D1D6E1D7F1D20
:105C6000801F911F08950024A7FD00942A0F301D66
:105C7000401D501D601D701D801D901D089579DF11
:105C8000460F571FC81FD91F08F4319608950CD02E
:105C9000E6C0DED040F0D5D030F021F45F3F19F0FF
:105CA000C7C0511110C1CAC0EBD098F39923C9F3F2
:105CB0005523B1F3951B550BBB27AA276217730712
:105CC000840738F09F5F5F4F220F331F441FAA1FC6
:105CD000A9F333D00E2E3AF0E0E830D09150504086
:105CE000E695001CCAF729D0FE2F27D0660F771F34
:105CF000881FBB1F261737074807AB07B0E809F016
:105D0000BB0B802DBF01FF2793585F4F2AF09E3FAA
:105D1000510568F08DC0D7C05F3FECF3983EDCF3CF
:105D2000869577956795B795F7959F5FC9F7880F23
:105D3000911D9695879597F90895E1E0660F771F75
:105D4000881FBB1F621773078407BA0720F0621B06
:105D5000730B840BBA0BEE1F88F7E095089598D06B
:105D600088F09F5790F0B92F9927B751A0F0D1F044
:105D7000660F771F881F991F1AF0BA95C9F712C0CE
:105D8000B13081F09FD0B1E008959CC0672F782F8B
:105D90008827B85F39F0B93FCCF38695779567953A
:105DA000B395D9F73EF490958095709561957F4FA6
:105DB0008F4F9F4F0895E89409C097FB3EF490954C
:105DC0008095709561957F4F8F4F9F4F9923A9F0D4
:105DD000F92F96E9BB279395F69587957795679563
:105DE000B795F111F8CFFAF4BB0F11F460FF1BC0A7
:105DF0006F5F7F4F8F4F9F4F16C0882311F096E93A
:105E000011C0772321F09EE8872F762F05C06623E7
:105E100071F096E8862F70E060E02AF09A95660FA0
:105E2000771F881FDAF7880F9695879597F9089559
:105E300097F99F6780E870E060E008959FEF80EC3D
:105E4000089500240A9416161706180609060895E0
:105E500000240A9412161306140605060895092E46
:105E60000394000C11F4882352F0BB0F40F4BF2BB5
:105E700011F460FF04C06F5F7F4F8F4F9F4F0895F5
:105E800057FD9058440F551F59F05F3F71F04795EB
:105E9000880F97FB991F61F09F3F79F087950895D0
:105EA000121613061406551FF2CF4695F1DF08C0EF
:105EB000161617061806991FF1CF8695710561050C
:105EC00008940895E894BB2766277727CB0197F9B4
:105ED00008950BD0C4CFB5DF28F0BADF18F09523B2
:105EE00009F0A6CFABCF1124EECFCADFA0F3959F68
:105EF000D1F3950F50E0551F629FF001729FBB27B1
:105F0000F00DB11D639FAA27F00DB11DAA1F649F5C
:105F10006627B00DA11D661F829F2227B00DA11D0F
:105F2000621F739FB00DA11D621F839FA00D611D95
:105F3000221F749F3327A00D611D231F849F600DB6
:105F4000211D822F762F6A2F11249F5750408AF0EF
:105F5000E1F088234AF0EE0FFF1FBB1F661F771F7B
:105F6000881F91505040A9F79E3F510570F060CFB7
:105F7000AACF5F3FECF3983EDCF386957795679563
:105F8000B795F795E7959F5FC1F7FE2B880F911D99
:105F90009695879597F908950F931F93CF93DF9365
:105FA000869F8001879F100D969F100D1124C801B8
:105FB0000DD0EC01009721F0A80160E070E05FD205
:105FC000CE01DF91CF911F910F9108950F931F93F1
:105FD000CF93DF938230910510F482E090E0E0915E
:105FE000E931F091EA3120E030E0A0E0B0E0309714
:105FF00019F1408151810281138148175907C8F076
:106000008417950769F4109731F012960C93129744
:1060100013961C9327C00093E9311093EA3122C0F4
:106020002115310519F04217530718F49A01BD01E3
:10603000EF01DF01F801DBCF21153105F9F0281B55
:10604000390B2430310580F48A819B8161157105FB
:1060500021F0FB018283938304C08093E931909304
:10606000EA31FE01329644C0FE01E20FF31F819334
:10607000919322503109288339833AC02091E73126
:106080003091E831232B41F42091022030910320FC
:106090002093E7313093E8312091002030910120A6
:1060A0002115310541F42DB73EB7409104205091A0
:1060B0000520241B350BE091E731F091E831E21720
:1060C000F307A0F42E1B3F0B2817390778F0AC011B
:1060D0004E5F5F4F2417350748F04E0F5F1F409308
:1060E000E7315093E8318193919302C0E0E0F0E012
:1060F000CF01DF91CF911F910F910895CF93DF933F
:10610000009709F481C0FC01329712821382A0919A
:10611000E931B091EA31109781F420813181820F09
:10612000931F2091E7313091E8312817390751F555
:10613000E093E731F093E83167C0ED0120E030E013
:10614000CE17DF0740F44A815B819E01411551055E
:10615000F1F0EA01F5CFC283D38340815181840FEE
:10616000951FC817D90759F488819981840F951F05
:106170000296808391838A819B81828393832115F8
:10618000310529F4E093E931F093EA313DC0E901AA
:10619000EA83FB8349915991C40FD51FEC17FD0782
:1061A00061F480819181840F951F0296E9018883B3
:1061B0009983828193818A839B83E0E0F0E0129649
:1061C0008D919C911397009719F0FD01DC01F7CF99
:1061D0008D919C9111979D012E5F3F4F820F931FD0
:1061E0002091E7313091E8312817390769F4309769
:1061F00029F41092E9311092EA3102C0128213821E
:10620000A093E731B093E831DF91CF910895A0E0FA
:10621000B0E0ECE0F1E3EECC5C016B017A016115DA
:10622000710519F0FB0180839183E114F10429F0D9
:10623000C7010297839708F0E2C0E5012196F501B6
:106240001081812F90E0F4D0892B11F05E01F5CF01
:106250001D3229F42196F501118101E007C01B329E
:1062600021F4E5012296F501118100E0E114F10429
:1062700009F1F0E1EF16F10429F43EC010E3E11456
:10628000F10421F128E0E216F10401F154F4E2E016
:10629000EE16F10421F5812C912CA12CB0E4BB2E3B
:1062A0003DC0FAE0EF16F10439F020E1E216F10406
:1062B000B1F42FC0103311F1FAE0EF2EF12CACEC59
:1062C0008A2E982CA82CACE0BA2E28C078E0E72EB5
:1062D000F12C812C912CA12CE0E1BE2E1FC060E09E
:1062E00070E080E090E897010F2C000C440B550BF8
:1062F00018DC49015A0112C0103359F488818F7D8E
:10630000883509F0BBCF19812296026080E1E82E22
:10631000F12C812C912CA12C68E0B62E40E060E09D
:1063200070E0CB0127010F2C000C66087708FE01F6
:1063300050ED352E310E29E0231570F42FEB210F8F
:106340002A3118F439EC332E06C02FE9210F2A31F7
:1063500010F529EA322E310E232D30E02E153F059F
:10636000D4F447FD15C086169706A806B90668F04E
:10637000A3019201C7DB630D711D811D911D613069
:106380007105810520E8920710F04FEF01C041E050
:1063900021961081CCCF202F2170C114D10471F02F
:1063A000442329F02197F601C083D18307C001FF60
:1063B00019C02297F601C083D18314C047FF12C0D1
:1063C000222329F060E070E080E090E804C06FEFE5
:1063D0007FEF8FEF9FE722E230E02093EB313093A5
:1063E000EC3109C0222381F09095809570956195DC
:1063F0007F4F8F4F9F4F462F372F282F12C040E0DF
:1064000030E020E090E00DC097FFF5CF82E290E011
:106410008093EB319093EC316FEF7FEF8FEF9FE73D
:10642000EACF642F732F822FCDB7DEB7E1E1FBCB2C
:1064300091117AC2803219F089508550D0F70895B1
:10644000FB01DC0102C005900D9241505040D8F78D
:106450000895FB01DC0104C08D910190801921F4A5
:1064600041505040C8F7881B990B0895FB01DC018F
:1064700002C001900D9241505040D8F70895DC01C0
:1064800001C06D9341505040E0F70895FB01DC01DD
:106490000D900020E9F7119701900D920020E1F78F
:1064A0000895AEE0B0E0E6E5F2E3B1CB0D891E89D8
:1064B00086E08C8309831A838FEF9FE78D839E8309
:1064C000AE01475E5F4F6F89788DCE0101965AD03D
:1064D000EF81F885E00FF11F10822E96E4E0B0CB3B
:1064E000AEE0B0E0E5E7F2E392CB8C01FA0186E0A2
:1064F0008C8309831A8377FF02C060E070E8CB01C8
:1065000001978D839E83A901BF01CE0101963AD0E8
:106510004D815E8157FD0AC02F8138854217530790
:106520000CF49A01F801E20FF31F10822E96E4E0BA
:1065300087CBAEE0B0E0EEE9F2E369CB8C01FA0183
:106540008EE08C8309831A8377FF02C060E070E8D5
:10655000CB0101978D839E83A901BF01CE010196D6
:1065600011D04D815E8157FD0AC02F8138854217B9
:1065700053070CF49A01F801E20FF31F10822E96D4
:10658000E4E05ECBABE0B0E0E7ECF2E332CB6C01F1
:106590007B018A01FC0116821782838181FFBFC1C2
:1065A000CE0101963C01F6019381F70193FD85919F
:1065B00093FF81917F01882309F4ADC1853239F4BD
:1065C00093FD859193FF81917F01853221F4B6017E
:1065D00090E0C3D1E8CF912C212C312CFFE1F315B1
:1065E000D8F08B3279F038F4803279F08332A1F42C
:1065F000232D20611DC08D3261F0803369F4232D7D
:10660000216016C0832D8260382EE32DE4603E2E7B
:106610002AC0F32DF8601DC037FC2DC020ED280FD7
:106620002A3040F08E32B9F436FC75C1232D206437
:10663000322E19C036FE06C08AE0989E200D112425
:10664000922E11C0EAE02E9E200D1124222EF32D51
:10665000F0623F2E08C08C3621F4832D8068382EDE
:1066600002C0883641F4F70193FD859193FF819133
:106670007F018111B3CF982F9F7D9554933028F4DB
:106680000C5F1F4F9FE399830DC0833631F0833732
:1066900071F0833509F055C020C0F80180818983ED
:1066A0000E5F1F4F88248394912C530112C0280140
:1066B000F2E04F0E511CF801A080B18036FE03C0FD
:1066C000692D70E002C06FEF7FEFC5013BD14C0137
:1066D0008201F32DFF773F2E15C0280122E0420EE4
:1066E000511CF801A080B18036FE03C0692D70E016
:1066F00002C06FEF7FEFC5011AD14C01F32DF06896
:106700003F2E820133FC19C0822D90E08816990635
:10671000A0F4B60180E290E020D12A94F5CFF501F3
:1067200037FC859137FE81915F01B60190E015D16C
:1067300021102A9421E0821A91088114910479F79A
:10674000E1C0843611F0893639F5F80137FE07C00B
:1067500060817181828193810C5F1F4F08C06081CD
:106760007181072E000C880B990B0E5F1F4FF32DC4
:10677000FF763F2E97FF09C09095809570956195A3
:106780007F4F8F4F9F4FF0683F2E2AE030E0A301EC
:1067900020D1882E861844C0853731F4232D2F7ED2
:1067A000B22E2AE030E025C0932D997FB92E8F3686
:1067B000C1F018F4883579F0AEC0803719F0883709
:1067C00021F0A9C0E92FE061BE2EB4FE0DC0FB2D63
:1067D000F460BF2E09C034FE0AC0292F2660B22EF5
:1067E00006C028E030E005C020E130E002C020E132
:1067F00032E0F801B7FE07C0608171818281938128
:106800000C5F1F4F06C06081718180E090E00E5FD9
:106810001F4FA301DED0882E8618FB2DFF773F2E59
:1068200036FE0DC0232D2E7FA22E891458F434FE7F
:106830000BC032FC09C0832D8E7EA82E05C0B82C5B
:10684000A32C03C0B82C01C0B92CA4FE0FC0FE01BC
:10685000E80DF11D8081803321F49A2D997EA92EB7
:1068600009C0A2FE06C0B394B39404C08A2D8678F2
:1068700009F0B394A3FC10C0A0FE06C0B21480F4CB
:10688000280C922C9B180DC0B21458F4B60180E26B
:1068900090E063D0B394F8CFB21418F42B1802C070
:1068A000982C212CA4FE0FC0B60180E390E055D0B7
:1068B000A2FE16C0A1FC03C088E790E002C088E5F4
:1068C00090E0B6010CC08A2D867851F0A1FE02C07E
:1068D0008BE201C080E2A7FC8DE2B60190E03DD0E2
:1068E000891430F4B60180E390E037D09A94F8CF61
:1068F0008A94F301E80DF11D8081B60190E02DD05E
:106900008110F6CF222009F44ECEB60180E290E04D
:1069100024D02A94F7CFF6018681978102C08FEFA9
:106920009FEF2B96E2E17EC9992788270895FC0105
:106930000590615070400110D8F7809590958E0FAA
:106940009F1F0895FC016150704001900110D8F71D
:10695000809590958E0F9F1F08950F931F93CF934F
:10696000DF93FB01238121FD03C08FEF9FEF2CC03C
:1069700022FF16C046815781248135814217530773
:1069800044F4A081B1819D012F5F3F4F208331836B
:106990008C93268137812F5F3F4F2683378314C026
:1069A0008B01EC01FB010084F185E02D0995892B19
:1069B000E1F6D80116968D919C911797019616963F
:1069C0008D939C931797CE01DF91CF911F910F91DB
:1069D0000895FA01AA27283051F1203181F1E89475
:1069E0006F936E7F6E5F7F4F8F4F9F4FAF4FB1E0C2
:1069F0003ED0B4E03CD0670F781F891F9A1FA11DBD
:106A0000680F791F8A1F911DA11D6A0F711D811DBD
:106A1000911DA11D20D009F468943F912AE0269F82
:106A200011243019305D3193DEF6CF010895462FE1
:106A30004770405D4193B3E00FD0C9F7F6CF462FC2
:106A40004F70405D4A3318F0495D31FD405241932B
:106A500002D0A9F7EACFB4E0A695979587957795E8
:106A60006795BA95C9F700976105710508959B016F
:106A7000AC010A2E06945795479537952795BA95F8
:106A8000C9F7620F731F841F951FA01D0895A0E012
:106A9000B0E0ECE4F5E3B7C8C0E20FEF13E0D5E3F4
:106AA000FF24F39441155105B9F1262F2F713C2F86
:106AB000321B232F30E04217530708F49A01D22EDD
:106AC000F801E21BF30BE617F70708F45CD0E0913E
:106AD000CF01E7FDFCCFC82EDB01B05FFC01E090E9
:106AE000CF01E7FCFCCFE190ED92EE2EEC18ED1417
:106AF000B0F31092C2017093C1016093C001D093B2
:106B0000CA01E8EDE4BFF092CB01820F931F620F40
:106B1000731F421B530BC6CFCDB7DEB7E8E08CC85E
:106B20006050704FA3CC03D0808199270895FC0159
:106B3000E050F04F0895FBDF608171818281938185
:106B40000895F5DF808191810895262FAF93BF933B
:106B5000E0ECF1E0378537FDFDCFDC01A050B04F10
:106B60002C9325E3228728ED31E024BF338701965B
:106B7000BF91AF910895242FE9DF252FE7DF00C0F3
:106B8000E4DF272FE3CF81E090E0F89400C0F89491
:026B9000FFCF35
:106B92000000EF31200001F126F72666248C249CA8
:106BA2002453260000000000000000000000000046
:106BB20000000000000000000000000000000000D3
:106BC2000000000000AF25B62566248C249C24100A
:106BD200250000000000000000000000000000008E
:106BE20000000000000000000000000000000000A3
:106BF200000000000000000300000000000003008D
:106C0200009F02019F06079F03009F02019F151428
:106C12009F03006576656E745F7461736B00745FC9
:106C220062726B006576656E745F7461736B006C83
:106C3200656E20256420636F6D702025643A0025FF
:106C42003032582000435243204552522025640DD1
:106C52000A006374726C00745F3136300049444C30
:106C62004500546D725100546D7220537663007367
:106C720077635F74696D00103020406C65645F74E7
:106C8200696D0025303358002530345800256325BE
:106C92006325633A0025583A00303100757064610B
:106CA2007465207461736B002573206D756C746953
:106CB200706C6520636F6E66696775726174696F67
:106CC2006E0D0A0075617274435F6572726F7200B5
:0C6CD20075617274445F6572726F72002D
:026FFC00FE0194
:00000001FF
