:02000002C0003C
:10000000C85C0820F5000C0001640C00C1020C0063
:1000100001640C0001640C0001640C00000000008D
:10002000000000000000000000000000AD060C0011
:1000300001640C000000000001070C003D070C00EB
:1000400001640C0001640C0001640C0001640C00EC
:1000500001640C0001640C0001640C0001640C00DC
:10006000B13B0C00000000000000000075030C0014
:10007000CD030C00000000000000000000000000A4
:1000800000000000453D0C00C13E0C0001640C0066
:100090000000000001640C0065610C0001640C00AC
:1000A00001640C000000000001640C0001640C00FD
:1000B00001640C0001640C0001640C0001640C007C
:1000C00001640C00000000000000000000000000BF
:1000D000A56D0C0001640C0001640C0001640C00AF
:1000E00001640C0001640C0000000000ED2F0C0006
:1000F000C5300C0008B5154A154B9A4203D0154976
:10010000043A8B4219D30021134B144A934219D35A
:10011000134B144A23F0604121F07F0103F1604347
:10012000B3F5801F91603EBF936843F00053936026
:100130000BF0DAF900F05EF8FEE752F8040F43F82E
:10014000040BDEE743F8041BE0E700BF741E0D005C
:1001500000800720408C0720408C0720C43C0820EA
:1001600000000C0000ED00E010B5054C237833B919
:10017000044B13B10448AFF300800123237010BD7A
:10018000408C072000000000741E0D0008B5034BD2
:100190001BB103490348AFF3008008BD0000000015
:1001A000448C0720741E0D00034B044A1A60002281
:1001B000034B1A60704700BF6C330820B4810720DE
:1001C000608C0720024A0221032003F071BB00BFAC
:1001D00009F60C00024A0121002003F069BB00BFB0
:1001E00057F60C000378102B03D1407808B906F0BD
:1001F0006BBA70477FB503F029FB00F06DF903F08F
:1002000029FC03F065FF06F06DFA012006F064FAA0
:10021000012006F059FA002006F056FA03F0B8FA69
:100220001A49072003F0E8F91949082003F0E4F916
:100230001849092003F0E0F91749102003F0DCF910
:1002400003F07AFC1549164A049116491378CDE952
:10025000022191785278019100920121124A0020E6
:1002600003F026FB09F0EAFF06F0C0FE0AF028FAC8
:1002700000F0F0F90D4A0121002003F019FB00F015
:100280000DFC002007B05DF804FB00BFA9010C00C5
:10029000D5010C00C5010C00E5010C0036F60C0080
:1002A00070F60C003FF60C0018F60C004BF60C0034
:1002B00030BF024A1368013313607047608C072017
:1002C000064A074913688B4202D80133136070470E
:1002D000002001211060034A03F0EABA5C8C072079
:1002E000F5FF0900FCF50C0038B56424044D00212D
:1002F0002A46084603F0DCFA013CF8D138BD00BFBD
:1003000067F60C00012070470620704701207047F7
:10031000074B0246196809B9064919601868064969
:1003200002448A42D4BF1A604FF0FF30704700BFCA
:10033000648C0720C85C0820FC7F082010B50446A8
:100340001CB1022C02D9032C08D010BD05F034FCDE
:10035000003018BF01200028F2D0F6E705F0AAFC13
:10036000F6E708B50B2005F0BDFCBDE808400C2001
:1003700005F0B8BC10B5124805F06AFE81070446C6
:1003800006D502210E4805F061FE01220D4B1A70C0
:10039000E20307D54FF48031094805F057FE0122EA
:1003A000084B1A70E3040AD54FF48051044805F055
:1003B0004DFE054803F068FA0122024B1A7010BD89
:1003C000000E0E40708C07207CF60C0010B50C4817
:1003D00005F03EFE0204044607D54FF400410848EC
:1003E00005F034FE0122074B1A70E30307D54FF4E2
:1003F0008031034805F02AFE0122024B1A7010BD1D
:1004000000100E40708C072038B5FFF7AAFF0223BA
:100410001A484FF480544361C0F8A0304FF40043B1
:10042000174D10226B61C5F8A0304461C0F8A040A0
:10043000446644654462C0F88040036F114923F468
:100440008053036705F0EBFD10224FF4C0312846BE
:1004500005F0E5FD4FF4006200210B4BC3F880204E
:10046000C3F8802183F80B131A60C3F88040C3F8E7
:10047000804183F80C131C6038BD00BF000E0E4095
:1004800000100E400210010000E100E008B50F4925
:100490000F4805F0D8FD4FF4C0310E4805F0D3FDEC
:1004A000012005F03FFC022005F03CFC082005F08F
:1004B00039FC802005F036FC4FF4805005F032FC0A
:1004C000BDE808404FF4005005F02CBC02100100BC
:1004D000000E0E4000100E4030B5002487B04FF4DF
:1004E0008071484805F074FE0821464805F068FE12
:1004F000444805F075FE444803F0C6F9434B444DAB
:100500001C70FFF781FFFFF7C1FF2046FFF716FFC2
:10051000204605F0EDFA05F09FFB05F091FB3D4804
:1005200005F0D6FF05F070FFFFF71BFF05F000F99F
:10053000394C284603F0A8F9237823B9FFF7A6FF22
:1005400003F09CF9F5E7354803F09EF9344803F0D1
:100550009BF9344805F0CCFD0446002005F03AFB39
:100560000320FFF7EBFE002005F0E2FA06F000F8AA
:10057000FFF7F7FE04F068FF4FF400412A4805F04A
:10058000E5FD2A4A03460121002003F091F91D4BA5
:1005900001205D6905F0A0FD254AC4F30223CDE9E1
:1005A00000500121002003F083F90120002105F013
:1005B00099FD204BB3F5202F34BF1F481F4803F08F
:1005C00063F91F4B04211B680020C3F30323092B8D
:1005D0000CBF4FF400324FF480221A4B1A6005F022
:1005E00067FE10B1184803F04FF9042102A805F086
:1005F000E7FE10B1154803F047F9154B059A1A604C
:1006000007B030BD101A0E4086F60C00688C07202B
:1006100099F60C0000BD0105708C0720A6F60C00B1
:10062000B0F60C00001A0E40501A0E40C5F60C0031
:10063000F3F60C00D9040C0000F70C0009F70C00CD
:1006400040090E406C8C072012F70C002DF70C00AF
:10065000748C072008B5094A0121002003F028F90D
:1006600003F042FD072805D007F058FABDE808401E
:1006700003F0B4BD02F0E8FBF8E700BF54F70C004C
:1006800003480068006880F3088862B600DF00BF96
:1006900008ED00E04FF0807340E90213002340F8BA
:1006A000202C40F80C3C403870470000064B19687D
:1006B0000868B0E8F00F80F309884FF0000080F37D
:1006C00011884EF00D0E7047788C07204FF0A00374
:1006D00083F31188BFF36F8FBFF34F8F024A136804
:1006E00001331360704700BF8C800720034A1368F2
:1006F000013B13600BB983F3118870478C8007208E
:10070000EFF309800C4B1A6820E9F00F10602DE917
:1007100008404FF0A00080F3118800F03FFB4FF03D
:10072000000080F31188BDE8084019680868B0E847
:10073000F00F80F309887047788C07204FF08052C3
:1007400008B5094B1A60EFF311834FF0A00282F352
:100750001188BFF36F8FBFF34F8F00F0EDF90023C7
:1007600083F3118808BD00BF04ED00E0034B044A89
:100770001A60072243F8042C704700BF14E000E021
:100780001F48010008B5084B1A6842F470021A604D
:100790001A6842F070421A60FFF7E8FF0020034B2E
:1007A0001860FFF76DFF08BD20ED00E08C8007208A
:1007B00070470000064A13681968064B19B94FF0D4
:1007C000FF321A6070471268D268D2685268F8E740
:1007D0007C8C0720048D0720F8B51B4B1B4E1C6832
:1007E000054630680F46043000F0BDFE334640B980
:1007F00001203168164EC96A3268884022EA000238
:1008000032606A1C07D137B1196812480431BDE85B
:10081000F84000F085BE1A686419546007D30E4A88
:1008200010681968BDE8F840043100F085BE0B4A35
:1008300010681968043100F07FFE094B1A68A24263
:1008400088BF1C60F8BD00BF4C8D0720788C072046
:10085000D48C0720248D0720808C07207C8C0720D7
:10086000048D072080B5DFF86880154F154C164EB3
:10087000236873B9154B1B68012B07D94FF08053C0
:10088000C8F80030BFF34F8FBFF36F8FFFF710FD35
:10089000ECE7FFF71BFFFB68DD68281D00F063FE37
:1008A0003368013B33602368013B2360FFF71EFF81
:1008B000286B01F00FF9284601F00CF9D8E700BFCA
:1008C000388D0720C48C0720C08C0720848C07201B
:1008D00004ED00E02DE9F84F4FEA820A80465046C9
:1008E0000D4699460B9E01F05FF8074698B15820D7
:1008F00001F05AF8044658B107637DB94FF0A003E0
:1009000083F31188BFF36F8FBFF34F8F00BFFDE7F5
:10091000384601F0DFF84FF0FF3590E05246A52150
:1009200038460BF00DF9236BAAF1040A9A442AF019
:10093000070A6B1E04F13402093513F8011F02F88F
:10094000011B197809B19D42F7D10A9D4FF0000BA8
:10095000022D28BF0225271DE562C4E9125B384637
:1009600084F83DB000F0D9FDC5F1030504F118008D
:1009700000F0D3FDC4F850B02461A561646284F82E
:1009800054B04A4641465046FFF784FE206006B107
:100990003460FFF79BFE314B314E1A68DFF8F4806C
:1009A00001321A603268002A4CD134601B68012B76
:1009B0001FD12C4800F0A6FDDFF8DC902A4800F09B
:1009C000A1FD2A4D2A4800F09DFD484600F09AFD01
:1009D000284600F097FD274800F094FD264800F0D7
:1009E00091FD264800F08EFD254BC3F80090254B65
:1009F0001D600125244A25491368086801331360E6
:100A0000E26A236405FA02F3034314200B60154BDA
:100A1000394600FB023000F083FDFFF767FED8F88F
:100A2000003063B13368DA6AE36A9A4207D24FF062
:100A30008052174B1A60BFF34F8FBFF36F8F28465A
:100A4000BDE8F88FD8F80030002BD2D13368DA6ACD
:100A5000E36A9A4298BF3460CBE700BFC08C07209E
:100A6000788C0720848C0720988C0720EC8C07203A
:100A7000AC8C07200C8D0720388D0720248D072093
:100A80007C8C0720808C0720D08C0720D48C0720FA
:100A900004ED00E0208D0720D88C072013B500243A
:100AA000184B00940193C822234617491748FFF7B3
:100AB00011FF012818D100F0B1FD012814D14FF029
:100AC000A00383F31188BFF36F8FBFF34F8F4FF0F5
:100AD000FF320F4B1A600F4B18600F4B1C6002B0B7
:100AE000BDE81040FFF74EBE013009D14FF0A00322
:100AF00083F31188BFF36F8FBFF34F8F00BFFDE704
:100B000002B010BD008D072065F70C0065080C00D1
:100B1000048D0720208D07204C8D0720024A136882
:100B200001331360704700BFCC8C0720014B18685D
:100B3000704700BF4C8D07202DE9F84F3D4B1B68D7
:100B4000002B6FD13C4B1C6801341C60C4B93B4B7B
:100B50001A6812684AB14FF0A00383F31188BFF3FB
:100B60006F8FBFF34F8F00BFFDE7354A19681068DC
:100B700018601160334A136801331360FFF71AFEDF
:100B8000314D4FF0000B2B68304FA34211D93A681A
:100B90002F4BD16A14224A439A58022A28BF4FF099
:100BA000010B2C4A1268002A0CBF58460120BDE8F0
:100BB000F88FDFF888A0DFF8A490DAF80020126838
:100BC0001AB94FF0FF322A60E1E7DAF80020D26864
:100BD000D66871688C4201D22960D8E706F1040812
:100BE000404600F0C0FCB16A19B106F1180000F0EF
:100BF000BAFC01224FF0140CF06AD9F8003002FA66
:100C000000F11943124BC9F800100CFB00304146AB
:100C100000F086FC3868F16AC26A914228BF4FF042
:100C2000010BCAE70C4A4FF0000B13680133136045
:100C3000B7E700BFCC8C07204C8D07207C8C0720A9
:100C4000808C0720088D0720048D0720788C0720D2
:100C5000848C0720508D0720C88C0720D48C072057
:100C60002DE9F843314C23684BB94FF0A00383F3CF
:100C70001188BFF36F8FBFF34F8F00BFFDE7FFF702
:100C800025FD2368013B236024682CB10024FFF775
:100C90002DFD2046BDE8F883254B1B68002BF5D0C1
:100CA000244D254EDFF8A4801FE0EB680127DC68A7
:100CB00004F1040904F1180000F055FC484600F066
:100CC00052FC1420E26A316807FA02F30B4300FB7E
:100CD00002804946336000F023FC184BE26A1B682F
:100CE000DB6A9A4201D3164B1F602B68002BDCD1C4
:100CF0000CB1FFF75FFD134D2C6844B10127104E76
:100D0000FFF71AFF00B13760013CF9D12C600C4BA2
:100D10001B68002BBAD04FF080520B4B1A60BFF308
:100D20004F8FBFF36F8F0124B1E700BFCC8C07203A
:100D3000C08C07200C8D0720D48C0720788C0720CE
:100D4000508D0720C88C072004ED00E0848C07201C
:100D500008B540B94FF080520E4B1A60BFF34F8F69
:100D6000BFF36F8F08BD0C4B196849B14FF0A0035A
:100D700083F31188BFF36F8FBFF34F8F00BFFDE781
:100D8000FFF7CCFEFFF728FDFFF76AFF0028E1D050
:100D9000E8E700BF04ED00E0CC8C0720184B10B54D
:100DA0001A68184B12B101221A6010BD1A60164B56
:100DB0001B68B3FA83F31422DBB2C3F11F035A4357
:100DC00012498C5888184CB94FF0A00383F311884E
:100DD000BFF36F8FBFF34F8F00BFFDE7446808324A
:100DE00064680A44944208BF6268446008BF426075
:100DF000142202FB03135B68DA68054BD4E700BFDB
:100E0000CC8C0720508D0720D48C0720848C0720A1
:100E1000788C072010B50C4648B94FF0A00383F337
:100E20001188BFF36F8FBFF34F8F00BFFDE7054BF6
:100E30001968183100F080FB2046BDE81040012100
:100E4000FFF7CABC788C072038B50D46144648B960
:100E50004FF0A00383F31188BFF36F8FBFF34F8F61
:100E600000BFFDE7074B1968183100F059FB002C53
:100E7000214608BF2846BDE8384018BF4FF0FF3074
:100E8000FFF7AABC788C072038B5C368DC684CB97A
:100E90004FF0A00383F31188BFF36F8FBFF34F8F21
:100EA00000BFFDE704F11805284600F05CFB114B7C
:100EB0001B68E3B9251D284600F055FB01230E49A8
:100EC000E26A08689340034314200B6029460B4BE9
:100ED00000FB023000F024FB094BE26A1B68DB6A6E
:100EE0009A4285BF0120074B0020186038BD294673
:100EF0000548EFE7CC8C0720D48C0720848C072092
:100F0000788C0720508D07200C8D072010B50446E3
:100F100048B94FF0A00383F31188BFF36F8FBFF37D
:100F20004F8F00BFFDE7FFF7D1FB054B1B68236028
:100F3000044B1B686360BDE81040FFF7D7BB00BFE0
:100F4000088D07204C8D0720034B1B680360034B63
:100F50001B684360704700BF088D07204C8D072039
:100F6000F8B50C46054648B94FF0A00383F3118845
:100F7000BFF36F8FBFF34F8F00BFFDE749B94FF04D
:100F8000A00383F31188BFF36F8FBFF34F8F00BFB0
:100F9000FDE7FFF79BFB0F4B6868196823680A1A87
:100FA0005E1C0DD00C4E2F683668B74201D08842C7
:100FB0000DD9934209D99B1A23602846FFF7C4FF35
:100FC0000024FFF793FB2046F8BD00232360012493
:100FD000F7E700BF4C8D0720088D07200122014B49
:100FE0001A607047508D072008B9064B1868026BCD
:100FF0001346981A13F8011BA529FAD0C0F38F00E5
:10100000704700BF788C0720014B1868704700BFFD
:10101000788C0720054B1B6833B1054B1B68002BF0
:101020000CBF02200020704701207047208D072050
:10103000CC8C07202DE9F0410446002836D0234A05
:10104000C36A11681746C96A8B4237D2142682696F
:101050001F4D002AA8BF3A6806FB0353A2BFD26AFD
:10106000C2F10302826142699A4221D100F104086F
:10107000404600F078FA174B48B9E06A4643AA594F
:101080002AB901211A68814022EA01021A603A68ED
:101090001968D26AE262012404FA02F00843186077
:1010A0001420414600FB025000F03AFA204603E0CB
:1010B0003B68DB6AC3620120BDE8F0811368806C85
:1010C000DC6AA0422CBF00200120F5E7788C0720C5
:1010D000848C0720D48C0720F8B5044608B900207A
:1010E000F8BD234B1B68834209D04FF0A00383F364
:1010F0001188BFF36F8FBFF34F8F00BFFDE7DB6C2D
:101100004BB94FF0A00383F31188BFF36F8FBFF388
:101110004F8F00BFFDE7C16A826C013B9142C364FF
:10112000DDD0002BDBD1051D284600F01CFA114E46
:10113000114A50B91421E76A794373582BB9012039
:101140001368B84023EA00031360A36CC3F10301E2
:10115000A161E3620124116804FA03F008431060FE
:101160001420294600FB036000F0DAF92046B7E7B7
:10117000788C0720848C0720D48C0720F8B504468F
:1011800000284ED0C26C4AB94FF0A00383F31188F7
:10119000BFF36F8FBFF34F8F00BFFDE7836C9942A2
:1011A00038BF1946C36A8B423BD0012A39D11D4A48
:1011B0001268824209D14FF0A00383F31188BFF374
:1011C0006F8FBFF34F8F00BFFDE71426164D826966
:1011D00006FB0353002A4269C162A4BFC1F10301A7
:1011E00081619A421DD1071D384600F0BCF9E26AC0
:1011F0000E4C48B901235643A85903FA02F118B915
:10120000236823EA0103236001231420216893400B
:101210000B432360394600FB0250BDE8F84000F064
:101220007FB9F8BD788C0720848C0720D48C0720E8
:10123000044B1A681AB11968CA6C0132CA6418687A
:10124000704700BF788C07202DE9F0411E4C1E46E8
:1012500080460F461546FFF739FA236893F8543055
:10126000022B14D0012123681A6D22EA08021A65A4
:10127000236883F8541056B13046FFF7ADFA4FF0AB
:101280008052124B1A60BFF34F8FBFF36F8FFFF77F
:101290002DFAFFF71BFA15B123681B6D2B6023682D
:1012A000002293F85430022B09BF01250025236842
:1012B000196D04BFB9431965236883F85420FFF7FB
:1012C00015FA2846BDE8F081788C072004ED00E08F
:1012D000F8B50E4617461D46044648B94FF0A00320
:1012E00083F31188BFF36F8FBFF34F8F00BFFDE70C
:1012F000FFF7ECF90DB1236D2B60022394F85450E5
:1013000084F85430EDB2042F16D8DFE807F00A0352
:1013100007051100216D0E43266502E0236D0133A0
:101320002365012D15D00125FFF7E0F92846F8BD0A
:10133000022DF1D10025F7E7236D0133F1D04FF0F5
:10134000A00383F31188BFF36F8FBFF34F8F00BFEC
:10135000FDE7261D304600F006F91449E26A0868E8
:1013600005FA02F3034314200B60114B314600FBD6
:10137000023000F0D5F8A36A4BB14FF0A00383F31D
:101380001188BFF36F8FBFF34F8F00BFFDE7094B8D
:10139000E26A1B68DB6A9A42C5D94FF08052064B5D
:1013A0001A60BFF34F8FBFF36F8FBDE7D48C072058
:1013B000848C0720788C072004ED00E02DE9F843A9
:1013C000DDF820800E4691461D46044648B94FF090
:1013D000A00383F31188BFF36F8FBFF34F8F00BF5C
:1013E000FDE7FFF7E5F9EFF311874FF0A00383F373
:1013F0001188BFF36F8FBFF34F8F0DB1236D2B603B
:10140000022394F8545084F85430EDB2B9F1040F2B
:1014100016D8DFE809F00A0307051100216D0E4315
:10142000266502E0236D01332365012D15D00120CF
:1014300087F31188BDE8F883022DF1D10020F7E78A
:10144000236D0133F1D04FF0A00383F31188BFF374
:101450006F8FBFF34F8F00BFFDE7A36A4BB14FF013
:10146000A00383F31188BFF36F8FBFF34F8F00BFCB
:10147000FDE7134B1B68FBB9261D304600F073F8DF
:10148000104A1420E36A11689D400D4331461560EF
:101490000D4A00FB032000F043F80C4BE26A1B6886
:1014A000DB6A9A42C3D90123B8F1000F01D0C8F812
:1014B0000030074A1360BAE704F118010548EAE76B
:1014C000CC8C0720D48C0720848C0720788C0720B4
:1014D000508D07200C8D072038B5054608B9084BFC
:1014E0001D680024FFF7F2F895F85430022B04BF72
:1014F00085F854400124FFF7F9F8204638BD00BFB5
:10150000788C07204FF0FF3200F108034360C0E9F8
:1015100002230361002303607047002303617047C7
:1015200043689A684B608A609A6851609960036862
:1015300008610133036070470A6830B5531C0AD153
:1015400003695A684A6091608B605960036808615A
:101550000133036030BD00F108035C6825689542E3
:10156000EFD82346F9E70369D0E901128A6082685F
:1015700051605968814208BF5A60002202611A68AE
:10158000013A1A6018687047F8B50F4CFFF79EF8DB
:101590002568ADB90D4F0E4E3846FFF7B3FF304604
:1015A000FFF7B0FF0B4B2A461F600B4B10211E208C
:1015B0001E6000F093FB206010B1084900F0A0FE0F
:1015C000BDE8F840FFF792B8888D07205C8D0720B2
:1015D000708D0720548D0720588D07206AF70C0066
:1015E000914208B5416000610AD8D21A83699A42D3
:1015F0000DD2084B011D1868FFF79EFF002008BDA3
:101600009A4201D2994202D2011D034BF3E7012015
:10161000F5E700BF588D0720548D072007B5FFF769
:10162000B3FF0E4B1B684BB94FF0A00383F3118837
:10163000BFF36F8FBFF34F8F00BFFDE7084B4FF431
:101640009672019302230749009307480023FFF78E
:1016500041F90028E8D003B05DF804FB888D07202D
:101660008C8D07206FF70C0091170C002DE9F041CD
:1016700080462C200D4617461E4600F095F904467C
:10168000B0B14DB94FF0A00383F31188BFF36F8F52
:10169000BFF34F8F00BFFDE7FFF776FF069BC4F84F
:1016A0000080C4E9065726626362201DFFF735FFFC
:1016B0002046BDE8F081000030B5154685B01A46D9
:1016C000034648B94FF0A00383F31188BFF36F8F2F
:1016D000BFF34F8F00BFFDE70C4C206878B10529A0
:1016E000CDE9001502930CDCFFF794FC00230228DF
:1016F0000CBF089A1A466946206800F015FB05B031
:1017000030BD0023694600F0D7FBF8E7888D07203D
:101710002DE9F3414FF000081B4D2B681A6832B9D0
:101720001A4A11681360296002B0BDE8F081DB68D5
:10173000DC681E68271D3846FFF715FF636A2046E0
:101740009847E369012BE8D1A36933449E4206D24E
:101750006360246139462868FFF7EEFEDDE7002369
:10176000CDF80080324619462046FFF7A5FF002835
:10177000D3D14FF0A00383F31188BFF36F8FBFF372
:101780004F8F00BFFDE700BF548D0720588D072005
:101790002DE9F04F6D4DDFF8C0812F4687B02A68E4
:1017A000136853B30024D368D3F80090FFF7B6F959
:1017B000FFF7BCF9DFF8A4B18246DBF800305E46E3
:1017C00098421DD3CBF800001CB3614B1B681A680C
:1017D000B2FA82F252095F4BA9EB0A01186800F0D5
:1017E000A1FDFFF73DFA88B94FF08053C8F80030EB
:1017F000BFF34F8FBFF36F8F08E001249946D5E701
:10180000FFF786FFCBF800A0FFF72AFADFF8449134
:1018100067E081452DD8FFF723FA3B68DB68D3F8F2
:101820000CB00BF10400FFF79EFEDBF81C30012B1F
:101830001AD1DBF818104B46524649445846FFF778
:10184000CFFE88B1009423464A4621465846FFF70A
:1018500033FF48B94FF0A00383F31188BFF36F8FB4
:10186000BFF34F8F00BFFDE7DBF8243058469847A1
:10187000CCE72246AFE7A169039B5A4619442046AC
:10188000FFF7AEFE68B3636A20469847E369012B11
:1018900027D1A2690399CDF800A00A4453465146C6
:1018A0002046FFF709FFE0B94FF0A00383F311884A
:1018B000BFF36F8FBFF34F8F00BFFDE70399A161A7
:1018C00049B94FF0A00383F31188BFF36F8FBFF3C3
:1018D0004F8F00BFFDE75B465A4659442046FFF74D
:1018E0007FFE002202A9D9F8000000F0A1FB002829
:1018F0003FF455AF029B002B03DADDE90401039BA3
:101900009847029B002BECDB049C636913B1201DFC
:10191000FFF729FEFFF70AF933688346984201D2A0
:10192000FFF7F6FE029AC6F800B0092AD9D80123BB
:10193000934013F4047AC1D113F0C70F9BD19B06D7
:10194000CFD5204600F0C6F8CBE700BF548D072066
:10195000588D0720888D072004ED00E0848D072036
:1019600010B50F4B1A68824218D35C681919884267
:1019700001BF4168184609195960446801198A4233
:1019800007D1084909688A421FBF516812680919BE
:1019900041609842026018BF186010BD1346E1E72D
:1019A000E0290820908D07202DE9F041424D0446A2
:1019B000FFF7B4F82B684148FBB9414900234E07B3
:1019C0000FBF49F6404207313E4A21F0070118BFD8
:1019D000521A0A443C4E083A22F007027360316002
:1019E000C2E90033531AC1E900232A60374A136061
:1019F000374A13604FF0004303600768274205D061
:101A0000FFF72EF9FEF770FC002546E0002CF7D01A
:101A100004F1080358071CBF23F007030833002B09
:101A2000EED02B4A166890469E42E9D3264A1468A7
:101A30006068984201D22168A9B92968A142DFD023
:101A4000216815681160C21A102A13D9E0184107DD
:101A50000CD04FF0A00383F31188BFF36F8FBFF357
:101A60004F8F00BFFDE722460C46E1E7426063600E
:101A7000FFF776FF0023154962680868B61A174316
:101A8000864205F108056760236038BF0E60C8F81C
:101A90000060FFF7E5F8002DB4D06B0709D04FF0D8
:101AA000A00383F31188BFF36F8FBFF34F8F00BF85
:101AB000FDE72846BDE8F081908D0720D429082055
:101AC000948D0720D4290820E0290820DC2908204B
:101AD000D829082010B5044680B3194A50F8043CB0
:101AE0001268134209D14FF0A00383F31188BFF3AA
:101AF0006F8FBFF34F8F00BFFDE750F8081C49B14F
:101B00004FF0A00383F31188BFF36F8FBFF34F8FA4
:101B100000BFFDE723EA020340F8043CFEF7FEFFA6
:101B2000084A54F8043C1168A4F108000B441360FF
:101B3000FFF716FFBDE81040FFF792B810BD00BFD9
:101B4000D4290820D829082010B50446FEF7BEFD88
:101B5000A46BFEF7CBFDB4FA84F0400910BD70B55C
:101B60001546026C0446866B42B905689DB98068CB
:101B7000FFF7B2FAA5600136A66370BD6DB9406883
:101B800009F068FF6368226C1344A26863609342A3
:101B900001D3236863600020EDE7C06809F05AFFB5
:101BA000236CE2685B4221681A448A42E2603EBFCD
:101BB000A2689B18E360022DEDD10EB1013EEAE769
:101BC0003046D8E703461A6C10B4084662B1D968AB
:101BD0009C681144A142D96028BF196810BC28BF75
:101BE000D960D96809F036BF10BC704770B504469B
:101BF000FEF76CFD94F8455004F124066DB2002DFB
:101C000014DCFF2384F84530FEF770FDFEF75EFD1F
:101C100094F8445004F110066DB2002D12DCFF233D
:101C200084F84430BDE87040FEF760BD636A002B65
:101C3000E7D03046FFF728F908B1FFF7CFF9013DAB
:101C40006DB2DCE72369002BE9D03046FFF71CF9C1
:101C500008B1FFF7C3F9013D6DB2DEE738B50D46B7
:101C6000044648B94FF0A00383F31188BFF36F8F88
:101C7000BFF34F8F00BFFDE7FEF728FDD4E90F301B
:101C800043432268D1181B1A1344A160E36000216A
:101C9000FF23A163626084F8443084F8453095B92D
:101CA000236963B104F11000FFF7EEF838B14FF08B
:101CB0008052094B1A60BFF34F8FBFF36F8FFEF74F
:101CC00015FD012038BD04F11000FFF71BFC04F1E5
:101CD0002400FFF717FCF2E704ED00E0F8B50D462D
:101CE0001746064648B94FF0A00383F31188BFF3A7
:101CF0006F8FBFF34F8F00BFFDE748435030FFF7B2
:101D000053FE044648B155B92060C4E90F6501216E
:101D10002046FFF7A3FF84F84C702046F8BD00F181
:101D200050030360F1E700002DE9FF478846019268
:101D30001F46044648B94FF0A00383F31188BFF350
:101D40006F8FBFF34F8F00BFFDE759B9036C4BB1E5
:101D50004FF0A00383F31188BFF36F8FBFF34F8F52
:101D600000BFFDE7022F0CD1E36B012B09D04FF030
:101D7000A00383F31188BFF36F8FBFF34F8F00BFB2
:101D8000FDE7FFF747F958B9019E56B14FF0A003A0
:101D900083F31188BFF36F8FBFF34F8F00BFFDE751
:101DA00000264FF00009DFF8E8A037E0019D1DB9DB
:101DB000FEF79CFC002050E016B902A8FFF7C4F81B
:101DC000FEF794FCFEF7AAFEFEF780FC94F8443080
:101DD000FF2B08BF84F8449094F84530FF2B08BFD0
:101DE00084F84590FEF782FC01A902A8FFF7B8F835
:101DF000002846D1FEF76AFCA26BE36B9A422FD112
:101E0000FEF774FC019904F11000FFF703F8204677
:101E1000FFF7ECFEFEF724FF50B30126FEF756FC59
:101E2000A26BE36B9A4201D3022FBFD13A464146DF
:101E30002046FFF794FE636A1BB104F12400FFF70C
:101E400023F838B14FF08052114B1A60BFF34F8F17
:101E5000BFF36F8FFEF74AFC012004B0BDE8F087A6
:101E6000FEF744FC2046FFF7C1FEFEF7F9FED4E77B
:101E70004FF08053CAF80030BFF34F8FBFF36F8F1E
:101E8000CBE72046FFF7B2FEFEF7EAFE92E700BF7F
:101E900004ED00E010B5024600210120FFF71EFF0F
:101EA000044638B1002383600360C3601A461946B4
:101EB000FFF73AFF204610BD2DE9F84389469046CA
:101EC0001F46044648B94FF0A00383F31188BFF3BF
:101ED0006F8FBFF34F8F00BFFDE759B9036C4BB154
:101EE0004FF0A00383F31188BFF36F8FBFF34F8FC1
:101EF00000BFFDE7022F0CD1E36B012B09D04FF09F
:101F0000A00383F31188BFF36F8FBFF34F8F00BF20
:101F1000FDE7FEF74DFCEFF311864FF0A00383F3CE
:101F20001188BFF36F8FBFF34F8FA26BE36B9A42A1
:101F300001D3022F22D194F845503A466DB249465A
:101F40002046FFF70CFE6B1C13D1636A0BB901200E
:101F50000BE004F12400FEF797FF0028F7D0B8F15A
:101F6000000FF4D00120C8F8000086F31188BDE806
:101F7000F88301356DB284F84550E8E70020F4E7B6
:101F800070B50D46044648B94FF0A00383F311889D
:101F9000BFF36F8FBFF34F8F00BFFDE7036C4BB1F3
:101FA0004FF0A00383F31188BFF36F8FBFF34F8F00
:101FB00000BFFDE703685BB983684BB14FF0A00336
:101FC00083F31188BFF36F8FBFF34F8F00BFFDE71F
:101FD000FEF7EEFBEFF311864FF0A00383F31188B9
:101FE000BFF36F8FBFF34F8FA26BE36B93421CD98C
:101FF00094F8453001325BB2A2635A1C10D1636A77
:102000000BB9012009E004F12400FEF73DFF002890
:10201000F7D0002DF5D00120286086F3118870BD1F
:1020200001335BB284F84530EBE70020F5E70000B0
:102030002DE9F04385B00F460192044648B94FF0B0
:10204000A00383F31188BFF36F8FBFF34F8F00BFDF
:10205000FDE759B9036C4BB14FF0A00383F311882E
:10206000BFF36F8FBFF34F8F00BFFDE7FEF7D2FFC7
:1020700058B9019E56B14FF0A00383F31188BFF306
:102080006F8FBFF34F8F00BFFDE700264FF00008B2
:10209000DFF8DC903BE0019D1DB9FEF727FB002037
:1020A00052E016B902A8FEF74FFFFEF71FFBFEF73E
:1020B00035FDFEF70BFB94F84430FF2B08BF84F886
:1020C000448094F84530FF2B08BF84F84580FEF724
:1020D0000DFB01A902A8FEF743FF00283DD12046D1
:1020E000FFF732FD98B3019904F12400FEF792FE48
:1020F0002046FFF77BFDFEF7B3FD38B94FF0805364
:10210000C9F80030BFF34F8FBFF36F8F0126FEF782
:10211000DDFAA56B002DBED039462046013DFFF704
:1021200051FDA563236963B104F11000FEF7ACFE15
:1021300038B14FF080520E4B1A60BFF34F8FBFF390
:102140006F8FFEF7D3FA012005B0BDE8F08320467B
:10215000FFF74CFDFEF784FDD8E72046FFF746FD6C
:10216000FEF77EFD2046FFF7EFFC0028CED096E775
:1021700004ED00E02DE9FF410446019148B94FF01C
:10218000A00383F31188BFF36F8FBFF34F8F00BF9E
:10219000FDE7056C4DB14FF0A00383F31188BFF349
:1021A0006F8FBFF34F8F00BFFDE7FEF733FF58B9C6
:1021B000019D4DB14FF0A00383F31188BFF36F8FE2
:1021C000BFF34F8F00BFFDE72E460027DFF82C81BD
:1021D00050E0019B6BB94DB14FF0A00383F3118820
:1021E000BFF36F8FBFF34F8F00BFFDE7FEF77EFA9F
:1021F0005EE016B902A8FEF7A7FEFEF777FAFEF733
:102200008DFCFEF763FA94F84430FF2B08BF84F886
:10221000447094F84530FF2B08BF84F84570FEF7F2
:1022200065FA01A902A8FEF79BFE00284AD12046C4
:10223000FFF78AFC00283FD023683BB9FEF746FA37
:10224000A068FEF7F7FE0546FEF750FA019904F183
:102250002400FEF7DFFD2046FFF7C8FCFEF700FD77
:1022600038B94FF08053C8F80030BFF34F8FBFF339
:102270006F8F0126FEF72AFAA36B002BA9D0013B32
:10228000A363236813B9FEF7D3FFA060236963B18A
:1022900004F11000FEF7F8FD38B14FF08052174BF3
:1022A0001A60BFF34F8FBFF36F8FFEF71FFA012540
:1022B000284604B0BDE8F0812046FFF797FCFEF702
:1022C000CFFCD6E72046FFF791FCFEF7C9FC20467D
:1022D000FFF73AFC0028CCD0002DE9D0FEF7F6F944
:1022E000616A19B1236B1968C1F10301A068FEF797
:1022F00045FF0025FEF7FAF9DAE700BF04ED00E03C
:10230000002330B5064A52F83350DC0025B942F8B4
:1023100033102244506030BD0133082BF3D1FAE76B
:10232000E829082070B504460D461646FEF7CEF99A
:1023300094F84430FF2B04BF002384F8443094F811
:102340004530FF2B04BF002384F84530FEF7CEF95B
:10235000A36B2BB93246294604F12400FEF774FD25
:102360002046BDE87040FFF741BC000008B5044AB4
:102370000121002001F09CFABDE8084001F068BC92
:1023800060F80C00002330B5064C95B221449CB295
:10239000AC4202D30023835430BDCC5CC45401331F
:1023A000F5E700BFE42B0820F0B52748B7B009F0E7
:1023B000F1FC0223C5B201AE2A46244930468DF80D
:1023C000103009F025FC9DF804309DF805005A1CDA
:1023D0008DF8113000239DF8061002448DF812008C
:1023E00019488DF813100A44D9B28D4224D892B2FC
:1023F0001749304609F00CFC0023ACB2271DFA182F
:1024000036A992B20A44F15C0133042B02F8C81CCD
:10241000F5D1032236AB234403F8C02C36AB1C4461
:102420000A2304F8BF3C0B4B05F10A02186804A903
:10243000C368984737B0F0BD195C04AC1C442171E7
:102440000A440133D0E700BFEA2D082056F80C00FB
:102450005BF80C00882E082007B5435C013189B277
:102460008DF80430435C0021102201A88DF805305E
:102470008DF8061009F080FDC0B203B05DF804FBD2
:102480002DE9F743224B04460093B32300F146069F
:10249000204F214DDFF88480ADF80430B6B24FF004
:1024A000000904EB8901042289B23846FFF76AFF6C
:1024B0001022002109F060FD1022A8810021384679
:1024C00009F05AFDAB883DF8192009EB830309F1A7
:1024D000010905EB43035040B9F1030F9882E0D1A5
:1024E00004F10C0189B24046FFF7B6FFAB880E3409
:1024F00005EBC302508301332A889BB29A42A4B2EF
:10250000AB8001D9B442CAD103B0BDE8F08300BFAB
:1025100063002800E42D082090800720E42B082089
:1025200010B5084C4FF4807204F10801201D00F032
:10253000F3FC636803F5807363600023A4F818312B
:1025400010BD00BFC02A08200A4B0B4AB3F8101177
:1025500002EBC102D18A128BC3F80C110A4401327A
:10256000C3F81421012283F812210022A3F81821B4
:10257000704700BFC02A0820908007200A4B10B582
:10258000596803F58070C91ACA580433C2F3072486
:102590001A715C71C2F30744C2F307629C71DA716D
:1025A0008342F1D110BD00BFC02A08202DE9F04FB1
:1025B00004460E46AE4FAF4DDFF8EC828FB03B883D
:1025C000B3EB440F0BDC6B78013B042B00F24D8125
:1025D000DFE813F00F007000B000C400CA003146FD
:1025E0004046FFF739FF023628550134A4B2B6B28F
:1025F000E5E70DF1170000F095FC002800F02F81B1
:102600009DF817009C4D00284ED09C4A01210020C7
:1026100001F04EF900232B60994B0EAC44F8203D9D
:102620002146984809F038FB974920468B784A782C
:10263000C9780091954909F0EBFA2146914809F0D3
:102640002BFBFDF75FFE92490246204609F0E0FAB7
:1026500021468C4809F020FBFDF756FE8C490246C6
:10266000204609F0D5FA2146864809F015FBFDF70A
:102670004DFE87490246204609F0CAFA21468148A4
:1026800009F00AFB00F076FC064600F07BFC2B68A4
:102690008049009332460346204609F0B9FA2146A4
:1026A000784809F0F9FA88E07B4A012101F000F945
:1026B0000123B0E7A9782B79784CEE786D7981F019
:1026C000590283F01A00A274E0746A40704002EB71
:1026D000002281F0350183F0CD0303EB0123A260DA
:1026E000142104226E482382FFF74CFE10220021A1
:1026F0006B4809F041FC238A0422584060801A216B
:102700006748FFF73FFE00211022654809F034FCBE
:10271000238A58404FF6FF73A081E3810024564876
:10272000A0F81041FFF710FF5E4980F81A41A0F8A9
:102730001C41B5E7042208215948FFF723FE102267
:102740000021574809F018FC0022544B56491880C4
:102750000C209A80FFF794FE5449A1E752490820C3
:10276000FFF78EFE52499BE7434C94F81A71002FF5
:1027700079D00025494EA846B346A4F81051B4F8C4
:10278000102133889A421BD3B368ADB2AB4268D1F3
:10279000207800F0FFFB002861D04649394809F055
:1027A0007BFA454B1C68FEF7C1F90A2302460093E9
:1027B000012100232046FEF77FFF0FB0BDE8F08F18
:1027C0004FF00009FFF7C0FEB4F8102106EBC2037A
:1027D000DB8A06EBC202928AA4F80A3103F47F4333
:1027E00003EB02136360B4F810310BEBC302128BDE
:1027F00001324A4503D80133A4F81031BFE7FFF78F
:10280000BDFE6368B4F80AC103F5807363601CF011
:10281000FF03A4F8188118BFA4F81831D4F81431B4
:10282000B4F818E10393002318469AB20CEB0201A6
:10283000724492B2FF2A09EB030A89B204D908B1A3
:10284000A4F80A11D146CEE7039A01339142F6D299
:102850000EEB03022244D27938461544E5E71749C6
:102860001EE717491CE717491AE7174918E700BF81
:10287000E02B0820282A0820C02A0820CBF70C00CB
:1028800036303A00EA2D082070F60C00EDF70C0007
:10289000F5F70C00F9F70C00DCF70C00908007202E
:1028A000E42D082007F80C00E42B08200AF80C009F
:1028B0000DF80C0010F80C00802E082004F80C0015
:1028C00013F80C0016F80C0019F80C000149024826
:1028D00009F0E2B919F80C00EA2D082010B5244AD5
:1028E0009178D378234A03EB012392F812119BB21B
:1028F000A2F80831144669B1B2F810111E4A02EB71
:10290000C102928A9A4230D11C491D48BDE810404C
:1029100009F0C2B9B2F818314BB1FF20DA1D2244D8
:10292000FF2B18D909B1A4F81831FFF7F9FDB4F855
:1029300010311148013302889BB29A42A4F8103139
:102940000FD0FFF701FEB4F81031B4F8082100EB06
:10295000C300838AD6E7013302F8010F9BB201213D
:10296000DEE7012384F81A31CEE70649CDE700BF40
:10297000282A0820C02A08209080072010F80C0080
:10298000EA2D082093F70C0004220021F0B56B4CCF
:102990006B4EB4F81E71B4F81C3185B090B287420A
:1029A00000F2888009B1A4F81C31F319F25D5B785C
:1029B00003EB0223B4F81C219BB29A4240F0B7808B
:1029C000B278F37803EB022394F812219BB2A4F8B7
:1029D0000A3122B35B4DB4F8102105EBC202D28A52
:1029E0009A426DD1584A0121002000F061FF002376
:1029F00084F81231B4F81031B4F80A2105EBC3059C
:102A0000A98A02F47F4303EB011312F0FF0F636006
:102A100005D0FFF7B3FD94F80A31A4F81831042566
:102A2000AF4259D1842F1AD0D4F81421D4F80C31E4
:102A30009A426DD1B4F818318BB1444A012100207B
:102A400000F036FF0021FF20B4F81831DA1D2244CF
:102A5000FF2B57D909B1A4F81831FFF761FDD4F85D
:102A60000C21D4F81431374D9A4214D1384A01213F
:102A7000002000F01DFFB4F810312A8801339BB20A
:102A80009A42A4F810314ED0324A0121002000F0C1
:102A90000FFFFFF759FD3049304809F0FDF8EA898A
:102AA0002F4901A809F0B4F801A92C4809F0F4F85D
:102AB00000200FE0B15C01320B449BB201216DE7B5
:102AC000284A0121002000F0F3FE2749234809F09D
:102AD000E3F8072005B0F0BDB4F81821715D531C70
:102AE0009BB22244B3F5807FA4F81831117201D152
:102AF000FFF716FDD4F80C3101350133C4F80C3161
:102B0000ADB28DE7013302F8010F9BB201219FE7BF
:102B1000164A0121002000F0CBFE15490F4809F0AC
:102B2000BBF80820D6E7012384F81A31B3E711492E
:102B30000A4809F0B1F80420CCE700BFC02A0820F9
:102B4000282A08209080072096F70C00A7F70C0091
:102B5000B8F70C00BDF70C00C2F70C00EA2D0820F6
:102B600056F80C009BF70C00A4F70C00ACF70C0017
:102B7000B5F70C00C5F70C0008B5064BB3F81831D3
:102B80000BB1FFF7CDFCBDE808400349034809F04D
:102B900083B800BFC02A0820C8F70C00EA2D08201F
:102BA0002DE9F047404C414B61781B880829404E85
:102BB0004FF0020221D1073B93FBF2F33D48032281
:102BC000A6F81E31FFF7DEFB3B4B1022DD8900210A
:102BD0000135ADB23748DD8109F0CEF9C0F30B0005
:102BE000854208D196F81A3123B334493448BDE8F8
:102BF000F04709F051B83349F8E7043B93FBF2F38F
:102C00004FF00808A6F81E310025DFF8C4902A4FBF
:102C1000B6F81E311FFA85FA08EB4A01534589B20E
:102C20000BD86378053B042B32D8DFE803F021256D
:102C300031292D004FF00B08E6E74846FFF70CFC62
:102C40000AF0010ABA449AF812306B405840C0B2F8
:102C500000F00F023A4407EB101092F8141190F8AC
:102C60001421ABB2234402EB01129A700135CFE775
:102C7000BDE8F047FFF72ABEBDE8F047FFF72EBEDC
:102C8000BDE8F047FFF780BEBDE8F047FFF774BF2F
:102C90000D490B4809F000F8BDE8F0470B4A012147
:102CA000002000F005BE00BF282A0820E02B0820E5
:102CB000C02A0820E42D08209080072077F70C0018
:102CC000EA2D08207AF70C0019F80C007DF70C00AB
:102CD000E42B082010B504211148FFF7BDFB114C6F
:102CE000062120700E48FFF7B7FB042260701146E2
:102CF0000D48FFF747FB2378202B06D0262B0CD05E
:102D00000A49094808F0C8FF03E008210220FFF73C
:102D10004DFCBDE81040FFF747BBFFF741FFF8E768
:102D2000E42B0820282A0820EA2D082019F80C0096
:102D30002DE9F3470024264627463E4D002000F0AB
:102D4000DFFE002003F0C0FC012003F0BDFC00F01A
:102D500095FD394B012218680DF107010A2380699E
:102D600002F066FA00285AD02B78022B18BF0026F2
:102D70009DF80730B6F5007FAB5534BF33460023CE
:102D80005E1CEB5CB6B20A2B49D12C4B1E80002690
:102D90002B78022B41D1294C2388013BEB5C0A2B79
:102DA0003BD103220121264895F8018095F802A025
:102DB00095F80390FFF7E6FA00211022204809F069
:102DC000DBF8204B81B2198023885FFA88F80A3B30
:102DD00099425FFA8AFA5FFA89F927D1002208F14D
:102DE000010454444C4490B2031D81429BB219D853
:102DF0000433EB5C0431032B89B217D10422104851
:102E0000FFF7C0FA102200210D4809F0B5F8444040
:102E1000A4B264B9FFF75EFF90E701248EE7002CAF
:102E20008CD0B5E7EB5C01321C44DCE72F7000244A
:102E300084E700BFE42B0820882E0820E22B08201E
:102E4000E42D0820E02B08201F4B37B51C78002C00
:102E500037D101251D4A294620461D7000F028FD66
:102E600000F048F81A4B1B481D701B4B4E2218608F
:102E70004FF4E13143699847032221462846FEF783
:102E80002DFF20B1234622462146FEF74DFF134B6E
:102E90004FF47A710093012200231148FEF7E6FBFC
:102EA000104B0146186010B90F4A00F001FD0122D5
:102EB00000230E49CDE900230D484FF41672FDF7AB
:102EC00009FD03B030BD00BFBE2A08201CF80C006D
:102ED000842E0820B4810720882E08206D230C0042
:102EE0002BF80C00802E082033F80C004AF80C0058
:102EF000312D0C0010B50621002003F0D9F903464E
:102F000030B1BDE81040034A0121002000F0D0BCE0
:102F100010BD00BF69F80C0001234FF480720068F7
:102F200003F0DAB970B5002204460D210E4803F013
:102F300075F90646A8B90C4803F05BF910F00405D2
:102F400007D00A4A0121304600F0B2FC012020706F
:102F500070BD074A0121284600F0AAFC2570012017
:102F6000F6E70020F4E700BF000A0E40CBF70C00A4
:102F7000DCF70C00024B1868C0F30750704700BF25
:102F800040090E40024B1868C0F30320704700BF91
:102F900040090E4008B5022238B10B21044803F065
:102FA0003DF9B0FA80F0400908BD0C21F6E700BFFA
:102FB000000A0E400023C0E90033C0E90233C0E933
:102FC0000433C0E90633704708B5064A01210020E2
:102FD00000F06EFCBDE80840034A0121002000F02B
:102FE00067BC00BF0BF90C0021F90C0030B530486C
:102FF00093B002F0A5FE10F0FF0F52D000252C4C2C
:10300000E9B2204602F0A4FE03024CD5294CA06090
:1030100021462748256002F0ECFEE36912A90293DD
:10302000A369082241F8443D05A808F013FD0022D9
:10303000236920460393A3798DF81D208DF81C3059
:1030400063799B1A18BF01238DF81030FFF7B2FF88
:1030500019491A480B68009201330B601346039913
:103060001D2B50F823201AD0914203F10103F7D110
:103070000023142203A909A88DF8203008F0EAFCE7
:10308000694608A800F0C0FA009B53B14FF0805287
:103090000B4B1A60BFF34F8FBFF36F8F01E091426C
:1030A000E6D013B030BD0135082DA9D1F9E700BF36
:1030B00000400B40902E0820203008202C300820A3
:1030C00004ED00E030B5304893B002F039FE10F066
:1030D000FF0F52D000252C4CE9B2204602F038FEFA
:1030E00003024CD5294CA06021462748256002F0F8
:1030F00080FEE36912A90293A369082241F8443DC6
:1031000005A808F0A7FC236920460393A3798DF84E
:103110001C3001238DF81D306379003318BF012363
:103120008DF81030FFF746FF0023194919484A6807
:10313000009301324A6003991A18742B926F1AD0C7
:10314000914203F10403F7D10123142203A909A832
:103150008DF8203008F07EFC694608A800F054FA8B
:10316000009B53B14FF080520B4B1A60BFF34F8F4F
:10317000BFF36F8F01E09142E6D013B030BD01354F
:10318000082DA9D1F9E700BF00800B40B82E082018
:10319000203008202C30082004ED00E02DE9F34712
:1031A00004463A4D407C3A4E2F5C81000A183A445E
:1031B00006EB4213A268D4F800C09A61E268DA61B3
:1031C0002279A2B10122C3F810C05A710B183B44F6
:1031D000227C06EB43139A7178B1012804D02D4A62
:1031E0000121002000F064FBDFF8B48007E05A7191
:1031F000294A02EA8C421A61E8E7DFF8A8800C2726
:10320000DFF8A490637C404603EB8301EB5C194438
:1032100006EB411102F027FE01288246637C14D0A0
:103220000821EB5C40469940C9B202F08BFD0522B3
:10323000617C6B5C0133DBB2B3FBF2F202EB820226
:103240009B1A6B5402B0BDE8F087EA5C51460092CD
:1032500000204A4600F02CFB013F0520FDF778FDD9
:1032600017F0FF07CED151460C4A384600F020FB3C
:103270004046637C03EB8301EB5C194406EB411190
:1032800002B0BDE8F04702F074BD00BF8C2E0820EC
:10329000E02E0820CFF80C000000FC1F00F90C0005
:1032A00000800B4000400B40EAF80C00014803F09E
:1032B00051B900BFB02E0820014803F03DB900BF4E
:1032C000B02E08202DE9F041044638211A4803F0B9
:1032D00031F9FFF7F1FF2B2002F004FD22461749D8
:1032E000174802F0F7FD20B1164A0121002000F036
:1032F000DFFA03254FF0FF31114802F01FFD10489F
:1033000002F0D7FDA84600260F4C0D4F2046FFF7D0
:1033100051FEEB00093B256084F80480E37166717F
:10332000E66021463846013502F02FFD082D04F1F4
:103330002004EBD1BDE8F081B02E082000BD0105CE
:1033400000400B4088F80C00E02E0820014803F0F4
:10335000F3B800BFD82E08202DE9F04104463621ED
:103360001A4803F0E7F8FFF7F1FF2C2002F0BAFC4F
:1033700022461749174802F0ADFD20B1164A012137
:10338000002000F095FA03254FF0FF31114802F0BC
:10339000D5FC104802F08DFDA84600260F4C0D4FBD
:1033A0002046FFF707FEEB00093B256084F8048008
:1033B000E3716671E66021463846013502F0E5FCAE
:1033C000082D04F12004EBD1BDE8F081D82E0820AF
:1033D00000BD010500800B40A8F80C00802F0820DC
:1033E0000D4938B50846FFF7E5FD002301250B4CD4
:1033F0000B60CB600A4B20460B610D7102F0C5FCDF
:103400002946204602F098FC4FF40062054B5A60B2
:10341000F02283F82B2338BD902E082000400B406B
:103420000000FC1F00E100E00D4938B50846FFF739
:10343000C1FD002301250B4C0B60CB600A4B2046DD
:103440000B610D7102F0A1FC2946204602F074FCCC
:103450004FF48052054B5A60F02283F82C2338BD7C
:10346000B82E082000800B400000FC1F00E100E0A7
:1034700007B5074B0122009342F210710023054863
:10348000FEF7F4F8044B186003B05DF804FB00BFCE
:10349000C92F0C00C8F80C00283008200023011D9B
:1034A00002481A460068FEF73FBC00BF20310820E2
:1034B0007FB51420FDF74CFC0F4D104C4FF0FF3240
:1034C00001A92868FEF7B4FD48B19DF81530012B1D
:1034D00005D801A8FFF762FE1420FDF739FC002093
:1034E000FDF782FD6328E9D82346054A0121002023
:1034F00000F0DEF9E2E700BF203108203AF90C00C5
:1035000062F90C0078220D4B10B502FB003200234B
:1035100052F82340980044B1A4EB010CDCF1000008
:1035200040EB0C001D2B03D110BD11500120FBE717
:103530008C4203F10103EBD1F8E700BF2C300820E7
:10354000F7B51A4E074634786CBB01252346019423
:1035500000954FF4967216491648FDF7BBF92246BE
:1035600014211020FEF7BAFB134B144A18602946A9
:10357000204600F09DF9FFF77BFF3868FFF7A2FEB9
:10358000B868FFF7E9FEFFF72BFFFFF74DFF0C4987
:103590000220357000F030F80320094903B0BDE87F
:1035A000F04000F029B803B0F0BD00BF1C31082086
:1035B00049F90C00B1340C002031082052F90C00FC
:1035C0009D340C0070B504460E46236823B926606E
:1035D000012010E02C46F8E7B342F9D06568002DD1
:1035E000F8D10821012007F041FF08B1C0E90055DA
:1035F00060600028E9D170BD024B03EBC000FFF70B
:10360000E1BF00BFE03108200A460146064808B580
:1036100000680023FEF750FC014620B9BDE80840D1
:10362000024A00F045B908BD6833082099F90C003A
:1036300001460348002305220068FEF775BB00BF62
:103640006833082010B54FF461628AB0044600F177
:103650000801D1E90001002307F082FD13430AD1DC
:1036600028222146684608F0F5F9092368468DF8B6
:103670000030FFF7DDFF0AB010BD10B53C228AB064
:10368000044600F10801D1E90001002307F068FDBC
:1036900013430AD128222146684608F0DBF90823A3
:1036A00068468DF80030FFF7C3FF0AB010BD000078
:1036B0002DE91048144C8BB023785A1C132B227020
:1036C00018D9124B124A0421002000F0F1F8072308
:1036D00010498DF80030D1E900BC1BF101024CF11A
:1036E00000036846C1E90023CDE902BCFFF7A0FF53
:1036F00000232370062368468DF80030FFF798FFFB
:103700000BB0BDE8108800BF5933082076F90C00D3
:1037100031F60C006033082038B5037805462E2BAF
:1037200010D8094C04EBC304236823B128469847FA
:103730006468002CF8D12978044A52F8213001330A
:1037400042F8213038BD00BFE03108202431082084
:1037500000B50C4D0C4C8BB04FF4FA7269462868DA
:10376000FEF766FC10B16846FFF7D6FF0020FDF7B4
:103770003BFC6328F0D82346044A0121002000F0D6
:1037800097F8E9E76833082083F90C0062F90C0028
:10379000F7B5214E214B224A0121002000F088F884
:1037A0003478002C35D1224628213620FEF796FAAF
:1037B00001251C4B4FF4167218601B4923460194D7
:1037C00000951A48FDF786F84FF40763184A0093EE
:1037D00002214FF4BC73032000F06AF8154B2A460F
:1037E0003221009314482346FDF740FF0746FDF7BA
:1037F0009DF923460246294600943846FDF75CFFB2
:103800000E490F48FFF7DEFE0E490F48FFF7DAFEBC
:10381000357003B0F0BD00BF583308208EF90C009E
:1038200031F60C0068330820AAF90C0051370C005F
:10383000B5F90C00B1360C00ECF90C007B360C002D
:103840001832082045360C002032082010B54FF4FD
:103850000041074802F050FC064C83B21A4620464D
:10386000054902F05DFC2046BDE8104002F064BC52
:1038700000093D00501A0E4000600010014802F09F
:103880005BBC00BF501A0E404FF06043013810F887
:10389000012F02B97047D3F8801EC907F7D5D3F8B6
:1038A000001EC907F3D519680029FCD01A70EEE78D
:1038B0000CB437B5184B04461B78CBB94FF06045B4
:1038C000D5F8003EC340DB0712D5144B1B5C8B427E
:1038D0000ED307AB6421069A1148019309F00EFE3E
:1038E00001231049A340A4002C4411F8012F2AB948
:1038F000002003B0BDE8304002B07047D5F8800E1C
:10390000C007F2D5D5F8000E0342EED0206800289B
:10391000FCD02270E9E700BFDA33082070330820BA
:10392000763308207533082070B5144686B004AA93
:103930000121204601F04CFA05AA05460221204645
:1039400001F046FA0023049A0646AB54059A33491F
:103950008354284608F07EF900284ED03049284686
:1039600008F078F900284AD02E49284608F072F964
:10397000002846D02C49284608F06CF9002842D08F
:103980002A49284608F066F900283ED028492846EA
:1039900008F060F900280CBF0424062425493046AD
:1039A00008F058F998B32449304608F053F980B329
:1039B0002249304608F04EF960B12149304608F0FE
:1039C00049F940B31F49304608F044F9002814BFB4
:1039D00001200420062C18BF1B4B1C4A18BF185589
:1039E0000121CDE901602B4600940020FFF760FF24
:1039F0000020174B187006B070BD0446CEE70124B6
:103A0000CCE70224CAE70324C8E70524C6E701205F
:103A1000E0E70220DEE70320DCE700BFFEF90C0050
:103A200006FA0C000AFA0C000FFA0C0015FA0C004A
:103A300019FA0C0022FA0C0029FA0C002EFA0C00DC
:103A400034FA0C003CFA0C007033082042FA0C00E7
:103A5000DA33082002220A4B10B501241A7004221E
:103A600008485C70DC709A701C715C7101F084F91C
:103A70002146BDE81040044B044A0020FFF718BF60
:103A800070330820CCFA0C00F2F90C0031F60C006F
:103A90004FF0FF304FF0FF31014BC3E90001704799
:103AA000F033082001232DE9004803FA00F0074B0A
:103AB000D3E9002302EA000B03EAE07C5BEA0C0393
:103AC00014BF01200020BDE8008800BFF0330820AB
:103AD000012303FA00F0C0432DE900480549D1E96C
:103AE000002302EA000B03EAE07CC1E900BCBDE868
:103AF000008800BFF033082000487047DC330820FE
:103B000030B50C4C8BB022780546824203D1102090
:103B1000FFF7C8FF58B11020FFF7DAFF10236846FF
:103B200025708DF800308DF80150FFF781FD0BB046
:103B300030BD00BFDC33082073B5144D144A012199
:103B40000020FFF7B5FE02F019FE02F0DBFE02F0E6
:103B500081FF03F017F803F0D5F82C78A4B90D4BCA
:103B60000122642100930C482346FDF77FFD0646A1
:103B7000FCF7DCFF0A23024600930121234630466E
:103B8000FDF79AFD01232B7002B070BDE8330820C9
:103B9000DCFA0C00913A0C00ECF90C00024B034AE1
:103BA00001210020FFF784BEEBFA0C0031F60C0077
:103BB00013B5214802F022FAC207044618D50023A3
:103BC0000DF103011C48019302F021FA1B4801ABDF
:103BD00001220DF10301806901F0CAFA019B3BB19A
:103BE0004FF08052164B1A60BFF34F8FBFF36F8FA9
:103BF000A3071AD50022114802AB43F8042D0DF19A
:103C000003010122C06901F092FB80B1019B3BB12D
:103C10004FF080520A4B1A60BFF34F8FBFF36F8F84
:103C20009DF80310044802F0EBF902B010BD022128
:103C3000014802F0E1F9F8E700080E40B4810720DE
:103C400004ED00E00121014802F0D4B900080E4063
:103C5000BFF34F8F0449054BCA6802F4E062134377
:103C6000CB60BFF34F8FFEE700ED00E00400FA05E4
:103C70000221014802F0BEB900080E407FB5254B75
:103C800004460E4615460121234A0020FFF710FE88
:103C9000224B1A782AB122490720FFF7ADFC04B065
:103CA00070BD01221A70A26922B90221602001F0C0
:103CB00071F9A061E2692AB902214FF4807001F024
:103CC00069F9E0610023174A452D0393CDE90026E9
:103CD00005D04F2D14BF4FF400634FF400730293CF
:103CE0004FF48073104C0820236001F0FBFF6946FD
:103CF0000E4802F05FF90D4802F079F90B4802F026
:103D000073F90121094802F075F9F02384F80833AA
:103D1000C5E700BFFDFA0C0031F60C00F8330820AF
:103D20009D3B0C0000BD010500E100E000080E40D5
:103D3000024B034A01210020FFF7BABD0EFB0C0025
:103D400022FB0C0013B5214801F0BCFEC20704465B
:103D500018D500230DF103011C48019301F0BDFEAD
:103D60001B4801AB01220DF10301806901F000FA4B
:103D7000019B3BB14FF08052164B1A60BFF34F8F3F
:103D8000BFF36F8FA3071AD50022114802AB43F887
:103D9000042D0DF103010122C06901F0C8FA80B1C0
:103DA000019B3BB14FF080520A4B1A60BFF34F8F1B
:103DB000BFF36F8F9DF80310044801F085FE02B039
:103DC00010BD0221014801F07BFEF8E700800940A8
:103DD000D481072004ED00E00121014801F06EBE0E
:103DE000008009400221014801F068BE00800940BE
:103DF00070B5294B15461A7886B004460E462AB18E
:103E000026490720FFF7F8FB06B070BD01221A70A3
:103E1000826922B90221602001F0BCF8A061E26948
:103E20002AB902214FF4807001F0B4F8E0611C4817
:103E300001F00CFE03211A4801F042FEC023452D7B
:103E40000096019304D04F2D23D04FF4006300E07F
:103E50000023029300234FF40035124C1120CDE9CA
:103E60000333059301F03EFF0F4A69460C4801F009
:103E700001FE0B48256001F01EFE094801F018FE06
:103E80000121074801F01AFEF02384F81133256060
:103E9000BAE74FF40073DCE7F9330820313D0C003A
:103EA0000080094000E100E000BD0105024B034A2B
:103EB00001210020FFF7FCBC3EFB0C0022FB0C00A4
:103EC00013B5214801F0FEFDC207044618D50023B2
:103ED0000DF103011C48019301F0FFFD1B4801ABEC
:103EE00001220DF10301806901F042F9019B3BB110
:103EF0004FF08052164B1A60BFF34F8FBFF36F8F96
:103F0000A3071AD50022114802AB43F8042D0DF186
:103F100003010122C06901F00AFA80B1019B3BB1A3
:103F20004FF080520A4B1A60BFF34F8FBFF36F8F71
:103F30009DF80310044801F0C7FD02B010BD022136
:103F4000014801F0BDFDF8E700C00940F4810720F9
:103F500004ED00E00121014801F0B0BD00C00940BE
:103F60000221014801F0AABD00C0094070B5294BEB
:103F700015461A7886B004460E462AB1264907200F
:103F8000FFF73AFB06B070BD01221A70826922B9B0
:103F90000221602000F0FEFFA061E2692AB902213F
:103FA0004FF4807000F0F6FFE0611C4801F04EFD18
:103FB00003211A4801F084FDC023452D009601938A
:103FC00023D04F2D23D04FF40063029300234FF4EE
:103FD0008025134C1220CDE90333059301F082FEB6
:103FE000104A69460D4801F045FD0C48256001F076
:103FF00062FD0A4801F05CFD0121084801F05EFD08
:10400000F02384F812332560BCE70023DDE74FF48A
:104010000073DAE7FA330820AD3E0C0000C0094017
:1040200000E100E000BD010513B50446C0698DF84C
:10403000071060B10A2301220DF1070100F0FDFF16
:10404000636803B198479DF8070002B010BD4FF0B8
:10405000FF30FAE710B50A230446C06900F0EDFF0F
:1040600018B9054A0121FFF723FC636813B1BDE8C5
:104070001040184710BD00BF52FB0C000EB433B502
:10408000114C05462068C8B16421FEF773F8A8B149
:1040900006AB059A4FF480710C48019309F02EFA93
:1040A0000A4807F077FE094902462846FFF7D2FF83
:1040B000002320681A461946FDF736FE002002B09C
:1040C000BDE8304003B07047FC340820FB330820C3
:1040D00010B5044C23681BB90120FDF7DBFE2060FE
:1040E00010BD00BFFC340820084BD86BDB6B80F0A0
:1040F00020001A06064BC0F34010DB6B58BF40F09F
:1041000002001B0258BF40F004007047000E0E4032
:1041100000100E40027803465AB9407D48B95968EC
:10412000044A914205D1DB7C5B0758BF012002F0B5
:1041300043BD704701402104027838B50346DAB91F
:10414000407DC8B959680D4A914215D15C7B1D7BF1
:1041500004EB052519246C433F2D094DC8BF0120F0
:1041600002F01AFB2868A408001B07F07BF918B1BD
:10417000204602F0F7FD2C6038BD00BF0040390436
:1041800004350820037810B51A2B18D14478012C77
:1041900015D10D2002F004FF034660B102280FD0B4
:1041A00021460A4A0020FFF783FBBDE810400021AA
:1041B0000D2002F0FBBE00F0B1F8054B1C7010BDE5
:1041C00000F01AF9BDE8104004F058BA70FB0C007A
:1041D000003508200120704702207047322330B597
:1041E000002485B004A840F8103DCDE901440394B3
:1041F000FFF7A6F9FFF75AF8204600F09FFD00F000
:10420000CFF90D491A20FFF7F7F90C492046FFF7BF
:1042100079F90B4D20460B49FFF7EEF90A49204684
:10422000FFF770F929462046FFF7E6F929460720EF
:10423000FFF7E2F905B030BD85410C0000403904BC
:1042400015410C0039410C0001402104037810B4E1
:104250000C2B4BD14168264AA1F17903802B254BC9
:1042600007D80121197011700321187810BC02F0D1
:1042700029BEA1F13204452C03D803211970012174
:10428000F1E7A1F1FB04B4F5AE7F01D80B21F5E70E
:10429000302901D81521F1E7C168A1F17900802802
:1042A00001D80521EAE7A1F13200452801D807210C
:1042B000E4E7302906D81049097840290CBF1321BA
:1042C0000921DBE7FB39B1F5AE7F05D80A4909784A
:1042D0004029DFD11121D1E7117821B119780131BD
:1042E00019700021BFE700221A70BDE710BC7047AB
:1042F0000A35082008350820093508200378232BC3
:1043000007D18378034A012113700020024AFFF786
:10431000CFBA704709350820A8FB0C0008B5094A38
:10432000094B01210020FFF7C3FA08490C20FFF7D1
:1043300063F907492320FFF75FF9BDE8084000F063
:104340003FBA00BF31F60C008CFB0C004D420C0054
:10435000FD420C0073B50D4A05460C4600200121B4
:10436000FFF7A6FAFFF736FF06466CB903F03AF8F6
:10437000074B014653F826302246009328468023F7
:1043800005F0E6F902B070BD0020FBE7DFFB0C0092
:1043900090FC0C000378272B04D14378022B01D129
:1043A00004F07ABF704700001FB50378272B1BD19C
:1043B0004178012918D104790C4A0294C3780193F9
:1043C0008378002000930A4BFFF772FA04F064FF31
:1043D00050B9802C08D1074804F08EFC204604B068
:1043E000BDE8104004F002BF04B010BDB6050D00DA
:1043F000C7FB0C0055430C0008B504F039F905491A
:104400002720FFF7F9F8BDE8084003492720FFF708
:10441000F3B800BFA9430C0095430C00064B187875
:1044200038B1064B187820B1054B1878003018BF0A
:104430000120FFF765BB00BF158207201682072009
:10444000148207200378072B0FD1084B084A1B78EA
:104450000BB9137070471378042B06D8013313700F
:104460000121044A0020FFF723BA70470D350820C8
:104470000C350820B4FC0C000378232B07D14378BB
:10448000034A012113700020024AFFF711BA704756
:104490000D350820BCFC0C007FB503786BBB437D59
:1044A0005BBB4268174B9A4227D1C37C9B0624D43E
:1044B000837C23B3144B1B78042B1ED9134C267812
:1044C000DEB9142002F06CFD0128054615D103F079
:1044D00077FC2E238DF8043005238DF806300C4B25
:1044E0008DF8056053F8203002930A4B53F82030C2
:1044F00001A8039303F047FC257004B070BD034A84
:104500001370FAE7014021040C3508200B35082010
:1045100078FD0C002CFD0C0038B5037823BB437DDF
:1045200013BB4268114B9A421ED1437B847B13F02C
:10453000040F4FF00F000CBF0225012502F030FDE3
:10454000012804F040040CD134B10022084B1A7049
:10455000BDE83840FFF762BF012DF9D1044B0122BD
:10456000F5E7002CF1D1F9E738BD00BF0040210686
:10457000148207200378112B0CD183781BB1012BF7
:1045800005D0FFF74BBF4278034B1A70F9E742782A
:10459000024BFAE7704700BF1582072016820720FA
:1045A00008B50F491120FFF727F80E490020FFF743
:1045B00023F80D490020FEF7A5FF0C490020FFF766
:1045C0001BF80B490020FEF79DFF0A492320FFF747
:1045D00013F8BDE8084008490720FFF70DB800BFF1
:1045E00075450C0019450C000040210699440C004B
:1045F0000140210479440C0045440C00054A13682D
:10460000B3F57A6F27BF0122034B0133136028BF34
:104610001A7070471035082014350820014B18789F
:10462000704700BF1435082090F834300133DBB2F6
:10463000032B88BF002380F8343090F8343000EB2F
:104640004303598590F8293013B1013B80F8293094
:10465000704790F82900B0FA80F040097047438E07
:104660001944490841867047408E10B5081A0C0954
:1046700006F0F8FE0A2C38BF0A24A042ACBF002086
:10468000012010BD38B5037F04460D46C3B1012992
:10469000006A0AD0022914D0012100F0A9FA0121F0
:1046A000606A00F0A5FA032506E0002100F0A0FAF8
:1046B0000021606A00F09CFA0523657784F82930B0
:1046C00038BD0121F2E7027F034662B390F829204A
:1046D0004ABB427F022A0FD0032A1CD0012A22D1D2
:1046E00090F8342000EB4202528DB2F5206F1AD9B7
:1046F00002211846FFF7C6BF90F8342000EB4203B2
:104700005B8DB3F5407F01D20121F3E7B3F5246F50
:1047100009D90321EEE790F8342000EB4202528DD4
:10472000B2F5407FE4D37047437F022B05D0032BC3
:1047300005D0012B05D1006870474068704780683C
:1047400070474FF0FF3070472DE9F8438369044606
:104750005A1C22D0406900B3B0FBF3F0013006F0E0
:1047600053FA06460F4625696B1C19D0284606F0F9
:104770004BFA8046E0688946284406F045FA02462E
:104780000B464046494606F0E3FB02460B463046E0
:10479000394606F0DDFBBDE8F8830026024FE2E76C
:1047A0000022014BF3E700BF0000F03F438D828DF4
:1047B0001A44C38D008E13441844800870470000CB
:1047C000F7B5274B274A01210020FFF771F8264E45
:1047D000264800F0C3F9264800F01AFA357805BBE0
:1047E00000F0A6FA044640B1012827D01C4B214A0C
:1047F00029462846FFF75CF811E001221E4B1146BE
:10480000009303461D48FCF731FF0546FCF78EF97F
:1048100001210246234628460091FCF74DFF012363
:10482000337000F05FFA03211048FFF72BFF0321DC
:104830000F4803B0BDE8F040FFF724BF104B02461D
:10484000014600930D482B46FCF710FF0746FCF786
:104850006DF9009402462B4621463846DDE700BF3D
:10486000C4FD0C0031F60C00153508201835082061
:1048700054350820DBFD0C0085480C00D3FD0C00EE
:10488000214A0C002DE9F04F85B000F065F90028B1
:1048900000F0B0805E4DFFF7B1FE2B78002B00F0EA
:1048A000AC8000F0FDF901465A48FFF7BDFE5948BB
:1048B000FFF709FF5748FFF7CCFE564C002800F0E1
:1048C000908004F13C00FFF7C4FE002800F08980CE
:1048D0002046FFF729FF82462046FFF767FF07467D
:1048E00004F13C00FFF762FF06461FFA87F94946CC
:1048F00020461FFA86F8FFF7B2FE414604F13C005D
:10490000FFF7ADFE49462046FFF7AEFE8146414621
:1049100004F13C00FFF7A8FEB9F1000F5CD00028BD
:104920005AD02046FFF710FF804607FB0AF0894661
:1049300006F06AF9002282468B46374B40464946CC
:1049400006F0DCF980463846894606F05DF90246F5
:104950000B464046494606F019F802460B465046BB
:10496000594606F0F5FA06F0DBFB0127009004F14A
:104970003C008DF80470FFF7D7FE824604F13C003E
:10498000FFF7E2FE80460AFB06F0894606F03CF996
:104990000022214B82468B464046494606F0AEF93E
:1049A00080463046894606F02FF902460B464046BF
:1049B000494605F0EBFF02460B465046594606F0C5
:1049C000C7FA06F0ADFB8DF80C700290FFF726FEDB
:1049D00010B1684600F0B0F8052384F8293084F857
:1049E00065302B788BB10D4800F06EF92B7883F091
:1049F00001032B7005B0BDE8F08F00F05BF90146B4
:104A00000648FFF711FE054852E70248ECE700BFF1
:104A100090350820183508200000B0405435082093
:104A20002DE9F04F87B000F097F8002867D03D4D92
:104A3000FFF7E4FD2B78002B64D000F031F901463C
:104A40003948FFF7F1FD3848FFF703FE364C0028E0
:104A50004CD004F13C00FFF7FCFD002846D000F0EC
:104A600067F9012853D12046FFF7A0FE07462046EC
:104A7000FFF76AFE40F6E446804606FB07F040F684
:104A8000FF778946B0FBF7F006F0BEF842464B468A
:104A900006F034F906F044FB4FF0000A029004F1EE
:104AA0003C008DF80CA0FFF781FE834604F13C002A
:104AB000FFF74AFE8046894606FB0BF0B0FBF7F095
:104AC00006F0A2F842464B4606F018F906F028FB1D
:104AD0008DF814A00490FFF7A1FD10B102A800F01A
:104AE0002BF8052384F8293084F865302B78B3B18E
:104AF0000E4800F0E9F82B7883F001032B7007B023
:104B0000BDE8F08F00F0D6F80146084899E700218B
:104B10000090074B074A0846FEF7CAFEE6E7024840
:104B2000E7E700BF913508201835082054350820E4
:104B3000FCFD0C0016FE0C000C2310B58AB00AAC6C
:104B400004F8283D0146102201A806F083FF204604
:104B5000FEF76EFD0AB010BD01F03ABD10B5044677
:104B600000F0E6F848B1012829D0BDE81040002146
:104B70001C4B1D4A0846FEF79BBE4FF42A7240F6B6
:104B80008C7346F64C51C4E9002340F6E443C4E973
:104B900002134FF0FF334FF0210C23612023C4E9AF
:104BA00008C30323012202216377104B2277196384
:104BB0001A63052384F829300A23A36310BD4FF03C
:104BC000FF33C4E90033A360637700232377052311
:104BD00040F6E44284F829300A23C4E90322A3639F
:104BE000C3E700BF3AFE0C00DBFD0C0000100E40D6
:104BF000430900F01F02012003F5001303F20773BD
:104C00005B02904009B11863704758637047000019
:104C100010B5044600F08CF848B1012828D0BDE852
:104C2000104000211B4B1C4A0846FEF741BE4FF4C2
:104C30002A7240F68C7346F64C51C4E9002340F6C4
:104C4000E443C4E902134FF0FF33232223612223FC
:104C5000C4E90823032363770123082223770F4B3A
:104C60001A6304221A630523A06384F8293010BD57
:104C70004FF0FF3340F6E442C4E90033A360C4E9D7
:104C8000032263770522002384F829202377A36376
:104C9000C5E700BF4EFE0C00DBFD0C0000100E400F
:104CA00008B50A21024801F00AFA80B208BD00BF27
:104CB00000000C4008B50021024801F000FA80B263
:104CC00008BD00BF00000C4010B5054C90F838102E
:104CD000204601F0EFF92046BDE8104001F0E7B9A9
:104CE00000000C4010B5104C252000F0FBFF4FF4E5
:104CF00000234FF4FA320D49204601F0ABF90123AD
:104D00004FF440120021204601F0C4F9204601F082
:104D1000DDF92046002101F0B6F92046BDE810403B
:104D20000A2101F0C7B900BF00000C4000BD010519
:104D3000014B1878704700BF92350820014B18705E
:104D4000704700BF9235082010B5094C0A46236809
:104D50000BB9084B236023681B68596807F048F8B3
:104D6000236858682060003018BF012010BD00BFC4
:104D7000943508201C82072038B5054648B94FF005
:104D8000A00383F31188BFF36F8FBFF34F8F00BF72
:104D9000FDE70820FCF708FE044648B94FF0A003E1
:104DA00083F31188BFF36F8FBFF34F8F00BFFDE711
:104DB000FBF78CFC00236360044B25601A681C60C1
:104DC0005460FBF793FC012038BD00BF1882072018
:104DD000002330B513608B4217D0044610F8015BF6
:104DE0009DB1202DF9D125782046202D04F1010414
:104DF000F9D055B101339942EDD1411E11F8014F5F
:104E0000136814F0DF0F02D103B9002030BD013365
:104E10001360F3E78268436800681344181A8242FB
:104E200098BF801A70472DE9F0410E46044655217F
:104E3000304690461F4606F083FEB042054609D034
:104E40004FF0A00383F31188BFF36F8FBFF34F8F31
:104E500000BFFDE724220021204606F071FE9DF8E8
:104E60001830A561C4E902872377BDE8F0812DE9F8
:104E7000F0410546884617464AB94FF0A00383F330
:104E80001188BFF36F8FBFF34F8F00BFFDE74468FA
:104E900083681E1B964228BF1646A219934209D268
:104EA0004FF0A00383F31188BFF36F8FBFF34F8FD1
:104EB00000BFFDE780693246204406F0CBFDB742D3
:104EC00012D9AB68BA1B9A4209D94FF0A00383F3F9
:104ED0001188BFF36F8FBFF34F8F00BFFDE708EB63
:104EE0000601A86906F0B6FDAB683C44A34298BF32
:104EF000E41A6C603846BDE8F0819A422DE9F84327
:104F0000164628BF1E46074689469046002E3ED0CC
:104F1000046883681D1BB54228BF3546AA4209D2E2
:104F20004FF0A00383F31188BFF36F8FBFF34F8F50
:104F300000BFFDE76219934209D24FF0A00383F34B
:104F40001188BFF36F8FBFF34F8F00BFFDE78169FB
:104F50002A462144484606F07DFDAE4211D9B045AF
:104F600009D24FF0A00383F31188BFF36F8FBFF313
:104F70004F8F00BFFDE7721BB96909EB050006F012
:104F800069FDBB683444A34298BFE41A3C603046D4
:104F9000BDE8F883012AF7B504460D460BD1042875
:104FA00014D84FF0A00383F31188BFF36F8FBFF3C2
:104FB0004F8F00BFFDE7B0B94FF0A00383F3118816
:104FC000BFF36F8FBFF34F8F00BFFDE71646AC42B4
:104FD0000BD24FF0A00383F31188BFF36F8FBFF3A1
:104FE0004F8F00BFFDE70026F1E7002D04F12500FB
:104FF00008BF0125FCF7D8FC074630B100962B46C8
:10500000621C00F12401FFF70EFF384603B0F0BD2B
:1050100048B94FF0A00383F31188BFF36F8FBFF33C
:105020004F8F00BFFDE7826803684168D0180138E0
:10503000401A824298BF801A70472DE9F04387B02A
:10504000044616460193894649B94FF0A00383F3FD
:105050001188BFF36F8FBFF34F8F00BFFDE748B9D3
:105060004FF0A00383F31188BFF36F8FBFF34F8F0F
:1050700000BFFDE7037FDA070DD506F104084645BA
:105080000AD34FF0A00383F31188BFF36F8FBFF3F0
:105090004F8F00BFFDE7B046019B5BB92046FFF78D
:1050A000B7FF05460396002D36D10025284607B0E8
:1050B000BDE8F08304A8FBF729FFFBF707FB2046B8
:1050C000FFF7A6FF8045054623D90020FCF704FA28
:1050D00067694FB14FF0A00383F31188BFF36F8F5F
:1050E000BFF34F8F00BFFDE7FBF78EFF6061FBF75B
:1050F000FDFA3946019B3A463846FCF7A5F8676148
:1051000001A904A8FBF72CFF0028D6D0002DC5D09C
:10511000C8E7FBF7EBFAF9E7237FDB0720D4B542BA
:1051200094BF03950396039A49462046FFF79FFED6
:1051300005460028B9D02046FFF76CFEE368984288
:10514000B4D3FBF7EBFC23693BB1002320691A467B
:105150001946FCF7BDF800232361FBF781FDA5E7A5
:105160004545A2D3042203A92046FFF780FEDAE7D3
:105170002DE9FF410446154698460E4649B94FF0C1
:10518000A00383F31188BFF36F8FBFF34F8F00BF6E
:10519000FDE748B94FF0A00383F31188BFF36F8F89
:1051A000BFF34F8F00BFFDE7037FDA074CBF2F1D12
:1051B0002F46FFF72DFF039520B90025284604B0A0
:1051C000BDE8F081237FDB072AD4854294BF039595
:1051D0000390039A31462046FFF749FE0546002812
:1051E000EBD02046FFF716FEE3689842E6D3EFF3D4
:1051F00011864FF0A00383F31188BFF36F8FBFF3C5
:105200004F8F23694BB1002320691A461946CDF808
:105210000080FCF7D3F80023236186F31188CDE7E3
:105220008742CAD8042203A92046FFF720FED0E710
:105230002DE9F743044617469946884649B94FF089
:10524000A00383F31188BFF36F8FBFF34F8F00BFAD
:10525000FDE748B94FF0A00383F31188BFF36F8FC8
:10526000BFF34F8F00BFFDE7037F13F0010F14BFA3
:1052700004260026B9F1000F26D0FBF727FA2046B6
:10528000FFF7C8FD8642054611D30020FCF724F93C
:1052900023694BB14FF0A00383F31188BFF36F8FE5
:1052A000BFF34F8F00BFFDE7FBF7AEFE2061FBF7BA
:1052B0001DFAAE4212D300224B4611461046FBF7B0
:1052C000C3FF002320462361FFF7A4FDB04205463B
:1052D00004D80025284603B0BDE8F0837EB12B46F4
:1052E000324601A92046D4F80090FFF706FE019B44
:1052F000AD1B9F4236BF00271F46C4F800902B46C7
:105300003A4641462046FFF7F8FD05460028E0D022
:10531000FBF704FC63693BB1002360691A46194638
:10532000FBF7D6FF00236361FBF79AFCD2E72DE978
:10533000FF47044616469946884649B94FF0A003F0
:1053400083F31188BFF36F8FBFF34F8F00BFFDE76B
:1053500048B94FF0A00383F31188BFF36F8FBFF3F9
:105360004F8F00BFFDE7037F13F0010F14BF042729
:105370000027FFF74FFD8742054604D30025284646
:1053800004B0BDE8F0877FB103463A4603A9204642
:10539000D4F800A0FFF7B1FD039BED1B9E4236BF82
:1053A00000261E46C4F800A02B4632464146204641
:1053B000FFF7A3FD05460028E0D0EFF311864FF07C
:1053C000A00383F31188BFF36F8FBFF34F8F63691F
:1053D0004BB1002360691A461946CDF80090FBF7DF
:1053E000EDFF0023636186F31188C8E7012300F015
:1053F0001F02400900F5001000F2077093404002C0
:105400000A074CBF4366036643654362C0F88030B9
:10541000026FC9074CBF134322EA030303677047B7
:105420004FF4003208B5074B00215A604FF4802238
:1054300011205A60FFF7DAFFBDE808400021122072
:10544000FFF7D4BF000E0E402DE9F74F4FF00108D3
:105450000226B54D0B2000F045FC0C2000F042FC6C
:105460006E614046C5F8A0600021C5F81080C5F8FF
:10547000A0806E60C5F80480FFF7B8FF00210846E1
:10548000FFF7B4FF4FF480424FF40043A74C0021D4
:1054900063612F20C4F8A0302261C4F8A0206360AB
:1054A00062600192FFF7A2FF00212E20FFF79EFF0E
:1054B0004FF080732361C4F8A03023634FF480035E
:1054C0004FF4007723610821C4F8A03023634FF420
:1054D000807308466B61C5F8A0302F61C5F8A070D5
:1054E0006B606F60FFF782FF08210920FFF77EFFE6
:1054F0004FF480636B61C5F8A0304FF400632B61FB
:10550000C5F8A0304FF480636B604FF400634FF434
:10551000805B6B6008210A20FFF768FF08210B20E1
:10552000FFF764FFC5F814B00021C5F8A0B00C2047
:10553000C5F804B0FFF75AFF4FF4005308212B6160
:105540000D20C5F8A0306B60FFF750FF4FF400133B
:105550004FF4801A63610021C4F8A03035206360E5
:10556000FFF744FFC4F810A00821C4F8A0A034201D
:10557000C4F804A0FFF73AFFFFF752FF26610423A7
:10558000C4F8A06026630826C4F810804FF04009D4
:10559000C4F8A0804FF00071C4F830802661C4F8D0
:1055A000A06026632361C4F8A03023632023C4F8DD
:1055B00010900320C4F8A090C4F810B0C4F8A0B0B4
:1055C0002761C4F8A0702361C4F8A0302161C4F839
:1055D000A010C4F83490C4F834B0676363630093D8
:1055E00061636E613146C5F8A060FFF7FFFE276179
:1055F000C4F8A07067604FF4803741462920FFF758
:10560000F5FE6F613146C5F8A0701020FFF7EEFE81
:1056100067613146C4F8A0703020FFF7E7FE4FF411
:10562000003104234FF400274FF080086161019A94
:10563000C4F8A0106B61C5F8A030009BC5F810A09D
:105640003146C5F8A0A00520C5F834A02F61C5F8E3
:10565000A0706F632A61C5F8A0206A636B61C5F80A
:10566000A030FFF7C3FEC5F814803146C5F8A0800E
:105670000720FFF7BBFE10204FF400014FF480031A
:10568000C5F81090C5F8A0902861C5F8A000296160
:10569000C5F8A0102B61C5F8A0304FF080732B61C6
:1056A000C5F8A0304FF4005327614FF48022C4F8AE
:1056B000A070C4F81080C4F8A0802361C4F8A030A2
:1056C0004FF480732261C4F8A0202361C4F8A03095
:1056D0004FF480634FF400662361C4F8A0304FF0AC
:1056E00080632361C4F8A0302661C4F8A060C5F8C7
:1056F0003490686369634FF4800169634FF080718F
:1057000069634FF400516763C4F834806163626376
:105710004FF4807262634FF4806262636363666316
:1057200003B0BDE8F08F00BF000E0E4000100E4029
:105730002DE9F74F01260227AF4D0B2000F0D2FADA
:105740000C2000F0CFFA6F613046C5F8A070002140
:105750002E61C5F8A0606F606E60FFF747FE002104
:105760000846FFF743FE4FF480484FF40043A34C34
:10577000002163612F20C4F8A030C4F81080C4F861
:10578000A0806360C4F80480FFF730FE00212E2063
:10579000FFF72CFE4FF080732361C4F8A030236321
:1057A0004FF480032361C4F8A03023634FF4807367
:1057B0004FF400796B61C5F8A0304FF48063C5F8F1
:1057C00010904FF4006BC5F8A090C5F830906B6155
:1057D000C5F8A0304FF48053C5F810B0C5F8A0B09C
:1057E000C5F830B06B61C5F8A03001934FF4005399
:1057F0002B61C5F8A0302B634FF4003308216B6197
:105800001120C5F8A030FFF7F1FD4FF480230821E7
:105810006B611220C5F8A030FFF7E8FD4FF0200AB9
:1058200027610422C4F8A0704FF0005027634FF0A6
:10583000007126614027C4F8A06026630826019BFA
:105840002661C4F8A06026632261C4F8A020226308
:1058500000922861C5F8A0002761C4F8A0702361F8
:10586000C4F8A030C4F81090C4F8A090C4F810A0F8
:10587000C4F8A0A02161C4F8A010686363636763E3
:10588000C4F834904FF48039C4F834A01020616318
:10589000C5F814903146C5F8A090FFF7A7FDC4F8ED
:1058A00014903146C4F8A0903020FFF79FFD6E6140
:1058B0003146C5F8A0600320FFF798FD4FF4003390
:1058C0004FF400296361C4F8A0304FF48013009AAC
:1058D00031466A61C5F8A0202B61C5F8A0306B6322
:1058E000C5F81090C5F8A090C5F83490C5F81080A0
:1058F000C5F8A080C5F834804FF08008C5F814A022
:10590000C5F8A0A04FF4000A0520FFF76FFDC5F809
:1059100014803146C5F8A0800720FFF767FDC4F862
:1059200014A03146C4F8A0A03720FFF75FFD102275
:105930004FF480032F61C5F8A0702A61C5F8A0203C
:10594000C5F810A0C5F8A0A02B61C5F8A0304FF095
:1059500080732B61C5F8A0304FF40053C4F8109049
:10596000C4F8A090C4F81080C4F8A0802361C4F8E3
:10597000A0304FF480232361C4F8A0304FF480732B
:105980002361C4F8A0304FF480632361C4F8A030D1
:105990004FF080632361C4F8A030C4F810B0C4F89D
:1059A000A0B06F636A634FF48002C5F834A06A63E5
:1059B0004FF080726A634FF40052C4F83490C4F818
:1059C000348062634FF4802262634FF480726263BA
:1059D0004FF48062626363634FF40043C4F834B0F1
:1059E0006B61C5F8A0304FF400136B61C5F8A030AF
:1059F00003B0BDE8F08F00BF000E0E4000100E4057
:105A0000B2EB011F30B52CBF1024082461434B08B2
:105A100003EBC202B2FBF1F24FF6FE73D1084D1E4A
:105A20009D4210D8082C08BF43684FEA024202F496
:105A3000E02208BF43F4002342EA010208BF4360AA
:105A40000262002030BD0120FCE70000084BC0F8D6
:105A5000E43000234360436283628823036024238D
:105A600003604FF4807303604FF4002303607047BA
:105A70000041535570B505460C46FFF7E7FF00237C
:105A80000A4E336009B9012070BD0968FFF7B8FFFD
:105A90000028F8D1D4E90132134322691343E268A4
:105AA00013436A68336013436B60EDE79835082051
:105AB0004023036070471023036070478160704784
:105AC000C16070474069704743699B0743BFC1F39A
:105AD0000801C1610020012070474369DB0741BF15
:105AE00083690020C3F308030B6058BF012070478F
:105AF0000E4B1A6B22F003021A6340F60102996EF4
:105B000009070BD51A6B22F07002104340F6010210
:105B10001863996E090705D500207047013AEED148
:105B200001207047013AF4D1FAE700BF00060E40A9
:105B30000F4B1A6B22F0030242F001021A6340F687
:105B40000102996E09070BD51A6B22F070021043FF
:105B500040F601021863996E090705D500207047C9
:105B6000013AEED101207047013AF4D1FAE700BFC3
:105B700000060E400F4B1A6B22F07002104340F6E5
:105B800001021863996E08070CD51A6B22F0030204
:105B900042F002021A6340F60102996E090705D528
:105BA00000207047013AEDD101207047013AF4D14D
:105BB000FAE700BF00060E40054B586910F0800060
:105BC0001FBFA3F5A053103B986EC0F3C0107047E1
:105BD000101A0E40174B10B51A6A12F0010F1A6A0C
:105BE0001FD0002122F45C1222F0780242F45C12F1
:105BF00042F0080202431A629A6E9203FCD51A6AB6
:105C000022F09B7222F4803242F45C121A6239B1A3
:105C10001A6A22F45C1222F0010242F45C121A6247
:105C200010BD054C0549144021430143196201216F
:105C3000E2E700BF00060E408600C8FF09FF3700FC
:105C4000044A136A23F45C1323F0780343F45C13CF
:105C50001362704700060E40034A136A23F00303E1
:105C600043F45C131362704700060E400E4A136A39
:105C700028B10E4919400E4B0B431362704723F4B1
:105C80005C1323F00303090243F45C1389B243F06D
:105C900001030B431362936EDB07FCD5136A43F0D9
:105CA0009B7343F48033E8E700060E40FCFFC8FE18
:105CB00002003701024B986E00F48030704700BF3D
:105CC00000060E404FF00052014B9A62704700BF31
:105CD00000060E40024B986E00F00200704700BFB5
:105CE00000060E402C2818D81F280D4A4FF001033B
:105CF00008D8916903FA00F030EA010300D010617E
:105D0000002070472038D2F8081103FA00F030EA7A
:105D10000103F5D0C2F80001F2E70120704700BF8F
:105D200000060E40034BC0F312001A6F10431867B1
:105D3000704700BF00060E404160704781607047A9
:105D400000697047436A23F0FF03194341627047BB
:105D500000EB4111D1F8100270478B790A781B04CF
:105D600003F4702343F4000300EB4210C0F81C322C
:105D700070478B790A781B0403F4702343F4800383
:105D800000EB4210C0F81C32704710B50A780B794E
:105D90005201104463B9C0F80032C0F80432C0F8B0
:105DA0000832C0F81432C0F81832C0F81C3210BDE6
:105DB000D0F80022CC7922F4702242EA0442C0F8E2
:105DC0000022D1E90342497981B144F00054C0F87E
:105DD000044242F00052C0F80822D0F8002222F01B
:105DE000E06242EA0363C0F80032E0E7C0F8044230
:105DF000F1E78A6870B502F0C073B3F1C07F14BFD9
:105E0000002402240B78C2F303425B01C518D5F8C5
:105E10000C62042A8A7126F060464E61D5F814623D
:105E200088BFD5F818228E6188BFCA61C218D2F81F
:105E3000102203448A60D201D3F80822D3F8083232
:105E400048BF44F0040412F000521DBF23F0604329
:105E50000B6101239B0C12BF4B710B614A71FFF761
:105E60007CFF204670BD0A7830B552018418D4F802
:105E700010328B601B021AD54D790B690DB143F0BE
:105E80000053C4F808328B698418C4F814328B7933
:105E90001044042B88BFC9694FEA034303F47023FD
:105EA00088BFC4F81812C0F81C32002030BD012091
:105EB000FCE730B50024054689B08DF80440009415
:105EC000694628460134FFF760FF082CF7D109B076
:105ED00030BD0000F8B546F2A813044603FB02F0FB
:105EE0000B18013BB3FBF0F3802B01D90020F8BD68
:105EF0004FF4FA505043B0EB510FF7D84FF47A7388
:105F000008265A434FF0FF373346B1FBF0F5802D9A
:105F100006D800FB1515BD4202D23DB12F461E46E4
:105F20000133DBB21A2B1044EFD133465A43B1FB95
:105F3000F2F1C9B20129D9D906202268083B22F022
:105F400001022260194A013900FB0322937850783C
:105F5000013B01381B01000200F4E06003F0700314
:105F60000343D07812790138013A00F00700120398
:105F700002F4405203430904134301F4FE011943A0
:105F800020466161FFF795FF00200246236843F039
:105F900001032360064B920204D49842A6D02269E2
:105FA0000130F8E7C01A18BF0120A0E7A8FE0C00D6
:105FB000A0860100AC2310B50360D1E90032B3FB29
:105FC000F2F34FF6FE721B095C1E94420AD803627C
:105FD0008B68436040F20223C0F8203150230360F5
:105FE000002010BD0120FCE7502303607047AC2364
:105FF0000360704781607047C160704740697047B7
:1060000043699B0746BFC161002001207047436977
:10601000DB0743BF836900200B7001207047D30664
:106020000ED59306C0F8B0104CBFC0F8D410C0F81D
:10603000D01053064CBFC0F8C010C0F8C410704751
:10604000C0F8B4107047C36C016470474164704776
:10605000C06C704730B5012440F202250460520044
:106060000024B1FBF2F24460C0F82051C0F80441B2
:10607000C0F814414568013A12022B4392B21A4308
:106080004260204630BD4368090101F01001194308
:106090004160704710B50906446801F07061214302
:1060A0000A43190701F040511143416010BD02231A
:1060B00003607047012303FA01F1016170470F2962
:1060C0009ABF503050F8210000207047036C43F015
:1060D0008073036470470000014B53F82000704741
:1060E000901A0E40014B43F820107047901A0E4052
:1060F000406800F4E0607047084BB3FBF1F1814267
:1061000008D8C1EB0133834204D3B0FBF1F0C0F3F4
:106110000B0070474FF6FF70704700BF0020A107CB
:1061200010B5044CC2F30B0204EA034313430B43C0
:10613000436010BD0000FF0F024B984204BF024BAA
:1061400003607047501A0E40010000A54068C0F37C
:106150000B00C001B0FBF1F101484843704700BF9C
:1061600040420F00134B07B5DA6AD00742BF012146
:106170009962196A910742BF022199621B6AD3058D
:1061800044BF4FF480720B4B01A944BF9A621B6A53
:10619000094B1868FBF7F4FE019B3BB14FF08052AE
:1061A000064B1A60BFF34F8FBFF36F8F03B05DF8DC
:1061B00004FB00BF00C008409C35082004ED00E04F
:1061C000436801F00F0123F00F031943416070474A
:1061D000436801F4E06123F4E063194341607047D0
:1061E000436843F48053436070470068C0F3032062
:1061F0007047C068704708B5120202F4706211431C
:106200000BF026FE002008BD0368090201F470614E
:1062100023F4706319430BF01BBE000038B5A1F1E5
:106220000E03012B17D9EFF3108472B6BFF35F8F03
:1062300000230A4DC9B22B70094B03EA022242F037
:10624000B44211430BF00CFE24B901232B70BFF3B1
:106250005F8F62B638BD4FF0FF30FBE72882072022
:1062600000FFFF0070B50F4C26688CB206F50025C4
:106270008D4210D8C6F17F4505F578052944A41B49
:10628000094DC1F30F21E4B200B1056002B11180E4
:1062900003B11C8070BDA1F50021C1F30F21E4B250
:1062A000024DF1E76C8C0720000C0E40000A0E40F6
:1062B00038B504460D460A4601460548FFF79BFFE0
:1062C0002A4621460348FFF796FF002038BD00BF4D
:1062D000000A0E40000C0E402DE9F04F85B00193EE
:1062E0000F460DF10A030146154603A802AAFFF75F
:1062F000B9FF0398FFF779FF062181460398FFF75E
:1063000083FFDFF8B8B0DFF8B080039835B94946AD
:10631000FFF77AFF284605B0BDE8F08FBDF80A20E8
:10632000244CC2F58073AB421E4628BF2E46A042C5
:1063300018BFDBF80040BDF8081013BF04F50024B7
:1063400001F50064240204EB01249B1B21461A483A
:106350001FFA83FA05F07EFBBDF80A003246394683
:10636000404405F077FBBDF80A005246304401195D
:10637000404405F06FFB04F58073A8EB04010A5953
:1063800044F8042BA342FAD1019B0398BDF80820DE
:1063900073B10321FFF742FF0028BCD1BDF80830DC
:1063A00037440133AD1BADF80830ADF80A00ACE757
:1063B0000121EFE7000A0E40A03508206C8C072071
:1063C000042370B586B002AD06460C4600930F223A
:1063D0002B460E2109480BF03FFD68B9042C28BF5D
:1063E00004240346A34201D106B070BD55F8232012
:1063F00046F823200133F5E71020F5E7000A0E40A8
:10640000EFF30583FCE700002A4A10B5136B03F095
:106410000303012B284B0FD004D3116ACC012BD5D9
:10642000264945E02649496908064CBF4FF400411A
:106430004FF4FA4119600DE0116AC90101D51F49F5
:10644000F8E720491960116A01F07001102911D094
:106450002029F4D0106B196800F07000702807BF75
:106460000322B1FBF2F1126BC2F3021218BFD1404A
:10647000196010BD1449DDE712491960116A01F075
:106480007001102913D02029CAD0116B01F003012B
:10649000022901BF946A1968C4F30A4404FB01117C
:1064A00009BF906A0949C0B2B1FBF0F1C2E70649E1
:1064B0001960EAE700060E4024820720001BB7009F
:1064C000101A0E4000093D0000127A00001C4E0E0A
:1064D000114B124A9842124B03D8002111601960E7
:1064E00070471049884202D84FF48071F6E70E4990
:1064F000884202D84FF40071F0E70C49884202D874
:106500004FF44071EAE70A49884294BF4FF4806132
:106510004FF4A061E2E700BFBFEA2101000A0E408C
:10652000000C0E407FF0FA02FF8FD003FFB3C404CB
:106530007F4A5D050160704701210268530903F538
:10654000001303F2077302F01F025B0201FA02F26A
:106550001A63704701210268530903F5001303F21F
:10656000077302F01F025B0201FA02F25A637047DE
:106570000D4808B5FFF7ACFF3E210020FFF776FB82
:10658000FFF798FB0028FBD0FFF79CFB074B084A5E
:106590009A62FFF79FFB0028FBD00020FFF7EAFA82
:1065A000BDE80840FFF730BF00BD010500060E4002
:1065B000013F06204FF00052044B1A61C3F8A0209F
:1065C00008B11A6370475A63704700BF000E0E404F
:1065D000024BD86BC0F34070704700BF000E0E40F6
:1065E00070B5344A86B0137801331370324A334B96
:1065F00012781C681D4682B91B79E4B29C4228BF00
:106600001C4668468DF800208DF8084003F056FEC1
:106610000120FFF7CFFF06B070BD4FF6FF739C421D
:1066200030D054BB2346264A01212046FDF740F9CD
:106630002046FFF7BFFF01264FF6FF736C689C42B0
:1066400027D00CBB01231E4A19462046FDF730F91E
:106650002046FFF7AFFF1B4A01210020FDF728F974
:10666000002368468DF800308DF8083003F026FED0
:106670004FF47A70FAF76CFBCDE7013C01202C60F7
:10668000FFF798FF0026D7E7013C01206C60FFF779
:1066900091FF002EDFD12B782A798DF8006093428C
:1066A00028BF13468DF80830FDF7E8F8684603F078
:1066B00005FEB0E7A9360820AA360820A036082033
:1066C00020FF0C003CFF0C005A22024B43F8202014
:1066D000704700BFA0360820014B1870704700BFFC
:1066E000AA36082073B5124B124A01210020FDF78B
:1066F000DFF8114B1C78CCB901251D700F4B2A46D1
:106700004FF47A7100930E482346FAF7AFFF06461E
:10671000FAF70CFA23460246009429463046FAF767
:10672000CBFF4FF6FF72074BC3E9002202B070BDEA
:1067300014FF0C0031F60C00A8360820E1650C00AF
:1067400050FF0C00A036082038B54478084D20468C
:1067500000F040F82A78A24206D034B9054A012157
:106760000020FDF7A5F82C7038BD034AF7E700BFFD
:106770002982072056FF0C0065FF0C0008B500F0C9
:1067800033F80E200349FCF737FFBDE8084000202E
:1067900000F020B849670C0030B58BB00446FDF717
:1067A000ABF943780546A3420DD00E20FDF790F9D2
:1067B0000E236C7068468DF800308DF80140FCF7B0
:1067C00037FF0BB030BD0E20FDF76CF90028ECD17F
:1067D000F7E70000034B4FF0007208B91A637047E7
:1067E0005A63704700100E404FF00072024B1A615E
:1067F000C3F8A0201A63704700100E400378122BD4
:1068000004D14278074B12B901221A7070471A78E6
:10681000002AFBD004490A7882F001020A700022A3
:10682000F3E700BF2D820720B0360820037810B5AB
:10683000072B09D10B4B0C4C1B7833B9102000F0FF
:10684000AFFB3C235843206010BD2368002BFBD0D6
:10685000013B2360054A0121BDE810400020FDF7FF
:1068600027B800BF2C820720AC36082092FF0C000E
:1068700038B50378102B2DD11A4943781A4D096881
:106880002B7041B3012B14BF1C46002417490A7812
:106890009A4218BF0020164A1CBF0B701070137864
:1068A00023B1012C19D0002C08BF0124204600F090
:1068B00083F80CB12B7813B90020FFF705FF0D4DBD
:1068C0002A78A24206D054B90B4A01210020FCF7D5
:1068D000EFFF2C7038BD1C46D8E70024E6E7074AD6
:1068E000F3E700BFAC3608202C8207202B8207205C
:1068F000B03608202A82072075FF0C0083FF0C00A9
:1069000000F064B808B500F081F8012000F054F8F8
:1069100008491020FCF770FE07491220FCF76CFEB6
:1069200006490620FCF768FEBDE808400449072038
:10693000FCF762BE71680C00FD670C0065690C0015
:106940002D680C00112300B58BB08DF8010068464E
:106950008DF800308DF80210FCF76AFE0BB05DF880
:1069600004FB000038B50378062B11D100F036F88F
:10697000084C05462278824205D00346064A01218A
:106980000020FCF795FF00212846FFF7DBFF25706C
:1069900038BD00BFB1360820BBFF0C00122300B584
:1069A0008BB08DF8010068468DF80030FCF740FE92
:1069B0000BB05DF804FB0000034B4FF4805208B9A4
:1069C0001A6370475A63704700100E40024BD86B31
:1069D000C0F30030704700BF00100E40084B30B5C8
:1069E000084CDB6B084D2178C3F30043287841EA5B
:1069F0000302024001EA030029702370104330BDF6
:106A0000000E0E40B2360820B33608204FF48052F4
:106A1000024B1A61C3F8A020704700BF00100E405F
:106A200038B54478084D204600F022F82A78A24272
:106A300006D034B9054A01210020FCF739FF2C703B
:106A400038BD034AF7E700BF2E820720DEFF0C00A7
:106A5000EAFF0C0008B500F015F813200349FCF715
:106A6000CBFDBDE80840012000F002B8216A0C000F
:106A7000034B402208B95A6370471A63704700BF3E
:106A800000100E404022034B1A61C3F8A0201A6385
:106A9000704700BF00100E4038B544780F4B012CF2
:106AA0001C7013D10E4B1C78B4FA84F464090D4D9C
:106AB000204600F09FF82A78A24206D064B90A4A1C
:106AC00001210020FCF7F4FE2C7038BD074B1B7829
:106AD000002B18BF0124EAE7054AF1E730820720BE
:106AE000B43608202F820720F7FF0C00B5360820A7
:106AF00004000D000378182B06D14368B3F5AF6F7F
:106B000082BF0022014B1A70704700BFB4360820C4
:106B1000037810B5072B2AD1154B11201B78ABB980
:106B200000F03EFA012804D1132000F039FA114B8D
:106B30001870114A1378D3B1013BDBB213700F4ABE
:106B40000121BDE810400020FCF7B2BE00F028FA99
:106B5000012804D1122000F023FA074B1870054ACF
:106B6000137823B1013BDBB21370054AE8E710BD8F
:106B700030820720B4360820B536082012000D00F8
:106B80003C000D0008B500F03FF808491420FCF760
:106B900033FD07490720FCF72FFD18200549FCF7B6
:106BA0002BFDBDE80840012000F024B8996A0C00D4
:106BB000116B0C00F56A0C0030B58BB00446FCF785
:106BC0009BFF83780546A3420DD01420FCF780FF7D
:106BD0001423AC7068468DF800308DF80140FCF746
:106BE00027FD0BB030BD1420FCF75CFF0028ECD172
:106BF000F7E70000034B202208B91A6370475A6375
:106C0000704700BF00100E402022024B1A61C3F8EB
:106C1000A020704700100E4030B58BB04FF0A0039D
:106C200083F31188BFF36F8FBFF34F8F144A15485A
:106C300014880378144921F813400023138083F348
:106C400011880A2502780132D2B2B2FBF5F405FBB5
:106C500014221C46027031F8132001330A2B14440D
:106C6000F9D10A4D2B68A34207D0192368468DF845
:106C700000300194FCF7DCFC2C600BB030BD00BF91
:106C8000B8360820BA360820C0360820D436082086
:106C900037B5194C45682068401B04F0E3FB132806
:106CA0000DDD284603F0B0FF0022144B04F050F92C
:106CB000134ACDE9000101210020FCF7F9FD632D05
:106CC00007D80021084600F099F80023236003B09C
:106CD00030BD2068401B04F0C5FB3128F7DD3223AE
:106CE0004EF66021B5FBF3F30120B1FBF3F100F0A8
:106CF00085F82560EBE700BFBC360820000059404E
:106D000067000D0073B5134D2C7804BB00F098F8A4
:106D100011491820FCF770FC104B012200936421EC
:106D200023460F48FAF7A2FC0646F9F7FFFE234672
:106D30000246009401213046FAF7BEFC01232146A9
:106D400020462B7002B0BDE8704000F057B802B08A
:106D500070BD00BFB6360820916C0C00196C0C0099
:106D600076000D0030B58BB00446FCF7C5FE054635
:106D70008068001B04F076FB01280CDD1820FCF76E
:106D8000A7FE1823AC6068468DF800300194FCF72C
:106D90004FFC0BB030BD1820FCF784FE0028EDD16D
:106DA000F7E7000038B5124803F0D8FD03061DD5FB
:106DB000104D11492C680E4864082A6803F0A8FD9C
:106DC00022460D490A4803F0B1FD2A680A490848DD
:106DD00003F09EFD22460849054803F0A7FDBDE8E3
:106DE000384000220721024803F0C3BD38BD00BF70
:106DF0000040094004370820D836082038B5054639
:106E00000C4C80B10C4B196023782BB907210B482F
:106E100003F09AFD012323700022BDE838400721CA
:106E2000064803F09DBD0721044803F092FD25703C
:106E300038BD00BF00370820043708200040094053
:106E40001FB52420FEF74EFF0721194803F081FDEE
:106E50002420FEF747FF002447F23053CDE90134E8
:106E6000144B01A91248039303F0C4FC20B1124A49
:106E700021462046FCF71CFD0023104964200B81AD
:106E80008B720B234B6032230724C1E9033008487F
:106E90000C6003F0CEFC2146054803F05AFD102299
:106EA000074B5A60F02283F8242304B010BD00BFC2
:106EB0000040094000BD01057C000D00D8360820C7
:106EC00000E100E070B58AB004460E46FCF714FEFF
:106ED00003790546A34209D01520FCF7F9FD1B2CC8
:106EE0002C710AD815238DF800300CE01520FCF722
:106EF000D9FD0028F0D10AB070BD162305228DF807
:106F000000300F4B1A70002368468DF802308DF860
:106F100001408DF80360FCF78BFB9DF80130002BDE
:106F2000E9D1074C2378002BE5D0162368468DF86D
:106F30000030FCF77DFB2378013B2370DBE700BFCB
:106F40000837082010B5124C88B02278162A08D9C4
:106F50000A23009300230F481A4603210068FAF71A
:106F6000ABFB17238DF8083023780B4ADB0801218F
:106F700000208DF81030FCF79BFC00238DF81130B9
:106F8000064B02A8039303F099F908B010BD00BFA7
:106F90002237082024370820BC000D0061700C0047
:106FA000014B185C704700BF0A3708207FB5094BBA
:106FB0001A5C8A420AD0195405238DF808006846E5
:106FC0008DF800308DF8091003F078F907B05DF8FE
:106FD00004FB00BF0A3708207FB57F2306A800F80E
:106FE000183D03F06BF907B05DF804FB114B73B566
:106FF0001C78E4B901251D700F4B2A460093C82167
:1070000023460E48FAF732FB0D4B06461860F9F797
:107010008DFD0A2302460093294623463046FAF79F
:107020004BFB204602B0BDE87040FFF78BBF02B0BB
:1070300070BD00BF09370820456F0C0098000D0097
:10704000243708201A2300B58BB08DF8010068465C
:107050008DF80030FCF7ECFA0BB05DF804FB000093
:107060002DE9F74F804692460024C5001F4EEDB231
:107070001F4F019106EB050B019BA34202D103B008
:10708000BDE8F08F05EB0409B9F1170F1ADC1AF807
:107090000420B9F10D0F0BF8042015D10120FFF7E2
:1070A000D1FFB9F1170F87F8009008D1F27D1AB916
:1070B00001214846FFF77AFF0220FFF7C3FF3B7824
:1070C00001333B700134D7E7B9F10C0FE9D106EB7E
:1070D0000802105D38B90121064AFCF7E9FB0121DD
:1070E0004846FFF763FF0020D9E700BF0A370820B2
:1070F000223708209E000D0070B5417990F80841B4
:107100008D1DA54217D18378C2780B4413440279B0
:10711000053113440622DBB2914206DADB43013427
:10712000435580F80841012070BD865C013233442C
:10713000DBB292B2F0E70020F6E70023FF2180F8EF
:10714000083180F8093100F20712431E03F8011FCD
:107150009342FBD1002380F80A3180F80B3170474D
:107160000122014B1A7070479438082070470000C4
:107170000378232B02BF4278014B1A70704700BF7F
:1071800078370820037810B51E2B014603D128223A
:10719000054804F05FFCBDE81040002303481A4690
:1071A00019460068FAF7C0BD283708205037082074
:1071B00002F0B8B9037801462E2B05D1034800230D
:1071C0000A220068FAF7B0BD704700BF983808205F
:1071D000037801462B2B05D1034800230A220068BF
:1071E000FAF7A2BD704700BF5437082003782A2B56
:1071F00006D1011D034800230A220068FAF794BD56
:10720000704700BF743708200378242B06D1011D76
:10721000034800230A220068FAF786BD704700BFC2
:107220007C370820037810B5262B10D10446084A75
:1072300054F8043F04210220FCF73AFB054821469C
:10724000BDE8104000230A220068FAF76DBD10BDAA
:10725000D5000D0064370820037813B5152B47D1EE
:107260000222411C684604F0F5FB9DF8002052B94B
:1072700023490B783BB1DC0741BF581C08708DF8DF
:1072800000308DF801209DF80020D00718D51C4B48
:107290001B78D90714D59A4212D000240133194A19
:1072A000012120468DF804308DF80540FCF700FBE5
:1072B000154823464FF0FF3201A90068FAF734FD64
:1072C0009DF80030A3B10E4C22789A4210D00F4A9C
:1072D00001210020FCF7ECFA0B486946002302224A
:1072E0000068FAF721FD014620B19DF800302370B7
:1072F00002B010BD064A0220FCF7DAFAF8E700BF38
:1073000059370820E9000D0090380820F4000D00DE
:1073100002010D0010B590F80A31044690F80811EA
:107320000BB1032903D8637907338B4204D120467C
:1073300000F0A6FD012010BD0021054A0846FCF71B
:10734000B7FA204694F8081100F09AFD0020F2E701
:107350001A010D002DE9F0411C4C054620461E4641
:1073600088461746FFF7E9FEC723C82294F80801AC
:107370002354431CDBB2E2541222831CDBB2E554DB
:10738000C31CDBB2E2540022031DDBB2E254042230
:10739000431DDBB2E254851DC11D00F10802EDB2B0
:1073A000C9B2D2B204F805806754A65400F10902AC
:1073B0000A3084F80801D2B22046A654FFF79CFE9A
:1073C0002046BDE8F041FFF7A5BF00BF8137082088
:1073D000034B1A781F2A84BF01221A70187870474D
:1073E0008D38082008B5FFF7F3FF0130C0B2202820
:1073F00028BF0120014B187008BD00BF8D38082040
:107400002DE980487A4B89B00093012200234FF484
:10741000FA717848FAF72AF9774C784B2060012204
:10742000C821009376480023FAF720F9754D2860AB
:1074300001F02AFC2668F9F779FB0024024623466E
:10744000012130460094FAF737F92D68F9F76EFB01
:1074500023460246012128460094FAF72DF902211D
:10746000694A0846FCF724FA6848FFF766FEFFF70A
:10747000B9FF674D0146654801F0CCFF2F46654EC8
:10748000C8213068FAF776FE6C78DFF8B881012CF5
:1074900068D1614A03210220FCF70AFA98F800300B
:1074A000022B51D802215D4A0846FCF701FA5748E1
:1074B00090F808218378012A98BFFF23BA789A426E
:1074C00040F08280FFF726FF98F80030013388F8FB
:1074D0000030002CD4D10020514C88F80000627894
:1074E000002A40F0A282DFF8608105A9D8F80000E8
:1074F000FAF79EFD002800F0D3809DF81420237831
:107500009A4200F08B82FFF76DFF9DF8143004461D
:10751000162B00F27782DFE813F0610099009001EA
:107520009701A001A701B001B701C001F801010254
:10753000C701D001D701E001E801F10108020F0203
:1075400017025F0266026E02364A00210220FCF733
:10755000AFF9354A1378002BBDD000231370334A9E
:107560001370B8E7022C31D1314A03212046FCF7D1
:107570009FF998F80030022B09D821462D4A204661
:10758000FCF796F92148FFF7C5FE01249CE72A4A3B
:1075900000212046FCF78CF9234B1B7813B1002205
:1075A000224B1A70254B1B7823B9FCF767F9012091
:1075B000FFF78AF8FFF7A4F9044628B9FCF75EF94B
:1075C0000120FFF781F87FE700247DE7164B1B7849
:1075D000002B80D0154A13780133C1E7184A0121E6
:1075E0000020FCF765F900231A46002136E000BFB1
:1075F00061710C0024010D006C3708206D710C00C6
:107600002A010D006837082030010D00813708205D
:1076100028370820503708203F010D0046010D0093
:107620007037082055010D0080370820603708208A
:1076300068010D0072010D0081010D0078370820EE
:1076400096010D007937082090380820C24A0121A0
:107650000020FCF72DF90123002210212046FFF71E
:1076600079FE0446002840F0D2819DF81430BB4AD0
:107670000146FCF71DF90123052205A9D8F80000F1
:10768000FAF752FB9DF814300094B54A012100200E
:10769000FCF70EF9012C00F0D581022C00F0CE8110
:1076A000B04B002205A91868FAF7C2FC48B1FFF7F1
:1076B00099FE05AA0146AC4801F062FF00287FF45C
:1076C000DFAEAA4B002205A91868FAF7B1FC48B151
:1076D000FFF788FE05AA0146A34801F095FF0028A0
:1076E0007FF4CEAE0022A24B05A918680592FAF7E6
:1076F0009FFC48B1059C3CB1FFF774FE01469A48D7
:10770000A04700287FF4BCAE00239A4C0593237851
:10771000002B00F09B81DFF86882D8F80030002B46
:1077200000F09481944A04210320FCF7C1F8934AA5
:10773000D8F8003011788C489847002840F0A38191
:1077400000238E4A237013708D4A13608D4B0022E4
:1077500005A91868FAF76CFC002867D0FFF742FE0D
:10776000DDE906A9804C039020469DF816809DF81F
:1077700015B0FFF7E2FCC722C82094F8083103993E
:10778000E2545A1CD2B2A0549A1CD2B2A154402145
:10779000DA1CD2B2A15400211A1DD2B2A1545A1D32
:1077A000D2B2A1549A1DD2B204F802B0DA1DD2B2FC
:1077B000083304F8028084F80831504604F0EAFAED
:1077C000A046D446C0B298F80811ACEB0A02D2B277
:1077D0004B1C9042DBB200F25981002284F8083140
:1077E0006254484604F0D6FACC46C0B298F8083144
:1077F000ACEB0901C9B25A1C8142D2B2C0F04D8132
:107800004FF0000804F80380053B84F808216371F9
:107810005548FFF771FC5C4A01214046FCF748F8E7
:107820005148FFF777FD00287FF42AAE574C2378A4
:10783000002B40F03981002326E1554A0121002028
:10784000FCF736F8002307E7524A01210020FCF735
:107850002FF801230022202100E74F4A01210020B8
:10786000FCF726F80023F5E74C4A01210020FCF73D
:107870001FF8012300220421F0E6494A01210020DB
:10788000FCF716F80023F5E7464A01210020FCF733
:107890000FF8012300220821E0E6434A01210020DD
:1078A000FCF706F80023F5E7404A01210020FBF72A
:1078B000FFFF012300224021D0E63D4A01210020A4
:1078C000FBF7F6FF0023F5E73A4A01210020FBF71A
:1078D000EFFF012300220121C0E6374A01210020E9
:1078E000FBF7E6FF00231A46F5E7344A01210020A2
:1078F000FBF7DEFF012300220221AFE6304A01211F
:107900000020FBF7D5FF0023F5E72E4A01210020D8
:10791000FBF7CEFF0123002280219FE62A4A0121A6
:107920000020FBF7C5FF0023F5E7284A01210020CE
:10793000FBF7BEFF012357E6254A01210020FBF794
:10794000B7FF0023012250E6224A01210020FBF765
:10795000AFFF0123022248E6A1010D00EF020D0056
:1079600014030D007437082081370820543708208D
:107970007C3708208037082047030D006037082037
:107980005C370820983808206D030D0094380820D3
:10799000AE010D00B9010D00C6010D00D1010D00B1
:1079A000DF010D00EB010D00F9010D0005020D00D6
:1079B00012020D001D020D002D020D003B020D00F4
:1079C0004B020D0059020D0068020D0075020D00FA
:1079D00087020D0097020D003C4A01210020FBF7B1
:1079E00067FF0023B6E73A4A01210020FBF760FF5A
:1079F00001230422F9E5374A01210020FBF758FF53
:107A00000023F6E7344A03210020FBF751FF02224E
:107A100005A9324804F01EF8012433E663789DF886
:107A200015201344637002242CE6013AD2B262702E
:107A30002378012100922A4AFBF73AFF0A20F9F73E
:107A400087F92DE63220F9F783F919E5254B002255
:107A500005A91868FAF7ECFA00283FF477AE059B01
:107A6000002B3FF473AE04211F4A0320FBF720FFD5
:107A70001E4B1F481978059B984700283FF460AEBD
:107A80001C4B059A1A6001232370F9E41CF8012BA2
:107A900088F8083108F8012095E61CF8011B88F8E1
:107AA000082108F80310A1E6FFF79CFC01461048E6
:107AB00001F0B0FC80460A20F9F74AF90023237050
:107AC000B8F1000F3FF4B7AEDAE400BFA9020D0031
:107AD000B9020D00C8020D00D5020D007037082054
:107AE00027030D00643708205D030D006037082070
:107AF000813708205C370820002337B5064D02ACDB
:107B000044F8043D002221462868FAF791FA08B9A2
:107B100003B030BD00BFF5E76437082037B5354DF9
:107B20002C78002C63D1224602211020FAF7D6F8D7
:107B30000421314B224618600846FAF7CFF8042199
:107B40002E4B224618600846FAF7C8F82C4B2246FE
:107B500018600C210220FAF7C1F82A4B224618605F
:107B60000C210220FAF7BAF8274B224618600921A7
:107B70000220FAF7B3F8254B4FF44872186002233D
:107B800023490093019423462248F8F7A3FE00F00E
:107B9000E1F921491520FBF72FFD20492620FBF7AD
:107BA0002BFD1F492420FBF727FD1E491E20FBF754
:107BB00023FD1D492320FBF71FFD1C492520FBF752
:107BC0001BFD1B492A20FBF717FD1A492B20FBF749
:107BD00013FD19492E20FBF70FFD01F07BFC01205E
:107BE000032221462870FAF779F8144B186003B085
:107BF00030BD00BF5837082090380820643708206F
:107C00007C3708207437082098380820543708201B
:107C10007E030D0001740C0059720C0025720C00DB
:107C200009720C0085710C0071710C00597C0C00FC
:107C3000ED710C00D1710C00B5710C0050370820AB
:107C4000242300B58BB0019068468DF80030FBF717
:107C5000EFFC0BB05DF804FB0378252B05D14378CE
:107C6000182B02D10148FFF7EBBF7047B1710C0030
:107C700010B523248AB08DF804309DF830308DF88B
:107C800002008DF805309DF8343068468DF80630D6
:107C90009DF838308DF800408DF807309DF83C3065
:107CA0008DF801108DF803208DF80830FBF7C0FC2B
:107CB0000AB010BD282300B58BB08DF800309DF8B8
:107CC00001308DF8022060F3030361F387136846E7
:107CD0008DF80130FBF7ACFC0BB05DF804FB2C23F6
:107CE00000B58BB08DF8010068468DF80030FBF7C9
:107CF0009FFC0BB05DF804FB252300B58BB08DF81D
:107D0000010068468DF80030FBF792FC0BB05DF87F
:107D100004FB272300B58BB08DF8003000238DF8CD
:107D2000020068468DF801308DF803108DF80420AC
:107D3000FBF77EFC0BB05DF804FB272300B58BB08E
:107D40008DF8003001238DF8020068468DF801306F
:107D50008DF803108DF80420FBF76AFC0BB05DF87A
:107D600004FB272300B58BB08DF8003002238DF87B
:107D7000020068468DF801308DF80310FBF758FCBF
:107D80000BB05DF804FB00B58BB001460C226846D1
:107D900003F060FE2E2368468DF80030FBF748FCA8
:107DA0000BB05DF804FB222300B58BB0ADF80200E8
:107DB00068468DF80030FBF73BFC0BB05DF804FB28
:107DC000014B1878704700BF31820720034B1A78A7
:107DD0001F2A84BF01221A7018787047B03A082011
:107DE0000023FF21074A82F8083182F80931D15473
:107DF0000133B3F5847FFAD1002382F80A3182F887
:107E00000B317047A4390820074B587993F80821A3
:107E10000730811A93F80A314842484113B1032AC6
:107E200088BF1846704700BFA439082038B5FFF74F
:107E3000EBFF30B1114B93F80A111A4611B193F8C8
:107E40000B0138BD5879D1789B78441D0B4406212D
:107E50000344DBB2A1420ADDDB4310448179DBB28B
:107E600099420CBF0120022082F80B01E9E7555C22
:107E700001312B44DBB289B2ECE700BFA439082002
:107E80002DE9F341C6B20024F7434FF0D80C4FF070
:107E9000AA0E2A4D831BDBB28B4201D2FD2C2BD9BB
:107EA000F8F744FE02210346254A0846FBF700FD89
:107EB0000026244FF3B29C4238D80221224A0846B9
:107EC000FBF7F6FC214B224618681C49C36898470B
:107ED0000023FF22EA540133FE2BFBD11C4B1C680C
:107EE000F8F724FE00230246009301212046F9F70B
:107EF000E3FB02B0BDE8F08110F8013B621CC72B28
:107F0000D2B20ED107EB000818F0FF0F05D005F82C
:107F100004C005F802E0144600E02B550134E4B239
:107F2000B8E7D82B2B55F9D1AB54F4E70221AB5D60
:107F30003A460846FBF7BCFC0136BBE7A0380820F0
:107F40001A040D00611A0D00C7FA0C009C380820B5
:107F5000A039082013B50221134A0846FBF7A8FCF4
:107F6000124A04210220FBF7A3FC1148114B4E22B8
:107F700018604FF4E13143699847002402234FF41D
:107F80004872CDE900340C4923460C48F8F7A2FCAE
:107F90000B4B22460093A02123460A48F9F766FBC3
:107FA000094B186002B010BDEA030D0001040D007A
:107FB000B48107209C3808200F040D0045800C0078
:107FC000EB7F0C0098000D00A03908201E2300B59F
:107FD0008BB08DF8010068468DF800308DF80210E6
:107FE000FBF726FB0BB05DF804FB00210220FFF736
:107FF000EDBF0B2300B58BB08DF8010068468DF8FE
:1080000000308DF80210FBF713FB0BB05DF804FB9A
:10801000292300B58BB08DF8010068468DF800303B
:10802000FBF706FB0BB05DF804FB1F2300B58BB01C
:108030008DF8010068468DF80030FBF7F9FA0BB0B7
:108040005DF804FB02212DE9F043BA4A87B00846E7
:10805000B94DFBF72DFCC820F8F77AFE2E46FFF746
:10806000BFFEB64C28680A2301220DF11701806972
:10807000FDF7DEF8002800F094809DF81700C7286F
:1080800001D1FFF7ADFE94F808312BB16278CA2A0E
:1080900023D00DD8C82A20D0E054013384F8083109
:1080A0002378C72B1EBF002384F80831237020E0FB
:1080B000F02A01D0FF2AEFD10122032B84F80A21F4
:1080C00064D1E070A278E178D243D2B291420CBF81
:1080D0000122022284F80B21DEE7002294F8091124
:1080E00084F80A21002945D1D828D5D1012384F864
:1080F0000931FFF789FE0028B4D0F8F717FD0221F7
:1081000003468F4A0846FBF7D3FB0023DFF84C8277
:1081100094F808215F1CDBB29A423AD80221894ABE
:108120000846FBF7C5FB94F80831012B04D9A37866
:108130001F2B01D8844A1370FFF766FE002891D0E8
:108140000520F8F705FE94F80A71002F41D00120B0
:10815000FEF7BAFAFBF792FB94F80831A778012BE7
:10816000637898BFFF27FF2B1FD0FFF739FE3946F2
:10817000012022E0AA2804D0D82803D084F80921BD
:10818000B7E7C720002284F8092185E7022B83D9AD
:1081900098E70221E35C42460846FBF789FB3B4631
:1081A000B6E70220F8F7D4FDC6E7FFF73FFE012847
:1081B000DBD1FFF715FE39460020FFF707FF0A2342
:1081C0000093002361481A4603210068F9F774FA06
:1081D00048E7FFF72BFED6F800800128D8F810906A
:1081E00040F0BE80FFF7F2FD0146FFF7EFFDC04310
:1081F000C0B2FF23C722CDE9001055494046C84709
:10820000F8F794FC0146FFF7E1FD8046FFF7DEFD3D
:10821000C043C0B2CDE90280C723FF20CDE90030C2
:108220000B4602214B4A0846FBF742FBE378FF2B43
:108230000ED0C32B55D018D8B72B46D00BD8912BC6
:1082400039D0B62B3DD0902B17D1A079FFF754FD34
:10825000FFF7C6FD06E7C02B3BD0C12B3DD0B82BA6
:108260000BD1204601F012FCF2E7D02B49D018D8F0
:10827000C52B3ED039D3C62B3FD0374A0021022030
:10828000FBF716FB0023DFF8D48094F808215F1C6D
:10829000DBB29A4245D82B4A00210220FBF708FBAB
:1082A000D6E7E52B35D0E82B37D0D52BE5D1A07913
:1082B000FFF7BBFECCE73A463946A079FFF729FD28
:1082C000C6E7204601F0B4FBC2E7204601F0C4FB3C
:1082D000BEE7204601F0EAFBBAE7204601F0FAFBD0
:1082E000B6E7204601F008FCB2E7204601F02EFC7C
:1082F000AEE7204601F032FCAAE7204601F05EFC22
:10830000A6E7A379E07900EB032080B2FFF74BFDED
:108310009EE7204601F054FC9AE7204601F082FCDB
:1083200096E7E35C424600210220FBF7C1FA3B4698
:10833000ABE700BFAD030D009C380820A43908202E
:10834000BF030D00C7FA0C00B03A0820A03908207E
:108350008A030D0093030D00CB030D00611A0D007D
:10836000FFF734FD0146FFF731FDC043C0B2F023F3
:10837000C722CDE900100D494046C847F8F7D6FBA3
:108380000146FFF723FD8046FFF720FDC043C723CA
:10839000F022C0B2CDE90032CDE902800B46044A9A
:1083A00039460220FBF784FA52E700BF8A030D002A
:1083B00093030D0010B51D248AB08DF80430BDF86C
:1083C00030308DF8020068468DF800408DF80110BD
:1083D0008DF80320ADF80630FBF72AF90AB010BD7E
:1083E000F0B52C4A85B00E46044601210220FBF769
:1083F0005FFA294B1B78002B0CBF02270327FFF7DE
:10840000DFFCB742054643D3032E41D8DFE806F030
:1084100002102332FEF7E6FF204B014653F82530C9
:108420003A4600932046002301F092F905B0F0BDD2
:10843000FEF7CEFF1A4B002103931A4B012253F88B
:10844000253002930323CDE9003102230146204663
:1084500001F0BFF9EAE7FEF7BBFF114B00220393DF
:108460000E4B53F8253002930323CDE9003210233D
:108470000222EBE7FEF7ACFF094B032203930A4B02
:1084800053F8253002930023CDE900238023DDE754
:108490000020CBE769070D00D13A0820348207207D
:1084A000F4040D000C050D00980C0D00F0B52E4ADB
:1084B00085B004460E4602200121FBF7F9F9FFF7CB
:1084C0007FFC2A4B05461B78002B0CBF0227032795
:1084D000032E45D8DFE806F002101D37FEF782FFB5
:1084E000234B014653F825303A4600932046022399
:1084F00001F02EF905B0F0BDFEF76AFF1D4B0393A6
:108500001D4B53F825300293002301930123009360
:1085100011E0FFF755FC194B1B6893B1184B53F84A
:108520002050FEF755FF174B002202930123CDE99F
:1085300000320223039501461A46204601F049F90C
:10854000D8E7114BEBE76BB1FEF742FF0F4B0393FC
:108550000F4B53F825300293002301930323D6E7F2
:108560000020C7E70120C5E743070D00CC3A0820EB
:108570000C050D0070F60C00900B0D00B43A0820AD
:1085800064080D005C070D0018080D00F4040D00D0
:108590005C040D0003780A2B0ED1C288074B1A80A9
:1085A0000279074B1A70C278064B1A708278064B14
:1085B0001A704278054B1A70704700BFD23A0820F3
:1085C000D03A0820CD3A0820CE3A0820CF3A0820E9
:1085D0000C4B13B51860FFF78FFA0B4B1C68F8F7BC
:1085E000A5FA052302460093012100232046F9F74E
:1085F00063F801210020054A02B0BDE81040FBF7F6
:1086000057B900BFBC3A0820C83A0820F6040D004C
:1086100008B5064A01210020FBF74AF9FFF76CFA7A
:10862000034B1868BDE80840FFF7D2BFB0080D0043
:10863000C03A08200D4A0178136871B9022B01D89D
:10864000032111601268003318BF0123003218BFE4
:108650000122934208D0FFF7DBBF0129EED00729A2
:10866000F0D10BB1591EECE7704700BFB43A0820B7
:108670000122014B1A707047D13A08200122014BA8
:108680001A707047CC3A082082071FD16422B0FBD1
:10869000F2F302FB13039BB2D3B94FF4C872B0FBE1
:1086A000F2F302FB130080B2B0FA80F040090B290C
:1086B00012D8012303FA01F111F4256F0AD14B07F7
:1086C0000AD5002814BF1D201C2070470020EEE7AB
:1086D0000120ECE71E2070471F20704710B514469C
:1086E000FFF7D2FF24B1A04228BF2046C0B210BD80
:1086F0000120FCE72DE9F043037887B0272B0546DE
:1087000040F091804378022B40F08D8000F0C4FD52
:1087100003287DD1EC78AD78F8F708FA434BCDE922
:1087200001450093424A034601210020FBF7C0F8AF
:10873000404B414E1B78414D9A1EDFF82881DFF8EF
:1087400028913F4F042A5DD8DFE802F003313D4B0A
:10875000540004F5FA6423463A4A01210020FBF74D
:10876000A7F834803B78384A049399F80030012107
:10877000039398F80030002002932B7801933388FC
:1087800000932A4BFBF794F83C78297899F800304D
:1087900098F800203088009401F06CFA2B48FFF71D
:1087A00017FF032007B0BDE8F04300F01FBD2346CC
:1087B000274A01210020FBF77BF80CB12C70D1E790
:1087C00001232B70CEE72346224A01210020FBF72C
:1087D0006FF8224629783088FFF780FF88F800007C
:1087E000C0E723461C4A01210020FBF761F889F805
:1087F0000040B7E72346194A01210020FBF758F84B
:108800003C70AFE7164A01210020FBF751F8A9E7B9
:108810001038C0B26F2806D8A978E87807B0BDE84C
:10882000F04300F0CFBC07B0BDE8F08339040D0081
:108830002D060D00B93A0820D23A0820D03A082077
:10884000CF3A08203C060D00A9060D006D880C00EB
:108850004D060D005E060D0071060D0081060D002F
:1088600094060D00CD3A0820CE3A08202DE9F04FAD
:1088700089B08846044601F0E9F8002814BF4FF09B
:10888000060A4FF0070AFFF79BFA644B644E1F88F5
:10889000644B31781A7805463846FFF71FFF624B64
:1088A000079093F800B0FFF78BFA3246BBF1000F48
:1088B00007D001265D4951F82090C24506D200201C
:1088C00019E05B495E4651F82090F6E7B8F1070FD2
:1088D000F5D8DFE808F00413243C50617385FEF7F7
:1088E00081FD544B014653F82530524600932046F3
:1088F000032300F02DFF09B0BDE8F08FFEF768FDFF
:108900004D4B014653F82530CDE9029B01930023DE
:108910000093012320461A4600F0B5FFEBE7FEF76F
:1089200057FD0A234FF0800ECDE9043E434B30370C
:108930000293434BFFB253F825300397CDE9006310
:10894000022301461A46204600F0FDFFD3E70792B6
:10895000FEF73EFD00234FF00C0CCDE9043C079AD6
:1089600013780393354B0293364B53F82530CDE9FA
:1089700000630323E5E7FEF72BFD1F270023CDE966
:108980000437079B03932D4B02932F4B53F825304D
:10899000CDE900630423D4E7FEF71AFD0023172175
:1089A000CDE90431294B1B780393244B0293284BC8
:1089B00053F82530CDE900630523C2E7FEF708FD33
:1089C00000233B22CDE90432224B1B7803931B4B3F
:1089D0000293214B53F82530CDE900630623B0E71D
:1089E00001F034F8074600287FF469AF1B4B1C4E9A
:1089F0001A781C4B002A08BF1E46FEF7E9FC1A4BEA
:108A0000014653F825300396CDE901730123009305
:108A1000072320461A4600F0DCFE6CE7D23A082015
:108A2000D03A0820CD3A0820C43A082064080D0046
:108A300018080D005C040D00DC0B0D00F4040D00A3
:108A4000E40C0D00CC070D00A8040D00CE3A082060
:108A5000F0060D00CF3A082080070D00B83A082034
:108A60005E050D0058050D00280C0D00134B73B565
:108A7000187008B3124B1E88A6F5FA63362B1BD864
:108A8000104B1D786B1E0B2B16D80F4B1C789CB10E
:108A9000224629463046FFF721FE84420CD80B4B74
:108AA0001878172808D80A4B19783B2904D800965B
:108AB0002B462246FFF77EFC02B070BDC43A082068
:108AC000D23A0820D03A0820CD3A0820CE3A0820E1
:108AD000CF3A08207FB503780446272B03D1457889
:108AE0001DB1012D0FD004B070BD8478002CFAD1D7
:108AF00000F0F0FB204600F079FB544804B0BDE8DC
:108B00007040FFF765BD027983780192C2782946EB
:108B1000009200204E4AFAF7CBFE00F0BDFB0F2872
:108B200000F28C8000F0B8FB29460346494A002039
:108B3000FAF7BEFE00F0B0FBA578032873D8DFE893
:108B400000F002026C22E178227915B909B9012AF4
:108B50000AD00F2A11D8012A06D9022AC3D13E48C9
:108B6000FFF736FD022003E03848FFF731FD002013
:108B700004B0BDE8704000F039BB284604B0BDE841
:108B8000704000F087BAE6782479F7F7CFFF334BCF
:108B9000CDE90264009301950346314A012100208A
:108BA000FAF786FE032D9ED1012C16D12D4E2E4AAA
:108BB000337821460020FAF77BFE307880F0010000
:108BC000FFF754FF3378294A21460020FAF770FE58
:108BD0002748FFF7FDFC0320CAE7072C11D101212C
:108BE000244A0020FAF764FE234B197881F0010132
:108BF000197021B100210846FFF7FBF9E8E70120D1
:108C0000FAE71E4D2B78A3423FF46DAF1C4A0121B9
:108C10000020FAF74DFE2C7065E7022D9FD12479D4
:108C2000032C9CD1D4E72379164A0193E3780121E0
:108C3000009300202B46FAF73BFE54E703063FF56E
:108C400052AF2279E178A07898E700BFE1830C0069
:108C500062050D0097050D00AD840C0022040D0087
:108C6000B2050D00C43A0820CA050D00F9F80C0041
:108C70006D880C00EA050D00B83A0820B93A0820C2
:108C8000FA050D000F060D0013B514492720FAF759
:108C9000B3FC134C13492720FAF7AEFC12490A2003
:108CA000FAF7AAFC21460020FAF7A6FC214601208B
:108CB000FAF7A2FC21460720FAF79EFC00F01AFB07
:108CC0000A4B4FF4FA710093002309481A46F8F74B
:108CD000CDFC084B186002B010BD00BFD58A0C0057
:108CE00035860C00F5860C0095850C00118D0C0066
:108CF0003C070D00C83A0820262300B58BB0019030
:108D000068468DF80030FAF793FC0BB05DF804FB71
:108D100010B50C4C0C4A01210020FAF7C9FD23685C
:108D20007BB10A4A01210020FAF7C2FD2068FFF753
:108D3000E3FF2068FFF7E0FF2268054B1A6000237D
:108D4000236010BDBC3A0820740C0D008A0C0D0085
:108D5000C03A08202DE9F04186B006460D46FFF7DF
:108D60002FF804460A2D00F24981DFE815F00B00C8
:108D70001A00380053006C008B00AA00E1000501C6
:108D80001E013901FEF72EFB9D4B014653F824309E
:108D90000A2200933046102300F0DAFC06B0BDE84A
:108DA000F081FFF70DF805460F20FEF7F9F80128CE
:108DB0000CBF944B944B53F82550FEF709FB934B93
:108DC000002153F82430039502930323CDE90031A9
:108DD000012301461A46304600F0FBFCDEE7102076
:108DE000FEF7DEF80546FEF7F3FA00231E22CDE972
:108DF0000432874A039552F824200292854A52F899
:108E00002420CDE90032022301461A46304600F004
:108E10009AFDC3E7FEF7D4FF05461120FEF7C0F820
:108E200078B97D4B53F82550FEF7D2FA7B4B4FF0C3
:108E3000000853F82430039502930323CDE900384A
:108E4000C7E7774BEEE71220FEF7AAF80746112096
:108E5000FEF7A6F80546FEF7BBFA00234FF03C0EDE
:108E600015F1FF3518BF0125CDE9043E6D4B039781
:108E700053F82430009502936B4B53F82430019340
:108E80000423C1E71320FEF78BF807461120FEF7F5
:108E900087F80546FEF79CFA00234FF03C0C15F1CD
:108EA000FF3518BF0125CDE9043C5E4B039753F80D
:108EB0002430009502935D4B53F824300193052331
:108EC000A2E7FEF77DFF054601F0AAF90B282DD891
:108ED000DFE800F00616181A1C1E282A2022242675
:108EE000534B53F82550FEF773FA524B039553F842
:108EF0002430002502930323CDE90035062368E7DB
:108F00004D4BEEE74D4BECE74D4BEAE74D4BE8E7B9
:108F10004D4BE6E74D4BE4E74D4BE2E74D4BE0E7C9
:108F20004D4BDEE74D4BDCE74D4BDAE74D4DDAE7D5
:108F30001420FEF735F84C4B53F824804B4B1F7828
:108F4000AFB1012815D10025494B53F82480FEF715
:108F50003FFA484B014653F82430CDE90287CDE96A
:108F60000053072330461A4600F08DFC16E7012512
:108F7000EDE700252F46EAE7FEF722FF05460B2026
:108F8000FEF70EF8012894BF3B4B3C4B53F825509D
:108F9000FEF71EFA3A4B039553F82430002402934F
:108FA0000323CDE90034082313E7FEF709FF054644
:108FB0000B20FDF7F5FF08B102280FD1314B53F814
:108FC0002550FEF705FA304B002153F82430039565
:108FD00002930323CDE900310923FAE62B4BEEE798
:108FE000FEF7F6F91F4B00220393294B53F8243068
:108FF00002930323CDE900320A23EAE60020CDE6FE
:1090000034820720C8110D0014120D007C110D00D0
:10901000F8120D00F80D0D0044130D00A4150D00FD
:10902000440E0D003C160D0028140D0090130D0089
:1090300058150D0060120D00740F0D00A8100D00E2
:10904000DC0E0D00600D0D00900E0D00C0140D0023
:10905000280F0D00A8180D000C100D005C180D0055
:10906000C00F0D0058100D00DC130D00D53A08207C
:1090700074140D000C150D0010180D0030110D00AA
:10908000AC0D0D00AC120D0088160D00F0150D0092
:109090005C100D0010B5144688B038B94148FFF790
:1090A00097FA102000F0A2F808B010BD1028FBD1EC
:1090B00000923D4B3D4A01210020FAF7F9FB631E67
:1090C000092B6CD8DFE803F0056B116B6B1B384183
:1090D0004B620F20FDF764FF411CC9B2022908BF93
:1090E00000210F20FDF762FFD8E71120FDF758FFA0
:1090F000411CC9B2022908BF00211120F2E701F08A
:109100008FF804460134E4B20346294A01210020C5
:10911000FAF7CEFB0C2C28BF0024264A2346012157
:109120000020FAF7C5FB032302A88DF808308DF85C
:10913000104001F0C3F8B1E71420FDF731FF10F142
:10914000FF3118BF01211420CCE70B20FDF728FFC9
:10915000014603280ED8DFE800F01715130C0B208A
:10916000FDF71EFF0146032804D8DFE800F00209DE
:109170000B0D01210B20FDF719FF01F0DDF98DE743
:109180000021F7E70321F5E70221F3E70A4B0B4A39
:1091900001210020FAF78CFBFDF71EFF7EE7084B4C
:1091A0001C707BE7558D0C00480D0D00F4100D0070
:1091B00009110D001C110D00300D0D0031F60C00D1
:1091C000D43A0820084B01461B78042B06D0052B07
:1091D00006D0022B06D11020FDF7E8BE1220FBE7D7
:1091E0001320F9E7704700BFD43A082070B5184D36
:1091F000184CB5F900300646E21812F8012C8242EC
:1092000000D163B93346144A01210020FAF750FB1C
:10921000B5F90030092BE65413DC01332B8000250F
:109220000E4E635D3246012100200135FAF740FB06
:109230000A2DF6D1BDE87040094A01210020FAF755
:1092400037BB0021074A0846FAF732FBE7E700BFC1
:10925000D63A08208082072017190D004B190D00FF
:10926000C7FA0C0026190D00FF21084B0020B3F9A6
:109270000020002AC4BF02F1FF321A80B3F9003087
:10928000034AD154034A0121FAF712BBD63A082007
:109290008082072008190D0038B50B4DB5F9003054
:1092A000002B0EDD094C0A4A234413F8013C01212E
:1092B0000020FAF7FDFAB5F900301C4414F8010C4F
:1092C00038BDFF20FCE700BFD63A08208082072087
:1092D000F4180D000023FF21044A995401330A2B8E
:1092E000FBD10022024B1A80704700BF808207200A
:1092F000D63A0820FFF7EEBF0378182B02BF42686A
:10930000014B1A60704700BFD83A08200378072B3A
:1093100004D1034A13780BB1013B1370704700BFAF
:109320008A82072038B5037805460E2B0ED1084CEB
:1093300041782278914207D0064A01210020FAF7AD
:10934000B7FA0548FEF77CFC6B78237038BD00BF88
:109350008B82072051190D00D1940C0038B5037889
:109360000546142B0ED1084C41782278914207D043
:10937000064A01210020FAF79BFA0548FEF760FC37
:109380006B78237038BD00BF8E8207208F190D00C7
:10939000D1940C0038B503780546132B0ED1084C38
:1093A00041782278914207D0064A01210020FAF73D
:1093B0007FFA0548FEF744FC6B78237038BD00BF88
:1093C0008D8207207C190D00D1940C0038B50378EC
:1093D0000546102B14D10B4C41782278914207D0CE
:1093E000094A01210020FAF763FA0848FEF728FC31
:1093F0006B782370FDF784FA10B10A22044B1A70BF
:1094000038BD00BF8C82072067190D00D1940C0075
:109410008A82072038B5294B1C78002C46D00023BF
:10942000FF2480F8093100F20712431E03F8014FB0
:109430009A42FBD1C7220270C82200234270102238
:1094400080F80A3180F80B3103711D4BC2701D4A40
:109450001B781278002B817014BF0023612312B394
:1094600043F00203184A12780AB943F008030025B2
:1094700045722025154A153112688371C2F30724FD
:109480000B44D2B22344134420338572DB430C21B6
:109490000525C47102724571C37280F80811FEF788
:1094A000EFFC012038BD43F00603DBE7FAF7E6F9ED
:1094B0000120FDF709F92046F4E700BF8A82072062
:1094C0008C8207208E8207208B820720D83A0820C2
:1094D000FFF7A0BF08B50D491020FAF78DF80C4929
:1094E0000E20FAF789F80B491420FAF785F80A4993
:1094F0001320FAF781F809491820FAF77DF8BDE83A
:10950000084007490720FAF777B800BFCD930C0051
:1095100025930C005D930C0095930C00F9920C00C0
:109520000D930C00002310B5FF2480F80931421E72
:1095300000F2071302F8014F9342FBD1C7230370D7
:10954000C82343701823C3700323002243710B4BBD
:1095500080F80A211B7880F80B21C3710B441D335E
:10956000817002718271DB4302220A21027243720E
:1095700080F80811FEF784FC012010BDDC3A0820B9
:1095800038B50023FF2480F8093100F20715431E87
:1095900003F8014F9D42FBD1C7250570C8254570D2
:1095A00019250023C5700E2581700371457115784A
:1095B00027318571557880F80A31C571957880F822
:1095C0000B310572D5788372457255790373C57274
:1095D000127AC9B242738374C3748473C4730474FB
:1095E0004474831D00F11402934208D1C9430175EC
:1095F000152180F80811FEF743FC012038BD13F84F
:10960000014B2144C9B2EFE738B50023FF2580F8AC
:10961000093100F20714431E03F8015F9C42FBD19D
:10962000C7240470C824002344701A248170C470B5
:10963000037180F80A3180F80B315378223183713D
:109640009378C9B2C371D378037213794372537993
:1096500083729379C372D3790373137A00F10E0284
:10966000437308234371831D934208D1C943817317
:109670000F2180F80811FEF703FC012038BD13F814
:10968000014B2144C9B2EFE770B5417990F8084128
:109690008D1DA54217D18378C2780B4413440279FB
:1096A000053113440622DBB2914206DADB43013472
:1096B000435580F80841012070BD865C0132334477
:1096C000DBB292B2F0E70020F6E70023FF2180F83A
:1096D000083180F8093100F20712431E03F8011F18
:1096E0009342FBD1002380F80A3180F80B31704798
:1096F00030B51446A31ADBB2994200D830BD90F8B9
:10970000083114F8015BC554013380F80831F1E7E2
:1097100010B590F80A31044690F808110BB10329EE
:1097200003D8637907338B4204D12046FEF7A8FBA8
:10973000012010BD0021054A0846FAF7B9F8204675
:1097400094F80811FEF79CFB0020F2E71A010D00C7
:109750002DE9F041069E044690460D461F46FFF750
:10976000B4FFC723C82290F808012354431CDBB27E
:10977000E254831C3022DBB2E5540025C31CDBB26B
:10978000E254411D031DDBB2C9B204F80380C21DBF
:109790006554811DC9B2D2B2083004F80180A754C3
:1097A00084F80801304602F0F5FA3246C1B220468C
:1097B000FFF79EFF94F80831E5545A1C053B84F8E6
:1097C00008216371FFF760FF2046BDE8F041FFF715
:1097D0009FBF2DE9F84F0446DDE90C768B46154610
:1097E00099469DF828A09DF82C80FFF76EFFC723AF
:1097F000CA2290F808012354431CDBB2E254302201
:10980000831CDBB204F803B0C31CDBB2E254031DBB
:10981000DBB2E5540025431D821DDBB2D2B2E55414
:1098200004F802A000F10803C21DDBB2D2B2093075
:1098300004F8029004F8038084F80801384602F026
:10984000A9FA3A46C1B22046FFF752FF94F8083110
:109850003046E554013384F8083102F09BFA324671
:10986000C1B22046FFF744FF94F80831E5545A1C72
:10987000053B84F808216371FFF706FF2046BDE829
:10988000F84FFFF745BF2DE9F84F0446DDE90B8798
:109890008B4615469A469DF828909DF83460FFF750
:1098A00014FFC723CA2290F808012354431CDBB2DB
:1098B000E2543022831CDBB204F803B0C31CDBB2D9
:1098C000E254031DDBB2E5540025431DDBB2E55431
:1098D0000423821DD2B2A354C21D00F10803DBB2DF
:1098E000D2B2093004F802A004F8039084F8080109
:1098F000404602F04FFA4246C1B22046FFF7F8FE5A
:1099000094F808313846E554013384F8083102F000
:1099100041FA3A46C1B22046FFF7EAFE94F8083110
:109920005A1CD2B2E554A5549A1CD2B2A654DA1CE1
:10993000033B84F808216371FFF7A6FE2046BDE8CB
:10994000F84FFFF7E5BE2DE9F74F0446DDE90D7648
:109950000D46CDE900329DF830B09DF83C809DF871
:1099600040A09DF84490FFF7B0FE90F80811C72082
:109970004FF0CA0C6054481CC0B204F800C0881CE8
:10998000C0B225543025C81CC0B22554019A002508
:10999000081DC0B2225406204A1DD2B2A5548A1D09
:1099A000D2B2A054009BCA1DD2B2A35401F1080345
:1099B000DBB2093104F803B0384684F8081102F02C
:1099C000E9F93A46C1B22046FFF792FE94F8083111
:1099D0003046E554013384F8083102F0DBF93246B1
:1099E000C1B22046FFF784FE94F808315A1C991C36
:1099F000D2B2C9B2E554A55404F801A0D91CC9B229
:109A00006554191DC9B204F80190591DC9B26554B5
:109A1000991DC9B2073304F8018084F808316271D6
:109A2000FFF732FE204603B0BDE8F04FFFF770BEEF
:109A300037B5847A857904F5FA64437A027AC17974
:109A400000942846FEF7B6FC03B030BD014B1878F1
:109A5000704700BFDD3A082010B5837904466BB922
:109A60000121074B074A19700220074BF9F720FF25
:109A7000217AE079BDE81040FEF7BBBA10BD00BF07
:109A8000DD3A0820B6190D00A3190D0010B50446E3
:109A90008379054A01210220F9F70AFFA079BDE880
:109AA0001040FEF7B5BA00BFCE190D0030B5457BAA
:109AB00085B0C479437A027A81790395057B029552
:109AC000C57A0195807A00902046FEF7D1F805B05E
:109AD00030BD000010B50446064A01210020F9F708
:109AE000E7FEA379022B04D1E079BDE81040FEF730
:109AF000F6B810BDDF190D00202300B58BB08DF82E
:109B00000030837907308DF80130002310F8012BE5
:109B10000DEB03011D2B8A7011D100210A4A084662
:109B2000F9F7C6FE2E238DF81F308DF81E308DF804
:109B30001D306846F9F77CFD0BB05DF804FB01337E
:109B4000002AE3D1F5E700BFE5190D008379027A19
:109B5000C17903F00F00FEF7ADB80000212300B576
:109B60008BB08DF80030837908308DF8013010F813
:109B7000013C8DF80230002310F8012B0DEB03019E
:109B80001D2BCA7014D100210B4A0846F9F790FE2C
:109B900000238DF820302E238DF81F308DF81E30D5
:109BA0008DF81D306846F9F743FD0BB05DF804FBF6
:109BB0000133002AE0D1F5E7E5190D0070470000F8
:109BC00070B5154A044601210020F9F771FE002303
:109BD000124E94F808215D1CDBB29A4214D8104A48
:109BE00001210020F9F764FEA37933B9E37923B9A1
:109BF000237A012B01D8FFF737FB227AE179A0798C
:109C0000BDE87040FEF799B8E35C324601210020C0
:109C1000F9F74EFE2B46DCE7051A0D00611A0D0020
:109C2000C7FA0C0070B5104A044601210020F9F76C
:109C30003FFE00230D4E94F808215D1CDBB29A42D2
:109C40000AD801210A4A0020F9F732FEE179A07909
:109C5000BDE87040FEF785B8E35C32460121002084
:109C6000F9F726FE2B46E6E7051A0D00611A0D00EE
:109C7000C7FA0C0030B4074C9DF8085024681CB19A
:109C80000295A44630BC60472146204630BC024ABB
:109C9000F9F70EBEE03A0820101A0D000023024624
:109CA000FF2180F84530831C42F8403F03F8011B38
:109CB0009342FBD1002340F29F2280F8483002807B
:109CC00080F8463080F84B3080F8473080F84930D3
:109CD00080F84A3080F8441070470000F8B500233F
:109CE0000B4C0C4E0C4F22785D1CDBB29A4206D80E
:109CF000BDE8F840094A01210020F9F7D9BDF35C1D
:109D00003A4601210020F9F7D3FD2B46EBE700BFCF
:109D1000643C08209C3B08204B190D00C7FA0C003E
:109D200008B5F6F7D3FC0023054A1370054A1370F3
:109D30000122054B1A70BDE80840F6F7D7BC00BFFA
:109D40004C3B0820F83A08208F82072010B5104CB1
:109D50002378022B10D80F4A01210020F9F7A8FD23
:109D600023780D48013323700023BDE810401A46C4
:109D700019460068F7F7D8BF084A01210020F9F713
:109D800097FDFFF7ABFFBDE81040FFF7C9BF00BF6D
:109D90004C3B0820B91A0D00E43A0820C31A0D0004
:109DA000F7B5002211461F4D1F4B2C78D0B28442CC
:109DB00029D89F221A700222002429701B495A7048
:109DC00091F844C00E6CE0B2511C6045C9B21DD977
:109DD0009F2098540232D4B203225A54144B1E6866
:109DE000F6F7A4FE00230246009301213046F7F760
:109DF00063FC22460F4B0C4918682C70C36803B0F3
:109E0000BDE8F040184799540132CFE7375C013480
:109E10009F2F04BF9F540A46315C99540132D2B23D
:109E2000D1E700BF643C08209C3B0820503B082041
:109E3000F43A0820EC3A082030B50C4A136C92F83A
:109E40004410194400234B7092F844105C1CDBB2A0
:109E5000994201F1010102D282F8441030BD106C28
:109E6000C35C455C6B4043542346EDE7503B082000
:109E7000044A92F84430116C0133DBB282F844306A
:109E8000C8547047503B082010B50446C0B2FFF7D5
:109E9000EFFFC4F30720FFF7EBFFC4F30740FFF722
:109EA000E7FF200EBDE81040FFF7E2BF036C5878D3
:109EB00000F026BA036C5878003018BF012000F07B
:109EC00019BA00002DE98048BB4DBC4F28688BB003
:109ED00043694E224FF4E1319847BB46DFF82483B3
:109EE00000213868F8F746F9024600284ED0FFF7FF
:109EF00057FF28681E2301220DF10F018069FBF72F
:109F000097F9002800F0D080AD4C9DF80F1094F820
:109F100045302646002B00F0A18002296BD1204657
:109F2000FFF7BCFE002384F84530012384F8483055
:109F300094F84730002B00F0B78094F84620002AB0
:109F400040F09080914694F84410206C93B299426E
:109F500007D3835C013289EA0309412A5FFA89F950
:109F6000F4D12B68D3F80CA0B9F1000F00F0BA803F
:109F7000944A1068918892790490ADF814108DF885
:109F8000162004A907221846D0478AE098F8003026
:109F9000002BAED08C4B04A91868F8F749F80028BC
:109FA000A7D08A48FFF77AFE9DF81000FFF760FF00
:109FB0009DF81030042B0FD00AD8BBB1032B15D05D
:109FC000FFF73AFFFFF7ECFE002388F8003090E738
:109FD000052B04D0172BF3D10598FFF755FF9DF8FB
:109FE0001800FFF745FF9DF8190001E09DF81800E3
:109FF000FFF73EFFE4E703290AD194F84830002B2D
:10A0000096D0012384F84730002384F845308FE749
:10A01000062905D1012384F8493084F84630F3E756
:10A02000152903D1012384F84A30F6E79F2911D17D
:10A03000002384F8453094F84430A3F13E02D2B2B4
:10A04000C02A7FF675AF226C0133DBB284F844304E
:10A05000D1546DE72046FFF721FE69E79F29EAD139
:10A060000123D2E70A230093002359481A4603210B
:10A070000068F7F721FB94F84A3083B3554C2378F6
:10A08000032B25D8544A01210020F9F711FC0023A5
:10A09000DBF800001A461946F7F746FE237801332D
:10A0A00023704748FFF7FAFD4C4B1C78621C1A706E
:10A0B000002C7FF415AF2046F6F796FF63283FF695
:10A0C0000FAF474B474A01212046F9F7F1FB07E75D
:10A0D000454A01210020F9F7EBFBFFF7FFFDFFF7F1
:10A0E0001FFEDEE7414A1068918892790490ADF82E
:10A0F00014108DF816201846072204A9D04794F8AA
:10A10000473043B1226C1378042B27D022D8012B7F
:10A110003CD0032B47D0364A01210020F9F7C8FB79
:10A1200094F84430334AFF2B18BF994694F84730CF
:10A130000121009300204B46F9F7BAFB0024DFF819
:10A14000BCA0E3B24B455FD32B4A01210020F9F7B5
:10A15000AFFBA6E7162B2AD0172BDCD10023D2F8B1
:10A16000019096F8442003F1010ADBB29A4211D81B
:10A17000214A01210020F9F79BFBB9F1000F90D093
:10A18000236CDA1D99795879C8478AE70C48FFF79C
:10A190008DFE86E7326C0121D35C0020174AF9F767
:10A1A00087FB5346DDE75278154B1A7079E7044870
:10A1B000FFF780FE75E700BFEC3A0820E43A08207C
:10A1C000FC3A0820361A0D00483B0820503B082076
:10A1D000F43A0820F83A0820701A0D00F03A0820E6
:10A1E000461A0D0062F90C00771A0D003E1A0D0098
:10A1F000961A0D00A91A0D00C7FA0C004B190D0094
:10A20000F13A08208F820720336C52461B5D0121F2
:10A210000020F9F74DFB0A20F6F79AFD013490E78C
:10A2200010B5044C044A237801210020F9F740FBC3
:10A23000207810BDF13A0820561A0D0073B5154E5E
:10A2400034782CBB0125144B144A15491A60154863
:10A2500023464FF4C87201940095F6F73BFB224663
:10A2600018210C20F7F73AFD0F4B224618600F4BD0
:10A27000FA2100930E482346F7F7F8F90D4B032215
:10A28000186021462846F7F729FD0B4B35701860FA
:10A2900002B070BDE83A0820EC3A0820F4810720AB
:10A2A000661A0D00C59E0C00483B08204D9D0C0011
:10A2B00098000D00F43A0820E43A082001460348CB
:10A2C000002302220068F7F72FBD00BF483B08209B
:10A2D000054B1B782BB9054B1B7813B9044B187829
:10A2E00000B10120FCF75ABB653C0820663C082001
:10A2F000673C0820014B1870FFF7EABF653C082057
:10A3000000F04403442B70B5064640F0A7800122BC
:10A31000794B1A70FFF7DCFF0C20FCF741FE022896
:10A3200040F0E3800620FCF73BFE06F07704844211
:10A33000724D40F0A4802B78072B00F29580704A74
:10A3400001210020F9F7B4FA2B7801332B70042097
:10A35000FCF726FEA04240F0B2800121084600F042
:10A36000B5F9684A01210020F9F7A2FA0520FCF7A7
:10A3700017FEA04240F0A8800121634A0020F9F7AF
:10A3800097FA0121022000F0A1F90A20FCF708FE4B
:10A39000A04240F09B8001215C4A0020F9F788FA36
:10A3A0000121072000F092F90920FCF7F9FDA042F5
:10A3B00040F08E800121564A0020F9F779FA0121F8
:10A3C000062000F083F90320FCF7EAFDA04240F0EC
:10A3D000818001214F4A0020F9F76AFA012100200B
:10A3E00000F074F90720FCF7DBFDA04275D10121D4
:10A3F000494A0020F9F75CFA0121042000F066F9CF
:10A400000820FCF7CDFDA04269D10121434A00207C
:10A41000F9F74EFA0121052000F058F90220FCF767
:10A42000BFFD06F08806B0425BD101213C4A002006
:10A43000F9F73EFA0121082000F048F90120FCF765
:10A44000AFFDB0424FD10121364A0020F9F730FA72
:10A450000121BDE87040092000F038B9002B7FF4DD
:10A460005BAF254A137055E72F4A01210020F9F709
:10A470001FFA01222D4B1A70FFF72AFF67E7297890
:10A48000C9B1072915D8032988BF03234FF001015B
:10A490004FF0030088BF2B7000F018F9244A012107
:10A4A0000020F9F705FA2B78013B2B701F4B002297
:10A4B000E1E70023F9E7032000F008F9F6E70021BF
:10A4C000012000F003F951E700215BE7002168E774
:10A4D000002175E70021084682E700218DE7002171
:10A4E00099E70021A7E70021B3E7124A0121BDE85F
:10A4F00070400020F9F7DCB9673C08209082072003
:10A50000EC1A0D00031B0D000A1B0D00101B0D00A3
:10A51000181B0D001E1B0D00261B0D002D1B0D0012
:10A52000331B0D003C1B0D00F31A0D00663C082088
:10A53000FC1A0D00471B0D0008B50B20FCF730FD81
:10A54000032851D8DFE800F00228567908210120BD
:10A55000FCF72CFD40210420FCF728FD30210520CC
:10A56000FCF724FD20210A20FCF720FD1021092002
:10A57000FCF71CFD80210220FCF718FD04210320BC
:10A58000FCF714FD03210620FCF710FD0221072033
:10A59000FCF70CFD012124E008210120FCF706FD59
:10A5A00004210846FCF702FD03210520FCF7FEFC10
:10A5B00002210A20FCF7FAFC01210920FCF7F6FC35
:10A5C00080210220FCF7F2FC40210320FCF7EEFC86
:10A5D00030210620FCF7EAFC20210720FCF7E6FCEE
:10A5E00010210820FCF7E2FCBDE8084002210C2005
:10A5F000FCF7DCBC08210120FCF7D8FC042108464C
:10A60000FCF7D4FC03210A20FCF7D0FC0221052032
:10A61000FCF7CCFC01210920FCF7C8FC80210220BA
:10A62000FCF7C4FC40210320FCF7C0FC30210720CC
:10A63000FCF7BCFC20210620D0E708210120FCF714
:10A64000B5FC40210420FCF7B1FC30210A20FCF7C6
:10A65000ADFC20210520FCF7A9FC10210920FCF706
:10A66000A5FC80210220FCF7A1FC04210320FCF7BB
:10A670009DFC03210720FCF799FC0221062087E7B7
:10A68000037810B51A2B17D1407810F0FD0413D1C0
:10A690000C20FCF785FC012801460DD1074A204615
:10A6A000F9F706F9F9F798FD01460B20FCF77EFC57
:10A6B000BDE81040FFF740BF10BD00BF471B0D00B5
:10A6C00001491A20F8F798BF81A60C0008B5034687
:10A6D00009282FD8DFE800F0050B0F13171A1E21E9
:10A6E00024284FF400222D4B11B31A6308BD2C4BC4
:10A6F0004FF08072F8E7294B4FF48022F4E7274BA4
:10A700004FF48072F0E7254B8022EDE7234B4FF4A6
:10A710000052E9E7224B4022E6E7214B1022E3E713
:10A720001E4B4FF48062DFE71C4B4FF40062DBE707
:10A730005A63DBE71B4A01210020F9F7B9F84022F0
:10A74000174B5A6310225A634FF400025A634FF4B6
:10A7500080025A634FF080725A634FF40022C3F8AC
:10A7600034228022C3F834224FF40052C3F834223A
:10A770004FF48022C3F834224FF48072C3F834229D
:10A780004FF48062C3F834224FF08062C3F8342261
:10A790004FF40062C3F83422A8E700BF00100E4057
:10A7A000000E0E40641B0D00F0B5114D8DB001ACD4
:10A7B00006460F460FCD0FC40FCD0FC495E8070016
:10A7C000002384E8070001AA52F82300B7FBF0F049
:10A7D000B0FBF6F0B0F5807F06D901330B2BF3D137
:10A7E0004FF6FF700DB0F0BD40EA0320FAE700BF5E
:10A7F000781B0D0070B50C6806460D4644B1204626
:10A800008968FFF7D1FF4FF6FF73984204460CD0DA
:10A81000686840B1A968FFF7C7FF4FF6FF73984219
:10A8200005D044EA004434600024204670BD04464C
:10A83000FBE74A6830B58C8A02F00F0222430C898C
:10A840008D7D22438C7A0B6842EA4422CC7D42EA19
:10A85000054242EA44420C7E42EA844200EB431441
:10A86000C4F80022CA68C4F804220A69C4F80C2299
:10A870001DB1D1F81A20C4F81822CA7F02FA03F4D5
:10A880008A7F9A4042EA0442826491F8212002FAC7
:10A8900003F491F820209A4042EA044242640122E3
:10A8A00091F822409A4024B3046A1443046291F858
:10A8B0002440012C846E0CBF14439443846691F8A9
:10A8C00025401204012C846E0CBF224324EA0202AC
:10A8D000032B826691F823204FF0FF010DD8DB0097
:10A8E000C46E994024EA01019A400A43C2660020DE
:10A8F00030BD046A24EA0204D8E7043BDB00046F9D
:10A90000994024EA010102FA03F30B430367EEE7DF
:10A91000CB6893429FBF0B680A6100EB4310C0F8FD
:10A92000102294BF00204FF6FF7070470B699342CE
:10A9300021BF0B68CA6000EB4310C0F808222CBF8F
:10A9400000204FF6FF707047012303FA01F14160C8
:10A950007047012303FA01F181607047C0697047B5
:10A960000123103203FA02F203FA01F10A430261F1
:10A9700070470123103203FA02F203FA01F10A438D
:10A980004261704781F0004102E000BF83F0004364
:10A9900030B54FEA41044FEA430594EA050F08BF7A
:10A9A00090EA020F1FBF54EA000C55EA020C7FEA3E
:10A9B000645C7FEA655C00F0E2804FEA5454D4EBBB
:10A9C0005555B8BF6D420CDD2C4480EA020281EA85
:10A9D000030382EA000083EA010180EA020281EABD
:10A9E0000303362D88BF30BD11F0004F4FEA01310F
:10A9F0004FF4801C4CEA113102D0404261EB41011E
:10AA000013F0004F4FEA03334CEA133302D05242A3
:10AA100063EB430394EA050F00F0A780A4F101045F
:10AA2000D5F1200E0DDB02FA0EFC22FA05F2801899
:10AA300041F1000103FA0EF2801843FA05F359417F
:10AA40000EE0A5F120050EF1200E012A03FA0EFCFE
:10AA500028BF4CF0020C43FA05F3C01851EBE37128
:10AA600001F0004507D54FF0000EDCF1000C7EEB45
:10AA700000006EEB0101B1F5801F1BD3B1F5001F83
:10AA80000CD349085FEA30004FEA3C0C04F10104A2
:10AA90004FEA445212F5800F80F09A80BCF1004FCB
:10AAA00008BF5FEA500C50F1000041EB045141EA4D
:10AAB000050130BD5FEA4C0C404141EB010111F44E
:10AAC000801FA4F10104E9D191F0000F04BF0146F9
:10AAD0000020B1FA81F308BF2033A3F10B03B3F1D7
:10AAE00020020CDA0C3208DD02F1140CC2F10C0267
:10AAF00001FA0CF021FA02F10CE002F11402D8BFC5
:10AB0000C2F1200C01FA02F120FA0CFCDCBF41EA90
:10AB10000C019040E41AA2BF01EB0451294330BD5F
:10AB20006FEA04041F3C1CDA0C340EDC04F114043C
:10AB3000C4F1200220FA04F001FA02F340EA030013
:10AB400021FA04F345EA030130BDC4F10C04C4F159
:10AB5000200220FA02F001FA04F340EA0300294639
:10AB600030BD21FA04F0294630BD94F0000F83F483
:10AB7000801306BF81F480110134013D4EE77FEA66
:10AB8000645C18BF7FEA655C29D094EA050F08BFB2
:10AB900090EA020F05D054EA000C04BF1946104693
:10ABA00030BD91EA030F1EBF0021002030BD5FEAD7
:10ABB000545C05D14000494128BF41F0004130BDFF
:10ABC00014F580043CBF01F5801130BD01F0004553
:10ABD00045F0FE4141F470014FF0000030BD7FEAC6
:10ABE000645C1ABF194610467FEA655C1CBF0B46C1
:10ABF000024650EA013406BF52EA033591EA030FD8
:10AC000041F4002130BD00BF90F0000F04BF0021CF
:10AC1000704730B54FF4806404F132044FF0000502
:10AC20004FF0000150E700BF90F0000F04BF00217B
:10AC3000704730B54FF4806404F1320410F00045E1
:10AC400048BF40424FF000013EE700BF42004FEADC
:10AC5000E2014FEA31014FEA02701FBF12F07F4359
:10AC600093F07F4F81F06051704732F07F4208BF10
:10AC7000704793F07F4F04BF41F40021704730B517
:10AC80004FF4607401F0004521F000411CE700BF63
:10AC900050EA010208BF704730B54FF000050AE0E6
:10ACA00050EA010208BF704730B511F0004502D5E7
:10ACB000404261EB41014FF4806404F132045FEAE9
:10ACC000915C3FF4D8AE4FF003025FEADC0C18BF92
:10ACD00003325FEADC0C18BF033202EBDC02C2F184
:10ACE000200300FA03FC20FA02F001FA03FE40EA16
:10ACF0000E0021FA02F11444BDE600BF70B54FF01A
:10AD0000FF0C4CF4E06C1CEA11541DBF1CEA1355F7
:10AD100094EA0C0F95EA0C0F00F0DEF82C4481EA5F
:10AD2000030621EA4C5123EA4C5350EA013518BF7F
:10AD300052EA033541F4801143F4801338D0A0FB6C
:10AD400002CE4FF00005E1FB02E506F00042E0FB19
:10AD500003E54FF00006E1FB03569CF0000F18BF1F
:10AD60004EF0010EA4F1FF04B6F5007F64F54074C7
:10AD700004D25FEA4E0E6D4146EB060642EAC6215A
:10AD800041EA55514FEAC52040EA5E504FEACE2EC7
:10AD9000B4F1FD0C88BFBCF5E06F1ED8BEF1004FCA
:10ADA00008BF5FEA500E50F1000041EB045170BD46
:10ADB00006F0004646EA010140EA020081EA03018A
:10ADC000B4EB5C04C2BFD4EB0C0541EA045170BD86
:10ADD00041F480114FF0000E013C00F3AB8014F100
:10ADE000360FDEBF002001F0004170BDC4F1000449
:10ADF000203C35DA0C341BDC04F11404C4F12005CA
:10AE000000FA05F320FA04F001FA05F240EA020024
:10AE100001F0004221F0004110EBD37021FA04F65A
:10AE200042EB06015EEA430E08BF20EAD37070BD14
:10AE3000C4F10C04C4F1200500FA04F320FA05F073
:10AE400001FA04F240EA020001F0004110EBD37075
:10AE500041F100015EEA430E08BF20EAD37070BDE5
:10AE6000C4F1200500FA05F24EEA020E20FA04F3BE
:10AE700001FA05F243EA020321FA04F001F000416D
:10AE800021FA04F220EA020000EBD3705EEA430EDE
:10AE900008BF20EAD37070BD94F0000F0FD101F00D
:10AEA0000046400041EB010111F4801F08BF013C46
:10AEB000F7D041EA060195F0000F18BF704703F084
:10AEC0000046520043EB030313F4801F08BF013D0B
:10AED000F7D043EA0603704794EA0C0F0CEA1355C7
:10AEE00018BF95EA0C0F0CD050EA410618BF52EA81
:10AEF0004306D1D181EA030101F000414FF0000087
:10AF000070BD50EA410606BF1046194652EA430694
:10AF100019D094EA0C0F02D150EA013613D195EA08
:10AF20000C0F05D152EA03361CBF104619460AD150
:10AF300081EA030101F0004141F0FE4141F470015A
:10AF40004FF0000070BD41F0FE4141F4780170BD4A
:10AF500070B54FF0FF0C4CF4E06C1CEA11541DBFAF
:10AF60001CEA135594EA0C0F95EA0C0F00F0A7F8B1
:10AF7000A4EB050481EA030E52EA03354FEA0131DE
:10AF800000F088804FEA03334FF0805545EA1313F1
:10AF900043EA12634FEA022245EA111545EA1065B9
:10AFA0004FEA00260EF000419D4208BF964244F150
:10AFB000FD0404F5407402D25B084FEA3202B61A6F
:10AFC00065EB03055B084FEA32024FF480104FF443
:10AFD000002CB6EB020E75EB030E22BFB61A7546B7
:10AFE00040EA0C005B084FEA3202B6EB020E75EB4A
:10AFF000030E22BFB61A754640EA5C005B084FEAB2
:10B000003202B6EB020E75EB030E22BFB61A75467E
:10B0100040EA9C005B084FEA3202B6EB020E75EB89
:10B02000030E22BFB61A754640EADC0055EA060E4A
:10B0300018D04FEA051545EA16754FEA06164FEA8D
:10B04000C30343EA52734FEAC2025FEA1C1CC0D139
:10B0500011F4801F0BD141EA00014FF000004FF0C6
:10B06000004CB6E711F4801F04BF01430020B4F187
:10B07000FD0C88BFBCF5E06F3FF6AFAEB5EB030C3F
:10B0800004BFB6EB020C5FEA500C50F1000041EB3C
:10B09000045170BD0EF0004E4EEA113114EB5C0409
:10B0A000C2BFD4EB0C0541EA045170BD41F48011DC
:10B0B0004FF0000E013C90E645EA060E8DE60CEAE4
:10B0C000135594EA0C0F08BF95EA0C0F3FF43BAF01
:10B0D00094EA0C0F0AD150EA01347FF434AF95EAB8
:10B0E0000C0F7FF425AF104619462CE795EA0C0F9C
:10B0F00006D152EA03353FF4FDAE1046194622E769
:10B1000050EA410618BF52EA43067FF4C5AE50EA42
:10B1100041047FF40DAF52EA43057FF4EBAE12E732
:10B120004A0011D212F5001211D20DD56FF47873C6
:10B13000B3EB62520ED44FEAC12343F0004343EA1B
:10B14000505323FA02F070474FF00000704750EA66
:10B15000013002D14FF0FF3070474FF000007047D0
:10B1600053B94AB9002908BF00281CBF4FF0FF316E
:10B170004FF0FF3000F074B9ADF1080C6DE904CE6A
:10B1800000F006F8DDF804E0DDE9022304B07047C2
:10B190002DE9F0478C460446089E002B4BD18A428D
:10B1A000154667D9B2FA82F24AB1C2F1200701FA14
:10B1B00002F320FA07F7954047EA030C94404FEA60
:10B1C000154EBCFBFEF71FFA85F80EFB17C307FBF5
:10B1D00008F9210C41EA0343994509D9EB1807F115
:10B1E000FF3180F01C81994540F21981023F2B44C8
:10B1F000A3EB0903B3FBFEF00EFB103300FB08F1D9
:10B20000A4B244EA0344A14209D92C1900F1FF3346
:10B2100080F00781A14240F2048102382C4440EAC8
:10B2200007400027641A1EB10023D440C6E900433A
:10B230003946BDE8F0878B4209D9002E00F0EC803A
:10B240000027C6E9000138463946BDE8F087B3FA61
:10B2500083F7002F48D18B4202D3824200F2FB8059
:10B26000841A61EB030301209C46002EE0D0C6E95E
:10B27000004CDDE702B9FFDEB2FA82F2002A40F0AC
:10B280008F800127491B4FEA15481FFA85F9B1FB4A
:10B29000F8FE08FB1E1109FB0EF04FEA144C4CEAB5
:10B2A0000143984207D9EB180EF1FF3102D29842C0
:10B2B00000F2CD808E461B1AB3FBF8F008FB10336A
:10B2C00009FB00F9A4B244EA0344A14507D92C19AB
:10B2D00000F1FF3302D2A14500F2B6801846A4EB7C
:10B2E000090440EA0E409EE7C7F12005BB4022FA60
:10B2F00005FC4CEA030C21FA05F44FEA1C4EB4FBA2
:10B30000FEF91FFA8CF80EFB194420FA05F3B94038
:10B3100009FB08FA19430B0C43EA0444A24502FA5C
:10B3200007F200FA07F30BD91CEB040409F1FF3014
:10B3300080F08880A24540F28580A9F1020964442A
:10B34000A4EB0A04B4FBFEF00EFB104400FB08FA69
:10B3500089B241EA0444A24508D91CEB040400F177
:10B36000FF316BD2A24569D90238644440EA0940F2
:10B37000A0FB0289A4EB0A044C454146CE4654D3B7
:10B3800051D0002E69D05A1A64EB0E0404FA05F568
:10B3900022FA07F3FC401D43C6E90054002747E7A3
:10B3A0009540C2F1200321FA03F04FEA1548B0FBA3
:10B3B000F8F71FFA85F908FB170024FA03F3914008
:10B3C00007FB09FC0B43190C41EA00418C4504FAC8
:10B3D00002F407D9691807F1FF3031D28C452FD913
:10B3E000023F2944A1EB0C01B1FBF8F008FB101C53
:10B3F00000FB09FE99B241EA0C418E4507D9691854
:10B4000000F1FF3318D28E4516D902382944A1EB3A
:10B410000E0140EA07473AE73746304608E70F464D
:10B42000E6E61846FBE64345ABD2B8EB020169EB12
:10B430000C0201389646A4E71846E8E7084695E767
:10B440000746CFE781467BE702382C4447E7AEF159
:10B45000020E2B442FE7384607E73746E8E600BFE1
:10B46000704700BF0028B8BF40427047024B0A46F1
:10B470000146186800F002B89482072010B502FB5C
:10B4800001F100F055F80446E8B150F8042C22F020
:10B490000302043A242A1FD8132A16D900231B2A90
:10B4A000C0E900331DD9242AC0E9023308BFC0E92E
:10B4B00004334FF0000314BF00F1100200F1180232
:10B4C000C2E900339360204610BD024600232046A7
:10B4D000C2E90033936010BD002100F031FB20462B
:10B4E00010BD00F10802F1E770B50D4E0D4D761B51
:10B4F000B61006D00024013455F8043B9847A64204
:10B50000F9D1094E094D06F093FC761BB61006D012
:10B510000024013455F8043B9847A642F9D170BD88
:10B520003C1E0D003C1E0D00441E0D003C1E0D0077
:10B530002DE9F04F01F10B05162D83B0064623D8F7
:10B54000102900F2B68000F045FB102518230220D8
:10B55000CC4F3B445C68A3F10802944200F0568152
:10B560006368E16823F0030323445A68A56842F046
:10B570000102E96030468D605A6000F031FB08340A
:10B58000204603B0BDE8F08F35F0070500F191804B
:10B59000A94200F28E8000F01DFBB5F5FC7FC0F0E3
:10B5A00064816B0A00F08C80042B00F23681AB09B9
:10B5B00003F1390003F1380CC100B24F39444C6833
:10B5C0000839A14206D10CE0002A80F21B81E46810
:10B5D000A14206D0636823F003035A1B0F2AF3DD50
:10B5E00060463C69DFF8B0C264456FD0636823F001
:10B5F00003035A1B0F2A00F32681002AC7E904CC53
:10B6000080F21781B3F5007F80F059810122DB08B9
:10B61000991013448A40796857F833E007EBC30860
:10B620000A43A8F10801C4E902E17A6047F833400F
:10B63000CEF80C40012483109C4094424CD8144214
:10B6400006D120F003006400144200F10400FAD097
:10B6500007EBC009CE468046DEF80C309E4507D188
:10B6600007E1002A80F21C81DB689E4500F0018121
:10B67000596821F003014A1B0F2AF2DD45F0010849
:10B680003046D3E902E41D4442F00106C3F80480C9
:10B69000CEF80C40C4F808E0C7E90455C5E902CC6F
:10B6A0006E605A50019300F09BFA019B03F108046D
:10B6B00066E700240C232046336003B0BDE8F08F1A
:10B6C0004FF4007140204FF03F0C76E701247A6878
:10B6D00083109C409442B2D9BC68636823F003098C
:10B6E000A94503D3A9EB05030F2B7BDC664BDFF8E1
:10B6F000ACA11A68DAF8003005EB0208013300F05B
:10B700003A8108F5805808F10F0828F47F6828F07E
:10B710000F084146304600F069FAB0F1FF3F83461A
:10B7200000F0F68004EB0900584500F2EF80574A1C
:10B7300013684344136000F03F81DAF800100131D0
:10B740001BBFABEB00001B18CAF800B013601BF066
:10B75000070300F02681C3F10801C3F580538B4431
:10B760000833D844C8F30B08A3EB08084146304619
:10B77000019200F03BFA431C019A00F03881A0EBE3
:10B780000B01414441F001011368BC424344C7F836
:10B7900008B01360CBF8041015D0B9F10F0F40F2C8
:10B7A00022814FF0050E6168A9F10C0020F007001E
:10B7B00001F00101014304EB000C0F286160CCE9AA
:10B7C00001EE00F22C81324A32481168BC688B428B
:10B7D000016888BF136062688B4222F0030288BF51
:10B7E000036099E045F0010243F0010325446260E3
:10B7F0003046BD6008346B6000F0F2F9204603B0BB
:10B80000BDE8F08F23445A68E168AFE6DC68A342E4
:10B8100008BF02303FF4E5AEA2E6142B70D9542BDA
:10B8200000F2AC802B0B03F16F0003F16E0CC10032
:10B83000C3E623445A68304642F001025A60083495
:10B8400000F0CEF99CE645F0010E42F001012544DE
:10B85000C4F804E03046C7E90455C5E902CC696084
:10B86000E25000F0BDF908348AE6E80805F1080363
:10B870006EE608F1010818F0030F0EF1080E7FF4D0
:10B88000EBAE60E0C0860720983C0820683C0820AA
:10B89000903C0820943C0820C8860720C88A0720CE
:10B8A0001C4619444A68DB6854F8085F42F00102FC
:10B8B0004A603046EB609D6000F092F960E65A0AFB
:10B8C000042A35D9142A6FD802F15C01C9005B3211
:10B8D00007EB010E7958AEF1080E8E4558D04A6834
:10B8E00022F003029A4202D989688E45F7D1D1F835
:10B8F0000CE07A68C4E9021ECEF80840CC6099E6F4
:10B9000003F15C0003F15B0CC10056E6BC4272D04F
:10B91000BC68626822F003029542A2EB050302D8DC
:10B920000F2B3FF75FAF304600F05AF9002427E6AF
:10B930009A0902F13901C9003832C9E7D9F80090F3
:10B94000994540F0838010F0030FA9F1080300F13E
:10B95000FF30F3D17B6823EA04037B6064009C42E0
:10B960003FF6BAAE1CB9B7E6640008F104081C4201
:10B97000FAD040466CE608F11008CAE6B3F5AA7F93
:10B9800026D8EB0B03F1780003F1770CC10014E625
:10B990004FF001087B68921008FA02F21A437A60AD
:10B9A000A8E74FF48053DCE6542A29D81A0B02F199
:10B9B0006F01C9006E328BE7C0F30B0100297FF4E1
:10B9C000BCAE09EB0802B96842F001024A60FAE62F
:10B9D00040F2545293421CD8AB0C03F17D0003F1AA
:10B9E0007C0CC100E9E50123CBF804309BE7012181
:10B9F0004FF00008C8E6164A1368434413609CE6FB
:10BA0000B2F5AA7F14D8DA0B02F17801C9007732B7
:10BA10005EE74FF47E717F204FF07E0CCDE504F1A0
:10BA200008013046019202F09DFD019A1368CAE6B2
:10BA300040F254518A4205D89A0C02F17D01C900A6
:10BA40007C3245E74FF47E717E2241E77B6885E7D3
:10BA5000683C0820844641EA000313F0030349D1FF
:10BA6000403A23D30B6803604B6843608B68836064
:10BA7000CB68C3600B6903614B6943618B69836168
:10BA8000CB69C3610B6A03624B6A43628B6A836250
:10BA9000CB6AC3620B6B03634B6B43638B6B836338
:10BAA000CB6BC36340304031403ADBD230320BD3F2
:10BAB0000B6803604B6843608B688360CB68C3602E
:10BAC00010301031103AF3D20C3205D351F8043B48
:10BAD00040F8043B043AF9D2043208D0D2071CBF24
:10BAE00011F8013B00F8013B01D30B88038060464D
:10BAF000704700BF082A13D38B07B1D010F003039F
:10BB0000AED0C3F10403D21ADB071CBF11F8013B0E
:10BB100000F8013BA4D331F8023B20F8023B9FE739
:10BB2000043AD9D3013A11F8013B00F8013BF9D2AC
:10BB30000B7803704B7843708B7883706046704746
:10BB4000F0B4860743D0541E002A3ED0CAB2034642
:10BB500002E014F1FF3438D303F8012B9D07F8D12C
:10BB6000032C2BD9CDB245EA05250F2C45EA054516
:10BB700016D9A4F110073F0903F1200606EB0716BA
:10BB800003F1100242E9045542E902551032B24273
:10BB9000F8D104F00F040137032C03EB07130DD980
:10BBA0001E462246043A032A46F8045BFAD8221FAE
:10BBB00022F003020432134404F003042CB1C9B28E
:10BBC0001C4403F8011B9C42FBD1F0BC7047144697
:10BBD0000346C5E7014802F0D9BD00BFAC3C0820D0
:10BBE000014802F0D5BD00BFAC3C082038B50023A9
:10BBF000064C054608462360F4F78AFB431C00D038
:10BC000038BD2368002BFBD02B6038BDC03C08201A
:10BC10000EB4034630B56FF000449CB01FA951F834
:10BC2000042B0A480A4D0293069301910B460068C3
:10BC300002A90794CDE9044500F0B4F90022029B63
:10BC40001A701CB0BDE8304003B0704794820720E2
:10BC50000802FFFFF8B507460E4617F8014B02F041
:10BC600079FD2044437816F8015B03F00303012BB0
:10BC700008BF203402F06EFD2844437803F003032C
:10BC8000012B04D0601B01D1002DE6D1F8BD05F1D8
:10BC90002000201AE1D0F8BD830710B5044610D16A
:10BCA0000268A2F1013323EA020313F0803F08D1B6
:10BCB00050F8042FA2F1013323EA020313F0803F6E
:10BCC000F6D003781BB110F8013F002BFBD100F038
:10BCD00003F8204610BD00BF80EA0102844612F03E
:10BCE000030F4FD111F0030F32D14DF8044D11F075
:10BCF000040F51F8043B0BD0A3F101329A4312F028
:10BD0000803F04BF4CF8043B51F8043B16D100BF00
:10BD100051F8044BA3F101329A4312F0803FA4F191
:10BD200001320BD14CF8043BA24312F0803F04BF18
:10BD300051F8043B4CF8044BEAD023460CF8013B85
:10BD400013F0FF0F4FEA3323F8D15DF8044B70472F
:10BD500011F0010F06D011F8012B0CF8012B002A6D
:10BD600008BF704711F0020FBFD031F8022B12F05C
:10BD7000FF0F16BF2CF8022B8CF8002012F47F4F17
:10BD8000B3D1704711F8012B0CF8012B002AF9D11F
:10BD9000704700BF20F0030110F00300C0F1000065
:10BDA00051F8043B00F1040C4FEACC0C6FF0000298
:10BDB0001CBF22FA0CF213434FF0010C4CEA0C2C7E
:10BDC0004CEA0C4CA3EB0C0222EA030212EACC125E
:10BDD00004BF51F8043B0430F4D0C2F1000102EA80
:10BDE0000102B2FA82F2C2F11F0200EBD2007047E8
:10BDF00040EA01039B0770B42AD1032A28D90C46D4
:10BE00000346214654F8046BA6F1013525EA0605E0
:10BE100015F0803F06D1043A032A43F8046B21460B
:10BE2000EFD89AB10C78013A1C7001333CB16AB179
:10BE300011F8014F013A03F8014B002CF7D12AB158
:10BE400000211A4403F8011B9342FBD170BC7047D8
:10BE50000346E6E72DE9F84F0E4680461746994619
:10BE60000D4600E025462C460A9814F801BB02F066
:10BE70006DFC5844417811F00801F3D1BBF12D0F4E
:10BE800057D0BBF12B0F04BF95F801B0AC1CB9F132
:10BE9000000F04D0B9F1100F50D0CC4605E0BBF133
:10BEA000300F55D04FF00A09CC4600290CBF6FF077
:10BEB000004E4FF0004E0025BEFBFCF328460CFB65
:10BEC00013EA05E029D001250CFB002014F801BB82
:10BED000ABF13002092A05D9ABF14102192A0BD87E
:10BEE000ABF1370291450FDDB5F1FF3FEED0834254
:10BEF000E8D24FF0FF35E9E7ABF16102192A03D828
:10BF0000ABF157029145EFDC6B1C0BD001B1404205
:10BF10000FB14DBB3E60BDE8F88F9245D3DA4FF0CC
:10BF2000FF35D3E72223C8F80030FFB17046661E04
:10BF3000F0E7AC1C95F801B00121A8E7BBF1300F88
:10BF4000ABD1237803F0DF03582B06D0CC46ACE707
:10BF5000237803F0DF03582B0AD14FF0100C94F82C
:10BF600001B0E1460234A0E78646DFE77046D2E73B
:10BF70004FF00809CC4698E7084B70B51D68084E8D
:10BF80006C6B82B0002C08BF3446134600940A46FE
:10BF900001462846FFF75EFF02B070BD948207207D
:10BFA000D48A07202DE9F04FC3B00C460C9190467F
:10BFB0000F930D9002F0DCFB036818461A93FFF70D
:10BFC000E9FEA38919901D0603D52369002B00F013
:10BFD000388700230DF1C80AD146C346CDE9163390
:10BFE000CDE9263315931393149318931B930A9357
:10BFF000CDF894A09BF80030002B00F09780252B03
:10C000005C4602D11AE0252B03D014F8013F002B27
:10C01000F9D1A4EB0B0575B1DDE9263201332A44D1
:10C02000072BC9E900B5CDE9263277DC09F108090B
:10C030000A9B2B440A932378002B77D000234FF0E0
:10C04000FF301A468DF8773019460B93984663787F
:10C0500004F1010B09901F460BF1010BA7F120031E
:10C06000582B00F27683DFE813F0D30274037403D5
:10C07000CE02740374037403740374037403C10263
:10C08000BC02740368034E0374036D03B600B6006C
:10C09000B600B600B600B600B600B600B60074032F
:10C0A00074037403740374037403740374037403D8
:10C0B00074033603F7027403F70274037403740302
:10C0C0007403F20274037403A5007403740374030D
:10C0D000740374037500740374039A027403740385
:10C0E0007403740374037403740374037403740398
:10C0F0007A012C01F702F702F70227012C017403E1
:10C1000074031A0174030301A700CA00C500740375
:10C11000DA007403770074037403DB0225AADDE9F7
:10C120000C1003F0BFF840B9D14681E7279B23B13B
:10C130000D9825AA0C9903F0B5F80C9B9B8913F078
:10C14000400F0A9B18BF4FF0FF330A930A9843B081
:10C15000BDE8F08F48F0100818F0200F00F04A8575
:10C160000F9C073424F0070303F10802D3E90045CC
:10C1700001230F920026099A8DF87760013200F0B2
:10C180000B8428F08002079254EA050240F0BD803B
:10C19000099A002A40F0CE86002B40F0EF8418F078
:10C1A00001030E9300F06285302342AA02F8413D5C
:10C1B0001192CBE048F0100818F0200300F00F8532
:10C1C0000F9C073424F0070303F10802D3E900456C
:10C1D0000F920023CEE70020A7F130031BF8017B6C
:10C1E00000EB800003EB4000A7F13003092BF5D9E9
:10C1F0000B9033E748F020089BF800302BE747F618
:10C2000030030F9AADF87830131D0F93A04B1468CC
:10C21000189348F00208002502237827AAE7002592
:10C220000F9A8DF877501368141D1193002B00F0AE
:10C230003286099A531C00F0DA862946119802F0DA
:10C24000BFFA002800F0D087119B0995C31ACDE9E9
:10C250000E34CDF81C8023EAE3739DF877600893D1
:10C260001295002E00F08E80089B0133089389E020
:10C27000002A41F0F1800F9A18F0200F52F8043B89
:10C280000F9240F02C8518F0100F40F0298618F01E
:10C29000400F00F02586BDF828201A80AAE69BF8FA
:10C2A00000306C2B03BF9BF8013048F020080BF1E5
:10C2B000010B48F01008CEE648F040089BF800302B
:10C2C000C9E6002A41F0C48018F0200F00F00C826B
:10C2D0000F9C073424F0070303F108020F92D3E9FF
:10C2E0000045002C75F10003C0F2CC84099B9DF839
:10C2F0007760013300F0D08428F08002079254EA7E
:10C3000005024FF001033FF443AF012B00F04983D6
:10C31000022B00F0A083514600E01146E20842EAF9
:10C320004572E80804F0070305461446303354EA22
:10C33000050001F8013C01F1FF32EED1079811929E
:10C34000C00700F17684AAEB02030E93099B0E9AB4
:10C350009342B8BF134608930023129381E700234A
:10C3600001210F981E4602688DF8773009931293C9
:10C37000031D0F9328AB0891CDF81C800E918DF80A
:10C38000A0201193079B13F00203109302D0089B87
:10C3900002330893079B279C13F084083FD10B9B23
:10C3A000089A9D1A002D3ADD102D269B29DD4A465C
:10C3B0002146A946DDE90C54102606E0A9F1100932
:10C3C000B9F1100F02F1080218DD013331481031C4
:10C3D000072BCDE92631C2E90006EFDD25AA294663
:10C3E000204602F05FFF00287FF4A7AEDDE926318A
:10C3F000A9F11009B9F1100F5246E6DC4D460C4682
:10C4000091460133234A2C44072BCDE92634C9E950
:10C41000002500F369859DF8776009F1080976B178
:10C420000121269B0C440B440DF17702072BCDE92B
:10C430002634C9E9002100F3F88209F10809109BAC
:10C440006BB10221269B0C4401331EAA072BCDE9B8
:10C450002634C9E9002100F3F38209F10809B8F193
:10C46000800F00F0E681099B0E9A9D1A002D40DD99
:10C47000102D269A40F39385DFF81C804B464046EA
:10C480002146DDE90C94B846102607460BE000BFB4
:10C49000CC1B0D00EC1B0D00FC1B0D00103D102DE6
:10C4A00003F1080315DD01321031072ACDE92621F9
:10C4B000C3E90076F2DD25AA4946204602F0F2FEE5
:10C4C00000287FF43AAEDDE92621103D102D5346B9
:10C4D000E9DC99463B460C464746984601322C44D7
:10C4E000072ACDE92624C9E9008500F3CB8209F1AA
:10C4F0000809079BDE0500F14281269B0E9A013355
:10C5000011991444072B2794C9E90012269300F3CC
:10C51000818209F10809079B5B0731D50B9B089ABB
:10C520009D1A002D2CDD102D269B1FDDDDE90C87CB
:10C53000102604E0103D102D09F1080916DD013325
:10C54000C64A1034072BCDE92634C9E90026F1DDAF
:10C5500025AA4146384602F0A5FE00287FF4EDAD3D
:10C56000DDE92634103D102DD146E8DC0133BB4A0D
:10C570002C44072BCDE92634C9E9002500F36C8350
:10C58000DDE90A3208998A42ACBF9B185B180A930E
:10C59000002C40F09F810023D14626932AE5002AF3
:10C5A00040F06A87AE4B18F0200F189340D00F9CD4
:10C5B000073424F0070303F108020F92D3E9004582
:10C5C00018F0010F00F0C38054EA050300F0BF80AB
:10C5D00030238DF879708DF8783048F00208022306
:10C5E000C8E59BF8003001222B2134E50F9B1C6825
:10C5F000181D002C0B949BF800300F90BFF62BAD4C
:10C6000060420B909BE048F001089BF8003022E567
:10C610009BF8003000297FF41EAD012220211AE58D
:10C62000002A40F021878F4B18F0200F1893BED1BD
:10C630000F9B18F0100F53F8044B0F9340F01A8320
:10C6400018F0400F00F01683A4B20025B8E748F0B8
:10C6500008089BF80030FEE4002A40F0ED860F9CAD
:10C66000073424F00706D6E9002323F0004415928E
:10C67000154610461493083621464FF0FF327A4B88
:10C680000F9602F07DFF002840F0408328462146A7
:10C690004FF0FF32744B02F055FF002840F0368314
:10C6A000DDE91502179B149902F042FF002840F0C3
:10C6B0002F859DF8776003210020CDE908106B4A93
:10C6C0006B4B472FD8BF1A4628F0800407940E9171
:10C6D00012901192C5E5002A40F0C28648F0100879
:10C6E00018F0200F7FF4F4AD0F9B18F0100F53F8E3
:10C6F000044B0F9340F0C08218F0400F00F0BC8252
:10C7000024B2E517EDE59BF800700BF101002A2F2C
:10C7100000F07D86A7F13003092B834600F2608587
:10C7200000201BF8017B00EB800003EB4000A7F129
:10C730003003092BF5D9099090E49BF8003048F0BC
:10C74000040888E448F080089BF8003083E4022362
:10C7500010E5002A40F08C86002F3FF4E7AC002360
:10C7600001221E468DF877300993129328AB089268
:10C770008DF8A070CDF81C800E92119302E6652F03
:10C7800040F3B180DDE91502179B149902F0C6FE53
:10C79000002800F082810121269B364A0B440C447C
:10C7A000072B27942693C9E9002100F3EE8309F1B2
:10C7B00008091F9B139A279C934280F24882269B6C
:10C7C000199A01331A991444072BC9E90012CDE9CB
:10C7D000263400F3558309F10809139B5D1E002DD3
:10C7E0007FF799AE102D269A40F39F85DFF8888059
:10C7F0002346102644460D9FDDF8308005E009F100
:10C800000809103D102D40F3998301321033072A97
:10C81000CDE92623C9E90046F1DD25AA414638467F
:10C8200002F040FD00287FF488ACDDE92623D146E4
:10C83000E7E70B9B089A9D1A002D7FF714AE102D89
:10C84000269A40F3B384DFF830804B4640462146B9
:10C85000DDE90C94B8461026074614E0EC1B0D00E9
:10C86000B81B0D00CC1B0D00FFFFEF7FAC1B0D00B4
:10C87000A81B0D00E81B0D00FC1B0D00103D102D2A
:10C8800003F1080315DD01321031072ACDE9262115
:10C89000C3E90076F2DD25AA4946204602F002FDF2
:10C8A00000287FF44AACDDE92621103D102D5346C7
:10C8B000E9DC99463B460C464746984601322C44F3
:10C8C000072ACDE92624C9E9008500F3438309F14D
:10C8D0000809C8E525AADDE90C1002F0E3FC0028F0
:10C8E0003FF459AE29E4139A269B012A04F101046E
:10C8F00003F1010509F1080640F387810123119A2C
:10C90000072DC9F80020CDE92654C9F8043000F3FA
:10C91000F982199B01351A9A1C44072DCDE926543A
:10C92000C6E9002300F3FA8208366F1C0E970997B8
:10C93000139FDDE91502179B1499013F06F10809C1
:10C9400002F0ECFD002840F01F813C44119B776011
:10C95000099F0133072F33602794269700F38082C5
:10C9600006F110034E469946AA1C09921B9A21AB68
:10C9700014447260099A2794072A269233607FF73D
:10C98000CAADDDE90C1025AA02F08CFC00287FF46A
:10C99000D4ABD146279CBEE5012BCDF81C807FF49B
:10C9A000B7AC002D08BF0A2C80F07D8142AB30343B
:10C9B00003F8414D119301230E93C7E425AADDE945
:10C9C0000C1002F06FFC00287FF4B7ABD1461F9B20
:10C9D000279C1BB9139A002A00F01483269A1999F0
:10C9E00001321A980C44072A2794C9E900012692BB
:10C9F00000F3068409F10809002BC0F23F84139B61
:10CA0000013211991C44072ACDE92624C9E90013F3
:10CA10007FF77FADDDE90C1025AA02F043FC00286A
:10CA20007FF48BAB279CD14675E525AADDE90C1078
:10CA300002F038FC00287FF480ABD146279CFEE44E
:10CA400025AADDE90C1002F02DFC00287FF475AB5F
:10CA5000D146279C03E55246DDF860C0230943EA2E
:10CA60000573280904F00F0105461C461CF8013027
:10CA700002F8013D54EA0503F0D1AAEB020311923A
:10CA80000E9363E425AADDE90C1002F00BFC0028EC
:10CA90007FF453ABD146279C2BE51F9B002B40F323
:10CAA0006582DDE912329342A8BF1346002B1D4672
:10CAB0000CDD269B119A01332C44072B2794C9E9DE
:10CAC0000025269300F32A8309F10809129B002D03
:10CAD000A8BF5B1B002B1D4600F38C811F9B139A84
:10CAE0009342C0F2EE81079AD10700F1EA81139ACE
:10CAF0001298D31A151A9D42A8BF1D46002D0FDDAE
:10CB0000269A1199013201442C44072AC9F80010D1
:10CB10002794C9F80450269200F3348309F10809D8
:10CB2000002DB4BF1D465D1B002D7FF7F4AC102D0A
:10CB3000269A40F3FA83DFF870862346102644468F
:10CB40000D9FDDF8308005E009F10809103D102D3A
:10CB500040F3F48101321033072ACDE92623C9E9D5
:10CB60000046F1DD25AA4146384602F09BFB00282D
:10CB70007FF4E3AADDE92623D146E7E7099BCDF858
:10CB800044A00E93FFF7E2BB002F7FF7EFAE102F0C
:10CB900040F31A84DFF8108633462246DDE90D455E
:10CBA00046464FF01009DDF8308005E00833103FAD
:10CBB000102F40F3F88101351032072DCDE92652B0
:10CBC000C3E90069F2DD25AA4146204602F06AFB6E
:10CBD00000287FF4B2AADDE926525346E7E70F9A10
:10CBE00052F8044B0F9218F0100200F087800025D5
:10CBF000FFF7C0BA0F9B18F0100F53F8044B0F93B8
:10CC000074D000250123FFF7B5BA079AD2073FF584
:10CC100075AE01221199072DC9F80010CDE92654EF
:10CC2000C9F8042000F39D820233099309F1100929
:10CC30009CE6302B00F03F813023119A023902F834
:10CC4000013CAAEB01030E931191FFF77FBB079BF9
:10CC5000DD073FF5B4AD5EE425AADDE90C1002F076
:10CC600021FB00287FF469AA279C89E4CDF844A021
:10CC7000FFF76CBB0025A3E4E517002C75F100035A
:10CC8000BFF634AB2D26099B644265EB45050133A5
:10CC90008DF877607FF430AB002D08BF0A2CCDF8FB
:10CCA0001C80FFF483AED046204629460A2200238A
:10CCB000FEF756FA303208F8012D204629460023A7
:10CCC0000A22FEF74DFA04460D4654EA0503EBD15D
:10CCD000AAEB0803CDF844800E93FFF737BB0A9AFE
:10CCE0001046D117C3E90001FFF784B918F0400FCF
:10CCF00018BFA4B200250123FFF73CBA18F0400387
:10CD00001CBF1346A4B20025FFF734BA159C224677
:10CD10002046149C2346214602F032FC002840F0B5
:10CD20002E83099A27F02003541C089300F04282B6
:10CD3000472B00F06C8148F480730793DDE91436CB
:10CD40001D1EB6BF03F1004500232D23662F10934F
:10CD500000F03382462F00F07482089B3246452B48
:10CD60004FF002002B4600F05881099C23A9CDE921
:10CD70000004049120A81FA9CDE902100D9800F02D
:10CD80006FFC672F119040F0548318F0010F00F0F2
:10CD90006981119B099A9C18169A3046179B29465F
:10CDA00002F0BCFB002800F0D0812346119A9B1AA8
:10CDB00013931F9B1293089B472B00F05C81662FF7
:10CDC00040F06081129B002B099B40F3F582002B01
:10CDD00040F0E88218F0010F40F0E482129B0893C3
:10CDE0000E93109B002B40F07A8109939DF8776099
:10CDF000FFF737BA102B269A40F3EA82DFF8A883B0
:10CE00002346102644460D9FDDF8308005E009F1E9
:10CE10000809103D102D40F3DC8001321033072A41
:10CE2000CDE92623C9E90046F1DD25AA4146384669
:10CE300002F038FA00287FF480A9DDE92623D146E4
:10CE4000E7E740210D98FEF773FB0C9B1860186113
:10CE5000002800F0F58240230C9A5361FFF7B9B81F
:10CE600025AADDE90C1002F01DFA00287FF465A95F
:10CE7000DDE92634013309930DF1D009564675E5F5
:10CE800025AADDE90C1002F00DFA00287FF455A95F
:10CE9000D146279CA1E4099B119E062B28BF06239F
:10CEA00008930E93BE4B09960F94CDF81C801296F2
:10CEB0001193FFF7D6B9119BAAEB03030E93FFF76B
:10CEC00045BA269A199901321A980C44072A2794D0
:10CED000C9E90001269200F32C8109F1080906E650
:10CEE0000A9A1A60FFF786B825AADDE90C1002F04D
:10CEF000D9F900287FF421A9D1469DF87760279CB5
:10CF0000FFF78DBA25AADDE90C1002F0CBF9002855
:10CF10007FF413A9DDE926545646FAE425AADDE993
:10CF20000C1002F0BFF900287FF407A9DDE92654B0
:10CF30005646FAE4012B7FF4EBA937E5A0461C46E0
:10CF400001322C44072ACDE92624C9E900857FF760
:10CF5000E0AA5FE525AADDE90C1002F0A3F900289C
:10CF60007FF4EBA8D146279CFFF77DBA0120269AD3
:10CF70008C4902440444072ACDE92624C9E900105B
:10CF80003FF71CAD09F1080923E525AADDE90C10DE
:10CF900002F088F900287FF4D0A8D14609E4DFF830
:10CFA0000882FFF79BBAB0461E466B1C14460993D5
:10CFB00006F10802099B3C44072B2794C6E9008729
:10CFC00026933FF74DAF0133099302F10809164646
:10CFD000CCE4A0461C4601322C44072ACDE9262485
:10CFE000C9E9008500F33F8109F1080976E5119848
:10CFF0000995FEF7CFFECDF81C80CDE90E0403465F
:10D00000FFF729B9079AD0077FF585AAE6E4002A39
:10D01000134608BF012309938DE6099900904C1C23
:10D0200023A920A804911FA9CDE9021001940D980D
:10D030000E9400F015FB1190472F40F0E38118F09B
:10D04000010F00F0D881119B0E9A462F03EB0204CA
:10D050007FF4A2AE119B1B78302B00F069811F9BDF
:10D060001C4499E61F9A239B1292119A9B1A1393C0
:10D07000089B472B06D1129BDA1C02DB099A9A42C5
:10D0800034DA023F129B8DF88470013B002BB4BF51
:10D090002D222B221F93B8BF129B8DF88520B8BF7D
:10D0A000C3F10103092B00F30D81302213448DF8E5
:10D0B00087308DF8862022AB21AA9B1A139A1B93E6
:10D0C000012A13440E9340F350810E9B199A134486
:10D0D0000E9323EAE37308930023129381E62D262F
:10D0E00000238DF877600993FFF7BEB8DDE91231B0
:10D0F0008B42C0F2938018F0010F00F01081129B58
:10D10000199A672713440E9323EAE373089368E69A
:10D110002D231E468DF87730FFF7CDBA25AADDE91D
:10D120000C1002F0BFF800287FF407A8D146279C16
:10D13000CCE425AADDE90C1002F0B4F800287EF456
:10D14000FCAFD1461F9B279CD1E4239BA342BFF495
:10D150002DAE30215A1C23921970239B9C42F9D882
:10D1600024E625AADDE90C1002F09CF800287EF4E4
:10D17000E4AFDDE926340133564609930DF1D009B9
:10D18000FFF7F4BB25AADDE90C1002F08BF80028AC
:10D190007EF4D3AF1F9B139AD146279CD31ABFE4CA
:10D1A000E01B0D00E81B0D00FC1B0D00DFF8DC820E
:10D1B000FFF784BB06230993BDE50320099C23A93F
:10D1C000CDE90004049120A81FA9CDE90210324640
:10D1D0002B460D9800F044FA0E941190041939E78B
:10D1E00000230993FEF73ABF099B0F9408930E930F
:10D1F0000990CDF81C8012909DF87760FFF731B848
:10D2000025AADDE90C1002F04DF800287EF495AF58
:10D21000DDE92624D1461F9BFFF7EEBB199A139B2D
:10D220001344129A0E93002A06DC129B0E9AC3F145
:10D2300001031A4413460E9223EAE3730893672707
:10D24000CFE50320099C23A9CDE90004049120A87F
:10D250001FA9CDE9021032462B460D9800F000FAC6
:10D260000E941190EFE625AADDE90C1002F01AF8F1
:10D2700000287EF462AFD146279C2FE45D42103334
:10D2800080F2D180DFF80482234610260D9F4446A9
:10D2900004E009F10809103D102D58DD013210336A
:10D2A000072ACDE92623C9E90046F2DD25AA0C9913
:10D2B000384601F0F7FF00287EF43FAFDDE9262372
:10D2C000D146E8E70DF1930001466D4C00E01146B0
:10D2D000A4FB0325ED0805EB8502A3EB42023032E7
:10D2E000092D01F8012C2B4601F1FF32EFDC303320
:10D2F0000239DCB2884202F8014C40F297800DF10D
:10D300008601134601E013F8014B984201F8014BE6
:10D31000F9D125AB9B1A0DF186021344CCE623EA22
:10D32000E37208920E9367275BE5DFF8608107E6FA
:10D33000169A3046179B294602F0F0F800287FF431
:10D340008EAE0E9BC3F101031F931C4424E5A0463F
:10D350001C4601322C44072ACDE92624C9E9008560
:10D360003CDC09F10809FFF74ABB18F001031293EE
:10D370007FF4ABAE0E9B23EAE373089331E5149B75
:10D380000321002BB8BF2D234FF00000BABF1E466B
:10D390008DF877309DF87760CDE90810394A3A4B1F
:10D3A000FFF78FB9129B199A1344099A1A4422EA7B
:10D3B000E2730E92089314E56BB918F0010F0AD1CD
:10D3C000012308930E930CE54A46DFF8C080F1E58F
:10D3D000DFF8B880FFE5199B0133E6E725AADDE910
:10D3E0000C1001F05FFF00287EF4A7AEDDE92624D3
:10D3F000D146FFF704BB1F9A239B1292119A9B1AE6
:10D40000139338E60E9B119A13441C46C4E40F9DF7
:10D410009BF801302C68834644EAE474281D099483
:10D420000F90FEF718BEDFF8648092E70DF18603D7
:10D4300042E6099B0E93FFE58DF87710FFF70FB9D1
:10D440004FF0FF320C230A920D9A1360FEF77EBE56
:10D450008DF87710FEF738BF8DF87710FEF70BBF09
:10D460008DF87710FFF73AB98DF87710FFF7DBB832
:10D470008DF87710FFF770B98DF87710FFF792B835
:10D48000CDCCCCCCB41B0D00B01B0D00FC1B0D0093
:10D4900070B5141E9AB005462ADB1A464FF4027383
:10D4A00000910491ADF80C304FF6FF7611D0013C9D
:10D4B0001E9B694602940594ADF80E60FEF772FD5E
:10D4C000421C01DA8B232B600022009B1A701AB0D9
:10D4D00070BD1E9B694602940594ADF80E60FEF780
:10D4E00061FD431C01DB1AB070BD8B232B60FAE792
:10D4F0008B234FF0FF302B60F5E700BF10B5064CD3
:10D5000082B00093246813460A4601462046FFF77E
:10D51000BFFF02B010BD00BF94820720024B13B1C1
:10D52000024800F005B870470000000091E40C00CC
:10D53000002301461A46184601F03ABF2DE9F04F84
:10D5400003690E6983B0B342C0F28680013E01F1E7
:10D55000140800F1140958F8263059F826700133E0
:10D56000B7FBF3F7B300009308EB030A4B440193B6
:10D57000002F3BD00023C6461C46CC465EF8042B49
:10D58000DCF800501FFA82FB07FB0B33120C4FEA4A
:10D59000134B07FB02BB9AB2A21AABB21FFA8BF471
:10D5A0001A44C4EB154404EB224492B242EA04420A
:10D5B000F2454CF8042B4FEA24444FEA1B43DDD2DA
:10D5C000009B59F803308BB9019A131F99450CD26F
:10D5D00052F8043C4BB9A2F1080302E01A68043B7C
:10D5E0001AB9994506F1FF36F8D30661044601F0F1
:10D5F000ABFB00282CDB4D460023013758F8041BF9
:10D6000028688AB29A1A0B0C81B20A44C3EB104301
:10D6100003EB224392B242EA0342C24545F8042B8F
:10D620004FEA2343EAD259F8262009EB86037AB958
:10D630001A1F91450BD253F8042C42B9083B02E063
:10D640001A68043B1AB9994506F1FF36F8D32661EA
:10D65000384603B0BDE8F08F002003B0BDE8F08F7E
:10D660002DE9F04F1F461646036C99B00446CDE9EC
:10D6700002674BB10122456C1946AA40C3E9015229
:10D6800001F06CF9002323643E1EB4BF0123002384
:10D69000259AB8BF26F000461360754BB8BF0396B5
:10D6A000B34300F0A380DDE9028900220023404655
:10D6B000494601F033FF074678B10123249A1360ED
:10D6C000269B002B00F0BF806A4B269A03F1FF399E
:10D6D0001360484619B0BDE8F08F16AA17ABCDE924
:10D6E0000032204642464B4601F0CAFB350D8346C8
:10D6F00040F09C80DDE91685454405F23243202B3D
:10D7000040F33184C3F140039E40029B05F2124076
:10D7100023FA00F03043FDF777FA0122013D0A9227
:10D72000A1F1F8710022544BFDF730F94AA3D3E977
:10D730000023FDF7E3FA4AA3D3E90023FDF728F914
:10D74000064628460F46FDF76FFA47A3D3E90023A4
:10D75000FDF7D4FA02460B4630463946FDF718F974
:10D7600006460F4601F022FF0022059000233046B6
:10D77000394601F0DDFE002840F07782059E162E26
:10D7800000F26182DDE902233C4901EBC601D1E9E7
:10D79000000101F0EBFE002800F0E183731E059309
:10D7A00000230D93A8EB0505B5F1010A00F157829E
:10D7B00000230693059B002BC0F248829A440C93E9
:10D7C00000230B93229B092B60D8052B40F3C983C0
:10D7D0000026043B2293229B023B032B00F2A184F0
:10D7E000DFE813F0E603C803F003FC0442F20F7312
:10D7F000249A1360029B83B9C6F313066EB9269B65
:10D80000DFF87C90002B3FF464AF09F10803484631
:10D81000269A136019B0BDE8F08F269BDFF864905C
:10D82000002B3FF456AF09F10303F0E7C9F31303EC
:10D8300043F07F514046A5F2FF350A9741F440116D
:10D84000DDF858806EE7DFF84090484619B0BDE833
:10D85000F08F00BFAFF3008061436F63A787D23FB3
:10D86000B3C8608B288AC63FFB799F501344D33FCF
:10D870000000F07FE91B0D000000F83F581C0D0070
:10D880000C1C0D00181C0D00E81B0D004FF0FF359F
:10D8900001260023CDE908562293239300211495F5
:10D8A0006164204601F034F80E2D8146206400F2B8
:10D8B000FE80002E00F0FB80DDE9022316461F46A5
:10D8C0000599CDE90E67002940F3E9839B4B01F0F0
:10D8D0000F020D1103EBC203D3E90012CDE90212CE
:10D8E000EA0640F1A084964B3946D3E90823304636
:10D8F000FDF72EFB0327CDE9100105F00F057DB1E3
:10D90000DDE902018E4EEB0704D5D6E90023FDF7D1
:10D91000F5F901376D1006F10806F4D1CDE90201E1
:10D92000DDE90223DDE91001FDF712FBCDE902017B
:10D930000D9B43B1DDE902010022824B01F0F8FDAD
:10D94000002840F009853846FDF76EF9DDE902232D
:10D95000FDF7D4F97C4B0022FDF71AF8089B054629
:10D96000A1F15076002B00F01E84059B1593089BB7
:10D970001093DDE9020101F019FE109A6F4B00F1DE
:10D98000300803EBC20353E90212CDE91212FDF78E
:10D990004BF90B460246DDE90201CDE90256FCF7E0
:10D9A000F5FF099B5FFA88F806460F4609F1010565
:10D9B000002B00F06384DDE9122300206349FDF7AA
:10D9C000C7FADDE90223FCF7E1FF89F8008032465F
:10D9D0003B46CDE9020101F0C9FD002840F00E856B
:10D9E00032463B4600205749FCF7D0FF02460B4623
:10D9F000DDE9020101F0BAFD002840F00985109A26
:10DA0000012A50D04A44CDF848A0CDF840B0A046F5
:10DA1000DDE902ABCDF8089091460EE032463B4678
:10DA200000204849FCF7B2FF52465B4601F080FDFA
:10DA3000002840F0E6844D452ED05046594600223D
:10DA4000434BFDF75BF90022414B82468B46304643
:10DA50003946FDF753F90F46064601F0A7FD044687
:10DA6000FDF7E2F802460B4630463946FCF78EFFDA
:10DA70003034E4B205F8014B52465B4606460F4689
:10DA800001F056FD0028C9D0159BDDF840B0DDF847
:10DA900008904446059339E24446DDF848A0DDF895
:10DAA00040B0DDF80890DDE90E23CDE90223179B95
:10DAB000002BC0F2A980059A0E2A00F3A5801F4B07
:10DAC00003EBC203D3E90023CDE90623239B002BFC
:10DAD000C0F2C182DDE90267DDE90623304639463E
:10DAE000FDF736FA01F062FD8046FDF79DF8DDE9AD
:10DAF0000623FDF703F902460B4630463946FCF78C
:10DB000045FF089E08F13005012E89F800500246B5
:10DB10000B4609F101054CD000220D4BFDF7EEF844
:10DB20000022002306460F4601F0F8FC002840F0D2
:10DB3000ED81CDF808B0DDE906AB18E0581C0D000A
:10DB4000301C0D000000F03F00001C400000E03FD2
:10DB5000000024400022C64BFDF7D0F8002200232D
:10DB600006460F4601F0DAFC002840F04183524699
:10DB70005B4630463946FDF7EBF901F017FD80466C
:10DB8000FDF752F852465B46FDF7B8F802460B46E1
:10DB900030463946FCF7FAFE08F1300605F8016B0D
:10DBA000089FA5EB0906B74202460B46D2D1DDF825
:10DBB00008B010461946FCF7EBFEDDE906230646E1
:10DBC0000F4601F0D3FC60B9DDE906233046394643
:10DBD00001F0A4FC002800F0998118F0010F00F07A
:10DBE000958115F8018C05E0994500F03A831D46B2
:10DBF00013F8018CB8F1390F05F1FF33F4D008F1B7
:10DC0000010883F8008081E1099A002A3DD0229A18
:10DC1000012A40F31282089B03F1FF380B9B434516
:10DC2000C0F2E982A3EB0808089B002BC0F20E8328
:10DC3000069A9A440A921A4406920121204600F05C
:10DC400029FF064626E001230D93ABE500230C9344
:10DC5000DDE90532D21A5B4206920B93B2E5C5F1BB
:10DC6000010306934FF0000AA4E5DDF8149048463E
:10DC7000FCF7DAFF32463B4601F050FC00287FF407
:10DC80007DAD09F1FF33059378E5069BDDF82C8027
:10DC9000099E0A930A9900290B460CDDBAF1000F80
:10DCA00009DD5145A8BF5346069AAAEB030AD21ACA
:10DCB0000692CA1A0A920B9B7BB1099A002A00F0BD
:10DCC0009082A3EB0807B8F1000F40F09A81594603
:10DCD0003A46204600F08EFF83460121204600F0A0
:10DCE000D9FE0C9A0746002A40F02581229B012B81
:10DCF00040F36B810120504410F01F0000F01981A7
:10DD0000C0F12003042B40F3B483C0F11C00069B38
:10DD10008244034406930A9B03440A93069B002B08
:10DD200005DD59461A46204600F0B4FF8346BAF195
:10DD3000000F05DD39465246204600F0ABFF07468E
:10DD40000D9B002B77D1089B002B40F30582099B8C
:10DD5000002B00F089800A9B002B00F367810C9B4D
:10DD6000002B40F0CA81B246C846029B089A03F0D5
:10DD700001030A9309F1FF331A440692CDF82C905F
:10DD800039465846FFF7DAFB314681460990584636
:10DD900000F0DAFF524602903946204600F0F0FFCC
:10DDA000C268054609F130090146002A40F0CF81DA
:10DDB000584600F0C9FF29460890204600F0CEFDE5
:10DDC000089A32B9229B23B90A9B002B00F02483C6
:10DDD000229A029B002BC0F2198205D1229B1BB90B
:10DDE0000A9B002B00F01282002A08F1010500F3C3
:10DDF0002182069B88F80090434500F02C8259460A
:10DE000000230A22204600F0B3FD564583463146E2
:10DE10004FF000034FF00A02204600F0928100F01C
:10DE2000A7FD5146064600230A22204600F0A0FD29
:10DE3000A8468246A4E73946584600F085FF0028E8
:10DE400081DA059D594600230A222046013D0595A9
:10DE500000F08EFD099B8346002B40F0EE82149B60
:10DE6000002B40F3F98208934D46DDF8208008E04E
:10DE700000002440594600230A22204600F078FD85
:10DE8000834639465846FFF759FB303005F8010BF9
:10DE9000A5EB09029045EDDC0022034602925946AB
:10DEA00001222046089300F0F5FE3946834600F033
:10DEB0004BFF002815F8012C089B11DC05D1DB076E
:10DEC0000ED402E015F8022C1D46302A05F1FF336E
:10DED000F8D00BE0994500F04C811D4613F8012C59
:10DEE000392A05F1FF33F5D001321A703946204640
:10DEF00000F034FD56B1029921B1B14202D0204662
:10DF000000F02CFD3146204600F028FD5946204601
:10DF100000F024FD0022059B2A70249A013313602F
:10DF2000269B002B3FF4D5AB48461D6019B0BDE8D9
:10DF3000F08F1C20EBE60146204600F05BFE229BA2
:10DF40000746012B40F3D48000230C933B6907EB79
:10DF50008303186900F04EFDC0F12000CBE60D9060
:10DF600020E4012637E4C3F12006029B03FA06F001
:10DF7000FFF7D1BB00230993059B239A1344149305
:10DF80000133012B1F46B8BF012708930021172F2B
:10DF9000089D61647FF785AC012204235B0003F1D7
:10DFA0001400B842114602F10102F7D9616478E425
:10DFB00000230993239B002B40F3E28014930893E2
:10DFC0001F46E3E701230993F4E7029B002B7FF44C
:10DFD00091AEDDE90212C2F31303002B40F09981E8
:10DFE00022F000431B0D1B052BB1069B0AF1010A11
:10DFF0000133069301230C9A0C93002A3FF47AAE66
:10E00000A4E742463146204600F0F4FD5A46014658
:10E010000646204600F048FD80465946204600F05E
:10E020009DFCC346002F3FF458AE50E631461A46D9
:10E03000204600F02FFE064691E60A9A002A00F0DC
:10E040005D81069A03F233430A921A449A44069277
:10E05000DDF82C80F1E5089B002B3FF73BAD40F04D
:10E06000F881DDE906010022B54BFCF747FEDDE94A
:10E07000022301F071FA089F3E46002874D1312333
:10E08000059A89F800300132059209F101053946F7
:10E09000204600F063FC002E7FF434AF36E700F03A
:10E0A0004881DDE90E01059B5D42A64B05F00F029C
:10E0B00003EBC203D3E90023FCF720FE2D11CDE9C9
:10E0C000020100F0CE81002302279F4EEA0705D50A
:10E0D000D6E90023FCF712FE01231F446D1006F160
:10E0E0000806F3D1002B3FF423ACCDE902011FE475
:10E0F000029B002B3FF46DAF26E77168204600F0CD
:10E1000007FC0546336906F10C0102339A000C3016
:10E11000FDF7A0FC29460122204600F0BBFD824607
:10E1200022E6002520466564294600F0F1FB4FF009
:10E13000FF331493089301238146239520640993A8
:10E14000B5E400F015FCA8460646824618E62046CF
:10E1500000F004FC01223CE6229B022B7FF7F7AD86
:10E16000089B002B00F0D780239B4D46DB43059393
:10E170008DE73123059A89F8003001320592B5E622
:10E18000012523950895FFF789BB3846FCF74CFD20
:10E19000DDE90223FCF7B2FD00226C4BFCF7F8FB33
:10E1A0000546A1F15076DDE902010022644BFCF73F
:10E1B000EDFB2A463346CDE9020101F0D7F90746C7
:10E1C000002858D1DDE902012A4606F1004301F09A
:10E1D000AFF900283FF467AC3E46C5E70123099339
:10E1E000CAE659460B9A204600F004FD834674E5C2
:10E1F000DDF808B08AE60B9B0C9AA8EB03031A44DF
:10E20000CDF82C800C924FF000080DE5002A4B460B
:10E2100008F10105DDF82C9000F3C580029688F81E
:10E220000030564662E6DDE90E230227CDE91023D1
:10E23000FFF765BB4B46392BDDF82C9000F0C5800D
:10E240000133029688F8003056464FE6069B089A3E
:10E250009B1A0A93F1E44B460296DDF82C90564641
:10E260001DE6302389F80030059B15F8018C013339
:10E2700005934B46C3E400273E4600E7DDE9122341
:10E28000DDE90201FCF73AFD109BCDE90201012B0B
:10E2900089F8008021D0109BCDF840A04B449A46CD
:10E2A00000222B4B30463946FCF728FD0F46064628
:10E2B00001F07CF98046FCF7B7FC02460B4630467D
:10E2C0003946FCF763FB08F1300805F8018B55452A
:10E2D00006460F46E4D1DDF840A00022DDE9020148
:10E2E0001C4BFCF755FB32463B4601F021F9002858
:10E2F00071D0159B059315F8018C7BE4169B069A4B
:10E30000C3F136030A921A449A440692DDF82C802F
:10E3100093E400236FE639460522204600F028FBEF
:10E3200001460746584600F00FFD00283FF7A7AE0C
:10E330001AE7DDE90E230227CDE90223FFF7F8BA39
:10E3400000001440581C0D00301C0D0000001C4043
:10E35000000024400000E03F089B002B3FF415AF75
:10E36000149B002B7FF79FABDDE902010022454B98
:10E37000FCF7C4FC05460E46781CCDE90256FCF7B6
:10E3800053FC2A463346FCF7B9FC00223E4BFCF70F
:10E39000FFFA059A149B013A05461592A1F15076B1
:10E3A0001093FFF7E6BA594601222046029300F087
:10E3B00071FC3946834600F0C7FC0028029B36DD1D
:10E3C000392B02D0099B313328E73922029688F88D
:10E3D0000020564684E5DDE9022300202B49FCF7A6
:10E3E000D5FA32463B4601F0C1F810B9FFF75BBBE6
:10E3F000154615F8013C6A1E302BF9D0159B059384
:10E4000084E54346A0461C46DDF840B0DDF80890A0
:10E41000159B0593FFF7EEBB4B46392BDDF82C908F
:10E4200008F10105D1D0029A002ACBDCF6E67FF490
:10E43000F5AEDA077FF5F2AEC2E7314600230A22D5
:10E44000204600F095FA149B0646002B0CDD08933D
:10E4500081E400273E4687E6229B022B0EDC149BBC
:10E4600001E50227FFF764BA229B022B06DC149B0E
:10E47000EDE73FF453ACC0F13C0048E4149B089333
:10E480006EE600BF0000244000001C400000E03F9A
:10E4900038B50A4C0A4D641BA4100AD004F180431D
:10E4A000013B05EB8305013C55F804399847002CE6
:10E4B000F9D1BDE8384003F0C5BC00BF6C1E0D00AB
:10E4C000681E0D00F8B50C46234F0646FDF782FB8B
:10E4D000BB68C4F57E615D680F3125F003052944F2
:10E4E00021F47F6121F00F01A1F58054B4F5805F24
:10E4F00007DB00213046FDF779FBBB682B449842CF
:10E5000004D03046FDF76CFB0020F8BD6142304678
:10E51000FDF76CFB01300DD0104BBA6819682D1B4C
:10E5200045F001053046091B55601960FDF758FBA1
:10E530000120F8BD00213046FDF758FBBA68831A68
:10E540000F2BDEDD064943F001030C680349001B75
:10E5500053600860D5E700BFC0860720683C0820EC
:10E56000C88A0720002953D0F8B50D460646FDF7A6
:10E5700031FB55F804CC714FA5F108012CF00103D3
:10E58000CA18B8685468904224F0030453D01CF0B1
:10E59000010F546002EB04003BD155F808CC4068F1
:10E5A000A1EB0C018D6807F1080E7545634400F07E
:10E5B000010075D0D1F80CC0C5F80CC0CCF80850DB
:10E5C00060B343F001024A60CB50B3F5007F50D3F3
:10E5D0005A0A042A70D89A0902F13905ED0002F1AD
:10E5E00038007C197A59083C944278D0506820F061
:10E5F0000300984271D992689442F7D1E368C1E967
:10E60000024330469960E160BDE8F840FDF7E8BAA2
:10E610007047406800F001000028D2D19068484D52
:10E620002344A84243F0010462D0D268C2609060E3
:10E630004C60CB50C9E71CF0010F234407D155F8BB
:10E64000084C091BD1E902022344C26090603D4A94
:10E6500043F00100126848609A42B96004D83A4B0E
:10E6600030461968FFF72EFF3046BDE8F840FDF749
:10E67000B7BA0122DB087C68981013448240224319
:10E6800007EBC30057F833400838C1E902407A600D
:10E69000304647F83310E160BDE8F840FDF7A0BA16
:10E6A000002845D1D2E90202234443F00104C260AC
:10E6B00090604C60CB50D7E7142A08D9542A1ED852
:10E6C0001A0B02F16F05ED0002F16E0089E702F10D
:10E6D0005C05ED0002F15B0083E714468EE7012341
:10E6E0008210786803FA02F202437A60234686E7D2
:10E6F000C7E90411C1E902004C60CB50B4E7B2F5A0
:10E70000AA7F06D8DA0B02F17805ED0002F1770056
:10E7100067E740F25450824206D89A0C02F17D0518
:10E72000ED0002F17C005CE74FF47E757E2058E737
:10E7300043F001004860136096E700BFC0860720E1
:10E74000C8860720CC8A0720983C0820D0F8EC0027
:10E75000704700BF044B054A1B685B6B002B08BF6A
:10E760001346D3F8EC00704794820720D48A072020
:10E77000044A054B1268506B002808BF1846F03059
:10E78000704700BF94820720D48A0720704700BFDB
:10E79000704700BF82B049B15AB16BB113780B60BA
:10E7A0001278101C18BF012002B0704701A9002A7E
:10E7B000F3D1104602B070476FF00100F4E700BFDC
:10E7C000830770B4CDB23DD0541E0AB30378AB4278
:10E7D0001FD0431C05E014F1FF3419D30278AA427C
:10E7E00017D013F0030F184603F10103F3D1032CE4
:10E7F00011D84CB30378AB420BD00444431C02E065
:10E800000278AA4205D09C42184603F10103F7D1D1
:10E81000002070BC704706460A0292B22A4342EAC0
:10E820000242336830465340A3F1013121EA030329
:10E8300013F0803F06F10406DCD1043C032C304683
:10E84000EFD8D6E71446D2E72046E2E78842F0B494
:10E850000DD98B1883420AD9841832B1224613F895
:10E86000014D994202F8014DF9D1F0BC70470F2AD1
:10E8700048D940EA01039B0746D1A2F110031B09C6
:10E8800001F1200707EB031701F1100400F1100557
:10E8900054F8106C103445F8106C54F81C6C10359A
:10E8A00045F81C6C54F8186C45F8186C54F8146C46
:10E8B000BC4245F8146CEBD1013302F00F051B018B
:10E8C000032D1944034421D90F462C461E1F57F827
:10E8D00004CB043C032C46F804CFF8D82C1F24F0BA
:10E8E000030404342344214402F00302002ABCD070
:10E8F000013B0A4411F8014B914203F8014FF9D151
:10E90000F0BC70470346F1E70346F1E72A46EDE71E
:10E91000C36C70B505460C464BB153F8240080B16A
:10E92000026843F824200023C0E9033370BD21228C
:10E930000421FCF7A3FD0346E8640028EDD1002084
:10E9400070BD012101FA04F6721D28469200FCF701
:10E9500095FD0028F3D0C0E90146E4E731B1C36C6E
:10E960004A6853F82200086043F82210704700BF3D
:10E97000F0B54FF0000C0C4605460E6983B001F16E
:10E98000140738680CF1010C81B202FB0133010C51
:10E99000180C02FB01019BB203EB0143664547F8EB
:10E9A000043B4FEA1143ECDC3BB1A268B24207DD05
:10E9B00004EB8602013653612661204603B0F0BDA8
:10E9C0006168284601310193FFF7A2FF07462269DB
:10E9D00004F10C01023292000C30FDF73BF8EA6CB6
:10E9E0006168019B52F82100206042F821403C46BA
:10E9F000DEE700BF020C12040346C2B90304102074
:10EA000013F07F4F04BF1B02083013F0704F04BF98
:10EA10001B01043013F0404F04BF9B000230002B59
:10EA200004DB5B0001D501307047202070470020D7
:10EA3000E6E700BF0368014613F0070207D0DA07D4
:10EA40001FD498071FD55B080B600120704798B250
:10EA5000A0B1104613F0FF0F04BF1B0A08301A07BD
:10EA600004BF1B0904309A0704BF9B080230DA0771
:10EA700002D45B080BD001300B6070471B0C1020D8
:10EA8000E8E7002070479B080B60022070472020B9
:10EA9000704700BF10B50C460121FFF739FF012276
:10EAA000C0E9042410BD00BF2DE9F04F0D691469C1
:10EAB00085B0A5420E46914604DA2A464E462546C2
:10EAC00089461446B36805EB040871684345B8BF2E
:10EAD0000131FFF71DFF00F1140B0BEB880AD34542
:10EAE000019005D25B46002243F8042B9A45FBD8DF
:10EAF00009F1140303EB840406F11402A34202EBB0
:10EB0000850E62D2A4EB0904153C24F003042344CF
:10EB1000CDE902A809F1100990469A4605E0090CD2
:10EB20002CD1CA450BF1040B4DD059F8041F1FFA24
:10EB300081FCBCF1000FF2D047465E46002100E0A8
:10EB40000646304657F8042B346893B2A5B2120C2F
:10EB50000CFB0353240C0CFB02420B4402EB13414D
:10EB60009BB243EA0143BE454FEA114140F8043BE2
:10EB7000E6D87160D9F80010090CD2D0DBF800306B
:10EB800040461E465D46002200E025462C4607888A
:10EB9000360C01FB07669BB2324443EA024344F859
:10EBA000043B50F8043B6E681B0CB7B201FB0373C7
:10EBB000864503EB12434FEA1342E6D8CA456B6021
:10EBC0000BF1040BB1D1DDE902A8B8F1000F0BDDA8
:10EBD0005AF8043CAAF1040A1BB105E05AF8043DB6
:10EBE00013B9B8F10108F9D10198C0F8108005B047
:10EBF000BDE8F08F12F003032DE9F04114460746FB
:10EC00002ED10D46A4101CD0BE6C96B3E3074FF076
:10EC1000000806D4641014D03068A8B10646E30793
:10EC2000F8D5324629463846FFF73EFFB5B16A6847
:10EC3000FB6C641053F82210296043F822500546FB
:10EC4000EAD12846BDE8F081324631463846FFF722
:10EC50002BFF3060C0F800800646E0E70546D9E7A4
:10EC60000B4A013B52F823200023FFF781FE0546A3
:10EC7000C8E701213846FFF74BFE40F2712101221F
:10EC80000023C0E904210646B8640360BEE700BF64
:10EC9000201D0D000B692DE9F047541104EB03080A
:10ECA0008B6808F101059D420E469146074649686A
:10ECB00004DD5B009D4201F10101FADC3846FFF7FB
:10ECC00027FE002C00F114033CDD002203EB84013D
:10ECD00043F8042B8B42FBD1346906F1140319F07D
:10ECE0001F0903EB840C25D0C9F120024FF0000A64
:10ECF00000E071468E461C6804FA09F444EA0A04EE
:10ED00004EF8044B53F8044B634524FA02FAF0D34F
:10ED1000C1F804A0BAF1000F01D008F10205FB6CA4
:10ED20007268013D53F822100561316043F822609A
:10ED3000BDE8F087043953F8042B9C4541F8042FB3
:10ED4000F9D8ECE71946C7E730B40B690546006906
:10ED5000C01A0FD19B001435143119442B4401E023
:10ED60009D4207D253F8044D51F8042D9442F7D038
:10ED700002D3012030BC70474FF0FF30FAE700BFEC
:10ED80002DE9F84F0C6913698946E41A002C924664
:10ED900001F1140702F1140B14D19B00FA185B4423
:10EDA00001E0BA4262D952F8045D53F8041D8D4265
:10EDB000F7D009D23A464B465F46D14693469A462B
:10EDC000012401E0F6DB0024D9F80410FFF7A0FDD0
:10EDD0005E464FF00008D9F810C0DAF810303D4612
:10EDE000C4600BEB830E07EB8C0700F1140455F89D
:10EDF000049B56F8042B1FFA89F343441FFA82F848
:10EE0000120CA3EB0803C2EB194202EB23429BB2A4
:10EE100043EA0243B64544F8043B4FEA2248E6D8A9
:10EE2000AF4217D9A6462E4656F8043B99B2414444
:10EE30000A1402EB134289B241EA0243B7424EF888
:10EE4000043B4FEA2248EFD8ED432F4427F0030755
:10EE500004373C44043C2BB954F8043D0CF1FF3C0E
:10EE6000002BF9D0C0F810C0BDE8F88F0021FFF7E3
:10EE70004FFD01220023C0E90423BDE8F88F00BF45
:10EE80002DE9F0411C4682B00121DDE9086590467C
:10EE9000FFF73EFD2346C4F30A540746C3F31303AA
:10EEA0000CB143F48013B8F1000201931ED002A804
:10EEB00040F8082DFFF7BEFD70BBDDE900237A6145
:10EEC000002B0CBF01210221BB613961CCB907EBDA
:10EED0008103A0F2324030601869FFF78BFDC0EB70
:10EEE00041102860384602B0BDE8F08101A8FFF764
:10EEF000A1FD0122019B11462030C7E90423002C0B
:10EF0000E5D0A4F233430344C0F1350033602860F8
:10EF1000384602B0BDE8F081019BC0F120020099A3
:10EF200003FA02F20A43C34001937A61C8E700BFC3
:10EF30002DE9F04F924683B0002900F0A1800D46E4
:10EF400080460AF10B04FCF745FE55F8042C162CFC
:10EF500022F00306A5F108073ED810242146A24559
:10EF60003FD88E4207EB060974DAC84B98684845CB
:10EF700000F0AA80D9F8040020F001034B445B683C
:10EF8000DB0740F18380D20734D551464046FCF779
:10EF9000CFFA8246E0B155F8043CA0F1080223F014
:10EFA00001033B44934200F00E81321F242A00F2F9
:10EFB0001481132A296800F2FB8003462A4619604F
:10EFC0005168596092689A6029464046FFF7CAFA2C
:10EFD0004046FCF705FE4FE024F00704002C2146D4
:10EFE000BDDA4FF0000A0C235046C8F8003003B0D9
:10EFF000BDE8F08F55F8083CA7EB030BDBF80420C5
:10F0000022F00302B3188B42BFDBDA46DBF80C10A8
:10F010005AF8080F321F242AC1600BEB03098860DD
:10F0200000F2BE80132A296840F2D580CBF8081080
:10F0300069681B2ACBF80C10A96800F2E5800BF177
:10F0400010020835116069681E465160AB685F4662
:10F05000554693607A68331B0F2B02F0010222D8C9
:10F0600032437A60D9F8043043F00103C9F8043020
:10F070004046FCF7B5FDAA46504603B0BDE8F08F08
:10F08000114603B0BDE8F04FFCF752BA20F0030080
:10F0900033188B4263DBD9E902121E46CA6007EBC4
:10F0A00003099160D6E73919224343F001037A60DE
:10F0B0004B60D9F80430083143F00103C9F804303B
:10F0C0004046FFF74FFAD3E7D0F8049004F1100060
:10F0D00029F00309B144814580F28380D2073FF5CE
:10F0E00054AF55F8082CA7EB020BDBF8042022F0F4
:10F0F00003029144484585DCDA46DBF80C105AF8E7
:10F10000080F321F242AC160886000F2AB80132AE6
:10F11000296840F2A580CBF8081069681B2ACBF853
:10F120000C10A96800F2A5800BF1100208351160DF
:10F1300069685160A9689160A9EB04020BEB0401B6
:10F1400042F0010299604A60DBF80430404603F067
:10F1500001031C43CBF80440FCF742FD8CE7D307C6
:10F160003FF513AF55F8083CA7EB030BDBF8042081
:10F1700022F00302104483198B42FFF643AFD9E912
:10F180000201DA46C16088605AF8080FDBF80C10FB
:10F19000321F242AC1600BEB030988607FF642AF5F
:10F1A000294650461E465F46FFF750FB554651E73D
:10F1B00001606B681B2A436032D805F1080200F138
:10F1C0000803A968FBE650F8043C23F003031E443F
:10F1D00007EB06093EE7524634E72946FFF736FBC0
:10F1E000F2E6A9EB0409274449F001029F607A6026
:10F1F00055F8043C404603F001031C4345F8044C19
:10F20000FCF7EEFCAA4637E7CBF81010E968242A91
:10F21000CBF8141029690FD00BF11802103511E743
:10F22000AB68242A8360EB68C3600FD005F110023D
:10F2300000F110032969C2E6CBF8181069690BF1D7
:10F240002002CBF81C10A9691835FBE62B6905F1E3
:10F2500018020361696900F118034161A969AEE60A
:10F26000524664E7294650460193FFF7EFFA019BA7
:10F2700062E7CBF81010E968242ACBF8141029694A
:10F2800006D00BF11802103551E700BFC0860720E9
:10F29000CBF8181069690BF12002CBF81C10A96992
:10F2A000183544E72DE9F04F936883B09046002B62
:10F2B0006CD0176882460C46086808378D6842E0B3
:10F2C000A38913F4906F2DD0D4E9041505EB4505FF
:10F2D000A0EB010B05EBD575701C6D105844A842CE
:10F2E0002A4684BF05462A465B0536D51146504658
:10F2F000FCF71EF900283AD05A4621690190FCF724
:10F30000A9FBA289019B22F4906242F08002A281B3
:10F31000A5EB0B0203EB0B006561B3463546236199
:10F320002060A2605A464946FFF790FAD8F80830A4
:10F33000A2682068551B58449E1BA5602060C8F831
:10F3400008601EB3083757E90296AB46002EF9D085
:10F35000AE42B5D23546B346E4E75046FFF7E8FD86
:10F3600003460028D4D121695046FFF7FBF80C234F
:10F3700000224FF0FF30CAF80030A38943F0400369
:10F38000A381C8E9012203B0BDE8F08F0020C8F8CE
:10F39000040003B0BDE8F08F19B1FF2A03D80A704A
:10F3A0000121084670478A234FF0FF310360F8E7D8
:10F3B0002DE9F8432B4D0646286898460F4691469E
:10F3C000FFF7E4F9284B1C68D4F84831002B3DD0F6
:10F3D0005A681F2A0DDC02F1010C16BB0232C3F879
:10F3E00004C0286843F82270FFF7D2F90020BDE876
:10F3F000F8831E4B7BB34FF4C870AFF30080034615
:10F4000048B30020D4F848114FF0010CC3E90010B4
:10F410000246C4F84831C3F88801C3F88C01002EB5
:10F42000DCD0012103EB8204C4F88890D3F8880172
:10F4300091400843022EC3F88801C4F80881CDD159
:10F44000D3F88C010143C3F88C11C7E704F5A67308
:10F45000C4F84831BCE72868FFF79AF94FF0FF304D
:10F46000C5E700BFD08A0720A41B0D0000000000E4
:10F470004FF0FF3C06E000BF4FF0010C02E000BF80
:10F480004FF0010C4DF804CD4FEA410C7FEA6C5C63
:10F490004FEA430C18BF7FEA6C5C1BD001B050EA06
:10F4A000410C0CBF52EA430C91EA030F02BF90EAF1
:10F4B000020F0020704710F1000F91EA030F58BFB0
:10F4C000994208BF90422CBFD8176FEAE37040F012
:10F4D000010070474FEA410C7FEA6C5C02D150EAB0
:10F4E000013C07D14FEA430C7FEA6C5CD6D152EA6B
:10F4F000033CD3D05DF8040B704700BF8446104630
:10F5000062468C461946634600E000BF01B5FFF72E
:10F51000B7FF002848BF10F1000F01BD4DF808EDFE
:10F52000FFF7F4FF0CBF012000205DF808FB00BFCF
:10F530004DF808EDFFF7EAFF34BF012000205DF829
:10F5400008FB00BF4DF808EDFFF7E0FF94BF012076
:10F5500000205DF808FB00BF4DF808EDFFF7CEFF77
:10F5600094BF012000205DF808FB00BF4DF808EDB6
:10F57000FFF7C4FF34BF012000205DF808FB00BF87
:10F580004FEA410C7FEA6C5C02D150EA013C0AD19F
:10F590004FEA430C7FEA6C5C02D152EA033C02D191
:10F5A0004FF0000070474FF0010070474FEA4102F2
:10F5B00012F5001215D211D56FF47873B3EB6252C5
:10F5C00012D94FEAC12343F0004343EA505311F0EC
:10F5D000004F23FA02F018BF404270474FF000007E
:10F5E000704750EA013005D111F0004008BF6FF0BC
:10F5F000004070474FF00000704700BF48617264E0
:10F60000206661756C740D0A004368616E676564FD
:10F6100020686F75720D0A0052756E6E696E6720F4
:10F62000256325632563202D202573202D20257338
:10F630002025730D0A0031313A35343A3133004A0E
:10F64000756C203331203230313900736368656462
:10F65000756C65720D0A0043416D62696F206D69BA
:10F660006E75746F0D0A004661696C65640D0A0061
:10F67000424B37582D4D42592D30310057414B45A3
:10F680002055500D0A00696E69745F626F61726483
:10F6900020736C6565700D0A005761697420536CA6
:10F6A0006565700D0A004177616B696E670D0A0030
:10F6B000696E69745F626F6172642072756E6E69E3
:10F6C0006E670D0A00456E61626C65207761746338
:10F6D00068646F672077697468202564206D6963AA
:10F6E000726F7365636F6E647320706572696F64A7
:10F6F0000A0D00255820256C5820256C580D0A004D
:10F7000042616E6B20310D0A0042616E6B20320D3A
:10F710000A002D462D20496E697469616C697A6111
:10F7200074696F6E206572726F720A0D002D462D1E
:10F7300020526561642074686520556E6971756535
:10F74000204964656E746966696572206572726FBE
:10F75000720A0D0044756361746F20696E697420CC
:10F7600030390D0A0049444C4500546D7251005423
:10F770006D722053766300304100303300436F6D6B
:10F78000616E646F206E6F6E206765737469746F4D
:10F790000D0A0030430041420D0A004572722E20CE
:10F7A000370D0A0030370042420D0A004572722EB2
:10F7B00020380D0A0030380043420D0A0043430D43
:10F7C0000A0036380030340036390042616E636F0B
:10F7D00020312061747469766F0D0A0042616E6396
:10F7E0006F20302061747469766F0D0A00256325DF
:10F7F0006325633A0025583A0025583A25583A259A
:10F800006C583A003045003632003633003634004A
:10F8100036360030350030420030310055706461BA
:10F8200074657220696E69740D0A00745F72657385
:10F8300065740043616E6E6F7420637265617465F8
:10F840002074696D65722E0D0A00757064617465AF
:10F85000207461736B002530335800253034580014
:10F860005265626F6F740D0A002D462D20496E6936
:10F870007469616C697A6174696F6E206572726F08
:10F880007220256C750A0D0043616E3020696E6927
:10F890007469616C697A6174696F6E20636F6D70F1
:10F8A0006C657465640D0A0043616E3120696E6990
:10F8B0007469616C697A6174696F6E20636F6D70D1
:10F8C0006C657465640D0A00745F6B65797300493B
:10F8D0006D706F737369626C652063616E20696E11
:10F8E000746572666163650D0A004D61696C626FD3
:10F8F00078202564207069656E612025640D0A00FA
:10F9000041626F72742121210D0A00746F6F206DA6
:10F910007563682043414E206572726F72730D0AE1
:10F9200000557064617465722C206E6F742072656E
:10F9300073657474696E670D0A0063616E62757336
:10F940005F7461736B5F74780063616E5F74617381
:10F950006B0043616E207461736B20696E69740D76
:10F960000A00257320737461636B20746F6F206CC1
:10F970006F772E0D0A007654696D65725365636F5B
:10F980006E64006576656E745F7461736B00657696
:10F99000656E745F696E6974004953522051554514
:10F9A00055452046554C4C0D0A006576656E745FD2
:10F9B0007461736B005573696E67202564206279EA
:10F9C00074657320666F722068616E646C65727313
:10F9D000206D616E6167656D656E742025642066BB
:10F9E0006F722071756575652E0D0A00745F627205
:10F9F0006B006C6F676765725F696E697400444580
:10FA00004641554C540043414E0055415254004527
:10FA100056454E54004144430052455045415445DB
:10FA200052004E4F524D414C00494E464F004552F8
:10FA3000524F52005741524E494E4700444542559D
:10FA400047004C6F676765722025733A2564206E06
:10FA50006F77207365742061732025733A25640DD8
:10FA60000A00766572626F7365000D0A76657262D0
:10FA70006F73653A0D0A766572626F7365205B4439
:10FA8000454641554C547C43414E7C554152547C33
:10FA90004556454E547C52455045415445527C4153
:10FAA00044435D205B4E4F524D414C7C494E464F86
:10FAB0007C4552524F527C5741524E494E477C44EE
:10FAC000454255475D0D0A0D0A00000062FA0C0020
:10FAD0006AFA0C0029390C000200000053657276A6
:10FAE00069636520696E69740D0A00756172745FDF
:10FAF00073657269616C5F6572726F7200736572B3
:10FB000069616C5F756172745F696E6974007573A9
:10FB1000617274305F73657269616C5F6572726F78
:10FB200072002573206D756C7469706C6520636F4D
:10FB30006E66696775726174696F6E0D0A00757320
:10FB4000617274315F73657269616C5F6572726F47
:10FB50007200436F646120646920747261736D691F
:10FB60007373696F6E65207069656E612E0D0A0092
:10FB7000556E6B6E6F776E2076656869636C652075
:10FB8000636F6E6669672025640D0A00666961749B
:10FB90005F64756361746F5F616E616C6F675F73E3
:10FBA00077635F696E69740043757272656E742065
:10FBB000726164696F206D65646961207479706534
:10FBC0003A2025640D0A0068616E646C655F6765A4
:10FBD0006E6572616C5F73657474696E67730044FF
:10FBE000697365676E6F206D61696E206D656E75F6
:10FBF0000D0A00466168727A6575672D45696E73F6
:10FC000074656C6C756E67656E0056656869636CCB
:10FC1000652073657474696E677300436F6E6669FF
:10FC2000677572616369C3B36E2064656C20766525
:10FC300068C3AD63756C6F0052C3A9676C6167657B
:10FC4000732064752076C3A9686963756C65004983
:10FC50006D706F7374617A696F6E69207665696320
:10FC60006F6C6F00566F65727475696720696E738B
:10FC700074656C6C696E67656E0055737461776945
:10FC8000656E696120706F6A617A647500000000BA
:10FC9000F3FB0C000AFC0C001BFC0C0038FC0C00F5
:10FCA0004FFC0C0064FC0C007AFC0C000AFC0C00FD
:10FCB0000AFC0C0044656C61790D0A004375727290
:10FCC000656E7420726164696F20736F757263650D
:10FCD00020747970653A2025640D0A00446F6E2700
:10FCE00074207573652074686520736D617274701B
:10FCF000686F6E65207768696C65206472697669E3
:10FD00006E6720616E64206C6F636B207468652081
:10FD10007361666574792062656C742E0042656655
:10FD20006F72652064726976696E6700DCFC0C0096
:10FD3000DCFC0C00DCFC0C00DCFC0C00DCFC0C0033
:10FD4000DCFC0C00DCFC0C00DCFC0C00DCFC0C0023
:10FD5000DCFC0C00DCFC0C00DCFC0C00DCFC0C0013
:10FD6000DCFC0C00DCFC0C00DCFC0C00DCFC0C0003
:10FD7000DCFC0C00DCFC0C001DFD0C001DFD0C006F
:10FD80001DFD0C001DFD0C001DFD0C001DFD0C00DB
:10FD90001DFD0C001DFD0C001DFD0C001DFD0C00CB
:10FDA0001DFD0C001DFD0C001DFD0C001DFD0C00BB
:10FDB0001DFD0C001DFD0C001DFD0C001DFD0C00AB
:10FDC0001DFD0C00616E616C6F677377635F696E18
:10FDD0006974007377635F74696D0025733A2062FC
:10FDE0006F6172642076657273696F6E206E6F74D6
:10FDF0002068616E646C65642E0D0A0074696D651F
:10FE0000725F7377635F766F6C5F636F6E76657238
:10FE100073696F6E730025733A20626F617264209C
:10FE200076657273696F6E202564206E6F7420682A
:10FE3000616E646C65642E0D0A00616E616C6F67A3
:10FE40007377635F696E69745F70696E3000616EAD
:10FE5000616C6F677377635F696E69745F70696EF9
:10FE6000310068656C70000D0A68656C703A0D0AA7
:10FE7000204C6973747320616C6C20746865207207
:10FE800065676973746572656420636F6D6D616E1B
:10FE900064730D0A0D0A000062FE0C0067FE0C0080
:10FEA000494D0C000000000008030202034B090248
:10FEB000030302430A03030303460B04030304483A
:10FEC0000C03040404430D040404044D0E0404054F
:10FED00004400F04050504431005050504451106FB
:10FEE00005050447120506060443130606060444E6
:10FEF00014070606044615080606044716070707F2
:10FF0000044417080807044618070808044319089A
:10FF1000080804447769736B65725F696E697400E1
:10FF20005769736B6572206D6F64756C652025640D
:10FF30002074696D65646F75740D0A004E6F7420CE
:10FF4000676976696E67207769736B65720D0A0061
:10FF5000745F77736B0048414E444252414B455F9A
:10FF60004F4E0D0A0048414E444252414B455F4FAF
:10FF700046460D0A0049474E4954494F4E5F4F4E81
:10FF80000D0A0049474E4954494F4E5F4F46460DB2
:10FF90000A0044656C617965642069676E697469FB
:10FFA0006F6E20256C64207365636F6E64732072BE
:10FFB000656D61696E696E670D0A005769726564E7
:10FFC0002069676E6974696F6E206368616E67652A
:10FFD000642E204E6F7720253032580D0A004C4990
:10FFE000474854535F4F4E0D0A004C4947485453FD
:10FFF0005F4F46460D0A00524556455253455F4FE6
:02000002D0002C
:100000004E0D0A00524556455253455F4F46460D28
:100010000A0044656C61796564206F6E20726576B4
:1000200065727365202564207365636F6E64732049
:1000300072656D61696E696E670D0A0044656C6179
:10004000796564206F6666207265766572736520D7
:100050002564207365636F6E64732072656D6169DA
:100060006E696E670D0A005370656564206E6F7768
:100070002025660D0A00745F77697200496E76610B
:100080006C69642050574D20636F6E6669677572A6
:100090006174696F6E0D0A00745F313630005075FF
:1000A0006C73616E7469206E6F6E20696E697A6917
:1000B000616C697A7A6174692E0D0A0046696C6C0C
:1000C000696E672045322072756E74696D652025F2
:1000D000642E0D0A0061206D656E7520746F2073AB
:1000E000656E642025700D0A0052696C6173636946
:1000F0006F0D0A005269747261736D6574746F0DCF
:100100000A0068616E646C655F7377632071756562
:1001100075652066756C6C0D0A004552524F52454C
:1001200021212100745F35303000745F323030009F
:10013000726164696F20616C70696E650D0A004EB2
:1001400041434B090A007265706561742074782020
:100150002564090A00474956452055502C20332074
:100160004E41434B530D0A0054494D454F5554746D
:100170000A007265706561742074782025640D0A28
:1001800000474956452055502C20332054494D45B1
:100190004F55540D0A004E6F2050726573730D0A4F
:1001A00000566F6C2B2070726573730D0A00566FCA
:1001B0006C2B2072656C0D0A00566F6C2D207072CE
:1001C0006573730D0A00566F6C2D2072656C0D0AF5
:1001D000005365656B2B2070726573730D0A0053B5
:1001E00065656B2B2072656C0D0A005365656B2D80
:1001F0002070726573730D0A005365656B2D207254
:10020000656C0D0A004D7574652070726573730D11
:100210000A004D7574652072656C0D0A0050726598
:100220007365742B2070726573730D0A00507265CC
:100230007365742B2072656C0D0A005072657365CE
:10024000742D2070726573730D0A005072657365AA
:10025000742D2072656C0D0A00536F7572636520F2
:1002600070726573730D0A00536F75726365207247
:10027000656C0D0A0054656C5069636B5570207095
:10028000726573730D0A0054656C5069636B557029
:100290002072656C0D0A0054656C48616E6755707C
:1002A0002070726573730D0A0054656C48616E6747
:1002B00055702072656C0D0A005370656563682087
:1002C00070726573730D0A00537065656368207200
:1002D000656C0D0A00556E737570706F727465648D
:1002E0002053574320636F6D6D616E640D0A0045A6
:1002F00072726F722073656E64696E672C20707500
:100300007368696E67206261636B20737763202571
:10031000640D0A00535743202564207265745661AA
:100320006C2025640D0A0052657461696E206B654E
:1003300079202530325820666F7220256420746938
:100340006D65732E0D0A00496E76696F206D656EBE
:100350007520636F6E74696E75650D0A00496E765F
:10036000696F206D656E752025700D0A00496E76E7
:10037000696F20616C6C61726D652E0D0A00616C95
:1003800070696E655F7461736B0025632563256317
:10039000256300092530356C750925303258253024
:1003A000325825303258253032580D0A00416C70D1
:1003B000696E65204C6F776C6576656C0D0A000977
:1003C0002530356C7509090909200072657175655C
:1003D0007374206E6F7420696D706C656D656E74DA
:1003E000656420253032580D0A00416C70696E65D5
:1003F000204C6F776C6576656C20696E69740D0AA8
:100400000073657269616C20696E69740D0A006120
:100410006C70696E655F6C6F7700092530356C759F
:10042000090068616E646C655F636C6F636B5F6429
:100430006174655F6D656E750068616E646C655FA3
:10044000636C6F636B5F646174655F76616C756527
:100450005F7265636569766564000000060A0D00D9
:10046000140A0D00140A0D00200A0D00300A0D00B8
:100470003B0A0D00490A0D00590A0D00660A0D00DD
:10048000660A0D00730A0D00660A0D00660A0D006B
:10049000660A0D00810A0D00660A0D00660A0D004D
:1004A000660A0D00660A0D007E090D0082090D0026
:1004B00082090D0086090D008B090D0092090D00BF
:1004C00097090D009B090D0082090D0082090D009E
:1004D000A2090D0082090D0082090D0082090D009C
:1004E000A6090D0082090D0082090D0082090D0088
:1004F00082090D00000052696368696573746120A8
:10050000726964697365676E6F0D0A00DD0A0D001C
:10051000DD0A0D00DD0A0D00DD0A0D00DD0A0D000B
:10052000DD0A0D00DD0A0D00DD0A0D00DD0A0D00FB
:10053000DD0A0D00DD0A0D00DD0A0D00DD0A0D00EB
:10054000DD0A0D00DD0A0D00DD0A0D00DD0A0D00DB
:10055000DD0A0D00DD0A0D00414D2F504D003234F3
:100560004800416C70696E653A2052696365767522
:10057000746F207269636869657374612070657255
:10058000206D656E75202530325820253032582078
:10059000253032580D0A00414C50494E453A20430F
:1005A000757272656E74206D656E753A2025640DE6
:1005B0000A00256C64202573202530325820253010
:1005C000325820253032580D0A0043616D62696F40
:1005D0002076616C6F72652073796E6320636C6F37
:1005E000636B206461202564200043616D62696F44
:1005F0002031322F3234480D0A0043616D62696F39
:100600002072696761206174746976610D0A005512
:100610006E6B6E6F776E206D656E7520253032586B
:10062000202530325820253032580D0A00256C64C0
:100630002025732025642025640D0A0043616D6226
:10064000696F20616E6E6F2025640D0A0043616D35
:1006500062696F206D6573652025640D0A00436132
:100660006D62696F2067696F726E6F2025640D0A75
:100670000043616D62696F206F72612025640D0A0D
:100680000043616D62696F206D696E75746F20251E
:10069000640D0A00526F77202564206E6F74206805
:1006A000616E646C65640D0A002573207965617262
:1006B0003A2025642076656869636C655F6D6F6EAE
:1006C00074683A2025642076656869636C655F64A8
:1006D00061793A20256420686F75723A202564207C
:1006E0006D696E7574653A2025640D0A000000007E
:1006F00026090D002D090D002D090D0032090D00F0
:10070000370A0D0038090D0038090D003D090D00AC
:100710002D090D002D090D0045090D002D090D00B5
:100720002D090D002D090D0048090D002D090D00A2
:100730002D090D002D090D002D090D00745F6D723E
:10074000656C005265717565737420696E746572AD
:1007500066616365206D656E750D0A0043414E202C
:100760004163746976697479005265717565737453
:10077000206D61696E206D656E750D0A00000000C8
:100780004D090D004D090D004D090D0054090D00D6
:100790005B090D0062090D0062090D0069090D0079
:1007A0004D090D004D090D0070090D004D090D009A
:1007B0004D090D004D090D0077090D004D090D0083
:1007C0004D090D004D090D004D090D00AB090D003F
:1007D000B1090D00B1090D00B7090D00BC090D00EC
:1007E000C1090D00C5090D00CA090D00B1090D00B0
:1007F000B1090D00D3090D00B1090D00B1090D00BB
:10080000B1090D0083090D00B1090D00B1090D00FA
:10081000B1090D00B1090D00E6080D00EA080D0050
:10082000EA080D00EA080D00EA080D00EA080D00CC
:10083000EA080D00EA080D00EA080D00EA080D00BC
:10084000EA080D00EA080D00EA080D00EA080D00AC
:10085000EE080D00EA080D00EA080D00EA080D0098
:10086000EA080D00F6080D00F6080D00F6080D0068
:10087000F6080D00F6080D00F6080D00F6080D004C
:10088000F6080D00F6080D00F6080D00F6080D003C
:10089000F6080D00F6080D00F6080D00F9080D0029
:1008A000F6080D00F6080D00F6080D00F6080D001C
:1008B000526564726177206D656E750D0A00466F32
:1008C000726D617400466F726D61746F00466F7275
:1008D0006D61747500466F726D61617400466F7270
:1008E0006D6174C4B100417573004F6666004B6161
:1008F00070616CC4B1004F6E0041C3A7C4B16B00FE
:1009000053796E6320726164696F20636C6F636BEF
:100910000053696E632E206F726F6C6F67696F2072
:10092000726164696F005374756E646500486F7519
:100930007200686575726500686F726100676F6448
:100940007A696E61006E750073616174004D696E45
:10095000757465006D696E757465004D696E7574AA
:100960006F006D696E75746F006D696E75746100EE
:100970006D696E7575740064616B696B61005461BB
:100980006700446179006A6F75720047696F726E23
:100990006F0064C3AD610064696100647A6965C514
:1009A00084006461670067C3BC6E004D6F6E617444
:1009B000004D6F6E7468006D6F6973004D657365EF
:1009C000006D6573006DC3AA73006D69657369C4BA
:1009D0008563006D61616E64004A616872005965EB
:1009E000617200616E6EC3A96500416E6E6F006139
:1009F000C3B16F00616E6F00726F6B006A616172EC
:100A00000079C4B16C0055687220756E6420446131
:100A100074756D0054696D6520262044617465000D
:100A2000486F726C6F67652065742064617465003F
:100A3000446174612065204F72610052656C6F6A79
:100A400020792066656368610052656CC3B367698D
:100A50006F20652044617461005A65676172206986
:100A6000206461746100436C6F636B2026204461D5
:100A70007465004B6C6F6B20656E20646174756DDE
:100A80000053616174207665207461726968005357
:100A9000572D56657273696F6E00535720766572D5
:100AA00073696F6E0056657273696F6E20535700DD
:100AB00056657273696F6E652053572000566572D4
:100AC0007369C3B36E20535700576572736A612010
:100AD00053570053572D76657273696500496E66EA
:100AE0006F726D6174696F6E005363686E697474C0
:100AF0007374656C6C656E65696E7374656C6C752A
:100B00006E67656E00496E74657266616365205339
:100B1000657474696E677300506172616DC3A87407
:100B2000726573206465206C27496E746572666116
:100B3000636500496D706F7374617A696F6E6920C7
:100B4000496E74657266616363696100416A7573B9
:100B500074657320646520496E74657266617A00FD
:100B6000557374617769656E696120496E74657249
:100B700066656A73C3B37700496E746572666163B4
:100B8000652D696E7374656C6C696E67656E0000C7
:100B90008F0A0D009A0A0D009A0A0D00A50A0D0091
:100BA000B00A0D00BD0A0D009A0A0D00C90A0D0019
:100BB0009A0A0D009A0A0D00D30A0D009A0A0D0038
:100BC0009A0A0D009A0A0D009A0A0D009A0A0D0061
:100BD0009A0A0D009A0A0D009A0A0D0000090D00EC
:100BE00000090D0000090D0000090D0011090D009C
:100BF00000090D0000090D0000090D0000090D009D
:100C000000090D0000090D0000090D0000090D008C
:100C100000090D0000090D0000090D0000090D007C
:100C200000090D0000090D00BE080D00BE080D00F2
:100C3000BE080D00BE080D00C5080D00C5080D005A
:100C4000C5080D00CD080D00BE080D00BE080D0042
:100C5000D5080D00BE080D00BE080D00BE080D0031
:100C6000DD080D00BE080D00BE080D00BE080D0019
:100C7000BE080D0050726F766F2061207472617330
:100C80006D6574746572650D0A00547261736D65EB
:100C900074746F0D0A000000F3FB0C000AFC0C00DA
:100CA0000AFC0C0038FC0C004FFC0C001BFC0C0078
:100CB0000AFC0C007AFC0C000AFC0C000AFC0C007C
:100CC00064FC0C000AFC0C000AFC0C000AFC0C0082
:100CD0000AFC0C000AFC0C000AFC0C000AFC0C00CC
:100CE0000AFC0C00D9090D00DE090D00DE090D001B
:100CF000E3090D00EA090D00EF090D00F4090D00EC
:100D0000F8090D00DE090D00DE090D00FC090D00DB
:100D1000DE090D00DE090D00DE090D00010A0D00DF
:100D2000DE090D00DE090D00DE090D00DE090D00F3
:100D300068616E646C655F666163746F72795F731E
:100D4000657474696E67730068616E646C655F7367
:100D5000657474696E67735F7375626D656E750037
:100D60006D170D006D170D006D170D006D170D003F
:100D70006D170D006D170D006D170D006D170D002F
:100D80006D170D006D170D006D170D006D170D001F
:100D90006D170D006D170D006D170D006D170D000F
:100DA0006D170D006D170D006D170D0012170D005A
:100DB00012170D0012170D0012170D0012170D005B
:100DC00012170D0012170D0012170D0012170D004B
:100DD00012170D0012170D0012170D0012170D003B
:100DE00012170D0012170D0012170D0012170D002B
:100DF00012170D0012170D00E5170D00E5170D0075
:100E0000E5170D00E5170D00E5170D00E5170D00BE
:100E1000E5170D00E5170D00E5170D00E5170D00AE
:100E2000E5170D00E5170D00E5170D00E5170D009E
:100E3000E5170D00E5170D00E5170D00E5170D008E
:100E4000E5170D00B9170D00B9170D00B9170D0002
:100E5000B9170D00B9170D00B9170D00B9170D001E
:100E6000B9170D00B9170D00B9170D00B9170D000E
:100E7000B9170D00B9170D00B9170D00B9170D00FE
:100E8000B9170D00B9170D00B9170D00B9170D00EE
:100E900069170D0069170D0069170D0069170D001E
:100EA00069170D0069170D0069170D0069170D000E
:100EB00069170D0069170D0069170D0069170D00FE
:100EC00069170D0069170D0069170D0069170D00EE
:100ED00069170D0069170D0069170D0072170D00D5
:100EE00072170D0072170D0072170D0072170D00AA
:100EF00072170D0072170D0072170D0072170D009A
:100F000072170D0072170D0072170D0072170D0089
:100F100072170D0072170D0072170D0072170D0079
:100F200072170D0072170D005E170D005E170D0091
:100F30005E170D005E170D005E170D005E170D00A9
:100F40005E170D005E170D005E170D005E170D0099
:100F50005E170D005E170D005E170D005E170D0089
:100F60005E170D005E170D005E170D005E170D0079
:100F70005E170D007C170D007C170D007C170D000F
:100F80007C170D007C170D007C170D007C170D00E1
:100F90007C170D007C170D007C170D007C170D00D1
:100FA0007C170D007C170D007C170D007C170D00C1
:100FB0007C170D007C170D007C170D007C170D00B1
:100FC00049170D0049170D0049170D0049170D006D
:100FD00049170D0049170D0049170D0049170D005D
:100FE00049170D0049170D0049170D0049170D004D
:100FF00049170D0049170D0049170D0049170D003D
:1010000049170D0049170D0049170D0053170D0022
:1010100053170D0053170D0053170D0053170D00F4
:1010200053170D0053170D0053170D0053170D00E4
:1010300053170D0053170D0053170D0053170D00D4
:1010400053170D0053170D0053170D0053170D00C4
:1010500053170D0053170D000000000038170D0046
:1010600038170D0038170D0038170D0038170D0010
:1010700038170D0038170D0038170D0038170D0000
:1010800038170D0038170D0038170D0038170D00F0
:1010900038170D0038170D0038170D0038170D00E0
:1010A00038170D0038170D0076170D0076170D0054
:1010B00076170D0076170D0076170D0076170D00C8
:1010C00076170D0076170D0076170D0076170D00B8
:1010D00076170D0076170D0076170D0076170D00A8
:1010E00076170D0076170D0076170D0076170D0098
:1010F00076170D0025732070726573736564207216
:101100006F773A2025640D0A004C4544204245463D
:101110004F52453A20253032580D0A004C454420A4
:1011200041465445523A20253032580D0A000000FD
:1011300007170D0007170D0007170D0007170D0003
:1011400007170D0007170D0007170D0007170D00F3
:1011500007170D0007170D0007170D0007170D00E3
:1011600007170D0007170D0007170D0007170D00D3
:1011700007170D0007170D0007170D0000180D00C9
:1011800000180D0000180D0000180D0000180D00CB
:1011900000180D0000180D0000180D0000180D00BB
:1011A00000180D0000180D0000180D0000180D00AB
:1011B00000180D0000180D0000180D0000180D009B
:1011C00000180D0000180D00FB170D00FB170D0097
:1011D000FB170D00FB170D00FB170D00FB170D0093
:1011E000FB170D00FB170D00FB170D00FB170D0083
:1011F000FB170D00FB170D00FB170D00FB170D0073
:10120000FB170D00FB170D00FB170D00FB170D0062
:10121000FB170D00F7170D00F7170D00F7170D005E
:10122000F7170D00F7170D00F7170D00F7170D0052
:10123000F7170D00F7170D00F7170D00F7170D0042
:10124000F7170D00F7170D00F7170D00F7170D0032
:10125000F7170D00F7170D00F7170D00F7170D0022
:1012600084170D0084170D0084170D0084170D00DE
:1012700084170D0084170D0084170D0084170D00CE
:1012800084170D0084170D0084170D0084170D00BE
:1012900084170D0084170D0084170D0084170D00AE
:1012A00084170D0084170D0084170D00E1160D0042
:1012B000E1160D00E1160D00E1160D00E6160D0019
:1012C000E1160D00E1160D00E1160D00E1160D000E
:1012D000E1160D00E1160D00E1160D00E1160D00FE
:1012E000E1160D00E1160D00E1160D00E1160D00EE
:1012F000E1160D00E1160D00DE170D00DE170D00E2
:10130000DE170D00DE170D00DE170D00DE170D00D5
:10131000DE170D00DE170D00DE170D00DE170D00C5
:10132000DE170D00DE170D00DE170D00DE170D00B5
:10133000DE170D00DE170D00DE170D00DE170D00A5
:10134000DE170D00C1170D00C1170D00C1170D00EC
:10135000C1170D00C1170D00C1170D00C1170D00F9
:10136000C1170D00C1170D00C1170D00C1170D00E9
:10137000C1170D00C1170D00C1170D00C1170D00D9
:10138000C1170D00C1170D00C1170D00C1170D00C9
:101390008E170D008E170D008E170D008E170D0085
:1013A0008E170D008E170D008E170D008E170D0075
:1013B0008E170D008E170D008E170D008E170D0065
:1013C0008E170D008E170D008E170D008E170D0055
:1013D0008E170D008E170D008E170D00E6080D00FC
:1013E000EA080D00EA080D00EA080D00EA080D0001
:1013F000EA080D00EA080D00EA080D00EA080D00F1
:10140000EA080D00EA080D00EA080D00EA080D00E0
:10141000EA080D00EE080D00EA080D00EA080D00CC
:10142000EA080D00EA080D00A4170D00A4170D002E
:10143000A4170D00A4170D00A4170D00A4170D008C
:10144000A4170D00A4170D00A4170D00A4170D007C
:10145000A4170D00A4170D00A4170D00A4170D006C
:10146000A4170D00A4170D00A4170D00A4170D005C
:10147000A4170D00F6080D00F6080D00F6080D0083
:10148000F6080D00F6080D00F6080D00F6080D0030
:10149000F6080D00F6080D00F6080D00F6080D0020
:1014A000F6080D00F6080D00F6080D00F9080D000D
:1014B000F6080D00F6080D00F6080D00F6080D0000
:1014C00062170D0062170D0062170D0062170D0004
:1014D00062170D0062170D0062170D0062170D00F4
:1014E00062170D0062170D0062170D0062170D00E4
:1014F00062170D0062170D0062170D0062170D00D4
:1015000062170D0062170D0062170D0028170D00FD
:1015100028170D0028170D0028170D0028170D009B
:1015200028170D0028170D0028170D0028170D008B
:1015300028170D0028170D0028170D0028170D007B
:1015400028170D0028170D0028170D0028170D006B
:1015500028170D0028170D0080170D0080170D00AB
:1015600080170D0080170D0080170D0080170D00EB
:1015700080170D0080170D0080170D0080170D00DB
:1015800080170D0080170D0080170D0080170D00CB
:1015900080170D0080170D0080170D0080170D00BB
:1015A00080170D00C9170D00C9170D00C9170D00D0
:1015B000C9170D00C9170D00C9170D00C9170D0077
:1015C000C9170D00C9170D00C9170D00C9170D0067
:1015D000C9170D00C9170D00C9170D00C9170D0057
:1015E000C9170D00C9170D00C9170D00C9170D0047
:1015F000D4160D00D4160D00D4160D00D4160D000F
:10160000DA160D00D4160D00D4160D00D4160D00F8
:10161000D4160D00D4160D00D4160D00D4160D00EE
:10162000D4160D00D4160D00D4160D00D4160D00DE
:10163000D4160D00D4160D00D4160D00D7170D00CA
:10164000D7170D00D7170D00D7170D00D7170D00AE
:10165000D7170D00D7170D00D7170D00D7170D009E
:10166000D7170D00D7170D00D7170D00D7170D008E
:10167000D7170D00D7170D00D7170D00D7170D007E
:10168000D7170D00D7170D00EF160D00EF160D0040
:10169000EF160D00EF160D00EF160D00EF160D0002
:1016A000EF160D00EF160D00EF160D00EF160D00F2
:1016B000EF160D00EF160D00EF160D00EF160D00E2
:1016C000EF160D00EF160D00EF160D00EF160D00D2
:1016D000EF160D0052696768740044657374726197
:1016E000004C6566740053696E69737472610053CF
:1016F00074656572696E6720576865656C0056652C
:1017000072746963616C00486F72697A6F6E74619C
:101710006C00427574746F6E7320436F6E666967F8
:1017200075726174696F6E00507265666C69676886
:101730007420436865636B00466163746F7279203F
:1017400053657474696E67730044696D20576869E6
:1017500074650044696D2059656C6C6F770044694D
:101760006D204F72616E67650044696D20426C7533
:10177000650044696D20477265656E0044696D209F
:10178000526564004C656420436F6C6F7200526553
:10179000762E204F464620484F4C44205365636FB9
:1017A0006E6473005265762E204F4E20484F4C4495
:1017B000205365636F6E64730044656C6179656482
:1017C000004E61747572616C005265766572736566
:1017D000204C6F67696300736563287329006D6926
:1017E0006E2873290049676E2E20484F4C44204DC7
:1017F000696E75746573004B657900446F6F720094
:1018000049676E6974696F6E204C6F676963000089
:10181000FE160D00FE160D00FE160D00FE160D0044
:10182000FE160D00FE160D00FE160D00FE160D0034
:10183000FE160D00FE160D00FE160D00FE160D0024
:10184000FE160D00FE160D00FE160D00FE160D0014
:10185000FE160D00FE160D00FE160D004D170D00B4
:101860004D170D004D170D004D170D004D170D00B4
:101870004D170D004D170D004D170D004D170D00A4
:101880004D170D004D170D004D170D004D170D0094
:101890004D170D004D170D004D170D004D170D0084
:1018A0004D170D004D170D0057170D0057170D0060
:1018B00057170D0057170D0057170D0057170D003C
:1018C00057170D0057170D0057170D0057170D002C
:1018D00057170D0057170D0057170D0057170D001C
:1018E00057170D0057170D0057170D0057170D000C
:1018F00057170D0043757272656E74206D656E75B5
:1019000020253032580D0A00506F7070696E6720C4
:101910006D656E750D0A0050757368696E672025D8
:101920003032580D0A004D454E552057414C4B4919
:101930004E472052454143484544204D4158494D6A
:10194000554D2057494454480D0A0025303258203F
:101950000043616D62696F2064692068616E646232
:1019600072616B650D0A0043616D62696F20646985
:101970002069676E6974696F6E0D0A0043616D625C
:10198000696F206469206C69676874730D0A00438D
:10199000616D62696F206469207265766572736536
:1019A0000D0A006D6573736167655F42375F707222
:1019B0006F636573730025732063616D62696F20C7
:1019C000666F726D61746F206F72610D0A004E65F3
:1019D00077206C616E67756167653A2025640071D8
:1019E00075690D0A00427566666572206D656469E9
:1019F00061207465787420737472696E67206675EF
:101A00006C6C0D0A00526963657675746F3A20003C
:101A10004E6F20636C6F636B206368616E67652037
:101A200066756E6374696F6E20617661696C616260
:101A30006C652E0D0A009F029F15159F03009F02E3
:101A40009F06069F0300636F6E74726F6C6C657205
:101A50005F7461736B004C454420434F4C4F523AC6
:101A60002025303258006374726C5F7461736B00B0
:101A70004E41434B0D0A0033204E41434B2C20670F
:101A8000697665207570207472616E736D69747407
:101A9000696E670D0A004E6F2068616E646C657236
:101AA0007320666F723A0D0A006C656E2025642003
:101AB000636F6D702025643A0074696D656F75748D
:101AC0000D0A00546F6F206D756368206572726F28
:101AD000727320776974686F7574207265706C79A1
:101AE0002C20676976652075700D0A00576169744E
:101AF0000D0A00496E766572740D0A004D656E75AB
:101B00000D0A004D7574650D0A0043414D0D0A0024
:101B10004D757369630D0A004D69630D0A004578C0
:101B20007472610D0A004E6176690D0A0054656C8D
:101B30000D0A005365656B55700D0A005365656BA2
:101B4000446F776E0D0A0050756C73616E74692076
:101B50006E6F6E20696E697A69616C697A7A6174F8
:101B6000690D0A0053636F6E6F73636975746F203C
:101B7000253032580D0A000001000000020000006C
:101B80000400000008000000100000002000000019
:101B90004000000080000000000100000002000082
:101BA0000004000098820720494E4600696E6600D6
:101BB0004E414E006E616E0030313233343536376F
:101BC0003839414243444546000000003031323349
:101BD0003435363738396162636465660000000069
:101BE000286E756C6C290000300000002020202039
:101BF00020202020202020202020202030303030A5
