:0200000280007C
:10000000605C0820F5000800795F0800D90208004C
:10001000795F0800795F0800795F08000000000040
:10002000000000000000000000000000F1060800D1
:10003000795F0800000000004507080081070800FC
:10004000795F0800795F0800795F0800795F080030
:10005000795F0800795F0800795F0800795F080020
:10006000453C080000000000000000008D0308006F
:10007000E503080000000000000000000000000090
:1000800000000000D93D0800553F0800795F0800D6
:1000900000000000795F0800DD5C0800795F08005F
:1000A000795F080000000000795F0800795F0800B0
:1000B000795F0800795F0800795F0800795F0800C0
:1000C000795F080000000000000000000000000050
:1000D000D9690800795F0800795F0800795F080036
:1000E000795F0800795F08000000000061300800B7
:1000F000393108004FF0005208B5194B1A631A61E4
:100100004FF48052C3F83022C3F81022154A164B20
:100110009A4203D01549043A8B4219D30021144B5B
:10012000144A934219D3144B144A23F0604121F02E
:100130007F0103F16043B3F5801F91603EBF936878
:1001400043F0005393600BF091F800F05FF8FEE786
:1001500052F8040F43F8040BDEE743F8041BE0E712
:10016000000E0E408C23090000800720488C0720D9
:10017000488C07205C3C08200000080000ED00E0EF
:1001800010B5054C237833B9044B13B10448AFF3D1
:1001900000800123237010BD488C07200000000060
:1001A0008C23090008B5034B1BB103490348AFF387
:1001B000008008BD000000004C8C07208C23090043
:1001C000034B044A1A600022034B1A60704700BFB9
:1001D00074330820B4810720688C0720024A02216A
:1001E000032003F0AFBB00BF91F30800024A0121D6
:1001F000002003F0A7BB00BFDFF308000378102B3B
:1002000003D1407808B906F005B870477FB503F010
:1002100067FB00F06DF903F067FC03F0A3FF06F045
:1002200007F8012005F0FEFF012005F0F3FF002094
:1002300005F0F0FF03F0F6FA1A49072003F026FA5A
:100240001949082003F022FA1849092003F01EFA80
:100250001749102003F01AFA03F0B8FC1549164AA2
:10026000049116491378CDE90221917852780191D1
:1002700000920121124A002003F064FB09F070FE95
:1002800006F0FCFC0AF0B6F800F006FA0D4A01216F
:10029000002003F057FB00F023FC002007B05DF8BE
:1002A00004FB00BFC1010800ED010800DD010800EA
:1002B000FD010800BEF30800F8F30800C7F30800CA
:1002C000A0F30800D3F3080030BF024A13680133DB
:1002D00013607047688C0720064A074913688B42F1
:1002E00002D8013313607047002001211060034AD7
:1002F00003F028BB648C0720F5FF090084F3080095
:1003000038B56424044D00212A46084603F01AFB40
:10031000013CF8D138BD00BFEFF308000220704760
:100320000620704701207047074B0246196809B93B
:10033000064919601868064902448A42D4BF1A6007
:100340004FF0FF30704700BF6C8C0720605C0820C6
:10035000FC7F082010B504461CB1022C02D9032CE6
:1003600008D010BD05F020FA003018BF0120002889
:10037000F2D0F6E705F096FAF6E708B50B2005F09F
:10038000A9FABDE808400C2005F0A4BA10B512483F
:1003900005F056FC8107044606D502210E4805F0FB
:1003A0004DFC01220D4B1A70E20307D54FF480314A
:1003B000094805F043FC0122084B1A70E3040AD5F2
:1003C0004FF48051044805F039FC054803F0A6FAC3
:1003D0000122024B1A7010BD000E0E40788C0720CF
:1003E00006F4080010B50C4805F02AFC0204044687
:1003F00007D54FF40041084805F020FC0122074BC7
:100400001A70E30307D54FF48031034805F016FC5A
:100410000122024B1A7010BD00100E40788C07208C
:1004200038B5FFF7AAFF02231A484FF480544361FE
:10043000C0F8A0304FF40043174D10226B61C5F88F
:10044000A0304461C0F8A040446644654462C0F8EE
:100450008040036F114923F48053036705F0D7FBF5
:1004600010224FF4C031284605F0D1FB4FF4006252
:1004700000210B4BC3F88020C3F8802183F80B13B5
:100480001A60C3F88040C3F8804183F80C131C60E5
:1004900038BD00BF000E0E4000100E4002100100DB
:1004A00000E100E008B50F490F4805F0C4FB4FF428
:1004B000C0310E4805F0BFFB012005F02BFA0220E9
:1004C00005F028FA082005F025FA802005F022FA28
:1004D0004FF4805005F01EFABDE808404FF400507C
:1004E00005F018BA02100100000E0E4000100E4078
:1004F0002DE9F041002486B04FF480714D4805F09D
:1005000023FC08214B4805F017FC4A4805F024FC61
:10051000494BDFF870811C70FFF782FFFFF7C2FFC5
:100520002046FFF717FF204605F0DAF805F08CF9B2
:1005300005F07EF9414805F087FD05F021FDFFF744
:100540001CFF04F0E9FE3E4F3E4D404603F0E6F945
:100550003B784FF000563C4C43B94FF480536E63E8
:100560006363FFF79FFF03F0D3F9EEE7374803F02B
:10057000D5F94FF480532E633548236305F074FB9F
:100580000446002005F01EF90320FFF7E3FE0020DB
:1005900005F0C6F805F0A8FDFFF7EFFE04F048FDF2
:1005A0004FF400412B4805F08DFB2B4A03460121F7
:1005B000002003F0C7F91F4B01205D6905F042FBE5
:1005C000264AC4F30223CDE900500121002003F0A4
:1005D000B9F90120002105F03BFB214BB3F5202F99
:1005E00034BF2048204803F099F9204B04211B68B0
:1005F0000020C3F30323092B0CBF4FF400324FF448
:1006000080221B4B1A6005F00FFC10B1194803F053
:1006100085F9042102A805F08FFC10B1164803F0FB
:100620007DF9164B059A16481A6003F077F906B063
:10063000BDE8F081101A0E40708C072000BD010546
:10064000788C0720000E0E4000100E401DF40800AC
:10065000001A0E40501A0E4027F4080055F4080006
:10066000F104080062F408006BF4080040090E4031
:10067000748C072074F408008FF408007C8C072029
:10068000B6F4080010F40800014805F0E7BA00BF0E
:10069000001A0E400320704708B5094A01210020C6
:1006A00003F050F903F06AFD072805D007F08EF833
:1006B000BDE8084003F096BE02F000FCF8E700BF7A
:1006C000CBF4080003480068006880F3088862B62D
:1006D00000DF00BF08ED00E04FF0807340E9021337
:1006E000002340F8202C40F80C3C403870470000B4
:1006F000064B19680868B0E8F00F80F309884FF0DE
:10070000000080F311884EF00D0E7047808C07209A
:100710004FF0A00383F31188BFF36F8FBFF34F8FA8
:10072000024A136801331360704700BF8C800720B2
:10073000034A1368013B13600BB983F311887047B8
:100740008C800720EFF309800C4B1A6820E9F00F2A
:1007500010602DE908404FF0A00080F3118800F0F0
:100760003FFB4FF0000080F31188BDE80840196896
:100770000868B0E8F00F80F309887047808C072084
:100780004FF0805208B5094B1A60EFF311834FF018
:10079000A00282F31188BFF36F8FBFF34F8F00F079
:1007A000EDF9002383F3118808BD00BF04ED00E0DC
:1007B000034B044A1A60072243F8042C704700BF19
:1007C00014E000E01F48010008B5084B1A6842F425
:1007D00070021A601A6842F070421A60FFF7E8FF70
:1007E0000020034B1860FFF76DFF08BD20ED00E00F
:1007F0008C80072070470000064A13681968064B72
:1008000019B94FF0FF321A6070471268D268D26887
:100810005268F8E7848C07200C8D0720F8B51B4B35
:100820001B4E1C68054630680F46043000F0BDFEC4
:10083000334640B901203168164EC96A3268884093
:1008400022EA000232606A1C07D137B119681248E7
:100850000431BDE8F84000F085BE1A6864195460A0
:1008600007D30E4A10681968BDE8F840043100F05B
:1008700085BE0B4A10681968043100F07FFE094BF1
:100880001A68A24288BF1C60F8BD00BF548D0720C3
:10089000808C0720DC8C07202C8D0720888C07207B
:1008A000848C07200C8D072080B5DFF86880154FF9
:1008B000154C164E236873B9154B1B68012B07D9CD
:1008C0004FF08053C8F80030BFF34F8FBFF36F8FE6
:1008D000FFF7FAFCECE7FFF71BFFFB68DD68281D5C
:1008E00000F063FE3368013B33602368013B236003
:1008F000FFF71EFF286B01F027F9284601F024F9C5
:10090000D8E700BF408D0720CC8C0720C88C07207B
:100910008C8C072004ED00E02DE9F84F4FEA820AA5
:10092000804650460D4699460B9E01F077F80746E3
:1009300098B1582001F072F8044658B107637DB9A8
:100940004FF0A00383F31188BFF36F8FBFF34F8F76
:1009500000BFFDE7384601F0F7F84FF0FF3590E0B3
:100960005246A52138460AF0ADFF236BAAF1040ACE
:100970009A442AF0070A6B1E04F13402093513F871
:10098000011F02F8011B197809B19D42F7D10A9D98
:100990004FF0000B022D28BF0225271DE562C4E998
:1009A000125B384684F83DB000F0D9FDC5F103056F
:1009B00004F1180000F0D3FDC4F850B02461A56123
:1009C000646284F854B04A4641465046FFF784FEBC
:1009D000206006B13460FFF79BFE314B314E1A6840
:1009E000DFF8F48001321A603268002A4CD134609A
:1009F0001B68012B1FD12C4800F0A6FDDFF8DC900E
:100A00002A4800F0A1FD2A4D2A4800F09DFD4846E5
:100A100000F09AFD284600F097FD274800F094FD6D
:100A2000264800F091FD264800F08EFD254BC3F8C6
:100A30000090254B1D600125244A2549136808684C
:100A400001331360E26A236405FA02F303431420BE
:100A50000B60154B394600FB023000F083FDFFF7B9
:100A600067FED8F8003063B13368DA6AE36A9A4205
:100A700007D24FF08052174B1A60BFF34F8FBFF36E
:100A80006F8F2846BDE8F88FD8F80030002BD2D100
:100A90003368DA6AE36A9A4298BF3460CBE700BFF2
:100AA000C88C0720808C07208C8C0720A08C072006
:100AB000F48C0720B48C0720148D0720408D07206C
:100AC0002C8D0720848C0720888C0720D88C072049
:100AD000DC8C072004ED00E0288D0720E08C072047
:100AE00013B50024184B00940193C82223461749DC
:100AF0001748FFF711FF012818D100F0B1FD0128B8
:100B000014D14FF0A00383F31188BFF36F8FBFF3AD
:100B10004F8F4FF0FF320F4B1A600F4B18600F4B87
:100B20001C6002B0BDE81040FFF74EBE013009D195
:100B30004FF0A00383F31188BFF36F8FBFF34F8F84
:100B400000BFFDE702B010BD088D0720DCF40800EF
:100B5000A90808000C8D0720288D0720548D072038
:100B6000024A136801331360704700BFD48C07201A
:100B7000014B1868704700BF548D07202DE9F84FCE
:100B80003D4B1B68002B6FD13C4B1C6801341C6033
:100B9000C4B93B4B1A6812684AB14FF0A00383F303
:100BA0001188BFF36F8FBFF34F8F00BFFDE7354A4A
:100BB0001968106818601160334A136801331360B4
:100BC000FFF71AFE314D4FF0000B2B68304FA34258
:100BD00011D93A682F4BD16A14224A439A58022AF3
:100BE00028BF4FF0010B2C4A1268002A0CBF584650
:100BF0000120BDE8F88FDFF888A0DFF8A490DAF8CC
:100C0000002012681AB94FF0FF322A60E1E7DAF8E3
:100C10000020D268D66871688C4201D22960D8E77A
:100C200006F10408404600F0C0FCB16A19B106F1B3
:100C3000180000F0BAFC01224FF0140CF06AD9F849
:100C4000003002FA00F11943124BC9F800100CFBF6
:100C50000030414600F086FC3868F16AC26A914271
:100C600028BF4FF0010BCAE70C4A4FF0000B136886
:100C700001331360B7E700BFD48C0720548D0720E1
:100C8000848C0720888C0720108D07200C8D07206E
:100C9000808C07208C8C0720588D0720D08C072053
:100CA000DC8C07202DE9F843314C23684BB94FF019
:100CB000A00383F31188BFF36F8FBFF34F8F00BF83
:100CC000FDE7FFF725FD2368013B236024682CB175
:100CD0000024FFF72DFD2046BDE8F883254B1B6857
:100CE000002BF5D0244D254EDFF8A4801FE0EB68E3
:100CF0000127DC6804F1040904F1180000F055FC38
:100D0000484600F052FC1420E26A316807FA02F308
:100D10000B4300FB02804946336000F023FC184B74
:100D2000E26A1B68DB6A9A4201D3164B1F602B688C
:100D3000002BDCD10CB1FFF75FFD134D2C6844B1E3
:100D40000127104EFFF71AFF00B13760013CF9D1BF
:100D50002C600C4B1B68002BBAD04FF080520B4B11
:100D60001A60BFF34F8FBFF36F8F0124B1E700BF4D
:100D7000D48C0720C88C0720148D0720DC8C07201A
:100D8000808C0720588D0720D08C072004ED00E0D0
:100D90008C8C072008B540B94FF080520E4B1A607A
:100DA000BFF34F8FBFF36F8F08BD0C4B196849B16C
:100DB0004FF0A00383F31188BFF36F8FBFF34F8F02
:100DC00000BFFDE7FFF7CCFEFFF728FDFFF76AFF46
:100DD0000028E1D0E8E700BF04ED00E0D48C072054
:100DE000184B10B51A68184B12B101221A6010BDC9
:100DF0001A60164B1B68B3FA83F31422DBB2C3F1FB
:100E00001F035A4312498C5888184CB94FF0A0035D
:100E100083F31188BFF36F8FBFF34F8F00BFFDE7E0
:100E20004468083264680A44944208BF62684460B7
:100E300008BF4260142202FB03135B68DA68054BAB
:100E4000D4E700BFD48C0720588D0720DC8C072006
:100E50008C8C0720808C072010B50C4648B94FF0C9
:100E6000A00383F31188BFF36F8FBFF34F8F00BFD1
:100E7000FDE7054B1968183100F080FB2046BDE8FE
:100E800010400121FFF7CABC808C072038B50D4601
:100E9000144648B94FF0A00383F31188BFF36F8F56
:100EA000BFF34F8F00BFFDE7074B1968183100F003
:100EB00059FB002C214608BF2846BDE8384018BF22
:100EC0004FF0FF30FFF7AABC808C072038B5C3680D
:100ED000DC684CB94FF0A00383F31188BFF36F8F28
:100EE000BFF34F8F00BFFDE704F11805284600F05F
:100EF0005CFB114B1B68E3B9251D284600F055FB30
:100F000001230E49E26A08689340034314200B60F2
:100F100029460B4B00FB023000F024FB094BE26A30
:100F20001B68DB6A9A4285BF0120074B00201860CE
:100F300038BD29460548EFE7D48C0720DC8C072014
:100F40008C8C0720808C0720588D0720148D07205B
:100F500010B5044648B94FF0A00383F31188BFF3DE
:100F60006F8FBFF34F8F00BFFDE7FFF7D1FB054B3E
:100F70001B682360044B1B686360BDE81040FFF7EB
:100F8000D7BB00BF108D0720548D0720034B1B6873
:100F90000360034B1B684360704700BF108D072040
:100FA000548D0720F8B50C46054648B94FF0A0030C
:100FB00083F31188BFF36F8FBFF34F8F00BFFDE73F
:100FC00049B94FF0A00383F31188BFF36F8FBFF3CC
:100FD0004F8F00BFFDE7FFF79BFB0F4B6868196859
:100FE00023680A1A5E1C0DD00C4E2F683668B74273
:100FF00001D088420DD9934209D99B1A2360284613
:10100000FFF7C4FF0024FFF793FB2046F8BD002341
:1010100023600124F7E700BF548D0720108D0720BF
:101020000122014B1A607047588D072008B9064B02
:101030001868026B1346981A13F8011BA529FAD0F9
:10104000C0F38F00704700BF808C0720014B1868E9
:10105000704700BF808C0720054B1B6833B1054BE0
:101060001B68002B0CBF0220002070470120704736
:10107000288D0720D48C07202DE9F0410446002854
:1010800036D0234AC36A11681746C96A8B4237D2E1
:10109000142682691F4D002AA8BF3A6806FB035335
:1010A000A2BFD26AC2F10302826142699A4221D18F
:1010B00000F10408404600F078FA174B48B9E06A9E
:1010C0004643AA592AB901211A68814022EA01023D
:1010D0001A603A681968D26AE262012404FA02F0DE
:1010E000084318601420414600FB025000F03AFA11
:1010F000204603E03B68DB6AC3620120BDE8F08163
:101100001368806CDC6AA0422CBF00200120F5E748
:10111000808C07208C8C0720DC8C0720F8B50446D7
:1011200008B90020F8BD234B1B68834209D04FF05B
:10113000A00383F31188BFF36F8FBFF34F8F00BFFE
:10114000FDE7DB6C4BB94FF0A00383F31188BFF3CD
:101150006F8FBFF34F8F00BFFDE7C16A826C013B09
:101160009142C364DDD0002BDBD1051D284600F081
:101170001CFA114E114A50B91421E76A7943735889
:101180002BB901201368B84023EA00031360A36C55
:10119000C3F10301A161E3620124116804FA03F0C1
:1011A000084310601420294600FB036000F0DAF9C0
:1011B0002046B7E7808C07208C8C0720DC8C07202A
:1011C000F8B5044600284ED0C26C4AB94FF0A003CF
:1011D00083F31188BFF36F8FBFF34F8F00BFFDE71D
:1011E000836C994238BF1946C36A8B423BD0012AAF
:1011F00039D11D4A1268824209D14FF0A00383F30E
:101200001188BFF36F8FBFF34F8F00BFFDE7142628
:10121000164D826906FB0353002A4269C162A4BFCE
:10122000C1F1030181619A421DD1071D384600F0CA
:10123000BCF9E26A0E4C48B901235643A85903FA97
:1012400002F118B9236823EA010323600123142063
:10125000216893400B432360394600FB0250BDE8F0
:10126000F84000F07FB9F8BD808C07208C8C0720F7
:10127000DC8C0720044B1A681AB11968CA6C013259
:10128000CA641868704700BF808C07202DE9F041C0
:101290001E4C1E4680460F461546FFF739FA236856
:1012A00093F85430022B14D0012123681A6D22EADE
:1012B00008021A65236883F8541056B13046FFF7C8
:1012C000ADFA4FF08052124B1A60BFF34F8FBFF34D
:1012D0006F8FFFF72DFAFFF71BFA15B123681B6D0F
:1012E0002B602368002293F85430022B09BF01259C
:1012F00000252368196D04BFB9431965236883F875
:101300005420FFF715FA2846BDE8F081808C0720AD
:1013100004ED00E0F8B50E4617461D46044648B9F0
:101320004FF0A00383F31188BFF36F8FBFF34F8F8C
:1013300000BFFDE7FFF7ECF90DB1236D2B60022331
:1013400094F8545084F85430EDB2042F16D8DFE8E6
:1013500007F00A0307051100216D0E43266502E020
:10136000236D01332365012D15D00125FFF7E0F929
:101370002846F8BD022DF1D10025F7E7236D013392
:10138000F1D04FF0A00383F31188BFF36F8FBFF349
:101390004F8F00BFFDE7261D304600F006F91449C7
:1013A000E26A086805FA02F3034314200B60114B4C
:1013B000314600FB023000F0D5F8A36A4BB14FF084
:1013C000A00383F31188BFF36F8FBFF34F8F00BF6C
:1013D000FDE7094BE26A1B68DB6A9A42C5D94FF008
:1013E0008052064B1A60BFF34F8FBFF36F8FBDE77C
:1013F000DC8C07208C8C0720808C072004ED00E01B
:101400002DE9F843DDF820800E4691461D4604463E
:1014100048B94FF0A00383F31188BFF36F8FBFF378
:101420004F8F00BFFDE7FFF7E5F9EFF311874FF0AE
:10143000A00383F31188BFF36F8FBFF34F8F0DB1FC
:10144000236D2B60022394F8545084F85430EDB28D
:10145000B9F1040F16D8DFE809F00A0307051100F7
:10146000216D0E43266502E0236D01332365012DB6
:1014700015D0012087F31188BDE8F883022DF1D142
:101480000020F7E7236D0133F1D04FF0A00383F381
:101490001188BFF36F8FBFF34F8F00BFFDE7A36AC3
:1014A0004BB14FF0A00383F31188BFF36F8FBFF3ED
:1014B0004F8F00BFFDE7134B1B68FBB9261D30465D
:1014C00000F073F8104A1420E36A11689D400D4340
:1014D000314615600D4A00FB032000F043F80C4B29
:1014E000E26A1B68DB6A9A42C3D90123B8F1000F94
:1014F00001D0C8F80030074A1360BAE704F11801B8
:101500000548EAE7D48C0720DC8C07208C8C072068
:10151000808C0720588D0720148D072038B505468C
:1015200008B9084B1D680024FFF7F2F895F854300D
:10153000022B04BF85F854400124FFF7F9F8204638
:1015400038BD00BF808C07204FF0FF3200F1080348
:101550004360C0E902230361002303607047002356
:101560000361704743689A684B608A609A6851606B
:101570009960036808610133036070470A6830B5F9
:10158000531C0AD103695A684A6091608B605960A4
:10159000036808610133036030BD00F108035C6833
:1015A00025689542EFD82346F9E70369D0E901128F
:1015B0008A60826851605968814208BF5A6000227F
:1015C00002611A68013A1A6018687047F8B50F4C42
:1015D000FFF79EF82568ADB90D4F0E4E3846FFF760
:1015E000B3FF3046FFF7B0FF0B4B2A461F600B4B93
:1015F00010211E201E6000F0ABFB206010B10849D6
:1016000000F0B8FEBDE8F840FFF792B8908D0720D3
:10161000648D0720788D07205C8D0720608D072062
:10162000E1F40800914208B5416000610AD8D21A7D
:1016300083699A420DD2084B011D1868FFF79EFF7F
:10164000002008BD9A4201D2994202D2011D034BEB
:10165000F3E70120F5E700BF608D07205C8D0720D0
:1016600007B5FFF7B3FF0E4B1B684BB94FF0A00354
:1016700083F31188BFF36F8FBFF34F8F00BFFDE778
:10168000084B4FF4967201930223074900930748D1
:101690000023FFF741F90028E8D003B05DF804FB10
:1016A000908D0720948D0720E6F40800D5170800D8
:1016B0002DE9F04180462C200D4617461E4600F0CD
:1016C000ADF90446B0B14DB94FF0A00383F31188D2
:1016D000BFF36F8FBFF34F8F00BFFDE7FFF776FFBC
:1016E000069BC4F80080C4E9065726626362201D89
:1016F000FFF735FF2046BDE8F081000030B5154604
:1017000085B01A46034648B94FF0A00383F3118809
:10171000BFF36F8FBFF34F8F00BFFDE70C4C206806
:1017200078B10529CDE9001502930CDCFFF794FC94
:10173000002302280CBF089A1A466946206800F068
:101740002DFB05B030BD0023694600F0EFFBF8E744
:10175000908D07202DE9F3414FF000081B4D2B68B9
:101760001A6832B91A4A11681360296002B0BDE8DC
:10177000F081DB68DC681E68271D3846FFF715FF1F
:10178000636A20469847E369012BE8D1A369334493
:101790009E4206D26360246139462868FFF7EEFE58
:1017A000DDE70023CDF80080324619462046FFF7DA
:1017B000A5FF0028D3D14FF0A00383F31188BFF316
:1017C0006F8FBFF34F8F00BFFDE700BF5C8D072019
:1017D000608D07202DE9F04F6D4DDFF8C0812F4659
:1017E00087B02A68136853B30024D368D3F80090F5
:1017F000FFF7B6F9FFF7BCF9DFF8A4B18246DBF8D2
:1018000000305E4698421DD3CBF800001CB3614BFC
:101810001B681A68B2FA82F252095F4BA9EB0A01FF
:10182000186800F0B9FDFFF73DFA88B94FF0805312
:10183000C8F80030BFF34F8FBFF36F8F08E001246B
:101840009946D5E7FFF786FFCBF800A0FFF72AFA05
:10185000DFF8449167E081452DD8FFF723FA3B6814
:10186000DB68D3F80CB00BF10400FFF79EFEDBF849
:101870001C30012B1AD1DBF818104B465246494454
:101880005846FFF7CFFE88B1009423464A462146CA
:101890005846FFF733FF48B94FF0A00383F3118890
:1018A000BFF36F8FBFF34F8F00BFFDE7DBF824302E
:1018B00058469847CCE72246AFE7A169039B5A46B2
:1018C00019442046FFF7AEFE68B3636A2046984786
:1018D000E369012B27D1A2690399CDF800A00A443E
:1018E000534651462046FFF709FFE0B94FF0A003E9
:1018F00083F31188BFF36F8FBFF34F8F00BFFDE7F6
:101900000399A16149B94FF0A00383F31188BFF394
:101910006F8FBFF34F8F00BFFDE75B465A465944B8
:101920002046FFF77FFE002202A9D9F8000000F050
:10193000B9FB00283FF455AF029B002B03DADDE929
:101940000401039B9847029B002BECDB049C63691A
:1019500013B1201DFFF729FEFFF70AF9336883460C
:10196000984201D2FFF7F6FE029AC6F800B0092AA3
:10197000D9D80123934013F4047AC1D113F0C70FCF
:101980009BD19B06CFD5204600F0DEF8CBE700BF09
:101990005C8D0720608D0720908D072004ED00E00E
:1019A0008C8D072010B5044648B94FF0A00383F38F
:1019B0001188BFF36F8FBFF34F8F00BFFDE7FEF7B6
:1019C000A7FE6469003418BF0124FEF7B1FE20466B
:1019D00010BD000010B50F4B1A68824218D35C6826
:1019E0001919884201BF41681846091959604468AD
:1019F00001198A4207D1084909688A421FBF516804
:101A00001268091941609842026018BF186010BD41
:101A10001346E1E7E8290820988D07202DE9F041D9
:101A2000424D0446FFF79CF82B684148FBB94149F9
:101A300000234E070FBF49F6404207313E4A21F0CE
:101A4000070118BF521A0A443C4E083A22F0070216
:101A500073603160C2E90033531AC1E900232A6080
:101A6000374A1360374A13604FF00043036007683A
:101A7000274205D0FFF716F9FEF742FC002546E0A5
:101A8000002CF7D004F1080358071CBF23F007030C
:101A90000833002BEED02B4A166890469E42E9D3BD
:101AA000264A14686068984201D22168A9B9296859
:101AB000A142DFD0216815681160C21A102A13D91B
:101AC000E01841070CD04FF0A00383F31188BFF357
:101AD0006F8FBFF34F8F00BFFDE722460C46E1E753
:101AE00042606360FFF776FF00231549626808686B
:101AF000B61A1743864205F108056760236038BFB0
:101B00000E60C8F80060FFF7CDF8002DB4D06B0769
:101B100009D04FF0A00383F31188BFF36F8FBFF399
:101B20004F8F00BFFDE72846BDE8F081988D072064
:101B3000DC2908209C8D0720DC290820E8290820C2
:101B4000E4290820E029082010B5044680B3194A8A
:101B500050F8043C1268134209D14FF0A00383F3FC
:101B60001188BFF36F8FBFF34F8F00BFFDE750F8B1
:101B7000081C49B14FF0A00383F31188BFF36F8FA6
:101B8000BFF34F8F00BFFDE723EA020340F8043C98
:101B9000FEF7E6FF084A54F8043C1168A4F1080077
:101BA0000B441360FFF716FFBDE81040FFF77AB84B
:101BB00010BD00BFDC290820E029082010B504462C
:101BC000FEF7A6FDA46BFEF7B3FDB4FA84F040095E
:101BD00010BD70B51546026C0446866B42B90568A7
:101BE0009DB98068FFF79AFAA5600136A66370BDBB
:101BF0006DB9406809F0F0FD6368226C1344A26877
:101C00006360934201D3236863600020EDE7C068FE
:101C100009F0E2FD236CE2685B4221681A448A42C3
:101C2000E2603EBFA2689B18E360022DEDD10EB1C9
:101C3000013EEAE73046D8E703461A6C10B408467E
:101C400062B1D9689C681144A142D96028BF196863
:101C500010BC28BFD960D96809F0BEBD10BC704760
:101C600070B50446FEF754FD94F8455004F124067F
:101C70006DB2002D14DCFF2384F84530FEF758FDCB
:101C8000FEF746FD94F8445004F110066DB2002DA5
:101C900012DCFF2384F84430BDE87040FEF748BDF5
:101CA000636A002BE7D03046FFF710F908B1FFF761
:101CB000B7F9013D6DB2DCE72369002BE9D030466E
:101CC000FFF704F908B1FFF7ABF9013D6DB2DEE7AC
:101CD00038B50D46044648B94FF0A00383F3118888
:101CE000BFF36F8FBFF34F8F00BFFDE7FEF710FD0F
:101CF000D4E90F3043432268D1181B1A1344A16062
:101D0000E3600021FF23A163626084F8443084F81B
:101D1000453095B9236963B104F11000FFF7D6F897
:101D200038B14FF08052094B1A60BFF34F8FBFF3A9
:101D30006F8FFEF7FDFC012038BD04F11000FFF7A6
:101D400003FC04F12400FFF7FFFBF2E704ED00E0E1
:101D5000F8B50D461746064648B94FF0A00383F381
:101D60001188BFF36F8FBFF34F8F00BFFDE748436C
:101D70005030FFF753FE044648B155B92060C4E91E
:101D80000F6501212046FFF7A3FF84F84C70204621
:101D9000F8BD00F150030360F1E700002DE9FF47B3
:101DA000884601921F46044648B94FF0A00383F3CA
:101DB0001188BFF36F8FBFF34F8F00BFFDE759B995
:101DC000036C4BB14FF0A00383F31188BFF36F8F07
:101DD000BFF34F8F00BFFDE7022F0CD1E36B012B48
:101DE00009D04FF0A00383F31188BFF36F8FBFF3C7
:101DF0004F8F00BFFDE7FFF72FF958B9019E56B18D
:101E00004FF0A00383F31188BFF36F8FBFF34F8FA1
:101E100000BFFDE700264FF00009DFF8E8A037E03B
:101E2000019D1DB9FEF784FC002050E016B902A800
:101E3000FFF7ACF8FEF77CFCFEF792FEFEF768FCBD
:101E400094F84430FF2B08BF84F8449094F8453050
:101E5000FF2B08BF84F84590FEF76AFC01A902A891
:101E6000FFF7A0F8002846D1FEF752FCA26BE36B07
:101E70009A422FD1FEF75CFC019904F11000FEF7A5
:101E8000EBFF2046FFF7ECFEFEF70CFF50B30126F8
:101E9000FEF73EFCA26BE36B9A4201D3022FBFD147
:101EA0003A4641462046FFF794FE636A1BB104F1AF
:101EB0002400FFF70BF838B14FF08052114B1A6035
:101EC000BFF34F8FBFF36F8FFEF732FC012004B0DA
:101ED000BDE8F087FEF72CFC2046FFF7C1FEFEF7B9
:101EE000E1FED4E74FF08053CAF80030BFF34F8FC4
:101EF000BFF36F8FCBE72046FFF7B2FEFEF7D2FEAF
:101F000092E700BF04ED00E010B502460021012079
:101F1000FFF71EFF044638B1002383600360C360EF
:101F20001A461946FFF73AFF204610BD2DE9F8433F
:101F3000894690461F46044648B94FF0A00383F3F4
:101F40001188BFF36F8FBFF34F8F00BFFDE759B903
:101F5000036C4BB14FF0A00383F31188BFF36F8F75
:101F6000BFF34F8F00BFFDE7022F0CD1E36B012BB6
:101F700009D04FF0A00383F31188BFF36F8FBFF335
:101F80004F8F00BFFDE7FEF735FCEFF311864FF0F2
:101F9000A00383F31188BFF36F8FBFF34F8FA26B42
:101FA000E36B9A4201D3022F22D194F845503A466E
:101FB0006DB249462046FFF70CFE6B1C13D1636AD5
:101FC0000BB901200BE004F12400FEF77FFF00288D
:101FD000F7D0B8F1000FF4D00120C8F8000086F364
:101FE0001188BDE8F88301356DB284F84550E8E703
:101FF0000020F4E770B50D46044648B94FF0A00341
:1020000083F31188BFF36F8FBFF34F8F00BFFDE7DE
:10201000036C4BB14FF0A00383F31188BFF36F8FB4
:10202000BFF34F8F00BFFDE703685BB983684BB117
:102030004FF0A00383F31188BFF36F8FBFF34F8F6F
:1020400000BFFDE7FEF7D6FBEFF311864FF0A003CC
:1020500083F31188BFF36F8FBFF34F8FA26BE36BD6
:1020600093421CD994F8453001325BB2A2635A1CEA
:1020700010D1636A0BB9012009E004F12400FEF7D6
:1020800025FF0028F7D0002DF5D00120286086F329
:10209000118870BD01335BB284F84530EBE7002056
:1020A000F5E700002DE9F04385B00F4601920446A4
:1020B00048B94FF0A00383F31188BFF36F8FBFF3CC
:1020C0004F8F00BFFDE759B9036C4BB14FF0A00330
:1020D00083F31188BFF36F8FBFF34F8F00BFFDE70E
:1020E000FEF7BAFF58B9019E56B14FF0A00383F333
:1020F0001188BFF36F8FBFF34F8F00BFFDE700263E
:102100004FF00008DFF8DC903BE0019D1DB9FEF7C1
:102110000FFB002052E016B902A8FEF737FFFEF7CA
:1021200007FBFEF71DFDFEF7F3FA94F84430FF2B92
:1021300008BF84F8448094F84530FF2B08BF84F82A
:102140004580FEF7F5FA01A902A8FEF72BFF00284B
:102150003DD12046FFF732FD98B3019904F12400E8
:10216000FEF77AFE2046FFF77BFDFEF79BFD38B9B0
:102170004FF08053C9F80030BFF34F8FBFF36F8F1C
:102180000126FEF7C5FAA56B002DBED039462046C4
:10219000013DFFF751FDA563236963B104F1100010
:1021A000FEF794FE38B14FF080520E4B1A60BFF329
:1021B0004F8FBFF36F8FFEF7BBFA012005B0BDE86C
:1021C000F0832046FFF74CFDFEF76CFDD8E7204674
:1021D000FFF746FDFEF766FD2046FFF7EFFC0028FF
:1021E000CED096E704ED00E02DE9FF4104460191D1
:1021F00048B94FF0A00383F31188BFF36F8FBFF38B
:102200004F8F00BFFDE7056C4DB14FF0A00383F386
:102210001188BFF36F8FBFF34F8F00BFFDE7FEF74D
:102220001BFF58B9019D4DB14FF0A00383F31188F6
:10223000BFF36F8FBFF34F8F00BFFDE72E46002720
:10224000DFF82C8150E0019B6BB94DB14FF0A0033A
:1022500083F31188BFF36F8FBFF34F8F00BFFDE78C
:10226000FEF766FA5EE016B902A8FEF78FFEFEF7EB
:102270005FFAFEF775FCFEF74BFA94F84430FF2B3B
:1022800008BF84F8447094F84530FF2B08BF84F8E9
:102290004570FEF74DFA01A902A8FEF783FE00285B
:1022A0004AD12046FFF78AFC00283FD023683BB97B
:1022B000FEF72EFAA068FEF7DFFE0546FEF738FAB5
:1022C000019904F12400FEF7C7FD2046FFF7C8FC82
:1022D000FEF7E8FC38B94FF08053C8F80030BFF380
:1022E0004F8FBFF36F8F0126FEF712FAA36B002BFF
:1022F000A9D0013BA363236813B9FEF7BBFFA0601D
:10230000236963B104F11000FEF7E0FD38B14FF02E
:102310008052174B1A60BFF34F8FBFF36F8FFEF7DA
:1023200007FA0125284604B0BDE8F0812046FFF7F2
:1023300097FCFEF7B7FCD6E72046FFF791FCFEF7C7
:10234000B1FC2046FFF73AFC0028CCD0002DE9D0A4
:10235000FEF7DEF9616A19B1236B1968C1F1030157
:10236000A068FEF72DFF0025FEF7E2F9DAE700BFCF
:1023700004ED00E0002330B5064A52F83350DC008B
:1023800025B942F833102244506030BD0133082B88
:10239000F3D1FAE7F029082070B504460D46164639
:1023A000FEF7B6F994F84430FF2B04BF002384F8FD
:1023B000443094F84530FF2B04BF002384F84530A7
:1023C000FEF7B6F9A36B2BB93246294604F1240077
:1023D000FEF75CFD2046BDE87040FFF741BC000001
:1023E00008B5044A0121002001F0ACFABDE808401C
:1023F00001F078BCD4F50800002330B5064C95B246
:1024000021449CB2AC4202D30023835430BDCC5C47
:10241000C4540133F5E700BFEC2B0820F0B5274882
:10242000B7B009F079FB0223C5B201AE2A462449B0
:1024300030468DF8103009F0ADFA9DF804309DF863
:1024400005005A1C8DF8113000239DF80610024437
:102450008DF8120019488DF813100A44D9B28D4234
:1024600024D892B21749304609F094FA0023ACB24E
:10247000271DFA1836A992B20A44F15C0133042BE5
:1024800002F8C81CF5D1032236AB234403F8C02C54
:1024900036AB1C440A2304F8BF3C0B4B05F10A027F
:1024A000186804A9C368984737B0F0BD195C04AC3C
:1024B0001C4421710A440133D0E700BFF22D0820EB
:1024C000CAF50800CFF50800902E082007B5435C38
:1024D000013189B28DF80430435C0021102201A83B
:1024E0008DF805308DF8061009F008FCC0B203B075
:1024F0005DF804FB2DE9F743224B04460093B32318
:1025000000F14606204F214DDFF88480ADF80430FD
:10251000B6B24FF0000904EB8901042289B23846B3
:10252000FFF76AFF1022002109F0E8FB1022A881C2
:102530000021384609F0E2FBAB883DF8192009EB91
:10254000830309F1010905EB43035040B9F1030F7F
:102550009882E0D104F10C0189B24046FFF7B6FF42
:10256000AB880E3405EBC302508301332A889BB23B
:102570009A42A4B2AB8001D9B442CAD103B0BDE83B
:10258000F08300BF63002800EC2D08209080072016
:10259000EC2B082010B5084C4FF4807204F10801B0
:1025A000201D00F0F3FC636803F580736360002373
:1025B000A4F8183110BD00BFC82A08200A4B0B4AE6
:1025C000B3F8101102EBC102D18A128BC3F80C11BF
:1025D0000A440132C3F81421012283F81221002297
:1025E000A3F81821704700BFC82A08209080072050
:1025F0000A4B10B5596803F58070C91ACA580433DC
:10260000C2F307241A715C71C2F30744C2F3076274
:102610009C71DA718342F1D110BD00BFC82A082035
:102620002DE9F04F04460E46AE4FAF4DDFF8EC8279
:102630008FB03B88B3EB440F0BDC6B78013B042B72
:1026400000F24D81DFE813F00F007000B000C4000D
:10265000CA0031464046FFF739FF0236285501349B
:10266000A4B2B6B2E5E70DF1170000F095FC002822
:1026700000F02F819DF817009C4D00284ED09C4AF9
:102680000121002001F05EF900232B60994B0EAC74
:1026900044F8203D2146984809F0C0F99749204662
:1026A0008B784A78C9780091954909F073F92146E9
:1026B000914809F0B3F9FDF731FE924902462046F0
:1026C00009F068F921468C4809F0A8F9FDF728FEC1
:1026D0008C490246204609F05DF92146864809F0FA
:1026E0009DF9FDF71FFE87490246204609F052F981
:1026F0002146814809F092F900F076FC064600F088
:102700007BFC2B688049009332460346204609F043
:1027100041F92146784809F081F988E07B4A012196
:1027200001F010F90123B0E7A9782B79784CEE7805
:102730006D7981F0590283F01A00A274E0746A4046
:10274000704002EB002281F0350183F0CD0303EBF2
:102750000123A260142104226E482382FFF74CFE5D
:10276000102200216B4809F0C9FA238A042258403C
:1027700060801A216748FFF73FFE0021102265485C
:1027800009F0BCFA238A58404FF6FF73A081E38119
:1027900000245648A0F81041FFF710FF5E4980F86A
:1027A0001A41A0F81C41B5E7042208215948FFF757
:1027B00023FE10220021574809F0A0FA0022544BB2
:1027C000564918800C209A80FFF794FE5449A1E7DF
:1027D00052490820FFF78EFE52499BE7434C94F87C
:1027E0001A71002F79D00025494EA846B346A4F8A7
:1027F0001051B4F8102133889A421BD3B368ADB29C
:10280000AB4268D1207800F0FFFB002861D0464938
:10281000394809F003F9454B1C68FEF7A9F90A236A
:1028200002460093012100232046FEF767FF0FB008
:10283000BDE8F08F4FF00009FFF7C0FEB4F810219B
:1028400006EBC203DB8A06EBC202928AA4F80A31C5
:1028500003F47F4303EB02136360B4F810310BEB16
:10286000C302128B01324A4503D80133A4F8103158
:10287000BFE7FFF7BDFE6368B4F80AC103F58073D4
:1028800063601CF0FF03A4F8188118BFA4F8183186
:10289000D4F81431B4F818E10393002318469AB21F
:1028A0000CEB0201724492B2FF2A09EB030A89B2CF
:1028B00004D908B1A4F80A11D146CEE7039A01332E
:1028C0009142F6D20EEB03022244D27938461544E7
:1028D000E5E717491EE717491CE717491AE71749A3
:1028E00018E700BFE82B0820302A0820C82A082053
:1028F0003FF5080036303A00F22D0820F8F30800C2
:1029000061F5080069F508006DF5080050F508004C
:1029100090800720EC2D08207BF50800EC2B082088
:102920007EF5080081F5080084F50800882E08204F
:1029300078F5080087F508008AF508008DF508008D
:102940000149024809F06AB88DF50800F22D082007
:1029500010B5244A9178D378234A03EB012392F8E7
:1029600012119BB2A2F80831144669B1B2F81011E5
:102970001E4A02EBC102928A9A4230D11C491D487C
:10298000BDE8104009F04AB8B2F818314BB1FF2049
:10299000DA1D2244FF2B18D909B1A4F81831FFF72A
:1029A000F9FDB4F810311148013302889BB29A4204
:1029B000A4F810310FD0FFF701FEB4F81031B4F8CD
:1029C000082100EBC300838AD6E7013302F8010F28
:1029D0009BB20121DEE7012384F81A31CEE70649D4
:1029E000CDE700BF302A0820C82A082090800720A1
:1029F00084F50800F22D082007F5080004220021C4
:102A0000F0B56B4C6B4EB4F81E71B4F81C3185B048
:102A100090B2874200F2888009B1A4F81C31F31902
:102A2000F25D5B7803EB0223B4F81C219BB29A425F
:102A300040F0B780B278F37803EB022394F81221C8
:102A40009BB2A4F80A3122B35B4DB4F8102105EB18
:102A5000C202D28A9A426DD1584A0121002000F068
:102A600071FF002384F81231B4F81031B4F80A2150
:102A700005EBC305A98A02F47F4303EB011312F0AF
:102A8000FF0F636005D0FFF7B3FD94F80A31A4F897
:102A900018310425AF4259D1842F1AD0D4F814210B
:102AA000D4F80C319A426DD1B4F818318BB1444A44
:102AB0000121002000F046FF0021FF20B4F818316A
:102AC000DA1D2244FF2B57D909B1A4F81831FFF7BA
:102AD00061FDD4F80C21D4F81431374D9A4214D149
:102AE000384A0121002000F02DFFB4F810312A8867
:102AF00001339BB29A42A4F810314ED0324A0121E0
:102B0000002000F01FFFFFF759FD3049304808F062
:102B100085FFEA892F4901A808F03CFF01A92C484C
:102B200008F07CFF00200FE0B15C01320B449BB247
:102B300001216DE7284A0121002000F003FF274909
:102B4000234808F06BFF072005B0F0BDB4F818214A
:102B5000715D531C9BB22244B3F5807FA4F81831F9
:102B6000117201D1FFF716FDD4F80C310135013394
:102B7000C4F80C31ADB28DE7013302F8010F9BB2FE
:102B800001219FE7164A0121002000F0DBFE1549D4
:102B90000F4808F043FF0820D6E7012384F81A31D4
:102BA000B3E711490A4808F039FF0420CCE700BF19
:102BB000C82A0820302A0820908007200AF508003B
:102BC0001BF508002CF5080031F5080036F5080063
:102BD000F22D0820CAF508000FF5080018F50800C6
:102BE00020F5080029F5080039F5080008B5064B5E
:102BF000B3F818310BB1FFF7CDFCBDE8084003492D
:102C0000034808F00BBF00BFC82A08203CF50800A5
:102C1000F22D08202DE9F047404C414B61781B888C
:102C20000829404E4FF0020221D1073B93FBF2F3FB
:102C30003D480322A6F81E31FFF7DEFB3B4B102276
:102C4000DD8900210135ADB23748DD8109F056F844
:102C5000C0F30B00854208D196F81A3123B33449EA
:102C60003448BDE8F04708F0D9BE3349F8E7043BE3
:102C700093FBF2F34FF00808A6F81E310025DFF8A9
:102C8000C4902A4FB6F81E311FFA85FA08EB4A01A4
:102C9000534589B20BD86378053B042B32D8DFE863
:102CA00003F0212531292D004FF00B08E6E74846B7
:102CB000FFF70CFC0AF0010ABA449AF812306B4094
:102CC0005840C0B200F00F023A4407EB101092F8DF
:102CD000141190F81421ABB2234402EB01129A7044
:102CE0000135CFE7BDE8F047FFF72ABEBDE8F04762
:102CF000FFF72EBEBDE8F047FFF780BEBDE8F04706
:102D0000FFF774BF0D490B4808F088FEBDE8F04797
:102D10000B4A0121002000F015BE00BF302A082018
:102D2000E82B0820C82A0820EC2D082090800720D6
:102D3000EEF40800F22D0820C4F308008DF5080019
:102D4000F1F40800EC2B082010B504211148FFF71E
:102D5000BDFB114C062120700E48FFF7B7FB042283
:102D6000607011460D48FFF747FB2378202B06D0F3
:102D7000262B0CD00A49094808F050FE03E0082130
:102D80000220FFF74DFCBDE81040FFF747BBFFF7FF
:102D900041FFF8E7EC2B0820302A0820F22D08200C
:102DA0008DF508002DE9F3470024264627463E4DC1
:102DB000002000F0EFFE002003F02CFA012003F0C9
:102DC00029FA00F0A5FD394B012218680DF1070121
:102DD0000A23806902F020F800285AD02B78022BB1
:102DE00018BF00269DF80730B6F5007FAB5534BFFD
:102DF000334600235E1CEB5CB6B20A2B49D12C4B48
:102E00001E8000262B78022B41D1294C2388013BC0
:102E1000EB5C0A2B3BD103220121264895F8018067
:102E200095F802A095F80390FFF7E6FA002110222A
:102E3000204808F063FF204B81B2198023885FFA95
:102E400088F80A3B99425FFA8AFA5FFA89F927D132
:102E5000002208F1010454444C4490B2031D814205
:102E60009BB219D80433EB5C0431032B89B217D120
:102E700004221048FFF7C0FA102200210D4808F084
:102E80003DFF4440A4B264B9FFF75EFF90E7012420
:102E90008EE7002C8CD0B5E7EB5C01321C44DCE7FC
:102EA0002F70002484E700BFEC2B0820902E082010
:102EB000EA2B0820EC2D0820E82B08201F4B37B503
:102EC0001C78002C37D101251D4A294620461D704B
:102ED00000F038FD00F048F81A4B1B481D701B4BE2
:102EE0004E2218604FF4E13143699847032221468E
:102EF0002846FEF72DFF20B1234622462146FEF745
:102F00004DFF134B4FF47A710093012200231148B7
:102F1000FEF7CEFB104B0146186010B90F4A00F0C7
:102F200011FD012200230E49CDE900230D484FF485
:102F30001672FDF7F1FC03B030BD00BFC62A0820B1
:102F400090F508008C2E0820B4810720902E0820D0
:102F5000E12308009FF50800882E0820A7F5080047
:102F6000BEF50800A52D080010B50621002002F0CE
:102F70005BFF034630B1BDE81040034A0121002049
:102F800000F0E0BC10BD00BFDDF5080001234FF4E8
:102F90008072006802F05CBF70B5002204460D210B
:102FA0000E4802F0F7FE0646A8B90C4802F0DDFE16
:102FB00010F0040507D00A4A0121304600F0C2FC97
:102FC0000120207070BD074A0121284600F0BAFC9C
:102FD00025700120F6E70020F4E700BF000A0E404C
:102FE0003FF5080050F50800024B1868C0F3075081
:102FF000704700BF40090E40024B1868C0F3032021
:10300000704700BF40090E4008B5022238B10B21BD
:10301000044802F0BFFEB0FA80F0400908BD0C2160
:10302000F6E700BF000A0E400023C0E90033C0E904
:103030000233C0E90433C0E90633704708B5064AD5
:103040000121002000F07EFCBDE80840034A012178
:10305000002000F077BC00BF7FF6080095F608005E
:1030600030B5304893B002F063FC10F0FF0F52D03F
:1030700000252C4CE9B2204602F062FC03024CD53C
:10308000294CA06021462748256002F0AAFCE3698C
:1030900012A90293A369082241F8443D05A808F04B
:1030A0009BFB0022236920460393A3798DF81D2002
:1030B0008DF81C3063799B1A18BF01238DF81030EE
:1030C000FFF7B2FF19491A480B68009201330B60F1
:1030D000134603991D2B50F823201AD0914203F177
:1030E0000103F7D10023142203A909A88DF8203089
:1030F00008F072FB694608A800F0D0FA009B53B1B3
:103100004FF080520B4B1A60BFF34F8FBFF36F8F9E
:1031100001E09142E6D013B030BD0135082DA9D1B0
:10312000F9E700BF00400B40982E08202830082007
:103130003430082004ED00E030B5304893B002F0A0
:10314000F7FB10F0FF0F52D000252C4CE9B22046BF
:1031500002F0F6FB03024CD5294CA060214627481B
:10316000256002F03EFCE36912A90293A3690822DC
:1031700041F8443D05A808F02FFB2369204603933E
:10318000A3798DF81C3001238DF81D30637900334D
:1031900018BF01238DF81030FFF746FF00231949AF
:1031A00019484A68009301324A6003991A18742B2F
:1031B000926F1AD0914203F10403F7D10123142234
:1031C00003A909A88DF8203008F006FB694608A875
:1031D00000F064FA009B53B14FF080520B4B1A6021
:1031E000BFF34F8FBFF36F8F01E09142E6D013B072
:1031F00030BD0135082DA9D1F9E700BF00800B4093
:10320000C02E0820283008203430082004ED00E0CB
:103210002DE9F34704463A4D407C3A4E2F5C81003D
:103220000A183A4406EB4213A268D4F800C09A6127
:10323000E268DA612279A2B10122C3F810C05A71A2
:103240000B183B44227C06EB43139A7178B101289A
:1032500004D02D4A0121002000F074FBDFF8B48077
:1032600007E05A71294A02EA8C421A61E8E7DFF85E
:10327000A8800C27DFF8A490637C404603EB830111
:10328000EB5C194406EB411102F0E5FB0128824694
:10329000637C14D00821EB5C40469940C9B202F02F
:1032A00049FB0522617C6B5C0133DBB2B3FBF2F2BC
:1032B00002EB82029B1A6B5402B0BDE8F087EA5C15
:1032C0005146009200204A4600F03CFB013F052099
:1032D000FDF760FD17F0FF07CED151460C4A384686
:1032E00000F030FB4046637C03EB8301EB5C194448
:1032F00006EB411102B0BDE8F04702F032BB00BF5F
:10330000942E0820E82E082043F608000000FC1F39
:1033100074F6080000800B4000400B405EF6080089
:10332000014802F0D3BE00BFB82E0820014802F0C9
:10333000BFBE00BFB82E08202DE9F0410446382159
:103340001A4802F0B3FEFFF7F1FF2B2002F0C2FA99
:1033500022461749174802F0B5FB20B1164A012151
:10336000002000F0EFFA03254FF0FF31114802F082
:10337000DDFA104802F095FBA84600260F4C0D4FD1
:103380002046FFF751FEEB00093B256084F80480DE
:10339000E3716671E66021463846013502F0EDFAC8
:1033A000082D04F12004EBD1BDE8F081B82E0820EF
:1033B00000BD010500400B40FCF50800E82E082088
:1033C000014802F075BE00BFE02E08202DE9F04153
:1033D000044636211A4802F069FEFFF7F1FF2C205F
:1033E00002F078FA22461749174802F06BFB20B129
:1033F000164A0121002000F0A5FA03254FF0FF3105
:10340000114802F093FA104802F04BFBA846002640
:103410000F4C0D4F2046FFF707FEEB00093B2560E0
:1034200084F80480E3716671E66021463846013510
:1034300002F0A3FA082D04F12004EBD1BDE8F081DD
:10344000E02E082000BD010500800B401CF608009E
:10345000882F08200D4938B50846FFF7E5FD002301
:1034600001250B4C0B60CB600A4B20460B610D71A4
:1034700002F083FA2946204602F056FA4FF4006221
:10348000054B5A60F02283F82B2338BD982E082074
:1034900000400B400000FC1F00E100E00D4938B582
:1034A0000846FFF7C1FD002301250B4C0B60CB60E4
:1034B0000A4B20460B610D7102F05FFA2946204647
:1034C00002F032FA4FF48052054B5A60F02283F832
:1034D0002C2338BDC02E082000800B400000FC1FAC
:1034E00000E100E007B5074B0122009342F21071A2
:1034F00000230548FEF7DCF8044B186003B05DF8C4
:1035000004FB00BF3D3008003CF6080030300820C6
:103510000023011D02481A460068FEF73FBC00BFA9
:10352000283108207FB51420FDF734FC0F4D104CD6
:103530004FF0FF3201A92868FEF7B4FD48B19DF8AD
:103540001530012B05D801A8FFF762FE1420FDF706
:1035500021FC0020FDF76AFD6328E9D82346054ACF
:103560000121002000F0EEF9E2E700BF2831082039
:10357000AEF60800D6F6080078220D4B10B502FB17
:103580000032002352F82340980044B1A4EB010C10
:10359000DCF1000040EB0C001D2B03D110BD1150DD
:1035A0000120FBE78C4203F10103EBD1F8E700BFF8
:1035B00034300820F7B51A4E074634786CBB012525
:1035C0002346019400954FF4967216491648FDF76C
:1035D000A3F9224614211020FEF7BAFB134B144A1C
:1035E00018602946204600F0ADF9FFF77BFF3868E8
:1035F000FFF7A2FEB868FFF7E9FEFFF72BFFFFF722
:103600004DFF0C490220357000F040F803200949B5
:1036100003B0BDE8F04000F039B803B0F0BD00BF22
:1036200024310820BDF6080025350800283108207F
:10363000C6F6080011350800022310B58AB00AAC9E
:1036400004F8283D0146142201A808F0C5F82046D8
:1036500000F038F80AB010BD70B504460E46236875
:1036600023B92660012010E02C46F8E7B342F9D0D8
:103670006568002DF8D10821012007F0B9FD08B1D7
:10368000C0E9005560600028E9D170BD024B03EB32
:10369000C000FFF7E1BF00BFE83108200A4601463D
:1036A000064808B500680023FEF740FC014620B933
:1036B000BDE80840024A00F045B908BD7033082053
:1036C0000DF7080001460348002305220068FEF7B5
:1036D00065BB00BF7033082010B54FF461628AB03B
:1036E000044600F10801D1E90001002307F0FAFBCC
:1036F00013430AD128222146684608F06DF80923B1
:1037000068468DF80030FFF7DDFF0AB010BD10B538
:103710003C228AB0044600F10801D1E900010023EF
:1037200007F0E0FB13430AD128222146684608F03F
:1037300053F8082368468DF80030FFF7C3FF0AB03E
:1037400010BD00002DE91048144C8BB023785A1C92
:10375000132B227018D9124B124A0421002000F0BA
:10376000F1F8072310498DF80030D1E900BC1BF1B6
:1037700001024CF100036846C1E90023CDE902BC17
:10378000FFF7A0FF00232370062368468DF8003062
:10379000FFF798FF0BB0BDE8108800BF6133082029
:1037A000EAF60800B9F308006833082038B5037852
:1037B00005462E2B10D8094C04EBC304236823B113
:1037C000284698476468002CF8D12978044A52F8B2
:1037D0002130013342F8213038BD00BFE8310820E4
:1037E0002C31082000B50C4D0C4C8BB04FF4FA7204
:1037F00069462868FEF756FC10B16846FFF7D6FF09
:103800000020FDF713FC6328F0D82346044A012169
:10381000002000F097F8E9E770330820F7F6080079
:10382000D6F60800F7B5214E214B224A012100208F
:1038300000F088F83478002C35D122462821362033
:10384000FEF786FA01251C4B4FF4167218601B49CF
:103850002346019400951A48FDF75EF84FF407637C
:10386000184A009302214FF4BC73032000F06AF859
:10387000154B2A463221009314482346FDF718FFC2
:103880000746FDF775F92346024629460094384657
:10389000FDF734FF0E490F48FFF7DEFE0E490F48D3
:1038A000FFF7DAFE357003B0F0BD00BF60330820CB
:1038B00002F70800B9F30800703308201EF708006B
:1038C000E537080029F708004537080060F70800C9
:1038D0000F37080020320820D93608002832082087
:1038E00010B54FF40041074802F0C2F9064C83B20C
:1038F0001A462046054902F0CFF92046BDE810409F
:1039000002F0D6B900093D00501A0E4000600010C8
:10391000014802F0CDB900BF501A0E404FF060438D
:10392000013810F8012F02B97047D3F8801EC9077B
:10393000F7D5D3F8001EC907F3D519680029FCD0C4
:103940001A70EEE70CB437B5184B04461B78CBB9A8
:103950004FF06045D5F8003EC340DB0712D5144B4D
:103960001B5C8B420ED307AB6421069A114801936E
:1039700009F086FC01231049A340A4002C4411F84F
:10398000012F2AB9002003B0BDE8304002B07047D3
:10399000D5F8800EC007F2D5D5F8000E0342EED060
:1039A00020680028FCD02270E9E700BFE23308203D
:1039B000783308207E3308207D33082070B5144604
:1039C00086B004AA0121204600F0F6FF05AA0546AC
:1039D0000221204600F0F0FF0023049A0646AB5473
:1039E000059A33498354284607F0F6FF00284ED045
:1039F0003049284607F0F0FF00284AD02E492846D3
:103A000007F0EAFF002846D02C49284607F0E4FFDB
:103A1000002842D02A49284607F0DEFF00283ED081
:103A20002849284607F0D8FF00280CBF04240624A4
:103A30002549304607F0D0FF98B32449304607F0B7
:103A4000CBFF80B32249304607F0C6FF60B1214961
:103A5000304607F0C1FF40B31F49304607F0BCFFB6
:103A6000002814BF01200420062C18BF1B4B1C4A41
:103A700018BF18550121CDE901602B4600940020A4
:103A8000FFF760FF0020174B187006B070BD0446AA
:103A9000CEE70124CCE70224CAE70324C8E70524C3
:103AA000C6E70120E0E70220DEE70320DCE700BFF5
:103AB00072F70800560909007AF708007FF7080036
:103AC00085F7080089F7080092F7080099F70800C1
:103AD0009EF70800A4F70800ACF708007833082028
:103AE000B2F70800E233082002220A4B10B5012485
:103AF0001A70042208485C70DC709A701C715C714A
:103B000000F02EFF2146BDE81040044B044A00207F
:103B1000FFF718BF783308203CF8080066F7080064
:103B2000B9F308004FF0FF304FF0FF31014BC3E90C
:103B300000017047F833082001232DE9004803FAFB
:103B400000F0074BD3E9002302EA000B03EAE07C14
:103B50005BEA0C0314BF01200020BDE8008800BF11
:103B6000F8330820012303FA00F0C0432DE9004890
:103B70000549D1E9002302EA000B03EAE07CC1E930
:103B800000BCBDE8008800BFF8330820004870473B
:103B9000E433082030B50C4C8BB0227805468242C5
:103BA00003D11020FFF7C8FF58B11020FFF7DAFF4C
:103BB0001023684625708DF800308DF80150FFF70E
:103BC00081FD0BB030BD00BFE433082073B5144D48
:103BD000144A01210020FFF7B5FE02F083FB02F03A
:103BE0006FFC02F021FD02F0E7FD02F0A5FE2C784B
:103BF000A4B90D4B0122642100930C482346FDF724
:103C000057FD0646FCF7B4FF0A2302460093012144
:103C100023463046FDF772FD01232B7002B070BDC4
:103C2000F03308204CF80800253B080060F7080036
:103C3000024B034A01210020FFF784BE5BF8080015
:103C4000B9F3080013B5214801F0D0FFC2070446BC
:103C500018D500230DF103011C48019301F0CFFF9B
:103C60001B4801AB01220DF10301806901F074F8DA
:103C7000019B3BB14FF08052164B1A60BFF34F8F40
:103C8000BFF36F8FA3071AD50022114802AB43F888
:103C9000042D0DF103010122C06901F03CF980B14E
:103CA000019B3BB14FF080520A4B1A60BFF34F8F1C
:103CB000BFF36F8F9DF80310044801F099FF02B025
:103CC00010BD0221014801F08FFFF8E700080E4007
:103CD000B481072004ED00E00121014801F082BF1A
:103CE00000080E40BFF34F8F0449054BCA6802F429
:103CF000E0621343CB60BFF34F8FFEE700ED00E0BF
:103D00000400FA050221014801F06CBF00080E40D2
:103D10007FB5254B04460E4615460121234A002057
:103D2000FFF710FE224B1A782AB122490720FFF72D
:103D3000ADFC04B070BD01221A70A26922B9022143
:103D4000602000F01BFFA061E2692AB902214FF454
:103D5000807000F013FFE0610023174A452D0393A4
:103D6000CDE9002605D04F2D14BF4FF400634FF46A
:103D7000007302934FF48073104C0820236001F00D
:103D8000A9FD69460E4801F00DFF0D4801F027FF1F
:103D90000B4801F021FF0121094801F023FFF02326
:103DA00084F80833C5E700BF6DF80800B9F30800D0
:103DB00000340820313C080000BD010500E100E0AE
:103DC00000080E40024B034A01210020FFF7BABD54
:103DD0007EF8080092F8080013B5214801F06AFC4B
:103DE000C207044618D500230DF103011C480193B6
:103DF00001F06BFC1B4801AB01220DF1030180694E
:103E000000F0AAFF019B3BB14FF08052164B1A60A5
:103E1000BFF34F8FBFF36F8FA3071AD5002211484E
:103E200002AB43F8042D0DF103010122C06901F03A
:103E300072F880B1019B3BB14FF080520A4B1A607F
:103E4000BFF34F8FBFF36F8F9DF80310044801F04D
:103E500033FC02B010BD0221014801F029FCF8E753
:103E600000800940D481072004ED00E001210148D1
:103E700001F01CBC008009400221014801F016BC81
:103E80000080094070B5294B15461A7886B0044663
:103E90000E462AB126490720FFF7F8FB06B070BD91
:103EA00001221A70826922B90221602000F066FEA8
:103EB000A061E2692AB902214FF4807000F05EFE31
:103EC000E0611C4801F0BAFB03211A4801F0F0FB45
:103ED000C023452D0096019304D04F2D23D04FF4DD
:103EE000006300E00023029300234FF40035124CDE
:103EF0001120CDE90333059301F0ECFC0F4A69462C
:103F00000C4801F0AFFB0B48256001F0CCFB0948E1
:103F100001F0C6FB0121074801F0C8FBF02384F83B
:103F200011332560BAE74FF40073DCE70134082051
:103F3000C53D08000080094000E100E000BD01052A
:103F4000024B034A01210020FFF7FCBCAEF8080039
:103F500092F8080013B5214801F0ACFBC2070446F3
:103F600018D500230DF103011C48019301F0ADFBAE
:103F70001B4801AB01220DF10301806900F0ECFE4A
:103F8000019B3BB14FF08052164B1A60BFF34F8F2D
:103F9000BFF36F8FA3071AD50022114802AB43F875
:103FA000042D0DF103010122C06900F0B4FF80B1BE
:103FB000019B3BB14FF080520A4B1A60BFF34F8F09
:103FC000BFF36F8F9DF80310044801F075FB02B03A
:103FD00010BD0221014801F06BFBF8E700C0094069
:103FE000F481072004ED00E00121014801F05EBBEF
:103FF00000C009400221014801F058BB00C009403F
:1040000070B5294B15461A7886B004460E462AB17B
:1040100026490720FFF73AFB06B070BD01221A704F
:10402000826922B90221602000F0A8FDA061E26946
:104030002AB902214FF4807000F0A0FDE0611C4815
:1040400001F0FCFA03211A4801F032FBC023452D90
:104050000096019323D04F2D23D04FF40063029399
:1040600000234FF48025134C1220CDE90333059330
:1040700001F030FC104A69460D4801F0F3FA0C4893
:10408000256001F010FB0A4801F00AFB01210848F5
:1040900001F00CFBF02384F812332560BCE7002309
:1040A000DDE74FF40073DAE702340820413F0800EF
:1040B00000C0094000E100E000BD010513B5044661
:1040C000C0698DF8071060B10A2301220DF10701C4
:1040D00000F0A7FD636803B198479DF8070002B0A0
:1040E00010BD4FF0FF30FAE710B50A230446C0694F
:1040F00000F097FD18B9054A0121FFF723FC63681A
:1041000013B1BDE81040184710BD00BFC2F8080049
:104110000EB433B5114C05462068C8B16421FEF7D2
:1041200063F8A8B106AB059A4FF480710C4801936F
:1041300009F0A6F80A4807F0EFFC094902462846AC
:10414000FFF7D2FF002320681A461946FDF726FE26
:10415000002002B0BDE8304003B0704704350820AD
:104160000334082010B5044C23681BB90120FDF767
:10417000CBFE206010BD00BF04350820084BD86B73
:10418000DB6B80F020001A06064BC0F34010DB6B9F
:1041900058BF40F002001B0258BF40F004007047B7
:1041A000000E0E4000100E407FB50D462E4A012134
:1041B00006460020FFF7C6FB03F050FC022D044624
:1041C0004FD8012D0FD0022D34D002F063FF274BC2
:1041D000014653F82430022200933046802305F034
:1041E00045F904B070BD03F039FC214B05461B783E
:1041F000012B08D005D3022B1AD000210D2002F08C
:10420000F3FC1C4B00E01C4B53F8255002F038FF28
:104210001A4B002153F82430039502930323CDE970
:104220000031012301461A46304605F060F9D8E70F
:10423000134BE9E70E4B1A78124B1B789A4216BFC4
:10424000114B124D53F8205002F01AFF104B002270
:1042500053F82430039502930323CDE9003202235F
:10426000E0E70020BDE700BF3DFA080064FC08005D
:104270000935082000F9080098F9080054FA0800E8
:10428000A0FA080008350820ECFA0800E4F9080054
:104290004CF9080008B550B949B9012A09D1802064
:1042A00004F032FEBDE80840134804F003B8012AC8
:1042B00005D0022A0FD0104804F096FBEFE70F4B11
:1042C0001978012904D004D30229E8D1002200E0A2
:1042D00002221A70E3E7094B1978094B1B788B42CD
:1042E000DDD00D2002F080FC4FF47A70FCF752FD17
:1042F00002F0DEF8D3E700BFA94108000935082025
:1043000008350820F0B5037885B0272B2CD14778E5
:10431000012F29D18578C6780479144B144A39467F
:10432000CDE9016400950020FFF70CFB04F042FE8C
:10433000034668B9802C0BD10E4A3946FFF702FBC1
:1043400022463146284605B0BDE8F040FFF7A2BF3F
:104350001A0609D5802BF3D00021CDE900642B4645
:10436000054A0846FFF7EEFA05B0F0BDE0F8080090
:10437000FC05090002FA080016FA0800037870B577
:104380001A2B26D14478012C23D10D2002F026FCD3
:10439000104D114E012803462870307010D00DD3F7
:1043A000022811D00D4A21460020FFF7CBFA002148
:1043B0000D2002F019FC002333702B70204604E01E
:1043C000BDE8704000F060BA0020BDE8704000F029
:1043D00035B970BD0835082009350820E6F9080010
:1043E0000920704708B5002000F09CFA05491A2002
:1043F000FFF74CF903F0AEFFBDE808400249272063
:10440000FFF744B97D43080005430800064B1878C0
:1044100038B1064B187820B1054B1878003018BF1A
:104420000120FFF7B7BB00BF1582072016820720C7
:10443000148207200378282B07D14378034A03F01E
:104440000F0301210020FFF77DBA7047C0FC080070
:104450000378232B07D14378034A012113700020EE
:10446000024AFFF76FBA704710350820DBFC0800DE
:104470000378002B49D1437D002B46D14268234B62
:104480009A4242D1037B427B214902EB032292B242
:10449000B2F5004F1F4B06D101221A700A7003219A
:1044A000187802F029BBB2F5804F03D103221A70AD
:1044B0000122F3E7B2F5005F01D10B22F7E7B2F575
:1044C000805F01D10522F2E7B2F5006F01D107222A
:1044D000EDE7402A01D10922E9E7B2F5007F06D1D4
:1044E0000D4A1278052A0CBF11221522DFE7B2F51A
:1044F000807F01D11322DAE70A7822B11A780132DB
:104500001A700022CAE71A70C9E7704700402806EF
:10451000113508200A35082010350820027838B5F2
:104520000346D2B9407DC0B959680C4A914214D1B2
:104530001A7B5C7B0A4D04EB02243F2CC8BF012090
:1045400001F0DEFE2868001B06F04EFE28B119209F
:104550006043800802F020FA2C6038BD0040390426
:104560000C3508200346407D48B95968044A9142F9
:1045700005D15B7B9B0658BF012002F063B87047F2
:10458000004021020346407D48B95968044A9142DF
:1045900005D1DB7C5B0758BF012002F027B97047CB
:1045A00001402104037810B4A3B9447D94B9426852
:1045B000094B9A420ED10121837B084A13F0400334
:1045C000074818BF147010BC12BF0170037011703F
:1045D000FFF71CBF10BC7047004021061482072063
:1045E0000B3508200378112B0CD183781BB1012BDC
:1045F00005D0FFF70BBF4278034B1A70F9E74278FA
:10460000024BFAE7704700BF158207201682072089
:10461000037870B5072B0CD1064B1B784BB10024E7
:104620001426054D06FB04500134FFF705F8072C4E
:10463000F8D170BD0B350820FCFC080030B5294AC4
:1046400085B00121034605460020FFF77BF93223A0
:10465000002404A840F8103DCDE901440394FEF77E
:10466000A9FFFEF75DFE20492046FEF785FF1F49A2
:104670002046FEF781FF1E492046FEF77DFF1D49BB
:104680002046FEF779FF1C492046FEF775FF1B49BF
:104690002046FEF771FF1A491120FEF7F7FF1DB102
:1046A00018490720FEF7F2FF17490020FEF7EEFF3A
:1046B00016490020FEF7EAFF15490020FEF7E6FF45
:1046C00014490020FEF7E2FF13490020FEF7DEFF49
:1046D00012492320FEF7DAFF11492820FEF7D6FF02
:1046E00005B030BDB0FC0800004021060040090EB6
:1046F0000140210400402102004039040040280606
:10470000E545080011460800A54508008545080054
:10471000654508001D450800714408005144080023
:10472000354408000378002B44D1437D002B41D150
:104730004268214B9A423DD1037B427B1F4902EBE9
:10474000032292B2B2F5004F1D4B06D101221A701E
:104750000A700321187802F0CFB9B2F5804F03D167
:1047600003221A700122F3E7B2F5005F01D10B2298
:10477000F7E7B2F5805F01D10522F2E7B2F5006FED
:1047800001D10722EDE7402A01D11522E9E7B2F570
:10479000007F01D11122E4E7B2F5807F01D113221D
:1047A000DFE70A7822B11A7801321A700022CFE7C7
:1047B0001A70CEE7704700BF004028061835082061
:1047C00012350820027838B50346BAB9407DA8B939
:1047D00059680B4A914211D164249B7B094D5C437B
:1047E0003F2CC8BF012001F08BFD2868001B06F09C
:1047F000FBFC18B1204602F0CFF82C6038BD00BF9A
:104800000302F00C143508200346407D50B9596866
:10481000054A914206D193F90C30002BA8BF012024
:1048200001F010BF704700BF21C3FF180346407D51
:1048300048B95968044A914205D15B7B9B0758BF30
:10484000012001F0D3BF704721C3FF180378112B5B
:1048500014D182780A4B52B1012A0BD0187820B1BA
:10486000084B1878003018BF0120FFF793B9427841
:104870001A70F3E74178034A1170EFE7704700BF01
:1048800017820720188207201FB51C4A012100202B
:10489000FFF758F84FF4FA73002404A840F8103DCD
:1048A000CDE901440394FEF785FEFEF739FD144976
:1048B0002046FEF761FE13492046FEF75DFE1249D1
:1048C0002046FEF759FE11492046FEF755FE1049D5
:1048D0001120FEF7DBFE20460E49FEF7D7FE2046EC
:1048E0000D49FEF7D3FE20460C49FEF7CFFE0C49DA
:1048F0002046FEF7CBFE04B010BD00BF88FD0800C7
:104900000040280600A0180A21C3FF180302F00C7B
:104910004D4808002D48080009480800C547080010
:1049200025470800014B1870704700BF1935082053
:1049300010B5094C0A4623680BB9084B236023685D
:104940001B68596807F016F9236858682060003022
:1049500018BF012010BD00BF1C3508202082072091
:1049600038B5054648B94FF0A00383F31188BFF36B
:104970006F8FBFF34F8F00BFFDE70820FDF74EF8A4
:10498000044648B94FF0A00383F31188BFF36F8F3B
:10499000BFF34F8F00BFFDE7FBF7BAFE0023636054
:1049A000044B25601A681C605460FBF7C1FE0120AF
:1049B00038BD00BF1C820720002330B513608B4236
:1049C00017D0044610F8015B9DB1202DF9D1257850
:1049D0002046202D04F10104F9D055B1013399424C
:1049E000EDD1411E11F8014F136814F0DF0F02D111
:1049F00003B9002030BD01331360F3E782684368D8
:104A000000681344181A824298BF801A70472DE933
:104A1000F0410E4604465521304690461F4606F0AA
:104A200051FFB042054609D04FF0A00383F311882F
:104A3000BFF36F8FBFF34F8F00BFFDE7242200212C
:104A4000204606F03FFF9DF81830A561C4E90287B3
:104A50002377BDE8F0812DE9F041054688461746E9
:104A60004AB94FF0A00383F31188BFF36F8FBFF3F0
:104A70004F8F00BFFDE7446883681E1B964228BF26
:104A80001646A219934209D24FF0A00383F311886E
:104A9000BFF36F8FBFF34F8F00BFFDE780693246D2
:104AA000204406F099FEB74212D9AB68BA1B9A426D
:104AB00009D94FF0A00383F31188BFF36F8FBFF3C1
:104AC0004F8F00BFFDE708EB0601A86906F084FEE2
:104AD000AB683C44A34298BFE41A6C603846BDE81A
:104AE000F0819A422DE9F843164628BF1E46074634
:104AF00089469046002E3ED0046883681D1BB5424F
:104B000028BF3546AA4209D24FF0A00383F311888B
:104B1000BFF36F8FBFF34F8F00BFFDE76219934262
:104B200009D24FF0A00383F31188BFF36F8FBFF357
:104B30004F8F00BFFDE781692A462144484606F0B1
:104B40004BFEAE4211D9B04509D24FF0A00383F31A
:104B50001188BFF36F8FBFF34F8F00BFFDE7721B4C
:104B6000B96909EB050006F037FEBB683444A3427F
:104B700098BFE41A3C603046BDE8F883012AF7B5D7
:104B800004460D460BD1042814D84FF0A00383F33C
:104B90001188BFF36F8FBFF34F8F00BFFDE7B0B930
:104BA0004FF0A00383F31188BFF36F8FBFF34F8FD4
:104BB00000BFFDE71646AC420BD24FF0A00383F3D3
:104BC0001188BFF36F8FBFF34F8F00BFFDE7002643
:104BD000F1E7002D04F1250008BF0125FCF71EFFB9
:104BE000074630B100962B46621C00F12401FFF706
:104BF0000EFF384603B0F0BD48B94FF0A00383F371
:104C00001188BFF36F8FBFF34F8F00BFFDE782683E
:104C100003684168D0180138401A824298BF801A50
:104C200070472DE9F04387B0044616460193894644
:104C300049B94FF0A00383F31188BFF36F8FBFF31F
:104C40004F8F00BFFDE748B94FF0A00383F31188F1
:104C5000BFF36F8FBFF34F8F00BFFDE7037FDA070E
:104C60000DD506F1040846450AD34FF0A00383F39F
:104C70001188BFF36F8FBFF34F8F00BFFDE7B046C2
:104C8000019B5BB92046FFF7B7FF05460396002D51
:104C900036D10025284607B0BDE8F08304A8FCF70C
:104CA00057F9FBF735FD2046FFF7A6FF804505467F
:104CB00023D90020FCF732FC67694FB14FF0A00305
:104CC00083F31188BFF36F8FBFF34F8F00BFFDE7F2
:104CD000FCF7BCF96061FBF72BFD3946019B3A46B6
:104CE0003846FCF7D3FA676101A904A8FCF75AF922
:104CF0000028D6D0002DC5D0C8E7FBF719FDF9E78D
:104D0000237FDB0720D4B54294BF03950396039A13
:104D100049462046FFF79FFE05460028B9D02046A9
:104D2000FFF76CFEE3689842B4D3FBF719FF2369E1
:104D30003BB1002320691A461946FCF7EBFA002321
:104D40002361FBF7AFFFA5E74545A2D3042203A9E2
:104D50002046FFF780FEDAE72DE9FF4104461546BD
:104D600098460E4649B94FF0A00383F31188BFF36C
:104D70006F8FBFF34F8F00BFFDE748B94FF0A0031F
:104D800083F31188BFF36F8FBFF34F8F00BFFDE731
:104D9000037FDA074CBF2F1D2F46FFF72DFF03952A
:104DA00020B90025284604B0BDE8F081237FDB0749
:104DB0002AD4854294BF03950390039A3146204636
:104DC000FFF749FE05460028EBD02046FFF716FE08
:104DD000E3689842E6D3EFF311864FF0A00383F324
:104DE0001188BFF36F8FBFF34F8F23694BB100233F
:104DF00020691A461946CDF80080FCF701FB002314
:104E0000236186F31188CDE78742CAD8042203A91B
:104E10002046FFF720FED0E72DE9F743044617466A
:104E20009946884649B94FF0A00383F31188BFF330
:104E30006F8FBFF34F8F00BFFDE748B94FF0A0035E
:104E400083F31188BFF36F8FBFF34F8F00BFFDE770
:104E5000037F13F0010F14BF04260026B9F1000FE1
:104E600026D0FBF755FC2046FFF7C8FD86420546D5
:104E700011D30020FCF752FB23694BB14FF0A00384
:104E800083F31188BFF36F8FBFF34F8F00BFFDE730
:104E9000FCF7DCF82061FBF74BFCAE4212D300229A
:104EA0004B4611461046FCF7F1F9002320462361DA
:104EB000FFF7A4FDB042054604D80025284603B0FC
:104EC000BDE8F0837EB12B46324601A92046D4F8D6
:104ED0000090FFF706FE019BAD1B9F4236BF0027E7
:104EE0001F46C4F800902B463A4641462046FFF73D
:104EF000F8FD05460028E0D0FBF732FE63693BB1C0
:104F0000002360691A461946FCF704FA002363611E
:104F1000FBF7C8FED2E72DE9FF470446164699463F
:104F2000884649B94FF0A00383F31188BFF36F8F10
:104F3000BFF34F8F00BFFDE748B94FF0A00383F3E5
:104F40001188BFF36F8FBFF34F8F00BFFDE7037F63
:104F500013F0010F14BF04270027FFF74FFD87420E
:104F6000054604D30025284604B0BDE8F0877FB18C
:104F700003463A4603A92046D4F800A0FFF7B1FD46
:104F8000039BED1B9E4236BF00261E46C4F800A0C0
:104F90002B46324641462046FFF7A3FD0546002832
:104FA000E0D0EFF311864FF0A00383F31188BFF335
:104FB0006F8FBFF34F8F63694BB1002360691A464F
:104FC0001946CDF80090FCF71BFA0023636186F3C5
:104FD0001188C8E7012300F01F02400900F5001006
:104FE00000F20770934040020A074CBF4366036615
:104FF00043654362C0F88030026FC9074CBF13435A
:1050000022EA0303036770474FF4003208B5074BE9
:1050100000215A604FF4802211205A60FFF7DAFF16
:10502000BDE8084000211220FFF7D4BF000E0E405B
:105030002DE9F74F4FF001080226B54D0B2000F087
:1050400049FC0C2000F046FC6E614046C5F8A060AB
:105050000021C5F81080C5F8A0806E60C5F80480F6
:10506000FFF7B8FF00210846FFF7B4FF4FF4804276
:105070004FF40043A74C002163612F20C4F8A030F7
:105080002261C4F8A020636062600192FFF7A2FF72
:1050900000212E20FFF79EFF4FF080732361C4F89C
:1050A000A03023634FF480034FF40077236108217D
:1050B000C4F8A03023634FF4807308466B61C5F8D1
:1050C000A0302F61C5F8A0706B606F60FFF782FFA2
:1050D00008210920FFF77EFF4FF480636B61C5F85C
:1050E000A0304FF400632B61C5F8A0304FF480630B
:1050F0006B604FF400634FF4805B6B6008210A2003
:10510000FFF768FF08210B20FFF764FFC5F814B014
:105110000021C5F8A0B00C20C5F804B0FFF75AFF75
:105120004FF4005308212B610D20C5F8A0306B60AF
:10513000FFF750FF4FF400134FF4801A6361002112
:10514000C4F8A03035206360FFF744FFC4F810A016
:105150000821C4F8A0A03420C4F804A0FFF73AFF47
:10516000FFF752FF26610423C4F8A06026630826D7
:10517000C4F810804FF04009C4F8A0804FF00071CF
:10518000C4F830802661C4F8A06026632361C4F8A7
:10519000A03023632023C4F810900320C4F8A0900B
:1051A000C4F810B0C4F8A0B02761C4F8A07023619F
:1051B000C4F8A0302161C4F8A010C4F83490C4F839
:1051C00034B067636363009361636E613146C5F811
:1051D000A060FFF7FFFE2761C4F8A07067604FF47E
:1051E000803741462920FFF7F5FE6F613146C5F84B
:1051F000A0701020FFF7EEFE67613146C4F8A07082
:105200003020FFF7E7FE4FF4003104234FF400276E
:105210004FF080086161019AC4F8A0106B61C5F875
:10522000A030009BC5F810A03146C5F8A0A005200D
:10523000C5F834A02F61C5F8A0706F632A61C5F866
:10524000A0206A636B61C5F8A030FFF7C3FEC5F804
:1052500014803146C5F8A0800720FFF7BBFE102060
:105260004FF400014FF48003C5F81090C5F8A090EA
:105270002861C5F8A0002961C5F8A0102B61C5F808
:10528000A0304FF080732B61C5F8A0304FF400536D
:1052900027614FF48022C4F8A070C4F81080C4F8CD
:1052A000A0802361C4F8A0304FF480732261C4F859
:1052B000A0202361C4F8A0304FF480634FF400664F
:1052C0002361C4F8A0304FF080632361C4F8A0309C
:1052D0002661C4F8A060C5F83490686369634FF430
:1052E000800169634FF0807169634FF40051676317
:1052F000C4F83480616362634FF4807262634FF478
:10530000806262636363666303B0BDE8F08F00BFD1
:10531000000E0E4000100E402DE9F74F01264FF011
:105320000208B14D0B2000F0D5FA0C2000F0D2FAA3
:10533000C5F814803046C5F8A08000212E61C5F85C
:10534000A060C5F804806E60FFF744FE00210846A7
:10535000FFF740FE4FF480494FF40043A34C002177
:1053600063612F20C4F8A030C4F81090C4F8A09056
:105370006360C4F80490FFF72DFE00212E20FFF794
:1053800029FE4FF080734FF480072361C4F8A030EA
:1053900023634FF4807327614FF4007AC4F8A07040
:1053A00027636B61C5F8A0304FF48063C5F810A087
:1053B000C5F8A0A0C5F830A06B61C5F8A0304FF4C7
:1053C00000634FF400322B614FF4805BC5F8A030CE
:1053D0002B634FF40053C5F814B00821C5F8A0B0F2
:1053E00011202B61C5F8A0302B636A61C5F8A0209D
:1053F0000192FFF7EFFD4FF4802308216B6112202B
:10540000C5F8A030FFF7E6FDC4F810800423C4F807
:10541000A0804FF00051C4F8308026614FF0400862
:10542000C4F8A060266308262661C4F8A06026633D
:105430002361C4F8A030236300932963C4F830B01B
:105440002961C5F8A010C4F810804FF00071C4F8AD
:10545000A080C4F810B0C4F8A0B04FF0200BC4F87E
:1054600010A0C4F8A0A0C4F810B0C4F8A0B0216186
:10547000C4F8A010C4F83480C4F834A04FF4803AC3
:10548000C4F834B0102061633146C5F814A0C5F8E3
:10549000A0A0FFF79FFDC4F814A03146C4F8A0A057
:1054A0003020FFF797FD6E613146C5F8A0600320FC
:1054B000FFF790FD019A009B62614FF4002AC4F847
:1054C000A0206B61C5F8A0304FF480132B61C5F8A4
:1054D000A0306B63C5F810A0C5F8A0A0C5F834A033
:1054E000C5F81090C5F8A090C5F834904FF0800929
:1054F000C5F814B0C5F8A0B04FF4000B3146052034
:10550000FFF768FDC5F814903146C5F8A090072054
:10551000FFF760FDC4F814B03146C4F8A0B03720DE
:10552000FFF758FD10224FF08073C5F81080C5F8C2
:10553000A0802A61C5F8A020C5F810B0C5F8A0B0B9
:105540002F61C5F8A0702B61C5F8A0304FF400534F
:10555000C4F810A0C4F8A0A0C4F81090C4F8A0909B
:105560002361C4F8A0304FF480232361C4F8A03035
:105570004FF480732361C4F8A0304FF480634FF47C
:1055800000612361C4F8A0304FF080632361C4F848
:10559000A0302161C4F8A010C5F834806A634FF0D0
:1055A0008072C5F834B06F636A634FF40052C4F878
:1055B00034A0C4F8349062634FF4802262634FF4E5
:1055C000807262634FF48062626363634FF40043EE
:1055D00061636B61C5F8A0304FF400136B61C5F8CF
:1055E000A03003B0BDE8F08F000E0E4000100E405A
:1055F000B2EB011F30B52CBF1024082461434B08C7
:1056000003EBC202B2FBF1F24FF6FE73D1084D1E5E
:105610009D4210D8082C08BF43684FEA024202F4AA
:10562000E02208BF43F4002342EA010208BF4360BE
:105630000262002030BD0120FCE70000084BC0F8EA
:10564000E4300023436043628362882303602423A1
:1056500003604FF4807303604FF4002303607047CE
:105660000041535570B505460C46FFF7E7FF002390
:105670000A4E336009B9012070BD0968FFF7B8FF11
:105680000028F8D1D4E90132134322691343E268B8
:1056900013436A68336013436B60EDE720350820DD
:1056A0004023036070471023036070478160704798
:1056B000C16070474069704743699B0743BFC1F3AE
:1056C0000801C1610020012070474369DB0741BF29
:1056D00083690020C3F308030B6058BF01207047A3
:1056E0000E4B1A6B22F003021A6340F60102996E08
:1056F00009070BD51A6B22F07002104340F6010225
:105700001863996E090705D500207047013AEED15C
:1057100001207047013AF4D1FAE700BF00060E40BD
:105720000F4B1A6B22F0030242F001021A6340F69B
:105730000102996E09070BD51A6B22F07002104313
:1057400040F601021863996E090705D500207047DD
:10575000013AEED101207047013AF4D1FAE700BFD7
:1057600000060E400F4B1A6B22F07002104340F6F9
:1057700001021863996E08070CD51A6B22F0030218
:1057800042F002021A6340F60102996E090705D53C
:1057900000207047013AEDD101207047013AF4D161
:1057A000FAE700BF00060E40054B586910F0800074
:1057B0001FBFA3F5A053103B986EC0F3C0107047F5
:1057C000101A0E40174B10B51A6A12F0010F1A6A20
:1057D0001FD0002122F45C1222F0780242F45C1205
:1057E00042F0080202431A629A6E9203FCD51A6ACA
:1057F00022F09B7222F4803242F45C121A6239B1B8
:105800001A6A22F45C1222F0010242F45C121A625B
:1058100010BD054C05491440214301431962012183
:10582000E2E700BF00060E408600C8FF09FF370010
:10583000044A136A23F45C1323F0780343F45C13E3
:105840001362704700060E40034A136A23F00303F5
:1058500043F45C131362704700060E400E4A136A4D
:1058600028B10E4919400E4B0B431362704723F4C5
:105870005C1323F00303090243F45C1389B243F081
:1058800001030B431362936EDB07FCD5136A43F0ED
:105890009B7343F48033E8E700060E40FCFFC8FE2C
:1058A00002003701024B986E00F48030704700BF51
:1058B00000060E404FF00052014B9A62704700BF45
:1058C00000060E40024B986E00F00200704700BFC9
:1058D00000060E402C2818D81F280D4A4FF001034F
:1058E00008D8916903FA00F030EA010300D0106192
:1058F000002070472038D2F8081103FA00F030EA8F
:105900000103F5D0C2F80001F2E70120704700BFA3
:1059100000060E40034BC0F312001A6F10431867C5
:10592000704700BF00060E404160704781607047BD
:1059300000697047436A23F0FF03194341627047CF
:1059400000EB4111D1F8100270478B790A781B04E3
:1059500003F4702343F4000300EB4210C0F81C3240
:1059600070478B790A781B0403F4702343F4800397
:1059700000EB4210C0F81C32704710B50A780B7962
:105980005201104463B9C0F80032C0F80432C0F8C4
:105990000832C0F81432C0F81832C0F81C3210BDFA
:1059A000D0F80022CC7922F4702242EA0442C0F8F6
:1059B0000022D1E90342497981B144F00054C0F892
:1059C000044242F00052C0F80822D0F8002222F02F
:1059D000E06242EA0363C0F80032E0E7C0F8044244
:1059E000F1E78A6870B502F0C073B3F1C07F14BFED
:1059F000002402240B78C2F303425B01C518D5F8DA
:105A00000C62042A8A7126F060464E61D5F8146251
:105A100088BFD5F818228E6188BFCA61C218D2F833
:105A2000102203448A60D201D3F80822D3F8083246
:105A300048BF44F0040412F000521DBF23F060433D
:105A40000B6101239B0C12BF4B710B614A71FFF775
:105A50007CFF204670BD0A7830B552018418D4F816
:105A600010328B601B021AD54D790B690DB143F0D2
:105A70000053C4F808328B698418C4F814328B7947
:105A80001044042B88BFC9694FEA034303F4702311
:105A900088BFC4F81812C0F81C32002030BD0120A5
:105AA000FCE730B50024054689B08DF80440009429
:105AB000694628460134FFF760FF082CF7D109B08A
:105AC00030BD0000F8B546F2A813044603FB02F00F
:105AD0000B18013BB3FBF0F3802B01D90020F8BD7C
:105AE0004FF4FA505043B0EB510FF7D84FF47A739C
:105AF00008265A434FF0FF373346B1FBF0F5802DAF
:105B000006D800FB1515BD4202D23DB12F461E46F8
:105B10000133DBB21A2B1044EFD133465A43B1FBA9
:105B2000F2F1C9B20129D9D906202268083B22F036
:105B300001022260194A013900FB03229378507850
:105B4000013B01381B01000200F4E06003F0700328
:105B50000343D07812790138013A00F007001203AC
:105B600002F4405203430904134301F4FE011943B4
:105B700020466161FFF795FF00200246236843F04D
:105B800001032360064B920204D49842A6D02269F6
:105B90000130F8E7C01A18BF0120A0E7E0FD0800B7
:105BA000A0860100AC2310B50360D1E90032B3FB3D
:105BB000F2F34FF6FE721B095C1E94420AD8036290
:105BC0008B68436040F20223C0F820315023036009
:105BD000002010BD0120FCE7502303607047AC2378
:105BE0000360704781607047C160704740697047CB
:105BF00043699B0746BFC16100200120704743698C
:105C0000DB0743BF836900200B7001207047D30678
:105C10000ED59306C0F8B0104CBFC0F8D410C0F831
:105C2000D01053064CBFC0F8C010C0F8C410704765
:105C3000C0F8B4107047C36C01647047416470478A
:105C4000C06C7047014B53F820007047901A0E400B
:105C5000014B43F820107047901A0E40014B03602F
:105C6000704700BF050000A5406800F4E060704781
:105C7000084BB3FBF1F1814208D8C1EB01338342F9
:105C800004D3B0FBF1F0C0F30B0070474FF6FF7088
:105C9000704700BF0020A10710B5044CC2F30B02EF
:105CA00004EA034313430B43436010BD0000FF0F9E
:105CB000024B984204BF024B03607047501A0E40DB
:105CC000010000A54068C0F30B00C001B0FBF1F17A
:105CD00001484843704700BF40420F00134B07B5CF
:105CE000DA6AD00742BF01219962196A910742BF5F
:105CF000022199621B6AD30544BF4FF480720B4B9B
:105D000001A944BF9A621B6A094B1868FCF772F933
:105D1000019B3BB14FF08052064B1A60BFF34F8F8F
:105D2000BFF36F8F03B05DF804FB00BF00C00840F5
:105D30002435082004ED00E0436801F00F0123F052
:105D40000F03194341607047436801F4E06123F495
:105D5000E063194341607047436843F480534360F4
:105D600070470068C0F303207047C068704708B5EB
:105D7000120202F4706211430CF0F6FA002008BD22
:105D80000368090201F4706123F4706319430CF095
:105D9000EBBA000038B5A1F10E03012B17D9EFF3D0
:105DA000108472B6BFF35F8F00230A4DC9B22B7007
:105DB000094B03EA022242F0B44211430CF0DCFA30
:105DC00024B901232B70BFF35F8F62B638BD4FF04B
:105DD000FF30FBE72C82072000FFFF0070B50F4C5F
:105DE00026688CB206F500258D4210D8C6F17F4595
:105DF00005F578052944A41B094DC1F30F21E4B230
:105E000000B1056002B1118003B11C8070BDA1F525
:105E10000021C1F30F21E4B2024DF1E7748C072099
:105E2000000C0E40000A0E4038B504460D460A46E6
:105E300001460548FFF79BFF2A4621460348FFF726
:105E400096FF002038BD00BF000A0E40000C0E4037
:105E50002DE9F04F85B001930F460DF10A0301467D
:105E6000154603A802AAFFF7B9FF0398FFF779FFC9
:105E7000062181460398FFF783FFDFF8B8B0DFF80B
:105E8000B080039835B94946FFF77AFF284605B038
:105E9000BDE8F08FBDF80A20244CC2F58073AB42F8
:105EA0001E4628BF2E46A04218BFDBF80040BDF8B2
:105EB000081013BF04F5002401F50064240204EB6C
:105EC00001249B1B21461A481FFA83FA05F084FC23
:105ED000BDF80A0032463946404405F07DFCBDF865
:105EE0000A00524630440119404405F075FC04F59F
:105EF0008073A8EB04010A5944F8042BA342FAD199
:105F0000019B0398BDF8082073B10321FFF742FFFE
:105F10000028BCD1BDF8083037440133AD1BADF8C3
:105F20000830ADF80A00ACE70121EFE7000A0E40A7
:105F300028350820748C0720042370B586B002AD84
:105F400006460C4600930F222B460E2109480CF002
:105F50000FFA68B9042C28BF04240346A34201D1D8
:105F600006B070BD55F8232046F823200133F5E72D
:105F70001020F5E7000A0E40EFF30583FCE7000070
:105F80002A4A10B5136B03F00303012B284B0FD0E3
:105F900004D3116ACC012BD5264945E0264949692D
:105FA00008064CBF4FF400414FF4FA4119600DE070
:105FB000116AC90101D51F49F8E720491960116A22
:105FC00001F07001102911D02029F4D0106B19684C
:105FD00000F07000702807BF0322B1FBF2F1126BD2
:105FE000C2F3021218BFD140196010BD1449DDE799
:105FF00012491960116A01F07001102913D020298B
:10600000CAD0116B01F00301022901BF946A19681B
:10601000C4F30A4404FB011109BF906A0949C0B2E4
:10602000B1FBF0F1C2E706491960EAE700060E404D
:1060300028820720001BB700101A0E4000093D00FF
:1060400000127A00001C4E0E114B124A9842124B5D
:1060500003D800211160196070471049884202D8A6
:106060004FF48071F6E70E49884202D84FF4007170
:10607000F0E70C49884202D84FF44071EAE70A4938
:10608000884294BF4FF480614FF4A061E2E700BF03
:10609000BFEA2101000A0E40000C0E407FF0FA0218
:1060A000FF8FD003FFB3C4047F4A5D0501607047D2
:1060B00001210268530903F5001303F2077302F08C
:1060C0001F025B0201FA02F21A63704701210268A3
:1060D000530903F5001303F2077302F01F025B027A
:1060E00001FA02F25A6370470D4808B5FFF7ACFF9A
:1060F0003E210020FFF7B2FBFFF7D4FB0028FBD0C6
:10610000FFF7D8FB074B084A9A62FFF7DBFB002832
:10611000FBD00020FFF726FBBDE80840FFF730BFAB
:1061200000BD010500060E40013F062070B5344A4F
:1061300086B0137801331370324A334B12781C68DF
:106140001D4682B91B79E4B29C4228BF1C466846B2
:106150008DF800208DF8084003F042FF012000F088
:1061600099F806B070BD4FF6FF739C4230D054BB17
:106170002346264A01212046FDF7E4FB204600F095
:1061800089F801264FF6FF736C689C4227D00CBB40
:1061900001231E4A19462046FDF7D4FB204600F095
:1061A00079F81B4A01210020FDF7CCFB002368464B
:1061B0008DF800308DF8083003F012FF4FF47A703C
:1061C000FAF7E8FDCDE7013C01202C6000F062F811
:1061D0000026D7E7013C01206C6000F05BF8002E40
:1061E000DFD12B782A798DF80060934228BF1346BF
:1061F0008DF80830FDF78CFB684603F0F1FEB0E740
:1062000031360820323608202836082058FE08008B
:1062100074FE08005A22024B43F82020704700BF4A
:1062200028360820014B1870704700BF323608200E
:1062300073B5124B124A01210020FDF783FB114B6D
:106240001C78CCB901251D700F4B2A464FF47A718A
:1062500000930E482346FBF72BFA0646FAF788FC14
:1062600023460246009429463046FBF747FA4FF68C
:10627000FF72074BC3E9002202B070BD4CFE08005C
:10628000B9F30800303608202D61080088FE0800A8
:10629000283608204FF00052044B1A61C3F8A020A2
:1062A00008B11A6370475A63704700BF000E0E4072
:1062B00038B54478084D204600F040F82A78A242CC
:1062C00006D034B9054A01210020FDF73BFB2C70B4
:1062D00038BD034AF7E700BF2D8207208EFE080075
:1062E0009DFE080008B500F033F80E200349FDF7C5
:1062F000CDF9BDE80840002000F020B8B1620800E8
:1063000030B58BB00446FDF741FC43780546A34207
:106310000DD00E20FDF726FC0E236C7068468DF81C
:1063200000308DF80140FDF7CDF90BB030BD0E20E7
:10633000FDF702FC0028ECD1F7E70000034B4FF01B
:10634000007208B91A6370475A63704700100E4014
:106350004FF00072024B1A61C3F8A0201A63704715
:1063600000100E400378122B04D14278074B12B96B
:1063700001221A7070471A78002AFBD004490A7863
:1063800082F001020A700022F3E700BF3182072089
:106390003A36082038B50378072B28D1144B154C12
:1063A0001D78CDB90F2000F019FC1E2804D90F204C
:1063B000294600F019FC28463C23584320600E4B28
:1063C0001B78A3B10D4A1378591C022B11700ED9FA
:1063D000BDE83840FAF758B92368002BEFD0013BED
:1063E000074A012100202360FDF7ACFAE7E738BD3A
:1063F0003082072034360820393608203836082005
:10640000EDFE080038B50378102B38D11F494378CA
:106410001F4D09682B70002932D0012B14BF1C4678
:1064200000241C490A789A4218BF00201A4A1CBF4F
:106430000B701070137823B1012C23D0002C08BFEF
:106440000124164B1B7833B12346154A0121002045
:10645000FDF778FA0124204600F080F80CB12B7883
:1064600013B90020FFF7D6FE0E4D2A78A24206D0BF
:1064700054B90D4A01210020FDF764FA2C7038BD93
:106480001C46CEE70024DCE7084AF3E73436082050
:10649000308207202F8207203A360820393608201C
:1064A000ADFE08002E820720D0FE0800DEFE0800A8
:1064B0000122014B1A7070473936082000F058B895
:1064C00008B500F08DF8012000F048F808491020C8
:1064D000FDF7DCF807491220FDF7D8F80649062039
:1064E000FDF7D4F8BDE8084004490720FDF7CEB811
:1064F00005640800656308001F65080095630800CF
:10650000112300B58BB08DF8010068468DF800307E
:106510008DF80210FDF7D6F80BB05DF804FB08B556
:106520000378062B0BD100F02BF80021FFF7E8FFD2
:1065300000F03EF8BDE808400121FFF7E1BF08BDCB
:10654000122300B58BB08DF8010068468DF800303D
:10655000FDF7B8F80BB05DF804FB0000034B4FF4F7
:10656000805208B91A6370475A63704700100E4092
:10657000024BD86BC0F30030704700BF00100E40D4
:10658000084B30B5084CDB6B084D2178C3F3004352
:10659000287841EA0302024001EA030029702370CF
:1065A000104330BD000E0E403B3608203D3608201B
:1065B000084B30B5084CDB6B084D2178C3F3004322
:1065C000287841EA0302024001EA0300297023709F
:1065D000104330BD00100E403C3608203E360820E7
:1065E0004FF48052024B1A61C3F8A020704700BFDD
:1065F00000100E4038B54478084D204600F040F8B1
:106600002A78A24206D034B9054A01210020FDF7BC
:1066100099F92C7038BD034AF7E700BF3282072092
:1066200016FF080022FF080008B500F033F8132019
:106630000349FDF72BF8BDE80840012000F020B821
:10664000F565080030B58BB00446FDF79FFAC378B6
:106650000546A3420DD01320FDF784FA1323EC70F6
:1066600068468DF800308DF80140FDF72BF80BB02F
:1066700030BD1320FDF760FA0028ECD1F7E70000E9
:10668000034B402208B91A6370475A63704700BF32
:1066900000100E404022034B1A61C3F8A0201A6379
:1066A000704700BF00100E4038B544780F4B012CE6
:1066B0001C7013D10E4B1C78B4FA84F464090D4D90
:1066C000204600F0B1F82A78A24206D064B90A4AFE
:1066D00001210020FDF736F92C7038BD074B1B78DF
:1066E000002B18BF0124EAE7054AF1E734820720AE
:1066F0003F360820338207202FFF0800403608204D
:106700003CFF08000378182B06D14368B3F5AF6F40
:1067100082BF0022014B1A70704700BF3F3608202D
:10672000037810B5072B3CD1122000F057FA1E2831
:1067300003D90021122000F057FA112000F04EFA80
:106740001E2803D90021112000F04EFA154B10200D
:106750001B78ABB900F042FA012804D1122000F0F6
:106760003DFA114B1870114A1378D3B1013BDBB2DB
:1067700013700F4A0121BDE810400020FDF7E2B878
:1067800000F02CFA012804D1112000F027FA074B61
:106790001870054A137823B1013BDBB21370054A28
:1067A000E8E710BD348207203F3608204036082035
:1067B0004AFF080074FF080008B500F03FF80849D8
:1067C0001420FCF763FF07490720FCF75FFF182040
:1067D0000549FCF75BFFBDE80840012000F024B844
:1067E000A9660800216708000567080030B58BB06E
:1067F0000446FDF7CBF983780546A3420DD014205B
:10680000FDF7B0F91423AC7068468DF800308DF8B0
:106810000140FCF757FF0BB030BD1420FDF78CF999
:106820000028ECD1F7E70000034B202208B91A63D7
:1068300070475A63704700BF00100E402022024B81
:106840001A61C3F8A020704700100E4030B58BB01D
:106850004FF0A00383F31188BFF36F8FBFF34F8F07
:10686000144A154814880378144921F8134000236A
:10687000138083F311880A2502780132D2B2B2FB69
:10688000F5F405FB14221C46027031F81320013385
:106890000A2B1444F9D10A4D2B68A34207D01923BF
:1068A00068468DF800300194FCF70CFF2C600BB0AB
:1068B00030BD00BF42360820443608204C36082040
:1068C0006036082037B5194C45682068401B04F035
:1068D0008BFC13280DDD284604F078F80022144BB9
:1068E00004F018FA134ACDE9000101210020FDF758
:1068F00029F8632D07D80021084600F099F80023F5
:10690000236003B030BD2068401B04F06DFC3128CB
:10691000F7DD32234EF66021B5FBF3F30120B1FB26
:10692000F3F100F085F82560EBE700BF483608205A
:10693000000059409FFF080073B5134D2C7804BB2D
:1069400000F098F811491820FCF7A0FE104B012226
:106950000093642123460F48FAF7AAFE0646FAF789
:1069600007F923460246009401213046FAF7C6FE95
:106970000123214620462B7002B0BDE8704000F094
:1069800057B802B070BD00BF41360820C568080086
:106990004D680800AEFF080030B58BB00446FDF727
:1069A000F5F805468068001B04F01EFC01280CDD8C
:1069B0001820FDF7D7F81823AC6068468DF8003032
:1069C0000194FCF77FFE0BB030BD1820FDF7B4F842
:1069D0000028EDD1F7E7000038B5124803F0A0FE1B
:1069E00003061DD5104D11492C680E4864082A680D
:1069F00003F070FE22460D490A4803F079FE2A682A
:106A00000A49084803F066FE22460849054803F093
:106A10006FFEBDE8384000220721024803F08BBE1C
:106A200038BD00BF00400940903608206436082079
:106A300038B505460C4C80B10C4B196023782BB946
:106A400007210B4803F062FE012323700022BDE8FA
:106A500038400721064803F065BE0721044803F0CB
:106A60005AFE257038BD00BF8C36082090360820AD
:106A7000004009401FB52420FEF72CFF07211948CC
:106A800003F049FE2420FEF725FF002447F230538F
:106A9000CDE90134144B01A91248039303F08CFD96
:106AA00020B1124A21462046FCF74CFF0023104932
:106AB00064200B818B720B234B6032230724C1E9C6
:106AC000033008480C6003F096FD2146054803F0AA
:106AD00022FE1022074B5A60F02283F8242304B0D0
:106AE00010BD00BF0040094000BD0105B4FF080013
:106AF0006436082000E100E070B58AB004460E4616
:106B0000FDF744F803790546A34209D01520FDF7A7
:106B100029F81B2C2C710AD815238DF800300CE0B5
:106B20001520FDF709F80028F0D10AB070BD162332
:106B300005228DF800300F4B1A70002368468DF83F
:106B400002308DF801408DF80360FCF7BBFD9DF825
:106B50000130002BE9D1074C2378002BE5D0162318
:106B600068468DF80030FCF7ADFD2378013B2370BB
:106B7000DBE700BF94360820144B10B518680A23D1
:106B800088B000930023124C2278162A87BF1A4639
:106B900003214FF496720421FAF7B0FD17238DF804
:106BA000083023780121DA088DF8102000920020A7
:106BB000084AFCF7C7FE00238DF81130064B02A8E7
:106BC000039303F00DFA08B010BD00BFB0360820E3
:106BD000AE36082008000900F56C0800014B185C6F
:106BE000704700BF963608207FB5094B1A5C8A4271
:106BF0000AD0195405238DF8080068468DF8003036
:106C00008DF8091003F0ECF907B05DF804FB00BF44
:106C1000963608207FB57F2306A800F8183D03F0BC
:106C2000DFF907B05DF804FB73B50F4D2B78C3B1E6
:106C30000E4E3068FAF7B6FE044690B90C4A0121B0
:106C40000C4BFCF77FFE0C4B36681C70F9F790FF7D
:106C50000A2302460093012123463046FAF74EFDEF
:106C60002C7002B070BD00BFAF360820B0360820CF
:106C7000B9F30800D0FF0800AE36082037B5114A36
:106C80001378EBB9FF20104958540133182BFBD16E
:106C900001240E4B14704FF4C871224600930C4827
:106CA0000023FAF705FD0B4B05461860F9F760FF66
:106CB0000A2302460093214600232846FAF71EFDC8
:106CC00003B030BD9536082096360820796B080051
:106CD000E4FF0800B03608201A2300B58BB08DF809
:106CE000010068468DF80030FCF7ECFC0BB05DF855
:106CF00004FB00002DE9F74F804692460024C500B2
:106D0000214EEDB2214F019106EB050B019BA342F1
:106D100005D101221E4B1A7003B0BDE8F08F05EBC0
:106D20000409B9F1170F1ADC1AF80420B9F10D0F94
:106D30000BF8042015D10120FFF7CEFFB9F1170F92
:106D400087F8009008D1F27D1AB901214846FFF773
:106D50004BFF0220FFF7C0FF3B7801333B7001344B
:106D6000D4E7B9F10C0FE9D106EB0802125DFF2A56
:106D700008D10121074A0020FCF7E4FD0121484623
:106D8000FFF732FF0020D7E796360820AE360820FE
:106D9000AF360820EAFF080070B5417990F8084145
:106DA0008D1DA54217D18378C2780B441344027914
:106DB000053113440622DBB2914206DADB4301348B
:106DC000435580F80841012070BD865C0132334490
:106DD000DBB292B2F0E70020F6E70023FF2180F853
:106DE000083180F8093100F20712431E03F8011F31
:106DF0009342FBD1002380F80A3180F80B317047B1
:106E00000122014B1A707047243808207047000097
:106E10000378232B02BF4278014B1A70704700BFE2
:106E200008370820037810B51E2B014603D128220D
:106E3000054804F0D1FCBDE81040002303481A4681
:106E400019460068FAF7AABFB8360820E0360820CD
:106E500002F0F6B9037801462E2B05D10348002332
:106E60000A220068FAF79ABF704700BF2838082046
:106E7000037801462B2B05D1034800230A22006822
:106E8000FAF78CBF704700BFE436082003782A2B3E
:106E900006D1011D034800230A220068FAF77EBFCD
:106EA000704700BF043708200378242B06D1011D4A
:106EB000034800230A220068FAF770BF704700BF3A
:106EC0000C3708200378292B03D141781420FFF7D1
:106ED0008BBE7047037810B5262B10D10446084AA4
:106EE00054F8043F04210220FCF72CFD05482146FC
:106EF000BDE8104000230A220068FAF74FBF10BD1A
:106F000024000900F4360820037813B5152B47D167
:106F10000222411C684604F05FFC9DF8002052B933
:106F200023490B783BB1DC0741BF581C08708DF832
:106F300000308DF801209DF80020D00718D51C4B9B
:106F40001B78D90714D59A4212D000240133194A6C
:106F5000012120468DF804308DF80540FCF7F2FC45
:106F6000154823464FF0FF3201A90068FAF716FFD3
:106F70009DF80030A3B10E4C22789A4210D00F4AEF
:106F800001210020FCF7DEFC0B48694600230222A9
:106F90000068FAF703FF014620B19DF80030237026
:106FA00002B010BD064A0220FCF7CCFCF8E700BF97
:106FB000E93608203800090020380820430009007D
:106FC0005100090010B590F80A31044690F80811F4
:106FD0000BB1032903D8637907338B4204D12046D0
:106FE00000F0A2FD012010BD0021054A0846FCF773
:106FF000A9FC204694F8081100F096FD0020F2E765
:10700000690009002DE9F0411C4C054620461E464A
:1070100088461746FFF7E1FEC723C82294F8080107
:107020002354431CDBB2E2541222831CDBB2E5542E
:10703000C31CDBB2E2540022031DDBB2E254042283
:10704000431DDBB2E254851DC11D00F10802EDB203
:10705000C9B2D2B204F805806754A65400F10902FF
:107060000A3084F80801D2B22046A654FFF794FEF5
:107070002046BDE8F041FFF7A5BF00BF113708204B
:10708000034B1A781F2A84BF01221A7018787047A0
:107090001D38082008B5FFF7F3FF0130C0B22028E3
:1070A00028BF0120014B187008BD00BF1D38082003
:1070B0002DE980487A4B89B00093012200234FF4D8
:1070C000FA717848FAF7F4FA774C784B206001228D
:1070D000C821009376480023FAF7EAFA754D286034
:1070E00001F044FC2668F9F743FD002402462346DC
:1070F000012130460094FAF701FB2D68F9F738FDBD
:1071000023460246012128460094FAF7F7FA0221A5
:10711000694A0846FCF716FC6848FFF75EFEFFF771
:10712000B9FF674D0146654802F002F82F46654EEB
:10713000C8213068FBF758F86C78DFF8B881012C6B
:1071400068D1614A03210220FCF7FCFB98F800306B
:10715000022B51D802215D4A0846FCF7F3FB574841
:1071600090F808218378012A98BFFF23BA789A42C1
:1071700040F08280FFF726FF98F80030013388F84E
:107180000030002CD4D10020514C88F800006278E7
:10719000002A40F0A282DFF8608105A9D8F800003B
:1071A000FAF780FF002800F0D3809DF814202378A0
:1071B0009A4200F08B82FFF76DFF9DF81430044671
:1071C000162B00F27782DFE813F06100990090013E
:1071D0009701A001A701B001B701C001F8010102A8
:1071E000C701D001D701E001E801F10108020F0257
:1071F00017025F0266026E02364A00210220FCF787
:10720000A1FB354A1378002BBDD000231370334AFD
:107210001370B8E7022C31D1314A03212046FCF724
:1072200091FB98F80030022B09D821462D4A2046C0
:10723000FCF788FB2148FFF7C5FE01249CE72A4A9A
:1072400000212046FCF77EFB234B1B7813B1002264
:10725000224B1A70254B1B7823B9FCF759FB0120F0
:10726000FEF7D8FFFFF72AF9044628B9FCF750FBD0
:107270000120FEF7CFFF7FE700247DE7164B1B7848
:10728000002B80D0154A13780133C1E7184A012139
:107290000020FCF757FB00231A46002136E000BF10
:1072A000016E080073000900FC3608200D6E08000E
:1072B00079000900F83608207F00090011370820FE
:1072C000B8360820E03608208E0009009500090035
:1072D00000370820A400090010370820F0360820E5
:1072E000B7000900C1000900D000090008370820D4
:1072F000E50009000937082020380820C24A01218A
:107300000020FCF71FFB0123002210212046FFF77D
:1073100079FE0446002840F0D2819DF81430BB4A23
:107320000146FCF70FFB0123052205A9D8F8000050
:10733000FAF734FD9DF814300094B54A012100207D
:10734000FCF700FB012C00F0D581022C00F0CE816F
:10735000B04B002205A91868FAF7A4FE48B1FFF760
:1073600099FE05AA0146AC4801F098FF00287FF479
:10737000DFAEAA4B002205A91868FAF793FE48B1C0
:10738000FFF788FE05AA0146A34801F0CBFF0028BD
:107390007FF4CEAE0022A24B05A918680592FAF739
:1073A00081FE48B1059C3CB1FFF774FE01469A4846
:1073B000A04700287FF4BCAE00239A4C05932378A5
:1073C000002B00F09B81DFF86882D8F80030002B9A
:1073D00000F09481944A04210320FCF7B3FA934A05
:1073E000D8F8003011788C489847002840F0A381E5
:1073F00000238E4A237013708D4A13608D4B002238
:1074000005A91868FAF74EFE002867D0FFF742FE7C
:10741000DDE906A9804C039020469DF816809DF872
:1074200015B0FFF7DAFCC722C82094F80831039999
:10743000E2545A1CD2B2A0549A1CD2B2A154402198
:10744000DA1CD2B2A15400211A1DD2B2A1545A1D85
:10745000D2B2A1549A1DD2B204F802B0DA1DD2B24F
:10746000083304F8028084F80831504604F054FBD5
:10747000A046D446C0B298F80811ACEB0A02D2B2CA
:107480004B1C9042DBB200F25981002284F8083193
:107490006254484604F040FBCC46C0B298F808312C
:1074A000ACEB0901C9B25A1C8142D2B2C0F04D8185
:1074B0004FF0000804F80380053B84F8082163714D
:1074C0005548FFF769FC5C4A01214046FCF73AFA4F
:1074D0005148FFF777FD00287FF42AAE574C2378F8
:1074E000002B40F03981002326E1554A012100207C
:1074F000FCF728FA002307E7524A01210020FCF795
:1075000021FA01230022202100E74F4A0121002017
:10751000FCF718FA0023F5E74C4A01210020FCF79C
:1075200011FA012300220421F0E6494A012100203A
:10753000FCF708FA0023F5E7464A01210020FCF792
:1075400001FA012300220821E0E6434A012100203C
:10755000FCF7F8F90023F5E7404A01210020FCF789
:10756000F1F9012300224021D0E63D4A012100200B
:10757000FCF7E8F90023F5E73A4A01210020FCF77F
:10758000E1F9012300220121C0E6374A0121002050
:10759000FCF7D8F900231A46F5E7344A0121002008
:1075A000FCF7D0F9012300220221AFE6304A012185
:1075B0000020FCF7C7F90023F5E72E4A012100203F
:1075C000FCF7C0F90123002280219FE62A4A01210D
:1075D0000020FCF7B7F90023F5E7284A0121002035
:1075E000FCF7B0F9012357E6254A01210020FCF7FA
:1075F000A9F90023012250E6224A01210020FCF7CC
:10760000A1F90123022248E6F00009003E02090028
:10761000630209000437082011370820E4360820E7
:107620000C3708201037082096020900F036082091
:10763000EC36082028380820BC020900243808202D
:10764000FD000900080109001501090020010900D9
:107650002E0109003A0109004801090054010900FE
:10766000610109006C0109007C0109008A0109001F
:107670009A010900A8010900B7010900C401090025
:10768000D6010900E60109003C4A01210020FCF76F
:1076900059F90023B6E73A4A01210020FCF752F9D4
:1076A00001230422F9E5374A01210020FCF74AF9B9
:1076B0000023F6E7344A03210020FCF743F90222B5
:1076C00005A9324804F088F8012433E663789DF870
:1076D00015201344637002242CE6013AD2B2627082
:1076E0002378012100922A4AFCF72CF90A20F9F7A5
:1076F00051FB2DE63220F9F74DFB19E5254B002211
:1077000005A91868FAF7CEFC00283FF477AE059B70
:10771000002B3FF473AE04211F4A0320FCF712F93B
:107720001E4B1F481978059B984700283FF460AE10
:107730001C4B059A1A6001232370F9E41CF8012BF5
:1077400088F8083108F8012095E61CF8011B88F834
:10775000082108F80310A1E6FFF79CFC0146104839
:1077600001F0E6FC80460A20F9F714FB00232370A1
:10777000B8F1000F3FF4B7AEDAE400BFF80109003A
:107780000802090017020900240209000037082036
:1077900076020900F4360820AC020900F036082011
:1077A00011370820EC360820002337B5064D02AC0F
:1077B00044F8043D002221462868FAF773FC08B912
:1077C00003B030BD00BFF5E7F436082037B5374DBC
:1077D0002C78002C67D1224602211020FAF7B8FA43
:1077E0000421334B224618600846FAF7B1FA042107
:1077F000304B224618600846FAF7AAFA2E4B22466A
:1078000018600C210220FAF7A3FA2C4B22461860CC
:107810000C210220FAF79CFA294B22461860092114
:107820000220FAF795FA274B4FF4487218600223AA
:1078300025490093019423462448F9F76DF800F098
:10784000DDF923491520FBF721FF22492620FBF70C
:107850001DFF21492420FBF719FF20491E20FBF7BB
:1078600015FF1F492320FBF711FF1E492520FBF7B9
:107870000DFF1D492A20FBF709FF1C492B20FBF7B0
:1078800005FF1B492E20FBF701FF1A492920FBF7B2
:10789000FDFE01F0ADFC0120032221462870FAF71D
:1078A00057FA154B186003B030BD00BFE83608200A
:1078B00020380820F43608200C3708200437082028
:1078C00028380820E4360820CD020900B1700800ED
:1078D000096F0800D56E0800A96E0800256E080023
:1078E000116E0800157908008D6E0800716E080091
:1078F000556E0800C56E0800E0360820242300B548
:107900008BB0019068468DF80030FBF7DBFE0BB0C2
:107910005DF804FB0378252B05D14378182B02D1A1
:107920000148FFF7EBBF7047516E080010B52324E4
:107930008AB08DF804309DF830308DF802008DF853
:1079400005309DF8343068468DF806309DF83830A3
:107950008DF800408DF807309DF83C308DF801100F
:107960008DF803208DF80830FBF7ACFE0AB010BD8F
:10797000282300B58BB08DF800309DF801308DF8CC
:10798000022060F3030361F3871368468DF801302A
:10799000FBF798FE0BB05DF804FB2C2300B58BB011
:1079A0008DF8010068468DF80030FBF78BFE0BB0B8
:1079B0005DF804FB252300B58BB08DF80100684607
:1079C0008DF80030FBF77EFE0BB05DF804FB27233B
:1079D00000B58BB08DF8003000238DF802006846AA
:1079E0008DF801308DF803108DF80420FBF76AFE46
:1079F0000BB05DF804FB272300B58BB08DF8003089
:107A000001238DF8020068468DF801308DF80310CF
:107A10008DF80420FBF756FE0BB05DF804FB27231E
:107A200000B58BB08DF8003002238DF80200684657
:107A30008DF801308DF80310FBF744FE0BB05DF8B4
:107A400004FB222300B58BB0ADF8020068468DF828
:107A50000030FBF737FE0BB05DF804FB08B51420CF
:107A6000FFF7BCF8122804D914200121FFF7BCF855
:107A7000012008BD034B1A781F2A84BF01221A7007
:107A800018787047403A08200023FF21074A82F8FF
:107A9000083182F80931D1540133B3F5847FFAD12A
:107AA000002382F80A3182F80B31704734390820FC
:107AB000074B587993F808210730811A93F80A3157
:107AC0004842484113B1032A88BF1846704700BF97
:107AD0003439082038B5FFF7EBFF30B1114B93F87C
:107AE0000A111A4611B193F80B0138BD5879D178B3
:107AF0009B78441D0B4406210344DBB2A1420ADDFE
:107B0000DB4310448179DBB299420CBF0120022093
:107B100082F80B01E9E7555C01312B44DBB289B2F5
:107B2000ECE700BF343908202DE9F341C6B2002448
:107B3000F7434FF0D80C4FF0AA0E2A4D831BDBB24F
:107B40008B4201D2FD2C2BD9F9F712F80221034602
:107B5000254A0846FBF7F6FE0026244FF3B29C4266
:107B600038D80221224A0846FBF7ECFE214B224678
:107B700018681C49C36898470023FF22EA54013360
:107B8000FE2BFBD11C4B1C68F8F7F2FF00230246CA
:107B9000009301212046F9F7B1FD02B0BDE8F08164
:107BA00010F8013B621CC72BD2B20ED107EB0008C4
:107BB00018F0FF0F05D005F804C005F802E01446E0
:107BC00000E02B550134E4B2B8E7D82B2B55F9D19E
:107BD000AB54F4E70221AB5D3A460846FBF7B2FE30
:107BE0000136BBE73038082069030900710309003A
:107BF00037F808002C3808203039082013B5022146
:107C0000134A0846FBF79EFE124A04210220FBF7A6
:107C100099FE1148114B4E2218604FF4E13143692F
:107C20009847002402234FF44872CDE900340C49F0
:107C300023460C48F8F770FE0B4B22460093A02118
:107C400023460A48F9F734FD094B186002B010BD0D
:107C50003903090050030900B48107202C3808209B
:107C60005E030900ED7C0800937C0800E4FF080037
:107C7000303908201E2300B58BB08DF8010068460E
:107C80008DF800308DF80210FBF71CFD0BB05DF88D
:107C900004FB00210220FFF7EDBF0B2300B58BB0E2
:107CA0008DF8010068468DF800308DF80210FBF762
:107CB00009FD0BB05DF804FB292300B58BB08DF8EE
:107CC000010068468DF80030FBF7FCFC0BB05DF856
:107CD00004FB1F2300B58BB08DF8010068468DF8BA
:107CE0000030FBF7EFFC0BB05DF804FB02212DE93F
:107CF000F043BA4A87B00846B94DFBF723FEC820C7
:107D0000F9F748F82E46FFF7BFFEB64C28680A235D
:107D100001220DF117018069FDF77EF8002800F0BF
:107D200094809DF81700C72801D1FFF7ADFE94F8A5
:107D300008312BB16278CA2A23D00DD8C82A20D0A6
:107D4000E054013384F808312378C72B1EBF002389
:107D500084F80831237020E0F02A01D0FF2AEFD107
:107D60000122032B84F80A2164D1E070A278E17823
:107D7000D243D2B291420CBF0122022284F80B21DD
:107D8000DEE7002294F8091184F80A21002945D180
:107D9000D828D5D1012384F80931FFF789FE0028BE
:107DA000B4D0F8F7E5FE022103468F4A0846FBF7F8
:107DB000C9FD0023DFF84C8294F808215F1CDBB278
:107DC0009A423AD80221894A0846FBF7BBFD94F84B
:107DD0000831012B04D9A3781F2B01D8844A1370D2
:107DE000FFF766FE002891D00520F8F7D3FF94F83E
:107DF0000A71002F41D00120FEF70CFAFBF788FD35
:107E000094F80831A778012B637898BFFF27FF2BE0
:107E10001FD0FFF739FE3946012022E0AA2804D0FE
:107E2000D82803D084F80921B7E7C720002284F8B6
:107E3000092185E7022B83D998E70221E35C4246BA
:107E40000846FBF77FFD3B46B6E70220F8F7A2FFA6
:107E5000C6E7FFF73FFE0128DBD1FFF715FE3946E5
:107E60000020FFF707FF0A230093002361481A460A
:107E700003210068F9F742FC48E7FFF72BFED6F82C
:107E800000800128D8F8109040F0BE80FFF7F2FD86
:107E90000146FFF7EFFDC043C0B2FF23C722CDE983
:107EA000001055494046C847F8F762FE0146FFF703
:107EB000E1FD8046FFF7DEFDC043C0B2CDE90280A0
:107EC000C723FF20CDE900300B4602214B4A08466C
:107ED000FBF738FDE378FF2B0ED0C32B55D018D815
:107EE000B72B46D00BD8912B39D0B62B3DD0902B49
:107EF00017D1A079FFF75EFDFFF7C6FD06E7C02B9F
:107F00003BD0C12B3DD0B82B0BD1204601F04CFC0F
:107F1000F2E7D02B49D018D8C52B3ED039D3C62B89
:107F20003FD0374A00210220FBF70CFD0023DFF889
:107F3000D48094F808215F1CDBB29A4245D82B4AC2
:107F400000210220FBF7FEFCD6E7E52B35D0E82B1D
:107F500037D0D52BE5D1A079FFF7BBFECCE73A4669
:107F60003946A079FFF733FDC6E7204601F0EEFB66
:107F7000C2E7204601F0FEFBBEE7204601F024FCEC
:107F8000BAE7204601F034FCB6E7204601F042FC97
:107F9000B2E7204601F068FCAEE7204601F06CFC39
:107FA000AAE7204601F098FCA6E7A379E07900EB68
:107FB000032080B2FFF745FD9EE7204601F08EFCCE
:107FC0009AE7204601F0BCFC96E7E35C42460021BC
:107FD0000220FBF7B7FC3B46ABE700BFFC02090001
:107FE0002C380820343908200E03090037F808001F
:107FF000403A082030390820D9020900E20209007D
:108000001A03090071030900FFF734FD0146FFF769
:1080100031FDC043C0B2F023C722CDE900100D49A5
:108020004046C847F8F7A4FD0146FFF723FD804608
:10803000FFF720FDC043C723F022C0B2CDE90032D4
:10804000CDE902800B46044A39460220FBF77AFC50
:1080500052E700BFD9020900E202090010B51D2451
:108060008AB08DF80430BDF830308DF802006846D3
:108070008DF800408DF801108DF80320ADF8063022
:10808000FBF720FB0AB010BDF0B52C4A85B00E46B8
:10809000044601210220FBF755FC294B1B78002BDD
:1080A0000CBF02270327FFF7D9FCB742054643D38D
:1080B000032E41D8DFE806F002102332FEF7EAFF74
:1080C000204B014653F825303A46009320460023C2
:1080D00001F0CCF905B0F0BDFEF7D2FF1A4B00213C
:1080E00003931A4B012253F8253002930323CDE961
:1080F000003102230146204601F0F9F9EAE7FEF7D4
:10810000BFFF114B002203930E4B53F8253002930F
:108110000323CDE9003210230222EBE7FEF7B0FF84
:10812000094B032203930A4B53F825300293002393
:10813000CDE900238023DDE70020CBE78407090099
:10814000613A082038820720AC040900C404090001
:10815000F00D0900F0B52F4A85B004460E46022006
:108160000121FBF7EFFBFFF779FC2B4B05461B7852
:10817000002B0CBF02270327032E47D8DFE806F0A9
:1081800002101D39FEF786FF244B014653F82530B7
:108190003A4600932046022301F068F905B0F0BD8D
:1081A000FEF76EFF1E4B03931E4B53F825300293D0
:1081B000002301930123009313E0FFF74FFC1A4BB8
:1081C0001B68A3B1194B53F82060FEF759FF184BF9
:1081D000002253F82530039602930123CDE90032A3
:1081E000022301461A46204601F081F9D6E7114BD9
:1081F000E9E76BB1FEF744FF0F4B03930F4B53F8C6
:1082000025300293002301930323D4E70020C5E720
:108210000120C3E76B0709005C3A0820C404090089
:10822000F8F30800E80C0900443A0820880E090019
:10823000C803090030080900AC040900140409004F
:1082400003780A2B0ED1C288074B1A800279074B9C
:108250001A70C278064B1A708278064B1A704278F0
:10826000054B1A70704700BF623A0820603A082038
:108270005D3A08205E3A08205F3A08207FB501F099
:1082800069FE0B280FD9094B094A01210020FBF791
:1082900059FB03238DF80030FCF7A2F88DF8080095
:1082A000684601F09DFE07B05DF804FBAE030900CF
:1082B000B9F308000C4B13B51860FFF775FA0B4BB8
:1082C0001C68F8F755FC05230246009301210023A2
:1082D0002046F9F713FA01210020054A02B0BDE853
:1082E0001040FBF72FBB00BF4C3A0820583A08203B
:1082F000AE04090008B5064A01210020FBF722FB65
:10830000FFF752FA034B1868BDE80840FFF7D2BFE9
:1083100014090900503A08200D4A0178136871B910
:10832000022B01D8032111601268003318BF01230A
:10833000003218BF0122934208D0FFF7DBBF0129AA
:10834000EED00729F0D10BB1591EECE7704700BF02
:10835000443A08200122014B1A707047613A082004
:1083600082071FD16422B0FBF2F302FB13039BB21E
:10837000D3B94FF4C872B0FBF2F302FB130080B222
:10838000B0FA80F040090B2912D8012303FA01F159
:1083900011F4256F0AD14B070AD5002814BF1D2000
:1083A0001C2070470020EEE70120ECE71E207047FC
:1083B0001F20704710B51446FFF7D2FF24B1A0422A
:1083C00028BF2046C0B210BD0120FCE72DE9F043D4
:1083D000037887B0272B054640F091804378022B25
:1083E00040F08D8000F0E6FD03287DD1EC78AD787B
:1083F000F8F7BEFB434BCDE901450093424A0346E3
:1084000001210020FBF79EFA404B414E1B78414D65
:108410009A1EDFF82881DFF828913F4F042A5DD8A3
:10842000DFE802F003313D4B540004F5FA642346C3
:108430003A4A01210020FBF785FA34803B78384A1C
:10844000049399F800300121039398F8003000203C
:1084500002932B780193338800932A4BFBF772FA2F
:108460003C78297899F8003098F8002030880094FA
:1084700001F08EFA2B48FFF71DFF032007B0BDE87F
:10848000F04300F041BD2346274A01210020FBF7BD
:1084900059FA0CB12C70D1E701232B70CEE723469B
:1084A000224A01210020FBF74DFA22462978308824
:1084B000FFF780FF88F80000C0E723461C4A01212F
:1084C0000020FBF73FFA89F80040B7E72346194A36
:1084D00001210020FBF736FA3C70AFE7164A012174
:1084E0000020FBF72FFAA9E71038C0B26F2806D892
:1084F000A978E87807B0BDE8F04300F0F1BC07B018
:10850000BDE8F0838D03090055060900493A0820AB
:10851000623A0820603A08205F3A082064060900A1
:10852000D106090045850800750609008606090080
:1085300099060900A9060900BC0609005D3A082051
:108540005E3A08202DE9F04F89B08846054601F0D3
:108550000BF900280CBF4FF0070A4FF0060AFFF78F
:108560007DFA654B654E1F88654B31781A78044655
:108570003846FFF71FFF634B079093F800B0FFF7F3
:108580006DFA3246BBF1000F07D001265E4951F863
:108590002090C24506D2002019E05C495E4651F8A1
:1085A0002090F6E7B8F1070FF5D8DFE808F00413DC
:1085B000243C50627486FEF76DFD554B014653F81E
:1085C0002430524600932846032300F04FFF09B0A1
:1085D000BDE8F08FFEF754FD4E4B014653F82430B2
:1085E000CDE9029B019300230093012328461A46FC
:1085F00000F0D7FFEBE7FEF743FD4FF080080A23BA
:10860000CDE90438444B30370293444BFFB253F862
:1086100024300397CDE90063022301461A46284619
:1086200001F01FF8D3E70792FEF72AFD00234FF071
:108630000C0ECDE9043E079A13780393364B029350
:10864000374B53F82430CDE900630323E5E7FEF709
:1086500017FD00234FF01F0CCDE9043C079B03934B
:108660002D4B02932F4B53F82430CDE900630423A4
:10867000D3E7FEF705FD17270023CDE904372A4B82
:108680001B780393244B0293284B53F82430CDE9F5
:1086900000630523C1E7FEF7F3FC00233B21CDE98E
:1086A0000431234B1B7803931B4B0293214B53F84C
:1086B0002430CDE900630623AFE701F055F8002828
:1086C0007FF469AF1C4B1B78A3B11C4B53F824609B
:1086D000FEF7D6FC1A4B002253F8243001460293D1
:1086E0000123CDE90032072303961A46284600F0FD
:1086F000FEFE6CE7134BE9E7623A0820603A082077
:108700005D3A0820543A0820C80809007C0809008E
:1087100014040900340D0900AC0409003C0E0900E2
:10872000E4070900600409005E3A08201807090000
:108730005F3A082098070900483A08205C050900BC
:10874000800D090010050900134B73B5187008B3AC
:10875000124B1E88A6F5FA63362B1BD8104B1D78DA
:108760006B1E0B2B16D80F4B1C789CB1224629464A
:108770003046FFF71FFE84420CD80B4B18781728A1
:1087800008D80A4B19783B2904D800962B46224674
:10879000FFF764FC02B070BD543A0820623A08202A
:1087A000603A08205D3A08205E3A08205F3A0820C7
:1087B0007FB503780446272B03D145781DB1012DE1
:1087C0000FD004B070BD8478002CFAD100F010FCFA
:1087D000204600F099FB564804B0BDE87040FFF712
:1087E00069BD027983780192C278294600920020FF
:1087F000504AFBF7A7F800F0DDFB0F2800F28E804F
:1088000000F0D8FB294603464B4A0020FBF79AF8B4
:1088100000F0D0FBA578032875D8DFE800F002024D
:108820006E24E178227915B909B9012A0AD00F2AF4
:1088300011D8012A06D9022AC3D14048FFF73AFDD0
:10884000022003E03A48FFF735FD002004B0BDE800
:10885000704000F059BB1006B3D4284604B0BDE800
:10886000704000F0A3BAE6782479F8F781F9344B28
:10887000CDE90264009301950346324A01210020AC
:10888000FBF760F8032D9CD1012C16D12E4E2F4AF8
:10889000337821460020FBF755F8307880F001004E
:1088A000FFF752FF33782A4A21460020FBF74AF8A7
:1088B0002848FFF7FFFC0320C8E7072C11D101214E
:1088C000254A0020FBF73EF8244B197881F001017E
:1088D000197021B100210846FFF7DFF9E8E7012010
:1088E000FAE71F4D2B78A3423FF46BAF1D4A0121DD
:1088F0000020FBF727F82C7063E7022D9DD1247927
:10890000032C9AD1D4E72379174A0193E378012104
:10891000009300202B46FBF715F852E702063FF5BF
:1089200050AF227913063FF54CAFE178A07895E778
:1089300089800800A8050900DD05090055810800A7
:1089400076030900F8050900543A082010060900CA
:108950006DF608004585080030060900483A0820F1
:10896000493A0820400609001FFA080013B51649C5
:108970002720FAF78BFE154C15492720FAF786FEBB
:1089800014490A20FAF782FE21460020FAF77EFEFB
:1089900021460120FAF77AFE21460720FAF776FEF3
:1089A0000D490720FAF772FE00F032FB0B4B4FF433
:1089B000FA71009300230A481A46F8F779FE094B2A
:1089C000186002B010BD00BFB1870800198308000D
:1089D000CD830800418208007D820800018A0800DA
:1089E00064070900583A0820262300B58BB001908F
:1089F00068468DF80030FAF765FE0BB05DF804FBB1
:108A000010B50C4C0C4A01210020FAF79BFF23689B
:108A10007BB10A4A01210020FAF794FF2068FFF792
:108A2000E3FF2068FFF7E0FF2268054B1A60002390
:108A3000236010BD4C3A0820CC0D0900E20D09005E
:108A4000503A08202DE9F04186B006460D46FFF762
:108A500005F804460A2D00F25B81DFE815F00B00F3
:108A60001A0040005B007E009D00BC00F30017016F
:108A700030014B01FEF70EFBA64B014653F82430A4
:108A80000A2200933046102300F0F0FC06B0BDE847
:108A9000F081A14B197801BB0E20FEF7A5F8012546
:108AA000FEF7DCFF07460E20FEF798F801280CBF02
:108AB0009A4B9B4B53F82770FEF7E2FA994B0397BA
:108AC00053F82430CDE901530323009301230146D9
:108AD0001A46304600F00BFDD8E70025E0E70F20EE
:108AE000FEF77CF80546FEF7CBFA00231E22CDE9FF
:108AF00004328D4A039552F8242002928B4A52F890
:108B00002420CDE90032022301461A46304600F007
:108B1000A8FDBBE7FEF7A2FF05461020FEF75EF8B2
:108B200088B1012811D1824B53F82550FEF7A8FADD
:108B3000804B4FF0000853F8243003950293032331
:108B4000CDE90038C3E77C4BEEE77B4B00211020DA
:108B500053F82550FEF748F8E8E71120FEF73EF8F5
:108B600007461020FEF73AF80546FEF789FA00237B
:108B70004FF03C0E15F1FF3518BF0125CDE9043E3D
:108B80006E4B039753F82430009502936C4B53F8C7
:108B9000243001930423B7E71220FEF71FF807469D
:108BA0001020FEF71BF80546FEF76AFA00234FF087
:108BB0003C0C15F1FF3518BF0125CDE9043C5F4B96
:108BC000039753F82430009502935E4B53F82430FA
:108BD0000193052398E7FEF741FF054601F0BAF936
:108BE0000B282DD8DFE800F00616181A1C1E282ABC
:108BF00020222426544B53F82550FEF741FA534BBC
:108C0000039553F82430002502930323CDE9003562
:108C100006235CE74E4BEEE74E4BECE74E4BEAE7A4
:108C20004E4BE8E74E4BE6E74E4BE4E74E4BE2E7B0
:108C30004E4BE0E74E4BDEE74E4BDCE74E4BDAE7C0
:108C40004E4DDAE71320FDF7C9FF4D4B53F8248052
:108C50004C4B1F78AFB1012815D100254A4B53F872
:108C60002480FEF70DFA494B014653F82430CDE934
:108C70000287CDE90053072330461A4600F091FCE5
:108C800004E70125EDE700252F46EAE7FEF7E6FEBB
:108C900005460B20FDF7A2FF012894BF3C4B3D4B3E
:108CA00053F82550FEF7ECF93B4B039553F824306D
:108CB000002402930323CDE90034082307E7FEF7DD
:108CC000CDFE05460B20FDF789FF08B102280FD124
:108CD000324B53F82550FEF7D3F9314B002153F8AE
:108CE0002430039502930323CDE900310923EEE6F6
:108CF0002C4BEEE7FEF7C4F9204B002203932A4BDE
:108D000053F8243002930323CDE900320A23DEE630
:108D10000020BBE638820720653A08206C13090062
:108D2000B8130900201309009C1409009C0F0900C6
:108D3000E80F090048170900E8140900E0170900C6
:108D4000CC15090034150900FC16090004140900AB
:108D5000181109004C12090080100900040F0900C5
:108D60003410090064160900CC1009006C1D0900BC
:108D7000B0110900201D090064110900FC1109004F
:108D800080150900663A082018160900B016090077
:108D9000D41C0900D4120900500F09005014090016
:108DA0002C180900941709000012090010B5144688
:108DB00088B038B94248FFF77DFA102000F0A4F8D7
:108DC00008B010BD1028FBD100923E4B3E4A012155
:108DD0000020FAF7B7FD631E092B6ED8DFE803F019
:108DE000056D116D6D1B38414B620E20FDF7F6FECF
:108DF000411CC9B2022908BF00210E20FDF7F4FE74
:108E0000D8E71020FDF7EAFE411CC9B2022908BFCD
:108E100000211020F2E701F09DF804460134E4B28D
:108E200003462A4A01210020FAF78CFD0C2C28BFAA
:108E30000024274A234601210020FAF783FD03235B
:108E400002A88DF808308DF8104001F0C9F8B1E79C
:108E50001320FDF7C3FE10F1FF3118BF01211320CD
:108E6000CCE70B20FDF7BAFE014603280ED8DFE859
:108E700000F01715130C0B20FDF7B0FE0146032878
:108E800004D8DFE800F002090B0D01210B20FDF7EB
:108E9000ABFE01F00BFA8DE70021F7E70321F5E7C0
:108EA0000221F3E70B4B0C4A01210020FAF74AFD9F
:108EB000FDF7B0FEFDF7FCFA7CE7084B1C7079E784
:108EC000458A0800EC0E090098120900AD1209004D
:108ED000C0120900D40E0900B9F30800643A082052
:108EE000084B01461B78042B06D0052B06D0022B1D
:108EF00006D10F20FDF778BE1120FBE71220F9E71D
:108F0000704700BF643A082070B5184D184CB5F989
:108F100000300646E21812F8012C824200D163B9F3
:108F20003346144A01210020FAF70CFDB5F9003050
:108F3000092BE65413DC01332B8000250E4E635DB4
:108F40003246012100200135FAF7FCFC0A2DF6D14A
:108F5000BDE87040094A01210020FAF7F3BC002166
:108F6000074A0846FAF7EEFCE7E700BF683A082030
:108F700084820720DB1D09000F1E090037F8080056
:108F8000EA1D0900FF21084B0020B3F90020002A48
:108F9000C4BF02F1FF321A80B3F90030034AD15442
:108FA000034A0121FAF7CEBC683A082084820720E0
:108FB000CC1D090038B50B4DB5F90030002B0EDD86
:108FC000094C0A4A234413F8013C01210020FAF716
:108FD000B9FCB5F900301C4414F8010C38BDFF2071
:108FE000FCE700BF683A082084820720B81D09000A
:108FF0000023FF21044A995401330A2BFBD100229C
:10900000024B1A80704700BF84820720683A08200C
:10901000FFF7EEBF0378182B02BF4268014B1A60BE
:10902000704700BF6C3A08200378072B04D1034A2D
:1090300013780BB1013B1370704700BF8E8207207D
:1090400038B5037805460E2B0ED1084C41782278AE
:10905000914207D0064A01210020FAF773FC054827
:10906000FEF74CFC6B78237038BD00BF8F82072061
:10907000151E0900ED91080038B503780546142B3C
:109080000ED1084C41782278914207D0064A01213E
:109090000020FAF757FC0548FEF730FC6B78237088
:1090A00038BD00BF92820720531E0900ED910800D1
:1090B00038B503780546132B0ED1084C4178227839
:1090C000914207D0064A01210020FAF73BFC0548EF
:1090D000FEF714FC6B78237038BD00BF9182072027
:1090E000401E0900ED91080038B503780546102BA5
:1090F00014D10B4C41782278914207D0094A0121C2
:109100000020FAF71FFC0848FEF7F8FB6B78237085
:10911000FDF7D4F910B10A22044B1A7038BD00BF14
:10912000908207202B1E0900ED9108008E820720F7
:1091300038B5294B1C78002C46D00023FF2480F83A
:10914000093100F20712431E03F8014F9A42FBD186
:10915000C7220270C82200234270102280F80A3110
:1091600080F80B3103711D4BC2701D4A1B781278B9
:10917000002B817014BF0023612312B343F002035C
:10918000184A12780AB943F00803002545722025D1
:10919000154A153112688371C2F307240B44D2B209
:1091A0002344134420338572DB430C210525C4710D
:1091B00002724571C37280F80811FEF7B5FC0120F8
:1091C00038BD43F00603DBE7FAF7A2FB0120FDF709
:1091D00021F82046F4E700BF8E8207209082072006
:1091E000928207208F8207206C3A0820FFF7A0BFE9
:1091F00008B50D491020FAF749FA0C490E20FAF784
:1092000045FA0B491420FAF741FA0A491320FAF7F4
:109210003DFA09491820FAF739FABDE8084007492C
:109220000720FAF733BA00BFE99008004190080020
:1092300079900800B1900800159008002990080066
:10924000002310B5FF2480F80931421E00F20713F5
:1092500002F8014F9342FBD1C7230370C823437028
:109260001823C3700323002243710B4B80F80A219B
:109270001B7880F80B21C3710B441D338170027180
:109280008271DB4302220A210272437280F80811C4
:10929000FEF74AFC012010BD703A082038B50023C3
:1092A000FF2480F8093100F20715431E03F8014F2F
:1092B0009D42FBD1C7250570C8254570192500239F
:1092C000C5700E2581700371457115782731857140
:1092D000557880F80A31C571957880F80B310572A0
:1092E000D5788372457255790373C572127AC9B203
:1092F00042738374C3748473C47304744474831D8D
:1093000000F11402934208D1C9430175152180F878
:109310000811FEF709FC012038BD13F8014B214468
:10932000C9B2EFE738B50023FF2580F8093100F214
:109330000714431E03F8015F9C42FBD1C72404704D
:10934000C824002344701A248170C470037180F80B
:109350000A3180F80B315378223183719378C9B286
:10936000C371D378037213794372537983729379FB
:10937000C372D3790373137A00F10E024373082387
:109380004371831D934208D1C94381730F2180F833
:109390000811FEF7C9FB012038BD13F8014B214429
:1093A000C9B2EFE770B5417990F808418D1DA5422B
:1093B00017D18378C2780B441344027905311344E2
:1093C0000622DBB2914206DADB430134435580F8D2
:1093D0000841012070BD865C01323344DBB292B299
:1093E000F0E70020F6E70023FF2180F8083180F83D
:1093F000093100F20712431E03F8011F9342FBD10B
:10940000002380F80A3180F80B31704730B51446DC
:10941000A31ADBB2994200D830BD90F8083114F895
:10942000015BC554013380F80831F1E710B590F8BD
:109430000A31044690F808110BB1032903D8637967
:1094400007338B4204D12046FEF76EFB012010BD8E
:109450000021054A0846FAF775FA204694F80811E3
:10946000FEF762FB0020F2E7690009002DE9F041F8
:10947000069E044690460D461F46FFF7B4FFC723DD
:10948000C82290F808012354431CDBB2E254831C29
:109490003022DBB2E5540025C31CDBB2E254411D8F
:1094A000031DDBB2C9B204F80380C21D6554811DDF
:1094B000C9B2D2B2083004F80180A75484F8080178
:1094C000304602F029FB3246C1B22046FFF79EFF2C
:1094D00094F80831E5545A1C053B84F8082163715F
:1094E000FFF760FF2046BDE8F041FFF79FBF2DE981
:1094F000F84F0446DDE90C768B46154699469DF8F3
:1095000028A09DF82C80FFF76EFFC723CA2290F891
:1095100008012354431CDBB2E2543022831CDBB22B
:1095200004F803B0C31CDBB2E254031DDBB2E55404
:109530000025431D821DDBB2D2B2E55404F802A01F
:1095400000F10803C21DDBB2D2B2093004F8029068
:1095500004F8038084F80801384602F0DDFA3A4640
:10956000C1B22046FFF752FF94F808313046E55467
:10957000013384F8083102F0CFFA3246C1B22046F6
:10958000FFF744FF94F80831E5545A1C053B84F872
:1095900008216371FFF706FF2046BDE8F84FFFF78B
:1095A00045BF2DE9F84F0446DDE90B878B4615468C
:1095B0009A469DF828909DF83460FFF714FFC72362
:1095C000CA2290F808012354431CDBB2E254302233
:1095D000831CDBB204F803B0C31CDBB2E254031DEE
:1095E000DBB2E5540025431DDBB2E5540423821DA4
:1095F000D2B2A354C21D00F10803DBB2D2B20930CB
:1096000004F802A004F8039084F80801404602F030
:1096100083FA4246C1B22046FFF7F8FE94F80831BB
:109620003846E554013384F8083102F075FA3A46B9
:10963000C1B22046FFF7EAFE94F808315A1CD2B2B4
:10964000E554A5549A1CD2B2A654DA1C033B84F804
:1096500008216371FFF7A6FE2046BDE8F84FFFF72B
:10966000E5BE2DE9F74F0446DDE90D760D46CDE95F
:1096700000329DF830B09DF83C809DF840A09DF8E8
:109680004490FFF7B0FE90F80811C7204FF0CA0CC5
:109690006054481CC0B204F800C0881CC0B22554F5
:1096A0003025C81CC0B22554019A0025081DC0B23F
:1096B000225406204A1DD2B2A5548A1DD2B2A0540B
:1096C000009BCA1DD2B2A35401F10803DBB20931D9
:1096D00004F803B0384684F8081102F01DFA3A463F
:1096E000C1B22046FFF792FE94F808313046E554A7
:1096F000013384F8083102F00FFA3246C1B2204635
:10970000FFF784FE94F808315A1C991CD2B2C9B2F2
:10971000E554A55404F801A0D91CC9B26554191D1B
:10972000C9B204F80190591DC9B26554991DC9B256
:10973000073304F8018084F808316271FFF732FEC4
:10974000204603B0BDE8F04FFFF770BE37B5847A0E
:10975000857904F5FA64437A027AC179009428463F
:10976000FEF77CFC03B030BD014B1878704700BF9A
:10977000713A082010B5837904466BB90121074B73
:10978000074A19700220074BFAF7DCF8217AE079D2
:10979000BDE81040FEF781BA10BD00BF713A082045
:1097A0007A1E0900671E090010B504468379054A30
:1097B00001210020FAF7C6F8A079BDE81040FEF7B5
:1097C0007BBA00BF921E090030B5457B85B0C479D5
:1097D000437A027A81790395057B0295C57A0195D2
:1097E000807A00902046FEF7A1F805B030BD000059
:1097F00010B50446064A01210020FAF7A3F8A37920
:10980000022B04D1E079BDE81040FEF7C6B810BDC8
:10981000A51E0900202300B58BB08DF80030837998
:1098200007308DF80130002310F8012B0DEB0301F8
:109830001D2B8A7011D100210A4A0846FAF782F8D6
:109840002E238DF81F308DF81E308DF81D306846A0
:10985000F9F738FF0BB05DF804FB0133002AE3D1C0
:10986000F5E700BFAB1E09008379027AC17903F0E6
:109870000F00FEF77DB80000212300B58BB08DF8F6
:109880000030837908308DF8013010F8013C8DF8F4
:109890000230002310F8012B0DEB03011D2BCA70C1
:1098A00014D100210B4A0846FAF74CF800238DF832
:1098B00020302E238DF81F308DF81E308DF81D308E
:1098C0006846F9F7FFFE0BB05DF804FB0133002A90
:1098D000E0D1F5E7AB1E09007047000070B5154AEE
:1098E000044601210020FAF72DF80023124E94F8C7
:1098F00008215D1CDBB29A4214D8104A01210020D5
:10990000FAF720F8A37933B9E37923B9237A012B45
:1099100001D8FFF737FB227AE179A079BDE87040E2
:10992000FEF769B8E35C324601210020FAF70AF835
:109930002B46DCE7CB1E09007103090037F808004D
:1099400070B5104A044601210020F9F7FBFF0023FF
:109950000D4E94F808215D1CDBB29A420AD8012111
:109960000A4A0020F9F7EEFFE179A079BDE87040DE
:10997000FEF755B8E35C324601210020F9F7E2FF1B
:109980002B46E6E7CB1E09007103090037F80800F3
:1099900030B4074C9DF8085024681CB10295A446C9
:1099A00030BC60472146204630BC024AF9F7CABFA6
:1099B000743A0820D61E090000230246FF2180F8D1
:1099C0004530831C42F8403F03F8011B9342FBD112
:1099D000002340F29F2280F84830028080F8463011
:1099E00080F84B3080F8473080F8493080F84A30B2
:1099F00080F8441070470000F8B500230B4C0C4E63
:109A00000C4F22785D1CDBB29A4206D8BDE8F840C4
:109A1000094A01210020F9F795BFF35C3A4601217C
:109A20000020F9F78FFF2B46EBE700BFF83B08203B
:109A3000303B08200F1E090037F8080008B5F6F77C
:109A400067FE0023054A1370054A13700122054B77
:109A50001A70BDE80840F6F76BBE00BFE03A082078
:109A60008C3A08209382072010B5104C2378022BE3
:109A700010D80F4A01210020F9F764FF23780D4820
:109A8000013323700023BDE810401A4619460068D0
:109A9000F8F784B9084A01210020F9F753FFFFF7CE
:109AA000ABFFBDE81040FFF7C9BF00BFE03A082098
:109AB0006F1F0900783A0820791F0900F7B50022C6
:109AC00011461F4D1F4B2C78D0B2844229D89F22BB
:109AD0001A700222002429701B495A7091F844C060
:109AE0000E6CE0B2511C6045C9B21DD99F2098543C
:109AF0000232D4B203225A54144B1E68F7F738F8D6
:109B000000230246009301213046F7F7F7FD224675
:109B10000F4B0C4918682C70C36803B0BDE8F040C7
:109B2000184799540132CFE7375C01349F2F04BFA7
:109B30009F540A46315C99540132D2B2D1E700BF3A
:109B4000F83B0820303B0820E43A0820883A0820F7
:109B5000803A082030B50C4A136C92F8441019442E
:109B600000234B7092F844105C1CDBB2994201F167
:109B7000010102D282F8441030BD106CC35C455C18
:109B80006B4043542346EDE7E43A0820044A92F838
:109B90004430116C0133DBB282F84430C854704752
:109BA000E43A082010B50446C0B2FFF7EFFFC4F353
:109BB0000720FFF7EBFFC4F30740FFF7E7FF200E96
:109BC000BDE81040FFF7E2BF036C587800F02ABAF6
:109BD000036C5878003018BF012000F01DBA000057
:109BE0002DE98048BC4DBD4F28688BB043694E229B
:109BF0004FF4E1319847BB46DFF8248300213868F1
:109C0000F8F7F2FA024600284ED0FFF757FF28680F
:109C1000322301220DF10F018069FBF7FDF80028C6
:109C200000F0D680AE4C9DF80F1094F845302646D3
:109C3000002B00F0A780022971D12046FFF7BCFE5F
:109C4000002384F84530012384F8483094F84730E5
:109C5000002B00F0BD8094F84630002B40F0968039
:109C60001A4694F84400D4F840C099B2884206D30A
:109C70001CF803100133412B82EA0102F5D11420B4
:109C8000002A00F0C380F7F785F8964B04A91868FE
:109C90009A889B7904902868ADF814208DF81630C6
:109CA000C3680722984790E098F80030002BAED0A8
:109CB0008D4B04A91868F8F7F5F90028A7D00A20F9
:109CC000F7F768F88948FFF777FE9DF81000FFF76F
:109CD0005DFF9DF81030042B12D00DD8D3B1032BAB
:109CE00018D0FFF737FFFFF7E9FE00230A2088F8B6
:109CF0000030F7F74FF88AE7052B04D0172BF0D187
:109D00000598FFF74FFF9DF81800FFF73FFF9DF8FC
:109D1000190001E09DF81800FFF738FFE1E703297B
:109D20000AD194F84830002B90D0012384F84730B2
:109D3000002384F8453089E7062905D1012384F8FA
:109D4000493084F84630F3E7152903D1012384F81C
:109D50004A30F6E79F2911D1002384F8453094F862
:109D60004430A3F13E02D2B2C02A7FF66FAF226C1C
:109D70000133DBB284F84430D15467E72046FFF763
:109D80001BFE63E79F29EAD10123D2E70A23009350
:109D9000002357481A4603210068F7F7AFFC94F8F0
:109DA0004A3083B3534C2378032B25D8524A0121E0
:109DB0000020F9F7C7FD0023DBF800001A4619461A
:109DC000F7F7ECFF2378013323704548FFF7F4FDE4
:109DD0004A4B1C78621C1A70002C7FF40FAF20468F
:109DE000F7F724F963283FF609AF454B454A0121AF
:109DF0002046F9F7A7FD01E7434A01210020F9F7C2
:109E0000A1FDFFF7F9FDFFF719FEDEE7F6F7C2FF48
:109E10003E4B04A918689A889B7904902868ADF88D
:109E200014208DF81630C3680722984794F84730FD
:109E300043B1226C1378042B29D024D8012B3ED0B7
:109E4000032B6FD0324A01210020F9F77BFD94F8F3
:109E5000449094F84730B9F1FF0F08BF4FF0000964
:109E600000932C4A4B4601210020F9F76BFD00249A
:109E7000DFF8A8A0E3B24B455CD3274A01210020BC
:109E8000F9F760FDA1E7162B50D0172BDAD100238C
:109E9000D2F8019096F8442003F1010ADBB29A420D
:109EA00011D81D4A01210020F9F74CFDB9F1000F2E
:109EB0008BD0236CDA1D99795879C84785E7084813
:109EC000FFF782FE81E7326C0121D35C0020134A48
:109ED000F9F738FD5346DDE7803A0820783A082044
:109EE000903A0820FC1E0900DC3A0820E43A0820D9
:109EF000883A08208C3A0820261F0900843A082056
:109F00000C1F0900D6F608002D1F0900041F0900C8
:109F10004C1F09005F1F090037F808000F1E0900D9
:109F2000938207205278094B1A704EE70848FFF7D2
:109F30004FFE4AE7336C52461B5D01210020F9F7C2
:109F400001FD0A20F6F726FF013493E7853A082041
:109F5000903A0820014B1878704700BF853A0820D6
:109F600073B5154E34782CBB0125144B144A154992
:109F70001A60154823464FF4C87201940095F6F70D
:109F8000CBFC224618212820F7F7E2FE0F4B224691
:109F900018600F4BFA2100930E482346F7F788FB11
:109FA0000D4B0322186021462846F7F7D1FE0B4BD4
:109FB0003570186002B070BD7C3A0820803A0820E5
:109FC000F48107201C1F0900E19B0800DC3A0820EF
:109FD000699A0800E4FF0800883A0820783A0820C7
:109FE00001460348002302220068F7F7D7BE00BFEE
:109FF000DC3A0820054B1B782BB9054B1B7813B9AD
:10A00000044B187800B10120FCF79ABAF93B0820FC
:10A01000FA3B0820FB3B0820014B1870FFF7EABF12
:10A02000F93B0820F8B500F04403442B074640F004
:10A03000A28001228C4B1A70FFF7DCFF0C20FCF78A
:10A04000CDFD022840F007810620FCF7C7FD07F090
:10A0500077068642854D40F09F802B78042B00F2D6
:10A0600090800124824A01210020F9F76BFC2B78B3
:10A0700001332B700420FCF7B1FDB04240F0B780F3
:10A080000121084600F004FA7A4A01210020F9F77C
:10A0900059FC01240520FCF7A1FDB04240F0B2803C
:10A0A000754A01210020F9F74DFC0121022000F042
:10A0B000EFF901240A20FCF791FDB04240F0A7809F
:10A0C0006E4A01210020F9F73DFC0121072000F034
:10A0D000DFF901240920FCF781FDB04240F09C80AB
:10A0E000674A01210020F9F72DFC0121062000F02C
:10A0F000CFF901240720FCF771FDB04240F09180B8
:10A10000604A01210020F9F71DFC0121042000F024
:10A11000BFF901240820FCF761FDB04240F08680C1
:10A12000594A01210020F9F70DFC0121052000F01A
:10A13000AFF901240220FCF751FD07F08805A84281
:10A1400079D1524A01210020F9F7FCFB01210820B6
:10A1500000F09EF901240120FCF740FDA8426FD1D8
:10A1600001214B4A0020F9F7EDFBBDE8F840012141
:10A17000092000F08DB9002B7FF460AF3A4A1370CC
:10A180005AE70124434A01210020F9F7DBFB424B47
:10A190001C70FFF72FFF6DE7404B1A7812B10022B9
:10A1A0002A701A702C780023E4B1042C17D808BF49
:10A1B00003234FF001044FF001014FF0030008BFEB
:10A1C0002B7000F065F9364A01210020F9F7BAFB3F
:10A1D0002B78013B2B7000222F4B1A70D9E72B7084
:10A1E0001C46F8E72146032000F052F9F3E703206C
:10A1F000FCF7F4FCB0423FF443AF0021012000F033
:10A2000047F947E70021022000F042F952E7002118
:10A21000072000F03DF95DE70021062000F038F945
:10A2200068E70021042000F033F973E700210520DE
:10A2300000F02EF97EE70021082000F029F98AE7D6
:10A240000021092000F024F967B15CB9BDE8F840AD
:10A250000320FCF741BD134B134A01210020F9F7FD
:10A2600071FBF3E7F8BD00BFFB3B08209582072098
:10A270000D200900242009002B20090031200900AD
:10A28000392009003F200900462009004C20090020
:10A290005520090014200900FA3B08209482072069
:10A2A0001D200900A21F09006020090008B50B202D
:10A2B000FCF794FC032851D8DFE800F00228567917
:10A2C00008210120FCF790FC40210420FCF78CFCC5
:10A2D00030210520FCF788FC20210A20FCF784FCB3
:10A2E00010210920FCF780FC80210220FCF77CFC77
:10A2F00004210320FCF778FC03210620FCF774FC02
:10A3000002210720FCF770FC012124E00821012034
:10A31000FCF76AFC04210846FCF766FC03210520D3
:10A32000FCF762FC02210A20FCF75EFC01210920F7
:10A33000FCF75AFC80210220FCF756FC4021032048
:10A34000FCF752FC30210620FCF74EFC20210720B0
:10A35000FCF74AFC10210820FCF746FCBDE8084049
:10A3600002210C20FCF740BC08210120FCF73CFC3A
:10A3700004210846FCF738FC03210A20FCF734FCD2
:10A3800002210520FCF730FC01210920FCF72CFC00
:10A3900080210220FCF728FC40210320FCF724FC4C
:10A3A00030210720FCF720FC20210620D0E70821DF
:10A3B0000120FCF719FC40210420FCF715FC30219A
:10A3C0000A20FCF711FC20210520FCF70DFC1021D0
:10A3D0000920FCF709FC80210220FCF705FC042180
:10A3E0000320FCF701FC03210720FCF7FDFB022101
:10A3F000062087E701491A20F9F748B901A40800A7
:10A40000037807B51A2B36D1437813B1023B012BE1
:10A4100031D80C20FCF7E2FB01281BD902282AD0F6
:10A420000C20FCF7DBFB154B0090154A01210020A6
:10A43000F9F788FA134B1878421C10F01F001A70B5
:10A4400019D1114A0121F9F77DFA03B05DF804EB47
:10A45000FCF7EABB094B0D4A01210020F9F772FA1B
:10A46000F6F718F901460B20FCF7BEFB03B05DF8C8
:10A4700004EBFFF71BBF03B05DF804FBBB1F090033
:10A48000D81F0900FC3B0820FA1F090060200900C2
:10A4900008B5034609282FD8DFE800F0050B0F1395
:10A4A000171A1E2124284FF400222D4B11B31A63D2
:10A4B00008BD2C4B4FF08072F8E7294B4FF48022F7
:10A4C000F4E7274B4FF48072F0E7254B8022EDE74D
:10A4D000234B4FF40052E9E7224B4022E6E7214BA1
:10A4E0001022E3E71E4B4FF48062DFE71C4B4FF472
:10A4F0000062DBE75A63DBE71B4A01210020F9F722
:10A5000021FA4022174B5A6310225A634FF400027B
:10A510005A634FF480025A634FF080725A634FF4CB
:10A520000022C3F834228022C3F834224FF40052B0
:10A53000C3F834224FF48022C3F834224FF48072DF
:10A54000C3F834224FF48062C3F834224FF08062A3
:10A55000C3F834224FF40062C3F83422A8E700BFE6
:10A5600000100E40000E0E4080200900F0B5114D85
:10A570008DB001AC06460F460FCD0FC40FCD0FC4F2
:10A5800095E80700002384E8070001AA52F8230099
:10A59000B7FBF0F0B0FBF6F0B0F5807F06D90133E1
:10A5A0000B2BF3D14FF6FF700DB0F0BD40EA032046
:10A5B000FAE700BF9420090070B50C6806460D4606
:10A5C00044B120468968FFF7D1FF4FF6FF739842E8
:10A5D00004460CD0686840B1A968FFF7C7FF4FF682
:10A5E000FF73984205D044EA0044346000242046BA
:10A5F00070BD0446FBE74A6830B58C8A02F00F0252
:10A6000022430C898D7D22438C7A0B6842EA4422D6
:10A61000CC7D42EA054242EA44420C7E42EA844250
:10A6200000EB4314C4F80022CA68C4F804220A6983
:10A63000C4F80C221DB1D1F81A20C4F81822CA7F20
:10A6400002FA03F48A7F9A4042EA0442826491F853
:10A65000212002FA03F491F820209A4042EA0442B1
:10A660004264012291F822409A4024B3046A1443C0
:10A67000046291F82440012C846E0CBF144394436F
:10A68000846691F825401204012C846E0CBF22438D
:10A6900024EA0202032B826691F823204FF0FF0187
:10A6A0000DD8DB00C46E994024EA01019A400A43A8
:10A6B000C266002030BD046A24EA0204D8E7043BE5
:10A6C000DB00046F994024EA010102FA03F30B4313
:10A6D0000367EEE7CB6893429FBF0B680A6100EB0C
:10A6E0004310C0F8102294BF00204FF6FF7070474F
:10A6F0000B69934221BF0B68CA6000EB4310C0F89E
:10A7000008222CBF00204FF6FF707047012303FA88
:10A7100001F141607047012303FA01F18160704744
:10A72000C06970470123103203FA02F203FA01F103
:10A730000A43026170470123103203FA02F203FA5E
:10A7400001F10A434261704781F0004102E000BF1D
:10A7500083F0004330B54FEA41044FEA430594EAE1
:10A76000050F08BF90EA020F1FBF54EA000C55EA1C
:10A77000020C7FEA645C7FEA655C00F0E2804FEAED
:10A780005454D4EB5555B8BF6D420CDD2C4480EACF
:10A79000020281EA030382EA000083EA010180EAFF
:10A7A000020281EA0303362D88BF30BD11F0004F4D
:10A7B0004FEA01314FF4801C4CEA113102D0404283
:10A7C00061EB410113F0004F4FEA03334CEA1333BE
:10A7D00002D0524263EB430394EA050F00F0A780D6
:10A7E000A4F10104D5F1200E0DDB02FA0EFC22FAD1
:10A7F00005F2801841F1000103FA0EF2801843FAC5
:10A8000005F359410EE0A5F120050EF1200E012AB5
:10A8100003FA0EFC28BF4CF0020C43FA05F3C018F3
:10A8200051EBE37101F0004507D54FF0000EDCF16C
:10A83000000C7EEB00006EEB0101B1F5801F1BD315
:10A84000B1F5001F0CD349085FEA30004FEA3C0C19
:10A8500004F101044FEA445212F5800F80F09A800F
:10A86000BCF1004F08BF5FEA500C50F1000041EB13
:10A87000045141EA050130BD5FEA4C0C404141EB17
:10A88000010111F4801FA4F10104E9D191F0000F3E
:10A8900004BF01460020B1FA81F308BF2033A3F1C1
:10A8A0000B03B3F120020CDA0C3208DD02F1140CB8
:10A8B000C2F10C0201FA0CF021FA02F10CE002F1F3
:10A8C0001402D8BFC2F1200C01FA02F120FA0CFCEC
:10A8D000DCBF41EA0C019040E41AA2BF01EB045135
:10A8E000294330BD6FEA04041F3C1CDA0C340EDC33
:10A8F00004F11404C4F1200220FA04F001FA02F376
:10A9000040EA030021FA04F345EA030130BDC4F133
:10A910000C04C4F1200220FA02F001FA04F340EA28
:10A920000300294630BD21FA04F0294630BD94F0D9
:10A93000000F83F4801306BF81F480110134013DC0
:10A940004EE77FEA645C18BF7FEA655C29D094EA31
:10A95000050F08BF90EA020F05D054EA000C04BFAF
:10A960001946104630BD91EA030F1EBF002100209A
:10A9700030BD5FEA545C05D14000494128BF41F039
:10A98000004130BD14F580043CBF01F5801130BD9D
:10A9900001F0004545F0FE4141F470014FF0000028
:10A9A00030BD7FEA645C1ABF194610467FEA655CD9
:10A9B0001CBF0B46024650EA013406BF52EA03357B
:10A9C00091EA030F41F4002130BD00BF90F0000F69
:10A9D00004BF0021704730B54FF4806404F13204A5
:10A9E0004FF000054FF0000150E700BF90F0000F5E
:10A9F00004BF0021704730B54FF4806404F1320485
:10AA000010F0004548BF40424FF000013EE700BF54
:10AA100042004FEAE2014FEA31014FEA02701FBFE4
:10AA200012F07F4393F07F4F81F06051704732F016
:10AA30007F4208BF704793F07F4F04BF41F400216D
:10AA4000704730B54FF4607401F0004521F00041CB
:10AA50001CE700BF50EA010208BF704730B54FF055
:10AA600000050AE050EA010208BF704730B511F056
:10AA7000004502D5404261EB41014FF4806404F18E
:10AA800032045FEA915C3FF4D8AE4FF003025FEA14
:10AA9000DC0C18BF03325FEADC0C18BF033202EB98
:10AAA000DC02C2F1200300FA03FC20FA02F001FAF2
:10AAB00003FE40EA0E0021FA02F11444BDE600BF95
:10AAC00070B54FF0FF0C4CF4E06C1CEA11541DBF44
:10AAD0001CEA135594EA0C0F95EA0C0F00F0DEF80F
:10AAE0002C4481EA030621EA4C5123EA4C5350EAF4
:10AAF000013518BF52EA033541F4801143F4801345
:10AB000038D0A0FB02CE4FF00005E1FB02E506F0D5
:10AB10000042E0FB03E54FF00006E1FB03569CF02A
:10AB2000000F18BF4EF0010EA4F1FF04B6F5007F30
:10AB300064F5407404D25FEA4E0E6D4146EB0606A2
:10AB400042EAC62141EA55514FEAC52040EA5E502B
:10AB50004FEACE2EB4F1FD0C88BFBCF5E06F1ED8D5
:10AB6000BEF1004F08BF5FEA500E50F1000041EB0C
:10AB7000045170BD06F0004646EA010140EA0200B9
:10AB800081EA0301B4EB5C04C2BFD4EB0C0541EADB
:10AB9000045170BD41F480114FF0000E013C00F3F0
:10ABA000AB8014F1360FDEBF002001F0004170BD14
:10ABB000C4F10004203C35DA0C341BDC04F114042D
:10ABC000C4F1200500FA05F320FA04F001FA05F2B9
:10ABD00040EA020001F0004221F0004110EBD37086
:10ABE00021FA04F642EB06015EEA430E08BF20EAB2
:10ABF000D37070BDC4F10C04C4F1200500FA04F355
:10AC000020FA05F001FA04F240EA020001F00041E6
:10AC100010EBD37041F100015EEA430E08BF20EA59
:10AC2000D37070BDC4F1200500FA05F24EEA020EA1
:10AC300020FA04F301FA05F243EA020321FA04F0D0
:10AC400001F0004121FA04F220EA020000EBD37087
:10AC50005EEA430E08BF20EAD37070BD94F0000F87
:10AC60000FD101F00046400041EB010111F4801FBB
:10AC700008BF013CF7D041EA060195F0000F18BF6C
:10AC8000704703F00046520043EB030313F4801FA8
:10AC900008BF013DF7D043EA0603704794EA0C0F62
:10ACA0000CEA135518BF95EA0C0F0CD050EA410678
:10ACB00018BF52EA4306D1D181EA030101F00041F5
:10ACC0004FF0000070BD50EA410606BF104619461D
:10ACD00052EA430619D094EA0C0F02D150EA013629
:10ACE00013D195EA0C0F05D152EA03361CBF10466A
:10ACF00019460AD181EA030101F0004141F0FE4109
:10AD000041F470014FF0000070BD41F0FE4141F48C
:10AD1000780170BD70B54FF0FF0C4CF4E06C1CEA8C
:10AD200011541DBF1CEA135594EA0C0F95EA0C0F41
:10AD300000F0A7F8A4EB050481EA030E52EA0335FC
:10AD40004FEA013100F088804FEA03334FF080551D
:10AD500045EA131343EA12634FEA022245EA11154A
:10AD600045EA10654FEA00260EF000419D4208BFFB
:10AD7000964244F1FD0404F5407402D25B084FEAA8
:10AD80003202B61A65EB03055B084FEA32024FF454
:10AD900080104FF4002CB6EB020E75EB030E22BFB1
:10ADA000B61A754640EA0C005B084FEA3202B6EB71
:10ADB000020E75EB030E22BFB61A754640EA5C0020
:10ADC0005B084FEA3202B6EB020E75EB030E22BFB0
:10ADD000B61A754640EA9C005B084FEA3202B6EBB1
:10ADE000020E75EB030E22BFB61A754640EADC0070
:10ADF00055EA060E18D04FEA051545EA16754FEAD2
:10AE000006164FEAC30343EA52734FEAC2025FEAEF
:10AE10001C1CC0D111F4801F0BD141EA00014FF07E
:10AE200000004FF0004CB6E711F4801F04BF01434F
:10AE30000020B4F1FD0C88BFBCF5E06F3FF6AFAE6B
:10AE4000B5EB030C04BFB6EB020C5FEA500C50F1FB
:10AE5000000041EB045170BD0EF0004E4EEA11317E
:10AE600014EB5C04C2BFD4EB0C0541EA045170BD85
:10AE700041F480114FF0000E013C90E645EA060EC9
:10AE80008DE60CEA135594EA0C0F08BF95EA0C0FF7
:10AE90003FF43BAF94EA0C0F0AD150EA01347FF43F
:10AEA00034AF95EA0C0F7FF425AF104619462CE716
:10AEB00095EA0C0F06D152EA03353FF4FDAE104679
:10AEC000194622E750EA410618BF52EA43067FF4CA
:10AED000C5AE50EA41047FF40DAF52EA43057FF45A
:10AEE000EBAE12E753B94AB9002908BF00281CBFCE
:10AEF0004FF0FF314FF0FF3000F074B9ADF1080CA6
:10AF00006DE904CE00F006F8DDF804E0DDE9022387
:10AF100004B070472DE9F0478C460446089E002B8C
:10AF20004BD18A42154667D9B2FA82F24AB1C2F1D0
:10AF3000200701FA02F320FA07F7954047EA030CCD
:10AF400094404FEA154EBCFBFEF71FFA85F80EFB46
:10AF500017C307FB08F9210C41EA0343994509D9B6
:10AF6000EB1807F1FF3180F01C81994540F21981FF
:10AF7000023F2B44A3EB0903B3FBFEF00EFB10339F
:10AF800000FB08F1A4B244EA0344A14209D92C19F8
:10AF900000F1FF3380F00781A14240F204810238C2
:10AFA0002C4440EA07400027641A1EB10023D44015
:10AFB000C6E900433946BDE8F0878B4209D9002E27
:10AFC00000F0EC800027C6E9000138463946BDE8AC
:10AFD000F087B3FA83F7002F48D18B4202D3824225
:10AFE00000F2FB80841A61EB030301209C46002ED3
:10AFF000E0D0C6E9004CDDE702B9FFDEB2FA82F22A
:10B00000002A40F08F800127491B4FEA15481FFA9C
:10B0100085F9B1FBF8FE08FB1E1109FB0EF04FEAA3
:10B02000144C4CEA0143984207D9EB180EF1FF315A
:10B0300002D2984200F2CD808E461B1AB3FBF8F084
:10B0400008FB103309FB00F9A4B244EA0344A1450C
:10B0500007D92C1900F1FF3302D2A14500F2B680C6
:10B060001846A4EB090440EA0E409EE7C7F120050C
:10B07000BB4022FA05FC4CEA030C21FA05F44FEA26
:10B080001C4EB4FBFEF91FFA8CF80EFB194420FA93
:10B0900005F3B94009FB08FA19430B0C43EA0444D1
:10B0A000A24502FA07F200FA07F30BD91CEB0404DD
:10B0B00009F1FF3080F08880A24540F28580A9F137
:10B0C00002096444A4EB0A04B4FBFEF00EFB104436
:10B0D00000FB08FA89B241EA0444A24508D91CEBF6
:10B0E000040400F1FF316BD2A24569D902386444EF
:10B0F00040EA0940A0FB0289A4EB0A044C45414602
:10B10000CE4654D351D0002E69D05A1A64EB0E04A7
:10B1100004FA05F522FA07F3FC401D43C6E9005482
:10B12000002747E79540C2F1200321FA03F04FEAD8
:10B130001548B0FBF8F71FFA85F908FB170024FA49
:10B1400003F3914007FB09FC0B43190C41EA004152
:10B150008C4504FA02F407D9691807F1FF3031D29F
:10B160008C452FD9023F2944A1EB0C01B1FBF8F02B
:10B1700008FB101C00FB09FE99B241EA0C418E4508
:10B1800007D9691800F1FF3318D28E4516D9023855
:10B190002944A1EB0E0140EA07473AE7374630461B
:10B1A00008E70F46E6E61846FBE64345ABD2B8EBA8
:10B1B000020169EB0C0201389646A4E71846E8E75D
:10B1C000084695E70746CFE781467BE702382C44DF
:10B1D00047E7AEF1020E2B442FE7384607E7374624
:10B1E000E8E600BF704700BF0028B8BF4042704784
:10B1F000024B0A460146186800F002B89882072000
:10B2000010B502FB01F100F055F80446E8B150F822
:10B21000042C22F00302043A242A1FD8132A16D938
:10B2200000231B2AC0E900331DD9242AC0E90233B8
:10B2300008BFC0E904334FF0000314BF00F110024F
:10B2400000F11802C2E900339360204610BD0246A7
:10B2500000232046C2E90033936010BD002100F0B6
:10B2600031FB204610BD00F10802F1E770B50D4E2C
:10B270000D4D761BB61006D00024013455F8043B62
:10B280009847A642F9D1094E094D07F05DF8761BA3
:10B29000B61006D00024013455F8043B9847A64266
:10B2A000F9D170BD54230900542309005C2309001F
:10B2B000542309002DE9F04F01F10B05162D83B041
:10B2C000064623D8102900F2B68000F045FB102571
:10B2D00018230220CC4F3B445C68A3F1080294423F
:10B2E00000F056816368E16823F0030323445A6841
:10B2F000A56842F00102E96030468D605A6000F0B6
:10B3000031FB0834204603B0BDE8F08F35F0070567
:10B3100000F19180A94200F28E8000F01DFBB5F58E
:10B32000FC7FC0F064816B0A00F08C80042B00F27B
:10B330003681AB0903F1390003F1380CC100B24F7B
:10B3400039444C680839A14206D10CE0002A80F249
:10B350001B81E468A14206D0636823F003035A1BF3
:10B360000F2AF3DD60463C69DFF8B0C264456FD058
:10B37000636823F003035A1B0F2A00F32681002A77
:10B38000C7E904CC80F21781B3F5007F80F05981C2
:10B390000122DB08991013448A40796857F833E09A
:10B3A00007EBC3080A43A8F10801C4E902E17A6087
:10B3B00047F83340CEF80C40012483109C4094425F
:10B3C0004CD8144206D120F003006400144200F16E
:10B3D0000400FAD007EBC009CE468046DEF80C30F8
:10B3E0009E4507D107E1002A80F21C81DB689E455B
:10B3F00000F00181596821F003014A1B0F2AF2DD98
:10B4000045F001083046D3E902E41D4442F001064C
:10B41000C3F80480CEF80C40C4F808E0C7E904552E
:10B42000C5E902CC6E605A50019300F09BFA019B73
:10B4300003F1080466E700240C232046336003B0C0
:10B44000BDE8F08F4FF4007140204FF03F0C76E7DD
:10B4500001247A6883109C409442B2D9BC68636826
:10B4600023F00309A94503D3A9EB05030F2B7BDCCC
:10B47000664BDFF8ACA11A68DAF8003005EB020879
:10B48000013300F03A8108F5805808F10F0828F4DC
:10B490007F6828F00F084146304600F069FAB0F1A5
:10B4A000FF3F834600F0F68004EB0900584500F2A8
:10B4B000EF80574A13684344136000F03F81DAF885
:10B4C000001001311BBFABEB00001B18CAF800B025
:10B4D00013601BF0070300F02681C3F10801C3F5D8
:10B4E00080538B440833D844C8F30B08A3EB0808F7
:10B4F00041463046019200F03BFA431C019A00F0AD
:10B500003881A0EB0B01414441F001011368BC42BA
:10B510004344C7F808B01360CBF8041015D0B9F154
:10B520000F0F40F222814FF0050E6168A9F10C0067
:10B5300020F0070001F00101014304EB000C0F288B
:10B540006160CCE901EE00F22C81324A3248116888
:10B55000BC688B42016888BF136062688B4222F02E
:10B56000030288BF036099E045F0010243F0010344
:10B57000254462603046BD6008346B6000F0F2F92B
:10B58000204603B0BDE8F08F23445A68E168AFE677
:10B59000DC68A34208BF02303FF4E5AEA2E6142BFC
:10B5A00070D9542B00F2AC802B0B03F16F0003F128
:10B5B0006E0CC100C3E623445A68304642F00102D3
:10B5C0005A60083400F0CEF99CE645F0010E42F0D6
:10B5D00001012544C4F804E03046C7E90455C5E933
:10B5E00002CC6960E25000F0BDF908348AE6E80850
:10B5F00005F108036EE608F1010818F0030F0EF1DB
:10B60000080E7FF4EBAE60E0C8860720303C0820CF
:10B61000003C0820283C08202C3C0820D08607202D
:10B62000D08A07201C4619444A68DB6854F8085F32
:10B6300042F001024A603046EB609D6000F092F9F2
:10B6400060E65A0A042A35D9142A6FD802F15C013F
:10B65000C9005B3207EB010E7958AEF1080E8E453A
:10B6600058D04A6822F003029A4202D989688E456E
:10B67000F7D1D1F80CE07A68C4E9021ECEF8084090
:10B68000CC6099E603F15C0003F15B0CC10056E667
:10B69000BC4272D0BC68626822F003029542A2EB01
:10B6A000050302D80F2B3FF75FAF304600F05AF981
:10B6B000002427E69A0902F13901C9003832C9E7A6
:10B6C000D9F80090994540F0838010F0030FA9F15C
:10B6D000080300F1FF30F3D17B6823EA04037B60A9
:10B6E00064009C423FF6BAAE1CB9B7E6640008F1AC
:10B6F00004081C42FAD040466CE608F11008CAE67D
:10B70000B3F5AA7F26D8EB0B03F1780003F1770C91
:10B71000C10014E64FF001087B68921008FA02F2AB
:10B720001A437A60A8E74FF48053DCE6542A29D8FC
:10B730001A0B02F16F01C9006E328BE7C0F30B01E7
:10B7400000297FF4BCAE09EB0802B96842F001029F
:10B750004A60FAE640F2545293421CD8AB0C03F113
:10B760007D0003F17C0CC100E9E50123CBF8043036
:10B770009BE701214FF00008C8E6164A13684344CE
:10B7800013609CE6B2F5AA7F14D8DA0B02F17801B7
:10B79000C90077325EE74FF47E717F204FF07E0C58
:10B7A000CDE504F108013046019202F09FFD019AB7
:10B7B0001368CAE640F254518A4205D89A0C02F145
:10B7C0007D01C9007C3245E74FF47E717E2241E75E
:10B7D0007B6885E7003C0820844641EA000313F0BB
:10B7E000030349D1403A23D30B6803604B6843609D
:10B7F0008B688360CB68C3600B6903614B694361ED
:10B800008B698361CB69C3610B6A03624B6A4362D4
:10B810008B6A8362CB6AC3620B6B03634B6B4363BC
:10B820008B6B8363CB6BC36340304031403ADBD2D8
:10B8300030320BD30B6803604B6843608B688360C6
:10B84000CB68C36010301031103AF3D20C3205D3FC
:10B8500051F8043B40F8043B043AF9D2043208D0D2
:10B86000D2071CBF11F8013B00F8013B01D30B8844
:10B8700003806046704700BF082A13D38B07B1D0FE
:10B8800010F00303AED0C3F10403D21ADB071CBFD0
:10B8900011F8013B00F8013BA4D331F8023B20F83A
:10B8A000023B9FE7043AD9D3013A11F8013B00F873
:10B8B000013BF9D20B7803704B7843708B7883701F
:10B8C00060467047F0B4860743D0541E002A3ED02D
:10B8D000CAB2034602E014F1FF3438D303F8012B57
:10B8E0009D07F8D1032C2BD9CDB245EA05250F2CA5
:10B8F00045EA054516D9A4F110073F0903F12006D2
:10B9000006EB071603F1100242E9045542E902551D
:10B910001032B242F8D104F00F040137032C03EBCC
:10B9200007130DD91E462246043A032A46F8045B43
:10B93000FAD8221F22F003020432134404F0030455
:10B940002CB1C9B21C4403F8011B9C42FBD1F0BCD2
:10B95000704714460346C5E7014802F0DBBD00BF4F
:10B96000443C0820014802F0D7BD00BF443C0820F9
:10B9700038B50023064C054608462360F4F7D4FC8E
:10B98000431C00D038BD2368002BFBD02B6038BD92
:10B99000583C08200EB4034630B56FF000449CB00C
:10B9A0001FA951F8042B0A480A4D029306930191EE
:10B9B0000B46006802A90794CDE9044500F0B4F9EC
:10B9C0000022029B1A701CB0BDE8304003B07047E3
:10B9D000988207200802FFFFF8B507460E4617F8C1
:10B9E000014B02F07BFD2044437816F8015B03F025
:10B9F0000303012B08BF203402F070FD2844437874
:10BA000003F00303012B04D0601B01D1002DE6D10C
:10BA1000F8BD05F12000201AE1D0F8BD830710B56C
:10BA2000044610D10268A2F1013323EA020313F0A5
:10BA3000803F08D150F8042FA2F1013323EA02031A
:10BA400013F0803FF6D003781BB110F8013F002BB4
:10BA5000FBD100F003F8204610BD00BF80EA0102D0
:10BA6000844612F0030F4FD111F0030F32D14DF87D
:10BA7000044D11F0040F51F8043B0BD0A3F1013237
:10BA80009A4312F0803F04BF4CF8043B51F8043B4A
:10BA900016D100BF51F8044BA3F101329A4312F0C2
:10BAA000803FA4F101320BD14CF8043BA24312F0C9
:10BAB000803F04BF51F8043B4CF8044BEAD02346C6
:10BAC0000CF8013B13F0FF0F4FEA3323F8D15DF878
:10BAD000044B704711F0010F06D011F8012B0CF840
:10BAE000012B002A08BF704711F0020FBFD031F8B8
:10BAF000022B12F0FF0F16BF2CF8022B8CF800203F
:10BB000012F47F4FB3D1704711F8012B0CF8012BC1
:10BB1000002AF9D1704700BF20F0030110F00300A4
:10BB2000C0F1000051F8043B00F1040C4FEACC0CCA
:10BB30006FF000021CBF22FA0CF213434FF0010C0D
:10BB40004CEA0C2C4CEA0C4CA3EB0C0222EA03024C
:10BB500012EACC1204BF51F8043B0430F4D0C2F115
:10BB6000000102EA0102B2FA82F2C2F11F0200EB06
:10BB7000D200704740EA01039B0770B42AD1032A20
:10BB800028D90C460346214654F8046BA6F101352A
:10BB900025EA060515F0803F06D1043A032A43F84A
:10BBA000046B2146EFD89AB10C78013A1C7001332E
:10BBB0003CB16AB111F8014F013A03F8014B002C76
:10BBC000F7D12AB100211A4403F8011B9342FBD19B
:10BBD00070BC70470346E6E72DE9F84F0E468046F5
:10BBE000174699460D4600E025462C460A9814F85B
:10BBF00001BB02F06FFC5844417811F00801F3D109
:10BC0000BBF12D0F57D0BBF12B0F04BF95F801B03E
:10BC1000AC1CB9F1000F04D0B9F1100F50D0CC46D4
:10BC200005E0BBF1300F55D04FF00A09CC46002992
:10BC30000CBF6FF0004E4FF0004E0025BEFBFCF332
:10BC400028460CFB13EA05E029D001250CFB002057
:10BC500014F801BBABF13002092A05D9ABF141025E
:10BC6000192A0BD8ABF1370291450FDDB5F1FF3F33
:10BC7000EED08342E8D24FF0FF35E9E7ABF1610245
:10BC8000192A03D8ABF157029145EFDC6B1C0BD09E
:10BC900001B140420FB14DBB3E60BDE8F88F924507
:10BCA000D3DA4FF0FF35D3E72223C8F80030FFB1D5
:10BCB0007046661EF0E7AC1C95F801B00121A8E7BC
:10BCC000BBF1300FABD1237803F0DF03582B06D044
:10BCD000CC46ACE7237803F0DF03582B0AD14FF0B2
:10BCE000100C94F801B0E1460234A0E78646DFE785
:10BCF0007046D2E74FF00809CC4698E7084B70B57C
:10BD00001D68084E6C6B82B0002C08BF3446134689
:10BD100000940A4601462846FFF75EFF02B070BD58
:10BD200098820720DC8A07202DE9F04FC3B00C462B
:10BD30000C9190460F930D9002F0DEFB03681846BD
:10BD40001A93FFF7E9FEA38919901D0603D523690D
:10BD5000002B00F0388700230DF1C80AD146C346F6
:10BD6000CDE91633CDE92633159313931493189325
:10BD70001B930A93CDF894A09BF80030002B00F0A1
:10BD80009780252B5C4602D11AE0252B03D014F8AE
:10BD9000013F002BF9D1A4EB0B0575B1DDE926328B
:10BDA00001332A44072BC9E900B5CDE9263277DCF7
:10BDB00009F108090A9B2B440A932378002B77D0BA
:10BDC00000234FF0FF301A468DF8773019460B9359
:10BDD0009846637804F1010B09901F460BF1010BA3
:10BDE000A7F12003582B00F27683DFE813F0D3028B
:10BDF00074037403CE027403740374037403740332
:10BE00007403C102BC02740368034E0374036D0320
:10BE1000B600B600B600B600B600B600B600B60072
:10BE2000B60074037403740374037403740374031B
:10BE30007403740374033603F7027403F702740384
:10BE4000740374037403F20274037403A50074038F
:10BE500074037403740374037500740374039A0207
:10BE6000740374037403740374037403740374031A
:10BE7000740374037A012C01F702F702F702270119
:10BE80002C01740374031A0174030301A700CA0090
:10BE9000C5007403DA007403770074037403DB02D3
:10BEA00025AADDE90C1002F0A5FE40B9D14681E7D4
:10BEB000279B23B10D9825AA0C9902F09BFE0C9BA1
:10BEC0009B8913F0400F0A9B18BF4FF0FF330A9372
:10BED0000A9843B0BDE8F08F48F0100818F0200F22
:10BEE00000F04A850F9C073424F0070303F1080291
:10BEF000D3E9004501230F920026099A8DF8776057
:10BF0000013200F00B8428F08002079254EA050207
:10BF100040F0BD80099A002A40F0CE86002B40F008
:10BF2000EF8418F001030E9300F06285302342AADB
:10BF300002F8413D1192CBE048F0100818F02003C0
:10BF400000F00F850F9C073424F0070303F108026B
:10BF5000D3E900450F920023CEE70020A7F130037C
:10BF60001BF8017B00EB800003EB4000A7F13003DE
:10BF7000092BF5D90B9033E748F020089BF80030E7
:10BF80002BE747F630030F9AADF87830131D0F9367
:10BF9000A04B1468189348F0020800250223782764
:10BFA000AAE700250F9A8DF877501368141D119396
:10BFB000002B00F03286099A531C00F0DA862946DD
:10BFC000119802F0C1FA002800F0D087119B099562
:10BFD000C31ACDE90E34CDF81C8023EAE3739DF833
:10BFE000776008931295002E00F08E80089B013335
:10BFF000089389E0002A41F0F1800F9A18F0200F91
:10C0000052F8043B0F9240F02C8518F0100F40F0CE
:10C01000298618F0400F00F02586BDF828201A80E8
:10C02000AAE69BF800306C2B03BF9BF8013048F068
:10C0300020080BF1010B48F01008CEE648F040084C
:10C040009BF80030C9E6002A41F0C48018F0200FA8
:10C0500000F00C820F9C073424F0070303F1080260
:10C060000F92D3E90045002C75F10003C0F2CC8497
:10C07000099B9DF87760013300F0D08428F080029E
:10C08000079254EA05024FF001033FF443AF012B3E
:10C0900000F04983022B00F0A083514600E01146D6
:10C0A000E20842EA4572E80804F007030546144630
:10C0B000303354EA050001F8013C01F1FF32EED1C2
:10C0C00007981192C00700F17684AAEB02030E9341
:10C0D000099B0E9A9342B8BF13460893002312930C
:10C0E00081E7002301210F981E4602688DF8773002
:10C0F00009931293031D0F9328AB0891CDF81C8070
:10C100000E918DF8A0201193079B13F0020310935A
:10C1100002D0089B02330893079B279C13F08408E6
:10C120003FD10B9B089A9D1A002D3ADD102D269BBE
:10C1300029DD4A462146A946DDE90C54102606E0D1
:10C14000A9F11009B9F1100F02F1080218DD01334D
:10C1500031481031072BCDE92631C2E90006EFDD69
:10C1600025AA2946204602F045FD00287FF4A7AE07
:10C17000DDE92631A9F11009B9F1100F5246E6DCCC
:10C180004D460C4691460133234A2C44072BCDE9FA
:10C190002634C9E9002500F369859DF8776009F127
:10C1A000080976B10121269B0C440B440DF177025E
:10C1B000072BCDE92634C9E9002100F3F88209F103
:10C1C0000809109B6BB10221269B0C4401331EAA67
:10C1D000072BCDE92634C9E9002100F3F38209F1E8
:10C1E0000809B8F1800F00F0E681099B0E9A9D1AAC
:10C1F000002D40DD102D269A40F39385DFF81C803A
:10C200004B4640462146DDE90C94B84610260746C9
:10C210000BE000BFE82009000821090018210900EF
:10C22000103D102D03F1080315DD01321031072AEE
:10C23000CDE92621C3E90076F2DD25AA494620464C
:10C2400002F0D8FC00287FF43AAEDDE92621103D4B
:10C25000102D5346E9DC99463B460C464746984626
:10C2600001322C44072ACDE92624C9E9008500F3D0
:10C27000CB8209F10809079BDE0500F14281269B6C
:10C280000E9A013311991444072B2794C9E900121F
:10C29000269300F3818209F10809079B5B0731D5DA
:10C2A0000B9B089A9D1A002D2CDD102D269B1FDD5F
:10C2B000DDE90C87102604E0103D102D09F1080976
:10C2C00016DD0133C64A1034072BCDE92634C9E9FF
:10C2D0000026F1DD25AA4146384602F08BFC0028F5
:10C2E0007FF4EDADDDE92634103D102DD146E8DCBC
:10C2F0000133BB4A2C44072BCDE92634C9E900257C
:10C3000000F36C83DDE90A3208998A42ACBF9B18BE
:10C310005B180A93002C40F09F810023D14626939E
:10C320002AE5002A40F06A87AE4B18F0200F1893D8
:10C3300040D00F9C073424F0070303F108020F924A
:10C34000D3E9004518F0010F00F0C38054EA05035B
:10C3500000F0BF8030238DF879708DF8783048F088
:10C3600002080223C8E59BF8003001222B2134E5A6
:10C370000F9B1C68181D002C0B949BF800300F902D
:10C38000BFF62BAD60420B909BE048F001089BF894
:10C39000003022E59BF8003000297FF41EAD012219
:10C3A00020211AE5002A40F021878F4B18F0200F3A
:10C3B0001893BED10F9B18F0100F53F8044B0F9336
:10C3C00040F01A8318F0400F00F01683A4B2002545
:10C3D000B8E748F008089BF80030FEE4002A40F077
:10C3E000ED860F9C073424F00706D6E9002323F0DE
:10C3F00000441592154610461493083621464FF016
:10C40000FF327A4B0F9602F07FFF002840F0408306
:10C41000284621464FF0FF32744B02F057FF0028A8
:10C4200040F03683DDE91502179B149902F044FFB2
:10C43000002840F02F859DF8776003210020CDE98A
:10C4400008106B4A6B4B472FD8BF1A4628F0800460
:10C4500007940E9112901192C5E5002A40F0C28611
:10C4600048F0100818F0200F7FF4F4AD0F9B18F07F
:10C47000100F53F8044B0F9340F0C08218F0400F98
:10C4800000F0BC8224B2E517EDE59BF800700BF1DB
:10C4900001002A2F00F07D86A7F13003092B834687
:10C4A00000F2608500201BF8017B00EB800003EBAD
:10C4B0004000A7F13003092BF5D9099090E49BF8CF
:10C4C000003048F0040888E448F080089BF8003009
:10C4D00083E4022310E5002A40F08C86002F3FF40D
:10C4E000E7AC002301221E468DF8773009931293A2
:10C4F00028AB08928DF8A070CDF81C800E92119395
:10C5000002E6652F40F3B180DDE91502179B14990F
:10C5100002F0C8FE002800F082810121269B364AE5
:10C520000B440C44072B27942693C9E9002100F300
:10C53000EE8309F108091F9B139A279C934280F20E
:10C540004882269B199A01331A991444072BC9E98A
:10C550000012CDE9263400F3558309F10809139B35
:10C560005D1E002D7FF799AE102D269A40F39F8512
:10C57000DFF888802346102644460D9FDDF8308082
:10C5800005E009F10809103D102D40F399830132AF
:10C590001033072ACDE92623C9E90046F1DD25AA93
:10C5A0004146384602F026FB00287FF488ACDDE9DE
:10C5B0002623D146E7E70B9B089A9D1A002D7FF7AB
:10C5C00014AE102D269A40F3B384DFF830804B462A
:10C5D00040462146DDE90C94B8461026074614E093
:10C5E00008210900D4200900E8200900FFFFEF7F9F
:10C5F000C8200900C42009000421090018210900ED
:10C60000103D102D03F1080315DD01321031072A0A
:10C61000CDE92621C3E90076F2DD25AA4946204668
:10C6200002F0E8FA00287FF44AACDDE92621103D4B
:10C63000102D5346E9DC99463B460C464746984642
:10C6400001322C44072ACDE92624C9E9008500F3EC
:10C65000438309F10809C8E525AADDE90C1002F0B9
:10C66000C9FA00283FF459AE29E4139A269B012AFF
:10C6700004F1010403F1010509F1080640F3878183
:10C680000123119A072DC9F80020CDE92654C9F8D5
:10C69000043000F3F982199B01351A9A1C44072DC6
:10C6A000CDE92654C6E9002300F3FA8208366F1C50
:10C6B0000E970997139FDDE91502179B1499013F07
:10C6C00006F1080902F0EEFD002840F01F813C440D
:10C6D000119B7760099F0133072F336027942697BA
:10C6E00000F3808206F110034E469946AA1C099277
:10C6F0001B9A21AB14447260099A2794072A269248
:10C7000033607FF7CAADDDE90C1025AA02F072FA9A
:10C7100000287FF4D4ABD146279CBEE5012BCDF891
:10C720001C807FF4B7AC002D08BF0A2C80F07D81FF
:10C7300042AB303403F8414D119301230E93C7E40B
:10C7400025AADDE90C1002F055FA00287FF4B7ABFA
:10C75000D1461F9B279C1BB9139A002A00F0148313
:10C76000269A199901321A980C44072A2794C9E984
:10C770000001269200F3068409F10809002BC0F29B
:10C780003F84139B013211991C44072ACDE92624CA
:10C79000C9E900137FF77FADDDE90C1025AA02F08F
:10C7A00029FA00287FF48BAB279CD14675E525AA92
:10C7B000DDE90C1002F01EFA00287FF480ABD146B0
:10C7C000279CFEE425AADDE90C1002F013FA0028EC
:10C7D0007FF475ABD146279C03E55246DDF860C077
:10C7E000230943EA0573280904F00F0105461C4696
:10C7F0001CF8013002F8013D54EA0503F0D1AAEB20
:10C80000020311920E9363E425AADDE90C1002F0F5
:10C81000F1F900287FF453ABD146279C2BE51F9BF1
:10C82000002B40F36582DDE912329342A8BF134624
:10C83000002B1D460CDD269B119A01332C44072B3F
:10C840002794C9E90025269300F32A8309F10809F2
:10C85000129B002DA8BF5B1B002B1D4600F38C8193
:10C860001F9B139A9342C0F2EE81079AD10700F101
:10C87000EA81139A1298D31A151A9D42A8BF1D4631
:10C88000002D0FDD269A1199013201442C44072A0C
:10C89000C9F800102794C9F80450269200F3348395
:10C8A00009F10809002DB4BF1D465D1B002D7FF75F
:10C8B000F4AC102D269A40F3FA83DFF870862346F5
:10C8C000102644460D9FDDF8308005E009F1080987
:10C8D000103D102D40F3F48101321033072ACDE9C9
:10C8E0002623C9E90046F1DD25AA4146384602F073
:10C8F00081F900287FF4E3AADDE92623D146E7E7A2
:10C90000099BCDF844A00E93FFF7E2BB002F7FF701
:10C91000EFAE102F40F31A84DFF81086334622461C
:10C92000DDE90D4546464FF01009DDF8308005E0A1
:10C930000833103F102F40F3F88101351032072DD6
:10C94000CDE92652C3E90069F2DD25AA4146204619
:10C9500002F050F900287FF4B2AADDE926525346CE
:10C96000E7E70F9A52F8044B0F9218F0100200F00C
:10C9700087800025FFF7C0BA0F9B18F0100F53F8FF
:10C98000044B0F9374D000250123FFF7B5BA079A23
:10C99000D2073FF575AE01221199072DC9F8001095
:10C9A000CDE92654C9F8042000F39D82023309938F
:10C9B00009F110099CE6302B00F03F813023119AD9
:10C9C000023902F8013CAAEB01030E931191FFF723
:10C9D0007FBB079BDD073FF5B4AD5EE425AADDE92B
:10C9E0000C1002F007F900287FF469AA279C89E45B
:10C9F000CDF844A0FFF76CBB0025A3E4E517002C9D
:10CA000075F10003BFF634AB2D26099B644265EB3C
:10CA1000450501338DF877607FF430AB002D08BFFA
:10CA20000A2CCDF81C80FFF483AED0462046294660
:10CA30000A220023FEF756FA303208F8012D20466C
:10CA4000294600230A22FEF74DFA04460D4654EA11
:10CA50000503EBD1AAEB0803CDF844800E93FFF752
:10CA600037BB0A9A1046D117C3E90001FFF784B912
:10CA700018F0400F18BFA4B200250123FFF73CBAFD
:10CA800018F040031CBF1346A4B20025FFF734BAC8
:10CA9000159C22462046149C2346214602F034FC75
:10CAA000002840F02E83099A27F02003541C089395
:10CAB00000F04282472B00F06C8148F480730793AA
:10CAC000DDE914361D1EB6BF03F1004500232D23FA
:10CAD000662F109300F03382462F00F07482089B7B
:10CAE0003246452B4FF002002B4600F05881099C3E
:10CAF00023A9CDE90004049120A81FA9CDE90210C3
:10CB00000D9800F071FC672F119040F0548318F0DD
:10CB1000010F00F06981119B099A9C18169A304602
:10CB2000179B294602F0BEFB002800F0D081234667
:10CB3000119A9B1A13931F9B1293089B472B00F08B
:10CB40005C81662F40F06081129B002B099B40F3B3
:10CB5000F582002B40F0E88218F0010F40F0E482EB
:10CB6000129B08930E93109B002B40F07A8109933F
:10CB70009DF87760FFF737BA102B269A40F3EA82C8
:10CB8000DFF8A8832346102644460D9FDDF8308049
:10CB900005E009F10809103D102D40F3DC80013259
:10CBA0001033072ACDE92623C9E90046F1DD25AA7D
:10CBB0004146384602F01EF800287FF480A9DDE9DE
:10CBC0002623D146E7E740210D98FEF773FB0C9B27
:10CBD00018601861002800F0F58240230C9A536118
:10CBE000FFF7B9B825AADDE90C1002F003F8002818
:10CBF0007FF465A9DDE92634013309930DF1D009ED
:10CC0000564675E525AADDE90C1001F0F3FF002872
:10CC10007FF455A9D146279CA1E4099B119E062BC0
:10CC200028BF062308930E93BE4B09960F94CDF8A8
:10CC30001C8012961193FFF7D6B9119BAAEB030340
:10CC40000E93FFF745BA269A199901321A980C44A7
:10CC5000072A2794C9E90001269200F32C8109F1E3
:10CC6000080906E60A9A1A60FFF786B825AADDE9E0
:10CC70000C1001F0BFFF00287FF421A9D1469DF8D8
:10CC80007760279CFFF78DBA25AADDE90C1001F02B
:10CC9000B1FF00287FF413A9DDE926545646FAE4D3
:10CCA00025AADDE90C1001F0A5FF00287FF407A9F3
:10CCB000DDE926545646FAE4012B7FF4EBA937E56B
:10CCC000A0461C4601322C44072ACDE92624C9E996
:10CCD00000857FF7E0AA5FE525AADDE90C1001F0E9
:10CCE00089FF00287FF4EBA8D146279CFFF77DBA87
:10CCF0000120269A8C4902440444072ACDE92624BF
:10CD0000C9E900103FF71CAD09F1080923E525AA80
:10CD1000DDE90C1001F06EFF00287FF4D0A8D146A9
:10CD200009E4DFF80882FFF79BBAB0461E466B1C89
:10CD30001446099306F10802099B3C44072B2794EB
:10CD4000C6E9008726933FF74DAF0133099302F1FF
:10CD500008091646CCE4A0461C4601322C44072A9A
:10CD6000CDE92624C9E9008500F33F8109F10809CE
:10CD700076E511980995FEF7CFFECDF81C80CDE938
:10CD80000E040346FFF729B9079AD0077FF585AA55
:10CD9000E6E4002A134608BF012309938DE60999AA
:10CDA00000904C1C23A920A804911FA9CDE90210D2
:10CDB00001940D980E9400F017FB1190472F40F04E
:10CDC000E38118F0010F00F0D881119B0E9A462FD5
:10CDD00003EB02047FF4A2AE119B1B78302B00F012
:10CDE00069811F9B1C4499E61F9A239B1292119AFA
:10CDF0009B1A1393089B472B06D1129BDA1C02DB6C
:10CE0000099A9A4234DA023F129B8DF88470013BF2
:10CE1000002BB4BF2D222B221F93B8BF129B8DF87D
:10CE20008520B8BFC3F10103092B00F30D81302227
:10CE300013448DF887308DF8862022AB21AA9B1AE7
:10CE4000139A1B93012A13440E9340F350810E9BB7
:10CE5000199A13440E9323EAE37308930023129361
:10CE600081E62D2600238DF877600993FFF7BEB881
:10CE7000DDE912318B42C0F2938018F0010F00F00F
:10CE80001081129B199A672713440E9323EAE373C8
:10CE9000089368E62D231E468DF87730FFF7CDBA4C
:10CEA00025AADDE90C1001F0A5FE00287FF407A8F3
:10CEB000D146279CCCE425AADDE90C1001F09AFEAE
:10CEC00000287EF4FCAFD1461F9B279CD1E4239B16
:10CED000A342BFF42DAE30215A1C23921970239B1C
:10CEE0009C42F9D824E625AADDE90C1001F082FE67
:10CEF00000287EF4E4AFDDE9263401335646099379
:10CF00000DF1D009FFF7F4BB25AADDE90C1001F003
:10CF100071FE00287EF4D3AF1F9B139AD146279C45
:10CF2000D31ABFE4FC2009000421090018210900DC
:10CF3000DFF8DC82FFF784BB06230993BDE50320FD
:10CF4000099C23A9CDE90004049120A81FA9CDE9DB
:10CF5000021032462B460D9800F046FA0E941190BE
:10CF6000041939E700230993FEF73ABF099B0F9490
:10CF700008930E930990CDF81C8012909DF877606D
:10CF8000FFF731B825AADDE90C1001F033FE0028C7
:10CF90007EF495AFDDE92624D1461F9BFFF7EEBB5B
:10CFA000199A139B1344129A0E93002A06DC129BC3
:10CFB0000E9AC3F101031A4413460E9223EAE37357
:10CFC00008936727CFE50320099C23A9CDE9000436
:10CFD000049120A81FA9CDE9021032462B460D98D6
:10CFE00000F002FA0E941190EFE625AADDE90C108C
:10CFF00001F000FE00287EF462AFD146279C2FE4AA
:10D000005D42103380F2D180DFF80482234610267F
:10D010000D9F444604E009F10809103D102D58DD2C
:10D0200001321033072ACDE92623C9E90046F2DD93
:10D0300025AA0C99384601F0DDFD00287EF43FAFAB
:10D04000DDE92623D146E8E70DF1930001466D4C5A
:10D0500000E01146A4FB0325ED0805EB8502A3EBD8
:10D0600042023032092D01F8012C2B4601F1FF322A
:10D07000EFDC30330239DCB2884202F8014C40F276
:10D0800097800DF18601134601E013F8014B984299
:10D0900001F8014BF9D125AB9B1A0DF1860213441F
:10D0A000CCE623EAE37208920E9367275BE5DFF88C
:10D0B000608107E6169A3046179B294602F0F2F87F
:10D0C00000287FF48EAE0E9BC3F101031F931C4416
:10D0D00024E5A0461C4601322C44072ACDE926242B
:10D0E000C9E900853CDC09F10809FFF74ABB18F0E3
:10D0F000010312937FF4ABAE0E9B23EAE373089314
:10D1000031E5149B0321002BB8BF2D234FF0000005
:10D11000BABF1E468DF877309DF87760CDE90810CC
:10D12000394A3A4BFFF78FB9129B199A1344099A5F
:10D130001A4422EAE2730E92089314E56BB918F0D0
:10D14000010F0AD1012308930E930CE54A46DFF83C
:10D15000C080F1E5DFF8B880FFE5199B0133E6E711
:10D1600025AADDE90C1001F045FD00287EF4A7AEEC
:10D17000DDE92624D146FFF704BB1F9A239B1292B8
:10D18000119A9B1A139338E60E9B119A13441C466E
:10D19000C4E40F9D9BF801302C68834644EAE47494
:10D1A000281D09940F90FEF718BEDFF8648092E7FF
:10D1B0000DF1860342E6099B0E93FFE58DF877108B
:10D1C000FFF70FB94FF0FF320C230A920D9A13604C
:10D1D000FEF77EBE8DF87710FEF738BF8DF877101A
:10D1E000FEF70BBF8DF87710FFF73AB98DF877107F
:10D1F000FFF7DBB88DF87710FFF770B98DF877106F
:10D20000FFF792B8CDCCCCCCD0200900CC200900BF
:10D210001821090070B5141E9AB005462ADB1A467B
:10D220004FF4027300910491ADF80C304FF6FF7685
:10D2300011D0013C1E9B694602940594ADF80E6026
:10D24000FEF772FD421C01DA8B232B600022009B4B
:10D250001A701AB070BD1E9B694602940594ADF811
:10D260000E60FEF761FD431C01DB1AB070BD8B231D
:10D270002B60FAE78B234FF0FF302B60F5E700BF00
:10D2800010B5064C82B00093246813460A46014646
:10D290002046FFF7BFFF02B010BD00BF98820720F5
:10D2A000024B13B1024800F005B8704700000000BF
:10D2B00019E20800002301461A46184601F020BD75
:10D2C0002DE9F04F03690E6983B0B342C0F2868046
:10D2D000013E01F1140800F1140958F8263059F8FC
:10D2E00026700133B7FBF3F7B300009308EB030A92
:10D2F0004B440193002F3BD00023C6461C46CC462E
:10D300005EF8042BDCF800501FFA82FB07FB0B339E
:10D31000120C4FEA134B07FB02BB9AB2A21AABB234
:10D320001FFA8BF41A44C4EB154404EB224492B266
:10D3300042EA0442F2454CF8042B4FEA24444FEAF7
:10D340001B43DDD2009B59F803308BB9019A131FA0
:10D3500099450CD252F8043C4BB9A2F1080302E003
:10D360001A68043B1AB9994506F1FF36F8D30661ED
:10D37000044601F04BFB00282CDB4D46002301370F
:10D3800058F8041B28688AB29A1A0B0C81B20A4416
:10D39000C3EB104303EB224392B242EA0342C2457D
:10D3A00045F8042B4FEA2343EAD259F8262009EB2B
:10D3B00086037AB91A1F91450BD253F8042C42B94F
:10D3C000083B02E01A68043B1AB9994506F1FF369A
:10D3D000F8D32661384603B0BDE8F08F002003B0D3
:10D3E000BDE8F08F000000002DE9F04F1F46164603
:10D3F000036C99B00446CDE902674BB10122456C3C
:10D400001946AA40C3E9015201F00AF90023236436
:10D410003E1EB4BF01230023259AB8BF26F0004664
:10D420001360754BB8BF0396B34300F0A380DDE9EA
:10D430000289002200234046494601F033FF074697
:10D4400078B10123249A1360269B002B00F0BF8043
:10D450006A4B269A03F1FF391360484619B0BDE8BC
:10D46000F08F16AA17ABCDE90032204642464B4654
:10D4700001F068FB350D834640F09C80DDE91685A0
:10D48000454405F23243202B40F33184C3F140037D
:10D490009E40029B05F2124023FA00F03043FDF754
:10D4A00095FA0122013D0A92A1F1F8710022544B34
:10D4B000FDF74EF94AA3D3E90023FDF701FB4AA388
:10D4C000D3E90023FDF746F9064628460F46FDF747
:10D4D0008DFA47A3D3E90023FDF7F2FA02460B4683
:10D4E00030463946FDF736F906460F4601F022FF71
:10D4F0000022059000233046394601F0DDFE002869
:10D5000040F07782059E162E00F26182DDE902234B
:10D510003C4901EBC601D1E9000101F0EBFE002816
:10D5200000F0E183731E059300230D93A8EB05051E
:10D53000B5F1010A00F1578200230693059B002BE9
:10D54000C0F248829A440C9300230B93229B092B30
:10D5500060D8052B40F3C9830026043B2293229B0D
:10D56000023B032B00F2A184DFE813F0E603C803BB
:10D57000F003FC0442F20F73249A1360029B83B9F8
:10D58000C6F313066EB9269BDFF87C90002B3FF4A0
:10D5900064AF09F108034846269A136019B0BDE844
:10D5A000F08F269BDFF86490002B3FF456AF09F113
:10D5B0000303F0E7C9F3130343F07F514046A5F29C
:10D5C000FF350A9741F44011DDF858806EE7DFF827
:10D5D0004090484619B0BDE8F08F00BFAFF300801F
:10D5E00061436F63A787D23FB3C8608B288AC63F69
:10D5F000FB799F501344D33F0000F07F05210900C1
:10D600000000F83F70210900282109003421090099
:10D61000042109004FF0FF3501260023CDE908560B
:10D6200022932393002114956164204600F0D2FFD9
:10D630000E2D8146206400F2FE80002E00F0FB805B
:10D64000DDE9022316461F460599CDE90E6700293C
:10D6500040F3E9839B4B01F00F020D1103EBC20372
:10D66000D3E90012CDE90212EA0640F1A084964BFC
:10D670003946D3E908233046FDF74CFB0327CDE9B3
:10D68000100105F00F057DB1DDE902018E4EEB07BB
:10D6900004D5D6E90023FDF713FA01376D1006F122
:10D6A0000806F4D1CDE90201DDE90223DDE910012C
:10D6B000FDF730FBCDE902010D9B43B1DDE902012D
:10D6C0000022824B01F0F8FD002840F00985384621
:10D6D000FDF78CF9DDE90223FDF7F2F97C4B00221E
:10D6E000FDF738F8089B0546A1F15076002B00F0B5
:10D6F0001E84059B1593089B1093DDE9020101F040
:10D7000019FE109A6F4B00F1300803EBC20353E986
:10D710000212CDE91212FDF769F90B460246DDE966
:10D720000201CDE90256FDF713F8099B5FFA88F86C
:10D7300006460F4609F10105002B00F06384DDE980
:10D74000122300206349FDF7E5FADDE90223FCF727
:10D75000FFFF89F8008032463B46CDE9020101F027
:10D76000C9FD002840F00E8532463B46002057494F
:10D77000FCF7EEFF02460B46DDE9020101F0BAFDBF
:10D78000002840F00985109A012A50D04A44CDF86B
:10D7900048A0CDF840B0A046DDE902ABCDF8089036
:10D7A00091460EE032463B4600204849FCF7D0FF48
:10D7B00052465B4601F080FD002840F0E6844D456E
:10D7C0002ED0504659460022434BFDF779F90022EE
:10D7D000414B82468B4630463946FDF771F90F467C
:10D7E000064601F0A7FD0446FDF700F902460B4688
:10D7F00030463946FCF7ACFF3034E4B205F8014B53
:10D8000052465B4606460F4601F056FD0028C9D039
:10D81000159BDDF840B0DDF808904446059339E2E9
:10D820004446DDF848A0DDF840B0DDF80890DDE9B9
:10D830000E23CDE90223179B002BC0F2A980059A85
:10D840000E2A00F3A5801F4B03EBC203D3E900238C
:10D85000CDE90623239B002BC0F2C182DDE90267DC
:10D86000DDE9062330463946FDF754FA01F062FD42
:10D870008046FDF7BBF8DDE90623FDF721F90246F6
:10D880000B4630463946FCF763FF089E08F1300529
:10D89000012E89F8005002460B4609F101054CD0D3
:10D8A00000220D4BFDF70CF90022002306460F461F
:10D8B00001F0F8FC002840F0ED81CDF808B0DDE97A
:10D8C00006AB18E070210900482109000000F03F74
:10D8D00000001C400000E03F000024400022C64B36
:10D8E000FDF7EEF80022002306460F4601F0DAFCB1
:10D8F000002840F0418352465B4630463946FDF7EA
:10D9000009FA01F017FD8046FDF770F852465B46B4
:10D91000FDF7D6F802460B4630463946FCF718FFAD
:10D9200008F1300605F8016B089FA5EB0906B74220
:10D9300002460B46D2D1DDF808B010461946FCF776
:10D9400009FFDDE9062306460F4601F0D3FC60B966
:10D95000DDE906233046394601F0A4FC002800F03A
:10D96000998118F0010F00F0958115F8018C05E000
:10D97000994500F03A831D4613F8018CB8F1390F30
:10D9800005F1FF33F4D008F1010883F8008081E14C
:10D99000099A002A3DD0229A012A40F31282089B5C
:10D9A00003F1FF380B9B4345C0F2E982A3EB080863
:10D9B000089B002BC0F20E83069A9A440A921A44DE
:10D9C00006920121204600F0C7FE064626E001230C
:10D9D0000D93ABE500230C93DDE90532D21A5B42CF
:10D9E00006920B93B2E5C5F1010306934FF0000ACE
:10D9F000A4E5DDF814904846FCF7F8FF32463B46B4
:10DA000001F050FC00287FF47DAD09F1FF33059350
:10DA100078E5069BDDF82C80099E0A930A99002977
:10DA20000B460CDDBAF1000F09DD5145A8BF534686
:10DA3000069AAAEB030AD21A0692CA1A0A920B9BFA
:10DA40007BB1099A002A00F09082A3EB0807B8F195
:10DA5000000F40F09A8159463A46204600F02CFFCC
:10DA600083460121204600F077FE0C9A0746002AE3
:10DA700040F02581229B012B40F36B810120504413
:10DA800010F01F0000F01981C0F12003042B40F3B7
:10DA9000B483C0F11C00069B8244034406930A9B96
:10DAA00003440A93069B002B05DD59461A4620467F
:10DAB00000F052FF8346BAF1000F05DD39465246A9
:10DAC000204600F049FF07460D9B002B77D1089BAD
:10DAD000002B40F30582099B002B00F089800A9BF4
:10DAE000002B00F367810C9B002B40F0CA81B246EB
:10DAF000C846029B089A03F001030A9309F1FF3319
:10DB00001A440692CDF82C9039465846FFF7D8FBB8
:10DB1000314681460990584600F078FF52460290FF
:10DB20003946204600F08EFFC268054609F13009EB
:10DB30000146002A40F0CF81584600F067FF294691
:10DB40000890204600F06CFD089A32B9229B23B958
:10DB50000A9B002B00F02483229A029B002BC0F228
:10DB6000198205D1229B1BB90A9B002B00F012825F
:10DB7000002A08F1010500F32182069B88F8009035
:10DB8000434500F02C82594600230A22204600F02B
:10DB900051FD5645834631464FF000034FF00A02CF
:10DBA000204600F0928100F045FD514606460023D4
:10DBB0000A22204600F03EFDA8468246A4E73946E8
:10DBC000584600F023FF002881DA059D59460023BE
:10DBD0000A222046013D059500F02CFD099B834655
:10DBE000002B40F0EE82149B002B40F3F982089347
:10DBF0004D46DDF8208008E000002440594600230F
:10DC00000A22204600F016FD834639465846FFF7A3
:10DC100057FB303005F8010BA5EB09029045EDDC10
:10DC2000002203460292594601222046089300F042
:10DC300093FE3946834600F0E9FE002815F8012CD2
:10DC4000089B11DC05D1DB070ED402E015F8022C8D
:10DC50001D46302A05F1FF33F8D00BE0994500F05E
:10DC60004C811D4613F8012C392A05F1FF33F5D0FC
:10DC700001321A703946204600F0D2FC56B10299A2
:10DC800021B1B14202D0204600F0CAFC3146204604
:10DC900000F0C6FC5946204600F0C2FC0022059B5D
:10DCA0002A70249A01331360269B002B3FF4D5ABD6
:10DCB00048461D6019B0BDE8F08F1C20EBE6014618
:10DCC000204600F0F9FD229B0746012B40F3D4804B
:10DCD00000230C933B6907EB8303186900F0ECFC0D
:10DCE000C0F12000CBE60D9020E4012637E4C3F11B
:10DCF0002006029B03FA06F0FFF7D1BB002309932D
:10DD0000059B239A134414930133012B1F46B8BF7C
:10DD1000012708930021172F089D61647FF785ACC8
:10DD2000012204235B0003F11400B842114602F102
:10DD30000102F7D9616478E400230993239B002B47
:10DD400040F3E280149308931F46E3E7012309930D
:10DD5000F4E7029B002B7FF491AEDDE90212C2F3DF
:10DD60001303002B40F0998122F000431B0D1B058B
:10DD70002BB1069B0AF1010A0133069301230C9A89
:10DD80000C93002A3FF47AAEA4E74246314620467F
:10DD900000F092FD5A4601460646204600F0E6FC99
:10DDA00080465946204600F03BFCC346002F3FF416
:10DDB00058AE50E631461A46204600F0CDFD0646E4
:10DDC00091E60A9A002A00F05D81069A03F2334335
:10DDD0000A921A449A440692DDF82C80F1E5089BD9
:10DDE000002B3FF73BAD40F0F881DDE90601002252
:10DDF000B54BFCF765FEDDE9022301F071FA089FDF
:10DE00003E46002874D13123059A89F8003001324A
:10DE1000059209F101053946204600F001FC002E6B
:10DE20007FF434AF36E700F04881DDE90E01059B51
:10DE30005D42A64B05F00F0203EBC203D3E90023BA
:10DE4000FCF73EFE2D11CDE9020100F0CE8100234A
:10DE500002279F4EEA0705D5D6E90023FCF730FEDE
:10DE600001231F446D1006F10806F3D1002B3FF487
:10DE700023ACCDE902011FE4029B002B3FF46DAF00
:10DE800026E77168204600F0A5FB0546336906F1D8
:10DE90000C0102339A000C30FDF79EFC294601224A
:10DEA000204600F059FD824622E6002520466564A2
:10DEB000294600F08FFB4FF0FF33149308930123A2
:10DEC0008146239520640993B5E400F0B3FBA8468E
:10DED0000646824618E6204600F0A2FB01223CE6F8
:10DEE000229B022B7FF7F7AD089B002B00F0D78019
:10DEF000239B4D46DB4305938DE73123059A89F833
:10DF0000003001320592B5E6012523950895FFF70B
:10DF100089BB3846FCF76AFDDDE90223FCF7D0FD3A
:10DF200000226C4BFCF716FC0546A1F15076DDE9AA
:10DF300002010022644BFCF70BFC2A463346CDE974
:10DF4000020101F0D7F90746002858D1DDE90201A6
:10DF50002A4606F1004301F0AFF900283FF467AC10
:10DF60003E46C5E701230993CAE659460B9A204667
:10DF700000F0A2FC834674E5DDF808B08AE60B9B4E
:10DF80000C9AA8EB03031A44CDF82C800C924FF0A6
:10DF900000080DE5002A4B4608F10105DDF82C903C
:10DFA00000F3C580029688F80030564662E6DDE947
:10DFB0000E230227CDE91023FFF765BB4B46392B13
:10DFC000DDF82C9000F0C5800133029688F800300F
:10DFD00056464FE6069B089A9B1A0A93F1E44B4675
:10DFE0000296DDF82C9056461DE6302389F8003065
:10DFF000059B15F8018C013305934B46C3E40027BC
:10E000003E4600E7DDE91223DDE90201FCF758FD99
:10E01000109BCDE90201012B89F8008021D0109BD3
:10E02000CDF840A04B449A4600222B4B304639464F
:10E03000FCF746FD0F46064601F07CF98046FCF7EA
:10E04000D5FC02460B4630463946FCF781FB08F109
:10E05000300805F8018B554506460F46E4D1DDF83A
:10E0600040A00022DDE902011C4BFCF773FB3246A5
:10E070003B4601F021F9002871D0159B059315F856
:10E08000018C7BE4169B069AC3F136030A921A446C
:10E090009A440692DDF82C8093E400236FE639461B
:10E0A0000522204600F0C6FA01460746584600F011
:10E0B000ADFC00283FF7A7AE1AE7DDE90E230227E3
:10E0C000CDE90223FFF7F8BA0000144070210900DF
:10E0D0004821090000001C40000024400000E03FEF
:10E0E000089B002B3FF415AF149B002B7FF79FABD1
:10E0F000DDE902010022454BFCF7E2FC05460E4635
:10E10000781CCDE90256FCF771FC2A463346FCF731
:10E11000D7FC00223E4BFCF71DFB059A149B013AED
:10E1200005461592A1F150761093FFF7E6BA5946CD
:10E1300001222046029300F00FFC3946834600F08E
:10E1400065FC0028029B36DD392B02D0099B313358
:10E1500028E73922029688F80020564684E5DDE952
:10E16000022300202B49FCF7F3FA32463B4601F02C
:10E17000C1F810B9FFF75BBB154615F8013C6A1EE4
:10E18000302BF9D0159B059384E54346A0461C46E9
:10E19000DDF840B0DDF80890159B0593FFF7EEBB66
:10E1A0004B46392BDDF82C9008F10105D1D0029AAD
:10E1B000002ACBDCF6E67FF4F5AEDA077FF5F2AEA7
:10E1C000C2E7314600230A22204600F033FA149BAE
:10E1D0000646002B0CDD089381E400273E4687E6C7
:10E1E000229B022B0EDC149B01E50227FFF764BA89
:10E1F000229B022B06DC149BEDE73FF453ACC0F1ED
:10E200003C0048E4149B08936EE600BF00002440E5
:10E2100000001C400000E03F38B50A4C0A4D641B6A
:10E22000A4100AD004F18043013B05EB8305013CB7
:10E2300055F804399847002CF9D1BDE8384004F06E
:10E240008DB800BF8423090080230900F8B50C466F
:10E25000234F0646FDF780FBBB68C4F57E615D6811
:10E260000F3125F00305294421F47F6121F00F01CE
:10E27000A1F58054B4F5805F07DB00213046FDF73F
:10E2800077FBBB682B44984204D03046FDF76AFB0D
:10E290000020F8BD61423046FDF76AFB01300DD029
:10E2A000104BBA6819682D1B45F001053046091B53
:10E2B00055601960FDF756FB0120F8BD002130467E
:10E2C000FDF756FBBA68831A0F2BDEDD064943F0D3
:10E2D00001030C680349001B53600860D5E700BFC9
:10E2E000C8860720003C0820D08A0720002953D088
:10E2F000F8B50D460646FDF72FFB55F804CC714FD7
:10E30000A5F108012CF00103CA18B86854689042BE
:10E3100024F0030453D01CF0010F546002EB0400FE
:10E320003BD155F808CC4068A1EB0C018D6807F192
:10E33000080E7545634400F0010075D0D1F80CC09B
:10E34000C5F80CC0CCF8085060B343F001024A6035
:10E35000CB50B3F5007F50D35A0A042A70D89A09DB
:10E3600002F13905ED0002F138007C197A59083CB8
:10E37000944278D0506820F00300984271D9926896
:10E380009442F7D1E368C1E9024330469960E16005
:10E39000BDE8F840FDF7E6BA7047406800F00100BC
:10E3A0000028D2D19068484D2344A84243F001048C
:10E3B00062D0D268C26090604C60CB50C9E71CF05C
:10E3C000010F234407D155F8084C091BD1E902027B
:10E3D0002344C26090603D4A43F0010012684860E7
:10E3E0009A42B96004D83A4B30461968FFF72EFFBD
:10E3F0003046BDE8F840FDF7B5BA0122DB087C687D
:10E40000981013448240224307EBC30057F833406F
:10E410000838C1E902407A60304647F83310E160BD
:10E42000BDE8F840FDF79EBA002845D1D2E90202C6
:10E43000234443F00104C26090604C60CB50D7E7A6
:10E44000142A08D9542A1ED81A0B02F16F05ED00C0
:10E4500002F16E0089E702F15C05ED0002F15B005C
:10E4600083E714468EE701238210786803FA02F2EC
:10E4700002437A60234686E7C7E90411C1E9020036
:10E480004C60CB50B4E7B2F5AA7F06D8DA0B02F1A4
:10E490007805ED0002F1770067E740F254508242C0
:10E4A00006D89A0C02F17D05ED0002F17C005CE7D4
:10E4B0004FF47E757E2058E743F0010048601360FA
:10E4C00096E700BFC8860720D0860720D48A072099
:10E4D000303C0820D0F8EC00704700BF044B054AE0
:10E4E0001B685B6B002B08BF1346D3F8EC0070472A
:10E4F00098820720DC8A0720044A054B1268506B7B
:10E50000002808BF1846F030704700BF98820720E7
:10E51000DC8A0720704700BF704700BF82B049B156
:10E520005AB16BB113780B601278101C18BF012020
:10E5300002B0704701A9002AF3D1104602B070471B
:10E540006FF00100F4E700BF830770B4CDB23DD097
:10E55000541E0AB30378AB421FD0431C05E014F1EC
:10E56000FF3419D30278AA4217D013F0030F1846CC
:10E5700003F10103F3D1032C11D84CB30378AB4260
:10E580000BD00444431C02E00278AA4205D09C420E
:10E59000184603F10103F7D1002070BC704706460E
:10E5A0000A0292B22A4342EA02423368304653409A
:10E5B000A3F1013121EA030313F0803F06F10406C1
:10E5C000DCD1043C032C3046EFD8D6E71446D2E722
:10E5D0002046E2E7C36C70B505460C464BB153F8D4
:10E5E000240080B1026843F824200023C0E90333EB
:10E5F00070BD21220421FCF703FE0346E8640028D5
:10E60000EDD1002070BD012101FA04F6721D2846EB
:10E610009200FCF7F5FD0028F3D0C0E90146E4E7DD
:10E6200031B1C36C4A6853F82200086043F82210E5
:10E63000704700BFF0B54FF0000C0C4605460E6960
:10E6400083B001F1140738680CF1010C81B202FBB0
:10E650000133010C180C02FB01019BB203EB0143D7
:10E66000664547F8043B4FEA1143ECDC3BB1A26836
:10E67000B24207DD04EB8602013653612661204673
:10E6800003B0F0BD6168284601310193FFF7A2FF96
:10E690000746226904F10C01023292000C30FDF7AA
:10E6A0009BF8EA6C6168019B52F82100206042F8F7
:10E6B00021403C46DEE700BF020C12040346C2B90B
:10E6C0000304102013F07F4F04BF1B02083013F027
:10E6D000704F04BF1B01043013F0404F04BF9B0078
:10E6E0000230002B04DB5B0001D501307047202095
:10E6F00070470020E6E700BF0368014613F00702F9
:10E7000007D0DA071FD498071FD55B080B600120DC
:10E71000704798B2A0B1104613F0FF0F04BF1B0A58
:10E7200008301A0704BF1B0904309A0704BF9B086E
:10E730000230DA0702D45B080BD001300B6070475F
:10E740001B0C1020E8E7002070479B080B6002209C
:10E7500070472020704700BF10B50C460121FFF71D
:10E7600039FF0122C0E9042410BD00BF2DE9F04F9C
:10E770000D69146985B0A5420E46914604DA2A4611
:10E780004E46254689461446B36805EB0408716871
:10E790004345B8BF0131FFF71DFF00F1140B0BEB30
:10E7A000880AD345019005D25B46002243F8042B2A
:10E7B0009A45FBD809F1140303EB840406F1140213
:10E7C000A34202EB850E62D2A4EB0904153C24F0AF
:10E7D00003042344CDE902A809F1100990469A46A2
:10E7E00005E0090C2CD1CA450BF1040B4DD059F8AA
:10E7F000041F1FFA81FCBCF1000FF2D047465E46B1
:10E80000002100E00646304657F8042B346893B2E6
:10E81000A5B2120C0CFB0353240C0CFB02420B445C
:10E8200002EB13419BB243EA0143BE454FEA11415B
:10E8300040F8043BE6D87160D9F80010090CD2D03A
:10E84000DBF8003040461E465D46002200E02546CB
:10E850002C460788360C01FB07669BB2324443EA1C
:10E86000024344F8043B50F8043B6E681B0CB7B2FB
:10E8700001FB0373864503EB12434FEA1342E6D8CC
:10E88000CA456B600BF1040BB1D1DDE902A8B8F108
:10E89000000F0BDD5AF8043CAAF1040A1BB105E095
:10E8A0005AF8043D13B9B8F10108F9D10198C0F83C
:10E8B000108005B0BDE8F08F12F003032DE9F041A0
:10E8C000144607462ED10D46A4101CD0BE6C96B33C
:10E8D000E3074FF0000806D4641014D03068A8B1E4
:10E8E0000646E307F8D5324629463846FFF73EFF8D
:10E8F000B5B16A68FB6C641053F82210296043F8C4
:10E9000022500546EAD12846BDE8F081324631461C
:10E910003846FFF72BFF3060C0F800800646E0E77E
:10E920000546D9E70B4A013B52F823200023FFF7A5
:10E9300081FE0546C8E701213846FFF74BFE40F24D
:10E94000712101220023C0E904210646B864036056
:10E95000BEE700BF382209000B692DE9F0475411CA
:10E9600004EB03088B6808F101059D420E469146B1
:10E970000746496804DD5B009D4201F10101FADCB4
:10E980003846FFF727FE002C00F114033CDD00227F
:10E9900003EB840143F8042B8B42FBD1346906F16D
:10E9A000140319F01F0903EB840C25D0C9F12002D0
:10E9B0004FF0000A00E071468E461C6804FA09F424
:10E9C00044EA0A044EF8044B53F8044B634524FA16
:10E9D00002FAF0D3C1F804A0BAF1000F01D008F197
:10E9E0000205FB6C7268013D53F82210056131602D
:10E9F00043F82260BDE8F087043953F8042B9C45A6
:10EA000041F8042FF9D8ECE71946C7E730B40B6991
:10EA100005460069C01A0FD19B0014351431194402
:10EA20002B4401E09D4207D253F8044D51F8042DC8
:10EA30009442F7D002D3012030BC70474FF0FF3032
:10EA4000FAE700BF2DE9F84F0C6913698946E41A0B
:10EA5000002C924601F1140702F1140B14D19B0013
:10EA6000FA185B4401E0BA4262D952F8045D53F8E7
:10EA7000041D8D42F7D009D23A464B465F46D14637
:10EA800093469A46012401E0F6DB0024D9F80410ED
:10EA9000FFF7A0FD5E464FF00008D9F810C0DAF885
:10EAA00010303D46C4600BEB830E07EB8C0700F182
:10EAB000140455F8049B56F8042B1FFA89F34344B9
:10EAC0001FFA82F8120CA3EB0803C2EB194202EB07
:10EAD00023429BB243EA0243B64544F8043B4FEA63
:10EAE0002248E6D8AF4217D9A6462E4656F8043B30
:10EAF00099B241440A1402EB134289B241EA02433B
:10EB0000B7424EF8043B4FEA2248EFD8ED432F447A
:10EB100027F0030704373C44043C2BB954F8043D68
:10EB20000CF1FF3C002BF9D0C0F810C0BDE8F88F05
:10EB30000021FFF74FFD01220023C0E90423BDE8B7
:10EB4000F88F00BF2DE9F0411C4682B00121DDE9BC
:10EB500008659046FFF73EFD2346C4F30A54074676
:10EB6000C3F313030CB143F48013B8F10002019313
:10EB70001ED002A840F8082DFFF7BEFD70BBDDE9EE
:10EB800000237A61002B0CBF01210221BB61396196
:10EB9000CCB907EB8103A0F2324030601869FFF76F
:10EBA0008BFDC0EB41102860384602B0BDE8F08113
:10EBB00001A8FFF7A1FD0122019B11462030C7E902
:10EBC0000423002CE5D0A4F233430344C0F1350004
:10EBD00033602860384602B0BDE8F081019BC0F187
:10EBE0002002009903FA02F20A43C34001937A61BA
:10EBF000C8E700BF2DE9F04F936883B09046002B23
:10EC00006CD0176882460C46086808378D6842E069
:10EC1000A38913F4906F2DD0D4E9041505EB4505B5
:10EC2000A0EB010B05EBD575701C6D105844A84284
:10EC30002A4684BF05462A465B0536D5114650460E
:10EC4000FCF738FB00283AD05A4621690190FCF7BE
:10EC5000C3FDA289019B22F4906242F08002A2814E
:10EC6000A5EB0B0203EB0B006561B3463546236150
:10EC70002060A2605A46494600F0A2F8D8F8083051
:10EC8000A2682068551B58449E1BA5602060C8F8E8
:10EC900008601EB3083757E90296AB46002EF9D03C
:10ECA000AE42B5D23546B346E4E7504600F0EAF846
:10ECB00003460028D4D121695046FFF717FB0C23E7
:10ECC00000224FF0FF30CAF80030A38943F0400320
:10ECD000A381C8E9012203B0BDE8F08F0020C8F885
:10ECE000040003B0BDE8F08F19B1FF2A03D80A7001
:10ECF0000121084670478A234FF0FF310360F8E78F
:10ED00002DE9F8432B4D0646286898460F46914654
:10ED1000FFF700FC284B1C68D4F84831002B3DD08D
:10ED20005A681F2A0DDC02F1010C16BB0232C3F82F
:10ED300004C0286843F82270FFF7EEFB0020BDE80E
:10ED4000F8831E4B7BB34FF4C870AFF300800346CB
:10ED500048B30020D4F848114FF0010CC3E900106B
:10ED60000246C4F84831C3F88801C3F88C01002E6C
:10ED7000DCD0012103EB8204C4F88890D3F8880129
:10ED800091400843022EC3F88801C4F80881CDD110
:10ED9000D3F88C010143C3F88C11C7E704F5A673BF
:10EDA000C4F84831BCE72868FFF7B6FB4FF0FF30E6
:10EDB000C5E700BFD88A0720C02009000000000076
:10EDC0008842F0B40DD98B1883420AD9841832B125
:10EDD000224613F8014D994202F8014DF9D1F0BCD9
:10EDE00070470F2A48D940EA01039B0746D1A2F198
:10EDF00010031B0901F1200707EB031701F11004B1
:10EE000000F1100554F8106C103445F8106C54F8EB
:10EE10001C6C103545F81C6C54F8186C45F8186CCF
:10EE200054F8146CBC4245F8146CEBD1013302F079
:10EE30000F051B01032D1944034421D90F462C460D
:10EE40001E1F57F804CB043C032C46F804CFF8D817
:10EE50002C1F24F0030404342344214402F0030251
:10EE6000002ABCD0013B0A4411F8014B914203F83F
:10EE7000014FF9D1F0BC70470346F1E70346F1E7D3
:10EE80002A46EDE72DE9F04F924683B0002900F0C5
:10EE9000A1800D4680460AF10B04FCF75DFD55F894
:10EEA000042C162C22F00306A5F108073ED81024E6
:10EEB0002146A2453FD88E4207EB060974DAC84BBB
:10EEC0009868484500F0AA80D9F8040020F00103B2
:10EED0004B445B68DB0740F18380D20734D5514651
:10EEE0004046FCF7E7F98246E0B155F8043CA0F152
:10EEF000080223F001033B44934200F00E81321FCD
:10EF0000242A00F21481132A296800F2FB800346A8
:10EF10002A4619605168596092689A6029464046AD
:10EF2000FFF7E4F94046FCF71DFD4FE024F007042D
:10EF3000002C2146BDDA4FF0000A0C235046C8F8D9
:10EF4000003003B0BDE8F08F55F8083CA7EB030B89
:10EF5000DBF8042022F00302B3188B42BFDBDA4651
:10EF6000DBF80C105AF8080F321F242AC1600BEB93
:10EF70000309886000F2BE80132A296840F2D58018
:10EF8000CBF8081069681B2ACBF80C10A96800F2AE
:10EF9000E5800BF110020835116069681E4651606A
:10EFA000AB685F46554693607A68331B0F2B02F0BF
:10EFB000010222D832437A60D9F8043043F00103C9
:10EFC000C9F804304046FCF7CDFCAA46504603B0D1
:10EFD000BDE8F08F114603B0BDE8F04FFCF76AB909
:10EFE00020F0030033188B4263DBD9E902121E467E
:10EFF000CA6007EB03099160D6E73919224343F051
:10F0000001037A604B60D9F80430083143F0010302
:10F01000C9F804304046FFF769F9D3E7D0F8049007
:10F0200004F1100029F00309B144814580F2838086
:10F03000D2073FF554AF55F8082CA7EB020BDBF8CD
:10F04000042022F003029144484585DCDA46DBF8CF
:10F050000C105AF8080F321F242AC160886000F291
:10F06000AB80132A296840F2A580CBF808106968A4
:10F070001B2ACBF80C10A96800F2A5800BF1100236
:10F080000835116069685160A9689160A9EB0402B4
:10F090000BEB040142F0010299604A60DBF8043096
:10F0A000404603F001031C43CBF80440FCF75AFC34
:10F0B0008CE7D3073FF513AF55F8083CA7EB030BDC
:10F0C000DBF8042022F00302104483198B42FFF680
:10F0D00043AFD9E90201DA46C16088605AF8080FE7
:10F0E000DBF80C10321F242AC1600BEB0309886087
:10F0F0007FF642AF294650461E465F46FFF760FE48
:10F10000554651E701606B681B2A436032D805F110
:10F11000080200F10803A968FBE650F8043C23F05C
:10F1200003031E4407EB06093EE7524634E729462F
:10F13000FFF746FEF2E6A9EB0409274449F0010275
:10F140009F607A6055F8043C404603F001031C437D
:10F1500045F8044CFCF706FCAA4637E7CBF810103C
:10F16000E968242ACBF8141029690FD00BF1180292
:10F17000103511E7AB68242A8360EB68C3600FD0B9
:10F1800005F1100200F110032969C2E6CBF818104E
:10F1900069690BF12002CBF81C10A9691835FBE650
:10F1A0002B6905F118020361696900F118034161D7
:10F1B000A969AEE6524664E7294650460193FFF737
:10F1C000FFFD019B62E7CBF81010E968242ACBF819
:10F1D0001410296906D00BF11802103551E700BF51
:10F1E000C8860720CBF8181069690BF12002CBF80C
:10F1F0001C10A969183544E74FF0FF3C06E000BF3A
:10F200004FF0010C02E000BF4FF0010C4DF804CDAF
:10F210004FEA410C7FEA6C5C4FEA430C18BF7FEA6F
:10F220006C5C1BD001B050EA410C0CBF52EA430C9D
:10F2300091EA030F02BF90EA020F0020704710F11D
:10F24000000F91EA030F58BF994208BF90422CBFAC
:10F25000D8176FEAE37040F0010070474FEA410CA5
:10F260007FEA6C5C02D150EA013C07D14FEA430CC3
:10F270007FEA6C5CD6D152EA033CD3D05DF8040B34
:10F28000704700BF8446104662468C461946634666
:10F2900000E000BF01B5FFF7B7FF002848BF10F13D
:10F2A000000F01BD4DF808EDFFF7F4FF0CBF012082
:10F2B00000205DF808FB00BF4DF808EDFFF7EAFFFE
:10F2C00034BF012000205DF808FB00BF4DF808EDB9
:10F2D000FFF7E0FF94BF012000205DF808FB00BFAE
:10F2E0004DF808EDFFF7CEFF94BF012000205DF838
:10F2F00008FB00BF4DF808EDFFF7C4FF34BF012045
:10F3000000205DF808FB00BF4FEA410C7FEA6C5C0F
:10F3100002D150EA013C0AD14FEA430C7FEA6C5C0F
:10F3200002D152EA033C02D14FF0000070474FF087
:10F33000010070474FEA410212F5001215D211D5B3
:10F340006FF47873B3EB625212D94FEAC12343F0E2
:10F35000004343EA505311F0004F23FA02F018BF64
:10F36000404270474FF00000704750EA013005D12D
:10F3700011F0004008BF6FF0004070474FF00000F0
:10F38000704700BF48617264206661756C740D0A35
:10F39000004368616E67656420686F75720D0A00CE
:10F3A00052756E6E696E6720256325632563202D77
:10F3B000202573202D2025732025730D0A0031345C
:10F3C0003A30333A303300417567202038203230EC
:10F3D0003139007363686564756C65720D0A0043AA
:10F3E000416D62696F206D696E75746F0D0A00461C
:10F3F00061696C65640D0A00424B38382D4D4259E5
:10F400002D303248520057414B452055500D0A00CF
:10F410005761697420536C6565700D0A004177610E
:10F420006B696E670D0A00456E61626C65207761DD
:10F43000746368646F672077697468202564206D41
:10F440006963726F7365636F6E6473207065726950
:10F450006F640A0D00255820256C5820256C580D26
:10F460000A0042616E6B20310D0A0042616E6B2012
:10F47000320D0A002D462D20496E697469616C6950
:10F480007A6174696F6E206572726F720A0D002D59
:10F49000462D20526561642074686520556E69713F
:10F4A0007565204964656E74696669657220657268
:10F4B000726F720A0D00696E69745F626F617264C7
:10F4C0002072756E6E696E670D0A00497665636F0E
:10F4D000204461696C792030320D0A0049444C4562
:10F4E00000546D725100546D7220537663003041A8
:10F4F00000436F6D616E646F206E6F6E2067657381
:10F500007469746F0D0A0030430041420D0A0045D2
:10F5100072722E20370D0A0030370042420D0A0069
:10F520004572722E20380D0A0030380043420D0A11
:10F530000043430D0A0036380030340036390042AB
:10F54000616E636F20312061747469766F0D0A00FB
:10F5500042616E636F20302061747469766F0D0AAA
:10F56000002563256325633A0025583A0025583A5B
:10F5700025583A256C583A0030450036320036336B
:10F58000003634003636003035003042003031006D
:10F590005570646174657220696E69740D0A007437
:10F5A0005F72657365740043616E6E6F7420637281
:10F5B000656174652074696D65722E0D0A00757041
:10F5C00064617465207461736B00253033580025C5
:10F5D000303458005265626F6F740D0A002D462D4D
:10F5E00020496E697469616C697A6174696F6E2013
:10F5F0006572726F7220256C750A0D0043616E3062
:10F6000020696E697469616C697A6174696F6E20D2
:10F61000636F6D706C657465640D0A0043616E31D3
:10F6200020696E697469616C697A6174696F6E20B2
:10F63000636F6D706C657465640D0A00745F6B6553
:10F64000797300496D706F737369626C65206361D3
:10F650006E20696E746572666163650D0A004D61A6
:10F66000696C626F78202564207069656E61202561
:10F67000640D0A0041626F72742121210D0A007429
:10F680006F6F206D7563682043414E206572726F05
:10F6900072730D0A00557064617465722C206E6F70
:10F6A0007420726573657474696E670D0A00636116
:10F6B0006E6275735F7461736B5F74780063616E03
:10F6C0005F7461736B0043616E207461736B2069BA
:10F6D0006E69740D0A00257320737461636B207466
:10F6E0006F6F206C6F772E0D0A007654696D65720E
:10F6F0005365636F6E64006576656E745F746173E5
:10F700006B006576656E745F696E6974004953526B
:10F710002051554555452046554C4C0D0A006576FF
:10F72000656E745F7461736B005573696E67202535
:10F730006420627974657320666F722068616E64FC
:10F740006C657273206D616E6167656D656E7420A6
:10F75000256420666F722071756575652E0D0A002F
:10F76000745F62726B006C6F676765725F696E6968
:10F77000740044454641554C54005541525400458F
:10F7800056454E540041444300524550454154456E
:10F7900052004E4F524D414C00494E464F0045528B
:10F7A000524F52005741524E494E47004445425530
:10F7B00047004C6F676765722025733A2564206E99
:10F7C0006F77207365742061732025733A25640D6B
:10F7D0000A00766572626F7365000D0A7665726263
:10F7E0006F73653A0D0A766572626F7365205B44CC
:10F7F000454641554C547C43414E7C554152547CC6
:10F800004556454E547C52455045415445527C41E5
:10F8100044435D205B4E4F524D414C7C494E464F18
:10F820007C4552524F527C5741524E494E477C4480
:10F83000454255475D0D0A0D0A000000D2F7080049
:10F84000DAF70800BD39080002000000536572763F
:10F8500069636520696E69740D0A00756172745F71
:10F8600073657269616C5F6572726F720073657245
:10F8700069616C5F756172745F696E69740075733C
:10F88000617274305F73657269616C5F6572726F0B
:10F8900072002573206D756C7469706C6520636FE0
:10F8A0006E66696775726174696F6E0D0A007573B3
:10F8B000617274315F73657269616C5F6572726FDA
:10F8C0007200436F646120646920747261736D69B2
:10F8D0007373696F6E65207069656E612E0D0A0025
:10F8E00068616E646C655F76656869636C655F67A7
:10F8F000656E6572616C5F73657474696E677300C1
:10F900008CFB08009CFB08009CFB08009CFB08008B
:10F910009CFB08009CFB08009CFB08009CFB08006B
:10F920009CFB08009CFB08009CFB08009CFB08005B
:10F930009CFB08009CFB08009CFB08009CFB08004B
:10F940009CFB08009CFB08009CFB080050FB080087
:10F950005CFB08005CFB08005CFB080064FB080023
:10F960005CFB08005CFB08005CFB08005CFB08001B
:10F970005CFB08005CFB08005CFB08005CFB08000B
:10F980005CFB08005CFB08005CFB08005CFB0800FB
:10F990005CFB08005CFB080082FB080082FB08009F
:10F9A00082FB080082FB080082FB080082FB080043
:10F9B00082FB080082FB080082FB080082FB080033
:10F9C00082FB080082FB080082FB080082FB080023
:10F9D00082FB080082FB080082FB080082FB080013
:10F9E00082FB08000000556E6B6E6F776E207665A7
:10F9F0006869636C6520636F6E6669672025640DB6
:10FA00000A006261636B20746F206D61696E206D06
:10FA1000656E750D0A0056656869636C653A205518
:10FA20006E6B6E6F776E206D656E75202530325867
:10FA3000202530325820253032580D0A0044697391
:10FA400065676E6F206D61696E206D656E750D0A5C
:10FA500000000000A5FB0800B0FB0800B0FB080098
:10FA6000B0FB0800BAFB0800B0FB0800B0FB0800C0
:10FA7000B0FB0800B0FB0800B0FB0800B0FB0800BA
:10FA8000B0FB0800B0FB0800B0FB0800B0FB0800AA
:10FA9000B0FB0800B0FB0800B0FB0800B0FB08009A
:10FAA0006DFB080078FB080078FB080078FB080075
:10FAB00078FB080078FB080078FB080078FB08005A
:10FAC00078FB080078FB080078FB080078FB08004A
:10FAD00078FB080078FB080078FB080078FB08003A
:10FAE00078FB080078FB080078FB080038FB08006A
:10FAF00041FB080041FB080041FB080048FB0800EF
:10FB000041FB080041FB080041FB080041FB0800E5
:10FB100041FB080041FB080041FB080041FB0800D5
:10FB200041FB080041FB080041FB080041FB0800C5
:10FB300041FB080041FB08004E65757374617274E7
:10FB4000005265626F6F7400526961767669610078
:10FB500042657374C3A4746967656E00436F6E6613
:10FB600069726D00436F6E6665726D61004F686EFD
:10FB70006520526164696F004F70656E2044617347
:10FB8000680044414220526164696F00426C7565AF
:10FB9000746F6F746820526164696F004254205220
:10FBA0006164696F005765726B73726164696F009D
:10FBB0004F454D20526164696F00526164696F2046
:10FBC0004F726967696E616C6500466168727A653B
:10FBD000756765696E7374656C6C756E67656E00CC
:10FBE00056656869636C652053657474696E6773E4
:10FBF0000052C3A9676C616765732064752056C3A2
:10FC0000A9686963756C6500496D706F7374617A7A
:10FC1000696F6E6920566569636F6C6F00436F6E24
:10FC20006669677572616369C3B36E2064656C2031
:10FC3000566568C3AD63756C6F0055737461776901
:10FC4000656E696120506F6A617A647500566F65F0
:10FC5000727475696720496E7374656C6C696E6740
:10FC6000656E0000CAFB0800E0FB0800E0FB08002E
:10FC7000F1FB080008FC08001DFC0800E0FB080080
:10FC80003AFC0800E0FB0800E0FB08004DFC08001F
:10FC9000E0FB0800E0FB0800E0FB0800E0FB0800D8
:10FCA000E0FB0800E0FB0800E0FB0800E0FB0800C8
:10FCB0004461696C7920323031342025640D0A00AA
:10FCC00043757272656E742070686F6E6520737410
:10FCD000617475733A2025640D0A0043757272656C
:10FCE0006E7420726164696F206D6564696120744F
:10FCF0007970653A2025640D0A0000000540310640
:10FD000001000000000000000000000008000000EA
:10FD10000540090A01000000006D4A0000000000D3
:10FD2000030000000040110A010000000004D70099
:10FD300000000000030000000540090E0100000063
:10FD4000003A0000000000000200000017217218B5
:10FD5000010000000000000000000000080000009A
:10FD60001724FF1801000000000000000000000040
:10FD7000080000000540111E0100000011111111C2
:10FD800011100000060000004461696C79204441B4
:10FD90004220524144494F0D0A0068656C70000DC5
:10FDA0000A68656C703A0D0A204C6973747320619F
:10FDB0006C6C207468652072656769737465726520
:10FDC0006420636F6D6D616E64730D0A0D0A00002F
:10FDD0009AFD08009FFD080031490800000000005E
:10FDE00008030202034B0902030302430A0303034D
:10FDF00003460B04030304480C03040404430D04EA
:10FE00000404044D0E04040504400F0405050443D6
:10FE100010050505044511060505044712050606EB
:10FE20000443130606060444140706060446150890
:10FE30000606044716070707044417080807044680
:10FE40001807080804431908080804447769736B05
:10FE500065725F696E6974005769736B6572206DB6
:10FE60006F64756C652025642074696D65646F75B9
:10FE7000740D0A004E6F7420676976696E6720778B
:10FE800069736B65720D0A00745F77736B0048418C
:10FE90004E444252414B455F4F4E0D0A0048414E81
:10FEA000444252414B455F4F46460D0A0049676E3A
:10FEB0006974696F6E2025642062757420726573A1
:10FEC0006574207265717565737465722E0D0A0014
:10FED00049474E4954494F4E5F4F4E0D0A0049471E
:10FEE0004E4954494F4E5F4F46460D0A0044656CDB
:10FEF000617965642069676E6974696F6E20256C2D
:10FF000064207365636F6E64732072656D61696EE2
:10FF1000696E670D0A004C49474854535F4F4E0DB8
:10FF20000A004C49474854535F4F46460D0A005259
:10FF30004556455253455F4F4E0D0A0052455645B2
:10FF40005253455F4F46460D0A0044656C61796522
:10FF500064206F6E2072657665727365202564205B
:10FF60007365636F6E64732072656D61696E696E2F
:10FF7000670D0A0044656C61796564206F666620D0
:10FF800072657665727365202564207365636F6E94
:10FF900064732072656D61696E696E670D0A005346
:10FFA00070656564206E6F772025660D0A00745FAA
:10FFB00077697200496E76616C69642050574D20F4
:10FFC000636F6E66696775726174696F6E0D0A00A2
:10FFD0007265726561645F616C6C5F73657474698E
:10FFE0006E677300745F3136300050756C73616EEC
:10FFF0007469206E6F6E20696E697A69616C697AC6
:0200000290006C
:100000007A6174692E0D0A0046696C6C696E67200E
:1000100045322072756E74696D65202564202564F3
:100020002E0D0A0061206D656E7520746F2073655A
:100030006E642025700D0A0052696C617363696FEC
:100040000D0A005269747261736D6574746F0D0AE4
:100050000068616E646C655F7377632071756575A8
:10006000652066756C6C0D0A004552524F52452151
:10007000212100745F35303000745F3230300072FF
:100080006164696F20616C70696E650D0A004E4194
:10009000434B090A007265706561742074782025ED
:1000A00064090A00474956452055502C2033204EFC
:1000B00041434B530D0A0054494D454F5554740A62
:1000C000007265706561742074782025640D0A00E3
:1000D000474956452055502C20332054494D454F13
:1000E00055540D0A004E6F2050726573730D0A004F
:1000F000566F6C2B2070726573730D0A00566F6C0F
:100100002B2072656C0D0A00566F6C2D2070726585
:1001100073730D0A00566F6C2D2072656C0D0A000A
:100120005365656B2B2070726573730D0A00536500
:10013000656B2B2072656C0D0A005365656B2D2075
:1001400070726573730D0A005365656B2D207265BF
:100150006C0D0A004D7574652070726573730D0A1D
:10016000004D7574652072656C0D0A0050726573E0
:1001700065742B2070726573730D0A00507265737D
:1001800065742B2072656C0D0A005072657365747E
:100190002D2070726573730D0A005072657365745B
:1001A0002D2072656C0D0A00536F757263652070A7
:1001B000726573730D0A00536F7572636520726503
:1001C0006C0D0A0054656C5069636B557020707239
:1001D0006573730D0A0054656C5069636B5570202C
:1001E00072656C0D0A0054656C48616E675570202D
:1001F00070726573730D0A0054656C48616E6755C3
:10020000702072656C0D0A0053706565636820701C
:10021000726573730D0A00537065656368207265BB
:100220006C0D0A00556E737570706F727465642082
:1002300053574320636F6D6D616E640D0A00457204
:10024000726F722073656E64696E672C20707573AF
:1002500068696E67206261636B2073776320256431
:100260000D0A005357432025642072657456616C53
:100270002025640D0A0052657461696E206B6579F2
:10028000202530325820666F722025642074696DF5
:1002900065732E0D0A00496E76696F206D656E7567
:1002A00020636F6E74696E75650D0A00496E76691C
:1002B0006F206D656E752025700D0A00496E766998
:1002C0006F20616C6C61726D652E0D0A00616C703F
:1002D000696E655F7461736B002563256325632513
:1002E0006300092530356C750925303258253032C8
:1002F0005825303258253032580D0A00416C70694B
:100300006E65204C6F776C6576656C0D0A0009256B
:1003100030356C75090909092000726571756573BE
:1003200074206E6F7420696D706C656D656E746598
:100330006420253032580D0A00416C70696E6520CA
:100340004C6F776C6576656C20696E69740D0A0078
:1003500073657269616C20696E69740D0A00616C65
:1003600070696E655F6C6F7700092530356C7509B3
:1003700000253032580068616E646C655F636C6F95
:10038000636B5F646174655F6D656E750068616E57
:10039000646C655F636C6F636B5F646174655F76EB
:1003A000616C75655F726563656976656400686137
:1003B0006E646C655F6C65645F636F6C6F725F73B6
:1003C000657474696E670000300909003F0909000F
:1003D0003F0909003F0909004C0909003F090900CC
:1003E0003F0909003F0909003F0909003F090900C9
:1003F0003F0909003F0909003F0909003F090900B9
:100400003F0909003F0909003F0909003F090900A8
:100410003F090900C90A0900DB0A0900DB0A0900D3
:10042000E70A0900F70A0900020B0900100B09008E
:10043000200B09002D0B09002D0B09003A0B0900B8
:100440002D0B09002D0B09002D0B0900480B09008D
:100450002D0B09002D0B09002D0B09002D0B090098
:10046000410A0900450A0900450A0900490A09002C
:100470004E0A0900550A09005A0A09005E0A0900D5
:10048000450A0900450A0900650A0900450A0900EC
:10049000450A0900450A0900690A0900450A0900D8
:1004A000450A0900450A0900450A09000000526989
:1004B0006368696573746120726964697365676EE6
:1004C0006F0D0A002D0C09002D0C09002D0C0900E0
:1004D0002D0C0900390C09002D0C09002D0C090008
:1004E0002D0C09002D0C09002D0C09002D0C090004
:1004F0002D0C09002D0C09002D0C09002D0C0900F4
:100500002D0C09002D0C09002D0C09002D0C0900E3
:10051000260909002A0909002A0909002A090900EF
:100520002A0909002A0909002A0909002A090900DB
:100530002A0909002A0909002A0909002A090900CB
:100540002A0909002A0909002A0909002A090900BB
:100550002A0909002A0909002A09090022090900B3
:1005600022090900220909002209090022090900BB
:1005700022090900220909002209090022090900AB
:10058000220909002209090022090900220909009B
:10059000220909002209090022090900220909008B
:1005A0002209090022090900416C70696E653A2030
:1005B000526963657675746F2072696368696573E3
:1005C000746120706572206D656E7520253032581B
:1005D000202530325820253032580D0A00414C5029
:1005E000494E453A2043757272656E74206D656E92
:1005F000753A2025640D0A00256C6420257320259A
:10060000303258202530325820253032580D0A001B
:1006100043616D62696F2076616C6F7265207379DA
:100620006E6320636C6F636B20646120256420001F
:1006300043616D62696F2031322F3234480D0A00F8
:1006400043616D62696F20726967612061747469CA
:1006500076610D0A00256C64202573202564202511
:10066000640D0A0043616D62696F20616E6E6F20D8
:1006700025640D0A0043616D62696F206D657365C5
:100680002025640D0A0043616D62696F2067696F00
:10069000726E6F2025640D0A0043616D62696F20E0
:1006A0006F72612025640D0A0043616D62696F20DD
:1006B0006D696E75746F2025640D0A00526F772086
:1006C0002564206E6F742068616E646C65640D0A29
:1006D00000257320796561723A202564207665686B
:1006E00069636C655F6D6F6E74683A20256420766F
:1006F000656869636C655F6461793A202564206888
:100700006F75723A202564206D696E7574653A20A4
:1007100025640D0A00000000E9090900F00909003C
:10072000F0090900F5090900FE0A0900FB090900A2
:10073000FB090900000A0900F0090900F009090095
:10074000080A0900F0090900F0090900F009090088
:100750000B0A0900F0090900F0090900F009090075
:10076000F0090900745F6D72656C00526571756502
:10077000737420696E74657266616365206D656E61
:10078000750D0A0052657175657374206D61696E2F
:10079000206D656E750D0A00100A0900100A090027
:1007A000100A0900170A09001E0A0900250A090093
:1007B000250A09002C0A0900100A0900100A09007C
:1007C000330A0900100A0900100A0900100A09007A
:1007D0003A0A0900100A0900100A0900100A090063
:1007E000100A09006E0A0900740A0900740A090057
:1007F0007A0A09007F0A0900840A0900880A0900A8
:100800008D0A0900740A0900740A0900960A090091
:10081000740A0900740A0900740A0900460A0900EA
:10082000740A0900740A0900740A0900740A0900AC
:100830008209090087090900870909008709090059
:100840008709090087090900870909008709090044
:100850008709090087090900870909008709090034
:100860008709090087090900870909008709090024
:100870008709090087090900870909009409090007
:1008800098090900980909009809090098090900C0
:1008900098090900980909009809090098090900B0
:1008A00098090900980909009809090098090900A0
:1008B000980909009C09090098090900980909008C
:1008C0009809090098090900A4090900A409090068
:1008D000A4090900A4090900A4090900A409090040
:1008E000A4090900A4090900A4090900A409090030
:1008F000A4090900A4090900A4090900A409090020
:10090000A7090900A4090900A4090900A40909000C
:10091000A4090900526564726177206D656E750DDA
:100920000A003234680031326800414D2F504D00CA
:1009300043414E20416B7469766974C3A4740043CB
:10094000414E204163746976697479004174746919
:10095000766974C3A02043414E00466F726D617486
:1009600000466F726D61746F00466F726D617475D1
:1009700000466F726D61617400466F726D6174C480
:10098000B1004E65696E004E6F004A610059657393
:1009900000536900417573004F6666004B617061DA
:1009A0006CC4B1004F6E0041C3A7C4B16B005A655F
:1009B00069742073796E6368726F6E6973696572AA
:1009C000656E0053796E6320726164696F20636C99
:1009D0006F636B0053696E632E206F726F6C6F676D
:1009E000696F20726164696F005374756E6465008D
:1009F000486F757200686575726500686F72610096
:100A0000676F647A696E61006E750073616174006E
:100A10004D696E757465006D696E757465004D691C
:100A20006E75746F006D696E75746F006D696E75AB
:100A30007461006D696E7575740064616B696B61DA
:100A40000054616700446179006A6F7572004769FC
:100A50006F726E6F0064C3AD610064696100647A97
:100A60006965C584006461670067C3BC6E004D6F33
:100A70006E6174004D6F6E7468006D6F6973004D28
:100A8000657365006D6573006DC3AA73006D69655C
:100A90007369C48563006D61616E64004A61687248
:100AA000005965617200616E6EC3A96500416E6E8A
:100AB0006F0061C3B16F00616E6F00726F6B006A8F
:100AC0006161720079C4B16C005568727A656974AD
:100AD00020756E6420446174756D0054696D6520E5
:100AE00026204461746500486F726C6F67652065ED
:100AF00074206461746500446174612065204F72E4
:100B0000610052656C6F6A207920666563686100D8
:100B100052656CC3B367696F2065204461746100DE
:100B20005A656761722069206461746100436C6F6B
:100B3000636B20262044617465004B6C6F6B2065ED
:100B40006E20646174756D00536161742076652058
:100B5000746172696800536F6674776172652056BC
:100B6000657273696F6E0053572056657273696FB3
:100B70006E0056657273696F6E205357005665722A
:100B800073696F6E6520535720005665727369C391
:100B9000B36E20535700576572736A612053570034
:100BA00053572D5665727369650056656869636CA5
:100BB000652073657474696E67730052C3A9676CAE
:100BC000616765732064752076C3A9686963756C75
:100BD0006500496D706F7374617A696F6E69207614
:100BE0006569636F6C6F00436F6E666967757261EC
:100BF0006369C3B36E2064656C20766568C3AD63BA
:100C0000756C6F00557374617769656E69612070EA
:100C10006F6A617A647500566F65727475696720D2
:100C2000696E7374656C6C696E67656E00496E669B
:100C30006F726D6174696F6E00496E666F726D617F
:100C40007A696F6E6900496E7465726661636520CA
:100C500045696E7374656C6C756E67656E00496E80
:100C6000746572666163652053657474696E677339
:100C700000506172616DC3A8747265732064652051
:100C80006C27496E7465726661636500496D706FAB
:100C90007374617A696F6E6920496E7465726661FA
:100CA0006363696100416A757374657320646520CC
:100CB000496E74657266617A00557374617769650F
:100CC0006E696120496E74657266656A73C3B37735
:100CD00000496E746572666163652D696E73746533
:100CE0006C6C696E67656E00560B0900670B090036
:100CF000670B0900720B09007D0B09008A0B0900C4
:100D0000670B0900960B0900670B0900670B0900C8
:100D1000A00B0900670B0900670B0900670B0900AE
:100D2000670B0900670B0900670B0900670B0900D7
:100D3000670B0900AE090900C3090900C3090900CE
:100D4000C3090900D4090900C3090900C30909003E
:100D5000C3090900C3090900C3090900C30909003F
:100D6000C3090900C3090900C3090900C30909002F
:100D7000C3090900C3090900C3090900C30909001F
:100D80005A0909005A0909005A0909005A090900B3
:100D9000610909006109090061090900690909007F
:100DA0005A0909005A090900710909005A0909007C
:100DB0005A0909005A090900790909005A09090064
:100DC0005A0909005A0909005A09090050726F7638
:100DD0006F206120747261736D6574746572650D46
:100DE0000A00547261736D6574746F0D0A0000001F
:100DF000CAFB0800AA0B0900AA0B0900BB0B0900DB
:100E0000D20B0900E70B0900AA0B0900040C09002A
:100E1000AA0B0900AA0B0900170C0900AA0B09006C
:100E2000AA0B0900AA0B0900AA0B0900AA0B0900CA
:100E3000AA0B0900AA0B0900AA0B09009C0A0900C9
:100E4000A10A0900A10A0900A60A0900AD0A0900C1
:100E5000B20A0900B70A0900BB0A0900A10A090081
:100E6000A10A0900BF0A0900A10A0900A10A090094
:100E7000A10A0900C40A0900A10A0900A10A09007F
:100E8000A10A0900A10A09008A0909008D090900BF
:100E90008D0909008D090900910909008D090900D2
:100EA0008D0909008D0909008D0909008D090900C6
:100EB0008D0909008D0909008D0909008D090900B6
:100EC0008D0909008D0909008D0909008D090900A6
:100ED0008D09090068616E646C655F666163746F9B
:100EE00072795F73657474696E67730068616E64AC
:100EF0006C655F73657474696E67735F7375626D3B
:100F0000656E7500711A0900621A0900621A0900FB
:100F1000621A0900761A0900621A0900621A0900A9
:100F2000621A0900621A0900621A0900621A0900AD
:100F3000621A0900621A0900621A0900621A09009D
:100F4000621A0900621A0900621A0900621A09008D
:100F5000F218090006190900061909000619090006
:100F60001B190900061909000619090006190900CC
:100F700006190900061909000619090006190900D1
:100F800006190900061909000619090006190900C1
:100F90000619090006190900061909003D1C090077
:100FA000531C0900531C0900531C0900651C09004F
:100FB000531C0900531C0900531C0900531C090051
:100FC000531C0900531C0900531C0900531C090041
:100FD000531C0900531C0900531C0900531C090031
:100FE000531C0900531C0900BE1B0900C91B090042
:100FF000C91B0900C91B0900D11B0900C91B090035
:10100000C91B0900C91B0900C91B0900C91B09002C
:10101000C91B0900C91B0900C91B0900C91B09001C
:10102000C91B0900C91B0900C91B0900C91B09000C
:10103000C91B09004F1A09005E1A09005E1A09004F
:101040005E1A0900671A09005E1A09005E1A090093
:101050005E1A09005E1A09005E1A09005E1A09008C
:101060005E1A09005E1A09005E1A09005E1A09007C
:101070005E1A09005E1A09005E1A09005E1A09006C
:101080007A1A09008A1A09008A1A09008A1A0900BC
:10109000941A09008A1A09008A1A09008A1A090092
:1010A0008A1A09008A1A09008A1A09008A1A09008C
:1010B0008A1A09008A1A09008A1A09008A1A09007C
:1010C0008A1A09008A1A09008A1A0900191A0900DD
:1010D0002A1A09002A1A09002A1A0900351A0900D1
:1010E0002A1A09002A1A09002A1A09002A1A0900CC
:1010F0002A1A09002A1A09002A1A09002A1A0900BC
:101100002A1A09002A1A09002A1A09002A1A0900AB
:101110002A1A09002A1A0900AC1A0900BA1A090089
:10112000BA1A0900BA1A0900C21A0900BA1A090043
:10113000BA1A0900BA1A0900BA1A0900BA1A09003B
:10114000BA1A0900BA1A0900BA1A0900BA1A09002B
:10115000BA1A0900BA1A0900BA1A0900BA1A09001B
:10116000BA1A0900B2190900C2190900C219090006
:10117000C2190900CC190900C2190900C2190900D5
:10118000C2190900C2190900C2190900C2190900CF
:10119000C2190900C2190900C2190900C2190900BF
:1011A000C2190900C2190900C2190900C2190900AF
:1011B000E6190900F5190900F5190900F5190900E2
:1011C000001A0900F5190900F5190900F5190900B7
:1011D000F5190900F5190900F5190900F5190900B3
:1011E000F5190900F5190900F5190900F5190900A3
:1011F000F5190900F5190900F519090000000000AA
:10120000781909008B1909008B1909008B1909003D
:101210009C1909008B1909008B1909008B19090009
:101220008B1909008B1909008B1909008B1909000A
:101230008B1909008B1909008B1909008B190900FA
:101240008B1909008B1909008B190900A01A0900D4
:101250008E1A09008E1A09008E1A0900A61A0900B2
:101260008E1A09008E1A09008E1A09008E1A0900BA
:101270008E1A09008E1A09008E1A09008E1A0900AA
:101280008E1A09008E1A09008E1A09008E1A09009A
:101290008E1A09008E1A0900257320707265737307
:1012A000656420726F773A2025640D0A004C45442E
:1012B000204245464F52453A20253032580D0A000B
:1012C0004C45442041465445523A20253032580D71
:1012D0000A000000DB180900DB180900DB18090010
:1012E000DB180900E6180900DB180900DB18090003
:1012F000DB180900DB180900DB180900DB180900FE
:10130000DB180900DB180900DB180900DB180900ED
:10131000DB180900DB180900DB180900DB180900DD
:10132000A41C0900B31C0900B31C0900B31C09006C
:10133000C21C0900B31C0900B31C0900B31C09003E
:10134000B31C0900B31C0900B31C0900B31C09003D
:10135000B31C0900B31C0900B31C0900B31C09002D
:10136000B31C0900B31C0900B31C0900941C09003C
:10137000991C0900991C0900991C09009E1C090070
:10138000991C0900991C0900991C0900991C090065
:10139000991C0900991C0900991C0900991C090055
:1013A000991C0900991C0900991C0900991C090045
:1013B000991C0900991C09007E1C0900891C090060
:1013C000891C0900891C09008D1C0900891C090061
:1013D000891C0900891C0900891C0900891C090055
:1013E000891C0900891C0900891C0900891C090045
:1013F000891C0900891C0900891C0900891C090035
:10140000891C0900D81A0900EA1A0900EA1A090019
:10141000EA1A0900FE1A0900EA1A0900EA1A090084
:10142000EA1A0900EA1A0900EA1A0900EA1A090088
:10143000EA1A0900EA1A0900EA1A0900EA1A090078
:10144000EA1A0900EA1A0900EA1A0900EA1A090068
:101450008C180900921809009218090092180900C6
:1014600097180900921809009218090092180900AB
:1014700092180900921809009218090092180900A0
:101480009218090092180900921809009218090090
:10149000921809009218090092180900321C0900DC
:1014A000361C0900361C0900361C0900321C0900D4
:1014B000361C0900361C0900361C0900361C0900C0
:1014C000361C0900361C0900361C0900361C0900B0
:1014D000361C0900361C0900361C0900361C0900A0
:1014E000361C0900361C0900DB1B0900E21B090041
:1014F000E21B0900E21B0900EA1B0900E21B0900CC
:10150000E21B0900E21B0900E21B0900E21B0900C3
:10151000E21B0900E21B0900E21B0900E21B0900B3
:10152000E21B0900E21B0900E21B0900E21B0900A3
:10153000E21B09000E1B0900351B0900351B0900C1
:10154000351B09004B1B0900351B0900351B090021
:10155000351B0900351B0900351B0900351B090027
:10156000351B0900351B0900351B0900351B090017
:10157000351B0900351B0900351B0900351B090007
:1015800094090900980909009809090098090900B7
:1015900098090900980909009809090098090900A3
:1015A0009809090098090900980909009809090093
:1015B00098090900980909009C090900980909007F
:1015C000980909009809090098090900681B090091
:1015D0008F1B09008F1B09008F1B0900A41B09002A
:1015E0008F1B09008F1B09008F1B09008F1B09002F
:1015F0008F1B09008F1B09008F1B09008F1B09001F
:101600008F1B09008F1B09008F1B09008F1B09000E
:101610008F1B09008F1B090033190900A409090059
:10162000A4090900A4090900A4090900A4090900E2
:10163000A4090900A4090900A4090900A4090900D2
:10164000A4090900A4090900A4090900A4090900C2
:10165000A7090900A4090900A4090900A4090900AF
:10166000A40909002E1A09002E1A09002E1A0900D1
:101670002E1A0900451A09002E1A09002E1A09000F
:101680002E1A09002E1A09002E1A09002E1A090016
:101690002E1A09002E1A09002E1A09002E1A090006
:1016A0002E1A09002E1A09002E1A09002E1A0900F6
:1016B000371909004C1909004C1909004C19090087
:1016C0005C1909004C1909004C1909004C19090052
:1016D0004C1909004C1909004C1909004C19090052
:1016E0004C1909004C1909004C1909004C19090042
:1016F0004C1909004C1909004C190900CE1A0900AF
:10170000BE1A0900BE1A0900BE1A0900D21A090041
:10171000BE1A0900BE1A0900BE1A0900BE1A090045
:10172000BE1A0900BE1A0900BE1A0900BE1A090035
:10173000BE1A0900BE1A0900BE1A0900BE1A090025
:10174000BE1A0900BE1A0900F31B0900081C090093
:10175000081C0900081C0900161C0900081C0900C7
:10176000081C0900081C0900081C0900081C0900C5
:10177000081C0900081C0900081C0900081C0900B5
:10178000081C0900081C0900081C0900081C0900A5
:10179000081C0900781809007F1809007F18090043
:1017A0007F180900851809007F1809007F180900B3
:1017B0007F1809007F1809007F1809007F180900A9
:1017C0007F1809007F1809007F1809007F18090099
:1017D0007F1809007F1809007F1809007F18090089
:1017E000231C0900271C0900271C0900271C0900CD
:1017F0002E1C0900271C0900271C0900271C0900B2
:10180000271C0900271C0900271C0900271C0900A8
:10181000271C0900271C0900271C0900271C090098
:10182000271C0900271C0900271C0900A018090013
:10183000A8180900A8180900A8180900B718090075
:10184000A8180900A8180900A8180900A818090074
:10185000A8180900A8180900A8180900A818090064
:10186000A8180900A8180900A8180900A818090054
:10187000A8180900A818090052656368747300521B
:101880006967687400446573747261004C696E6BBB
:1018900073004C6566740053696E697374726100FD
:1018A0004C656E6B726164005374656572696E6736
:1018B00020576865656C00566F6C616E74650056E4
:1018C000657274696B616C00566572746963616CF2
:1018D00000566572746963616C6500486F72697A5D
:1018E0006F6E74616C004F72697A7A6F6E74616C9E
:1018F000650054617374656E6B6F6E6669677572AF
:101900006174696F6E00427574746F6E20436F6E00
:1019100066696775726174696F6E00436F6E6669A0
:10192000677572617A696F6E652050756C73616E50
:1019300074690045696E005072C3BC66756E67209D
:10194000766F7220416266616872740050726566DB
:101950006C6967687420436865636B0041767669DB
:10196000736F205369637572657A7A612041767668
:1019700069616D656E746F005765726B7365696E32
:101980007374656C6C756E67656E00466163746F29
:1019900072792053657474696E677300496D706F56
:1019A0007374617A696F6E6920496E697A69616CD6
:1019B0006900576569C39F2028676564696D6D7408
:1019C000290044696D205768697465004269616E39
:1019D000636F2054656E756500576569C39F00424B
:1019E00069616E636F0047656C6220286765646992
:1019F0006D6D74290044696D2059656C6C6F7700BA
:101A00004769616C6C6F2054656E75650047656C45
:101A100062004769616C6C6F004F72616E67652090
:101A200028676564696D6D74290044696D204F7283
:101A3000616E6765004172616E63696F6E65205407
:101A4000656E7565004172616E63696F6E65004217
:101A50006C61752028676564696D6D74290044693F
:101A60006D20426C756500426C752054656E75651D
:101A700000426C617500426C75004772C3BC6E20F9
:101A800028676564696D6D74290044696D2047722B
:101A900065656E0056657264652054656E756500F7
:101AA0004772C3BC6E00566572646500526F742045
:101AB00028676564696D6D74290044696D205265FD
:101AC0006400526F73736F2074656E756500526F9A
:101AD0007400526F73736F0054617374656E626546
:101AE0006C6575636874756E6700427574746F6EAB
:101AF00020496C6C756D696E6174696F6E00436F1F
:101B00006C6F72652050756C73616E7469005665F8
:101B1000727AC3B6676572756E672052C3BC636B19
:101B200077C3A472747367616E6720617573202830
:101B300073656B29005265762E204F464620484F2C
:101B40004C44205365636F6E647300526574726F0A
:101B5000205269746172646F20446973617474699E
:101B600076617A696F6E65005665727AC3B667658D
:101B700072756E672052C3BC636B77C3A4727473B3
:101B800067616E672065696E202873656B29005256
:101B900065762E204F4E20484F4C44205365636F8E
:101BA0006E647300526574726F205269746172645E
:101BB0006F204174746976617A696F6E650056654D
:101BC000727AC3B6676572740044656C6179656446
:101BD0000052697461726461746100536F666F7260
:101BE00074004E61747572616C004E61747572613F
:101BF0006C650052C3BC636B77C3A4727473676176
