:02000002A0005C
:10000000F05C0820F5000A00F5680A0009030A0000
:10001000F5680A00F5680A00F5680A0000000000AB
:1000200000000000000000000000000021070A009E
:10003000F5680A000000000075070A00B1070A0011
:10004000F5680A00F5680A00F5680A00F5680A0014
:10005000F5680A00F5680A00F5680A00F5680A0004
:10006000013D0A000000000000000000C1030A007A
:1000700019040A0000000000000000000000000059
:10008000000000009D3E0A0091410A000D430A0055
:1000900000000000F5680A0055660A00F5680A00CD
:1000A000F5680A0000000000F5680A00F5680A001B
:1000B000F5680A00F5680A00F5680A00F5680A00A4
:1000C000F5680A00000000000000000000000000C9
:1000D000A5740A00F5680A00F5680A00F5680A00C8
:1000E000F5680A00F5680A0000000000BD300A004B
:1000F00095310A004FF0005208B5194B1A631A6186
:100100004FF48052C3F83022C3F81022154A164B20
:100110009A4219D10021154B154A93421DD3154B14
:10012000154A23F0604121F07F0103F16043B3F5EC
:10013000801F91603EBF936843F0005393600BF0C3
:100140008DFD00F079F8FEE70C49043A8B42E1D2CC
:1001500052F8040F43F8040BF8E743F8041BDCE7FC
:10016000000E0E405C2F0B0000800720908C0720B3
:10017000EC3C082000000A0000ED00E0908C072015
:1001800010B5054C237833B9044B13B10448AFF3D1
:1001900000800123237010BD908C07200000000018
:1001A0005C2F0B000C4B43B10C4810B50C49AFF35E
:1001B00000800C48036823B910BD0A48036833B9AE
:1001C0007047094B002BF7D0BDE810401847064B8D
:1001D000002BF5D0184700BF000000005C2F0B007B
:1001E000948C07205C2F0B0000000000034A044B96
:1001F0001A600022034B1A60704700BFD4810720A9
:10020000EC330820B08C0720024A0221032003F0BF
:10021000C3BB00BFB1FD0A00024A0121002003F068
:10022000BBBB00BFFFFD0A000378122B03D140784F
:1002300008B906F0A7BC70477FB503F07BFB00F060
:1002400071F903F077FC04F069F906F0B1FC0120C4
:1002500006F0A8FC012006F095FC002006F092FCB8
:1002600003F00AFB1B49072003F03CFA1A49082057
:1002700003F038FA1949092003F034FA184912201A
:1002800003F030FA03F0ECFC1649174A04911749C1
:100290001378039102929178527801910092012192
:1002A000134A002003F078FB0AF096FC07F022FACC
:1002B0000AF0E9FD04F05CF900F006FA0D4A0121AC
:1002C000002003F069FB00F023FC002007B05DF87C
:1002D00004FB00BFED010A0019020A0009020A002E
:1002E00029020A00DEFD0A0018FE0A00E7FD0A00E6
:1002F000C0FD0A00F3FD0A0030BF024A1368013353
:1003000013607047B08C0720064A074913688B4278
:1003100002D8013313607047002001211060034AA6
:1003200003F03ABBAC8C0720F5FF0900A4FD0A00DE
:1003300038B56424044D00212A46084603F02CFBFE
:10034000013CF8D138BD00BF0FFE0A000320704702
:100350000620704702207047074B1A680AB9074AFF
:100360001A601A68064910448142A6BF18601046F8
:100370004FF0FF30704700BFB48C0720F05C0820BE
:10038000FC7F082010B50446072CFDD8DFE804F0F8
:100390000B04040C0C0C0C0C05F0C0FE003018BF54
:1003A00001200028F0D010BD05F036FFF6E708B5B3
:1003B0000B2005F049FFBDE808400C2005F044BFC4
:1003C00010B5124806F0E2F88107044606D502216E
:1003D0000E4806F0D9F801220D4B1A70E20307D53A
:1003E0004FF48031094806F0CFF80122084B1A700B
:1003F000E3040AD54FF48051044806F0C5F80548D7
:1004000003F0B6FA0122024B1A7010BD000E0E4026
:10041000C08C072024FE0A0010B50C4806F0B6F880
:100420000204044607D54FF40041084806F0ACF832
:100430000122074B1A70E30307D54FF480310348BC
:1004400006F0A2F80122024B1A7010BD00100E40F7
:10045000C08C072038B5FFF7AAFF02231A484FF4D3
:1004600080544361C0F8A0304FF40043174D102270
:100470006B61C5F8A0304461C0F8A0404466446593
:100480004462C0F88040036F114923F4805303672E
:1004900006F092F810224FF4C031284606F08CF88E
:1004A0004FF4006200210B4BC3F88020C3F8802179
:1004B00083F80B131A60C3F88040C3F8804183F8B7
:1004C0000C131C6038BD00BF000E0E4000100E4023
:1004D0000210010000E100E008B50F490F4806F0E6
:1004E00050F84FF4C0310E4806F04BF8012005F0EB
:1004F000CBFE022005F0C8FE082005F0C5FE8020D6
:1005000005F0C2FE4FF4805005F0BEFEBDE8084085
:100510004FF4005005F0B8BE02100100000E0E406E
:1005200000100E402DE9F041002486B04FF4807198
:100530004D4806F0C5F808214B4806F0B9F84A487E
:1005400006F0C6F8494BDFF870811C70FFF782FF98
:10055000FFF7C2FF2046FFF715FF204605F07AFDA2
:1005600005F02CFE05F01EFE414806F02DFA06F0BF
:10057000C5F9FFF71CFF05F043FB3E4F3E4D4046DB
:1005800003F0F6F93B784FF000563C4C43B94FF47A
:1005900080536E636363FFF79FFF03F0E3F9EEE7B9
:1005A000374803F0E5F94FF480532E633548236351
:1005B00006F016F80446002005F0BEFD0320FFF704
:1005C000E1FE002005F066FD06F04EFAFFF7EFFEB3
:1005D00005F0A2F94FF400412B4806F02FF82B4A02
:1005E00003460121002003F0D7F91F4B01205D696C
:1005F00005F0E4FF264AC4F302230190012100958F
:10060000002003F0C9F90120002105F0DDFF214B96
:10061000B3F5202F34BF2048204803F0A9F9204B20
:1006200004211B680020C3F30323092B0CBF4FF4E4
:1006300000324FF480221B4B1A6006F0B1F810B163
:10064000194803F095F9042102A806F033F910B116
:10065000164803F08DF9059A154B16481A6003F0F9
:1006600087F906B0BDE8F081101A0E40B88C07205B
:1006700000BD0105C08C0720000E0E4000100E408A
:100680003BFE0A00001A0E40501A0E4045FE0A00BA
:1006900073FE0A0025050A0080FE0A0089FE0A0092
:1006A00040090E40BC8C072092FE0A00ADFE0A00F5
:1006B000C48C0720D4FE0A002EFE0A00014805F073
:1006C00089BF00BF001A0E4008B5094A0121002069
:1006D00003F062F903F052FF072805D007F0FCFD94
:1006E000BDE8084004F0E8B802F012FCF8E700BFEB
:1006F000E9FE0A0003480068006880F3088862B6D3
:1007000000DF00BF08ED00E04FF0807300E90A0051
:10071000002340F8202C40F80C3C40387047000083
:10072000064B19680868B0E8F00F80F309884FF0AD
:10073000000080F311884EF00D0E7047C88C072022
:100740004FF0A00383F31188BFF36F8FBFF34F8F78
:10075000024A136801331360704700BF908007207E
:10076000034A1368013B13600BB983F31188704788
:1007700090800720EFF309800C4B1A6820E9F00FF6
:1007800010602DE908404FF0A00080F3118800F0C0
:100790003DFB4FF0000080F31188BDE80840196868
:1007A0000868B0E8F00F80F309887047C88C07200C
:1007B0004FF0805208B5094B1A60EFF311834FF0E8
:1007C000A00282F31188BFF36F8FBFF34F8F00F049
:1007D000EDF9002383F3118808BD00BF04ED00E0AC
:1007E000034A044B1A60072243F8042C704700BFE9
:1007F0001F48010014E000E008B5084B1A6842F4F5
:1008000070021A601A6842F070421A60FFF7E8FF3F
:100810000020034B1860FFF76DFF08BD20ED00E0DE
:100820009080072070470000064A13681968064B3D
:1008300019B94FF0FF321A6070471268D268D26857
:100840005268F8E7CC8C0720548D0720F8B51B4B75
:100850001B4E1D68044630680F46043000F0BDFE94
:10086000334640B901203168164EC96A3268884063
:1008700022EA00023260621C07D137B119681248BF
:100880000431BDE8F84000F085BE2C441A68A5424A
:10089000546007D90D4A10681968BDE8F840043162
:1008A00000F084BE0A4A10681968043100F07EFE28
:1008B000084B1A68944238BF1C60F8BD9C8D072015
:1008C000C88C0720248D0720748D0720D08C07202A
:1008D000CC8C0720548D072080B5DFF86880154F39
:1008E000154C164E236873B9154B1B68012B07D99D
:1008F0004FF08053C8F80030BFF34F8FBFF36F8FB6
:10090000FFF7FAFCECE7FFF71BFFFB68DD68281D2B
:1009100000F063FE3368013B33602368013B2360D2
:10092000FFF71EFF286B01F013F9284601F010F9BC
:10093000D8E700BF888D0720148D0720108D072071
:10094000D48C072004ED00E02DE9F84F4FEA820A2D
:10095000804650460D4699460B9E01F067F80746C3
:1009600098B1582001F062F8044658B107637DB988
:100970004FF0A00383F31188BFF36F8FBFF34F8F46
:1009800000BFFDE7384601F0E3F84FF0FF3591E096
:100990005246A52138460BF0A1FC236BAAF1040AAC
:1009A0009A442AF0070A6B1E04F13402093559787B
:1009B00002F8011B13F8011F09B19D42F7D10A9DEE
:1009C0004FF0000B022D28BF0225271DE562A5640C
:1009D000384684F83DB0C4F84CB000F0D8FDC5F1FD
:1009E000030504F1180000F0D2FDC4F850B02461F2
:1009F000A561646284F854B04A4641465046FFF708
:100A000083FE206006B13460FFF79AFE304B314E12
:100A10001A68DFF8F48001321A603268002A4CD17B
:100A200034601B68012B1FD12B4800F0A5FDDFF8B7
:100A3000DC902A4800F0A0FD294D2A4800F09CFDDA
:100A4000484600F099FD284600F096FD264800F043
:100A500093FD264800F090FD254800F08DFD254BC4
:100A6000C3F80090244B1D600125244A24491368D3
:100A7000086801331360E26A236405FA02F3034352
:100A800014200B60144B394600FB023000F082FD4D
:100A9000FFF766FED8F8003063B13368DA6AE36ABC
:100AA0009A4207D24FF08052164B1A60BFF34F8F15
:100AB000BFF36F8F2846BDE8F88FD8F80030002BC1
:100AC000D2D13368DA6AE36A9A4298BF3460CBE7DE
:100AD000108D0720C88C0720D48C0720E88C0720B5
:100AE0003C8D0720FC8C07205C8D0720888D07201B
:100AF000748D0720CC8C0720D08C0720208D0720F8
:100B0000248D072004ED00E0708D0720288D07203C
:100B100013B50024184B00940193C82223461749AB
:100B20001748FFF711FF012818D100F0B1FD012887
:100B300014D14FF0A00383F31188BFF36F8FBFF37D
:100B40004F8F4FF0FF320F4B1A600F4B18600F4B57
:100B50001C6002B0BDE81040FFF74EBE013009D165
:100B60004FF0A00383F31188BFF36F8FBFF34F8F54
:100B700000BFFDE702B010BD508D0720FAFE0A004D
:100B8000D9080A00548D0720708D07209C8D0720FE
:100B9000024A136801331360704700BF1C8D0720A1
:100BA000014B1868704700BF9C8D07202DE9F84F56
:100BB0003C4B1B68002B6ED13B4B1C6801341C6006
:100BC000C4B93A4B1A6812684AB14FF0A00383F3D4
:100BD0001188BFF36F8FBFF34F8F00BFFDE7344A1B
:100BE0001968106818601160324A13680133136085
:100BF000FFF71AFE304D4FF0000B2B682F4F9C4231
:100C00000AD3DFF8A8A0DFF8C490DAF80020126851
:100C1000A2B94FF0FF322A603A68294BD16A1422F8
:100C20004A439A58022A28BF4FF0010B254A1268FE
:100C3000002A0CBF58460120BDE8F88FDAF80020E2
:100C4000D268D66871688C4201D22960E4E706F167
:100C50000408404600F0C1FCB16A19B106F1180061
:100C600000F0BBFC01224FF0140EF06AD9F80030FE
:100C700002FA00F11943124BC9F800100EFB0030C4
:100C8000414600F087FC3868F16AC26A914228BF89
:100C90004FF0010BB9E70C4A4FF0000B136801331A
:100CA0001360C3E71C8D07209C8D0720CC8C072088
:100CB000D08C0720588D0720548D0720C88C072022
:100CC000D48C0720A08D0720188D0720248D0720A5
:100CD0002DE9F843314C23684BB94FF0A00383F35F
:100CE0001188BFF36F8FBFF34F8F00BFFDE7FFF792
:100CF00027FD2368013B236024682CB10024FFF703
:100D00002FFD2046BDE8F883254B1B68002BF5D04E
:100D1000DFF8A490234FDFF8A480D9F80030E3B9BE
:100D20000CB1FFF781FD204D2C6844B101271F4E07
:100D3000FFF73CFF00B13760013CF9D12C601B4B41
:100D40001B68002BDAD04FF08052194B1A60BFF3AA
:100D50004F8FBFF36F8F0124D1E7D9F80C300125F5
:100D6000DC68261D04F1180000F037FC304600F066
:100D700034FC1420E26A396805FA02F30B4300FBE5
:100D8000028031463B6000F005FC0A4BE26A1B68BA
:100D9000DB6A9A4224BF054B1D60BEE71C8D07200D
:100DA000108D0720248D0720188D0720A08D072087
:100DB00004ED00E0C88C07205C8D0720D48C072050
:100DC00008B540B94FF080520E4B1A60BFF34F8FF9
:100DD000BFF36F8F08BD0C4B196849B14FF0A003EA
:100DE00083F31188BFF36F8FBFF34F8F00BFFDE711
:100DF000FFF7CEFEFFF72AFDFFF76AFF0028E1D0DC
:100E000008BD00BF04ED00E01C8D0720184B10B595
:100E10001A68184B12B101221A6010BD1A60164BE5
:100E20001B68B3FA83F31422DBB2C3F11F035A43E6
:100E300012498C5888184CB94FF0A00383F31188DD
:100E4000BFF36F8FBFF34F8F00BFFDE744680832D9
:100E500064680A44944208BF6268446008BF426004
:100E6000142202FB03135B68DA68054BD4E700BF6A
:100E70001C8D0720A08D0720248D0720D48C0720EF
:100E8000C88C072010B50C4648B94FF0A00383F377
:100E90001188BFF36F8FBFF34F8F00BFFDE7054B86
:100EA0001968183100F082FB2046BDE8104001218E
:100EB000FFF7CCBCC88C072038B50D46144648B99E
:100EC0004FF0A00383F31188BFF36F8FBFF34F8FF1
:100ED00000BFFDE7074B1968183100F05BFB002CE1
:100EE000214608BF2846BDE8384018BF4FF0FF3004
:100EF000FFF7ACBCC88C072038B5C368DC684CB9B8
:100F00004FF0A00383F31188BFF36F8FBFF34F8FB0
:100F100000BFFDE704F11805284600F05EFB114B09
:100F20001B68E3B9251D284600F057FB01230E4935
:100F3000E26A08689340034314200B6029460B4B78
:100F400000FB023000F026FB094BE26A1B68DB6AFB
:100F50009A4285BF0120074B0020186038BD294602
:100F60000548EFE71C8D0720248D0720D48C07202F
:100F7000C88C0720A08D07205C8D072010B5044683
:100F800048B94FF0A00383F31188BFF36F8FBFF30D
:100F90004F8F00BFFDE7FFF7D3FB054B1B682360B6
:100FA000044B1B686360BDE81040FFF7D9BB00BF6E
:100FB000588D07209C8D0720034B1B680360034B53
:100FC0001B684360704700BF588D07209C8D072029
:100FD00070B50C46054648B94FF0A00383F311885D
:100FE000BFF36F8FBFF34F8F00BFFDE749B94FF0DD
:100FF000A00383F31188BFF36F8FBFF34F8F00BF40
:10100000FDE7FFF79DFB0F4B69681A682368581CC2
:101010000ED00D482E680068864201D08A420ED25A
:10102000521A9A4209D29B1A23602846FFF7C4FF3E
:101030000024FFF795FB204670BD002323600124A8
:10104000F7E700BF9C8D0720588D07200122014B38
:101050001A607047A08D072008B9064B1868026B0C
:101060001346981A13F8011BA529FAD0C0F38F0074
:10107000704700BFC88C0720014B1868704700BF3D
:10108000C88C0720054B1B6833B1054B1B68002B30
:101090000CBF02200020704701207047708D072090
:1010A0001C8D07202DE9F0410446002836D0244A43
:1010B000C36A11681746C96A8B4238D214268269FE
:1010C000204D002AA8BF3A6806FB0353A2BFD26A8C
:1010D000C2F10302826142699A4222D100F10408FE
:1010E000404600F07AFA184B48B9E06A4643AA59DC
:1010F0002AB901211A68814022EA01021A603A687D
:101100001968D26AE262012404FA02F00843186006
:101110001420414600FB025000F03CFA2046BDE896
:10112000F0813B68DB6AC3620120BDE8F08113688F
:10113000806CDC6AA0422CBF00200120BDE8F08159
:10114000C88C0720D48C0720248D0720F8B50446CE
:1011500008B90020F8BD234B1B68984209D04FF016
:10116000A00383F31188BFF36F8FBFF34F8F00BFCE
:10117000FDE7C36C4BB94FF0A00383F31188BFF3B5
:101180006F8FBFF34F8F00BFFDE7C16A826C013BD9
:101190009142C364DDD0002BDBD1051D284600F051
:1011A0001CFA114E114A50B91421E76A7943735859
:1011B0002BB901201368B84023EA00031360A36C25
:1011C000C3F10301E362A1610124116804FA03F091
:1011D000084310601420294600FB036000F0DAF990
:1011E0002046F8BDC88C0720D48C0720248D07200A
:1011F000F8B5044600284DD0C26C4AB94FF0A003A0
:1012000083F31188BFF36F8FBFF34F8F00BFFDE7EC
:10121000836C994238BF1946C36A8B423AD0012A7F
:1012200038D11D4A1268904209D14FF0A00383F3D0
:101230001188BFF36F8FBFF34F8F00BFFDE71426F8
:10124000164D826906FB0353002A4269C162A4BF9E
:10125000C1F1030181619A421CD1071D384600F09B
:10126000BCF9E26A0E4C40B95643AB592BB9012187
:101270002368914023EA010323600123142021689D
:1012800093400B432360394600FB0250BDE8F84011
:1012900000F080B9F8BD00BFC88C0720D48C0720AF
:1012A000248D0720044B1A681AB11968CA6C0132E0
:1012B000CA641868704700BFC88C07202DE9F04148
:1012C0001E4C1E4680460F461546FFF739FA236826
:1012D00093F85430022B14D0012123681A6D22EAAE
:1012E00008021A65236883F8541056B13046FFF798
:1012F000ADFA4FF08052124B1A60BFF34F8FBFF31D
:101300006F8FFFF72DFAFFF71BFA15B123681B6DDE
:101310002B602368002293F85430022B09BF01256B
:1013200000252368196D04BFB9431965236883F844
:101330005420FFF715FA2846BDE8F081C88C072035
:1013400004ED00E0F8B50E4617461D46044648B9C0
:101350004FF0A00383F31188BFF36F8FBFF34F8F5C
:1013600000BFFDE7FFF7ECF90DB1236D2B60022301
:1013700094F8545084F85430EDB2042F16D8DFE8B6
:1013800007F00A0307051100216D0E43266502E0F0
:10139000236D01332365012D15D00125FFF7E0F9F9
:1013A0002846F8BD022DF1D10025F7E7236D013362
:1013B000F1D04FF0A00383F31188BFF36F8FBFF319
:1013C0004F8F00BFFDE7261D304600F006F9144997
:1013D000E26A086805FA02F3034314200B60114B1C
:1013E000314600FB023000F0D5F8A36A4BB14FF054
:1013F000A00383F31188BFF36F8FBFF34F8F00BF3C
:10140000FDE7094BE26A1B68DB6A9A42C5D94FF0D7
:101410008052064B1A60BFF34F8FBFF36F8FBDE74B
:10142000248D0720D48C0720C88C072004ED00E011
:101430002DE9F843DDF820800E4691461D4604460E
:1014400048B94FF0A00383F31188BFF36F8FBFF348
:101450004F8F00BFFDE7FFF7E5F9EFF311874FF07E
:10146000A00383F31188BFF36F8FBFF34F8F0DB1CC
:10147000236D2B60022394F8545084F85430EDB25D
:10148000B9F1040F16D8DFE809F00A0307051100C7
:10149000216D0E43266502E0236D01332365012D86
:1014A00015D0012087F31188BDE8F883022DF1D112
:1014B0000020F7E7236D0133F1D04FF0A00383F351
:1014C0001188BFF36F8FBFF34F8F00BFFDE7A36A93
:1014D0004BB14FF0A00383F31188BFF36F8FBFF3BD
:1014E0004F8F00BFFDE7134B1B68FBB9261D30462D
:1014F00000F073F8104A1420E36A11689D400D4310
:10150000314615600D4A00FB032000F043F80C4BF8
:10151000E26A1B68DB6A9A42C3D90123B8F1000F63
:1015200001D0C8F80030074A1360BAE704F1180187
:101530000548EAE71C8D0720248D0720D48C07205E
:10154000C88C0720A08D07205C8D072038B5054684
:1015500008B9084B1D680024FFF7F2F895F85430DD
:10156000022B04BF85F854400124FFF7F9F8204608
:1015700038BD00BFC88C072000F1080343604FF05E
:10158000FF32C36003610023826003607047002361
:101590000361704743689A684B608A609A6851603B
:1015A0009960036808610133036070470A6830B5C9
:1015B000531C0AD103695A684A6091608B60596074
:1015C000036808610133036030BD00F108035C6803
:1015D0002568AA42EFD32346F9E741688268036988
:1015E0008A60826851605968884208BF5A60002248
:1015F00002611A68013A1A6018687047F8B50F4C12
:10160000FFF79EF82568ADB90D4F0E4E3846FFF72F
:10161000B3FF3046FFF7B0FF0B4B2A461F600B4B62
:1016200010211E201E6000F097FB206010B10849B9
:1016300000F0ACFEBDE8F840FFF792B8D88D072067
:10164000AC8D0720C08D0720A48D0720A88D072012
:10165000FFFE0A00914208B5416000610AD8D21A23
:1016600083699A420DD2084B011D1868FFF79EFF4F
:10167000002008BD9A4201D2994202D2011D034BBB
:10168000F3E7012008BD00BFA88D0720A48D072027
:1016900007B5FFF7B3FF0E4B1B684BB94FF0A00324
:1016A00083F31188BFF36F8FBFF34F8F00BFFDE748
:1016B000084B4FF4967201930223074900930748A1
:1016C0000023FFF741F90028E8D003B05DF804FBE0
:1016D000D88D0720DC8D072004FF0A0005180A00BA
:1016E0002DE9F04180462C200D4617461E4600F09D
:1016F0009DF90446B0B14DB94FF0A00383F31188B2
:10170000BFF36F8FBFF34F8F00BFFDE7FFF776FF8B
:10171000069BC4F80080A561E76126626362201D14
:10172000FFF735FF2046BDE8F081000030B51546D3
:1017300085B01A46034648B94FF0A00383F31188D9
:10174000BFF36F8FBFF34F8F00BFFDE70C4C2068D6
:1017500078B105298DE8220002930CDCFFF792FC9A
:10176000002302280CBF089A1A466946206800F038
:1017700019FB05B030BD0023694600F0DFFBF8E738
:10178000D88D07202DE9F3414FF000081B4D2B6841
:101790001A6832B91A4A11681360296002B0BDE8AC
:1017A000F081DB68DC681E68271D3846FFF715FFEF
:1017B000636A20469847E369012BE8D1A369334463
:1017C0009E4206D26360246139462868FFF7EEFE28
:1017D000DDE70023CDF80080324619462046FFF7AA
:1017E000A5FF0028D3D14FF0A00383F31188BFF3E6
:1017F0006F8FBFF34F8F00BFFDE700BFA48D0720A1
:10180000A88D07202DE9F04F714DDFF8D0812F46CC
:1018100087B02B681C68002C40F0D5804FF0010A7F
:10182000FFF7B6F9FFF7BCF9DFF8B4B18146DBF892
:1018300000305E46984236D2FFF7A4FF0122CBF873
:101840000090002A40F08380BAF1000F66D14C4529
:101850006AD8FFF73DFA3B68DB68D3F80CB00BF1B0
:101860000400FFF7BAFEDBF81C30012B1DD1DBF8BA
:10187000181023464A4621445846FFF7EBFEA0B114
:10188000CDF800A05346224651465846FFF74EFF7A
:1018900058B94FF0A00383F31188BFF36F8FBFF3E4
:1018A0004F8F00BFFDE70022C9E7DBF82430584620
:1018B0009847DFF82491002202A9D9F8000000F02F
:1018C000F9FB0028A5D0029B002B03DA05990498A8
:1018D000039B9847029B002BEDDB049C636913B1CB
:1018E000201DFFF77AFEFFF75BF9336883469842C5
:1018F00001D2FFF747FF029AC6F800B0092ADAD8EA
:101900000123934013F4047A49D113F0C70F21D176
:101910009B06D0D5204600F01BF9CCE72D4B1B6869
:101920001A68B2FA82F252092B4BA4EB090118682B
:1019300000F03EFDFFF7CCF90028BAD14FF08053FC
:10194000C8F80030BFF34F8FBFF36F8FB1E7FFF7D9
:10195000BFF9AEE7A169039B5A4619442046FFF739
:1019600079FE0028A7D0636A20469847E369012BD7
:10197000A1D1A2690399CDF800A00A44534651466B
:101980002046FFF7D3FE002895D14FF0A00383F344
:101990001188BFF36F8FBFF34F8F00BFFDE703992F
:1019A000A16149B94FF0A00383F31188BFF36F8F92
:1019B000BFF34F8F00BFFDE75B465A4659442046B0
:1019C000FFF748FE77E7DB684FF0000A1C6827E75F
:1019D000A48D0720A88D0720D88D072004ED00E0F6
:1019E000D48D072010B50F4B1A68824218D35C685B
:1019F0001919884201BF416818460919596044689D
:101A000001198A4207D1084909688A421FBF5168F3
:101A10001268091941609842026018BF186010BD31
:101A20001346E1E7302A0820E08D07202DE9F04138
:101A30000446FFF7ADF83F493F4D0B68FBB93F4AFD
:101A4000002056070FBF49F6404307323C4B22F0B7
:101A5000070218BF9B1A13443A4E083B23F00703B2
:101A600070603260586018600B60981A1360364BD3
:101A700050601860354B18604FF000432B602F68A2
:101A8000274216D1002C41D004F1080358071CBF8F
:101A900023F00703083363B12C4A16689046B3421B
:101AA00007D8284A15686868834204D809688D42B7
:101AB00007D100242AE02C68002CF7D02A462546BE
:101AC000F1E7296814681160C21A102A10D9E818C1
:101AD000410709D04FF0A00383F31188BFF36F8F44
:101AE000BFF34F8F00BFFDE742606B60FFF77AFFE7
:101AF0006B681549F61A1F4300230868C8F8006090
:101B0000864238BF0E6008346F602B60FFF7E0F844
:101B10000CB9FEF70DFC630709D04FF0A00383F367
:101B20001188BFF36F8FBFF34F8F00BFFDE72046D3
:101B3000BDE8F081E08D0720242A0820E48D0720ED
:101B4000242A0820302A08202C2A0820282A0820A5
:101B500010B5044680B3194A50F8043C1268134289
:101B600009D14FF0A00383F31188BFF36F8FBFF348
:101B70004F8F00BFFDE750F8081C49B14FF0A0039C
:101B800083F31188BFF36F8FBFF34F8F00BFFDE763
:101B900023EA020340F8043CFEF7FAFF084A54F82F
:101BA000043C1168A4F108000B441360FFF71AFF0E
:101BB000BDE81040FFF78CB810BD00BF242A0820F4
:101BC000282A082010B50446FEF7BAFDA46BFEF7DC
:101BD000C7FDB4FA84F0400910BD70B51546026C1B
:101BE0000446866B42B905689DB98068FFF7AEFA76
:101BF000A5600136A66370BD6DB940680AF0F8FAB9
:101C00006368226C1344A2686360934201D3236823
:101C100063600020EDE7C0680AF0EAFA236CE2682E
:101C20005B4221681A448A42E2603EBFA2689B1868
:101C3000E360022DEDD10EB1013EEAE73046D8E770
:101C400003461A6C10B4084662B1D9689C68114406
:101C5000A142D96028BF196810BC28BFD960D968D3
:101C60000AF0C6BA10BC704770B50446FEF768FDAE
:101C700094F8455004F124066DB2002D14DCFF23C6
:101C800084F84530FEF76CFDFEF75AFD94F8445099
:101C900004F110066DB2002D12DCFF2384F84430ED
:101CA000BDE87040FEF75CBD636A002BE7D03046AC
:101CB000FFF722F908B1FFF7C9F9013D6DB2DCE782
:101CC0002369002BE9D03046FFF716F908B1FFF77A
:101CD000BDF9013D6DB2DEE738B50D46044648B9A1
:101CE0004FF0A00383F31188BFF36F8FBFF34F8FC3
:101CF00000BFFDE7FEF724FD206CE36B2268434341
:101D0000D1181B1A1344A160E3600021FF23A163D3
:101D1000626084F8443084F8453095B9236963B132
:101D200004F11000FFF7E8F838B14FF08052094B8A
:101D30001A60BFF34F8FBFF36F8FFEF711FD0120C5
:101D400038BD04F11000FFF717FC04F12400FFF781
:101D500013FCF2E704ED00E0F8B50D461746064621
:101D600048B94FF0A00383F31188BFF36F8FBFF31F
:101D70004F8F00BFFDE748435030FFF757FE044642
:101D800048B155B92060E663256401212046FFF77C
:101D9000A3FF84F84C702046F8BD00F150030360A7
:101DA000F1E700002DE9FF47894601921F460446EE
:101DB00048B94FF0A00383F31188BFF36F8FBFF3CF
:101DC0004F8F00BFFDE7002940F08A80036C002B95
:101DD00000F086804FF0A00383F31188BFF36F8F6C
:101DE000BFF34F8F00BFFDE7019E002E00F0838000
:101DF0004FF0A00383F31188BFF36F8FBFF34F8FB2
:101E000000BFFDE7019D1DB9FEF7AAFC002058E0C8
:101E100016B902A8FFF7D0F8FEF7A2FCFEF7B8FE4D
:101E2000FEF78EFC94F84430FF2B08BF84F8448002
:101E300094F84530FF2B08BF84F84580FEF790FCEE
:101E400001A902A8FFF7C4F8002843D1FEF778FCE7
:101E5000A66BE56BFEF784FCAE4235D1019904F127
:101E60001000FFF70FF82046FFF7FEFEFEF730FFE9
:101E700038B94FF08053CAF80030BFF34F8FBFF32B
:101E80006F8F0126FEF75CFCA26BE36B9A4201D3D5
:101E9000022FB7D13A4649462046FFF79EFE636AB5
:101EA0001BB104F12400FFF727F838B14FF080523E
:101EB000184B1A60BFF34F8FBFF36F8FFEF750FCC4
:101EC000012004B0BDE8F0872046FFF7CDFEFEF705
:101ED000FFFED6E72046FFF7C7FEFEF7F9FE95E7BF
:101EE000022F02D1E36B012B0AD1FFF7CBF80028B8
:101EF0003FF47AAF00264FF00008DFF818A0C1E7E2
:101F00004FF0A00383F31188BFF36F8FBFF34F8FA0
:101F100000BFFDE704ED00E010B5024600210120FE
:101F2000FFF71AFF044638B1002383600360C360E3
:101F30001A461946FFF736FF204610BD2DE9F84333
:101F4000884691461F46044648B94FF0A00383F3E4
:101F50001188BFF36F8FBFF34F8F00BFFDE711BB39
:101F6000036C03B34FF0A00383F31188BFF36F8FAB
:101F7000BFF34F8F00BFFDE704F12400FEF7BCFF65
:101F8000002834D0B9F1000F31D00120C9F8000089
:101F900086F31188BDE8F88301356DB284F84550A9
:101FA00025E00020F4E7022F02D1E36B012B20D1C2
:101FB000FEF738FCEFF311864FF0A00383F311888E
:101FC000BFF36F8FBFF34F8FA26BE36B9A4201D3C6
:101FD000022FE6D194F845503A466DB2414620466C
:101FE000FFF7FBFD6B1CD7D1636A002BC4D1012026
:101FF000CEE74FF0A00383F31188BFF36F8FBFF3D9
:102000004F8F00BFFDE770B50D46044648B94FF04D
:10201000A00383F31188BFF36F8FBFF34F8F00BF0F
:10202000FDE7036C4BB14FF0A00383F31188BFF3BE
:102030006F8FBFF34F8F00BFFDE703680BB9836855
:1020400073BBFEF7EFFBEFF311864FF0A00383F3B2
:102050001188BFF36F8FBFF34F8FA26BE36B9A4270
:1020600001D3002014E094F8453001325BB2A26342
:102070005A1C10D1636A0BB9012009E004F1240055
:10208000FEF73AFF0028F7D0002DF5D00120286098
:1020900086F3118870BD01335BB284F84530EBE7FD
:1020A0004FF0A00383F31188BFF36F8FBFF34F8FFF
:1020B00000BFFDE72DE9F04385B088460192044654
:1020C00048B94FF0A00383F31188BFF36F8FBFF3BC
:1020D0004F8F00BFFDE7002940F08880036C002B84
:1020E00000F084804FF0A00383F31188BFF36F8F5B
:1020F000BFF34F8F00BFFDE7019E002E7BD04FF056
:10210000A00383F31188BFF36F8FBFF34F8F00BF1E
:10211000FDE7019D1DB9FEF723FB002052E016B933
:1021200002A8FEF749FFFEF71BFBFEF731FDFEF7A5
:1021300007FB94F84430FF2B08BF84F8447094F8F0
:102140004530FF2B08BF84F84570FEF709FB01A955
:1021500002A8FEF73DFF00283DD12046FFF732FDE3
:1021600098B3019904F12400FEF78CFE2046FFF796
:102170007BFDFEF7ADFD38B94FF08053C9F8003054
:10218000BFF34F8FBFF36F8F0126FEF7D9FAA56B10
:10219000002DBED041462046013DFFF751FDA5630D
:1021A000236963B104F11000FEF7A6FE38B14FF0C9
:1021B0008052134B1A60BFF34F8FBFF36F8FFEF740
:1021C000CFFA012005B0BDE8F0832046FFF74CFDB3
:1021D000FEF77EFDD8E72046FFF746FDFEF778FDC7
:1021E0002046FFF7EFFC0028CED096E7FEF74AFF27
:1021F000002881D000260027DFF80490C5E700BF43
:1022000004ED00E02DE9FF410446019148B94FF08B
:10221000A00383F31188BFF36F8FBFF34F8F00BF0D
:10222000FDE7056C4DB14FF0A00383F31188BFF3B8
:102230006F8FBFF34F8F00BFFDE7FEF723FF18B985
:10224000019D002D40F096802E460027DFF8388152
:10225000FEF776FAA36BE3B1013BA363236813B9DE
:10226000FFF720F8A060236963B104F11000FEF7C6
:1022700043FE38B14FF08052434B1A60BFF34F8F8B
:10228000BFF36F8FFEF76CFA0125284604B0BDE856
:10229000F081019B6BB94DB14FF0A00383F311881E
:1022A000BFF36F8FBFF34F8F00BFFDE7FEF758FA04
:1022B000EBE716B902A8FEF77FFEFEF751FAFEF72C
:1022C00067FCFEF73DFA94F84430FF2B08BF84F812
:1022D000447094F84530FF2B08BF84F84570FEF732
:1022E0003FFA01A902A8FEF773FE40BB2046FFF7A4
:1022F00069FCF0B123683BB9FEF722FAA068FEF74B
:10230000D1FE0546FEF72CFA019904F12400FEF7F0
:10231000B9FD2046FFF7A8FCFEF7DAFC38B94FF00C
:102320008053C8F80030BFF34F8FBFF36F8F012683
:102330008EE72046FFF798FCFEF7CAFCF7E7204639
:10234000FFF792FCFEF7C4FC2046FFF73BFC002899
:10235000EDD0002D99D0FEF7F3F9616A19B1236B26
:102360001968C1F10301A068FEF742FF0025FEF7DE
:10237000F7F98AE74FF0A00383F31188BFF36F8F5B
:10238000BFF34F8F00BFFDE704ED00E0002330B541
:10239000064A52F83350DC0025B942F83310224483
:1023A000506030BD0133082BF3D130BD382A0820EE
:1023B00070B504460D461646FEF7C2F994F844304F
:1023C000FF2B04BF002384F8443094F84530FF2BE2
:1023D00004BF002384F84530FEF7C2F9A36B2BB984
:1023E0003246294604F12400FEF766FD2046BDE88A
:1023F0007040FFF739BC000010B5094C094A0121B3
:10240000002001F0C9FA237833B905F069F904F026
:10241000A1FD0123237010BDBDE8104001F0C0BC38
:102420000F2B0820F5FF0A00002370B5064E95B269
:102430009CB2A54202D80023835470BDCC18345DF1
:10244000C4540133F4E700BF342C0820F0B527480A
:10245000B7B00AF075F80223C5B201AE2A46244986
:1024600030468DF8103009F0A5FF9DF804309DF836
:1024700005005A1C8DF8113000239DF80610024407
:102480008DF8120019488DF813100A44D9B28D4204
:1024900024D892B21749304609F08CFF0023ACB221
:1024A000271DFA1836A992B20A44F15C0133042BB5
:1024B00002F8C81CF5D1032236AB234403F8C02C24
:1024C00036AB1C440A2304F8BF3C0B4B05F10A024F
:1024D000186804A9C368984737B0F0BD195C04AC0C
:1024E0001C4421710A440133D0E700BF3A2E082072
:1024F000EBFF0A00F0FF0A00D82E082007B5435C66
:10250000013189B28DF80430435C0021102201A80A
:102510008DF805308DF806100AF006F9C0B203B048
:102520005DF804FB63232DE9F347ADF80030282361
:10253000ADF80230B323044600F14606224F234D86
:10254000DFF88C80ADF80430B6B24FF0000904EB30
:102550008901042289B23846FFF766FF1022002164
:1025600038460AF0E1F81022A88100213846B5F873
:1025700004A00AF0D9F83DF8193009EB8A0A09F1EC
:10258000010905EB4A0A5840B9F1030FAAF81400F3
:10259000DDD104F10C0189B24046B5F80490FFF793
:1025A000ADFFAB882A8801339BB205EBC9090E3415
:1025B0009A42A9F81A00A4B2AB8001D9B442C4D19E
:1025C00002B0BDE8F08700BF342E082094800720B9
:1025D000342C082010B5084C4FF4807204F1080127
:1025E000201D00F0FDFC636803F580736360002329
:1025F000A4F8183110BD00BF102B08200A4B0B4A5D
:10260000B3F8101102EBC102D18A128BC3F80C117E
:102610000A440132C3F81421012283F81221002256
:10262000A3F81821704700BF102B082094800720C2
:102630000A4B10B55968081FFC3150F8042F0433B9
:10264000C2F307241A715C718842C2F30744C2F3D3
:1026500007629C71DA71F0D110BD00BF102B082009
:102660002DE9F04F04460E46B24FB34DDFF8F88225
:102670008FB03B88B3EB440F0BDC6B78013B042B32
:1026800000F25581DFE813F00F007800B800CC00AD
:10269000D20031464046FFF731FF0236285501345B
:1026A000A4B2B6B2E5E70DF1170000F09FFC0028D8
:1026B00000F037819DF81700A04C002856D0A04AA2
:1026C0000121002001F068F90023236036238DF8F2
:1026D000183030238DF819303A238DF81A30002342
:1026E00006A998488DF81B3009F0ACFE964906A85B
:1026F0008B784A78C9780091944909F05BFE06A965
:10270000904809F09FFEFDF721FE9149024606A878
:1027100009F050FE06A98B4809F094FEFDF718FE5B
:102720008B49024606A809F045FE06A9854809F02E
:1027300089FEFDF70FFE8649024606A809F03AFE1B
:1027400006A9804809F07EFE00F078FC054600F0FE
:102750007DFC23687F4900932A46034606A809F0BA
:1027600029FE06A9774809F06DFE88E07A4A012122
:1027700001F012F90123A8E7A9782B79774CEE78BC
:102780006D7981F0590283F01A00A274E0746A40F6
:10279000704002EB002281F0350183F0CD0303EBA2
:1027A0000123A260142104226D482382FFF73CFE1E
:1027B000102200216A4809F0B7FF238A04225840FA
:1027C00060801A216648FFF72FFE0021102264481E
:1027D00009F0AAFF238A58404FF6FF73A081E381D6
:1027E00000245648A0F81041FFF708FF5D4980F823
:1027F0001A41A0F81C41B5E7042208215848FFF708
:1028000013FE10220021564809F08EFF0022534B80
:10281000554918800C209A80FFF784FE5349A1E7A0
:1028200051490820FFF77EFE51499BE7434C94F83D
:102830001A71002F79D00025484EA846B346A4F857
:102840001051B4F8102133889A421BD3B368ADB24B
:102850009D4268D1207800F001FC002861D04549F4
:10286000384809F0EFFD444B1C68FEF799F90A233C
:1028700002460093012100232046FEF757FF0FB0C8
:10288000BDE8F08F4FF00009FFF7B8FEB4F8102153
:1028900006EBC203DB8A06EBC202928AA4F80A3175
:1028A00003F47F4303EB02136360B4F810310BEBC6
:1028B000C302128B0132914503D30133A4F81031C6
:1028C000BFE7FFF7B5FE6368B4F80AE103F580736C
:1028D00063601EF0FF03A4F8188118BFA4F8183134
:1028E000D4F81431B4F818C10393002318469AB2EF
:1028F00002EB0E01624492B2FF2A89B209EB030A8D
:1029000004D908B1A4F80A11D146CEE7039A0133DD
:102910009142F6D20CEB03022244D2793846154498
:10292000E5E716491EE716491CE716491AE7164956
:1029300018E700BF302C0820782A0820102B082028
:1029400060FF0A003A2E082018FE0A0082FF0A00E3
:102950008AFF0A008EFF0A0071FF0A009480072098
:10296000342E08209CFF0A00342C08209FFF0A0008
:10297000A2FF0A00A5FF0A00D02E082099FF0A0036
:10298000A8FF0A00ABFF0A00AEFF0A000149024897
:1029900009F058BDAEFF0A003A2E082010B5244AAF
:1029A0009178D378234A03EB012392F812119BB25A
:1029B000A2F80831144669B1B2F810111E4A02EBB0
:1029C000C102928A9A4230D11C491D48BDE810408C
:1029D00009F038BDB2F818314BB1FF20DA1D22449E
:1029E000FF2B18D909B1A4F81831FFF7F3FDB4F89B
:1029F00010311148013302889BB29A42A4F8103179
:102A00000FD0FFF7FBFDB4F81031B4F8082100EB4C
:102A1000C300838AD6E7013302F8010F9BB201217C
:102A2000DEE7012384F81A31CEE70649CDE700BF7F
:102A3000782A0820102B082094800720A5FF0A0080
:102A40003A2E082028FF0A0000210422F0B56C4C21
:102A50006C48B4F81E71B4F81C3185B0BA42C0F0AD
:102A6000898009B1A4F81C31674DEB19EA5D5B78E8
:102A700003EB0223B4F81C219BB29A4240F0B980C8
:102A8000AA78EB7803EB022394F812219BB2A4F806
:102A90000A3122B35D4EB4F8102106EBC202D28A8D
:102AA0009A426FD15A4A0121002000F075FF00239D
:102AB00084F81231B4F81031B4F80A2106EBC306D9
:102AC000B18A02F47F4303EB011312F0FF0F63603E
:102AD00005D0FFF7ADFD94F80A31A4F818310426AB
:102AE000BE425BD1842E1AD0D4F80C21D4F8143114
:102AF0009A426FD1B4F818318BB1464A01210020B7
:102B000000F04AFF0021FF20B4F81831DA1D2244FA
:102B1000FF2B59D909B1A4F81831FFF75BFDD4F8A0
:102B20000C21D4F81431394D9A4214D13A4A01217A
:102B3000002000F031FFB4F810312A8801339BB235
:102B40009A42A4F8103150D0344A0121002000F0FC
:102B500023FFFFF753FD3249324809F073FCEA893D
:102B6000314901A809F026FC01A92E4809F06AFCA8
:102B7000002011E010F8011F01320B449BB292B209
:102B800001216BE7294A0121002000F005FF2849B7
:102B9000244809F057FC072005B0F0BDB4F818210F
:102BA000A95D531C9BB22244B3F5807FA4F8183171
:102BB000117201D1FFF70EFDD4F80C31013601334B
:102BC000C4F80C31B6B28BE7013302F8010F9BB2A7
:102BD00001219DE7174A0121002000F0DDFE164982
:102BE000104809F02FFC0820D6E7012384F81A3199
:102BF000B1E712490B4809F025FC0420CCE700BFDF
:102C0000102B08207B2A0820782A0820948007208F
:102C10002BFF0A003CFF0A004DFF0A0052FF0A008A
:102C200057FF0A003A2E0820EBFF0A0030FF0A0087
:102C300039FF0A0041FF0A004AFF0A005AFF0A0052
:102C400008B5064BB3F818310BB1FFF7C3FCBDE86C
:102C500008400349034809F0F5BB00BF102B0820CA
:102C60005DFF0A003A2E08202DE9F047404C414B09
:102C70006178414E08291B8822D10222073B93FB31
:102C8000F2F33E480322A6F81E31FFF7CDFB3C4B82
:102C90001022DD8900210135ADB23848DD8109F00F
:102CA00043FDC0F30B00854208D196F81A312BB3CF
:102CB00034493548BDE8F04709F0C4BB3349F8E76B
:102CC0000222043B93FBF2F34FF00808A6F81E31F2
:102CD0000025DFF8C4902A4FB6F81E311FFA85FA96
:102CE00008EB4A01534589B20BD86378053B042BA6
:102CF00032D8DFE803F0212531292D004FF00B08F1
:102D0000E6E74846FFF7FAFB0AF0010ABA449AF8E8
:102D100012306B405840C0B200F00F023A4407EB4B
:102D2000101092F8141190F81421ABB2234402EB66
:102D300001129A700135CFE7BDE8F047FFF726BED4
:102D4000BDE8F047FFF72ABEBDE8F047FFF77CBEBD
:102D5000BDE8F047FFF774BF0D490B4809F072FB5F
:102D6000BDE8F0470B4A0121002000F015BE00BF6E
:102D7000782A0820302C0820102B0820342E082018
:102D8000948007200CFF0A003A2E08200FFF0A004B
:102D9000AEFF0A0012FF0A00342C082010B50421EF
:102DA0001148FFF7ABFB114C062120700E48FFF7CE
:102DB000A5FB0422607011460D48FFF735FB237810
:102DC000202B06D0262B0CD00A49094809F03AFBE3
:102DD00003E008210220FFF743FCBDE81040FFF7A5
:102DE00035BBFFF741FFF8E7342C0820782A08208C
:102DF0003A2E0820AEFF0A002DE9F34700242746AB
:102E0000A0463E4E002000F0E1FE002003F0BAFE96
:102E1000012003F0B7FE00F0A5FD394B0122186830
:102E20000DF107010A23806902F05FFC002859D0E8
:102E30003378022B18BF00279DF80730B7F5007FC5
:102E4000F35528BF0027F25D7B1C0A2A9BB248D1AC
:102E500000272C4A13803378022B40D1294C238839
:102E60009BB2013BF35C0A2B39D103220121264896
:102E7000757896F802A096F80390FFF7D5FA00212E
:102E80001022214809F050FC204B81B21980238880
:102E9000EDB29BB20A3B99425FFA8AFA5FFA89F96E
:102EA00027D100226C1C54444C4490B2031D814233
:102EB0009BB21AD8043189B20B1DF35C032B18D1D5
:102EC00004221148FFF7B0FA102200210E4809F041
:102ED0002BFC4440A4B274B9FFF760FF92E70124D1
:102EE00090E71F46002C8DD0B5E7F35C01321C44FF
:102EF000DBE786F80080002484E700BF342C08203C
:102F0000D82E0820322C0820342E0820302C0820FF
:102F10001F4B37B51C78002C37D101251D4A294697
:102F200020461D7000F038FD00F048F81A4B1B4891
:102F30001D701B4B4E2218604FF4E13143699847D6
:102F4000032221462846FEF707FF20B123462246EA
:102F50002146FEF727FF134B4FF47A7100930122AD
:102F600000231148FEF7BCFB104B0146186010B956
:102F70000F4A00F011FD012200230E498DE80C00DC
:102F80000D484FF41672FDF7DFFC03B030BD00BFF3
:102F90000E2B0820B1FF0A00D42E0820D481072070
:102FA000D82E0820F9230A00C0FF0A00D02E0820DE
:102FB000C8FF0A00DFFF0A00F92D0A0010B506213C
:102FC000002003F0EDFB034630B1BDE81040034A9A
:102FD0000121002000F0E0BC10BD00BFFEFF0A0090
:102FE00001234FF48072006803F0EEBB70B500223D
:102FF00004460D210E4803F089FB0646A8B90C488B
:1030000003F06FFB10F0040507D00A4A0121304697
:1030100000F0C2FC0120207070BD074A0121284643
:1030200000F0BAFC2570012070BD002070BD00BF0B
:10303000000A0E4060FF0A0071FF0A00024B186888
:10304000C0F30750704700BF40090E40024B18689C
:10305000C0F30320704700BF40090E4008B50222AC
:1030600038B10B21044803F051FBB0FA80F040095D
:1030700008BD0C21F6E700BF000A0E4000230360E4
:10308000037143718371C3718360C36003614361E2
:103090008361C3617047000008B5064A0121002022
:1030A00000F07AFCBDE80840034A0121002000F04E
:1030B00073BC00BFA0000B00B6000B0070B5304819
:1030C00092B003F0EFF810F0FF0F53D000242C4E15
:1030D000E5B22946304603F0EDF803024CD5294C01
:1030E000A06021462648256003F035F9E36912A95E
:1030F0000293A369082241F8443D05A809F078F835
:103100000022236920460393A3798DF81D208DF8B2
:103110001C3063799B1A18BF01238DF81030FFF71C
:10312000ADFF194919480B68009201330B60134633
:1031300003991D2B50F823201AD0914203F101036B
:10314000F7D10023142203A909A88DF8203009F033
:103150004FF8694608A800F0CDFA009B53B14FF034
:1031600080520B4B1A60BFF34F8FBFF36F8F01E09C
:103170009142E6D012B070BD0134082CA8D1F9E715
:1031800000400B40E02E0820703008207C300820E2
:1031900004ED00E070B5304892B003F083F810F011
:1031A000FF0F53D000242C4EE5B22946304603F0E1
:1031B00081F803024CD5294CA060214626482560A1
:1031C00003F0C9F8E36912A90293A369082241F840
:1031D000443D05A809F00CF8236920460393A37920
:1031E0008DF81C3001238DF81D306379003318BF32
:1031F00001238DF81030FFF741FF002318491948CB
:103200004A68009301324A6003991A18742B926F2E
:103210001AD0914203F10403F7D10123142203A928
:1032200009A88DF8203008F0E3FF694608A800F0EF
:1032300061FA009B53B14FF080520B4B1A60BFF301
:103240004F8FBFF36F8F01E09142E6D012B070BD97
:103250000134082CA8D1F9E700800B40082F082082
:10326000703008207C30082004ED00E02DE9F347A1
:103270000446394D407C394E15F800E081000A18AB
:10328000724406EB4213A2689A61E268DA6122791D
:10329000A2B101225A7122681A610B187344227C70
:1032A00006EB43139A7178B1012804D02C4A01210E
:1032B000002000F071FBDFF8B48007E05A71276846
:1032C000284A02EA8742E7E7DFF8A4800C27DFF804
:1032D000A490637C404603EB8301EB5C194406EB4E
:1032E000411103F072F801288246637C14D0082152
:1032F000EB5C40469940C9B202F0D6FF0522617CE2
:103300006B5C0133DBB2B3FBF2F202EB82029B1A7D
:103310006B5402B0BDE8F087EA5C51460092002091
:103320004A4600F039FB013F0520FDF749FD17F043
:10333000FF07CED151460C4A384600F02DFB4046DF
:10334000637C03EB8301EB5C194406EB411102B093
:10335000BDE8F04702F0BFBFDC2E0820302F082068
:1033600064000B000000FC1F95000B0000800B4068
:1033700000400B407F000B00014803F067BB00BF1B
:10338000002F0820014803F053BB00BF002F082086
:103390002DE9F041044638211A4803F047FBFFF7B6
:1033A000F1FF2B2002F050FF22461749174803F087
:1033B00043F820B1164A0121002000F0EDFA032560
:1033C0004FF0FF31114802F06BFF104803F023F873
:1033D000A84600260F4C0D4F2046FFF74FFEEB008E
:1033E000093B256084F80480E3716671E66021463C
:1033F0003846013502F07BFF082D04F12004EBD1A3
:10340000BDE8F081002F082000BD010500400B4001
:103410001D000B00302F0820014803F009BB00BF3E
:10342000282F08202DE9F041044636211A4803F0E0
:10343000FDFAFFF7F1FF2C2002F006FF22461749A4
:10344000174802F0F9FF20B1164A0121002000F0D0
:10345000A3FA03254FF0FF31114802F021FF104875
:1034600002F0D9FFA84600260F4C0D4F2046FFF76B
:1034700005FEEB00093B256084F80480E37166716A
:10348000E66021463846013502F031FF082D04F18F
:103490002004EBD1BDE8F081282F082000BD0105F4
:1034A00000800B403D000B00D02F08200D4938B59F
:1034B0000846FFF7E3FD002301250B4C0B60CB60B2
:1034C0000A4B20460B610D7102F011FF2946204680
:1034D00002F0E4FE4FF40062054B5A60F02283F8DC
:1034E0002B2338BDE02E082000400B400000FC1FBD
:1034F00000E100E00D4938B50846FFF7BFFD0023A5
:1035000001250B4C0B60CB600A4B20460B610D7103
:1035100002F0EDFE2946204602F0C0FE4FF4805234
:10352000054B5A60F02283F82C2338BD082F082061
:1035300000800B400000FC1F00E100E007B5074BD6
:103540000122009342F2107100230548FEF7C8F8EB
:10355000044B186003B05DF804FB00BF99300A000B
:103560005D000B00783008200023011D02481A4638
:103570000068FEF717BC00BF703108207FB514202B
:10358000FDF71EFC0F4D104C4FF0FF3201A92868CB
:10359000FEF790FD48B19DF81530012B05D801A824
:1035A000FFF764FE1420FDF70BFC0020FDF754FD2F
:1035B0006328E9D82346054A0121002000F0ECF9F0
:1035C000E2E700BF70310820CF000B00F7000B00CE
:1035D00078220D4B10B502FB0032002352F8234035
:1035E000980044B1A4EB010CDCF1000040EB0C00AE
:1035F0001D2B03D110BD1150012010BD8C4203F1D1
:103600000103EBD1F8E700BF7C300820F7B51A4E74
:10361000074634786CBB01252346019400954FF48E
:10362000967216491648FDF78FF92246142110208C
:10363000FEF792FB134B144A18602946204600F00F
:10364000ABF9FFF77BFF3868FFF7A2FEB868FFF71A
:10365000E9FEFFF72BFFFFF74DFF0C490220357005
:1036600000F040F80320094903B0BDE8F04000F045
:1036700039B803B0F0BD00BF6C310820DE000B008C
:103680007D350A0070310820E7000B0069350A001B
:10369000022310B58AB00AAC04F8283D0146142272
:1036A00001A808F0A5FD204600F038F80AB010BDCA
:1036B00070B50E460446236823B92660012070BD0C
:1036C0002C46F8E7B342F9D06568002DF8D10821FF
:1036D000012008F08BFA08B14560056060600028A1
:1036E000E9D170BD024B03EBC000FFF7E1BF00BFA3
:1036F000403208200A460146064808B50068002303
:10370000FEF71CFC014620B9BDE80840024A00F063
:1037100043B908BDE83308202E010B0001460348D9
:10372000002305220068FEF73DBB00BFE8330820F8
:1037300010B54FF461628AB0044600F10801D1E986
:103740000001002308F0C6F813430AD128222146BD
:10375000684608F04DFD092368468DF80030FFF7F4
:10376000DDFF0AB010BD10B53C228AB0044600F15E
:103770000801D1E90001002308F0ACF813430AD195
:1037800028222146684608F033FD082368468DF854
:103790000030FFF7C3FF0AB010BD000010B5134C96
:1037A0008AB023785A1C132B227017D9104B114A58
:1037B0000421002000F0F0F807230F498DF80030B5
:1037C000D1E90023CDE90223013243F10003684629
:1037D000C1E90023FFF7A2FF0023237006236846F8
:1037E0008DF80030FFF79AFF0AB010BDD9330820DA
:1037F0000B010B00D9FD0A00E033082038B503782F
:103800000546322B12D80A4C04EBC30423683BB99B
:103810002978084A52F82130013342F8213038BD66
:10382000284698476468002CF0D1F1E738BD00BF06
:10383000403208207431082000B50C4D0C4C8BB080
:103840004FF4FA7269462868FEF734FC10B16846F6
:10385000FFF7D4FF0020FDF7FFFB6328F0D82346D5
:10386000044A0121002000F097F8E9E7E833082036
:1038700018010B00F7000B00F7B5214E214B224A2F
:103880000121002000F088F83478002C35D1224640
:1038900028213620FEF760FA01251C4B4FF41672E2
:1038A00018601B492346019400951A48FDF74CF80F
:1038B0004FF40763184A009302214FF4CC7303209E
:1038C00000F06AF8154B2A4632210093144823462B
:1038D000FDF706FF0746FDF763F923460246294632
:1038E00000943846FDF722FF0E490F48FFF7E0FE2F
:1038F0000E490F48FFF7DCFE357003B0F0BD00BF86
:10390000D833082023010B00D9FD0A00E833082032
:103910003F010B0039380A004A010B009D370A00AD
:1039200081010B0067370A007832082031370A001E
:103930008032082010B54FF40041074802F054FED1
:10394000064C83B21A462046054902F061FE204625
:10395000BDE8104002F068BE00093D00501A0E405C
:1039600000600010014802F05FBE00BF501A0E4018
:103970004FF06043013810F8012F02B97047D3F8B7
:10398000801EC907F7D5D3F8001EC907F3D51968FB
:103990000029FCD01A70EEE70CB437B5184B04467A
:1039A0001B78CBB94FF06045D5F8003EC340DB072C
:1039B00012D5144B1B5C8B420ED307AB6421069AC5
:1039C000114801930AF07EF901231049A340A40095
:1039D0002C4411F8012F2AB9002003B0BDE8304073
:1039E00002B07047D5F8800EC007F2D5D5F8000EAA
:1039F0000342EED020680028FCD02270E9E700BF27
:103A00005A340820F0330820F6330820F533082014
:103A100070B5144686B004AA0121204601F03AFC94
:103A200005AA05460221204601F034FC0023049A31
:103A30000646AB54059A31498354284608F0E0FC09
:103A4000002834D02E49284608F0DAFC88B32D49E6
:103A5000284608F0D5FC70B32B49284608F0D0FC66
:103A600058B32A49284608F0CBFC40B328492846D9
:103A700008F0C6FC002814BF06240424254930465B
:103A800008F0BEFCE8B90120062C18BF224B234ADF
:103A900018BF1855012102902B468DE850000020D8
:103AA000FFF77AFF00201E4B187006B070BD044669
:103AB000E4E70124E2E70224E0E70324DEE705244B
:103AC000DCE71849304608F09BFC90B116493046B7
:103AD00008F096FC0028D7D01449304608F090FC36
:103AE00048B11349304608F08BFC0028CBD10420A4
:103AF000CAE70220C8E70320C6E700BF93010B0016
:103B0000D1150B009B010B00A0010B00A6010B00BF
:103B1000AA010B00B3010B00F0330820D3010B0006
:103B20005A340820BA010B00BF010B00C5010B007D
:103B3000CD010B0002220A4B10B501241A70042299
:103B400008485C70DC709A701C715C7101F076FB47
:103B50002146BDE81040044B044A0020FFF71CBF7B
:103B6000F03308205C020B0087010B00D9FD0A002E
:103B70004FF0FF304FF0FF31014BC3E900017047B8
:103B800070340820012303FA00F0054BD3E9002329
:103B9000024003EAE073134314BF01200020704782
:103BA00070340820012303FA00F0C0430449D1E92E
:103BB0000023024003EAE073C1E90023704700BF1D
:103BC00070340820004870476034082030B50C4C31
:103BD0008BB022780546824203D11220FFF7D2FF34
:103BE00058B11220FFF7DEFF1223684625708DF8CA
:103BF00000308DF80150FFF791FD0BB030BD00BFD4
:103C00006034082010B58CB003F09AF88DF80A00E3
:103C100003F00CFA8DF80C0003F06EFA8DF80B002F
:103C200003F0EAFBADF80E0003F030F81C238DF82A
:103C30000D000CA800F8283DFFF770FD064B1C682E
:103C4000FCF7AEFF0A230246009301210023204621
:103C5000FDF76CFD0CB010BD78340820FFF7D2BF23
:103C600073B51A4D1A4A01210020FFF795FE03F0A3
:103C700013F803F07DF903F009FA03F00DFB03F0EC
:103C8000C1FB2C7804BB134B012200936421234613
:103C90001148FDF725FD114E114B30600122FA212C
:103CA000009310482346FDF71BFD0F4B3668186044
:103CB000FCF776FF0A230246009301212346304693
:103CC000FDF734FD01232B7002B070BD6C34082069
:103CD0006C020B00713B0A0081010B005C34082070
:103CE0005D3C0A007B020B0078340820024B034A3B
:103CF00001210020FFF750BE81020B00D9FD0A0010
:103D000013B5214802F02CFCC207044618D5002345
:103D10000DF103011C48019302F02BFC1B4801AB81
:103D200001220DF10301806901F091FC019B3BB17F
:103D30004FF08052164B1A60BFF34F8FBFF36F8F57
:103D4000A3071AD50022114802AB43F8042D0DF148
:103D500003010122C06901F047FD80B1019B3BB125
:103D60004FF080520A4B1A60BFF34F8FBFF36F8F33
:103D70009DF80310044802F0F5FB02B010BD0221CB
:103D8000014802F0EBFBF8E700080E40D481072061
:103D900004ED00E00121014802F0DEBB00080E4006
:103DA000BFF34F8F0449054BCA6802F4E062134326
:103DB000CB60BFF34F8FFEE700ED00E00400FA0593
:103DC0000221014802F0C8BB00080E407FB5274B16
:103DD00004460E4615460121254A0020FFF7DCFD6A
:103DE000244B1A782AB124490720FFF77BFC04B042
:103DF00070BD0121A26919701AB9602001F04AFB57
:103E0000A061E2692AB901214FF4807001F042FB00
:103E1000E06110220021684608F060FA174B452D3A
:103E20008DE848001DD04F2D1DD04FF40063029344
:103E30004FF48073124C0820236002F005FA6946A3
:103E4000104802F069FB0F4802F083FB0D4802F0B6
:103E50007DFB01210B4802F07FFBF02384F808333F
:103E6000C5E70023E3E74FF40073E0E793020B009C
:103E7000D9FD0A007C340820ED3C0A0000BD010594
:103E800000E100E000080E40024B034A012100203F
:103E9000FFF782BDA4020B00D4020B0070B54448AA
:103EA0008CB002F0BCF8434B04461B78002B35D095
:103EB000C60716D5002301A93D48029302F0BEF8BB
:103EC0003D4802AB012201A9806901F0C0FB029BC1
:103ED0003BB14FF08052394B1A60BFF34F8FBFF3A5
:103EE0006F8FA5071AD5002233480CAB43F8282D55
:103EF00001A90122C06901F077FC002852D0029B81
:103F00003BB14FF080522D4B1A60BFF34F8FBFF380
:103F10006F8F9DF80410264802F087F8284B1B7815
:103F2000002B3DD0A00405D50222264B20481A7054
:103F300002F077F861040DD5224D1D482E7802F06D
:103F400061F8214B43F826002B78194801332B7078
:103F500002F067F8E2070CD51A4D2B78062B08D82B
:103F60001949134801EB830102F068F82B780133FB
:103F70002B70230414D5002301930F230CAC04F8F9
:103F8000283D2022104903A808F032F9204601A953
:103F9000FFF7B0FB02220B4B05481A7002F041F804
:103FA0000CB070BD0221024802F037F8B6E700BF3E
:103FB000008009407E340820F481072004ED00E0F1
:103FC0007D3408207F340820B88107200121014872
:103FD00002F021B8008009400221014802F01BB81C
:103FE0000080094070B52A4B15461A7886B0044601
:103FF0000E4612B9274A12782AB127490720FFF73F
:1040000071FB06B070BD0121826919701AB9602078
:1040100001F040FAA061E2692AB901214FF48070F1
:1040200001F038FAE0611D4801F07CFF03211B48D4
:1040300001F0F3FFC023452D0096019304D04F2DCE
:1040400023D04FF4006300E00023029300234FF4D9
:104050000035134C112003930493059302F0F4F8F8
:10406000104A69460D4801F071FF0C48256001F0C7
:10407000CFFF0A4801F0C9FF0121084801F0CBFF3A
:10408000F02384F811332560BBE74FF40073DCE7BD
:104090007E3408207D340820893E0A0000800940D3
:1040A00000E100E000BD0105F8B52C4B04461A788C
:1040B00012B92B4A16782EB1BDE8F84029490720DD
:1040C000FFF710BB0125284815701E7001F02AFF6C
:1040D0000321254801F0A1FF112002F0B5F8224884
:1040E00001F08BFF2146214A1F4801F04DFF044695
:1040F00030B1294630461E4ABDE8F840FFF74CBCB7
:104100004FF40037184801F078FF174801F055FFC9
:10411000154801F057FF2146134801F058FF21468A
:10412000114801F05BFF134E04210F4801F05DFFC1
:1041300029460D4801F03BFF0B48376001F068FF4E
:104140004EF20101084801F066FFF0230A4A86F8A2
:104150001133294637602046CEE700BF7E34082061
:104160007D340820893E0A000080094000BD010519
:10417000B8020B0000E100E0C6020B00024B034A4C
:1041800001210020FFF708BCF0020B00D4020B0055
:1041900013B5214801F043FFC207044618D5002398
:1041A0000DF103011C48019301F048FF1B4801ABCE
:1041B00001220DF10301806901F049FA019B3BB135
:1041C0004FF08052164B1A60BFF34F8FBFF36F8FC3
:1041D000A3071AD50022114802AB43F8042D0DF1B4
:1041E00003010122C06901F0FFFA80B1019B3BB1DC
:1041F0004FF080520A4B1A60BFF34F8FBFF36F8F9F
:104200009DF80310044801F010FF02B010BD022118
:10421000014801F002FFF8E700C0094014820720BE
:1042200004ED00E00121014801F0F5BE00C00940A5
:104230000221014801F0EFBE00C0094070B5294BD2
:1042400015461A7886B004460E462AB1264907203C
:10425000FFF748FA06B070BD0121826919701AB9DA
:10426000602001F017F9A061E2692AB901214FF439
:10427000807001F00FF9E0611C4801F053FE03214A
:104280001A4801F0CAFEC023452D0096019323D0A1
:104290004F2D23D04FF40063029300234FF4802569
:1042A000134C122003930493059301F0CDFF114AA0
:1042B00069460E4801F04AFE0C48256001F0A8FE50
:1042C0000A4801F0A2FE0121084801F0A4FEF023F3
:1042D00084F812332560BDE70023DDE74FF4007357
:1042E000DAE700BF803408207D410A0000C00940A1
:1042F00000E100E000BD0105024B034A012100205E
:10430000FFF74ABB04030B00D4020B0013B521488E
:1043100001F085FEC207044618D500230DF1030104
:104320001C48019301F08AFE1B4801AB01220DF1EC
:104330000301806901F08BF9019B3BB14FF0805282
:10434000164B1A60BFF34F8FBFF36F8FA3071AD5B9
:104350000022114802AB43F8042D0DF103010122A4
:10436000C06901F041FA80B1019B3BB14FF080522E
:104370000A4B1A60BFF34F8FBFF36F8F9DF8031086
:10438000044801F052FE02B010BD0221014801F0C4
:1043900044FEF8E700000A403482072004ED00E004
:1043A0000121014801F037BE00000A400221014806
:1043B00001F031BE00000A4070B5294B15461A784D
:1043C00086B004460E462AB126490720FFF78AF92F
:1043D00006B070BD0121826919701AB9602001F020
:1043E00059F8A061E2692AB901214FF4807001F007
:1043F00051F8E0611C4801F095FD03211A4801F0D5
:104400000CFEC023452D0096019323D04F2D23D0C1
:104410004FF40063029300234FF40025134C132044
:1044200003930493059301F00FFF114A69460E4868
:1044300001F08CFD0C48256001F0EAFD0A4801F00E
:10444000E4FD0121084801F0E6FDF02384F8133370
:104450002560BDE70023DDE74FF40073DAE700BF16
:1044600081340820F9420A0000000A4000E100E01F
:1044700000BD010513B50446C0698DF8071060B191
:104480000A2301220DF1070101F058F8636803B116
:1044900098479DF8070002B010BD4FF0FF30FAE7D3
:1044A00010B50A230446C06901F048F818B9054A56
:1044B0000121FFF771FA636813B1BDE81040184796
:1044C00010BD00BF18030B000EB433B5114C0546E8
:1044D0002068C8B16421FDF795FEA8B106AB059A26
:1044E0004FF480710C48019309F0ECFB0A4808F086
:1044F00027F8094902462846FFF7D2FF0023206823
:104500001A461946FDF74EFC002002B0BDE83040C7
:1045100003B07047843508208234082010B5044C5D
:1045200023681BB90120FDF7F7FC206010BD00BF18
:104530008435082010B5037886B0072B0FD10B4CBB
:1045400000F01CF823685A1C0BD1206018238DF84A
:104550000030236868468DF8083006F07DFB06B011
:1045600010BD9842F2D0FCF7A9F8EFE7548207207B
:1045700001490720FFF7B6B835450A00084BD86B4C
:10458000DB6B80F020001A06064BC0F34010DB6B9B
:1045900058BF40F002001B0258BF40F004007047B3
:1045A000000E0E4000100E4038B5054603F0EAFF3D
:1045B0000446042D0ED8DFE805F0110307090B00AF
:1045C000074B53F8240038BD064BFAE7064BF8E7D3
:1045D000064BF6E70021012003F06CF8044BF0E7EE
:1045E0000C040B0048050B0094050B0058040B004D
:1045F00074030B00F0B5284B85B00D46274A012106
:1046000006460020FFF7C8F903F0BCFF022D044660
:1046100040D8012D0FD0022D24D003F075FA204B85
:10462000014653F82430022200933046802305F0DF
:10463000EDFC05B0F0BD1B4B1878FFF7B5FF074642
:1046400003F058FA184B032153F824302A460293FA
:1046500000238DE80A00812303970146304605F0C8
:1046600017FDE6E70F4B1A78104B1B789A4216BFDE
:104670000F4B104D53F8205003F03CFA0E4B032221
:1046800053F824300395029300238DE80C00022395
:104690001A46E2E70020CCE756030B00D9FD0A00DA
:1046A00088070B008A350820FC040B008935082098
:1046B000E0050B00A4040B00C0030B002DE9FF4133
:1046C0001B4B1C4A07460D4600200121FFF764F9E9
:1046D00003F058FF044685B16C1EE4B22046FFF794
:1046E00063FF154B80461E78331B5E425E41052DED
:1046F00010D9002004B0BDE8F08103F005FA0F4B9B
:10470000014653F82430052200933846812305F0F2
:104710007DFCEFE703F0EEF90023014600930296DB
:10472000CDF8048023462A46384605F06EFDE1E7C1
:1047300036030B00D9FD0A008A350820FC040B0063
:1047400010B5144610B909B9012A20D0022C09D09D
:10475000812C17D1124804F08FFB8120BDE8104056
:1047600005F0C2B90F4B19780F4B1B788B42F4D070
:10477000012002F09FFF4FF47A70FCF721FB02F05A
:10478000E9FBEAE7094804F033FF8020E6E78020F0
:1047900005F0AAF9BDE81040044804F06DBB00BF65
:1047A000BD460A008A35082089350820F5450A00EB
:1047B000F7B503782A2B25D14778012F22D18578A8
:1047C000C678047905F0C0F9034668B9802C0BD18E
:1047D000124A3946FFF7E0F822463146284603B030
:1047E000BDE8F040FFF7ACBF1A060BD5802BF3D025
:1047F000812B09D00021019400962B46084A0846D7
:10480000FFF7CAF803B0F0BD064B1C7005F08AF93B
:10481000054803B0BDE8F04004F02EBBC2040B0015
:10482000D4040B008A350820F5450A00F8B5037852
:104830001D2B35D14678012E32D1304602F034FF9F
:10484000184C194D034620702870184807783FBB54
:104850000670042B16D8DFE803F02103070C1300C1
:10486000BDE8F84000F068BA0020BDE8F84000F06C
:104870003DB9002000F02CFCBDE8F84004F062BB1C
:104880000120F7E70A4A01210020FFF785F80021FF
:10489000012002F00FFF00232B7023700120E4E7BA
:1048A000F8BD00BF893508208A35082088350820E2
:1048B000A6040B000920704708B5002000F0A0FCFA
:1048C00005491D20FEF70EFF04F036FBBDE8084049
:1048D00002492A20FEF706BF2D480A00B1470A0008
:1048E0000378262B02BF4278014B1A70704700BF35
:1048F0009435082070470000064B187838B1064BF5
:10490000187820B1054B1878003018BF0120FFF748
:104910005DB900BF598207205A82072058820720BC
:104920000378002B49D1437D002B46D14268234BAD
:104930009A4242D1037B427B214902EB032292B28D
:10494000B2F5004F1F4B06D101221A700A700321E5
:10495000187802F037BEB2F5804F03D103221A70E7
:104960000122F3E7B2F5005F01D10B22F7E7B2F5C0
:10497000805F01D10522F2E7B2F5006F01D1072275
:10498000EDE7402A01D10922E9E7B2F5007F06D11F
:104990000D4A1278052A0CBF11221522DFE7B2F565
:1049A000807F01D11322DAE70A7822B11A78013226
:1049B0001A700022CAE71A70C9E77047004028063B
:1049C000953508208B3508209435082038B50278B5
:1049D0000346DAB9407DC8B959680D4A914215D1EC
:1049E00001211A7B5C7B0B4D04EB02243F2CC8BFDA
:1049F000084602F05FF92868001B07F0F3F828B1B9
:104A000019206043800802F02DFD2C6038BD00BFE6
:104A100000403904903508200346407D48B9596864
:104A2000044A914205D15B7B9B0658BF012002F0EE
:104A30003BBB7047004021020346407D48B959689E
:104A4000044A914205D1DB7C5B0758BF012002F08C
:104A50003DBC70470140210410B40378A3B9447DE4
:104A600094B94268094B9A420ED10121837B084ACE
:104A700013F04003074818BF147010BC12BF017038
:104A800003701170FFF738BF10BC7047004021065B
:104A9000588207208C3508200378132B0CD183789B
:104AA0001BB1012B05D0FFF727BF4278034B1A70CB
:104AB000F9E74278024BFAE7704700BF59820720B6
:104AC0005A82072038B50378072B0AD1054B1B788B
:104AD0003BB10024044D28191434FEF7D9FD8C2C69
:104AE000F9D138BD8C350820E4070B001FB503460B
:104AF0000446284A01210020FEF74EFF1022002123
:104B0000684607F0EBFB322368460093FEF77EFD14
:104B1000FEF732FC20490020FEF75AFD1F49002015
:104B2000FEF756FD1E490020FEF752FD1D490020EC
:104B3000FEF74EFD1C490020FEF74AFD1B490020F0
:104B4000FEF746FD1A491320FEF7CCFD1CB11949AA
:104B50000720FEF7C7FD18490020FEF7C3FD1749DF
:104B60000020FEF7BFFD16490020FEF7BBFD1549EA
:104B70000020FEF7B7FD14490020FEF7B3FD1349EE
:104B80002620FEF7AFFD12492B20FEF7ABFD04B047
:104B900010BD00BFD4070B00004021060040090EE5
:104BA0000140210400402102004039040040280651
:104BB000994A0A00C54A0A00594A0A00394A0A00B5
:104BC000194A0A00CD490A0021490A00E1480A00B1
:104BD000F5480A000378002B44D1437D002B41D1D6
:104BE0004268214B9A423DD1037B427B1F4902EB35
:104BF000032292B2B2F5004F1D4B06D101221A706A
:104C00000A700321187802F0DDBCB2F5804F03D1A1
:104C100003221A700122F3E7B2F5005F01D10B22E3
:104C2000F7E7B2F5805F01D10522F2E7B2F5006F38
:104C300001D10722EDE7402A01D11522E9E7B2F5BB
:104C4000007F01D11122E4E7B2F5807F01D1132268
:104C5000DFE70A7822B11A7801321A700022CFE712
:104C60001A70CEE7704700BF004028069C35082028
:104C70009635082038B502780346C2B9407DB0B9F0
:104C800059680B4A914212D1642401219B7B094D42
:104C90005C433F2CC8BF084602F00CF82868001B94
:104CA00006F0A0FF18B1204602F0DCFB2C6038BDF6
:104CB0000302F00C983508200346407D50B959682E
:104CC000054A914206D193F90C30002BA8BF012070
:104CD00002F0EAB9704700BF21C3FF180346407DC8
:104CE00048B95968044A914205D15B7B9B0758BF7C
:104CF000012002F0EBBA704721C3FF180378132B91
:104D000014D182780A4B52B1012A0BD0187820B105
:104D1000084B1878003018BF0120FEF757BF4278C3
:104D20001A70F3E74178034A1170EFE7704700BF4C
:104D30005B8207205C8207201FB51C4A01210020EE
:104D4000FEF72AFE10220021684607F0C7FA4FF44A
:104D5000FA7368460093FEF759FCFEF70DFB144901
:104D60000020FEF735FC13490020FEF731FC124904
:104D70000020FEF72DFC11490020FEF729FC104908
:104D80001320FEF7AFFC0F490020FEF7ABFC0E49E5
:104D90000020FEF7A7FC0D490020FEF7A3FC0C49FC
:104DA0000020FEF79FFC05B05DF804FB70080B00C7
:104DB0000040280600A0180A21C3FF180302F00CC7
:104DC000FD4C0A00DD4C0A00B94C0A00754C0A0083
:104DD000D54B0A0010B50378002B57D1437D002B2B
:104DE00040F090804268484B9A4240F08B80837B31
:104DF000427B1B0203EB0243C27B444C1344B3F5DA
:104E0000807F02D10123237011E0B3F5806F05D1BB
:104E10000323012223703E4B1A700AE0B3F5805F32
:104E200001D10B23F5E7012B0DD105222270384A61
:104E300013702278374B0321BDE810401A70354BB0
:104E4000187802F0BFBB042B01D10723E1E7102B38
:104E500001D10923DDE7B3F5802F0FD12E4A0121BF
:104E60000020FEF799FD2D4B1B78052BE1D12C4B33
:104E70001B78012B0CBF11231323CAE7B3F5801F46
:104E8000234B36D1152222700122C5E70F2B39D1D1
:104E90000379002B36D1037A552B33D1037B0C2BAE
:104EA00030D10269037F194C43EA0263426912045C
:104EB00002F47F0213438269120292B21343194A29
:104EC00093429FD0B3F1022FA2D0174A9342A8D0A9
:104ED000164A934201D105239BE7154A9342B4D069
:104EE000B3F5813FB5D0134A9342B7D0124A9342EB
:104EF000C6E71A7822B122780132227000228BE7AD
:104F0000227096E710BD00BF21FFA7189E3508202C
:104F1000A63508209D350820DE080B00A5350820A1
:104F2000A43508200002000100020004000200086D
:104F300000020010000200400002020003782B2B48
:104F40000BD14378054AC3F303031370012103F027
:104F50000F03034A0020FEF71FBD7047A435082049
:104F6000B1080B000378262B07D14378034A0121AF
:104F700013700020024AFEF70FBD7047A5350820C8
:104F8000C8080B0070B503780446002B37D1407D6C
:104F9000002834D162681A4B9A4215D10121237B33
:104FA000657B184E05EB03253F2DC8BF084601F071
:104FB00081FE3068401B06F015FE28B119206843B9
:104FC000800802F04FFA356062680F4B9A4216D1A2
:104FD0000121237B647B0B4D04EB03243F2CCCBFCE
:104FE0000846002001F066FE2868001B06F0FAFD66
:104FF00028B119206043800802F034FA2C6070BD9B
:1050000000403904A035082000A0280A10B5044645
:10501000407DC0B962680C4B9A4207D1637B03F0B4
:105020006803682B18BF012002F03EF86268074B46
:105030009A4208D1637BBDE810409B064CBF00201C
:10504000012002F031B810BD0040210200A0180A72
:1050500010B50446407DB8B962680C4B9A4206D13F
:1050600094F90C30002BA8BF012002F02FF96268E0
:10507000074B9A4208D1E37CBDE810405B074CBF68
:105080000020012002F022B910BD00BFC940310646
:1050900001A0180A0378132B14D182780A4B52B15D
:1050A000012A0BD0187820B1084B1878003018BFAF
:1050B0000120FEF78BBD42781A70F3E74178034A6E
:1050C0001170EFE7704700BF5D8207205E82072006
:1050D0001FB5044610220021684607F0FFF8002C97
:1050E0004FD1354A01212046FEF756FC3349204670
:1050F000FEF76EFA32492046FEF76AFA3149204639
:10510000FEF766FA30492046FEF762FA2F4920463C
:10511000FEF75EFA322300932D492620FEF7E2FACD
:105120002C492B20FEF7DEFA4FF49640FEF7BCFF29
:105130006846FEF76BFA28490020FEF7D3FA2749A4
:105140000020FEF7CFFA26490020FEF7CBFA2549CA
:105150000020FEF7C7FA24490020FEF7C3FA2249CF
:105160000F20FEF7BFFA1C491320FEF7BBFA002000
:1051700001F008FD012001F00DFDFEF7FDF804B07F
:1051800010BD012CC8D1194A21460020FEF704FCAD
:1051900017490020FEF71CFA16490020FEF718FAFE
:1051A00015490020FEF714FA14490020FEF710FA02
:1051B0004FF4FA73AFE700BF82080B0000402102F2
:1051C000004039040040210600403106C940310644
:1051D000654F0A003D4F0A0095500A0051500A00E1
:1051E0000D500A00854F0A00D54D0A0099080B00A2
:1051F00000A0180A01A0180A00A0280A21FFA71879
:10520000014B1870704700BFA735082010B5094C36
:105210000A4623680BB9084B236023681B6859684A
:1052200007F0BCF9236858682060003018BF0120DF
:1052300010BD00BFA83508206482072038B5054698
:1052400048B94FF0A00383F31188BFF36F8FBFF30A
:105250004F8F00BFFDE70820FCF7E8FB044648B984
:105260004FF0A00383F31188BFF36F8FBFF34F8F0D
:1052700000BFFDE7FBF764FA00236360044B256081
:105280001A681C605460FBF76BFA012038BD00BF40
:1052900060820720002330B513608B4217D004468C
:1052A00010F8015B9DB1202DF9D125782046202DE5
:1052B00004F10104F9D055B101339942EDD1411EF9
:1052C00011F8013F13F0DF0F136802D123B900205A
:1052D00030BD01331360F3E730BD82684368006876
:1052E0001344181A824298BF801A7047F8B50D46C9
:1052F00004465521284617461E4606F0EFFF854214
:1053000009D04FF0A00383F31188BFF36F8FBFF371
:105310004F8F00BFFDE724220021204606F0DEFF6C
:105320009DF81830A5612377A760E660F8BD2DE9E8
:10533000F0410546884617464AB94FF0A00383F36B
:105340001188BFF36F8FBFF34F8F00BFFDE7446835
:1053500083681E1B964228BF1646A219934209D2A3
:105360004FF0A00383F31188BFF36F8FBFF34F8F0C
:1053700000BFFDE780693246204406F039FFB7429E
:1053800012D9AB68BA1B9A4209D94FF0A00383F334
:105390001188BFF36F8FBFF34F8F00BFFDE708EB9E
:1053A0000601A86906F024FFAB683C449C4228BF74
:1053B000E41A6C603846BDE8F08137B504460D4606
:1053C0000192BBB1017FC9070AD49A4294BF0192EE
:1053D0000193019A29462046FFF7A9FF034609E0F9
:1053E000069A934205D304220DEB0201FFF79FFFBB
:1053F000EFE70023184603B030BD9A422DE9F84389
:10540000164628BF1E46074689469046002E3ED0C7
:10541000046883681D1BB54228BF3546AA4209D2DD
:105420004FF0A00383F31188BFF36F8FBFF34F8F4B
:1054300000BFFDE76219934209D24FF0A00383F346
:105440001188BFF36F8FBFF34F8F00BFFDE78169F6
:105450002A462144484606F0CBFEAE4211D9B0455B
:1054600009D24FF0A00383F31188BFF36F8FBFF30E
:105470004F8F00BFFDE7721BB96909EB050006F00D
:10548000B7FEBB6834449C4228BFE41A3C603046F7
:10549000BDE8F883012AF7B50C460BD1042814D8CF
:1054A0004FF0A00383F31188BFF36F8FBFF34F8FCB
:1054B00000BFFDE7B0B94FF0A00383F31188BFF33D
:1054C0006F8FBFF34F8F00BFFDE71546A0420BD291
:1054D0004FF0A00383F31188BFF36F8FBFF34F8F9B
:1054E00000BFFDE70025F1E7002C00F1010700F106
:1054F000250008BF0124FCF799FA064630B1009553
:1055000023463A4600F12401FFF7F0FE304603B08F
:10551000F0BD48B94FF0A00383F31188BFF36F8F3C
:10552000BFF34F8F00BFFDE7826803684168D01862
:105530000138401A824298BF801A70472DE9F04323
:1055400087B0044616460393894649B94FF0A00335
:1055500083F31188BFF36F8FBFF34F8F00BFFDE759
:1055600048B94FF0A00383F31188BFF36F8FBFF3E7
:105570004F8F00BFFDE7037FDB070DD502F1040865
:1055800042450AD34FF0A00383F31188BFF36F8F16
:10559000BFF34F8F00BFFDE79046039B2BBB204618
:1055A000FFF7B7FF0746CDF800803B463246494635
:1055B0002046FFF702FF054698B12046FFF78DFE13
:1055C000E36898420DD3FBF7E3FA23693BB100236C
:1055D00020691A461946FBF7B5FE00232361FBF745
:1055E00077FB284607B0BDE8F08304A8FBF7C6FCAC
:1055F000FBF7A6F82046FFF78CFF8045074623D926
:105600000020FBF7A3FF65694DB14FF0A00383F3C2
:105610001188BFF36F8FBFF34F8F00BFFDE7FBF71C
:105620002BFD6061FBF79CF82946039B2A46284620
:10563000FBF744FE656103A904A8FBF7C9FC002839
:10564000D6D0002FAFD1AAE7FBF78AF8F9E72DE90A
:10565000F3410446154698460E4649B94FF0A0035B
:1056600083F31188BFF36F8FBFF34F8F00BFFDE748
:1056700048B94FF0A00383F31188BFF36F8FBFF3D6
:105680004F8F00BFFDE7037FDB074CBF171D174699
:10569000FFF73FFF2A460346009731462046FFF7B3
:1056A0008CFE0546E8B12046FFF717FEE3689842F6
:1056B00017D3EFF311864FF0A00383F31188BFF3E4
:1056C0006F8FBFF34F8F23694BB1002320691A46B8
:1056D0001946CDF80080FBF7ABFE0023236186F36B
:1056E0001188284602B0BDE8F0812DE9F743044651
:1056F00017469946884649B94FF0A00383F31188AD
:10570000BFF36F8FBFF34F8F00BFFDE748B94FF076
:10571000A00383F31188BFF36F8FBFF34F8F00BFD8
:10572000FDE7037F13F0010F14BF04260026B9F133
:10573000000F26D0FBF704F82046FFF7CEFD864287
:10574000054611D30020FBF701FF23694BB14FF051
:10575000A00383F31188BFF36F8FBFF34F8F00BF98
:10576000FDE7FBF789FC2061FAF7FAFFAE4212D39E
:1057700000224B4611461046FBF7A0FD00232046B1
:105780002361FFF7AAFDB042054604D8002528464C
:1057900003B0BDE8F0837EB12B46324601A9204616
:1057A000D4F80090FFF729FE019BAD1B9F4236BF46
:1057B00000271F46C4F800902B463A464146204633
:1057C000FFF71BFE05460028E0D0FBF7E1F963690F
:1057D0003BB1002360691A461946FBF7B3FD00236D
:1057E0006361FBF775FAD2E72DE9FF4704461646D9
:1057F0009946884649B94FF0A00383F31188BFF357
:105800006F8FBFF34F8F00BFFDE748B94FF0A00384
:1058100083F31188BFF36F8FBFF34F8F00BFFDE796
:10582000037F13F0010F14BF04270027FFF755FD76
:105830008742054604D30025284604B0BDE8F0871A
:105840007FB103463A4603A92046D4F800A0FFF7EB
:10585000D4FD039BED1B9E4236BF00261E46C4F8B6
:1058600000A02B46324641462046FFF7C6FD0546BE
:105870000028E0D0EFF311864FF0A00383F31188E6
:10588000BFF36F8FBFF34F8F63694BB10023606924
:105890001A461946CDF80090FBF7CAFD0023636154
:1058A00086F31188C8E7012300F01F02400900F5C4
:1058B000001000F20770934040020A074CBF436695
:1058C00003668A064CBF0365436511F0C00F14BF21
:1058D000036243620A064CBFC0F88430C0F88030CF
:1058E000026FC9074CBF134322EA030303677047E3
:1058F0004FF4003208B5074B00215A604FF4802264
:1059000011205A60FFF7CFFFBDE8084000211220A8
:10591000FFF7C9BF000E0E402DE9F74F4FF0010809
:105920000226B54D0B2000F08FFC0C2000F08CFC03
:105930006E614046C5F8A0600021C5F81080C5F82A
:10594000A0806E60C5F80480FFF7ADFF0021084617
:10595000FFF7A9FF4FF480424FF40043A74C00210A
:1059600063612F20C4F8A0302261C4F8A0206360D6
:1059700062600192FFF797FF00212E20FFF793FF4F
:105980004FF080732361C4F8A03023634FF4800389
:105990004FF4007723610821C4F8A03023634FF44B
:1059A000807308466B61C5F8A0302F61C5F8A07000
:1059B0006B606F60FFF777FF08210920FFF773FF27
:1059C0004FF480636B61C5F8A0304FF400632B6126
:1059D000C5F8A0304FF480636B604FF400634FF460
:1059E000805B6B6008210A20FFF75DFF08210B2018
:1059F000FFF759FFC5F814B00021C5F8A0B00C207E
:105A0000C5F804B0FFF74FFF4FF4005308212B6196
:105A10000D20C5F8A0306B60FFF745FF4FF4001371
:105A20004FF4801A63610021C4F8A0303520636010
:105A3000FFF739FFC4F810A00821C4F8A0A0342053
:105A4000C4F804A0FFF72FFFFFF752FF26610423DD
:105A5000C4F8A06026630826C4F810804FF04009FF
:105A6000C4F8A0804FF00071C4F830802661C4F8FB
:105A7000A06026632361C4F8A03023632023C4F808
:105A800010900320C4F8A090C4F810B0C4F8A0B0DF
:105A90002761C4F8A0702361C4F8A0302161C4F864
:105AA000A010C4F83490C4F834B067636363009303
:105AB00061636E613146C5F8A060FFF7F4FE2761AF
:105AC000C4F8A07067604FF4803741462920FFF783
:105AD000EAFE6F613146C5F8A0701020FFF7E3FEC3
:105AE00067613146C4F8A0703020FFF7DCFE4FF448
:105AF000003104234FF400274FF080086161019AC0
:105B0000C4F8A0106B61C5F8A030009BC5F810A0C8
:105B10003146C5F8A0A00520C5F834A02F61C5F80E
:105B2000A0706F632A61C5F8A0206A636B61C5F835
:105B3000A030FFF7B8FEC5F814803146C5F8A08044
:105B40000720FFF7B0FE10204FF400014FF4800350
:105B5000C5F81090C5F8A0902861C5F8A00029618B
:105B6000C5F8A0102B61C5F8A0304FF080732B61F1
:105B7000C5F8A0304FF4005327614FF48022C4F8D9
:105B8000A070C4F81080C4F8A0802361C4F8A030CD
:105B90004FF480732261C4F8A0202361C4F8A030C0
:105BA0004FF480634FF400662361C4F8A0304FF0D7
:105BB00080632361C4F8A0302661C4F8A060C5F8F2
:105BC0003490686369634FF4800169634FF08071BA
:105BD00069634FF400516763C4F8348061636263A2
:105BE0004FF4807262634FF4806262636363666342
:105BF00003B0BDE8F08F00BF000E0E4000100E4055
:105C00002DE9F74F01264FF00208B14D0B2000F0AF
:105C10001BFB0C2000F018FBC5F814803046C5F8BB
:105C2000A08000212E61C5F8A060C5F804806E60D8
:105C3000FFF739FE00210846FFF735FE4FF4804993
:105C40004FF40043A34C002163612F20C4F8A0301F
:105C5000C4F81090C4F8A0906360C4F80490FFF7F3
:105C600022FE00212E20FFF71EFE4FF080734FF41E
:105C700080072361C4F8A03023634FF48073276149
:105C80004FF4007AC4F8A07027636B61C5F8A030A8
:105C90004FF48063C5F810A0C5F8A0A0C5F830A0E7
:105CA0006B61C5F8A0304FF400634FF400322B61F4
:105CB0004FF4805BC5F8A0302B634FF40053C5F858
:105CC00014B00821C5F8A0B011202B61C5F8A03090
:105CD0002B636A61C5F8A0200192FFF7E4FD4FF441
:105CE000802308216B611220C5F8A030FFF7DBFD8F
:105CF000C4F810800423C4F8A0804FF00051C4F809
:105D0000308026614FF04008C4F8A0602663082662
:105D10002661C4F8A06026632361C4F8A030236321
:105D200000932963C4F830B02961C5F8A010C4F805
:105D300010804FF00071C4F8A080C4F810B0C4F80F
:105D4000A0B04FF0200BC4F810A0C4F8A0A0C4F875
:105D500010B0C4F8A0B02161C4F8A010C4F8348019
:105D6000C4F834A04FF4803AC4F834B01020616312
:105D70003146C5F814A0C5F8A0A0FFF794FDC4F8FB
:105D800014A03146C4F8A0A03020FFF78CFD6E614E
:105D90003146C5F8A0600320FFF785FD019A009BFE
:105DA00062614FF4002AC4F8A0206B61C5F8A030EE
:105DB0004FF480132B61C5F8A0306B63C5F810A0B9
:105DC000C5F8A0A0C5F834A0C5F81090C5F8A090FB
:105DD000C5F834904FF08009C5F814B0C5F8A0B0EC
:105DE0004FF4000B31460520FFF75DFDC5F8149018
:105DF0003146C5F8A0900720FFF755FDC4F814B050
:105E00003146C4F8A0B03720FFF74DFD10224FF007
:105E10008073C5F81080C5F8A0802A61C5F8A0205D
:105E2000C5F810B0C5F8A0B02F61C5F8A0702B61FF
:105E3000C5F8A0304FF40053C4F810A0C4F8A0A0D7
:105E4000C4F81090C4F8A0902361C4F8A0304FF4B7
:105E500080232361C4F8A0304FF480732361C4F819
:105E6000A0304FF480634FF400612361C4F8A03088
:105E70004FF080632361C4F8A0302161C4F8A01002
:105E8000C5F834806A634FF08072C5F834B06F6330
:105E90006A634FF40052C4F834A0C4F834906263CB
:105EA0004FF4802262634FF4807262634FF4806229
:105EB000626363634FF4004361636B61C5F8A030B4
:105EC0004FF400136B61C5F8A03003B0BDE8F08F4C
:105ED000000E0E4000100E40B2EB011F30B52CBF7B
:105EE0001024082461434B0803EBC202B2FBF1F219
:105EF0004FF6FE73D1084D1E9D4210D8082C08BFE6
:105F000043684FEA024202F4E02208BF43F4002350
:105F100042EA010208BF43600262002030BD012056
:105F200030BD0000084BC0F8E430002343604362FA
:105F3000836288230360242303604FF4807303602B
:105F40004FF40023036070470041535570B5054678
:105F50000C46FFF7E7FF00230A4E336009B9012022
:105F600070BD0968FFF7B8FF0028F8D1A268636820
:105F7000134322691343E26813436A68336013438F
:105F80006B6070BDAC35082010B5FFF7CBFF102358
:105F9000036040230360436823F00F0343F00B03C7
:105FA0004360FFF799FF003018BF012010BD436D1B
:105FB00023F00303194341657047436D23F0040345
:105FC00043657047436D23F0080343657047436D95
:105FD00023F0100343EA011141657047436D23F03C
:105FE000200343EA411141657047436D013923F4B1
:105FF0007F4343EA012343657047436D23F48033B5
:1060000043657047806DC0B270474023036070479E
:1060100010230360704781607047C160704740691A
:1060200070474FF480730360704743699B0743BF19
:10603000C1F30801C1610020012070474369DB07FB
:1060400041BF83690020C3F308030B6058BF0120E0
:10605000704700000E4B1A6B22F003021A6340F6E1
:106060000102996E09070BD51A6B22F070021043DA
:1060700040F601021863996E090705D500207047A4
:10608000013AEED101207047013AF4D1FAE700BF9E
:1060900000060E400F4B1A6B22F0030242F0010281
:1060A0001A6340F60102996E09070BD51A6B22F0AC
:1060B0007002104340F601021863996E090705D576
:1060C00000207047013AEED101207047013AF4D127
:1060D000FAE700BF00060E400F4B1A6B22F0700269
:1060E000104340F601021863996E08070CD51A6B2D
:1060F00022F0030242F002021A6340F60102996E96
:10610000090705D500207047013AEDD101207047FD
:10611000013AF4D1FAE700BF00060E40054B58697A
:1061200010F080001FBFA3F5A053103B986EC0F382
:10613000C0107047101A0E40174B10B51A6A12F0B3
:10614000010F1A6A1FD0002122F45C1222F078029B
:1061500042F45C1242F0080202431A629A6E920301
:10616000FCD51A6A22F09B7222F4803242F45C124F
:106170001A6239B11A6A22F45C1222F0010242F466
:106180005C121A6210BD054C0549144021430143BD
:1061900019620121E2E700BF00060E408600C8FF39
:1061A00009FF3700044A136A23F45C1323F07803D1
:1061B00043F45C131362704700060E40034A136AEF
:1061C00023F0030343F45C131362704700060E4090
:1061D0000E4A136A28B10E4919400E4B0B43136245
:1061E000704723F45C1323F00303090243F45C13A8
:1061F00089B243F001030B431362936EDB07FCD5B6
:10620000136A43F09B7343F48033E8E700060E40C3
:10621000FCFFC8FE02003701024B986E00F480308C
:10622000704700BF00060E404FF00052014B9A62CB
:10623000704700BF00060E40024B986E00F002004F
:10624000704700BF00060E402C2818D81F280D4AA2
:106250004FF0010308D8916903FA00F030EA010316
:1062600000D01061002070472038D2F8081103FADE
:1062700000F030EA0103F5D0C2F80001F2E7012096
:10628000704700BF00060E40034BC0F312001A6FA8
:1062900010431867704700BF00060E40416070470A
:1062A0008160704700697047436A23F0FF03194318
:1062B0004162704700EB4111D1F8100270478B79B1
:1062C0000A781B0403F4702343F4000300EB42102C
:1062D000C0F81C3270478B790A781B0403F47023D2
:1062E00043F4800300EB4210C0F81C3270470A7878
:1062F0000B7930B500EB421063B9C0F80032C0F83A
:106300000432C0F80832C0F81432C0F81832C0F8AD
:106310001C3230BDD0F80022CC7922F4702242EA3F
:106320000442C0F800224D79CC680A6985B144F076
:106330000054C0F8044242F00052C0F80822D0F8DD
:10634000002222F0E06242EA0363C0F8003230BD6E
:10635000C0F80442F1E78A6870B502F0C073B3F187
:10636000C07F14BF002402240B78C2F303425B01F8
:10637000C518D5F80C62042A8A7126F060464E6171
:10638000D5F8146288BFD5F818228E6188BFCA611B
:10639000C218D2F8102203448A60D201D3F808222E
:1063A000D3F8083248BF44F0040412F000521DBF75
:1063B00023F060430B6101239B0C12BF4B710B61F7
:1063C0004A71FFF77CFF204670BD0A7830B5520154
:1063D0008418D4F810328B601B021AD54D790B69E2
:1063E0000DB143F00053C4F808328B698418C4F827
:1063F00014328B791044042B88BFC9694FEA0343D8
:1064000003F4702388BFC4F81812C0F81C320020AF
:1064100030BD012030BD30B50024054689B08DF86F
:1064200004400094694628460134FFF760FF082CB9
:10643000F7D109B030BD0000F8B546F2A813044604
:1064400003FB02F00B18013BB3FBF0F3802B01D9E7
:106450000020F8BD4FF4FA505043B0EB510FF7D87D
:106460004FF47A7308265A434FF0FF373346B1FB97
:10647000F0F5802D06D800FB1515BD4202D23DB1C6
:106480002F461E460133DBB21A2B1044EFD13346A0
:106490005A43B1FBF2F1C9B20129D9D906202268C9
:1064A000083B22F001022260194A013900FB032255
:1064B00093785078013B01381B01000200F4E06042
:1064C00003F070030343D07812790138013A00F0E9
:1064D0000700120302F4405203430904134301F47A
:1064E000FE01194320466161FFF795FF0020024637
:1064F000236843F001032360064B920204D49842C0
:10650000A6D022690130F8E7C01A18BF0120F8BDF3
:1065100030090B00A0860100AC2310B54A68036067
:106520000B68B3FBF2F34FF6FE721B095C1E94423C
:106530000AD803628B68436040F20223C0F820311E
:1065400050230360002010BD012010BD50230360C4
:106550007047AC230360704781607047C16070472B
:106560004069704743699B0746BFC1610020012015
:1065700070474369DB0743BF836900200B7001202C
:106580007047C36C0164704741647047C06C7047CA
:10659000D3060ED59306C0F8B0104CBFC0F8D41087
:1065A000C0F8D01053064CBFC0F8C010C0F8C410DB
:1065B0007047C0F8B4107047FFF7EABF014B53F8BB
:1065C00020007047901A0E40014B43F8201070478E
:1065D000901A0E40014B0360704700BF050000A5F4
:1065E000406800F4E0607047084BB3FBF1F1814272
:1065F00008D8C1EB0133834204D3B0FBF1F0C0F300
:106600000B0070474FF6FF70704700BF0020A107D6
:1066100010B5044CC2F30B0204EA034313430B43CB
:10662000436010BD0000FF0F024B984204BF024BB5
:1066300003607047501A0E40010000A54068C0F387
:106640000B00C001B0FBF1F101484843704700BFA7
:1066500040420F00134B07B5DA6AD00742BF012151
:106660009962196A910742BF022199621B6AD30598
:1066700044BF4FF480720B4B01A944BF9A621B6A5E
:10668000094B1868FBF7BFFC019B3BB14FF08052F0
:10669000064B1A60BFF34F8FBFF36F8F03B05DF8E7
:1066A00004FB00BF00C00840B035082004ED00E046
:1066B000436801F00F0123F00F030B434360704761
:1066C000436801F4E06123F4E0630B4343607047E7
:1066D000436843F48053436070470068C0F303206D
:1066E0007047C068704708B5120202F47062114327
:1066F0000CF02AFC002008BD0368090201F4706157
:1067000023F4706319430CF01FBC000038B5A1F1ED
:106710000E03012B17D9EFF3108472B6BFF35F8F0E
:1067200000230A4DC9B22B70094B03EA022242F042
:10673000B44211430CF004FC3CB901232B70BFF3AD
:106740005F8F62B638BD4FF0FF3038BD70820720D2
:1067500000FFFF0030B50F4C256805F500248C4282
:1067600010D8C5F17F4404F578040C44491B0A4D48
:10677000C4F30F24C9B200B1056002B1148003B1A3
:10678000198030BDA1F50024C4F30F24C9B2034D14
:10679000F1E700BFBC8C0720000C0E40000A0E4041
:1067A00038B504460D460A4601460548FFF79BFFEB
:1067B0002A4621460348FFF796FF002038BD00BF58
:1067C000000A0E40000C0E402DE9F04F85B00193F9
:1067D0000F460DF10A030146154603A802AAFFF76A
:1067E000B9FF0398FFF779FF062181460398FFF769
:1067F00083FFDFF8BCB0DFF8B4803DB903984946A9
:10680000FFF77AFF284605B0BDE8F08FBDF80A20F3
:10681000254CC2F58073AB421E4628BF2E46039816
:10682000BDF80810A04215BFDBF8004001F5006478
:1068300004F50024240218BF04EB01249B1B21460D
:106840001A481FFA83FA05F0D3FCBDF80A00324655
:106850003946404405F0CCFCBDF80A0052463044AD
:106860000119404405F0C4FC04F58073A8EB040151
:106870000A5944F8042BA342FAD1019BBDF8082021
:106880007BB103210398FFF741FF0028BBD1BDF87E
:10689000083037440133AD1BADF80830ADF80A00BD
:1068A000ABE70121EEE700BF000A0E40B435082037
:1068B000BC8C0720042370B586B002AD06460C469A
:1068C00000930F222B460E2109480CF035FB68B9C6
:1068D000042C28BF04240346A34201D106B070BD96
:1068E00055F8232046F823200133F5E71020F5E77B
:1068F000000A0E40EFF30583FCE700002B4A10B5B9
:10690000136B03F00303012B294B0FD004D3116A3F
:10691000CC012CD5274946E02749496908064CBFD8
:106920004FF400414FF4FA4119600DE0116AC901BA
:1069300001D52049F8E721491960116A01F0700179
:10694000102912D02029F4D0116B01F070017029A8
:1069500005BF03211A68116BB2FBF1F21EBF1A6862
:10696000C1F30211CA401A6010BD1549DCE7134992
:106970001960116A01F07001102913D02029C9D0C3
:10698000116B01F00301022901BF946A1968C4F375
:106990000A4404FB011109BF906A0A49C0B2B1FB65
:1069A000F0F1C1E706491960EAE700BF00060E40B2
:1069B0006C820720001BB700101A0E4000093D0032
:1069C00000127A00001C4E0E114B124A9842124BD4
:1069D00003D800211160196070471049884202D81D
:1069E0004FF48071F6E70E49884202D84FF40071E7
:1069F000F0E70C49884202D84FF44071EAE70A49AF
:106A0000884294BF4FF480614FF4A061E2E700BF79
:106A1000BFEA2101000A0E40000C0E407FF0FA028E
:106A2000FF8FD003FFB3C4047F4A5D050160704748
:106A300001210268530903F5001303F2077302F002
:106A40001F025B0201FA02F21A6370470121026819
:106A5000530903F5001303F2077302F01F025B02F0
:106A600001FA02F25A6370470D4808B5FFF7ACFF10
:106A70003E210020FFF7ACFBFFF7CEFB0028FBD048
:106A8000FFF7D2FB074A084B9A62FFF7D5FB0028B5
:106A9000FBD00020FFF720FBBDE80840FFF72EBF2A
:106AA00000BD0105013F062000060E402DE9F0471C
:106AB0002F4A86B013782F4E013313702E4B1B785C
:106AC0008BB932798DF8003033786846934228BF0D
:106AD00013468DF8083004F0BFF8012000F09AF852
:106AE00006B0BDE8F08700244FF6FF7827464FF048
:106AF000010ADFF88C9056F82450A300454505D0D4
:106B0000BDB10120013DF55000F084F80134022CA4
:106B1000F1D1CFB9337832798DF80070934228BF24
:106B200013468DF80830FCF71DFF684604F094F812
:106B3000D6E723464A4601212846FCF72DFF0AFAEC
:106B400004F31F432846DFE70C4A01210020FCF72D
:106B500023FF002368468DF800308DF8083004F0DC
:106B60007BF84FF47A70FAF72BF9F9F7A7FDB7E73E
:106B7000BD360820B4360820BE360820C4090B00F4
:106B8000A8090B004FF4B472014B43F82020704762
:106B9000B43608204FF6FF72014B43F820207047AF
:106BA000B4360820014B1870704700BFBE3608206D
:106BB00073B5124B124A01210020FCF7EDFE114B78
:106BC0001C78C4B901251D700F4B2A46FA21009389
:106BD0000E482346FAF784FD0646F9F7E1FF2346FF
:106BE0000246009429463046FAF7A0FD4FF6FF72A0
:106BF000074B1A605A6002B070BD00BF9C090B00C1
:106C0000D9FD0A00BC360820AD6A0A00D8090B007D
:106C1000B43608204FF00052044B1A61C3F8A0208C
:106C200008B11A6370475A63704700BF000E0E40E8
:106C300038B583784478012B12D10F4A13700F4D69
:106C4000204600F057F82A78A24211D0FCF7DAFF6C
:106C50007CB90B4A01210020FCF79EFE2C7007E056
:106C6000002BECD1074B1C70034B1B78002BE6D09C
:106C700038BD054AEEE700BFBF3608207182072005
:106C8000DE090B0072820720ED090B00014B18781A
:106C9000704700BF7282072008B500F035F8102059
:106CA0000349FCF71FFDBDE80840002000F022B8B2
:106CB000316C0A0070B58AB004460E46FCF782FFBC
:106CC00043780546A3420FD01020FCF76BFF10233A
:106CD0006C7068468DF800308DF801408DF80260C8
:106CE000FCF71CFD0AB070BD1020FCF74BFF00281C
:106CF000EAD1F7E7034B4FF0007208B91A63704707
:106D00005A63704700100E404FF00072024B1A6138
:106D1000C3F8A0201A63704700100E40034B4FF4D5
:106D2000805208B91A6370475A63704700100E40CA
:106D3000024BD86BC0F30030704700BF00100E400C
:106D4000034BD86B80F48050C0F30030704700BF15
:106D500000100E40084B30B5084CDB6B084D217815
:106D6000C3F30043287841EA0302024001EA03002A
:106D700029702370104330BD000E0E40C03608202D
:106D8000C2360820084B30B5084CDB6B084D217823
:106D9000C3F30043287841EA0302024001EA0300FA
:106DA00029702370104330BD00100E40C1360820FA
:106DB000C33608204FF48052024B1A61C3F8A0205A
:106DC000704700BF00100E400378142B04D14278A6
:106DD000074B12B901221A7070471A78002AFBD0AB
:106DE00004490A7882F001020A700022F3E700BF2A
:106DF00077820720CA36082038B50378072B28D1B8
:106E0000144B154C1D78CDB9042000F04DFC1E2804
:106E100004D90420294600F04DFC28463C23584361
:106E200020600E4B1B78A3B10D4A1378591C022B1E
:106E300011700ED9BDE83840F9F740BC2368002B2B
:106E4000EFD0013B074A012100202360FCF7A4FD9D
:106E5000E7E738BD76820720C4360820C936082007
:106E6000C8360820430A0B00F8B503780546122BF4
:106E70001BD12E4E42782E4F2E4C31683A70227024
:106E800031B1012A04D1FFF753FF60B100233B70F9
:106E9000294B22781978914203D0002027491A7093
:106EA0000870012302E03060F2E700232A78062A06
:106EB00001D0002B33D0214B1D4A1978147861B1D1
:106EC000012C2DD04CB91948016859B319490C78D7
:106ED000012C27D10021016019701949097839B1B5
:106EE0000124002014702146164A1870FCF754FD46
:106EF0002046FFF713FF14B10E4B1B7813B9002087
:106F0000FFF740FE104D2A78A24208D0FCF77AFE27
:106F100054B90E4A01210020FCF73EFD2C70F8BD4B
:106F20000024DAE70124D8E7094AF3E7C436082049
:106F3000738207207682072075820720CA360820D0
:106F4000C9360820FD090B0074820720260A0B00B1
:106F5000340A0B000122014B1A707047C936082011
:106F6000014B1878704700BF76820720FFF7E0BE1C
:106F700010B50E4CFFF71EFF0120FFF7CFFE214694
:106F80001220FCF7AFFB21460620FCF7ABFB0849BB
:106F90001420FCF7A7FB07490620FCF7A3FBBDE87C
:106FA000104005490720FCF79DBB00BF696E0A0031
:106FB000C96D0A00DB6F0A00F96D0A00132300B5E2
:106FC0008BB08DF8010068468DF800308DF8021006
:106FD000FCF7A4FB0BB05DF804FB08B50378062BA7
:106FE0000BD1FFF7B7FE0021FFF7E8FFFFF7CAFE5E
:106FF000BDE808400121FFF7E1BF08BD142300B53B
:107000008BB08DF8010068468DF80030FCF786FBE8
:107010000BB05DF804FB0000034B402208B91A6373
:1070200070475A63704700BF00100E40034BD86B87
:1070300080F04000C0F38010704700BF00100E4089
:107040004022034B1A61C3F8A0201A63704700BFA7
:1070500000100E4038B54478094D2046FFF7DCFF9C
:107060002A78A24208D0FCF7CDFD34B9054A0121A7
:107070000020FCF791FC2C7038BD034AF7E700BFF5
:10708000788207206C0A0B00780A0B0008B5FFF71E
:10709000D7FF15200349FCF725FBBDE80840012078
:1070A000FFF7BABF55700A0030B58BB00446FCF745
:1070B00089FDC3780546A3420DD01520FCF772FD6B
:1070C0001523EC7068468DF800308DF80140FCF710
:1070D00025FB0BB030BD1520FCF754FD0028ECD18A
:1070E000F7E70000034B202208B91A6370475A6380
:1070F000704700BF00100E40034BD86B80F020009B
:10710000C0F34010704700BF00100E40024BD86B18
:10711000C0F34010704700BF00100E402022024B09
:107120001A61C3F8A020704700100E40032238B542
:10713000184B44781C70184B012C1A701DD1FFF7A6
:10714000E5FF10B3154B1C78B4FA84F46409FFF71B
:1071500007FF012808BF0124114D2046FFF7C2FF99
:107160002A78A24208D0FCF74DFD84B90D4A0121CE
:107170000020FCF711FC2C7038BDFFF7C7FF00287A
:10718000E5D1094B1B78002BE1D00124DFE7074A4A
:10719000EDE700BF7A8207207B820720CB360820EC
:1071A00079820720850A0B00CC360820920A0B0052
:1071B00003781A2B06D14368B3F5AF6F82BF002264
:1071C000014B1A70704700BFCB36082010B52B4A10
:1071D00004461378002B3BD1294901200B70294923
:1071E0000B7003231370284B1870284B1870FFF78F
:1071F00079FF2478072C3FD1204600F055FA1E284D
:1072000003D90021204600F055FA062000F04CFA80
:107210001E2803D90021062000F04CFA1B4B052044
:107220001B78C3B900F040FA012804D1072000F010
:107230003BFA134B1870134A1378EBB1013BDBB2E6
:107240001370134A0121BDE810400020FCF7A4BBD5
:10725000013B1370CDE700F027FA012804D1062086
:1072600000F022FA074B1870054A137823B1013B4E
:10727000DBB21370074AE5E710BD00BF7B82072031
:10728000CB360820CC360820798207207A82072066
:10729000A00A0B00CA0A0B0008B5FFF73FFF084918
:1072A0001620FCF71FFA07490720FCF71BFA1A20E3
:1072B0000549FCF717FABDE808400120FFF712BFA7
:1072C0002D710A00CD710A00B1710A0030B58BB082
:1072D0000446FCF777FC83780546A3420DD01620C0
:1072E000FCF760FC1623AC7068468DF800308DF812
:1072F0000140FCF713FA0BB030BD1620FCF742FC3E
:107300000028ECD1F7E7000030B58BB04FF0A003B8
:1073100083F31188BFF36F8FBFF34F8F144A154863
:1073200014880378144921F813400023138083F351
:1073300011880A2502780132D2B2B2FBF5F405FBBE
:1073400014221C46027031F8132001330A2B144416
:10735000F9D10A4D2B689C4207D01B2368468DF853
:1073600000300194FCF7DAF92C600BB030BD00BF9F
:10737000CE360820D0360820D8360820EC36082033
:1073800037B51A4C45682068401B04F02BFC1328C5
:107390000DDD284604F016F80022154B04F0B2F972
:1073A000144ACDE9000101210020FCF7F5FA632D14
:1073B00007D80021084600F0A1F80023236003B09D
:1073C00030BD2068401B04F00DFC3128F7DD32236E
:1073D0004EF66021B5FBF3F30120B1FBF3F100F0B1
:1073E0008DF8FCF70FFC2560E9E700BFD4360820D4
:1073F00000005940F50A0B00014B1868704700BFA8
:10740000D436082073B5134D2C7804BB00F098F8DF
:1074100011491A20FCF766F9104B012200936421F0
:1074200023460F48FAF75CF90646F9F7B9FB2346FD
:107430000246009401213046FAF778F901232146EB
:1074400020462B7002B0BDE8704000F057B802B083
:1074500070BD00BFCD36082081730A0009730A0091
:10746000040B0B0030B58BB00446FCF7ABFB0546B4
:107470008068001B04F0B6FB01280CDD1A20FCF725
:1074800091FB1A23AC6068468DF800300194FCF73C
:1074900045F90BB030BD1A20FCF774FB0028EDD184
:1074A000F7E7000038B5124803F036FE03061DD595
:1074B000104D11492C680E4864082A6803F006FE36
:1074C00022460D490A4803F00FFE2A680A49084877
:1074D00003F0FCFD22460849054803F005FEBDE81F
:1074E000384000220721024803F021BE38BD00BF0A
:1074F000004009401C370820F036082038B5054602
:107500000C4C80B10C4B196023782BB907210B4828
:1075100003F0F8FD012323700022BDE83840072165
:10752000064803F0FBBD0721044803F0F0FD257079
:1075300038BD00BF183708201C370820004009401C
:107540001FB52420FEF780FE0721194803F0DFFD58
:107550002420FEF779FE47F2305300240193154BA7
:1075600001A913480294039303F022FD20B1124AAB
:1075700021462046FCF710FA0023104907240B810E
:107580008B720B234B6064230B6132230848CB6062
:107590000C6003F02CFD2146054803F0B8FD1022D5
:1075A000074B5A60F02283F8242304B010BD00BFBB
:1075B0000040094000BD01050A0B0B00F036082011
:1075C00000E100E070B58AB004460E46FCF7FAFA16
:1075D00003790546A34209D01720FCF7E3FA1B2CD8
:1075E0002C710AD817238DF800300CE01720FCF717
:1075F000C9FA0028F0D10AB070BD182305228DF811
:1076000000300F4B1A70002368468DF802308DF859
:1076100001408DF80360FCF781F89DF80130002BE4
:10762000E9D1074C2378002BE5D0182368468DF864
:107630000030FCF773F82378013B2370DBE700BFD1
:10764000203708200A2310B588B000930023124C7D
:10765000124822780068162A87BF1A4603214FF481
:1076600096720421FAF762F817238DF80830237810
:107670000121DA088DF8102000920020084AFCF75A
:107680008BF900238DF81130064B02A8039303F009
:10769000E3FA08B010BD00BF3A3708203C37082095
:1076A0002C0B0B006D770A00014B185C704700BF74
:1076B000223708207FB5094B1A5C8A420AD0195438
:1076C00005238DF8080068468DF800308DF8091004
:1076D00003F0C2FA07B05DF804FB00BF22370820B0
:1076E0007FB57F2306A800F8183D03F0B5FA07B070
:1076F0005DF804FB37B5114A1378EBB9FF20104948
:1077000058540133182BFBD101240E4B14704FF445
:10771000C871224600930C480023F9F7E1FF0B4B98
:1077200005461860F9F73CFA0A2302460093214601
:1077300000232846F9F7FAFF03B030BD21370820AF
:107740002237082045760A00260B0B003C3708201C
:107750001D2300B58BB08DF8010068468DF8003010
:10776000FBF7DCFF0BB05DF804FB00002DE9F84FE0
:10777000894692460024C000DFF85C80C6B2144FF0
:1077800008EB060B4C4504D10122124B1A70BDE8E0
:10779000F88FA519172D18DC1AF80430012D0BF8F5
:1077A000043002D12846FFF7D3FF172D3D7009D1D1
:1077B00098F817301BB901212846FFF77BFF0220FC
:1077C000FFF7C6FF3B7801333B700134DAE700BFB7
:1077D0003A3708203B3708202237082070B5417916
:1077E00090F808418D1DA54217D18378C2780B44CB
:1077F00013440279053113440622DBB2914206DAC2
:10780000DB430134435580F80841012070BD865C9C
:1078100001323344DBB292B2F0E7002070BD0023A6
:10782000FF2180F8083180F8093100F20712431E69
:1078300003F8011F9342FBD1002380F80A3180F83E
:107840000B3170470122014B1A707047B038082085
:10785000704700000378262B02BF4278014B1A7054
:10786000704700BF9437082010B503780146212BDC
:1078700003D12822054804F0BBFCBDE810400023DA
:1078800003481A4619460068FAF78CBA40370820B0
:107890006837082002F0A4BA03780146312B05D1DD
:1078A000034800230A220068FAF77CBA704700BF39
:1078B000B4380820037801462E2B05D10348002355
:1078C0000A220068FAF76EBA704700BF70370820C6
:1078D00003782D2B06D1011D034800230A220068DE
:1078E000FAF760BA704700BF903708200378272B5B
:1078F00006D1011D034800230A220068FAF752BA94
:10790000704700BF9837082003782C2B03D14178AB
:107910000920FFF7CFBE704710B50378292B10D18F
:107920000446084A54F8043F04210220FCF734F8C6
:1079300005482146BDE8104000230A220068FAF7F6
:1079400031BA10BD700B0B008037082010B50378DA
:107950000446322B0DD1074A01210020FCF71CF808
:107960000548611C0023BDE810400A220068FAF7B0
:1079700019BA10BD480B0B006C37082013B50378FB
:10798000172B47D10222411C684604F031FC9DF8B8
:10799000002052B923490B783BB1DC0741BF581C8A
:1079A00008708DF800308DF801209DF80020D00778
:1079B00018D51C4B1B78D90714D59A4212D0002435
:1079C0000133194A012120468DF804308DF8054015
:1079D000FBF7E2FF154823464FF0FF3201A900688C
:1079E000FAF7E0F99DF80030A3B10E4C22789A42E4
:1079F00010D00F4A01210020FBF7CEFF0B4869464B
:107A0000002302220068FAF7CDF9014620B19DF863
:107A10000030237002B010BD064A0220FBF7BCFF05
:107A2000F8E700BF75370820840B0B00AC3808203E
:107A30008F0B0B009D0B0B0010B590F80A3104461C
:107A400090F808110BB1032903D8637907338B42EF
:107A500004D1204600F0FCFD012010BD0021054AA4
:107A60000846FBF799FF204694F8081100F0F0FD56
:107A7000002010BDB50B0B002DE9F0411C4C054654
:107A800020461E4688461746FFF7C9FEC723C82270
:107A900094F808012354431CDBB2E2541222831CE5
:107AA000DBB2E554C31CDBB2E2540022031DDBB29F
:107AB000E2540422431DDBB2E254851DC11D00F1D6
:107AC0000802EDB2C9B2D2B204F805806754A654D8
:107AD00000F109020A3084F80801D2B22046A65407
:107AE000FFF77CFE2046BDE8F041FFF7A5BF00BFD1
:107AF0009D370820034B1A781F2A84BF01221A7071
:107B000018787047A938082008B5FFF7F3FF01304F
:107B1000C0B2202828BF0120014B187008BD00BF4B
:107B2000A93808202DE980487A4B89B000930122BA
:107B300000234FF4FA717848F9F7D2FD774C784B6F
:107B400020600122C821009376480023F9F7C8FD80
:107B5000754D286001F004FD2668F9F721F800242E
:107B600002462346012130460094F9F7DFFD2D68D7
:107B7000F9F716F823460246012128460094F9F742
:107B8000D5FD0221694A0846FBF706FF6848FFF762
:107B900046FEFFF7B9FF674D0146654802F092F8CF
:107BA0002F46654EC8213068FAF72CFB6C78DFF859
:107BB000B881012C68D1614A03210220FBF7ECFE59
:107BC00098F80030022B51D802215D4A0846FBF795
:107BD000E3FE574890F808218378012A98BFFF23D5
:107BE000BA789A4240F08280FFF726FF98F800307A
:107BF000013388F80030002CD4D10020514C88F893
:107C000000006278002A40F0DA82DFF8608105A97E
:107C1000D8F80000FAF74EFA002800F0D5809DF859
:107C2000142023789A4200F0C382FFF76DFF9DF87D
:107C300014300446162B00F2AF82DFE813F0610027
:107C40009900D601DD01E601ED01F601FD01060214
:107C5000700279020D0216024F0258026002690298
:107C6000800287028F0297029E02A602364A0021F6
:107C70000220FBF791FE354A1378002BBDD000237C
:107C80001370334A1370B8E7022C31D1314A032103
:107C90002046FBF781FE98F80030022B09D82146D8
:107CA0002D4A2046FBF778FE2148FFF7C5FE012448
:107CB0009CE72A4A00212046FBF76EFE234B1B78E7
:107CC00013B10022224B1A70254B1B7823B9FBF706
:107CD00049FE0120FEF756FFFFF748F9044628B990
:107CE000FBF740FE0120FEF74DFF7FE700247DE714
:107CF000164B1B78002B80D0154A13780133C1E74F
:107D0000184A01210020FBF747FE00231A460021F4
:107D100036E000BF45780A00BF0B0B00883708200B
:107D200051780A00C50B0B0084370820CB0B0B00E1
:107D30009D3708204037082068370820DA0B0B00F1
:107D4000E10B0B008C370820F00B0B009C37082050
:107D50007C370820030C0B000D0C0B001C0C0B00D7
:107D600094370820310C0B0095370820AC380820D8
:107D7000C14A01210020FBF70FFE01230022102140
:107D80002046FFF779FE0446002840F00A829DF85D
:107D90001430BA4A0146FBF7FFFD0123052205A96D
:107DA000D8F80000F9F7FEFF9DF814300094B44AAB
:107DB00001210020FBF7F0FD012C00F00A82022CCB
:107DC00002D10A20F8F7FCFFAE4B002205A9186883
:107DD000FAF770F948B1FFF797FE05AA0146AA48DD
:107DE00002F02CF800287FF4DDAEA84B002205A994
:107DF0001868FAF75FF948B1FFF786FE05AA014651
:107E0000A14802F05FF800287FF4CCAE0022A04B1E
:107E100005A918680592FAF74DF948B1059C3CB1DF
:107E2000FFF772FE01469848A04700287FF4BAAEDB
:107E30000023984C05932378002B00F0CE81DFF8C7
:107E40006082D8F80030002B00F0C781924A0421EC
:107E50000320FBF7A1FD914AD8F8003011788A4839
:107E60009847002840F0D68100238C4A2370137075
:107E70008B4A13608B4B002205A91868FAF71AF990
:107E8000002867D0FFF740FE7F4C039020469DF806
:107E90001680DDF818A09DF815B0DDF81C90FFF7EE
:107EA000BEFCC722C82094F808310399E2545A1C3A
:107EB000D2B2A0549A1CD2B2A1544021DA1CD2B240
:107EC000A15400211A1DD2B2A1545A1DD2B2A154FC
:107ED0009A1DD2B204F802B0DA1DD2B2083304F807
:107EE000028084F80831504604F02AFBA04652462E
:107EF000C0B2A2EB0A03DBB28342C0F08E81002243
:107F000094F808314846E254013384F8083104F00B
:107F100017FB4A46C0B2A2EB0903DBB28342C0F0B2
:107F200086814FF0000894F8083157485A1C04F82D
:107F30000380053B84F808216371FFF74FFC5A4A20
:107F400001214046FBF728FD4F48FFF775FD00284B
:107F50007FF428AE554B002205A91868FAF7AAF855
:107F600000283BD0524A01210020FBF715FDFFF706
:107F7000CBFD454C824620469DF814909DF8158017
:107F8000FFF74DFCC722C82194F808312046E2547F
:107F90005A1CD2B2A15424219A1CD2B204F802A0D5
:107FA000DA1CD2B2A15400211A1DD2B2A15402216E
:107FB0005A1DD2B2A1549A1DD2B204F80290DA1D11
:107FC000D2B2083304F8028084F80831FFF706FCC7
:107FD0002046FFF731FD00287FF4E4AD354C2378CF
:107FE000002B40F02E81002315E1334A01210020AF
:107FF000FBF7D2FC0023C1E6304A01210020FBF749
:10800000CBFC012300222021BAE62D4A01210020C9
:10801000FBF7C2FC0023F5E72A4A01210020FBF709
:10802000BBFC012300220421AAE6274A01210020EB
:10803000FBF7B2FC0023F5E7244A01210020FBF7FF
:10804000ABFC0123002208219AE6214A01210020ED
:10805000FBF7A2FC0023F5E71E4A01210020FBF7F5
:108060009BFC0123002240218AE61B4A01210020BB
:10807000FBF792FC0023F5E73C0C0B008A0D0B008C
:10808000AF0D0B00903708209D370820703708206F
:10809000983708209C370820E20D0B007C37082019
:1080A00078370820B4380820080E0B006C370820F9
:1080B000190E0B00B0380820490C0B00540C0B00B3
:1080C000610C0B006C0C0B007A0C0B00860C0B0087
:1080D000940C0B00A00C0B00AD0C0B00614A0121AD
:1080E0000020FBF759FC01230022012148E65E4AEB
:1080F00001210020FBF750FC00231A46F5E75B4AFC
:1081000001210020FBF748FC01230022022137E671
:10811000574A01210020FBF73FFC0023F5E7554AB1
:1081200001210020FBF738FC01230022802127E6F3
:10813000514A01210020FBF72FFC0023F5E74F4AAD
:1081400001210020FBF728FC0123DFE54C4A012137
:108150000020FBF721FC00230122D8E5494A012138
:108160000020FBF719FC01230222D0E5464A012139
:108170000020FBF711FC0023F6E7444A0121002010
:10818000FBF70AFC01230422C1E5414A012100203A
:10819000FBF702FC0023F6E73E4A03210020FBF731
:1081A000FBFB022205A93C4804F022F80124FBE570
:1081B00063789DF81520134463700224F4E5013AB6
:1081C000D2B26270237801210092344AFBF7E4FBBB
:1081D000F7E53220F8F7F4FDE4E4314B002205A97D
:1081E0001868F9F767FF00283FF444AE059B002BA1
:1081F0003FF440AE04212B4A0320FBF7CDFB2A4B72
:108200002A481978059B984700283FF42DAE059A17
:10821000274B1A6001232370C4E498F8083112F840
:10822000011B08F80310013388F8083161E698F85B
:10823000083112F8011B08F80310013388F80831DF
:1082400069E6FFF761FC0146184801F03BFD8046F6
:108250000A20F8F7B5FD00232370B8F1000F7FF472
:10826000A1ACC0E6B80C0B00C80C0B00D60C0B0080
:10827000E60C0B00F40C0B00030D0B00100D0B00B3
:10828000220D0B00320D0B00440D0B00540D0B00A2
:10829000630D0B00700D0B008C370820C20D0B0016
:1082A00080370820F80D0B007C3708209D37082008
:1082B00078370820002337B5064D02AC44F8043D5A
:1082C000002221462868F9F7F5FE08B903B030BD51
:1082D00000BFF5E78037082037B53C4D2C78002CDF
:1082E00072D1224602211020F9F736FD0421384BC5
:1082F000224618600846F9F72FFD0421354B224627
:1083000018600846F9F728FD334B224618600C2107
:108310000220F9F721FD314B224618600C21022082
:10832000F9F71AFD02212E4B224618600846F9F78C
:1083300013FD2C4B2246186009210220F9F70CFD91
:10834000294B4FF448721860022328490093019486
:1083500023462748F8F7F8FA00F0DEF925491720F8
:10836000FBF7C0F924493220FBF7BCF92349292047
:10837000FBF7B8F922492720FBF7B4F9214921205E
:10838000FBF7B0F920492620FBF7ACF91F4928205C
:10839000FBF7A8F91E492D20FBF7A4F91D492E2053
:1083A000FBF7A0F91C493120FBF79CF91B492C2055
:1083B000FBF798F901F0ECFC01200322214628701C
:1083C000F9F7CAFC164B186003B030BD74370820AB
:1083D000AC380820803708209837082090370820CC
:1083E000B43808206C370820703708203A0E0B008C
:1083F000257B0A007D790A004D790A0019790A0067
:10840000ED780A0069780A0055780A003D840A0070
:10841000D1780A00B5780A0099780A0009790A002B
:1084200068370820272300B58BB0019068468DF887
:108430000030FBF773F90BB05DF804FB0378282BD1
:1084400005D14378182B02D10148FFF7EBBF7047E5
:1084500095780A0010B526248AB08DF804309DF86E
:1084600030308DF802008DF805309DF834306846C4
:108470008DF806309DF838308DF800408DF80730C3
:108480009DF83C308DF801108DF803208DF80830F0
:10849000FBF744F90AB010BD2B2300B58BB08DF863
:1084A00000309DF801308DF8022060F3030361F382
:1084B000871368468DF80130FBF730F90BB05DF893
:1084C00004FB2F2300B58BB08DF8010068468DF8B2
:1084D0000030FBF723F90BB05DF804FB282300B54F
:1084E0008BB08DF8010068468DF80030FBF716F967
:1084F0000BB05DF804FB2A2300B58BB08DF800307B
:1085000000238DF8020068468DF801308DF80310C5
:108510008DF80420FBF702F90BB05DF804FB2A2369
:1085200000B58BB08DF8003001238DF8020068464D
:108530008DF801308DF803108DF80420FBF7EEF86C
:108540000BB05DF804FB2A2300B58BB08DF800302A
:1085500002238DF8020068468DF801308DF8031073
:10856000FBF7DCF80BB05DF804FB252300B58BB0FE
:10857000ADF8020068468DF80030FBF7CFF80BB07D
:108580005DF804FB08B50920FFF78EF8122804D91E
:1085900009200121FFF78EF8012008BD034B1A784E
:1085A0001F2A84BF01221A7018787047CC3A08201D
:1085B0000023FF21074A82F8083182F80931D1549B
:1085C0000133B3F5847FFAD1002382F80A3182F8AF
:1085D0000B317047C0390820074B587993F80821B0
:1085E0000730811A93F80A314842484113B1032AEF
:1085F00088BF1846704700BFC039082038B5FFF75C
:10860000EBFFD8B1114B93F80A111A4611B193F848
:108610000B0138BD5879D1789B78441D0B44062155
:108620000344DBB2A1420ADDDB4310448179DBB2B3
:1086300099420CBF0120022082F80B0138BD555C25
:1086400001312B44DBB289B2ECE700BFC03908200E
:10865000F7B500264FF0D80E34464FF0AA0C284D3F
:10866000F7B2B94232D8F8F79BFA02210346254AFD
:108670000846FBF791F90026234FF3B29C4237D806
:108680000221224A0846FBF787F9214B2246186847
:108690001B49C36898470023FF22EA540133FE2B8D
:1086A000FBD11C4B1C68F8F77BFA002302460093B1
:1086B00001212046F9F73AF803B0F0BDD82A03D1DA
:1086C000DBB22A55EA540EE02A550DE0FD2CCAD83B
:1086D000825D631CC72AF1D1002FF5D0DBB205F80B
:1086E00004E005F803C01C460134E4B20136B7E7E4
:1086F0000221AB5D3A460846FBF74EF90136BCE76E
:10870000BC380820D60E0B00DE0E0B0058020B0002
:10871000B8380820BC39082013B50221134A08468E
:10872000FBF73AF9124A04210220FBF735F9114808
:10873000114B4E2218604FF4E131436998470024F1
:1087400002234FF448728DE818000C4923460C4868
:10875000F8F7FAF80B4B22460093A02123460A486B
:10876000F8F7BEFF094B186002B010BDA60E0B0053
:10877000BD0E0B00D4810720B8380820CB0E0B00AB
:1087800009880A00AF870A00260B0B00BC390820B5
:10879000212300B58BB08DF8010068468DF80030BC
:1087A0008DF80210FAF7BAFF0BB05DF804FB002158
:1087B0000220FFF7EDBF0B2300B58BB08DF8010051
:1087C00068468DF800308DF80210FAF7A7FF0BB05D
:1087D0005DF804FB2C2300B58BB08DF801006846D2
:1087E0008DF80030FAF79AFF0BB05DF804FB2223F6
:1087F00000B58BB08DF8010068468DF80030FAF7AF
:108800008DFF0BB05DF804FB02212DE9F043BB4A5C
:1088100087B00846BA4DFBF7BFF8C820F8F7D0FA82
:108820002E46FFF7C5FEB74C28680A2301220DF13A
:1088300017018069FCF759FF002800F0A4809DF81B
:108840001700C72801D1FFF7B3FE94F808312BB108
:108850006278CA2A23D00DD8C82A20D0E054013328
:1088600084F808312378C72B1EBF002384F8083111
:10887000237020E0F02A01D0FF2AEFD10122032B40
:1088800084F80A2173D1E070A278E178D243D2B2A1
:1088900091420CBF0122022284F80B21DEE7002264
:1088A00094F8091184F80A21002954D1D828D5D187
:1088B000012384F80931FFF78FFE0028B4D0F8F7C0
:1088C0006FF902210346904A0846FBF765F800233A
:1088D000DFF8508294F808215F1CDBB29A424AD834
:1088E00002218A4A0846FBF757F894F80831012B11
:1088F00004D9A3781F2B01D8854A1370FFF76CFEAB
:10890000002891D00520F8F75BFA94F80A71002F3F
:1089100042D00120FEF736F9FBF724F894F808312D
:10892000A778012B637898BFFF27FF2B2FD1FFF784
:1089300065FE01282BD1FFF73BFE39460020FFF7EB
:1089400027FF0A230093002372481A460321006878
:10895000F8F7ECFE68E7AA2804D0D82803D084F8FA
:108960000921A8E7C720002284F8092176E7022B15
:108970007FF674AF88E70221E35C42460846FBF7C6
:108980000BF83B46A6E70220F8F71AFAB6E7FFF71E
:108990000FFE39460120D2E7FFF730FED6F80080FF
:1089A0000128D8F8109040F0BF80FFF7F7FD01468E
:1089B000FFF7F4FDC043C0B2FF23C722019000912E
:1089C00040465549C847F8F7EBF80146FFF7E6FD82
:1089D0008046FFF7E3FDC043C0B20390FF23C720EA
:1089E0008DE809000B460221CDF808804B4A084665
:1089F000FAF7D2FFE378FF2B0ED0C32B55D018D84F
:108A0000B72B46D00BD8912B39D0B62B3DD0902B1D
:108A100017D1A079FFF762FDFFF7CAFD04E7C02B6D
:108A20003BD0C12B3DD0B82B0BD1204601F0E6FC4A
:108A3000F2E7D02B49D018D8C52B3ED039D3C62B5E
:108A40003FD0374A00210220FAF7A6FF0023DFF8C3
:108A5000D48094F808215F1CDBB29A4245D82B4A97
:108A600000210220FAF798FFD6E7E52B35D0E82B56
:108A700037D0D52BE5D1A079FFF7B9FECCE73A4640
:108A80003946A079FFF737FDC6E7204601F088FC9C
:108A9000C2E7204601F098FCBEE7204601F0C4FC86
:108AA000BAE7204601F0D4FCB6E7204601F0E2FC2C
:108AB000B2E7204601F008FDAEE7204601F00CFDCC
:108AC000AAE7204601F038FDA6E7A379E07900EB9C
:108AD000032080B2FFF749FD9EE7204601F02EFDFE
:108AE0009AE7204601F05CFD96E7E35C42460021F0
:108AF0000220FAF751FF3B46ABE700BF690E0B00BF
:108B0000B8380820C03908207B0E0B0058020B0033
:108B1000CC3A0820BC390820460E0B004F0E0B0043
:108B2000870E0B00DE0E0B00FFF738FD0146FFF746
:108B300035FDC043C0B2F023C722019000914046EA
:108B40000C49C847F8F72CF80146FFF727FD804687
:108B5000FFF724FDC043C722F023C0B28DE80C000C
:108B600003900B46CDF80880034A39460220FAF7F5
:108B700013FF51E7460E0B004F0E0B0010B52024DB
:108B80008AB08DF80430BDF830308DF802006846A8
:108B90008DF800408DF801108DF80320ADF80630F7
:108BA000FAF7BCFD0AB010BDF0B52C4A85B00E46F0
:108BB000044601210220FAF7EFFE294B1B78002B17
:108BC0000CBF02270327FFF7DDFCB742054643D35E
:108BD000032E41D8DFE806F002102332FEF794FF9F
:108BE000204B014653F825303A4600932046002397
:108BF00001F00CFA05B0F0BDFEF77CFF1A4B032123
:108C000003931A4B012253F82530029300238DE879
:108C10000A0002230146204601F03AFAEAE7FEF78D
:108C200069FF114B032203930E4B53F82530029337
:108C300000238DE80C0010230222EBE7FEF75AFF19
:108C4000094B032203930A4B53F825300293002368
:108C50008DE80C008023DDE70020CBE728130B0014
:108C6000F03A08207C8207201C100B0004150B0032
:108C7000601A0B0003780A2B0ED1C288074B1A80AA
:108C80000279074B1A70C278064B1A708278064B2D
:108C90001A704278054B1A70704700BFCA820720CD
:108CA000C9820720C8820720ED3A0820EF3A082041
:108CB0007FB501F08BFF0B2809D903238DF8003015
:108CC000FBF7F8FD8DF80800684601F0C5FF07B016
:108CD0005DF804FBF0B5574A85B004460F46022004
:108CE0000121FAF759FEFFF74DFC534B534A1B780D
:108CF00005461078002B0CBF0326042600B1013670
:108D0000052F00F29580DFE807F003111F364F7A38
:108D1000FEF7FAFE4A4B014653F8253032460093DF
:108D20002046022301F072F905B0F0BDFEF7E2FE25
:108D3000444B0393444B53F8253002930023019393
:108D4000012300931A4655E0FFF71CFC3F4B1B68BC
:108D50007BB13F4B53F82060FEF7CCFE3D4B002724
:108D600053F825300396029301238DE888000223EF
:108D7000E8E7394BEEE7FFF705FC06460220FEF771
:108D800093FC01280CBF354B354B53F82660FEF79A
:108D9000B1FE344B039653F825300026029301238D
:108DA0008DE848000323CDE7B3B9FFF7EBFB2E4B6B
:108DB0001B687BB1264B53F82060FEF79BFE2B4BC4
:108DC000039653F825300025029301238DE82800EF
:108DD0000423B7E7204BEEE7FEF78CFE244B03217C
:108DE0000393244B042253F82530029300238DE88B
:108DF0000A000F230146204601F04AF994E70028B3
:108E000092D0FFF7BFFB184B1B687BB1104B53F898
:108E10002060FEF76FFE154B012253F825300396B4
:108E2000029300238DE80C0005238BE70A4BEEE745
:108E3000002079E70F130B00EC3A0820EE3A0820E7
:108E400004150B0018FE0A007C190B00D03A08200C
:108E50000C1B0B00380F0B00D4130B006C140B0011
:108E600020100B0070120B00E03A0820BC120B001F
:108E70001C100B00840F0B00094B13B51860FFF793
:108E800019FA084B1C68F7F78BFE0523024600937E
:108E9000012100232046F8F749FC02B010BD00BFB5
:108EA000D83A0820E83A082008B5FFF703FA034B40
:108EB0001868BDE80840FFF7DFBF00BFDC3A0820B4
:108EC0000D4A0178136871B9022B01D80321116092
:108ED0001268003318BF0123003218BF01229342E9
:108EE00008D0FFF7E1BF0129EED00729F0D10BB17F
:108EF000591EECE7704700BFD03A082001780D4AB0
:108F00000F2913680ED1022B01D8032111601268BA
:108F1000003318BF0123003218BF0122934207D04B
:108F2000FFF7C2BF0729F2D1002BF0D0591EEDE7A1
:108F3000704700BFE03A08200122014B1A707047C9
:108F4000F03A08200122014B1A707047EE3A0820CF
:108F500082071FD16422B0FBF2F302FB13039BB222
:108F6000D3B94FF4C872B0FBF2F302FB130080B226
:108F7000B0FA80F040090B2912D8012303FA01F15D
:108F800011F4256F0AD14B070AD5002814BF1D2004
:108F90001C2070470020EEE70120ECE71E20704700
:108FA0001F20704710B51446FFF7D2FF24B1A0422E
:108FB00028BF2046C0B210BD012010BD2DE9F043EE
:108FC000037887B02A2B054640F091804378022B26
:108FD00040F08D8000F0B8FD0F287DD1EC78AD78A1
:108FE000F7F7DEFD434B02950093434A0346019495
:108FF00001210020FAF7D0FC404B414E1B78414D37
:109000009A1EDFF82881DFF828913F4F042A5DD8A7
:10901000DFE802F003313D4B540004F5FA642346C7
:109020003A4A01210020FAF7B7FC34803B78384AED
:10903000049399F800300121039398F80030002040
:1090400002932B780193338800932A4BFAF7A4FC00
:109050003C78297899F8003098F8002030880094FE
:1090600001F0C6FA2B48FFF707FF0F2007B0BDE855
:10907000F04300F039BD2346274A01210020FAF7CA
:109080008BFC0CB12C70D1E701232B70CEE723466B
:10909000224A01210020FAF77FFC224629783088F5
:1090A000FFF780FF88F80000C0E723461C4A012133
:1090B0000020FAF771FC89F80040B7E72346194A07
:1090C00001210020FAF768FC3C70AFE7164A012145
:1090D0000020FAF761FCA9E71038C0B26F2806D863
:1090E000A978E87807B0BDE8F04300F0E9BC07B024
:1090F000BDE8F083140F0B0061110B00D53A082076
:10910000CA820720C9820720EF3A082070110B009D
:10911000DD110B0035910A0081110B0092110B003B
:10912000A5110B00B5110B00C8110B00C882072058
:10913000ED3A08202DE9F04F89B08846054601F048
:109140003DF9002814BF4FF0060A4FF0070AFFF759
:1091500019FA654B654E1F88654B31781A780446BD
:109160003846FFF71FFF634B079093F800B0FFF7F7
:1091700009FA3246BBF1000F07D001265E4951F8CB
:109180002090C24506D2002019E05C495E4651F8A5
:109190002090F6E7B8F1070FF5D8DFE808F00413E0
:1091A000263D50617385FEF7AFFC554B014653F8E1
:1091B00024305246009328460F2300F027FF09B0C1
:1091C000BDE8F08FFEF796FC4E4B014653F8243075
:1091D000CDF80CB00193002300930123CDF8089043
:1091E0001A46284600F0AFFFE9E7FEF783FC80232C
:1091F00005930A230493444B30370293434BFFB249
:1092000053F82430039701930223009601461A462F
:10921000284601F04FF8D2E70792FEF76BFC0C23CB
:1092200005930023079A0493137800960393364B13
:109230000293374B53F8243001930323E6E7FEF7FC
:1092400059FC1F23059300230493079B0096039367
:109250002D4B02932F4B53F8243001930423D5E771
:10926000FEF748FC17230593002304932A4B1B7831
:1092700000960393244B0293284B53F82430019318
:109280000523C3E7FEF736FC3B2305930023049335
:10929000234B1B78009603931B4B0293214B53F8EF
:1092A000243001930623B1E701F088F800287FF409
:1092B0006AAF1D4B1B78A3B11C4B53F82460FEF71B
:1092C00019FC1B4B012253F8243001460293002362
:1092D0008DE80C00072303961A46284600F0D8FEB6
:1092E0006DE7144BE9E700BFCA820720C982072057
:1092F000C8820720E43A0820B8140B0020140B00A1
:10930000840F0B00C8190B001C100B00C01A0B00B7
:1093100088130B00D00F0B00ED3A082024120B002D
:10932000EF3A08203C130B00D43A0820B8100B0089
:10933000141A0B006C100B00194B2DE9F341187037
:1093400058B3184D2888A0F5FA63362B25D8DFF8D6
:109350006C8098F800104B1E0B2B1ED8124F3C78D7
:10936000DCB12246FFF71EFE844216D80F4C23784C
:10937000172B12D80E4E33783B2B0ED80D4B0E4ABE
:1093800001210020FAF708FB20782C883A7898F819
:10939000003031780094FFF7F1FB02B0BDE8F081B6
:1093A000E43A0820CA820720C8820720ED3A082044
:1093B000EF3A0820E30E0B00AC1A0B00C98207201D
:1093C000F0B5037885B02A2B044603D147781FB146
:1093D000012F0FD005B0F0BD8478002CFAD100F039
:1093E000C3FB204600F080FB4F4805B0BDE8F040CD
:1093F000FFF742BD00F0A8FB0F2800F28B8000F0C1
:10940000A3FB0228A57877D0E67824790AD30F2821
:109410002AD0019400962B46444A39460020FAF798
:10942000BBFAD7E715B90EB9012C0AD00F2C11D809
:10943000012C06D9022CCDD13D48FFF71DFD204659
:1094400003E03948FFF718FD002005B0BDE8F04003
:1094500000F04ABB2106BDD422463146284605B05D
:10946000BDE8F04000F098BAF7F79AFB314B03944F
:1094700000930296034601952F4A39460020FAF7D9
:109480008BFA0F2DA6D1012C16D12C4E2C4A3378F5
:1094900021460020FAF780FA307880F00100FFF7CB
:1094A0004BFF3378274A21460020FAF775FA264801
:1094B000FFF7E2FC0F20C8E7072C11D10121234A56
:1094C0000020FAF769FA224B197881F0010119702E
:1094D00021B100210846FFF76EF9E8E70120FAE71D
:1094E0001C4D2B78A3423FF475AF1B4A012100208D
:1094F000FAF752FA2C706DE7022D06D123790F2B63
:1095000003D1164B1B78002BD1D10948FFF7B4FCCF
:1095100002209AE702063FF55DAF227913063FF578
:1095200059AFE178A0789AE7A98B0A00DD040B0017
:10953000D58C0A00FD0E0B0004110B00E43A082044
:109540001C110B008E000B0035910A003C110B0022
:10955000D43A0820D53A08204C110B00EC3A0820E8
:1095600013B51A492A20FAF7BDF8194C19492A20CF
:10957000FAF7B8F818490A20FAF7B4F8214600209B
:10958000FAF7B0F821460120FAF7ACF82146134C5F
:109590000720FAF7A7F821460F20FAF7A3F821468B
:1095A0000720FAF79FF80E490720FAF79BF800F01A
:1095B000EBFA0C4B4FF4FA71009300230A481A4659
:1095C000F8F78EF8094B186002B010BDC1930A007D
:1095D000C18E0A00BD8F0A00758C0A00FD8E0A003C
:1095E000B18C0A0009960A0008130B00E83A08201B
:1095F000292300B58BB0019068468DF80030FAF74A
:109600008DF80BB05DF804FB10B5074C206848B12D
:10961000FFF7EEFF2068FFF7EBFF2268034B1A60AD
:109620000023236010BD00BFD83A0820DC3A082090
:109630002DE9F04186B006460D46FEF7A3FF04462D
:109640000A2D00F25B81DFE815F00B001A004000E4
:109650005B007D009B00B900F00015012F014B015C
:10966000FEF752FAA64B014653F824300A22009323
:109670003046102300F0CAFC06B0BDE8F081A14BD3
:10968000197801BB0320FEF715F80125FEF77AFFD4
:1096900007460320FEF708F801280CBF9A4B9B4BA6
:1096A00053F82770FEF726FA994B039753F82430A6
:1096B0000195029303230093012301461A46304685
:1096C00000F0E6FCD8E70025E0E70420FDF7ECFF1A
:1096D0000546FEF70FFA1E2305930023049300931B
:1096E00002238C4A039552F8242002928A4A52F8A7
:1096F0002420019201461A46304600F0DBFDBBE70C
:10970000FEF740FF05460520FDF7CEFF80B101289A
:1097100010D1824B53F82550FEF7ECF9804B03959E
:1097200053F8243002930023019303230093C4E7EA
:109730007C4BEFE77B4B0021052053F82550FDF7CC
:10974000B9FFE9E70620FDF7AFFF07460520FDF763
:10975000ABFF0546FEF7CEF93C230593002315F138
:10976000FF3518BF012504936F4B039753F824303E
:10977000009502936D4B53F8243001930423B9E70D
:109780000720FDF791FF07460520FDF78DFF0546F1
:10979000FEF7B0F93C230593002315F1FF3518BF00
:1097A00001250493604B039753F8243000950293EE
:1097B0005F4B53F82430019305239BE7FEF7E2FE4D
:1097C000054601F003FA0B282DD8DFE800F0061655
:1097D000181A1C1E282A20222426564B53F82550DE
:1097E000FEF788F9544B039553F824300025029373
:1097F00003238DE8280006235FE7504BEEE7504B2C
:10980000ECE7504BEAE7504BE8E7504BE6E7504BAC
:10981000E4E7504BE2E7504BE0E7504BDEE7504BBC
:10982000DCE7504BDAE7504DDAE70820FDF73CFF64
:109830004E4B53F824804E4B1F78B7B1012816D1F8
:1098400000254C4B53F82480FEF754F94A4B01464F
:1098500053F82430039701930723CDF8088000952F
:109860001A46304600F06FFC06E70125ECE70025BC
:109870002F46E9E7FEF786FE05460020FDF714FFB8
:109880000138012894BF3D4B3D4B53F82550FEF75E
:1098900031F93C4B039553F8243000240293032301
:1098A0008DE81800082308E7FEF76CFE0546002047
:1098B000FDF7FAFE012801D003280FD1324B53F8EF
:1098C0002550FEF717F9314B032153F82430039547
:1098D000029300238DE80A000923EEE62C4BEEE705
:1098E000FEF708F9204B032203932A4B53F8243048
:1098F000029300238DE80C000A23DEE60020BBE67D
:109900007C820720F23A0820E81F0B0034200B006D
:109910009C1F0B0018210B00381C0B00841C0B0033
:10992000C4230B0064210B005C240B0048220B00B5
:10993000B0210B0078230B0080200B00B41D0B001E
:10994000E81E0B001C1D0B00A01B0B00D01C0B0005
:10995000E0220B00681D0B00D8290B004C1E0B00E9
:109960008C290B00001E0B00981E0B00FC210B0025
:10997000F33A082094220B002C230B0040290B0003
:10998000501F0B00EC1B0B00CC200B00A8240B007D
:1099900010240B009C1E0B007FB540B94148FFF717
:1099A0006BFA102000F0A0F807B05DF804FB102857
:1099B000FAD1531E092B71D8DFE803F0057011703E
:1099C000701B2B3446650320FDF76EFE411CC9B2A7
:1099D000022908BF00210320FDF76CFEDEE7052009
:1099E000FDF762FE411CC9B2022908BF0021052013
:1099F000F2E701F0EBF80130C0B20C2828BF0020DC
:109A000003238DF8080068468DF8003001F024F932
:109A1000C4E70820FDF748FE10F1FF3118BF01210F
:109A20000820D9E70020FDF73FFE0138032803D8BE
:109A3000DFE800F008231C271B4B1C4A01210020F3
:109A4000F9F7AAFF032112E00020FDF72DFE0138EF
:109A5000032814D801A353F820F000BF839A0A000A
:109A60006D9A0A007B9A0A00459A0A00012100209B
:109A7000FDF720FE01F006FA90E70421F7E70C4B12
:109A8000DBE70221F3E70B4B0B4A01210020F9F73A
:109A900083FFFDF725FEFDF75DFA7FE7074B1A70A0
:109AA0007CE700BF31960A00581B0B00341F0B00E7
:109AB0006F1B0B00881B0B00D9FD0A00F13A082030
:109AC000084B01461B78042B06D0052B06D0022B31
:109AD00006D10420FDF7EEBD0620FBE70720F9E7DD
:109AE000704700BFF13A082010B40B4A0B49B2F995
:109AF0000030CC1814F8014C844200D123B9092B52
:109B0000C85403DC0133138010BC70470021044AA1
:109B1000084610BCF9F740BFF43A0820CC82072071
:109B2000242A0B00FF21064BB3F90020002AC4BFF2
:109B300002F1FF321A80B3F90030024AD154704763
:109B4000F43A0820CC820720054BB3F90020002A04
:109B5000C3BF044B9B1813F8010CFF20704700BFD4
:109B6000F43A0820CC8207200023FF21044A9954AC
:109B700001330A2BFBD10022024B1A80704700BF31
:109B8000CC820720F43A0820FFF7EEBF03781A2BA7
:109B900002BF4268014B1A60704700BFF83A0820C4
:109BA0000378072B04D1034A13780BB1013B1370E0
:109BB000704700BFD682072038B503780546102BC2
:109BC0001AD18378012B11D10C4A13700C4C69788F
:109BD0002278914207D00B4A01210020F9F7DCFEE0
:109BE0000948FEF71FFC6B78237005E0002BEDD1D0
:109BF000024B1B78002BE9D038BD00BFF63A082095
:109C0000D7820720492A0B008D9D0A0038B50378BA
:109C10000546162B0ED1084C41782278914207D088
:109C2000064A01210020F9F7B7FE0548FEF7FAFBC6
:109C30006B78237038BD00BFDA820720872A0B00BB
:109C40008D9D0A0038B503780546152B0ED1084CBA
:109C500041782278914207D0064A01210020F9F785
:109C60009BFE0548FEF7DEFB6B78237038BD00BF16
:109C7000D9820720742A0B008D9D0A0038B503781D
:109C80000546122B14D10B4C41782278914207D013
:109C9000094A01210020F9F77FFE0848FEF7C2FBC0
:109CA0006B782370FDF762F910B10A22044B1A7029
:109CB00038BD00BFD88207205F2A0B008D9D0A00A7
:109CC000D682072010B52C4B1C78002C4CD00023DA
:109CD000FF2480F8093100F20712431E03F8014FF8
:109CE0009A42FBD1C7220270C82200234270102280
:109CF00080F80A3180F80B310371204BC270204A82
:109D00001B781278002B817014BF002361231AB3D3
:109D100043F002031B4A12780AB943F00803837127
:109D2000194B15311B68C9B2C3F307220372002314
:109D30004372202383720523C271437100F10B0229
:109D4000831D9A420BD1C943C1720C2180F80811BE
:109D5000FEF77EFC012010BD43F00603DAE713F89E
:109D6000014B2144C9B2ECE7F9F7FCFD0120FCF7F7
:109D700009FF204610BD00BFD6820720D8820720E9
:109D8000DA820720D7820720F83A0820FFF79ABF27
:109D900008B50D491220F9F7A5FC0C491020F9F778
:109DA000A1FC0B491620F9F79DFC0A491520F9F78B
:109DB00099FC09491A20F9F795FCBDE808400749C4
:109DC0000720F9F78FBC00BF7D9C0A00B99B0A00F1
:109DD0000D9C0A00459C0A008D9B0A00A19B0A006D
:109DE000002310B5FF2480F80931421E00F207134A
:109DF00002F8014F9342FBD1C7230370C82343707D
:109E00001823C3700323002243710B4B80F80A21EF
:109E10001B7880F80B21C3710B441D3381700271D4
:109E20008271DB4302220A210272437280F8081118
:109E3000FEF70EFC012010BDFC3A082038B50023C7
:109E4000FF2480F8093100F20715431E03F8014F83
:109E50009D42FBD1C7250570C825457019250023F3
:109E6000C5700E2580F80A3180F80B3181700371BE
:109E700045711578273185715578C9B2C5719578C6
:109E80000572D5788372457255790373C572127A5B
:109E900083744273C3748473C47304744474831DE1
:109EA00000F11402934208D1C9430175152180F8CD
:109EB0000811FEF7CDFB012038BD13F8014B2144FA
:109EC000C9B2EFE738B50023FF2580F8093100F269
:109ED0000714431E03F8015F9C42FBD1C7240470A2
:109EE000C824002344701A248170C470037180F860
:109EF0000A3180F80B315378223183719378C9B2DB
:109F0000C371D3780372137943725379837293794F
:109F1000C372D3790373137A00F10E0243730823DB
:109F20004371831D934208D1C94381730F2180F887
:109F30000811FEF78DFB012038BD13F8014B2144B9
:109F4000C9B2EFE770B5417990F808418D1DA5427F
:109F500017D18378C2780B44134402790531134436
:109F60000622DBB2914206DADB430134435580F826
:109F70000841012070BD865C01323344DBB292B2ED
:109F8000F0E7002070BD0023FF2180F8083180F841
:109F9000093100F20712431E03F8011F9342FBD15F
:109FA000002380F80A3180F80B31704730B5144631
:109FB000A31ADBB2994200D830BD90F8083114F8EA
:109FC000015BC554013380F80831F1E710B590F812
:109FD0000A31044690F808110BB1032903D86379BC
:109FE00007338B4204D12046FEF732FB012010BD1F
:109FF0000021054A0846F9F7CFFC204694F80811DD
:10A00000FEF726FB002010BDB50B0B002DE9F0413B
:10A01000069E044690460D461F46FFF7B4FFC72331
:10A02000C82290F808012354431CDBB2E254831C7D
:10A030003022DBB2E5540025C31CDBB2E254411DE3
:10A04000031DDBB2C9B204F80380C21D6554811D33
:10A05000C9B2D2B2083004F80180A75484F80801CC
:10A06000304602F06DFA3246C1B22046FFF79EFF3D
:10A0700094F808312046E5545A1C053B84F8082121
:10A080006371FFF75FFF2046BDE8F041FFF79EBF19
:10A090002DE9F84F0C9F04468B46154699460D9EB8
:10A0A0009DF828A09DF82C80FFF76DFFC723CA22DA
:10A0B00090F808012354431CDBB2E2543022831C85
:10A0C000DBB204F803B0C31CDBB2E254031DDBB205
:10A0D000E5540025431D821DDBB2D2B2E55404F8DD
:10A0E00002A000F10803C21DDBB2D2B2093004F8AD
:10A0F000029004F8038084F80801384602F020FA40
:10A100003A46C1B22046FFF751FF94F80831304675
:10A11000E554013384F8083102F012FA3246C1B234
:10A120002046FFF743FF94F808312046E5545A1CB7
:10A13000053B84F808216371FFF704FF2046BDE862
:10A14000F84FFFF743BF2DE9F84FDDF82C800446A8
:10A150008B4615469A460C9F9DF828909DF83460D2
:10A16000FFF711FFC723CA2290F808012354431CAC
:10A17000DBB2E2543022831CDBB204F803B0C31C10
:10A18000DBB2E254031DDBB2E5540025431DDBB214
:10A19000E5540423821DD2B2A354C21D00F108036A
:10A1A000DBB2D2B2093004F802A004F8039084F8BC
:10A1B0000801404602F0C4F94246C1B22046FFF70A
:10A1C000F5FE94F808313846E554013384F8083137
:10A1D00002F0B6F93A46C1B22046FFF7E7FE94F81E
:10A1E000083120465A1CD2B2E554A5549A1CD2B26A
:10A1F000A654DA1C033B84F808216371FFF7A2FE22
:10A200002046BDE8F84FFFF7E1BE2DE9F047099F72
:10A2100004468A46154699469DF820809DF8286098
:10A22000FFF7B1FEC723CA2290F808012354431C4C
:10A23000DBB2E2543022831CDBB204F803A0C31C5F
:10A24000DBB2E254031DDBB2E5540025431DDBB253
:10A25000E5540523821DD2B2A354C21D00F10803A8
:10A26000DBB2D2B2093004F8029004F8038084F81B
:10A270000801384602F064F93A46C1B22046FFF7B9
:10A2800095FE94F8083120465A1CD2B2E554A554E4
:10A290009A1CD2B2A554DA1CD2B2A6541A1D023BA3
:10A2A00084F808216371FFF74DFE2046BDE8F047B2
:10A2B000FFF78CBE2DE9F74F0D9F04460D460E9E0D
:10A2C000019200939DF830B09DF83C809DF840A02D
:10A2D0009DF84490FFF757FE90F80811C7204FF003
:10A2E000CA0E6054481CC0B204F800E0881CC0B21A
:10A2F00025543025C81CC0B22554019A0025081DDC
:10A30000C0B2225406204A1DD2B2A5548A1DD2B230
:10A31000A054009BCA1DD2B2A35401F10803DBB2C2
:10A32000093104F803B0384684F8081102F008F93E
:10A330003A46C1B22046FFF739FE94F8083130465C
:10A34000E554013384F8083102F0FAF83246C1B21C
:10A350002046FFF72BFE94F8083120465A1C991C22
:10A36000D2B2C9B2E554A55404F801A0D91CC9B2AF
:10A370006554191DC9B204F80190591DC9B265543C
:10A38000991DC9B2073304F8018084F8083162715D
:10A39000FFF7D8FD204603B0BDE8F04FFFF716BE2B
:10A3A00037B5847A857904F5FA64437A027AC179FB
:10A3B00000942846FEF7E2FB03B030BD014B18784D
:10A3C000704700BFFD3A082010B5837904466BB989
:10A3D0000121074B074A19700220074BF9F7DCFAF5
:10A3E000217AE079BDE81040FEF7E5B910BD00BF65
:10A3F000FD3A0820AE2A0B009B2A0B0010B504463C
:10A400008379074A01210020F9F7C6FAA379BDE84C
:10A4100010401A2B96BF034A0120D05CFEF7DAB930
:10A42000E12A0B00C62A0B0030B5457B85B0C47904
:10A43000437A027A81790395057B0295C57A019565
:10A44000807A00902046FEF705F805B030BD000088
:10A4500010B50446064A01210020F9F79DFAA379B8
:10A46000022B04D1E079BDE81040FEF72AB810BDF8
:10A47000F42A0B00232300B58BB08DF800308379CC
:10A4800007308DF80130002310F8012B0DEB03018C
:10A490001D2B8A7011D100210A4A0846F9F77CFA6F
:10A4A0002E238DF81F308DF81E308DF81D30684634
:10A4B000F9F734F90BB05DF804FB0133002AE3D15E
:10A4C000F5E700BFFA2A0B008379027AC17903F01D
:10A4D0000F00FDF7E1BF0000242300B58BB08DF81D
:10A4E0000030837908308DF8013010F8013C8DF888
:10A4F0000230002310F8012B0DEB03011D2BCA7055
:10A5000014D100210B4A0846F9F746FA00238DF8CA
:10A5100020302E238DF81F308DF81E308DF81D3021
:10A520006846F9F7FBF80BB05DF804FB0133002A2D
:10A53000E0D1F5E7FA2A0B007047000070B5154A24
:10A54000044601210020F9F727FA0023124E94F85F
:10A5500008215D1CDBB29A4214D8104A0121002068
:10A56000F9F71AFAA37933B9E37923B9237A012BDE
:10A5700001D8FFF7D7FA227AE179A079BDE87040D7
:10A58000FDF7CDBFE35C324601210020F9F704FA64
:10A590002B46DCE71A2B0B00DE0E0B0058020B00DB
:10A5A00070B5104A044601210020F9F7F5F900239F
:10A5B0000D4E94F808215D1CDBB29A420AD80121A5
:10A5C0000A4A0020F9F7E8F9E179A079BDE870407E
:10A5D000FDF7B9BFE35C324601210020F9F7DCF951
:10A5E0002B46E6E71A2B0B00DE0E0B0058020B0081
:10A5F00030B4074C9DF8085024681CB10295A4465D
:10A6000030BC60472146204630BC024AF9F7C4B945
:10A61000003B0820252B0B0000230246FF2180F879
:10A620004630831C42F8403F03F8011B9342FBD1A4
:10A630009F2200230270022280F84930427080F885
:10A64000473080F84C3080F8483080F84A3080F845
:10A650004B3080F8441080F845307047F8B500233F
:10A660000B4C0C4E0C4F22785D1CDBB29A4206D884
:10A670000A4A0121BDE8F8400020F9F78DB9F35CE2
:10A680003A4601210020F9F787F92B46EBE700BF96
:10A690008C3C0820C43B0820772B0B0058020B0091
:10A6A00008B5F6F74DF80023054A1370054A1370F4
:10A6B0000122054B1A70BDE80840F6F751B800BFFB
:10A6C000703B0820183B0820DB82072010B5104C97
:10A6D0002378022B10D80F4A01210020F9F75CF9EA
:10A6E00023780D48013323700023BDE810401A463B
:10A6F00019460068F7F756BB084A01210020F9F710
:10A700004BF9FFF7ABFFBDE81040FFF7C9BF00BF33
:10A71000703B0820C62B0B00043B0820D02B0B00FD
:10A720000023F7B51A46224C22492078DDB2854233
:10A730003AD39F230B7002232270002003224B7018
:10A740001D4B93F844501F6C8D70C6B2BB5D013039
:10A750009F2B12BF13468B54531CBA5D08BFDBB24C
:10A76000C6B2CA54B54203F10102D2B2EDD29F2063
:10A7700088540322DD1C0233DBB2CA540F4BEDB206
:10A780001E68F6F70DFA00230246009301213046B9
:10A79000F6F7CCFF2A460A4B064918682570C368AD
:10A7A00003B0BDE8F0401847CA540133BEE700BF0C
:10A7B0008C3C0820C43B0820743B0820143B082034
:10A7C0000C3B082030B50D4B93F844001A6C93F8FD
:10A7D000451002445170002193F844204C1CC9B22A
:10A7E0008A4202F1010202D283F8442030BD186C83
:10A7F000415C855C694081542146EDE7743B08204B
:10A80000094A92F84430A3F13D01C9B2C1290AD9DD
:10A810000133116CDBB282F84430C85492F84530F1
:10A82000013382F845307047743B082010B5044668
:10A83000C0B2FFF7E5FFC4F30720FFF7E1FFC4F361
:10A840000740FFF7DDFF200EBDE81040FFF7D8BF3F
:10A85000036C587800F022BA036C5878003018BFA7
:10A86000012000F015BA00002DE9F043B94E8BB07D
:10A8700030684E2243694FF4E1319847B64CB74FE8
:10A8800000213868F7F7BEFC024600284CD0FFF7DD
:10A8900047FF30680A2301220DF10F018069FAF7A2
:10A8A00024FF002800F0788194F846209DF80F30AE
:10A8B000002A00F08E800022022B84F846206AD104
:10A8C0002046FFF7A9FE012384F8493094F8483068
:10A8D000002BDED094F84730002B00F0A2800A2332
:10A8E000009300239E481A4603210068F6F71EFFD6
:10A8F00094F84B30002B00F091809A4D2B78032B6D
:10A9000000F28580984A01210020F9F745F80023DC
:10A9100038681A461946F7F745FA2B7801332B7039
:10A920002046FFF779FEB4E7904D2B78002BB0D08E
:10A930008F4B04A91868F7F7BDFB0028A9D08D48F4
:10A94000FFF76AFE9DF81000FFF75AFF9DF81030E0
:10A95000042B19D009D8DBB1032B19D0FFF732FF34
:10A96000FFF7DEFE00232B7093E7172B0CD0182B7C
:10A970000ED0052BF2D19DF81800FFF741FF9DF88E
:10A980001900FFF73DFFE9E70598FFF74FFFF2E7F2
:10A990009DF81800F5E7032B07D194F84930002BF8
:10A9A00094D0012384F8483090E7062B05D1012389
:10A9B00084F84A3084F8473088E7152B03D1012307
:10A9C00084F84B30F6E79F2B09D02046FFF724FE92
:10A9D0007CE79F2B03D1012384F8463076E794F877
:10A9E0004420A2F13E01C9B2C0297FF66FAF94F8AE
:10A9F000491029B194F8451011B984F8453065E73C
:10AA0000216C0132D2B284F844208B545EE75A4A5A
:10AA100001210020F8F7C0FFFFF720FEFFF740FEFE
:10AA20007EE7206C94F845E00346724694F8445063
:10AA300000F141081FFA85FC191A89B2614505D851
:10AA400013F8011B984582EA0102F5D1AE4575D194
:10AA5000002A73D1494A04AB10685168082203C325
:10AA6000306804A9C368984794F8483043B1226C11
:10AA70001378042B2CD027D8012B43D0032B4ED096
:10AA80003F4A01210020F8F787FF94F8455094F8D9
:10AA90004830FF2D08BF002500933A4A2B4601217C
:10AAA0000020F8F779FF4FF00008DFF8E890033551
:10AAB0005FFA88F3AB4208F1010838DD324A012120
:10AAC0000020F8F769FF2BE7162B2CD0172BD7D1D6
:10AAD0000023D2F80150DFF8BC9094F8442003F131
:10AAE0000108DBB29A4211D8274A01210020F8F769
:10AAF00053FF002D3FF414AF236CDA1D9979587978
:10AB0000A8470DE72046FFF7A3FE09E7226C0121C5
:10AB1000D35C00204A46F8F73FFF4346DDE7527812
:10AB20001A4B1A70FCE62046FFF796FEF8E6E35C47
:10AB30004A4601210020F8F72FFFB9E7144A04AB79
:10AB400010685168082203C3306804A9C368984795
:10AB5000E6E600BF0C3B08201C3B0820043B082015
:10AB6000143B0820183B08207D2B0B00DB820720BC
:10AB70006C3B0820743B0820842B0B00542B0B00EB
:10AB8000A32B0B00B62B0B0058020B00113B082027
:10AB90004B2B0B00772B0B00094B1D786A1C1A708E
:10ABA000002D7FF46CAEF6F757FA63283FF667AED8
:10ABB000044B054A01212846F8F7EEFE5FE600BF88
:10ABC000103B08205D2B0B00F7000B00014B1878A1
:10ABD000704700BF113B082073B5154E34782CBB6D
:10ABE0000125144A144B15491A60154823464FF4A1
:10ABF000C87201940095F5F7A7FE22461821282077
:10AC0000F7F7AAF80F4B224618600F4BA0210093CC
:10AC10000E482346F6F764FD0D4B032218602146CB
:10AC20002846F7F799F80B4B3570186002B070BDE5
:10AC3000083B0820148207200C3B08206D2B0B00DA
:10AC400069A80A006C3B0820CDA60A00260B0B0061
:10AC5000143B0820043B082001460348002302223D
:10AC60000068F7F79FB800BF6C3B0820054B1B78C6
:10AC70002BB9054B1B7813B9044B187800B1012090
:10AC8000FCF7BCB98D3C08208E3C08208F3C082086
:10AC9000014B1870FFF7EABF8D3C082070B50646DF
:10ACA0000346684A01210020F8F776FE06F04403C7
:10ACB000442B19D10122644B1A70FFF7D7FF06F01D
:10ACC0007704032C614D1FD12B78042B11D8604AD7
:10ACD00001210020F8F760FE2B7801332B70002152
:10ACE000012000F0D1F83EE0002BE8D1564A137065
:10ACF000E3E7584A01210020F8F74EFE0122564BA7
:10AD00001A70FFF7B3FFEAE7544B1A7812B100222A
:10AD10002A701A70297800295FD004295BD808BFEF
:10AD200003234FF001014FF0030008BF2B7000F028
:10AD3000ABF84B4A01210020F8F72EFE2B78013B9F
:10AD40002B700022444B1A70FFF790FF402C01D06B
:10AD5000042CC4D10121084600F096F8414A012193
:10AD60000020F8F719FE302C3BD101213E4A00208B
:10AD7000F8F712FE0121022000F086F800210720DA
:10AD800000F082F8102C3BD10121384A0020F8F75E
:10AD900003FE0121062000F077F80021042000F0D6
:10ADA00073F8012C3BD12146314A0020F8F7F4FD1D
:10ADB0002146052006F0880600F066F8802E30D186
:10ADC00001212C4A0020F8F7E7FD0121082000F0BE
:10ADD0005BF8002131E00023B2E7032000F054F8D3
:10ADE000AFE70021022000F04FF8202CC6D101214E
:10ADF000214A0020F8F7D0FD0121072000F044F897
:10AE00000021062000F040F8022CC6D101211B4A87
:10AE10000020F8F7C1FD0121042000F035F80021E1
:10AE2000C7E70021082000F02FF8082ED1D101211A
:10AE3000134A0020F8F7B0FD0121BDE87040092059
:10AE400000F022B8DF070B008F3C0820DD820720CE
:10AE5000F92B0B00002C0B008E3C0820DC82072015
:10AE6000092C0B00102C0B00172C0B00252C0B00B1
:10AE7000322C0B00382C0B001D2C0B002B2C0B0044
:10AE8000412C0B007047704708B5034609282FD89E
:10AE9000DFE800F0050B0F13171A1E2124284FF4CA
:10AEA00000222D4B11B31A6308BD2C4B4FF080725A
:10AEB000F8E7294B4FF48022F4E7274B4FF48072D8
:10AEC000F0E7254B8022EDE7234B4FF40052E9E7F2
:10AED000224B4022E6E7214B1022E3E71E4B4FF4C2
:10AEE0008062DFE71C4B4FF40062DBE75A6308BD6A
:10AEF0001B4A01210020F8F74FFD4022174B5A63EF
:10AF000010225A634FF400025A634FF480025A63CE
:10AF10004FF080725A634FF40022C3F8342280222B
:10AF2000C3F834224FF40052C3F834224FF4802285
:10AF3000C3F834224FF48072C3F834224FF4806295
:10AF4000C3F834224FF08062C3F834224FF4006219
:10AF5000C3F8342208BD00BF00100E40000E0E40A2
:10AF60004C2C0B00F0B5114D8DB001AC06460F46D0
:10AF70000FCD0FC40FCD0FC495E80700002384E860
:10AF8000070001AA52F82300B7FBF0F0B0FBF6F07F
:10AF9000B0F5807F06D901330B2BF3D14FF6FF704C
:10AFA0000DB0F0BD40EA0320FAE700BF602C0B00B3
:10AFB00070B50C6806460D4644B120468968FFF717
:10AFC000D1FF4FF6FF73984204460CD0686840B139
:10AFD000A968FFF7C7FF4FF6FF73984205D044EA10
:10AFE000004434600024204670BD0446FBE74A68F4
:10AFF00030B58C8A02F00F0222430C898D7D2243EA
:10B000008C7A0B6842EA4422CC7D42EA054242EA4D
:10B0100044420C7E42EA844200EB4314C4F800220E
:10B02000CA68C4F804220A69C4F80C221DB1D1F818
:10B030001A20C4F81822CA7F02FA03F48A7F9A40C1
:10B0400042EA0442826491F8212002FA03F491F862
:10B0500020209A4042EA04424264012291F82240B0
:10B060009A4024B3046A1443046291F82440012CEA
:10B07000846E0CBF14439443846691F825401204F7
:10B08000012C846E0CBF224324EA0202032B826649
:10B090004FF0FF0491F823200DD8DB00C16E9C40D7
:10B0A00021EA04049A402243C266002030BD046AAB
:10B0B00024EA0204D8E7043BDB00016F9C4021EA4C
:10B0C000040402FA03F323430367EEE7CB689342D9
:10B0D0009FBF0B680A6100EB4310C0F8102294BFB9
:10B0E00000204FF6FF7070470B69934221BF0B6839
:10B0F000CA6000EB4310C0F808222CBF00204FF6B6
:10B10000FF707047012303FA01F14160704701238A
:10B1100003FA01F181607047C06970470123103262
:10B1200003FA02F203FA01F10A43026170470123B4
:10B13000103203FA02F203FA01F10A434261704746
:10B1400081F0004102E000BF83F0004330B54FEAD8
:10B1500041044FEA430594EA050F08BF90EA020F45
:10B160001FBF54EA000C55EA020C7FEA645C7FEAD8
:10B17000655C00F0E2804FEA5454D4EB5555B8BFFB
:10B180006D420CDD2C4480EA020281EA030382EA6C
:10B19000000083EA010180EA020281EA0303362DFE
:10B1A00088BF30BD11F0004F4FEA01314FF4801CD1
:10B1B0004CEA113102D0404261EB410113F0004FE3
:10B1C0004FEA03334CEA133302D0524263EB43039A
:10B1D00094EA050F00F0A780A4F10104D5F1200E38
:10B1E0000DDB02FA0EFC22FA05F2801841F1000193
:10B1F00003FA0EF2801843FA05F359410EE0A5F167
:10B2000020050EF1200E012A03FA0EFC28BF4CF097
:10B21000020C43FA05F3C01851EBE37101F000454D
:10B2200007D54FF0000EDCF1000C7EEB00006EEB5A
:10B230000101B1F5801F1BD3B1F5001F0CD34908E4
:10B240005FEA30004FEA3C0C04F101044FEA44523B
:10B2500012F5800F80F09A80BCF1004F08BF5FEAC2
:10B26000500C50F1000041EB045141EA050130BDA2
:10B270005FEA4C0C404141EB010111F4801FA4F145
:10B280000104E9D191F0000F04BF01460020B1FA9A
:10B2900081F308BF2033A3F10B03B3F120020CDAD2
:10B2A0000C3208DD02F1140CC2F10C0201FA0CF0B0
:10B2B00021FA02F10CE002F11402D8BFC2F1200C15
:10B2C00001FA02F120FA0CFCDCBF41EA0C019040CB
:10B2D000E41AA2BF01EB0451294330BD6FEA040414
:10B2E0001F3C1CDA0C340EDC04F11404C4F12002FF
:10B2F00020FA04F001FA02F340EA030021FA04F311
:10B3000045EA030130BDC4F10C04C4F1200220FA67
:10B3100002F001FA04F340EA0300294630BD21FAA5
:10B3200004F0294630BD94F0000F83F4801306BF6B
:10B3300081F480110134013D4EE77FEA645C18BF5F
:10B340007FEA655C29D094EA050F08BF90EA020FF6
:10B3500005D054EA000C04BF1946104630BD91EAEE
:10B36000030F1EBF0021002030BD5FEA545C05D1F1
:10B370004000494128BF41F0004130BD14F5800430
:10B380003CBF01F5801130BD01F0004545F0FE41A4
:10B3900041F470014FF0000030BD7FEA645C1ABFD9
:10B3A000194610467FEA655C1CBF0B46024650EA10
:10B3B000013406BF52EA033591EA030F41F400213C
:10B3C00030BD00BF90F0000F04BF0021704730B5C2
:10B3D0004FF4806404F132044FF000054FF0000197
:10B3E00050E700BF90F0000F04BF0021704730B558
:10B3F0004FF4806404F1320410F0004548BF40422D
:10B400004FF000013EE700BF42004FEAE2014FEA81
:10B4100031014FEA02701FBF12F07F4393F07F4F5C
:10B4200081F06051704792F0000F14BF93F07F4F8E
:10B43000704730B54FF4607401F0004521F00041D1
:10B4400020E700BF50EA010208BF704730B54FF057
:10B4500000050AE050EA010208BF704730B511F05C
:10B46000004502D5404261EB41014FF4806404F194
:10B4700032045FEA915C3FF4DCAE4FF003025FEA16
:10B48000DC0C18BF03325FEADC0C18BF033202EB9E
:10B49000DC02C2F1200300FA03FC20FA02F001FAF8
:10B4A00003FE40EA0E0021FA02F11444C1E600BF97
:10B4B00070B54FF0FF0C4CF4E06C1CEA11541DBF4A
:10B4C0001CEA135594EA0C0F95EA0C0F00F0DEF815
:10B4D0002C4481EA030621EA4C5123EA4C5350EAFA
:10B4E000013518BF52EA033541F4801143F480134B
:10B4F00038D0A0FB02CE4FF00005E1FB02E506F0DC
:10B500000042E0FB03E54FF00006E1FB03569CF030
:10B51000000F18BF4EF0010EA4F1FF04B6F5007F36
:10B5200064F5407404D25FEA4E0E6D4146EB0606A8
:10B5300042EAC62141EA55514FEAC52040EA5E5031
:10B540004FEACE2EB4F1FD0C88BFBCF5E06F1ED8DB
:10B55000BEF1004F08BF5FEA500E50F1000041EB12
:10B56000045170BD06F0004646EA010140EA0200BF
:10B5700081EA0301B4EB5C04C2BFD4EB0C0541EAE1
:10B58000045170BD41F480114FF0000E013C00F3F6
:10B59000AB8014F1360FDEBF002001F0004170BD1A
:10B5A000C4F10004203C35DA0C341BDC04F1140433
:10B5B000C4F1200500FA05F320FA04F001FA05F2BF
:10B5C00040EA020001F0004221F0004110EBD3708C
:10B5D00021FA04F642EB06015EEA430E08BF20EAB8
:10B5E000D37070BDC4F10C04C4F1200500FA04F35B
:10B5F00020FA05F001FA04F240EA020001F00041ED
:10B6000010EBD37041F100015EEA430E08BF20EA5F
:10B61000D37070BDC4F1200500FA05F24EEA020EA7
:10B6200020FA04F301FA05F243EA020321FA04F0D6
:10B6300001F0004121FA04F220EA020000EBD3708D
:10B640005EEA430E08BF20EAD37070BD94F0000F8D
:10B650000FD101F00046400041EB010111F4801FC1
:10B6600008BF013CF7D041EA060195F0000F18BF72
:10B67000704703F00046520043EB030313F4801FAE
:10B6800008BF013DF7D043EA0603704794EA0C0F68
:10B690000CEA135518BF95EA0C0F0CD050EA41067E
:10B6A00018BF52EA4306D1D181EA030101F00041FB
:10B6B0004FF0000070BD50EA410606BF1046194623
:10B6C00052EA430619D094EA0C0F02D150EA01362F
:10B6D00013D195EA0C0F05D152EA03361CBF104670
:10B6E00019460AD181EA030101F0004141F0FE410F
:10B6F00041F470014FF0000070BD41F0FE4141F493
:10B70000780170BD70B54FF0FF0C4CF4E06C1CEA92
:10B7100011541DBF1CEA135594EA0C0F95EA0C0F47
:10B7200000F0A7F8A4EB050481EA030E52EA033502
:10B730004FEA013100F088804FEA03334FF0805523
:10B7400045EA131343EA12634FEA022245EA111550
:10B7500045EA10654FEA00260EF000419D4208BF01
:10B76000964244F1FD0404F5407402D25B084FEAAE
:10B770003202B61A65EB03055B084FEA32024FF45A
:10B7800080104FF4002CB6EB020E75EB030E22BFB7
:10B79000B61A754640EA0C005B084FEA3202B6EB77
:10B7A000020E75EB030E22BFB61A754640EA5C0026
:10B7B0005B084FEA3202B6EB020E75EB030E22BFB6
:10B7C000B61A754640EA9C005B084FEA3202B6EBB7
:10B7D000020E75EB030E22BFB61A754640EADC0076
:10B7E00055EA060E18D04FEA051545EA16754FEAD8
:10B7F00006164FEAC30343EA52734FEAC2025FEAF6
:10B800001C1CC0D111F4801F0BD141EA00014FF084
:10B8100000004FF0004CB6E711F4801F04BF014355
:10B820000020B4F1FD0C88BFBCF5E06F3FF6AFAE71
:10B83000B5EB030C04BFB6EB020C5FEA500C50F101
:10B84000000041EB045170BD0EF0004E4EEA113184
:10B8500014EB5C04C2BFD4EB0C0541EA045170BD8B
:10B8600041F480114FF0000E013C90E645EA060ECF
:10B870008DE60CEA135594EA0C0F08BF95EA0C0FFD
:10B880003FF43BAF94EA0C0F0AD150EA01347FF445
:10B8900034AF95EA0C0F7FF425AF104619462CE71C
:10B8A00095EA0C0F06D152EA03353FF4FDAE10467F
:10B8B000194622E750EA410618BF52EA43067FF4D0
:10B8C000C5AE50EA41047FF40DAF52EA43057FF460
:10B8D000EBAE12E753B94AB9002908BF00281CBFD4
:10B8E0004FF0FF314FF0FF3000F07AB9ADF1080CA6
:10B8F0006DE904CE00F006F8DDF804E0DDE902238E
:10B9000004B070472DE9F0478C460E460446089D6A
:10B91000002B50D18A4217466CD9B2FA82FEBEF192
:10B92000000F0BD0CEF1200C01FA0EF620FA0CFC21
:10B9300002FA0EF74CEA060C00FA0EF43A0CBCFBC5
:10B94000F2F9BBB202FB19CC09FB03FA4FEA144827
:10B9500048EA0C46B2450AD9F61909F1FF3180F0E0
:10B960002581B24540F22281A9F102093E44A6EBAD
:10B970000A06B6FBF2F002FB106600FB03F3A4B26A
:10B9800044EA0644A34209D9E41900F1FF3280F0E9
:10B990000B81A34240F2088102383C440021E41AA2
:10B9A00040EA0940002D62D0002324FA0EF42C60F6
:10B9B0006B60BDE8F0878B4207D9002D55D0002180
:10B9C00085E841000846BDE8F087B3FA83F1002915
:10B9D00040F08F80B34202D3824200F2FC80841A8E
:10B9E00066EB03060120B446002D40D085E8101018
:10B9F000BDE8F08712B90127B7FBF2F7B7FA87FE67
:10BA0000BEF1000F35D10121F61B4FEA174C1FFA8A
:10BA100087F8B6FBFCF20CFB126608FB02F0230C65
:10BA200043EA0646B04207D9F61902F1FF3302D2C3
:10BA3000B04200F2D2801A46361AB6FBFCF00CFB7C
:10BA4000106608FB00F8A3B243EA0644A04507D9F4
:10BA5000E41900F1FF3302D2A04500F2B980184684
:10BA6000A4EB080440EA02409CE729462846BDE8CA
:10BA7000F08707FA0EF7CEF1200326FA03F24FEA19
:10BA8000174CB2FBFCF11FFA87F80CFB112206FAE7
:10BA90000EF620FA03F301FB08F933431E0C46EAC5
:10BAA0000246B14500FA0EF409D9F61901F1FF3248
:10BAB00080F08C80B14540F2898002393E44A6EB8B
:10BAC0000906B6FBFCF00CFB106200FB08F99EB205
:10BAD00046EA0246B14507D9F61900F1FF3371D2A3
:10BAE000B1456FD902383E44A6EB090640EA014150
:10BAF0008FE7C1F1200722FA07F88B4048EA0303D9
:10BB000026FA07F44FEA134EB4FBFEF91FFA83FC42
:10BB10000EFB19448E4020FA07F809FB0CFA48EA9C
:10BB200006084FEA184646EA0444A24502FA01F222
:10BB300000FA01F608D9E41809F1FF3044D2A24511
:10BB400042D9A9F102091C44A4EB0A04B4FBFEF09B
:10BB50000EFB104400FB0CFC1FFA88F848EA044472
:10BB6000A44507D9E41800F1FF3E29D2A44527D9FE
:10BB700002381C4440EA0940A0FB0289A4EB0C0CEB
:10BB8000CC45C246CE4615D312D055B1B6EB0A030A
:10BB90006CEB0E0606FA07F7CB401F43CE402F6032
:10BBA0006E600021BDE8F0871046F7E68946DEE6C4
:10BBB0004645EAD2B8EB020A69EB030E0138E4E726
:10BBC0007046D7E718468FE78146BDE7114676E70E
:10BBD00002383C4444E7084606E7023A3E442BE775
:10BBE000704700BF0028B8BF40427047024B0A466A
:10BBF0000146186800F002B8E082072010B502FB89
:10BC000001F100F053F80446D8B150F8042C22F0AA
:10BC10000302043A242A18D8132A14D900231B2A11
:10BC20000360436016D9242A8360C36011BF00F10A
:10BC300010020361436100F1180200231360536096
:10BC40009360204610BD0246F7E7002100F046FB56
:10BC5000204610BD00F10802EFE700BF70B50F4E9F
:10BC60000F4D761BB61018BF002405D0013455F8CF
:10BC7000043B9847A642F9D10A4E0B4D07F04CF908
:10BC8000761BB61018BF002406D0013455F8043BCB
:10BC90009847A642F9D170BD70BD00BF242F0B009C
:10BCA000242F0B002C2F0B00242F0B002DE9F04F1D
:10BCB00001F10B06162E83B0054640F29E8036F049
:10BCC000070600F1BD80B14200F2BA8000F054FBDB
:10BCD000B6F5FC7FC0F08582730A00F0B880042BB3
:10BCE00000F26C81B30903F1390003F1380EC10091
:10BCF000B84F39444C680839A14206D10CE0002AFB
:10BD000080F2AB80E468A14206D0636823F00303AD
:10BD10009A1B0F2AF3DD70463C69DFF8CCE27445CC
:10BD200000F09E81636823F003039A1B0F2A00F33F
:10BD30008381002AC7F814E0C7F810E080F29180F0
:10BD4000B3F5007F80F054810122DB0879684FEA67
:10BD5000A30C134457F8338002FA0CF207EBC30C20
:10BD60000A43ACF10801E160C4F808807A6047F842
:10BD70003340C8F80C40012483109C4094427DD885
:10BD8000144206D120F003006400144200F10400C4
:10BD9000FAD007EBC009CC468046DCF80C309C4555
:10BDA00007D15FE1002A80F26D81DB689C4500F0DD
:10BDB0005981596821F003018A1B0F2AF2DDDC68E2
:10BDC000D3F808C046F0010828461E4442F0010599
:10BDD000C3F80480CCF80C40C4F808C07E613E6112
:10BDE000C6F80CE0C6F808E075605A50009300F001
:10BDF000C9FA009B03F108041EE0102920D800F0C6
:10BE0000BBFA102618230220724F3B445C68A3F152
:10BE10000802944200F02F816368E16823F0030375
:10BE200023445A68A66842F00102F16028468E60F9
:10BE30005A6000F0A7FA0834204603B0BDE8F08F3E
:10BE400000240C2320462B6003B0BDE8F08F402077
:10BE50004FF400714FF03F0E4AE723445A68E168FF
:10BE6000E0E723445A68284642F001025A60083449
:10BE700000F088FA204603B0BDE8F08FBC68636824
:10BE800023F00308B04504D3A8EB06030F2B00F3FF
:10BE90008580DFF85891504BD9F800201B6801329B
:10BEA000334404EB080A00F0548103F580530F3348
:10BEB00023F47F6B2BF00F0B5946284600F068FAED
:10BEC000411C024600F0FB80824500F2F680434BA5
:10BED00019685944196000F04C81D9F8000001300C
:10BEE0001BBFA2EB0A0A5144C9F80020196012F0E6
:10BEF000070100F01481C1F10800C1F5805102442E
:10BF0000083102EB0B09C9F30B09A1EB09094946FA
:10BF100028460193009200F03BFA431C9DE80C0078
:10BF200000F04281801A484440F001001968BC4288
:10BF30004944BA601960506017D0B8F10F0F40F251
:10BF4000FA804FF0050C6268A8F10C0020F00700A1
:10BF500002F0010204EB000E02430F286260CEF8EB
:10BF600004C0CEF808C000F216811D4BBC681A68E8
:10BF7000914288BF19601B4B1A689142626888BF62
:10BF8000196022F003029642A2EB060301D80F2BA0
:10BF900004DC284600F0F6F900244DE746F00102E3
:10BFA00043F00103264462602846BE600834736093
:10BFB00000F0E8F9204603B0BDE8F08F142B70D9EB
:10BFC000542B00F2A280330B03F16F0003F16E0ECD
:10BFD000C1008DE610870720C03C0820903C082057
:10BFE000B83C0820BC3C082018870720188B072085
:10BFF0005A0A042A5BD9142A00F2AE8002F15C01CD
:10C00000C9005B3207EB010C7958ACF1080C8C4588
:10C0100000F088804A6822F00302934273D2896854
:10C020008C45F7D1DCF80C307A68E360C4F808C0BE
:10C030009C60CCF80C409EE646F0010C42F00101F9
:10C040002644C4F804C028467E613E61C6F80CE070
:10C05000C6F808E07160E25000F094F90834EBE6AD
:10C060007A6888E608F1010818F0030F0CF1080C53
:10C070007FF493AE2DE0DC68A34208BF02303FF4AA
:10C080004BAEC9E61C4619444A68DB6854F8086F91
:10C0900042F001024A602846F3609E6000F072F9A7
:10C0A000CAE603F15C0003F15B0EC10020E69A09C9
:10C0B00002F13901C9003832A4E7BC4254D0BC684F
:10C0C000626822F003025EE759F80839994540F0AA
:10C0D000868010F0030F00F1FF30F5D17B6823EA72
:10C0E00004037B6064009C423FF6C8AE002C3FF422
:10C0F000C5AE1C4240467FF44CAE64001C4200F1C9
:10C100000400FAD045E68C468CE7B3F5AA7F15D833
:10C11000F30B03F1780003F1770EC100E8E54FF46B
:10C120008051EEE601217B68921001FA02F21A4377
:10C130007A60634679E7012353602AE740F254525C
:10C14000934222D8B30C03F17D0003F17C0EC100B1
:10C15000CEE503F1100BAFE6542A29D81A0B02F1F1
:10C160006F01C9006E324DE7204B196859441960C0
:10C17000B3E6CAF30B0000287FF4AFAE08EB0B0365
:10C18000BA6843F001035360EFE67F204FF47E71FD
:10C190004FF07E0EACE504F108012846009302F052
:10C1A000D3FD009B1968E0E601204FF00009BDE6D1
:10C1B000B2F5AA7F05D8DA0B02F17801C90077320F
:10C1C00020E740F254518A4205D89A0C02F17D01D1
:10C1D000C9007C3216E74FF47E717E2212E77B683D
:10C1E00080E7F00806F108030EE600BF903C082047
:10C1F000844641EA000313F0030349D1403A23D3B4
:10C200000B6803604B6843608B688360CB68C360D6
:10C210000B6903614B6943618B698361CB69C361BE
:10C220000B6A03624B6A43628B6A8362CB6AC362A6
:10C230000B6B03634B6B43638B6B8363CB6BC3638E
:10C2400040304031403ADBD230320BD30B680360D0
:10C250004B6843608B688360CB68C36010301031DB
:10C26000103AF3D20C3205D351F8043B40F8043BAA
:10C27000043AF9D2043208D0D2071CBF11F8013BAE
:10C2800000F8013B01D30B8803806046704700BF74
:10C29000082A13D38B07B1D010F00303AED0C3F13B
:10C2A0000403D21ADB071CBF11F8013B00F8013B65
:10C2B000A4D331F8023B20F8023B9FE7043AD9D3DC
:10C2C000013A11F8013B00F8013BF9D20B780370F9
:10C2D0004B7843708B7883706046704770B48607E4
:10C2E00046D0541E002A41D0CAB2034602E014F1DF
:10C2F000FF343BD303F8012B9D07F8D1032C2ED933
:10C30000CDB245EA05250F2C45EA054519D9264643
:10C3100003F11002103E0F2E42F8105C42F80C5C44
:10C3200042F8085C42F8045C02F11002F2D8A4F171
:10C33000100222F00F0204F00F041032032C1344F9
:10C340000DD91E462246043A032A46F8045BFAD861
:10C35000221F22F003020432134404F003042CB120
:10C36000C9B21C4403F8011B9C42FBD170BC70474E
:10C3700014460346C2E700BF014802F0EBBD00BF10
:10C38000D43C0820014802F0E7BD00BFD43C08209F
:10C3900038B50023064C054608462360F3F7DCFF5A
:10C3A000431C00D038BD2368002BFBD02B6038BD68
:10C3B000E83C08200EB40146F0B56FF000454FF49C
:10C3C00002774FF6FF769CB021AC54F8042B0B4B50
:10C3D00002910691186802A923460194ADF81470E1
:10C3E00004950795ADF8166000F0B4F90022029BA1
:10C3F0001A701CB0BDE8F04003B07047E08207201F
:10C40000F8B507460E4617F8014B02F087FD2044A9
:10C41000437816F8015B03F00303012B08BF2034B7
:10C4200002F07CFD2844437803F00303012B04D081
:10C43000601B01D1002DE6D1F8BD05F12000201AC6
:10C44000E1D0F8BD830710B5044610D10268A2F10F
:10C45000013323EA020313F0803F08D150F8042F80
:10C46000A2F1013323EA020313F0803FF6D00378F0
:10C470001BB110F8013F002BFBD100F003F8204660
:10C4800010BD00BF80EA0102844612F0030F4FD1B5
:10C4900011F0030F32D14DF8044D11F0040F51F893
:10C4A000043B0BD0A3F101329A4312F0803F04BF4A
:10C4B0004CF8043B51F8043B16D100BF51F8044B33
:10C4C000A3F101329A4312F0803FA4F101320BD163
:10C4D0004CF8043BA24312F0803F04BF51F8043BE8
:10C4E0004CF8044BEAD023460CF8013B13F0FF0F45
:10C4F0004FEA3323F8D15DF8044B704711F0010F78
:10C5000006D011F8012B0CF8012B002A08BF704748
:10C5100011F0020FBFD031F8022B12F0FF0F16BF3F
:10C520002CF8022B8CF8002012F47F4FB3D1704707
:10C5300011F8012B0CF8012B002AF9D1704700BF2C
:10C5400020F0030110F00300C0F1000051F8043B9B
:10C5500000F1040C4FEACC0C6FF000021CBF22FA71
:10C560000CF213434FF0010C4CEA0C2C4CEA0C4C2F
:10C57000A3EB0C0222EA030212EACC1204BF51F828
:10C58000043B0430F4D0C2F1000102EA0102B2FA25
:10C5900082F2C2F11F0200EBD200704740EA0103B1
:10C5A00013F0030F70B4034624D0A2B10C78013A03
:10C5B0001C70013101333CB16AB111F8014B013AF1
:10C5C00003F8014B002CF7D12AB100211A4403F8DB
:10C5D000011B9A42FBD170BC70470E4651F8045BB8
:10C5E000A5F1013424EA050414F0803F05D1043A92
:10C5F00043F8045B032AF0D8D7E73146D6E700BFFB
:10C600002DE9F84FDDF828900F46804616461D4666
:10C610008A4600E0A2465446484614F801BB02F0A0
:10C6200079FC5844427812F00802F3D1BBF12D0F87
:10C630004FD0BBF12B0F04BF94F800B00AF10204F5
:10C640001DB1102D56D0AC4604E0BBF1300F60D0C8
:10C650000A25AC46002A0CBF6FF000494FF0004994
:10C660000021B9FBFCFE08460CFB1E9A05E029D010
:10C6700001210CFB003014F801BBABF13003092B96
:10C6800005D9ABF14103192B0BD8ABF137039D4210
:10C690000FDDB1F1FF3FEED08645E8D24FF0FF311C
:10C6A000E9E7ABF16103192B03D8ABF157039D42C6
:10C6B000EFDC4B1C13D002B1404246B1C1B9376028
:10C6C000BDE8F88F9A45D3DA4FF0FF31D3E7BDE8E4
:10C6D000F88F94F800B001220AF10204B0E7222397
:10C6E000C8F80030EEB1671E48463760BDE8F88FE5
:10C6F0008146F8E7BBF1300FA5D1237803F0DF03C3
:10C70000582BA0D14FF0100C94F801B065460234BC
:10C71000A0E7237803F0DF03582BF3D00825AC46BD
:10C7200098E74846BDE8F88F084B70B51D68084E7D
:10C730006C6B82B0002C08BF3446134600940A4646
:10C7400001462846FFF75CFF02B070BDE08207207B
:10C75000248B07202DE9F04FC3B00C460B91924675
:10C760000F930C9002F0E8FB036818461A93FFF74A
:10C77000E7FEA3891990190603D52369002B01F060
:10C78000358000230DF1C809C846159313931493FF
:10C7900018931B9309931693179327932693CDF819
:10C7A00094909AF800305446EBB1252B02D11AE050
:10C7B000252B03D014F8013F002BF9D1A4EB0A0577
:10C7C0008DB1269B279A01332A44072BC8F800A075
:10C7D000C8F804502792269300F38A8008F10808CD
:10C7E000099B2B4409932378002B00F089800023B8
:10C7F0004FF0FF301A468DF8773019460D939B465F
:10C80000637804F1010A0A900AF1010AA3F12000F9
:10C81000582800F2B783DFE810F04C03B503B503E6
:10C820005403B503B503B503B503B503B503590008
:10C830005903B50366001402B5032F02A503A5032F
:10C84000A503A503A503A503A503A503A503B50398
:10C85000B503B503B503B503B503B503B503B50318
:10C86000B5038B02D302B503D302B503B503B503F9
:10C87000B5031B03B503B5032003B503B503B50327
:10C88000B503B5033402B503B5034B02B503B503D5
:10C89000B503B503B503B503B503B503B503B503D8
:10C8A00076029E03D302D302D30263039E03B50331
:10C8B000B5036803B5037503DD018C035E03B5039F
:10C8C000F201B5038700B503B50332030F9C23685B
:10C8D00018460D932346002803F104030F9304DA4E
:10C8E0000D9B5B420D934BF0040B9AF800308BE7E5
:10C8F00025AA0B990C9802F089FE40B9C8466FE74B
:10C90000279B23B10C9825AA0B9902F07FFE0B9B65
:10C910009B8913F0400F099B18BF4FF0FF33099319
:10C92000099843B0BDE8F08F1BF0200F119340F041
:10C93000AF810F9A1BF0100F134640F09A851BF041
:10C94000400F00F0968500250123148804320F92D1
:10C95000002217468DF877200A994A1C00F01082B1
:10C960002BF08002079254EA050240F00F82002962
:10C9700040F03184002B40F039851BF001030E9309
:10C9800000F06286302342AE06F8413D0A9B0E9AC3
:10C990009342B8BF134608930023129317B1089B24
:10C9A00001330893079B13F00203109302D0089BF6
:10C9B00002330893079B13F0840540F010830D9B0E
:10C9C000089AA3EB020BBBF1000F40F30883BBF105
:10C9D000100F40F3B287279C43462146A8461027F4
:10C9E000269A0C9C0B9D06E0ABF1100BBBF1100FCF
:10C9F00003F1080318DD0132AB481031072A2791F3
:10CA0000269283E88100EFDD25AA2946204602F020
:10CA1000FDFD00287FF47BAFABF1100BBBF1100FD5
:10CA20004B462799269AE6DC45460C469846013245
:10CA30009D4B5C44072A2794269288E8080800F357
:10CA4000C3829DF8777008F1080887B10121269B01
:10CA50000C440B440DF17702072B27942693C8F85A
:10CA60000410C8F8002000F3CD8308F10808109BDB
:10CA70007BB10221269B0C4401331EAA072B27946D
:10CA80002693C8F80410C8F8002000F3118408F1B8
:10CA90000808802D00F004830A9B0E9A9F1A002F2D
:10CAA00037DD102F40F37986804D42462146B0464F
:10CAB0004FF0100B2E46269B0C9C0B9D04E0103F64
:10CAC000102F02F1080215DD01331031072B2791D9
:10CAD000269382E84008F2DD25AA2946204602F086
:10CAE00095FD00287FF413AF103F102F4A46279979
:10CAF000269BE9DC35460C464646904601333C44CD
:10CB0000072B2794269388E8A00000F3708308F190
:10CB10000808079BDF0500F16482269B0E9901330C
:10CB20000C44072B2794C8F80060C8F8041026931B
:10CB300000F3B38308F10808079B5B073BD50D9B07
:10CB4000089A9D1A002D36DD102D40F321871026FE
:10CB5000269B0C9FDDF82CB004E0103D102D08F151
:10CB6000080816DD0133504A1034072B279426930A
:10CB700088E84400F1DD25AA5946384602F046FD12
:10CB800000287FF4C4AE103D102DC846279C269B7C
:10CB9000E8DC0133444A2C44072B2794269388E889
:10CBA000240008DD25AA0B990C9802F02FFD00281F
:10CBB0007FF4ADAE279C099B0D9A08998A42ACBFC1
:10CBC0009B185B180993002C40F0FB820023C84699
:10CBD0002693E6E511931BF0200340F045811BF0FE
:10CBE000100240F066841BF0400300F062840F994D
:10CBF00013460A4604320C8800250F92A8E6002549
:10CC00000F9A119316688DF87750141D002E00F0BE
:10CC1000CD860A9A531C00F01B862946304602F046
:10CC2000B3F9002800F00D87831B0A950E930F942B
:10CC3000CDF81CB023EAE373089312959DF8777042
:10CC4000ACE69AF800300AF101042A2B00F0C28702
:10CC5000A3F130000928A24600F2188700231C46E1
:10CC60001AF8013B04EB840400EB4404A3F1300008
:10CC70000928F5D90A94C9E54BF0800B9AF80030E1
:10CC8000C2E54BF0100B1BF0200F11933FF451AE97
:10CC90000F9C073424F0070303F10802D3E9004591
:10CCA0000F92012354E600BFD42C0B00E42C0B00A0
:10CCB0001193002A40F0AD87BE4B1BF0200F189354
:10CCC00040F0E7800F9A1BF0100F134640F0D88316
:10CCD0001BF0400F00F0D4830025043314880F9319
:10CCE0001BF0010F00F0E38054EA050300F0DF8041
:10CCF00030239DF844208DF878308DF879204BF062
:10CD0000020B022324E601221193002311460F98FF
:10CD1000089202681F468DF877300A931293031D1C
:10CD2000CDF81CB00E918DF8A0200F9328AE39E6F7
:10CD30001193002A40F084874BF0100B1BF0200F5A
:10CD400040F075840F9A1BF0100F134640F09D833E
:10CD50001BF0400F00F09983B2F900400433E5174F
:10CD60000F9322462B46002A73F10003C0F29883EA
:10CD70000A999DF877704A1C4FF001037FF4F0ADDB
:10CD800054EA050200F02982CDF81CB0012B00F016
:10CD90000E83022B40F09C824E461898230943EAEA
:10CDA0000573290904F00F020D461C46835C06F842
:10CDB000013D54EA0503F1D1A9EB06030E93E5E525
:10CDC0001193002A40F038870F9C1BF0080F04F1E4
:10CDD000070400F0CF8424F0070303F108020F9248
:10CDE0001A685B6815921493149B159D23F00044F8
:10CDF000284621464FF0FF326F4B02F095FF002886
:10CE000040F03484284621464FF0FF326A4B02F04E
:10CE10006DFF002840F02A8415A80DC8149902F06F
:10CE20005BFF002840F0D4859DF8777003231A46F5
:10CE300008930023614E19460A93614B0E92119A92
:10CE40002BF0800007901291472AD8BF1E46A5E517
:10CE50004BF0080B9AF80030D6E44BF0100B11930E
:10CE60001BF020033FF4BBAE0F9C073424F00703F4
:10CE700003F10802D3E900450F92002368E51193FE
:10CE8000002A40F0C2864F4B1BF0200F18933FF44E
:10CE900019AF0F9C1BF0010F04F1070424F00703E6
:10CEA00003F108020F92D3E900457FF41DAF02237E
:10CEB0004EE59AF8003000297FF4A6AC012220212B
:10CEC000A2E44BF0010B9AF800309DE49AF8003090
:10CED00001222B2198E44BF0200B9AF8003093E4C8
:10CEE0004BF0400B9AF800308EE49AF800306C2B2F
:10CEF00003BF9AF801304BF0200B0AF1010A4BF006
:10CF0000100B81E4002A40F07C861BF0200F40F0DB
:10CF100052841BF0100F40F038841BF0400F00F0DB
:10CF200034840F9A136804320F92BDF824201A80BB
:10CF300037E4782330220F988DF879301193031D50
:10CF40000F93204B046818934BF0020B8DF8782058
:10CF500000250223FCE41193002A3FF4EFAE8DF884
:10CF60007710EBE600200446A3F130001AF8013BED
:10CF700004EB840400EB4404A3F130000928F5D944
:10CF80000D9443E41193002A40F04A86119A002A36
:10CF90003FF4B6AC002301211F4608918DF8A02074
:10CFA000CDF81CB08DF877300A9312930E9128AE0D
:10CFB000F8E400BFA02C0B00FFFFEF7F942C0B00C8
:10CFC000902C0B00B42C0B0025AA0B990C9802F0A6
:10CFD0001DFB00287FF49BACC8469DF87770279C0A
:10CFE00033E5119B652B40F39A8015A80DC8149961
:10CFF00002F068FE002800F093810121269BB54ACB
:10D000000B440C44072B27942693C8F80410C8F847
:10D01000002000F3C68308F108081F9B139A279C81
:10D02000934203DB079BDD077FF586AD269B1999AD
:10D0300001331A9A0C44072BC8F80020C8F80410D2
:10D040002794269300F3C48308F10808139B5E1EFF
:10D05000002E7FF771AD102E40F375852246102704
:10D06000269B9D4DDDF830B00B9C05E008F10808CB
:10D07000103E102E40F3258201331032072B2792E9
:10D08000269388E8A000F1DD25AA2146584602F043
:10D09000BDFA00287FF43BACC846279A269BE7E7F9
:10D0A0000D9B089A9F1A002F7FF7F6AC102F40F3C4
:10D0B000A884894D42462146B0464FF0100B2E46BB
:10D0C000269B0C9C0B9D04E0103F102F02F10802E0
:10D0D00015DD01331031072B2791269382E8400894
:10D0E000F2DD25AA2946204602F090FA00287FF4B6
:10D0F0000EAC103F102F4A462799269BE9DC354697
:10D100000C464646904601333C44072B2794269311
:10D1100088E8A00000F39E8208F10808BCE4139B95
:10D12000012B40F34F820123269F1C441F44072FED
:10D130002794C8F800602697C8F8043000F35F828F
:10D1400008F10808199A01371A9B1444072F2794ED
:10D150002697C8F80030C8F8042000F35C8208F174
:10D16000080815A80DC8149902F0ACFD139B0028FF
:10D1700040F04181013B013701361C44072FC8F8BC
:10D18000006026972794C8F8043000F3668108F100
:10D1900008081B9A0137144421AB072F27942697C0
:10D1A000C8F80420C8F800307FF7C4AC25AA0B9952
:10D1B0000C9802F02BFA00287FF4A9ABC846279CF4
:10D1C000BAE425AA0B990C9802F020FA00283FF443
:10D1D000FDACFFF79CBBDDF81CB0012B00F07E819D
:10D1E000022B71D1CDF81CB000240025D4E525AA6E
:10D1F0000B990C9802F00AFA00287FF488ABC84615
:10D20000279C86E425AA0B990C9802F0FFF90028C8
:10D210007FF47DABC846279C29E40120269B2D4A3C
:10D2200003440444072B27942693C8F80400C8F845
:10D23000002040F3D88225AA0B990C9802F0E6F959
:10D2400000287FF464ABC8461F99279C29B9139B1B
:10D250001BB9079BD8077FF56FAC1998269B024630
:10D26000013322441A9C072B2792C8F80040C8F8C3
:10D270000400269300F3318408F108080029C0F265
:10D280000984139901338C18072B27942693C8F827
:10D290000060C8F804107FF74DAC25AA0B990C98D4
:10D2A00002F0B4F900287FF432AB279CC84643E46F
:10D2B00025AA0B990C9802F0A9F900287FF427AB56
:10D2C000C846279CFFF7E5BB00240025CDF81CB01D
:10D2D000494604E0D02C0B00E42C0B003146E20858
:10D2E00042EA4572E80804F0070305461446303365
:10D2F00054EA050201F8013C01F1FF36EED1079A2C
:10D30000D2077FF559AD302B3FF456AD30230239AB
:10D3100006F8013CA9EB01030E930E46FFF736BB5E
:10D320001F9900297FF779AF129B139A9342A8BFE8
:10D330001346002B1F460BDD269B3C440133072B75
:10D34000279488E8C000269300F3FB8208F10808C0
:10D35000129B002FA8BFDB1B002B1F4640F3D7807A
:10D36000102B40F33484BA4D42462146B0464FF06C
:10D37000100B2E46269B0C9C0B9D04E00832103FA0
:10D38000102F40F3B58001331031072B27912693DE
:10D3900082E84008F2DD25AA2946204602F036F947
:10D3A00000287FF4B4AA4A462799269BE7E7002D78
:10D3B00008BF0A2CC0F090804E46204629460A221B
:10D3C0000023FEF787FA303206F8012D2046294661
:10D3D00000230A22FEF77EFA04460D4654EA0503AE
:10D3E000EBD1A9EB06030E93FFF7D0BA0A9B4E468A
:10D3F0000E93FFF7CBBA5E1E002E7FF7CAAE102E3B
:10D4000040F3E38322464FF0100B914D0C9C04E057
:10D41000103E102E08F1080815DD01371032072FD5
:10D420002792269788E82008F2DD25AA0B99204646
:10D4300002F0ECF800287FF46AAA103E102EC846CD
:10D44000279A269FE9DC144601373444072F279496
:10D45000269788E860007FF79AAE25AA0B990C986A
:10D4600002F0D4F800287FF452AA279C269FC846D1
:10D470008FE604321C68002501230F92FFF768BA7B
:10D480001C6804330F9300252AE41C680433E51755
:10D4900022460F932B46002A73F10003BFF668ACB7
:10D4A0002D27644265EB45058DF877700123FFF762
:10D4B00053BA0F9900250A4604320C680F92FFF701
:10D4C00047BA144601333444072B2794269388E83F
:10D4D00060007FF72FABE0E6DDF81CB0012342AE21
:10D4E0003034CDF81CB006F8414D0E93FFF74EBA1C
:10D4F00035460C464646904601333C44072B27945C
:10D50000269388E8A00000F3468208F108081F9AD5
:10D51000139B9A4245DB079BD90742D4139B129871
:10D520009A1A1D1A9542A8BF1546002D0EDD2699A0
:10D53000064401312C440729C8F800602794C8F834
:10D540000450269100F3168208F10808002DB4BF9C
:10D550001646561B002E7FF7EFAA102E40F3F382DB
:10D5600022461027269B3A4DDDF830B00B9C04E094
:10D5700008F10808103E102EA3DD01331032072BEE
:10D580002792269388E8A000F2DD25AA2146584676
:10D5900002F03CF800287FF4BAA9C846279A269BD7
:10D5A000E8E7269B199801331A990444072B27941E
:10D5B000C8F80010C8F80400269300F3CF8108F1E2
:10D5C0000808ABE7079BDA073FF5ADAD0123269FBF
:10D5D0001C441F44072F2794C8F800602697C8F8FA
:10D5E00004307FF7D4AD25AA0B990C9802F00EF801
:10D5F00000287FF48CA9C846279C269FC9E525AA48
:10D600000B990C9802F002F800287FF480A9C84614
:10D61000279C269F96E525AA0B990C9801F0F6FF0A
:10D6200000287FF474A9C846279C269F99E50F9C83
:10D63000073424F0070404F10801D4E900230F9112
:10D6400014461D46FFF78FBB4E46FFF79FB900BF3C
:10D65000E42C0B0025AA0B990C9801F0D7FF0028A9
:10D660007FF455A9C846279CFFF716BA159C224699
:10D670002046149C2346214602F056FB002840F029
:10D6800073820A9B0133119B23F020030E9300F059
:10D690009C81472B00F0D6804BF480730793149B3A
:10D6A0001F1E159B0893B7BF3B46002303F100479D
:10D6B0002D231093119B662B00F09081462B00F0D8
:10D6C000A48002200E9B23A9452B0ABF0A9B0A9D1A
:10D6D0005D1C8DE82100049120A81FA93B46039002
:10D6E000089A02910C9800F0A3FB119B0646672B49
:10D6F00040F0BA811BF0010F00F023827419169AD2
:10D700000898179B394602F0DDFA002840F0248182
:10D71000239BA34206D230215A1C23921970239BCB
:10D720009C42F9D89B1B13930E9B472B00F0A280C1
:10D73000119B652B40F3A781119B662B1F9B1293B6
:10D7400000F07181139B129A1946914200F35D819A
:10D750001BF0010F40F0F08122EAE2730893672387
:10D760000E921193109B002B7DD10A939DF8777038
:10D77000FFF714B924F00704236815936368149322
:10D7800004F108030F93FFF72FBB0F9A13680432BD
:10D790000F92099A1A60FFF704B8269BAF4DFFF766
:10D7A000ADB925AA0B990C9801F030FF00287FF441
:10D7B000AEA8C84631E40F9A134604330F93099B71
:10D7C0001168DD171A462B46C1E90023FEF7E9BFB1
:10D7D00025AA0B990C9801F019FF00287FF497A84F
:10D7E000C846279C32E408F108082FE540210C9830
:10D7F000FEF75CFA0B9A10601061002800F01482AA
:10D8000040230B9A5361FEF7BCBF03200A9C23A957
:10D810008DE81100049120A81FA90390089A3B46A7
:10D8200002910C9800F004FB25460646119B7419E2
:10D83000462B7FF464AF3378302B00F087811F9D37
:10D840002C445CE70A9B002B08BF01230A9323E7C3
:10D8500030460A95FEF774FE0F940E90CDF81CB07A
:10D860000346FFF7E7B92D2700238DF877700A9359
:10D87000FFF795B81F9B1A461293033304DB0A9BEC
:10D8800019469142BFF65EAF119B023B1193129B6A
:10D890009DF84420013B002B8DF88420B4BF2D223D
:10D8A0002B221F93B8BF129B8DF88520B8BFC3F100
:10D8B0000103092B40F31F810DF193000146684CD1
:10D8C00000E0114684FB0352DD17C5EBA20505EB12
:10D8D0008502A3EB42023032092D01F8012C2B46C0
:10D8E00001F1FF32EDDC30330239DCB2884202F85C
:10D8F000014C40F292810DF18601134601E013F8CC
:10D90000014B834201F8014BF9D101339B1A0DF110
:10D910008602134421AA9B1A139A1B93012A1344CB
:10D920000E9340F348810E9B199A13440E9323EAF9
:10D93000E37308930023129314E7279C269AFFF7BA
:10D9400076B825AA0B990C9801F060FE00287EF4A9
:10D95000DEAFC846279CFBE42346E3E625AA0B99E5
:10D960000C9801F053FE00287EF4D1AFC8461F9AF0
:10D97000279CD3E525AA0B990C9801F047FE0028B7
:10D980007EF4C5AF1F9A139BC846279C9A1ADDE503
:10D99000269BFFF7FEB825AA0B990C9801F036FEDE
:10D9A00000287EF4B4AFC846279CB0E50A9B3746F2
:10D9B000062B28BF06230A96129608930F94CDF8DB
:10D9C0001CB00E93274EFEF7E9BF06230A9363E6C9
:10D9D0002D231F468DF87730FFF728BA03200A9CC5
:10D9E00023A98DE81100049120A81FA90390089A8B
:10D9F0003B4602910C9800F01BFA25460646041996
:10DA000019E7269B154DFFF77EBB199A139B13440C
:10DA1000129A0E93002A40F3C78023EAE373089317
:10DA2000672311939EE6002B40F3E1800A9A002AB7
:10DA300040F0B0801BF0010F40F0AC8008930E93D3
:10DA400090E60A9B0F9408930E930A90CDF81CB0B1
:10DA500012909DF87770FEF7A1BF00BFE42C0B0079
:10DA600067666666C82C0B00119B472B7FF446AE99
:10DA70001BF0010F7FF4DAAE239B9B1B13930E9BCD
:10DA8000472B3FF4F7AE1F9B129300E700200A904C
:10DA9000FEF7BCBE4F42103135DA10246A4DDDF876
:10DAA00030B004E008F10808103F102F2CDD0133DE
:10DAB0001032072B27922693C8F80050C8F804406C
:10DAC000F0DD25AA0B99584601F0A0FD00287EF450
:10DAD0001EAFC846279A269BE6E725AA0B990C9805
:10DAE00001F094FD00287EF412AFC8461F99279AD2
:10DAF000269BFFF7C3BB302213448DF887308DF887
:10DB0000862022AB06E7504D01333A44072B88E8C4
:10DB1000A0002792269308F108087FF7B2AB25AA48
:10DB20000B990C9801F072FD00287EF4F0AEC84607
:10DB3000279A269BFFF7A5BB129B199A13440E93B5
:10DB40006BE7239BEEE5269B3F4DBBE4169A0898B6
:10DB5000179B394602F0B6F800287FF470AEC5F185
:10DB600001051F952C44CAE5149B384E002BBEBFFF
:10DB70002D231F468DF877304FF003031A46089384
:10DB80004FF00003A8BF9DF8777019460A93304BF9
:10DB9000FFF754B9129B199A13440A9A1A4422EABD
:10DBA000E2730E920893DDE5129B0E9AC3F1010316
:10DBB0001A441346C3E71BF0010312937FF4B3AE7C
:10DBC0000E9B23EAE3730893CCE51F4D3CE4269BB0
:10DBD0001D4D91E40F9D9AF801302868A24640EA55
:10DBE000E0700A90284604300F90FEF70DBE0A9BA5
:10DBF00013B91BF0010F02D0199B0133CDE70123AC
:10DC00001CE78DF87710FFF780B98DF87710FFF7D4
:10DC10003AB98DF87710FFF74FB80DF1860379E622
:10DC20008DF87710FFF7B2B94FF0FF320C2309924D
:10DC30000C9A1360FEF774BE8DF87710FFF7C4B826
:10DC40008DF87710FFF778B8E42C0B009C2C0B00B4
:10DC5000982C0B0070B5141E9AB005462CDB1A46A2
:10DC60004FF4027300910491ADF80C304FF6FF763B
:10DC70000FD0013C1E9B694602940594ADF80E60DE
:10DC8000FEF768FD421C10DB0022009B1A701AB0E0
:10DC900070BD1E9B694602940594ADF80E60FEF7B8
:10DCA00059FD431C04DB1AB070BD8B232B60EBE7DE
:10DCB0008B232B601AB070BD8B234FF0FF302B608D
:10DCC000F1E700BF10B5064C82B0009324681346FC
:10DCD0000A4601462046FFF7BDFF02B010BD00BF57
:10DCE000E0820720024B13B1024800F005B87047EC
:10DCF0000000000075EC0A00002301461A46184691
:10DD000001F00EBD2DE9F04F03690F6983B09F420A
:10DD100000F38880013F01F1140600F1140A56F85F
:10DD200027305AF827200133B2FBF3F8BB000093E9
:10DD300006EB030953440193B8F1000F3BD00023D5
:10DD4000B4461C46D6465CF8042BDEF800501FFA99
:10DD500082FB08FB0B33120C4FEA134B08FB02BB90
:10DD60009AB2A21AABB21FFA8BF41A44C4EB154450
:10DD700004EB224492B242EA0442E1454EF8042BFD
:10DD80004FEA24444FEA1B43DDD2009B5AF803308C
:10DD90008BB9019C231F9A450CD254F8043C4BB913
:10DDA000A4F1080302E01A68043B1AB99A4507F186
:10DDB000FF37F8D30761044601F02AFB00282DDB6A
:10DDC0005546002308F1010856F8041B28688AB25A
:10DDD0009A1A0B0C81B20A44C3EB104303EB2243A3
:10DDE00092B242EA0342B14545F8042B4FEA23437D
:10DDF000EAD25AF827200AEB87037AB91A1F92450C
:10DE00000BD253F8042C42B9083B02E01A68043BD9
:10DE10001AB99A4507F1FF37F8D32761404603B096
:10DE2000BDE8F08F002003B0BDE8F08F00000000D7
:10DE30002DE9F04F056C9BB0044692469B46279E09
:10DE40004DB10123426C29469340AB606A6001F0FA
:10DE500007F900232364BBF1000F5D4635DB002387
:10DE600033609D4BAB4315D00022002350465946EA
:10DE700001F028FF804600282DD00123269A136048
:10DE8000289B002B00F0BD809448186001381BB01F
:10DE9000BDE8F08F42F20F73269A1360BAF1000FBB
:10DEA0000DD1C5F3130555B9289B8D48002BEED035
:10DEB00000F10803289A13601BB0BDE8F08F289B7F
:10DEC0008848002BE3D0C31CF4E701232BF0004566
:10DED0003360AB46C5E718AA19AB019200935246CE
:10DEE0005B46204601F03EFB2B0D814671D050462B
:10DEF000CBF3130242F07F51189FA3F2FF36CDF807
:10DF0000508041F440110022774BFDF71DF96CA3BE
:10DF1000D3E90023FDF7CCFA6BA3D3E90023FDF787
:10DF200015F9CDE902013046FDF75CFA68A3D3E9A3
:10DF30000023FDF7BDFA02460B46DDE90201FDF7BD
:10DF400005F9CDE9040101F005FF0022029000234C
:10DF5000DDE9040101F0C0FE002840F06D81029D62
:10DF6000162D00F257816149524601EBC5015B460F
:10DF7000D1E9000101F0CEFE002800F0BE816B1E49
:10DF8000029300230E93BF1B7B1E089300F14E816A
:10DF900000230A93029B002BC0F23F81089A0D9345
:10DFA00011461944002308910C93249B092B2AD86D
:10DFB000052B40F358860025043B2493249B023B09
:10DFC000032B00F23F86DFE813F0CE03C302D90330
:10DFD0005B04189F199E3E4406F23243202B40F307
:10DFE0008781C3F1400306F212409D402AFA00F0F7
:10DFF0002843FDF7E7F90123013E1493A1F1F871DD
:10E0000081E73B4843E7002120466164259101F008
:10E0100001F84FF0FF3307930F930123259A0490E3
:10E02000206424920B93199B002BC0F2D380029A98
:10E030000E2A00F3CF802D4B03EBC203D3E900235C
:10E04000CDE90823259B002BC0F2B483DDE90856F7
:10E0500050462A4633465946FDF754FB01F07AFEF6
:10E060008046FDF7BFF92A463346FDF721FA0246FE
:10E070000B4650465946FDF767F8079E049F08F186
:10E080003005012E3D7002460B4607F1010564D0B4
:10E090000022184BFDF70CFA0022002306460F461B
:10E0A00001F010FE002840F08280CDF828904FF05B
:10E0B000000ADDE908894FF0000B0B9429E000BF4E
:10E0C00061436F63A787D23FB3C8608B288AC63F7E
:10E0D000FB799F501344D33F0000F07FD12C0B00FD
:10E0E000F42C0B00002D0B000000F83F402D0B001E
:10E0F000D02C0B00000024400022814BFDF7D8F902
:10E1000052465B4606460F4601F0DCFD002840F013
:10E11000BA8342464B4630463946FDF7F3FA01F0E2
:10E1200019FE0446FDF75EF942464B46FDF7C0F97D
:10E1300002460B4630463946FDF706F804F1300634
:10E1400005F8016B049E079FAE1BBE4202460B46BC
:10E15000D2D1A046DDF828900B9C10461946FCF75A
:10E16000F5FF06460F4602460B46DDE9080101F0C1
:10E17000B3FD48B9DDE9080132463B4601F0A2FD96
:10E18000A8B118F0010F12D015F8018C6B1E049A7B
:10E1900004E09A4200F0028413F8018DB8F1390FBF
:10E1A00003F10105F5D008F1010883F80080494624
:10E1B000204600F055FF0022029B2A70269A013368
:10E1C0001360289B002B00F09F8304981D601BB0F8
:10E1D000BDE8F08F0B9A002A3ED0249A012A40F322
:10E1E0001183079B0C9A5F1EBA42C0F29083D71B23
:10E1F000079B002BC0F28C840A9D079B0A9A012181
:10E200001A440A92089A20461A44089200F0C4FF61
:10E21000064623E001230E93B5E600230A9A0D93E8
:10E22000029BD21A5B420A920C93BEE6C7F101032D
:10E230000A9300230893ADE6029D2846FDF7D2F825
:10E2400002460B46DDE9040101F03CFD00287FF4A5
:10E2500086AE6B1E029382E60AADE0CD002D0CDD8A
:10E26000089900290B4608DDA942A8BF2B460A9A47
:10E27000ED1AD21ACB1A0A9208930C9BD3B10B9BBE
:10E28000002B00F0B882002F10DD31463A462046C0
:10E2900001F01EF84A4601460646204600F086FF79
:10E2A000034649462046994600F0DAFE0C9BDA1BED
:10E2B00040F0A2820121204600F06EFF0D9B8046B7
:10E2C000002B1FDD01461A46204601F001F8249B71
:10E2D0008046012B40F3558200230C93D8F8103070
:10E2E00008EB8303186900F007FFC0F1200013E07A
:10E2F000C3F120050AFA05F07BE60E9043E600BF65
:10E3000000002440249B012B40F3858200230C93C2
:10E310000D9B0120002BE1D1089A104410F01F0042
:10E3200000F0A180C0F12003042B40F386840A9BF7
:10E33000C0F11C0003440A931346034405440893A8
:10E340000A9B002B05DD49461A46204601F010F8CD
:10E350008146089B002B05DD41461A46204601F008
:10E3600007F880460E9B002B40F08680079B002B11
:10E3700040F364820B9B002B00F09880002D05DD9C
:10E3800031462A46204600F0F3FF06460C9B002B40
:10E3900040F036830896079B049A013BD3180B93F1
:10E3A00017460AF00103C246DDF820B00C9351462F
:10E3B0004846FFF7A7FC31460546484601F028F8D5
:10E3C0005A4607905146204601F03EF8C268804602
:10E3D00005F13003002A40F02982014648460A939D
:10E3E00001F016F841460890204600F039FE089AE0
:10E3F0000A9B32B9249921B90C9A002A00F0EE83C5
:10E40000249A07990029C0F29F8205D1249919B94D
:10E410000C99002900F09882002A00F305830B9ADA
:10E4200007F1010897423B70454600F00B834946CF
:10E4300000230A22204600F01DFE5E45814631463B
:10E440004FF000034FF00A02204600F0E98100F08F
:10E4500011FE5946064600230A22204600F00AFE15
:10E4600047468346A3E71C200A9B054403440A93BE
:10E47000089B0344089363E74146484600F0C8FF01
:10E480000028BFF673AF029F494600230A222046A8
:10E49000013F029700F0EEFD0B9B8146002B40F000
:10E4A000B5830F9B002B40F3BE830793DDF810A0CC
:10E4B000079F554606E0494600230A22204600F001
:10E4C000D9FD814641464846FFF71CFC303005F82F
:10E4D000010BA5EB0A03BB42EDDB049B079A8246C6
:10E4E000012AACBF9B1801334FF0000B1D46494673
:10E4F0000122204600F03CFF4146814600F088FFA3
:10E50000002840F33F8215F8012C6B1E049904E0AB
:10E510008B4200F0AE8113F8012D392A03F1010579
:10E52000F6D001321A704146204600F099FD002EC7
:10E530003FF43DAEBBF1000F05D0B34503D05946C3
:10E54000204600F08DFD3146204600F089FD2EE684
:10E5500000230B93029B259A13440F930133012B45
:10E560001F461E46B8BF012707930021172F61647D
:10E570000AD9012204235B0003F1140087421146EB
:10E5800002F10102F7D26164204600F043FD0E2E35
:10E59000049020643FF647AD002D3FF444AD02994E
:10E5A000CDE910AB002940F30382B94B01F00F0213
:10E5B0000D1103EBC203E906D3E9006740F1AF8117
:10E5C000B44B5046D3E908235946FDF79BF84FF06A
:10E5D000030ACDE9120105F00F058DB1DFF8B48211
:10E5E000EA0709D5D8E9002330463946FCF760FF31
:10E5F00006460F460AF1010A6D1008F10808EFD12E
:10E600003B46DDE912013246FDF77CF807468846B5
:10E610000E9B43B10022A04B3846414601F05CFB03
:10E62000002840F087825046FCF7DCFE3A4643461D
:10E63000FCF73EFF994B0022FCF788FD079B05463F
:10E64000A1F15076002B00F03F81029B1593079BB0
:10E6500012930B9B002B00F0FB81129A8C4B002035
:10E6600003EBC20353E902238D49FDF74BF82A4619
:10E670003346FCF769FD82468B463846414601F039
:10E6800069FB0546FCF7AEFE02460B46384641469E
:10E69000FCF75AFD30355FFA85F8049D06460F46B3
:10E6A00085F8008002460B4650465946013501F078
:10E6B00031FB002854D132463B4600207649FCF716
:10E6C00043FD02460B465046594601F023FB002805
:10E6D00040F07082129A012A00F01281129B049A73
:10E6E000CDF84890134499460FE032463B4600204F
:10E6F0006949FCF729FD52465B4601F0EDFA002816
:10E7000040F056824D4500F0F980504659460022AF
:10E71000644BFCF7CDFE0022624B82468B463046AE
:10E720003946FCF7C5FE0F46064601F013FB80464E
:10E73000FCF758FE02460B4630463946FCF704FD0E
:10E7400008F130085FFA88F805F8018B52465B46FD
:10E7500006460F4601F0C0FA0028C6D0DDF8489002
:10E76000159B029323E500230B93259B002B40F37D
:10E77000DD801F461E460F930793F6E601230B9399
:10E78000F3E7BAF1000F7FF4A7ADCBF31303002B2F
:10E790007FF4BCAD2BF000473F0D3F05002F00F08C
:10E7A0000D820A9B01330A93089B013308930123CE
:10E7B0000C93ADE5079B002B3FF748AC40F022825D
:10E7C000DDE908010022384BFCF772FE52465B4639
:10E7D00001F096FADDF81C804646002841D0259BC2
:10E7E000049DDB4302934146204600F039FC002E95
:10E7F0003FF4DDACA7E60C9A4946204600F068FDE0
:10E80000814657E5149A002A00F0888103F23343C9
:10E810000C9F0A9DF2E4BAF1000F7FF477ADB4E7E4
:10E8200000F028FC474606468346C0E501462046E0
:10E83000089300F015FC0122089BE2E5249B022BC3
:10E840007FF798AD079B002BC9D141460522204692
:10E8500000F010FC01468046484600F0D9FD002833
:10E86000BDDD3123029A0499013202920B704D1CD6
:10E87000B9E73123029A01320292049A137052E6E8
:10E8800001230B9366E6DDF828900B9C8FE400BF14
:10E89000402D0B00182D0B000000F03F00001C4025
:10E8A0000000E03F00002440000014405046FCF708
:10E8B00099FD3A464346FCF7FBFD0022C14BFCF7AD
:10E8C00045FC0546A1F1507641460022BE4B384634
:10E8D000FCF73AFC2A46334682468B4601F01AFA88
:10E8E0008046002840F010812A4606F10043504639
:10E8F000594601F0F1F918B1464670E7DDF8489045
:10E90000DDE910ABFFF78FBB0498FFF7C0BA0C9B93
:10E910000D9AFB1A1A440C970D92002768E4DDE962
:10E9200010234FF0020ACDE9122356E600210123FD
:10E9300020466164259300F06DFB259B04900793AE
:10E94000259B20640F9327E6002AD046CDF820B0FF
:10E950009A4611DD49460122204600F009FD414654
:10E96000814600F055FD002840F34581BAF1390F8A
:10E9700000F0058105F1310AB34687F800A07D1C3F
:10E98000089ED0E504D11AF0010F01D0BBE5154671
:10E9900015F8013C6A1E302BF9D0C4E530220499E9
:10E9A0000A70029A15F8018C01320292FFF7FBBB44
:10E9B00000F0BB80DDE91001029B4FF0020A5D42CE
:10E9C000824B05F00F0203EBC203D3E90023FCF7EF
:10E9D0006FFD2D11074688463FF41AAE7C4EEB07BB
:10E9E00009D5D6E9002338464146FCF761FD0746C4
:10E9F00088460AF1010A6D1006F10806EFD107E614
:10EA00007168204600F006FB0546336906F10C01EB
:10EA100002339A000C30FDF7EBFB29460122204619
:10EA200000F0A6FC0890B6E4392BCDF820B0D04613
:10EA300000F0A58003F1010AB34687F800A07D1C11
:10EA4000089E70E55A46D046B3469A4616464EE5AD
:10EA500012985E492A4601EBC001334651E9020192
:10EA6000FCF726FDCDE916013846414601F072F962
:10EA70000546FCF7B7FC02460B4638464146FCF714
:10EA800063FB06461298049A3035012815700F462C
:10EA900002F1010526D0129B049ACDF84890134448
:10EAA0004FF0000A9946DFF830B152465B463046D7
:10EAB0003946FCF7FDFC0F46064601F04BF980464F
:10EAC000FCF790FC02460B4630463946FCF73CFB0F
:10EAD00008F1300805F8018B4D4506460F46E4D194
:10EAE000DDF848900022DDE916013A4BFCF72EFBD9
:10EAF00032463B4601F0F0F8002846D0159B0293C1
:10EB000015F8018CFFF742BB4FF000084646A8E617
:10EB10000A9B079A9D1A0023FFF770BB189B0C9F56
:10EB2000C3F136030A9DFFF769BBDDE910784FF0AA
:10EB3000020A6DE5079B002B3FF4B8AE0F9B002B3C
:10EB40007FF7DEAE0022244B38464146FCF7B0FC8E
:10EB5000074688460AF10100FCF744FC3A46434662
:10EB6000FCF7A6FC0022174BFCF7F0FA029A0F9B69
:10EB7000013A05461592A1F15076129369E53922C2
:10EB8000B3463A70089E7D1CBFE4DDE916230020E1
:10EB90001049FCF7D9FA32463B4601F0BBF808B9F8
:10EBA000AEE6154615F8013C6A1E302BF9D0D7E5C4
:10EBB000DDF84890159B0293FFF7E8BA0C97FFF732
:10EBC000A7BB00BF00001C4000001440402D0B00FC
:10EBD000182D0B000000E03F00002440392BCDF839
:10EBE00020B0D046DDF81CB09A46C8D0BBF1000F6B
:10EBF0003FF7C0AEC0E67FF4BFAE1AF0010F3FF49E
:10EC0000BBAEB3E64FF000084646E8E531460023C8
:10EC10000A22204600F02EFA0F9B0646002B07DD45
:10EC20000793FFF7ABBB249B022B1FDC0F9B3CE43D
:10EC3000249B022B1ADC0F9BF2E73FF481ABC0F15F
:10EC40003C0011E4002520466564294600F0E2F905
:10EC50004FF0FF3307930F93012304902595206411
:10EC60000B93FFF7E0B90125FFF7A8B90F9B0793B6
:10EC7000E8E500BF38B50A4C0A4D641BA4100AD061
:10EC800004F18043013B05EB8305013C55F8043951
:10EC90009847002CF9D1BDE8384004F047B900BFCF
:10ECA000542F0B00502F0B00F8B50C46234F06468F
:10ECB000FDF762FBBB68C4F57E615D680F3125F02E
:10ECC0000305294421F47F6121F00F01A1F580544F
:10ECD000B4F5805F07DB00213046FDF759FBBB68C8
:10ECE0002B44984204D03046FDF74CFB0020F8BD81
:10ECF00061423046FDF74CFB01300DD0104BBA6835
:10ED000019682D1B45F001053046091B5560196037
:10ED1000FDF738FB0120F8BD00213046FDF738FB38
:10ED2000BA68831A0F2BDEDD064C0549246843F0D0
:10ED30000103001B53600860D5E700BF1087072060
:10ED4000903C0820188B0720002944D02DE9F04181
:10ED50000D468046FDF710FB55F8047C6949A5F186
:10ED6000080427F00103E2188E685068B24220F0D0
:10ED700003005ED0FE0750600BD455F8087C01F10B
:10ED8000080EE41BA5683B4475456DD0E768EF604D
:10ED9000BD6015186D68ED073ED543F00102626055
:10EDA000E350B3F5007F17D20122DB0898104D68BD
:10EDB000134451F83370824001EBC3002A430838F2
:10EDC000E060A7604A6041F83340FC604046BDE81F
:10EDD000F041FDF7D7BA70475A0A042A52D89A0967
:10EDE00002F13907FF0002F13805C819CA5908387D
:10EDF00090424FD0516821F003018B4232D2926889
:10EE00009042F7D1C368A060E3609C60C460404654
:10EE1000BDE8F041FDF7B6BA95683B4F0344BD42EB
:10EE200040D0D06843F00102E86085606260E35042
:10EE3000B7E7FF07034407D455F8085C641BE26892
:10EE4000A0682B44C2609060304A43F00100126811
:10EE5000606093428C60B9D32D4B40461968FFF730
:10EE600023FFB3E71046CDE711184968C90744D41A
:10EE700091680344D26843F00100CA609160606009
:10EE8000E350A3E7142A16D802F15C07FF0002F151
:10EE90005B05AAE70123AA104D6893402B434B6002
:10EEA0000346B0E743F001024C610C61E560A560E8
:10EEB0006260E3508AE7542A06D81A0B02F16F0702
:10EEC000FF0002F16E0590E7B2F5AA7F06D8DA0BD3
:10EED00002F17807FF0002F1770586E740F254500F
:10EEE000824206D89A0C02F17D07FF0002F17C05F0
:10EEF0007BE74FF47E777E2577E743F00101616081
:10EF0000136063E710870720188707201C8B0720F2
:10EF1000C03C0820D0F8EC00704700BF044B054A05
:10EF20001B685B6B002B08BF1346D3F8EC007047DF
:10EF3000E0820720248B0720044A054B1268506B9F
:10EF4000002808BF1846F030704700BFE082072055
:10EF5000248B0720704700BF704700BF82B049B1C3
:10EF60005AB16BB113780B601278101C18BF0120D6
:10EF700002B0704701A9002AF3D1104602B07047D1
:10EF80006FF00100F4E700BF830770B4CDB23DD04D
:10EF9000541E0AB30378AB421FD0431C05E014F1A2
:10EFA000FF3419D30278AA4217D013F0030F184682
:10EFB00003F10103F3D1032C11D84CB30378AB4216
:10EFC0000BD00444431C02E00278AA4205D09C42C4
:10EFD000184603F10103F7D1002070BC7047090205
:10EFE00089B2294341EA0141036806464B40A3F137
:10EFF000013222EA030313F0803F00F1040003D141
:10F00000043C032CF0D8D8E73046D7E71446D2E7C3
:10F010002046E2E7C36C70B505460C464BB153F889
:10F02000240080B1026843F8242000230361C360F8
:10F0300070BD21220421FCF7E1FDE86403460028AD
:10F04000EDD1002070BD012101FA04F6721D2846A1
:10F050009200FCF7D3FD0028F3D044608660E4E71B
:10F0600031B1C36C4A6853F82200086043F822109B
:10F07000704700BFF0B50C4605464FF0000E0E6914
:10F0800083B001F1140738680EF1010E81B202FB62
:10F090000133010C180C02FB01019BB203EB01438D
:10F0A000764547F8043B4FEA1143ECDC3BB1A268DC
:10F0B000964207DA04EB8602013653612661204648
:10F0C00003B0F0BD6168284601310193FFF7A2FF4C
:10F0D0000746226904F10C01023292000C30FDF760
:10F0E00087F8EA6C6168019B52F82100206042F8C1
:10F0F00021403C46DEE700BF020C12040346B2B9D1
:10F100000304102013F07F4F04BF1B02083013F0DC
:10F11000704F04BF1B01043013F0404F04BF9B002D
:10F120000230002B02DB5B0003D42020704700205C
:10F13000E8E70130704700BF0368014613F007029B
:10F1400007D0DA0721D4980721D49B080B6002204E
:10F15000704798B298B1104613F0FF0F04BF1B0A16
:10F1600008301A0704BF1B0904309A0704BF9B0824
:10F170000230DA0707D45B0804D1202070471B0C4B
:10F180001020E9E701300B607047002070475B08F2
:10F190000B600120704700BF10B50C460121FFF73E
:10F1A00039FF01224461026110BD00BF2DE9F04F1B
:10F1B0000C69156983B0AC428B46164604DA2246C8
:10F1C000B3462C460E461546DBF8083004EB05081E
:10F1D000DBF804109845C8BF0131FFF71BFF00F1B1
:10F1E000140909EB880AD145009005D24B4600214D
:10F1F00043F8041B9A45FBD806F1140C0CEB85036D
:10F200000BF1140B9C450BEB840E4BD2CDF804A0F4
:10F210009A46DCF80050AFB2E7B14D465E46002199
:10F2200056F8042B286893B284B2120C07FB0343F0
:10F23000000C07FB02020B4402EB13419BB243EAB2
:10F240000143B64545F8043B4FEA1141E8D829602F
:10F25000DCF800502D0C1DD0D9F8003048461C4673
:10F26000594600220E88240C05FB06449BB222441A
:10F2700043EA024340F8043B51F8043B04681B0C8A
:10F28000A6B205FB03638E4503EB12434FEA13421C
:10F29000E8D803600CF1040CE24509F10409B8D880
:10F2A000DDF804A0B8F1000F0BDD5AF8043CAAF118
:10F2B000040A1BB105E05AF8043D13B9B8F101087E
:10F2C000F9D10098C0F8108003B0BDE8F08F00BFFE
:10F2D00012F003032DE9F041144607462ED10D46E6
:10F2E000A4101CD0BE6C96B3E3074FF0000806D400
:10F2F000641014D03068A8B10646E307F8D532464A
:10F3000029463846FFF752FFB5B16A68FB6C6410B6
:10F3100053F82210296043F822500546EAD12846C6
:10F32000BDE8F081324631463846FFF73FFF306096
:10F33000C0F800800646E0E70546D9E70B4A013BE6
:10F3400052F823200023FFF795FE0546C8E7012168
:10F350003846FFF75FFE40F2712101220023416130
:10F3600002610646B8640360BEE700BF082E0B00CA
:10F370002DE9F8430B69541104EB03088B6808F17D
:10F3800001059D420E4691460746496804DD5B0033
:10F390009D4201F10101FADC3846FFF73BFE002CEB
:10F3A00000F1140306DD002103EB840243F8041B83
:10F3B0009A42FBD1346906F1140119F01F0901EBDF
:10F3C000840E1DD00022C9F1200C0C6804FA09F447
:10F3D000144343F8044B51F8042B8E4522FA0CF2E7
:10F3E000F3D81A600AB108F10205FB6C7268013D9E
:10F3F00053F822100561316043F82260BDE8F883BC
:10F40000043B51F8042B8E4543F8042FF9D8ECE760
:10F4100030B40B6905460069C01A0FD19B00143542
:10F42000143119442B4401E09D4207D253F8044D96
:10F4300051F8042D9442F7D002D3012030BC70471C
:10F440004FF0FF30FAE700BF2DE9F84F0C6989460D
:10F4500011699246641A002C17D1890009F114072A
:10F4600002F114067B18314401E09F4265D253F843
:10F47000045D51F8042D9542F7D067D24B46BB4648
:10F48000D14637469A46012405E061DB002409F1A4
:10F4900014070AF1140BD9F80410FFF7BBFD5D4601
:10F4A0004FF00008D9F810E0DAF810303E46C4609A
:10F4B0000BEB830C07EB8E0700F1140456F8049B4A
:10F4C00055F8042B1FFA89F343441FFA82F8120CF3
:10F4D000A3EB0803C2EB194202EB23429BB243EABF
:10F4E0000243AC4544F8043B4FEA2248E6D8B74211
:10F4F00017D9A446354655F8043B99B241440A143D
:10F5000002EB134289B241EA0243AF424CF8043B9A
:10F510004FEA2248EFD8F643374427F00307043771
:10F520003C44043C2BB954F8043D0EF1FF3E002B43
:10F53000F9D0C0F810E0BDE8F88F0021FFF76AFDB0
:10F540000122002302614361BDE8F88FB346A2E7C0
:10F550004B4609F1140B02F11407914601249A4617
:10F5600099E700BFF0B5012183B01C46C3F30A55EB
:10F570001646FFF74FFDC4F3130407460DB144F4DC
:10F580008014019406B302A840F8086DFFF7D4FD7B
:10F59000002830D19DE80C007A61002B0CBF0121BE
:10F5A0000221BB613961D5B9089A07EB8103A0F24A
:10F5B000324010601869FFF79FFD099BC0EB4110B6
:10F5C0001860384603B0F0BD01A8FFF7B5FD012271
:10F5D000019B114620303A617B61002DE4D0A5F2F9
:10F5E0003343089A03441360099BC0F13500186047
:10F5F000384603B0F0BD019BC0F12002009903FA28
:10F6000002F20A43C34001937A61C6E72DE9F04F45
:10F61000936883B09046002B70D082460C461768E2
:10F620008D68086842E0A38913F4906F2ED0656955
:10F63000216905EB4505A0EB010B05EBD5750BF139
:10F6400001006D103044A8422A4684BF05462A4670
:10F650005B0538D511465046FCF728FB00283CD006
:10F660005A4621690190FCF7C3FDA289019B22F44F
:10F67000906242F08002A281A5EB0B0203EB0B002B
:10F680006561B346354623612060A2605A4649460B
:10F6900000F0A8F8D8F80830A2682068551B584434
:10F6A0009E1BA5602060C8F808603EB37E683B469C
:10F6B0000837002EFAD0AE42D3F80090AB46B2D253
:10F6C0003546B346E2E7504600F0F0F8034600281E
:10F6D000D2D121695046FFF737FB0C2300224FF0AF
:10F6E000FF30CAF80030A38943F04003A381C8F873
:10F6F0000820C8F8042003B0BDE8F08F0020C8F847
:10F70000040003B0BDE8F08F19B1FF2A03D80A70D6
:10F710000121084670478A234FF0FF310360F8E764
:10F720002DE9F8432C4D0646286898460F46914629
:10F73000FFF710FC294B1C68D4F84831002B3ED051
:10F740005A681F2A1CDC02F1010E76B1012103EB7D
:10F750008204C4F88890D3F8880191400843022EAF
:10F76000C3F88801C4F8088123D00232C3F804E04A
:10F77000286843F82270FFF7EFFB0020BDE8F8830C
:10F78000174B0BB34FF4C870AFF300800346D8B1EA
:10F790000020D4F848114FF0010E5860196002465D
:10F7A000C4F84831C3F88801C3F88C01002EDCD0BE
:10F7B000CCE7D3F88C010143C3F88C11D5E704F5ED
:10F7C000A673C4F84831BBE72868FFF7C5FB4FF0C4
:10F7D000FF30BDE8F88300BF208B07208C2C0B0086
:10F7E000000000008842F0B50DD98B1898420AD26B
:10F7F0008418002A51D0224613F8014D994202F88C
:10F80000014DF9D1F0BD0F2A48D941EA00039B0709
:10F8100046D1154600F1100401F1100353F8106CA5
:10F82000103D44F8106C53F80C6C0F2D44F80C6C20
:10F8300053F8086C04F1100444F8186C53F8046C85
:10F8400003F1100344F8146CE8D8A2F1100323F07C
:10F850000F0302F00F0E1033BEF1030F19440344DF
:10F8600021D90E4674461D1F56F8047B043C032C18
:10F8700045F8047FF8D8AEF1040424F003040434FE
:10F880002144234402F0030262B1013B0A4411F80F
:10F89000014B8A4203F8014FF9D1F0BD0346F3E76B
:10F8A0000346F2E7F0BD7246EEE700BF002900F024
:10F8B00094802DE9F04F0C46154683B0804605F143
:10F8C0000B06FCF759FD54F804EC162E2EF0030736
:10F8D000A4F108093CD810221646B5423DD89742FB
:10F8E00043DAC64B09EB07009968884200F0C380F1
:10F8F000436823F0010101444968C9074DD51EF052
:10F90000010F00F09B8029464046FCF7CFF90546E1
:10F9100000283BD054F8043CA0F1080223F0010376
:10F920004B449A4200F02B813A1F242A00F218819E
:10F93000132A00F2EB8003462246116819605168D1
:10F94000596092689A6021464046FFF7FDF91DE034
:10F9500026F00706002E3246BFDA00250C23284683
:10F96000C8F8003003B0BDE8F08F2546BB1B0F2B55
:10F97000D9F804201DD802F001023A4309EB07012F
:10F98000C9F804204B6843F001034B604046FCF784
:10F99000F9FC284603B0BDE8F08F23F00303F91803
:10F9A00091421DDBC36882682546D3600F469A608A
:10F9B000DCE702F0010209EB060143F001033243E8
:10F9C000C9F804204F444B607B68083143F00103C1
:10F9D0007B604046FFF7B8F9D8E71146FCF766B9F7
:10F9E0001EF0010F8FD154F8081CA9EB010ADAF8B8
:10F9F000041021F003010B443B44934226DB55469F
:10FA0000C16880683A1FC160886055F8080FDAF84D
:10FA10000C10242AC160886026D8132A40F2818005
:10FA200021681B2ACAF808106168CAF80C1000F295
:10FA3000AD8004F108000AF1100274E054F8083CAB
:10FA4000A9EB030ADAF8041021F003017B189342B2
:10FA5000FFF659AF5546DAF80C1055F8080F3A1F63
:10FA6000242AC1608860D8D9214628461F46D1463D
:10FA7000FFF7B8FE7AE7416806F1100021F0030BAA
:10FA8000BB44834558DA1EF0010F7FF43CAF54F8B5
:10FA9000081CA9EB010ADAF8041021F003018B44D9
:10FAA0005845D3DC5546DAF80C1055F8080F3A1FC4
:10FAB000242AC160886000F28D80132A40F287807A
:10FAC00021681B2ACAF808106168CAF80C1000F2F5
:10FAD000888004F108010AF1100208681060486883
:10FAE000506089689160ABEB06020AEB060142F0B8
:10FAF000010299604A60DAF80430404603F00103DD
:10FB00001E43CAF80460FCF73DFC42E723681B2A49
:10FB100003606368436027D800F1080304F108021A
:10FB20000BE720462A4601681F4611604168D1460E
:10FB300051608368936019E7ABEB060B09EB060194
:10FB40004BF0010299604A6054F8043C404603F0CF
:10FB500001031E4344F8046CFCF714FC254618E727
:10FB60002146FFF73FFEEEE6A368242A8360E368A0
:10FB7000C36018D000F1100304F11002DDE650F864
:10FB8000043C254623F003031F44EFE6A168242A22
:10FB9000CAF81010E168CAF814100DD004F1100072
:10FBA0000AF11802BFE7226900F1180302616169D6
:10FBB00004F118024161C0E6226904F11800CAF894
:10FBC000182061690AF12002CAF81C10ABE721462F
:10FBD0002A4682E7214628460193FFF703FE019B50
:10FBE00081E7A168242ACAF81010E168CAF8141045
:10FBF00006D004F110010AF118026EE71087072001
:10FC0000226904F11801CAF8182060690AF120027B
:10FC1000CAF81C0061E700BF4FF0FF3C06E000BFE0
:10FC20004FF0010C02E000BF4FF0010C4DF804CD85
:10FC30004FEA410C7FEA6C5C4FEA430C18BF7FEA45
:10FC40006C5C1BD001B050EA410C0CBF52EA430C73
:10FC500091EA030F02BF90EA020F0020704710F1F3
:10FC6000000F91EA030F58BF994208BF90422CBF82
:10FC7000D8176FEAE37040F0010070474FEA410C7B
:10FC80007FEA6C5C02D150EA013C07D14FEA430C99
:10FC90007FEA6C5CD6D152EA033CD3D05DF8040B0A
:10FCA000704700BF8446104662468C46194663463C
:10FCB00000E000BF01B5FFF7B7FF002848BF10F113
:10FCC000000F01BD4DF808EDFFF7F4FF0CBF012058
:10FCD00000205DF808FB00BF4DF808EDFFF7EAFFD4
:10FCE00034BF012000205DF808FB00BF4DF808ED8F
:10FCF000FFF7E0FF94BF012000205DF808FB00BF84
:10FD00004DF808EDFFF7CEFF94BF012000205DF80D
:10FD100008FB00BF4DF808EDFFF7C4FF34BF01201A
:10FD200000205DF808FB00BF4FEA410C7FEA6C5CE5
:10FD300002D150EA013C0AD14FEA430C7FEA6C5CE5
:10FD400002D152EA033C02D14FF0000070474FF05D
:10FD5000010070474FEA410212F5001215D211D589
:10FD60006FF47873B3EB625212D94FEAC12343F0B8
:10FD7000004343EA505311F0004F23FA02F018BF3A
:10FD8000404270474FF00000704750EA013005D103
:10FD900011F0004008BF6FF0004070474FF00000C6
:10FDA000704700BF48617264206661756C740D0A0B
:10FDB000004368616E67656420686F75720D0A00A4
:10FDC00052756E6E696E6720256325632563202D4D
:10FDD000202573202D2025732025730D0A00313036
:10FDE0003A33323A343600466562202034203230CD
:10FDF0003230007363686564756C65720D0A004388
:10FE0000416D62696F206D696E75746F0D0A0046F1
:10FE100061696C65640D0A00424C32342D4D4259C3
:10FE20002D30330057414B452055500D0A00576186
:10FE3000697420536C6565700D0A004177616B69C8
:10FE40006E670D0A00456E61626C652077617463B0
:10FE500068646F672077697468202564206D696322
:10FE6000726F7365636F6E647320706572696F641F
:10FE70000A0D00255820256C5820256C580D0A00C5
:10FE800042616E6B20310D0A0042616E6B20320DB3
:10FE90000A002D462D20496E697469616C697A618A
:10FEA00074696F6E206572726F720A0D002D462D97
:10FEB00020526561642074686520556E69717565AE
:10FEC000204964656E746966696572206572726F37
:10FED000720A0D00696E69745F626F6172642072EC
:10FEE000756E6E696E670D0A00497665636F204412
:10FEF00061696C792030320D0A0049444C45005448
:10FF00006D725100546D72205376630030410030A1
:10FF10003300436F6D616E646F206E6F6E20676596
:10FF2000737469746F0D0A0030430041420D0A007A
:10FF30004572722E20370D0A0030370042420D0AFA
:10FF4000004572722E20380D0A0030380043420DF1
:10FF50000A0043430D0A00363800303400363900B9
:10FF600042616E636F20312061747469766F0D0A8F
:10FF70000042616E636F20302061747469766F0D8A
:10FF80000A002563256325633A0025583A00255861
:10FF90003A25583A256C583A00304500363200363A
:10FFA0003300363400363600303500304200303110
:10FFB000005570646174657220696E69740D0A0081
:10FFC000745F72657365740043616E6E6F74206355
:10FFD00072656174652074696D65722E0D0A007515
:10FFE0007064617465207461736B00253033580050
:10FFF00025303458005265626F6F740D0A002D462B
:02000002B0004C
:100000002D20496E697469616C697A6174696F6EDB
:10001000206572726F7220256C750A0D0043616E47
:100020003020696E697469616C697A6174696F6E98
:1000300020636F6D706C657465640D0A0043616EBA
:100040003120696E697469616C697A6174696F6E77
:1000500020636F6D706C657465640D0A00745F6B6E
:1000600065797300496D706F737369626C652063A5
:10007000616E20696E746572666163650D0A004D7C
:1000800061696C626F78202564207069656E6120FB
:1000900025640D0A0041626F72742121210D0A004E
:1000A000746F6F206D7563682043414E20657272D6
:1000B0006F72730D0A00557064617465722C206E46
:1000C0006F7420726573657474696E670D0A0063DE
:1000D000616E6275735F7461736B5F7478006361E6
:1000E0006E5F7461736B0043616E207461736B208B
:1000F000696E69740D0A00257320737461636B2047
:10010000746F6F206C6F772E0D0A007654696D65E1
:10011000725365636F6E64006576656E745F7461BB
:10012000736B006576656E745F696E697400495320
:10013000522051554555452046554C4C0D0A0065F9
:1001400076656E745F7461736B005573696E6720BA
:10015000256420627974657320666F722068616E11
:10016000646C657273206D616E6167656D656E7438
:1001700020256420666F722071756575652E0D0AE5
:1001800000745F62726B006C6F676765725F696EA7
:1001900069740044454641554C5400554152540041
:1001A0004556454E54004144430052455045415444
:1001B0004552004E4F524D414C00494E464F00456E
:1001C00052524F52005741524E494E470044454209
:1001D0005547004C6F676765722025733A25642088
:1001E0006E6F77207365742061732025733A2564E0
:1001F0000D0A00766572626F7365000D0A7665728E
:10020000626F73653A0D0A766572626F7365205B83
:1002100044454641554C547C43414E7C55415254D3
:100220007C4556454E547C52455045415445527C80
:100230004144435D205B4E4F524D414C7C494E46FC
:100240004F7C4552524F527C5741524E494E477C4B
:1002500044454255475D0D0A0D0A0000F3010B00AD
:10026000FB010B00113A0A00020000005365727690
:1002700069636520696E69740D0A00745F75706446
:1002800000756172745F73657269616C5F6572722B
:100290006F720073657269616C5F756172745F691A
:1002A0006E6974007573617274305F736572696131
:1002B0006C5F6572726F72004C494E20696E697492
:1002C000204B4F0D0A004C494E20696E6974204F37
:1002D0004B0D0A002573206D756C7469706C652078
:1002E000636F6E66696775726174696F6E0D0A007F
:1002F0007573617274315F73657269616C5F657289
:10030000726F72007573617274325F7365726961C6
:100310006C5F6572726F7200436F64612064692064
:10032000747261736D697373696F6E65207069654E
:100330006E612E0D0A00697665636F5F6461696C9A
:10034000795F73656E645F73656C656374696F6E06
:100350005F6D656E7500697665636F5F6461696C7A
:10036000795F73656E645F6D61696E5F6D656E75F3
:1003700000000000AE060B00BE060B00BE060B0020
:10038000BE060B00BE060B00BE060B00BE060B0031
:10039000BE060B00BE060B00BE060B00BE060B0021
:1003A000BE060B00BE060B00BE060B00BE060B0011
:1003B000BE060B00BE060B00BE060B00BE060B0001
:1003C00044060B0050060B0050060B0050060B00B5
:1003D00058060B0050060B0050060B0050060B0091
:1003E00050060B0050060B0050060B0050060B0089
:1003F00050060B0050060B0050060B0050060B0079
:1004000050060B0050060B0050060B00A4060B0014
:10041000A4060B00A4060B00A4060B00A4060B0008
:10042000A4060B00A4060B00A4060B00A4060B00F8
:10043000A4060B00A4060B00A4060B00A4060B00E8
:10044000A4060B00A4060B00A4060B00A4060B00D8
:10045000A4060B00A4060B0061060B0061060B004E
:1004600061060B0061060B0061060B0061060B00C4
:1004700061060B0061060B0061060B0061060B00B4
:1004800061060B0061060B0061060B0061060B00A4
:1004900061060B0061060B0061060B0061060B0094
:1004A00061060B000000556E6B6E6F776E207665EF
:1004B0006869636C6520636F6E6669672025640DEB
:1004C0000A004461696C79206D61696E206D656E0A
:1004D000750D0A0056656869636C653A20556E6B48
:1004E0006E6F776E206D656E752025303258202531
:1004F00030325820253032580D0A0000C7060B0054
:10050000D2060B00D2060B00D2060B00DC060B0055
:10051000D2060B00D2060B00D2060B00D2060B004F
:10052000D2060B00D2060B00D2060B00D2060B003F
:10053000D2060B00D2060B00D2060B00D2060B002F
:10054000D2060B00D2060B008F060B009A060B009A
:100550009A060B009A060B009A060B009A060B00EF
:100560009A060B009A060B009A060B009A060B00DF
:100570009A060B009A060B009A060B009A060B00CF
:100580009A060B009A060B009A060B009A060B00BF
:100590009A060B0070060B0080060B0080060B000D
:1005A00080060B0080060B0080060B0080060B0007
:1005B00080060B0080060B0080060B0080060B00F7
:1005C00080060B0080060B0080060B0080060B00E7
:1005D00080060B0080060B0080060B0080060B00D7
:1005E0002C060B0035060B0035060B0035060B00FC
:1005F0003C060B0035060B0035060B0035060B00DC
:1006000035060B0035060B0035060B0035060B00D2
:1006100035060B0035060B0035060B0035060B00C2
:1006200035060B0035060B0035060B004E6575735D
:1006300074617274005265626F6F74005269617602
:100640007669610042657374C3A4746967656E005E
:10065000436F6E6669726D00436F6E6665726D61A1
:100660000044414220526164696F203230313900C8
:100670004F686E6520526164696F203230313900F5
:100680004F70656E20446173682032303139004FFD
:10069000686E6520526164696F004F70656E20441A
:1006A0006173680044414220526164696F00426C8A
:1006B0007565746F6F746820526164696F0042548D
:1006C00020526164696F005765726B73726164696F
:1006D0006F004F454D20526164696F00526164693B
:1006E0006F204F726967696E616C65004661687260
:1006F0007A65756765696E7374656C6C756E676530
:100700006E0056656869636C652053657474696E24
:1007100067730052C3A9676C6167657320647520B5
:1007200056C3A9686963756C6500496D706F737411
:10073000617A696F6E6920566569636F6C6F0043FB
:100740006F6E6669677572616369C3B36E206465B5
:100750006C20566568C3AD63756C6F00557374612A
:100760007769656E696120506F6A617A64750056B9
:100770006F65727475696720496E7374656C6C6916
:100780006E67656E00000000EC060B0002070B00B0
:1007900002070B0013070B002A070B003F070B0093
:1007A00002070B005C070B0002070B0002070B009F
:1007B0006F070B0002070B0002070B0002070B007C
:1007C00002070B0002070B0002070B0002070B00D9
:1007D00002070B004461696C7920323031342025E6
:1007E000640D0A0005403106010000000000000011
:1007F00000000000080000000540090A0100000098
:10080000006D4A0000000000030000000040110AD3
:10081000010000000004D7000000000003000000F9
:100820000540090E01000000003A00000000000031
:1008300002000000172172180100000000000000F3
:1008400000000000080000001724FF18010000004D
:100850000000000000000000080000000540111E1C
:10086000010000001111111111100000060000001C
:100870004461696C792044414220524144494F0D02
:100880000A004461696C792032303139204C4F576D
:100890002053504545440D0A004461696C7920326B
:1008A00030313920484947482053504545440D0AC6
:1008B000002A2A70686F6E65207374617475733ACC
:1008C00020253032580D0A002A2A736F757263652D
:1008D00020747970653A20253032580D0A002A2A92
:1008E00070686F6E650D0A0068656C70000D0A68AF
:1008F000656C703A0D0A204C6973747320616C6CDE
:100900002074686520726567697374657265642018
:10091000636F6D6D616E64730D0A0D0A0000000057
:10092000E8080B00ED080B000D520A000000000063
:1009300008030202034B0902030302430A030303F1
:1009400003460B04030304480C03040404430D048E
:100950000404044D0E04040504400F04050504437B
:100960001005050504451106050504471205060690
:100970000443130606060444140706060446150835
:100980000606044716070707044417080807044625
:100990001807080804431908080804447769736BAA
:1009A00065725F696E6974005769736B6572206D5B
:1009B0006F64756C652025642074696D65646F755E
:1009C000740D0A004E6F7420676976696E67207730
:1009D00069736B65720D0A00745F77736B00484131
:1009E0004E444252414B455F4F4E0D0A0048414E26
:1009F000444252414B455F4F46460D0A00466163F3
:100A0000746F727920726573657420726571756593
:100A1000737465642E2049676E6974696F6E204F28
:100A200046462E0D0A0049474E4954494F4E5F4FE6
:100A30004E0D0A0049474E4954494F4E5F4F4646B6
:100A40000D0A0044656C617965642069676E69749C
:100A5000696F6E20256C64207365636F6E6473200C
:100A600072656D61696E696E670D0A004C49474891
:100A700054535F4F4E0D0A004C49474854535F4F43
:100A800046460D0A00524556455253455F4F4E0D9E
:100A90000A00524556455253455F4F46460D0A00DF
:100AA00044656C61796564206F6E2072657665724D
:100AB0007365202564207365636F6E6473207265AF
:100AC0006D61696E696E670D0A0044656C617965D8
:100AD00064206F6666207265766572736520256492
:100AE000207365636F6E64732072656D61696E69F2
:100AF0006E670D0A005370656564206E6F77202560
:100B0000660D0A00745F77697200496E76616C69E0
:100B1000642050574D20636F6E666967757261740B
:100B2000696F6E0D0A00745F3136300046696C6C77
:100B3000696E672045322072756E74696D65202577
:100B4000642025642E0D0A00486F20756E612072A6
:100B500069636869657374612064692063616D62AB
:100B6000696F2073636865726D6174612E0D0A0090
:100B700061206D656E7520746F2073656E6420252D
:100B8000700D0A0052696C617363696F0D0A00523F
:100B900069747261736D6574746F0D0A0068616EBB
:100BA000646C655F73776320717565756520667524
:100BB0006C6C0D0A004552524F52452121210074A0
:100BC0005F35303000745F32303000726164696FBD
:100BD00020616C70696E650D0A004E41434B090A35
:100BE00000726570656174207478202564090A00BC
:100BF000474956452055502C2033204E41434B53F6
:100C00000D0A0054494D454F5554740A00726570E1
:100C10006561742074782025640D0A0047495645A3
:100C20002055502C20332054494D454F55540D0A22
:100C3000004E6F2050726573730D0A00566F6C2B57
:100C40002070726573730D0A00566F6C2B207265ED
:100C50006C0D0A00566F6C2D2070726573730D0A4F
:100C600000566F6C2D2072656C0D0A005365656B24
:100C70002B2070726573730D0A005365656B2B2012
:100C800072656C0D0A005365656B2D20707265737B
:100C9000730D0A005365656B2D2072656C0D0A009B
:100CA0004D7574652070726573730D0A004D75740F
:100CB000652072656C0D0A005072657365742B2097
:100CC00070726573730D0A005072657365742B2022
:100CD00072656C0D0A005072657365742D20707218
:100CE0006573730D0A005072657365742D2072650B
:100CF0006C0D0A00536F75726365207072657373B3
:100D00000D0A00536F757263652072656C0D0A00E1
:100D100054656C5069636B55702070726573730D08
:100D20000A0054656C5069636B55702072656C0DD8
:100D30000A0054656C48616E675570207072657367
:100D4000730D0A0054656C48616E675570207265BA
:100D50006C0D0A005370656563682070726573736B
:100D60000D0A005370656563682072656C0D0A009A
:100D7000556E737570706F7274656420535743209D
:100D8000636F6D6D616E640D0A004572726F722043
:100D900073656E64696E672C2070757368696E6721
:100DA000206261636B207377632025640D0A005312
:100DB00057432025642072657456616C2025640DAC
:100DC0000A0052657461696E206B657920253032A6
:100DD0005820666F722025642074696D65732E0D2E
:100DE0000A00496E76696F206D656E7520636F6EBF
:100DF00074696E75650D0A00496E76696F206D65C0
:100E00006E752025700D0A00496E76696F20616C41
:100E10006C61726D652E0D0A002A2A2A2A2A2A2060
:100E2000547261736D6574746F20696C206D6573A5
:100E300073616767696F2E0D0A00616C70696E657A
:100E40005F7461736B002563256325632563000967
:100E50002530356C7509253032582530325825300B
:100E60003258253032580D0A00416C70696E652089
:100E70004C6F776C6576656C0D0A00092530356C12
:100E80007509090909200072657175657374206E12
:100E90006F7420696D706C656D656E746564202576
:100EA0003032580D0A00416C70696E65204C6F77C6
:100EB0006C6576656C20696E69740D0A00736572E5
:100EC00069616C20696E69740D0A00616C70696EED
:100ED000655F6C6F7700092530356C75090025302A
:100EE00032580076656869636C655F75706461741B
:100EF000655F73796E635F636C6F636B0068616ECF
:100F0000646C655F636C6F636B5F646174655F6D78
:100F1000656E750068616E646C655F636C6F636BB2
:100F20005F646174655F76616C75655F726563654A
:100F30006976656400000000AB150B00BA150B0064
:100F4000BA150B00BA150B00C7150B00BA150B002C
:100F5000BA150B00BA150B00BA150B00BA150B0029
:100F6000BA150B00BA150B00BA150B00BA150B0019
:100F7000BA150B00BA150B00BA150B00BA150B0009
:100F8000BA150B005B170B006D170B006D170B00EC
:100F900079170B0089170B0094170B00A2170B0091
:100FA000B2170B00BF170B00BF170B00CC170B00BD
:100FB000BF170B00BF170B00BF170B00DA170B0092
:100FC000BF170B00BF170B00BF170B00BF170B009D
:100FD000D3160B00D7160B00D7160B00DB160B0031
:100FE000E0160B00E7160B00EC160B00F0160B00DA
:100FF000D7160B00D7160B00F7160B00D7160B00F1
:10100000D7160B00D7160B00FB160B00D7160B00DC
:10101000D7160B00D7160B00D7160B0000000000E8
:10102000FD150B0004160B0004160B0004160B0034
:101030000A160B0004160B0004160B0004160B0016
:1010400004160B0004160B0004160B0004160B000C
:1010500004160B0004160B0004160B0004160B00FC
:1010600004160B0004160B0004160B0054150B009D
:1010700058150B0058150B0058150B0058150B0090
:1010800058150B0058150B0058150B0058150B0080
:1010900058150B0058150B0058150B0058150B0070
:1010A00058150B0058150B0058150B0058150B0060
:1010B00058150B0058150B0050150B0050150B0060
:1010C00050150B0050150B0050150B0050150B0060
:1010D00050150B0050150B0050150B0050150B0050
:1010E00050150B0050150B0050150B0050150B0040
:1010F00050150B0050150B0050150B0050150B0030
:1011000050150B00256C64202573202530325820A3
:101110002530325820253032580D0A0043616D6267
:10112000696F2076616C6F72652073796E632063DE
:101130006C6F636B206461202564200043616D62E5
:10114000696F2031322F3234480D0A0043616D62DD
:10115000696F2072696761206174746976610D0A34
:1011600000256C642025732025642025640D0A0069
:1011700043616D62696F20616E6E6F2025640D0A98
:101180000043616D62696F206D6573652025640D94
:101190000A0043616D62696F2067696F726E6F202C
:1011A00025640D0A0043616D62696F206F726120D2
:1011B00025640D0A0043616D62696F206D696E756B
:1011C000746F2025640D0A00526F77202564206E0D
:1011D0006F742068616E646C65640D0A002573206D
:1011E000796561723A2025642076656869636C656B
:1011F0005F6D6F6E74683A20256420766568696358
:101200006C655F6461793A20256420686F75723A75
:10121000202564206D696E7574653A2025640D0A79
:10122000000000007B160B0082160B0082160B00DC
:1012300087160B0090170B008D160B008D160B00F8
:1012400092160B0082160B0082160B009A160B00EA
:1012500082160B0082160B0082160B009D160B00E7
:1012600082160B0082160B0082160B0082160B00F2
:101270005E150B005E150B005E150B005E150B0076
:101280006F150B005E150B005E150B005E150B0055
:101290005E150B005E150B005E150B005E150B0056
:1012A0005E150B005E150B005E150B005E150B0046
:1012B0005E150B005E150B005E150B0081150B0013
:1012C00090150B0090150B0090150B009D150B0051
:1012D00090150B0090150B0090150B0090150B004E
:1012E00090150B0090150B0090150B0090150B003E
:1012F00090150B0090150B0090150B0090150B002E
:1013000090150B0090150B00745F6D72656C0052A8
:1013100065717565737420696E7465726661636565
:10132000206D656E750D0A005265717565737420C8
:101330006D61696E206D656E750D0A00A2160B0059
:10134000A2160B00A2160B00A9160B00B0160B007C
:10135000B7160B00B7160B00BE160B00A2160B003B
:10136000A2160B00C5160B00A2160B00A2160B004E
:10137000A2160B00CC160B00A2160B00A2160B0037
:10138000A2160B00A2160B0000170B0006170B008D
:1013900006170B000C170B0011170B0016170B008C
:1013A0001A170B001F170B0006170B0006170B0070
:1013B00028170B0006170B0006170B0006170B006B
:1013C000D8160B0006170B0006170B0006170B00AC
:1013D00006170B0014160B0019160B0019160B003C
:1013E00019160B0019160B0019160B0019160B0015
:1013F00019160B0019160B0019160B0019160B0005
:1014000019160B0019160B0019160B0019160B00F4
:1014100019160B0019160B0019160B0019160B00E4
:1014200026160B002A160B002A160B002A160B0094
:101430002A160B002A160B002A160B002A160B0080
:101440002A160B002A160B002A160B002A160B0070
:101450002A160B002A160B002E160B002A160B005C
:101460002A160B002A160B002A160B0011160B0069
:1014700011160B0011160B0011160B0011160B00A4
:1014800011160B0011160B0011160B0011160B0094
:1014900011160B0011160B0011160B0011160B0084
:1014A00011160B0011160B0011160B0011160B0074
:1014B00011160B0011160B0036160B0036160B001A
:1014C00036160B0036160B0036160B0036160B00C0
:1014D00036160B0036160B0036160B0036160B00B0
:1014E00036160B0036160B0036160B0036160B00A0
:1014F00039160B0036160B0036160B0036160B008D
:1015000036160B00E8170B00E8170B00E8170B0066
:10151000E8170B00F4170B00E8170B00E8170B0097
:10152000E8170B00E8170B00E8170B00E8170B0093
:10153000E8170B00E8170B00E8170B00E8170B0083
:10154000E8170B00E8170B00E8170B00E8170B0073
:101550003234680031326800414D2F504D00496EE1
:10156000746572666163652073746174757300538A
:101570007461746F20696E7465726661636369611A
:10158000004C494E20416B7469766974C3A47400A1
:101590004C494E20416374697669747900417474D2
:1015A00069766974C3A0204C494E0043414E2041E6
:1015B0006B7469766974C3A4740043414E2041631F
:1015C0007469766974790041747469766974C3A02A
:1015D0002043414E00466F726D617400466F726D1C
:1015E00061746F00466F726D61747500466F726D45
:1015F00061617400466F726D6174C4B100466568C4
:101600006C6572004572726F72004572726F72651E
:10161000004F4B004E65696E004E6F004A610059E5
:10162000657300536900417573004F6666004B6136
:1016300070616CC4B1004F6E0041C3A7C4B16B00B0
:101640005A6569742073796E6368726F6E69736925
:101650006572656E0053796E6320726164696F20F4
:10166000636C6F636B0053696E632E206F726F6CD7
:101670006F67696F20726164696F005374756E647F
:101680006500486F757200686575726500686F72F5
:101690006100676F647A696E61006E7500736161E5
:1016A00074004D696E757465006D696E75746500C2
:1016B0004D696E75746F006D696E75746F006D693C
:1016C0006E757461006D696E7575740064616B6927
:1016D0006B610054616700446179006A6F75720044
:1016E00047696F726E6F0064C3AD61006469610029
:1016F000647A6965C584006461670067C3BC6E0075
:101700004D6F6E6174004D6F6E7468006D6F69731C
:10171000004D657365006D6573006DC3AA73006D40
:1017200069657369C48563006D61616E64004A61B7
:101730006872005965617200616E6EC3A9650041EF
:101740006E6E6F0061C3B16F00616E6F00726F6B80
:10175000006A6161720079C4B16C005568727A6583
:10176000697420756E6420446174756D0054696DF0
:10177000652026204461746500486F726C6F676550
:101780002065742064617465004461746120652083
:101790004F72610052656C6F6A20792066656368DC
:1017A000610052656CC3B367696F20652044617442
:1017B00061005A6567617220692064617461004349
:1017C0006C6F636B20262044617465004B6C6F6BFB
:1017D00020656E20646174756D00536161742076BC
:1017E0006520746172696800496E666F726D61741C
:1017F000696F6E00496E666F726D617A696F6E69AE
:1018000000536F6674776172652056657273696FF5
:101810006E0053572056657273696F6E005665727D
:1018200073696F6E2053570056657273696F6E65EA
:1018300020535720005665727369C3B36E20535707
:1018400000576572736A612053570053572D5665D0
:10185000727369650056656869636C6520736574A9
:1018600074696E67730052C3A9676C616765732002
:1018700064752076C3A9686963756C6500496D70ED
:101880006F7374617A696F6E6920766569636F6CD6
:101890006F00436F6E6669677572616369C3B36E8B
:1018A0002064656C20766568C3AD63756C6F005508
:1018B0007374617769656E696120706F6A617A64BB
:1018C0007500566F65727475696720696E7374650B
:1018D0006C6C696E67656E00496E746572666163F3
:1018E000652045696E7374656C6C756E67656E0016
:1018F000496E746572666163652053657474696EC0
:10190000677300506172616DC3A87472657320645F
:1019100065206C27496E7465726661636500496D68
:10192000706F7374617A696F6E6920496E74657245
:1019300066616363696100416A75737465732064ED
:101940006520496E74657266617A005573746177BB
:1019500069656E696120496E74657266656A73C3F4
:10196000B37700496E746572666163652D696E7345
:1019700074656C6C696E67656E00000001180B0081
:1019800012180B0012180B001D180B0028180B0062
:1019900035180B0012180B0041180B0012180B0021
:1019A00012180B004B180B0012180B0012180B002A
:1019B00012180B0012180B0012180B0012180B0053
:1019C00012180B0012180B0040160B0055160B00D6
:1019D00055160B0055160B0066160B0055160B001E
:1019E00055160B0055160B0055160B0055160B001F
:1019F00055160B0055160B0055160B0055160B000F
:101A000055160B0055160B0055160B0055160B00FE
:101A100055160B00D5150B00D5150B00D5150B0071
:101A2000D5150B00DC150B00DC150B00DC150B00CD
:101A3000E4150B00D5150B00D5150B00EC150B00AC
:101A4000D5150B00D5150B00D5150B00F4150B00A3
:101A5000D5150B00D5150B00D5150B00D5150B00B2
:101A6000EC060B0055180B0055180B0066180B0000
:101A70007D180B0092180B0055180B00AF180B00C7
:101A800055180B0055180B00C2180B0055180B0009
:101A900055180B0055180B0055180B0055180B0066
:101AA00055180B0055180B0055180B0025732061B5
:101AB0002076616C696420646174652E0D0A0000F3
:101AC0002E170B0033170B0033170B0038170B00C2
:101AD0003F170B0044170B0049170B004D170B0065
:101AE00033170B0033170B0051170B0033170B0084
:101AF00033170B0033170B0056170B0033170B006F
:101B000033170B0033170B0033170B001C160B0099
:101B10001F160B001F160B001F160B0023160B00C1
:101B20001F160B001F160B001F160B001F160B00B5
:101B30001F160B001F160B001F160B001F160B00A5
:101B40001F160B001F160B001F160B001F160B0095
:101B50001F160B001F160B0068616E646C655F62D8
:101B60007574746F6E5F706F736974696F6E0068FF
:101B7000616E646C655F7374656572696E675F70D2
:101B80006F736974696F6E0068616E646C655F661F
:101B90006163746F72795F73657474696E677300E3
:101BA000ED260B00DE260B00DE260B00DE260B00EA
:101BB000F2260B00DE260B00DE260B00DE260B00D5
:101BC000DE260B00DE260B00DE260B00DE260B00D9
:101BD000DE260B00DE260B00DE260B00DE260B00C9
:101BE000DE260B00DE260B00DE260B006E250B002A
:101BF00082250B0082250B0082250B0097250B0008
