:0200000280007C
:10000000385F0820F5000800258008000903080073
:1000100025800800258008002580080000000000D9
:1000200000000000000000000000000021070800A0
:10003000258008000000000075070800B1070800CF
:1000400025800800258008002580080025800800FC
:1000500025800800258008002580080025800800EC
:10006000013D08000000000000000000C10308007E
:10007000190408000000000000000000000000005B
:10008000000000009D3E0800BD4008003942080005
:100090000000000025800800857D080025800800FC
:1000A0002580080000000000258008002580080049
:1000B000258008002580080025800800258008008C
:1000C0002580080000000000000000000000000083
:1000D000AD8B0800258008002580080025800800D9
:1000E000258008002580080000000000BD300800C1
:1000F000953108004FF0005208B5194B1A631A6188
:100100004FF48052C3F83022C3F81022154A164B20
:100110009A4219D10021154B154A93421DD3154B14
:10012000154A23F0604121F07F0103F16043B3F5EC
:10013000801F91603EBF936843F0005393600DF0C1
:1001400085FC00F079F8FEE70C49043A8B42E1D2D5
:1001500052F8040F43F8040BF8E743F8041BDCE7FC
:10016000000E0E40FC5D090000800720988C0720DF
:10017000343F08200000080000ED00E0988C0720C4
:1001800010B5054C237833B9044B13B10448AFF3D1
:1001900000800123237010BD988C07200000000010
:1001A000FC5D09000C4B43B10C4810B50C49AFF392
:1001B00000800C48036823B910BD0A48036833B9AE
:1001C0007047094B002BF7D0BDE810401847064B8D
:1001D000002BF5D0184700BF00000000FC5D0900AF
:1001E0009C8C0720FC5D090000000000034A044BC2
:1001F0001A600022034B1A60704700BFD4810720A9
:10020000F4330820B88C0720024A0221032003F0AF
:10021000C3BB00BFB11B0900024A0121002003F04B
:10022000BBBB00BFFF1B09000378122B03D1407832
:1002300008B908F055B870477FB503F07BFB00F0B4
:1002400071F903F077FC04F0FFF808F057F801208B
:1002500008F04EF8012008F043F8002008F040F8BC
:1002600003F00AFB1B49072003F03CFA1A49082057
:1002700003F038FA1949092003F034FA184912201A
:1002800003F030FA03F0ECFC1649174A04911749C1
:100290001378039102929178527801910092012192
:1002A000134A002003F078FB0CF07AFB08F0A6FD5F
:1002B0000CF0C5FC04F0F2F800F006FA0D4A01213A
:1002C000002003F069FB00F023FC002007B05DF87C
:1002D00004FB00BFED010800190208000902080034
:1002E00029020800DE1B0900181C0900E71B090091
:1002F000C01B0900F31B090030BF024A1368013319
:1003000013607047B88C0720064A074913688B4270
:1003100002D8013313607047002001211060034AA6
:1003200003F03ABBB48C0720F5FF0900A41B0900B9
:1003300038B56424044D00212A46084603F02CFBFE
:10034000013CF8D138BD00BF0F1C090001207047E7
:100350000620704701207047074B1A680AB9074A00
:100360001A601A68064910448142A6BF18601046F8
:100370004FF0FF30704700BFBC8C0720385F08206B
:10038000FC7F082010B50446072CFDD8DFE804F0F8
:100390000B04040C0C0C0C0C07F016FA003018BF00
:1003A00001200028F0D010BD07F08CFAF6E708B560
:1003B0000B2007F09FFABDE808400C2007F09ABA1E
:1003C00010B5124807F038FC8107044606D5022113
:1003D0000E4807F02FFC01220D4B1A70E20307D5DF
:1003E0004FF48031094807F025FC0122084B1A70B0
:1003F000E3040AD54FF48051044807F01BFC05487C
:1004000003F0B6FA0122024B1A7010BD000E0E4026
:10041000C88C0720241C090010B50C4807F00CFC00
:100420000204044607D54FF40041084807F002FCD7
:100430000122074B1A70E30307D54FF480310348BC
:1004400007F0F8FB0122024B1A7010BD00100E409D
:10045000C88C072038B5FFF7AAFF02231A484FF4CB
:1004600080544361C0F8A0304FF40043174D102270
:100470006B61C5F8A0304461C0F8A0404466446593
:100480004462C0F88040036F114923F4805303672E
:1004900007F0E8FB10224FF4C031284607F0E2FBDA
:1004A0004FF4006200210B4BC3F88020C3F8802179
:1004B00083F80B131A60C3F88040C3F8804183F8B7
:1004C0000C131C6038BD00BF000E0E4000100E4023
:1004D0000210010000E100E008B50F490F4807F0E5
:1004E000A6FB4FF4C0310E4807F0A1FB012007F036
:1004F00021FA022007F01EFA082007F01BFA8020DC
:1005000007F018FA4FF4805007F014FABDE80840DD
:100510004FF4005007F00EBA02100100000E0E401A
:1005200000100E402DE9F041002486B04FF4807198
:100530004D4807F05DFC08214B4807F051FC4A4844
:1005400007F05EFC494BDFF870811C70FFF782FFFB
:10055000FFF7C2FF2046FFF715FF204607F0D0F84F
:1005600007F082F907F074F9414807F0C5FD07F07C
:100570005DFDFFF71CFF06F0D7FE3E4F3E4D4046A7
:1005800003F0F6F93B784FF000563C4C43B94FF47A
:1005900080536E636363FFF79FFF03F0E3F9EEE7B9
:1005A000374803F0E5F94FF480532E633548236351
:1005B00007F0AEFB0446002007F014F90320FFF714
:1005C000E1FE002007F0BCF807F0E6FDFFF7EFFEC4
:1005D00006F036FD4FF400412B4807F0C7FB2B4ACD
:1005E00003460121002003F0D7F91F4B01205D696C
:1005F00007F07CFB264AC4F30223019001210095F9
:10060000002003F0C9F90120002107F075FB214B00
:10061000B3F5202F34BF2048204803F0A9F9204B20
:1006200004211B680020C3F30323092B0CBF4FF4E4
:1006300000324FF480221B4B1A6007F049FC10B1C6
:10064000194803F095F9042102A807F0CBFC10B17A
:10065000164803F08DF9059A154B16481A6003F0F9
:1006600087F906B0BDE8F081101A0E40C08C072053
:1006700000BD0105C88C0720000E0E4000100E4082
:100680003B1C0900001A0E40501A0E40451C090080
:10069000731C090025050800801C0900891C09003D
:1006A00040090E40C48C0720921C0900AD1C0900B3
:1006B000CC8C0720D41C09002E1C0900014807F02F
:1006C00021BB00BF001A0E4008B5094A01210020D5
:1006D00003F062F903F0E8FE072805D009F09EF95F
:1006E000BDE8084003F082BF02F012FCF8E700BF4B
:1006F000E91C090003480068006880F3088862B6B6
:1007000000DF00BF08ED00E04FF0807300E90A0051
:10071000002340F8202C40F80C3C40387047000083
:10072000064B19680868B0E8F00F80F309884FF0AD
:10073000000080F311884EF00D0E7047D08C07201A
:100740004FF0A00383F31188BFF36F8FBFF34F8F78
:10075000024A136801331360704700BF908007207E
:10076000034A1368013B13600BB983F31188704788
:1007700090800720EFF309800C4B1A6820E9F00FF6
:1007800010602DE908404FF0A00080F3118800F0C0
:100790003DFB4FF0000080F31188BDE80840196868
:1007A0000868B0E8F00F80F309887047D08C072004
:1007B0004FF0805208B5094B1A60EFF311834FF0E8
:1007C000A00282F31188BFF36F8FBFF34F8F00F049
:1007D000EDF9002383F3118808BD00BF04ED00E0AC
:1007E000034A044B1A60072243F8042C704700BFE9
:1007F0001F48010014E000E008B5084B1A6842F4F5
:1008000070021A601A6842F070421A60FFF7E8FF3F
:100810000020034B1860FFF76DFF08BD20ED00E0DE
:100820009080072070470000064A13681968064B3D
:1008300019B94FF0FF321A6070471268D268D26857
:100840005268F8E7D48C07205C8D0720F8B51B4B65
:100850001B4E1D68044630680F46043000F0BDFE94
:10086000334640B901203168164EC96A3268884063
:1008700022EA00023260621C07D137B119681248BF
:100880000431BDE8F84000F085BE2C441A68A5424A
:10089000546007D90D4A10681968BDE8F840043162
:1008A00000F084BE0A4A10681968043100F07EFE28
:1008B000084B1A68944238BF1C60F8BDA48D07200D
:1008C000D08C07202C8D07207C8D0720D88C07200A
:1008D000D48C07205C8D072080B5DFF86880154F29
:1008E000154C164E236873B9154B1B68012B07D99D
:1008F0004FF08053C8F80030BFF34F8FBFF36F8FB6
:10090000FFF7FAFCECE7FFF71BFFFB68DD68281D2B
:1009100000F063FE3368013B33602368013B2360D2
:10092000FFF71EFF286B01F013F9284601F010F9BC
:10093000D8E700BF908D07201C8D0720188D072059
:10094000DC8C072004ED00E02DE9F84F4FEA820A25
:10095000804650460D4699460B9E01F067F80746C3
:1009600098B1582001F062F8044658B107637DB988
:100970004FF0A00383F31188BFF36F8FBFF34F8F46
:1009800000BFFDE7384601F0E3F84FF0FF3591E096
:100990005246A52138460DF0A1FB236BAAF1040AAB
:1009A0009A442AF0070A6B1E04F13402093559787B
:1009B00002F8011B13F8011F09B19D42F7D10A9DEE
:1009C0004FF0000B022D28BF0225271DE562A5640C
:1009D000384684F83DB0C4F84CB000F0D8FDC5F1FD
:1009E000030504F1180000F0D2FDC4F850B02461F2
:1009F000A561646284F854B04A4641465046FFF708
:100A000083FE206006B13460FFF79AFE304B314E12
:100A10001A68DFF8F48001321A603268002A4CD17B
:100A200034601B68012B1FD12B4800F0A5FDDFF8B7
:100A3000DC902A4800F0A0FD294D2A4800F09CFDDA
:100A4000484600F099FD284600F096FD264800F043
:100A500093FD264800F090FD254800F08DFD254BC4
:100A6000C3F80090244B1D600125244A24491368D3
:100A7000086801331360E26A236405FA02F3034352
:100A800014200B60144B394600FB023000F082FD4D
:100A9000FFF766FED8F8003063B13368DA6AE36ABC
:100AA0009A4207D24FF08052164B1A60BFF34F8F15
:100AB000BFF36F8F2846BDE8F88FD8F80030002BC1
:100AC000D2D13368DA6AE36A9A4298BF3460CBE7DE
:100AD000188D0720D08C0720DC8C0720F08C072095
:100AE000448D0720048D0720648D0720908D0720FA
:100AF0007C8D0720D48C0720D88C0720288D0720D8
:100B00002C8D072004ED00E0788D0720308D072024
:100B100013B50024184B00940193C82223461749AB
:100B20001748FFF711FF012818D100F0B1FD012887
:100B300014D14FF0A00383F31188BFF36F8FBFF37D
:100B40004F8F4FF0FF320F4B1A600F4B18600F4B57
:100B50001C6002B0BDE81040FFF74EBE013009D165
:100B60004FF0A00383F31188BFF36F8FBFF34F8F54
:100B700000BFFDE702B010BD588D0720FA1C090028
:100B8000D90808005C8D0720788D0720A48D0720E8
:100B9000024A136801331360704700BF248D072099
:100BA000014B1868704700BFA48D07202DE9F84F4E
:100BB0003C4B1B68002B6ED13B4B1C6801341C6006
:100BC000C4B93A4B1A6812684AB14FF0A00383F3D4
:100BD0001188BFF36F8FBFF34F8F00BFFDE7344A1B
:100BE0001968106818601160324A13680133136085
:100BF000FFF71AFE304D4FF0000B2B682F4F9C4231
:100C00000AD3DFF8A8A0DFF8C490DAF80020126851
:100C1000A2B94FF0FF322A603A68294BD16A1422F8
:100C20004A439A58022A28BF4FF0010B254A1268FE
:100C3000002A0CBF58460120BDE8F88FDAF80020E2
:100C4000D268D66871688C4201D22960E4E706F167
:100C50000408404600F0C1FCB16A19B106F1180061
:100C600000F0BBFC01224FF0140EF06AD9F80030FE
:100C700002FA00F11943124BC9F800100EFB0030C4
:100C8000414600F087FC3868F16AC26A914228BF89
:100C90004FF0010BB9E70C4A4FF0000B136801331A
:100CA0001360C3E7248D0720A48D0720D48C072070
:100CB000D88C0720608D07205C8D0720D08C072002
:100CC000DC8C0720A88D0720208D07202C8D072085
:100CD0002DE9F843314C23684BB94FF0A00383F35F
:100CE0001188BFF36F8FBFF34F8F00BFFDE7FFF792
:100CF00027FD2368013B236024682CB10024FFF703
:100D00002FFD2046BDE8F883254B1B68002BF5D04E
:100D1000DFF8A490234FDFF8A480D9F80030E3B9BE
:100D20000CB1FFF781FD204D2C6844B101271F4E07
:100D3000FFF73CFF00B13760013CF9D12C601B4B41
:100D40001B68002BDAD04FF08052194B1A60BFF3AA
:100D50004F8FBFF36F8F0124D1E7D9F80C300125F5
:100D6000DC68261D04F1180000F037FC304600F066
:100D700034FC1420E26A396805FA02F30B4300FBE5
:100D8000028031463B6000F005FC0A4BE26A1B68BA
:100D9000DB6A9A4224BF054B1D60BEE7248D072005
:100DA000188D07202C8D0720208D0720A88D072067
:100DB00004ED00E0D08C0720648D0720DC8C072038
:100DC00008B540B94FF080520E4B1A60BFF34F8FF9
:100DD000BFF36F8F08BD0C4B196849B14FF0A003EA
:100DE00083F31188BFF36F8FBFF34F8F00BFFDE711
:100DF000FFF7CEFEFFF72AFDFFF76AFF0028E1D0DC
:100E000008BD00BF04ED00E0248D0720184B10B58D
:100E10001A68184B12B101221A6010BD1A60164BE5
:100E20001B68B3FA83F31422DBB2C3F11F035A43E6
:100E300012498C5888184CB94FF0A00383F31188DD
:100E4000BFF36F8FBFF34F8F00BFFDE744680832D9
:100E500064680A44944208BF6268446008BF426004
:100E6000142202FB03135B68DA68054BD4E700BF6A
:100E7000248D0720A88D07202C8D0720DC8C0720CF
:100E8000D08C072010B50C4648B94FF0A00383F36F
:100E90001188BFF36F8FBFF34F8F00BFFDE7054B86
:100EA0001968183100F082FB2046BDE8104001218E
:100EB000FFF7CCBCD08C072038B50D46144648B996
:100EC0004FF0A00383F31188BFF36F8FBFF34F8FF1
:100ED00000BFFDE7074B1968183100F05BFB002CE1
:100EE000214608BF2846BDE8384018BF4FF0FF3004
:100EF000FFF7ACBCD08C072038B5C368DC684CB9B0
:100F00004FF0A00383F31188BFF36F8FBFF34F8FB0
:100F100000BFFDE704F11805284600F05EFB114B09
:100F20001B68E3B9251D284600F057FB01230E4935
:100F3000E26A08689340034314200B6029460B4B78
:100F400000FB023000F026FB094BE26A1B68DB6AFB
:100F50009A4285BF0120074B0020186038BD294602
:100F60000548EFE7248D07202C8D0720DC8C072017
:100F7000D08C0720A88D0720648D072010B504466B
:100F800048B94FF0A00383F31188BFF36F8FBFF30D
:100F90004F8F00BFFDE7FFF7D3FB054B1B682360B6
:100FA000044B1B686360BDE81040FFF7D9BB00BF6E
:100FB000608D0720A48D0720034B1B680360034B43
:100FC0001B684360704700BF608D0720A48D072019
:100FD00070B50C46054648B94FF0A00383F311885D
:100FE000BFF36F8FBFF34F8F00BFFDE749B94FF0DD
:100FF000A00383F31188BFF36F8FBFF34F8F00BF40
:10100000FDE7FFF79DFB0F4B69681A682368581CC2
:101010000ED00D482E680068864201D08A420ED25A
:10102000521A9A4209D29B1A23602846FFF7C4FF3E
:101030000024FFF795FB204670BD002323600124A8
:10104000F7E700BFA48D0720608D07200122014B28
:101050001A607047A88D072008B9064B1868026B04
:101060001346981A13F8011BA529FAD0C0F38F0074
:10107000704700BFD08C0720014B1868704700BF35
:10108000D08C0720054B1B6833B1054B1B68002B28
:101090000CBF02200020704701207047788D072088
:1010A000248D07202DE9F0410446002836D0244A3B
:1010B000C36A11681746C96A8B4238D214268269FE
:1010C000204D002AA8BF3A6806FB0353A2BFD26A8C
:1010D000C2F10302826142699A4222D100F10408FE
:1010E000404600F07AFA184B48B9E06A4643AA59DC
:1010F0002AB901211A68814022EA01021A603A687D
:101100001968D26AE262012404FA02F00843186006
:101110001420414600FB025000F03CFA2046BDE896
:10112000F0813B68DB6AC3620120BDE8F08113688F
:10113000806CDC6AA0422CBF00200120BDE8F08159
:10114000D08C0720DC8C07202C8D0720F8B50446B6
:1011500008B90020F8BD234B1B68984209D04FF016
:10116000A00383F31188BFF36F8FBFF34F8F00BFCE
:10117000FDE7C36C4BB94FF0A00383F31188BFF3B5
:101180006F8FBFF34F8F00BFFDE7C16A826C013BD9
:101190009142C364DDD0002BDBD1051D284600F051
:1011A0001CFA114E114A50B91421E76A7943735859
:1011B0002BB901201368B84023EA00031360A36C25
:1011C000C3F10301E362A1610124116804FA03F091
:1011D000084310601420294600FB036000F0DAF990
:1011E0002046F8BDD08C0720DC8C07202C8D0720F2
:1011F000F8B5044600284DD0C26C4AB94FF0A003A0
:1012000083F31188BFF36F8FBFF34F8F00BFFDE7EC
:10121000836C994238BF1946C36A8B423AD0012A7F
:1012200038D11D4A1268904209D14FF0A00383F3D0
:101230001188BFF36F8FBFF34F8F00BFFDE71426F8
:10124000164D826906FB0353002A4269C162A4BF9E
:10125000C1F1030181619A421CD1071D384600F09B
:10126000BCF9E26A0E4C40B95643AB592BB9012187
:101270002368914023EA010323600123142021689D
:1012800093400B432360394600FB0250BDE8F84011
:1012900000F080B9F8BD00BFD08C0720DC8C07209F
:1012A0002C8D0720044B1A681AB11968CA6C0132D8
:1012B000CA641868704700BFD08C07202DE9F04140
:1012C0001E4C1E4680460F461546FFF739FA236826
:1012D00093F85430022B14D0012123681A6D22EAAE
:1012E00008021A65236883F8541056B13046FFF798
:1012F000ADFA4FF08052124B1A60BFF34F8FBFF31D
:101300006F8FFFF72DFAFFF71BFA15B123681B6DDE
:101310002B602368002293F85430022B09BF01256B
:1013200000252368196D04BFB9431965236883F844
:101330005420FFF715FA2846BDE8F081D08C07202D
:1013400004ED00E0F8B50E4617461D46044648B9C0
:101350004FF0A00383F31188BFF36F8FBFF34F8F5C
:1013600000BFFDE7FFF7ECF90DB1236D2B60022301
:1013700094F8545084F85430EDB2042F16D8DFE8B6
:1013800007F00A0307051100216D0E43266502E0F0
:10139000236D01332365012D15D00125FFF7E0F9F9
:1013A0002846F8BD022DF1D10025F7E7236D013362
:1013B000F1D04FF0A00383F31188BFF36F8FBFF319
:1013C0004F8F00BFFDE7261D304600F006F9144997
:1013D000E26A086805FA02F3034314200B60114B1C
:1013E000314600FB023000F0D5F8A36A4BB14FF054
:1013F000A00383F31188BFF36F8FBFF34F8F00BF3C
:10140000FDE7094BE26A1B68DB6A9A42C5D94FF0D7
:101410008052064B1A60BFF34F8FBFF36F8FBDE74B
:101420002C8D0720DC8C0720D08C072004ED00E0F9
:101430002DE9F843DDF820800E4691461D4604460E
:1014400048B94FF0A00383F31188BFF36F8FBFF348
:101450004F8F00BFFDE7FFF7E5F9EFF311874FF07E
:10146000A00383F31188BFF36F8FBFF34F8F0DB1CC
:10147000236D2B60022394F8545084F85430EDB25D
:10148000B9F1040F16D8DFE809F00A0307051100C7
:10149000216D0E43266502E0236D01332365012D86
:1014A00015D0012087F31188BDE8F883022DF1D112
:1014B0000020F7E7236D0133F1D04FF0A00383F351
:1014C0001188BFF36F8FBFF34F8F00BFFDE7A36A93
:1014D0004BB14FF0A00383F31188BFF36F8FBFF3BD
:1014E0004F8F00BFFDE7134B1B68FBB9261D30462D
:1014F00000F073F8104A1420E36A11689D400D4310
:10150000314615600D4A00FB032000F043F80C4BF8
:10151000E26A1B68DB6A9A42C3D90123B8F1000F63
:1015200001D0C8F80030074A1360BAE704F1180187
:101530000548EAE7248D07202C8D0720DC8C072046
:10154000D08C0720A88D0720648D072038B505466C
:1015500008B9084B1D680024FFF7F2F895F85430DD
:10156000022B04BF85F854400124FFF7F9F8204608
:1015700038BD00BFD08C072000F1080343604FF056
:10158000FF32C36003610023826003607047002361
:101590000361704743689A684B608A609A6851603B
:1015A0009960036808610133036070470A6830B5C9
:1015B000531C0AD103695A684A6091608B60596074
:1015C000036808610133036030BD00F108035C6803
:1015D0002568AA42EFD32346F9E741688268036988
:1015E0008A60826851605968884208BF5A60002248
:1015F00002611A68013A1A6018687047F8B50F4C12
:10160000FFF79EF82568ADB90D4F0E4E3846FFF72F
:10161000B3FF3046FFF7B0FF0B4B2A461F600B4B62
:1016200010211E201E6000F097FB206010B10849B9
:1016300000F0ACFEBDE8F840FFF792B8E08D07205F
:10164000B48D0720C88D0720AC8D0720B08D0720F2
:10165000FF1C0900914208B5416000610AD8D21A06
:1016600083699A420DD2084B011D1868FFF79EFF4F
:10167000002008BD9A4201D2994202D2011D034BBB
:10168000F3E7012008BD00BFB08D0720AC8D072017
:1016900007B5FFF7B3FF0E4B1B684BB94FF0A00324
:1016A00083F31188BFF36F8FBFF34F8F00BFFDE748
:1016B000084B4FF4967201930223074900930748A1
:1016C0000023FFF741F90028E8D003B05DF804FBE0
:1016D000E08D0720E48D0720041D0900051808008F
:1016E0002DE9F04180462C200D4617461E4600F09D
:1016F0009DF90446B0B14DB94FF0A00383F31188B2
:10170000BFF36F8FBFF34F8F00BFFDE7FFF776FF8B
:10171000069BC4F80080A561E76126626362201D14
:10172000FFF735FF2046BDE8F081000030B51546D3
:1017300085B01A46034648B94FF0A00383F31188D9
:10174000BFF36F8FBFF34F8F00BFFDE70C4C2068D6
:1017500078B105298DE8220002930CDCFFF792FC9A
:10176000002302280CBF089A1A466946206800F038
:1017700019FB05B030BD0023694600F0DFFBF8E738
:10178000E08D07202DE9F3414FF000081B4D2B6839
:101790001A6832B91A4A11681360296002B0BDE8AC
:1017A000F081DB68DC681E68271D3846FFF715FFEF
:1017B000636A20469847E369012BE8D1A369334463
:1017C0009E4206D26360246139462868FFF7EEFE28
:1017D000DDE70023CDF80080324619462046FFF7AA
:1017E000A5FF0028D3D14FF0A00383F31188BFF3E6
:1017F0006F8FBFF34F8F00BFFDE700BFAC8D072099
:10180000B08D07202DE9F04F714DDFF8D0812F46C4
:1018100087B02B681C68002C40F0D5804FF0010A7F
:10182000FFF7B6F9FFF7BCF9DFF8B4B18146DBF892
:1018300000305E46984236D2FFF7A4FF0122CBF873
:101840000090002A40F08380BAF1000F66D14C4529
:101850006AD8FFF73DFA3B68DB68D3F80CB00BF1B0
:101860000400FFF7BAFEDBF81C30012B1DD1DBF8BA
:10187000181023464A4621445846FFF7EBFEA0B114
:10188000CDF800A05346224651465846FFF74EFF7A
:1018900058B94FF0A00383F31188BFF36F8FBFF3E4
:1018A0004F8F00BFFDE70022C9E7DBF82430584620
:1018B0009847DFF82491002202A9D9F8000000F02F
:1018C000F9FB0028A5D0029B002B03DA05990498A8
:1018D000039B9847029B002BEDDB049C636913B1CB
:1018E000201DFFF77AFEFFF75BF9336883469842C5
:1018F00001D2FFF747FF029AC6F800B0092ADAD8EA
:101900000123934013F4047A49D113F0C70F21D176
:101910009B06D0D5204600F01BF9CCE72D4B1B6869
:101920001A68B2FA82F252092B4BA4EB090118682B
:1019300000F03EFDFFF7CCF90028BAD14FF08053FC
:10194000C8F80030BFF34F8FBFF36F8FB1E7FFF7D9
:10195000BFF9AEE7A169039B5A4619442046FFF739
:1019600079FE0028A7D0636A20469847E369012BD7
:10197000A1D1A2690399CDF800A00A44534651466B
:101980002046FFF7D3FE002895D14FF0A00383F344
:101990001188BFF36F8FBFF34F8F00BFFDE703992F
:1019A000A16149B94FF0A00383F31188BFF36F8F92
:1019B000BFF34F8F00BFFDE75B465A4659442046B0
:1019C000FFF748FE77E7DB684FF0000A1C6827E75F
:1019D000AC8D0720B08D0720E08D072004ED00E0DE
:1019E000DC8D072010B50F4B1A68824218D35C6853
:1019F0001919884201BF416818460919596044689D
:101A000001198A4207D1084909688A421FBF5168F3
:101A10001268091941609842026018BF186010BD31
:101A20001346E1E7382A0820E88D07202DE9F04128
:101A30000446FFF7ADF83F493F4D0B68FBB93F4AFD
:101A4000002056070FBF49F6404307323C4B22F0B7
:101A5000070218BF9B1A13443A4E083B23F00703B2
:101A600070603260586018600B60981A1360364BD3
:101A700050601860354B18604FF000432B602F68A2
:101A8000274216D1002C41D004F1080358071CBF8F
:101A900023F00703083363B12C4A16689046B3421B
:101AA00007D8284A15686868834204D809688D42B7
:101AB00007D100242AE02C68002CF7D02A462546BE
:101AC000F1E7296814681160C21A102A10D9E818C1
:101AD000410709D04FF0A00383F31188BFF36F8F44
:101AE000BFF34F8F00BFFDE742606B60FFF77AFFE7
:101AF0006B681549F61A1F4300230868C8F8006090
:101B0000864238BF0E6008346F602B60FFF7E0F844
:101B10000CB9FEF70DFC630709D04FF0A00383F367
:101B20001188BFF36F8FBFF34F8F00BFFDE72046D3
:101B3000BDE8F081E88D07202C2A0820EC8D0720D5
:101B40002C2A0820382A0820342A0820302A082085
:101B500010B5044680B3194A50F8043C1268134289
:101B600009D14FF0A00383F31188BFF36F8FBFF348
:101B70004F8F00BFFDE750F8081C49B14FF0A0039C
:101B800083F31188BFF36F8FBFF34F8F00BFFDE763
:101B900023EA020340F8043CFEF7FAFF084A54F82F
:101BA000043C1168A4F108000B441360FFF71AFF0E
:101BB000BDE81040FFF78CB810BD00BF2C2A0820EC
:101BC000302A082010B50446FEF7BAFDA46BFEF7D4
:101BD000C7FDB4FA84F0400910BD70B51546026C1B
:101BE0000446866B42B905689DB98068FFF7AEFA76
:101BF000A5600136A66370BD6DB940680CF0F8F9B8
:101C00006368226C1344A2686360934201D3236823
:101C100063600020EDE7C0680CF0EAF9236CE2682D
:101C20005B4221681A448A42E2603EBFA2689B1868
:101C3000E360022DEDD10EB1013EEAE73046D8E770
:101C400003461A6C10B4084662B1D9689C68114406
:101C5000A142D96028BF196810BC28BFD960D968D3
:101C60000CF0C6B910BC704770B50446FEF768FDAD
:101C700094F8455004F124066DB2002D14DCFF23C6
:101C800084F84530FEF76CFDFEF75AFD94F8445099
:101C900004F110066DB2002D12DCFF2384F84430ED
:101CA000BDE87040FEF75CBD636A002BE7D03046AC
:101CB000FFF722F908B1FFF7C9F9013D6DB2DCE782
:101CC0002369002BE9D03046FFF716F908B1FFF77A
:101CD000BDF9013D6DB2DEE738B50D46044648B9A1
:101CE0004FF0A00383F31188BFF36F8FBFF34F8FC3
:101CF00000BFFDE7FEF724FD206CE36B2268434341
:101D0000D1181B1A1344A160E3600021FF23A163D3
:101D1000626084F8443084F8453095B9236963B132
:101D200004F11000FFF7E8F838B14FF08052094B8A
:101D30001A60BFF34F8FBFF36F8FFEF711FD0120C5
:101D400038BD04F11000FFF717FC04F12400FFF781
:101D500013FCF2E704ED00E0F8B50D461746064621
:101D600048B94FF0A00383F31188BFF36F8FBFF31F
:101D70004F8F00BFFDE748435030FFF757FE044642
:101D800048B155B92060E663256401212046FFF77C
:101D9000A3FF84F84C702046F8BD00F150030360A7
:101DA000F1E700002DE9FF47894601921F460446EE
:101DB00048B94FF0A00383F31188BFF36F8FBFF3CF
:101DC0004F8F00BFFDE7002940F08A80036C002B95
:101DD00000F086804FF0A00383F31188BFF36F8F6C
:101DE000BFF34F8F00BFFDE7019E002E00F0838000
:101DF0004FF0A00383F31188BFF36F8FBFF34F8FB2
:101E000000BFFDE7019D1DB9FEF7AAFC002058E0C8
:101E100016B902A8FFF7D0F8FEF7A2FCFEF7B8FE4D
:101E2000FEF78EFC94F84430FF2B08BF84F8448002
:101E300094F84530FF2B08BF84F84580FEF790FCEE
:101E400001A902A8FFF7C4F8002843D1FEF778FCE7
:101E5000A66BE56BFEF784FCAE4235D1019904F127
:101E60001000FFF70FF82046FFF7FEFEFEF730FFE9
:101E700038B94FF08053CAF80030BFF34F8FBFF32B
:101E80006F8F0126FEF75CFCA26BE36B9A4201D3D5
:101E9000022FB7D13A4649462046FFF79EFE636AB5
:101EA0001BB104F12400FFF727F838B14FF080523E
:101EB000184B1A60BFF34F8FBFF36F8FFEF750FCC4
:101EC000012004B0BDE8F0872046FFF7CDFEFEF705
:101ED000FFFED6E72046FFF7C7FEFEF7F9FE95E7BF
:101EE000022F02D1E36B012B0AD1FFF7CBF80028B8
:101EF0003FF47AAF00264FF00008DFF818A0C1E7E2
:101F00004FF0A00383F31188BFF36F8FBFF34F8FA0
:101F100000BFFDE704ED00E010B5024600210120FE
:101F2000FFF71AFF044638B1002383600360C360E3
:101F30001A461946FFF736FF204610BD2DE9F84333
:101F4000884691461F46044648B94FF0A00383F3E4
:101F50001188BFF36F8FBFF34F8F00BFFDE711BB39
:101F6000036C03B34FF0A00383F31188BFF36F8FAB
:101F7000BFF34F8F00BFFDE704F12400FEF7BCFF65
:101F8000002834D0B9F1000F31D00120C9F8000089
:101F900086F31188BDE8F88301356DB284F84550A9
:101FA00025E00020F4E7022F02D1E36B012B20D1C2
:101FB000FEF738FCEFF311864FF0A00383F311888E
:101FC000BFF36F8FBFF34F8FA26BE36B9A4201D3C6
:101FD000022FE6D194F845503A466DB2414620466C
:101FE000FFF7FBFD6B1CD7D1636A002BC4D1012026
:101FF000CEE74FF0A00383F31188BFF36F8FBFF3D9
:102000004F8F00BFFDE770B50D46044648B94FF04D
:10201000A00383F31188BFF36F8FBFF34F8F00BF0F
:10202000FDE7036C4BB14FF0A00383F31188BFF3BE
:102030006F8FBFF34F8F00BFFDE703680BB9836855
:1020400073BBFEF7EFFBEFF311864FF0A00383F3B2
:102050001188BFF36F8FBFF34F8FA26BE36B9A4270
:1020600001D3002014E094F8453001325BB2A26342
:102070005A1C10D1636A0BB9012009E004F1240055
:10208000FEF73AFF0028F7D0002DF5D00120286098
:1020900086F3118870BD01335BB284F84530EBE7FD
:1020A0004FF0A00383F31188BFF36F8FBFF34F8FFF
:1020B00000BFFDE72DE9F04385B088460192044654
:1020C00048B94FF0A00383F31188BFF36F8FBFF3BC
:1020D0004F8F00BFFDE7002940F08880036C002B84
:1020E00000F084804FF0A00383F31188BFF36F8F5B
:1020F000BFF34F8F00BFFDE7019E002E7BD04FF056
:10210000A00383F31188BFF36F8FBFF34F8F00BF1E
:10211000FDE7019D1DB9FEF723FB002052E016B933
:1021200002A8FEF749FFFEF71BFBFEF731FDFEF7A5
:1021300007FB94F84430FF2B08BF84F8447094F8F0
:102140004530FF2B08BF84F84570FEF709FB01A955
:1021500002A8FEF73DFF00283DD12046FFF732FDE3
:1021600098B3019904F12400FEF78CFE2046FFF796
:102170007BFDFEF7ADFD38B94FF08053C9F8003054
:10218000BFF34F8FBFF36F8F0126FEF7D9FAA56B10
:10219000002DBED041462046013DFFF751FDA5630D
:1021A000236963B104F11000FEF7A6FE38B14FF0C9
:1021B0008052134B1A60BFF34F8FBFF36F8FFEF740
:1021C000CFFA012005B0BDE8F0832046FFF74CFDB3
:1021D000FEF77EFDD8E72046FFF746FDFEF778FDC7
:1021E0002046FFF7EFFC0028CED096E7FEF74AFF27
:1021F000002881D000260027DFF80490C5E700BF43
:1022000004ED00E02DE9FF410446019148B94FF08B
:10221000A00383F31188BFF36F8FBFF34F8F00BF0D
:10222000FDE7056C4DB14FF0A00383F31188BFF3B8
:102230006F8FBFF34F8F00BFFDE7FEF723FF18B985
:10224000019D002D40F096802E460027DFF8388152
:10225000FEF776FAA36BE3B1013BA363236813B9DE
:10226000FFF720F8A060236963B104F11000FEF7C6
:1022700043FE38B14FF08052434B1A60BFF34F8F8B
:10228000BFF36F8FFEF76CFA0125284604B0BDE856
:10229000F081019B6BB94DB14FF0A00383F311881E
:1022A000BFF36F8FBFF34F8F00BFFDE7FEF758FA04
:1022B000EBE716B902A8FEF77FFEFEF751FAFEF72C
:1022C00067FCFEF73DFA94F84430FF2B08BF84F812
:1022D000447094F84530FF2B08BF84F84570FEF732
:1022E0003FFA01A902A8FEF773FE40BB2046FFF7A4
:1022F00069FCF0B123683BB9FEF722FAA068FEF74B
:10230000D1FE0546FEF72CFA019904F12400FEF7F0
:10231000B9FD2046FFF7A8FCFEF7DAFC38B94FF00C
:102320008053C8F80030BFF34F8FBFF36F8F012683
:102330008EE72046FFF798FCFEF7CAFCF7E7204639
:10234000FFF792FCFEF7C4FC2046FFF73BFC002899
:10235000EDD0002D99D0FEF7F3F9616A19B1236B26
:102360001968C1F10301A068FEF742FF0025FEF7DE
:10237000F7F98AE74FF0A00383F31188BFF36F8F5B
:10238000BFF34F8F00BFFDE704ED00E0002330B541
:10239000064A52F83350DC0025B942F83310224483
:1023A000506030BD0133082BF3D130BD402A0820E6
:1023B00070B504460D461646FEF7C2F994F844304F
:1023C000FF2B04BF002384F8443094F84530FF2BE2
:1023D00004BF002384F84530FEF7C2F9A36B2BB984
:1023E0003246294604F12400FEF766FD2046BDE88A
:1023F0007040FFF739BC000010B5094C094A0121B3
:10240000002001F0C9FA237833B906F0EDFC06F09C
:1024100039F90123237010BDBDE8104001F0C0BCA4
:10242000172B0820F51D0900002370B5064E95B244
:102430009CB2A54202D80023835470BDCC18345DF1
:10244000C4540133F4E700BF3C2C0820F0B5274802
:10245000B7B00BF075FF0223C5B201AE2A4624497E
:1024600030468DF810300BF0A5FE9DF804309DF835
:1024700005005A1C8DF8113000239DF80610024407
:102480008DF8120019488DF813100A44D9B28D4204
:1024900024D892B2174930460BF08CFE0023ACB220
:1024A000271DFA1836A992B20A44F15C0133042BB5
:1024B00002F8C81CF5D1032236AB234403F8C02C24
:1024C00036AB1C440A2304F8BF3C0B4B05F10A024F
:1024D000186804A9C368984737B0F0BD195C04AC0C
:1024E0001C4421710A440133D0E700BF422E08206A
:1024F000EB1D0900F01D0900E02E082007B5435C24
:10250000013189B28DF80430435C0021102201A80A
:102510008DF805308DF806100CF006F8C0B203B047
:102520005DF804FB63232DE9F347ADF80030282361
:10253000ADF80230B323044600F14606224F234D86
:10254000DFF88C80ADF80430B6B24FF0000904EB30
:102550008901042289B23846FFF766FF1022002164
:1025600038460BF0E1FF1022A88100213846B5F86B
:1025700004A00BF0D9FF3DF8193009EB8A0A09F1E4
:10258000010905EB4A0A5840B9F1030FAAF81400F3
:10259000DDD104F10C0189B24046B5F80490FFF793
:1025A000ADFFAB882A8801339BB205EBC9090E3415
:1025B0009A42A9F81A00A4B2AB8001D9B442C4D19E
:1025C00002B0BDE8F08700BF3C2E082094800720B1
:1025D0003C2C082010B5084C4FF4807204F108011F
:1025E000201D00F0FDFC636803F580736360002329
:1025F000A4F8183110BD00BF182B08200A4B0B4A55
:10260000B3F8101102EBC102D18A128BC3F80C117E
:102610000A440132C3F81421012283F81221002256
:10262000A3F81821704700BF182B082094800720BA
:102630000A4B10B55968081FFC3150F8042F0433B9
:10264000C2F307241A715C718842C2F30744C2F3D3
:1026500007629C71DA71F0D110BD00BF182B082001
:102660002DE9F04F04460E46B24FB34DDFF8F88225
:102670008FB03B88B3EB440F0BDC6B78013B042B32
:1026800000F25581DFE813F00F007800B800CC00AD
:10269000D20031464046FFF731FF0236285501345B
:1026A000A4B2B6B2E5E70DF1170000F09FFC0028D8
:1026B00000F037819DF81700A04C002856D0A04AA2
:1026C0000121002001F068F90023236036238DF8F2
:1026D000183030238DF819303A238DF81A30002342
:1026E00006A998488DF81B300BF0ACFD964906A85A
:1026F0008B784A78C978009194490BF05BFD06A964
:1027000090480BF09FFDFDF721FE9149024606A877
:102710000BF050FD06A98B480BF094FDFDF718FE59
:102720008B49024606A80BF045FD06A985480BF02B
:1027300089FDFDF70FFE8649024606A80BF03AFD1B
:1027400006A980480BF07EFD00F078FC054600F0FD
:102750007DFC23687F4900932A46034606A80BF0B8
:1027600029FD06A977480BF06DFD88E07A4A012122
:1027700001F012F90123A8E7A9782B79774CEE78BC
:102780006D7981F0590283F01A00A274E0746A40F6
:10279000704002EB002281F0350183F0CD0303EBA2
:1027A0000123A260142104226D482382FFF73CFE1E
:1027B000102200216A480BF0B7FE238A04225840F9
:1027C00060801A216648FFF72FFE0021102264481E
:1027D0000BF0AAFE238A58404FF6FF73A081E381D5
:1027E00000245648A0F81041FFF708FF5D4980F823
:1027F0001A41A0F81C41B5E7042208215848FFF708
:1028000013FE1022002156480BF08EFE0022534B7F
:10281000554918800C209A80FFF784FE5349A1E7A0
:1028200051490820FFF77EFE51499BE7434C94F83D
:102830001A71002F79D00025484EA846B346A4F857
:102840001051B4F8102133889A421BD3B368ADB24B
:102850009D4268D1207800F001FC002861D04549F4
:1028600038480BF0EFFC444B1C68FEF799F90A233B
:1028700002460093012100232046FEF757FF0FB0C8
:10288000BDE8F08F4FF00009FFF7B8FEB4F8102153
:1028900006EBC203DB8A06EBC202928AA4F80A3175
:1028A00003F47F4303EB02136360B4F810310BEBC6
:1028B000C302128B0132914503D30133A4F81031C6
:1028C000BFE7FFF7B5FE6368B4F80AE103F580736C
:1028D00063601EF0FF03A4F8188118BFA4F8183134
:1028E000D4F81431B4F818C10393002318469AB2EF
:1028F00002EB0E01624492B2FF2A89B209EB030A8D
:1029000004D908B1A4F80A11D146CEE7039A0133DD
:102910009142F6D20CEB03022244D2793846154498
:10292000E5E716491EE716491CE716491AE7164956
:1029300018E700BF382C0820802A0820182B082010
:10294000601D0900422E0820181C0900821D090084
:102950008A1D09008E1D0900711D09009480072041
:102960003C2E08209C1D09003C2C08209F1D0900BE
:10297000A21D0900A51D0900D82E0820991D0900D7
:10298000A81D0900AB1D0900AE1D09000149024840
:102990000BF058BCAE1D0900422E082010B5244A89
:1029A0009178D378234A03EB012392F812119BB25A
:1029B000A2F80831144669B1B2F810111E4A02EBB0
:1029C000C102928A9A4230D11C491D48BDE810408C
:1029D0000BF038BCB2F818314BB1FF20DA1D22449D
:1029E000FF2B18D909B1A4F81831FFF7F3FDB4F89B
:1029F00010311148013302889BB29A42A4F8103179
:102A00000FD0FFF7FBFDB4F81031B4F8082100EB4C
:102A1000C300838AD6E7013302F8010F9BB201217C
:102A2000DEE7012384F81A31CEE70649CDE700BF7F
:102A3000802A0820182B082094800720A51D090053
:102A4000422E0820281D090000210422F0B56C4CFC
:102A50006C48B4F81E71B4F81C3185B0BA42C0F0AD
:102A6000898009B1A4F81C31674DEB19EA5D5B78E8
:102A700003EB0223B4F81C219BB29A4240F0B980C8
:102A8000AA78EB7803EB022394F812219BB2A4F806
:102A90000A3122B35D4EB4F8102106EBC202D28A8D
:102AA0009A426FD15A4A0121002000F075FF00239D
:102AB00084F81231B4F81031B4F80A2106EBC306D9
:102AC000B18A02F47F4303EB011312F0FF0F63603E
:102AD00005D0FFF7ADFD94F80A31A4F818310426AB
:102AE000BE425BD1842E1AD0D4F80C21D4F8143114
:102AF0009A426FD1B4F818318BB1464A01210020B7
:102B000000F04AFF0021FF20B4F81831DA1D2244FA
:102B1000FF2B59D909B1A4F81831FFF75BFDD4F8A0
:102B20000C21D4F81431394D9A4214D13A4A01217A
:102B3000002000F031FFB4F810312A8801339BB235
:102B40009A42A4F8103150D0344A0121002000F0FC
:102B500023FFFFF753FD324932480BF073FBEA893C
:102B6000314901A80BF026FB01A92E480BF06AFBA6
:102B7000002011E010F8011F01320B449BB292B209
:102B800001216BE7294A0121002000F005FF2849B7
:102B900024480BF057FB072005B0F0BDB4F818210E
:102BA000A95D531C9BB22244B3F5807FA4F8183171
:102BB000117201D1FFF70EFDD4F80C31013601334B
:102BC000C4F80C31B6B28BE7013302F8010F9BB2A7
:102BD00001219DE7174A0121002000F0DDFE164982
:102BE00010480BF02FFB0820D6E7012384F81A3198
:102BF000B1E712490B480BF025FB0420CCE700BFDE
:102C0000182B0820832A0820802A08209480072077
:102C10002B1D09003C1D09004D1D0900521D090016
:102C2000571D0900422E0820EB1D0900301D090028
:102C3000391D0900411D09004A1D09005A1D0900DE
:102C400008B5064BB3F818310BB1FFF7C3FCBDE86C
:102C50000840034903480BF0F5BA00BF182B0820C1
:102C60005D1D0900422E08202DE9F047404C414BE4
:102C70006178414E08291B8822D10222073B93FB31
:102C8000F2F33E480322A6F81E31FFF7CDFB3C4B82
:102C90001022DD8900210135ADB23848DD810BF00D
:102CA00043FCC0F30B00854208D196F81A312BB3D0
:102CB00034493548BDE8F0470BF0C4BA3349F8E76A
:102CC0000222043B93FBF2F34FF00808A6F81E31F2
:102CD0000025DFF8C4902A4FB6F81E311FFA85FA96
:102CE00008EB4A01534589B20BD86378053B042BA6
:102CF00032D8DFE803F0212531292D004FF00B08F1
:102D0000E6E74846FFF7FAFB0AF0010ABA449AF8E8
:102D100012306B405840C0B200F00F023A4407EB4B
:102D2000101092F8141190F81421ABB2234402EB66
:102D300001129A700135CFE7BDE8F047FFF726BED4
:102D4000BDE8F047FFF72ABEBDE8F047FFF77CBEBD
:102D5000BDE8F047FFF774BF0D490B480BF072FA5E
:102D6000BDE8F0470B4A0121002000F015BE00BF6E
:102D7000802A0820382C0820182B08203C2E0820F8
:102D8000948007200C1D0900422E08200F1D090009
:102D9000AE1D0900121D09003C2C082010B50421AD
:102DA0001148FFF7ABFB114C062120700E48FFF7CE
:102DB000A5FB0422607011460D48FFF735FB237810
:102DC000202B06D0262B0CD00A4909480BF03AFAE2
:102DD00003E008210220FFF743FCBDE81040FFF7A5
:102DE00035BBFFF741FFF8E73C2C0820802A08207C
:102DF000422E0820AE1D09002DE9F3470024274686
:102E0000A0463E4E002000F0E1FE002005F068FAEA
:102E1000012005F065FA00F0A5FD394B0122186884
:102E20000DF107010A23806903F0F3FF002859D050
:102E30003378022B18BF00279DF80730B7F5007FC5
:102E4000F35528BF0027F25D7B1C0A2A9BB248D1AC
:102E500000272C4A13803378022B40D1294C238839
:102E60009BB2013BF35C0A2B39D103220121264896
:102E7000757896F802A096F80390FFF7D5FA00212E
:102E8000102221480BF050FB204B81B2198023887F
:102E9000EDB29BB20A3B99425FFA8AFA5FFA89F96E
:102EA00027D100226C1C54444C4490B2031D814233
:102EB0009BB21AD8043189B20B1DF35C032B18D1D5
:102EC00004221148FFF7B0FA102200210E480BF03F
:102ED0002BFB4440A4B274B9FFF760FF92E70124D2
:102EE00090E71F46002C8DD0B5E7F35C01321C44FF
:102EF000DBE786F80080002484E700BF3C2C082034
:102F0000E02E08203A2C08203C2E0820382C0820DF
:102F10001F4B37B51C78002C37D101251D4A294697
:102F200020461D7000F038FD00F048F81A4B1B4891
:102F30001D701B4B4E2218604FF4E13143699847D6
:102F4000032221462846FEF707FF20B123462246EA
:102F50002146FEF727FF134B4FF47A7100930122AD
:102F600000231148FEF7BCFB104B0146186010B956
:102F70000F4A00F011FD012200230E498DE80C00DC
:102F80000D484FF41672FDF7DFFC03B030BD00BFF3
:102F9000162B0820B11D0900DC2E0820D481072043
:102FA000E02E0820F9230800C01D0900D82E0820B3
:102FB000C81D0900DF1D0900F92D080010B5062104
:102FC000002004F085FF034630B1BDE81040034AFD
:102FD0000121002000F0E0BC10BD00BFFE1D090073
:102FE00001234FF48072006804F086BF70B50022A0
:102FF00004460D210E4804F021FF0646A8B90C48EE
:1030000004F007FF10F0040507D00A4A01213046FA
:1030100000F0C2FC0120207070BD074A0121284643
:1030200000F0BAFC2570012070BD002070BD00BF0B
:10303000000A0E40601D0900711D0900024B18684E
:10304000C0F30750704700BF40090E40024B18689C
:10305000C0F30320704700BF40090E4008B50222AC
:1030600038B10B21044804F0E9FEB0FA80F04009C1
:1030700008BD0C21F6E700BF000A0E4000230360E4
:10308000037143718371C3718360C36003614361E2
:103090008361C3617047000008B5064A0121002022
:1030A00000F07AFCBDE80840034A0121002000F04E
:1030B00073BC00BFA01E0900B61E090070B53048E1
:1030C00092B004F045FC10F0FF0F53D000242C4EBA
:1030D000E5B22946304604F043FC03024CD5294CA6
:1030E000A06021462648256004F08BFCE36912A904
:1030F0000293A369082241F8443D05A80AF078FF2D
:103100000022236920460393A3798DF81D208DF8B2
:103110001C3063799B1A18BF01238DF81030FFF71C
:10312000ADFF194919480B68009201330B60134633
:1031300003991D2B50F823201AD0914203F101036B
:10314000F7D10023142203A909A88DF820300AF032
:103150004FFF694608A800F0CDFA009B53B14FF02D
:1031600080520B4B1A60BFF34F8FBFF36F8F01E09C
:103170009142E6D012B070BD0134082CA8D1F9E715
:1031800000400B40E82E08207830082084300820CA
:1031900004ED00E070B5304892B004F0D9FB10F0B7
:1031A000FF0F53D000242C4EE5B22946304604F0E0
:1031B000D7FB03024CD5294CA06021462648256048
:1031C00004F01FFCE36912A90293A369082241F8E5
:1031D000443D05A80AF00CFF236920460393A37918
:1031E0008DF81C3001238DF81D306379003318BF32
:1031F00001238DF81030FFF741FF002318491948CB
:103200004A68009301324A6003991A18742B926F2E
:103210001AD0914203F10403F7D10123142203A928
:1032200009A88DF820300AF0E3FE694608A800F0EE
:1032300061FA009B53B14FF080520B4B1A60BFF301
:103240004F8FBFF36F8F01E09142E6D012B070BD97
:103250000134082CA8D1F9E700800B40102F08207A
:10326000783008208430082004ED00E02DE9F34791
:103270000446394D407C394E15F800E081000A18AB
:10328000724406EB4213A2689A61E268DA6122791D
:10329000A2B101225A7122681A610B187344227C70
:1032A00006EB43139A7178B1012804D02C4A01210E
:1032B000002000F071FBDFF8B48007E05A71276846
:1032C000284A02EA8742E7E7DFF8A4800C27DFF804
:1032D000A490637C404603EB8301EB5C194406EB4E
:1032E000411104F0C8FB01288246637C14D00821F8
:1032F000EB5C40469940C9B204F02CFB0522617C8E
:103300006B5C0133DBB2B3FBF2F202EB82029B1A7D
:103310006B5402B0BDE8F087EA5C51460092002091
:103320004A4600F039FB013F0520FDF749FD17F043
:10333000FF07CED151460C4A384600F02DFB4046DF
:10334000637C03EB8301EB5C194406EB411102B093
:10335000BDE8F04704F015BBE42E0820382F082004
:10336000641E09000000FC1F951E090000800B4030
:1033700000400B407F1E0900014804F0FFBE00BF63
:10338000082F0820014804F0EBBE00BF082F0820DA
:103390002DE9F041044638211A4804F0DFFEFFF71A
:1033A000F1FF2B2004F0A6FA22461749174804F033
:1033B00099FB20B1164A0121002000F0EDFA032507
:1033C0004FF0FF31114804F0C1FA104804F079FBC6
:1033D000A84600260F4C0D4F2046FFF74FFEEB008E
:1033E000093B256084F80480E3716671E66021463C
:1033F0003846013504F0D1FA082D04F12004EBD150
:10340000BDE8F081082F082000BD010500400B40F9
:103410001D1E0900382F0820014804F0A1BE00BF7E
:10342000302F08202DE9F041044636211A4804F0D7
:1034300095FEFFF7F1FF2C2004F05CFA22461749B5
:10344000174804F04FFB20B1164A0121002000F07C
:10345000A3FA03254FF0FF31114804F077FA104822
:1034600004F02FFBA84600260F4C0D4F2046FFF717
:1034700005FEEB00093B256084F80480E37166716A
:10348000E66021463846013504F087FA082D04F13C
:103490002004EBD1BDE8F081302F082000BD0105EC
:1034A00000800B403D1E0900D82F08200D4938B57B
:1034B0000846FFF7E3FD002301250B4C0B60CB60B2
:1034C0000A4B20460B610D7104F067FA294620462D
:1034D00004F03AFA4FF40062054B5A60F02283F888
:1034E0002B2338BDE82E082000400B400000FC1FB5
:1034F00000E100E00D4938B50846FFF7BFFD0023A5
:1035000001250B4C0B60CB600A4B20460B610D7103
:1035100004F043FA2946204604F016FA4FF480528C
:10352000054B5A60F02283F82C2338BD102F082059
:1035300000800B400000FC1F00E100E007B5074BD6
:103540000122009342F2107100230548FEF7C8F8EB
:10355000044B186003B05DF804FB00BF993008000D
:103560005D1E0900803008200023011D02481A4614
:103570000068FEF717BC00BF783108207FB5142023
:10358000FDF71EFC0F4D104C4FF0FF3201A92868CB
:10359000FEF790FD48B19DF81530012B05D801A824
:1035A000FFF764FE1420FDF70BFC0020FDF754FD2F
:1035B0006328E9D82346054A0121002000F0ECF9F0
:1035C000E2E700BF78310820CF1E0900F71E09008E
:1035D00078220D4B10B502FB0032002352F8234035
:1035E000980044B1A4EB010CDCF1000040EB0C00AE
:1035F0001D2B03D110BD1150012010BD8C4203F1D1
:103600000103EBD1F8E700BF84300820F7B51A4E6C
:10361000074634786CBB01252346019400954FF48E
:10362000967216491648FDF78FF92246142110208C
:10363000FEF792FB134B144A18602946204600F00F
:10364000ABF9FFF77BFF3868FFF7A2FEB868FFF71A
:10365000E9FEFFF72BFFFFF74DFF0C490220357005
:1036600000F040F80320094903B0BDE8F04000F045
:1036700039B803B0F0BD00BF74310820DE1E090068
:103680007D35080078310820E71E090069350800FB
:10369000022310B58AB00AAC04F8283D0146142272
:1036A00001A80AF0A5FC204600F038F80AB010BDC9
:1036B00070B50E460446236823B92660012070BD0C
:1036C0002C46F8E7B342F9D06568002DF8D10821FF
:1036D00001200AF083F908B14560056060600028A8
:1036E000E9D170BD024B03EBC000FFF7E1BF00BFA3
:1036F000483208200A460146064808B500680023FB
:10370000FEF71CFC014620B9BDE80840024A00F063
:1037100043B908BDF03308202E1F090001460348B5
:10372000002305220068FEF73DBB00BFF0330820F0
:1037300010B54FF461628AB0044600F10801D1E986
:103740000001002309F0C2FF13430AD128222146B9
:1037500068460AF04DFC092368468DF80030FFF7F3
:10376000DDFF0AB010BD10B53C228AB0044600F15E
:103770000801D1E90001002309F0A8FF13430AD191
:103780002822214668460AF033FC082368468DF853
:103790000030FFF7C3FF0AB010BD000010B5134C96
:1037A0008AB023785A1C132B227017D9104B114A58
:1037B0000421002000F0F0F807230F498DF80030B5
:1037C000D1E90023CDE90223013243F10003684629
:1037D000C1E90023FFF7A2FF0023237006236846F8
:1037E0008DF80030FFF79AFF0AB010BDE1330820D2
:1037F0000B1F0900D91B0900E833082038B50378EE
:103800000546322B12D80A4C04EBC30423683BB99B
:103810002978084A52F82130013342F8213038BD66
:10382000284698476468002CF0D1F1E738BD00BF06
:10383000483208207C31082000B50C4D0C4C8BB070
:103840004FF4FA7269462868FEF734FC10B16846F6
:10385000FFF7D4FF0020FDF7FFFB6328F0D82346D5
:10386000044A0121002000F097F8E9E7F03308202E
:10387000181F0900F71E0900F7B5214E214B224AF7
:103880000121002000F088F83478002C35D1224640
:1038900028213620FEF760FA01251C4B4FF41672E2
:1038A00018601B492346019400951A48FDF74CF80F
:1038B0004FF40763184A009302214FF4CC7303209E
:1038C00000F06AF8154B2A4632210093144823462B
:1038D000FDF706FF0746FDF763F923460246294632
:1038E00000943846FDF722FF0E490F48FFF7E0FE2F
:1038F0000E490F48FFF7DCFE357003B0F0BD00BF86
:10390000E0330820231F0900D91B0900F0330820E9
:103910003F1F0900393808004A1F09009D37080079
:10392000811F0900673708008032082031370800FE
:103930008832082010B54FF40041074804F0ECF934
:10394000064C83B21A462046054904F0F9F9204690
:10395000BDE8104004F000BA00093D00501A0E40C6
:1039600000600010014804F0F7B900BF501A0E4083
:103970004FF06043013810F8012F02B97047D3F8B7
:10398000801EC907F7D5D3F8001EC907F3D51968FB
:103990000029FCD01A70EEE70CB437B5184B04467A
:1039A0001B78CBB94FF06045D5F8003EC340DB072C
:1039B00012D5144B1B5C8B420ED307AB6421069AC5
:1039C000114801930CF07EF801231049A340A40094
:1039D0002C4411F8012F2AB9002003B0BDE8304073
:1039E00002B07047D5F8800EC007F2D5D5F8000EAA
:1039F0000342EED020680028FCD02270E9E700BF27
:103A000062340820F8330820FE330820FD330820F4
:103A100070B5144686B004AA0121204602F0CEFFFC
:103A200005AA05460221204602F0C8FF0023049A99
:103A30000646AB54059A3149835428460AF0E0FB08
:103A4000002834D02E4928460AF0DAFB88B32D49E5
:103A500028460AF0D5FB70B32B4928460AF0D0FB64
:103A600058B32A4928460AF0CBFB40B328492846D8
:103A70000AF0C6FB002814BF06240424254930465A
:103A80000AF0BEFBE8B90120062C18BF224B234ADE
:103A900018BF1855012102902B468DE850000020D8
:103AA000FFF77AFF00201E4B187006B070BD044669
:103AB000E4E70124E2E70224E0E70324DEE705244B
:103AC000DCE7184930460AF09BFB90B116493046B6
:103AD0000AF096FB0028D7D0144930460AF090FB34
:103AE00048B1134930460AF08BFB0028CBD10420A3
:103AF000CAE70220C8E70320C6E700BF931F0900FA
:103B0000354009009B1F0900A01F0900A61F0900DE
:103B1000AA1F0900B31F0900F8330820D31F0900AA
:103B200062340820BA1F0900BF1F0900C51F090021
:103B3000CD1F090002220A4B10B501241A7004227D
:103B400008485C70DC709A701C715C7102F00AFFAE
:103B50002146BDE81040044B044A0020FFF71CBF7B
:103B6000F83308205C200900871F0900D91B0900D1
:103B70004FF0FF304FF0FF31014BC3E900017047B8
:103B800078340820012303FA00F0054BD3E9002321
:103B9000024003EAE073134314BF01200020704782
:103BA00078340820012303FA00F0C0430449D1E926
:103BB0000023024003EAE073C1E90023704700BF1D
:103BC00078340820004870476834082030B50C4C21
:103BD0008BB022780546824203D11220FFF7D2FF34
:103BE00058B11220FFF7DEFF1223684625708DF8CA
:103BF00000308DF80150FFF791FD0BB030BD00BFD4
:103C00006834082010B58CB004F032FC8DF80A003E
:103C100004F0A4FD8DF80C0004F0E8FD8DF80B0015
:103C200004F06CFFADF80E0004F0C8FB1C238DF807
:103C30000D000CA800F8283DFFF770FD064B1C682E
:103C4000FCF7AEFF0A230246009301210023204621
:103C5000FDF76CFD0CB010BD80340820FFF7D2BF1B
:103C600073B51A4D1A4A01210020FFF795FE04F0A2
:103C7000ABFB04F015FD04F0A1FD04F087FE04F099
:103C800043FF2C7804BB134B01220093642123468D
:103C90001148FDF725FD114E114B30600122FA212C
:103CA000009310482346FDF71BFD0F4B3668186044
:103CB000FCF776FF0A230246009301212346304693
:103CC000FDF734FD01232B7002B070BD7434082061
:103CD0006C200900713B0800811F09006434082032
:103CE0005D3C08007B20090080340820024B034A19
:103CF00001210020FFF750BE81200900D91B0900D7
:103D000013B5214803F082FFC207044618D50023EB
:103D10000DF103011C48019303F081FF1B4801AB27
:103D200001220DF10301806903F025F8019B3BB1ED
:103D30004FF08052164B1A60BFF34F8FBFF36F8F57
:103D4000A3071AD50022114802AB43F8042D0DF148
:103D500003010122C06903F0DBF880B1019B3BB194
:103D60004FF080520A4B1A60BFF34F8FBFF36F8F33
:103D70009DF80310044803F04BFF02B010BD022170
:103D8000014803F041FFF8E700080E40D481072006
:103D900004ED00E00121014803F034BF00080E40AB
:103DA000BFF34F8F0449054BCA6802F4E062134326
:103DB000CB60BFF34F8FFEE700ED00E00400FA0593
:103DC0000221014803F01EBF00080E407FB5274BBB
:103DD00004460E4615460121254A0020FFF7DCFD6A
:103DE000244B1A782AB124490720FFF77BFC04B042
:103DF00070BD0121A26919701AB9602002F0DEFEBF
:103E0000A061E2692AB901214FF4807002F0D6FE68
:103E1000E0611022002168460AF060F9174B452D39
:103E20008DE848001DD04F2D1DD04FF40063029344
:103E30004FF48073124C0820236003F05BFD694649
:103E4000104803F0BFFE0F4803F0D9FE0D4803F001
:103E5000D3FE01210B4803F0D5FEF02384F808338C
:103E6000C5E70023E3E74FF40073E0E79320090080
:103E7000D91B090084340820ED3C080000BD010571
:103E800000E100E000080E40024B034A012100203F
:103E9000FFF782BDA4200900B820090070B544488E
:103EA0008CB003F012FC434B04461B78002B35D03A
:103EB000C60716D5002301A93D48029303F014FC60
:103EC0003D4802AB012201A9806902F054FF029B28
:103ED0003BB14FF08052394B1A60BFF34F8FBFF3A5
:103EE0006F8FA5071AD5002233480CAB43F8282D55
:103EF00001A90122C06903F00BF8002852D0029BEF
:103F00003BB14FF080522D4B1A60BFF34F8FBFF380
:103F10006F8F9DF80410264803F0DDFB284B1B78BB
:103F2000002B3DD0A00405D50222264B20481A7054
:103F300003F0CDFB61040DD5224D1D482E7803F012
:103F4000B7FB214B43F826002B78194801332B701F
:103F500003F0BDFBE2070CD51A4D2B78062B08D8D1
:103F60001949134801EB830103F0BEFB2B780133A1
:103F70002B70230414D5002301930F230CAC04F8F9
:103F8000283D2022104903A80AF032F8204601A952
:103F9000FFF7B0FB02220B4B05481A7003F097FBAA
:103FA0000CB070BD0221024803F08DFBB6E700BFE4
:103FB0000080094086340820F481072004ED00E0E9
:103FC0008534082087340820B88107200121014862
:103FD00003F077BB008009400221014803F071BB68
:103FE0000080094070B52A4B15461A7886B0044601
:103FF0000E4612B9274A12782AB127490720FFF73F
:1040000071FB06B070BD0121826919701AB9602078
:1040100002F0D4FDA061E2692AB901214FF4807059
:1040200002F0CCFDE0611D4803F010FB03211B48AA
:1040300003F049FBC023452D0096019304D04F2D7A
:1040400023D04FF4006300E00023029300234FF4D9
:104050000035134C112003930493059303F04AFC9D
:10406000104A69460D4803F005FB0C48256003F033
:1040700025FB0A4803F01FFB0121084803F021FB40
:10408000F02384F811332560BBE74FF40073DCE7BD
:104090008634082085340820893E080000800940C5
:1040A00000E100E000BD0105024B034A01210020B0
:1040B000FFF772BCD4200900B820090013B52148CD
:1040C00003F003FBC207044618D500230DF10301DA
:1040D0001C48019303F008FB1B4801AB01220DF1C2
:1040E0000301806902F047FE019B3BB14FF0805213
:1040F000164B1A60BFF34F8FBFF36F8FA3071AD50C
:104100000022114802AB43F8042D0DF103010122F6
:10411000C06902F0FDFE80B1019B3BB14FF08052BF
:104120000A4B1A60BFF34F8FBFF36F8F9DF80310D8
:10413000044803F0D0FA02B010BD0221014803F098
:10414000C2FAF8E700C009401482072004ED00E03D
:104150000121014803F0B5BA00C00940022101481D
:1041600003F0AFBA00C0094070B5294B15461A7864
:1041700086B004460E462AB126490720FFF7B2FA58
:1041800006B070BD0121826919701AB9602002F071
:1041900015FDA061E2692AB901214FF4807002F097
:1041A0000DFDE0611C4803F051FA03211A4803F0A9
:1041B0008AFAC023452D0096019323D04F2D23D09A
:1041C0004FF40063029300234FF48025134C122018
:1041D00003930493059303F08DFB114A69460E483F
:1041E00003F048FA0C48256003F068FA0A4803F027
:1041F00062FA0121084803F064FAF02384F81233CC
:104200002560BDE70023DDE74FF40073DAE700BF68
:1042100088340820A940080000C0094000E100E0FF
:1042200000BD0105024B034A01210020FFF7B4BB8A
:10423000E8200900B820090013B5214803F045FA29
:10424000C207044618D500230DF103011C48019351
:1042500003F04AFA1B4801AB01220DF1030180690A
:1042600002F089FD019B3BB14FF08052164B1A6062
:10427000BFF34F8FBFF36F8FA3071AD500221148EA
:1042800002AB43F8042D0DF103010122C06902F0D5
:104290003FFE80B1019B3BB14FF080520A4B1A6048
:1042A000BFF34F8FBFF36F8F9DF80310044803F0E7
:1042B00012FA02B010BD0221014803F004FAF8E737
:1042C00000000A403482072004ED00E0012101488B
:1042D00003F0F7B900000A400221014803F0F1B9E8
:1042E00000000A4070B5294B15461A7886B004467E
:1042F0000E462AB126490720FFF7F4F906B070BD33
:104300000121826919701AB9602002F057FCA0617E
:10431000E2692AB901214FF4807002F04FFCE0619C
:104320001C4803F093F903211A4803F0CCF9C02389
:10433000452D0096019323D04F2D23D04FF40063D9
:10434000029300234FF40025134C1320039304938E
:10435000059303F0CFFA114A69460E4803F08AF933
:104360000C48256003F0AAF90A4803F0A4F90121DA
:10437000084803F0A6F9F02384F813332560BDE75D
:104380000023DDE74FF40073DAE700BF893408202B
:104390002542080000000A4000E100E000BD0105E0
:1043A00013B50446C0698DF8071060B10A230122D5
:1043B0000DF1070102F056FC636803B198479DF8C0
:1043C000070002B010BD4FF0FF30FAE710B50A2326
:1043D0000446C06902F046FC18B9054A0121FFF7FE
:1043E000DBFA636813B1BDE81040184710BD00BF89
:1043F000FC2009000EB433B5114C05462068C8B145
:104400006421FDF7FFFEA8B106AB059A4FF4807159
:104410000C4801930BF056FB0A4809F091FF09493B
:1044200002462846FFF7D2FF002320681A461946A5
:10443000FDF7B8FC002002B0BDE8304003B0704783
:104440008C3508208A34082010B5044C23681BB929
:104450000120FDF761FD206010BD00BF8C350820F4
:1044600010B5037886B0072B0FD10B4C00F01CF869
:1044700023685A1C0BD1206018238DF80030236864
:1044800068468DF8083008F0CBFA06B010BD9842A7
:10449000F2D0FCF713F9EFE7548207200149072017
:1044A000FFF720B961440800084BD86BDB6B80F044
:1044B00020001A06064BC0F34010DB6B58BF40F0DB
:1044C00002001B0258BF40F004007047000E0E406F
:1044D00000100E40037873B9417D61B94268064B04
:1044E0009A4208D1037B13F0200312BF08461946F5
:1044F000012003F077BF7047004021060278034691
:104500005AB9407D48B95968044A914205D1DB7CCB
:104510005B0758BF012004F053BA704701402104E3
:1045200038B502780346D2B9407DC0B959680C4A03
:10453000914214D15C7B1D7B012104EB05251924DC
:104540006C433F2D074DC8BF084603F04BFF2B6857
:10455000A4089C4203D0204604F006FB2C6038BD22
:10456000004039049435082070B503781D2B24D100
:104570004578012D21D1184C2678F6B9284604F04B
:1045800017FC164A01281070154A0346107015D002
:104590000DD3022817D0134A29463046FFF7FCF9FD
:1045A0003146284604F00AFC00F0CCF803E000F0A5
:1045B000C9F806F0B9F90123237070BD01F03AFA89
:1045C00000F03AF9F5E701F0C3FA00F023FA00F041
:1045D000B7FB00F031F9EEE790350820913508205F
:1045E000983508201A210900082070471FB51022AD
:1045F0000021684609F072FD322368460093FFF7F8
:1046000005F8FEF7B9FE002002F08EF901F01AF964
:1046100001F010F801F09CF902F0F4F811491D20A6
:10462000FFF760F810490020FEF7D2FF0F4C104949
:104630000020FFF757F80F490020FEF7C9FF214679
:104640000020FFF74FF821460720FFF74BF80A49F3
:104650000020FEF7BDFF09490020FFF743F804B032
:1046600010BD00BF6945080000403904FD44080042
:10467000214508000140210400402106D5440800DE
:104680000378262B02BF8278014B1A70704700BF57
:104690009A35082010B403780D2B4BD14168264A77
:1046A000A1F17903802B254B07D8012119701170D6
:1046B0000321187810BC04F009BBA1F13204452C89
:1046C00003D8032119700121F1E7A1F1FB04B4F52E
:1046D000AE7F01D80B21F5E7302901D81521F1E78C
:1046E000C168A1F17900802801D80521EAE7A1F18C
:1046F0003200452801D80721E4E7302906D81049BF
:10470000097840290CBF13210921DBE7FB39B1F5FA
:10471000AE7F05D80A4909784029DFD11121D1E7B8
:10472000117821B11978013119700021BFE70022F9
:104730001A70BDE710BC70479B35082099350820DA
:104740009A35082008B506490D20FEF7CBFF05492C
:104750002620FEF7C7FFBDE8084001F01FBB00BFE1
:1047600095460800814608000378262B02BF827810
:10477000014B1A70704700BF9D3508200378002B4D
:1047800051D1437D002B4ED14268274B9A424AD1EA
:10479000037B427B254902EB032292B2B2F5004F24
:1047A000234B06D101221A700A700321187804F0F5
:1047B0008DBAB2F5804F03D103221A700122F3E7BC
:1047C000B2F5005F01D10B22F7E7B2F5805F01D1AE
:1047D0000522F2E7B2F5006F01D10722EDE7B2F54D
:1047E000806F01D10922E8E7B2F5007F05D1114AB7
:1047F0001278402A0CD11122DFE7B2F5807F05D173
:104800000C4A1278402AEDD11322D6E7402A01D172
:104810001522D2E70A7822B11A7801321A700022E2
:10482000C2E71A70C1E77047004028069E3508208D
:104830009C3508209D35082008B507490020FEF763
:1048400051FF06492620FEF74DFFBDE80840044908
:104850000020FEF7BDBE00BF7D4708006947080085
:104860000040280610B503780446DBB9437DCBB978
:1048700042680D4B9A4215D1007B00F01FF9607B16
:1048800000F05AF9207C00F063F9E07B00F048F971
:10489000207CC0F3410000F067F918B1BDE810407A
:1048A00007F010B810BD00BF0340390C10B50378F5
:1048B0000446FBB9437DEBB942680F4B9A4219D1CC
:1048C000417C007C01F076F90C4B1880E07B01F014
:1048D00068F90B4B1870A07B01F063F9094B187055
:1048E000207B01F05EF9084B1870607B01F059F9EC
:1048F000064B187010BD00BF0340210C5C820720DE
:104900005B82072058820720598207205A8207209D
:104910002DE9F0439946374B8DB01880364B9DF802
:1049200050801970354B07461A70354B0D4683F889
:104930000090344B164683F80080CDF81080CDF8F7
:104940000C900292019100902F4B304A01210020DF
:10495000FFF722F82E4B0A24079306238DF82C30FC
:1049600000238DF82D3001238DF82030B9FBF4F3AE
:1049700004FB139909EB0319B8FBF4F34FF47A72B3
:1049800004FB138808EB0318B6FBF4F3B7FBF2F152
:1049900004FB136606EB0316B5FBF4F302FB117779
:1049A000642204FB1355BFB205EB0315B7FBF2F30A
:1049B00002FB1377BFB2B7FBF4F204FB127404EBF3
:1049C000032303EB013303EB02139BB21A0A07A87C
:1049D0008DF824908DF825808DF826608DF827506D
:1049E0008DF828208DF82930FEF752FE0DB0BDE875
:1049F000F08300BF5C8207205B820720588207207B
:104A0000598207205A820720362109005A210900BD
:104A10002440210C08B508490020FEF7D9FD0748BD
:104A200007F0C4FC06490020FEF75CFEBDE8084024
:104A300004490020FEF756BE0340390C1149080016
:104A400065480800AD48080013B503780446202BDC
:104A500015D10F4B0F4A01210020FEF79DFF05F0F5
:104A600057FF70B10C4A01210020FEF795FFA37893
:104A7000E2782179E08864780094FFF749FF02B07A
:104A800010BD0121054A02B0BDE81040FEF784BF09
:104A90008E210900D91B0900B1210900C421090098
:104AA000014B1878704700BFA0350820024B1878DA
:104AB000003018BF01207047A135082010F0030214
:104AC00010B5034603D0012A0CBF012202220D4972
:104AD0000878904218BF0A700B4A03F080011478DE
:104AE00014BF012000208C4218BF1170074A03F048
:104AF0004003117818BF012099421CBF1370012098
:104B000010BD00BFA0350820A2350820A33508201D
:104B1000024B1878003018BF012070479F350820DD
:104B2000044BC0F300101A7882421ABF187001209B
:104B3000002070479F350820044B00F002001A78CF
:104B4000824218BF18700120704700BFA4350820AA
:104B5000044BC0F3C0001A7882421ABF18700120BB
:104B600000207047A1350820034B1A781870101ADE
:104B700018BF0120704700BF5F820720014B1878E3
:104B8000704700BF5F82072030B52C4B8BB0059378
:104B900008238DF824300123294A8DF81830294B39
:104BA0001478294A1B78157843EA04022A438DF8C1
:104BB0001C20264A002112788DF8251042F01002A0
:104BC0008DF81D2006228DF81F20214A8DF81E1019
:104BD000127812B116228DF81F2002228DF82020A3
:104BE0001C4A127812B10A228DF820201A4A117834
:104BF0009DF8202042EA41028DF82020174A1178C2
:104C0000174A029112F8110002EB41028DF82100BF
:104C100000205278012142F002028DF822208DE816
:104C20003000104A8DF82300FEF7B6FE05A8FEF707
:104C30002FFD06F047FE0BB030BD00BF2440390CFD
:104C4000A0350820A2350820A3350820A435082067
:104C50009F350820A13508205F8207205E8207204B
:104C60003C220900EB21090008B5054B1A78824265
:104C700004D01870FFF788FF012008BD002008BD90
:104C80005F82072003780B2B0BD14378002B0CBFDE
:104C900000220222034B1978914202D01A70FFF7CA
:104CA00073BF7047A4350820034B1A78824202D0A4
:104CB0001870FFF769BF70475E82072003782C2BBE
:104CC00002D14078FFF7F0BF70470000034B1A781D
:104CD000824202D01870FFF757BF7047A1350820F5
:104CE000034B1A78824202D01870FFF74DBF70470D
:104CF0009F350820034B1A78824202D01870FFF7C4
:104D000043BF7047A3350820084B1A7882420BD066
:104D10000128187006D9022802D18022044B1A708B
:104D2000FFF732BF0022F9E7704700BFA035082027
:104D3000A2350820014B1878704700BFA335082022
:104D400008B507492C20FEF7CDFC06492020FEF7C8
:104D5000C9FCBDE8084004490B20FEF7C3BC00BFF6
:104D6000BD4C0800494A0800854C0800F0B585B0E4
:104D70000E46054604F0D7FF07460B4B1C78A31ED2
:104D80005C425C4104F03AFA084B014653F8273084
:104D9000029401930023324600932846022307F031
:104DA00012F905B0F0BD00BF9835082000260900B3
:104DB000F0B585B00E46054604F0B5FF07460B4B2F
:104DC0001C78631E5C425C4104F018FA084B0146F3
:104DD00053F827300294019300233246009328466B
:104DE000012307F0F0F805B0F0BD00BF98350820AA
:104DF000B4250900F0B585B00E46054604F093FFD2
:104E000007460A4B1C7804F0F9F9094BB4FA84F40C
:104E100053F827306409019300230146029400935C
:104E20003246284607F0CFF805B0F0BD9835082087
:104E30006825090073B5044604F075FF064604F0C2
:104E4000E7F9084B0546186806F00AFD064B0246CE
:104E500053F82630294600932046842306F0B4FFF9
:104E600002B070BDB03508208424090073B5044633
:104E700004F059FF064604F0CBF9084B05461868C4
:104E800006F0EEFC064B024653F826302946009306
:104E90002046832306F098FF02B070BDAC35082091
:104EA000942C090073B5044604F03DFF064604F057
:104EB000AFF9084B0546186806F0D2FC064B0246CF
:104EC00053F82630294600932046822306F07CFFC3
:104ED00002B070BDB4350820482C090073B50446F3
:104EE00004F021FF064604F093F9084B05461868C4
:104EF00006F0B6FC064B024653F8263029460093CE
:104F00002046802306F060FF02B070BDA83508205F
:104F1000942C0900F0B585B00F46064604F003FF57
:104F200004460E4B1A780E4B1B789A4216BF0D4B57
:104F30000D4D53F8205004F061F90C4B032253F847
:104F4000243001460293002303958DE80C0030467F
:104F500002233A4606F07AFF05B0F0BD98350820E6
:104F6000913508204C26090024230900D822090085
:104F70007FB50D46044604F0D6FE064604F03EF921
:104F8000084B03220393084B014653F82630204672
:104F9000029300238DE80C0082232A4606F056FF78
:104FA00004B070BD62220900482C090038B50546DE
:104FB00004F0B9FE012D044608D005D3022D09D016
:104FC0000021012003F0FAFE034B00E0034B53F8ED
:104FD000240038BD024BFAE768250900B425090012
:104FE00000260900F0B585B00D46044604F09BFE8E
:104FF0000C4B06461878FFF7D9FF074604F0FEF879
:10500000094B032253F826300146029300230397ED
:105010008DE80C00204684232A4606F017FF05B0D1
:10502000F0BD00BF9835082084240900F0B585B094
:105030000D46044604F077FE0C4B06461878FFF741
:10504000B5FF074604F0DAF8094B032253F826307F
:1050500001460293002303978DE80C00204683232A
:105060002A4606F0F3FE05B0F0BD00BF91350820DA
:1050700084240900F0B585B00E46054604F053FEC1
:105080000746FFF757FE0C4C0C4B002818BF1C4678
:1050900004F0B4F80A4B032253F827300146029378
:1050A000002303948DE80C0028468823324606F03E
:1050B000CDFE05B0F0BD00BFD022090026230900B7
:1050C000B02B0900F0B585B005460E4604F02BFE66
:1050D0000746FFF7E5FCB8B10C4B0D4C012818BF93
:1050E0001C4604F08BF80B4B032253F82730014683
:1050F0000293002303948DE80C0028468723324650
:1051000006F0A4FE05B0F0BD034CEAE73424090024
:1051100091230900E82309008A230900F0B585B02E
:105120000E46054604F0FFFD074600F033FD044639
:1051300004F0F9FD012C0CBF0B4B0C4B53F8204035
:1051400004F05CF80A4B032253F82730014602931F
:10515000002303948DE80C0028468A23324606F08B
:1051600075FE05B0F0BD00BF1C250900D024090064
:1051700038240900F0B585B005460E4604F0D3FD8D
:105180000746FFF7FBFCB8B10C4B0D4C012818BFCC
:105190001C4604F033F80B4B032253F8273001462A
:1051A0000293002303948DE80C002846892332469D
:1051B00006F04CFE05B0F0BD034CEAE7AF1D090058
:1051C0009D1D09009C230900101D0900F0B585B044
:1051D0000E46054604F0A7FD0746FFF799FC044676
:1051E00004F0A1FDACB10C4B53F8204004F006F8DC
:1051F0000A4B032253F827300146029300230394FD
:105200008DE80C0028468623324606F01FFE05B0C6
:10521000F0BD034BE8E700BF1C250900842209000C
:10522000D0240900F0B585B00E46054604F07BFD9C
:105230000746FFF73BFC044604F075FDACB10C4B90
:1052400053F8204003F0DAFF0A4B032253F82730CB
:1052500001460293002303948DE80C002846852321
:10526000324606F0F3FD05B0F0BD034BE8E700BFA2
:105270001C250900FC2B0900D024090003782A2BE7
:1052800004D14378022B01D106F066BA70470000C2
:1052900008B510B909B9012A4AD0823A082A21D89A
:1052A000DFE802F0140E051A282020313B00264BBF
:1052B000186806F0EFFA8420BDE8084006F01CBA32
:1052C000224B186806F0E6FA8320F5E7204B1868B1
:1052D00006F0E0FA8220EFE7FFF7E8FB40B100209C
:1052E000FFF7F4FC1B4B186806F0D4FA8020E3E7C4
:1052F0000120F5E7FFF70CFC18B10020FFF7F0FCE8
:10530000F0E70120FAE7FFF739FC0130C0B20328CB
:1053100028BF0020FFF7A8FCE4E70F4A0121002086
:10532000FEF73AFB00F036FC58B1002000F035FCE7
:10533000802006F0E1F9074B1868BDE8084006F048
:10534000A9BA0120F2E700BFB0350820AC3508202B
:10535000B4350820A835082070230900F0B503787B
:1053600085B02A2B044640F099804D4B4D4A0121CF
:105370000020FEF711FB6778012F40F08F80A578A1
:10538000E678247906F0E8F9034668B9802C0BD159
:10539000454A3946FEF700FB22463146284605B00D
:1053A000BDE8F040FFF774BF1A0677D5A3F180027D
:1053B000042A6BD801A151F822F000BF99530800CC
:1053C0008D5408003F540800E7530800D1530800EB
:1053D000364B1C7006F0AEF9354B186805B0BDE8C9
:1053E000F04006F057BA15B90EB9012C23D0022CA3
:1053F0000BD0842C19D12F4B186806F04BFA84205F
:1054000005B0BDE8F04006F077B9284B19782A4B73
:105410001B788B42F3D0012003F0D0FC4FF47A705C
:10542000FBF7CEFC03F02EF9E9E7214B186806F0F4
:1054300031FA8320E4E7832006F05EF9CCE701949B
:1054400000962B461D4A01210020FEF7A5FA872C65
:1054500006D0882C11D0822006F04EF9184BBCE7FC
:10546000FFF71EFB012806D000280CBF02200120F8
:10547000FFF74AFCEFE70020FAE7FFF75BFC0028A4
:105480000CBF40200020FFF735FCE4E70021029428
:105490008DE860000B4A0846FEF77EFA05B0F0BDC5
:1054A00064220900D91B090031230900983508201E
:1054B000AC350820B0350820913508205F2309005D
:1054C000B43508204423090010B504460A4A0021D7
:1054D00006F08AF92046094A012106F085F920469E
:1054E000074A022106F080F92046BDE81040054A2F
:1054F000032106F079B900BF354E0800F54D0800CC
:10550000B14D08006D4D080010B50446074A002152
:1055100006F06AF92046064A012106F065F92046A0
:10552000BDE81040034A022106F05EB96D4E080046
:10553000E54F0800154F080010B50446074A002142
:1055400006F052F92046064A012106F04DF92046A0
:10555000BDE81040034A022106F046B9A54E0800F6
:10556000C55008007550080010B50B4C022120688A
:1055700006F028F92068032106F024F920680421A8
:1055800006F020F92068052106F01CF920680621A4
:10559000BDE8104006F016B9A835082010B5084C33
:1055A000227862B9012003F003FC064B0228187030
:1055B000054B187001D0FFF7D7FF0123237010BDF2
:1055C000A5350820913508209835082010B50446E7
:1055D000114A002106F008F92046104A012106F080
:1055E00003F920460E4A022106F0FEF820460D4A35
:1055F000032106F0F9F820460B4A042106F0F4F8DE
:1056000020460A4A052106F0EFF82046BDE8104082
:10561000074A062106F0E8B8DD4E08002D500800C4
:10562000714F080025520800CD510800755108003F
:105630001D51080008B506F0B1F8144B1860FFF7CB
:1056400043FF06F0ABF8124B1860FFF75DFF06F062
:10565000A5F8104B1860FFF76FFF06F09FF80E4B90
:105660001860FFF7B3FF05F06DF905F0F9FE0B497F
:105670002A20FEF737F80A492A20FEF733F8BDE85A
:10568000084008491D20FEF72DB800BFB03508209E
:10569000AC350820B4350820A83508205D53080033
:1056A0007D5208009D55080008B5084B187848B190
:1056B000074B187830B1074B187818B1002005F067
:1056C0002DF90120BDE80840FEF780BA628207206C
:1056D00063820720608207200378072B0FD1084BD5
:1056E000084A1B780BB9137070471378042B06D83F
:1056F000013313700121044A0020FEF74DB97047B1
:10570000BA350820B9350820E02C09000378262B8B
:1057100007D14378034A012113700020024AFEF7A3
:105720003BB97047BA350820E82C09007FB50378EB
:105730006BBB437D5BBB4268174B9A4227D1C37C4E
:105740009B0624D4837C23B3144B1B78042B1ED9D3
:10575000134C2678DEB9082003F02AFB0128054601
:1057600015D104F0E0FA31238DF8043005238DF8CB
:1057700006300C4B8DF8056053F8203002930A4B2D
:1057800053F8203001A8039304F0B0FA257004B058
:1057900070BD034A1370FAE701402104B9350820AF
:1057A000B8350820FC2F0900B02F090070B5037828
:1057B00023BB447D14BB4268114B9A421ED1857BAA
:1057C000437B05F0400513F0040F4FF003000CBFBE
:1057D0000226012603F0ECFA0A4A35B10A4B14708E
:1057E0001C70BDE87040FFF75FBF01239842137043
:1057F00001D19E42F5D1044A1370F2E770BD00BF9B
:105800000040210661820720608207200378132B65
:105810000CD183781BB1012B05D0FFF745BF42782F
:10582000034B1A70F9E74278024BFAE7704700BF62
:105830006282072063820720014B1878704700BFFF
:105840006182072008B50F491320FDF74BFF0E4971
:105850000020FDF747FF0D490020FDF7B9FE0C4978
:105860000020FDF73FFF0B490020FDF7B1FE0A497C
:105870002620FDF737FFBDE8084008490720FDF75F
:1058800031BF00BF0D580800AD5708000040210689
:105890002D570800014021040D570800D956080073
:1058A00010B503780446222B08D14378044A01211D
:1058B0000020FEF771F86278024B1A7010BD00BF2D
:1058C00048300900BC35082038B50C4600F01AFDF8
:1058D00000F060F900B384B1104C2378E3B9104BA9
:1058E0001B78CBB103210B2003F0F0F903210C202E
:1058F00003F0ECF90123237038BD094B1D785DB925
:10590000064C237843B103210B2003F0DFF9032178
:105910000C2003F0DBF9257038BD00BFBB35082033
:10592000BC350820437D83B94268084B9A420CD1AC
:10593000C37B5B0603D500210846FFF7C5BF437C48
:1059400013F00C0FF7D00121F6E770471E40210439
:1059500008B507490020FDF73BFE06490020FDF78A
:10596000C1FEBDE8084004492220FDF7BBBE00BFD0
:105970001E40210425590800A158080030B5437D78
:105980008BB0B3B942680C4B9A4212D1011D14225C
:10599000684608F02DFB094D094B684605AC00939D
:1059A000FDF776FE0FCD0FC42B6805A82360FDF729
:1059B0006FFE0BB030BD00BF0340111E5C3009000C
:1059C0000540111E10B50378072B10D1FFF734FFE7
:1059D000084C68B923782BB10748FDF759FE0748F2
:1059E000FDF756FE0648FDF753FE0023237010BD59
:1059F0000123FBE76482072098300900AC300900DE
:105A00008430090030B5437D87B063B94268074BE5
:105A10009A4208D1064D01AC0FCD0FC42B6801A8E6
:105A20002360FDF735FE07B030BD00BF03403106EF
:105A30007030090008B50B490020FDF7C9FD0A497F
:105A40000020FDF7C5FD09490720FDF74BFE084979
:105A50000020FDF747FEBDE8084006490020FDF79D
:105A600041BE00BF034031060340111EC559080066
:105A7000055A08007D59080030B5437D8BB0B3B995
:105A800042680C4B9A4212D1011D1422684608F05C
:105A9000AFFA094D094B684605AC0093FDF7F8FDD8
:105AA0000FCD0FC42B6805A82360FDF7F1FD0BB0E7
:105AB00030BD00BF0340111EC03009002440111E3C
:105AC00010B50378072B19D1FFF7B6FE0D4CB0B90E
:105AD000237843B10C48FDF7DBFD0C48FDF7D8FDFA
:105AE0000B48FDF7D5FD0B48FDF7D2FD0A48FDF741
:105AF000CFFD0A48FDF7CCFD0023237010BD012324
:105B0000FBE700BF65820720243109003831090016
:105B10004C310900E8300900FC300900103109005F
:105B200030B5437D87B063B94268074B9A4208D1CC
:105B3000064D01AC0FCD0FC42B6801A82360FDF703
:105B4000A7FD07B030BD00BF03403106D4300900C7
:105B500008B50B490020FDF73BFD0A490020FDF781
:105B600037FD09490720FDF7BDFD08490020FDF775
:105B7000B9FDBDE8084006490020FDF7B3BD00BFF0
:105B8000034031060340111EC15A0800215B080082
:105B9000795A08000C2003F00BB901460C2003F0E1
:105BA0000DB9030903EB830300F00F0000EB430082
:105BB000C0B2704708B5FFF7F4FF02460846FFF78A
:105BC000F0FF02EB820202EB820200EB820080B265
:105BD00008BD0000054A1368B3F57A6F27BF01229C
:105BE000034B0133136028BF1A707047C03508207B
:105BF000C4350820014B1878704700BFC435082011
:105C000090F834300133DBB2032B88BF002380F8D7
:105C1000343090F8343000EB4303598590F8293044
:105C200013B1013B80F82930704790F82900B0FA91
:105C300080F040097047438E1944490841867047F7
:105C40000B090A2B38BF0A23408E81428CBF081AE9
:105C5000401A9842ACBF00200120704738B5037F3E
:105C600004460D46CBB101290BD0022916D00121E3
:105C7000006A00F0A9FA0121606A00F0A5FA032584
:105C800007E00021206A00F09FFA0021606A00F01E
:105C90009BFA0523657784F8293038BD0121F1E7A7
:105CA000027F034662B390F829204ABB427F022A52
:105CB0000FD0032A1CD0012A22D190F8342000EB07
:105CC0004202528DB2F5206F1AD902211846FFF711
:105CD000C5BF90F8342000EB42035B8DB3F5407FE5
:105CE00001D20121F3E7B3F5246F09D90321EEE7CF
:105CF00090F8342000EB4202528DB2F5407FE4D39D
:105D00007047437F022B05D0032B05D0012B05D113
:105D10000068704740687047806870474FF0FF30F8
:105D2000704700002DE9F843836904465A1C22D0CD
:105D3000406900B3B0FBF3F0013007F01FFA0646EC
:105D40000F4625696B1C19D0284607F017FA8046C4
:105D5000E0688946284407F011FA02460B4640469F
:105D6000494607F0ABFB02460B463046394607F082
:105D7000A5FBBDE8F8830026024FE2E70022014BB5
:105D8000F3E700BF0000F03FC28D838D1344428DC6
:105D9000008E13441844800870470000F7B5284E61
:105DA0003578002D4AD1274B274A01212846FDF797
:105DB000F3FD264800F0C2F9254800F015FA00F07E
:105DC000ADFD044640B1012827D01E4B214A29468B
:105DD0002846FDF7E1FD11E001221F4B114600931B
:105DE00003461E48FBF77CFC0546FAF7D9FE012165
:105DF0000246234628460091FBF798FC01233370A6
:105E000000F05AFA03211148FFF728FF0321104838
:105E100003B0BDE8F040FFF721BF114B0246014639
:105E200000930E482B46FBF75BFC0746FAF7B8FEDB
:105E3000009402462B4621463846DDE703B0F0BD0C
:105E4000C535082060310900D91B0900C835082074
:105E50000436082077310900655E08006F310900BB
:105E6000016008002DE9F04F85B000F065F90028C9
:105E700000F0B0805E4DFFF7ADFE2B78002B00F0F8
:105E8000AC8000F0F7F901465A48FFF7B9FE5948CF
:105E9000FFF706FF5748FFF7C8FE564C002800F0F2
:105EA000908004F13C00FFF7C0FE002800F08980DC
:105EB0002046FFF726FF82462046FFF765FF07468C
:105EC00004F13C00FFF760FF06461FFA87F94946D8
:105ED00020461FFA86F8FFF7AEFE414604F13C006B
:105EE000FFF7A9FE49462046FFF7AAFE8146414634
:105EF00004F13C00FFF7A4FEB9F1000F5CD00028CC
:105F00005AD02046FFF70EFF804607FB0AF089466D
:105F100007F034F9002282468B46374B404649460B
:105F200007F0A2F980463846894607F027F902466D
:105F30000B464046494606F0E3FF02460B465046F4
:105F4000594607F0BBFA07F0A1FB0127009004F1C6
:105F50003C008DF80470FFF7D4FE824604F13C004B
:105F6000FFF7E0FE80460AFB06F0894607F006F9D7
:105F70000022214B82468B464046494607F074F981
:105F800080463046894607F0F9F802460B464046FF
:105F9000494606F0B5FF02460B465046594607F003
:105FA0008DFA07F073FB8DF80C700290FFF722FE5C
:105FB00010B1684600F0B0F8052384F8293084F861
:105FC00065302B788BB10D4800F068F92B7883F0A1
:105FD00001032B7005B0BDE8F08F00F055F90146C4
:105FE0000648FFF70DFE054852E70248ECE700BF00
:105FF00040360820C83508200000B040043608208C
:106000002DE9F04F87B000F097F8002867D03D4D9C
:10601000FFF7E0FD2B78002B64D000F02BF9014650
:106020003948FFF7EDFD3848FFF7FFFD364C0028F3
:106030004CD004F13C00FFF7F8FD002846D000F0FA
:106040006DFC012853D12046FFF79EFE07462046EF
:10605000FFF768FE40F6E446804606FB07F040F690
:10606000FF778946B0FBF7F007F088F842464B46C9
:1060700007F0FAF807F00AFB4FF0000A029004F16B
:106080003C008DF80CA0FFF77FFE834604F13C0036
:10609000FFF748FE8046894606FB0BF0B0FBF7F0A1
:1060A00007F06CF842464B4607F0DEF807F0EEFAD0
:1060B0008DF814A00490FFF79DFD10B102A800F028
:1060C0002BF8052384F8293084F865302B78B3B198
:1060D0000E4800F0E3F82B7883F001032B7007B033
:1060E000BDE8F08F00F0D0F80146084899E700219C
:1060F0000090074B074A0846FDF74EFCE6E70248CA
:10610000E7E700BF41360820C835082004360820DC
:1061100098310900B23109000D2310B58AB00AACDC
:1061200004F8283D0146102201A807F061FF20462F
:10613000FDF7F4FA0AB010BD02F05EB810B50446DF
:1061400000F0ECFB48B1012826D0BDE8104000214A
:106150001A4B1B4A0846FDF71FBC40F68C7146F6E9
:106160004C5240F6E4434FF42A7084E80F004FF09D
:10617000FF3323612123236220236362032301224F
:10618000022163770F4B227719631A63052384F882
:1061900029300A23A36310BD4FF0FF3323606360EF
:1061A000A360637700232377052340F6E44284F855
:1061B00029300A23E2602261A363C6E7D6310900D1
:1061C0007731090000100E400122430903F5001346
:1061D00003F2077300F01F005B02824009B11A63EB
:1061E00070475A637047000010B5044600F096FBF4
:1061F00048B1012826D0BDE8104000211A4B1B4AA7
:106200000846FDF7C9BB40F68C7246F64C534FF476
:106210002A7140F6E44C84E80E104FF0FF332361FE
:10622000232323622223636203236377012308224B
:1062300023770F4B1A6304221A63052384F829304D
:10624000A06310BD4FF0FF3340F6E442236063606B
:10625000A360E260226163770522002384F829208D
:106260002377A363C7E700BFEA310900773109004C
:1062700000100E4008B50A21024801F02AFD80B244
:1062800008BD00BF00000C4008B50021024801F025
:1062900020FD80B208BD00BF00000C4010B5054CC9
:1062A00090F83810204601F00FFD2046BDE8104060
:1062B00001F007BD00000C4010B5104C252001F086
:1062C00019FB4FF400234FF4FA320D49204601F038
:1062D000CBFC01234FF440120021204601F0E4FCE6
:1062E000204601F0FDFC2046002101F0D6FC2046AE
:1062F000BDE810400A2101F0E7BC00BF00000C40DF
:1063000000BD0105034B4FF4804208B11A6370478A
:106310005A637047000E0E4000230246FF2180F8AA
:106320004630831C42F8403F03F8011B9342FBD1E7
:106330009F2200230270022280F84930427080F8C8
:10634000473080F84C3080F8483080F84A3080F888
:106350004B3080F8441080F845307047F8B5002382
:106360000B4C0C4E0C4F22785D1CDBB29A4206D8C7
:106370000A4A0121BDE8F8400020FDF70DBBF35C9F
:106380003A4601210020FDF707FB2B46EBE700BF53
:10639000CC3708200437082077320900582009003C
:1063A00008B5FAF7CDF90023054A1370054A1370B2
:1063B0000122054B1A70BDE80840FAF7D1B900BFB9
:1063C000B0360820543608206682072010B5124CDB
:1063D0002378022B10D8114A01210020FDF7DCFAA6
:1063E00023780F48013323700023BDE810401A467C
:1063F00019460068FBF7D6BC0A4A01210020FDF7C8
:10640000CBFA094B00211868FBF766FCFFF7A6FFE3
:10641000BDE81040FFF7C4BFB03608207D32090048
:106420004836082087320900AC3608200023F7B52B
:106430001A46224C22492078DDB285423AD39F2366
:106440000B7002232270002003224B701D4B93F827
:1064500044501F6C8D70C6B2BB5D01309F2B12BFC4
:1064600013468B54531CBA5D08BFDBB2C6B2CA5484
:10647000B54203F10102D2B2EDD29F20885403222B
:10648000DD1C0233DBB2CA540F4BEDB21E68FAF7C3
:1064900087FB00230246009301213046FBF746F9B3
:1064A0002A460A4B064918682570C36803B0BDE840
:1064B000F0401847CA540133BEE700BFCC3708206C
:1064C00004370820B4360820503608204436082007
:1064D00030B50D4B93F844001A6C93F84510024404
:1064E0005170002193F844204C1CC9B28A4202F139
:1064F000010202D283F8442030BD186C415C855CF7
:10650000694081542146EDE7B4360820094A92F8E3
:106510004430A3F13D01C9B2C1290AD90133116C3C
:10652000DBB282F84430C85492F84530013382F827
:1065300045307047B43608202DE9F0439D4F89B0AF
:1065400038684E2243694FF4E13198479A4C9B4D8D
:1065500000212868FBF756FEA846002853D0984B28
:106560001B78002B4FD0FFF761FF38680A23012208
:106570000DF10F01806900F04CFC002800F007814C
:1065800094F846209DF80F30002A00F08380002206
:10659000022B84F846205FD12046FFF7BDFE012381
:1065A00084F8493094F84830002BDED00125844B24
:1065B0001D7094F84730002B00F094800A2300935C
:1065C000002380481A4603210068FBF7AFF894F8CF
:1065D0004B30002B00F083807B4E3378032B77D831
:1065E0007A4A29460020FDF7D7F90023D8F80000A1
:1065F0001A461946FBF7D6FB33782B4433702046F6
:10660000FFF78AFEB1E7724D2B78002BADD0714BAE
:10661000002204A91868FBF74DFD0028A5D06E489C
:10662000FFF77AFE9DF81000FFF770FF9DF810301D
:106630005BB99DF81100FFF769FF9DF81200FFF7A5
:1066400065FF9DF81300FFF761FFFFF741FFFFF7BC
:10665000EDFE00232B7088E7032B07D194F8493017
:10666000002B9FD0012384F848309BE7062B05D1EF
:10667000012384F84A3084F8473093E7152B03D17F
:10668000012384F84B30F6E79F2B09D02046FFF713
:1066900043FE87E79F2B03D1012384F8463081E72F
:1066A00094F84420A2F13E01C9B2C0297FF67AAF26
:1066B00094F8491029B194F8451011B984F845307F
:1066C00070E7216C0132D2B284F844208B5469E720
:1066D000424A29460020FDF75FF9FFF73FFEFFF72A
:1066E0005FFE8CE7216C94F845600B46354694F8C4
:1066F000440001F1410C1FFA80FE5A1A92B29645ED
:1067000005D313F8012B9C4585EA0205F5D1864295
:1067100032D18DBB324A04AB10685168082203C3E2
:10672000386804A9C36898472E4A01212846FDF716
:1067300033F994F8456094F84830FF2E08BF0026DE
:106740000093294A334601212846FDF725F90336EF
:10675000DFF8AC9005E0E35C4A4601210020FDF73C
:106760001BF9EBB2B34205F10105F4DD1F4A01212B
:106770000020FDF711F942E71D4A04AB106851688B
:10678000082203C3386804A9C368984737E7194B40
:106790001D786A1C1A70002D7FF4D9AEFAF75CFCE4
:1067A00063283FF6D4AE144B144A01212846FDF766
:1067B000F3F8CCE64436082058360820483608203E
:1067C000A836082050360820543608201F32090009
:1067D00066820720AC360820B4360820263209002D
:1067E000FE310900553209004532090058200900E0
:1067F000073209004D36082010320900F71E090043
:106800007732090073B5194E347864BB0125184AF4
:10681000184B19491A6019482346019400954FF402
:10682000C872FAF791F822460F212820FBF794FA54
:10683000134B22461860134BA021009312482346A5
:10684000FAF74EFF114B2146186003222846FBF74A
:1068500083FA0F4B0F4918601C20357002B0BDE859
:106860007040FCF73FBF02B070BD00BF4C3608203F
:106870003482072044360820683209003965080050
:10688000AC360820CD63080071320900503608206C
:1068900048360820AD68080001460348002302225C
:1068A0000068FBF77FBA00BFAC3608207FB50378DD
:1068B0001C2B30D10023019383782BB99DF8043031
:1068C00043F001038DF8043043792BB99DF804306F
:1068D00043F008038DF8043003792BB99DF8043098
:1068E00043F004038DF80430C3782BB99DF80430CD
:1068F00043F002038DF80430C388032201A90DF18F
:106900000900ADF8063007F073FB002302A88DF8EC
:106910000830FFF7C1FF07B05DF804FB014B1878A2
:10692000704700BFCD370820014B1870704700BF7B
:10693000CD37082010B5094C0A4623680BB9084B1F
:10694000236023681B68596807F028FD236858688E
:106950002060003018BF012010BD00BFD0370820D4
:106960006C82072038B5054648B94FF0A00383F381
:106970001188BFF36F8FBFF34F8F00BFFDE7082073
:10698000FBF754F8044648B94FF0A00383F311888D
:10699000BFF36F8FBFF34F8F00BFFDE7F9F7D0FE56
:1069A00000236360044B25601A681C605460F9F78B
:1069B000D7FE012038BD00BF68820720002330B514
:1069C00013608B4217D0044610F8015B9DB1202D57
:1069D000F9D125782046202D04F10104F9D055B1D4
:1069E00001339942EDD1411E11F8013F13F0DF0F41
:1069F000136802D123B9002030BD01331360F3E7DF
:106A000030BD8268436800681344181A824298BFF8
:106A1000801A7047F8B50D4604465521284617469A
:106A20001E4607F05BFB854209D04FF0A00383F3BD
:106A30001188BFF36F8FBFF34F8F00BFFDE7242294
:106A40000021204607F04AFB9DF81830A561237706
:106A5000A760E660F8BD2DE9F04105468846174677
:106A60004AB94FF0A00383F31188BFF36F8FBFF3D0
:106A70004F8F00BFFDE7446883681E1B964228BF06
:106A80001646A219934209D24FF0A00383F311884E
:106A9000BFF36F8FBFF34F8F00BFFDE780693246B2
:106AA000204407F0A5FAB74212D9AB68BA1B9A4244
:106AB00009D94FF0A00383F31188BFF36F8FBFF3A1
:106AC0004F8F00BFFDE708EB0601A86907F090FAB9
:106AD000AB683C449C4228BFE41A6C603846BDE871
:106AE000F08137B504460D460192BBB1017FC9075D
:106AF0000AD49A4294BF01920193019A29462046F2
:106B0000FFF7A9FF034609E0069A934205D3042242
:106B10000DEB0201FFF79FFFEFE70023184603B0DC
:106B200030BD9A422DE9F843164628BF1E46074657
:106B300089469046002E3ED0046883681D1BB542EE
:106B400028BF3546AA4209D24FF0A00383F311882B
:106B5000BFF36F8FBFF34F8F00BFFDE76219934202
:106B600009D24FF0A00383F31188BFF36F8FBFF3F7
:106B70004F8F00BFFDE781692A462144484607F050
:106B800037FAAE4211D9B04509D24FF0A00383F3D2
:106B90001188BFF36F8FBFF34F8F00BFFDE7721BEC
:106BA000B96909EB050007F023FABB6834449C423D
:106BB00028BFE41A3C603046BDE8F883012AF7B5E7
:106BC0000C460BD1042814D84FF0A00383F311888E
:106BD000BFF36F8FBFF34F8F00BFFDE7B0B94FF02A
:106BE000A00383F31188BFF36F8FBFF34F8F00BFF4
:106BF000FDE71546A0420BD24FF0A00383F31188A6
:106C0000BFF36F8FBFF34F8F00BFFDE70025F1E7A4
:106C1000002C00F1010700F1250008BF0124FAF75C
:106C200005FF064630B1009523463A4600F124019F
:106C3000FFF7F0FE304603B0F0BD48B94FF0A003B7
:106C400083F31188BFF36F8FBFF34F8F00BFFDE752
:106C5000826803684168D0180138401A824298BFA0
:106C6000801A70472DE9F04387B004461646039317
:106C7000894649B94FF0A00383F31188BFF36F8FA2
:106C8000BFF34F8F00BFFDE748B94FF0A00383F378
:106C90001188BFF36F8FBFF34F8F00BFFDE7037FF6
:106CA000DB070DD502F1040842450AD34FF0A003DB
:106CB00083F31188BFF36F8FBFF34F8F00BFFDE7E2
:106CC0009046039B2BBB2046FFF7B7FF0746CDF846
:106CD00000803B46324649462046FFF702FF054604
:106CE00098B12046FFF78DFEE36898420DD3F9F77F
:106CF0004FFF23693BB1002320691A461946FAF772
:106D000021FB00232361F9F7E3FF284607B0BDE824
:106D1000F08304A8FAF732F9F9F712FD2046FFF7DD
:106D20008CFF8045074623D90020FAF70FFC6569E0
:106D30004DB14FF0A00383F31188BFF36F8FBFF302
:106D40004F8F00BFFDE7FAF797F96061F9F708FD8B
:106D50002946039B2A462846FAF7B0FA656103A93B
:106D600004A8FAF735F90028D6D0002FAFD1AAE74A
:106D7000F9F7F6FCF9E72DE9F34104461546984684
:106D80000E4649B94FF0A00383F31188BFF36F8F0C
:106D9000BFF34F8F00BFFDE748B94FF0A00383F367
:106DA0001188BFF36F8FBFF34F8F00BFFDE7037FE5
:106DB000DB074CBF171D1746FFF73FFF2A46034668
:106DC000009731462046FFF78CFE0546E8B1204685
:106DD000FFF717FEE368984217D3EFF311864FF0E1
:106DE000A00383F31188BFF36F8FBFF34F8F236925
:106DF0004BB1002320691A461946CDF80080FAF7F6
:106E000017FB0023236186F31188284602B0BDE8F2
:106E1000F0812DE9F743044617469946884649B95B
:106E20004FF0A00383F31188BFF36F8FBFF34F8F31
:106E300000BFFDE748B94FF0A00383F31188BFF30B
:106E40006F8FBFF34F8F00BFFDE7037F13F0010F7C
:106E500014BF04260026B9F1000F26D0F9F770FC04
:106E60002046FFF7CEFD8642054611D30020FAF7F3
:106E70006DFB23694BB14FF0A00383F31188BFF37F
:106E80006F8FBFF34F8F00BFFDE7FAF7F5F8206172
:106E9000F9F766FCAE4212D300224B46114610466B
:106EA000FAF70CFA002320462361FFF7AAFDB0424F
:106EB000054604D80025284603B0BDE8F0837EB11E
:106EC0002B46324601A92046D4F80090FFF729FE50
:106ED000019BAD1B9F4236BF00271F46C4F80090A0
:106EE0002B463A4641462046FFF71BFE0546002842
:106EF000E0D0F9F74DFE63693BB1002360691A46A3
:106F00001946FAF71FFA00236361F9F7E1FED2E7A9
:106F10002DE9FF47044616469946884649B94FF081
:106F2000A00383F31188BFF36F8FBFF34F8F00BFB0
:106F3000FDE748B94FF0A00383F31188BFF36F8FCB
:106F4000BFF34F8F00BFFDE7037F13F0010F14BFA6
:106F500004270027FFF755FD8742054604D3002587
:106F6000284604B0BDE8F0877FB103463A4603A93E
:106F70002046D4F800A0FFF7D4FD039BED1B9E42F2
:106F800036BF00261E46C4F800A02B4632464146B6
:106F90002046FFF7C6FD05460028E0D0EFF3118636
:106FA0004FF0A00383F31188BFF36F8FBFF34F8FB0
:106FB00063694BB1002360691A461946CDF8009009
:106FC000FAF736FA0023636186F31188C8E70123D4
:106FD00000F01F02400900F5001000F20770934016
:106FE00040020A074CBF436603668A064CBF03652E
:106FF000436511F0C00F14BF036243620A064CBF21
:10700000C0F88430C0F88030026FC9074CBF13430A
:1070100022EA0303036770474FF4003208B5074BB9
:1070200000215A604FF4802211205A60FFF7CFFFF1
:10703000BDE8084000211220FFF7C9BF000E0E4036
:107040002DE9F74F4FF001080226B54D0B2000F057
:1070500051FC0C2000F04EFC6E614046C5F8A0606B
:107060000021C5F81080C5F8A0806E60C5F80480C6
:10707000FFF7ADFF00210846FFF7A9FF4FF480425C
:107080004FF40043A74C002163612F20C4F8A030C7
:107090002261C4F8A020636062600192FFF797FF4D
:1070A00000212E20FFF793FF4FF080732361C4F877
:1070B000A03023634FF480034FF40077236108214D
:1070C000C4F8A03023634FF4807308466B61C5F8A1
:1070D000A0302F61C5F8A0706B606F60FFF777FF7D
:1070E00008210920FFF773FF4FF480636B61C5F837
:1070F000A0304FF400632B61C5F8A0304FF48063DB
:107100006B604FF400634FF4805B6B6008210A20D2
:10711000FFF75DFF08210B20FFF759FFC5F814B0FA
:107120000021C5F8A0B00C20C5F804B0FFF74FFF50
:107130004FF4005308212B610D20C5F8A0306B607F
:10714000FFF745FF4FF400134FF4801A63610021ED
:10715000C4F8A03035206360FFF739FFC4F810A0F1
:107160000821C4F8A0A03420C4F804A0FFF72FFF22
:10717000FFF752FF26610423C4F8A06026630826A7
:10718000C4F810804FF04009C4F8A0804FF000719F
:10719000C4F830802661C4F8A06026632361C4F877
:1071A000A03023632023C4F810900320C4F8A090DB
:1071B000C4F810B0C4F8A0B02761C4F8A07023616F
:1071C000C4F8A0302161C4F8A010C4F83490C4F809
:1071D00034B067636363009361636E613146C5F8E1
:1071E000A060FFF7F4FE2761C4F8A07067604FF459
:1071F000803741462920FFF7EAFE6F613146C5F826
:10720000A0701020FFF7E3FE67613146C4F8A0705C
:107210003020FFF7DCFE4FF4003104234FF4002749
:107220004FF080086161019AC4F8A0106B61C5F845
:10723000A030009BC5F810A03146C5F8A0A00520DD
:10724000C5F834A02F61C5F8A0706F632A61C5F836
:10725000A0206A636B61C5F8A030FFF7B8FEC5F8DF
:1072600014803146C5F8A0800720FFF7B0FE10203B
:107270004FF400014FF48003C5F81090C5F8A090BA
:107280002861C5F8A0002961C5F8A0102B61C5F8D8
:10729000A0304FF080732B61C5F8A0304FF400533D
:1072A00027614FF48022C4F8A070C4F81080C4F89D
:1072B000A0802361C4F8A0304FF480732261C4F829
:1072C000A0202361C4F8A0304FF480634FF400661F
:1072D0002361C4F8A0304FF080632361C4F8A0306C
:1072E0002661C4F8A060C5F83490686369634FF400
:1072F000800169634FF0807169634FF400516763E7
:10730000C4F83480616362634FF4807262634FF447
:10731000806262636363666303B0BDE8F08F00BFA1
:10732000000E0E4000100E402DE9F74F01264FF0E1
:107330000208B14D0B2000F0DDFA0C2000F0DAFA63
:10734000C5F814803046C5F8A08000212E61C5F82C
:10735000A060C5F804806E60FFF739FE0021084682
:10736000FFF735FE4FF480494FF40043A34C002152
:1073700063612F20C4F8A030C4F81090C4F8A09026
:107380006360C4F80490FFF722FE00212E20FFF76F
:107390001EFE4FF080734FF480072361C4F8A030C5
:1073A00023634FF4807327614FF4007AC4F8A07010
:1073B00027636B61C5F8A0304FF48063C5F810A057
:1073C000C5F8A0A0C5F830A06B61C5F8A0304FF497
:1073D00000634FF400322B614FF4805BC5F8A0309E
:1073E0002B634FF40053C5F814B00821C5F8A0B0C2
:1073F00011202B61C5F8A0302B636A61C5F8A0206D
:107400000192FFF7E4FD4FF4802308216B61122005
:10741000C5F8A030FFF7DBFDC4F810800423C4F8E2
:10742000A0804FF00051C4F8308026614FF0400832
:10743000C4F8A060266308262661C4F8A06026630D
:107440002361C4F8A030236300932963C4F830B0EB
:107450002961C5F8A010C4F810804FF00071C4F87D
:10746000A080C4F810B0C4F8A0B04FF0200BC4F84E
:1074700010A0C4F8A0A0C4F810B0C4F8A0B0216156
:10748000C4F8A010C4F83480C4F834A04FF4803A93
:10749000C4F834B0102061633146C5F814A0C5F8B3
:1074A000A0A0FFF794FDC4F814A03146C4F8A0A032
:1074B0003020FFF78CFD6E613146C5F8A0600320D7
:1074C000FFF785FD019A009B62614FF4002AC4F822
:1074D000A0206B61C5F8A0304FF480132B61C5F874
:1074E000A0306B63C5F810A0C5F8A0A0C5F834A003
:1074F000C5F81090C5F8A090C5F834904FF08009F9
:10750000C5F814B0C5F8A0B04FF4000B3146052003
:10751000FFF75DFDC5F814903146C5F8A09007202F
:10752000FFF755FDC4F814B03146C4F8A0B03720B9
:10753000FFF74DFD10224FF08073C5F81080C5F89D
:10754000A0802A61C5F8A020C5F810B0C5F8A0B089
:107550002F61C5F8A0702B61C5F8A0304FF400531F
:10756000C4F810A0C4F8A0A0C4F81090C4F8A0906B
:107570002361C4F8A0304FF480232361C4F8A03005
:107580004FF480732361C4F8A0304FF480634FF44C
:1075900000612361C4F8A0304FF080632361C4F818
:1075A000A0302161C4F8A010C5F834806A634FF0A0
:1075B0008072C5F834B06F636A634FF40052C4F848
:1075C00034A0C4F8349062634FF4802262634FF4B5
:1075D000807262634FF48062626363634FF40043BE
:1075E00061636B61C5F8A0304FF400136B61C5F89F
:1075F000A03003B0BDE8F08F000E0E4000100E402A
:10760000B2EB011F30B52CBF1024082461434B0896
:1076100003EBC202B2FBF1F24FF6FE73D1084D1E2E
:107620009D4210D8082C08BF43684FEA024202F47A
:10763000E02208BF43F4002342EA010208BF43608E
:107640000262002030BD012030BD0000084BC0F8B0
:10765000E430002343604362836288230360242371
:1076600003604FF4807303604FF40023036070479E
:107670000041535570B505460C46FFF7E7FF002360
:107680000A4E336009B9012070BD0968FFF7B8FFE1
:107690000028F8D1A2686368134322691343E268A3
:1076A00013436A68336013436B6070BDD43708209E
:1076B000806DC0B2704740230360704710230360A1
:1076C000704781607047C1607047406970474FF4F0
:1076D00080730360704743699B0743BFC1F3080190
:1076E000C1610020012070474369DB0741BF836906
:1076F0000020C3F308030B6058BF0120704700004F
:107700000E4B1A6B22F003021A6340F60102996EC7
:1077100009070BD51A6B22F07002104340F60102E4
:107720001863996E090705D500207047013AEED11C
:1077300001207047013AF4D1FAE700BF00060E407D
:107740000F4B1A6B22F0030242F001021A6340F65B
:107750000102996E09070BD51A6B22F070021043D3
:1077600040F601021863996E090705D5002070479D
:10777000013AEED101207047013AF4D1FAE700BF97
:1077800000060E400F4B1A6B22F07002104340F6B9
:1077900001021863996E08070CD51A6B22F00302D8
:1077A00042F002021A6340F60102996E090705D5FC
:1077B00000207047013AEDD101207047013AF4D121
:1077C000FAE700BF00060E40054B586910F0800034
:1077D0001FBFA3F5A053103B986EC0F3C0107047B5
:1077E000101A0E40174B10B51A6A12F0010F1A6AE0
:1077F0001FD0002122F45C1222F0780242F45C12C5
:1078000042F0080202431A629A6E9203FCD51A6A89
:1078100022F09B7222F4803242F45C121A6239B177
:107820001A6A22F45C1222F0010242F45C121A621B
:1078300010BD054C05491440214301431962012143
:10784000E2E700BF00060E408600C8FF09FF3700D0
:10785000044A136A23F45C1323F0780343F45C13A3
:107860001362704700060E40034A136A23F00303B5
:1078700043F45C131362704700060E400E4A136A0D
:1078800028B10E4919400E4B0B431362704723F485
:107890005C1323F00303090243F45C1389B243F041
:1078A00001030B431362936EDB07FCD5136A43F0AD
:1078B0009B7343F48033E8E700060E40FCFFC8FEEC
:1078C00002003701024B986E00F48030704700BF11
:1078D00000060E404FF00052014B9A62704700BF05
:1078E00000060E40024B986E00F00200704700BF89
:1078F00000060E402C2818D81F280D4A4FF001030F
:1079000008D8916903FA00F030EA010300D0106151
:10791000002070472038D2F8081103FA00F030EA4E
:107920000103F5D0C2F80001F2E70120704700BF63
:1079300000060E40034BC0F312001A6F1043186785
:10794000704700BF00060E4041607047816070477D
:1079500000697047436A23F0FF031943416270478F
:1079600000EB4111D1F8100270478B790A781B04A3
:1079700003F4702343F4000300EB4210C0F81C3200
:1079800070478B790A781B0403F4702343F4800357
:1079900000EB4210C0F81C3270470A780B7930B502
:1079A00000EB421063B9C0F80032C0F80432C0F8EE
:1079B0000832C0F81432C0F81832C0F81C3230BD9A
:1079C000D0F80022CC7922F4702242EA0442C0F8B6
:1079D00000224D79CC680A6985B144F00054C0F8A2
:1079E000044242F00052C0F80822D0F8002222F0EF
:1079F000E06242EA0363C0F8003230BDC0F80442DE
:107A0000F1E78A6870B502F0C073B3F1C07F14BFAC
:107A1000002402240B78C2F303425B01C518D5F899
:107A20000C62042A8A7126F060464E61D5F8146211
:107A300088BFD5F818228E6188BFCA61C218D2F8F3
:107A4000102203448A60D201D3F80822D3F8083206
:107A500048BF44F0040412F000521DBF23F06043FD
:107A60000B6101239B0C12BF4B710B614A71FFF735
:107A70007CFF204670BD0A7830B552018418D4F8D6
:107A800010328B601B021AD54D790B690DB143F092
:107A90000053C4F808328B698418C4F814328B7907
:107AA0001044042B88BFC9694FEA034303F47023D1
:107AB00088BFC4F81812C0F81C32002030BD012065
:107AC00030BD30B50024054689B08DF804400094DF
:107AD000694628460134FFF760FF082CF7D109B04A
:107AE00030BD0000F8B546F2A813044603FB02F0CF
:107AF0000B18013BB3FBF0F3802B01D90020F8BD3C
:107B00004FF4FA505043B0EB510FF7D84FF47A735B
:107B100008265A434FF0FF373346B1FBF0F5802D6E
:107B200006D800FB1515BD4202D23DB12F461E46B8
:107B30000133DBB21A2B1044EFD133465A43B1FB69
:107B4000F2F1C9B20129D9D906202268083B22F0F6
:107B500001022260194A013900FB03229378507810
:107B6000013B01381B01000200F4E06003F07003E8
:107B70000343D07812790138013A00F0070012036C
:107B800002F4405203430904134301F4FE01194374
:107B900020466161FFF795FF00200246236843F00D
:107BA00001032360064B920204D49842A6D02269B6
:107BB0000130F8E7C01A18BF0120F8BDF8320900FB
:107BC000A0860100AC2310B54A6803600B68B3FBC4
:107BD000F2F34FF6FE721B095C1E94420AD8036250
:107BE0008B68436040F20223C0F8203150230360C9
:107BF000002010BD012010BD502303607047AC234E
:107C00000360704781607047C1607047406970478A
:107C100043699B0746BFC16100200120704743694B
:107C2000DB0743BF836900200B7001207047C36CE2
:107C30000164704741647047C06C7047D3060ED52D
:107C40009306C0F8B0104CBFC0F8D410C0F8D010E4
:107C500053064CBFC0F8C010C0F8C4107047C0F83D
:107C6000B4107047FFF7EABF30B5012440F2022597
:107C7000046052000024B1FBF2F24460C0F82051CD
:107C8000C0F80441C0F814414568013A12022B4380
:107C900092B21A434260204630BD4368090101F0A8
:107CA000100119434160704710B50906446801F09E
:107CB000706121430A43190701F0405111434160AB
:107CC00010BD022303607047012303FA01F1016133
:107CD00070470F299ABF503050F82100002070479C
:107CE000036C43F08073036470470000014B53F84A
:107CF00020007047901A0E40014B43F82010704747
:107D0000901A0E40014B0360704700BF050000A5AC
:107D1000406800F4E0607047084BB3FBF1F181422A
:107D200008D8C1EB0133834204D3B0FBF1F0C0F3B8
:107D30000B0070474FF6FF70704700BF0020A1078F
:107D400010B5044CC2F30B0204EA034313430B4384
:107D5000436010BD0000FF0F024B984204BF024B6E
:107D600003607047501A0E40010000A54068C0F340
:107D70000B00C001B0FBF1F101484843704700BF60
:107D800040420F00134B07B5DA6AD00742BF01210A
:107D90009962196A910742BF022199621B6AD30551
:107DA00044BF4FF480720B4B01A944BF9A621B6A17
:107DB000094B1868FAF727F9019B3BB14FF0805245
:107DC000064B1A60BFF34F8FBFF36F8F03B05DF8A0
:107DD00004FB00BF00C00840D837082004ED00E0D5
:107DE000436801F00F0123F00F030B43436070471A
:107DF000436801F4E06123F4E0630B4343607047A0
:107E0000436843F48053436070470068C0F3032025
:107E10007047C068704708B5120202F470621143DF
:107E20000DF0DAFF002008BD0368090201F470615B
:107E300023F4706319430DF0CFBF000038B5A1F1F2
:107E40000E03012B17D9EFF3108472B6BFF35F8FC7
:107E500000230A4DC9B22B70094B03EA022242F0FB
:107E6000B44211430DF0C0FF3CB901232B70BFF3A6
:107E70005F8F62B638BD4FF0FF3038BD7882072083
:107E800000FFFF0030B50F4C256805F500248C423B
:107E900010D8C5F17F4404F578040C44491B0A4D01
:107EA000C4F30F24C9B200B1056002B1148003B15C
:107EB000198030BDA1F50024C4F30F24C9B2034DCD
:107EC000F1E700BFC48C0720000C0E40000A0E40F2
:107ED00038B504460D460A4601460548FFF79BFFA4
:107EE0002A4621460348FFF796FF002038BD00BF11
:107EF000000A0E40000C0E402DE9F04F85B00193B2
:107F00000F460DF10A030146154603A802AAFFF722
:107F1000B9FF0398FFF779FF062181460398FFF721
:107F200083FFDFF8BCB0DFF8B4803DB90398494661
:107F3000FFF77AFF284605B0BDE8F08FBDF80A20AC
:107F4000254CC2F58073AB421E4628BF2E460398CF
:107F5000BDF80810A04215BFDBF8004001F5006431
:107F600004F50024240218BF04EB01249B1B2146C6
:107F70001A481FFA83FA06F03BF8BDF80A003246A9
:107F80003946404406F034F8BDF80A005246304401
:107F90000119404406F02CF804F58073A8EB0401A5
:107FA0000A5944F8042BA342FAD1019BBDF80820DA
:107FB0007BB103210398FFF741FF0028BBD1BDF837
:107FC000083037440133AD1BADF80830ADF80A0076
:107FD000ABE70121EEE700BF000A0E40DC370820C6
:107FE000C48C0720042370B586B002AD06460C464B
:107FF00000930F222B460E2109480DF0F1FE68B9BF
:10800000042C28BF04240346A34201D106B070BD4E
:1080100055F8232046F823200133F5E71020F5E733
:10802000000A0E40EFF30583FCE700002B4A10B571
:10803000136B03F00303012B294B0FD004D3116AF8
:10804000CC012CD5274946E02749496908064CBF91
:108050004FF400414FF4FA4119600DE0116AC90173
:1080600001D52049F8E721491960116A01F0700132
:10807000102912D02029F4D0116B01F07001702961
:1080800005BF03211A68116BB2FBF1F21EBF1A681B
:10809000C1F30211CA401A6010BD1549DCE713494B
:1080A0001960116A01F07001102913D02029C9D07C
:1080B000116B01F00301022901BF946A1968C4F32E
:1080C0000A4404FB011109BF906A0A49C0B2B1FB1E
:1080D000F0F1C1E706491960EAE700BF00060E406B
:1080E00074820720001BB700101A0E4000093D00E3
:1080F00000127A00001C4E0E114B124A9842124B8D
:1081000003D800211160196070471049884202D8D5
:108110004FF48071F6E70E49884202D84FF400719F
:10812000F0E70C49884202D84FF44071EAE70A4967
:10813000884294BF4FF480614FF4A061E2E700BF32
:10814000BFEA2101000A0E40000C0E407FF0FA0247
:10815000FF8FD003FFB3C4047F4A5D050160704701
:1081600001210268530903F5001303F2077302F0BB
:108170001F025B0201FA02F21A63704701210268D2
:10818000530903F5001303F2077302F01F025B02A9
:1081900001FA02F25A6370470D4808B5FFF7ACFFC9
:1081A0003E210020FFF76AFBFFF78CFB0028FBD085
:1081B000FFF790FB074A084B9A62FFF793FB0028F2
:1081C000FBD00020FFF7DEFABDE80840FFF72EBF26
:1081D00000BD0105013F062000060E404FF0005291
:1081E000044B1A61C3F8A02008B11A6370475A63A0
:1081F000704700BF000E0E40024BD86BC0F34070BA
:10820000704700BF000E0E402DE9F0472F4A86B0A0
:1082100013782F4E013313702E4B1B788BB93279A4
:108220008DF8003033786846934228BF13468DF8A6
:10823000083004F0F5FB0120FFF7D0FF06B0BDE8E1
:10824000F08700244FF6FF7827464FF0010ADFF849
:108250008C9056F82450A300454505D0BDB10120AF
:10826000013DF550FFF7BAFF0134022CF1D1CFB92F
:10827000337832798DF80070934228BF13468DF819
:108280000830FBF76FFB684604F0CAFBD6E72346CD
:108290004A4601212846FBF77FFB0AFA04F31F43F5
:1082A0002846DFE70C4A01210020FBF775FB00237D
:1082B00068468DF800308DF8083004F0B1FB4FF4BB
:1082C0007A70F8F77DFDF8F7F9F9B7E7E538082097
:1082D000DC380820E63808208C33090070330900A8
:1082E0004FF4B472014B43F820207047DC3808206B
:1082F000014B1870704700BFE638082073B5124B69
:10830000124A01210020FBF747FB114B1C78C4B92E
:1083100001251D700F4B2A46FA2100930E48234673
:10832000F9F7DEF90646F8F73BFC234602460094CF
:1083300029463046F9F7FAF94FF6FF72074B1A60F3
:108340005A6002B070BD00BF64330900D91B090038
:10835000E438082009820800A0330900DC3808202E
:1083600038B583784478012B12D10F4A13700F4D22
:10837000204600F057F82A78A24211D0FBF742FCC1
:108380007CB90B4A01210020FBF706FB2C7007E0AB
:10839000002BECD1074B1C70034B1B78002BE6D055
:1083A00038BD054AEEE700BFE7380820798207208C
:1083B000A63309007A820720B5330900014B1878EB
:1083C000704700BF7A82072008B500F035F810200A
:1083D0000349FBF787F9BDE80840002000F022B808
:1083E0006183080070B58AB004460E46FBF7EAFBCD
:1083F00043780546A3420FD01020FBF7D3FB102390
:108400006C7068468DF800308DF801408DF8026080
:10841000FBF784F90AB070BD1020FBF7B3FB00280E
:10842000EAD1F7E7034B4FF0007208B91A637047BF
:108430005A63704700100E404FF00072024B1A61F1
:10844000C3F8A0201A63704700100E40034B4FF48E
:10845000805208B91A6370475A63704700100E4083
:10846000024BD86BC0F30030704700BF00100E40C5
:10847000034BD86B80F48050C0F30030704700BFCE
:1084800000100E40084B30B5084CDB6B084D2178CE
:10849000C3F30043287841EA0302024001EA0300E3
:1084A00029702370104330BD000E0E40E8380820BC
:1084B000EA380820084B30B5084CDB6B084D2178B2
:1084C000C3F30043287841EA0302024001EA0300B3
:1084D00029702370104330BD00100E40E938082089
:1084E000EB3808204FF48052024B1A61C3F8A020E9
:1084F000704700BF00100E400378142B04D142785F
:10850000074B12B901221A7070471A78002AFBD063
:1085100004490A7882F001020A700022F3E700BFE2
:108520007F820720F238082038B50378072B28D13E
:10853000144B154C1D78CDB9042000F039FC1E28D1
:1085400004D90420294600F039FC28463C2358432E
:1085500020600E4B1B78A3B10D4A1378591C022BD7
:1085600011700ED9BDE83840F8F7A8B82368002B81
:10857000EFD0013B074A012100202360FBF70CFAF2
:10858000E7E738BD7E820720EC380820F138082064
:10859000F03808200B340900F8B503780546122B93
:1085A0001BD12E4E42782E4F2E4C31683A702270DD
:1085B00031B1012A04D1FFF753FF60B100233B70B2
:1085C000294B22781978914203D0002027491A704C
:1085D0000870012302E03060F2E700232A78062ABF
:1085E00001D0002B33D0214B1D4A1978147861B18A
:1085F000012C2DD04CB91948016859B319490C7890
:10860000012C27D10021016019701949097839B16D
:108610000124002014702146164A1870FBF7BCF99B
:108620002046FFF713FF14B10E4B1B7813B900203F
:10863000FFF756FE104D2A78A24208D0FBF7E2FA67
:1086400054B90E4A01210020FBF7A6F92C70F8BDA1
:108650000024DAE70124D8E7094AF3E7EC380820D8
:108660007B8207207E8207207D820720F238082047
:10867000F1380820C53309007C820720EE33090059
:10868000FC3309000122014B1A707047F1380820B1
:10869000014B1878704700BF7E820720FFF7E0BECD
:1086A00010B50E4CFFF71EFF0120FFF7CFFE21464D
:1086B0001220FBF717F821460620FBF713F80849AC
:1086C0001420FBF70FF807490620FBF70BF8BDE86D
:1086D000104005490720FBF705B800BF9985080041
:1086E000F98408000B87080029850800132300B5CA
:1086F0008BB08DF8010068468DF800308DF80210BF
:10870000FBF70CF80BB05DF804FB08B50378062BFB
:108710000BD1FFF7B7FE0021FFF7E8FFFFF7CAFE16
:10872000BDE808400121FFF7E1BF08BD142300B5F3
:108730008BB08DF8010068468DF80030FAF7EEFF37
:108740000BB05DF804FB0000034B402208B91A632C
:1087500070475A63704700BF00100E40034BD86B40
:1087600080F04000C0F38010704700BF00100E4042
:108770004022034B1A61C3F8A0201A63704700BF60
:1087800000100E4038B54478094D2046FFF7DCFF55
:108790002A78A24208D0FBF735FA34B9054A0121FC
:1087A0000020FBF7F9F82C7038BD034AF7E700BF4B
:1087B00080820720343409004034090008B5FFF7EF
:1087C000D7FF15200349FAF78DFFBDE808400120C7
:1087D000FFF7BABF85870800034B202208B91A6348
:1087E00070475A63704700BF00100E40034BD86BB0
:1087F00080F02000C0F34010704700BF00100E4012
:10880000024BD86BC0F34010704700BF00100E4001
:108810002022024B1A61C3F8A020704700100E40BE
:10882000032238B5184B44781C70184B012C1A7071
:108830001DD1FFF7E5FF10B3154B1C78B4FA84F493
:108840006409FFF725FF012808BF0124114D2046C8
:10885000FFF7C2FF2A78A24208D0FBF7D3F984B908
:108860000D4A01210020FBF797F82C7038BDFFF767
:10887000C7FF0028E5D1094B1B78002BE1D001246C
:10888000DFE7074AEDE700BF8282072083820720E7
:10889000F3380820818207204D340900F43808207D
:1088A0005A34090003781A2B06D14368B3F5AF6F29
:1088B00082BF0022014B1A70704700BFF3380820B6
:1088C00010B52B4A04461378002B3BD129490120CF
:1088D0000B7029490B7003231370284B1870284B19
:1088E0001870FFF779FF2478072C3FD1204600F05D
:1088F0005FFA1E2803D90021204600F05FFA062007
:1089000000F056FA1E2803D90021062000F056FA7E
:108910001B4B05201B78C3B900F04AFA012804D18B
:10892000072000F045FA134B1870134A1378EBB187
:10893000013BDBB21370134A0121BDE81040002057
:10894000FBF72AB8013B1370CDE700F031FA01289C
:1089500004D1062000F02CFA074B1870054A137852
:1089600023B1013BDBB21370074AE5E710BD00BF3E
:1089700083820720F3380820F438082081820720FA
:1089800082820720683409009234090008B5FFF795
:108990003FFF08491620FAF7A5FE07490720FAF716
:1089A000A1FE1A200549FAF79DFEBDE80840012006
:1089B000FFF712BF21880800C1880800A5880800B9
:1089C00030B58BB00446FBF7FDF883780546A3422B
:1089D0000DD01620FBF7E6F81623AC7068468DF82C
:1089E00000308DF80140FAF799FE0BB030BD16202B
:1089F000FBF7C8F80028ECD1F7E7000030B58BB0E2
:108A00004FF0A00383F31188BFF36F8FBFF34F8F35
:108A1000144A154814880378144921F81340002398
:108A2000138083F311880A2502780132D2B2B2FB97
:108A3000F5F405FB14221C46027031F813200133B3
:108A40000A2B1444F9D10A4D2B689C4207D01B23F2
:108A500068468DF800300194FAF760FE2C600BB088
:108A600030BD00BFF6380820F8380820003908204B
:108A70001439082037B51E4D44682B689C4234BF1A
:108A80001B1BE31A132B94BF002301236BB1204659
:108A900004F074FB0022174B04F010FD164ACDE9D8
:108AA000000101210020FAF777FF632C07D800218D
:108AB000084600F0A7F800232B6003B030BD2B68F8
:108AC0009C4234BF1B1BE31A312B94BF00230123AC
:108AD000002BF2D032234EF66021B4FBF3F30120D9
:108AE000B1FBF3F100F08EF8FBF78CF82C60E4E7B3
:108AF000FC38082000005940BD340900014B1868BB
:108B0000704700BFFC38082073B5134D2C7804BBA8
:108B100000F09AF811491A20FAF7E4FD104B0122EF
:108B20000093642123460F48F8F7DAFD0646F8F76C
:108B300037F823460246009401213046F8F7F6FD47
:108B40000123214620462B7002B0BDE8704000F0A2
:108B500059B802B070BD00BFF5380820758A08000A
:108B6000FD890800CC34090030B58BB00446FBF712
:108B700029F883680546A3420FD91B1B012B0ED988
:108B80001A20FBF70FF81A23AC6068468DF8003006
:108B90000194FAF7C3FD0BB030BDE31AEEE71A20DB
:108BA000FAF7F0FF0028EBD1F5E7000038B51248DE
:108BB00004F08EF903061DD5104D11492C680E489E
:108BC00064082A6804F05EF922460D490A4804F058
:108BD00067F92A680A49084804F054F92246084906
:108BE000054804F05DF9BDE838400022072102483D
:108BF00004F079B938BD00BF00400940443908206D
:108C00001839082038B505460C4C80B10C4B19605A
:108C100023782BB907210B4804F050F90123237066
:108C20000022BDE838400721064804F053B9072167
:108C3000044804F048F9257038BD00BF40390820C9
:108C400044390820004009401FB52420FEF752FE99
:108C50000721194804F037F92420FEF74BFE47F2AC
:108C6000305300240193154B01A913480294039338
:108C700004F07AF820B1124A21462046FAF78CFE19
:108C80000023104907240B818B720B234B60642354
:108C90000B6132230848CB600C6004F084F8214655
:108CA000054804F010F91022074B5A60F02283F8AF
:108CB000242304B010BD00BF0040094000BD0105E1
:108CC000D23409001839082000E100E070B58AB0FC
:108CD00004460E46FAF776FF03790546A34209D00B
:108CE0001720FAF75FFF1B2C2C710AD817238DF879
:108CF00000300CE01720FAF745FF0028F0D10AB049
:108D000070BD182305228DF800300F4B1A70002318
:108D100068468DF802308DF801408DF80360FAF74F
:108D2000FDFC9DF80130002BE9D1074C2378002B86
:108D3000E5D0182368468DF80030FAF7EFFC237869
:108D4000013B2370DBE700BF483908200A2310B538
:108D500088B000930023124C124822780068162A2B
:108D600087BF1A4603214FF496720421F8F7DEFC00
:108D700017238DF8083023780121DA088DF81020A8
:108D800000920020084AFAF707FE00238DF8113000
:108D9000064B02A8039303F043FE08B010BD00BFCA
:108DA0006239082064390820EE340900758E080005
:108DB000014B185C704700BF4A3908207FB5094B4A
:108DC0001A5C8A420AD0195405238DF808006846B7
:108DD0008DF800308DF8091003F022FE07B05DF821
:108DE00004FB00BF4A3908207FB57F2306A800F89E
:108DF000183D03F015FE07B05DF804FB37B5114AC6
:108E00001378EBB9FF20104958540133182BFBD1CC
:108E100001240E4B14704FF4C871224600930C4885
:108E20000023F8F75DFC0B4B05461860F7F7B8FE1A
:108E30000A2302460093214600232846F8F776FCD1
:108E400003B030BD493908204A3908204D8D08004B
:108E500071320900643908201D2300B58BB08DF8EC
:108E6000010068468DF80030FAF758FC0BB05DF849
:108E700004FB00002DE9F84F894692460024C0000B
:108E8000DFF85C80C6B2144F08EB060B4C4504D1EA
:108E90000122124B1A70BDE8F88FA519172D18DCA6
:108EA0001AF80430012D0BF8043002D12846FFF7E0
:108EB000D3FF172D3D7009D198F817301BB9012148
:108EC0002846FFF77BFF0220FFF7C6FF3B78013300
:108ED0003B700134DAE700BF6239082063390820AB
:108EE0004A39082070B5417990F808418D1DA54296
:108EF00017D18378C2780B441344027905311344A7
:108F00000622DBB2914206DADB430134435580F896
:108F10000841012070BD865C01323344DBB292B25D
:108F2000F0E7002070BD0023FF2180F8083180F8B1
:108F3000093100F20712431E03F8011F9342FBD1CF
:108F4000002380F80A3180F80B3170470122014B71
:108F50001A707047E03A0820704700000378262B0B
:108F600002BF4278014B1A70704700BFBC3908201D
:108F700010B503780146212B03D12822054805F0BE
:108F800037F8BDE81040002303481A461946006828
:108F9000F8F708BF683908209039082002F0FEBDB4
:108FA00003780146312B05D1034800230A220068CB
:108FB000F8F7F8BE704700BFE43A0820037801468E
:108FC0002E2B05D1034800230A220068F8F7EABED9
:108FD000704700BF9839082003782D2B06D1011D5A
:108FE000034800230A220068F8F7DCBE704700BF80
:108FF000B83908200378272B06D1011D0348002328
:109000000A220068F8F7CEBE704700BFC0390820BA
:1090100003782C2B03D141780920FFF7CFBE70478E
:1090200010B50378292B10D10446084A54F8043FA0
:1090300004210220FAF7B0FC05482146BDE81040A3
:1090400000230A220068F8F7ADBE10BD653509009F
:10905000A839082010B503780446322B0DD1074AF1
:1090600001210020FAF798FC0548611C0023BDE8A7
:1090700010400A220068F8F795BE10BD3D35090082
:109080009439082013B50378172B47D10222411CCD
:10909000684604F0ADFF9DF8002052B923490B78D3
:1090A0003BB1DC0741BF581C08708DF800308DF8CB
:1090B00001209DF80020D00718D51C4B1B78D9073C
:1090C00014D59A4212D000240133194A01212046B6
:1090D0008DF804308DF80540FAF75EFC15482346FC
:1090E0004FF0FF3201A90068F8F75CFE9DF80030F0
:1090F000A3B10E4C22789A4210D00F4A01210020D1
:10910000FAF74AFC0B486946002302220068F8F788
:1091100049FE014620B19DF80030237002B010BD19
:10912000064A0220FAF738FCF8E700BF9D3908200C
:1091300079350900DC3A08208435090092350900A8
:1091400010B590F80A31044690F808110BB10329C4
:1091500003D8637907338B4204D1204600F04AFEDE
:10916000012010BD0021054A0846FAF715FC2046EB
:1091700094F8081100F03EFE002010BDAA35090049
:109180002DE9F0411C4C054620461E4688461746F0
:10919000FFF7C9FEC723C82294F808012354431CD3
:1091A000DBB2E2541222831CDBB2E554C31CDBB2F7
:1091B000E2540022031DDBB2E2540422431DDBB261
:1091C000E254851DC11D00F10802EDB2C9B2D2B250
:1091D00004F805806754A65400F109020A3084F8A7
:1091E0000801D2B22046A654FFF77CFE2046BDE817
:1091F000F041FFF7A5BF00BFCC390820034B1A7818
:109200001F2A84BF01221A7018787047D83A0820A4
:1092100008B5FFF7F3FF0130C0B2202828BF0120B6
:10922000014B187008BD00BFD83A08202DE98048CE
:109230007A4B89B00093012200234FF4FA717848E9
:10924000F8F74EFA774C784B20600122C821009342
:1092500076480023F8F744FA754D286001F080FE47
:109260002668F7F79DFC002402462346012130467C
:109270000094F8F75BFA2D68F7F792FC2346024654
:10928000012128460094F8F751FA0221694A08465C
:10929000FAF782FB6848FFF746FEFFF7B9FF674D14
:1092A0000146654802F0ECFB2F46654EC821306848
:1092B000F8F7A8FF6C78DFF8B881012C68D1614A13
:1092C00003210220FAF768FB98F80030022B51D8EE
:1092D00002215D4A0846FAF75FFB574890F80821DB
:1092E0008378012A98BFFF23BA789A4240F082809F
:1092F000FFF726FF98F80030013388F80030002C83
:10930000D4D10020514C88F800006278002A40F047
:10931000E582DFF8608105A9D8F80000F8F7CAFEF9
:10932000002800F0D5809DF8142023789A4200F0A0
:10933000CE82FFF76DFF9DF814300446162B00F225
:10934000BA82DFE813F061009900E101E801F10160
:10935000F8010102080211027B0284021802530282
:109360005A0263026B0274028B0292029A02A202F8
:10937000A902B102364A00210220FAF70DFB354A54
:109380001378002BBDD000231370334A1370B8E755
:10939000022C31D1314A03212046FAF7FDFA98F820
:1093A0000030022B09D821462D4A2046FAF7F4FA5C
:1093B0002148FFF7C5FE01249CE72A4A00212046E8
:1093C000FAF7EAFA234B1B7813B10022224B1A70EA
:1093D000254B1B7823B9FAF7C5FA0120FEF780FF69
:1093E000FFF75CF9044628B9FAF7BCFA0120FEF74A
:1093F00077FF7FE700247DE7164B1B78002B80D09A
:10940000154A13780133C1E7184A01210020FAF701
:10941000C3FA00231A46002136E000BF4D8F080032
:10942000B4350900B0390820598F0800BA35090051
:10943000AC390820C0350900CC390820683908202B
:1094400090390820CF350900D6350900B4390820F5
:10945000E5350900C4390820A4390820F835090089
:109460000236090011360900BC39082026360900E9
:10947000BD390820DC3A0820C34A01210020FAF750
:109480008BFA0123002210212046FFF779FE0446C3
:10949000002840F015829DF81430BC4A0146FAF7C6
:1094A0007BFA0123052205A9D8F80000F8F77AFC19
:1094B0009DF814300094B64A01210020FAF76CFAA6
:1094C000012C00F01582022C02D10A20F7F778FC5B
:1094D000B04B002205A91868F8F7ECFD48B1FFF77A
:1094E00097FE05AA0146AC4802F086FB00287FF4EF
:1094F000DDAEAA4B002205A91868F8F7DBFD48B1DC
:10950000FFF786FE05AA0146A34802F0B9FB002832
:109510007FF4CCAE0022A24B05A918680592F8F79B
:10952000C9FD48B1059C3CB1FFF772FE01469A485F
:10953000A04700287FF4BAAEDFF8AC82994C98F8C7
:109540000030002B00F0E481DFF864A2DAF800308C
:10955000002B00F0DD812368934A01210020FAF7F7
:109560001BFA206802F05AF9DFF840B28146002861
:1095700000F0C2819BF800108748C847002840F0DF
:10958000ED810023894A88F800301370884A1360FF
:10959000884B002205A91868F8F78CFD002867D0D1
:1095A000FFF736FE7C4C039020469DF81680DDF8D0
:1095B00018A09DF815B0DDF81C90FFF7B4FCC72289
:1095C000C82094F808310399E2545A1CD2B2A0542E
:1095D0009A1CD2B2A1544021DA1CD2B2A15400216B
:1095E0001A1DD2B2A1545A1DD2B2A1549A1DD2B2A0
:1095F00004F802B0DA1DD2B2083304F8028084F80D
:109600000831504604F09CFEA0465246C0B2A2EB80
:109610000A03DBB28342C0F0A581002294F808312E
:109620004846E254013384F8083104F089FE4A4682
:10963000C0B2A2EB0903DBB2984200F29D814FF069
:10964000000894F8083154485A1C04F80380053B7C
:1096500084F808216371FFF745FC574A0121404611
:10966000FAF79AF94C48FFF76BFD00287FF41EAE1D
:10967000524B002205A91868F8F71CFD00283BD0C2
:109680004F4A01210020FAF787F9FFF7C1FD424C4C
:10969000824620469DF814909DF81580FFF743FC04
:1096A000C722C82194F808312046E2545A1CD2B28D
:1096B000A15424219A1CD2B204F802A0DA1CD2B21E
:1096C000A15400211A1DD2B2A15402215A1DD2B2B6
:1096D000A1549A1DD2B204F80290DA1DD2B2083316
:1096E00004F8028084F80831FFF7FCFB2046FFF7FE
:1096F00027FD00287FF4DAAD324C2378002B40F0B0
:10970000458100232370D1E52F4A01210020FAF77B
:1097100043F90023B6E62D4A01210020FAF73CF96F
:10972000012300222021AFE6294A01210020FAF777
:1097300033F90023F5E7274A01210020FAF72CF935
:109740000123002204219FE6234A01210020FAF789
:1097500023F90023F5E7214A01210020FAF71CF93B
:109760000123002208218FE61D4A01210020FAF77B
:1097700013F90023F5E71B4A01210020FAF70CF941
:109780000123002240217FE6313609007F3709009E
:10979000A4370900B8390820CC39082098390820A6
:1097A000C0390820A0390820D7370900A43908207B
:1097B000C8390820E43A08200938090094390820FB
:1097C0001A380900E03A08203E36090049360900F7
:1097D00056360900613609006F3609007B360900EC
:1097E0008936090095360900C4390820704A0121DC
:1097F0000020FAF7D1F80023C3E76E4A01210020C8
:10980000FAF7CAF80123002201213DE66A4A012144
:109810000020FAF7C1F800231A46F5E7674A01214C
:109820000020FAF7B9F80123002202212CE6644A4D
:1098300001210020FAF7B0F80023F5E7614A012181
:109840000020FAF7A9F80123002280211CE65E4AD5
:1098500001210020FAF7A0F80023F5E75B4A012177
:109860000020FAF799F80123D4E5594A0121002094
:10987000FAF792F800230122CDE5564A0121002093
:10988000FAF78AF801230222C5E5534A0121002094
:10989000FAF782F80023F6E7504A01210020FAF790
:1098A0007BF801230422B6E54D4A01210020FAF796
:1098B00073F80023F6E74B4A03210020FAF76CF80F
:1098C000022205A9484804F093FB0124F0E56378DF
:1098D0009DF81520134463700224E9E5013AD2B2E1
:1098E0006270237801210092404AFAF755F8ECE5BE
:1098F0003220F7F765FAD9E423683D4A0121FAF7E7
:109900004BF888F800908BF80090CAF800903FE67A
:10991000384B002238491868F8F7CCFB00283FF490
:1099200037AE2368002B3FF433AE344A01210020C8
:10993000FAF732F8206801F039FF206801F06EFF75
:10994000034600283FF424AE2D4A2E48117898474C
:1099500000283FF416AE22682B4B1A60012388F8CA
:109960000030A3E498F8083112F8011B08F803103E
:10997000013388F808314AE698F8083112F8011BDB
:1099800008F80310013388F8083152E6FFF740FC6D
:1099900001461C4802F074F880460A20F7F710FAD6
:1099A00000232370B8F1000F7FF480ACA9E600BF5C
:1099B000A2360900AD360900BD360900CB360900D4
:1099C000DB360900E9360900F836090005370900D9
:1099D00017370900273709003937090049370900C7
:1099E0005837090065370900B4390820B73709002E
:1099F000EA370900A8390820A0390820F9370900FA
:109A0000A4390820CC390820C8390820024B00218D
:109A10001868F8F761B900BFA839082037B53C4D80
:109A20002C78002C72D1224602211020F8F794F9EC
:109A30000421384B224618600846F8F78DF90421B6
:109A4000354B224618600846F8F786F9334B224614
:109A500018600C210220F8F77FF9314B224618607C
:109A60000C210220F8F778F902212E4B22461860CB
:109A70000846F8F771F92C4B22461860092102209C
:109A8000F8F76AF9294B4FF4487218600223284905
:109A90000093019423462748F6F756FF00F00EFA8C
:109AA00025491720F9F71EFE24493220F9F71AFE3E
:109AB00023492920F9F716FE22492720F9F712FE3B
:109AC00021492120F9F70EFE20492620F9F70AFE48
:109AD0001F492820F9F706FE1E492D20F9F702FE3E
:109AE0001D492E20F9F7FEFD1C493120F9F7FAFD3A
:109AF0001B492C20F9F7F6FD02F028F8012003227B
:109B000021462870F8F728F9164B186003B030BDCD
:109B10009C390820DC3A0820A8390820C0390820E0
:109B2000B8390820E43A08209439082098390820E8
:109B30003B3809002D9208008590080055900800D8
:109B400021900800F58F0800718F08005D8F0800D4
:109B5000819B0800D98F0800BD8F0800A18F0800E5
:109B60001190080090390820272300B58BB0019090
:109B700068468DF80030F9F7D1FD0BB05DF804FBB5
:109B80000378282B05D14378182B02D10148FFF721
:109B9000EBBF70479D8F080010B526248AB08DF862
:109BA00004309DF830308DF802008DF805309DF8B6
:109BB000343068468DF806309DF838308DF8004016
:109BC0008DF807309DF83C308DF801108DF803209A
:109BD0008DF80830F9F7A2FD0AB010BD2B2300B5AF
:109BE0008BB08DF800309DF801308DF8022060F3C5
:109BF000030361F3871368468DF80130F9F78EFD92
:109C00000BB05DF804FB2F2300B58BB08DF801007D
:109C100068468DF80030F9F781FD0BB05DF804FB64
:109C2000282300B58BB08DF8010068468DF8003010
:109C3000F9F774FD0BB05DF804FB000003462A2021
:109C400000B58DB08DF8080000208DE806008DF875
:109C50000B108DF80C200121064A8DF80A308DF882
:109C60000900F9F799FE02A8F9F758FD0DB05DF863
:109C700004FB00BF0A350900034608462A2100B547
:109C80008DB08DF8081001218DE805008DF80B00CE
:109C90008DF80C200020064A8DF809108DF80A3046
:109CA000F9F77AFE02A8F9F739FD0DB05DF804FB6B
:109CB0001C3509002A2200B58DB08DF8082002223B
:109CC00003468DF809208DF80A008DF80B100091DD
:109CD000054A01210020F9F75FFE02A8F9F71EFDF1
:109CE0000DB05DF804FB00BF2E35090000B58BB048
:109CF00001460C22684604F07BF9312368468DF852
:109D00000030F9F70BFD0BB05DF804FB252300B51F
:109D10008BB0ADF8020068468DF80030F9F7FEFC14
:109D20000BB05DF804FB08B50920FFF741F81228D5
:109D300004D909200121FFF741F8012008BD0000E6
:109D4000034B1A781F2A84BF01221A7018787047B3
:109D5000FC3C08200023FF21074A82F8083182F8E2
:109D60000931D1540133B3F5847FFAD1002382F84D
:109D70000A3182F80B317047F03B0820074B5879C5
:109D800093F808210730811A93F80A314842484174
:109D900013B1032A88BF1846704700BFF03B082064
:109DA00038B5FFF7EBFFD8B1114B93F80A111A46FB
:109DB00011B193F80B0138BD5879D1789B78441DC7
:109DC0000B4406210344DBB2A1420ADDDB4310440D
:109DD0008179DBB299420CBF0120022082F80B018D
:109DE00038BD555C01312B44DBB289B2ECE700BFD2
:109DF000F03B0820F7B500264FF0D80E34464FF060
:109E0000AA0C284DF7B2B94232D8F6F7C9FE0221A2
:109E10000346254A0846F9F7BFFD0026234FF3B253
:109E20009C4237D80221224A0846F9F7B5FD214B5A
:109E3000224618681B49C36898470023FF22EA544A
:109E40000133FE2BFBD11C4B1C68F6F7A9FE002347
:109E50000246009301212046F7F768FC03B0F0BDED
:109E6000D82A03D1DBB22A55EA540EE02A550DE078
:109E7000FD2CCAD8825D631CC72AF1D1002FF5D012
:109E8000DBB205F804E005F803C01C460134E4B277
:109E90000136B7E70221AB5D3A460846F9F77CFD8B
:109EA0000136BCE7EC3A0820D7380900DF38090052
:109EB00058200900E83A0820EC3B082013B502219D
:109EC000134A0846F9F768FD124A04210220F9F7FF
:109ED00063FD1148114B4E2218604FF4E131436984
:109EE0009847002402234FF448728DE818000C496B
:109EF00023460C48F6F728FD0B4B22460093A02181
:109F000023460A48F7F7ECFB094B186002B010BD76
:109F1000A7380900BE380900D4810720E83A082094
:109F2000CC380900AD9F0800539F0800713209002A
:109F3000EC3B0820212300B58BB08DF8010068466A
:109F40008DF800308DF80210F9F7E8FB0BB05DF8E2
:109F500004FB00210220FFF7EDBF0B2300B58BB0FF
:109F60008DF8010068468DF800308DF80210F9F781
:109F7000D5FB0BB05DF804FB2C2300B58BB08DF83E
:109F8000010068468DF80030F9F7C8FB0BB05DF8AA
:109F900004FB222300B58BB08DF8010068468DF8D4
:109FA0000030F9F7BBFB0BB05DF804FB02212DE993
:109FB000F043BB4A87B00846BA4DF9F7EDFCC8201C
:109FC000F6F7FEFE2E46FFF7C5FEB74C28680A23BB
:109FD00001220DF117018069FCF71BFF002800F03A
:109FE000A4809DF81700C72801D1FFF7B3FE94F8AD
:109FF00008312BB16278CA2A23D00DD8C82A20D0C4
:10A00000E054013384F808312378C72B1EBF0023A6
:10A0100084F80831237020E0F02A01D0FF2AEFD124
:10A020000122032B84F80A2173D1E070A278E17831
:10A03000D243D2B291420CBF0122022284F80B21FA
:10A04000DEE7002294F8091184F80A21002954D18E
:10A05000D828D5D1012384F80931FFF78FFE0028D5
:10A06000B4D0F6F79DFD02210346904A0846F9F761
:10A0700093FC0023DFF8508294F808215F1CDBB2C8
:10A080009A424AD802218A4A0846F9F785FC94F890
:10A090000831012B04D9A3781F2B01D8854A1370EE
:10A0A000FFF76CFE002891D00520F6F789FE94F8A2
:10A0B0000A71002F42D00120FEF712F9F9F752FC85
:10A0C00094F80831A778012B637898BFFF27FF2BFE
:10A0D0002FD1FFF765FE01282BD1FFF73BFE394654
:10A0E0000020FFF727FF0A230093002372481A4637
:10A0F00003210068F7F71AFB68E7AA2804D0D828DC
:10A1000003D084F80921A8E7C720002284F8092198
:10A1100076E7022B7FF674AF88E70221E35C4246C4
:10A120000846F9F739FC3B46A6E70220F6F748FE59
:10A13000B6E7FFF70FFE39460120D2E7FFF730FE02
:10A14000D6F800800128D8F8109040F0BF80FFF7C3
:10A15000F7FD0146FFF7F4FDC043C0B2FF23C7225D
:10A160000190009140465549C847F6F719FD014650
:10A17000FFF7E6FD8046FFF7E3FDC043C0B2039062
:10A18000FF23C7208DE809000B460221CDF8088087
:10A190004B4A0846F9F700FCE378FF2B0ED0C32B9F
:10A1A00055D018D8B72B46D00BD8912B39D0B62B19
:10A1B0003DD0902B17D1A079FFF732FDFFF7CAFDF4
:10A1C00004E7C02B3BD0C12B3DD0B82B0BD1204690
:10A1D00001F0F2FFF2E7D02B49D018D8C52B3ED0C2
:10A1E00039D3C62B3FD0374A00210220F9F7D4FBE0
:10A1F0000023DFF8D48094F808215F1CDBB29A4278
:10A2000045D82B4A00210220F9F7C6FBD6E7E52BFB
:10A2100035D0E82B37D0D52BE5D1A079FFF7B9FEA3
:10A22000CCE73A463946A079FFF708FDC6E7204655
:10A2300001F094FFC2E7204601F0A4FFBEE72046EC
:10A2400001F0D0FFBAE7204601F0E0FFB6E7204674
:10A2500001F0EEFFB2E7204602F014F8AEE7204628
:10A2600002F018F8AAE7204602F044F8A6E7A3791E
:10A27000E07900EB032080B2FFF748FD9EE720461F
:10A2800002F03AF89AE7204602F068F896E7E35CB5
:10A29000424600210220F9F77FFB3B46ABE700BFB7
:10A2A0006A380900E83A0820F03B08207C380900A9
:10A2B00058200900FC3C0820EC3B082047380900E6
:10A2C0005038090088380900DF380900FFF738FDE9
:10A2D0000146FFF735FDC043C0B2F023C72201900D
:10A2E000009140460C49C847F6F75AFC0146FFF773
:10A2F00027FD8046FFF724FDC043C722F023C0B2EC
:10A300008DE80C0003900B46CDF80880034A3946CF
:10A310000220F9F741FB51E747380900503809009E
:10A3200010B520248AB08DF80430BDF830308DF897
:10A33000020068468DF800408DF801108DF803206A
:10A34000ADF80630F9F7EAF90AB010BD0D4A017808
:10A35000136871B9022B01D8032111601268003310
:10A3600018BF0123003218BF0122934208D001F028
:10A37000A9BA0129EED00729F0D10BB1591EECE79B
:10A38000704700BF103D082001780D4A0F2913685F
:10A390000ED1022B01D8032111601268003318BFBF
:10A3A0000123003218BF0122934207D001F08ABA7C
:10A3B0000729F2D1002BF0D0591EEDE7704700BFFE
:10A3C000183D0820F0B585B006460F46FFF7ABFCF8
:10A3D000044601F0D1FED0B90E4B1B78ABB10E4B49
:10A3E00053F82450FEF70AFF0C4B012253F8243097
:10A3F00001460293002303958DE80C0030460723A5
:10A400003A4601F023FD05B0F0BD054BE8E700201A
:10A41000F9E700BF153D0820B83A09009444090047
:10A420006C3A09007FB50D460446FFF77CFC0646F2
:10A43000FEF7E4FE084B03220393084B014653F852
:10A4400026302046029300238DE80C000F232A4675
:10A4500001F0FCFC04B070BD1C3A0900843909000D
:10A46000F0B585B00E460546FFF75DFC0746FFF7E1
:10A470005AFC0D4B1B68ABB10C4B53F82040FEF758
:10A48000BDFE0B4B012253F82730014602930023F7
:10A4900003948DE80C0028460423324601F0D6FCD4
:10A4A00005B0F0BD034BE8E7183D08208C450900D6
:10A4B000D83C0900BC3D0900F0B585B00E46054604
:10A4C000FFF731FC0746FFF72EFC0D4B1B68ABB1C5
:10A4D0000C4B53F82040FEF791FE0B4B012253F832
:10A4E000273001460293002303948DE80C00284690
:10A4F0000323324601F0AAFC05B0F0BD034BE8E7A8
:10A50000103D08208C45090038390900BC3D090080
:10A510007FB50D460446FFF706FC0646FEF76EFEC5
:10A52000084B01460393084B2A4653F82630204631
:10A530000293002301930123009301F087FC04B0F0
:10A5400070BD00BF181C0900FC4309007FB50D4613
:10A550000446FFF7E8FB0646FEF750FE084B0322D1
:10A560000393084B014653F82630204602930023FC
:10A570008DE80C0080232A4601F068FC04B070BD11
:10A580001C3A0900E04409007FB50D460446FFF778
:10A59000CAFB0646FEF732FE084B03220393084B24
:10A5A000014653F826302046029300238DE80C0024
:10A5B00010232A4601F04AFC04B070BD1C3A090081
:10A5C000848207207FB50D460446FFF7ACFB0646A4
:10A5D000FEF714FE084B03220393084B014653F881
:10A5E00026302046029300238DE80C0002232A46E1
:10A5F00001F02CFC04B070BD1C3A0900EC3E0900CF
:10A60000F0B587B00D460446FFF78DFB0D4B0746AE
:10A610001E78FEF7F3FD3B230593002304930A4BBA
:10A6200001461B782A460393084B00960293084B79
:10A63000204653F827300193062301F019FD07B097
:10A64000F0BD00BF1D3D08201F3D08201C3A090039
:10A65000243D0900F0B587B00D460446FFF763FBC3
:10A660000D4B07461E78FEF7C9FD172305930023FF
:10A6700004930A4B01461B782A460393084B009625
:10A680000293084B204653F827300193052301F02D
:10A69000EFFC07B0F0BD00BF1D3D08201E3D0820A7
:10A6A0001C3A0900403C0900F0B587B00D4604464D
:10A6B000FFF739FB0D4B07461E78FEF79FFD0C2375
:10A6C0000593002304930A4B01461B782A46039303
:10A6D000084B00960293084B204653F8273001930D
:10A6E000032301F0C5FC07B0F0BD00BF1D3D0820ED
:10A6F000D18207201C3A0900703D09002DE9F04184
:10A7000086B00E460546FFF70EFB0F4B80461F78BE
:10A710000E4B1C78FEF772FD802305930A230493E9
:10A720000B4B303402930B4BE4B253F82830014604
:10A7300001930394009702233246284601F098FCC7
:10A7400006B0BDE8F08100BF1D3D0820D282072081
:10A750001C3A0900404509002DE9FF4106460F4615
:10A76000FFF7E1FA0E4B80461D78FFF7DCFAADB13A
:10A770000C4B53F82040FEF741FD0B4B014653F8BC
:10A780002830039501930023029400933A46012355
:10A79000304601F0B6FB04B0BDE8F081034BE8E7BA
:10A7A0001D3D0820A03E090048440900083E09005C
:10A7B00073B50446FFF7B7FA0646FEF729FD084BC6
:10A7C0000546186801F04CF8064B024653F826304F
:10A7D0002946009320460F2301F0F6FA02B070BD1F
:10A7E000043D08208439090073B50446FFF79BFA3D
:10A7F0000646FEF70DFD084B0546186801F030F8D7
:10A80000064B024653F82630294600932046022381
:10A8100001F0DAFA02B070BD083D0820EC3E0900F4
:10A8200073B50446FFF77FFA0646FEF7F1FC084BC6
:10A830000546186801F014F8064B024653F8263016
:10A84000294600932046002301F0BEFA02B070BDF5
:10A85000003D082084820720F0B585B00E460546ED
:10A86000FFF761FA0746FFF75EFA04460220FEF79B
:10A870009FFA01280CBF0B4B0B4B53F82440FEF7FB
:10A88000BDFC0A4B012253F82730014602930023F6
:10A8900003948DE80C0028460223324601F0D6FAD4
:10A8A00005B0F0BD543E0900203A09008C3C090077
:10A8B00003780A2B0ED1C288074B1A800279074B06
:10A8C0001A70C278064B1A708278064B1A7042785A
:10A8D000054B1A70704700BFD2820720D182072033
:10A8E000D08207201E3D08201F3D08207FB502F0C2
:10A8F00051F80B2809D903238DF80030F9F774FEBD
:10A900008DF80800684602F08BF807B05DF804FB8C
:10A91000014B1878704700BF1D3D0820014B18708F
:10A92000704700BF1D3D082008B5044B052118687D
:10A9300000F048FF0122024B1A7008BD083D0820B4
:10A94000163D082008B5044B0421186800F03AFFB2
:10A950000122024B1A7008BD083D08201C3D08204A
:10A9600082071FD16422B0FBF2F302FB13039BB2F8
:10A97000D3B94FF4C872B0FBF2F302FB130080B2FC
:10A98000B0FA80F040090B2912D8012303FA01F133
:10A9900011F4256F0AD14B070AD5002814BF1D20DA
:10A9A0001C2070470020EEE70120ECE71E207047D6
:10A9B0001F20704710B51446FFF7D2FF24B1A04204
:10A9C00028BF2046C0B210BD012010BD2DE9F041C6
:10A9D00086B00D460446FFF7A6F9124B07461E78CF
:10A9E000114B1A78114B1978114B1888FFF7E2FFB9
:10A9F0008046FEF703FC1F230593002304930D4BB1
:10AA0000014602930C4BCDF80C8053F8273000968A
:10AA100001932A460423204601F02AFB06B0BDE834
:10AA2000F08100BF1D3D0820D0820720D182072081
:10AA3000D28207201C3A0900D03909002DE9F043E1
:10AA4000037887B02A2B054640F092804378022B8A
:10AA500040F08E8000F080FE0F287ED1EC78AD783B
:10AA6000F6F79EF8444B02950093444A034601943E
:10AA700001210020F8F790FF414B424E1B78424DD8
:10AA80009A1EDFF82C81DFF82C91404F042A5ED803
:10AA9000DFE802F003323E4C550004F5FA64234629
:10AAA0003B4A01210020F8F777FF34803B78394A90
:10AAB000049399F800300121039398F800300020A6
:10AAC00002932B780193338800932B4BF8F764FFA4
:10AAD0003C78297899F8003098F800203088009464
:10AAE00001F06AFC2C4B186800F0D4FE0F2007B070
:10AAF000BDE8F04300F000BE2346284A01210020B3
:10AB0000F8F74AFF0CB12C70D0E701232B70CDE78A
:10AB10002346234A01210020F8F73EFF22462978E8
:10AB20003088FFF747FF88F80000BFE723461D4A3B
:10AB300001210020F8F730FF89F80040B6E72346EE
:10AB4000194A01210020F8F727FF3C70AEE7174AA9
:10AB500001210020F8F720FFA8E71038C0B26F28C5
:10AB600006D8A978E87807B0BDE8F04300F01ABD30
:10AB700007B0BDE8F08300BF153909007F3B09002D
:10AB8000173D0820D2820720D18207201F3D0820D0
:10AB90008E3B0900FB3B0900043D08209F3B090058
:10ABA000B03B0900C33B0900D33B0900E63B090069
:10ABB000D08207201E3D0820194B2DE9F341187063
:10ABC00058B3184D2888A0F5FA63362B25D8DFF83E
:10ABD0006C8098F800104B1E0B2B1ED8124F3C783F
:10ABE000DCB12246FFF7E6FE844216D80F4C2378EC
:10ABF000172B12D80E4E33783B2B0ED80D4B0E4A26
:10AC000001210020F8F7C8FE20782C883A7898F8BF
:10AC1000003031780094FFF783FB02B0BDE8F0818B
:10AC20001D3D0820D2820720D08207201E3D08202B
:10AC30001F3D0820E43809002C450900D182072077
:10AC40002DE9FF41037804462A2B03D1477827B129
:10AC5000012F11D004B0BDE8F0818478002CF9D127
:10AC600000F08AFD204600F047FD554B186804B0FF
:10AC7000BDE8F04100F00EBE00F06EFD0F2800F2BE
:10AC8000958000F069FD02288046A5787FD0E6789F
:10AC900024790AD30F282CD0019400962B46494AD8
:10ACA00039460020F8F778FED4E715B90EB9012C23
:10ACB0000BD00F2C13D8012C07D9022CCAD1424B30
:10ACC000186800F0E7FD204604E03D4B186800F0EE
:10ACD000E1FD002004B0BDE8F04100F00DBD21060B
:10ACE000B8D422463146284604B0BDE8F04100F011
:10ACF000C5BBF5F755FF354B039400930296034609
:10AD00000195334A39460020F8F746FE0F2DA1D1B0
:10AD1000012C17D12F4E304A337821460020F8F706
:10AD20003BFE307880F00100FFF746FF33782B4A76
:10AD300021460020F8F730FE294B186800F0AAFDE4
:10AD40002846C7E7072C16D10121264A0020F8F72C
:10AD500023FE254B197881F00101197049B10021BA
:10AD60000846FFF7FAF81E4B186800F093FD0F2015
:10AD7000B0E70120F5E71D4D2B78A3423FF46AAF01
:10AD80001B4A01210020F8F707FE2C7062E7022D14
:10AD900006D124790F2C01D1114B91E70A4BCCE756
:10ADA000094B186800F076FD404693E702063FF530
:10ADB00051AF227913063FF54DAFE178A07893E7C4
:10ADC000003D0820613B0900083D0820FE380900CD
:10ADD000043B09001D3D08201C3B09008E1E090094
:10ADE000043D08203C3B0900153D0820173D082084
:10ADF0004C3B090010B50446144A002100F0F4FC55
:10AE00002046134A012100F0EFFC2046114A02219E
:10AE100000F0EAFC2046104A032100F0E5FC204641
:10AE20000E4A042100F0E0FC20460D4A052100F006
:10AE3000DBFC20460B4A062100F0D6FC2046BDE88C
:10AE40001040094A072100F0CFBC00BFB1A708009D
:10AE500059A70800FDA60800A9A60800CDA908006A
:10AE600055A6080001A60800C5A3080010B50446B1
:10AE70001B4A002100F0B8FC1A4A0121204600F0CC
:10AE8000B3FC194A0221204600F0AEFC174A032108
:10AE9000204600F0A9FC164A0421204600F0A4FC3C
:10AEA000144A0521204600F09FFC134B1B7823B168
:10AEB000124B0521186800F085FC114B1B7823B15B
:10AEC0000E4B0421186800F07DFC0E4B1B7833B14B
:10AED000BDE81040094B0321186800F073BC10BD99
:10AEE000E9A7080011A5080059A80800B9A408009E
:10AEF00061A4080025A40800163D0820083D08208C
:10AF00001C3D0820143D082010B504460E4A0021BF
:10AF100000F06AFC0D4A0121204600F065FC0C4A55
:10AF20000221204600F060FC0A4A0321204600F07E
:10AF30005BFC094B1B7833B1BDE81040074B032184
:10AF4000186800F03FBC10BD21A80800C5A5080086
:10AF500089A508004DA50800203D0820003D0820D7
:10AF600010B522492A20F8F7BDFB214C21492A209F
:10AF7000F8F7B8FB20490A20F8F7B4FB2146002077
:10AF8000F8F7B0FB21460120F8F7ACFB21461B4C3B
:10AF90000720F8F7A7FB21460F20F8F7A3FB21466F
:10AFA0000720F8F79FFB16490720F8F79BFB00F0F6
:10AFB000F5FB144B1860FFF7A7FF00F0EFFB124BF7
:10AFC0001860FFF753FF00F0E9FB104B1860FFF724
:10AFD00011FF00F0E3FB0E4B186000F0F7FA00F0F1
:10AFE000DBFBBDE8104000F079BC00BF41AC0800BD
:10AFF0004DA308003DAA0800B1A8080089A30800D5
:10B00000EDA80800003D0820083D0820043D082068
:10B010000C3D08207FB50D460446FEF784FE06462B
:10B02000FEF7ECF8084B03220393084B014653F854
:10B0300026302046029300238DE80C000A232A467E
:10B0400000F004FF04B070BD184909001C49090054
:10B05000F0B585B00E460546FEF765FE0746FEF7DD
:10B0600062FE04460020FDF7A3FE012801D003285C
:10B0700015D10C4B53F82440FEF7C0F80A4B0322BD
:10B0800053F8273001460293002303948DE80C0007
:10B0900028460923324600F0D9FE05B0F0BD034B27
:10B0A000E8E700BF4C4B0900284F0900904E09000B
:10B0B000F0B585B00E460546FEF735FE0746FEF7AD
:10B0C00032FE04460020FDF773FE0138012894BFCC
:10B0D0000B4B0C4B53F82440FEF790F80A4B03221D
:10B0E00053F8273001460293002303948DE80C00A7
:10B0F00028460823324600F0A9FE05B0F0BD00BF87
:10B1000038580900D04909006C460900F0B585B0EF
:10B110000E460546FEF707FE0746FEF704FE044608
:10B1200001F038FC0B2833D8DFE800F0061C1E20A5
:10B1300022242E3026282A2C164B53F82440FEF7C2
:10B140005DF8154B032253F8273001460293002384
:10B1500003948DE80C0028460623324600F076FE64
:10B1600005B0F0BD0D4BE8E70D4BE6E70D4BE4E70E
:10B170000D4BE2E70D4BE0E70D4BDEE70D4BDCE757
:10B180000D4BDAE70D4BD8E70D4BD6E70D4BD4E767
:10B190000D4CD4E7F84D0900004B09003448090074
:10B1A000684909009C4709002046090050470900EA
:10B1B000604D0900E8470900D0580900CC48090053
:10B1C000845809008048090018490900F0B585B085
:10B1D0000E460546FEF7A7FD0746FEF7A4FD04460A
:10B1E0000520FDF7E5FDB0B1012816D10F4B53F84E
:10B1F0002440FEF703F80E4B014653F82730039422
:10B20000029300230193032332460093284600F063
:10B210001DFE05B0F0BD074BE9E7064B00210520F8
:10B2200053F82440FDF7CAFDE3E700BF04470900D7
:10B23000444E0900E44B09002DE9FF4106460F4644
:10B24000FEF771FD134B80461C781CB100210320D2
:10B25000FDF7B4FDFEF767FD05460320FDF7A8FDE9
:10B2600001280CBF0C4B0D4B53F82550FDF7C6FFC2
:10B270000B4B014653F828300395029303230194A6
:10B2800000933A460123304600F0E0FD04B0BDE8EB
:10B29000F08100BF2B3D0820684A0900B44A09002C
:10B2A0001C4A09002DE9F04385B089468046FEF727
:10B2B0003AFD06460820FDF77BFD114B53F826703A
:10B2C000104B1D78BDB9012817D104460E4B53F819
:10B2D0002670FDF793FF0D4B014653F8263003947B
:10B2E00001930297009507234A46404600F009FE65
:10B2F00005B0BDE8F0830024EBE72C46E9E700BF8A
:10B300007C4C09002C3D0820144D0900AC4D09006F
:10B310002DE9F04186B00F460646FEF704FD0546CE
:10B320000720FDF745FD80460520FDF741FD044659
:10B33000FDF764FF3C230593002314F1FF3418BF8D
:10B3400001240493094B014653F82530CDF80C80B5
:10B350000293074B009453F825303A460193304648
:10B36000052300F085FE06B0BDE8F081DC4E090043
:10B37000304C09002DE9F04186B00F460646FEF735
:10B38000D2FC05460620FDF713FD80460520FDF79B
:10B390000FFD0446FDF732FF3C230593002314F113
:10B3A000FF3418BF01240493094B014653F825309C
:10B3B000CDF80C800293074B009453F825303A46A1
:10B3C00001933046042300F053FE06B0BDE8F0813F
:10B3D000DC4E0900C84C0900F0B587B00E460546A2
:10B3E000FEF7A1FC04460420FDF7E2FC0746FDF74A
:10B3F00005FF1E2305930023094A049352F82420D5
:10B4000000930292074A014652F8242003970192C2
:10B4100002233246284600F02BFE07B0F0BD00BFE5
:10B42000984B0900B846090073B50446FEF77BFC4B
:10B430000646FDF7EDFE084B0546186800F010FAC9
:10B44000064B024653F82630294600932046102327
:10B4500000F0BAFC02B070BD243D082084820720B1
:10B4600008B5044B0721186800F0ACF90122024B23
:10B470001A7008BD243D08202C3D08207FB548B92E
:10B48000414B186800F006FA102000F035F907B0BB
:10B490005DF804FB1028FAD1531E092B70D8DFE8A1
:10B4A00003F0056F116F6F1B2B3446640320FDF70B
:10B4B0007FFC411CC9B2022908BF00210320FDF70F
:10B4C0007DFCDDE70520FDF773FC411CC9B20229B4
:10B4D00008BF00210520F2E701F05CFA0130C0B29C
:10B4E0000C2828BF002003238DF8080068468DF83B
:10B4F000003001F095FAC3E70820FDF759FC10F180
:10B50000FF3118BF01210820D9E70020FDF750FCCA
:10B510000138032803D8DFE800F008221B261B4B64
:10B520001B4A01210020F8F737FA032111E000201F
:10B53000FDF73EFC0138032813D801A353F820F08F
:10B5400067B5080051B508005FB508002BB50800C5
:10B5500001210020FDF732FC01F070FB90E704218F
:10B56000F7E70C4BDCE70221F3E70B4B0B4A012119
:10B570000020F8F711FAFDF737FCFDF783F87FE7B5
:10B58000074B1A707CE700BF243D0820D84509000E
:10B59000B4490900EF45090008460900D91B090014
:10B5A000293D0820084B01461B78042B06D0052BAB
:10B5B00006D0022B06D10420FDF700BC0620FBE7D5
:10B5C0000720F9E7704700BF293D082010B5394C26
:10B5D000394A0021206000F007F9384A012120682B
:10B5E00000F002F9364A0221206800F0FDF8354AE1
:10B5F0000321206800F0F8F8334A0421206800F0A5
:10B60000F3F8324A0521206800F0EEF8304A0621AE
:10B61000206800F0E9F82F4A0721206800F0E4F8DC
:10B620002D4A0821206800F0DFF82C4A0921206803
:10B6300000F0DAF82A4A0A21206800F0D5F8294BF0
:10B640001B781BB10721206800F0BCF8264B1B7843
:10B650001BB10121206800F0B5F8244B1B785BB1C9
:10B660000321206800F0AEF80421206800F0AAF859
:10B670000521206800F0A6F81D4B1B783BB1012185
:10B68000206800F09FF80221206800F09BF8194B19
:10B690001B786BB12068062100F094F8206808211F
:10B6A00000F090F820680921BDE8104000F08AB849
:10B6B00010BD00BF243D082029B4080039B208009D
:10B6C000D9B30800CDB1080075B3080011B3080064
:10B6D0000DB10800A5B20800B1B0080051B00800D3
:10B6E00015B008002C3D08202B3D08202D3D0820DA
:10B6F0002A3D0820283D082010B40B4A0B49B2F916
:10B700000030CC1814F8014C844200D123B9092B25
:10B71000C85403DC0133138010BC70470021044A75
:10B72000084610BCF8F738B92E3D0820D48207200F
:10B730001C590900FF21064BB3F90020002AC4BFA1
:10B7400002F1FF321A80B3F90030024AD154704737
:10B750002E3D0820D4820720054BB3F90020002A93
:10B76000C3BF044B9B1813F8010CFF20704700BFA8
:10B770002E3D0820D48207200023FF21044A99543B
:10B7800001330A2BFBD10022024B1A80704700BF05
:10B79000D48207202E3D0820FFF7EEBF08B58C208D
:10B7A00002F07CF900220260426008BD08B100236B
:10B7B0008360704728B1012303FA01F103680B434A
:10B7C0000360704730B1012303FA01F1036823EAF3
:10B7D00001030360704728B1012303FA01F14368B4
:10B7E0000B4343607047000038B50C4690B12029E8
:10B7F00006D9BDE838400021074A0846F8F7CCB81A
:10B8000000EB8103DA60FFF7E6FF2146BDE8384030
:10B81000FFF7D0BF38BD00BF4159090037B5044616
:10B8200001258368012100930C4A03460020F8F7A4
:10B83000B3F86168A36805FA03F211EA020005D0C3
:10B84000206810401CBF04EB8302D068013310B1A4
:10B85000A36003B030BD1F2BEDD9F9E7565909009D
:10B860000122F0B500231646456800F1100106FAE2
:10B8700002F4254206D007683C4203D00C680CB1A4
:10B880000133DBB20132202A01F10401EFD1184665
:10B89000F0BD0000094B13B51860FEF7B7F8084B70
:10B8A0001C68F5F77DF9052302460093012100236A
:10B8B0002046F5F73BFF02B010BD00BF343D082025
:10B8C000383D082008B5FEF7A1F8034B1868BDE81D
:10B8D0000840FFF7DFBF00BF303D082007B5074B2A
:10B8E0004FF4FA710093002305481A46F5F7F8FE65
:10B8F000044B186003B05DF804FB00BF29B90800D1
:10B9000067590900383D0820292300B58BB0019004
:10B9100068468DF80030F7F701FF6846F7F7FEFE3E
:10B920000BB05DF804FB000010B5054C206830B189
:10B93000FFF7EAFF2268034B1A600023236010BD63
:10B94000343D0820303D082003781A2B02BF42689E
:10B95000014B1A60704700BF403D08200378072B59
:10B9600004D1034A13780BB1013B1370704700BF39
:10B97000DE82072038B503780546102B1AD183786C
:10B98000012B11D10C4A13700C4C6978227891422A
:10B9900007D00B4A01210020F7F7FEFF0948FEF708
:10B9A000E3F86B78237005E0002BEDD1024B1B7898
:10B9B000002BE9D038BD00BF3C3D0820DF820720C6
:10B9C0006E59090049BB080038B503780546162BA7
:10B9D0000ED1084C41782278914207D0064A0121C5
:10B9E0000020F7F7D9FF0548FEF7BEF86B78237003
:10B9F00038BD00BFE2820720AC59090049BB0800EE
:10BA000038B503780546152B0ED1084C41782278BD
:10BA1000914207D0064A01210020F7F7BDFF0548F3
:10BA2000FEF7A2F86B78237038BD00BFE1820720D3
:10BA30009959090049BB080038B503780546122B0F
:10BA400014D10B4C41782278914207D0094A012148
:10BA50000020F7F7A1FF0848FEF786F86B782370FF
:10BA6000FCF71CFE10B10A22044B1A7038BD00BF4F
:10BA7000E08207208459090049BB0800DE820720C4
:10BA800010B52C4B1C78002C4CD00023FF2480F8E0
:10BA9000093100F20712431E03F8014F9A42FBD10D
:10BAA000C7220270C82200234270102280F80A3197
:10BAB00080F80B310371204BC270204A1B7812783A
:10BAC000002B817014BF002361231AB343F00203DB
:10BAD0001B4A12780AB943F008038371194B1531D8
:10BAE0001B68C9B2C3F307220372002343722023E9
:10BAF00083720523C271437100F10B02831D9A42C8
:10BB00000BD1C943C1720C2180F80811FEF772F9FC
:10BB1000012010BD43F00603DAE713F8014B21447E
:10BB2000C9B2ECE7F7F71EFF0120FCF7D9FB20466E
:10BB300010BD00BFDE820720E0820720E2820720DE
:10BB4000DF820720403D0820FFF79ABF08B50D4966
:10BB50001220F7F7C7FD0C491020F7F7C3FD0B497A
:10BB60001620F7F7BFFD0A491520F7F7BBFD094975
:10BB70001A20F7F7B7FDBDE8084007490720F7F797
:10BB8000B1BD00BF39BA080075B90800C9B90800CD
:10BB900001BA080049B908005DB90800002310B5D2
:10BBA000FF2480F80931421E00F2071302F8014F0A
:10BBB0009342FBD1C7230370C82343701823C3707B
:10BBC0000323002243710B4B80F80A211B7880F875
:10BBD0000B21C3710B441D33817002718271DB43F1
:10BBE00002220A210272437280F80811FEF702F95C
:10BBF000012010BD443D082038B50023FF2480F803
:10BC0000093100F20715431E03F8014F9D42FBD195
:10BC1000C7250570C825457019250023C5700E2558
:10BC200080F80A3180F80B31817003714571157805
:10BC3000273185715578C9B2C57195780572D57867
:10BC40008372457255790373C572127A8374427395
:10BC5000C3748473C47304744474831D00F11402A8
:10BC6000934208D1C9430175152180F80811FEF7E8
:10BC7000C1F8012038BD13F8014B2144C9B2EFE7E8
:10BC800038B50023FF2580F8093100F20714431E60
:10BC900003F8015F9C42FBD1C7240470C824002331
:10BCA00044701A248170C470037180F80A3180F8DE
:10BCB0000B315378223183719378C9B2C371D37831
:10BCC000037213794372537983729379C372D37970
:10BCD0000373137A00F10E02437308234371831D2B
:10BCE000934208D1C94381730F2180F80811FEF7F0
:10BCF00081F8012038BD13F8014B2144C9B2EFE7A8
:10BD000070B5417990F808418D1DA54217D183780F
:10BD1000C2780B4413440279053113440622DBB286
:10BD2000914206DADB430134435580F80841012093
:10BD300070BD865C01323344DBB292B2F0E7002082
:10BD400070BD0023FF2180F8083180F8093100F22E
:10BD50000712431E03F8011F9342FBD1002380F812
:10BD60000A3180F80B31704730B51446A31ADBB2A4
:10BD7000994200D830BD90F8083114F8015BC554E1
:10BD8000013380F80831F1E710B590F80A31044624
:10BD900090F808110BB1032903D8637907338B425C
:10BDA00004D12046FEF726F8012010BD0021054AE7
:10BDB0000846F7F7F1FD204694F80811FEF71AF847
:10BDC000002010BDAA3509002DE9F041069E044669
:10BDD00090460D461F46FFF7B4FFC723C82290F8D0
:10BDE00008012354431CDBB2E254831C3022DBB233
:10BDF000E5540025C31CDBB2E254411D031DDBB238
:10BE0000C9B204F80380C21D6554811DC9B2D2B203
:10BE1000083004F80180A75484F80801304602F085
:10BE20008FFA3246C1B22046FFF79EFF94F80831E0
:10BE30002046E5545A1C053B84F808216371FFF73E
:10BE40005FFF2046BDE8F041FFF79EBF2DE9F84FA8
:10BE50000C9F04468B46154699460D9E9DF828A0DA
:10BE60009DF82C80FFF76DFFC723CA2290F80801C8
:10BE70002354431CDBB2E2543022831CDBB204F8AF
:10BE800003B0C31CDBB2E254031DDBB2E554002552
:10BE9000431D821DDBB2D2B2E55404F802A000F1CA
:10BEA0000803C21DDBB2D2B2093004F8029004F8D4
:10BEB000038084F80801384602F042FA3A46C1B2DB
:10BEC0002046FFF751FF94F808313046E55401331E
:10BED00084F8083102F034FA3246C1B22046FFF746
:10BEE00043FF94F808312046E5545A1C053B84F87A
:10BEF00008216371FFF704FF2046BDE8F84FFFF704
:10BF000043BF2DE9F84FDDF82C8004468B461546DB
:10BF10009A460C9F9DF828909DF83460FFF711FF1A
:10BF2000C723CA2290F808012354431CDBB2E25411
:10BF30003022831CDBB204F803B0C31CDBB2E25432
:10BF4000031DDBB2E5540025431DDBB2E554042399
:10BF5000821DD2B2A354C21D00F10803DBB2D2B2DB
:10BF6000093004F802A004F8039084F80801404660
:10BF700002F0E6F94246C1B22046FFF7F5FE94F81A
:10BF800008313846E554013384F8083102F0D8F915
:10BF90003A46C1B22046FFF7E7FE94F80831204642
:10BFA0005A1CD2B2E554A5549A1CD2B2A654DA1C3B
:10BFB000033B84F808216371FFF7A2FE2046BDE829
:10BFC000F84FFFF7E1BE2DE9F047099F04468A4686
:10BFD000154699469DF820809DF82860FFF7B1FE30
:10BFE000C723CA2290F808012354431CDBB2E25451
:10BFF0003022831CDBB204F803A0C31CDBB2E25482
:10C00000031DDBB2E5540025431DDBB2E5540523D7
:10C01000821DD2B2A354C21D00F10803DBB2D2B21A
:10C02000093004F8029004F8038084F808013846C7
:10C0300002F086F93A46C1B22046FFF795FE94F821
:10C04000083120465A1CD2B2E554A5549A1CD2B2EB
:10C05000A554DA1CD2B2A6541A1D023B84F808215A
:10C060006371FFF74DFE2046BDE8F047FFF78CBE39
:10C070002DE9F74F0D9F04460D460E9E0192009349
:10C080009DF830B09DF83C809DF840A09DF844900C
:10C09000FFF757FE90F80811C7204FF0CA0E605402
:10C0A000481CC0B204F800E0881CC0B225543025FA
:10C0B000C81CC0B22554019A0025081DC0B22254E4
:10C0C00006204A1DD2B2A5548A1DD2B2A054009BAC
:10C0D000CA1DD2B2A35401F10803DBB2093104F83E
:10C0E00003B0384684F8081102F02AF93A46C1B282
:10C0F0002046FFF739FE94F808313046E554013305
:10C1000084F8083102F01CF93246C1B22046FFF72C
:10C110002BFE94F8083120465A1C991CD2B2C9B2A1
:10C12000E554A55404F801A0D91CC9B26554191DE1
:10C13000C9B204F80190591DC9B26554991DC9B21C
:10C14000073304F8018084F808316271FFF7D8FDE5
:10C15000204603B0BDE8F04FFFF716BE37B5847A2E
:10C16000857904F5FA64437A027AC1790094284605
:10C17000FEF7D6F803B030BD014B1878704700BF0A
:10C18000453D082010B5837904466BB90121074B62
:10C19000074A19700220074BF7F7FEFB217AE07976
:10C1A000BDE81040FDF7D9BE10BD00BF453D0820D9
:10C1B000D3590900C059090010B504468379074ACC
:10C1C00001210020F7F7E8FBA379BDE810401A2B06
:10C1D00096BF034A0120D05CFDF7CEBE065A090087
:10C1E000EB59090030B5457B85B0C479437A027AB2
:10C1F00081790395057B0295C57A0195807A009037
:10C200002046FDF7C9FC05B030BD000010B504465E
:10C21000064A01210020F7F7BFFBA379022B04D1C6
:10C22000E079BDE81040FDF7EEBC10BD195A0900D9
:10C23000232300B58BB08DF80030837907308DF85B
:10C240000130002310F8012B0DEB03011D2B8A7028
:10C2500011D100210A4A0846F7F79EFB2E238DF8DC
:10C260001F308DF81E308DF81D306846F7F756FAEE
:10C270000BB05DF804FB0133002AE3D1F5E700BF02
:10C280001F5A09008379027AC17903F00F00FDF784
:10C29000A5BC0000242300B58BB08DF80030837955
:10C2A00008308DF8013010F8013C8DF80230002381
:10C2B00010F8012B0DEB03011D2BCA7014D10021C6
:10C2C0000B4A0846F7F768FB00238DF820302E2331
:10C2D0008DF81F308DF81E308DF81D306846F7F749
:10C2E0001DFA0BB05DF804FB0133002AE0D1F5E73D
:10C2F0001F5A09007047000070B5154A0446012115
:10C300000020F7F749FB0023124E94F808215D1C2A
:10C31000DBB29A4214D8104A01210020F7F73CFB07
:10C32000A37933B9E37923B9237A012B01D8FFF735
:10C3300001FA227AE179A079BDE87040FDF79CBC52
:10C34000E35C324601210020F7F726FB2B46DCE7B1
:10C350003F5A0900DF3809005820090070B5104A1B
:10C36000044601210020F7F717FB00230D4E94F837
:10C3700008215D1CDBB29A420AD801210A4A00203A
:10C38000F7F70AFBE179A079BDE87040FDF792BCB0
:10C39000E35C324601210020F7F7FEFA2B46E6E780
:10C3A0003F5A0900DF38090058200900014B186086
:10C3B000704700BF483D082030B4074C9DF8085036
:10C3C00024681CB10295A44630BC60472146204633
:10C3D00030BC024AF7F7E0BA483D08204A5A090043
:10C3E00000230246FF2180F84630831C42F8403F7C
:10C3F00003F8011B9342FBD19F220023027002220B
:10C4000080F84930427080F8473080F84C3080F82E
:10C41000483080F84A3080F84B3080F8441080F87B
:10C4200045307047F8B500230B4C0C4E0C4F22786A
:10C430005D1CDBB29A4206D80A4A0121BDE8F840E9
:10C440000020F7F7A9BAF35C3A4601210020F7F77C
:10C45000A3FA2B46EBE700BFD43E08200C3E082091
:10C46000773209005820090008B5F4F769F900236C
:10C47000054A1370054A13700122054B1A70BDE876
:10C480000840F4F76DB900BFB83D0820603D0820B2
:10C49000E382072010B5104C2378022B10D80F4AE6
:10C4A00001210020F7F778FA23780D480133237033
:10C4B0000023BDE810401A4619460068F5F772BC23
:10C4C000084A01210020F7F767FAFFF7ABFFBDE844
:10C4D0001040FFF7C9BF00BFB83D08207D320900FA
:10C4E0004C3D0820873209000023F7B51A46224C3C
:10C4F00022492078DDB285423AD39F230B70022374
:10C500002270002003224B701D4B93F844501F6C87
:10C510008D70C6B2BB5D01309F2B12BF13468B548A
:10C52000531CBA5D08BFDBB2C6B2CA54B54203F1B0
:10C530000102D2B2EDD29F2088540322DD1C0233C7
:10C54000DBB2CA540F4BEDB21E68F4F729FB00238F
:10C550000246009301213046F5F7E8F82A460A4BD7
:10C56000064918682570C36803B0BDE8F040184755
:10C57000CA540133BEE700BFD43E08200C3E082059
:10C58000BC3D08205C3D0820543D082030B50D4BD3
:10C5900093F844001A6C93F845100244517000213E
:10C5A00093F844204C1CC9B28A4202F1010202D223
:10C5B00083F8442030BD186C415C855C694081542F
:10C5C0002146EDE7BC3D0820094A92F84430A3F12A
:10C5D0003D01C9B2C1290AD90133116CDBB282F81D
:10C5E0004430C85492F84530013382F845307047E2
:10C5F000BC3D082010B50446C0B2FFF7E5FFC4F308
:10C600000720FFF7E1FFC4F30740FFF7DDFF200E2F
:10C61000BDE81040FFF7D8BF036C587800F022BA8D
:10C62000036C5878003018BF012000F015BA0000E4
:10C630002DE9F043B94E8BB030684E2243694FF478
:10C64000E1319847B64CB74F00213868F5F7DAFD6D
:10C65000024600284CD0FFF747FF30680A2301222A
:10C660000DF10F018069FAF7D4FB002800F0788102
:10C6700094F846209DF80F30002A00F08E800022AA
:10C68000022B84F846206AD12046FFF7A9FE012339
:10C6900084F8493094F84830002BDED094F84730C5
:10C6A000002B00F0A2800A23009300239E481A4624
:10C6B00003210068F5F73AF894F84B30002B00F0AE
:10C6C00091809A4D2B78032B00F28580984A0121A6
:10C6D0000020F7F761F9002338681A461946F5F784
:10C6E00061FB2B7801332B702046FFF779FEB4E70E
:10C6F000904D2B78002BB0D08F4B04A91868F5F71C
:10C70000D9FC0028A9D08D48FFF76AFE9DF81000DB
:10C71000FFF75AFF9DF81030042B19D009D8DBB170
:10C72000032B19D0FFF732FFFFF7DEFE00232B703B
:10C7300093E7172B0CD0182B0ED0052BF2D19DF8B8
:10C740001800FFF741FF9DF81900FFF73DFFE9E7EB
:10C750000598FFF74FFFF2E79DF81800F5E7032B68
:10C7600007D194F84930002B94D0012384F8483045
:10C7700090E7062B05D1012384F84A3084F847302E
:10C7800088E7152B03D1012384F84B30F6E79F2B64
:10C7900009D02046FFF724FE7CE79F2B03D101231D
:10C7A00084F8463076E794F84420A2F13E01C9B2FD
:10C7B000C0297FF66FAF94F8491029B194F845105D
:10C7C00011B984F8453065E7216C0132D2B284F8A2
:10C7D00044208B545EE75A4A01210020F7F7DCF829
:10C7E000FFF720FEFFF740FE7EE7206C94F845E05F
:10C7F0000346724694F8445000F141081FFA85FC44
:10C80000191A89B2614505D813F8011B984582EAC7
:10C810000102F5D1AE4575D1002A73D1494A04AB66
:10C8200010685168082203C3306804A9C368984798
:10C8300094F8483043B1226C1378042B2CD027D8BD
:10C84000012B43D0032B4ED03F4A01210020F7F7A4
:10C85000A3F894F8455094F84830FF2D08BF002500
:10C8600000933A4A2B4601210020F7F795F84FF044
:10C870000008DFF8E89003355FFA88F3AB4208F16F
:10C88000010838DD324A01210020F7F785F82BE74F
:10C89000162B2CD0172BD7D10023D2F80150DFF85C
:10C8A000BC9094F8442003F10108DBB29A4211D8FD
:10C8B000274A01210020F7F76FF8002D3FF414AF4D
:10C8C000236CDA1D99795879A8470DE72046FFF7C0
:10C8D000A3FE09E7226C0121D35C00204A46F7F74A
:10C8E0005BF84346DDE752781A4B1A70FCE62046A7
:10C8F000FFF796FEF8E6E35C4A4601210020F7F7D1
:10C900004BF8B9E7144A04AB10685168082203C316
:10C91000306804A9C3689847E6E600BF543D082084
:10C92000643D08204C3D08205C3D0820603D082007
:10C930001F320900E3820720B43D0820BC3D0820D7
:10C9400026320900795A090055320900453209009A
:10C9500058200900593D0820705A09007732090013
:10C96000094B1D786A1C1A70002D7FF46CAEF4F729
:10C9700073FB63283FF667AE044B054A0121284646
:10C98000F7F70AF85FE600BF583D0820825A090011
:10C99000F71E0900014B1878704700BF593D082069
:10C9A00073B5154E34782CBB0125144A144B154928
:10C9B0001A60154823464FF4C87201940095F3F7A6
:10C9C000C3FF224618212820F5F7C6F90F4B22464F
:10C9D00018600F4BA02100930E482346F4F780FE09
:10C9E0000D4B0322186021462846F5F7B5F90B4B8D
:10C9F0003570186002B070BD503D082014820720C9
:10CA0000543D0820925A090031C60800B43D082060
:10CA100095C40800713209005C3D08204C3D082097
:10CA200001460348002302220068F5F7BBB900BFA6
:10CA3000B43D0820054B1B782BB9054B1B7813B967
:10CA4000044B187800B10120FBF770BED53E0820DA
:10CA5000D63E0820D73E0820014B1870FFF7EABFEA
:10CA6000D53E082000F04403442B70B5064619D18A
:10CA70000122634B1A70FFF7DDFF06F07704032CE9
:10CA8000604D1FD12B78042B11D85F4A0121002063
:10CA9000F6F782FF2B7801332B700021012000F084
:10CAA000CFF83EE0002BE8D1554A1370E3E7574A30
:10CAB00001210020F6F770FF0122554B1A70FFF795
:10CAC000B9FFEAE7534B1A7812B100222A701A70A4
:10CAD000297800295FD004295BD808BF03234FF0D1
:10CAE00001014FF0030008BF2B7000F0A9F84A4A7B
:10CAF00001210020F6F750FF2B78013B2B7000221C
:10CB0000434B1A70FFF796FF402C01D0042CC4D180
:10CB10000121084600F094F8404A01210020F6F770
:10CB20003BFF302C3BD101213D4A0020F6F734FF7A
:10CB30000121022000F084F80021072000F080F895
:10CB4000102C3BD10121374A0020F6F725FF0121A7
:10CB5000062000F075F80021042000F071F8012C87
:10CB60003BD12146304A0020F6F716FF214605202A
:10CB700006F0880600F064F8802E30D101212B4A9F
:10CB80000020F6F709FF0121082000F059F80021E4
:10CB900031E00023B2E7032000F052F8AFE70021B4
:10CBA000022000F04DF8202CC6D10121204A00209F
:10CBB000F6F7F2FE0121072000F042F800210620DE
:10CBC00000F03EF8022CC6D101211A4A0020F6F7E7
:10CBD000E3FE0121042000F033F80021C7E7002123
:10CBE000082000F02DF8082ED1D10121124A002092
:10CBF000F6F7D2FE0121BDE87040092000F020B810
:10CC0000D73E0820E58207209C5A0900A35A090054
:10CC1000D63E0820E4820720AC5A0900B35A090026
:10CC2000BA5A0900C85A0900D55A0900DB5A090046
:10CC3000C05A0900CE5A0900E45A090070477047EB
:10CC400008B5034609282FD8DFE800F0050B0F13BD
:10CC5000171A1E2124284FF400222D4B11B31A63FA
:10CC600008BD2C4B4FF08072F8E7294B4FF480221F
:10CC7000F4E7274B4FF48072F0E7254B8022EDE775
:10CC8000234B4FF40052E9E7224B4022E6E7214BC9
:10CC90001022E3E71E4B4FF48062DFE71C4B4FF49A
:10CCA0000062DBE75A6308BD1B4A01210020F6F74A
:10CCB00073FE4022174B5A6310225A634FF400024E
:10CCC0005A634FF480025A634FF080725A634FF4F4
:10CCD0000022C3F834228022C3F834224FF40052D9
:10CCE000C3F834224FF48022C3F834224FF4807208
:10CCF000C3F834224FF48062C3F834224FF08062CC
:10CD0000C3F834224FF40062C3F8342208BD00BFD8
:10CD100000100E40000E0E40EF5A0900F0B5114D04
:10CD20008DB001AC06460F460FCD0FC40FCD0FC41A
:10CD300095E80700002384E8070001AA52F82300C1
:10CD4000B7FBF0F0B0FBF6F0B0F5807F06D9013309
:10CD50000B2BF3D14FF6FF700DB0F0BD40EA03206E
:10CD6000FAE700BF045B090070B50C6806460D4683
:10CD700044B120468968FFF7D1FF4FF6FF73984210
:10CD800004460CD0686840B1A968FFF7C7FF4FF6AA
:10CD9000FF73984205D044EA0044346000242046E2
:10CDA00070BD0446FBE74A6830B58C8A02F00F027A
:10CDB00022430C898D7D22438C7A0B6842EA4422FF
:10CDC000CC7D42EA054242EA44420C7E42EA844279
:10CDD00000EB4314C4F80022CA68C4F804220A69AC
:10CDE000C4F80C221DB1D1F81A20C4F81822CA7F49
:10CDF00002FA03F48A7F9A4042EA0442826491F87C
:10CE0000212002FA03F491F820209A4042EA0442D9
:10CE10004264012291F822409A4024B3046A1443E8
:10CE2000046291F82440012C846E0CBF1443944397
:10CE3000846691F825401204012C846E0CBF2243B5
:10CE400024EA0202032B82664FF0FF0491F82320AC
:10CE50000DD8DB00C16E9C4021EA04049A402243B5
:10CE6000C266002030BD046A24EA0204D8E7043B0D
:10CE7000DB00016F9C4021EA040402FA03F3234320
:10CE80000367EEE7CB6893429FBF0B680A6100EB34
:10CE90004310C0F8102294BF00204FF6FF70704777
:10CEA0000B69934221BF0B68CA6000EB4310C0F8C6
:10CEB00008222CBF00204FF6FF707047012303FAB1
:10CEC00001F141607047012303FA01F1816070476D
:10CED000C06970470123103203FA02F203FA01F12C
:10CEE0000A43026170470123103203FA02F203FA87
:10CEF00001F10A434261704781F0004102E000BF46
:10CF000083F0004330B54FEA41044FEA430594EA09
:10CF1000050F08BF90EA020F1FBF54EA000C55EA44
:10CF2000020C7FEA645C7FEA655C00F0E2804FEA15
:10CF30005454D4EB5555B8BF6D420CDD2C4480EAF7
:10CF4000020281EA030382EA000083EA010180EA27
:10CF5000020281EA0303362D88BF30BD11F0004F75
:10CF60004FEA01314FF4801C4CEA113102D04042AB
:10CF700061EB410113F0004F4FEA03334CEA1333E6
:10CF800002D0524263EB430394EA050F00F0A780FE
:10CF9000A4F10104D5F1200E0DDB02FA0EFC22FAF9
:10CFA00005F2801841F1000103FA0EF2801843FAED
:10CFB00005F359410EE0A5F120050EF1200E012ADE
:10CFC00003FA0EFC28BF4CF0020C43FA05F3C0181C
:10CFD00051EBE37101F0004507D54FF0000EDCF195
:10CFE000000C7EEB00006EEB0101B1F5801F1BD33E
:10CFF000B1F5001F0CD349085FEA30004FEA3C0C42
:10D0000004F101044FEA445212F5800F80F09A8037
:10D01000BCF1004F08BF5FEA500C50F1000041EB3B
:10D02000045141EA050130BD5FEA4C0C404141EB3F
:10D03000010111F4801FA4F10104E9D191F0000F66
:10D0400004BF01460020B1FA81F308BF2033A3F1E9
:10D050000B03B3F120020CDA0C3208DD02F1140CE0
:10D06000C2F10C0201FA0CF021FA02F10CE002F11B
:10D070001402D8BFC2F1200C01FA02F120FA0CFC14
:10D08000DCBF41EA0C019040E41AA2BF01EB04515D
:10D09000294330BD6FEA04041F3C1CDA0C340EDC5B
:10D0A00004F11404C4F1200220FA04F001FA02F39E
:10D0B00040EA030021FA04F345EA030130BDC4F15C
:10D0C0000C04C4F1200220FA02F001FA04F340EA51
:10D0D0000300294630BD21FA04F0294630BD94F002
:10D0E000000F83F4801306BF81F480110134013DE9
:10D0F0004EE77FEA645C18BF7FEA655C29D094EA5A
:10D10000050F08BF90EA020F05D054EA000C04BFD7
:10D110001946104630BD91EA030F1EBF00210020C2
:10D1200030BD5FEA545C05D14000494128BF41F061
:10D13000004130BD14F580043CBF01F5801130BDC5
:10D1400001F0004545F0FE4141F470014FF0000050
:10D1500030BD7FEA645C1ABF194610467FEA655C01
:10D160001CBF0B46024650EA013406BF52EA0335A3
:10D1700091EA030F41F4002130BD00BF90F0000F91
:10D1800004BF0021704730B54FF4806404F13204CD
:10D190004FF000054FF0000150E700BF90F0000F86
:10D1A00004BF0021704730B54FF4806404F13204AD
:10D1B00010F0004548BF40424FF000013EE700BF7D
:10D1C00042004FEAE2014FEA31014FEA02701FBF0D
:10D1D00012F07F4393F07F4F81F06051704792F0DF
:10D1E000000F14BF93F07F4F704730B54FF4607459
:10D1F00001F0004521F0004120E700BF50EA0102A4
:10D2000008BF704730B54FF000050AE050EA010250
:10D2100008BF704730B511F0004502D5404261EBC0
:10D2200041014FF4806404F132045FEA915C3FF401
:10D23000DCAE4FF003025FEADC0C18BF03325FEA9A
:10D24000DC0C18BF033202EBDC02C2F1200300FA4F
:10D2500003FC20FA02F001FA03FE40EA0E0021FA74
:10D2600002F11444C1E600BF70B54FF0FF0C4CF45E
:10D27000E06C1CEA11541DBF1CEA135594EA0C0F14
:10D2800095EA0C0F00F0DEF82C4481EA030621EA4F
:10D290004C5123EA4C5350EA013518BF52EA03358A
:10D2A00041F4801143F4801338D0A0FB02CE4FF03C
:10D2B0000005E1FB02E506F00042E0FB03E54FF06C
:10D2C0000006E1FB03569CF0000F18BF4EF0010E64
:10D2D000A4F1FF04B6F5007F64F5407404D25FEA60
:10D2E0004E0E6D4146EB060642EAC62141EA555113
:10D2F0004FEAC52040EA5E504FEACE2EB4F1FD0C55
:10D3000088BFBCF5E06F1ED8BEF1004F08BF5FEAD2
:10D31000500E50F1000041EB045170BD06F0004684
:10D3200046EA010140EA020081EA0301B4EB5C0431
:10D33000C2BFD4EB0C0541EA045170BD41F4801129
:10D340004FF0000E013C00F3AB8014F1360FDEBF4E
:10D35000002001F0004170BDC4F10004203C35DA2A
:10D360000C341BDC04F11404C4F1200500FA05F3AD
:10D3700020FA04F001FA05F240EA020001F000424E
:10D3800021F0004110EBD37021FA04F642EB0601C4
:10D390005EEA430E08BF20EAD37070BDC4F10C04EE
:10D3A000C4F1200500FA04F320FA05F001FA04F2B2
:10D3B00040EA020001F0004110EBD37041F100019E
:10D3C0005EEA430E08BF20EAD37070BDC4F12005A9
:10D3D00000FA05F24EEA020E20FA04F301FA05F211
:10D3E00043EA020321FA04F001F0004121FA04F2B9
:10D3F00020EA020000EBD3705EEA430E08BF20EA89
:10D40000D37070BD94F0000F0FD101F000464000C2
:10D4100041EB010111F4801F08BF013CF7D041EA44
:10D42000060195F0000F18BF704703F00046520048
:10D4300043EB030313F4801F08BF013DF7D043EA19
:10D440000603704794EA0C0F0CEA135518BF95EACF
:10D450000C0F0CD050EA410618BF52EA4306D1D156
:10D4600081EA030101F000414FF0000070BD50EA75
:10D47000410606BF1046194652EA430619D094EAFF
:10D480000C0F02D150EA013613D195EA0C0F05D1E9
:10D4900052EA03361CBF104619460AD181EA03013D
:10D4A00001F0004141F0FE4141F470014FF00000F5
:10D4B00070BD41F0FE4141F4780170BD70B54FF090
:10D4C000FF0C4CF4E06C1CEA11541DBF1CEA135510
:10D4D00094EA0C0F95EA0C0F00F0A7F8A4EB0504F2
:10D4E00081EA030E52EA03354FEA013100F08880E9
:10D4F0004FEA03334FF0805545EA131343EA1263B2
:10D500004FEA022245EA111545EA10654FEA002666
:10D510000EF000419D4208BF964244F1FD0404F51F
:10D52000407402D25B084FEA3202B61A65EB03057B
:10D530005B084FEA32024FF480104FF4002CB6EB38
:10D54000020E75EB030E22BFB61A754640EA0C00B8
:10D550005B084FEA3202B6EB020E75EB030E22BFF8
:10D56000B61A754640EA5C005B084FEA3202B6EB39
:10D57000020E75EB030E22BFB61A754640EA9C00F8
:10D580005B084FEA3202B6EB020E75EB030E22BFC8
:10D59000B61A754640EADC0055EA060E18D04FEA86
:10D5A000051545EA16754FEA06164FEAC30343EA26
:10D5B00052734FEAC2025FEA1C1CC0D111F4801FF3
:10D5C0000BD141EA00014FF000004FF0004CB6E7EC
:10D5D00011F4801F04BF01430020B4F1FD0C88BF8B
:10D5E000BCF5E06F3FF6AFAEB5EB030C04BFB6EB96
:10D5F000020C5FEA500C50F1000041EB045170BD89
:10D600000EF0004E4EEA113114EB5C04C2BFD4EBB5
:10D610000C0541EA045170BD41F480114FF0000E39
:10D62000013C90E645EA060E8DE60CEA135594EAB5
:10D630000C0F08BF95EA0C0F3FF43BAF94EA0C0FB8
:10D640000AD150EA01347FF434AF95EA0C0F7FF42D
:10D6500025AF104619462CE795EA0C0F06D152EA81
:10D6600003353FF4FDAE1046194622E750EA410665
:10D6700018BF52EA43067FF4C5AE50EA41047FF476
:10D680000DAF52EA43057FF4EBAE12E74A0011D228
:10D6900012F5001211D20DD56FF47873B3EB62520C
:10D6A0000ED44FEAC12343F0004343EA505323FA18
:10D6B00002F070474FF00000704750EA013002D18D
:10D6C0004FF0FF3070474FF00000704753B94AB930
:10D6D000002908BF00281CBF4FF0FF314FF0FF307A
:10D6E00000F07AB9ADF1080C6DE904CE00F006F84F
:10D6F000DDF804E0DDE9022304B070472DE9F047CE
:10D700008C460E460446089D002B50D18A4217468F
:10D710006CD9B2FA82FEBEF1000F0BD0CEF1200C14
:10D7200001FA0EF620FA0CFC02FA0EF74CEA060C8F
:10D7300000FA0EF43A0CBCFBF2F9BBB202FB19CCB6
:10D7400009FB03FA4FEA144848EA0C46B2450AD9E5
:10D75000F61909F1FF3180F02581B24540F22281AE
:10D76000A9F102093E44A6EB0A06B6FBF2F002FB61
:10D77000106600FB03F3A4B244EA0644A34209D9AD
:10D78000E41900F1FF3280F00B81A34240F20881DE
:10D7900002383C440021E41A40EA0940002D62D0DE
:10D7A000002324FA0EF42C606B60BDE8F0878B42F6
:10D7B00007D9002D55D0002185E841000846BDE875
:10D7C000F087B3FA83F1002940F08F80B34202D38F
:10D7D000824200F2FC80841A66EB03060120B44604
:10D7E000002D40D085E81010BDE8F08712B9012760
:10D7F000B7FBF2F7B7FA87FEBEF1000F35D1012172
:10D80000F61B4FEA174C1FFA87F8B6FBFCF20CFB2D
:10D81000126608FB02F0230C43EA0646B04207D921
:10D82000F61902F1FF3302D2B04200F2D2801A465A
:10D83000361AB6FBFCF00CFB106608FB00F8A3B22E
:10D8400043EA0644A04507D9E41900F1FF3302D2A8
:10D85000A04500F2B9801846A4EB080440EA024053
:10D860009CE729462846BDE8F08707FA0EF7CEF177
:10D87000200326FA03F24FEA174CB2FBFCF11FFA21
:10D8800087F80CFB112206FA0EF620FA03F301FBCF
:10D8900008F933431E0C46EA0246B14500FA0EF47D
:10D8A00009D9F61901F1FF3280F08C80B14540F2C0
:10D8B000898002393E44A6EB0906B6FBFCF00CFB5E
:10D8C000106200FB08F99EB246EA0246B14507D94C
:10D8D000F61900F1FF3371D2B1456FD902383E44D9
:10D8E000A6EB090640EA01418FE7C1F1200722FAC1
:10D8F00007F88B4048EA030326FA07F44FEA134E71
:10D90000B4FBFEF91FFA83FC0EFB19448E4020FA8B
:10D9100007F809FB0CFA48EA06084FEA184646EAF7
:10D920000444A24502FA01F200FA01F608D9E4180B
:10D9300009F1FF3044D2A24542D9A9F102091C44A1
:10D94000A4EB0A04B4FBFEF00EFB104400FB0CFC3D
:10D950001FFA88F848EA0444A44507D9E41800F1FE
:10D96000FF3E29D2A44527D902381C4440EA094089
:10D97000A0FB0289A4EB0C0CCC45C246CE4615D3C5
:10D9800012D055B1B6EB0A036CEB0E0606FA07F798
:10D99000CB401F43CE402F606E600021BDE8F08772
:10D9A0001046F7E68946DEE64645EAD2B8EB020ABB
:10D9B00069EB030E0138E4E77046D7E718468FE7B6
:10D9C0008146BDE7114676E702383C4444E7084605
:10D9D00006E7023A3E442BE7704700BF024B0A4677
:10D9E0000146186800F002B8E882072010B502FB73
:10D9F00001F100F05BF80446D8B150F8042C22F095
:10DA00000302043A242A18D8132A14D900231B2A03
:10DA10000360436016D9242A8360C36011BF00F1FC
:10DA200010020361436100F1180200231360536088
:10DA30009360204610BD0246F7E7002100F04EFB40
:10DA4000204610BD00F10802EFE700BF70B50F4E91
:10DA50000F4D761BB61018BF002405D0013455F8C1
:10DA6000043B9847A642F9D10A4E0B4D08F0A4F9A1
:10DA7000761BB61018BF002406D0013455F8043BBD
:10DA80009847A642F9D170BD70BD00BFC45D0900C2
:10DA9000C45D0900CC5D0900C45D0900024B01466C
:10DAA000186800F003B800BFE88207202DE9F04FA6
:10DAB00001F10B06162E83B0054640F29E8036F02B
:10DAC000070600F1BD80B14200F2BA8000F054FBBD
:10DAD000B6F5FC7FC0F08582730A00F0B880042B95
:10DAE00000F26C81B30903F1390003F1380EC10073
:10DAF000B84F39444C680839A14206D10CE0002ADD
:10DB000080F2AB80E468A14206D0636823F003038F
:10DB10009A1B0F2AF3DD70463C69DFF8CCE27445AE
:10DB200000F09E81636823F003039A1B0F2A00F321
:10DB30008381002AC7F814E0C7F810E080F29180D2
:10DB4000B3F5007F80F054810122DB0879684FEA49
:10DB5000A30C134457F8338002FA0CF207EBC30C02
:10DB60000A43ACF10801E160C4F808807A6047F824
:10DB70003340C8F80C40012483109C4094427DD867
:10DB8000144206D120F003006400144200F10400A6
:10DB9000FAD007EBC009CC468046DCF80C309C4537
:10DBA00007D15FE1002A80F26D81DB689C4500F0BF
:10DBB0005981596821F003018A1B0F2AF2DDDC68C4
:10DBC000D3F808C046F0010828461E4442F001057B
:10DBD000C3F80480CCF80C40C4F808C07E613E61F4
:10DBE000C6F80CE0C6F808E075605A50009300F0E3
:10DBF000C9FA009B03F108041EE0102920D800F0A8
:10DC0000BBFA102618230220724F3B445C68A3F134
:10DC10000802944200F02F816368E16823F0030357
:10DC200023445A68A66842F00102F16028468E60DB
:10DC30005A6000F0A7FA0834204603B0BDE8F08F20
:10DC400000240C2320462B6003B0BDE8F08F402059
:10DC50004FF400714FF03F0E4AE723445A68E168E1
:10DC6000E0E723445A68284642F001025A6008342B
:10DC700000F088FA204603B0BDE8F08FBC68636806
:10DC800023F00308B04504D3A8EB06030F2B00F3E1
:10DC90008580DFF85891504BD9F800201B6801327D
:10DCA000334404EB080A00F0548103F580530F332A
:10DCB00023F47F6B2BF00F0B5946284600F068FACF
:10DCC000411C024600F0FB80824500F2F680434B87
:10DCD00019685944196000F04C81D9F800000130EE
:10DCE0001BBFA2EB0A0A5144C9F80020196012F0C8
:10DCF000070100F01481C1F10800C1F58051024410
:10DD0000083102EB0B09C9F30B09A1EB09094946DC
:10DD100028460193009200F03BFA431C9DE80C005A
:10DD200000F04281801A484440F001001968BC426A
:10DD30004944BA601960506017D0B8F10F0F40F233
:10DD4000FA804FF0050C6268A8F10C0020F0070083
:10DD500002F0010204EB000E02430F286260CEF8CD
:10DD600004C0CEF808C000F216811D4BBC681A68CA
:10DD7000914288BF19601B4B1A689142626888BF44
:10DD8000196022F003029642A2EB060301D80F2B82
:10DD900004DC284600F0F6F900244DE746F00102C5
:10DDA00043F00103264462602846BE600834736075
:10DDB00000F0E8F9204603B0BDE8F08F142B70D9CD
:10DDC000542B00F2A280330B03F16F0003F16E0EAF
:10DDD000C1008DE618870720083F0820D83E08209C
:10DDE000003F0820043F082020870720208B0720C1
:10DDF0005A0A042A5BD9142A00F2AE8002F15C01AF
:10DE0000C9005B3207EB010C7958ACF1080C8C456A
:10DE100000F088804A6822F00302934273D2896836
:10DE20008C45F7D1DCF80C307A68E360C4F808C0A0
:10DE30009C60CCF80C409EE646F0010C42F00101DB
:10DE40002644C4F804C028467E613E61C6F80CE052
:10DE5000C6F808E07160E25000F094F90834EBE68F
:10DE60007A6888E608F1010818F0030F0CF1080C35
:10DE70007FF493AE2DE0DC68A34208BF02303FF48C
:10DE80004BAEC9E61C4619444A68DB6854F8086F73
:10DE900042F001024A602846F3609E6000F072F989
:10DEA000CAE603F15C0003F15B0EC10020E69A09AB
:10DEB00002F13901C9003832A4E7BC4254D0BC6831
:10DEC000626822F003025EE759F80839994540F08C
:10DED000868010F0030F00F1FF30F5D17B6823EA54
:10DEE00004037B6064009C423FF6C8AE002C3FF404
:10DEF000C5AE1C4240467FF44CAE64001C4200F1AB
:10DF00000400FAD045E68C468CE7B3F5AA7F15D815
:10DF1000F30B03F1780003F1770EC100E8E54FF44D
:10DF20008051EEE601217B68921001FA02F21A4359
:10DF30007A60634679E7012353602AE740F254523E
:10DF4000934222D8B30C03F17D0003F17C0EC10093
:10DF5000CEE503F1100BAFE6542A29D81A0B02F1D3
:10DF60006F01C9006E324DE7204B196859441960A2
:10DF7000B3E6CAF30B0000287FF4AFAE08EB0B0347
:10DF8000BA6843F001035360EFE67F204FF47E71DF
:10DF90004FF07E0EACE504F108012846009302F034
:10DFA000D3FD009B1968E0E601204FF00009BDE6B3
:10DFB000B2F5AA7F05D8DA0B02F17801C9007732F1
:10DFC00020E740F254518A4205D89A0C02F17D01B3
:10DFD000C9007C3216E74FF47E717E2212E77B681F
:10DFE00080E7F00806F108030EE600BFD83E0820DF
:10DFF000844641EA000313F0030349D1403A23D396
:10E000000B6803604B6843608B688360CB68C360B8
:10E010000B6903614B6943618B698361CB69C361A0
:10E020000B6A03624B6A43628B6A8362CB6AC36288
:10E030000B6B03634B6B43638B6B8363CB6BC36370
:10E0400040304031403ADBD230320BD30B680360B2
:10E050004B6843608B688360CB68C36010301031BD
:10E06000103AF3D20C3205D351F8043B40F8043B8C
:10E07000043AF9D2043208D0D2071CBF11F8013B90
:10E0800000F8013B01D30B8803806046704700BF56
:10E09000082A13D38B07B1D010F00303AED0C3F11D
:10E0A0000403D21ADB071CBF11F8013B00F8013B47
:10E0B000A4D331F8023B20F8023B9FE7043AD9D3BE
:10E0C000013A11F8013B00F8013BF9D20B780370DB
:10E0D0004B7843708B7883706046704770B48607C6
:10E0E00046D0541E002A41D0CAB2034602E014F1C1
:10E0F000FF343BD303F8012B9D07F8D1032C2ED915
:10E10000CDB245EA05250F2C45EA054519D9264625
:10E1100003F11002103E0F2E42F8105C42F80C5C26
:10E1200042F8085C42F8045C02F11002F2D8A4F153
:10E13000100222F00F0204F00F041032032C1344DB
:10E140000DD91E462246043A032A46F8045BFAD843
:10E15000221F22F003020432134404F003042CB102
:10E16000C9B21C4403F8011B9C42FBD170BC704730
:10E1700014460346C2E700BF014802F0EBBD00BFF2
:10E180001C3F0820014802F0E7BD00BF1C3F0820EB
:10E1900038B50023064C054608462360F2F7DCF844
:10E1A000431C00D038BD2368002BFBD02B6038BD4A
:10E1B000303F08200EB40146F0B56FF000454FF433
:10E1C00002774FF6FF769CB021AC54F8042B0B4B32
:10E1D00002910691186802A923460194ADF81470C3
:10E1E00004950795ADF8166000F0B4F90022029B83
:10E1F0001A701CB0BDE8F04003B07047E8820720F9
:10E20000F8B507460E4617F8014B02F087FD20448B
:10E21000437816F8015B03F00303012B08BF203499
:10E2200002F07CFD2844437803F00303012B04D063
:10E23000601B01D1002DE6D1F8BD05F12000201AA8
:10E24000E1D0F8BD830710B5044610D10268A2F1F1
:10E25000013323EA020313F0803F08D150F8042F62
:10E26000A2F1013323EA020313F0803FF6D00378D2
:10E270001BB110F8013F002BFBD100F003F8204642
:10E2800010BD00BF80EA0102844612F0030F4FD197
:10E2900011F0030F32D14DF8044D11F0040F51F875
:10E2A000043B0BD0A3F101329A4312F0803F04BF2C
:10E2B0004CF8043B51F8043B16D100BF51F8044B15
:10E2C000A3F101329A4312F0803FA4F101320BD145
:10E2D0004CF8043BA24312F0803F04BF51F8043BCA
:10E2E0004CF8044BEAD023460CF8013B13F0FF0F27
:10E2F0004FEA3323F8D15DF8044B704711F0010F5A
:10E3000006D011F8012B0CF8012B002A08BF70472A
:10E3100011F0020FBFD031F8022B12F0FF0F16BF21
:10E320002CF8022B8CF8002012F47F4FB3D17047E9
:10E3300011F8012B0CF8012B002AF9D1704700BF0E
:10E3400020F0030110F00300C0F1000051F8043B7D
:10E3500000F1040C4FEACC0C6FF000021CBF22FA53
:10E360000CF213434FF0010C4CEA0C2C4CEA0C4C11
:10E37000A3EB0C0222EA030212EACC1204BF51F80A
:10E38000043B0430F4D0C2F1000102EA0102B2FA07
:10E3900082F2C2F11F0200EBD200704740EA010393
:10E3A00013F0030F70B4034624D0A2B10C78013AE5
:10E3B0001C70013101333CB16AB111F8014B013AD3
:10E3C00003F8014B002CF7D12AB100211A4403F8BD
:10E3D000011B9A42FBD170BC70470E4651F8045B9A
:10E3E000A5F1013424EA050414F0803F05D1043A74
:10E3F00043F8045B032AF0D8D7E73146D6E700BFDD
:10E400002DE9F84FDDF828900F46804616461D4648
:10E410008A4600E0A2465446484614F801BB02F082
:10E4200079FC5844427812F00802F3D1BBF12D0F69
:10E430004FD0BBF12B0F04BF94F800B00AF10204D7
:10E440001DB1102D56D0AC4604E0BBF1300F60D0AA
:10E450000A25AC46002A0CBF6FF000494FF0004976
:10E460000021B9FBFCFE08460CFB1E9A05E029D0F2
:10E4700001210CFB003014F801BBABF13003092B78
:10E4800005D9ABF14103192B0BD8ABF137039D42F2
:10E490000FDDB1F1FF3FEED08645E8D24FF0FF31FE
:10E4A000E9E7ABF16103192B03D8ABF157039D42A8
:10E4B000EFDC4B1C13D002B1404246B1C1B937600A
:10E4C000BDE8F88F9A45D3DA4FF0FF31D3E7BDE8C6
:10E4D000F88F94F800B001220AF10204B0E7222379
:10E4E000C8F80030EEB1671E48463760BDE8F88FC7
:10E4F0008146F8E7BBF1300FA5D1237803F0DF03A5
:10E50000582BA0D14FF0100C94F801B0654602349E
:10E51000A0E7237803F0DF03582BF3D00825AC469F
:10E5200098E74846BDE8F88F084B70B51D68084E5F
:10E530006C6B82B0002C08BF3446134600940A4628
:10E5400001462846FFF75CFF02B070BDE882072055
:10E550002C8B07202DE9F04FC3B00C460B9192464F
:10E560000F930C9002F0E8FB036818461A93FFF72C
:10E57000E7FEA3891990190603D52369002B01F042
:10E58000358000230DF1C809C846159313931493E1
:10E5900018931B9309931693179327932693CDF8FB
:10E5A00094909AF800305446EBB1252B02D11AE032
:10E5B000252B03D014F8013F002BF9D1A4EB0A0559
:10E5C0008DB1269B279A01332A44072BC8F800A057
:10E5D000C8F804502792269300F38A8008F10808AF
:10E5E000099B2B4409932378002B00F0898000239A
:10E5F0004FF0FF301A468DF8773019460D939B4641
:10E60000637804F1010A0A900AF1010AA3F12000DB
:10E61000582800F2B783DFE810F04C03B503B503C8
:10E620005403B503B503B503B503B503B5035900EA
:10E630005903B50366001402B5032F02A503A50311
:10E64000A503A503A503A503A503A503A503B5037A
:10E65000B503B503B503B503B503B503B503B503FA
:10E66000B5038B02D302B503D302B503B503B503DB
:10E67000B5031B03B503B5032003B503B503B50309
:10E68000B503B5033402B503B5034B02B503B503B7
:10E69000B503B503B503B503B503B503B503B503BA
:10E6A00076029E03D302D302D30263039E03B50313
:10E6B000B5036803B5037503DD018C035E03B50381
:10E6C000F201B5038700B503B50332030F9C23683D
:10E6D00018460D932346002803F104030F9304DA30
:10E6E0000D9B5B420D934BF0040B9AF800308BE7C7
:10E6F00025AA0B990C9803F0A3F840B9C8466FE718
:10E70000279B23B10C9825AA0B9903F099F80B9B32
:10E710009B8913F0400F099B18BF4FF0FF330993FB
:10E72000099843B0BDE8F08F1BF0200F119340F023
:10E73000AF810F9A1BF0100F134640F09A851BF023
:10E74000400F00F0968500250123148804320F92B3
:10E75000002217468DF877200A994A1C00F0108293
:10E760002BF08002079254EA050240F00F82002944
:10E7700040F03184002B40F039851BF001030E93EB
:10E7800000F06286302342AE06F8413D0A9B0E9AA5
:10E790009342B8BF134608930023129317B1089B06
:10E7A00001330893079B13F00203109302D0089BD8
:10E7B00002330893079B13F0840540F010830D9BF0
:10E7C000089AA3EB020BBBF1000F40F30883BBF1E7
:10E7D000100F40F3B287279C43462146A8461027D6
:10E7E000269A0C9C0B9D06E0ABF1100BBBF1100FB1
:10E7F00003F1080318DD0132AB481031072A2791D5
:10E80000269283E88100EFDD25AA2946204603F001
:10E8100017F800287FF47BAFABF1100BBBF1100FA2
:10E820004B462799269AE6DC45460C469846013227
:10E830009D4B5C44072A2794269288E8080800F339
:10E84000C3829DF8777008F1080887B10121269BE3
:10E850000C440B440DF17702072B27942693C8F83C
:10E860000410C8F8002000F3CD8308F10808109BBD
:10E870007BB10221269B0C4401331EAA072B27944F
:10E880002693C8F80410C8F8002000F3118408F19A
:10E890000808802D00F004830A9B0E9A9F1A002F0F
:10E8A00037DD102F40F37986804D42462146B04631
:10E8B0004FF0100B2E46269B0C9C0B9D04E0103F46
:10E8C000102F02F1080215DD01331031072B2791BB
:10E8D000269382E84008F2DD25AA2946204602F068
:10E8E000AFFF00287FF413AF103F102F4A4627993F
:10E8F000269BE9DC35460C464646904601333C44AF
:10E90000072B2794269388E8A00000F3708308F172
:10E910000808079BDF0500F16482269B0E990133EE
:10E920000C44072B2794C8F80060C8F804102693FD
:10E9300000F3B38308F10808079B5B073BD50D9BE9
:10E94000089A9D1A002D36DD102D40F321871026E0
:10E95000269B0C9FDDF82CB004E0103D102D08F133
:10E96000080816DD0133504A1034072B27942693EC
:10E9700088E84400F1DD25AA5946384602F060FFD8
:10E9800000287FF4C4AE103D102DC846279C269B5E
:10E99000E8DC0133444A2C44072B2794269388E86B
:10E9A000240008DD25AA0B990C9802F049FF0028E5
:10E9B0007FF4ADAE279C099B0D9A08998A42ACBFA3
:10E9C0009B185B180993002C40F0FB820023C8467B
:10E9D0002693E6E511931BF0200340F045811BF0E0
:10E9E000100240F066841BF0400300F062840F992F
:10E9F00013460A4604320C8800250F92A8E600252B
:10EA00000F9A119316688DF87750141D002E00F0A0
:10EA1000CD860A9A531C00F01B862946304602F028
:10EA2000B3F9002800F00D87831B0A950E930F940D
:10EA3000CDF81CB023EAE373089312959DF8777024
:10EA4000ACE69AF800300AF101042A2B00F0C287E4
:10EA5000A3F130000928A24600F2188700231C46C3
:10EA60001AF8013B04EB840400EB4404A3F13000EA
:10EA70000928F5D90A94C9E54BF0800B9AF80030C3
:10EA8000C2E54BF0100B1BF0200F11933FF451AE79
:10EA90000F9C073424F0070303F10802D3E9004573
:10EAA0000F92012354E600BF785B0900885B0900E0
:10EAB0001193002A40F0AD87BE4B1BF0200F189336
:10EAC00040F0E7800F9A1BF0100F134640F0D883F8
:10EAD0001BF0400F00F0D4830025043314880F93FB
:10EAE0001BF0010F00F0E38054EA050300F0DF8023
:10EAF00030239DF844208DF878308DF879204BF044
:10EB0000020B022324E601221193002311460F98E1
:10EB1000089202681F468DF877300A931293031DFE
:10EB2000CDF81CB00E918DF8A0200F9328AE39E6D9
:10EB30001193002A40F084874BF0100B1BF0200F3C
:10EB400040F075840F9A1BF0100F134640F09D8320
:10EB50001BF0400F00F09983B2F900400433E51731
:10EB60000F9322462B46002A73F10003C0F29883CC
:10EB70000A999DF877704A1C4FF001037FF4F0ADBD
:10EB800054EA050200F02982CDF81CB0012B00F0F8
:10EB90000E83022B40F09C824E461898230943EACC
:10EBA0000573290904F00F020D461C46835C06F824
:10EBB000013D54EA0503F1D1A9EB06030E93E5E507
:10EBC0001193002A40F038870F9C1BF0080F04F1C6
:10EBD000070400F0CF8424F0070303F108020F922A
:10EBE0001A685B6815921493149B159D23F00044DA
:10EBF000284621464FF0FF326F4B02F095FF002868
:10EC000040F03484284621464FF0FF326A4B02F030
:10EC10006DFF002840F02A8415A80DC8149902F051
:10EC20005BFF002840F0D4859DF8777003231A46D7
:10EC300008930023614E19460A93614B0E92119A74
:10EC40002BF0800007901291472AD8BF1E46A5E5F9
:10EC50004BF0080B9AF80030D6E44BF0100B1193F0
:10EC60001BF020033FF4BBAE0F9C073424F00703D6
:10EC700003F10802D3E900450F92002368E51193E0
:10EC8000002A40F0C2864F4B1BF0200F18933FF430
:10EC900019AF0F9C1BF0010F04F1070424F00703C8
:10ECA00003F108020F92D3E900457FF41DAF022360
:10ECB0004EE59AF8003000297FF4A6AC012220210D
:10ECC000A2E44BF0010B9AF800309DE49AF8003072
:10ECD00001222B2198E44BF0200B9AF8003093E4AA
:10ECE0004BF0400B9AF800308EE49AF800306C2B11
:10ECF00003BF9AF801304BF0200B0AF1010A4BF0E8
:10ED0000100B81E4002A40F07C861BF0200F40F0BD
:10ED100052841BF0100F40F038841BF0400F00F0BD
:10ED200034840F9A136804320F92BDF824201A809D
:10ED300037E4782330220F988DF879301193031D32
:10ED40000F93204B046818934BF0020B8DF878203A
:10ED500000250223FCE41193002A3FF4EFAE8DF866
:10ED60007710EBE600200446A3F130001AF8013BCF
:10ED700004EB840400EB4404A3F130000928F5D926
:10ED80000D9443E41193002A40F04A86119A002A18
:10ED90003FF4B6AC002301211F4608918DF8A02056
:10EDA000CDF81CB08DF877300A9312930E9128AEEF
:10EDB000F8E400BF445B0900FFFFEF7F385B090008
:10EDC000345B0900585B090025AA0B990C9802F0E6
:10EDD00037FD00287FF49BACC8469DF87770279CD0
:10EDE00033E5119B652B40F39A8015A80DC8149943
:10EDF00002F068FE002800F093810121269BB54AAD
:10EE00000B440C44072B27942693C8F80410C8F829
:10EE1000002000F3C68308F108081F9B139A279C63
:10EE2000934203DB079BDD077FF586AD269B19998F
:10EE300001331A9A0C44072BC8F80020C8F80410B4
:10EE40002794269300F3C48308F10808139B5E1EE1
:10EE5000002E7FF771AD102E40F3758522461027E6
:10EE6000269B9D4DDDF830B00B9C05E008F10808AD
:10EE7000103E102E40F3258201331032072B2792CB
:10EE8000269388E8A000F1DD25AA2146584602F025
:10EE9000D7FC00287FF43BACC846279A269BE7E7BF
:10EEA0000D9B089A9F1A002F7FF7F6AC102F40F3A6
:10EEB000A884894D42462146B0464FF0100B2E469D
:10EEC000269B0C9C0B9D04E0103F102F02F10802C2
:10EED00015DD01331031072B2791269382E8400876
:10EEE000F2DD25AA2946204602F0AAFC00287FF47C
:10EEF0000EAC103F102F4A462799269BE9DC354679
:10EF00000C464646904601333C44072B27942693F3
:10EF100088E8A00000F39E8208F10808BCE4139B77
:10EF2000012B40F34F820123269F1C441F44072FCF
:10EF30002794C8F800602697C8F8043000F35F8271
:10EF400008F10808199A01371A9B1444072F2794CF
:10EF50002697C8F80030C8F8042000F35C8208F156
:10EF6000080815A80DC8149902F0ACFD139B0028E1
:10EF700040F04181013B013701361C44072FC8F89E
:10EF8000006026972794C8F8043000F3668108F1E2
:10EF900008081B9A0137144421AB072F27942697A2
:10EFA000C8F80420C8F800307FF7C4AC25AA0B9934
:10EFB0000C9802F045FC00287FF4A9ABC846279CBA
:10EFC000BAE425AA0B990C9802F03AFC00283FF409
:10EFD000FDACFFF79CBBDDF81CB0012B00F07E817F
:10EFE000022B71D1CDF81CB000240025D4E525AA50
:10EFF0000B990C9802F024FC00287FF488ABC846DB
:10F00000279C86E425AA0B990C9802F019FC00288D
:10F010007FF47DABC846279C29E40120269B2D4A1E
:10F0200003440444072B27942693C8F80400C8F827
:10F03000002040F3D88225AA0B990C9802F000FC1E
:10F0400000287FF464ABC8461F99279C29B9139BFD
:10F050001BB9079BD8077FF56FAC1998269B024612
:10F06000013322441A9C072B2792C8F80040C8F8A5
:10F070000400269300F3318408F108080029C0F247
:10F080000984139901338C18072B27942693C8F809
:10F090000060C8F804107FF74DAC25AA0B990C98B6
:10F0A00002F0CEFB00287FF432AB279CC84643E435
:10F0B00025AA0B990C9802F0C3FB00287FF427AB1C
:10F0C000C846279CFFF7E5BB00240025CDF81CB0FF
:10F0D000494604E0745B0900885B09003146E20898
:10F0E00042EA4572E80804F0070305461446303347
:10F0F00054EA050201F8013C01F1FF36EED1079A0E
:10F10000D2077FF559AD302B3FF456AD302302398D
:10F1100006F8013CA9EB01030E930E46FFF736BB40
:10F120001F9900297FF779AF129B139A9342A8BFCA
:10F130001346002B1F460BDD269B3C440133072B57
:10F14000279488E8C000269300F3FB8208F10808A2
:10F15000129B002FA8BFDB1B002B1F4640F3D7805C
:10F16000102B40F33484BA4D42462146B0464FF04E
:10F17000100B2E46269B0C9C0B9D04E00832103F82
:10F18000102F40F3B58001331031072B27912693C0
:10F1900082E84008F2DD25AA2946204602F050FB0D
:10F1A00000287FF4B4AA4A462799269BE7E7002D5A
:10F1B00008BF0A2CC0F090804E46204629460A22FD
:10F1C0000023FEF783FA303206F8012D2046294647
:10F1D00000230A22FEF77AFA04460D4654EA050394
:10F1E000EBD1A9EB06030E93FFF7D0BA0A9B4E466C
:10F1F0000E93FFF7CBBA5E1E002E7FF7CAAE102E1D
:10F2000040F3E38322464FF0100B914D0C9C04E039
:10F21000103E102E08F1080815DD01371032072FB7
:10F220002792269788E82008F2DD25AA0B99204628
:10F2300002F006FB00287FF46AAA103E102EC84692
:10F24000279A269FE9DC144601373444072F279478
:10F25000269788E860007FF79AAE25AA0B990C984C
:10F2600002F0EEFA00287FF452AA279C269FC84697
:10F270008FE604321C68002501230F92FFF768BA5D
:10F280001C6804330F9300252AE41C680433E51737
:10F2900022460F932B46002A73F10003BFF668AC99
:10F2A0002D27644265EB45058DF877700123FFF744
:10F2B00053BA0F9900250A4604320C680F92FFF7E3
:10F2C00047BA144601333444072B2794269388E821
:10F2D00060007FF72FABE0E6DDF81CB0012342AE03
:10F2E0003034CDF81CB006F8414D0E93FFF74EBAFE
:10F2F00035460C464646904601333C44072B27943E
:10F30000269388E8A00000F3468208F108081F9AB7
:10F31000139B9A4245DB079BD90742D4139B129853
:10F320009A1A1D1A9542A8BF1546002D0EDD269982
:10F33000064401312C440729C8F800602794C8F816
:10F340000450269100F3168208F10808002DB4BF7E
:10F350001646561B002E7FF7EFAA102E40F3F382BD
:10F3600022461027269B3A4DDDF830B00B9C04E076
:10F3700008F10808103E102EA3DD01331032072BD0
:10F380002792269388E8A000F2DD25AA2146584658
:10F3900002F056FA00287FF4BAA9C846279A269B9D
:10F3A000E8E7269B199801331A990444072B279400
:10F3B000C8F80010C8F80400269300F3CF8108F1C4
:10F3C0000808ABE7079BDA073FF5ADAD0123269FA1
:10F3D0001C441F44072F2794C8F800602697C8F8DC
:10F3E00004307FF7D4AD25AA0B990C9802F028FAC7
:10F3F00000287FF48CA9C846279C269FC9E525AA2A
:10F400000B990C9802F01CFA00287FF480A9C846DA
:10F41000279C269F96E525AA0B990C9802F010FAD6
:10F4200000287FF474A9C846279C269F99E50F9C65
:10F43000073424F0070404F10801D4E900230F91F4
:10F4400014461D46FFF78FBB4E46FFF79FB900BF1E
:10F45000885B090025AA0B990C9802F0F1F90028A5
:10F460007FF455A9C846279CFFF716BA159C22467B
:10F470002046149C2346214602F056FB002840F00B
:10F4800073820A9B0133119B23F020030E9300F03B
:10F490009C81472B00F0D6804BF480730793149B1C
:10F4A0001F1E159B0893B7BF3B46002303F100477F
:10F4B0002D231093119B662B00F09081462B00F0BA
:10F4C000A48002200E9B23A9452B0ABF0A9B0A9DFC
:10F4D0005D1C8DE82100049120A81FA93B460390E4
:10F4E000089A02910C9800F0A3FB119B0646672B2B
:10F4F00040F0BA811BF0010F00F023827419169AB4
:10F500000898179B394602F0DDFA002840F0248164
:10F51000239BA34206D230215A1C23921970239BAD
:10F520009C42F9D89B1B13930E9B472B00F0A280A3
:10F53000119B652B40F3A781119B662B1F9B129398
:10F5400000F07181139B129A1946914200F35D817C
:10F550001BF0010F40F0F08122EAE2730893672369
:10F560000E921193109B002B7DD10A939DF877701A
:10F57000FFF714B924F00704236815936368149304
:10F5800004F108030F93FFF72FBB0F9A136804329F
:10F590000F92099A1A60FFF704B8269BAF4DFFF748
:10F5A000ADB925AA0B990C9802F04AF900287FF40E
:10F5B000AEA8C84631E40F9A134604330F93099B53
:10F5C0001168DD171A462B46C1E90023FEF7E9BF93
:10F5D00025AA0B990C9802F033F900287FF497A81C
:10F5E000C846279C32E408F108082FE540210C9812
:10F5F000FEF75CFA0B9A10601061002800F014828C
:10F6000040230B9A5361FEF7BCBF03200A9C23A939
:10F610008DE81100049120A81FA90390089A3B4689
:10F6200002910C9800F004FB25460646119B7419C4
:10F63000462B7FF464AF3378302B00F087811F9D19
:10F640002C445CE70A9B002B08BF01230A9323E7A5
:10F6500030460A95FEF774FE0F940E90CDF81CB05C
:10F660000346FFF7E7B92D2700238DF877700A933B
:10F67000FFF795B81F9B1A461293033304DB0A9BCE
:10F6800019469142BFF65EAF119B023B1193129B4C
:10F690009DF84420013B002B8DF88420B4BF2D221F
:10F6A0002B221F93B8BF129B8DF88520B8BFC3F1E2
:10F6B0000103092B40F31F810DF193000146684CB3
:10F6C00000E0114684FB0352DD17C5EBA20505EBF4
:10F6D0008502A3EB42023032092D01F8012C2B46A2
:10F6E00001F1FF32EDDC30330239DCB2884202F83E
:10F6F000014C40F292810DF18601134601E013F8AE
:10F70000014B834201F8014BF9D101339B1A0DF1F2
:10F710008602134421AA9B1A139A1B93012A1344AD
:10F720000E9340F348810E9B199A13440E9323EADB
:10F73000E37308930023129314E7279C269AFFF79C
:10F7400076B825AA0B990C9802F07AF800287EF476
:10F75000DEAFC846279CFBE42346E3E625AA0B99C7
:10F760000C9802F06DF800287EF4D1AFC8461F9ABD
:10F77000279CD3E525AA0B990C9802F061F8002884
:10F780007EF4C5AF1F9A139BC846279C9A1ADDE5E5
:10F79000269BFFF7FEB825AA0B990C9802F050F8AB
:10F7A00000287EF4B4AFC846279CB0E50A9B3746D4
:10F7B000062B28BF06230A96129608930F94CDF8BD
:10F7C0001CB00E93274EFEF7E9BF06230A9363E6AB
:10F7D0002D231F468DF87730FFF728BA03200A9CA7
:10F7E00023A98DE81100049120A81FA90390089A6D
:10F7F0003B4602910C9800F01BFA25460646041978
:10F8000019E7269B154DFFF77EBB199A139B1344EE
:10F81000129A0E93002A40F3C78023EAE3730893F9
:10F82000672311939EE6002B40F3E1800A9A002A99
:10F8300040F0B0801BF0010F40F0AC8008930E93B5
:10F8400090E60A9B0F9408930E930A90CDF81CB093
:10F8500012909DF87770FEF7A1BF00BF885B09008A
:10F86000676666666C5B0900119B472B7FF446AEAA
:10F870001BF0010F7FF4DAAE239B9B1B13930E9BAF
:10F88000472B3FF4F7AE1F9B129300E700200A902E
:10F89000FEF7BCBE4F42103135DA10246A4DDDF858
:10F8A00030B004E008F10808103F102F2CDD0133C0
:10F8B0001032072B27922693C8F80050C8F804404E
:10F8C000F0DD25AA0B99584601F0BAFF00287EF416
:10F8D0001EAFC846279A269BE6E725AA0B990C98E7
:10F8E00001F0AEFF00287EF412AFC8461F99279A98
:10F8F000269BFFF7C3BB302213448DF887308DF869
:10F90000862022AB06E7504D01333A44072B88E8A6
:10F91000A0002792269308F108087FF7B2AB25AA2A
:10F920000B990C9801F08CFF00287EF4F0AEC846CD
:10F93000279A269BFFF7A5BB129B199A13440E9397
:10F940006BE7239BEEE5269B3F4DBBE4169A089898
:10F95000179B394602F0B6F800287FF470AEC5F167
:10F9600001051F952C44CAE5149B384E002BBEBFE1
:10F970002D231F468DF877304FF003031A46089366
:10F980004FF00003A8BF9DF8777019460A93304BDB
:10F99000FFF754B9129B199A13440A9A1A4422EA9F
:10F9A000E2730E920893DDE5129B0E9AC3F10103F8
:10F9B0001A441346C3E71BF0010312937FF4B3AE5E
:10F9C0000E9B23EAE3730893CCE51F4D3CE4269B92
:10F9D0001D4D91E40F9D9AF801302868A24640EA37
:10F9E000E0700A90284604300F90FEF70DBE0A9B87
:10F9F00013B91BF0010F02D0199B0133CDE701238E
:10FA00001CE78DF87710FFF780B98DF87710FFF7B6
:10FA10003AB98DF87710FFF74FB80DF1860379E604
:10FA20008DF87710FFF7B2B94FF0FF320C2309922F
:10FA30000C9A1360FEF774BE8DF87710FFF7C4B808
:10FA40008DF87710FFF778B8885B0900405B0900F4
:10FA50003C5B090070B5141E9AB005462CDB1A46B3
:10FA60004FF4027300910491ADF80C304FF6FF761D
:10FA70000FD0013C1E9B694602940594ADF80E60C0
:10FA8000FEF768FD421C10DB0022009B1A701AB0C2
:10FA900070BD1E9B694602940594ADF80E60FEF79A
:10FAA00059FD431C04DB1AB070BD8B232B60EBE7C0
:10FAB0008B232B601AB070BD8B234FF0FF302B606F
:10FAC000F1E700BF10B5064C82B0009324681346DE
:10FAD0000A4601462046FFF7BDFF02B010BD00BF39
:10FAE000E8820720024B13B1024800F005B87047C6
:10FAF00000000000750A0900002301461A46184656
:10FB000001F028BF2DE9F04F03690F6983B09F42D0
:10FB100000F38880013F01F1140600F1140A56F841
:10FB200027305AF827200133B2FBF3F8BB000093CB
:10FB300006EB030953440193B8F1000F3BD00023B7
:10FB4000B4461C46D6465CF8042BDEF800501FFA7B
:10FB500082FB08FB0B33120C4FEA134B08FB02BB72
:10FB60009AB2A21AABB21FFA8BF41A44C4EB154432
:10FB700004EB224492B242EA0442E1454EF8042BDF
:10FB80004FEA24444FEA1B43DDD2009B5AF803306E
:10FB90008BB9019C231F9A450CD254F8043C4BB9F5
:10FBA000A4F1080302E01A68043B1AB99A4507F168
:10FBB000FF37F8D30761044601F08EFB00282DDBE8
:10FBC0005546002308F1010856F8041B28688AB23C
:10FBD0009A1A0B0C81B20A44C3EB104303EB224385
:10FBE00092B242EA0342B14545F8042B4FEA23435F
:10FBF000EAD25AF827200AEB87037AB91A1F9245EE
:10FC00000BD253F8042C42B9083B02E01A68043BBB
:10FC10001AB99A4507F1FF37F8D32761404603B078
:10FC2000BDE8F08F002003B0BDE8F08F00000000B9
:10FC30002DE9F04F056C9BB0044692469B46279EEB
:10FC40004DB10123426C29469340AB606A6001F0DC
:10FC50006BF900232364BBF1000F5D4635DB002305
:10FC600033609D4BAB4315D00022002350465946CC
:10FC700001F028FF804600282DD00123269A13602A
:10FC8000289B002B00F0BD809448186001381BB001
:10FC9000BDE8F08F42F20F73269A1360BAF1000F9D
:10FCA0000DD1C5F3130555B9289B8D48002BEED017
:10FCB00000F10803289A13601BB0BDE8F08F289B61
:10FCC0008848002BE3D0C31CF4E701232BF0004548
:10FCD0003360AB46C5E718AA19AB019200935246B0
:10FCE0005B46204601F0A2FB2B0D814671D05046A9
:10FCF000CBF3130242F07F51189FA3F2FF36CDF8E9
:10FD0000508041F440110022774BFDF7F9F86CA3C5
:10FD1000D3E90023FDF7A8FA6BA3D3E90023FDF78D
:10FD2000F1F8CDE902013046FDF738FA68A3D3E9CE
:10FD30000023FDF799FA02460B46DDE90201FDF7C3
:10FD4000E1F8CDE9040101F005FF00220290002353
:10FD5000DDE9040101F0C0FE002840F06D81029D44
:10FD6000162D00F257816149524601EBC5015B46F1
:10FD7000D1E9000101F0CEFE002800F0BE816B1E2B
:10FD8000029300230E93BF1B7B1E089300F14E814C
:10FD900000230A93029B002BC0F23F81089A0D9327
:10FDA00011461944002308910C93249B092B2AD84F
:10FDB000052B40F358860025043B2493249B023BEB
:10FDC000032B00F23F86DFE813F0CE03C302D90312
:10FDD0005B04189F199E3E4406F23243202B40F3E9
:10FDE0008781C3F1400306F212409D402AFA00F0D9
:10FDF0002843FDF7C3F90123013E1493A1F1F871E3
:10FE000081E73B4843E7002120466164259101F0EA
:10FE100065F84FF0FF3307930F930123259A049061
:10FE2000206424920B93199B002BC0F2D380029A7A
:10FE30000E2A00F3CF802D4B03EBC203D3E900233E
:10FE4000CDE90823259B002BC0F2B483DDE90856D9
:10FE500050462A4633465946FDF730FB01F07AFEFC
:10FE60008046FDF79BF92A463346FDF7FDF9024629
:10FE70000B4650465946FDF743F8079E049F08F18C
:10FE80003005012E3D7002460B4607F1010564D096
:10FE90000022184BFDF7E8F90022002306460F4622
:10FEA00001F010FE002840F08280CDF828904FF03D
:10FEB000000ADDE908894FF0000B0B9429E000BF30
:10FEC00061436F63A787D23FB3C8608B288AC63F60
:10FED000FB799F501344D33F0000F07F755B09000E
:10FEE000985B0900A45B09000000F83FE05B090093
:10FEF000745B0900000024400022814BFDF7B4F937
:10FF000052465B4606460F4601F0DCFD002840F0F5
:10FF1000BA8342464B4630463946FDF7CFFA01F0E8
:10FF200019FE0446FDF73AF942464B46FDF79CF9A7
:10FF300002460B4630463946FCF7E2FF04F1300634
:10FF400005F8016B049E079FAE1BBE4202460B469E
:10FF5000D2D1A046DDF828900B9C10461946FCF73C
:10FF6000D1FF06460F4602460B46DDE9080101F0C7
:10FF7000B3FD48B9DDE9080132463B4601F0A2FD78
:10FF8000A8B118F0010F12D015F8018C6B1E049A5D
:10FF900004E09A4200F0028413F8018DB8F1390FA1
:10FFA00003F10105F5D008F1010883F80080494606
:10FFB000204600F0B9FF0022029B2A70269A0133E6
:10FFC0001360289B002B00F09F8304981D601BB0DA
:10FFD000BDE8F08F0B9A002A3ED0249A012A40F304
:10FFE0001183079B0C9A5F1EBA42C0F29083D71B05
:10FFF000079B002BC0F28C840A9D079B0A9A012163
:0200000290006C
:100000001A440A92089A20461A44089201F028F8E5
:10001000064623E001230E93B5E600230A9A0D93CA
:10002000029BD21A5B420A920C93BEE6C7F101030F
:100030000A9300230893ADE6029D2846FDF7AEF82B
:1000400002460B46DDE9040101F03CFD00287FF487
:1000500086AE6B1E029382E60AADE0CD002D0CDD6C
:10006000089900290B4608DDA942A8BF2B460A9A29
:10007000ED1AD21ACB1A0A9208930C9BD3B10B9BA0
:10008000002B00F0B882002F10DD31463A462046A2
:1000900001F082F84A4601460646204600F0EAFF93
:1000A000034649462046994600F03EFF0C9BDA1B6A
:1000B00040F0A2820121204600F0D2FF0D9B804635
:1000C000002B1FDD01461A46204601F065F8249BEF
:1000D0008046012B40F3558200230C93D8F8103052
:1000E00008EB8303186900F06BFFC0F1200013E0F8
:1000F000C3F120050AFA05F07BE60E9043E600BF47
:1001000000002440249B012B40F3858200230C93A4
:100110000D9B0120002BE1D1089A104410F01F0024
:1001200000F0A180C0F12003042B40F386840A9BD9
:10013000C0F11C0003440A9313460344054408938A
:100140000A9B002B05DD49461A46204601F074F84B
:100150008146089B002B05DD41461A46204601F0EA
:100160006BF880460E9B002B40F08680079B002B8F
:1001700040F364820B9B002B00F09880002D05DD7E
:1001800031462A46204601F057F806460C9B002BC4
:1001900040F036830896079B049A013BD3180B93D3
:1001A00017460AF00103C246DDF820B00C93514611
:1001B0004846FFF7A7FC31460546484601F08CF853
:1001C0005A4607905146204601F0A2F8C268804680
:1001D00005F13003002A40F02982014648460A937F
:1001E00001F07AF841460890204600F09DFE089AFA
:1001F0000A9B32B9249921B90C9A002A00F0EE83A7
:10020000249A07990029C0F29F8205D1249919B92F
:100210000C99002900F09882002A00F305830B9ABC
:1002200007F1010897423B70454600F00B834946B1
:1002300000230A22204600F081FE5E4581463146B9
:100240004FF000034FF00A02204600F0E98100F071
:1002500075FE5946064600230A22204600F06EFE2F
:1002600047468346A3E71C200A9B054403440A93A0
:10027000089B0344089363E74146484601F02CF885
:100280000028BFF673AF029F494600230A2220468A
:10029000013F029700F052FE0B9B8146002B40F07D
:1002A000B5830F9B002B40F3BE830793DDF810A0AE
:1002B000079F554606E0494600230A22204600F0E3
:1002C0003DFE814641464846FFF71CFC303005F8AC
:1002D000010BA5EB0A03BB42EDDB049B079A8246A8
:1002E000012AACBF9B1801334FF0000B1D46494655
:1002F0000122204600F0A0FF4146814600F0ECFFBD
:10030000002840F33F8215F8012C6B1E049904E08D
:100310008B4200F0AE8113F8012D392A03F101055B
:10032000F6D001321A704146204600F0FDFD002E45
:100330003FF43DAEBBF1000F05D0B34503D05946A5
:10034000204600F0F1FD3146204600F0EDFD2EE69E
:1003500000230B93029B259A13440F930133012B27
:100360001F461E46B8BF012707930021172F61645F
:100370000AD9012204235B0003F1140087421146CD
:1003800002F10102F7D26164204600F0A7FD0E2EB3
:10039000049020643FF647AD002D3FF444AD029930
:1003A000CDE910AB002940F30382B94B01F00F02F5
:1003B0000D1103EBC203E906D3E9006740F1AF81F9
:1003C000B44B5046D3E908235946FDF777F84FF070
:1003D000030ACDE9120105F00F058DB1DFF8B482F3
:1003E000EA0709D5D8E9002330463946FCF73CFF37
:1003F00006460F460AF1010A6D1008F10808EFD110
:100400003B46DDE912013246FDF758F807468846BB
:100410000E9B43B10022A04B3846414601F05CFBE5
:10042000002840F087825046FCF7B8FE3A46434623
:10043000FCF71AFF994B0022FCF764FD079B054669
:10044000A1F15076002B00F03F81029B1593079B92
:1004500012930B9B002B00F0FB81129A8C4B002017
:1004600003EBC20353E902238D49FDF727F82A461F
:100470003346FCF745FD82468B463846414601F03F
:1004800069FB0546FCF78AFE02460B4638464146A4
:10049000FCF736FD30355FFA85F8049D06460F46B9
:1004A00085F8008002460B4650465946013501F05A
:1004B00031FB002854D132463B4600207649FCF7F8
:1004C0001FFD02460B465046594601F023FB00280B
:1004D00040F07082129A012A00F01281129B049A55
:1004E000CDF84890134499460FE032463B46002031
:1004F0006949FCF705FD52465B4601F0EDFA00281C
:1005000040F056824D4500F0F98050465946002291
:10051000644BFCF7A9FE0022624B82468B463046B4
:100520003946FCF7A1FE0F46064601F013FB804654
:10053000FCF734FE02460B4630463946FCF7E0FC39
:1005400008F130085FFA88F805F8018B52465B46DF
:1005500006460F4601F0C0FA0028C6D0DDF84890E4
:10056000159B029323E500230B93259B002B40F35F
:10057000DD801F461E460F930793F6E601230B937B
:10058000F3E7BAF1000F7FF4A7ADCBF31303002B11
:100590007FF4BCAD2BF000473F0D3F05002F00F06E
:1005A0000D820A9B01330A93089B013308930123B0
:1005B0000C93ADE5079B002B3FF748AC40F022823F
:1005C000DDE908010022384BFCF74EFE52465B463F
:1005D00001F096FADDF81C804646002841D0259BA4
:1005E000049DDB4302934146204600F09DFC002E13
:1005F0003FF4DDACA7E60C9A4946204600F0CCFD5E
:10060000814657E5149A002A00F0888103F23343AB
:100610000C9F0A9DF2E4BAF1000F7FF477ADB4E7C6
:1006200000F08CFC474606468346C0E5014620465E
:10063000089300F079FC0122089BE2E5249B022B41
:100640007FF798AD079B002BC9D141460522204674
:1006500000F074FC01468046484600F03DFE00284C
:10066000BDDD3123029A0499013202920B704D1CB8
:10067000B9E73123029A01320292049A137052E6CA
:1006800001230B9366E6DDF828900B9C8FE400BFF6
:10069000E05B0900B85B09000000F03F00001C406F
:1006A0000000E03F00002440000014405046FCF7EA
:1006B00075FD3A464346FCF7D7FD0022C14BFCF7D7
:1006C00021FC0546A1F1507641460022BE4B38463A
:1006D000FCF716FC2A46334682468B4601F01AFA8E
:1006E0008046002840F010812A4606F1004350461B
:1006F000594601F0F1F918B1464670E7DDF8489027
:10070000DDE910ABFFF78FBB0498FFF7C0BA0C9B75
:100710000D9AFB1A1A440C970D92002768E4DDE944
:1007200010234FF0020ACDE9122356E600210123DF
:1007300020466164259300F0D1FB259B049007932C
:10074000259B20640F9327E6002AD046CDF820B0E1
:100750009A4611DD49460122204600F06DFD4146D2
:10076000814600F0B9FD002840F34581BAF1390F08
:1007700000F0058105F1310AB34687F800A07D1C21
:10078000089ED0E504D11AF0010F01D0BBE5154653
:1007900015F8013C6A1E302BF9D0C4E530220499CB
:1007A0000A70029A15F8018C01320292FFF7FBBB26
:1007B00000F0BB80DDE91001029B4FF0020A5D42B0
:1007C000824B05F00F0203EBC203D3E90023FCF7D1
:1007D0004BFD2D11074688463FF41AAE7C4EEB07C1
:1007E00009D5D6E9002338464146FCF73DFD0746CA
:1007F00088460AF1010A6D1006F10806EFD107E6F6
:100800007168204600F06AFB0546336906F10C0169
:1008100002339A000C30FDF7EBFB294601222046FB
:1008200000F00AFD0890B6E4392BCDF820B0D04690
:1008300000F0A58003F1010AB34687F800A07D1CF3
:10084000089E70E55A46D046B3469A4616464EE58F
:1008500012985E492A4601EBC001334651E9020174
:10086000FCF702FDCDE916013846414601F072F968
:100870000546FCF793FC02460B4638464146FCF71A
:100880003FFB06461298049A3035012815700F4632
:1008900002F1010526D0129B049ACDF8489013442A
:1008A0004FF0000A9946DFF830B152465B463046B9
:1008B0003946FCF7D9FC0F46064601F04BF9804655
:1008C000FCF76CFC02460B4630463946FCF718FB39
:1008D00008F1300805F8018B4D4506460F46E4D176
:1008E000DDF848900022DDE916013A4BFCF70AFBDF
:1008F00032463B4601F0F0F8002846D0159B0293A3
:1009000015F8018CFFF742BB4FF000084646A8E6F9
:100910000A9B079A9D1A0023FFF770BB189B0C9F38
:10092000C3F136030A9DFFF769BBDDE910784FF08C
:10093000020A6DE5079B002B3FF4B8AE0F9B002B1E
:100940007FF7DEAE0022244B38464146FCF78CFC94
:10095000074688460AF10100FCF720FC3A46434668
:10096000FCF782FC0022174BFCF7CCFA029A0F9B93
:10097000013A05461592A1F15076129369E53922A4
:10098000B3463A70089E7D1CBFE4DDE916230020C3
:100990001049FCF7B5FA32463B4601F0BBF808B9FE
:1009A000AEE6154615F8013C6A1E302BF9D0D7E5A6
:1009B000DDF84890159B0293FFF7E8BA0C97FFF714
:1009C000A7BB00BF00001C4000001440E05B090012
:1009D000B85B09000000E03F00002440392BCDF84F
:1009E00020B0D046DDF81CB09A46C8D0BBF1000F4D
:1009F0003FF7C0AEC0E67FF4BFAE1AF0010F3FF480
:100A0000BBAEB3E64FF000084646E8E531460023AA
:100A10000A22204600F092FA0F9B0646002B07DDC3
:100A20000793FFF7ABBB249B022B1FDC0F9B3CE41F
:100A3000249B022B1ADC0F9BF2E73FF481ABC0F141
:100A40003C0011E4002520466564294600F046FA82
:100A50004FF0FF3307930F930123049025952064F3
:100A60000B93FFF7E0B90125FFF7A8B90F9B079398
:100A7000E8E500BF38B50A4C0A4D641BA4100AD043
:100A800004F18043013B05EB8305013C55F8043933
:100A90009847002CF9D1BDE8384005F097B900BF60
:100AA000F45D0900F05D0900F8B50C46234F0646D9
:100AB000FDF762FBBB68C4F57E615D680F3125F010
:100AC0000305294421F47F6121F00F01A1F5805431
:100AD000B4F5805F07DB00213046FDF759FBBB68AA
:100AE0002B44984204D03046FDF74CFB0020F8BD63
:100AF00061423046FDF74CFB01300DD0104BBA6817
:100B000019682D1B45F001053046091B5560196019
:100B1000FDF738FB0120F8BD00213046FDF738FB1A
:100B2000BA68831A0F2BDEDD064C0549246843F0B2
:100B30000103001B53600860D5E700BF188707203A
:100B4000D83E0820208B0720002944D02DE9F04111
:100B50000D468046FDF710FB55F8047C6949A5F168
:100B6000080427F00103E2188E685068B24220F0B2
:100B700003005ED0FE0750600BD455F8087C01F1ED
:100B8000080EE41BA5683B4475456DD0E768EF602F
:100B9000BD6015186D68ED073ED543F00102626037
:100BA000E350B3F5007F17D20122DB0898104D689F
:100BB000134451F83370824001EBC3002A430838D4
:100BC000E060A7604A6041F83340FC604046BDE801
:100BD000F041FDF7D7BA70475A0A042A52D89A0949
:100BE00002F13907FF0002F13805C819CA5908385F
:100BF00090424FD0516821F003018B4232D292686B
:100C00009042F7D1C368A060E3609C60C460404636
:100C1000BDE8F041FDF7B6BA95683B4F0344BD42CD
:100C200040D0D06843F00102E86085606260E35024
:100C3000B7E7FF07034407D455F8085C641BE26874
:100C4000A0682B44C2609060304A43F001001268F3
:100C5000606093428C60B9D32D4B40461968FFF712
:100C600023FFB3E71046CDE711184968C90744D4FC
:100C700091680344D26843F00100CA6091606060EB
:100C8000E350A3E7142A16D802F15C07FF0002F133
:100C90005B05AAE70123AA104D6893402B434B60E4
:100CA0000346B0E743F001024C610C61E560A560CA
:100CB0006260E3508AE7542A06D81A0B02F16F07E4
:100CC000FF0002F16E0590E7B2F5AA7F06D8DA0BB5
:100CD00002F17807FF0002F1770586E740F25450F1
:100CE000824206D89A0C02F17D07FF0002F17C05D2
:100CF0007BE74FF47E777E2577E743F00101616063
:100D0000136063E71887072020870720248B0720BC
:100D1000083F0820D0F8EC00704700BF044B054A9C
:100D20001B685B6B002B08BF1346D3F8EC007047C1
:100D3000E88207202C8B0720044A054B1268506B71
:100D4000002808BF1846F030704700BFE88207202F
:100D50002C8B0720704700BF704700BF82B049B19D
:100D60005AB16BB113780B601278101C18BF0120B8
:100D700002B0704701A9002AF3D1104602B07047B3
:100D80006FF00100F4E700BF830770B4CDB23DD02F
:100D9000541E0AB30378AB421FD0431C05E014F184
:100DA000FF3419D30278AA4217D013F0030F184664
:100DB00003F10103F3D1032C11D84CB30378AB42F8
:100DC0000BD00444431C02E00278AA4205D09C42A6
:100DD000184603F10103F7D1002070BC70470902E7
:100DE00089B2294341EA0141036806464B40A3F119
:100DF000013222EA030313F0803F00F1040003D123
:100E0000043C032CF0D8D8E73046D7E71446D2E7A5
:100E10002046E2E78842F0B50DD98B1898420AD2F5
:100E20008418002A51D0224613F8014D994202F845
:100E3000014DF9D1F0BD0F2A48D941EA00039B07C3
:100E400046D1154600F1100401F1100353F8106C5F
:100E5000103D44F8106C53F80C6C0F2D44F80C6CDA
:100E600053F8086C04F1100444F8186C53F8046C3F
:100E700003F1100344F8146CE8D8A2F1100323F036
:100E80000F0302F00F0E1033BEF1030F1944034499
:100E900021D90E4674461D1F56F8047B043C032CD2
:100EA00045F8047FF8D8AEF1040424F003040434B8
:100EB0002144234402F0030262B1013B0A4411F8C9
:100EC000014B8A4203F8014FF9D1F0BD0346F3E725
:100ED0000346F2E7F0BD7246EEE700BFC36C70B5A3
:100EE00005460C464BB153F8240080B1026843F824
:100EF000242000230361C36070BD21220421FCF77C
:100F000075FDE86403460028EDD1002070BD012185
:100F100001FA04F6721D28469200FCF767FD0028CE
:100F2000F3D044608660E4E731B1C36C4A6853F89B
:100F30002200086043F82210704700BFF0B50C464D
:100F400005464FF0000E0E6983B001F114073868B2
:100F50000EF1010E81B202FB0133010C180C02FBF1
:100F600001019BB203EB0143764547F8043B4FEA8E
:100F70001143ECDC3BB1A268964207DA04EB86022F
:100F8000013653612661204603B0F0BD61682846F2
:100F900001310193FFF7A2FF0746226904F10C011A
:100FA000023292000C30FDF723F8EA6C6168019B75
:100FB00052F82100206042F821403C46DEE700BFA5
:100FC000020C12040346B2B90304102013F07F4F41
:100FD00004BF1B02083013F0704F04BF1B01043024
:100FE00013F0404F04BF9B000230002B02DB5B007C
:100FF00003D4202070470020E8E70130704700BF8D
:101000000368014613F0070207D0DA0721D49807D6
:1010100021D49B080B600220704798B298B110460B
:1010200013F0FF0F04BF1B0A08301A0704BF1B0987
:1010300004309A0704BF9B080230DA0707D45B0824
:1010400004D1202070471B0C1020E9E701300B6011
:101050007047002070475B080B600120704700BF9D
:1010600010B50C460121FFF739FF012244610261EE
:1010700010BD00BF2DE9F04F0C69156983B0AC427B
:101080008B46164604DA2246B3462C460E461546D3
:10109000DBF8083004EB0508DBF804109845C8BFFE
:1010A0000131FFF71BFF00F1140909EB880AD14554
:1010B000009005D24B46002143F8041B9A45FBD80B
:1010C00006F1140C0CEB85030BF1140B9C450BEB98
:1010D000840E4BD2CDF804A09A46DCF80050AFB293
:1010E000E7B14D465E46002156F8042B286893B2BE
:1010F00084B2120C07FB0343000C07FB02020B44F3
:1011000002EB13419BB243EA0143B64545F8043B69
:101110004FEA1141E8D82960DCF800502D0C1DD0B1
:10112000D9F8003048461C46594600220E88240C47
:1011300005FB06449BB2224443EA024340F8043BC9
:1011400051F8043B04681B0CA6B205FB03638E45F3
:1011500003EB12434FEA1342E8D803600CF1040C8E
:10116000E24509F10409B8D8DDF804A0B8F1000F90
:101170000BDD5AF8043CAAF1040A1BB105E05AF849
:10118000043D13B9B8F10108F9D10098C0F81080F6
:1011900003B0BDE8F08F00BF12F003032DE9F0416A
:1011A000144607462ED10D46A4101CD0BE6C96B333
:1011B000E3074FF0000806D4641014D03068A8B1DB
:1011C0000646E307F8D5324629463846FFF752FF70
:1011D000B5B16A68FB6C641053F82210296043F8BB
:1011E00022500546EAD12846BDE8F0813246314614
:1011F0003846FFF73FFF3060C0F800800646E0E762
:101200000546D9E70B4A013B52F823200023FFF79C
:1012100095FE0546C8E701213846FFF75FFE40F21C
:10122000712101220023416102610646B864036016
:10123000BEE700BFA85C09002DE9F8430B69541113
:1012400004EB03088B6808F101059D420E469146A8
:101250000746496804DD5B009D4201F10101FADCAB
:101260003846FFF73BFE002C00F1140306DD002199
:1012700003EB840243F8041B9A42FBD1346906F164
:10128000140119F01F0901EB840E1DD00022C9F1D1
:10129000200C0C6804FA09F4144343F8044B51F889
:1012A000042B8E4522FA0CF2F3D81A600AB108F129
:1012B0000205FB6C7268013D53F822100561316034
:1012C00043F82260BDE8F883043B51F8042B8E45B7
:1012D00043F8042FF9D8ECE730B40B6905460069F0
:1012E000C01A0FD19B001435143119442B4401E06E
:1012F0009D4207D253F8044D51F8042D9442F7D083
:1013000002D3012030BC70474FF0FF30FAE700BF36
:101310002DE9F84F0C69894611699246641A002C30
:1013200017D1890009F1140702F114067B18314422
:1013300001E09F4265D253F8045D51F8042D9542B7
:10134000F7D067D24B46BB46D14637469A46012472
:1013500005E061DB002409F114070AF1140BD9F848
:101360000410FFF7BBFD5D464FF00008D9F810E010
:10137000DAF810303E46C4600BEB830C07EB8E07A7
:1013800000F1140456F8049B55F8042B1FFA89F356
:1013900043441FFA82F8120CA3EB0803C2EB194274
:1013A00002EB23429BB243EA0243AC4544F8043BC0
:1013B0004FEA2248E6D8B74217D9A446354655F831
:1013C000043B99B241440A1402EB134289B241EA48
:1013D0000243AF424CF8043B4FEA2248EFD8F643B1
:1013E000374427F0030704373C44043C2BB954F836
:1013F000043D0EF1FF3E002BF9D0C0F810E0BDE82F
:10140000F88F0021FFF76AFD01220023026143618A
:10141000BDE8F88FB346A2E74B4609F1140B02F181
:101420001407914601249A4699E700BFF0B50121BF
:1014300083B01C46C3F30A551646FFF74FFDC4F3AD
:10144000130407460DB144F48014019406B302A8B6
:1014500040F8086DFFF7D4FD002830D19DE80C005E
:101460007A61002B0CBF01210221BB613961D5B922
:10147000089A07EB8103A0F2324010601869FFF769
:101480009FFD099BC0EB41101860384603B0F0BDCA
:1014900001A8FFF7B5FD0122019B114620303A61FA
:1014A0007B61002DE4D0A5F23343089A0344136016
:1014B000099BC0F135001860384603B0F0BD019BB0
:1014C000C0F12002009903FA02F20A43C3400193DB
:1014D0007A61C6E7002900F094802DE9F04F0C46B0
:1014E000154683B0804605F10B06FCF745FE54F81F
:1014F00004EC162E2EF00307A4F108093CD81022A4
:101500001646B5423DD8974243DAC64B09EB070071
:101510009968884200F0C380436823F001010144C8
:101520004968C9074DD51EF0010F00F09B80294680
:101530004046FCF7BBFA054600283BD054F8043C73
:10154000A0F1080223F001034B449A4200F02B81E2
:101550003A1F242A00F21881132A00F2EB80034676
:101560002246116819605168596092689A60214654
:101570004046FFF7E9FA1DE026F00706002E324646
:10158000BFDA00250C232846C8F8003003B0BDE8B8
:10159000F08F2546BB1B0F2BD9F804201DD802F075
:1015A00001023A4309EB0701C9F804204B6843F0F4
:1015B00001034B604046FCF7E5FD284603B0BDE85B
:1015C000F08F23F00303F91891421DDBC368826892
:1015D0002546D3600F469A60DCE702F0010209EB72
:1015E000060143F001033243C9F804204F444B6025
:1015F0007B68083143F001037B604046FFF7A4FAA3
:10160000D8E71146FCF752BA1EF0010F8FD154F8FB
:10161000081CA9EB010ADAF8041021F003010B44BD
:101620003B44934226DB5546C16880683A1FC1603F
:10163000886055F8080FDAF80C10242AC160886019
:1016400026D8132A40F2818021681B2ACAF8081084
:101650006168CAF80C1000F2AD8004F108000AF1CC
:10166000100274E054F8083CA9EB030ADAF80410FD
:1016700021F003017B189342FFF659AF5546DAF883
:101680000C1055F8080F3A1F242AC1608860D8D979
:10169000214628461F46D146FFF7BCFB7AE7416842
:1016A00006F1100021F0030BBB44834558DA1EF00D
:1016B000010F7FF43CAF54F8081CA9EB010ADAF8DB
:1016C000041021F003018B445845D3DC5546DAF869
:1016D0000C1055F8080F3A1F242AC160886000F2E8
:1016E0008D80132A40F2878021681B2ACAF80810CF
:1016F0006168CAF80C1000F2888004F108010AF150
:101700001002086810604868506089689160ABEB0F
:1017100006020AEB060142F0010299604A60DAF81B
:101720000430404603F001031E43CAF80460FCF78E
:1017300029FD42E723681B2A03606368436027D8BA
:1017400000F1080304F108020BE720462A4601686D
:101750001F4611604168D14651608368936019E764
:10176000ABEB060B09EB06014BF0010299604A60F6
:1017700054F8043C404603F001031E4344F8046C53
:10178000FCF700FD254618E72146FFF743FBEEE690
:10179000A368242A8360E368C36018D000F11003B3
:1017A00004F11002DDE650F8043C254623F0030363
:1017B0001F44EFE6A168242ACAF81010E168CAF8AD
:1017C00014100DD004F110000AF11802BFE72269CD
:1017D00000F118030261616904F118024161C0E679
:1017E000226904F11800CAF8182061690AF1200280
:1017F000CAF81C10ABE721462A4682E72146284654
:101800000193FFF707FB019B81E7A168242ACAF82F
:101810001010E168CAF8141006D004F110010AF1A2
:1018200018026EE718870720226904F11801CAF828
:10183000182060690AF12002CAF81C0061E700BFA5
:101840002DE9F04F936883B09046002B70D082460C
:101850000C4617688D68086842E0A38913F4906FFE
:101860002ED06569216905EB4505A0EB010B05EB61
:10187000D5750BF101006D103044A8422A4684BF93
:1018800005462A465B0538D511465046FCF70EF949
:1018900000283CD05A4621690190FCF7A9FBA28997
:1018A000019B22F4906242F08002A281A5EB0B0220
:1018B00003EB0B006561B346354623612060A260EF
:1018C0005A464946FFF7A6FAD8F80830A2682068B9
:1018D000551B58449E1BA5602060C8F808603EB3A5
:1018E0007E683B460837002EFAD0AE42D3F800900F
:1018F000AB46B2D23546B346E2E75046FFF7EAFDC3
:1019000003460028D2D121695046FFF71DF90C2368
:1019100000224FF0FF30CAF80030A38943F04003A3
:10192000A381C8F80820C8F8042003B0BDE8F08FF0
:101930000020C8F8040003B0BDE8F08F19B1FF2AF9
:1019400003D80A700121084670478A234FF0FF31FF
:101950000360F8E72DE9F8432C4D064628689846C1
:101960000F469146FFF7F6F9294B1C68D4F8483129
:10197000002B3ED05A681F2A1CDC02F1010E76B102
:10198000012103EB8204C4F88890D3F888019140C8
:101990000843022EC3F88801C4F8088123D002321C
:1019A000C3F804E0286843F82270FFF7D5F9002057
:1019B000BDE8F883174B0BB34FF4C870FCF76EF813
:1019C0000346D8B10020D4F848114FF0010E5860FA
:1019D00019600246C4F84831C3F88801C3F88C0185
:1019E000002EDCD0CCE7D3F88C010143C3F88C1176
:1019F000D5E704F5A673C4F84831BBE72868FFF7BC
:101A0000ABF94FF0FF30BDE8F88300BF288B07200B
:101A1000305B09009DDA08004FF0FF3C06E000BF94
:101A20004FF0010C02E000BF4FF0010C4DF804CD67
:101A30004FEA410C7FEA6C5C4FEA430C18BF7FEA27
:101A40006C5C1BD001B050EA410C0CBF52EA430C55
:101A500091EA030F02BF90EA020F0020704710F1D5
:101A6000000F91EA030F58BF994208BF90422CBF64
:101A7000D8176FEAE37040F0010070474FEA410C5D
:101A80007FEA6C5C02D150EA013C07D14FEA430C7B
:101A90007FEA6C5CD6D152EA033CD3D05DF8040BEC
:101AA000704700BF8446104662468C46194663461E
:101AB00000E000BF01B5FFF7B7FF002848BF10F1F5
:101AC000000F01BD4DF808EDFFF7F4FF0CBF01203A
:101AD00000205DF808FB00BF4DF808EDFFF7EAFFB6
:101AE00034BF012000205DF808FB00BF4DF808ED71
:101AF000FFF7E0FF94BF012000205DF808FB00BF66
:101B00004DF808EDFFF7CEFF94BF012000205DF8EF
:101B100008FB00BF4DF808EDFFF7C4FF34BF0120FC
:101B200000205DF808FB00BF4FEA410C7FEA6C5CC7
:101B300002D150EA013C0AD14FEA430C7FEA6C5CC7
:101B400002D152EA033C02D14FF0000070474FF03F
:101B5000010070474FEA410212F5001215D211D56B
:101B60006FF47873B3EB625212D94FEAC12343F09A
:101B7000004343EA505311F0004F23FA02F018BF1C
:101B8000404270474FF00000704750EA013005D1E5
:101B900011F0004008BF6FF0004070474FF00000A8
:101BA000704700BF48617264206661756C740D0AED
:101BB000004368616E67656420686F75720D0A0086
:101BC00052756E6E696E6720256325632563202D2F
:101BD000202573202D2025732025730D0A00313018
:101BE0003A33393A32310041707220203820323095
:101BF0003230007363686564756C65720D0A00436A
