:02000002C0003C
:10000000185D0820F5000C00056B0C0009030C00BE
:10001000056B0C00056B0C00056B0C00000000006C
:1000200000000000000000000000000021070C009C
:10003000056B0C000000000075070C00B1070C00F8
:10004000056B0C00056B0C00056B0C00056B0C00C0
:10005000056B0C00056B0C00056B0C00056B0C00B0
:10006000013D0C000000000000000000C1030C0076
:1000700019040C0000000000000000000000000057
:10008000000000009D3E0C0091410C000D430C004F
:1000900000000000056B0C0065680C00056B0C008F
:1000A000056B0C0000000000056B0C00056B0C00DC
:1000B000056B0C00056B0C00056B0C00056B0C0050
:1000C000056B0C00000000000000000000000000B4
:1000D000C9760C00056B0C00056B0C00056B0C0061
:1000E000056B0C00056B0C0000000000BD300C001F
:1000F00095310C004FF0005208B5194B1A631A6184
:100100004FF48052C3F83022C3F81022154A164B20
:100110009A4219D10021154B154A93421DD3154B14
:10012000154A23F0604121F07F0103F16043B3F5EC
:10013000801F91603EBF936843F0005393600CF0C2
:10014000DFF900F079F8FEE70C49043A8B42E1D27E
:1001500052F8040F43F8040BF8E743F8041BDCE7FC
:10016000000E0E402C3E0D0000800720908C0720D2
:10017000143D082000000C0000ED00E0908C0720EA
:1001800010B5054C237833B9044B13B10448AFF3D1
:1001900000800123237010BD908C07200000000018
:1001A0002C3E0D000C4B43B10C4810B50C49AFF37D
:1001B00000800C48036823B910BD0A48036833B9AE
:1001C0007047094B002BF7D0BDE810401847064B8D
:1001D000002BF5D0184700BF000000002C3E0D009A
:1001E000948C07202C3E0D0000000000034A044BB5
:1001F0001A600022034B1A60704700BFD4810720A9
:10020000EC330820B08C0720024A0221032003F0BF
:10021000C3BB00BF61060D00024A0121002003F0AC
:10022000BBBB00BFAF060D000378122B03D1407893
:1002300008B906F0AFBD70477FB503F07BFB00F057
:1002400071F903F077FC04F069F906F0B9FD0120BB
:1002500006F0B0FD012006F09DFD002006F09AFD9D
:1002600003F00AFB1B49072003F03CFA1A49082057
:1002700003F038FA1949092003F034FA184912201A
:1002800003F030FA03F0ECFC1649174A04911749C1
:100290001378039102929178527801910092012192
:1002A000134A002003F078FB0BF0F4F807F034FB5E
:1002B0000BF03FFA04F05CF900F006FA0D4A012158
:1002C000002003F069FB00F023FC002007B05DF87C
:1002D00004FB00BFED010C0019020C0009020C0028
:1002E00029020C008E060D00C8060D0097060D00B1
:1002F00070060D00A3060D0030BF024A13680133DB
:1003000013607047B08C0720064A074913688B4278
:1003100002D8013313607047002001211060034AA6
:1003200003F03ABBAC8C0720F5FF090054060D0022
:1003300038B56424044D00212A46084603F02CFBFE
:10034000013CF8D138BD00BFBF060D000220704748
:100350000620704701207047074B1A680AB9074A00
:100360001A601A68064910448142A6BF18601046F8
:100370004FF0FF30704700BFB48C0720185D082095
:10038000FC7F082010B50446072CFDD8DFE804F0F8
:100390000B04040C0C0C0C0C05F0C8FF003018BF4B
:1003A00001200028F0D010BD06F03EF8F6E708B5B1
:1003B0000B2006F051F8BDE808400C2006F04CB8C0
:1003C00010B5124806F0EAF98107044606D5022165
:1003D0000E4806F0E1F901220D4B1A70E20307D531
:1003E0004FF48031094806F0D7F90122084B1A7002
:1003F000E3040AD54FF48051044806F0CDF90548CE
:1004000003F0B6FA0122024B1A7010BD000E0E4026
:10041000C08C0720D4060D0010B50C4806F0BEF9BC
:100420000204044607D54FF40041084806F0B4F929
:100430000122074B1A70E30307D54FF480310348BC
:1004400006F0AAF90122024B1A7010BD00100E40EE
:10045000C08C072038B5FFF7AAFF02231A484FF4D3
:1004600080544361C0F8A0304FF40043174D102270
:100470006B61C5F8A0304461C0F8A0404466446593
:100480004462C0F88040036F114923F4805303672E
:1004900006F09AF910224FF4C031284606F094F97C
:1004A0004FF4006200210B4BC3F88020C3F8802179
:1004B00083F80B131A60C3F88040C3F8804183F8B7
:1004C0000C131C6038BD00BF000E0E4000100E4023
:1004D0000210010000E100E008B50F490F4806F0E6
:1004E00058F94FF4C0310E4806F053F9012005F0D9
:1004F000D3FF022005F0D0FF082005F0CDFF8020BB
:1005000005F0CAFF4FF4805005F0C6FFBDE8084073
:100510004FF4005005F0C0BF02100100000E0E4065
:1005200000100E402DE9F041002486B04FF4807198
:100530004D4806F0CDF908214B4806F0C1F94A486C
:1005400006F0CEF9494BDFF870811C70FFF782FF8F
:10055000FFF7C2FF2046FFF715FF204605F082FE99
:1005600005F034FF05F026FF414806F035FB06F0A4
:10057000CDFAFFF71CFF05F04BFC3E4F3E4D4046C9
:1005800003F0F6F93B784FF000563C4C43B94FF47A
:1005900080536E636363FFF79FFF03F0E3F9EEE7B9
:1005A000374803F0E5F94FF480532E633548236351
:1005B00006F01EF90446002005F0C6FE0320FFF7F2
:1005C000E1FE002005F06EFE06F056FBFFF7EFFEA1
:1005D00005F0AAFA4FF400412B4806F037F92B4AF0
:1005E00003460121002003F0D7F91F4B01205D696C
:1005F00006F0ECF8264AC4F302230190012100958D
:10060000002003F0C9F90120002106F0E5F8214B94
:10061000B3F5202F34BF2048204803F0A9F9204B20
:1006200004211B680020C3F30323092B0CBF4FF4E4
:1006300000324FF480221B4B1A6006F0B9F910B15A
:10064000194803F095F9042102A806F03BFA10B10D
:10065000164803F08DF9059A154B16481A6003F0F9
:1006600087F906B0BDE8F081101A0E40B88C07205B
:1006700000BD0105C08C0720000E0E4000100E408A
:10068000EB060D00001A0E40501A0E40F5060D0044
:1006900023070D0025050C0030070D0039070D005C
:1006A00040090E40BC8C072042070D005D070D007D
:1006B000C48C072084070D00DE060D00014806F0FB
:1006C00091B800BF001A0E4008B5094A0121002068
:1006D00003F062F903F052FF072805D007F02CFF62
:1006E000BDE8084004F0E2B902F012FCF8E700BFF0
:1006F00099070D0003480068006880F3088862B617
:1007000000DF00BF08ED00E04FF0807300E90A0051
:10071000002340F8202C40F80C3C40387047000083
:10072000064B19680868B0E8F00F80F309884FF0AD
:10073000000080F311884EF00D0E7047C88C072022
:100740004FF0A00383F31188BFF36F8FBFF34F8F78
:10075000024A136801331360704700BF908007207E
:10076000034A1368013B13600BB983F31188704788
:1007700090800720EFF309800C4B1A6820E9F00FF6
:1007800010602DE908404FF0A00080F3118800F0C0
:100790003DFB4FF0000080F31188BDE80840196868
:1007A0000868B0E8F00F80F309887047C88C07200C
:1007B0004FF0805208B5094B1A60EFF311834FF0E8
:1007C000A00282F31188BFF36F8FBFF34F8F00F049
:1007D000EDF9002383F3118808BD00BF04ED00E0AC
:1007E000034A044B1A60072243F8042C704700BFE9
:1007F0001F48010014E000E008B5084B1A6842F4F5
:1008000070021A601A6842F070421A60FFF7E8FF3F
:100810000020034B1860FFF76DFF08BD20ED00E0DE
:100820009080072070470000064A13681968064B3D
:1008300019B94FF0FF321A6070471268D268D26857
:100840005268F8E7CC8C0720548D0720F8B51B4B75
:100850001B4E1D68044630680F46043000F0BDFE94
:10086000334640B901203168164EC96A3268884063
:1008700022EA00023260621C07D137B119681248BF
:100880000431BDE8F84000F085BE2C441A68A5424A
:10089000546007D90D4A10681968BDE8F840043162
:1008A00000F084BE0A4A10681968043100F07EFE28
:1008B000084B1A68944238BF1C60F8BD9C8D072015
:1008C000C88C0720248D0720748D0720D08C07202A
:1008D000CC8C0720548D072080B5DFF86880154F39
:1008E000154C164E236873B9154B1B68012B07D99D
:1008F0004FF08053C8F80030BFF34F8FBFF36F8FB6
:10090000FFF7FAFCECE7FFF71BFFFB68DD68281D2B
:1009100000F063FE3368013B33602368013B2360D2
:10092000FFF71EFF286B01F013F9284601F010F9BC
:10093000D8E700BF888D0720148D0720108D072071
:10094000D48C072004ED00E02DE9F84F4FEA820A2D
:10095000804650460D4699460B9E01F067F80746C3
:1009600098B1582001F062F8044658B107637DB988
:100970004FF0A00383F31188BFF36F8FBFF34F8F46
:1009800000BFFDE7384601F0E3F84FF0FF3591E096
:100990005246A52138460CF0FBF8236BAAF1040A55
:1009A0009A442AF0070A6B1E04F13402093559787B
:1009B00002F8011B13F8011F09B19D42F7D10A9DEE
:1009C0004FF0000B022D28BF0225271DE562A5640C
:1009D000384684F83DB0C4F84CB000F0D8FDC5F1FD
:1009E000030504F1180000F0D2FDC4F850B02461F2
:1009F000A561646284F854B04A4641465046FFF708
:100A000083FE206006B13460FFF79AFE304B314E12
:100A10001A68DFF8F48001321A603268002A4CD17B
:100A200034601B68012B1FD12B4800F0A5FDDFF8B7
:100A3000DC902A4800F0A0FD294D2A4800F09CFDDA
:100A4000484600F099FD284600F096FD264800F043
:100A500093FD264800F090FD254800F08DFD254BC4
:100A6000C3F80090244B1D600125244A24491368D3
:100A7000086801331360E26A236405FA02F3034352
:100A800014200B60144B394600FB023000F082FD4D
:100A9000FFF766FED8F8003063B13368DA6AE36ABC
:100AA0009A4207D24FF08052164B1A60BFF34F8F15
:100AB000BFF36F8F2846BDE8F88FD8F80030002BC1
:100AC000D2D13368DA6AE36A9A4298BF3460CBE7DE
:100AD000108D0720C88C0720D48C0720E88C0720B5
:100AE0003C8D0720FC8C07205C8D0720888D07201B
:100AF000748D0720CC8C0720D08C0720208D0720F8
:100B0000248D072004ED00E0708D0720288D07203C
:100B100013B50024184B00940193C82223461749AB
:100B20001748FFF711FF012818D100F0B1FD012887
:100B300014D14FF0A00383F31188BFF36F8FBFF37D
:100B40004F8F4FF0FF320F4B1A600F4B18600F4B57
:100B50001C6002B0BDE81040FFF74EBE013009D165
:100B60004FF0A00383F31188BFF36F8FBFF34F8F54
:100B700000BFFDE702B010BD508D0720AA070D0091
:100B8000D9080C00548D0720708D07209C8D0720FC
:100B9000024A136801331360704700BF1C8D0720A1
:100BA000014B1868704700BF9C8D07202DE9F84F56
:100BB0003C4B1B68002B6ED13B4B1C6801341C6006
:100BC000C4B93A4B1A6812684AB14FF0A00383F3D4
:100BD0001188BFF36F8FBFF34F8F00BFFDE7344A1B
:100BE0001968106818601160324A13680133136085
:100BF000FFF71AFE304D4FF0000B2B682F4F9C4231
:100C00000AD3DFF8A8A0DFF8C490DAF80020126851
:100C1000A2B94FF0FF322A603A68294BD16A1422F8
:100C20004A439A58022A28BF4FF0010B254A1268FE
:100C3000002A0CBF58460120BDE8F88FDAF80020E2
:100C4000D268D66871688C4201D22960E4E706F167
:100C50000408404600F0C1FCB16A19B106F1180061
:100C600000F0BBFC01224FF0140EF06AD9F80030FE
:100C700002FA00F11943124BC9F800100EFB0030C4
:100C8000414600F087FC3868F16AC26A914228BF89
:100C90004FF0010BB9E70C4A4FF0000B136801331A
:100CA0001360C3E71C8D07209C8D0720CC8C072088
:100CB000D08C0720588D0720548D0720C88C072022
:100CC000D48C0720A08D0720188D0720248D0720A5
:100CD0002DE9F843314C23684BB94FF0A00383F35F
:100CE0001188BFF36F8FBFF34F8F00BFFDE7FFF792
:100CF00027FD2368013B236024682CB10024FFF703
:100D00002FFD2046BDE8F883254B1B68002BF5D04E
:100D1000DFF8A490234FDFF8A480D9F80030E3B9BE
:100D20000CB1FFF781FD204D2C6844B101271F4E07
:100D3000FFF73CFF00B13760013CF9D12C601B4B41
:100D40001B68002BDAD04FF08052194B1A60BFF3AA
:100D50004F8FBFF36F8F0124D1E7D9F80C300125F5
:100D6000DC68261D04F1180000F037FC304600F066
:100D700034FC1420E26A396805FA02F30B4300FBE5
:100D8000028031463B6000F005FC0A4BE26A1B68BA
:100D9000DB6A9A4224BF054B1D60BEE71C8D07200D
:100DA000108D0720248D0720188D0720A08D072087
:100DB00004ED00E0C88C07205C8D0720D48C072050
:100DC00008B540B94FF080520E4B1A60BFF34F8FF9
:100DD000BFF36F8F08BD0C4B196849B14FF0A003EA
:100DE00083F31188BFF36F8FBFF34F8F00BFFDE711
:100DF000FFF7CEFEFFF72AFDFFF76AFF0028E1D0DC
:100E000008BD00BF04ED00E01C8D0720184B10B595
:100E10001A68184B12B101221A6010BD1A60164BE5
:100E20001B68B3FA83F31422DBB2C3F11F035A43E6
:100E300012498C5888184CB94FF0A00383F31188DD
:100E4000BFF36F8FBFF34F8F00BFFDE744680832D9
:100E500064680A44944208BF6268446008BF426004
:100E6000142202FB03135B68DA68054BD4E700BF6A
:100E70001C8D0720A08D0720248D0720D48C0720EF
:100E8000C88C072010B50C4648B94FF0A00383F377
:100E90001188BFF36F8FBFF34F8F00BFFDE7054B86
:100EA0001968183100F082FB2046BDE8104001218E
:100EB000FFF7CCBCC88C072038B50D46144648B99E
:100EC0004FF0A00383F31188BFF36F8FBFF34F8FF1
:100ED00000BFFDE7074B1968183100F05BFB002CE1
:100EE000214608BF2846BDE8384018BF4FF0FF3004
:100EF000FFF7ACBCC88C072038B5C368DC684CB9B8
:100F00004FF0A00383F31188BFF36F8FBFF34F8FB0
:100F100000BFFDE704F11805284600F05EFB114B09
:100F20001B68E3B9251D284600F057FB01230E4935
:100F3000E26A08689340034314200B6029460B4B78
:100F400000FB023000F026FB094BE26A1B68DB6AFB
:100F50009A4285BF0120074B0020186038BD294602
:100F60000548EFE71C8D0720248D0720D48C07202F
:100F7000C88C0720A08D07205C8D072010B5044683
:100F800048B94FF0A00383F31188BFF36F8FBFF30D
:100F90004F8F00BFFDE7FFF7D3FB054B1B682360B6
:100FA000044B1B686360BDE81040FFF7D9BB00BF6E
:100FB000588D07209C8D0720034B1B680360034B53
:100FC0001B684360704700BF588D07209C8D072029
:100FD00070B50C46054648B94FF0A00383F311885D
:100FE000BFF36F8FBFF34F8F00BFFDE749B94FF0DD
:100FF000A00383F31188BFF36F8FBFF34F8F00BF40
:10100000FDE7FFF79DFB0F4B69681A682368581CC2
:101010000ED00D482E680068864201D08A420ED25A
:10102000521A9A4209D29B1A23602846FFF7C4FF3E
:101030000024FFF795FB204670BD002323600124A8
:10104000F7E700BF9C8D0720588D07200122014B38
:101050001A607047A08D072008B9064B1868026B0C
:101060001346981A13F8011BA529FAD0C0F38F0074
:10107000704700BFC88C0720014B1868704700BF3D
:10108000C88C0720054B1B6833B1054B1B68002B30
:101090000CBF02200020704701207047708D072090
:1010A0001C8D07202DE9F0410446002836D0244A43
:1010B000C36A11681746C96A8B4238D214268269FE
:1010C000204D002AA8BF3A6806FB0353A2BFD26A8C
:1010D000C2F10302826142699A4222D100F10408FE
:1010E000404600F07AFA184B48B9E06A4643AA59DC
:1010F0002AB901211A68814022EA01021A603A687D
:101100001968D26AE262012404FA02F00843186006
:101110001420414600FB025000F03CFA2046BDE896
:10112000F0813B68DB6AC3620120BDE8F08113688F
:10113000806CDC6AA0422CBF00200120BDE8F08159
:10114000C88C0720D48C0720248D0720F8B50446CE
:1011500008B90020F8BD234B1B68984209D04FF016
:10116000A00383F31188BFF36F8FBFF34F8F00BFCE
:10117000FDE7C36C4BB94FF0A00383F31188BFF3B5
:101180006F8FBFF34F8F00BFFDE7C16A826C013BD9
:101190009142C364DDD0002BDBD1051D284600F051
:1011A0001CFA114E114A50B91421E76A7943735859
:1011B0002BB901201368B84023EA00031360A36C25
:1011C000C3F10301E362A1610124116804FA03F091
:1011D000084310601420294600FB036000F0DAF990
:1011E0002046F8BDC88C0720D48C0720248D07200A
:1011F000F8B5044600284DD0C26C4AB94FF0A003A0
:1012000083F31188BFF36F8FBFF34F8F00BFFDE7EC
:10121000836C994238BF1946C36A8B423AD0012A7F
:1012200038D11D4A1268904209D14FF0A00383F3D0
:101230001188BFF36F8FBFF34F8F00BFFDE71426F8
:10124000164D826906FB0353002A4269C162A4BF9E
:10125000C1F1030181619A421CD1071D384600F09B
:10126000BCF9E26A0E4C40B95643AB592BB9012187
:101270002368914023EA010323600123142021689D
:1012800093400B432360394600FB0250BDE8F84011
:1012900000F080B9F8BD00BFC88C0720D48C0720AF
:1012A000248D0720044B1A681AB11968CA6C0132E0
:1012B000CA641868704700BFC88C07202DE9F04148
:1012C0001E4C1E4680460F461546FFF739FA236826
:1012D00093F85430022B14D0012123681A6D22EAAE
:1012E00008021A65236883F8541056B13046FFF798
:1012F000ADFA4FF08052124B1A60BFF34F8FBFF31D
:101300006F8FFFF72DFAFFF71BFA15B123681B6DDE
:101310002B602368002293F85430022B09BF01256B
:1013200000252368196D04BFB9431965236883F844
:101330005420FFF715FA2846BDE8F081C88C072035
:1013400004ED00E0F8B50E4617461D46044648B9C0
:101350004FF0A00383F31188BFF36F8FBFF34F8F5C
:1013600000BFFDE7FFF7ECF90DB1236D2B60022301
:1013700094F8545084F85430EDB2042F16D8DFE8B6
:1013800007F00A0307051100216D0E43266502E0F0
:10139000236D01332365012D15D00125FFF7E0F9F9
:1013A0002846F8BD022DF1D10025F7E7236D013362
:1013B000F1D04FF0A00383F31188BFF36F8FBFF319
:1013C0004F8F00BFFDE7261D304600F006F9144997
:1013D000E26A086805FA02F3034314200B60114B1C
:1013E000314600FB023000F0D5F8A36A4BB14FF054
:1013F000A00383F31188BFF36F8FBFF34F8F00BF3C
:10140000FDE7094BE26A1B68DB6A9A42C5D94FF0D7
:101410008052064B1A60BFF34F8FBFF36F8FBDE74B
:10142000248D0720D48C0720C88C072004ED00E011
:101430002DE9F843DDF820800E4691461D4604460E
:1014400048B94FF0A00383F31188BFF36F8FBFF348
:101450004F8F00BFFDE7FFF7E5F9EFF311874FF07E
:10146000A00383F31188BFF36F8FBFF34F8F0DB1CC
:10147000236D2B60022394F8545084F85430EDB25D
:10148000B9F1040F16D8DFE809F00A0307051100C7
:10149000216D0E43266502E0236D01332365012D86
:1014A00015D0012087F31188BDE8F883022DF1D112
:1014B0000020F7E7236D0133F1D04FF0A00383F351
:1014C0001188BFF36F8FBFF34F8F00BFFDE7A36A93
:1014D0004BB14FF0A00383F31188BFF36F8FBFF3BD
:1014E0004F8F00BFFDE7134B1B68FBB9261D30462D
:1014F00000F073F8104A1420E36A11689D400D4310
:10150000314615600D4A00FB032000F043F80C4BF8
:10151000E26A1B68DB6A9A42C3D90123B8F1000F63
:1015200001D0C8F80030074A1360BAE704F1180187
:101530000548EAE71C8D0720248D0720D48C07205E
:10154000C88C0720A08D07205C8D072038B5054684
:1015500008B9084B1D680024FFF7F2F895F85430DD
:10156000022B04BF85F854400124FFF7F9F8204608
:1015700038BD00BFC88C072000F1080343604FF05E
:10158000FF32C36003610023826003607047002361
:101590000361704743689A684B608A609A6851603B
:1015A0009960036808610133036070470A6830B5C9
:1015B000531C0AD103695A684A6091608B60596074
:1015C000036808610133036030BD00F108035C6803
:1015D0002568AA42EFD32346F9E741688268036988
:1015E0008A60826851605968884208BF5A60002248
:1015F00002611A68013A1A6018687047F8B50F4C12
:10160000FFF79EF82568ADB90D4F0E4E3846FFF72F
:10161000B3FF3046FFF7B0FF0B4B2A461F600B4B62
:1016200010211E201E6000F097FB206010B10849B9
:1016300000F0ACFEBDE8F840FFF792B8D88D072067
:10164000AC8D0720C08D0720A48D0720A88D072012
:10165000AF070D00914208B5416000610AD8D21A67
:1016600083699A420DD2084B011D1868FFF79EFF4F
:10167000002008BD9A4201D2994202D2011D034BBB
:10168000F3E7012008BD00BFA88D0720A48D072027
:1016900007B5FFF7B3FF0E4B1B684BB94FF0A00324
:1016A00083F31188BFF36F8FBFF34F8F00BFFDE748
:1016B000084B4FF4967201930223074900930748A1
:1016C0000023FFF741F90028E8D003B05DF804FBE0
:1016D000D88D0720DC8D0720B4070D0005180C00FD
:1016E0002DE9F04180462C200D4617461E4600F09D
:1016F0009DF90446B0B14DB94FF0A00383F31188B2
:10170000BFF36F8FBFF34F8F00BFFDE7FFF776FF8B
:10171000069BC4F80080A561E76126626362201D14
:10172000FFF735FF2046BDE8F081000030B51546D3
:1017300085B01A46034648B94FF0A00383F31188D9
:10174000BFF36F8FBFF34F8F00BFFDE70C4C2068D6
:1017500078B105298DE8220002930CDCFFF792FC9A
:10176000002302280CBF089A1A466946206800F038
:1017700019FB05B030BD0023694600F0DFFBF8E738
:10178000D88D07202DE9F3414FF000081B4D2B6841
:101790001A6832B91A4A11681360296002B0BDE8AC
:1017A000F081DB68DC681E68271D3846FFF715FFEF
:1017B000636A20469847E369012BE8D1A369334463
:1017C0009E4206D26360246139462868FFF7EEFE28
:1017D000DDE70023CDF80080324619462046FFF7AA
:1017E000A5FF0028D3D14FF0A00383F31188BFF3E6
:1017F0006F8FBFF34F8F00BFFDE700BFA48D0720A1
:10180000A88D07202DE9F04F714DDFF8D0812F46CC
:1018100087B02B681C68002C40F0D5804FF0010A7F
:10182000FFF7B6F9FFF7BCF9DFF8B4B18146DBF892
:1018300000305E46984236D2FFF7A4FF0122CBF873
:101840000090002A40F08380BAF1000F66D14C4529
:101850006AD8FFF73DFA3B68DB68D3F80CB00BF1B0
:101860000400FFF7BAFEDBF81C30012B1DD1DBF8BA
:10187000181023464A4621445846FFF7EBFEA0B114
:10188000CDF800A05346224651465846FFF74EFF7A
:1018900058B94FF0A00383F31188BFF36F8FBFF3E4
:1018A0004F8F00BFFDE70022C9E7DBF82430584620
:1018B0009847DFF82491002202A9D9F8000000F02F
:1018C000F9FB0028A5D0029B002B03DA05990498A8
:1018D000039B9847029B002BEDDB049C636913B1CB
:1018E000201DFFF77AFEFFF75BF9336883469842C5
:1018F00001D2FFF747FF029AC6F800B0092ADAD8EA
:101900000123934013F4047A49D113F0C70F21D176
:101910009B06D0D5204600F01BF9CCE72D4B1B6869
:101920001A68B2FA82F252092B4BA4EB090118682B
:1019300000F03EFDFFF7CCF90028BAD14FF08053FC
:10194000C8F80030BFF34F8FBFF36F8FB1E7FFF7D9
:10195000BFF9AEE7A169039B5A4619442046FFF739
:1019600079FE0028A7D0636A20469847E369012BD7
:10197000A1D1A2690399CDF800A00A44534651466B
:101980002046FFF7D3FE002895D14FF0A00383F344
:101990001188BFF36F8FBFF34F8F00BFFDE703992F
:1019A000A16149B94FF0A00383F31188BFF36F8F92
:1019B000BFF34F8F00BFFDE75B465A4659442046B0
:1019C000FFF748FE77E7DB684FF0000A1C6827E75F
:1019D000A48D0720A88D0720D88D072004ED00E0F6
:1019E000D48D072010B50F4B1A68824218D35C685B
:1019F0001919884201BF416818460919596044689D
:101A000001198A4207D1084909688A421FBF5168F3
:101A10001268091941609842026018BF186010BD31
:101A20001346E1E7302A0820E08D07202DE9F04138
:101A30000446FFF7ADF83F493F4D0B68FBB93F4AFD
:101A4000002056070FBF49F6404307323C4B22F0B7
:101A5000070218BF9B1A13443A4E083B23F00703B2
:101A600070603260586018600B60981A1360364BD3
:101A700050601860354B18604FF000432B602F68A2
:101A8000274216D1002C41D004F1080358071CBF8F
:101A900023F00703083363B12C4A16689046B3421B
:101AA00007D8284A15686868834204D809688D42B7
:101AB00007D100242AE02C68002CF7D02A462546BE
:101AC000F1E7296814681160C21A102A10D9E818C1
:101AD000410709D04FF0A00383F31188BFF36F8F44
:101AE000BFF34F8F00BFFDE742606B60FFF77AFFE7
:101AF0006B681549F61A1F4300230868C8F8006090
:101B0000864238BF0E6008346F602B60FFF7E0F844
:101B10000CB9FEF70DFC630709D04FF0A00383F367
:101B20001188BFF36F8FBFF34F8F00BFFDE72046D3
:101B3000BDE8F081E08D0720242A0820E48D0720ED
:101B4000242A0820302A08202C2A0820282A0820A5
:101B500010B5044680B3194A50F8043C1268134289
:101B600009D14FF0A00383F31188BFF36F8FBFF348
:101B70004F8F00BFFDE750F8081C49B14FF0A0039C
:101B800083F31188BFF36F8FBFF34F8F00BFFDE763
:101B900023EA020340F8043CFEF7FAFF084A54F82F
:101BA000043C1168A4F108000B441360FFF71AFF0E
:101BB000BDE81040FFF78CB810BD00BF242A0820F4
:101BC000282A082010B50446FEF7BAFDA46BFEF7DC
:101BD000C7FDB4FA84F0400910BD70B51546026C1B
:101BE0000446866B42B905689DB98068FFF7AEFA76
:101BF000A5600136A66370BD6DB940680AF052FF5A
:101C00006368226C1344A2686360934201D3236823
:101C100063600020EDE7C0680AF044FF236CE268CF
:101C20005B4221681A448A42E2603EBFA2689B1868
:101C3000E360022DEDD10EB1013EEAE73046D8E770
:101C400003461A6C10B4084662B1D9689C68114406
:101C5000A142D96028BF196810BC28BFD960D968D3
:101C60000AF020BF10BC704770B50446FEF768FD4F
:101C700094F8455004F124066DB2002D14DCFF23C6
:101C800084F84530FEF76CFDFEF75AFD94F8445099
:101C900004F110066DB2002D12DCFF2384F84430ED
:101CA000BDE87040FEF75CBD636A002BE7D03046AC
:101CB000FFF722F908B1FFF7C9F9013D6DB2DCE782
:101CC0002369002BE9D03046FFF716F908B1FFF77A
:101CD000BDF9013D6DB2DEE738B50D46044648B9A1
:101CE0004FF0A00383F31188BFF36F8FBFF34F8FC3
:101CF00000BFFDE7FEF724FD206CE36B2268434341
:101D0000D1181B1A1344A160E3600021FF23A163D3
:101D1000626084F8443084F8453095B9236963B132
:101D200004F11000FFF7E8F838B14FF08052094B8A
:101D30001A60BFF34F8FBFF36F8FFEF711FD0120C5
:101D400038BD04F11000FFF717FC04F12400FFF781
:101D500013FCF2E704ED00E0F8B50D461746064621
:101D600048B94FF0A00383F31188BFF36F8FBFF31F
:101D70004F8F00BFFDE748435030FFF757FE044642
:101D800048B155B92060E663256401212046FFF77C
:101D9000A3FF84F84C702046F8BD00F150030360A7
:101DA000F1E700002DE9FF47894601921F460446EE
:101DB00048B94FF0A00383F31188BFF36F8FBFF3CF
:101DC0004F8F00BFFDE7002940F08A80036C002B95
:101DD00000F086804FF0A00383F31188BFF36F8F6C
:101DE000BFF34F8F00BFFDE7019E002E00F0838000
:101DF0004FF0A00383F31188BFF36F8FBFF34F8FB2
:101E000000BFFDE7019D1DB9FEF7AAFC002058E0C8
:101E100016B902A8FFF7D0F8FEF7A2FCFEF7B8FE4D
:101E2000FEF78EFC94F84430FF2B08BF84F8448002
:101E300094F84530FF2B08BF84F84580FEF790FCEE
:101E400001A902A8FFF7C4F8002843D1FEF778FCE7
:101E5000A66BE56BFEF784FCAE4235D1019904F127
:101E60001000FFF70FF82046FFF7FEFEFEF730FFE9
:101E700038B94FF08053CAF80030BFF34F8FBFF32B
:101E80006F8F0126FEF75CFCA26BE36B9A4201D3D5
:101E9000022FB7D13A4649462046FFF79EFE636AB5
:101EA0001BB104F12400FFF727F838B14FF080523E
:101EB000184B1A60BFF34F8FBFF36F8FFEF750FCC4
:101EC000012004B0BDE8F0872046FFF7CDFEFEF705
:101ED000FFFED6E72046FFF7C7FEFEF7F9FE95E7BF
:101EE000022F02D1E36B012B0AD1FFF7CBF80028B8
:101EF0003FF47AAF00264FF00008DFF818A0C1E7E2
:101F00004FF0A00383F31188BFF36F8FBFF34F8FA0
:101F100000BFFDE704ED00E010B5024600210120FE
:101F2000FFF71AFF044638B1002383600360C360E3
:101F30001A461946FFF736FF204610BD2DE9F84333
:101F4000884691461F46044648B94FF0A00383F3E4
:101F50001188BFF36F8FBFF34F8F00BFFDE711BB39
:101F6000036C03B34FF0A00383F31188BFF36F8FAB
:101F7000BFF34F8F00BFFDE704F12400FEF7BCFF65
:101F8000002834D0B9F1000F31D00120C9F8000089
:101F900086F31188BDE8F88301356DB284F84550A9
:101FA00025E00020F4E7022F02D1E36B012B20D1C2
:101FB000FEF738FCEFF311864FF0A00383F311888E
:101FC000BFF36F8FBFF34F8FA26BE36B9A4201D3C6
:101FD000022FE6D194F845503A466DB2414620466C
:101FE000FFF7FBFD6B1CD7D1636A002BC4D1012026
:101FF000CEE74FF0A00383F31188BFF36F8FBFF3D9
:102000004F8F00BFFDE770B50D46044648B94FF04D
:10201000A00383F31188BFF36F8FBFF34F8F00BF0F
:10202000FDE7036C4BB14FF0A00383F31188BFF3BE
:102030006F8FBFF34F8F00BFFDE703680BB9836855
:1020400073BBFEF7EFFBEFF311864FF0A00383F3B2
:102050001188BFF36F8FBFF34F8FA26BE36B9A4270
:1020600001D3002014E094F8453001325BB2A26342
:102070005A1C10D1636A0BB9012009E004F1240055
:10208000FEF73AFF0028F7D0002DF5D00120286098
:1020900086F3118870BD01335BB284F84530EBE7FD
:1020A0004FF0A00383F31188BFF36F8FBFF34F8FFF
:1020B00000BFFDE72DE9F04385B088460192044654
:1020C00048B94FF0A00383F31188BFF36F8FBFF3BC
:1020D0004F8F00BFFDE7002940F08880036C002B84
:1020E00000F084804FF0A00383F31188BFF36F8F5B
:1020F000BFF34F8F00BFFDE7019E002E7BD04FF056
:10210000A00383F31188BFF36F8FBFF34F8F00BF1E
:10211000FDE7019D1DB9FEF723FB002052E016B933
:1021200002A8FEF749FFFEF71BFBFEF731FDFEF7A5
:1021300007FB94F84430FF2B08BF84F8447094F8F0
:102140004530FF2B08BF84F84570FEF709FB01A955
:1021500002A8FEF73DFF00283DD12046FFF732FDE3
:1021600098B3019904F12400FEF78CFE2046FFF796
:102170007BFDFEF7ADFD38B94FF08053C9F8003054
:10218000BFF34F8FBFF36F8F0126FEF7D9FAA56B10
:10219000002DBED041462046013DFFF751FDA5630D
:1021A000236963B104F11000FEF7A6FE38B14FF0C9
:1021B0008052134B1A60BFF34F8FBFF36F8FFEF740
:1021C000CFFA012005B0BDE8F0832046FFF74CFDB3
:1021D000FEF77EFDD8E72046FFF746FDFEF778FDC7
:1021E0002046FFF7EFFC0028CED096E7FEF74AFF27
:1021F000002881D000260027DFF80490C5E700BF43
:1022000004ED00E02DE9FF410446019148B94FF08B
:10221000A00383F31188BFF36F8FBFF34F8F00BF0D
:10222000FDE7056C4DB14FF0A00383F31188BFF3B8
:102230006F8FBFF34F8F00BFFDE7FEF723FF18B985
:10224000019D002D40F096802E460027DFF8388152
:10225000FEF776FAA36BE3B1013BA363236813B9DE
:10226000FFF720F8A060236963B104F11000FEF7C6
:1022700043FE38B14FF08052434B1A60BFF34F8F8B
:10228000BFF36F8FFEF76CFA0125284604B0BDE856
:10229000F081019B6BB94DB14FF0A00383F311881E
:1022A000BFF36F8FBFF34F8F00BFFDE7FEF758FA04
:1022B000EBE716B902A8FEF77FFEFEF751FAFEF72C
:1022C00067FCFEF73DFA94F84430FF2B08BF84F812
:1022D000447094F84530FF2B08BF84F84570FEF732
:1022E0003FFA01A902A8FEF773FE40BB2046FFF7A4
:1022F00069FCF0B123683BB9FEF722FAA068FEF74B
:10230000D1FE0546FEF72CFA019904F12400FEF7F0
:10231000B9FD2046FFF7A8FCFEF7DAFC38B94FF00C
:102320008053C8F80030BFF34F8FBFF36F8F012683
:102330008EE72046FFF798FCFEF7CAFCF7E7204639
:10234000FFF792FCFEF7C4FC2046FFF73BFC002899
:10235000EDD0002D99D0FEF7F3F9616A19B1236B26
:102360001968C1F10301A068FEF742FF0025FEF7DE
:10237000F7F98AE74FF0A00383F31188BFF36F8F5B
:10238000BFF34F8F00BFFDE704ED00E0002330B541
:10239000064A52F83350DC0025B942F83310224483
:1023A000506030BD0133082BF3D130BD382A0820EE
:1023B00070B504460D461646FEF7C2F994F844304F
:1023C000FF2B04BF002384F8443094F84530FF2BE2
:1023D00004BF002384F84530FEF7C2F9A36B2BB984
:1023E0003246294604F12400FEF766FD2046BDE88A
:1023F0007040FFF739BC000010B5094C094A0121B3
:10240000002001F0C9FA237833B905F07BFA04F013
:10241000A9FE0123237010BDBDE8104001F0C0BC2F
:102420000F2B0820A5080D00002370B5064E95B2AD
:102430009CB2A54202D80023835470BDCC18345DF1
:10244000C4540133F4E700BF342C0820F0B527480A
:10245000B7B00AF0CFFC0223C5B201AE2A46244928
:1024600030468DF810300AF0FFFB9DF804309DF8DF
:1024700005005A1C8DF8113000239DF80610024407
:102480008DF8120019488DF813100A44D9B28D4204
:1024900024D892B2174930460AF0E6FB0023ACB2CA
:1024A000271DFA1836A992B20A44F15C0133042BB5
:1024B00002F8C81CF5D1032236AB234403F8C02C24
:1024C00036AB1C440A2304F8BF3C0B4B05F10A024F
:1024D000186804A9C368984737B0F0BD195C04AC0C
:1024E0001C4421710A440133D0E700BF3A2E082072
:1024F0009B080D00A0080D00D82E082007B5435CEE
:10250000013189B28DF80430435C0021102201A80A
:102510008DF805308DF806100AF060FDC0B203B0EA
:102520005DF804FB63232DE9F347ADF80030282361
:10253000ADF80230B323044600F14606224F234D86
:10254000DFF88C80ADF80430B6B24FF0000904EB30
:102550008901042289B23846FFF766FF1022002164
:1025600038460AF03BFD1022A88100213846B5F814
:1025700004A00AF033FD3DF8193009EB8A0A09F18D
:10258000010905EB4A0A5840B9F1030FAAF81400F3
:10259000DDD104F10C0189B24046B5F80490FFF793
:1025A000ADFFAB882A8801339BB205EBC9090E3415
:1025B0009A42A9F81A00A4B2AB8001D9B442C4D19E
:1025C00002B0BDE8F08700BF342E082094800720B9
:1025D000342C082010B5084C4FF4807204F1080127
:1025E000201D00F0FDFC636803F580736360002329
:1025F000A4F8183110BD00BF102B08200A4B0B4A5D
:10260000B3F8101102EBC102D18A128BC3F80C117E
:102610000A440132C3F81421012283F81221002256
:10262000A3F81821704700BF102B082094800720C2
:102630000A4B10B55968081FFC3150F8042F0433B9
:10264000C2F307241A715C718842C2F30744C2F3D3
:1026500007629C71DA71F0D110BD00BF102B082009
:102660002DE9F04F04460E46B24FB34DDFF8F88225
:102670008FB03B88B3EB440F0BDC6B78013B042B32
:1026800000F25581DFE813F00F007800B800CC00AD
:10269000D20031464046FFF731FF0236285501345B
:1026A000A4B2B6B2E5E70DF1170000F09FFC0028D8
:1026B00000F037819DF81700A04C002856D0A04AA2
:1026C0000121002001F068F90023236036238DF8F2
:1026D000183030238DF819303A238DF81A30002342
:1026E00006A998488DF81B300AF006FB964906A803
:1026F0008B784A78C978009194490AF0B5FA06A90E
:1027000090480AF0F9FAFDF721FE9149024606A821
:102710000AF0AAFA06A98B480AF0EEFAFDF718FEAD
:102720008B49024606A80AF09FFA06A985480AF0D6
:10273000E3FAFDF70FFE8649024606A80AF094FA6E
:1027400006A980480AF0D8FA00F078FC054600F0A7
:102750007DFC23687F4900932A46034606A80AF0B9
:1027600083FA06A977480AF0C7FA88E07A4A012175
:1027700001F012F90123A8E7A9782B79774CEE78BC
:102780006D7981F0590283F01A00A274E0746A40F6
:10279000704002EB002281F0350183F0CD0303EBA2
:1027A0000123A260142104226D482382FFF73CFE1E
:1027B000102200216A480AF011FC238A04225840A2
:1027C00060801A216648FFF72FFE0021102264481E
:1027D0000AF004FC238A58404FF6FF73A081E3817E
:1027E00000245648A0F81041FFF708FF5D4980F823
:1027F0001A41A0F81C41B5E7042208215848FFF708
:1028000013FE1022002156480AF0E8FB0022534B29
:10281000554918800C209A80FFF784FE5349A1E7A0
:1028200051490820FFF77EFE51499BE7434C94F83D
:102830001A71002F79D00025484EA846B346A4F857
:102840001051B4F8102133889A421BD3B368ADB24B
:102850009D4268D1207800F001FC002861D04549F4
:1028600038480AF049FA444B1C68FEF799F90A23E4
:1028700002460093012100232046FEF757FF0FB0C8
:10288000BDE8F08F4FF00009FFF7B8FEB4F8102153
:1028900006EBC203DB8A06EBC202928AA4F80A3175
:1028A00003F47F4303EB02136360B4F810310BEBC6
:1028B000C302128B0132914503D30133A4F81031C6
:1028C000BFE7FFF7B5FE6368B4F80AE103F580736C
:1028D00063601EF0FF03A4F8188118BFA4F8183134
:1028E000D4F81431B4F818C10393002318469AB2EF
:1028F00002EB0E01624492B2FF2A89B209EB030A8D
:1029000004D908B1A4F80A11D146CEE7039A0133DD
:102910009142F6D20CEB03022244D2793846154498
:10292000E5E716491EE716491CE716491AE7164956
:1029300018E700BF302C0820782A0820102B082028
:1029400010080D003A2E0820C8060D0032080D00B0
:102950003A080D003E080D0021080D009480072064
:10296000342E08204C080D00342C08204F080D0090
:1029700052080D0055080D00D02E082049080D0002
:1029800058080D005B080D005E080D000149024863
:102990000AF0B2B95E080D003A2E082010B5244A9C
:1029A0009178D378234A03EB012392F812119BB25A
:1029B000A2F80831144669B1B2F810111E4A02EBB0
:1029C000C102928A9A4230D11C491D48BDE810408C
:1029D0000AF092B9B2F818314BB1FF20DA1D224447
:1029E000FF2B18D909B1A4F81831FFF7F3FDB4F89B
:1029F00010311148013302889BB29A42A4F8103179
:102A00000FD0FFF7FBFDB4F81031B4F8082100EB4C
:102A1000C300838AD6E7013302F8010F9BB201217C
:102A2000DEE7012384F81A31CEE70649CDE700BF7F
:102A3000782A0820102B08209480072055080D00C4
:102A40003A2E0820D8070D0000210422F0B56C4C66
:102A50006C48B4F81E71B4F81C3185B0BA42C0F0AD
:102A6000898009B1A4F81C31674DEB19EA5D5B78E8
:102A700003EB0223B4F81C219BB29A4240F0B980C8
:102A8000AA78EB7803EB022394F812219BB2A4F806
:102A90000A3122B35D4EB4F8102106EBC202D28A8D
:102AA0009A426FD15A4A0121002000F075FF00239D
:102AB00084F81231B4F81031B4F80A2106EBC306D9
:102AC000B18A02F47F4303EB011312F0FF0F63603E
:102AD00005D0FFF7ADFD94F80A31A4F818310426AB
:102AE000BE425BD1842E1AD0D4F80C21D4F8143114
:102AF0009A426FD1B4F818318BB1464A01210020B7
:102B000000F04AFF0021FF20B4F81831DA1D2244FA
:102B1000FF2B59D909B1A4F81831FFF75BFDD4F8A0
:102B20000C21D4F81431394D9A4214D13A4A01217A
:102B3000002000F031FFB4F810312A8801339BB235
:102B40009A42A4F8103150D0344A0121002000F0FC
:102B500023FFFFF753FD324932480AF0CDF8EA89E6
:102B6000314901A80AF080F801A92E480AF0C4F8FA
:102B7000002011E010F8011F01320B449BB292B209
:102B800001216BE7294A0121002000F005FF2849B7
:102B900024480AF0B1F8072005B0F0BDB4F81821B8
:102BA000A95D531C9BB22244B3F5807FA4F8183171
:102BB000117201D1FFF70EFDD4F80C31013601334B
:102BC000C4F80C31B6B28BE7013302F8010F9BB2A7
:102BD00001219DE7174A0121002000F0DDFE164982
:102BE00010480AF089F80820D6E7012384F81A3142
:102BF000B1E712490B480AF07FF80420CCE700BF88
:102C0000102B08207B2A0820782A0820948007208F
:102C1000DB070D00EC070D00FD070D0002080D009D
:102C200007080D003A2E08209B080D00E0070D0054
:102C3000E9070D00F1070D00FA070D000A080D0065
:102C400008B5064BB3F818310BB1FFF7C3FCBDE86C
:102C50000840034903480AF04FB800BF102B082072
:102C60000D080D003A2E08202DE9F047404C414B4D
:102C70006178414E08291B8822D10222073B93FB31
:102C8000F2F33E480322A6F81E31FFF7CDFB3C4B82
:102C90001022DD8900210135ADB23848DD810AF00E
:102CA0009DF9C0F30B00854208D196F81A312BB379
:102CB00034493548BDE8F0470AF01EB83349F8E713
:102CC0000222043B93FBF2F34FF00808A6F81E31F2
:102CD0000025DFF8C4902A4FB6F81E311FFA85FA96
:102CE00008EB4A01534589B20BD86378053B042BA6
:102CF00032D8DFE803F0212531292D004FF00B08F1
:102D0000E6E74846FFF7FAFB0AF0010ABA449AF8E8
:102D100012306B405840C0B200F00F023A4407EB4B
:102D2000101092F8141190F81421ABB2234402EB66
:102D300001129A700135CFE7BDE8F047FFF726BED4
:102D4000BDE8F047FFF72ABEBDE8F047FFF77CBEBD
:102D5000BDE8F047FFF774BF0D490B4809F0CCFF01
:102D6000BDE8F0470B4A0121002000F015BE00BF6E
:102D7000782A0820302C0820102B0820342E082018
:102D800094800720BC070D003A2E0820BF070D00D5
:102D90005E080D00C2070D00342C082010B5042178
:102DA0001148FFF7ABFB114C062120700E48FFF7CE
:102DB000A5FB0422607011460D48FFF735FB237810
:102DC000202B06D0262B0CD00A49094809F094FF85
:102DD00003E008210220FFF743FCBDE81040FFF7A5
:102DE00035BBFFF741FFF8E7342C0820782A08208C
:102DF0003A2E08205E080D002DE9F34700242746EF
:102E0000A0463E4E002000F0E1FE002003F0C2FF8D
:102E1000012003F0BFFF00F0A5FD394B0122186827
:102E20000DF107010A23806902F067FD002859D0DF
:102E30003378022B18BF00279DF80730B7F5007FC5
:102E4000F35528BF0027F25D7B1C0A2A9BB248D1AC
:102E500000272C4A13803378022B40D1294C238839
:102E60009BB2013BF35C0A2B39D103220121264896
:102E7000757896F802A096F80390FFF7D5FA00212E
:102E8000102221480AF0AAF8204B81B21980238829
:102E9000EDB29BB20A3B99425FFA8AFA5FFA89F96E
:102EA00027D100226C1C54444C4490B2031D814233
:102EB0009BB21AD8043189B20B1DF35C032B18D1D5
:102EC00004221148FFF7B0FA102200210E480AF040
:102ED00085F84440A4B274B9FFF760FF92E701247B
:102EE00090E71F46002C8DD0B5E7F35C01321C44FF
:102EF000DBE786F80080002484E700BF342C08203C
:102F0000D82E0820322C0820342E0820302C0820FF
:102F10001F4B37B51C78002C37D101251D4A294697
:102F200020461D7000F038FD00F048F81A4B1B4891
:102F30001D701B4B4E2218604FF4E13143699847D6
:102F4000032221462846FEF707FF20B123462246EA
:102F50002146FEF727FF134B4FF47A7100930122AD
:102F600000231148FEF7BCFB104B0146186010B956
:102F70000F4A00F011FD012200230E498DE80C00DC
:102F80000D484FF41672FDF7DFFC03B030BD00BFF3
:102F90000E2B082061080D00D42E0820D4810720B4
:102FA000D82E0820F9230C0070080D00D02E082020
:102FB00078080D008F080D00F92D0C0010B50621C2
:102FC000002003F0F5FC034630B1BDE81040034A91
:102FD0000121002000F0E0BC10BD00BFAE080D00D4
:102FE00001234FF48072006803F0F6BC70B5002234
:102FF00004460D210E4803F091FC0646A8B90C4882
:1030000003F077FC10F0040507D00A4A012130468E
:1030100000F0C2FC0120207070BD074A0121284643
:1030200000F0BAFC2570012070BD002070BD00BF0B
:10303000000A0E4010080D0021080D00024B186810
:10304000C0F30750704700BF40090E40024B18689C
:10305000C0F30320704700BF40090E4008B50222AC
:1030600038B10B21044803F059FCB0FA80F0400954
:1030700008BD0C21F6E700BF000A0E4000230360E4
:10308000037143718371C3718360C36003614361E2
:103090008361C3617047000008B5064A0121002022
:1030A00000F07AFCBDE80840034A0121002000F04E
:1030B00073BC00BF50090D0066090D0070B53048A3
:1030C00092B003F0F7F910F0FF0F53D000242C4E0C
:1030D000E5B22946304603F0F5F903024CD5294CF8
:1030E000A06021462648256003F03DFAE36912A955
:1030F0000293A369082241F8443D05A809F0D2FCD7
:103100000022236920460393A3798DF81D208DF8B2
:103110001C3063799B1A18BF01238DF81030FFF71C
:10312000ADFF194919480B68009201330B60134633
:1031300003991D2B50F823201AD0914203F101036B
:10314000F7D10023142203A909A88DF8203009F033
:10315000A9FC694608A800F0CDFA009B53B14FF0D6
:1031600080520B4B1A60BFF34F8FBFF36F8F01E09C
:103170009142E6D012B070BD0134082CA8D1F9E715
:1031800000400B40E02E0820703008207C300820E2
:1031900004ED00E070B5304892B003F08BF910F008
:1031A000FF0F53D000242C4EE5B22946304603F0E1
:1031B00089F903024CD5294CA06021462648256098
:1031C00003F0D1F9E36912A90293A369082241F837
:1031D000443D05A809F066FC236920460393A379C2
:1031E0008DF81C3001238DF81D306379003318BF32
:1031F00001238DF81030FFF741FF002318491948CB
:103200004A68009301324A6003991A18742B926F2E
:103210001AD0914203F10403F7D10123142203A928
:1032200009A88DF8203009F03DFC694608A800F097
:1032300061FA009B53B14FF080520B4B1A60BFF301
:103240004F8FBFF36F8F01E09142E6D012B070BD97
:103250000134082CA8D1F9E700800B40082F082082
:10326000703008207C30082004ED00E02DE9F347A1
:103270000446394D407C394E15F800E081000A18AB
:10328000724406EB4213A2689A61E268DA6122791D
:10329000A2B101225A7122681A610B187344227C70
:1032A00006EB43139A7178B1012804D02C4A01210E
:1032B000002000F071FBDFF8B48007E05A71276846
:1032C000284A02EA8742E7E7DFF8A4800C27DFF804
:1032D000A490637C404603EB8301EB5C194406EB4E
:1032E000411103F07AF901288246637C14D0082149
:1032F000EB5C40469940C9B203F0DEF80522617CE0
:103300006B5C0133DBB2B3FBF2F202EB82029B1A7D
:103310006B5402B0BDE8F087EA5C51460092002091
:103320004A4600F039FB013F0520FDF749FD17F043
:10333000FF07CED151460C4A384600F02DFB4046DF
:10334000637C03EB8301EB5C194406EB411102B093
:10335000BDE8F04703F0C7B8DC2E0820302F082066
:1033600014090D000000FC1F45090D0000800B40F2
:1033700000400B402F090D00014803F06FBC00BF57
:10338000002F0820014803F05BBC00BF002F08207D
:103390002DE9F041044638211A4803F04FFCFFF7AD
:1033A000F1FF2B2003F058F822461749174803F085
:1033B0004BF920B1164A0121002000F0EDFA032557
:1033C0004FF0FF31114803F073F8104803F02BF968
:1033D000A84600260F4C0D4F2046FFF74FFEEB008E
:1033E000093B256084F80480E3716671E66021463C
:1033F0003846013503F083F8082D04F12004EBD1A1
:10340000BDE8F081002F082000BD010500400B4001
:10341000CD080D00302F0820014803F011BC00BF7B
:10342000282F08202DE9F041044636211A4803F0E0
:1034300005FCFFF7F1FF2C2003F00EF82246174998
:10344000174803F001F920B1164A0121002000F0CD
:10345000A3FA03254FF0FF31114803F029F8104873
:1034600003F0E1F8A84600260F4C0D4F2046FFF769
:1034700005FEEB00093B256084F80480E37166716A
:10348000E66021463846013503F039F8082D04F18D
:103490002004EBD1BDE8F081282F082000BD0105F4
:1034A00000800B40ED080D00D02F08200D4938B5E5
:1034B0000846FFF7E3FD002301250B4C0B60CB60B2
:1034C0000A4B20460B610D7103F019F8294620467E
:1034D00002F0ECFF4FF40062054B5A60F02283F8D3
:1034E0002B2338BDE02E082000400B400000FC1FBD
:1034F00000E100E00D4938B50846FFF7BFFD0023A5
:1035000001250B4C0B60CB600A4B20460B610D7103
:1035100002F0F5FF2946204602F0C8FF4FF4805222
:10352000054B5A60F02283F82C2338BD082F082061
:1035300000800B400000FC1F00E100E007B5074BD6
:103540000122009342F2107100230548FEF7C8F8EB
:10355000044B186003B05DF804FB00BF99300C0009
:103560000D090D00783008200023011D02481A467D
:103570000068FEF717BC00BF703108207FB514202B
:10358000FDF71EFC0F4D104C4FF0FF3201A92868CB
:10359000FEF790FD48B19DF81530012B05D801A824
:1035A000FFF764FE1420FDF70BFC0020FDF754FD2F
:1035B0006328E9D82346054A0121002000F0ECF9F0
:1035C000E2E700BF703108207F090D00A7090D0058
:1035D00078220D4B10B502FB0032002352F8234035
:1035E000980044B1A4EB010CDCF1000040EB0C00AE
:1035F0001D2B03D110BD1150012010BD8C4203F1D1
:103600000103EBD1F8E700BF7C300820F7B51A4E74
:10361000074634786CBB01252346019400954FF48E
:10362000967216491648FDF78FF92246142110208C
:10363000FEF792FB134B144A18602946204600F00F
:10364000ABF9FFF77BFF3868FFF7A2FEB868FFF71A
:10365000E9FEFFF72BFFFFF74DFF0C490220357005
:1036600000F040F80320094903B0BDE8F04000F045
:1036700039B803B0F0BD00BF6C3108208E090D00D1
:103680007D350C007031082097090D0069350C005C
:10369000022310B58AB00AAC04F8283D0146142272
:1036A00001A809F0FFF9204600F038F80AB010BD73
:1036B00070B50E460446236823B92660012070BD0C
:1036C0002C46F8E7B342F9D06568002DF8D10821FF
:1036D000012008F0DDFE08B145600560606000284B
:1036E000E9D170BD024B03EBC000FFF7E1BF00BFA3
:1036F000403208200A460146064808B50068002303
:10370000FEF71CFC014620B9BDE80840024A00F063
:1037100043B908BDE8330820DE090D00014603481F
:10372000002305220068FEF73DBB00BFE8330820F8
:1037300010B54FF461628AB0044600F10801D1E986
:103740000001002308F01CFD13430AD12822214662
:10375000684609F0A7F9092368468DF80030FFF79D
:10376000DDFF0AB010BD10B53C228AB0044600F15E
:103770000801D1E90001002308F002FD13430AD13A
:1037800028222146684609F08DF9082368468DF8FD
:103790000030FFF7C3FF0AB010BD000010B5134C96
:1037A0008AB023785A1C132B227017D9104B114A58
:1037B0000421002000F0F0F807230F498DF80030B5
:1037C000D1E90023CDE90223013243F10003684629
:1037D000C1E90023FFF7A2FF0023237006236846F8
:1037E0008DF80030FFF79AFF0AB010BDD9330820DA
:1037F000BB090D0089060D00E033082038B50378B9
:103800000546322B12D80A4C04EBC30423683BB99B
:103810002978084A52F82130013342F8213038BD66
:10382000284698476468002CF0D1F1E738BD00BF06
:10383000403208207431082000B50C4D0C4C8BB080
:103840004FF4FA7269462868FEF734FC10B16846F6
:10385000FFF7D4FF0020FDF7FFFB6328F0D82346D5
:10386000044A0121002000F097F8E9E7E833082036
:10387000C8090D00A7090D00F7B5214E214B224ABA
:103880000121002000F088F83478002C35D1224640
:1038900028213620FEF760FA01251C4B4FF41672E2
:1038A00018601B492346019400951A48FDF74CF80F
:1038B0004FF40763184A009302214FF4CC7303209E
:1038C00000F06AF8154B2A4632210093144823462B
:1038D000FDF706FF0746FDF763F923460246294632
:1038E00000943846FDF722FF0E490F48FFF7E0FE2F
:1038F0000E490F48FFF7DCFE357003B0F0BD00BF86
:10390000D8330820D3090D0089060D00E8330820BC
:10391000EF090D0039380C00FA090D009D370C0035
:10392000310A0D0067370C007832082031370C005F
:103930008032082010B54FF40041074802F05CFFC8
:10394000064C83B21A462046054902F069FF20461C
:10395000BDE8104002F070BF00093D00501A0E4053
:1039600000600010014802F067BF00BF501A0E400F
:103970004FF06043013810F8012F02B97047D3F8B7
:10398000801EC907F7D5D3F8001EC907F3D51968FB
:103990000029FCD01A70EEE70CB437B5184B04467A
:1039A0001B78CBB94FF06045D5F8003EC340DB072C
:1039B00012D5144B1B5C8B420ED307AB6421069AC5
:1039C000114801930AF0D8FD01231049A340A40037
:1039D0002C4411F8012F2AB9002003B0BDE8304073
:1039E00002B07047D5F8800EC007F2D5D5F8000EAA
:1039F0000342EED020680028FCD02270E9E700BF27
:103A00005A340820F0330820F6330820F533082014
:103A100070B5144686B004AA0121204601F042FD8B
:103A200005AA05460221204601F03CFD0023049A28
:103A30000646AB54059A31498354284609F03AF9B1
:103A4000002834D02E49284609F034F988B32D498E
:103A5000284609F02FF970B32B49284609F02AF9B6
:103A600058B32A49284609F025F940B32849284681
:103A700009F020F9002814BF062404242549304603
:103A800009F018F9E8B90120062C18BF224B234A87
:103A900018BF1855012102902B468DE850000020D8
:103AA000FFF77AFF00201E4B187006B070BD044669
:103AB000E4E70124E2E70224E0E70324DEE705244B
:103AC000DCE71849304609F0F5F890B11649304660
:103AD00009F0F0F80028D7D01449304609F0EAF888
:103AE00048B11349304609F0E5F80028CBD104204D
:103AF000CAE70220C8E70320C6E700BF430A0D005B
:103B0000C51F0D004B0A0D00500A0D00560A0D008E
:103B10005A0A0D00630A0D00F0330820830A0D00D5
:103B20005A3408206A0A0D006F0A0D00750A0D004C
:103B30007D0A0D0002220A4B10B501241A700422DE
:103B400008485C70DC709A701C715C7101F07EFC3E
:103B50002146BDE81040044B044A0020FFF71CBF7B
:103B6000F03308200C0B0D00370A0D0089060D00FC
:103B70004FF0FF304FF0FF31014BC3E900017047B8
:103B800070340820012303FA00F0054BD3E9002329
:103B9000024003EAE073134314BF01200020704782
:103BA00070340820012303FA00F0C0430449D1E92E
:103BB0000023024003EAE073C1E90023704700BF1D
:103BC00070340820004870476034082030B50C4C31
:103BD0008BB022780546824203D11220FFF7D2FF34
:103BE00058B11220FFF7DEFF1223684625708DF8CA
:103BF00000308DF80150FFF791FD0BB030BD00BFD4
:103C00006034082010B58CB003F0A2F98DF80A00DA
:103C100003F014FB8DF80C0003F076FB8DF80B001D
:103C200003F0FAFCADF80E0003F038F91C238DF810
:103C30000D000CA800F8283DFFF770FD064B1C682E
:103C4000FCF7AEFF0A230246009301210023204621
:103C5000FDF76CFD0CB010BD78340820FFF7D2BF23
:103C600073B51A4D1A4A01210020FFF795FE03F0A3
:103C70001BF903F085FA03F011FB03F015FC03F0C8
:103C8000D1FC2C7804BB134B012200936421234602
:103C90001148FDF725FD114E114B30600122FA212C
:103CA000009310482346FDF71BFD0F4B3668186044
:103CB000FCF776FF0A230246009301212346304693
:103CC000FDF734FD01232B7002B070BD6C34082069
:103CD0001C0B0D00713B0C00310A0D005C340820F8
:103CE0005D3C0C002B0B0D0078340820024B034A7E
:103CF00001210020FFF750BE310B0D0089060D0099
:103D000013B5214802F034FDC207044618D500233C
:103D10000DF103011C48019302F033FD1B4801AB78
:103D200001220DF10301806901F099FD019B3BB176
:103D30004FF08052164B1A60BFF34F8FBFF36F8F57
:103D4000A3071AD50022114802AB43F8042D0DF148
:103D500003010122C06901F04FFE80B1019B3BB11C
:103D60004FF080520A4B1A60BFF34F8FBFF36F8F33
:103D70009DF80310044802F0FDFC02B010BD0221C2
:103D8000014802F0F3FCF8E700080E40D481072058
:103D900004ED00E00121014802F0E6BC00080E40FD
:103DA000BFF34F8F0449054BCA6802F4E062134326
:103DB000CB60BFF34F8FFEE700ED00E00400FA0593
:103DC0000221014802F0D0BC00080E407FB5274B0D
:103DD00004460E4615460121254A0020FFF7DCFD6A
:103DE000244B1A782AB124490720FFF77BFC04B042
:103DF00070BD0121A26919701AB9602001F052FC4E
:103E0000A061E2692AB901214FF4807001F04AFCF7
:103E1000E06110220021684608F0BAFE174B452DDC
:103E20008DE848001DD04F2D1DD04FF40063029344
:103E30004FF48073124C0820236002F00DFB69469A
:103E4000104802F071FC0F4802F08BFC0D4802F0A4
:103E500085FC01210B4802F087FCF02384F808332D
:103E6000C5E70023E3E74FF40073E0E7430B0D00E1
:103E700089060D007C340820ED3C0C0000BD0105D6
:103E800000E100E000080E40024B034A012100203F
:103E9000FFF782BD540B0D00840B0D0070B5444834
:103EA0008CB002F0C4F9434B04461B78002B35D08C
:103EB000C60716D5002301A93D48029302F0C6F9B2
:103EC0003D4802AB012201A9806901F0C8FC029BB8
:103ED0003BB14FF08052394B1A60BFF34F8FBFF3A5
:103EE0006F8FA5071AD5002233480CAB43F8282D55
:103EF00001A90122C06901F07FFD002852D0029B78
:103F00003BB14FF080522D4B1A60BFF34F8FBFF380
:103F10006F8F9DF80410264802F08FF9284B1B780C
:103F2000002B3DD0A00405D50222264B20481A7054
:103F300002F07FF961040DD5224D1D482E7802F064
:103F400069F9214B43F826002B78194801332B706F
:103F500002F06FF9E2070CD51A4D2B78062B08D822
:103F60001949134801EB830102F070F92B780133F2
:103F70002B70230414D5002301930F230CAC04F8F9
:103F8000283D2022104903A808F08CFD204601A9F5
:103F9000FFF7B0FB02220B4B05481A7002F049F9FB
:103FA0000CB070BD0221024802F03FF9B6E700BF35
:103FB000008009407E340820F481072004ED00E0F1
:103FC0007D3408207F340820B88107200121014872
:103FD00002F029B9008009400221014802F023B90A
:103FE0000080094070B52A4B15461A7886B0044601
:103FF0000E4612B9274A12782AB127490720FFF73F
:1040000071FB06B070BD0121826919701AB9602078
:1040100001F048FBA061E2692AB901214FF48070E8
:1040200001F040FBE0611D4802F084F803211B48C9
:1040300002F0FBF8C023452D0096019304D04F2DCC
:1040400023D04FF4006300E00023029300234FF4D9
:104050000035134C112003930493059302F0FCF9EF
:10406000104A69460D4802F079F80C48256002F0C4
:10407000D7F80A4802F0D1F80121084802F0D3F835
:10408000F02384F811332560BBE74FF40073DCE7BD
:104090007E3408207D340820893E0C0000800940D1
:1040A00000E100E000BD0105F8B52C4B04461A788C
:1040B00012B92B4A16782EB1BDE8F84029490720DD
:1040C000FFF710BB0125284815701E7002F032F86A
:1040D0000321254802F0A9F8112002F0BDF9224879
:1040E00002F093F82146214A1F4802F055F8044691
:1040F00030B1294630461E4ABDE8F840FFF74CBCB7
:104100004FF40037184802F080F8174802F05DF8C5
:10411000154802F05FF82146134802F060F8214686
:10412000114802F063F8134E04210F4802F065F8BD
:1041300029460D4802F043F80B48376002F070F84A
:104140004EF20101084802F06EF8F0230A4A86F8A0
:104150001133294637602046CEE700BF7E34082061
:104160007D340820893E0C000080094000BD010517
:10417000680B0D0000E100E0760B0D00024B034AD6
:1041800001210020FFF708BCA00B0D00840B0D00DF
:1041900013B5214802F04BF8C207044618D5002396
:1041A0000DF103011C48019302F050F81B4801ABCC
:1041B00001220DF10301806901F051FB019B3BB12C
:1041C0004FF08052164B1A60BFF34F8FBFF36F8FC3
:1041D000A3071AD50022114802AB43F8042D0DF1B4
:1041E00003010122C06901F007FC80B1019B3BB1D2
:1041F0004FF080520A4B1A60BFF34F8FBFF36F8F9F
:104200009DF80310044802F018F802B010BD022116
:10421000014802F00AF8F8E700C0094014820720BC
:1042200004ED00E00121014801F0FDBF00C009409C
:104230000221014801F0F7BF00C0094070B5294BC9
:1042400015461A7886B004460E462AB1264907203C
:10425000FFF748FA06B070BD0121826919701AB9DA
:10426000602001F01FFAA061E2692AB901214FF430
:10427000807001F017FAE0611C4801F05BFF032138
:104280001A4801F0D2FFC023452D0096019323D098
:104290004F2D23D04FF40063029300234FF4802569
:1042A000134C122003930493059302F0D5F8114A9E
:1042B00069460E4801F052FF0C48256001F0B0FF3E
:1042C0000A4801F0AAFF0121084801F0ACFFF023E1
:1042D00084F812332560BDE70023DDE74FF4007357
:1042E000DAE700BF803408207D410C0000C009409F
:1042F00000E100E000BD0105024B034A012100205E
:10430000FFF74ABBB40B0D00840B0D0013B5214819
:1043100001F08DFFC207044618D500230DF10301FB
:104320001C48019301F092FF1B4801AB01220DF1E3
:104330000301806901F093FA019B3BB14FF0805279
:10434000164B1A60BFF34F8FBFF36F8FA3071AD5B9
:104350000022114802AB43F8042D0DF103010122A4
:10436000C06901F049FB80B1019B3BB14FF0805225
:104370000A4B1A60BFF34F8FBFF36F8F9DF8031086
:10438000044801F05AFF02B010BD0221014801F0BB
:104390004CFFF8E700000A403482072004ED00E0FB
:1043A0000121014801F03FBF00000A4002210148FD
:1043B00001F039BF00000A4070B5294B15461A7844
:1043C00086B004460E462AB126490720FFF78AF92F
:1043D00006B070BD0121826919701AB9602001F020
:1043E00061F9A061E2692AB901214FF4807001F0FE
:1043F00059F9E0611C4801F09DFE03211A4801F0C3
:1044000014FFC023452D0096019323D04F2D23D0B8
:104410004FF40063029300234FF40025134C132044
:1044200003930493059302F017F8114A69460E4866
:1044300001F094FE0C48256001F0F2FE0A4801F0FC
:10444000ECFE0121084801F0EEFEF02384F813335E
:104450002560BDE70023DDE74FF40073DAE700BF16
:1044600081340820F9420C0000000A4000E100E01D
:1044700000BD010513B50446C0698DF8071060B191
:104480000A2301220DF1070101F060F9636803B10D
:1044900098479DF8070002B010BD4FF0FF30FAE7D3
:1044A00010B50A230446C06901F050F918B9054A4D
:1044B0000121FFF771FA636813B1BDE81040184796
:1044C00010BD00BFC80B0D000EB433B5114C05462E
:1044D0002068C8B16421FDF795FEA8B106AB059A26
:1044E0004FF480710C4801930AF046F80A4808F02E
:1044F00081FC094902462846FFF7D2FF00232068C5
:104500001A461946FDF74EFC002002B0BDE83040C7
:1045100003B07047843508208234082010B5044C5D
:1045200023681BB90120FDF7F7FC206010BD00BF18
:104530008435082010B5037886B0072B0FD10B4CBB
:1045400000F01CF823685A1C0BD1206018238DF84A
:104550000030236868468DF8083006F0DBFF06B0AF
:1045600010BD9842F2D0FCF7A9F8EFE7548207207B
:1045700001490720FFF7B6B835450C00084BD86B4A
:10458000DB6B80F020001A06064BC0F34010DB6B9B
:1045900058BF40F002001B0258BF40F004007047B3
:1045A000000E0E4000100E40F0B585B00E460546D8
:1045B00004F037F907460B4B1C78231F5C425C4123
:1045C00003F0AAFB084B014653F8273002940193ED
:1045D0000023324600932846042306F074FA05B0FF
:1045E000F0BD00BF943508201C0E0D00F0B585B05D
:1045F0000E46054604F015F907460B4B1C78E31EE2
:104600005C425C4103F088FB084B014653F82730BD
:10461000029401930023324600932846032306F0B8
:1046200052FA05B0F0BD00BF94350820CC0C0D0047
:10463000F0B585B00E46054604F0F3F807460B4B7F
:104640001C78A31E5C425C4103F066FB084B0146EC
:1046500053F82730029401930023324600932846F2
:10466000022306F030FA05B0F0BD00BF94350820F3
:10467000D00D0D00F0B585B00E46054604F0D1F81A
:1046800007460B4B1C78631E5C425C4103F044FB05
:10469000084B014653F82730029401930023324619
:1046A00000932846012306F00EFA05B0F0BD00BFC6
:1046B00094350820800C0D00F0B585B00E460546F7
:1046C00004F0AFF807460A4B1C7803F025FB094BB2
:1046D000B4FA84F453F827306409019300230146A7
:1046E000029400933246284606F0EDF905B0F0BD7D
:1046F00094350820E80B0D0073B5044604F091F8DA
:10470000064603F013FB084B0546186805F028FE23
:10471000064B024653F82630294600932046812353
:1047200006F0D2F802B070BD90350820840D0D005F
:1047300073B5044604F075F8064603F0F7FA084B23
:104740000546186805F00CFE064B024653F8263065
:10475000294600932046802306F0B6F802B070BDCB
:104760008C350820F8100D00F0B585B00F460646D0
:1047700004F057F804460E4B1A780E4B1B789A42F9
:1047800016BF0D4B0D4D53F8205003F0C5FA0C4BDE
:10479000032253F8243001460293002303958DE849
:1047A0000C00304682233A4606F0D0F805B0F0BD42
:1047B0009435082089350820680E0D00180D0D006D
:1047C000340C0D00F0B51D4C85B023781C4A06460C
:1047D0000F4600200121FFF7DFF8257804F021F8CB
:1047E0000446042D23D8DFE805F026031C201E0014
:1047F000144B53F8244004F014F8054603F08CFAE7
:10480000114B032253F825300146029300230394F1
:104810008DE80C00304681233A4606F097F805B043
:10482000F0BD0A4BE5E70A4BE3E70A4BE1E700215D
:10483000012003F051F8084BDBE700BF9435082056
:10484000780D0D00800C0D00840D0D00D00D0D00B5
:104850001C0E0D00CC0C0D00E80B0D0010B514461D
:1048600010B909B9012A22D0812C07D0822C0ED090
:10487000134B186805F08EFD802004E0114B18687A
:1048800005F088FD8120BDE8104005F0B5BC0E4B59
:1048900019780E4B1B788B42F4D0012003F01CF8E2
:1048A0004FF47A70FCF78CFA02F05CFCEAE78020A7
:1048B00005F0A2FCBDE81040014B186805F06ABD88
:1048C0008C3508209035082094350820893508203B
:1048D000F7B503782A2B25D14778012F22D1857887
:1048E000C678047905F0B8FC034668B9802C0BD172
:1048F000194A3946FFF750F822463146284603B098
:10490000BDE8F040FFF7AABF1A060BD5802BF3D005
:10491000812B09D00021019400962B460F4A0846AE
:10492000FFF73AF803B0F0BD23460D4A01210020FD
:10493000FFF732F80B4B0C4A1C7001212346002074
:10494000FFF72AF805F076FC084B186803B0BDE8BD
:10495000F04005F01FBD00BF360D0D00510D0D00DC
:10496000480D0D0094350820780D0D008C35082079
:10497000F8B503781D2B39D14678012E36D1304653
:1049800002F0A4FF1A4C1B4D0346207028701A48F1
:1049900007785FBB0670042B17D8DFE803F0030726
:1049A0000D140F00012000F0AFF901E000F0D0FA83
:1049B000BDE8F84004F038BD0020F4E70020BDE871
:1049C000F84000F08DBC0120F9E70C4A01210020DD
:1049D000FEF7E2FF0120002102F07EFF002301200C
:1049E0002B702370BDE8F84000F08EB9F8BD00BF11
:1049F0008935082094350820883508201A0D0D00C7
:104A000010B5054C0421206805F05CFC20680521E8
:104A1000BDE8104005F056BC9035082009207047CD
:104A200010B504460F4A002105F05EFC20460E4AF0
:104A3000012105F059FC20460C4A022105F054FCE6
:104A400020460B4A032105F04FFC2046094A042169
:104A500005F04AFC2046BDE81040074A052105F054
:104A600043BC00BFF9460C00B9460C0075460C006B
:104A700031460C00ED450C00A9450C0010B504466C
:104A8000074A002105F030FC2046064A012105F0C6
:104A90002BFC2046BDE81040034A022105F024BC4F
:104AA00031470C00C5470C0069470C0008B50020D1
:104AB00000F0AEFC05F054FA05F044FA04F0A6FC50
:104AC0000B491D20FEF70EFE0A492A20FEF70AFEBA
:104AD00005F0E4FB084B1860FFF7D0FF05F0DEFBA4
:104AE000064B1860FFF79CFFBDE80840FFF788BF42
:104AF00071490C00D1480C008C35082090350820F5
:104B00000378262B02BF4278014B1A70704700BF12
:104B10009C35082070470000064B187838B1064BCA
:104B2000187820B1054B1878003018BF0120FFF726
:104B30004DB800BF598207205A82072058820720AB
:104B40000378002B49D1437D002B46D14268234B8B
:104B50009A4242D1037B427B214902EB032292B26B
:104B6000B2F5004F1F4B06D101221A700A700321C3
:104B7000187802F039BEB2F5804F03D103221A70C3
:104B80000122F3E7B2F5005F01D10B22F7E7B2F59E
:104B9000805F01D10522F2E7B2F5006F01D1072253
:104BA000EDE7402A01D10922E9E7B2F5007F06D1FD
:104BB0000D4A1278052A0CBF11221522DFE7B2F543
:104BC000807F01D11322DAE70A7822B11A78013204
:104BD0001A700022CAE71A70C9E770470040280619
:104BE0009D350820953508209C35082038B5027879
:104BF0000346CAB9407DB8B959680C4A914213D1ED
:104C000001211A7B5C7B0A4D04EB02243F2CC8BFB8
:104C1000084602F057F92B689C4205D019206043E2
:104C2000800802F02FFD2C6038BD00BF0040390421
:104C3000983508200346407D48B95968044A914296
:104C400005D15B7B9B0658BF012002F035BB704746
:104C5000004021020346407D48B95968044A914208
:104C600005D1DB7C5B0758BF012002F037BC7047E1
:104C70000140210410B40378A3B9447D94B942687B
:104C8000094B9A420ED10121837B084A13F040035D
:104C9000074818BF147010BC12BF01700370117068
:104CA000FFF73ABF10BC704700402106588207202A
:104CB000963508200378132B0CD183781BB1012B78
:104CC00005D0FFF729BF4278034B1A70F9E7427805
:104CD000024BFAE7704700BF598207205A8207202B
:104CE00038B50378072B0AD1054B1B783BB100245C
:104CF000044D28191434FEF7CBFC8C2CF9D138BDA7
:104D00009635082054110D001FB503460446284A65
:104D100001210020FEF740FE10220021684607F026
:104D200037FF322368460093FEF770FCFEF724FB42
:104D300020490020FEF74CFC1F490020FEF748FCEC
:104D40001E490020FEF744FC1D490020FEF740FCF0
:104D50001C490020FEF73CFC1B490020FEF738FCF4
:104D60001A491320FEF7BEFC1CB119490720FEF7B3
:104D7000B9FC18490020FEF7B5FC17490020FEF7E2
:104D8000B1FC16490020FEF7ADFC15490020FEF7E6
:104D9000A9FC14490020FEF7A5FC13492620FEF7C4
:104DA000A1FC12492B20FEF79DFC04B010BD00BFF2
:104DB00044110D00004021060040090E014021046D
:104DC000004021020040390400402806B54C0C0088
:104DD000E14C0C00754C0C00554C0C00354C0C0093
:104DE000ED4B0C00414B0C00014B0C00154B0C0023
:104DF0000378002B44D1437D002B41D14268214BE5
:104E00009A423DD1037B427B1F4902EB032292B2BF
:104E1000B2F5004F1D4B06D101221A700A70032112
:104E2000187802F0E1BCB2F5804F03D103221A706A
:104E30000122F3E7B2F5005F01D10B22F7E7B2F5EB
:104E4000805F01D10522F2E7B2F5006F01D10722A0
:104E5000EDE7402A01D11522E9E7B2F5007F01D143
:104E60001122E4E7B2F5807F01D11322DFE70A784F
:104E700022B11A7801321A700022CFE71A70CEE7F9
:104E8000704700BF00402806A43508209E35082042
:104E900038B502780346B2B9407DA0B959680A4ACC
:104EA000914210D1642401219B7B084D5C433F2C2F
:104EB000C8BF084602F006F82B689C4203D0204683
:104EC00002F0E0FB2C6038BD0302F00CA035082096
:104ED0000346407D50B95968054A914206D193F97D
:104EE0000C30002BA8BF012002F0E6B9704700BFCC
:104EF00021C3FF180346407D48B95968044A9142CE
:104F000005D15B7B9B0758BF012002F0E7BA7047D1
:104F100021C3FF180378132B14D182780A4B52B1A6
:104F2000012A0BD0187820B1084B1878003018BF30
:104F30000120FEF74BBE42781A70F3E74178034A2E
:104F40001170EFE7704700BF5B8207205C8207208B
:104F50001FB51C4A01210020FEF71EFD1022002172
:104F6000684607F015FE4FF4FA7368460093FEF7A3
:104F70004DFBFEF701FA14490020FEF729FB134907
:104F80000020FEF725FB12490020FEF721FB114906
:104F90000020FEF71DFB10491320FEF7A3FB0F496D
:104FA0000020FEF79FFB0E490020FEF79BFB0D49FA
:104FB0000020FEF797FB0C490020FEF793FB05B09D
:104FC0005DF804FBE0110D000040280600A0180A5F
:104FD00021C3FF180302F00C154F0C00F54E0C0016
:104FE000D14E0C00914E0C00F14D0C0010B5037821
:104FF000002B57D1437D002B40F090804268484BF6
:105000009A4240F08B80837B427B1B0203EB02437E
:10501000C27B444C1344B3F5807F02D1012323703B
:1050200011E0B3F5806F05D10323012223703E4BBD
:105030001A700AE0B3F5805F01D10B23F5E7012B6D
:105040000DD105222270384A13702278374B032184
:10505000BDE810401A70354B187802F0C5BB042B20
:1050600001D10723E1E7102B01D10923DDE7B3F5D7
:10507000802F0FD12E4A01210020FEF78DFC2D4BF1
:105080001B78052BE1D12C4B1B78012B0CBF112376
:105090001323CAE7B3F5801F234B36D115222270A4
:1050A0000122C5E70F2B39D10379002B36D1037AC2
:1050B000552B33D1037B0C2B30D10269037F194C64
:1050C00043EA02634269120402F47F0213438269D5
:1050D000120292B21343194A93429FD0B3F1022FA6
:1050E000A2D0174A9342A8D0164A934201D1052371
:1050F0009BE7154A9342B4D0B3F5813FB5D0134A2C
:105100009342B7D0124A9342C6E71A7822B1227866
:105110000132227000228BE7227096E710BD00BF9B
:1051200021FFA718A6350820AE350820A535082090
:105130004E120D00AD350820AC35082000020001EC
:1051400000020004000200080002001000020040FB
:105150000002020003782B2B0BD14378054AC3F3DE
:1051600003031370012103F00F03034A0020FEF72D
:1051700013BC7047AC35082021120D000378262B94
:1051800007D14378034A012113700020024AFEF739
:1051900003BC7047AD35082038120D0070B5037898
:1051A0000446002B33D1407D002830D16268184B73
:1051B0009A4213D10121237B657B164E05EB032513
:1051C0003F2DC8BF084601F07DFE33689D4205D0E3
:1051D00019206843800802F055FA356062680E4B6A
:1051E0009A4214D10121237B647B0A4D04EB0324F2
:1051F0003F2CCCBF0846002001F064FE2B689C4287
:1052000005D019206043800802F03CFA2C6070BD84
:1052100000403904A835082000A0280A10B504462B
:10522000407DC0B962680C4B9A4207D1637B03F0A2
:105230006803682B18BF012002F03EF86268074B34
:105240009A4208D1637BBDE810409B064CBF00200A
:10525000012002F031B810BD0040210200A0180A60
:1052600010B50446407DB8B962680C4B9A4206D12D
:1052700094F90C30002BA8BF012002F02FF96268CE
:10528000074B9A4208D1E37CBDE810405B074CBF56
:105290000020012002F022B910BD00BFC940310634
:1052A00001A0180A0378132B14D182780A4B52B14B
:1052B000012A0BD0187820B1084B1878003018BF9D
:1052C0000120FEF783BC42781A70F3E74178034A65
:1052D0001170EFE7704700BF5D8207205E820720F4
:1052E0001FB5044610220021684607F051FC002C2F
:1052F0004FD1354A01212046FEF74EFB3349204667
:10530000FEF766F932492046FEF762F93149204638
:10531000FEF75EF930492046FEF75AF92F4920463C
:10532000FEF756F9322300932D492620FEF7DAF9CD
:105330002C492B20FEF7D6F94FF49640FEF7B4FE29
:105340006846FEF763F928490020FEF7CBF92749A4
:105350000020FEF7C7F926490020FEF7C3F92549CA
:105360000020FEF7BFF924490020FEF7BBF92249CF
:105370000F20FEF7B7F91C491320FEF7B3F9002000
:1053800001F008FD012001F00DFDFDF7F5FF04B06F
:1053900010BD012CC8D1194A21460020FEF7FCFAA5
:1053A00017490020FEF714F916490020FEF710F9FE
:1053B00015490020FEF70CF914490020FEF708F902
:1053C0004FF4FA73AFE700BFF2110D000040210265
:1053D000004039040040210600403106C940310632
:1053E0007D510C0055510C00A5520C0061520C006F
:1053F0001D520C009D510C00ED4F0C0009120D00C8
:1054000000A0180A01A0180A00A0280A21FFA71866
:10541000014B1870704700BFAF35082010B5094C1C
:105420000A4623680BB9084B236023681B68596838
:1054300007F00EFD236858682060003018BF012077
:1054400010BD00BFB03508206482072038B505467E
:1054500048B94FF0A00383F31188BFF36F8FBFF3F8
:105460004F8F00BFFDE70820FCF7E0FA044648B97B
:105470004FF0A00383F31188BFF36F8FBFF34F8FFB
:1054800000BFFDE7FBF75CF900236360044B256078
:105490001A681C605460FBF763F9012038BD00BF37
:1054A00060820720002330B513608B4217D004467A
:1054B00010F8015B9DB1202DF9D125782046202DD3
:1054C00004F10104F9D055B101339942EDD1411EE7
:1054D00011F8013F13F0DF0F136802D123B9002048
:1054E00030BD01331360F3E730BD82684368006864
:1054F0001344181A824298BF801A7047F8B50D46B7
:1055000004465521284617461E4607F041FB8542B2
:1055100009D04FF0A00383F31188BFF36F8FBFF35F
:105520004F8F00BFFDE724220021204607F030FB0B
:105530009DF81830A5612377A760E660F8BD2DE9D6
:10554000F0410546884617464AB94FF0A00383F359
:105550001188BFF36F8FBFF34F8F00BFFDE7446823
:1055600083681E1B964228BF1646A219934209D291
:105570004FF0A00383F31188BFF36F8FBFF34F8FFA
:1055800000BFFDE780693246204407F08BFAB7423E
:1055900012D9AB68BA1B9A4209D94FF0A00383F322
:1055A0001188BFF36F8FBFF34F8F00BFFDE708EB8C
:1055B0000601A86907F076FAAB683C449C4228BF14
:1055C000E41A6C603846BDE8F08137B504460D46F4
:1055D0000192BBB1017FC9070AD49A4294BF0192DC
:1055E0000193019A29462046FFF7A9FF034609E0E7
:1055F000069A934205D304220DEB0201FFF79FFFA9
:10560000EFE70023184603B030BD9A422DE9F84376
:10561000164628BF1E46074689469046002E3ED0B5
:10562000046883681D1BB54228BF3546AA4209D2CB
:105630004FF0A00383F31188BFF36F8FBFF34F8F39
:1056400000BFFDE76219934209D24FF0A00383F334
:105650001188BFF36F8FBFF34F8F00BFFDE78169E4
:105660002A462144484607F01DFAAE4211D9B045FA
:1056700009D24FF0A00383F31188BFF36F8FBFF3FC
:105680004F8F00BFFDE7721BB96909EB050007F0FA
:1056900009FABB6834449C4228BFE41A3C60304697
:1056A000BDE8F883012AF7B50C460BD1042814D8BD
:1056B0004FF0A00383F31188BFF36F8FBFF34F8FB9
:1056C00000BFFDE7B0B94FF0A00383F31188BFF32B
:1056D0006F8FBFF34F8F00BFFDE71546A0420BD27F
:1056E0004FF0A00383F31188BFF36F8FBFF34F8F89
:1056F00000BFFDE70025F1E7002C00F1010700F1F4
:10570000250008BF0124FCF791F9064630B1009549
:1057100023463A4600F12401FFF7F0FE304603B07D
:10572000F0BD48B94FF0A00383F31188BFF36F8F2A
:10573000BFF34F8F00BFFDE7826803684168D01850
:105740000138401A824298BF801A70472DE9F04311
:1057500087B0044616460393894649B94FF0A00323
:1057600083F31188BFF36F8FBFF34F8F00BFFDE747
:1057700048B94FF0A00383F31188BFF36F8FBFF3D5
:105780004F8F00BFFDE7037FDB070DD502F1040853
:1057900042450AD34FF0A00383F31188BFF36F8F04
:1057A000BFF34F8F00BFFDE79046039B2BBB204606
:1057B000FFF7B7FF0746CDF800803B463246494623
:1057C0002046FFF702FF054698B12046FFF78DFE01
:1057D000E36898420DD3FBF7DBF923693BB1002363
:1057E00020691A461946FBF7ADFD00232361FBF73C
:1057F0006FFA284607B0BDE8F08304A8FBF7BEFBAC
:10580000FAF79EFF2046FFF78CFF8045074623D915
:105810000020FBF79BFE65694DB14FF0A00383F3B9
:105820001188BFF36F8FBFF34F8F00BFFDE7FBF70A
:1058300023FC6061FAF794FF2946039B2A46284619
:10584000FBF73CFD656103A904A8FBF7C1FB002839
:10585000D6D0002FAFD1AAE7FAF782FFF9E72DE9FA
:10586000F3410446154698460E4649B94FF0A00349
:1058700083F31188BFF36F8FBFF34F8F00BFFDE736
:1058800048B94FF0A00383F31188BFF36F8FBFF3C4
:105890004F8F00BFFDE7037FDB074CBF171D174687
:1058A000FFF73FFF2A460346009731462046FFF7A1
:1058B0008CFE0546E8B12046FFF717FEE3689842E4
:1058C00017D3EFF311864FF0A00383F31188BFF3D2
:1058D0006F8FBFF34F8F23694BB1002320691A46A6
:1058E0001946CDF80080FBF7A3FD0023236186F362
:1058F0001188284602B0BDE8F0812DE9F74304463F
:1059000017469946884649B94FF0A00383F311889A
:10591000BFF36F8FBFF34F8F00BFFDE748B94FF064
:10592000A00383F31188BFF36F8FBFF34F8F00BFC6
:10593000FDE7037F13F0010F14BF04260026B9F121
:10594000000F26D0FAF7FCFE2046FFF7CEFD864278
:10595000054611D30020FBF7F9FD23694BB14FF049
:10596000A00383F31188BFF36F8FBFF34F8F00BF86
:10597000FDE7FBF781FB2061FAF7F2FEAE4212D39E
:1059800000224B4611461046FBF798FC00232046A8
:105990002361FFF7AAFDB042054604D8002528463A
:1059A00003B0BDE8F0837EB12B46324601A9204604
:1059B000D4F80090FFF729FE019BAD1B9F4236BF34
:1059C00000271F46C4F800902B463A464146204621
:1059D000FFF71BFE05460028E0D0FBF7D9F8636906
:1059E0003BB1002360691A461946FBF7ABFC002364
:1059F0006361FBF76DF9D2E72DE9FF4704461646D0
:105A00009946884649B94FF0A00383F31188BFF344
:105A10006F8FBFF34F8F00BFFDE748B94FF0A00372
:105A200083F31188BFF36F8FBFF34F8F00BFFDE784
:105A3000037F13F0010F14BF04270027FFF755FD64
:105A40008742054604D30025284604B0BDE8F08708
:105A50007FB103463A4603A92046D4F800A0FFF7D9
:105A6000D4FD039BED1B9E4236BF00261E46C4F8A4
:105A700000A02B46324641462046FFF7C6FD0546AC
:105A80000028E0D0EFF311864FF0A00383F31188D4
:105A9000BFF36F8FBFF34F8F63694BB10023606912
:105AA0001A461946CDF80090FBF7C2FC002363614B
:105AB00086F31188C8E7012300F01F02400900F5B2
:105AC000001000F20770934040020A074CBF436683
:105AD00003668A064CBF0365436511F0C00F14BF0F
:105AE000036243620A064CBFC0F88430C0F88030BD
:105AF000026FC9074CBF134322EA030303677047D1
:105B00004FF4003208B5074B00215A604FF4802251
:105B100011205A60FFF7CFFFBDE808400021122096
:105B2000FFF7C9BF000E0E402DE9F74F4FF00108F7
:105B30000226B54D0B2000F08FFC0C2000F08CFCF1
:105B40006E614046C5F8A0600021C5F81080C5F818
:105B5000A0806E60C5F80480FFF7ADFF0021084605
:105B6000FFF7A9FF4FF480424FF40043A74C0021F8
:105B700063612F20C4F8A0302261C4F8A0206360C4
:105B800062600192FFF797FF00212E20FFF793FF3D
:105B90004FF080732361C4F8A03023634FF4800377
:105BA0004FF4007723610821C4F8A03023634FF439
:105BB000807308466B61C5F8A0302F61C5F8A070EE
:105BC0006B606F60FFF777FF08210920FFF773FF15
:105BD0004FF480636B61C5F8A0304FF400632B6114
:105BE000C5F8A0304FF480636B604FF400634FF44E
:105BF000805B6B6008210A20FFF75DFF08210B2006
:105C0000FFF759FFC5F814B00021C5F8A0B00C206B
:105C1000C5F804B0FFF74FFF4FF4005308212B6184
:105C20000D20C5F8A0306B60FFF745FF4FF400135F
:105C30004FF4801A63610021C4F8A03035206360FE
:105C4000FFF739FFC4F810A00821C4F8A0A0342041
:105C5000C4F804A0FFF72FFFFFF752FF26610423CB
:105C6000C4F8A06026630826C4F810804FF04009ED
:105C7000C4F8A0804FF00071C4F830802661C4F8E9
:105C8000A06026632361C4F8A03023632023C4F8F6
:105C900010900320C4F8A090C4F810B0C4F8A0B0CD
:105CA0002761C4F8A0702361C4F8A0302161C4F852
:105CB000A010C4F83490C4F834B0676363630093F1
:105CC00061636E613146C5F8A060FFF7F4FE27619D
:105CD000C4F8A07067604FF4803741462920FFF771
:105CE000EAFE6F613146C5F8A0701020FFF7E3FEB1
:105CF00067613146C4F8A0703020FFF7DCFE4FF436
:105D0000003104234FF400274FF080086161019AAD
:105D1000C4F8A0106B61C5F8A030009BC5F810A0B6
:105D20003146C5F8A0A00520C5F834A02F61C5F8FC
:105D3000A0706F632A61C5F8A0206A636B61C5F823
:105D4000A030FFF7B8FEC5F814803146C5F8A08032
:105D50000720FFF7B0FE10204FF400014FF480033E
:105D6000C5F81090C5F8A0902861C5F8A000296179
:105D7000C5F8A0102B61C5F8A0304FF080732B61DF
:105D8000C5F8A0304FF4005327614FF48022C4F8C7
:105D9000A070C4F81080C4F8A0802361C4F8A030BB
:105DA0004FF480732261C4F8A0202361C4F8A030AE
:105DB0004FF480634FF400662361C4F8A0304FF0C5
:105DC00080632361C4F8A0302661C4F8A060C5F8E0
:105DD0003490686369634FF4800169634FF08071A8
:105DE00069634FF400516763C4F834806163626390
:105DF0004FF4807262634FF4806262636363666330
:105E000003B0BDE8F08F00BF000E0E4000100E4042
:105E10002DE9F74F01264FF00208B14D0B2000F09D
:105E20001BFB0C2000F018FBC5F814803046C5F8A9
:105E3000A08000212E61C5F8A060C5F804806E60C6
:105E4000FFF739FE00210846FFF735FE4FF4804981
:105E50004FF40043A34C002163612F20C4F8A0300D
:105E6000C4F81090C4F8A0906360C4F80490FFF7E1
:105E700022FE00212E20FFF71EFE4FF080734FF40C
:105E800080072361C4F8A03023634FF48073276137
:105E90004FF4007AC4F8A07027636B61C5F8A03096
:105EA0004FF48063C5F810A0C5F8A0A0C5F830A0D5
:105EB0006B61C5F8A0304FF400634FF400322B61E2
:105EC0004FF4805BC5F8A0302B634FF40053C5F846
:105ED00014B00821C5F8A0B011202B61C5F8A0307E
:105EE0002B636A61C5F8A0200192FFF7E4FD4FF42F
:105EF000802308216B611220C5F8A030FFF7DBFD7D
:105F0000C4F810800423C4F8A0804FF00051C4F8F6
:105F1000308026614FF04008C4F8A0602663082650
:105F20002661C4F8A06026632361C4F8A03023630F
:105F300000932963C4F830B02961C5F8A010C4F8F3
:105F400010804FF00071C4F8A080C4F810B0C4F8FD
:105F5000A0B04FF0200BC4F810A0C4F8A0A0C4F863
:105F600010B0C4F8A0B02161C4F8A010C4F8348007
:105F7000C4F834A04FF4803AC4F834B01020616300
:105F80003146C5F814A0C5F8A0A0FFF794FDC4F8E9
:105F900014A03146C4F8A0A03020FFF78CFD6E613C
:105FA0003146C5F8A0600320FFF785FD019A009BEC
:105FB00062614FF4002AC4F8A0206B61C5F8A030DC
:105FC0004FF480132B61C5F8A0306B63C5F810A0A7
:105FD000C5F8A0A0C5F834A0C5F81090C5F8A090E9
:105FE000C5F834904FF08009C5F814B0C5F8A0B0DA
:105FF0004FF4000B31460520FFF75DFDC5F8149006
:106000003146C5F8A0900720FFF755FDC4F814B03D
:106010003146C4F8A0B03720FFF74DFD10224FF0F5
:106020008073C5F81080C5F8A0802A61C5F8A0204B
:10603000C5F810B0C5F8A0B02F61C5F8A0702B61ED
:10604000C5F8A0304FF40053C4F810A0C4F8A0A0C5
:10605000C4F81090C4F8A0902361C4F8A0304FF4A5
:1060600080232361C4F8A0304FF480732361C4F807
:10607000A0304FF480634FF400612361C4F8A03076
:106080004FF080632361C4F8A0302161C4F8A010F0
:10609000C5F834806A634FF08072C5F834B06F631E
:1060A0006A634FF40052C4F834A0C4F834906263B9
:1060B0004FF4802262634FF4807262634FF4806217
:1060C000626363634FF4004361636B61C5F8A030A2
:1060D0004FF400136B61C5F8A03003B0BDE8F08F3A
:1060E000000E0E4000100E40B2EB011F30B52CBF69
:1060F0001024082461434B0803EBC202B2FBF1F207
:106100004FF6FE73D1084D1E9D4210D8082C08BFD3
:1061100043684FEA024202F4E02208BF43F400233E
:1061200042EA010208BF43600262002030BD012044
:1061300030BD0000084BC0F8E430002343604362E8
:10614000836288230360242303604FF48073036019
:106150004FF40023036070470041535570B5054666
:106160000C46FFF7E7FF00230A4E336009B9012010
:1061700070BD0968FFF7B8FF0028F8D1A26863680E
:10618000134322691343E26813436A68336013437D
:106190006B6070BDB435082010B5FFF7CBFF10233E
:1061A000036040230360436823F00F0343F00B03B5
:1061B0004360FFF799FF003018BF012010BD436D09
:1061C00023F00303194341657047436D23F0040333
:1061D00043657047436D23F0080343657047436D83
:1061E00023F0100343EA011141657047436D23F02A
:1061F000200343EA411141657047436D013923F49F
:106200007F4343EA012343657047436D23F48033A2
:1062100043657047806DC0B270474023036070478C
:1062200010230360704781607047C1607047406908
:1062300070474FF480730360704743699B0743BF07
:10624000C1F30801C1610020012070474369DB07E9
:1062500041BF83690020C3F308030B6058BF0120CE
:10626000704700000E4B1A6B22F003021A6340F6CF
:106270000102996E09070BD51A6B22F070021043C8
:1062800040F601021863996E090705D50020704792
:10629000013AEED101207047013AF4D1FAE700BF8C
:1062A00000060E400F4B1A6B22F0030242F001026F
:1062B0001A6340F60102996E09070BD51A6B22F09A
:1062C0007002104340F601021863996E090705D564
:1062D00000207047013AEED101207047013AF4D115
:1062E000FAE700BF00060E400F4B1A6B22F0700257
:1062F000104340F601021863996E08070CD51A6B1B
:1063000022F0030242F002021A6340F60102996E83
:10631000090705D500207047013AEDD101207047EB
:10632000013AF4D1FAE700BF00060E40054B586968
:1063300010F080001FBFA3F5A053103B986EC0F370
:10634000C0107047101A0E40174B10B51A6A12F0A1
:10635000010F1A6A1FD0002122F45C1222F0780289
:1063600042F45C1242F0080202431A629A6E9203EF
:10637000FCD51A6A22F09B7222F4803242F45C123D
:106380001A6239B11A6A22F45C1222F0010242F454
:106390005C121A6210BD054C0549144021430143AB
:1063A00019620121E2E700BF00060E408600C8FF27
:1063B00009FF3700044A136A23F45C1323F07803BF
:1063C00043F45C131362704700060E40034A136ADD
:1063D00023F0030343F45C131362704700060E407E
:1063E0000E4A136A28B10E4919400E4B0B43136233
:1063F000704723F45C1323F00303090243F45C1396
:1064000089B243F001030B431362936EDB07FCD5A3
:10641000136A43F09B7343F48033E8E700060E40B1
:10642000FCFFC8FE02003701024B986E00F480307A
:10643000704700BF00060E404FF00052014B9A62B9
:10644000704700BF00060E40024B986E00F002003D
:10645000704700BF00060E402C2818D81F280D4A90
:106460004FF0010308D8916903FA00F030EA010304
:1064700000D01061002070472038D2F8081103FACC
:1064800000F030EA0103F5D0C2F80001F2E7012084
:10649000704700BF00060E40034BC0F312001A6F96
:1064A00010431867704700BF00060E4041607047F8
:1064B0008160704700697047436A23F0FF03194306
:1064C0004162704700EB4111D1F8100270478B799F
:1064D0000A781B0403F4702343F4000300EB42101A
:1064E000C0F81C3270478B790A781B0403F47023C0
:1064F00043F4800300EB4210C0F81C3270470A7866
:106500000B7930B500EB421063B9C0F80032C0F827
:106510000432C0F80832C0F81432C0F81832C0F89B
:106520001C3230BDD0F80022CC7922F4702242EA2D
:106530000442C0F800224D79CC680A6985B144F064
:106540000054C0F8044242F00052C0F80822D0F8CB
:10655000002222F0E06242EA0363C0F8003230BD5C
:10656000C0F80442F1E78A6870B502F0C073B3F175
:10657000C07F14BF002402240B78C2F303425B01E6
:10658000C518D5F80C62042A8A7126F060464E615F
:10659000D5F8146288BFD5F818228E6188BFCA6109
:1065A000C218D2F8102203448A60D201D3F808221C
:1065B000D3F8083248BF44F0040412F000521DBF63
:1065C00023F060430B6101239B0C12BF4B710B61E5
:1065D0004A71FFF77CFF204670BD0A7830B5520142
:1065E0008418D4F810328B601B021AD54D790B69D0
:1065F0000DB143F00053C4F808328B698418C4F815
:1066000014328B791044042B88BFC9694FEA0343C5
:1066100003F4702388BFC4F81812C0F81C3200209D
:1066200030BD012030BD30B50024054689B08DF85D
:1066300004400094694628460134FFF760FF082CA7
:10664000F7D109B030BD0000F8B546F2A8130446F2
:1066500003FB02F00B18013BB3FBF0F3802B01D9D5
:106660000020F8BD4FF4FA505043B0EB510FF7D86B
:106670004FF47A7308265A434FF0FF373346B1FB85
:10668000F0F5802D06D800FB1515BD4202D23DB1B4
:106690002F461E460133DBB21A2B1044EFD133468E
:1066A0005A43B1FBF2F1C9B20129D9D906202268B7
:1066B000083B22F001022260194A013900FB032243
:1066C00093785078013B01381B01000200F4E06030
:1066D00003F070030343D07812790138013A00F0D7
:1066E0000700120302F4405203430904134301F468
:1066F000FE01194320466161FFF795FF0020024625
:10670000236843F001032360064B920204D49842AD
:10671000A6D022690130F8E7C01A18BF0120F8BDE1
:10672000A0120D00A0860100AC2310B54A680360DA
:106730000B68B3FBF2F34FF6FE721B095C1E94422A
:106740000AD803628B68436040F20223C0F820310C
:1067500050230360002010BD012010BD50230360B2
:106760007047AC230360704781607047C160704719
:106770004069704743699B0746BFC1610020012003
:1067800070474369DB0743BF836900200B7001201A
:106790007047C36C0164704741647047C06C7047B8
:1067A000D3060ED59306C0F8B0104CBFC0F8D41075
:1067B000C0F8D01053064CBFC0F8C010C0F8C410C9
:1067C0007047C0F8B4107047FFF7EABF014B53F8A9
:1067D00020007047901A0E40014B43F8201070477C
:1067E000901A0E40014B0360704700BF050000A5E2
:1067F000406800F4E0607047084BB3FBF1F1814260
:1068000008D8C1EB0133834204D3B0FBF1F0C0F3ED
:106810000B0070474FF6FF70704700BF0020A107C4
:1068200010B5044CC2F30B0204EA034313430B43B9
:10683000436010BD0000FF0F024B984204BF024BA3
:1068400003607047501A0E40010000A54068C0F375
:106850000B00C001B0FBF1F101484843704700BF95
:1068600040420F00134B07B5DA6AD00742BF01213F
:106870009962196A910742BF022199621B6AD30586
:1068800044BF4FF480720B4B01A944BF9A621B6A4C
:10689000094B1868FBF7B7FB019B3BB14FF08052E7
:1068A000064B1A60BFF34F8FBFF36F8F03B05DF8D5
:1068B00004FB00BF00C00840B835082004ED00E02C
:1068C000436801F00F0123F00F030B43436070474F
:1068D000436801F4E06123F4E0630B4343607047D5
:1068E000436843F48053436070470068C0F303205B
:1068F0007047C068704708B5120202F47062114315
:106900000DF08AFA002008BD0368090201F47061E5
:1069100023F4706319430DF07FBA000038B5A1F17C
:106920000E03012B17D9EFF3108472B6BFF35F8FFC
:1069300000230A4DC9B22B70094B03EA022242F030
:10694000B44211430DF064FA3CB901232B70BFF33C
:106950005F8F62B638BD4FF0FF3038BD70820720C0
:1069600000FFFF0030B50F4C256805F500248C4270
:1069700010D8C5F17F4404F578040C44491B0A4D36
:10698000C4F30F24C9B200B1056002B1148003B191
:10699000198030BDA1F50024C4F30F24C9B2034D02
:1069A000F1E700BFBC8C0720000C0E40000A0E402F
:1069B00038B504460D460A4601460548FFF79BFFD9
:1069C0002A4621460348FFF796FF002038BD00BF46
:1069D000000A0E40000C0E402DE9F04F85B00193E7
:1069E0000F460DF10A030146154603A802AAFFF758
:1069F000B9FF0398FFF779FF062181460398FFF757
:106A000083FFDFF8BCB0DFF8B4803DB90398494696
:106A1000FFF77AFF284605B0BDE8F08FBDF80A20E1
:106A2000254CC2F58073AB421E4628BF2E46039804
:106A3000BDF80810A04215BFDBF8004001F5006466
:106A400004F50024240218BF04EB01249B1B2146FB
:106A50001A481FFA83FA06F025F8BDF80A003246F4
:106A60003946404406F01EF8BDF80A00524630444C
:106A70000119404406F016F804F58073A8EB0401F0
:106A80000A5944F8042BA342FAD1019BBDF808200F
:106A90007BB103210398FFF741FF0028BBD1BDF86C
:106AA000083037440133AD1BADF80830ADF80A00AB
:106AB000ABE70121EEE700BF000A0E40BC3508201D
:106AC000BC8C0720042370B586B002AD06460C4688
:106AD00000930F222B460E2109480DF095F968B955
:106AE000042C28BF04240346A34201D106B070BD84
:106AF00055F8232046F823200133F5E71020F5E769
:106B0000000A0E40EFF30583FCE700002B4A10B5A6
:106B1000136B03F00303012B294B0FD004D3116A2D
:106B2000CC012CD5274946E02749496908064CBFC6
:106B30004FF400414FF4FA4119600DE0116AC901A8
:106B400001D52049F8E721491960116A01F0700167
:106B5000102912D02029F4D0116B01F07001702996
:106B600005BF03211A68116BB2FBF1F21EBF1A6850
:106B7000C1F30211CA401A6010BD1549DCE7134980
:106B80001960116A01F07001102913D02029C9D0B1
:106B9000116B01F00301022901BF946A1968C4F363
:106BA0000A4404FB011109BF906A0A49C0B2B1FB53
:106BB000F0F1C1E706491960EAE700BF00060E40A0
:106BC0006C820720001BB700101A0E4000093D0020
:106BD00000127A00001C4E0E114B124A9842124BC2
:106BE00003D800211160196070471049884202D80B
:106BF0004FF48071F6E70E49884202D84FF40071D5
:106C0000F0E70C49884202D84FF44071EAE70A499C
:106C1000884294BF4FF480614FF4A061E2E700BF67
:106C2000BFEA2101000A0E40000C0E407FF0FA027C
:106C3000FF8FD003FFB3C4047F4A5D050160704736
:106C400001210268530903F5001303F2077302F0F0
:106C50001F025B0201FA02F21A6370470121026807
:106C6000530903F5001303F2077302F01F025B02DE
:106C700001FA02F25A6370470D4808B5FFF7ACFFFE
:106C80003E210020FFF7ACFBFFF7CEFB0028FBD036
:106C9000FFF7D2FB074A084B9A62FFF7D5FB0028A3
:106CA000FBD00020FFF720FBBDE80840FFF72EBF18
:106CB00000BD0105013F062000060E402DE9F0470A
:106CC0002F4A86B013782F4E013313702E4B1B784A
:106CD0008BB932798DF8003033786846934228BFFB
:106CE00013468DF8083004F015FC012000F09AF8E6
:106CF00006B0BDE8F08700244FF6FF7827464FF036
:106D0000010ADFF88C9056F82450A300454505D0C1
:106D1000BDB10120013DF55000F084F80134022C92
:106D2000F1D1CFB9337832798DF80070934228BF12
:106D300013468DF80830FCF715FE684604F0EAFBB0
:106D4000D6E723464A4601212846FCF725FE0AFAE3
:106D500004F31F432846DFE70C4A01210020FCF71B
:106D60001BFE002368468DF800308DF8083004F0D3
:106D7000D1FB4FF47A70FAF723F8F9F79FFCB7E7E5
:106D8000C5360820BC360820C636082034130D004E
:106D900018130D004FF4B472014B43F820207047D4
:106DA000BC3608204FF6FF72014B43F82020704795
:106DB000BC360820014B1870704700BFC63608204B
:106DC00073B5124B124A01210020FCF7E5FD114B6F
:106DD0001C78C4B901251D700F4B2A46FA21009377
:106DE0000E482346FAF77CFC0646F9F7D9FE2346FF
:106DF0000246009429463046FAF798FC4FF6FF7297
:106E0000074B1A605A6002B070BD00BF0C130D0032
:106E100089060D00C4360820BD6C0C0048130D0017
:106E2000BC3608204FF00052044B1A61C3F8A02072
:106E300008B11A6370475A63704700BF000E0E40D6
:106E400038B583784478012B12D10F4A13700F4D57
:106E5000204600F057F82A78A24211D0FCF7D2FE63
:106E60007CB90B4A01210020FCF796FD2C7007E04D
:106E7000002BECD1074B1C70034B1B78002BE6D08A
:106E800038BD054AEEE700BFC736082071820720EB
:106E90004E130D00728207205D130D00014B187810
:106EA000704700BF7282072008B500F035F8102047
:106EB0000349FCF717FCBDE80840002000F022B8A9
:106EC000416E0C0070B58AB004460E46FCF77AFE9F
:106ED00043780546A3420FD01020FCF763FE102331
:106EE0006C7068468DF800308DF801408DF80260B6
:106EF000FCF714FC0AB070BD1020FCF743FE00281C
:106F0000EAD1F7E7034B4FF0007208B91A637047F4
:106F10005A63704700100E404FF00072024B1A6126
:106F2000C3F8A0201A63704700100E40034B4FF4C3
:106F3000805208B91A6370475A63704700100E40B8
:106F4000024BD86BC0F30030704700BF00100E40FA
:106F5000034BD86B80F48050C0F30030704700BF03
:106F600000100E40084B30B5084CDB6B084D217803
:106F7000C3F30043287841EA0302024001EA030018
:106F800029702370104330BD000E0E40C836082013
:106F9000CA360820084B30B5084CDB6B084D217809
:106FA000C3F30043287841EA0302024001EA0300E8
:106FB00029702370104330BD00100E40C9360820E0
:106FC000CB3608204FF48052024B1A61C3F8A02040
:106FD000704700BF00100E400378142B04D1427894
:106FE000074B12B901221A7070471A78002AFBD099
:106FF00004490A7882F001020A700022F3E700BF18
:1070000077820720D236082038B50378072B28D19D
:10701000144B154C1D78CDB9042000F057FC1E28E8
:1070200004D90420294600F057FC28463C23584345
:1070300020600E4B1B78A3B10D4A1378591C022B0C
:1070400011700ED9BDE83840F9F738BB2368002B22
:10705000EFD0013B074A012100202360FCF79CFC94
:10706000E7E738BD76820720CC360820D1360820E5
:10707000D0360820B3130D00F8B503780546122B5F
:107080001BD12E4E42782E4F2E4C31683A70227012
:1070900031B1012A04D1FFF753FF60B100233B70E7
:1070A000294B22781978914203D0002027491A7081
:1070B0000870012302E03060F2E700232A78062AF4
:1070C00001D0002B33D0214B1D4A1978147861B1BF
:1070D000012C2DD04CB91948016859B319490C78C5
:1070E000012C27D10021016019701949097839B1A3
:1070F0000124002014702146164A1870FCF74CFC3D
:107100002046FFF713FF14B10E4B1B7813B9002074
:10711000FFF740FE104D2A78A24208D0FCF772FD1E
:1071200054B90E4A01210020FCF736FC2C70F8BD42
:107130000024DAE70124D8E7094AF3E7CC3608202F
:10714000738207207682072075820720D2360820B6
:10715000D13608206D130D007482072096130D00A0
:10716000A4130D000122014B1A707047D13608207C
:10717000014B1878704700BF76820720FFF7E0BE0A
:1071800010B50E4CFFF71EFF0120FFF7CFFE214682
:107190001220FCF7A7FA21460620FCF7A3FA0849BB
:1071A0001420FCF79FFA07490620FCF79BFABDE87C
:1071B000104005490720FCF795BA00BF79700C0014
:1071C000D96F0C00EB710C0009700C00132300B593
:1071D0008BB08DF8010068468DF800308DF80210F4
:1071E000FCF79CFA0BB05DF804FB08B50378062B9E
:1071F0000BD1FFF7B7FE0021FFF7E8FFFFF7CAFE4C
:10720000BDE808400121FFF7E1BF08BD142300B528
:107210008BB08DF8010068468DF80030FCF77EFADF
:107220000BB05DF804FB0000034B402208B91A6361
:1072300070475A63704700BF00100E40034BD86B75
:1072400080F04000C0F38010704700BF00100E4077
:107250004022034B1A61C3F8A0201A63704700BF95
:1072600000100E4038B54478094D2046FFF7DCFF8A
:107270002A78A24208D0FCF7C5FC34B9054A01219E
:107280000020FCF789FB2C7038BD034AF7E700BFEC
:1072900078820720DC130D00E8130D0008B5FFF716
:1072A000D7FF15200349FCF71DFABDE8084001206F
:1072B000FFF7BABF65720C0030B58BB00446FCF71F
:1072C00081FCC3780546A3420DD01520FCF76AFC6B
:1072D0001523EC7068468DF800308DF80140FCF7FE
:1072E0001DFA0BB030BD1520FCF74CFC0028ECD18A
:1072F000F7E70000034B202208B91A6370475A636E
:10730000704700BF00100E40034BD86B80F0200088
:10731000C0F34010704700BF00100E40024BD86B06
:10732000C0F34010704700BF00100E402022024BF7
:107330001A61C3F8A020704700100E40032238B530
:10734000184B44781C70184B012C1A701DD1FFF794
:10735000E5FF10B3154B1C78B4FA84F46409FFF709
:1073600007FF012808BF0124114D2046FFF7C2FF87
:107370002A78A24208D0FCF745FC84B90D4A0121C5
:107380000020FCF709FB2C7038BDFFF7C7FF002871
:10739000E5D1094B1B78002BE1D00124DFE7074A38
:1073A000EDE700BF7A8207207B820720D3360820D2
:1073B00079820720F5130D00D436082002140D0041
:1073C00003781A2B06D14368B3F5AF6F82BF002252
:1073D000014B1A70704700BFD336082010B52B4AF6
:1073E00004461378002B3BD1294901200B70294911
:1073F0000B7003231370284B1870284B1870FFF77D
:1074000079FF2478072C3FD1204600F05FFA1E2830
:1074100003D90021204600F05FFA062000F056FA5A
:107420001E2803D90021062000F056FA1B4B052028
:107430001B78C3B900F04AFA012804D1072000F0F4
:1074400045FA134B1870134A1378EBB1013BDBB2CA
:107450001370134A0121BDE810400020FCF79CBACC
:10746000013B1370CDE700F031FA012804D106206A
:1074700000F02CFA074B1870054A137823B1013B32
:10748000DBB21370074AE5E710BD00BF7B8207201F
:10749000D3360820D4360820798207207A82072044
:1074A00010140D003A140D0008B5FFF73FFF08490E
:1074B0001620FCF717F907490720FCF713F91A20E3
:1074C0000549FCF70FF9BDE808400120FFF712BF9E
:1074D0003D730C00DD730C00C1730C0030B58BB034
:1074E0000446FCF76FFB83780546A3420DD01620B7
:1074F000FCF758FB1623AC7068468DF800308DF809
:107500000140FCF70BF90BB030BD1620FCF73AFB3D
:107510000028ECD1F7E7000030B58BB04FF0A003A6
:1075200083F31188BFF36F8FBFF34F8F144A154851
:1075300014880378144921F813400023138083F33F
:1075400011880A2502780132D2B2B2FBF5F405FBAC
:1075500014221C46027031F8132001330A2B144404
:10756000F9D10A4D2B689C4207D01B2368468DF841
:1075700000300194FCF7D2F82C600BB030BD00BF96
:10758000D6360820D8360820E0360820F436082001
:1075900037B51E4D44682B689C4234BF1B1BE31A51
:1075A000132B94BF002301236BB1204604F060FB32
:1075B0000022174B04F0FCFC164ACDE90001012122
:1075C0000020FCF7E9F9632C07D80021084600F0F9
:1075D000A7F800232B6003B030BD2B689C4234BF5A
:1075E0001B1BE31A312B94BF00230123002BF2D085
:1075F00032234EF66021B4FBF3F30120B1FBF3F12B
:1076000000F08EF8FCF7FEFA2C60E4E7DC36082088
:107610000000594065140D00014B1868704700BF09
:10762000DC36082073B5134D2C7804BB00F09AF8B3
:1076300011491A20FCF756F8104B012200936421DF
:1076400023460F48FAF74CF80646F9F7A9FA2346FD
:107650000246009401213046FAF768F801232146DA
:1076600020462B7002B0BDE8704000F059B802B05F
:1076700070BD00BFD536082091750C0019750C003F
:1076800074140D0030B58BB00446FCF79BFA836888
:107690000546A3420FD91B1B012B0ED91A20FCF75C
:1076A00081FA1A23AC6068468DF800300194FCF72B
:1076B00035F80BB030BDE31AEEE71A20FCF762FA9A
:1076C0000028EBD1F5E7000038B5124804F07AF94C
:1076D00003061DD5104D11492C680E4864082A6810
:1076E00004F04AF922460D490A4804F053F92A6881
:1076F0000A49084804F040F922460849054804F0C0
:1077000049F9BDE8384000220721024804F065B974
:1077100038BD00BF0040094024370820F836082053
:1077200038B505460C4C80B10C4B196023782BB949
:1077300007210B4804F03CF9012323700022BDE827
:1077400038400721064804F03FB90721044804F0F7
:1077500034F9257038BD00BF2037082024370820B1
:10776000004009401FB52420FEF776FE0721194886
:1077700004F023F92420FEF76FFE47F23053002473
:107780000193154B01A913480294039304F066F882
:1077900020B1124A21462046FCF7FEF8002310498A
:1077A00007240B818B720B234B6064230B61322304
:1077B0000848CB600C6004F070F82146054804F0DE
:1077C000FCF81022074B5A60F02283F8242304B0FF
:1077D00010BD00BF0040094000BD01057A140D0036
:1077E000F836082000E100E070B58AB004460E4685
:1077F000FCF7E8F903790546A34209D01720FCF706
:10780000D1F91B2C2C710AD817238DF800300CE00D
:107810001720FCF7B7F90028F0D10AB070BD182383
:1078200005228DF800300F4B1A70002368468DF842
:1078300002308DF801408DF80360FBF76FFF9DF873
:107840000130002BE9D1074C2378002BE5D0182319
:1078500068468DF80030FBF761FF2378013B237009
:10786000DBE700BF283708200A2310B588B0009353
:107870000023124C124822780068162A87BF1A4645
:1078800003214FF496720421F9F750FF17238DF866
:10789000083023780121DA088DF8102000920020AA
:1078A000084AFCF779F800238DF81130064B02A83E
:1078B000039303F02FFE08B010BD00BF423708202D
:1078C000443708209C140D0091790C00014B185C82
:1078D000704700BF2A3708207FB5094B1A5C8A42DF
:1078E0000AD0195405238DF8080068468DF8003039
:1078F0008DF8091003F00EFE07B05DF804FB00BF21
:107900002A3708207FB57F2306A800F8183D03F02A
:1079100001FE07B05DF804FB37B5114A1378EBB9E7
:10792000FF20104958540133182BFBD101240E4B72
:1079300014704FF4C871224600930C480023F9F7E5
:10794000CFFE0B4B05461860F9F72AF90A230246C9
:107950000093214600232846F9F7E8FE03B030BD26
:10796000293708202A37082069780C0096140D0062
:10797000443708201D2300B58BB08DF80100684600
:107980008DF80030FBF7CAFE0BB05DF804FB000079
:107990002DE9F84F894692460024C000DFF85C804C
:1079A000C6B2144F08EB060B4C4504D10122124B12
:1079B0001A70BDE8F88FA519172D18DC1AF80430D5
:1079C000012D0BF8043002D12846FFF7D3FF172D05
:1079D0003D7009D198F817301BB901212846FFF7EF
:1079E0007BFF0220FFF7C6FF3B7801333B70013479
:1079F000DAE700BF42370820433708202A3708203B
:107A000070B5417990F808418D1DA54217D1837852
:107A1000C2780B4413440279053113440622DBB2C9
:107A2000914206DADB430134435580F808410120D6
:107A300070BD865C01323344DBB292B2F0E70020C5
:107A400070BD0023FF2180F8083180F8093100F271
:107A50000712431E03F8011F9342FBD1002380F855
:107A60000A3180F80B3170470122014B1A707047C0
:107A7000C0380820704700000378262B02BF4278E8
:107A8000014B1A70704700BF9C37082010B503786F
:107A90000146212B03D12822054805F003F8BDE853
:107AA0001040002303481A4619460068FAF77AB9CD
:107AB000483708207037082002F0F0BD03780146EF
:107AC000312B05D1034800230A220068FAF76AB96E
:107AD000704700BFC4380820037801462E2B05D11B
:107AE000034800230A220068FAF75CB9704700BF18
:107AF0007837082003782D2B06D1011D0348002379
:107B00000A220068FAF74EB9704700BF983708207C
:107B10000378272B06D1011D034800230A220068A1
:107B2000FAF740B9704700BFA037082003782C2B24
:107B300003D141780920FFF7CFBE704710B5037815
:107B4000292B10D10446084A54F8043F042102208E
:107B5000FBF722FF05482146BDE8104000230A221A
:107B60000068FAF71FB910BD13150D0088370820FB
:107B700010B503780446322B0DD1074A01210020AD
:107B8000FBF70AFF0548611C0023BDE810400A22EC
:107B90000068FAF707B910BDEB140D007437082020
:107BA00013B50378172B47D10222411C684604F015
:107BB00079FF9DF8002052B923490B783BB1DC07CF
:107BC00041BF581C08708DF800308DF801209DF8D9
:107BD0000020D00718D51C4B1B78D90714D59A4222
:107BE00012D000240133194A012120468DF80430B7
:107BF0008DF80540FBF7D0FE154823464FF0FF32C5
:107C000001A90068FAF7CEF89DF80030A3B10E4C38
:107C100022789A4210D00F4A01210020FBF7BCFEC7
:107C20000B486946002302220068FAF7BBF80146B8
:107C300020B19DF80030237002B010BD064A02202A
:107C4000FBF7AAFEF8E700BF7D37082027150D00D7
:107C5000BC38082032150D0040150D0010B590F805
:107C60000A31044690F808110BB1032903D863794F
:107C700007338B4204D1204600F03AFE012010BDAC
:107C80000021054A0846FBF787FE204694F80811B4
:107C900000F02EFE002010BD58150D002DE9F0411A
:107CA0001C4C054620461E4688461746FFF7C9FE6F
:107CB000C723C82294F808012354431CDBB2E254C2
:107CC0001222831CDBB2E554C31CDBB2E254002257
:107CD000031DDBB2E2540422431DDBB2E254851DD6
:107CE000C11D00F10802EDB2C9B2D2B204F805809C
:107CF0006754A65400F109020A3084F80801D2B290
:107D00002046A654FFF77CFE2046BDE8F041FFF771
:107D1000A5BF00BFAC370820034B1A781F2A84BFC9
:107D200001221A7018787047B838082008B5FFF794
:107D3000F3FF0130C0B2202828BF0120014B18708A
:107D400008BD00BFB83808202DE980487A4B89B0BB
:107D50000093012200234FF4FA717848F9F7C0FC30
:107D6000774C784B20600122C8210093764800238D
:107D7000F9F7B6FC754D286001F064FE2668F8F747
:107D80000FFF002402462346012130460094F9F7F4
:107D9000CDFC2D68F8F704FF234602460121284652
:107DA0000094F9F7C3FC0221694A0846FBF7F4FD89
:107DB0006848FFF746FEFFF7B9FF674D0146654883
:107DC00002F0DEFB2F46654EC8213068FAF71AFA3A
:107DD0006C78DFF8B881012C68D1614A0321022058
:107DE000FBF7DAFD98F80030022B51D802215D4AEA
:107DF0000846FBF7D1FD574890F808218378012AFF
:107E000098BFFF23BA789A4240F08280FFF726FF9E
:107E100098F80030013388F80030002CD4D10020CD
:107E2000514C88F800006278002A40F0E582DFF8C3
:107E3000608105A9D8F80000FAF73CF9002800F0A5
:107E4000D5809DF8142023789A4200F0CE82FFF767
:107E50006DFF9DF814300446162B00F2BA82DFE85D
:107E600013F061009900E101E801F101F80101025C
:107E7000080211027B028402180253025A026302B2
:107E80006B0274028B0292029A02A202A902B10250
:107E9000364A00210220FBF77FFD354A1378002B7C
:107EA000BDD000231370334A1370B8E7022C31D1D0
:107EB000314A03212046FBF76FFD98F80030022B72
:107EC00009D821462D4A2046FBF766FD2148FFF7D9
:107ED000C5FE01249CE72A4A00212046FBF75CFDF1
:107EE000234B1B7813B10022224B1A70254B1B78B1
:107EF00023B9FBF737FD0120FEF74CFFFFF73EF9F2
:107F0000044628B9FBF72EFD0120FEF743FF7FE76B
:107F100000247DE7164B1B78002B80D0154A137880
:107F20000133C1E7184A01210020FBF735FD00238A
:107F30001A46002136E000BF697A0C0062150D0078
:107F400090370820757A0C0068150D008C370820D2
:107F50006E150D00AC370820483708207037082010
:107F60007D150D0084150D009437082093150D0024
:107F7000A437082084370820A6150D00B0150D0081
:107F8000BF150D009C370820D4150D009D37082023
:107F9000BC380820C34A01210020FBF7FDFC012367
:107FA000002210212046FFF779FE0446002840F009
:107FB00015829DF81430BC4A0146FBF7EDFC012305
:107FC000052205A9D8F80000F9F7ECFE9DF8143059
:107FD0000094B64A01210020FBF7DEFC012C00F0E2
:107FE0001582022C02D10A20F8F7EAFEB04B0022DB
:107FF00005A91868FAF75EF848B1FFF797FE05AAD9
:108000000146AC4802F078FB00287FF4DDAEAA4BB5
:10801000002205A91868FAF74DF848B1FFF786FE67
:1080200005AA0146A34802F0ABFB00287FF4CCAEC2
:108030000022A24B05A918680592FAF73BF848B14F
:10804000059C3CB1FFF772FE01469A48A047002804
:108050007FF4BAAEDFF8AC82994C98F80030002B70
:1080600000F0E481DFF864A2DAF80030002B00F0C1
:10807000DD812368934A01210020FBF78DFC2068F5
:1080800002F04CF9DFF840B28146002800F0C281CE
:108090009BF800108748C847002840F0ED81002376
:1080A000894A88F800301370884A1360884B002290
:1080B00005A91868F9F7FEFF002867D0FFF736FE1C
:1080C0007C4C039020469DF81680DDF818A09DF8A2
:1080D00015B0DDF81C90FFF7B4FCC722C82094F857
:1080E00008310399E2545A1CD2B2A0549A1CD2B25D
:1080F000A1544021DA1CD2B2A15400211A1DD2B2DF
:10810000A1545A1DD2B2A1549A1DD2B204F802B0A1
:10811000DA1DD2B2083304F8028084F808315046E0
:1081200004F068FEA0465246C0B2A2EB0A03DBB2DE
:108130008342C0F0A581002294F808314846E254F9
:10814000013384F8083104F055FE4A46C0B2A2EB70
:108150000903DBB2984200F29D814FF0000894F8C9
:10816000083154485A1C04F80380053B84F8082160
:108170006371FFF745FC574A01214046FBF70CFCB1
:108180004C48FFF76BFD00287FF41EAE524B0022D7
:1081900005A91868F9F78EFF00283BD04F4A012146
:1081A0000020FBF7F9FBFFF7C1FD424C8246204659
:1081B0009DF814909DF81580FFF743FCC722C82155
:1081C00094F808312046E2545A1CD2B2A15424211A
:1081D0009A1CD2B204F802A0DA1CD2B2A154002137
:1081E0001A1DD2B2A15402215A1DD2B2A1549A1D15
:1081F000D2B204F80290DA1DD2B2083304F8028039
:1082000084F80831FFF7FCFB2046FFF727FD002824
:108210007FF4DAAD324C2378002B40F04581002307
:108220002370D1E52F4A01210020FBF7B5FB002385
:10823000B6E62D4A01210020FBF7AEFB0123002208
:108240002021AFE6294A01210020FBF7A5FB0023EE
:10825000F5E7274A01210020FBF79EFB01230022BE
:1082600004219FE6234A01210020FBF795FB002310
:10827000F5E7214A01210020FBF78EFB01230022B4
:1082800008218FE61D4A01210020FBF785FB002312
:10829000F5E71B4A01210020FBF77EFB01230022AA
:1082A00040217FE6DF150D002D170D0052170D0040
:1082B00098370820AC37082078370820A0370820E6
:1082C0008037082085170D0084370820A83708203C
:1082D000C4380820B7170D0074370820C8170D00E0
:1082E000C0380820EC150D00F7150D0004160D0020
:1082F0000F160D001D160D0029160D0037160D0066
:1083000043160D00A4370820704A01210020FBF716
:1083100043FB0023C3E76E4A01210020FBF73CFB2F
:108320000123002201213DE66A4A01210020FBF7DA
:1083300033FB00231A46F5E7674A01210020FBF7CB
:108340002BFB0123002202212CE6644A012100209C
:10835000FBF722FB0023F5E7614A01210020FBF730
:108360001BFB0123002280211CE65E4A0121002024
:10837000FBF712FB0023F5E75B4A01210020FBF726
:108380000BFB0123D4E5594A01210020FBF704FB34
:1083900000230122CDE5564A01210020FBF7FCFA1B
:1083A00001230222C5E5534A01210020FBF7F4FA1C
:1083B0000023F6E7504A01210020FBF7EDFA0123E4
:1083C0000422B6E54D4A01210020FBF7E5FA00231F
:1083D000F6E74B4A03210020FBF7DEFA022205A94B
:1083E000484804F05FFB0124F0E563789DF8152010
:1083F000134463700224E9E5013AD2B26270237833
:1084000001210092404AFBF7C7FAECE53220F8F769
:10841000D7FCD9E423683D4A0121FBF7BDFA88F86F
:1084200000908BF80090CAF800903FE6384B00228D
:1084300038491868F9F73EFE00283FF437AE236844
:10844000002B3FF433AE344A01210020FBF7A4FA9D
:10845000206801F02BFF206801F060FF0346002830
:108460003FF424AE2D4A2E481178984700283FF457
:1084700016AE22682B4B1A60012388F80030A3E463
:1084800098F8083112F8011B08F80310013388F836
:1084900008314AE698F8083112F8011B08F8031071
:1084A000013388F8083152E6FFF740FC01461C48CA
:1084B00002F066F880460A20F8F782FC0023237059
:1084C000B8F1000F7FF480ACA9E600BF50160D0094
:1084D0005B160D006B160D0079160D0089160D0048
:1084E00097160D00A6160D00B3160D00C5160D004B
:1084F000D5160D00E7160D00F7160D0006170D0036
:1085000013170D009437082065170D0098170D00FC
:108510008837082080370820A7170D0084370820E7
:10852000AC370820A8370820024B00211868F9F75B
:10853000D3BB00BF8837082037B53C4D2C78002CC2
:1085400072D1224602211020F9F706FC0421384B93
:10855000224618600846F9F7FFFB0421354B2246F6
:1085600018600846F9F7F8FB334B224618600C21D7
:108570000220F9F7F1FB314B224618600C21022052
:10858000F9F7EAFB02212E4B224618600846F9F75C
:10859000E3FB2C4B2246186009210220F9F7DCFB93
:1085A000294B4FF448721860022328490093019424
:1085B00023462748F8F7C8F900F0FEF925491720A7
:1085C000FBF790F824493220FBF78CF82349292047
:1085D000FBF788F822492720FBF784F8214921205E
:1085E000FBF780F820492620FBF77CF81F4928205C
:1085F000FBF778F81E492D20FBF774F81D492E2053
:10860000FBF770F81C493120FBF76CF81B492C2054
:10861000FBF768F802F01AF80120032221462870BF
:10862000F9F79AFB164B186003B030BD7C37082071
:10863000BC38082088370820A03708209837082041
:10864000C43808207437082078370820E9170D004F
:10865000497D0C00A17B0C00717B0C003D7B0C0064
:10866000117B0C008D7A0C00797A0C009D860C0031
:10867000F57A0C00D97A0C00BD7A0C002D7B0C0029
:1086800070370820272300B58BB0019068468DF81D
:108690000030FBF743F80BB05DF804FB0378282BA0
:1086A00005D14378182B02D10148FFF7EBBF704783
:1086B000B97A0C0010B526248AB08DF804309DF8E4
:1086C00030308DF802008DF805309DF83430684662
:1086D0008DF806309DF838308DF800408DF8073061
:1086E0009DF83C308DF801108DF803208DF808308E
:1086F000FBF714F80AB010BD2B2300B58BB08DF832
:1087000000309DF801308DF8022060F3030361F31F
:10871000871368468DF80130FBF700F80BB05DF861
:1087200004FB2F2300B58BB08DF8010068468DF84F
:108730000030FAF7F3FF0BB05DF804FB282300B517
:108740008BB08DF8010068468DF80030FAF7E6FF2F
:108750000BB05DF804FB000003462A2000B58DB085
:108760008DF8080000208DE806008DF80B108DF8BC
:108770000C200121064A8DF80A308DF80900FBF71C
:108780000BF902A8FAF7CAFF0DB05DF804FB00BFB1
:10879000B8140D00034608462A2100B58DB08DF8A7
:1087A000081001218DE805008DF80B008DF80C20D4
:1087B0000020064A8DF809108DF80A30FBF7ECF816
:1087C00002A8FAF7ABFF0DB05DF804FBCA140D0068
:1087D0002A2200B58DB08DF80820022203468DF8BC
:1087E00009208DF80A008DF80B100091054A01212F
:1087F0000020FBF7D1F802A8FAF790FF0DB05DF862
:1088000004FB00BFDC140D00252300B58BB0ADF8D0
:10881000020068468DF80030FAF780FF0BB05DF873
:1088200004FB08B50920FFF751F8122804D90920E4
:108830000121FFF751F8012008BD0000034B1A7811
:108840001F2A84BF01221A7018787047DC3A08206A
:108850000023FF21074A82F8083182F80931D154F8
:108860000133B3F5847FFAD1002382F80A3182F80C
:108870000B317047D0390820074B587993F80821FD
:108880000730811A93F80A314842484113B1032A4C
:1088900088BF1846704700BFD039082038B5FFF7A9
:1088A000EBFFD8B1114B93F80A111A4611B193F8A6
:1088B0000B0138BD5879D1789B78441D0B440621B3
:1088C0000344DBB2A1420ADDDB4310448179DBB211
:1088D00099420CBF0120022082F80B0138BD555C83
:1088E00001312B44DBB289B2ECE700BFD03908205C
:1088F000F7B500264FF0D80E34464FF0AA0C284D9D
:10890000F7B2B94232D8F8F74BF902210346254AAB
:108910000846FBF741F80026234FF3B29C4237D8B4
:108920000221224A0846FBF737F8214B22461868F5
:108930001B49C36898470023FF22EA540133FE2BEA
:10894000FBD11C4B1C68F8F72BF90023024600935F
:1089500001212046F8F7EAFE03B0F0BDD82A03D182
:10896000DBB22A55EA540EE02A550DE0FD2CCAD898
:10897000825D631CC72AF1D1002FF5D0DBB205F868
:1089800004E005F803C01C460134E4B20136B7E741
:108990000221AB5D3A460846FAF7FEFF0136BCE716
:1089A000CC38082085180D008D180D00080B0D001F
:1089B000C8380820CC39082013B50221134A0846CC
:1089C000FAF7EAFF124A04210220FAF7E5FF1148FC
:1089D000114B4E2218604FF4E1314369984700244F
:1089E00002234FF448728DE818000C4923460C48C6
:1089F000F7F7AAFF0B4B22460093A02123460A4813
:108A0000F8F76EFE094B186002B010BD55180D0046
:108A10006C180D00D4810720C83808207A180D0082
:108A2000A98A0C004F8A0C0096140D00CC3908203E
:108A3000212300B58BB08DF8010068468DF8003019
:108A40008DF80210FAF76AFE0BB05DF804FB002106
:108A50000220FFF7EDBF0B2300B58BB08DF80100AE
:108A600068468DF800308DF80210FAF757FE0BB00B
:108A70005DF804FB2C2300B58BB08DF8010068462F
:108A80008DF80030FAF74AFE0BB05DF804FB2223A4
:108A900000B58BB08DF8010068468DF80030FAF70C
:108AA0003DFE0BB05DF804FB02212DE9F043BB4A0B
:108AB00087B00846BA4DFAF76FFFC820F8F780F97B
:108AC0002E46FFF7C5FEB74C28680A2301220DF198
:108AD00017018069FCF711FF002800F0A4809DF8C1
:108AE0001700C72801D1FFF7B3FE94F808312BB166
:108AF0006278CA2A23D00DD8C82A20D0E054013386
:108B000084F808312378C72B1EBF002384F808316E
:108B1000237020E0F02A01D0FF2AEFD10122032B9D
:108B200084F80A2173D1E070A278E178D243D2B2FE
:108B300091420CBF0122022284F80B21DEE70022C1
:108B400094F8091184F80A21002954D1D828D5D1E4
:108B5000012384F80931FFF78FFE0028B4D0F8F71D
:108B60001FF802210346904A0846FAF715FF002332
:108B7000DFF8508294F808215F1CDBB29A424AD891
:108B800002218A4A0846FAF707FF94F80831012BB8
:108B900004D9A3781F2B01D8854A1370FFF76CFE08
:108BA000002891D00520F8F70BF994F80A71002FEE
:108BB00042D00120FEF7EEF8FAF7D4FE94F808311F
:108BC000A778012B637898BFFF27FF2B2FD1FFF7E2
:108BD00065FE01282BD1FFF73BFE39460020FFF749
:108BE00027FF0A230093002372481A4603210068D6
:108BF000F8F79CFD68E7AA2804D0D82803D084F8A9
:108C00000921A8E7C720002284F8092176E7022B72
:108C10007FF674AF88E70221E35C42460846FAF724
:108C2000BBFE3B46A6E70220F8F7CAF8B6E7FFF717
:108C30000FFE39460120D2E7FFF730FED6F800805C
:108C40000128D8F8109040F0BF80FFF7F7FD0146EB
:108C5000FFF7F4FDC043C0B2FF23C722019000918B
:108C600040465549C847F7F79BFF0146FFF7E6FD29
:108C70008046FFF7E3FDC043C0B20390FF23C72047
:108C80008DE809000B460221CDF808804B4A0846C2
:108C9000FAF782FEE378FF2B0ED0C32B55D018D8FD
:108CA000B72B46D00BD8912B39D0B62B3DD0902B7B
:108CB00017D1A079FFF742FDFFF7CAFD04E7C02BEB
:108CC0003BD0C12B3DD0B82B0BD1204601F0F4FF97
:108CD000F2E7D02B49D018D8C52B3ED039D3C62BBC
:108CE0003FD0374A00210220FAF756FE0023DFF872
:108CF000D48094F808215F1CDBB29A4245D82B4AF5
:108D000000210220FAF748FED6E7E52B35D0E82B04
:108D100037D0D52BE5D1A079FFF7B9FECCE73A469D
:108D20003946A079FFF718FDC6E7204601F096FF07
:108D3000C2E7204601F0A6FFBEE7204601F0D2FFC1
:108D4000BAE7204601F0E2FFB6E7204601F0F0FF67
:108D5000B2E7204602F016F8AEE7204602F01AF815
:108D6000AAE7204602F046F8A6E7A379E07900EBEF
:108D7000032080B2FFF748FD9EE7204602F03CF852
:108D80009AE7204602F06AF896E7E35C4246002143
:108D90000220FAF701FE3B46ABE700BF18180D00B2
:108DA000C8380820D03908202A180D00080B0D00FB
:108DB000DC3A0820CC390820F5170D00FE170D000D
:108DC00036180D008D180D00FFF738FD0146FFF72E
:108DD00035FDC043C0B2F023C72201900091404648
:108DE0000C49C847F7F7DCFE0146FFF727FD804630
:108DF000FFF724FDC043C722F023C0B28DE80C006A
:108E000003900B46CDF80880034A39460220FAF752
:108E1000C3FD51E7F5170D00FE170D0010B5202416
:108E20008AB08DF80430BDF830308DF80200684605
:108E30008DF800408DF801108DF80320ADF8063054
:108E4000FAF76CFC0AB010BD0D4A0178136871B9CD
:108E5000022B01D8032111601268003318BF0123CF
:108E6000003218BF0122934208D001F0ABBA0129A9
:108E7000EED00729F0D10BB1591EECE7704700BFC7
:108E8000F03A082001780D4A0F2913680ED1022B01
:108E900001D8032111601268003318BF012300328A
:108EA00018BF0122934207D001F08CBA0729F2D1F2
:108EB000002BF0D0591EEDE7704700BFF83A0820AC
:108EC000F0B585B006460F46FFF7ABFC044601F04F
:108ED000D3FED0B90E4B1B78ABB10E4B53F82450D8
:108EE000FEF71AFF0C4B012253F82430014602937F
:108EF000002303958DE80C00304607233A4601F025
:108F000025FD05B0F0BD054BE8E70020F9E700BFFF
:108F1000F53A0820641A0D0040240D00181A0D00BF
:108F20007FB50D460446FFF77CFC0646FEF7F4FECF
:108F3000084B03220393084B014653F82630204682
:108F4000029300238DE80C000F232A4601F0FEFC5B
:108F500004B070BDC8190D0030190D00F0B585B012
:108F60000E460546FFF75DFC0746FFF75AFC0D4B22
:108F70001B68ABB10C4B53F82040FEF7CDFE0B4BFA
:108F8000012253F8273001460293002303948DE811
:108F90000C0028460423324601F0D8FC05B0F0BD91
:108FA000034BE8E7F83A082038250D00681C0D004F
:108FB0004C1D0D00F0B585B00E460546FFF731FC9F
:108FC0000746FFF72EFC0D4B1B68ABB10C4B53F85B
:108FD0002040FEF7A1FE0B4B012253F8273001463B
:108FE0000293002303948DE80C00284603233246A5
:108FF00001F0ACFC05B0F0BD034BE8E7F03A082007
:1090000038250D00E4180D004C1D0D007FB50D46F0
:109010000446FFF706FC0646FEF77EFE084B0146B7
:109020000393084B2A4653F8263020460293002328
:1090300001930123009301F089FC04B070BD00BFCF
:10904000C8060D00A8230D007FB50D460446FFF7A6
:10905000E8FB0646FEF760FE084B03220393084B2D
:10906000014653F826302046029300238DE80C0079
:1090700080232A4601F06AFC04B070BDC8190D00B7
:109080008C240D007FB50D460446FFF7CAFB06464B
:10909000FEF742FE084B03220393084B014653F8A8
:1090A00026302046029300238DE80C0010232A4628
:1090B00001F04CFC04B070BDC8190D007C82072083
:1090C0007FB50D460446FFF7ACFB0646FEF724FECF
:1090D000084B03220393084B014653F826302046E1
:1090E000029300238DE80C0002232A4601F02EFC97
:1090F00004B070BDC8190D007C1E0D00F0B587B01E
:109100000D460446FFF78DFB0D4B07461E78FEF714
:1091100003FE3B230593002304930A4B01461B786F
:109120002A460393084B00960293084B204653F8B7
:1091300027300193062301F01BFD07B0F0BD00BFEF
:10914000FD3A0820FF3A0820C8190D00B41C0D0094
:10915000F0B587B00D460446FFF763FB0D4B07469D
:109160001E78FEF7D9FD17230593002304930A4BBD
:1091700001461B782A460393084B00960293084B3E
:10918000204653F827300193052301F0F1FC07B086
:10919000F0BD00BFFD3A0820FE3A0820C8190D00B6
:1091A000D01B0D00F0B587B00D460446FFF739FB24
:1091B0000D4B07461E78FEF7AFFD0C2305930023E9
:1091C00004930A4B01461B782A460393084B0096EA
:1091D0000293084B204653F827300193032301F0F4
:1091E000C7FC07B0F0BD00BFFD3A0820C9820720C8
:1091F000C8190D00001D0D002DE9F04186B00E4686
:109200000546FFF70EFB0F4B80461F780E4B1C7870
:10921000FEF782FD802305930A2304930B4B303421
:1092200002930B4BE4B253F82830014601930394A8
:10923000009702233246284601F09AFC06B0BDE8AA
:10924000F08100BFFD3A0820CA820720C8190D002E
:10925000EC240D002DE9FF4106460F46FFF7E1FA29
:109260000E4B80461D78FFF7DCFAADB10C4B53F87E
:109270002040FEF751FD0B4B014653F82830039573
:1092800001930023029400933A460123304601F0F3
:10929000B8FB04B0BDE8F081034BE8E7FD3A0820D5
:1092A000301E0D00F4230D00981D0D0073B504460B
:1092B000FFF7B7FA0646FEF739FD084B0546186872
:1092C00001F04EF8064B024653F82630294600932B
:1092D00020460F2301F0F8FA02B070BDE43A0820EE
:1092E00030190D0073B50446FFF79BFA0646FEF7EA
:1092F0001DFD084B0546186801F032F8064B024682
:1093000053F82630294600932046022301F0DCFA68
:1093100002B070BDE83A08207C1E0D0073B504460B
:10932000FFF77FFA0646FEF701FD084B0546186871
:1093300001F016F8064B024653F8263029460093F2
:109340002046002301F0C0FA02B070BDE03A0820C8
:109350007C820720F0B585B00E460546FFF761FA1E
:109360000746FFF75EFA04460220FEF7AFFA01282F
:109370000CBF0B4B0B4B53F82440FEF7CDFC0A4BB4
:10938000012253F8273001460293002303948DE80D
:109390000C0028460223324601F0D8FA05B0F0BD91
:1093A000E41D0D00CC190D001C1C0D0003780A2BC8
:1093B0000ED1C288074B1A800279074B1A70C27807
:1093C000064B1A708278064B1A704278054B1A7059
:1093D000704700BFCA820720C9820720C8820720C1
:1093E000FE3A0820FF3A08207FB502F04DF80B281E
:1093F00009D903238DF80030FBF710FB8DF8080026
:10940000684602F087F807B05DF804FB08B5044B26
:109410000521186800F056FF0122024B1A7008BDA2
:10942000E83A0820F63A082008B5044B04211868E9
:1094300000F048FF0122024B1A7008BDE83A0820EC
:10944000FC3A082082071FD16422B0FBF2F302FB32
:1094500013039BB2D3B94FF4C872B0FBF2F302FB13
:10946000130080B2B0FA80F040090B2912D8012312
:1094700003FA01F111F4256F0AD14B070AD5002830
:1094800014BF1D201C2070470020EEE70120ECE7F0
:109490001E2070471F20704710B51446FFF7D2FFFB
:1094A00024B1A04228BF2046C0B210BD012010BD8B
:1094B0002DE9F04186B00D460446FFF7B2F9124B94
:1094C00007461E78114B1A78114B1978114B1888E2
:1094D000FFF7E2FF8046FEF71FFC1F2305930023E2
:1094E00004930D4B014602930C4BCDF80C8053F8BE
:1094F0002730009601932A460423204601F038FBCA
:1095000006B0BDE8F08100BFFD3A0820C882072000
:10951000C9820720CA820720C8190D007C190D00D6
:109520002DE9F043037887B02A2B054640F092805E
:109530004378022B40F08E8000F08EFE0F287ED103
:10954000EC78AD78F7F72CFB444B02950093444A36
:109550000346019401210020FAF71EFA414B424EC6
:109560001B78424D9A1EDFF82C81DFF82C91404F7A
:10957000042A5ED8DFE802F003323E4C550004F5C1
:10958000FA6423463B4A01210020FAF705FA3480A9
:109590003B78394A049399F800300121039398F8F5
:1095A0000030002002932B780193338800932B4BDB
:1095B000FAF7F2F93C78297899F8003098F8002009
:1095C0003088009401F072FC2C4B186800F0E2FE29
:1095D0000F2007B0BDE8F04300F00EBE2346284A36
:1095E00001210020FAF7D8F90CB12C70D0E7012343
:1095F0002B70CDE72346234A01210020FAF7CCF94E
:10960000224629783088FFF747FF88F80000BFE737
:1096100023461D4A01210020FAF7BEF989F80040CF
:10962000B6E72346194A01210020FAF7B5F93C7044
:10963000AEE7174A01210020FAF7AEF9A8E7103883
:10964000C0B26F2806D8A978E87807B0BDE8F04323
:1096500000F028BD07B0BDE8F08300BFC3180D00BF
:109660000D1B0D00F73A0820CA820720C982072087
:10967000FF3A08201C1B0D00891B0D00E43A08204E
:109680002D1B0D003E1B0D00511B0D00611B0D001D
:10969000741B0D00C8820720FE3A0820194B2DE9E3
:1096A000F341187058B3184D2888A0F5FA63362B8B
:1096B00025D8DFF86C8098F800104B1E0B2B1ED8B5
:1096C000124F3C78DCB12246FFF7E6FE844216D802
:1096D0000F4C2378172B12D80E4E33783B2B0ED815
:1096E0000D4B0E4A01210020FAF756F920782C88FC
:1096F0003A7898F8003031780094FFF78FFB02B089
:10970000BDE8F081FD3A0820CA820720C882072000
:10971000FE3A0820FF3A082092180D00D8240D00C8
:10972000C98207202DE9FF41037804462A2B03D183
:10973000477827B1012F11D004B0BDE8F0818478BB
:10974000002CF9D100F098FD204600F055FD554B56
:10975000186804B0BDE8F04100F01CBE00F07CFDCC
:109760000F2800F2958000F077FD02288046A5784A
:109770007FD0E67824790AD30F282CD00194009664
:109780002B46494A39460020FAF706F9D4E715B9BD
:109790000EB9012C0BD00F2C13D8012C07D9022C99
:1097A000CAD1424B186800F0F5FD204604E03D4B5D
:1097B000186800F0EFFD002004B0BDE8F04100F0B3
:1097C0001BBD2106B8D422463146284604B0BDE868
:1097D000F04100F0D3BBF7F7E3F9354B0394009366
:1097E000029603460195334A39460020FAF7D4F829
:1097F0000F2DA1D1012C17D12F4E304A337821469D
:109800000020FAF7C9F8307880F00100FFF746FF32
:1098100033782B4A21460020FAF7BEF8294B186806
:1098200000F0B8FD2846C7E7072C16D10121264ACB
:109830000020FAF7B1F8254B197881F00101197071
:1098400049B100210846FFF706F91E4B186800F0E1
:10985000A1FD0F20B0E70120F5E71D4D2B78A342B5
:109860003FF46AAF1B4A01210020FAF795F82C70EB
:1098700062E7022D06D124790F2C01D1114B91E71B
:109880000A4BCCE7094B186800F084FD404693E78B
:1098900002063FF551AF227913063FF54DAFE1784F
:1098A000A07893E7E03A08205A0D0D00E83A082026
:1098B000AC180D00B01A0D00FD3A0820C81A0D00B2
:1098C0003E090D00E43A0820E81A0D00F53A082098
:1098D000F73A0820F81A0D0010B50446144A002182
:1098E00000F002FD2046134A012100F0FDFC204655
:1098F000114A022100F0F8FC2046104A032100F032
:10990000F3FC20460E4A042100F0EEFC20460D4AEE
:10991000052100F0E9FC20460B4A062100F0E4FC9A
:109920002046BDE81040094A072100F0DDBC00BF19
:10993000AD920C0055920C00F9910C00A5910C0011
:10994000B1940C0051910C00FD900C00C18E0C00E4
:1099500010B504461B4A002100F0C6FC1A4A01213A
:10996000204600F0C1FC194A0221204600F0BCFC50
:10997000174A0321204600F0B7FC164A042120466E
:1099800000F0B2FC144A0521204600F0ADFC134B58
:109990001B7823B1124B0521186800F093FC114B82
:1099A0001B7823B10E4B0421186800F08BFC0E4B82
:1099B0001B7833B1BDE81040094B0321186800F053
:1099C00081BC10BDE5920C000D900C0055930C006D
:1099D000B58F0C005D8F0C00218F0C00F63A08202B
:1099E000E83A0820FC3A0820F43A082010B504466A
:1099F0000E4A002100F078FC0D4A0121204600F0BB
:109A000073FC0C4A0221204600F06EFC0A4A032136
:109A1000204600F069FC094B1B7833B1BDE81040CB
:109A2000074B0321186800F04DBC10BD1D930C00BE
:109A3000C1900C0085900C0049900C00003B082060
:109A4000E03A082010B522492A20F9F74BFE214CB4
:109A500021492A20F9F746FE20490A20F9F742FE5B
:109A600021460020F9F73EFE21460120F9F73AFE93
:109A700021461B4C0720F9F735FE21460F20F9F748
:109A800031FE21460720F9F72DFE16490720F9F788
:109A900029FE00F003FC144B1860FFF7A7FF00F04D
:109AA000FDFB124B1860FFF753FF00F0F7FB104B64
:109AB0001860FFF711FF00F0F1FB0E4B186000F08B
:109AC00005FB00F0E9FBBDE8104000F087BC00BFDB
:109AD00025970C00498E0C0021950C00AD930C00CD
:109AE000858E0C00E9930C00E03A0820E83A082043
:109AF000E43A0820EC3A08207FB50D460446FEF70C
:109B000090FE0646FEF708F9084B03220393084B24
:109B1000014653F826302046029300238DE80C00BE
:109B20000A232A4600F012FF04B070BDC4280D00BD
:109B3000C8280D00F0B585B00E460546FEF771FE4B
:109B40000746FEF76EFE04460020FDF7BFFE012823
:109B500001D0032815D10C4B53F82440FEF7DCF854
:109B60000A4B032253F82730014602930023039443
:109B70008DE80C0028460923324600F0E7FE05B0C8
:109B8000F0BD034BE8E700BFF82A0D00D42E0D000E
:109B90003C2E0D00F0B585B00E460546FEF741FEA1
:109BA0000746FEF73EFE04460020FDF78FFE013813
:109BB000012894BF0B4B0C4B53F82440FEF7ACF834
:109BC0000A4B032253F827300146029300230394E3
:109BD0008DE80C0028460823324600F0B7FE05B099
:109BE000F0BD00BFE8370D007C290D0018260D00E0
:109BF000F0B585B00E460546FEF713FE0746FEF7A4
:109C000010FE044601F040FC0B2833D8DFE800F0DA
:109C1000061C1E2022242E3026282A2C164B53F8F0
:109C20002440FEF779F8154B032253F827300146FC
:109C30000293002303948DE80C0028460623324645
:109C400000F084FE05B0F0BD0D4BE8E70D4BE6E7F4
:109C50000D4BE4E70D4BE2E70D4BE0E70D4BDEE784
:109C60000D4BDCE70D4BDAE70D4BD8E70D4BD6E794
:109C70000D4BD4E70D4CD4E7A42D0D00AC2A0D00FC
:109C8000E0270D0014290D0048270D00CC250D00FC
:109C9000FC260D000C2D0D0094270D0080380D00C2
:109CA00078280D0034380D002C280D00C4280D0034
:109CB000F0B585B00E460546FEF7B3FD0746FEF744
:109CC000B0FD04460520FDF701FEB0B1012816D114
:109CD0000F4B53F82440FEF71FF80E4B014653F884
:109CE0002730039402930023019303233246009309
:109CF000284600F02BFE05B0F0BD074BE9E7064B08
:109D00000021052053F82440FDF7E6FDE3E700BFFE
:109D1000B0260D00F02D0D00902B0D002DE9FF4118
:109D200006460F46FEF77DFD134B80461C781CB19E
:109D300000210320FDF7D0FDFEF773FD054603204B
:109D4000FDF7C4FD01280CBF0C4B0D4B53F82550FB
:109D5000FDF7E2FF0B4B014653F8283003950293C1
:109D60000323019400933A460123304600F0EEFDB0
:109D700004B0BDE8F08100BF0B3B0820142A0D00A1
:109D8000602A0D00C8290D002DE9F04385B08946F1
:109D90008046FEF746FD06460820FDF797FD114B6D
:109DA00053F82670104B1D78BDB9012817D1044611
:109DB0000E4B53F82670FDF7AFFF0D4B014653F8DD
:109DC0002630039401930297009507234A464046A4
:109DD00000F017FE05B0BDE8F0830024EBE72C4649
:109DE000E9E700BF282C0D000C3B0820C02C0D001B
:109DF000582D0D002DE9F04186B00F460646FEF7BE
:109E000010FD05460720FDF761FD80460520FDF7A2
:109E10005DFD0446FDF780FF3C230593002314F10C
:109E2000FF3418BF01240493094B014653F8253031
:109E3000CDF80C800293074B009453F825303A4636
:109E400001933046052300F093FE06B0BDE8F08193
:109E5000882E0D00DC2B0D002DE9F04186B00F4659
:109E60000646FEF7DEFC05460620FDF72FFD804680
:109E70000520FDF72BFD0446FDF74EFF3C2305931F
:109E8000002314F1FF3418BF01240493094B014649
:109E900053F82530CDF80C800293074B009453F80B
:109EA00025303A4601933046042300F061FE06B0A7
:109EB000BDE8F081882E0D00742C0D00F0B587B040
:109EC0000E460546FEF7ADFC04460420FDF7FEFCF9
:109ED0000746FDF721FF1E2305930023094A04933B
:109EE00052F8242000930292074A014652F8242097
:109EF0000397019202233246284600F039FE07B04C
:109F0000F0BD00BF442B0D0064260D0073B5044660
:109F1000FEF787FC0646FDF709FF084B0546186863
:109F200000F01EFA064B024653F8263029460093ED
:109F30002046102300F0C8FC02B070BD043B08208E
:109F40007C82072008B5044B0721186800F0BAF995
:109F50000122024B1A7008BD043B08200C3B08206C
:109F600008B5044B0121186800F0ACF90122024B3E
:109F70001A7008BD043B08200B3B08207FB548B988
:109F8000414B186800F006FA102000F035F907B0D0
:109F90005DF804FB1028FAD1531E092B70D8DFE8B6
:109FA00003F0056F116F6F1B2B3446640320FDF720
:109FB0008DFC411CC9B2022908BF00210320FDF716
:109FC0008BFCDDE70520FDF781FC411CC9B20229AD
:109FD00008BF00210520F2E701F056FA0130C0B2B7
:109FE0000C2828BF002003238DF8080068468DF850
:109FF000003001F08FFAC3E70820FDF767FC10F18D
:10A00000FF3118BF01210820D9E70020FDF75EFCD1
:10A010000138032803D8DFE800F008221B261B4B79
:10A020001B4A01210020F9F7B7FC032111E00020B1
:10A03000FDF74CFC0138032813D801A353F820F096
:10A0400067A00C0051A00C005FA00C002BA00C001E
:10A0500001210020FDF740FC01F06AFB90E704219C
:10A06000F7E70C4BDCE70221F3E70B4B0B4A01212E
:10A070000020F9F791FCFDF745FCFDF773F87FE749
:10A08000074B1A707CE700BF043B082084250D00B5
:10A0900060290D009B250D00B4250D0089060D00DB
:10A0A000093B0820084B01461B78042B06D0052BE2
:10A0B00006D0022B06D10420FDF70EBC0620FBE7DC
:10A0C0000720F9E7704700BF093B082010B5394C5D
:10A0D000394A0021206000F007F9384A0121206840
:10A0E00000F002F9364A0221206800F0FDF8354AF6
:10A0F0000321206800F0F8F8334A0421206800F0BA
:10A10000F3F8324A0521206800F0EEF8304A0621C3
:10A11000206800F0E9F82F4A0721206800F0E4F8F1
:10A120002D4A0821206800F0DFF82C4A0921206818
:10A1300000F0DAF82A4A0A21206800F0D5F8294B05
:10A140001B781BB10721206800F0BCF8264B1B7858
:10A150001BB10121206800F0B5F8244B1B785BB1DE
:10A160000321206800F0AEF80421206800F0AAF86E
:10A170000521206800F0A6F81D4B1B783BB101219A
:10A18000206800F09FF80221206800F09BF8194B2E
:10A190001B786BB12068062100F094F82068082134
:10A1A00000F090F820680921BDE8104000F08AB85E
:10A1B00010BD00BF043B08200D9F0C001D9D0C002E
:10A1C000BD9E0C00B19C0C00599E0C00F59D0C002E
:10A1D000F19B0C00899D0C00959B0C00359B0C009D
:10A1E000F99A0C000C3B08200B3B08200D3B082083
:10A1F0000A3B0820083B082010B40B4A0B49B2F96F
:10A200000030CC1814F8014C844200D123B9092B3A
:10A21000C85403DC0133138010BC70470021044A8A
:10A22000084610BCF9F7B8BB0E3B0820CC820720CB
:10A23000CC380D00FF21064BB3F90020002AC4BF23
:10A2400002F1FF321A80B3F90030024AD15470474C
:10A250000E3B0820CC820720054BB3F90020002AD2
:10A26000C3BF044B9B1813F8010CFF20704700BFBD
:10A270000E3B0820CC8207200023FF21044A99547A
:10A2800001330A2BFBD10022024B1A80704700BF1A
:10A29000CC8207200E3B0820FFF7EEBF08B58C20CC
:10A2A00002F056F900220260426008BD08B10023A6
:10A2B0008360704728B1012303FA01F103680B435F
:10A2C0000360704730B1012303FA01F1036823EA08
:10A2D00001030360704728B1012303FA01F14368C9
:10A2E0000B4343607047000038B50C4690B12029FD
:10A2F00006D9BDE838400021074A0846F9F74CBBAB
:10A3000000EB8103DA60FFF7E6FF2146BDE8384045
:10A31000FFF7D0BF38BD00BFF1380D0037B5044698
:10A3200001258368012100930C4A03460020F9F7B8
:10A3300033FB6168A36805FA03F211EA020005D055
:10A34000206810401CBF04EB8302D068013310B1B9
:10A35000A36003B030BD1F2BEDD9F9E706390D001E
:10A360000122F0B500231646456800F1100106FAF7
:10A3700002F4254206D007683C4203D00C680CB1B9
:10A380000133DBB20132202A01F10401EFD118467A
:10A39000F0BD0000094B13B51860FEF7C5F8084B77
:10A3A0001C68F6F7FDFB05230246009301210023FC
:10A3B0002046F7F7BBF902B010BD00BF143B0820E0
:10A3C000183B082008B5FEF7AFF8034B1868BDE846
:10A3D0000840FFF7DFBF00BF103B082007B5074B61
:10A3E0004FF4FA710093002305481A46F7F778F9FD
:10A3F000044B186003B05DF804FB00BF29A40C00F7
:10A4000017390D00183B0820292300B58BB00190A7
:10A4100068468DF80030F9F781F96846F9F77EF95A
:10A420000BB05DF804FB000010B5054C206830B19E
:10A43000FFF7EAFF2268034B1A600023236010BD78
:10A44000143B0820103B082003781A2B02BF4268F7
:10A45000014B1A60704700BF203B08200378072B90
:10A4600004D1034A13780BB1013B1370704700BF4E
:10A47000D682072038B503780546102B1AD1837889
:10A48000012B11D10C4A13700C4C6978227891423F
:10A4900007D00B4A01210020F9F77EFA0948FEF7A0
:10A4A000F1F86B78237005E0002BEDD1024B1B789F
:10A4B000002BE9D038BD00BF1C3B0820D782072005
:10A4C0001E390D0049A60C0038B503780546162B39
:10A4D0000ED1084C41782278914207D0064A0121DA
:10A4E0000020F9F759FA0548FEF7CCF86B7823708D
:10A4F00038BD00BFDA8207205C390D0049A60C0088
:10A5000038B503780546152B0ED1084C41782278D2
:10A51000914207D0064A01210020F9F73DFA05488B
:10A52000FEF7B0F86B78237038BD00BFD9820720E2
:10A5300049390D0049A60C0038B503780546122BA1
:10A5400014D10B4C41782278914207D0094A01215D
:10A550000020F9F721FA0848FEF794F86B78237089
:10A56000FCF70CFE10B10A22044B1A7038BD00BF74
:10A57000D882072034390D0049A60C00D682072066
:10A5800010B52C4B1C78002C4CD00023FF2480F8F5
:10A59000093100F20712431E03F8014F9A42FBD122
:10A5A000C7220270C82200234270102280F80A31AC
:10A5B00080F80B310371204BC270204A1B7812784F
:10A5C000002B817014BF002361231AB343F00203F0
:10A5D0001B4A12780AB943F008038371194B1531ED
:10A5E0001B68C9B2C3F307220372002343722023FE
:10A5F00083720523C271437100F10B02831D9A42DD
:10A600000BD1C943C1720C2180F80811FEF770F913
:10A61000012010BD43F00603DAE713F8014B214493
:10A62000C9B2ECE7F9F79EF90120FCF7B3FB20462D
:10A6300010BD00BFD6820720D8820720DA8207200B
:10A64000D7820720203B0820FFF79ABF08B50D49A5
:10A650001220F9F747F80C491020F9F743F80B4995
:10A660001620F9F73FF80A491520F9F73BF8094990
:10A670001A20F9F737F8BDE8084007490720F9F72D
:10A6800031B800BF39A50C0075A40C00C9A40C009A
:10A6900001A50C0049A40C005DA40C00002310B51A
:10A6A000FF2480F80931421E00F2071302F8014F1F
:10A6B0009342FBD1C7230370C82343701823C37090
:10A6C0000323002243710B4B80F80A211B7880F88A
:10A6D0000B21C3710B441D33817002718271DB4306
:10A6E00002220A210272437280F80811FEF700F973
:10A6F000012010BD243B082038B50023FF2480F83A
:10A70000093100F20715431E03F8014F9D42FBD1AA
:10A71000C7250570C825457019250023C5700E256D
:10A7200080F80A3180F80B3181700371457115781A
:10A73000273185715578C9B2C57195780572D5787C
:10A740008372457255790373C572127A83744273AA
:10A75000C3748473C47304744474831D00F11402BD
:10A76000934208D1C9430175152180F80811FEF7FD
:10A77000BFF8012038BD13F8014B2144C9B2EFE7FF
:10A7800038B50023FF2580F8093100F20714431E75
:10A7900003F8015F9C42FBD1C7240470C824002346
:10A7A00044701A248170C470037180F80A3180F8F3
:10A7B0000B315378223183719378C9B2C371D37846
:10A7C000037213794372537983729379C372D37985
:10A7D0000373137A00F10E02437308234371831D40
:10A7E000934208D1C94381730F2180F80811FEF705
:10A7F0007FF8012038BD13F8014B2144C9B2EFE7BF
:10A8000070B5417990F808418D1DA54217D1837824
:10A81000C2780B4413440279053113440622DBB29B
:10A82000914206DADB430134435580F808410120A8
:10A8300070BD865C01323344DBB292B2F0E7002097
:10A8400070BD0023FF2180F8083180F8093100F243
:10A850000712431E03F8011F9342FBD1002380F827
:10A860000A3180F80B31704730B51446A31ADBB2B9
:10A87000994200D830BD90F8083114F8015BC554F6
:10A88000013380F80831F1E710B590F80A31044639
:10A8900090F808110BB1032903D8637907338B4271
:10A8A00004D12046FEF724F8012010BD0021054AFE
:10A8B0000846F9F771F8204694F80811FEF718F8E1
:10A8C000002010BD58150D002DE9F041069E0446EC
:10A8D00090460D461F46FFF7B4FFC723C82290F8E5
:10A8E00008012354431CDBB2E254831C3022DBB248
:10A8F000E5540025C31CDBB2E254411D031DDBB24D
:10A90000C9B204F80380C21D6554811DC9B2D2B218
:10A91000083004F80180A75484F80801304602F09A
:10A9200069FA3246C1B22046FFF79EFF94F808311B
:10A930002046E5545A1C053B84F808216371FFF753
:10A940005FFF2046BDE8F041FFF79EBF2DE9F84FBD
:10A950000C9F04468B46154699460D9E9DF828A0EF
:10A960009DF82C80FFF76DFFC723CA2290F80801DD
:10A970002354431CDBB2E2543022831CDBB204F8C4
:10A9800003B0C31CDBB2E254031DDBB2E554002567
:10A99000431D821DDBB2D2B2E55404F802A000F1DF
:10A9A0000803C21DDBB2D2B2093004F8029004F8E9
:10A9B000038084F80801384602F01CFA3A46C1B216
:10A9C0002046FFF751FF94F808313046E554013333
:10A9D00084F8083102F00EFA3246C1B22046FFF781
:10A9E00043FF94F808312046E5545A1C053B84F88F
:10A9F00008216371FFF704FF2046BDE8F84FFFF719
:10AA000043BF2DE9F84FDDF82C8004468B461546F0
:10AA10009A460C9F9DF828909DF83460FFF711FF2F
:10AA2000C723CA2290F808012354431CDBB2E25426
:10AA30003022831CDBB204F803B0C31CDBB2E25447
:10AA4000031DDBB2E5540025431DDBB2E5540423AE
:10AA5000821DD2B2A354C21D00F10803DBB2D2B2F0
:10AA6000093004F802A004F8039084F80801404675
:10AA700002F0C0F94246C1B22046FFF7F5FE94F855
:10AA800008313846E554013384F8083102F0B2F950
:10AA90003A46C1B22046FFF7E7FE94F80831204657
:10AAA0005A1CD2B2E554A5549A1CD2B2A654DA1C50
:10AAB000033B84F808216371FFF7A2FE2046BDE83E
:10AAC000F84FFFF7E1BE2DE9F047099F04468A469B
:10AAD000154699469DF820809DF82860FFF7B1FE45
:10AAE000C723CA2290F808012354431CDBB2E25466
:10AAF0003022831CDBB204F803A0C31CDBB2E25497
:10AB0000031DDBB2E5540025431DDBB2E5540523EC
:10AB1000821DD2B2A354C21D00F10803DBB2D2B22F
:10AB2000093004F8029004F8038084F808013846DC
:10AB300002F060F93A46C1B22046FFF795FE94F85C
:10AB4000083120465A1CD2B2E554A5549A1CD2B200
:10AB5000A554DA1CD2B2A6541A1D023B84F808216F
:10AB60006371FFF74DFE2046BDE8F047FFF78CBE4E
:10AB70002DE9F74F0D9F04460D460E9E019200935E
:10AB80009DF830B09DF83C809DF840A09DF8449021
:10AB9000FFF757FE90F80811C7204FF0CA0E605417
:10ABA000481CC0B204F800E0881CC0B2255430250F
:10ABB000C81CC0B22554019A0025081DC0B22254F9
:10ABC00006204A1DD2B2A5548A1DD2B2A054009BC1
:10ABD000CA1DD2B2A35401F10803DBB2093104F853
:10ABE00003B0384684F8081102F004F93A46C1B2BD
:10ABF0002046FFF739FE94F808313046E55401331A
:10AC000084F8083102F0F6F83246C1B22046FFF768
:10AC10002BFE94F8083120465A1C991CD2B2C9B2B6
:10AC2000E554A55404F801A0D91CC9B26554191DF6
:10AC3000C9B204F80190591DC9B26554991DC9B231
:10AC4000073304F8018084F808316271FFF7D8FDFA
:10AC5000204603B0BDE8F04FFFF716BE37B5847A43
:10AC6000857904F5FA64437A027AC179009428461A
:10AC7000FEF7D4F803B030BD014B1878704700BF21
:10AC8000253B082010B5837904466BB90121074B99
:10AC9000074A19700220074BF8F77EFE217AE07907
:10ACA000BDE81040FDF7D7BE10BD00BF253B082012
:10ACB00083390D0070390D0010B504468379074AB9
:10ACC00001210020F8F768FEA379BDE810401A2B97
:10ACD00096BF034A0120D05CFDF7CCBEB6390D000B
:10ACE0009B390D0030B5457B85B0C479437A027A33
:10ACF00081790395057B0295C57A0195807A00904C
:10AD00002046FDF7D7FC05B030BD000010B5044665
:10AD1000064A01210020F8F73FFEA379022B04D157
:10AD2000E079BDE81040FDF7FCBC10BDC9390D004D
:10AD3000232300B58BB08DF80030837907308DF870
:10AD40000130002310F8012B0DEB03011D2B8A703D
:10AD500011D100210A4A0846F8F71EFE2E238DF86D
:10AD60001F308DF81E308DF81D306846F8F7D6FC80
:10AD70000BB05DF804FB0133002AE3D1F5E700BF17
:10AD8000CF390D008379027AC17903F00F00FDF706
:10AD9000B3BC0000242300B58BB08DF8003083795C
:10ADA00008308DF8013010F8013C8DF80230002396
:10ADB00010F8012B0DEB03011D2BCA7014D10021DB
:10ADC0000B4A0846F8F7E8FD00238DF820302E23C3
:10ADD0008DF81F308DF81E308DF81D306846F8F75D
:10ADE0009DFC0BB05DF804FB0133002AE0D1F5E7D0
:10ADF000CF390D007047000070B5154A0446012197
:10AE00000020F8F7C9FD0023124E94F808215D1CBC
:10AE1000DBB29A4214D8104A01210020F8F7BCFD99
:10AE2000A37933B9E37923B9237A012B01D8FFF74A
:10AE300001FA227AE179A079BDE87040FDF7AABC59
:10AE4000E35C324601210020F8F7A6FD2B46DCE743
:10AE5000EF390D008D180D00080B0D0070B5104A6C
:10AE6000044601210020F8F797FD00230D4E94F8C9
:10AE700008215D1CDBB29A420AD801210A4A00204F
:10AE8000F8F78AFDE179A079BDE87040FDF7A0BC34
:10AE9000E35C324601210020F8F77EFD2B46E6E711
:10AEA000EF390D008D180D00080B0D0030B4074C64
:10AEB0009DF8085024681CB10295A44630BC604738
:10AEC0002146204630BC024AF8F766BD283B0820E0
:10AED000FA390D0000230246FF2180F84630831C1A
:10AEE00042F8403F03F8011B9342FBD19F2200230D
:10AEF0000270022280F84930427080F8473080F8B2
:10AF00004C3080F8483080F84A3080F84B3080F878
:10AF1000441080F845307047F8B500230B4C0C4EB8
:10AF20000C4F22785D1CDBB29A4206D80A4A0121F6
:10AF3000BDE8F8400020F8F72FBDF35C3A46012148
:10AF40000020F8F729FD2B46EBE700BFB43C0820B2
:10AF5000EC3B08204C3A0D00080B0D0008B5F5F746
:10AF6000EFFB0023054A1370054A13700122054BBD
:10AF70001A70BDE80840F5F7F3BB00BF983B082006
:10AF8000403B0820DB82072010B5104C2378022BB1
:10AF900010D80F4A01210020F8F7FEFC23780D4855
:10AFA000013323700023BDE810401A46194600689B
:10AFB000F6F7F8BE084A01210020F8F7EDFCFFF78C
:10AFC000ABFFBDE81040FFF7C9BF00BF983B0820AA
:10AFD0009B3A0D002C3B0820A53A0D000023F7B545
:10AFE0001A46224C22492078DDB285423AD39F236B
:10AFF0000B7002232270002003224B701D4B93F82C
:10B0000044501F6C8D70C6B2BB5D01309F2B12BFC8
:10B0100013468B54531CBA5D08BFDBB2C6B2CA5488
:10B02000B54203F10102D2B2EDD29F20885403222F
:10B03000DD1C0233DBB2CA540F4BEDB21E68F5F7CC
:10B04000AFFD00230246009301213046F6F76EFB68
:10B050002A460A4B064918682570C36803B0BDE844
:10B06000F0401847CA540133BEE700BFB43C082083
:10B07000EC3B08209C3B08203C3B0820343B08204C
:10B0800030B50D4B93F844001A6C93F84510024408
:10B090005170002193F844204C1CC9B28A4202F13D
:10B0A000010202D283F8442030BD186C415C855CFB
:10B0B000694081542146EDE79C3B0820094A92F8FB
:10B0C0004430A3F13D01C9B2C1290AD90133116C41
:10B0D000DBB282F84430C85492F84530013382F82C
:10B0E000453070479C3B082010B50446C0B2FFF7BE
:10B0F000E5FFC4F30720FFF7E1FFC4F30740FFF7C4
:10B10000DDFF200EBDE81040FFF7D8BF036C587874
:10B1100000F022BA036C5878003018BF012000F00C
:10B1200015BA00002DE9F043B94E8BB030684E22BD
:10B1300043694FF4E1319847B64CB74F0021386866
:10B14000F7F760F8024600284CD0FFF747FF306859
:10B150000A2301220DF10F018069FAF7CEFB0028C6
:10B1600000F0788194F846209DF80F30002A00F016
:10B170008E800022022B84F846206AD12046FFF7F9
:10B18000A9FE012384F8493094F84830002BDED022
:10B1900094F84730002B00F0A2800A23009300238C
:10B1A0009E481A4603210068F6F7C0FA94F84B301F
:10B1B000002B00F091809A4D2B78032B00F28580B4
:10B1C000984A01210020F8F7E7FB002338681A4667
:10B1D0001946F6F7E7FD2B7801332B702046FFF771
:10B1E00079FEB4E7904D2B78002BB0D08F4B04A99B
:10B1F0001868F6F75FFF0028A9D08D48FFF76AFEB0
:10B200009DF81000FFF75AFF9DF81030042B19D05D
:10B2100009D8DBB1032B19D0FFF732FFFFF7DEFEB1
:10B2200000232B7093E7172B0CD0182B0ED0052B77
:10B23000F2D19DF81800FFF741FF9DF81900FFF7C4
:10B240003DFFE9E70598FFF74FFFF2E79DF818008B
:10B25000F5E7032B07D194F84930002B94D0012354
:10B2600084F8483090E7062B05D1012384F84A3052
:10B2700084F8473088E7152B03D1012384F84B303D
:10B28000F6E79F2B09D02046FFF724FE7CE79F2B93
:10B2900003D1012384F8463076E794F84420A2F1E4
:10B2A0003E01C9B2C0297FF66FAF94F8491029B1A9
:10B2B00094F8451011B984F8453065E7216C0132E6
:10B2C000D2B284F844208B545EE75A4A0121002010
:10B2D000F8F762FBFFF720FEFFF740FE7EE7206CE9
:10B2E00094F845E00346724694F8445000F1410852
:10B2F0001FFA85FC191A89B2614505D813F8011B9C
:10B30000984582EA0102F5D1AE4575D1002A73D184
:10B31000494A04AB10685168082203C3306804A985
:10B32000C368984794F8483043B1226C1378042BD3
:10B330002CD027D8012B43D0032B4ED03F4A0121DC
:10B340000020F8F729FB94F8455094F84830FF2D79
:10B3500008BF002500933A4A2B4601210020F8F748
:10B360001BFB4FF00008DFF8E89003355FFA88F325
:10B37000AB4208F1010838DD324A01210020F8F71C
:10B380000BFB2BE7162B2CD0172BD7D10023D2F891
:10B390000150DFF8BC9094F8442003F10108DBB2BF
:10B3A0009A4211D8274A01210020F8F7F5FA002D1A
:10B3B0003FF414AF236CDA1D99795879A8470DE74B
:10B3C0002046FFF7A3FE09E7226C0121D35C002091
:10B3D0004A46F8F7E1FA4346DDE752781A4B1A700D
:10B3E000FCE62046FFF796FEF8E6E35C4A460121BC
:10B3F0000020F8F7D1FAB9E7144A04AB1068516895
:10B40000082203C3306804A9C3689847E6E600BF72
:10B41000343B0820443B08202C3B08203C3B0820C0
:10B42000403B0820523A0D00DB820720943B082065
:10B430009C3B0820593A0D00293A0D00783A0D003E
:10B440008B3A0D00080B0D00393B0820203A0D0007
:10B450004C3A0D00094B1D786A1C1A70002D7FF4C0
:10B460006CAEF5F7F9FD63283FF667AE044B054A6D
:10B4700001212846F8F790FA5FE600BF383B082024
:10B48000323A0D00A7090D00014B1878704700BF34
:10B49000393B082073B5154E34782CBB0125144A6E
:10B4A000144B15491A60154823464FF4C87201948D
:10B4B0000095F5F749FA224618212820F6F74CFCAA
:10B4C0000F4B224618600F4BA02100930E482346D5
:10B4D000F6F706F90D4B0322186021462846F6F7C9
:10B4E0003BFC0B4B3570186002B070BD303B082040
:10B4F00014820720343B0820423A0D0025B10C008D
:10B50000943B082089AF0C0096140D003C3B0820AA
:10B510002C3B082001460348002302220068F6F76E
:10B5200041BC00BF943B0820054B1B782BB9054B51
:10B530001B7813B9044B187800B10120FBF766BEE5
:10B54000B53C0820B63C0820B73C0820014B1870D9
:10B55000FFF7EABFB53C082000F04403442B70B568
:10B56000064619D10122634B1A70FFF7DDFF06F082
:10B570007704032C604D1FD12B78042B11D85F4A20
:10B5800001210020F8F708FA2B7801332B700021F5
:10B59000012000F0CFF83EE0002BE8D1554A1370AF
:10B5A000E3E7574A01210020F8F7F6F90122554B4D
:10B5B0001A70FFF7B9FFEAE7534B1A7812B100226D
:10B5C0002A701A70297800295FD004295BD808BF37
:10B5D00003234FF001014FF0030008BF2B7000F070
:10B5E000A9F84A4A01210020F8F7D6F92B78013B47
:10B5F0002B700022434B1A70FFF796FF402C01D0AE
:10B60000042CC4D10121084600F094F8404A0121DD
:10B610000020F8F7C1F9302C3BD101213D4A002030
:10B62000F8F7BAF90121022000F084F80021072080
:10B6300000F080F8102C3BD10121374A0020F8F7A8
:10B64000ABF90121062000F075F80021042000F07C
:10B6500071F8012C3BD12146304A0020F8F79CF9C3
:10B660002146052006F0880600F064F8802E30D1CF
:10B6700001212B4A0020F8F78FF90121082000F062
:10B6800059F8002131E00023B2E7032000F052F81E
:10B69000AFE70021022000F04DF8202CC6D1012197
:10B6A000204A0020F8F778F90121072000F042F83D
:10B6B0000021062000F03EF8022CC6D101211A4AD2
:10B6C0000020F8F769F90121042000F033F8002187
:10B6D000C7E70021082000F02DF8082ED1D1012164
:10B6E000124A0020F8F758F90121BDE870400920FE
:10B6F00000F020B8B73C0820DD820720CE3A0D00CC
:10B70000D53A0D00B63C0820DC820720DE3A0D0059
:10B71000E53A0D00EC3A0D00FA3A0D00073B0D003A
:10B720000D3B0D00F23A0D00003B0D00163B0D00E5
:10B730007047704708B5034609282FD8DFE800F0A6
:10B74000050B0F13171A1E2124284FF400222D4B2E
:10B7500011B31A6308BD2C4B4FF08072F8E7294BE8
:10B760004FF48022F4E7274B4FF48072F0E7254B2B
:10B770008022EDE7234B4FF40052E9E7224B4022B1
:10B78000E6E7214B1022E3E71E4B4FF48062DFE730
:10B790001C4B4FF40062DBE75A6308BD1B4A0121D2
:10B7A0000020F8F7F9F84022174B5A6310225A6329
:10B7B0004FF400025A634FF480025A634FF08072D4
:10B7C0005A634FF40022C3F834228022C3F8342293
:10B7D0004FF40052C3F834224FF48022C3F83422CD
:10B7E0004FF48072C3F834224FF48062C3F83422DD
:10B7F0004FF08062C3F834224FF40062C3F8342261
:10B8000008BD00BF00100E40000E0E40213B0D0091
:10B81000F0B5114D8DB001AC06460F460FCD0FC4EB
:10B820000FCD0FC495E80700002384E8070001AAA4
:10B8300052F82300B7FBF0F0B0FBF6F0B0F5807FD4
:10B8400006D901330B2BF3D14FF6FF700DB0F0BDCD
:10B8500040EA0320FAE700BF343B0D0070B50C68E6
:10B8600006460D4644B120468968FFF7D1FF4FF6E2
:10B87000FF73984204460CD0686840B1A968FFF78E
:10B88000C7FF4FF6FF73984205D044EA0044346086
:10B890000024204670BD0446FBE74A6830B58C8A18
:10B8A00002F00F0222430C898D7D22438C7A0B68B3
:10B8B00042EA4422CC7D42EA054242EA44420C7EFE
:10B8C00042EA844200EB4314C4F80022CA68C4F878
:10B8D00004220A69C4F80C221DB1D1F81A20C4F858
:10B8E0001822CA7F02FA03F48A7F9A4042EA04428D
:10B8F000826491F8212002FA03F491F820209A4002
:10B9000042EA04424264012291F822409A4024B360
:10B91000046A1443046291F82440012C846E0CBF25
:10B9200014439443846691F825401204012C846EDC
:10B930000CBF224324EA0202032B82664FF0FF046D
:10B9400091F823200DD8DB00C16E9C4021EA04044D
:10B950009A402243C266002030BD046A24EA0204F1
:10B96000D8E7043BDB00016F9C4021EA040402FAA3
:10B9700003F323430367EEE7CB6893429FBF0B6853
:10B980000A6100EB4310C0F8102294BF00204FF66C
:10B99000FF7070470B69934221BF0B68CA6000EBD0
:10B9A0004310C0F808222CBF00204FF6FF707047EC
:10B9B000012303FA01F141607047012303FA01F109
:10B9C00081607047C06970470123103203FA02F2A8
:10B9D00003FA01F10A43026170470123103203FAAE
:10B9E00002F203FA01F10A434261704781F000411B
:10B9F00002E000BF83F0004330B54FEA41044FEA54
:10BA0000430594EA050F08BF90EA020F1FBF54EAEE
:10BA1000000C55EA020C7FEA645C7FEA655C00F08A
:10BA2000E2804FEA5454D4EB5555B8BF6D420CDD5B
:10BA30002C4480EA020281EA030382EA000083EADE
:10BA4000010180EA020281EA0303362D88BF30BD7E
:10BA500011F0004F4FEA01314FF4801C4CEA1131D4
:10BA600002D0404261EB410113F0004F4FEA033333
:10BA70004CEA133302D0524263EB430394EA050FBE
:10BA800000F0A780A4F10104D5F1200E0DDB02FA2D
:10BA90000EFC22FA05F2801841F1000103FA0EF2C1
:10BAA000801843FA05F359410EE0A5F120050EF187
:10BAB000200E012A03FA0EFC28BF4CF0020C43FAB8
:10BAC00005F3C01851EBE37101F0004507D54FF0C5
:10BAD000000EDCF1000C7EEB00006EEB0101B1F515
:10BAE000801F1BD3B1F5001F0CD349085FEA30005B
:10BAF0004FEA3C0C04F101044FEA445212F5800F66
:10BB000080F09A80BCF1004F08BF5FEA500C50F102
:10BB1000000041EB045141EA050130BD5FEA4C0CE5
:10BB2000404141EB010111F4801FA4F10104E9D16E
:10BB300091F0000F04BF01460020B1FA81F308BF65
:10BB40002033A3F10B03B3F120020CDA0C3208DD31
:10BB500002F1140CC2F10C0201FA0CF021FA02F10C
:10BB60000CE002F11402D8BFC2F1200C01FA02F17C
:10BB700020FA0CFCDCBF41EA0C019040E41AA2BFA1
:10BB800001EB0451294330BD6FEA04041F3C1CDA69
:10BB90000C340EDC04F11404C4F1200220FA04F089
:10BBA00001FA02F340EA030021FA04F345EA030133
:10BBB00030BDC4F10C04C4F1200220FA02F001FAF5
:10BBC00004F340EA0300294630BD21FA04F0294677
:10BBD00030BD94F0000F83F4801306BF81F4801110
:10BBE0000134013D4EE77FEA645C18BF7FEA655C83
:10BBF00029D094EA050F08BF90EA020F05D054EA55
:10BC0000000C04BF1946104630BD91EA030F1EBF59
:10BC10000021002030BD5FEA545C05D1400049415D
:10BC200028BF41F0004130BD14F580043CBF01F550
:10BC3000801130BD01F0004545F0FE4141F4700136
:10BC40004FF0000030BD7FEA645C1ABF1946104611
:10BC50007FEA655C1CBF0B46024650EA013406BF12
:10BC600052EA033591EA030F41F4002130BD00BFD1
:10BC700090F0000F04BF0021704730B54FF480648E
:10BC800004F132044FF000054FF0000150E700BF0F
:10BC900090F0000F04BF0021704730B54FF480646E
:10BCA00004F1320410F0004548BF40424FF000015B
:10BCB0003EE700BF42004FEAE2014FEA31014FEA9E
:10BCC00002701FBF12F07F4393F07F4F81F06051ED
:10BCD000704792F0000F14BF93F07F4F704730B55C
:10BCE0004FF4607401F0004521F0004120E700BFEF
:10BCF00050EA010208BF704730B54FF000050AE076
:10BD000050EA010208BF704730B511F0004502D576
:10BD1000404261EB41014FF4806404F132045FEA78
:10BD2000915C3FF4DCAE4FF003025FEADC0C18BF1D
:10BD300003325FEADC0C18BF033202EBDC02C2F113
:10BD4000200300FA03FC20FA02F001FA03FE40EAA5
:10BD50000E0021FA02F11444C1E600BF70B54FF0A5
:10BD6000FF0C4CF4E06C1CEA11541DBF1CEA135587
:10BD700094EA0C0F95EA0C0F00F0DEF82C4481EAEF
:10BD8000030621EA4C5123EA4C5350EA013518BF0F
:10BD900052EA033541F4801143F4801338D0A0FBFC
:10BDA00002CE4FF00005E1FB02E506F00042E0FBA9
:10BDB00003E54FF00006E1FB03569CF0000F18BFAF
:10BDC0004EF0010EA4F1FF04B6F5007F64F5407457
:10BDD00004D25FEA4E0E6D4146EB060642EAC621EA
:10BDE00041EA55514FEAC52040EA5E504FEACE2E57
:10BDF000B4F1FD0C88BFBCF5E06F1ED8BEF1004F5A
:10BE000008BF5FEA500E50F1000041EB045170BDD5
:10BE100006F0004646EA010140EA020081EA030119
:10BE2000B4EB5C04C2BFD4EB0C0541EA045170BD15
:10BE300041F480114FF0000E013C00F3AB8014F18F
:10BE4000360FDEBF002001F0004170BDC4F10004D8
:10BE5000203C35DA0C341BDC04F11404C4F1200559
:10BE600000FA05F320FA04F001FA05F240EA0200B4
:10BE700001F0004221F0004110EBD37021FA04F6EA
:10BE800042EB06015EEA430E08BF20EAD37070BDA4
:10BE9000C4F10C04C4F1200500FA04F320FA05F003
:10BEA00001FA04F240EA020001F0004110EBD37005
:10BEB00041F100015EEA430E08BF20EAD37070BD75
:10BEC000C4F1200500FA05F24EEA020E20FA04F34E
:10BED00001FA05F243EA020321FA04F001F00041FD
:10BEE00021FA04F220EA020000EBD3705EEA430E6E
:10BEF00008BF20EAD37070BD94F0000F0FD101F09D
:10BF00000046400041EB010111F4801F08BF013CD5
:10BF1000F7D041EA060195F0000F18BF704703F013
:10BF20000046520043EB030313F4801F08BF013D9A
:10BF3000F7D043EA0603704794EA0C0F0CEA135556
:10BF400018BF95EA0C0F0CD050EA410618BF52EA10
:10BF50004306D1D181EA030101F000414FF0000016
:10BF600070BD50EA410606BF1046194652EA430624
:10BF700019D094EA0C0F02D150EA013613D195EA98
:10BF80000C0F05D152EA03361CBF104619460AD1E0
:10BF900081EA030101F0004141F0FE4141F47001EA
:10BFA0004FF0000070BD41F0FE4141F4780170BDDA
:10BFB00070B54FF0FF0C4CF4E06C1CEA11541DBF3F
:10BFC0001CEA135594EA0C0F95EA0C0F00F0A7F841
:10BFD000A4EB050481EA030E52EA03354FEA01316E
:10BFE00000F088804FEA03334FF0805545EA131381
:10BFF00043EA12634FEA022245EA111545EA106549
:10C000004FEA00260EF000419D4208BF964244F1DF
:10C01000FD0404F5407402D25B084FEA3202B61AFE
:10C0200065EB03055B084FEA32024FF480104FF4D2
:10C03000002CB6EB020E75EB030E22BFB61A754646
:10C0400040EA0C005B084FEA3202B6EB020E75EBD9
:10C05000030E22BFB61A754640EA5C005B084FEA41
:10C060003202B6EB020E75EB030E22BFB61A75460E
:10C0700040EA9C005B084FEA3202B6EB020E75EB19
:10C08000030E22BFB61A754640EADC0055EA060EDA
:10C0900018D04FEA051545EA16754FEA06164FEA1D
:10C0A000C30343EA52734FEAC2025FEA1C1CC0D1C9
:10C0B00011F4801F0BD141EA00014FF000004FF056
:10C0C000004CB6E711F4801F04BF01430020B4F117
:10C0D000FD0C88BFBCF5E06F3FF6AFAEB5EB030CCF
:10C0E00004BFB6EB020C5FEA500C50F1000041EBCC
:10C0F000045170BD0EF0004E4EEA113114EB5C0499
:10C10000C2BFD4EB0C0541EA045170BD41F480116B
:10C110004FF0000E013C90E645EA060E8DE60CEA73
:10C12000135594EA0C0F08BF95EA0C0F3FF43BAF90
:10C1300094EA0C0F0AD150EA01347FF434AF95EA47
:10C140000C0F7FF425AF104619462CE795EA0C0F2B
:10C1500006D152EA03353FF4FDAE1046194622E7F8
:10C1600050EA410618BF52EA43067FF4C5AE50EAD2
:10C1700041047FF40DAF52EA43057FF4EBAE12E7C2
:10C1800053B94AB9002908BF00281CBF4FF0FF313E
:10C190004FF0FF3000F07AB9ADF1080C6DE904CE34
:10C1A00000F006F8DDF804E0DDE9022304B0704792
:10C1B0002DE9F0478C460E460446089D002B50D1D1
:10C1C0008A4217466CD9B2FA82FEBEF1000F0BD03C
:10C1D000CEF1200C01FA0EF620FA0CFC02FA0EF752
:10C1E0004CEA060C00FA0EF43A0CBCFBF2F9BBB2B6
:10C1F00002FB19CC09FB03FA4FEA144848EA0C4643
:10C20000B2450AD9F61909F1FF3180F02581B2450E
:10C2100040F22281A9F102093E44A6EB0A06B6FBD0
:10C22000F2F002FB106600FB03F3A4B244EA0644FA
:10C23000A34209D9E41900F1FF3280F00B81A34237
:10C2400040F2088102383C440021E41A40EA0940E7
:10C25000002D62D0002324FA0EF42C606B60BDE840
:10C26000F0878B4207D9002D55D0002185E8410089
:10C270000846BDE8F087B3FA83F1002940F08F80CB
:10C28000B34202D3824200F2FC80841A66EB0306BA
:10C290000120B446002D40D085E81010BDE8F0879D
:10C2A00012B90127B7FBF2F7B7FA87FEBEF1000F0C
:10C2B00035D10121F61B4FEA174C1FFA87F8B6FB60
:10C2C000FCF20CFB126608FB02F0230C43EA064664
:10C2D000B04207D9F61902F1FF3302D2B04200F2A0
:10C2E000D2801A46361AB6FBFCF00CFB106608FB2F
:10C2F00000F8A3B243EA0644A04507D9E41900F1C7
:10C30000FF3302D2A04500F2B9801846A4EB08041E
:10C3100040EA02409CE729462846BDE8F08707FA34
:10C320000EF7CEF1200326FA03F24FEA174CB2FBC8
:10C33000FCF11FFA87F80CFB112206FA0EF620FA20
:10C3400003F301FB08F933431E0C46EA0246B145EC
:10C3500000FA0EF409D9F61901F1FF3280F08C8051
:10C36000B14540F2898002393E44A6EB0906B6FB8E
:10C37000FCF00CFB106200FB08F99EB246EA024694
:10C38000B14507D9F61900F1FF3371D2B1456FD924
:10C3900002383E44A6EB090640EA01418FE7C1F1AD
:10C3A000200722FA07F88B4048EA030326FA07F42D
:10C3B0004FEA134EB4FBFEF91FFA83FC0EFB19443F
:10C3C0008E4020FA07F809FB0CFA48EA06084FEA03
:10C3D000184646EA0444A24502FA01F200FA01F6C0
:10C3E00008D9E41809F1FF3044D2A24542D9A9F195
:10C3F00002091C44A4EB0A04B4FBFEF00EFB10443B
:10C4000000FB0CFC1FFA88F848EA0444A44507D94D
:10C41000E41800F1FF3E29D2A44527D902381C4474
:10C4200040EA0940A0FB0289A4EB0C0CCC45C246B3
:10C43000CE4615D312D055B1B6EB0A036CEB0E06FF
:10C4400006FA07F7CB401F43CE402F606E600021F5
:10C45000BDE8F0871046F7E68946DEE64645EAD2B3
:10C46000B8EB020A69EB030E0138E4E77046D7E740
:10C4700018468FE78146BDE7114676E702383C440F
:10C4800044E7084606E7023A3E442BE7704700BF00
:10C49000024B0A460146186800F002B8E082072005
:10C4A00010B502FB01F100F05BF80446D8B150F87A
:10C4B000042C22F00302043A242A18D8132A14D98F
:10C4C00000231B2A0360436016D9242A8360C360BB
:10C4D00011BF00F110020361436100F11802002353
:10C4E000136053609360204610BD0246F7E70021B9
:10C4F00000F04EFB204610BD00F10802EFE700BF40
:10C5000070B50F4E0F4D761BB61018BF002405D026
:10C51000013455F8043B9847A642F9D10A4E0B4D19
:10C5200007F062FC761BB61018BF002406D0013459
:10C5300055F8043B9847A642F9D170BD70BD00BFC5
:10C54000F43D0D00F43D0D00FC3D0D00F43D0D00EB
:10C55000024B0146186800F003B800BFE0820720D4
:10C560002DE9F04F01F10B06162E83B0054640F27F
:10C570009E8036F0070600F1BD80B14200F2BA801D
:10C5800000F054FBB6F5FC7FC0F08582730A00F022
:10C59000B880042B00F26C81B30903F1390003F178
:10C5A000380EC100B84F39444C680839A14206D151
:10C5B0000CE0002A80F2AB80E468A14206D06368F8
:10C5C00023F003039A1B0F2AF3DD70463C69DFF862
:10C5D000CCE2744500F09E81636823F003039A1B4C
:10C5E0000F2A00F38381002AC7F814E0C7F810E08F
:10C5F00080F29180B3F5007F80F054810122DB0846
:10C6000079684FEAA30C134457F8338002FA0CF20E
:10C6100007EBC30C0A43ACF10801E160C4F80880E1
:10C620007A6047F83340C8F80C40012483109C40DE
:10C6300094427DD8144206D120F0030064001442D5
:10C6400000F10400FAD007EBC009CC468046DCF8C4
:10C650000C309C4507D15FE1002A80F26D81DB68D8
:10C660009C4500F05981596821F003018A1B0F2A6B
:10C67000F2DDDC68D3F808C046F0010828461E4405
:10C6800042F00105C3F80480CCF80C40C4F808C09F
:10C690007E613E61C6F80CE0C6F808E075605A504D
:10C6A000009300F0C9FA009B03F108041EE0102972
:10C6B00020D800F0BBFA102618230220724F3B440A
:10C6C0005C68A3F10802944200F02F816368E1687E
:10C6D00023F0030323445A68A66842F00102F16084
:10C6E00028468E605A6000F0A7FA0834204603B04E
:10C6F000BDE8F08F00240C2320462B6003B0BDE87A
:10C70000F08F40204FF400714FF03F0E4AE7234472
:10C710005A68E168E0E723445A68284642F001027B
:10C720005A60083400F088FA204603B0BDE8F08F64
:10C73000BC68636823F00308B04504D3A8EB060384
:10C740000F2B00F38580DFF85891504BD9F800206B
:10C750001B680132334404EB080A00F0548103F5EE
:10C7600080530F3323F47F6B2BF00F0B5946284671
:10C7700000F068FA411C024600F0FB80824500F29E
:10C78000F680434B19685944196000F04C81D9F880
:10C79000000001301BBFA2EB0A0A5144C9F8002077
:10C7A000196012F0070100F01481C1F10800C1F511
:10C7B00080510244083102EB0B09C9F30B09A1EBCC
:10C7C0000909494628460193009200F03BFA431CB0
:10C7D0009DE80C0000F04281801A484440F00100BE
:10C7E0001968BC424944BA601960506017D0B8F16A
:10C7F0000F0F40F2FA804FF0050C6268A8F10C00B0
:10C8000020F0070002F0010204EB000E02430F28A3
:10C810006260CEF804C0CEF808C000F216811D4B4D
:10C82000BC681A68914288BF19601B4B1A68914214
:10C83000626888BF196022F003029642A2EB0603E9
:10C8400001D80F2B04DC284600F0F6F900244DE750
:10C8500046F0010243F00103264462602846BE60B0
:10C860000834736000F0E8F9204603B0BDE8F08FAB
:10C87000142B70D9542B00F2A280330B03F16F00FC
:10C8800003F16E0EC1008DE610870720E83C0820FA
:10C89000B83C0820E03C0820E43C0820188707202A
:10C8A000188B07205A0A042A5BD9142A00F2AE809A
:10C8B00002F15C01C9005B3207EB010C7958ACF165
:10C8C000080C8C4500F088804A6822F003029342ED
:10C8D00073D289688C45F7D1DCF80C307A68E36054
:10C8E000C4F808C09C60CCF80C409EE646F0010CF1
:10C8F00042F001012644C4F804C028467E613E612E
:10C90000C6F80CE0C6F808E07160E25000F094F957
:10C910000834EBE67A6888E608F1010818F0030F9E
:10C920000CF1080C7FF493AE2DE0DC68A34208BF45
:10C9300002303FF44BAEC9E61C4619444A68DB6836
:10C9400054F8086F42F001024A602846F3609E6086
:10C9500000F072F9CAE603F15C0003F15B0EC1005E
:10C9600020E69A0902F13901C9003832A4E7BC4235
:10C9700054D0BC68626822F003025EE759F80839B7
:10C98000994540F0868010F0030F00F1FF30F5D19B
:10C990007B6823EA04037B6064009C423FF6C8AED8
:10C9A000002C3FF4C5AE1C4240467FF44CAE640000
:10C9B0001C4200F10400FAD045E68C468CE7B3F542
:10C9C000AA7F15D8F30B03F1780003F1770EC100AD
:10C9D000E8E54FF48051EEE601217B68921001FA00
:10C9E00002F21A437A60634679E7012353602AE72B
:10C9F00040F25452934222D8B30C03F17D0003F16C
:10CA00007C0EC100CEE503F1100BAFE6542A29D805
:10CA10001A0B02F16F01C9006E324DE7204B196805
:10CA200059441960B3E6CAF30B0000287FF4AFAE97
:10CA300008EB0B03BA6843F001035360EFE67F2075
:10CA40004FF47E714FF07E0EACE504F108012846EC
:10CA5000009302F0D1FD009B1968E0E601204FF041
:10CA60000009BDE6B2F5AA7F05D8DA0B02F178011C
:10CA7000C900773220E740F254518A4205D89A0C17
:10CA800002F17D01C9007C3216E74FF47E717E22EF
:10CA900012E77B6880E7F00806F108030EE600BFA6
:10CAA000B83C0820844641EA000313F0030349D14F
:10CAB000403A23D30B6803604B6843608B68836004
:10CAC000CB68C3600B6903614B6943618B69836108
:10CAD000CB69C3610B6A03624B6A43628B6A8362F0
:10CAE000CB6AC3620B6B03634B6B43638B6B8363D8
:10CAF000CB6BC36340304031403ADBD230320BD392
:10CB00000B6803604B6843608B688360CB68C360CD
:10CB100010301031103AF3D20C3205D351F8043BE7
:10CB200040F8043B043AF9D2043208D0D2071CBFC3
:10CB300011F8013B00F8013B01D30B8803806046EC
:10CB4000704700BF082A13D38B07B1D010F003033E
:10CB5000AED0C3F10403D21ADB071CBF11F8013BAE
:10CB600000F8013BA4D331F8023B20F8023B9FE7D9
:10CB7000043AD9D3013A11F8013B00F8013BF9D24C
:10CB80000B7803704B7843708B78837060467047E6
:10CB900070B4860746D0541E002A41D0CAB203465C
:10CBA00002E014F1FF343BD303F8012B9D07F8D1C9
:10CBB000032C2ED9CDB245EA05250F2C45EA0545B3
:10CBC00019D9264603F11002103E0F2E42F8105CD0
:10CBD00042F80C5C42F8085C42F8045C02F1100276
:10CBE000F2D8A4F1100222F00F0204F00F04103268
:10CBF000032C13440DD91E462246043A032A46F854
:10CC0000045BFAD8221F22F003020432134404F01A
:10CC100003042CB1C9B21C4403F8011B9C42FBD194
:10CC200070BC704714460346C2E700BF014802F0DB
:10CC3000E9BD00BFFC3C0820014802F0E5BD00BF93
:10CC4000FC3C082038B50023064C05460846236006
:10CC5000F3F782FB431C00D038BD2368002BFBD0C8
:10CC60002B6038BD103D08200EB40146F0B56FF0C2
:10CC700000454FF402774FF6FF769CB021AC54F894
:10CC8000042B0B4B02910691186802A923460194CC
:10CC9000ADF8147004950795ADF8166000F0B4F97E
:10CCA0000022029B1A701CB0BDE8F04003B0704730
:10CCB000E0820720F8B507460E4617F8014B02F050
:10CCC00085FD2044437816F8015B03F00303012B34
:10CCD00008BF203402F07AFD2844437803F00303B0
:10CCE000012B04D0601B01D1002DE6D1F8BD05F168
:10CCF0002000201AE1D0F8BD830710B5044610D1FA
:10CD00000268A2F1013323EA020313F0803F08D145
:10CD100050F8042FA2F1013323EA020313F0803FFD
:10CD2000F6D003781BB110F8013F002BFBD100F0C7
:10CD300003F8204610BD00BF80EA0102844612F0CD
:10CD4000030F4FD111F0030F32D14DF8044D11F004
:10CD5000040F51F8043B0BD0A3F101329A4312F0B7
:10CD6000803F04BF4CF8043B51F8043B16D100BF90
:10CD700051F8044BA3F101329A4312F0803FA4F121
:10CD800001320BD14CF8043BA24312F0803F04BFA8
:10CD900051F8043B4CF8044BEAD023460CF8013B15
:10CDA00013F0FF0F4FEA3323F8D15DF8044B7047BF
:10CDB00011F0010F06D011F8012B0CF8012B002AFD
:10CDC00008BF704711F0020FBFD031F8022B12F0EC
:10CDD000FF0F16BF2CF8022B8CF8002012F47F4FA7
:10CDE000B3D1704711F8012B0CF8012B002AF9D1AF
:10CDF000704700BF20F0030110F00300C0F10000F5
:10CE000051F8043B00F1040C4FEACC0C6FF0000227
:10CE10001CBF22FA0CF213434FF0010C4CEA0C2C0D
:10CE20004CEA0C4CA3EB0C0222EA030212EACC12ED
:10CE300004BF51F8043B0430F4D0C2F1000102EA0F
:10CE40000102B2FA82F2C2F11F0200EBD200704777
:10CE500040EA010313F0030F70B4034624D0A2B1DB
:10CE60000C78013A1C70013101333CB16AB111F800
:10CE7000014B013A03F8014B002CF7D12AB10021F4
:10CE80001A4403F8011B9A42FBD170BC70470E464E
:10CE900051F8045BA5F1013424EA050414F0803F45
:10CEA00005D1043A43F8045B032AF0D8D7E73146AA
:10CEB000D6E700BF2DE9F84FDDF828900F468046F1
:10CEC00016461D468A4600E0A2465446484614F8D7
:10CED00001BB02F077FC5844427812F00802F3D10B
:10CEE000BBF12D0F4FD0BBF12B0F04BF94F800B056
:10CEF0000AF102041DB1102D56D0AC4604E0BBF17E
:10CF0000300F60D00A25AC46002A0CBF6FF00049F4
:10CF10004FF000490021B9FBFCFE08460CFB1E9AAD
:10CF200005E029D001210CFB003014F801BBABF166
:10CF30003003092B05D9ABF14103192B0BD8ABF109
:10CF400037039D420FDDB1F1FF3FEED08645E8D2B9
:10CF50004FF0FF31E9E7ABF16103192B03D8ABF1D7
:10CF600057039D42EFDC4B1C13D002B1404246B147
:10CF7000C1B93760BDE8F88F9A45D3DA4FF0FF3179
:10CF8000D3E7BDE8F88F94F800B001220AF102045B
:10CF9000B0E72223C8F80030EEB1671E484637607C
:10CFA000BDE8F88F8146F8E7BBF1300FA5D12378B3
:10CFB00003F0DF03582BA0D14FF0100C94F801B010
:10CFC00065460234A0E7237803F0DF03582BF3D043
:10CFD0000825AC4698E74846BDE8F88F084B70B581
:10CFE0001D68084E6C6B82B0002C08BF3446134697
:10CFF00000940A4601462846FFF75CFF02B070BD68
:10D00000E0820720248B07202DE9F04FC3B00C46A7
:10D010000B9192460F930C9002F0E6FB03681846C2
:10D020001A93FFF7E7FEA3891990190603D5236920
:10D03000002B01F0358000230DF1C809C846159377
:10D040001393149318931B93099316931793279391
:10D050002693CDF894909AF800305446EBB1252BE6
:10D0600002D11AE0252B03D014F8013F002BF9D18F
:10D07000A4EB0A058DB1269B279A01332A44072B7E
:10D08000C8F800A0C8F804502792269300F38A80BD
:10D0900008F10808099B2B4409932378002B00F022
:10D0A000898000234FF0FF301A468DF877301946FB
:10D0B0000D939B46637804F1010A0A900AF1010A74
:10D0C000A3F12000582800F2B783DFE810F04C03EA
:10D0D000B503B5035403B503B503B503B503B503F1
:10D0E000B50359005903B50366001402B5032F02B6
:10D0F000A503A503A503A503A503A503A503A503F0
:10D10000A503B503B503B503B503B503B503B5036F
:10D11000B503B503B5038B02D302B503D302B50340
:10D12000B503B503B5031B03B503B5032003B5036E
:10D13000B503B503B503B5033402B503B5034B021C
:10D14000B503B503B503B503B503B503B503B5031F
:10D15000B503B50376029E03D302D302D302630361
:10D160009E03B503B5036803B5037503DD018C03A6
:10D170005E03B503F201B5038700B503B5033203BF
:10D180000F9C236818460D932346002803F10403DF
:10D190000F9304DA0D9B5B420D934BF0040B9AF84E
:10D1A00000308BE725AA0B990C9802F087FE40B956
:10D1B000C8466FE7279B23B10C9825AA0B9902F06C
:10D1C0007DFE0B9B9B8913F0400F099B18BF4FF00E
:10D1D000FF330993099843B0BDE8F08F1BF0200F8F
:10D1E000119340F0AF810F9A1BF0100F134640F0DF
:10D1F0009A851BF0400F00F09685002501231488C6
:10D2000004320F92002217468DF877200A994A1CA3
:10D2100000F010822BF08002079254EA050240F0E1
:10D220000F82002940F03184002B40F039851BF03B
:10D2300001030E9300F06286302342AE06F8413DB2
:10D240000A9B0E9A9342B8BF134608930023129389
:10D2500017B1089B01330893079B13F00203109347
:10D2600002D0089B02330893079B13F0840540F01B
:10D2700010830D9B089AA3EB020BBBF1000F40F348
:10D280000883BBF1100F40F3B287279C4346214629
:10D29000A8461027269A0C9C0B9D06E0ABF1100BBC
:10D2A000BBF1100F03F1080318DD0132AB48103158
:10D2B000072A2791269283E88100EFDD25AA2946D7
:10D2C000204602F0FBFD00287FF47BAFABF1100B92
:10D2D000BBF1100F4B462799269AE6DC45460C46D3
:10D2E000984601329D4B5C44072A2794269288E891
:10D2F000080800F3C3829DF8777008F1080887B129
:10D300000121269B0C440B440DF17702072B279437
:10D310002693C8F80410C8F8002000F3CD8308F164
:10D320000808109B7BB10221269B0C4401331EAAE6
:10D33000072B27942693C8F80410C8F8002000F3A0
:10D34000118408F10808802D00F004830A9B0E9ACE
:10D350009F1A002F37DD102F40F37986804D42460B
:10D360002146B0464FF0100B2E46269B0C9C0B9D81
:10D3700004E0103F102F02F1080215DD01331031D7
:10D38000072B2791269382E84008F2DD25AA29463B
:10D39000204602F093FD00287FF413AF103F102FBA
:10D3A0004A462799269BE9DC35460C464646904678
:10D3B00001333C44072B2794269388E8A00000F310
:10D3C000708308F10808079BDF0500F16482269B43
:10D3D0000E9901330C44072B2794C8F80060C8F855
:10D3E0000410269300F3B38308F10808079B5B073A
:10D3F0003BD50D9B089A9D1A002D36DD102D40F36C
:10D4000021871026269B0C9FDDF82CB004E0103DF0
:10D41000102D08F1080816DD0133504A1034072B8F
:10D420002794269388E84400F1DD25AA594638461A
:10D4300002F044FD00287FF4C4AE103D102DC84614
:10D44000279C269BE8DC0133444A2C44072B279475
:10D45000269388E8240008DD25AA0B990C9802F091
:10D460002DFD00287FF4ADAE279C099B0D9A0899ED
:10D470008A42ACBF9B185B180993002C40F0FB82DA
:10D480000023C8462693E6E511931BF0200340F0E5
:10D4900045811BF0100240F066841BF0400300F051
:10D4A00062840F9913460A4604320C8800250F92B5
:10D4B000A8E600250F9A119316688DF87750141D71
:10D4C000002E00F0CD860A9A531C00F01B862946D8
:10D4D000304602F0B1F9002800F00D87831B0A9551
:10D4E0000E930F94CDF81CB023EAE37308931295C2
:10D4F0009DF87770ACE69AF800300AF101042A2B07
:10D5000000F0C287A3F130000928A24600F2188774
:10D5100000231C461AF8013B04EB840400EB44048E
:10D52000A3F130000928F5D90A94C9E54BF0800B26
:10D530009AF80030C2E54BF0100B1BF0200F11934E
:10D540003FF451AE0F9C073424F0070303F10802A7
:10D55000D3E900450F92012354E600BFA83B0D001C
:10D56000B83B0D001193002A40F0AD87BE4B1BF075
:10D57000200F189340F0E7800F9A1BF0100F13460E
:10D5800040F0D8831BF0400F00F0D4830025043313
:10D5900014880F931BF0010F00F0E38054EA050399
:10D5A00000F0DF8030239DF844208DF878308DF82E
:10D5B00079204BF0020B022324E601221193002371
:10D5C00011460F98089202681F468DF877300A932B
:10D5D0001293031DCDF81CB00E918DF8A0200F936F
:10D5E00028AE39E61193002A40F084874BF0100BE7
:10D5F0001BF0200F40F075840F9A1BF0100F13469C
:10D6000040F09D831BF0400F00F09983B2F9004079
:10D610000433E5170F9322462B46002A73F10003CB
:10D62000C0F298830A999DF877704A1C4FF0010365
:10D630007FF4F0AD54EA050200F02982CDF81CB069
:10D64000012B00F00E83022B40F09C824E4618986E
:10D65000230943EA0573290904F00F020D461C460D
:10D66000835C06F8013D54EA0503F1D1A9EB0603FA
:10D670000E93E5E51193002A40F038870F9C1BF0CC
:10D68000080F04F1070400F0CF8424F0070303F12E
:10D6900008020F921A685B6815921493149B159DEB
:10D6A00023F00044284621464FF0FF326F4B02F032
:10D6B00093FF002840F03484284621464FF0FF3283
:10D6C0006A4B02F06BFF002840F02A8415A80DC8B1
:10D6D000149902F059FF002840F0D4859DF8777026
:10D6E00003231A4608930023614E19460A93614B9F
:10D6F0000E92119A2BF0800007901291472AD8BF02
:10D700001E46A5E54BF0080B9AF80030D6E44BF026
:10D71000100B11931BF020033FF4BBAE0F9C07349A
:10D7200024F0070303F10802D3E900450F92002318
:10D7300068E51193002A40F0C2864F4B1BF0200F82
:10D7400018933FF419AF0F9C1BF0010F04F107046D
:10D7500024F0070303F108020F92D3E900457FF498
:10D760001DAF02234EE59AF8003000297FF4A6ACE5
:10D7700001222021A2E44BF0010B9AF800309DE435
:10D780009AF8003001222B2198E44BF0200B9AF8F4
:10D79000003093E44BF0400B9AF800308EE49AF896
:10D7A00000306C2B03BF9AF801304BF0200B0AF1CC
:10D7B000010A4BF0100B81E4002A40F07C861BF03C
:10D7C000200F40F052841BF0100F40F038841BF003
:10D7D000400F00F034840F9A136804320F92BDF8A2
:10D7E00024201A8037E4782330220F988DF879307E
:10D7F0001193031D0F93204B046818934BF0020BF9
:10D800008DF8782000250223FCE41193002A3FF4D0
:10D81000EFAE8DF87710EBE600200446A3F1300060
:10D820001AF8013B04EB840400EB4404A3F130003C
:10D830000928F5D90D9443E41193002A40F04A8653
:10D84000119A002A3FF4B6AC002301211F4608912B
:10D850008DF8A020CDF81CB08DF877300A93129384
:10D860000E9128AEF8E400BF743B0D00FFFFEF7F80
:10D87000683B0D00643B0D00883B0D0025AA0B9909
:10D880000C9802F01BFB00287FF49BACC8469DF867
:10D890007770279C33E5119B652B40F39A8015A880
:10D8A0000DC8149902F066FE002800F09381012152
:10D8B000269BB54A0B440C44072B27942693C8F8A3
:10D8C0000410C8F8002000F3C68308F108081F9B65
:10D8D000139A279C934203DB079BDD077FF586ADF8
:10D8E000269B199901331A9A0C44072BC8F800207B
:10D8F000C8F804102794269300F3C48308F108089D
:10D90000139B5E1E002E7FF771AD102E40F37585C0
:10D9100022461027269B9D4DDDF830B00B9C05E07C
:10D9200008F10808103E102E40F325820133103212
:10D93000072B2792269388E8A000F1DD25AA21462F
:10D94000584602F0BBFA00287FF43BACC846279A41
:10D95000269BE7E70D9B089A9F1A002F7FF7F6ACEE
:10D96000102F40F3A884894D42462146B0464FF01F
:10D97000100B2E46269B0C9C0B9D04E0103F102F95
:10D9800002F1080215DD01331031072B2791269390
:10D9900082E84008F2DD25AA2946204602F08EFAE8
:10D9A00000287FF40EAC103F102F4A462799269B83
:10D9B000E9DC35460C464646904601333C44072B8D
:10D9C0002794269388E8A00000F39E8208F10808B7
:10D9D000BCE4139B012B40F34F820123269F1C4480
:10D9E0001F44072F2794C8F800602697C8F8043012
:10D9F00000F35F8208F10808199A01371A9B144452
:10DA0000072F27942697C8F80030C8F8042000F3A1
:10DA10005C8208F1080815A80DC8149902F0AAFD47
:10DA2000139B002840F04181013B013701361C4423
:10DA3000072FC8F8006026972794C8F8043000F331
:10DA4000668108F108081B9A0137144421AB072F9F
:10DA500027942697C8F80420C8F800307FF7C4AC94
:10DA600025AA0B990C9802F029FA00287FF4A9AB9B
:10DA7000C846279CBAE425AA0B990C9802F01EFA16
:10DA800000283FF4FDACFFF79CBBDDF81CB0012B78
:10DA900000F07E81022B71D1CDF81CB0002400254E
:10DAA000D4E525AA0B990C9802F008FA00287FF417
:10DAB00088ABC846279C86E425AA0B990C9802F0EF
:10DAC000FDF900287FF47DABC846279C29E401209E
:10DAD000269B2D4A03440444072B27942693C8F819
:10DAE0000400C8F8002040F3D88225AA0B990C98AE
:10DAF00002F0E4F900287FF464ABC8461F99279C24
:10DB000029B9139B1BB9079BD8077FF56FAC1998F0
:10DB1000269B0246013322441A9C072B2792C8F801
:10DB20000040C8F80400269300F3318408F1080887
:10DB30000029C0F20984139901338C18072B27940C
:10DB40002693C8F80060C8F804107FF74DAC25AAEA
:10DB50000B990C9802F0B2F900287FF432AB279CA5
:10DB6000C84643E425AA0B990C9802F0A7F90028AF
:10DB70007FF427ABC846279CFFF7E5BB00240025B0
:10DB8000CDF81CB0494604E0A43B0D00B83B0D00A5
:10DB90003146E20842EA4572E80804F00703054608
:10DBA0001446303354EA050201F8013C01F1FF3616
:10DBB000EED1079AD2077FF559AD302B3FF456AD21
:10DBC0003023023906F8013CA9EB01030E930E46FF
:10DBD000FFF736BB1F9900297FF779AF129B139A85
:10DBE0009342A8BF1346002B1F460BDD269B3C44E7
:10DBF0000133072B279488E8C000269300F3FB82AB
:10DC000008F10808129B002FA8BFDB1B002B1F4642
:10DC100040F3D780102B40F33484BA4D424621465E
:10DC2000B0464FF0100B2E46269B0C9C0B9D04E03B
:10DC30000832103F102F40F3B58001331031072B0D
:10DC40002791269382E84008F2DD25AA294620463E
:10DC500002F034F900287FF4B4AA4A462799269B9B
:10DC6000E7E7002D08BF0A2CC0F090804E46204602
:10DC700029460A220023FEF783FA303206F8012DE6
:10DC80002046294600230A22FEF77AFA04460D466A
:10DC900054EA0503EBD1A9EB06030E93FFF7D0BAC4
:10DCA0000A9B4E460E93FFF7CBBA5E1E002E7FF7FF
:10DCB000CAAE102E40F3E38322464FF0100B914D75
:10DCC0000C9C04E0103E102E08F1080815DD013709
:10DCD0001032072F2792269788E82008F2DD25AA20
:10DCE0000B99204602F0EAF800287FF46AAA103E59
:10DCF000102EC846279A269FE9DC14460137344483
:10DD0000072F2794269788E860007FF79AAE25AA08
:10DD10000B990C9802F0D2F800287FF452AA279CA5
:10DD2000269FC8468FE604321C68002501230F9207
:10DD3000FFF768BA1C6804330F9300252AE41C68B7
:10DD40000433E51722460F932B46002A73F1000394
:10DD5000BFF668AC2D27644265EB45058DF87770FA
:10DD60000123FFF753BA0F9900250A4604320C68C5
:10DD70000F92FFF747BA144601333444072B279418
:10DD8000269388E860007FF72FABE0E6DDF81CB053
:10DD9000012342AE3034CDF81CB006F8414D0E934D
:10DDA000FFF74EBA35460C464646904601333C4492
:10DDB000072B2794269388E8A00000F3468208F1F9
:10DDC00008081F9A139B9A4245DB079BD90742D448
:10DDD000139B12989A1A1D1A9542A8BF1546002D3A
:10DDE0000EDD2699064401312C440729C8F800604D
:10DDF0002794C8F80450269100F3168208F1080809
:10DE0000002DB4BF1646561B002E7FF7EFAA102E2A
:10DE100040F3F38222461027269B3A4DDDF830B0BE
:10DE20000B9C04E008F10808103E102EA3DD01331E
:10DE30001032072B2792269388E8A000F2DD25AA4E
:10DE40002146584602F03AF800287FF4BAA9C8469D
:10DE5000279A269BE8E7269B199801331A990444D0
:10DE6000072B2794C8F80010C8F80400269300F385
:10DE7000CF8108F10808ABE7079BDA073FF5ADADA6
:10DE80000123269F1C441F44072F2794C8F80060D5
:10DE90002697C8F804307FF7D4AD25AA0B990C98C3
:10DEA00002F00CF800287FF48CA9C846279C269F16
:10DEB000C9E525AA0B990C9802F000F800287FF418
:10DEC00080A9C846279C269F96E525AA0B990C9801
:10DED00001F0F4FF00287FF474A9C846279C269F10
:10DEE00099E50F9C073424F0070404F10801D4E9F4
:10DEF00000230F9114461D46FFF78FBB4E46FFF7D8
:10DF00009FB900BFB83B0D0025AA0B990C9801F0F2
:10DF1000D5FF00287FF455A9C846279CFFF716BAFD
:10DF2000159C22462046149C2346214602F054FBB1
:10DF3000002840F073820A9B0133119B23F02003D9
:10DF40000E9300F09C81472B00F0D6804BF4807339
:10DF50000793149B1F1E159B0893B7BF3B460023D6
:10DF600003F100472D231093119B662B00F0908145
:10DF7000462B00F0A48002200E9B23A9452B0ABF4C
:10DF80000A9B0A9D5D1C8DE82100049120A81FA911
:10DF90003B460390089A02910C9800F0A1FB119B5C
:10DFA0000646672B40F0BA811BF0010F00F0238278
:10DFB0007419169A0898179B394602F0DBFA002864
:10DFC00040F02481239BA34206D230215A1C239285
:10DFD0001970239B9C42F9D89B1B13930E9B472BD4
:10DFE00000F0A280119B652B40F3A781119B662B4B
:10DFF0001F9B129300F07181139B129A1946914254
:10E0000000F35D811BF0010F40F0F08122EAE27322
:10E01000089367230E921193109B002B7DD10A93D6
:10E020009DF87770FFF714B924F00704236815935F
:10E030006368149304F108030F93FFF72FBB0F9A43
:10E04000136804320F92099A1A60FFF704B8269BEE
:10E05000AF4DFFF7ADB925AA0B990C9801F02EFF33
:10E0600000287FF4AEA8C84631E40F9A1346043363
:10E070000F93099B1168DD171A462B46C1E900234F
:10E08000FEF7E9BF25AA0B990C9801F017FF0028AD
:10E090007FF497A8C846279C32E408F108082FE5CA
:10E0A00040210C98FEF75CFA0B9A10601061002872
:10E0B00000F0148240230B9A5361FEF7BCBF03208B
:10E0C0000A9C23A98DE81100049120A81FA90390A0
:10E0D000089A3B4602910C9800F002FB2546064642
:10E0E000119B7419462B7FF464AF3378302B00F00A
:10E0F00087811F9D2C445CE70A9B002B08BF0123EE
:10E100000A9323E730460A95FEF774FE0F940E90AB
:10E11000CDF81CB00346FFF7E7B92D2700238DF893
:10E1200077700A93FFF795B81F9B1A461293033333
:10E1300004DB0A9B19469142BFF65EAF119B023B7E
:10E140001193129B9DF84420013B002B8DF88420F5
:10E15000B4BF2D222B221F93B8BF129B8DF88520B0
:10E16000B8BFC3F10103092B40F31F810DF19300E8
:10E170000146684C00E0114684FB0352DD17C5EBF5
:10E18000A20505EB8502A3EB42023032092D01F80E
:10E19000012C2B4601F1FF32EDDC30330239DCB2C9
:10E1A000884202F8014C40F292810DF1860113463B
:10E1B00001E013F8014B834201F8014BF9D101331F
:10E1C0009B1A0DF18602134421AA9B1A139A1B93E2
:10E1D000012A13440E9340F348810E9B199A13446D
:10E1E0000E9323EAE37308930023129314E7279C0A
:10E1F000269AFFF776B825AA0B990C9801F05EFED7
:10E2000000287EF4DEAFC846279CFBE42346E3E605
:10E2100025AA0B990C9801F051FE00287EF4D1AF8D
:10E22000C8461F9A279CD3E525AA0B990C9801F0A4
:10E2300045FE00287EF4C5AF1F9A139BC846279C55
:10E240009A1ADDE5269BFFF7FEB825AA0B990C98D4
:10E2500001F034FE00287EF4B4AFC846279CB0E538
:10E260000A9B3746062B28BF06230A961296089368
:10E270000F94CDF81CB00E93274EFEF7E9BF06238E
:10E280000A9363E62D231F468DF87730FFF728BAEF
:10E2900003200A9C23A98DE81100049120A81FA93E
:10E2A0000390089A3B4602910C9800F019FA254613
:10E2B0000646041919E7269B154DFFF77EBB199AF0
:10E2C000139B1344129A0E93002A40F3C78023EA4B
:10E2D000E3730893672311939EE6002B40F3E180DC
:10E2E0000A9A002A40F0B0801BF0010F40F0AC8089
:10E2F00008930E9390E60A9B0F9408930E930A904E
:10E30000CDF81CB012909DF87770FEF7A1BF00BF4A
:10E31000B83B0D00676666669C3B0D00119B472B62
:10E320007FF446AE1BF0010F7FF4DAAE239B9B1BFC
:10E3300013930E9B472B3FF4F7AE1F9B129300E7FE
:10E3400000200A90FEF7BCBE4F42103135DA10248F
:10E350006A4DDDF830B004E008F10808103F102FD6
:10E360002CDD01331032072B27922693C8F800507A
:10E37000C8F80440F0DD25AA0B99584601F09EFD2F
:10E3800000287EF41EAFC846279A269BE6E725AAFA
:10E390000B990C9801F092FD00287EF412AFC8464C
:10E3A0001F99279A269BFFF7C3BB302213448DF891
:10E3B00087308DF8862022AB06E7504D01333A4472
:10E3C000072B88E8A0002792269308F108087FF71A
:10E3D000B2AB25AA0B990C9801F070FD00287EF4D1
:10E3E000F0AEC846279A269BFFF7A5BB129B199A49
:10E3F00013440E936BE7239BEEE5269B3F4DBBE456
:10E40000169A0898179B394602F0B4F800287FF452
:10E4100070AEC5F101051F952C44CAE5149B384E1A
:10E42000002BBEBF2D231F468DF877304FF003031E
:10E430001A4608934FF00003A8BF9DF8777019465D
:10E440000A93304BFFF754B9129B199A13440A9A56
:10E450001A4422EAE2730E920893DDE5129B0E9AAB
:10E46000C3F101031A441346C3E71BF001031293DF
:10E470007FF4B3AE0E9B23EAE3730893CCE51F4D04
:10E480003CE4269B1D4D91E40F9D9AF801302868CD
:10E49000A24640EAE0700A90284604300F90FEF74A
:10E4A0000DBE0A9B13B91BF0010F02D0199B01335B
:10E4B000CDE701231CE78DF87710FFF780B98DF8C1
:10E4C0007710FFF73AB98DF87710FFF74FB80DF1D5
:10E4D000860379E68DF87710FFF7B2B94FF0FF3277
:10E4E0000C2309920C9A1360FEF774BE8DF8771016
:10E4F000FFF7C4B88DF87710FFF778B8B83B0D0078
:10E50000703B0D006C3B0D0070B5141E9AB00546B3
:10E510002CDB1A464FF4027300910491ADF80C30D5
:10E520004FF6FF760FD0013C1E9B6946029405947E
:10E53000ADF80E60FEF768FD421C10DB0022009B68
:10E540001A701AB070BD1E9B694602940594ADF80E
:10E550000E60FEF759FD431C04DB1AB070BD8B231F
:10E560002B60EBE78B232B601AB070BD8B234FF031
:10E57000FF302B60F1E700BF10B5064C82B000936E
:10E58000246813460A4601462046FFF7BDFF02B045
:10E5900010BD00BFE0820720024B13B1024800F01B
:10E5A00005B870470000000025F50C000023014667
:10E5B0001A46184601F00CBD2DE9F04F03690F69AA
:10E5C00083B09F4200F38880013F01F1140600F1FF
:10E5D000140A56F827305AF827200133B2FBF3F813
:10E5E000BB00009306EB030953440193B8F1000FFD
:10E5F0003BD00023B4461C46D6465CF8042BDEF81C
:10E6000000501FFA82FB08FB0B33120C4FEA134B2E
:10E6100008FB02BB9AB2A21AABB21FFA8BF41A44DF
:10E62000C4EB154404EB224492B242EA0442E145B1
:10E630004EF8042B4FEA24444FEA1B43DDD2009BE3
:10E640005AF803308BB9019C231F9A450CD254F819
:10E65000043C4BB9A4F1080302E01A68043B1AB960
:10E660009A4507F1FF37F8D30761044601F028FB0C
:10E6700000282DDB5546002308F1010856F8041B3D
:10E6800028688AB29A1A0B0C81B20A44C3EB104371
:10E6900003EB224392B242EA0342B14545F8042B10
:10E6A0004FEA2343EAD25AF827200AEB87037AB9C4
:10E6B0001A1F92450BD253F8042C42B9083B02E0D2
:10E6C0001A68043B1AB99A4507F1FF37F8D3276156
:10E6D000404603B0BDE8F08F002003B0BDE8F08FE6
:10E6E0002DE9F04F056C9BB0044692469B46279E51
:10E6F0004DB10123426C29469340AB606A6001F042
:10E7000007F900232364BBF1000F5D4635DB0023CE
:10E7100033609D4BAB4315D0002200235046594631
:10E7200001F028FF804600282DD00123269A13608F
:10E73000289B002B00F0BD809448186001381BB066
:10E74000BDE8F08F42F20F73269A1360BAF1000F02
:10E750000DD1C5F3130555B9289B8D48002BEED07C
:10E7600000F10803289A13601BB0BDE8F08F289BC6
:10E770008848002BE3D0C31CF4E701232BF00045AD
:10E780003360AB46C5E718AA19AB01920093524615
:10E790005B46204601F03EFB2B0D814671D0504672
:10E7A000CBF3130242F07F51189FA3F2FF36CDF84E
:10E7B000508041F440110022774BFDF71BF96CA308
:10E7C000D3E90023FDF7CAFA6BA3D3E90023FDF7D1
:10E7D00013F9CDE902013046FDF75AFA68A3D3E9EF
:10E7E0000023FDF7BBFA02460B46DDE90201FDF707
:10E7F00003F9CDE9040101F005FF00220290002396
:10E80000DDE9040101F0C0FE002840F06D81029DA9
:10E81000162D00F257816149524601EBC5015B4656
:10E82000D1E9000101F0CEFE002800F0BE816B1E90
:10E83000029300230E93BF1B7B1E089300F14E81B1
:10E8400000230A93029B002BC0F23F81089A0D938C
:10E8500011461944002308910C93249B092B2AD8B4
:10E86000052B40F358860025043B2493249B023B50
:10E87000032B00F23F86DFE813F0CE03C302D90377
:10E880005B04189F199E3E4406F23243202B40F34E
:10E890008781C3F1400306F212409D402AFA00F03E
:10E8A0002843FDF7E5F90123013E1493A1F1F87126
:10E8B00081E73B4843E7002120466164259101F050
:10E8C00001F84FF0FF3307930F930123259A04902B
:10E8D000206424920B93199B002BC0F2D380029AE0
:10E8E0000E2A00F3CF802D4B03EBC203D3E90023A4
:10E8F000CDE90823259B002BC0F2B483DDE908563F
:10E9000050462A4633465946FDF752FB01F07AFE3F
:10E910008046FDF7BDF92A463346FDF71FFA024649
:10E920000B4650465946FDF765F8079E049F08F1CF
:10E930003005012E3D7002460B4607F1010564D0FB
:10E940000022184BFDF70AFA0022002306460F4664
:10E9500001F010FE002840F08280CDF828904FF0A2
:10E96000000ADDE908894FF0000B0B9429E000BF95
:10E9700061436F63A787D23FB3C8608B288AC63FC5
:10E98000FB799F501344D33F0000F07FA53B0D005F
:10E99000C83B0D00D43B0D000000F83F103C0D00BB
:10E9A000A43B0D00000024400022814BFDF7D6F966
:10E9B00052465B4606460F4601F0DCFD002840F05B
:10E9C000BA8342464B4630463946FDF7F1FA01F02C
:10E9D00019FE0446FDF75CF942464B46FDF7BEF9C9
:10E9E00002460B4630463946FDF704F804F130067E
:10E9F00005F8016B049E079FAE1BBE4202460B4604
:10EA0000D2D1A046DDF828900B9C10461946FCF7A1
:10EA1000F3FF06460F4602460B46DDE9080101F00A
:10EA2000B3FD48B9DDE9080132463B4601F0A2FDDD
:10EA3000A8B118F0010F12D015F8018C6B1E049AC2
:10EA400004E09A4200F0028413F8018DB8F1390F06
:10EA500003F10105F5D008F1010883F8008049466B
:10EA6000204600F055FF0022029B2A70269A0133AF
:10EA70001360289B002B00F09F8304981D601BB03F
:10EA8000BDE8F08F0B9A002A3ED0249A012A40F369
:10EA90001183079B0C9A5F1EBA42C0F29083D71B6A
:10EAA000079B002BC0F28C840A9D079B0A9A0121C8
:10EAB0001A440A92089A20461A44089200F0C4FFA9
:10EAC000064623E001230E93B5E600230A9A0D9330
:10EAD000029BD21A5B420A920C93BEE6C7F1010375
:10EAE0000A9300230893ADE6029D2846FDF7D0F86F
:10EAF00002460B46DDE9040101F03CFD00287FF4ED
:10EB000086AE6B1E029382E60AADE0CD002D0CDDD1
:10EB1000089900290B4608DDA942A8BF2B460A9A8E
:10EB2000ED1AD21ACB1A0A9208930C9BD3B10B9B05
:10EB3000002B00F0B882002F10DD31463A46204607
:10EB400001F01EF84A4601460646204600F086FFC0
:10EB5000034649462046994600F0DAFE0C9BDA1B34
:10EB600040F0A2820121204600F06EFF0D9B8046FE
:10EB7000002B1FDD01461A46204601F001F8249BB8
:10EB80008046012B40F3558200230C93D8F81030B7
:10EB900008EB8303186900F007FFC0F1200013E0C1
:10EBA000C3F120050AFA05F07BE60E9043E600BFAC
:10EBB00000002440249B012B40F3858200230C930A
:10EBC0000D9B0120002BE1D1089A104410F01F008A
:10EBD00000F0A180C0F12003042B40F386840A9B3F
:10EBE000C0F11C0003440A931346034405440893F0
:10EBF0000A9B002B05DD49461A46204601F010F815
:10EC00008146089B002B05DD41461A46204601F04F
:10EC100007F880460E9B002B40F08680079B002B58
:10EC200040F364820B9B002B00F09880002D05DDE3
:10EC300031462A46204600F0F3FF06460C9B002B87
:10EC400040F036830896079B049A013BD3180B9338
:10EC500017460AF00103C246DDF820B00C93514676
:10EC60004846FFF7A9FC31460546484601F028F81A
:10EC70005A4607905146204601F03EF8C268804649
:10EC800005F13003002A40F02982014648460A93E4
:10EC900001F016F841460890204600F039FE089A27
:10ECA0000A9B32B9249921B90C9A002A00F0EE830C
:10ECB000249A07990029C0F29F8205D1249919B995
:10ECC0000C99002900F09882002A00F305830B9A22
:10ECD00007F1010897423B70454600F00B83494617
:10ECE00000230A22204600F01DFE5E458146314683
:10ECF0004FF000034FF00A02204600F0E98100F0D7
:10ED000011FE5946064600230A22204600F00AFE5C
:10ED100047468346A3E71C200A9B054403440A9305
:10ED2000089B0344089363E74146484600F0C8FF48
:10ED30000028BFF673AF029F494600230A222046EF
:10ED4000013F029700F0EEFD0B9B8146002B40F047
:10ED5000B5830F9B002B40F3BE830793DDF810A013
:10ED6000079F554606E0494600230A22204600F048
:10ED7000D9FD814641464846FFF71EFC303005F874
:10ED8000010BA5EB0A03BB42EDDB049B079A82460D
:10ED9000012AACBF9B1801334FF0000B1D464946BA
:10EDA0000122204600F03CFF4146814600F088FFEA
:10EDB000002840F33F8215F8012C6B1E049904E0F3
:10EDC0008B4200F0AE8113F8012D392A03F10105C1
:10EDD000F6D001321A704146204600F099FD002E0F
:10EDE0003FF43DAEBBF1000F05D0B34503D059460B
:10EDF000204600F08DFD3146204600F089FD2EE6CC
:10EE000000230B93029B259A13440F930133012B8C
:10EE10001F461E46B8BF012707930021172F6164C4
:10EE20000AD9012204235B0003F114008742114632
:10EE300002F10102F7D26164204600F043FD0E2E7C
:10EE4000049020643FF647AD002D3FF444AD029995
:10EE5000CDE910AB002940F30382B94B01F00F025A
:10EE60000D1103EBC203E906D3E9006740F1AF815E
:10EE7000B44B5046D3E908235946FDF799F84FF0B3
:10EE8000030ACDE9120105F00F058DB1DFF8B48258
:10EE9000EA0709D5D8E9002330463946FCF75EFF7A
:10EEA00006460F460AF1010A6D1008F10808EFD175
:10EEB0003B46DDE912013246FDF77AF807468846FF
:10EEC0000E9B43B10022A04B3846414601F05CFB4B
:10EED000002840F087825046FCF7DAFE3A46434667
:10EEE000FCF73CFF994B0022FCF786FD079B05468B
:10EEF000A1F15076002B00F03F81029B1593079BF8
:10EF000012930B9B002B00F0FB81129A8C4B00207C
:10EF100003EBC20353E902238D49FDF749F82A4662
:10EF20003346FCF767FD82468B463846414601F082
:10EF300069FB0546FCF7ACFE02460B4638464146E7
:10EF4000FCF758FD30355FFA85F8049D06460F46FC
:10EF500085F8008002460B4650465946013501F0BF
:10EF600031FB002854D132463B4600207649FCF75D
:10EF700041FD02460B465046594601F023FB00284E
:10EF800040F07082129A012A00F01281129B049ABA
:10EF9000CDF84890134499460FE032463B46002096
:10EFA0006949FCF727FD52465B4601F0EDFA00285F
:10EFB00040F056824D4500F0F980504659460022F7
:10EFC000644BFCF7CBFE0022624B82468B463046F8
:10EFD0003946FCF7C3FE0F46064601F013FB804698
:10EFE000FCF756FE02460B4630463946FCF702FD5A
:10EFF00008F130085FFA88F805F8018B52465B4645
:10F0000006460F4601F0C0FA0028C6D0DDF8489049
:10F01000159B029323E500230B93259B002B40F3C4
:10F02000DD801F461E460F930793F6E601230B93E0
:10F03000F3E7BAF1000F7FF4A7ADCBF31303002B76
:10F040007FF4BCAD2BF000473F0D3F05002F00F0D3
:10F050000D820A9B01330A93089B01330893012315
:10F060000C93ADE5079B002B3FF748AC40F02282A4
:10F07000DDE908010022384BFCF770FE52465B4682
:10F0800001F096FADDF81C804646002841D0259B09
:10F09000049DDB4302934146204600F039FC002EDC
:10F0A0003FF4DDACA7E60C9A4946204600F068FD27
:10F0B000814657E5149A002A00F0888103F2334311
:10F0C0000C9F0A9DF2E4BAF1000F7FF477ADB4E72C
:10F0D00000F028FC474606468346C0E50146204628
:10F0E000089300F015FC0122089BE2E5249B022B0B
:10F0F0007FF798AD079B002BC9D1414605222046DA
:10F1000000F010FC01468046484600F0D9FD00287A
:10F11000BDDD3123029A0499013202920B704D1C1D
:10F12000B9E73123029A01320292049A137052E62F
:10F1300001230B9366E6DDF828900B9C8FE400BF5B
:10F14000103C0D00E83B0D000000F03F00001C40AB
:10F150000000E03F00002440000014405046FCF74F
:10F1600097FD3A464346FCF7F9FD0022C14BFCF7F8
:10F1700043FC0546A1F1507641460022BE4B38467D
:10F18000FCF738FC2A46334682468B4601F01AFAD1
:10F190008046002840F010812A4606F10043504680
:10F1A000594601F0F1F918B1464670E7DDF848908C
:10F1B000DDE910ABFFF78FBB0498FFF7C0BA0C9BDB
:10F1C0000D9AFB1A1A440C970D92002768E4DDE9AA
:10F1D00010234FF0020ACDE9122356E60021012345
:10F1E00020466164259300F06DFB259B04900793F6
:10F1F000259B20640F9327E6002AD046CDF820B047
:10F200009A4611DD49460122204600F009FD41469B
:10F21000814600F055FD002840F34581BAF1390FD1
:10F2200000F0058105F1310AB34687F800A07D1C86
:10F23000089ED0E504D11AF0010F01D0BBE51546B8
:10F2400015F8013C6A1E302BF9D0C4E53022049930
:10F250000A70029A15F8018C01320292FFF7FBBB8B
:10F2600000F0BB80DDE91001029B4FF0020A5D4215
:10F27000824B05F00F0203EBC203D3E90023FCF736
:10F280006DFD2D11074688463FF41AAE7C4EEB0704
:10F2900009D5D6E9002338464146FCF75FFD07460D
:10F2A00088460AF1010A6D1006F10806EFD107E65B
:10F2B0007168204600F006FB0546336906F10C0133
:10F2C00002339A000C30FDF7EDFB2946012220465F
:10F2D00000F0A6FC0890B6E4392BCDF820B0D0465B
:10F2E00000F0A58003F1010AB34687F800A07D1C59
:10F2F000089E70E55A46D046B3469A4616464EE5F5
:10F3000012985E492A4601EBC001334651E90201D9
:10F31000FCF724FDCDE916013846414601F072F9AB
:10F320000546FCF7B5FC02460B4638464146FCF75D
:10F3300061FB06461298049A3035012815700F4675
:10F3400002F1010526D0129B049ACDF8489013448F
:10F350004FF0000A9946DFF830B152465B4630461E
:10F360003946FCF7FBFC0F46064601F04BF9804698
:10F37000FCF78EFC02460B4630463946FCF73AFB5A
:10F3800008F1300805F8018B4D4506460F46E4D1DB
:10F39000DDF848900022DDE916013A4BFCF72CFB22
:10F3A00032463B4601F0F0F8002846D0159B029308
:10F3B00015F8018CFFF742BB4FF000084646A8E65F
:10F3C0000A9B079A9D1A0023FFF770BB189B0C9F9E
:10F3D000C3F136030A9DFFF769BBDDE910784FF0F2
:10F3E000020A6DE5079B002B3FF4B8AE0F9B002B84
:10F3F0007FF7DEAE0022244B38464146FCF7AEFCD8
:10F40000074688460AF10100FCF742FC3A464346AB
:10F41000FCF7A4FC0022174BFCF7EEFA029A0F9BB4
:10F42000013A05461592A1F15076129369E5392209
:10F43000B3463A70089E7D1CBFE4DDE91623002028
:10F440001049FCF7D7FA32463B4601F0BBF808B941
:10F45000AEE6154615F8013C6A1E302BF9D0D7E50B
:10F46000DDF84890159B0293FFF7E8BA0C97FFF779
:10F47000A7BB00BF00001C4000001440103C0D0062
:10F48000E83B0D000000E03F00002440392BCDF8A0
:10F4900020B0D046DDF81CB09A46C8D0BBF1000FB2
:10F4A0003FF7C0AEC0E67FF4BFAE1AF0010F3FF4E5
:10F4B000BBAEB3E64FF000084646E8E53146002310
:10F4C0000A22204600F02EFA0F9B0646002B07DD8D
:10F4D0000793FFF7ABBB249B022B1FDC0F9B3CE485
:10F4E000249B022B1ADC0F9BF2E73FF481ABC0F1A7
:10F4F0003C0011E4002520466564294600F0E2F94D
:10F500004FF0FF3307930F93012304902595206458
:10F510000B93FFF7E0B90125FFF7A8B90F9B0793FD
:10F52000E8E500BF38B50A4C0A4D641BA4100AD0A8
:10F5300004F18043013B05EB8305013C55F8043998
:10F540009847002CF9D1BDE8384004F057BC00BF03
:10F55000243E0D00203E0D00F8B50C46234F064614
:10F56000FDF764FBBB68C4F57E615D680F3125F073
:10F570000305294421F47F6121F00F01A1F5805496
:10F58000B4F5805F07DB00213046FDF75BFBBB680D
:10F590002B44984204D03046FDF74EFB0020F8BDC6
:10F5A00061423046FDF74EFB01300DD0104BBA687A
:10F5B00019682D1B45F001053046091B556019607F
:10F5C000FDF73AFB0120F8BD00213046FDF73AFB7C
:10F5D000BA68831A0F2BDEDD064C0549246843F018
:10F5E0000103001B53600860D5E700BF10870720A8
:10F5F000B83C0820188B0720002944D02DE9F041A1
:10F600000D468046FDF712FB55F8047C6949A5F1CB
:10F61000080427F00103E2188E685068B24220F017
:10F6200003005ED0FE0750600BD455F8087C01F152
:10F63000080EE41BA5683B4475456DD0E768EF6094
:10F64000BD6015186D68ED073ED543F0010262609C
:10F65000E350B3F5007F17D20122DB0898104D6804
:10F66000134451F83370824001EBC3002A43083839
:10F67000E060A7604A6041F83340FC604046BDE866
:10F68000F041FDF7D9BA70475A0A042A52D89A09AC
:10F6900002F13907FF0002F13805C819CA590838C4
:10F6A00090424FD0516821F003018B4232D29268D0
:10F6B0009042F7D1C368A060E3609C60C46040469C
:10F6C000BDE8F041FDF7B8BA95683B4F0344BD4231
:10F6D00040D0D06843F00102E86085606260E3508A
:10F6E000B7E7FF07034407D455F8085C641BE268DA
:10F6F000A0682B44C2609060304A43F00100126859
:10F70000606093428C60B9D32D4B40461968FFF777
:10F7100023FFB3E71046CDE711184968C90744D461
:10F7200091680344D26843F00100CA609160606050
:10F73000E350A3E7142A16D802F15C07FF0002F198
:10F740005B05AAE70123AA104D6893402B434B6049
:10F750000346B0E743F001024C610C61E560A5602F
:10F760006260E3508AE7542A06D81A0B02F16F0749
:10F77000FF0002F16E0590E7B2F5AA7F06D8DA0B1A
:10F7800002F17807FF0002F1770586E740F2545056
:10F79000824206D89A0C02F17D07FF0002F17C0537
:10F7A0007BE74FF47E777E2577E743F001016160C8
:10F7B000136063E710870720188707201C8B07203A
:10F7C000E83C0820D0F8EC00704700BF044B054A25
:10F7D0001B685B6B002B08BF1346D3F8EC00704727
:10F7E000E0820720248B0720044A054B1268506BE7
:10F7F000002808BF1846F030704700BFE08207209D
:10F80000248B0720704700BF704700BF82B049B10A
:10F810005AB16BB113780B601278101C18BF01201D
:10F8200002B0704701A9002AF3D1104602B0704718
:10F830006FF00100F4E700BF830770B4CDB23DD094
:10F84000541E0AB30378AB421FD0431C05E014F1E9
:10F85000FF3419D30278AA4217D013F0030F1846C9
:10F8600003F10103F3D1032C11D84CB30378AB425D
:10F870000BD00444431C02E00278AA4205D09C420B
:10F88000184603F10103F7D1002070BC704709024C
:10F8900089B2294341EA0141036806464B40A3F17E
:10F8A000013222EA030313F0803F00F1040003D188
:10F8B000043C032CF0D8D8E73046D7E71446D2E70B
:10F8C0002046E2E7C36C70B505460C464BB153F8D1
:10F8D000240080B1026843F8242000230361C36040
:10F8E00070BD21220421FCF7DBFDE86403460028FB
:10F8F000EDD1002070BD012101FA04F6721D2846E9
:10F900009200FCF7CDFD0028F3D044608660E4E768
:10F9100031B1C36C4A6853F82200086043F82210E2
:10F92000704700BFF0B50C4605464FF0000E0E695B
:10F9300083B001F1140738680EF1010E81B202FBA9
:10F940000133010C180C02FB01019BB203EB0143D4
:10F95000764547F8043B4FEA1143ECDC3BB1A26823
:10F96000964207DA04EB860201365361266120468F
:10F9700003B0F0BD6168284601310193FFF7A2FF93
:10F980000746226904F10C01023292000C30FDF7A7
:10F9900089F8EA6C6168019B52F82100206042F806
:10F9A00021403C46DEE700BF020C12040346B2B918
:10F9B0000304102013F07F4F04BF1B02083013F024
:10F9C000704F04BF1B01043013F0404F04BF9B0075
:10F9D0000230002B02DB5B0003D4202070470020A4
:10F9E000E8E70130704700BF0368014613F00702E3
:10F9F00007D0DA0721D4980721D49B080B60022096
:10FA0000704798B298B1104613F0FF0F04BF1B0A5D
:10FA100008301A0704BF1B0904309A0704BF9B086B
:10FA20000230DA0707D45B0804D1202070471B0C92
:10FA30001020E9E701300B607047002070475B0839
:10FA40000B600120704700BF10B50C460121FFF785
:10FA500039FF01224461026110BD00BF2DE9F04F62
:10FA60000C69156983B0AC428B46164604DA22460F
:10FA7000B3462C460E461546DBF8083004EB050865
:10FA8000DBF804109845C8BF0131FFF71BFF00F1F8
:10FA9000140909EB880AD145009005D24B46002194
:10FAA00043F8041B9A45FBD806F1140C0CEB8503B4
:10FAB0000BF1140B9C450BEB840E4BD2CDF804A03C
:10FAC0009A46DCF80050AFB2E7B14D465E460021E1
:10FAD00056F8042B286893B284B2120C07FB034338
:10FAE000000C07FB02020B4402EB13419BB243EAFA
:10FAF0000143B64545F8043B4FEA1141E8D8296077
:10FB0000DCF800502D0C1DD0D9F8003048461C46BA
:10FB1000594600220E88240C05FB06449BB2224461
:10FB200043EA024340F8043B51F8043B04681B0CD1
:10FB3000A6B205FB03638E4503EB12434FEA134263
:10FB4000E8D803600CF1040CE24509F10409B8D8C7
:10FB5000DDF804A0B8F1000F0BDD5AF8043CAAF15F
:10FB6000040A1BB105E05AF8043D13B9B8F10108C5
:10FB7000F9D10098C0F8108003B0BDE8F08F00BF45
:10FB800012F003032DE9F041144607462ED10D462D
:10FB9000A4101CD0BE6C96B3E3074FF0000806D447
:10FBA000641014D03068A8B10646E307F8D5324691
:10FBB00029463846FFF752FFB5B16A68FB6C6410FE
:10FBC00053F82210296043F822500546EAD128460E
:10FBD000BDE8F081324631463846FFF73FFF3060DE
:10FBE000C0F800800646E0E70546D9E70B4A013B2E
:10FBF00052F823200023FFF795FE0546C8E70121B0
:10FC00003846FFF75FFE40F2712101220023416177
:10FC100002610646B8640360BEE700BFD83C0D0031
:10FC20002DE9F8430B69541104EB03088B6808F1C4
:10FC300001059D420E4691460746496804DD5B007A
:10FC40009D4201F10101FADC3846FFF73BFE002C32
:10FC500000F1140306DD002103EB840243F8041BCA
:10FC60009A42FBD1346906F1140119F01F0901EB26
:10FC7000840E1DD00022C9F1200C0C6804FA09F48E
:10FC8000144343F8044B51F8042B8E4522FA0CF22E
:10FC9000F3D81A600AB108F10205FB6C7268013DE5
:10FCA00053F822100561316043F82260BDE8F88303
:10FCB000043B51F8042B8E4543F8042FF9D8ECE7A8
:10FCC00030B40B6905460069C01A0FD19B0014358A
:10FCD000143119442B4401E09D4207D253F8044DDE
:10FCE00051F8042D9442F7D002D3012030BC704764
:10FCF0004FF0FF30FAE700BF2DE9F84F0C69894655
:10FD000011699246641A002C17D1890009F1140771
:10FD100002F114067B18314401E09F4265D253F88A
:10FD2000045D51F8042D9542F7D067D24B46BB468F
:10FD3000D14637469A46012405E061DB002409F1EB
:10FD400014070AF1140BD9F80410FFF7BBFD5D4648
:10FD50004FF00008D9F810E0DAF810303E46C460E1
:10FD60000BEB830C07EB8E0700F1140456F8049B91
:10FD700055F8042B1FFA89F343441FFA82F8120C3A
:10FD8000A3EB0803C2EB194202EB23429BB243EA06
:10FD90000243AC4544F8043B4FEA2248E6D8B74258
:10FDA00017D9A446354655F8043B99B241440A1484
:10FDB00002EB134289B241EA0243AF424CF8043BE2
:10FDC0004FEA2248EFD8F643374427F003070437B9
:10FDD0003C44043C2BB954F8043D0EF1FF3E002B8B
:10FDE000F9D0C0F810E0BDE8F88F0021FFF76AFDF8
:10FDF0000122002302614361BDE8F88FB346A2E708
:10FE00004B4609F1140B02F11407914601249A465E
:10FE100099E700BFF0B5012183B01C46C3F30A5532
:10FE20001646FFF74FFDC4F3130407460DB144F423
:10FE30008014019406B302A840F8086DFFF7D4FDC2
:10FE4000002830D19DE80C007A61002B0CBF012105
:10FE50000221BB613961D5B9089A07EB8103A0F291
:10FE6000324010601869FFF79FFD099BC0EB4110FD
:10FE70001860384603B0F0BD01A8FFF7B5FD0122B8
:10FE8000019B114620303A617B61002DE4D0A5F240
:10FE90003343089A03441360099BC0F1350018608E
:10FEA000384603B0F0BD019BC0F12002009903FA6F
:10FEB00002F20A43C34001937A61C6E72DE9F04F8D
:10FEC000936883B09046002B70D082460C4617682A
:10FED0008D68086842E0A38913F4906F2ED065699D
:10FEE000216905EB4505A0EB010B05EBD5750BF181
:10FEF00001006D103044A8422A4684BF05462A46B8
:10FF00005B0538D511465046FCF72AFB00283CD04B
:10FF10005A4621690190FCF7C5FDA289019B22F494
:10FF2000906242F08002A281A5EB0B0203EB0B0072
:10FF30006561B346354623612060A2605A46494652
:10FF400000F0A8F8D8F80830A2682068551B58447B
:10FF50009E1BA5602060C8F808603EB37E683B46E3
:10FF60000837002EFAD0AE42D3F80090AB46B2D29A
:10FF70003546B346E2E7504600F0F0F80346002865
:10FF8000D2D121695046FFF737FB0C2300224FF0F6
:10FF9000FF30CAF80030A38943F04003A381C8F8BA
:10FFA0000820C8F8042003B0BDE8F08F0020C8F88E
:10FFB000040003B0BDE8F08F19B1FF2A03D80A701E
:10FFC0000121084670478A234FF0FF310360F8E7AC
:10FFD0002DE9F8432C4D0646286898460F46914671
:10FFE000FFF710FC294B1C68D4F84831002B3ED099
:10FFF0005A681F2A1CDC02F1010E76B1012103EBC5
:02000002D0002C
:100000008204C4F88890D3F8880191400843022EF6
:10001000C3F88801C4F8088123D00232C3F804E091
:10002000286843F82270FFF7EFFB0020BDE8F88353
:10003000174B0BB34FF4C870FCF78AFA0346D8B1DC
:100040000020D4F848114FF0010E586019600246A4
:10005000C4F84831C3F88801C3F88C01002EDCD005
:10006000CCE7D3F88C010143C3F88C11D5E704F534
:10007000A673C4F84831BBE72868FFF7C5FB4FF00B
:10008000FF30BDE8F88300BF208B0720603B0D00E8
:1000900051C50C008842F0B50DD98B1898420AD290
:1000A0008418002A51D0224613F8014D994202F8D3
:1000B000014DF9D1F0BD0F2A48D941EA00039B0751
:1000C00046D1154600F1100401F1100353F8106CED
:1000D000103D44F8106C53F80C6C0F2D44F80C6C68
:1000E00053F8086C04F1100444F8186C53F8046CCD
:1000F00003F1100344F8146CE8D8A2F1100323F0C4
:100100000F0302F00F0E1033BEF1030F1944034426
:1001100021D90E4674461D1F56F8047B043C032C5F
:1001200045F8047FF8D8AEF1040424F00304043445
:100130002144234402F0030262B1013B0A4411F856
:10014000014B8A4203F8014FF9D1F0BD0346F3E7B2
:100150000346F2E7F0BD7246EEE700BF002900F06B
:1001600094802DE9F04F0C46154683B0804605F18A
:100170000B06FCF75BFD54F804EC162E2EF003077B
:10018000A4F108093CD810221646B5423DD8974242
:1001900043DAC64B09EB07009968884200F0C38038
:1001A000436823F0010101444968C9074DD51EF099
:1001B000010F00F09B8029464046FCF7D1F9054627
:1001C00000283BD054F8043CA0F1080223F00103BE
:1001D0004B449A4200F02B813A1F242A00F21881E6
:1001E000132A00F2EB800346224611681960516819
:1001F000596092689A6021464046FFF7FDF91DE07C
:1002000026F00706002E3246BFDA00250C232846CA
:10021000C8F8003003B0BDE8F08F2546BB1B0F2B9C
:10022000D9F804201DD802F001023A4309EB070176
:10023000C9F804204B6843F001034B604046FCF7CB
:10024000FBFC284603B0BDE8F08F23F00303F91848
:1002500091421DDBC36882682546D3600F469A60D1
:10026000DCE702F0010209EB060143F0010332432F
:10027000C9F804204F444B607B68083143F0010308
:100280007B604046FFF7B8F9D8E71146FCF768B93C
:100290001EF0010F8FD154F8081CA9EB010ADAF8FF
:1002A000041021F003010B443B44934226DB5546E6
:1002B000C16880683A1FC160886055F8080FDAF895
:1002C0000C10242AC160886026D8132A40F281804D
:1002D00021681B2ACAF808106168CAF80C1000F2DD
:1002E000AD8004F108000AF1100274E054F8083CF3
:1002F000A9EB030ADAF8041021F003017B189342FA
:10030000FFF659AF5546DAF80C1055F8080F3A1FAA
:10031000242AC1608860D8D9214628461F46D14684
:10032000FFF7B8FE7AE7416806F1100021F0030BF1
:10033000BB44834558DA1EF0010F7FF43CAF54F8FC
:10034000081CA9EB010ADAF8041021F003018B4420
:100350005845D3DC5546DAF80C1055F8080F3A1F0B
:10036000242AC160886000F28D80132A40F28780C1
:1003700021681B2ACAF808106168CAF80C1000F23C
:10038000888004F108010AF11002086810604868CA
:10039000506089689160ABEB06020AEB060142F0FF
:1003A000010299604A60DAF80430404603F0010324
:1003B0001E43CAF80460FCF73FFC42E723681B2A8F
:1003C00003606368436027D800F1080304F1080262
:1003D0000BE720462A4601681F4611604168D14656
:1003E00051608368936019E7ABEB060B09EB0601DC
:1003F0004BF0010299604A6054F8043C404603F017
:1004000001031E4344F8046CFCF716FC254618E76C
:100410002146FFF73FFEEEE6A368242A8360E368E7
:10042000C36018D000F1100304F11002DDE650F8AB
:10043000043C254623F003031F44EFE6A168242A69
:10044000CAF81010E168CAF814100DD004F11000B9
:100450000AF11802BFE7226900F11803026161691D
:1004600004F118024161C0E6226904F11800CAF8DB
:10047000182061690AF12002CAF81C10ABE7214676
:100480002A4682E7214628460193FFF703FE019B97
:1004900081E7A168242ACAF81010E168CAF814108C
:1004A00006D004F110010AF118026EE71087072048
:1004B000226904F11801CAF8182060690AF12002C3
:1004C000CAF81C0061E700BF4FF0FF3C06E000BF28
:1004D0004FF0010C02E000BF4FF0010C4DF804CDCD
:1004E0004FEA410C7FEA6C5C4FEA430C18BF7FEA8D
:1004F0006C5C1BD001B050EA410C0CBF52EA430CBB
:1005000091EA030F02BF90EA020F0020704710F13A
:10051000000F91EA030F58BF994208BF90422CBFC9
:10052000D8176FEAE37040F0010070474FEA410CC2
:100530007FEA6C5C02D150EA013C07D14FEA430CE0
:100540007FEA6C5CD6D152EA033CD3D05DF8040B51
:10055000704700BF8446104662468C461946634683
:1005600000E000BF01B5FFF7B7FF002848BF10F15A
:10057000000F01BD4DF808EDFFF7F4FF0CBF01209F
:1005800000205DF808FB00BF4DF808EDFFF7EAFF1B
:1005900034BF012000205DF808FB00BF4DF808EDD6
:1005A000FFF7E0FF94BF012000205DF808FB00BFCB
:1005B0004DF808EDFFF7CEFF94BF012000205DF855
:1005C00008FB00BF4DF808EDFFF7C4FF34BF012062
:1005D00000205DF808FB00BF4FEA410C7FEA6C5C2D
:1005E00002D150EA013C0AD14FEA430C7FEA6C5C2D
:1005F00002D152EA033C02D14FF0000070474FF0A5
:10060000010070474FEA410212F5001215D211D5D0
:100610006FF47873B3EB625212D94FEAC12343F0FF
:10062000004343EA505311F0004F23FA02F018BF81
:10063000404270474FF00000704750EA013005D14A
:1006400011F0004008BF6FF0004070474FF000000D
:10065000704700BF48617264206661756C740D0A52
:10066000004368616E67656420686F75720D0A00EB
:1006700052756E6E696E6720256325632563202D94
:10068000202573202D2025732025730D0A0031307D
:100690003A33393A323300417072202038203230F8
:1006A0003230007363686564756C65720D0A0043CF
:1006B000416D62696F206D696E75746F0D0A004639
:1006C00061696C65640D0A00424C34382D4D425905
:1006D0002D30320057414B452055500D0A005761CF
:1006E000697420536C6565700D0A004177616B6910
:1006F0006E670D0A00456E61626C652077617463F8
:1007000068646F672077697468202564206D696369
:10071000726F7365636F6E647320706572696F6466
:100720000A0D00255820256C5820256C580D0A000C
:1007300042616E6B20310D0A0042616E6B20320DFA
:100740000A002D462D20496E697469616C697A61D1
:1007500074696F6E206572726F720A0D002D462DDE
:1007600020526561642074686520556E69717565F5
:10077000204964656E746966696572206572726F7E
:10078000720A0D00696E69745F626F617264207233
:10079000756E6E696E670D0A00497665636F204459
:1007A00061696C792030320D0A0049444C4500548F
:1007B0006D725100546D72205376630030410030E9
:1007C0003300436F6D616E646F206E6F6E206765DE
:1007D000737469746F0D0A0030430041420D0A00C2
:1007E0004572722E20370D0A0030370042420D0A42
:1007F000004572722E20380D0A0030380043420D39
:100800000A0043430D0A0036380030340036390000
:1008100042616E636F20312061747469766F0D0AD6
:100820000042616E636F20302061747469766F0DD1
:100830000A002563256325633A0025583A002558A8
:100840003A25583A256C583A003045003632003681
:100850003300363400363600303500304200303157
:10086000005570646174657220696E69740D0A00C8
:10087000745F72657365740043616E6E6F7420639C
:1008800072656174652074696D65722E0D0A00755C
:100890007064617465207461736B00253033580097
:1008A00025303458005265626F6F740D0A002D4672
:1008B0002D20496E697469616C697A6174696F6E23
:1008C000206572726F7220256C750A0D0043616E8F
:1008D0003020696E697469616C697A6174696F6EE0
:1008E00020636F6D706C657465640D0A0043616E02
:1008F0003120696E697469616C697A6174696F6EBF
:1009000020636F6D706C657465640D0A00745F6BB5
:1009100065797300496D706F737369626C652063EC
:10092000616E20696E746572666163650D0A004DC3
:1009300061696C626F78202564207069656E612042
:1009400025640D0A0041626F72742121210D0A0095
:10095000746F6F206D7563682043414E206572721D
:100960006F72730D0A00557064617465722C206E8D
:100970006F7420726573657474696E670D0A006325
:10098000616E6275735F7461736B5F74780063612D
:100990006E5F7461736B0043616E207461736B20D2
:1009A000696E69740D0A00257320737461636B208E
:1009B000746F6F206C6F772E0D0A007654696D6529
:1009C000725365636F6E64006576656E745F746103
:1009D000736B006576656E745F696E697400495368
:1009E000522051554555452046554C4C0D0A006541
:1009F00076656E745F7461736B005573696E672002
:100A0000256420627974657320666F722068616E58
:100A1000646C657273206D616E6167656D656E747F
:100A200020256420666F722071756575652E0D0A2C
:100A300000745F62726B006C6F676765725F696EEE
:100A400069740044454641554C5400554152540088
:100A50004556454E5400414443005245504541548B
:100A60004552004E4F524D414C00494E464F0045B5
:100A700052524F52005741524E494E470044454250
:100A80005547004C6F676765722025733A256420CF
:100A90006E6F77207365742061732025733A256427
:100AA0000D0A00766572626F7365000D0A766572D5
:100AB000626F73653A0D0A766572626F7365205BCB
:100AC00044454641554C547C43414E7C554152541B
:100AD0007C4556454E547C52455045415445527CC8
:100AE0004144435D205B4E4F524D414C7C494E4644
:100AF0004F7C4552524F527C5741524E494E477C93
:100B000044454255475D0D0A0D0A0000A30A0D0039
:100B1000AB0A0D00113A0C0002000000536572761A
:100B200069636520696E69740D0A00745F7570648D
:100B300000756172745F73657269616C5F65727272
:100B40006F720073657269616C5F756172745F6961
:100B50006E6974007573617274305F736572696178
:100B60006C5F6572726F72004C494E20696E6974D9
:100B7000204B4F0D0A004C494E20696E6974204F7E
:100B80004B0D0A002573206D756C7469706C6520BF
:100B9000636F6E66696775726174696F6E0D0A00C6
:100BA0007573617274315F73657269616C5F6572D0
:100BB000726F72007573617274325F73657269610E
:100BC0006C5F6572726F7200436F646120646920AC
:100BD000747261736D697373696F6E652070696596
:100BE0006E612E0D0A000000C50F0D00C50F0D002F
:100BF000C50F0D00C50F0D00C50F0D00CE0F0D0068
:100C0000C50F0D00C50F0D00C50F0D00C50F0D0060
:100C1000C50F0D00C50F0D00C50F0D00C50F0D0050
:100C2000C50F0D00C50F0D00C50F0D00C50F0D0040
:100C3000C50F0D00CC0E0D00D80E0D00D80E0D0006
:100C4000E00E0D00ED0E0D00F60E0D00F60E0D007F
:100C5000D80E0D00D80E0D00D80E0D00D80E0D00C8
:100C6000D80E0D00D80E0D00D80E0D00D80E0D00B8
:100C7000D80E0D00D80E0D00D80E0D00D80E0D00A8
:100C8000B10F0D00B10F0D00B10F0D00B10F0D0030
:100C9000BB0F0D00BB0F0D00B10F0D00B10F0D000C
:100CA000B10F0D00B10F0D00B10F0D00B10F0D0010
:100CB000B10F0D00B10F0D00B10F0D00B10F0D0000
:100CC000B10F0D00B10F0D00B10F0D00000F0D00A1
:100CD000000F0D00000F0D00000F0D00000F0D00A4
:100CE0000F0F0D00000F0D00000F0D00000F0D0085
:100CF000000F0D00000F0D00000F0D00000F0D0084
:100D0000000F0D00000F0D00000F0D00000F0D0073
:100D1000000F0D00000F0D000000556E6B6E6F7719
:100D20006E2076656869636C6520636F6E666967BF
:100D30002025640D0A004461696C79206D61696E3B
:100D4000206D656E750D0A004D443A2025640D0A2C
:100D50000056656869636C653A20556E6B6E6F77F7
:100D60006E206D656E752025303258202530325842
:100D700020253032580D0A0056533A2025640D0ABA
:100D800000000000D70F0D00E20F0D00E20F0D0074
:100D9000EC0F0D00FC0F0D000C100D001D100D00D0
:100DA000E20F0D00E20F0D00E20F0D00E20F0D004B
:100DB000E20F0D00E20F0D00E20F0D00E20F0D003B
:100DC000E20F0D00E20F0D00E20F0D00E20F0D002B
:100DD000740F0D007F0F0D007F0F0D00890F0D00A8
:100DE0007F0F0D009C0F0D00A70F0D007F0F0D0052
:100DF0007F0F0D007F0F0D007F0F0D007F0F0D0087
:100E00007F0F0D007F0F0D007F0F0D007F0F0D0076
:100E10007F0F0D007F0F0D007F0F0D001E0F0D00C7
:100E20002E0F0D002E0F0D003D0F0D002E0F0D008B
:100E3000550F0D00650F0D002E0F0D002E0F0D002C
:100E40002E0F0D002E0F0D002E0F0D002E0F0D007A
:100E50002E0F0D002E0F0D002E0F0D002E0F0D006A
:100E60002E0F0D002E0F0D00B40E0D00BD0E0D0047
:100E7000BD0E0D00BD0E0D00C40E0D00BD0E0D000B
:100E8000BD0E0D00BD0E0D00BD0E0D00BD0E0D0002
:100E9000BD0E0D00BD0E0D00BD0E0D00BD0E0D00F2
:100EA000BD0E0D00BD0E0D00BD0E0D00BD0E0D00E2
:100EB000BD0E0D004E6575737461727400526562EB
:100EC0006F6F740052696176766961004265737470
:100ED000C3A4746967656E00436F6E6669726D00C6
:100EE000436F6E6669726D6174696F6E00436F6EF9
:100EF0006665726D6100436F6E6669726D61720046
:100F000044414220526164696F20323031390052CD
:100F10006164696F204441422032303139004F68AA
:100F20006E6520526164696F2032303139004F7034
:100F3000656E20446173682032303139005072C3CD
:100F4000A97061726174696F6E20726164696F204B
:100F5000323031390053696E20756E6964616420E6
:100F6000323031390053656D20526164696F20322F
:100F7000303139004F686E6520526164696F004FEF
:100F800070656E2044617368005072C3A97061720D
:100F90006174696F6E20726164696F0053696E20BD
:100FA000756E696461640053656D20526164696F98
:100FB0000044414220526164696F00526164696F6C
:100FC0002044414200425420526164696F005261E2
:100FD00064696F204254005765726B737261646973
:100FE0006F004F454D20526164696F005261646922
:100FF0006F2064276F726967696E6500526164696A
:101000006F204F726967696E616C65005261646937
:101010006F206F726967656E204F454D0052C3A106
:1010200064696F206F726967696E616C204F454D0E
:1010300000466168727A65756765696E7374656C80
:101040006C756E67656E0056656869636C652073C4
:10105000657474696E67730052C3A9676C616765D4
:10106000732064752076C3A9686963756C6500494F
:101070006D706F7374617A696F6E692076656963EC
:101080006F6C6F00436F6E6669677572616369C3E9
:10109000B36E2064656C20766568C3AD63756C6F54
:1010A00000436F6E666967757261C3A7C3A36F2043
:1010B000646F2076656963756C6F00557374617732
:1010C00069656E696120506F6A617A647500566562
:1010D0006869636C652053657474696E6773005644
:1010E0006F65727475696720496E7374656C6C699D
:1010F0006E67656E0000000031100D0047100D0096
:1011000047100D0058100D006F100D0084100D00D9
:10111000A1100D00BB100D00CE100D00CE100D0063
:10112000DF100D00CE100D00CE100D00CE100D0002
:10113000CE100D00CE100D00CE100D00CE100D0003
:10114000CE100D004461696C792032303134202595
:10115000640D0A0005403106010000000000000097
:1011600000000000080000000540090A010000001E
:10117000006D4A0000000000030000000040110A5A
:10118000010000000004D700000000000300000080
:101190000540090E01000000003A000000000000B8
:1011A000020000001721721801000000000000007A
:1011B00000000000080000001724FF1801000000D4
:1011C0000000000000000000080000000540111EA3
:1011D00001000000111111111110000006000000A3
:1011E0004461696C792044414220524144494F0D89
:1011F0000A004461696C792032303139204C4F57F4
:101200002053504545440D0A004461696C792032F1
:1012100030313920484947482053504545440D0A4C
:10122000002A2A70686F6E65207374617475733A52
:1012300020253032580D0A002A2A736F75726365B3
:1012400020747970653A20253032580D0A002A2A18
:1012500070686F6E650D0A0068656C70000D0A6835
:10126000656C703A0D0A204C6973747320616C6C64
:10127000207468652072656769737465726564209F
:10128000636F6D6D616E64730D0A0D0A00000000DE
:1012900058120D005D120D001D540C0000000000DE
:1012A00008030202034B0902030302430A03030378
:1012B00003460B04030304480C03040404430D0415
:1012C0000404044D0E04040504400F040505044302
:1012D0001005050504451106050504471205060617
:1012E00004431306060604441407060604461508BC
:1012F00006060447160707070444170808070446AC
:101300001807080804431908080804447769736B30
:1013100065725F696E6974005769736B6572206DE1
:101320006F64756C652025642074696D65646F75E4
:10133000740D0A004E6F7420676976696E672077B6
:1013400069736B65720D0A00745F77736B004841B7
:101350004E444252414B455F4F4E0D0A0048414EAC
:10136000444252414B455F4F46460D0A0046616379
:10137000746F72792072657365742072657175651A
:10138000737465642E2049676E6974696F6E204FAF
:1013900046462E0D0A0049474E4954494F4E5F4F6D
:1013A0004E0D0A0049474E4954494F4E5F4F46463D
:1013B0000D0A0044656C617965642069676E697423
:1013C000696F6E20256C64207365636F6E64732093
:1013D00072656D61696E696E670D0A004C49474818
:1013E00054535F4F4E0D0A004C49474854535F4FCA
:1013F00046460D0A00524556455253455F4F4E0D25
:101400000A00524556455253455F4F46460D0A0065
:1014100044656C61796564206F6E207265766572D3
:101420007365202564207365636F6E647320726535
:101430006D61696E696E670D0A0044656C6179655E
:1014400064206F6666207265766572736520256418
:10145000207365636F6E64732072656D61696E6978
:101460006E670D0A005370656564206E6F772025E6
:10147000660D0A00745F77697200496E76616C6967
:10148000642050574D20636F6E6669677572617492
:10149000696F6E0D0A00745F3136300046696C6CFE
:1014A000696E672045322072756E74696D652025FE
:1014B000642025642E0D0A004D525F39313A2025F3
:1014C000642025642025640D0A004D525F45353A9D
:1014D0002025642025642025640D0A004D525F45B7
:1014E000383A2025642025640D0A00486F20756E67
:1014F000612072696368696573746120646920633F
:10150000616D62696F2073636865726D6174612ECD
:101510000D0A0061206D656E7520746F2073656E15
:10152000642025700D0A0052696C617363696F0D48
:101530000A005269747261736D6574746F0D0A00EC
:1015400068616E646C655F7377632071756575653E
:101550002066756C6C0D0A004552524F5245212190
:101560002100745F35303000745F323030007261BA
:1015700064696F20616C70696E650D0A004E4143AD
:101580004B090A00726570656174207478202564C7
:10159000090A00474956452055502C2033204E411A
:1015A000434B530D0A0054494D454F5554740A009E
:1015B0007265706561742074782025640D0A004797
:1015C0004956452055502C20332054494D454F5500
:1015D000540D0A004E6F2050726573730D0A005649
:1015E0006F6C2B2070726573730D0A00566F6C2B35
:1015F0002072656C0D0A00566F6C2D207072657339
:10160000730D0A00566F6C2D2072656C0D0A005325
:1016100065656B2B2070726573730D0A00536565E9
:101620006B2B2072656C0D0A005365656B2D207065
:10163000726573730D0A005365656B2D2072656CBE
:101640000D0A004D7574652070726573730D0A0084
:101650004D7574652072656C0D0A00507265736576
:10166000742B2070726573730D0A00507265736578
:10167000742B2072656C0D0A005072657365742DB1
:101680002070726573730D0A005072657365742D56
:101690002072656C0D0A00536F757263652070725D
:1016A0006573730D0A00536F757263652072656C04
:1016B0000D0A0054656C5069636B5570207072653B
:1016C00073730D0A0054656C5069636B557020721A
:1016D000656C0D0A0054656C48616E67557020702A
:1016E000726573730D0A0054656C48616E675570BE
:1016F0002072656C0D0A0053706565636820707216
:101700006573730D0A005370656563682072656CBC
:101710000D0A00556E737570706F72746564205396
:10172000574320636F6D6D616E640D0A00457272E0
:101730006F722073656E64696E672C2070757368B4
:10174000696E67206261636B207377632025640D87
:101750000A005357432025642072657456616C203B
:1017600025640D0A0052657461696E206B657920ED
:101770002530325820666F722025642074696D65AB
:10178000732E0D0A00436F6E74696E756F206D6560
:101790006E752025700D0A0046696E65206D656EB8
:1017A000752025700D0A00496E76696F206D656E93
:1017B000752025700D0A00496E76696F20616C6C8A
:1017C00061726D652E0D0A002A2A2A2A2A2A2054BF
:1017D0007261736D6574746F20696C206D657373CD
:1017E000616767696F2E0D0A00616C70696E655FD5
:1017F0007461736B002563256325632563000925E8
:1018000030356C7509253032582530325825303244
:1018100058253032580D0A00416C70696E65204CB5
:101820006F776C6576656C0D0A00092530356C752F
:1018300009090909200072657175657374206E6F5E
:101840007420696D706C656D656E746564202530FB
:1018500032580D0A00416C70696E65204C6F776CD0
:101860006576656C20696E69740D0A00736572692E
:10187000616C20696E69740D0A00616C70696E6537
:101880005F6C6F7700092530356C750900253032A3
:10189000580076656869636C655F7570646174652E
:1018A0005F73796E635F636C6F636B0068616E6416
:1018B0006C655F636C6F636B5F646174655F6D65BE
:1018C0006E750068616E646C655F636C6F636B5FFF
:1018D000646174655F76616C75655F726563656987
:1018E00076656400761F0D00851F0D00851F0D00B5
:1018F000921F0D009D1F0D00AB1F0D00BA1F0D00A4
:10190000851F0D00851F0D00851F0D00851F0D0013
:10191000851F0D00851F0D00851F0D00851F0D0003
:10192000851F0D00851F0D00851F0D00851F0D00F3
:10193000A2210D00B4210D00B4210D00C0210D0025
:10194000D0210D00DB210D00E9210D00F9210D0052
:1019500006220D0006220D0013220D0006220D00A6
:1019600006220D0006220D0021220D0006220D0088
:1019700006220D0006220D0006220D001E210D007C
:1019800022210D0022210D0026210D002B210D000A
:1019900032210D0032210D0037210D0022210D00D2
:1019A00022210D003E210D0022210D0022210D00DB
:1019B00022210D0042210D0022210D0022210D00C7
:1019C00022210D0022210D0000000000F11F0D005A
:1019D000F81F0D00F81F0D00F81F0D00FE1F0D0071
:1019E000F81F0D00F81F0D00F81F0D00F81F0D0067
:1019F000F81F0D00F81F0D00F81F0D00F81F0D0057
:101A0000F81F0D00F81F0D00F81F0D00F81F0D0046
:101A1000F81F0D00F81F0D00CC1E0D00D01E0D008C
:101A2000D01E0D00D01E0D00D01E0D00D01E0D00CA
:101A3000D01E0D00D01E0D00D01E0D00D01E0D00BA
:101A4000D01E0D00D01E0D00D01E0D00D01E0D00AA
:101A5000D01E0D00D01E0D00D01E0D00D01E0D009A
:101A6000D01E0D00C81E0D00C81E0D00C81E0D00A2
:101A7000C81E0D00C81E0D00C81E0D00C81E0D009A
:101A8000C81E0D00C81E0D00C81E0D00C81E0D008A
:101A9000C81E0D00C81E0D00C81E0D00C81E0D007A
:101AA000C81E0D00C81E0D00C81E0D00C81E0D006A
:101AB000256C64202573202530325820253032587B
:101AC00020253032580D0A0043616D62696F20761F
:101AD000616C6F72652073796E6320636C6F636BEA
:101AE000206461202564200043616D62696F2031AC
:101AF000322F3234480D0A0043616D62696F2072E3
:101B0000696761206174746976610D0A00256C64EF
:101B10002025732025642025640D0A0043616D6231
:101B2000696F20616E6E6F2025640D0A0043616D40
:101B300062696F206D6573652025640D0A0043613D
:101B40006D62696F2067696F726E6F2025640D0A80
:101B50000043616D62696F206F72612025640D0A18
:101B60000043616D62696F206D696E75746F202529
:101B7000640D0A00526F77202564206E6F74206810
:101B8000616E646C65640D0A00257320796561726D
:101B90003A2025642076656869636C655F6D6F6EB9
:101BA00074683A2025642076656869636C655F64B3
:101BB00061793A20256420686F75723A2025642087
:101BC0006D696E7574653A2025640D0A0000000089
:101BD000D4200D00DB200D00DB200D00E0200D00E7
:101BE000D7210D00E6200D00E6200D00EB200D00B2
:101BF000DB200D00DB200D00F3200D00DB200D00AD
