:0200000280007C
:10000000F05E0820F50008002570080009030800CC
:100010002570080025700800257008000000000009
:1000200000000000000000000000000021070800A0
:10003000257008000000000075070800B1070800DF
:10004000257008002570080025700800257008003C
:10005000257008002570080025700800257008002C
:10006000113D08000000000000000000C10308006E
:10007000190408000000000000000000000000005B
:1000800000000000AD3E0800A14108001D4308002B
:100090000000000025700800856D0800257008002C
:1000A0002570080000000000257008002570080079
:1000B00025700800257008002570080025700800CC
:1000C0002570080000000000000000000000000093
:1000D000318208002570080025700800257008008E
:1000E000257008002570080000000000BD300800E1
:1000F000953108004FF0005208B5194B1A631A6188
:100100004FF48052C3F83022C3F81022154A164B20
:100110009A4219D10021154B154A93421DD3154B14
:10012000154A23F0604121F07F0103F16043B3F5EC
:10013000801F91603EBF936843F0005393600DF0C1
:100140007DF900F079F8FEE70C49043A8B42E1D2E0
:1001500052F8040F43F8040BF8E743F8041BDCE7FC
:10016000000E0E405C4F090000800720988C07208D
:10017000F03E08200000080000ED00E0988C072009
:1001800010B5054C237833B9044B13B10448AFF3D1
:1001900000800123237010BD988C07200000000010
:1001A0005C4F09000C4B43B10C4810B50C49AFF340
:1001B00000800C48036823B910BD0A48036833B9AE
:1001C0007047094B002BF7D0BDE810401847064B8D
:1001D000002BF5D0184700BF000000005C4F09005D
:1001E0009C8C07205C4F090000000000034A044B70
:1001F0001A600022034B1A60704700BFD4810720A9
:10020000F4330820B88C0720024A0221032003F0AF
:10021000CBBB00BF91150900024A0121002003F069
:10022000C3BB00BFDF1509000378122B03D1407850
:1002300008B907F03FB870477FB503F083FB00F0C3
:1002400071F903F07FFC04F071F907F049F801201F
:1002500007F040F8012007F02DF8002007F02AF8F9
:1002600003F010FB1B49072003F03CFA1A49082051
:1002700003F038FA1949092003F034FA184912201A
:1002800003F030FA03F0F4FC1649174A04911749B9
:100290001378039102929178527801910092012192
:1002A000134A002003F080FB0CF082F808F0E8F815
:1002B0000CF0CDF904F064F900F006FA0D4A0121C2
:1002C000002003F071FB00F023FC002007B05DF874
:1002D00004FB00BFED010800190208000902080034
:1002E00029020800BE150900F8150900C715090004
:1002F000A0150900D315090030BF024A1368013365
:1003000013607047B88C0720064A074913688B4270
:1003100002D8013313607047002001211060034AA6
:1003200003F042BBB48C0720F5FF090084150900D7
:1003300038B56424044D00212A46084603F034FBF6
:10034000013CF8D138BD00BFEF150900032070470C
:100350000620704702207047074B1A680AB9074AFF
:100360001A601A68064910448142A6BF18601046F8
:100370004FF0FF30704700BFBC8C0720F05E0820B4
:10038000FC7F082010B50446072CFDD8DFE804F0F8
:100390000B04040C0C0C0C0C06F058FA003018BFBF
:1003A00001200028F0D010BD06F0CEFAF6E708B51F
:1003B0000B2006F0E1FABDE808400C2006F0DCBA9C
:1003C00010B5124806F07AFC8107044606D50221D2
:1003D0000E4806F071FC01220D4B1A70E20307D59E
:1003E0004FF48031094806F067FC0122084B1A706F
:1003F000E3040AD54FF48051044806F05DFC05483B
:1004000003F0BEFA0122024B1A7010BD000E0E401E
:10041000C88C07200416090010B50C4806F04EFCE5
:100420000204044607D54FF40041084806F044FC96
:100430000122074B1A70E30307D54FF480310348BC
:1004400006F03AFC0122024B1A7010BD00100E405B
:10045000C88C072038B5FFF7AAFF02231A484FF4CB
:1004600080544361C0F8A0304FF40043174D102270
:100470006B61C5F8A0304461C0F8A0404466446593
:100480004462C0F88040036F114923F4805303672E
:1004900006F02AFC10224FF4C031284606F024FC56
:1004A0004FF4006200210B4BC3F88020C3F8802179
:1004B00083F80B131A60C3F88040C3F8804183F8B7
:1004C0000C131C6038BD00BF000E0E4000100E4023
:1004D0000210010000E100E008B50F490F4806F0E6
:1004E000E8FB4FF4C0310E4806F0E3FB012006F0B4
:1004F00063FA022006F060FA082006F05DFA802018
:1005000006F05AFA4FF4805006F056FABDE808405B
:100510004FF4005006F050BA02100100000E0E40D9
:1005200000100E402DE9F041002486B04FF4807198
:100530004D4806F05DFC08214B4806F051FC4A4846
:1005400006F05EFC494BDFF870811C70FFF782FFFC
:10055000FFF7C2FF2046FFF715FF204606F012F90D
:1005600006F0C4F906F0B6F9414806F0C5FD06F0FC
:100570005DFDFFF71CFF05F0DBFE3E4F3E4D4046A4
:1005800003F0FEF93B784FF000563C4C43B94FF472
:1005900080536E636363FFF79FFF03F0EBF9EEE7B1
:1005A000374803F0EDF94FF480532E633548236349
:1005B00006F0AEFB0446002006F056F90320FFF7D4
:1005C000E1FE002006F0FEF806F0E6FDFFF7EFFE84
:1005D00005F03AFD4FF400412B4806F0C7FB2B4ACB
:1005E00003460121002003F0DFF91F4B01205D6964
:1005F00006F07CFB264AC4F30223019001210095FA
:10060000002003F0D1F90120002106F075FB214BF9
:10061000B3F5202F34BF2048204803F0B1F9204B18
:1006200004211B680020C3F30323092B0CBF4FF4E4
:1006300000324FF480221B4B1A6006F049FC10B1C7
:10064000194803F09DF9042102A806F0CBFC10B173
:10065000164803F095F9059A154B16481A6003F0F1
:100660008FF906B0BDE8F081101A0E40C08C07204B
:1006700000BD0105C88C0720000E0E4000100E4082
:100680001B160900001A0E40501A0E4025160900CC
:1006900053160900250508006016090069160900AF
:1006A00040090E40C48C0720721609008D160900FF
:1006B000CC8C0720B41609000E160900014806F07C
:1006C00021BB00BF001A0E4008B5094A01210020D5
:1006D00003F06AF903F05AFF072805D008F02CFE52
:1006E000BDE8084004F00EBA02F012FCF8E700BFC3
:1006F000C916090003480068006880F3088862B6DC
:1007000000DF00BF08ED00E04FF0807300E90A0051
:10071000002340F8202C40F80C3C40387047000083
:10072000064B19680868B0E8F00F80F309884FF0AD
:10073000000080F311884EF00D0E7047D08C07201A
:100740004FF0A00383F31188BFF36F8FBFF34F8F78
:10075000024A136801331360704700BF908007207E
:10076000034A1368013B13600BB983F31188704788
:1007700090800720EFF309800C4B1A6820E9F00FF6
:1007800010602DE908404FF0A00080F3118800F0C0
:100790003DFB4FF0000080F31188BDE80840196868
:1007A0000868B0E8F00F80F309887047D08C072004
:1007B0004FF0805208B5094B1A60EFF311834FF0E8
:1007C000A00282F31188BFF36F8FBFF34F8F00F049
:1007D000EDF9002383F3118808BD00BF04ED00E0AC
:1007E000034A044B1A60072243F8042C704700BFE9
:1007F0001F48010014E000E008B5084B1A6842F4F5
:1008000070021A601A6842F070421A60FFF7E8FF3F
:100810000020034B1860FFF76DFF08BD20ED00E0DE
:100820009080072070470000064A13681968064B3D
:1008300019B94FF0FF321A6070471268D268D26857
:100840005268F8E7D48C07205C8D0720F8B51B4B65
:100850001B4E1D68044630680F46043000F0BDFE94
:10086000334640B901203168164EC96A3268884063
:1008700022EA00023260621C07D137B119681248BF
:100880000431BDE8F84000F085BE2C441A68A5424A
:10089000546007D90D4A10681968BDE8F840043162
:1008A00000F084BE0A4A10681968043100F07EFE28
:1008B000084B1A68944238BF1C60F8BDA48D07200D
:1008C000D08C07202C8D07207C8D0720D88C07200A
:1008D000D48C07205C8D072080B5DFF86880154F29
:1008E000154C164E236873B9154B1B68012B07D99D
:1008F0004FF08053C8F80030BFF34F8FBFF36F8FB6
:10090000FFF7FAFCECE7FFF71BFFFB68DD68281D2B
:1009100000F063FE3368013B33602368013B2360D2
:10092000FFF71EFF286B01F013F9284601F010F9BC
:10093000D8E700BF908D07201C8D0720188D072059
:10094000DC8C072004ED00E02DE9F84F4FEA820A25
:10095000804650460D4699460B9E01F067F80746C3
:1009600098B1582001F062F8044658B107637DB988
:100970004FF0A00383F31188BFF36F8FBFF34F8F46
:1009800000BFFDE7384601F0E3F84FF0FF3591E096
:100990005246A52138460DF091F8236BAAF1040ABE
:1009A0009A442AF0070A6B1E04F13402093559787B
:1009B00002F8011B13F8011F09B19D42F7D10A9DEE
:1009C0004FF0000B022D28BF0225271DE562A5640C
:1009D000384684F83DB0C4F84CB000F0D8FDC5F1FD
:1009E000030504F1180000F0D2FDC4F850B02461F2
:1009F000A561646284F854B04A4641465046FFF708
:100A000083FE206006B13460FFF79AFE304B314E12
:100A10001A68DFF8F48001321A603268002A4CD17B
:100A200034601B68012B1FD12B4800F0A5FDDFF8B7
:100A3000DC902A4800F0A0FD294D2A4800F09CFDDA
:100A4000484600F099FD284600F096FD264800F043
:100A500093FD264800F090FD254800F08DFD254BC4
:100A6000C3F80090244B1D600125244A24491368D3
:100A7000086801331360E26A236405FA02F3034352
:100A800014200B60144B394600FB023000F082FD4D
:100A9000FFF766FED8F8003063B13368DA6AE36ABC
:100AA0009A4207D24FF08052164B1A60BFF34F8F15
:100AB000BFF36F8F2846BDE8F88FD8F80030002BC1
:100AC000D2D13368DA6AE36A9A4298BF3460CBE7DE
:100AD000188D0720D08C0720DC8C0720F08C072095
:100AE000448D0720048D0720648D0720908D0720FA
:100AF0007C8D0720D48C0720D88C0720288D0720D8
:100B00002C8D072004ED00E0788D0720308D072024
:100B100013B50024184B00940193C82223461749AB
:100B20001748FFF711FF012818D100F0B1FD012887
:100B300014D14FF0A00383F31188BFF36F8FBFF37D
:100B40004F8F4FF0FF320F4B1A600F4B18600F4B57
:100B50001C6002B0BDE81040FFF74EBE013009D165
:100B60004FF0A00383F31188BFF36F8FBFF34F8F54
:100B700000BFFDE702B010BD588D0720DA1609004E
:100B8000D90808005C8D0720788D0720A48D0720E8
:100B9000024A136801331360704700BF248D072099
:100BA000014B1868704700BFA48D07202DE9F84F4E
:100BB0003C4B1B68002B6ED13B4B1C6801341C6006
:100BC000C4B93A4B1A6812684AB14FF0A00383F3D4
:100BD0001188BFF36F8FBFF34F8F00BFFDE7344A1B
:100BE0001968106818601160324A13680133136085
:100BF000FFF71AFE304D4FF0000B2B682F4F9C4231
:100C00000AD3DFF8A8A0DFF8C490DAF80020126851
:100C1000A2B94FF0FF322A603A68294BD16A1422F8
:100C20004A439A58022A28BF4FF0010B254A1268FE
:100C3000002A0CBF58460120BDE8F88FDAF80020E2
:100C4000D268D66871688C4201D22960E4E706F167
:100C50000408404600F0C1FCB16A19B106F1180061
:100C600000F0BBFC01224FF0140EF06AD9F80030FE
:100C700002FA00F11943124BC9F800100EFB0030C4
:100C8000414600F087FC3868F16AC26A914228BF89
:100C90004FF0010BB9E70C4A4FF0000B136801331A
:100CA0001360C3E7248D0720A48D0720D48C072070
:100CB000D88C0720608D07205C8D0720D08C072002
:100CC000DC8C0720A88D0720208D07202C8D072085
:100CD0002DE9F843314C23684BB94FF0A00383F35F
:100CE0001188BFF36F8FBFF34F8F00BFFDE7FFF792
:100CF00027FD2368013B236024682CB10024FFF703
:100D00002FFD2046BDE8F883254B1B68002BF5D04E
:100D1000DFF8A490234FDFF8A480D9F80030E3B9BE
:100D20000CB1FFF781FD204D2C6844B101271F4E07
:100D3000FFF73CFF00B13760013CF9D12C601B4B41
:100D40001B68002BDAD04FF08052194B1A60BFF3AA
:100D50004F8FBFF36F8F0124D1E7D9F80C300125F5
:100D6000DC68261D04F1180000F037FC304600F066
:100D700034FC1420E26A396805FA02F30B4300FBE5
:100D8000028031463B6000F005FC0A4BE26A1B68BA
:100D9000DB6A9A4224BF054B1D60BEE7248D072005
:100DA000188D07202C8D0720208D0720A88D072067
:100DB00004ED00E0D08C0720648D0720DC8C072038
:100DC00008B540B94FF080520E4B1A60BFF34F8FF9
:100DD000BFF36F8F08BD0C4B196849B14FF0A003EA
:100DE00083F31188BFF36F8FBFF34F8F00BFFDE711
:100DF000FFF7CEFEFFF72AFDFFF76AFF0028E1D0DC
:100E000008BD00BF04ED00E0248D0720184B10B58D
:100E10001A68184B12B101221A6010BD1A60164BE5
:100E20001B68B3FA83F31422DBB2C3F11F035A43E6
:100E300012498C5888184CB94FF0A00383F31188DD
:100E4000BFF36F8FBFF34F8F00BFFDE744680832D9
:100E500064680A44944208BF6268446008BF426004
:100E6000142202FB03135B68DA68054BD4E700BF6A
:100E7000248D0720A88D07202C8D0720DC8C0720CF
:100E8000D08C072010B50C4648B94FF0A00383F36F
:100E90001188BFF36F8FBFF34F8F00BFFDE7054B86
:100EA0001968183100F082FB2046BDE8104001218E
:100EB000FFF7CCBCD08C072038B50D46144648B996
:100EC0004FF0A00383F31188BFF36F8FBFF34F8FF1
:100ED00000BFFDE7074B1968183100F05BFB002CE1
:100EE000214608BF2846BDE8384018BF4FF0FF3004
:100EF000FFF7ACBCD08C072038B5C368DC684CB9B0
:100F00004FF0A00383F31188BFF36F8FBFF34F8FB0
:100F100000BFFDE704F11805284600F05EFB114B09
:100F20001B68E3B9251D284600F057FB01230E4935
:100F3000E26A08689340034314200B6029460B4B78
:100F400000FB023000F026FB094BE26A1B68DB6AFB
:100F50009A4285BF0120074B0020186038BD294602
:100F60000548EFE7248D07202C8D0720DC8C072017
:100F7000D08C0720A88D0720648D072010B504466B
:100F800048B94FF0A00383F31188BFF36F8FBFF30D
:100F90004F8F00BFFDE7FFF7D3FB054B1B682360B6
:100FA000044B1B686360BDE81040FFF7D9BB00BF6E
:100FB000608D0720A48D0720034B1B680360034B43
:100FC0001B684360704700BF608D0720A48D072019
:100FD00070B50C46054648B94FF0A00383F311885D
:100FE000BFF36F8FBFF34F8F00BFFDE749B94FF0DD
:100FF000A00383F31188BFF36F8FBFF34F8F00BF40
:10100000FDE7FFF79DFB0F4B69681A682368581CC2
:101010000ED00D482E680068864201D08A420ED25A
:10102000521A9A4209D29B1A23602846FFF7C4FF3E
:101030000024FFF795FB204670BD002323600124A8
:10104000F7E700BFA48D0720608D07200122014B28
:101050001A607047A88D072008B9064B1868026B04
:101060001346981A13F8011BA529FAD0C0F38F0074
:10107000704700BFD08C0720014B1868704700BF35
:10108000D08C0720054B1B6833B1054B1B68002B28
:101090000CBF02200020704701207047788D072088
:1010A000248D07202DE9F0410446002836D0244A3B
:1010B000C36A11681746C96A8B4238D214268269FE
:1010C000204D002AA8BF3A6806FB0353A2BFD26A8C
:1010D000C2F10302826142699A4222D100F10408FE
:1010E000404600F07AFA184B48B9E06A4643AA59DC
:1010F0002AB901211A68814022EA01021A603A687D
:101100001968D26AE262012404FA02F00843186006
:101110001420414600FB025000F03CFA2046BDE896
:10112000F0813B68DB6AC3620120BDE8F08113688F
:10113000806CDC6AA0422CBF00200120BDE8F08159
:10114000D08C0720DC8C07202C8D0720F8B50446B6
:1011500008B90020F8BD234B1B68984209D04FF016
:10116000A00383F31188BFF36F8FBFF34F8F00BFCE
:10117000FDE7C36C4BB94FF0A00383F31188BFF3B5
:101180006F8FBFF34F8F00BFFDE7C16A826C013BD9
:101190009142C364DDD0002BDBD1051D284600F051
:1011A0001CFA114E114A50B91421E76A7943735859
:1011B0002BB901201368B84023EA00031360A36C25
:1011C000C3F10301E362A1610124116804FA03F091
:1011D000084310601420294600FB036000F0DAF990
:1011E0002046F8BDD08C0720DC8C07202C8D0720F2
:1011F000F8B5044600284DD0C26C4AB94FF0A003A0
:1012000083F31188BFF36F8FBFF34F8F00BFFDE7EC
:10121000836C994238BF1946C36A8B423AD0012A7F
:1012200038D11D4A1268904209D14FF0A00383F3D0
:101230001188BFF36F8FBFF34F8F00BFFDE71426F8
:10124000164D826906FB0353002A4269C162A4BF9E
:10125000C1F1030181619A421CD1071D384600F09B
:10126000BCF9E26A0E4C40B95643AB592BB9012187
:101270002368914023EA010323600123142021689D
:1012800093400B432360394600FB0250BDE8F84011
:1012900000F080B9F8BD00BFD08C0720DC8C07209F
:1012A0002C8D0720044B1A681AB11968CA6C0132D8
:1012B000CA641868704700BFD08C07202DE9F04140
:1012C0001E4C1E4680460F461546FFF739FA236826
:1012D00093F85430022B14D0012123681A6D22EAAE
:1012E00008021A65236883F8541056B13046FFF798
:1012F000ADFA4FF08052124B1A60BFF34F8FBFF31D
:101300006F8FFFF72DFAFFF71BFA15B123681B6DDE
:101310002B602368002293F85430022B09BF01256B
:1013200000252368196D04BFB9431965236883F844
:101330005420FFF715FA2846BDE8F081D08C07202D
:1013400004ED00E0F8B50E4617461D46044648B9C0
:101350004FF0A00383F31188BFF36F8FBFF34F8F5C
:1013600000BFFDE7FFF7ECF90DB1236D2B60022301
:1013700094F8545084F85430EDB2042F16D8DFE8B6
:1013800007F00A0307051100216D0E43266502E0F0
:10139000236D01332365012D15D00125FFF7E0F9F9
:1013A0002846F8BD022DF1D10025F7E7236D013362
:1013B000F1D04FF0A00383F31188BFF36F8FBFF319
:1013C0004F8F00BFFDE7261D304600F006F9144997
:1013D000E26A086805FA02F3034314200B60114B1C
:1013E000314600FB023000F0D5F8A36A4BB14FF054
:1013F000A00383F31188BFF36F8FBFF34F8F00BF3C
:10140000FDE7094BE26A1B68DB6A9A42C5D94FF0D7
:101410008052064B1A60BFF34F8FBFF36F8FBDE74B
:101420002C8D0720DC8C0720D08C072004ED00E0F9
:101430002DE9F843DDF820800E4691461D4604460E
:1014400048B94FF0A00383F31188BFF36F8FBFF348
:101450004F8F00BFFDE7FFF7E5F9EFF311874FF07E
:10146000A00383F31188BFF36F8FBFF34F8F0DB1CC
:10147000236D2B60022394F8545084F85430EDB25D
:10148000B9F1040F16D8DFE809F00A0307051100C7
:10149000216D0E43266502E0236D01332365012D86
:1014A00015D0012087F31188BDE8F883022DF1D112
:1014B0000020F7E7236D0133F1D04FF0A00383F351
:1014C0001188BFF36F8FBFF34F8F00BFFDE7A36A93
:1014D0004BB14FF0A00383F31188BFF36F8FBFF3BD
:1014E0004F8F00BFFDE7134B1B68FBB9261D30462D
:1014F00000F073F8104A1420E36A11689D400D4310
:10150000314615600D4A00FB032000F043F80C4BF8
:10151000E26A1B68DB6A9A42C3D90123B8F1000F63
:1015200001D0C8F80030074A1360BAE704F1180187
:101530000548EAE7248D07202C8D0720DC8C072046
:10154000D08C0720A88D0720648D072038B505466C
:1015500008B9084B1D680024FFF7F2F895F85430DD
:10156000022B04BF85F854400124FFF7F9F8204608
:1015700038BD00BFD08C072000F1080343604FF056
:10158000FF32C36003610023826003607047002361
:101590000361704743689A684B608A609A6851603B
:1015A0009960036808610133036070470A6830B5C9
:1015B000531C0AD103695A684A6091608B60596074
:1015C000036808610133036030BD00F108035C6803
:1015D0002568AA42EFD32346F9E741688268036988
:1015E0008A60826851605968884208BF5A60002248
:1015F00002611A68013A1A6018687047F8B50F4C12
:10160000FFF79EF82568ADB90D4F0E4E3846FFF72F
:10161000B3FF3046FFF7B0FF0B4B2A461F600B4B62
:1016200010211E201E6000F097FB206010B10849B9
:1016300000F0ACFEBDE8F840FFF792B8E08D07205F
:10164000B48D0720C88D0720AC8D0720B08D0720F2
:10165000DF160900914208B5416000610AD8D21A2C
:1016600083699A420DD2084B011D1868FFF79EFF4F
:10167000002008BD9A4201D2994202D2011D034BBB
:10168000F3E7012008BD00BFB08D0720AC8D072017
:1016900007B5FFF7B3FF0E4B1B684BB94FF0A00324
:1016A00083F31188BFF36F8FBFF34F8F00BFFDE748
:1016B000084B4FF4967201930223074900930748A1
:1016C0000023FFF741F90028E8D003B05DF804FBE0
:1016D000E08D0720E48D0720E416090005180800B6
:1016E0002DE9F04180462C200D4617461E4600F09D
:1016F0009DF90446B0B14DB94FF0A00383F31188B2
:10170000BFF36F8FBFF34F8F00BFFDE7FFF776FF8B
:10171000069BC4F80080A561E76126626362201D14
:10172000FFF735FF2046BDE8F081000030B51546D3
:1017300085B01A46034648B94FF0A00383F31188D9
:10174000BFF36F8FBFF34F8F00BFFDE70C4C2068D6
:1017500078B105298DE8220002930CDCFFF792FC9A
:10176000002302280CBF089A1A466946206800F038
:1017700019FB05B030BD0023694600F0DFFBF8E738
:10178000E08D07202DE9F3414FF000081B4D2B6839
:101790001A6832B91A4A11681360296002B0BDE8AC
:1017A000F081DB68DC681E68271D3846FFF715FFEF
:1017B000636A20469847E369012BE8D1A369334463
:1017C0009E4206D26360246139462868FFF7EEFE28
:1017D000DDE70023CDF80080324619462046FFF7AA
:1017E000A5FF0028D3D14FF0A00383F31188BFF3E6
:1017F0006F8FBFF34F8F00BFFDE700BFAC8D072099
:10180000B08D07202DE9F04F714DDFF8D0812F46C4
:1018100087B02B681C68002C40F0D5804FF0010A7F
:10182000FFF7B6F9FFF7BCF9DFF8B4B18146DBF892
:1018300000305E46984236D2FFF7A4FF0122CBF873
:101840000090002A40F08380BAF1000F66D14C4529
:101850006AD8FFF73DFA3B68DB68D3F80CB00BF1B0
:101860000400FFF7BAFEDBF81C30012B1DD1DBF8BA
:10187000181023464A4621445846FFF7EBFEA0B114
:10188000CDF800A05346224651465846FFF74EFF7A
:1018900058B94FF0A00383F31188BFF36F8FBFF3E4
:1018A0004F8F00BFFDE70022C9E7DBF82430584620
:1018B0009847DFF82491002202A9D9F8000000F02F
:1018C000F9FB0028A5D0029B002B03DA05990498A8
:1018D000039B9847029B002BEDDB049C636913B1CB
:1018E000201DFFF77AFEFFF75BF9336883469842C5
:1018F00001D2FFF747FF029AC6F800B0092ADAD8EA
:101900000123934013F4047A49D113F0C70F21D176
:101910009B06D0D5204600F01BF9CCE72D4B1B6869
:101920001A68B2FA82F252092B4BA4EB090118682B
:1019300000F03EFDFFF7CCF90028BAD14FF08053FC
:10194000C8F80030BFF34F8FBFF36F8FB1E7FFF7D9
:10195000BFF9AEE7A169039B5A4619442046FFF739
:1019600079FE0028A7D0636A20469847E369012BD7
:10197000A1D1A2690399CDF800A00A44534651466B
:101980002046FFF7D3FE002895D14FF0A00383F344
:101990001188BFF36F8FBFF34F8F00BFFDE703992F
:1019A000A16149B94FF0A00383F31188BFF36F8F92
:1019B000BFF34F8F00BFFDE75B465A4659442046B0
:1019C000FFF748FE77E7DB684FF0000A1C6827E75F
:1019D000AC8D0720B08D0720E08D072004ED00E0DE
:1019E000DC8D072010B50F4B1A68824218D35C6853
:1019F0001919884201BF416818460919596044689D
:101A000001198A4207D1084909688A421FBF5168F3
:101A10001268091941609842026018BF186010BD31
:101A20001346E1E7382A0820E88D07202DE9F04128
:101A30000446FFF7ADF83F493F4D0B68FBB93F4AFD
:101A4000002056070FBF49F6404307323C4B22F0B7
:101A5000070218BF9B1A13443A4E083B23F00703B2
:101A600070603260586018600B60981A1360364BD3
:101A700050601860354B18604FF000432B602F68A2
:101A8000274216D1002C41D004F1080358071CBF8F
:101A900023F00703083363B12C4A16689046B3421B
:101AA00007D8284A15686868834204D809688D42B7
:101AB00007D100242AE02C68002CF7D02A462546BE
:101AC000F1E7296814681160C21A102A10D9E818C1
:101AD000410709D04FF0A00383F31188BFF36F8F44
:101AE000BFF34F8F00BFFDE742606B60FFF77AFFE7
:101AF0006B681549F61A1F4300230868C8F8006090
:101B0000864238BF0E6008346F602B60FFF7E0F844
:101B10000CB9FEF70DFC630709D04FF0A00383F367
:101B20001188BFF36F8FBFF34F8F00BFFDE72046D3
:101B3000BDE8F081E88D07202C2A0820EC8D0720D5
:101B40002C2A0820382A0820342A0820302A082085
:101B500010B5044680B3194A50F8043C1268134289
:101B600009D14FF0A00383F31188BFF36F8FBFF348
:101B70004F8F00BFFDE750F8081C49B14FF0A0039C
:101B800083F31188BFF36F8FBFF34F8F00BFFDE763
:101B900023EA020340F8043CFEF7FAFF084A54F82F
:101BA000043C1168A4F108000B441360FFF71AFF0E
:101BB000BDE81040FFF78CB810BD00BF2C2A0820EC
:101BC000302A082010B50446FEF7BAFDA46BFEF7D4
:101BD000C7FDB4FA84F0400910BD70B51546026C1B
:101BE0000446866B42B905689DB98068FFF7AEFA76
:101BF000A5600136A66370BD6DB940680BF0E8FEC4
:101C00006368226C1344A2686360934201D3236823
:101C100063600020EDE7C0680BF0DAFE236CE26839
:101C20005B4221681A448A42E2603EBFA2689B1868
:101C3000E360022DEDD10EB1013EEAE73046D8E770
:101C400003461A6C10B4084662B1D9689C68114406
:101C5000A142D96028BF196810BC28BFD960D968D3
:101C60000BF0B6BE10BC704770B50446FEF768FDB9
:101C700094F8455004F124066DB2002D14DCFF23C6
:101C800084F84530FEF76CFDFEF75AFD94F8445099
:101C900004F110066DB2002D12DCFF2384F84430ED
:101CA000BDE87040FEF75CBD636A002BE7D03046AC
:101CB000FFF722F908B1FFF7C9F9013D6DB2DCE782
:101CC0002369002BE9D03046FFF716F908B1FFF77A
:101CD000BDF9013D6DB2DEE738B50D46044648B9A1
:101CE0004FF0A00383F31188BFF36F8FBFF34F8FC3
:101CF00000BFFDE7FEF724FD206CE36B2268434341
:101D0000D1181B1A1344A160E3600021FF23A163D3
:101D1000626084F8443084F8453095B9236963B132
:101D200004F11000FFF7E8F838B14FF08052094B8A
:101D30001A60BFF34F8FBFF36F8FFEF711FD0120C5
:101D400038BD04F11000FFF717FC04F12400FFF781
:101D500013FCF2E704ED00E0F8B50D461746064621
:101D600048B94FF0A00383F31188BFF36F8FBFF31F
:101D70004F8F00BFFDE748435030FFF757FE044642
:101D800048B155B92060E663256401212046FFF77C
:101D9000A3FF84F84C702046F8BD00F150030360A7
:101DA000F1E700002DE9FF47894601921F460446EE
:101DB00048B94FF0A00383F31188BFF36F8FBFF3CF
:101DC0004F8F00BFFDE7002940F08A80036C002B95
:101DD00000F086804FF0A00383F31188BFF36F8F6C
:101DE000BFF34F8F00BFFDE7019E002E00F0838000
:101DF0004FF0A00383F31188BFF36F8FBFF34F8FB2
:101E000000BFFDE7019D1DB9FEF7AAFC002058E0C8
:101E100016B902A8FFF7D0F8FEF7A2FCFEF7B8FE4D
:101E2000FEF78EFC94F84430FF2B08BF84F8448002
:101E300094F84530FF2B08BF84F84580FEF790FCEE
:101E400001A902A8FFF7C4F8002843D1FEF778FCE7
:101E5000A66BE56BFEF784FCAE4235D1019904F127
:101E60001000FFF70FF82046FFF7FEFEFEF730FFE9
:101E700038B94FF08053CAF80030BFF34F8FBFF32B
:101E80006F8F0126FEF75CFCA26BE36B9A4201D3D5
:101E9000022FB7D13A4649462046FFF79EFE636AB5
:101EA0001BB104F12400FFF727F838B14FF080523E
:101EB000184B1A60BFF34F8FBFF36F8FFEF750FCC4
:101EC000012004B0BDE8F0872046FFF7CDFEFEF705
:101ED000FFFED6E72046FFF7C7FEFEF7F9FE95E7BF
:101EE000022F02D1E36B012B0AD1FFF7CBF80028B8
:101EF0003FF47AAF00264FF00008DFF818A0C1E7E2
:101F00004FF0A00383F31188BFF36F8FBFF34F8FA0
:101F100000BFFDE704ED00E010B5024600210120FE
:101F2000FFF71AFF044638B1002383600360C360E3
:101F30001A461946FFF736FF204610BD2DE9F84333
:101F4000884691461F46044648B94FF0A00383F3E4
:101F50001188BFF36F8FBFF34F8F00BFFDE711BB39
:101F6000036C03B34FF0A00383F31188BFF36F8FAB
:101F7000BFF34F8F00BFFDE704F12400FEF7BCFF65
:101F8000002834D0B9F1000F31D00120C9F8000089
:101F900086F31188BDE8F88301356DB284F84550A9
:101FA00025E00020F4E7022F02D1E36B012B20D1C2
:101FB000FEF738FCEFF311864FF0A00383F311888E
:101FC000BFF36F8FBFF34F8FA26BE36B9A4201D3C6
:101FD000022FE6D194F845503A466DB2414620466C
:101FE000FFF7FBFD6B1CD7D1636A002BC4D1012026
:101FF000CEE74FF0A00383F31188BFF36F8FBFF3D9
:102000004F8F00BFFDE770B50D46044648B94FF04D
:10201000A00383F31188BFF36F8FBFF34F8F00BF0F
:10202000FDE7036C4BB14FF0A00383F31188BFF3BE
:102030006F8FBFF34F8F00BFFDE703680BB9836855
:1020400073BBFEF7EFFBEFF311864FF0A00383F3B2
:102050001188BFF36F8FBFF34F8FA26BE36B9A4270
:1020600001D3002014E094F8453001325BB2A26342
:102070005A1C10D1636A0BB9012009E004F1240055
:10208000FEF73AFF0028F7D0002DF5D00120286098
:1020900086F3118870BD01335BB284F84530EBE7FD
:1020A0004FF0A00383F31188BFF36F8FBFF34F8FFF
:1020B00000BFFDE72DE9F04385B088460192044654
:1020C00048B94FF0A00383F31188BFF36F8FBFF3BC
:1020D0004F8F00BFFDE7002940F08880036C002B84
:1020E00000F084804FF0A00383F31188BFF36F8F5B
:1020F000BFF34F8F00BFFDE7019E002E7BD04FF056
:10210000A00383F31188BFF36F8FBFF34F8F00BF1E
:10211000FDE7019D1DB9FEF723FB002052E016B933
:1021200002A8FEF749FFFEF71BFBFEF731FDFEF7A5
:1021300007FB94F84430FF2B08BF84F8447094F8F0
:102140004530FF2B08BF84F84570FEF709FB01A955
:1021500002A8FEF73DFF00283DD12046FFF732FDE3
:1021600098B3019904F12400FEF78CFE2046FFF796
:102170007BFDFEF7ADFD38B94FF08053C9F8003054
:10218000BFF34F8FBFF36F8F0126FEF7D9FAA56B10
:10219000002DBED041462046013DFFF751FDA5630D
:1021A000236963B104F11000FEF7A6FE38B14FF0C9
:1021B0008052134B1A60BFF34F8FBFF36F8FFEF740
:1021C000CFFA012005B0BDE8F0832046FFF74CFDB3
:1021D000FEF77EFDD8E72046FFF746FDFEF778FDC7
:1021E0002046FFF7EFFC0028CED096E7FEF74AFF27
:1021F000002881D000260027DFF80490C5E700BF43
:1022000004ED00E02DE9FF410446019148B94FF08B
:10221000A00383F31188BFF36F8FBFF34F8F00BF0D
:10222000FDE7056C4DB14FF0A00383F31188BFF3B8
:102230006F8FBFF34F8F00BFFDE7FEF723FF18B985
:10224000019D002D40F096802E460027DFF8388152
:10225000FEF776FAA36BE3B1013BA363236813B9DE
:10226000FFF720F8A060236963B104F11000FEF7C6
:1022700043FE38B14FF08052434B1A60BFF34F8F8B
:10228000BFF36F8FFEF76CFA0125284604B0BDE856
:10229000F081019B6BB94DB14FF0A00383F311881E
:1022A000BFF36F8FBFF34F8F00BFFDE7FEF758FA04
:1022B000EBE716B902A8FEF77FFEFEF751FAFEF72C
:1022C00067FCFEF73DFA94F84430FF2B08BF84F812
:1022D000447094F84530FF2B08BF84F84570FEF732
:1022E0003FFA01A902A8FEF773FE40BB2046FFF7A4
:1022F00069FCF0B123683BB9FEF722FAA068FEF74B
:10230000D1FE0546FEF72CFA019904F12400FEF7F0
:10231000B9FD2046FFF7A8FCFEF7DAFC38B94FF00C
:102320008053C8F80030BFF34F8FBFF36F8F012683
:102330008EE72046FFF798FCFEF7CAFCF7E7204639
:10234000FFF792FCFEF7C4FC2046FFF73BFC002899
:10235000EDD0002D99D0FEF7F3F9616A19B1236B26
:102360001968C1F10301A068FEF742FF0025FEF7DE
:10237000F7F98AE74FF0A00383F31188BFF36F8F5B
:10238000BFF34F8F00BFFDE704ED00E0002330B541
:10239000064A52F83350DC0025B942F83310224483
:1023A000506030BD0133082BF3D130BD402A0820E6
:1023B00070B504460D461646FEF7C2F994F844304F
:1023C000FF2B04BF002384F8443094F84530FF2BE2
:1023D00004BF002384F84530FEF7C2F9A36B2BB984
:1023E0003246294604F12400FEF766FD2046BDE88A
:1023F0007040FFF739BC000010B5094C094A0121B3
:10240000002001F0D1FA237833B906F02FF805F057
:102410005DFC0123237010BDBDE8104001F0C8BC75
:10242000172B0820D5170900002370B5064E95B26A
:102430009CB2A54202D80023835470BDCC18345DF1
:10244000C4540133F4E700BF3C2C0820F0B5274802
:10245000B7B00BF065FC0223C5B201AE2A46244991
:1024600030468DF810300BF095FB9DF804309DF848
:1024700005005A1C8DF8113000239DF80610024407
:102480008DF8120019488DF813100A44D9B28D4204
:1024900024D892B2174930460BF07CFB0023ACB233
:1024A000271DFA1836A992B20A44F15C0133042BB5
:1024B00002F8C81CF5D1032236AB234403F8C02C24
:1024C00036AB1C440A2304F8BF3C0B4B05F10A024F
:1024D000186804A9C368984737B0F0BD195C04AC0C
:1024E0001C4421710A440133D0E700BF422E08206A
:1024F000CB170900D0170900E02E082007B5435C70
:10250000013189B28DF80430435C0021102201A80A
:102510008DF805308DF806100BF0F6FCC0B203B054
:102520005DF804FB63232DE9F347ADF80030282361
:10253000ADF80230B323044600F14606224F234D86
:10254000DFF88C80ADF80430B6B24FF0000904EB30
:102550008901042289B23846FFF766FF1022002164
:1025600038460BF0D1FC1022A88100213846B5F87E
:1025700004A00BF0C9FC3DF8193009EB8A0A09F1F7
:10258000010905EB4A0A5840B9F1030FAAF81400F3
:10259000DDD104F10C0189B24046B5F80490FFF793
:1025A000ADFFAB882A8801339BB205EBC9090E3415
:1025B0009A42A9F81A00A4B2AB8001D9B442C4D19E
:1025C00002B0BDE8F08700BF3C2E082094800720B1
:1025D0003C2C082010B5084C4FF4807204F108011F
:1025E000201D00F0FDFC636803F580736360002329
:1025F000A4F8183110BD00BF182B08200A4B0B4A55
:10260000B3F8101102EBC102D18A128BC3F80C117E
:102610000A440132C3F81421012283F81221002256
:10262000A3F81821704700BF182B082094800720BA
:102630000A4B10B55968081FFC3150F8042F0433B9
:10264000C2F307241A715C718842C2F30744C2F3D3
:1026500007629C71DA71F0D110BD00BF182B082001
:102660002DE9F04F04460E46B24FB34DDFF8F88225
:102670008FB03B88B3EB440F0BDC6B78013B042B32
:1026800000F25581DFE813F00F007800B800CC00AD
:10269000D20031464046FFF731FF0236285501345B
:1026A000A4B2B6B2E5E70DF1170000F09FFC0028D8
:1026B00000F037819DF81700A04C002856D0A04AA2
:1026C0000121002001F070F90023236036238DF8EA
:1026D000183030238DF819303A238DF81A30002342
:1026E00006A998488DF81B300BF09CFA964906A86D
:1026F0008B784A78C978009194490BF04BFA06A977
:1027000090480BF08FFAFDF721FE9149024606A88A
:102710000BF040FA06A98B480BF084FAFDF718FE7F
:102720008B49024606A80BF035FA06A985480BF03E
:1027300079FAFDF70FFE8649024606A80BF02AFA41
:1027400006A980480BF06EFA00F078FC054600F010
:102750007DFC23687F4900932A46034606A80BF0B8
:1027600019FA06A977480BF05DFA88E07A4A012148
:1027700001F01AF90123A8E7A9782B79774CEE78B4
:102780006D7981F0590283F01A00A274E0746A40F6
:10279000704002EB002281F0350183F0CD0303EBA2
:1027A0000123A260142104226D482382FFF73CFE1E
:1027B000102200216A480BF0A7FB238A042258400C
:1027C00060801A216648FFF72FFE0021102264481E
:1027D0000BF09AFB238A58404FF6FF73A081E381E8
:1027E00000245648A0F81041FFF708FF5D4980F823
:1027F0001A41A0F81C41B5E7042208215848FFF708
:1028000013FE1022002156480BF07EFB0022534B92
:10281000554918800C209A80FFF784FE5349A1E7A0
:1028200051490820FFF77EFE51499BE7434C94F83D
:102830001A71002F79D00025484EA846B346A4F857
:102840001051B4F8102133889A421BD3B368ADB24B
:102850009D4268D1207800F001FC002861D04549F4
:1028600038480BF0DFF9444B1C68FEF799F90A234E
:1028700002460093012100232046FEF757FF0FB0C8
:10288000BDE8F08F4FF00009FFF7B8FEB4F8102153
:1028900006EBC203DB8A06EBC202928AA4F80A3175
:1028A00003F47F4303EB02136360B4F810310BEBC6
:1028B000C302128B0132914503D30133A4F81031C6
:1028C000BFE7FFF7B5FE6368B4F80AE103F580736C
:1028D00063601EF0FF03A4F8188118BFA4F8183134
:1028E000D4F81431B4F818C10393002318469AB2EF
:1028F00002EB0E01624492B2FF2A89B209EB030A8D
:1029000004D908B1A4F80A11D146CEE7039A0133DD
:102910009142F6D20CEB03022244D2793846154498
:10292000E5E716491EE716491CE716491AE7164956
:1029300018E700BF382C0820802A0820182B082010
:1029400040170900422E0820F815090062170900F7
:102950006A1709006E1709005117090094800720B3
:102960003C2E08207C1709003C2C08207F1709000A
:102970008217090085170900D82E08207917090049
:10298000881709008B1709008E17090001490248B2
:102990000BF048B98E170900422E082010B5244AC2
:1029A0009178D378234A03EB012392F812119BB25A
:1029B000A2F80831144669B1B2F810111E4A02EBB0
:1029C000C102928A9A4230D11C491D48BDE810408C
:1029D0000BF028B9B2F818314BB1FF20DA1D2244B0
:1029E000FF2B18D909B1A4F81831FFF7F3FDB4F89B
:1029F00010311148013302889BB29A42A4F8103179
:102A00000FD0FFF7FBFDB4F81031B4F8082100EB4C
:102A1000C300838AD6E7013302F8010F9BB201217C
:102A2000DEE7012384F81A31CEE70649CDE700BF7F
:102A3000802A0820182B0820948007208517090079
:102A4000422E08200817090000210422F0B56C4C22
:102A50006C48B4F81E71B4F81C3185B0BA42C0F0AD
:102A6000898009B1A4F81C31674DEB19EA5D5B78E8
:102A700003EB0223B4F81C219BB29A4240F0B980C8
:102A8000AA78EB7803EB022394F812219BB2A4F806
:102A90000A3122B35D4EB4F8102106EBC202D28A8D
:102AA0009A426FD15A4A0121002000F07DFF002395
:102AB00084F81231B4F81031B4F80A2106EBC306D9
:102AC000B18A02F47F4303EB011312F0FF0F63603E
:102AD00005D0FFF7ADFD94F80A31A4F818310426AB
:102AE000BE425BD1842E1AD0D4F80C21D4F8143114
:102AF0009A426FD1B4F818318BB1464A01210020B7
:102B000000F052FF0021FF20B4F81831DA1D2244F2
:102B1000FF2B59D909B1A4F81831FFF75BFDD4F8A0
:102B20000C21D4F81431394D9A4214D13A4A01217A
:102B3000002000F039FFB4F810312A8801339BB22D
:102B40009A42A4F8103150D0344A0121002000F0FC
:102B50002BFFFFF753FD324932480BF063F8EA8947
:102B6000314901A80BF016F801A92E480BF05AF8CC
:102B7000002011E010F8011F01320B449BB292B209
:102B800001216BE7294A0121002000F00DFF2849AF
:102B900024480BF047F8072005B0F0BDB4F8182121
:102BA000A95D531C9BB22244B3F5807FA4F8183171
:102BB000117201D1FFF70EFDD4F80C31013601334B
:102BC000C4F80C31B6B28BE7013302F8010F9BB2A7
:102BD00001219DE7174A0121002000F0E5FE16497A
:102BE00010480BF01FF80820D6E7012384F81A31AB
:102BF000B1E712490B480BF015F80420CCE700BFF1
:102C0000182B0820832A0820802A08209480072077
:102C10000B1709001C1709002D17090032170900AE
:102C200037170900422E0820CB170900101709009A
:102C300019170900211709002A1709003A17090076
:102C400008B5064BB3F818310BB1FFF7C3FCBDE86C
:102C50000840034903480AF0E5BF00BF182B0820CD
:102C60003D170900422E08202DE9F047404C414B0A
:102C70006178414E08291B8822D10222073B93FB31
:102C8000F2F33E480322A6F81E31FFF7CDFB3C4B82
:102C90001022DD8900210135ADB23848DD810BF00D
:102CA00033F9C0F30B00854208D196F81A312BB3E3
:102CB00034493548BDE8F0470AF0B4BF3349F8E776
:102CC0000222043B93FBF2F34FF00808A6F81E31F2
:102CD0000025DFF8C4902A4FB6F81E311FFA85FA96
:102CE00008EB4A01534589B20BD86378053B042BA6
:102CF00032D8DFE803F0212531292D004FF00B08F1
:102D0000E6E74846FFF7FAFB0AF0010ABA449AF8E8
:102D100012306B405840C0B200F00F023A4407EB4B
:102D2000101092F8141190F81421ABB2234402EB66
:102D300001129A700135CFE7BDE8F047FFF726BED4
:102D4000BDE8F047FFF72ABEBDE8F047FFF77CBEBD
:102D5000BDE8F047FFF774BF0D490B480AF062FF6A
:102D6000BDE8F0470B4A0121002000F01DBE00BF66
:102D7000802A0820382C0820182B08203C2E0820F8
:102D800094800720EC160900422E0820EF16090057
:102D90008E170900F21609003C2C082010B50421FA
:102DA0001148FFF7ABFB114C062120700E48FFF7CE
:102DB000A5FB0422607011460D48FFF735FB237810
:102DC000202B06D0262B0CD00A4909480AF02AFFEE
:102DD00003E008210220FFF743FCBDE81040FFF7A5
:102DE00035BBFFF741FFF8E73C2C0820802A08207C
:102DF000422E08208E1709002DE9F34700242746AC
:102E0000A0463E4E002000F0E9FE002004F052FAF9
:102E1000012004F04FFA00F0ADFD394B0122186893
:102E20000DF107010A23806902F0F7FF002859D04D
:102E30003378022B18BF00279DF80730B7F5007FC5
:102E4000F35528BF0027F25D7B1C0A2A9BB248D1AC
:102E500000272C4A13803378022B40D1294C238839
:102E60009BB2013BF35C0A2B39D103220121264896
:102E7000757896F802A096F80390FFF7D5FA00212E
:102E8000102221480BF040F8204B81B21980238892
:102E9000EDB29BB20A3B99425FFA8AFA5FFA89F96E
:102EA00027D100226C1C54444C4490B2031D814233
:102EB0009BB21AD8043189B20B1DF35C032B18D1D5
:102EC00004221148FFF7B0FA102200210E480BF03F
:102ED0001BF84440A4B274B9FFF760FF92E70124E5
:102EE00090E71F46002C8DD0B5E7F35C01321C44FF
:102EF000DBE786F80080002484E700BF3C2C082034
:102F0000E02E08203A2C08203C2E0820382C0820DF
:102F10001F4B37B51C78002C37D101251D4A294697
:102F200020461D7000F040FD00F048F81A4B1B4889
:102F30001D701B4B4E2218604FF4E13143699847D6
:102F4000032221462846FEF707FF20B123462246EA
:102F50002146FEF727FF134B4FF47A7100930122AD
:102F600000231148FEF7BCFB104B0146186010B956
:102F70000F4A00F019FD012200230E498DE80C00D4
:102F80000D484FF41672FDF7DFFC03B030BD00BFF3
:102F9000162B082091170900DC2E0820D481072069
:102FA000E02E0820F9230800A0170900D82E0820D9
:102FB000A8170900BF170900F92D080010B5062150
:102FC000002003F085FF034630B1BDE81040034AFE
:102FD0000121002000F0E8BC10BD00BFDE17090091
:102FE00001234FF48072006803F086BF70B50022A1
:102FF00004460D210E4803F021FF0646A8B90C48EF
:1030000003F007FF10F0040507D00A4A01213046FB
:1030100000F0CAFC0120207070BD074A012128463B
:1030200000F0C2FC2570012070BD002070BD00BF03
:10303000000A0E404017090051170900024B18689A
:10304000C0F30750704700BF40090E40024B18689C
:10305000C0F30320704700BF40090E4008B50222AC
:1030600038B10B21044803F0E9FEB0FA80F04009C2
:1030700008BD0C21F6E700BF000A0E4000230360E4
:10308000037143718371C3718360C36003614361E2
:103090008361C3617047000008B5064A0121002022
:1030A00000F082FCBDE80840034A0121002000F046
:1030B0007BBC00BF801809009618090070B5304825
:1030C00092B003F087FC10F0FF0F53D000242C4E79
:1030D000E5B22946304603F085FC03024CD5294C65
:1030E000A06021462648256003F0CDFCE36912A9C3
:1030F0000293A369082241F8443D05A80AF068FC40
:103100000022236920460393A3798DF81D208DF8B2
:103110001C3063799B1A18BF01238DF81030FFF71C
:10312000ADFF194919480B68009201330B60134633
:1031300003991D2B50F823201AD0914203F101036B
:10314000F7D10023142203A909A88DF820300AF032
:103150003FFC694608A800F0CDFA009B53B14FF040
:1031600080520B4B1A60BFF34F8FBFF36F8F01E09C
:103170009142E6D012B070BD0134082CA8D1F9E715
:1031800000400B40E82E08207830082084300820CA
:1031900004ED00E070B5304892B003F01BFC10F075
:1031A000FF0F53D000242C4EE5B22946304603F0E1
:1031B00019FC03024CD5294CA06021462648256005
:1031C00003F061FCE36912A90293A369082241F8A4
:1031D000443D05A80AF0FCFB236920460393A3792C
:1031E0008DF81C3001238DF81D306379003318BF32
:1031F00001238DF81030FFF741FF002318491948CB
:103200004A68009301324A6003991A18742B926F2E
:103210001AD0914203F10403F7D10123142203A928
:1032200009A88DF820300AF0D3FB694608A800F001
:1032300061FA009B53B14FF080520B4B1A60BFF301
:103240004F8FBFF36F8F01E09142E6D012B070BD97
:103250000134082CA8D1F9E700800B40102F08207A
:10326000783008208430082004ED00E02DE9F34791
:103270000446394D407C394E15F800E081000A18AB
:10328000724406EB4213A2689A61E268DA6122791D
:10329000A2B101225A7122681A610B187344227C70
:1032A00006EB43139A7178B1012804D02C4A01210E
:1032B000002000F079FBDFF8B48007E05A7127683E
:1032C000284A02EA8742E7E7DFF8A4800C27DFF804
:1032D000A490637C404603EB8301EB5C194406EB4E
:1032E000411103F00AFC01288246637C14D00821B6
:1032F000EB5C40469940C9B203F06EFB0522617C4D
:103300006B5C0133DBB2B3FBF2F202EB82029B1A7D
:103310006B5402B0BDE8F087EA5C51460092002091
:103320004A4600F041FB013F0520FDF749FD17F03B
:10333000FF07CED151460C4A384600F035FB4046D7
:10334000637C03EB8301EB5C194406EB411102B093
:10335000BDE8F04703F057BBE42E0820382F0820C3
:10336000441809000000FC1F7518090000800B407C
:1033700000400B405F180900014803F0FFBE00BF8A
:10338000082F0820014803F0EBBE00BF082F0820DB
:103390002DE9F041044638211A4803F0DFFEFFF71B
:1033A000F1FF2B2003F0E8FA22461749174803F0F3
:1033B000DBFB20B1164A0121002000F0F5FA0325BD
:1033C0004FF0FF31114803F003FB104803F0BBFB43
:1033D000A84600260F4C0D4F2046FFF74FFEEB008E
:1033E000093B256084F80480E3716671E66021463C
:1033F0003846013503F013FB082D04F12004EBD10E
:10340000BDE8F081082F082000BD010500400B40F9
:10341000FD170900382F0820014803F0A1BE00BFA6
:10342000302F08202DE9F041044636211A4803F0D8
:1034300095FEFFF7F1FF2C2003F09EFA2246174974
:10344000174803F091FB20B1164A0121002000F03B
:10345000ABFA03254FF0FF31114803F0B9FA1048D9
:1034600003F071FBA84600260F4C0D4F2046FFF7D6
:1034700005FEEB00093B256084F80480E37166716A
:10348000E66021463846013503F0C9FA082D04F1FB
:103490002004EBD1BDE8F081302F082000BD0105EC
:1034A00000800B401D180900D82F08200D4938B5A1
:1034B0000846FFF7E3FD002301250B4C0B60CB60B2
:1034C0000A4B20460B610D7103F0A9FA29462046EC
:1034D00003F07CFA4FF40062054B5A60F02283F847
:1034E0002B2338BDE82E082000400B400000FC1FB5
:1034F00000E100E00D4938B50846FFF7BFFD0023A5
:1035000001250B4C0B60CB600A4B20460B610D7103
:1035100003F085FA2946204603F058FA4FF480520A
:10352000054B5A60F02283F82C2338BD102F082059
:1035300000800B400000FC1F00E100E007B5074BD6
:103540000122009342F2107100230548FEF7C8F8EB
:10355000044B186003B05DF804FB00BF993008000D
:103560003D180900803008200023011D02481A463A
:103570000068FEF717BC00BF783108207FB5142023
:10358000FDF71EFC0F4D104C4FF0FF3201A92868CB
:10359000FEF790FD48B19DF81530012B05D801A824
:1035A000FFF764FE1420FDF70BFC0020FDF754FD2F
:1035B0006328E9D82346054A0121002000F0F4F9E8
:1035C000E2E700BF78310820AF180900D7180900DA
:1035D00078220D4B10B502FB0032002352F8234035
:1035E000980044B1A4EB010CDCF1000040EB0C00AE
:1035F0001D2B03D110BD1150012010BD8C4203F1D1
:103600000103EBD1F8E700BF84300820F7B51A4E6C
:10361000074634786CBB01252346019400954FF48E
:10362000967216491648FDF78FF92246142110208C
:10363000FEF792FB134B144A18602946204600F00F
:10364000B3F9FFF77BFF3868FFF7A2FEB868FFF712
:10365000E9FEFFF72BFFFFF74DFF0C490220357005
:1036600000F040F80320094903B0BDE8F04000F045
:1036700039B803B0F0BD00BF74310820BE1809008E
:103680007D35080078310820C71809006935080021
:10369000022310B58AB00AAC04F8283D0146142272
:1036A00001A80AF095F9204600F03EF80AB010BDD6
:1036B00070B50E460446236823B92660012070BD0C
:1036C0002C46F8E7B342F9D06568002DF8D10821FF
:1036D000012009F07BFE08B14560056060600028AC
:1036E000E9D170BD024B03EBC000FFF7E1BF00BFA3
:1036F0004C3208200A460146084808B500680023F5
:10370000FEF71CFC48B9064B19784A1C1A7021B9FF
:10371000BDE80840034A00F047B908BDF03308206F
:103720007C3108200E1909000146034800230522B8
:103730000068FEF737BB00BFF033082010B54FF428
:1037400061628AB0044600F10801D1E9000100235A
:1037500009F0B4FC13430AD12822214668460AF036
:1037600037F9092368468DF80030FFF7DDFF0AB00E
:1037700010BD10B53C228AB0044600F10801D1E921
:103780000001002309F09AFC13430AD128222146A4
:1037900068460AF01DF9082368468DF80030FFF7E7
:1037A000C3FF0AB010BD000010B5134C8AB02378D7
:1037B0005A1C132B227017D9104B114A04210020D8
:1037C00000F0F2F807230F498DF80030D1E900230B
:1037D000CDE90223013243F100036846C1E9002329
:1037E000FFF7A2FF00232370062368468DF8003000
:1037F000FFF79AFF0AB010BDE5330820EB18090067
:10380000B9150900E833082038B503780546322B8E
:1038100012D80A4C04EBC30423683BB92978084A40
:1038200052F82130013342F8213038BD28469847FC
:103830006468002CF0D1F1E738BD00BF4C3208209D
:103840008031082000B50C4D0C4C8BB04FF4FA724F
:1038500069462868FEF72EFC10B16846FFF7D4FFD2
:103860000020FDF7F9FB6328F0D82346044A012124
:10387000002000F099F8E9E7F0330820F818090073
:10388000D7180900F7B5224E224B234A0121002008
:1038900000F08AF83478002C37D1224628213620CF
:1038A000FEF75AFA01251D4B4FF4167218601C4999
:1038B0002346019400951B48FDF746F84FF4076333
:1038C000194A009302214FF4CC73032000F06CF8E6
:1038D000164B2A463221009315482346FDF700FF78
:1038E0000746FDF75DF9234602462946009438460F
:1038F000FDF71CFF0F491048FFF7DAFE0F4910488B
:10390000FFF7D6FE03F0C4FF357003B0F0BD00BF73
:10391000E433082003190900B9150900F033082021
:1039200013190900453808001E190900A9370800B5
:103930005519090073370800843208203D37080004
:103940008C32082010B54FF40041074803F0E4F929
:10395000064C83B21A462046054903F0F1F9204689
:10396000BDE8104003F0F8B900093D00501A0E40C0
:1039700000600010014803F0EFB900BF501A0E407C
:103980004FF06043013810F8012F02B97047D3F8A7
:10399000801EC907F7D5D3F8001EC907F3D51968EB
:1039A0000029FCD01A70EEE70CB437B5184B04466A
:1039B0001B78CBB94FF06045D5F8003EC340DB071C
:1039C00012D5144B1B5C8B420ED307AB6421069AB5
:1039D000114801930BF066FD01231049A340A40098
:1039E0002C4411F8012F2AB9002003B0BDE8304063
:1039F00002B07047D5F8800EC007F2D5D5F8000E9A
:103A00000342EED020680028FCD02270E9E700BF16
:103A100062340820F8330820FE330820FD330820E4
:103A200070B5144686B004AA0121204601F0CAFFF1
:103A300005AA05460221204601F0C4FF0023049A8E
:103A40000646AB54059A3149835428460AF0C8F813
:103A5000002834D02E4928460AF0C2F888B32D49F0
:103A600028460AF0BDF870B32B4928460AF0B8F88A
:103A700058B32A4928460AF0B3F840B328492846E3
:103A80000AF0AEF8002814BF062404242549304665
:103A90000AF0A6F8E8B90120062C18BF224B234AE9
:103AA00018BF1855012102902B468DE850000020C8
:103AB000FFF77AFF00201E4B187006B070BD044659
:103AC000E4E70124E2E70224E0E70324DEE705243B
:103AD000DCE7184930460AF083F890B116493046C1
:103AE0000AF07EF80028D7D0144930460AF078F85A
:103AF00048B1134930460AF073F80028CBD10420AE
:103B0000CAE70220C8E70320C6E700BF671909001B
:103B1000893109006F190900741909007A1909001F
:103B20007E19090087190900F8330820A719090030
:103B3000623408208E1909009319090099190900A7
:103B4000A119090002220A4B10B501241A7004229F
:103B500008485C70DC709A701C715C7101F006FFA3
:103B60002146BDE81040044B044A0020FFF71CBF6B
:103B7000F8330820301A09005B190900B91509004B
:103B80004FF0FF304FF0FF31014BC3E900017047A8
:103B900078340820012303FA00F0054BD3E9002311
:103BA000024003EAE073134314BF01200020704772
:103BB00078340820012303FA00F0C0430449D1E916
:103BC0000023024003EAE073C1E90023704700BF0D
:103BD00078340820004870476834082030B50C4C11
:103BE0008BB022780546824203D11220FFF7D2FF24
:103BF00058B11220FFF7DEFF1223684625708DF8BA
:103C000000308DF80150FFF78FFD0BB030BD00BFC5
:103C10006834082010B58CB003F04EFF8DF80A0010
:103C200004F0C0F88DF80C0004F022F98DF80B00B8
:103C300004F0A6FAADF80E0003F0E4FE1C238DF8A4
:103C40000D000CA800F8283DFFF76EFD064B1C6820
:103C5000FCF7A6FF0A230246009301210023204619
:103C6000FDF764FD0CB010BD80340820FFF7D2BF13
:103C700073B51A4D1A4A01210020FFF795FE03F093
:103C8000C7FE04F031F804F0BDF804F0C1F904F007
:103C90007DFA2C7804BB134B012200936421234648
:103CA0001148FDF71DFD114E114B30600122FA2124
:103CB000009310482346FDF713FD0F4B366818603C
:103CC000FCF76EFF0A23024600930121234630468B
:103CD000FDF72CFD01232B7002B070BD7434082059
:103CE000401A0900813B0800551909006434082076
:103CF0006D3C08004F1A090080340820024B034A2B
:103D000001210020FFF750BE551A0900B91509001E
:103D100013B5214802F0BCFFC207044618D50023A2
:103D20000DF103011C48019302F0BBFF1B4801ABDE
:103D300001220DF10301806902F021F8019B3BB1E2
:103D40004FF08052164B1A60BFF34F8FBFF36F8F47
:103D5000A3071AD50022114802AB43F8042D0DF138
:103D600003010122C06902F0D7F880B1019B3BB189
:103D70004FF080520A4B1A60BFF34F8FBFF36F8F23
:103D80009DF80310044802F085FF02B010BD022127
:103D9000014802F07BFFF8E700080E40D4810720BD
:103DA00004ED00E00121014802F06EBF00080E4062
:103DB000BFF34F8F0449054BCA6802F4E062134316
:103DC000CB60BFF34F8FFEE700ED00E00400FA0583
:103DD0000221014802F058BF00080E407FB5274B72
:103DE00004460E4615460121254A0020FFF7DCFD5A
:103DF000244B1A782AB124490720FFF773FC04B03A
:103E000070BD0121A26919701AB9602001F0DAFEB3
:103E1000A061E2692AB901214FF4807001F0D2FE5D
:103E2000E06110220021684609F048FE174B452D3D
:103E30008DE848001DD04F2D1DD04FF40063029334
:103E40004FF48073124C0820236002F095FD694600
:103E5000104802F0F9FE0F4802F013FF0D4802F07F
:103E60000DFF01210B4802F00FFFF02384F8083307
:103E7000C5E70023E3E74FF40073E0E7671A0900A2
:103E8000B915090084340820FD3C080000BD010577
:103E900000E100E000080E40024B034A012100202F
:103EA000FFF782BD781A0900A81A090070B54448C6
:103EB0008CB002F04CFC434B04461B78002B35D0F1
:103EC000C60716D5002301A93D48029302F04EFC17
:103ED0003D4802AB012201A9806901F050FF029B1D
:103EE0003BB14FF08052394B1A60BFF34F8FBFF395
:103EF0006F8FA5071AD5002233480CAB43F8282D45
:103F000001A90122C06902F007F8002852D0029BE3
:103F10003BB14FF080522D4B1A60BFF34F8FBFF370
:103F20006F8F9DF80410264802F017FC284B1B7871
:103F3000002B3DD0A00405D50222264B20481A7044
:103F400002F007FC61040DD5224D1D482E7802F0C9
:103F5000F1FB214B43F826002B78194801332B70D5
:103F600002F0F7FBE2070CD51A4D2B78062B08D888
:103F70001949134801EB830102F0F8FB2B78013358
:103F80002B70230414D5002301930F230CAC04F8E9
:103F9000283D2022104903A809F01AFD204601A956
:103FA000FFF7A8FB02220B4B05481A7002F0D1FB69
:103FB0000CB070BD0221024802F0C7FBB6E700BF9B
:103FC0000080094086340820F481072004ED00E0D9
:103FD0008534082087340820B88107200121014852
:103FE00002F0B1BB008009400221014802F0ABBBE6
:103FF0000080094070B52A4B15461A7886B00446F1
:104000000E4612B9274A12782AB127490720FFF72E
:1040100069FB06B070BD0121826919701AB9602070
:1040200001F0D0FDA061E2692AB901214FF480704E
:1040300001F0C8FDE0611D4802F00CFB03211B48A4
:1040400002F083FBC023452D0096019304D04F2D31
:1040500023D04FF4006300E00023029300234FF4C9
:104060000035134C112003930493059302F084FC54
:10407000104A69460D4802F001FB0C48256002F029
:104080005FFB0A4802F059FB0121084802F05BFB84
:10409000F02384F811332560BBE74FF40073DCE7AD
:1040A0008634082085340820993E080000800940A5
:1040B00000E100E000BD0105F8B52C4B04461A787C
:1040C00012B92B4A16782EB1BDE8F84029490720CD
:1040D000FFF708BB0125284815701E7002F0BAFAD8
:1040E0000321254802F031FB112002F045FC224853
:1040F00002F01BFB2146214A1F4802F0DDFA04466C
:1041000030B1294630461E4ABDE8F840FFF74CBCA6
:104110004FF40037184802F008FB174802F0E5FAA0
:10412000154802F0E7FA2146134802F0E8FA214662
:10413000114802F0EBFA134E04210F4802F0EDFA99
:1041400029460D4802F0CBFA0B48376002F0F8FA26
:104150004EF20101084802F0F6FAF0230A4A86F806
:104160001133294637602046CEE700BF8634082049
:1041700085340820993E08000080094000BD0105F3
:104180008C1A090000E100E09A1A0900024B034A68
:1041900001210020FFF708BCC41A0900A81A090071
:1041A00013B5214802F0D3FAC207044618D50023FC
:1041B0000DF103011C48019302F0D8FA1B4801AB32
:1041C00001220DF10301806901F0D9FD019B3BB192
:1041D0004FF08052164B1A60BFF34F8FBFF36F8FB3
:1041E000A3071AD50022114802AB43F8042D0DF1A4
:1041F00003010122C06901F08FFE80B1019B3BB138
:104200004FF080520A4B1A60BFF34F8FBFF36F8F8E
:104210009DF80310044802F0A0FA02B010BD02217C
:10422000014802F092FAF8E700C009401482072022
:1042300004ED00E00121014802F085BA00C0094008
:104240000221014802F07FBA00C0094070B5294B35
:1042500015461A7886B004460E462AB1264907202C
:10426000FFF740FA06B070BD0121826919701AB9D2
:10427000602001F0A7FCA061E2692AB901214FF496
:10428000807001F09FFCE0611C4802F0E3F903211B
:104290001A4802F05AFAC023452D0096019323D004
:1042A0004F2D23D04FF40063029300234FF4802559
:1042B000134C122003930493059302F05DFB114A03
:1042C00069460E4802F0DAF90C48256002F038FA27
:1042D0000A4802F032FA0121084802F034FAF023C9
:1042E00084F812332560BDE70023DDE74FF4007347
:1042F000DAE700BF883408208D41080000C009407B
:1043000000E100E000BD0105024B034A012100204D
:10431000FFF74ABBD81A0900A81A090013B52148AB
:1043200002F015FAC207044618D500230DF1030167
:104330001C48019302F01AFA1B4801AB01220DF14F
:104340000301806901F01BFD019B3BB14FF08052DE
:10435000164B1A60BFF34F8FBFF36F8FA3071AD5A9
:104360000022114802AB43F8042D0DF10301012294
:10437000C06901F0D1FD80B1019B3BB14FF080528B
:104380000A4B1A60BFF34F8FBFF36F8F9DF8031076
:10439000044802F0E2F902B010BD0221014802F027
:1043A000D4F9F8E700000A403482072004ED00E069
:1043B0000121014802F0C7B900000A40022101486A
:1043C00002F0C1B900000A4070B5294B15461A78B1
:1043D00086B004460E462AB126490720FFF782F927
:1043E00006B070BD0121826919701AB9602001F010
:1043F000E9FBA061E2692AB901214FF4807001F064
:10440000E1FBE0611C4802F025F903211A4802F0A3
:104410009CF9C023452D0096019323D04F2D23D026
:104420004FF40063029300234FF40025134C132034
:1044300003930493059302F09FFA114A69460E48CC
:1044400002F01CF90C48256002F07AF90A4802F0E3
:1044500074F90121084802F076F9F02384F8133347
:104460002560BDE70023DDE74FF40073DAE700BF06
:10447000893408200943080000000A4000E100E0F8
:1044800000BD010513B50446C0698DF8071060B181
:104490000A2301220DF1070101F0E8FB636803B173
:1044A00098479DF8070002B010BD4FF0FF30FAE7C3
:1044B00010B50A230446C06901F0D8FB18B9054AB3
:1044C0000121FFF771FA636813B1BDE81040184786
:1044D00010BD00BFEC1A09000EB433B5114C0546EF
:1044E0002068C8B16421FDF78DFEA8B106AB059A1E
:1044F0004FF480710C4801930AF0D4FF0A4809F088
:104500000FFC094902462846FFF7D2FF0023206826
:104510001A461946FDF746FC002002B0BDE83040BF
:1045200003B070478C3508208A34082010B5044C3D
:1045300023681BB90120FDF7EFFC206010BD00BF10
:104540008C35082010B5037886B0072B0FD10B4CA3
:1045500000F01CF823685A1C0BD1206018238DF83A
:104560000030236868468DF8083007F061FF06B018
:1045700010BD9842F2D0FCF7A1F8EFE75482072073
:1045800001490720FFF7AEB845450800084BD86B36
:10459000DB6B80F020001A06064BC0F34010DB6B8B
:1045A00058BF40F002001B0258BF40F004007047A3
:1045B000000E0E4000100E40F0B585B00E460546C8
:1045C00005F04FF807460B4B1C78631F5C425C41BB
:1045D00004F0A2FA084B014653F8273002940193E5
:1045E0000023324600932846052307F0DEF905B084
:1045F000F0BD00BF9C350820C41C0900F0B585B093
:104600000E46054605F02DF807460B4B1C78231F78
:104610005C425C4104F080FA084B014653F82730B5
:10462000029401930023324600932846042307F0A6
:10463000BCF905B0F0BD00BF9C350820A81D0900DD
:10464000F0B585B00E46054605F00BF807460B4B56
:104650001C78E31E5C425C4104F05EFA084B0146A4
:1046600053F82730029401930023324600932846E2
:10467000032307F09AF905B0F0BD00BF9C35082070
:10468000F01B0900F0B585B00E46054604F0E9FFC1
:1046900007460B4B1C78A31E5C425C4104F03CFABD
:1046A000084B014653F82730029401930023324609
:1046B00000932846022307F078F905B0F0BD00BF4B
:1046C0009C3508205C1D0900F0B585B00E460546F6
:1046D00004F0C7FF07460B4B1C78631E5C425C412D
:1046E00004F01AFA084B014653F82730029401935C
:1046F0000023324600932846012307F056F905B0FF
:10470000F0BD00BF9C350820A41B0900F0B585B0A2
:104710000E46054604F0A5FF07460A4B1C7804F038
:10472000FBF9094BB4FA84F453F827306409019378
:1047300000230146029400933246284607F035F9DB
:1047400005B0F0BD9C3508200C1B090073B504466C
:1047500004F087FF064604F0E9F9084B054618689F
:1047600006F060FD064B024653F8263029460093BA
:104770002046812307F01AF802B070BD9835082052
:10478000101D090073B5044604F06BFF064604F0E3
:10479000CDF9084B0546186806F044FD064B024665
:1047A00053F82630294600932046802306F0FEFF6A
:1047B00002B070BD94350820A8200900F0B585B07E
:1047C0000F46064604F04DFF04460E4B1A780E4B7A
:1047D0001B789A4216BF0D4B0D4D53F8205004F034
:1047E0009BF90C4B032253F824300146029300231B
:1047F00003958DE80C00304682233A4607F018F8FE
:1048000005B0F0BD9C35082091350820F41D090045
:104810003C1C0900581B0900F0B5204C85B02378DA
:104820001F4A06460F4600200121FFF7BDF82578F4
:1048300004F017FF0446052D25D8DFE805F02D0309
:104840001C201E22174B53F8244004F00AFF054693
:1048500004F062F9144B032253F825300146029309
:10486000002303948DE80C00304681233A4606F07D
:10487000DFFF05B0F0BD0D4BE5E70D4BE3E70D4B5A
:10488000E1E70D4BDFE701210C4A0020FFF78CF830
:104890000021012003F0D4FD094BD4E79C3508200A
:1048A0009C1C0900A41B0900101D09005C1D0900C7
:1048B000A81D0900F01B0900C41C0900A51C090063
:1048C0000C1B090010B5144610B909B9012A22D0F1
:1048D000812C07D0822C0ED0134B186806F0BCFC3C
:1048E000802004E0114B186806F0B6FC8120BDE87A
:1048F000104006F0E1BB0E4B19780E4B1B788B4233
:10490000F4D0012003F09CFD4FF47A70FCF758FAC4
:1049100003F0DCF9EAE7802006F0CEFBBDE81040AA
:10492000014B186806F098BC94350820983508208B
:104930009C35082091350820F7B503782A2B25D11E
:104940004778012F22D18578C678047906F0E4FBF8
:10495000034668B9802C0BD1194A3946FFF724F871
:1049600022463146284603B0BDE8F040FFF7AABF13
:104970001A060BD5802BF3D0812B09D0002101948E
:1049800000962B460F4A0846FFF70EF803B0F0BD1D
:1049900023460D4A01210020FFF706F80B4B0C4A75
:1049A0001C70012123460020FEF7FEFF06F0A2FB4B
:1049B000084B186803B0BDE8F04006F04DBC00BFDE
:1049C0005A1C0900751C09006C1C09009C35082044
:1049D0009C1C090094350820F8B503781D2B39D1AB
:1049E0004678012E36D1304603F024FD1A4C1B4D7B
:1049F0000346207028701A4807785FBB0670052BA5
:104A00001AD8DFE803F0250308130C1500F0C8FAE4
:104A100005F05AFC06E0002000F09EF9F8E70020BF
:104A200000F086FCBDE8F84005F040BC0120F7E747
:104A3000BDE8F84000F0ECBE0A4A01210020FEF774
:104A4000B3FF0021012003F0FBFC00232B70237037
:104A50000120E1E7F8BD00BF913508209C35082012
:104A6000903508203E1C09000920704710B5044607
:104A7000114A002106F09CFB2046104A012106F055
:104A800097FB20460E4A022106F092FB20460D4A73
:104A9000032106F08DFB20460B4A042106F088FB1B
:104AA00020460A4A052106F083FB2046BDE8104057
:104AB000074A062106F07CBB4D4708000D47080059
:104AC000C94608008546080041460800FD45080023
:104AD000B945080010B50446074A002106F068FBF6
:104AE0002046064A012106F063FB2046BDE810403F
:104AF000034A022106F05CBB8547080019480800FC
:104B0000BD47080008B5002000F012FF06F088F944
:104B100006F078F90A491D20FEF7E4FD09492A202C
:104B2000FEF7E0FD06F01AFB074B1860FFF7D2FF17
:104B300006F014FB054B1860BDE80840FFF796BF70
:104B4000D9490800394908009435082098350820CB
:104B50000378262B02BF4278014B1A70704700BFC2
:104B6000A435082070470000064B187838B1064B72
:104B7000187820B1054B1878003018BF0120FFF7D6
:104B80002DB800BF598207205A820720588207207B
:104B90000378002B49D1437D002B46D14268234B3B
:104BA0009A4242D1037B427B214902EB032292B21B
:104BB000B2F5004F1F4B06D101221A700A70032173
:104BC000187803F0C5BBB2F5804F03D103221A70E9
:104BD0000122F3E7B2F5005F01D10B22F7E7B2F54E
:104BE000805F01D10522F2E7B2F5006F01D1072203
:104BF000EDE7402A01D10922E9E7B2F5007F06D1AD
:104C00000D4A1278052A0CBF11221522DFE7B2F5F2
:104C1000807F01D11322DAE70A7822B11A780132B3
:104C20001A700022CAE71A70C9E7704700402806C8
:104C3000A53508209D350820A435082038B5027810
:104C40000346CAB9407DB8B959680C4A914213D19C
:104C500001211A7B5C7B0A4D04EB02243F2CC8BF68
:104C6000084602F0E3FE2B689C4205D01920604301
:104C7000800803F0BBFA2C6038BD00BF0040390447
:104C8000A03508200346407D48B95968044A91423E
:104C900005D15B7B9B0658BF012003F0C1B870476C
:104CA000004021020346407D48B95968044A9142B8
:104CB00005D1DB7C5B0758BF012003F0C3B9704707
:104CC0000140210410B40378A3B9447D94B942682B
:104CD000094B9A420ED10121837B084A13F040030D
:104CE000074818BF147010BC12BF01700370117018
:104CF000FFF73ABF10BC70470040210658820720DA
:104D00009E3508200378132B0CD183781BB1012B1F
:104D100005D0FFF729BF4278034B1A70F9E74278B4
:104D2000024BFAE7704700BF598207205A820720DA
:104D300038B50378072B0AD1054B1B783BB100240B
:104D4000044D28191434FEF7A3FC8C2CF9D138BD7E
:104D50009E350820042109001FB503460446284A51
:104D600001210020FEF720FE10220021684608F0F5
:104D7000A5FE322368460093FEF748FCFEF7FCFAD6
:104D800020490020FEF724FC1F490020FEF720FCEC
:104D90001E490020FEF71CFC1D490020FEF718FCF0
:104DA0001C490020FEF714FC1B490020FEF710FCF4
:104DB0001A491320FEF796FC1CB119490720FEF78B
:104DC00091FC18490020FEF78DFC17490020FEF7E2
:104DD00089FC16490020FEF785FC15490020FEF7E6
:104DE00081FC14490020FEF77DFC13492620FEF7C4
:104DF00079FC12492B20FEF775FC04B010BD00BFF2
:104E0000F4200900004021060040090E0140210461
:104E1000004021020040390400402806054D0800EA
:104E2000314D0800C54C0800A54C0800854C080011
:104E30003D4C0800914B0800514B0800654B0800A1
:104E40000378002B44D1437D002B41D14268214B94
:104E50009A423DD1037B427B1F4902EB032292B26F
:104E6000B2F5004F1D4B06D101221A700A700321C2
:104E7000187803F06DBAB2F5804F03D103221A708F
:104E80000122F3E7B2F5005F01D10B22F7E7B2F59B
:104E9000805F01D10522F2E7B2F5006F01D1072250
:104EA000EDE7402A01D11522E9E7B2F5007F01D1F3
:104EB0001122E4E7B2F5807F01D11322DFE70A78FF
:104EC00022B11A7801321A700022CFE71A70CEE7A9
:104ED000704700BF00402806AC350820A6350820E2
:104EE00038B502780346B2B9407DA0B959680A4A7C
:104EF000914210D1642401219B7B084D5C433F2CDF
:104F0000C8BF084602F092FD2B689C4203D02046A1
:104F100003F06CF92C6038BD0302F00CA8350820B2
:104F20000346407D50B95968054A914206D193F92C
:104F30000C30002BA8BF012002F072BF704700BFE9
:104F400021C3FF180346407D48B95968044A91427D
:104F500005D15B7B9B0758BF012003F073B87047F6
:104F600021C3FF180378132B14D182780A4B52B156
:104F7000012A0BD0187820B1084B1878003018BFE0
:104F80000120FEF72BBE42781A70F3E74178034AFE
:104F90001170EFE7704700BF5B8207205C8207203B
:104FA0001FB51C4A01210020FEF7FEFC1022002143
:104FB000684608F083FD4FF4FA7368460093FEF7E5
:104FC00025FBFEF7D9F914490020FEF701FB134930
:104FD0000020FEF7FDFA12490020FEF7F9FA114908
:104FE0000020FEF7F5FA10491320FEF77BFB0F496E
:104FF0000020FEF777FB0E490020FEF773FB0D49FA
:105000000020FEF76FFB0C490020FEF76BFB05B09C
:105010005DF804FB902109000040280600A0180A52
:1050200021C3FF180302F00C654F0800454F08002C
:10503000214F0800E14E0800414E080010B50378EA
:10504000002B57D1437D002B40F090804268484BA5
:105050009A4240F08B80837B427B1B0203EB02432E
:10506000C27B444C1344B3F5807F02D101232370EB
:1050700011E0B3F5806F05D10323012223703E4B6D
:105080001A700AE0B3F5805F01D10B23F5E7012B1D
:105090000DD105222270384A13702278374B032134
:1050A000BDE810401A70354B187803F051B9042B45
:1050B00001D10723E1E7102B01D10923DDE7B3F587
:1050C000802F0FD12E4A01210020FEF76DFC2D4BC1
:1050D0001B78052BE1D12C4B1B78012B0CBF112326
:1050E0001323CAE7B3F5801F234B36D11522227054
:1050F0000122C5E70F2B39D10379002B36D1037A72
:10510000552B33D1037B0C2B30D10269037F194C13
:1051100043EA02634269120402F47F021343826984
:10512000120292B21343194A93429FD0B3F1022F55
:10513000A2D0174A9342A8D0164A934201D1052320
:105140009BE7154A9342B4D0B3F5813FB5D0134ADB
:105150009342B7D0124A9342C6E71A7822B1227816
:105160000132227000228BE7227096E710BD00BF4B
:1051700021FFA718AE350820B6350820AD35082028
:10518000FE210900B5350820B435082000020001D1
:1051900000020004000200080002001000020040AB
:1051A0000002020003782B2B0BD14378054AC3F38E
:1051B00003031370012103F00F03034A0020FEF7DD
:1051C000F3BB7047B4350820D12109000378262BA2
:1051D00007D14378034A012113700020024AFEF7E9
:1051E000E3BB7047B5350820E821090070B50378A6
:1051F0000446002B33D1407D002830D16268184B23
:105200009A4213D10121237B657B164E05EB0325C2
:105210003F2DC8BF084602F009FC33689D4205D007
:1052200019206843800802F0E1FF356062680E4B88
:105230009A4214D10121237B647B0A4D04EB0324A1
:105240003F2CCCBF0846002002F0F0FB2B689C42AC
:1052500005D019206043800802F0C8FF2C6070BDA3
:1052600000403904B035082000A0280A10B50446D3
:10527000407DC0B962680C4B9A4207D1637B03F052
:105280006803682B18BF012002F0CAFD6268074B53
:105290009A4208D1637BBDE810409B064CBF0020BA
:1052A000012002F0BDBD10BD0040210200A0180A7F
:1052B00010B50446407DB8B962680C4B9A4206D1DD
:1052C00094F90C30002BA8BF012002F0BBFE6268ED
:1052D000074B9A4208D1E37CBDE810405B074CBF06
:1052E0000020012002F0AEBE10BD00BFC940310653
:1052F00001A0180A0378132B14D182780A4B52B1FB
:10530000012A0BD0187820B1084B1878003018BF4C
:105310000120FEF763BC42781A70F3E74178034A34
:105320001170EFE7704700BF5D8207205E820720A3
:105330001FB5044610220021684608F0BFFB002C70
:105340004FD1354A01212046FEF72EFB3349204636
:10535000FEF73EF932492046FEF73AF93149204638
:10536000FEF736F930492046FEF732F92F4920463C
:10537000FEF72EF9322300932D492620FEF7B2F9CD
:105380002C492B20FEF7AEF94FF49640FEF794FE21
:105390006846FEF73BF928490020FEF7A3F92749A4
:1053A0000020FEF79FF926490020FEF79BF92549CA
:1053B0000020FEF797F924490020FEF793F92249CF
:1053C0000F20FEF78FF91C491320FEF78BF9002000
:1053D00001F070FF012001F075FFFDF7CDFF04B073
:1053E00010BD012CC8D1194A21460020FEF7DCFA75
:1053F00017490020FEF7ECF816490020FEF7E8F800
:1054000015490020FEF7E4F814490020FEF7E0F803
:105410004FF4FA73AFE700BFA22109000040210258
:10542000004039040040210600403106C9403106E1
:10543000CD510800A5510800F5520800B1520800EE
:105440006D520800ED5108003D500800B9210900D7
:1054500000A0180A01A0180A00A0280A21FFA71816
:10546000F0B50E468DB09DF84870039302928DE81A
:10547000410015461C46184A184B0497012100208C
:10548000FEF792FA164B0122079308238DF82C3071
:1054900000238DF820208DF82D308DF824308DF8E4
:1054A0002570ACB917238DF826300E238DF82930DE
:1054B0007D238DF82A307E23AD0007A88DF8276064
:1054C0008DF828508DF82B30FEF7E2F80DB0F0BDC6
:1054D000013C8DF82640E8E7CA22090008220900AD
:1054E00041E6FE1808B5084B187848B1074B187804
:1054F00030B1074B187818B1002004F0D1FE01201C
:10550000BDE80840FEF76ABB608207206182072081
:105510005F82072010B50378002B5CD1437D002B00
:1055200059D142682C4B9A4255D1837B427B1B0256
:1055300003EB0243C27B294C1344B3F5807F0BD1AC
:1055400001232370264A13702078264B0321BDE8DF
:105550001040187002F0FCBEB3F5806F05D1032334
:10556000012223701E4B1A70EEE7B3F5805F01D164
:105570000B23F5E7012B02D105222270E2E7042B71
:1055800001D10723ECE7102B01D10923E8E7B3F59C
:10559000802F0FD1144A01210020FEF705FA134B8A
:1055A0001B78052BD0D1124B1B78012B0CBF11237C
:1055B0001323D5E7B3F5801F094B03D115222270C1
:1055C0000122D0E71A7822B122780132227000221B
:1055D000C9E72270B8E710BD21FFA718B835082029
:1055E000C2350820B7350820FE210900C135082042
:1055F000C035082003782B2B0BD14378054AC3F321
:1056000003031370012103F00F03034A0020FEF788
:10561000CBB97047C03508205B2209000378262BE0
:1056200007D14378034A012113700020024AFEF794
:10563000BBB97047C13508207622090010B5037840
:1056400086B00B2B044611D114220B4901A808F097
:10565000BFF90A4B627801939DF80E3042B923F0EE
:10566000100301A88DF80E30FEF712F806B010BD39
:1056700043F01003F5E700BFC4350820410FFE18C2
:10568000037853B9437D43B94268044B9A4204D12D
:10569000011D1422024808F09BB97047170FFE182D
:1056A000C435082037B50378A3B9437D93B9426860
:1056B000094B9A420ED1847CC57CC37B027C2401B9
:1056C00044EA1514417B03F00F03807B9208009499
:1056D00006F078FB03B030BDEEE6FE180378132B1E
:1056E0000CD183781BB1012B05D0FFF7FBBE4278AC
:1056F000034B1A70F9E74278024BFAE7704700BF94
:105700006082072061820720427D62B94168064BB2
:10571000994208D1837B13F0400F08BF0122034B4D
:105720001A70FFF7DFBE704700A0180A5F820720DB
:1057300013B503780446202B15D10F4B0F4A0121D6
:105740000020FEF731F904F0A5FD70B10C4A0121EB
:105750000020FEF729F9A378E2782179E0886478BF
:105760000094FFF77DFE02B010BD0121054A02B092
:10577000BDE81040FEF718B926220900B915090046
:1057800090220900A322090038B502780346CAB95D
:10579000407DB8B959680C4A914213D101211A7B56
:1057A0005C7B0A4D04EB02243F2CC8BF084602F084
:1057B0003DF92B689C4205D019206043800802F017
:1057C00015FD2C6038BD00BF00A0280ABC3508209C
:1057D0000346407D48B95968044A914205D15B7B34
:1057E0009B0658BF012002F01BBB704700A0180A9F
:1057F0000346407D48B95968044A914205D1DB7C93
:105800005B0758BF012002F01DBC704701A0180AB9
:105810001FB510220021684608F050F9304A0121D6
:105820000020FEF7C1F82F490020FDF7D1FE2E49D8
:105830000020FDF7CDFE2D490020FDF7C9FE2C49C3
:105840000020FDF7C5FE2B490020FDF7C1FE2A49C7
:105850000020FDF7BDFE4FF4FA732849262000937F
:10586000FDF740FF26492B20FDF73CFF6846FDF77A
:10587000CDFE24490020FDF735FF23490020FDF728
:1058800031FF22490020FDF72DFF21490020FDF7BF
:1058900029FF20490020FDF725FF1F490020FDF7C3
:1058A00021FF1E490020FDF71DFF1D492020FDF7A7
:1058B00019FF1C490B20FDF715FF04F065FF04F0EC
:1058C0005BFF194806F064FA18491320FDF70AFF38
:1058D000002001F0EFFCFDF74FFD05B05DF804FB83
:1058E0004322090000A0180A01A0180A00A0280AF3
:1058F00021FFA718170FFE18EEE6FE181D56080028
:10590000F5550800F1570800D1570800095708005D
:10591000895708001555080081560800A55608004B
:10592000315708003D56080061540800DD56080054
:10593000014B1870704700BFD835082010B5094CCE
:105940000A4623680BB9084B236023681B68596813
:1059500008F014FA236858682060003018BF01204E
:1059600010BD00BFDC3508206882072038B5054629
:1059700048B94FF0A00383F31188BFF36F8FBFF3D3
:105980004F8F00BFFDE70820FCF750F8044648B9E8
:105990004FF0A00383F31188BFF36F8FBFF34F8FD6
:1059A00000BFFDE7FAF7CCFE00236360044B2560DF
:1059B0001A681C605460FAF7D3FE012038BD00BF9E
:1059C00064820720002330B513608B4217D0044651
:1059D00010F8015B9DB1202DF9D125782046202DAE
:1059E00004F10104F9D055B101339942EDD1411EC2
:1059F00011F8013F13F0DF0F136802D123B9002023
:105A000030BD01331360F3E730BD8268436800683E
:105A10001344181A824298BF801A7047F8B50D4691
:105A200004465521284617461E4608F047F8854289
:105A300009D04FF0A00383F31188BFF36F8FBFF33A
:105A40004F8F00BFFDE724220021204608F036F8E2
:105A50009DF81830A5612377A760E660F8BD2DE9B1
:105A6000F0410546884617464AB94FF0A00383F334
:105A70001188BFF36F8FBFF34F8F00BFFDE74468FE
:105A800083681E1B964228BF1646A219934209D26C
:105A90004FF0A00383F31188BFF36F8FBFF34F8FD5
:105AA00000BFFDE780693246204407F091FFB7420E
:105AB00012D9AB68BA1B9A4209D94FF0A00383F3FD
:105AC0001188BFF36F8FBFF34F8F00BFFDE708EB67
:105AD0000601A86907F07CFFAB683C449C4228BFE4
:105AE000E41A6C603846BDE8F08137B504460D46CF
:105AF0000192BBB1017FC9070AD49A4294BF0192B7
:105B00000193019A29462046FFF7A9FF034609E0C1
:105B1000069A934205D304220DEB0201FFF79FFF83
:105B2000EFE70023184603B030BD9A422DE9F84351
:105B3000164628BF1E46074689469046002E3ED090
:105B4000046883681D1BB54228BF3546AA4209D2A6
:105B50004FF0A00383F31188BFF36F8FBFF34F8F14
:105B600000BFFDE76219934209D24FF0A00383F30F
:105B70001188BFF36F8FBFF34F8F00BFFDE78169BF
:105B80002A462144484607F023FFAE4211D9B045CA
:105B900009D24FF0A00383F31188BFF36F8FBFF3D7
:105BA0004F8F00BFFDE7721BB96909EB050007F0D5
:105BB0000FFFBB6834449C4228BFE41A3C60304667
:105BC000BDE8F883012AF7B50C460BD1042814D898
:105BD0004FF0A00383F31188BFF36F8FBFF34F8F94
:105BE00000BFFDE7B0B94FF0A00383F31188BFF306
:105BF0006F8FBFF34F8F00BFFDE71546A0420BD25A
:105C00004FF0A00383F31188BFF36F8FBFF34F8F63
:105C100000BFFDE70025F1E7002C00F1010700F1CE
:105C2000250008BF0124FBF701FF064630B10095AF
:105C300023463A4600F12401FFF7F0FE304603B058
:105C4000F0BD48B94FF0A00383F31188BFF36F8F05
:105C5000BFF34F8F00BFFDE7826803684168D0182B
:105C60000138401A824298BF801A70472DE9F043EC
:105C700087B0044616460393894649B94FF0A003FE
:105C800083F31188BFF36F8FBFF34F8F00BFFDE722
:105C900048B94FF0A00383F31188BFF36F8FBFF3B0
:105CA0004F8F00BFFDE7037FDB070DD502F104082E
:105CB00042450AD34FF0A00383F31188BFF36F8FDF
:105CC000BFF34F8F00BFFDE79046039B2BBB2046E1
:105CD000FFF7B7FF0746CDF800803B4632464946FE
:105CE0002046FFF702FF054698B12046FFF78DFEDC
:105CF000E36898420DD3FAF74BFF23693BB10023C9
:105D000020691A461946FBF71DFB00232361FAF7A9
:105D1000DFFF284607B0BDE8F08304A8FBF72EF9A3
:105D2000FAF70EFD2046FFF78CFF8045074623D982
:105D30000020FBF70BFC65694DB14FF0A00383F326
:105D40001188BFF36F8FBFF34F8F00BFFDE7FBF7E5
:105D500093F96061FAF704FD2946039B2A46284619
:105D6000FBF7ACFA656103A904A8FBF731F9002839
:105D7000D6D0002FAFD1AAE7FAF7F2FCF9E72DE968
:105D8000F3410446154698460E4649B94FF0A00324
:105D900083F31188BFF36F8FBFF34F8F00BFFDE711
:105DA00048B94FF0A00383F31188BFF36F8FBFF39F
:105DB0004F8F00BFFDE7037FDB074CBF171D174662
:105DC000FFF73FFF2A460346009731462046FFF77C
:105DD0008CFE0546E8B12046FFF717FEE3689842BF
:105DE00017D3EFF311864FF0A00383F31188BFF3AD
:105DF0006F8FBFF34F8F23694BB1002320691A4681
:105E00001946CDF80080FBF713FB0023236186F3CE
:105E10001188284602B0BDE8F0812DE9F743044619
:105E200017469946884649B94FF0A00383F3118875
:105E3000BFF36F8FBFF34F8F00BFFDE748B94FF03F
:105E4000A00383F31188BFF36F8FBFF34F8F00BFA1
:105E5000FDE7037F13F0010F14BF04260026B9F1FC
:105E6000000F26D0FAF76CFC2046FFF7CEFD8642E5
:105E7000054611D30020FBF769FB23694BB14FF0B6
:105E8000A00383F31188BFF36F8FBFF34F8F00BF61
:105E9000FDE7FBF7F1F82061FAF762FCAE4212D39E
:105EA00000224B4611461046FBF708FA0023204615
:105EB0002361FFF7AAFDB042054604D80025284615
:105EC00003B0BDE8F0837EB12B46324601A92046DF
:105ED000D4F80090FFF729FE019BAD1B9F4236BF0F
:105EE00000271F46C4F800902B463A4641462046FC
:105EF000FFF71BFE05460028E0D0FAF749FE63696C
:105F00003BB1002360691A461946FBF71BFA0023D0
:105F10006361FAF7DDFED2E72DE9FF470446164636
:105F20009946884649B94FF0A00383F31188BFF31F
:105F30006F8FBFF34F8F00BFFDE748B94FF0A0034D
:105F400083F31188BFF36F8FBFF34F8F00BFFDE75F
:105F5000037F13F0010F14BF04270027FFF755FD3F
:105F60008742054604D30025284604B0BDE8F087E3
:105F70007FB103463A4603A92046D4F800A0FFF7B4
:105F8000D4FD039BED1B9E4236BF00261E46C4F87F
:105F900000A02B46324641462046FFF7C6FD054687
:105FA0000028E0D0EFF311864FF0A00383F31188AF
:105FB000BFF36F8FBFF34F8F63694BB100236069ED
:105FC0001A461946CDF80090FBF732FA00236361B8
:105FD00086F31188C8E7012300F01F02400900F58D
:105FE000001000F20770934040020A074CBF43665E
:105FF00003668A064CBF0365436511F0C00F14BFEA
:10600000036243620A064CBFC0F88430C0F8803097
:10601000026FC9074CBF134322EA030303677047AB
:106020004FF4003208B5074B00215A604FF480222C
:1060300011205A60FFF7CFFFBDE808400021122071
:10604000FFF7C9BF000E0E402DE9F74F4FF00108D2
:106050000226B54D0B2000F08FFC0C2000F08CFCCC
:106060006E614046C5F8A0600021C5F81080C5F8F3
:10607000A0806E60C5F80480FFF7ADFF00210846E0
:10608000FFF7A9FF4FF480424FF40043A74C0021D3
:1060900063612F20C4F8A0302261C4F8A02063609F
:1060A00062600192FFF797FF00212E20FFF793FF18
:1060B0004FF080732361C4F8A03023634FF4800352
:1060C0004FF4007723610821C4F8A03023634FF414
:1060D000807308466B61C5F8A0302F61C5F8A070C9
:1060E0006B606F60FFF777FF08210920FFF773FFF0
:1060F0004FF480636B61C5F8A0304FF400632B61EF
:10610000C5F8A0304FF480636B604FF400634FF428
:10611000805B6B6008210A20FFF75DFF08210B20E0
:10612000FFF759FFC5F814B00021C5F8A0B00C2046
:10613000C5F804B0FFF74FFF4FF4005308212B615F
:106140000D20C5F8A0306B60FFF745FF4FF400133A
:106150004FF4801A63610021C4F8A03035206360D9
:10616000FFF739FFC4F810A00821C4F8A0A034201C
:10617000C4F804A0FFF72FFFFFF752FF26610423A6
:10618000C4F8A06026630826C4F810804FF04009C8
:10619000C4F8A0804FF00071C4F830802661C4F8C4
:1061A000A06026632361C4F8A03023632023C4F8D1
:1061B00010900320C4F8A090C4F810B0C4F8A0B0A8
:1061C0002761C4F8A0702361C4F8A0302161C4F82D
:1061D000A010C4F83490C4F834B0676363630093CC
:1061E00061636E613146C5F8A060FFF7F4FE276178
:1061F000C4F8A07067604FF4803741462920FFF74C
:10620000EAFE6F613146C5F8A0701020FFF7E3FE8B
:1062100067613146C4F8A0703020FFF7DCFE4FF410
:10622000003104234FF400274FF080086161019A88
:10623000C4F8A0106B61C5F8A030009BC5F810A091
:106240003146C5F8A0A00520C5F834A02F61C5F8D7
:10625000A0706F632A61C5F8A0206A636B61C5F8FE
:10626000A030FFF7B8FEC5F814803146C5F8A0800D
:106270000720FFF7B0FE10204FF400014FF4800319
:10628000C5F81090C5F8A0902861C5F8A000296154
:10629000C5F8A0102B61C5F8A0304FF080732B61BA
:1062A000C5F8A0304FF4005327614FF48022C4F8A2
:1062B000A070C4F81080C4F8A0802361C4F8A03096
:1062C0004FF480732261C4F8A0202361C4F8A03089
:1062D0004FF480634FF400662361C4F8A0304FF0A0
:1062E00080632361C4F8A0302661C4F8A060C5F8BB
:1062F0003490686369634FF4800169634FF0807183
:1063000069634FF400516763C4F83480616362636A
:106310004FF4807262634FF480626263636366630A
:1063200003B0BDE8F08F00BF000E0E4000100E401D
:106330002DE9F74F01264FF00208B14D0B2000F078
:106340001BFB0C2000F018FBC5F814803046C5F884
:10635000A08000212E61C5F8A060C5F804806E60A1
:10636000FFF739FE00210846FFF735FE4FF480495C
:106370004FF40043A34C002163612F20C4F8A030E8
:10638000C4F81090C4F8A0906360C4F80490FFF7BC
:1063900022FE00212E20FFF71EFE4FF080734FF4E7
:1063A00080072361C4F8A03023634FF48073276112
:1063B0004FF4007AC4F8A07027636B61C5F8A03071
:1063C0004FF48063C5F810A0C5F8A0A0C5F830A0B0
:1063D0006B61C5F8A0304FF400634FF400322B61BD
:1063E0004FF4805BC5F8A0302B634FF40053C5F821
:1063F00014B00821C5F8A0B011202B61C5F8A03059
:106400002B636A61C5F8A0200192FFF7E4FD4FF409
:10641000802308216B611220C5F8A030FFF7DBFD57
:10642000C4F810800423C4F8A0804FF00051C4F8D1
:10643000308026614FF04008C4F8A060266308262B
:106440002661C4F8A06026632361C4F8A0302363EA
:1064500000932963C4F830B02961C5F8A010C4F8CE
:1064600010804FF00071C4F8A080C4F810B0C4F8D8
:10647000A0B04FF0200BC4F810A0C4F8A0A0C4F83E
:1064800010B0C4F8A0B02161C4F8A010C4F83480E2
:10649000C4F834A04FF4803AC4F834B010206163DB
:1064A0003146C5F814A0C5F8A0A0FFF794FDC4F8C4
:1064B00014A03146C4F8A0A03020FFF78CFD6E6117
:1064C0003146C5F8A0600320FFF785FD019A009BC7
:1064D00062614FF4002AC4F8A0206B61C5F8A030B7
:1064E0004FF480132B61C5F8A0306B63C5F810A082
:1064F000C5F8A0A0C5F834A0C5F81090C5F8A090C4
:10650000C5F834904FF08009C5F814B0C5F8A0B0B4
:106510004FF4000B31460520FFF75DFDC5F81490E0
:106520003146C5F8A0900720FFF755FDC4F814B018
:106530003146C4F8A0B03720FFF74DFD10224FF0D0
:106540008073C5F81080C5F8A0802A61C5F8A02026
:10655000C5F810B0C5F8A0B02F61C5F8A0702B61C8
:10656000C5F8A0304FF40053C4F810A0C4F8A0A0A0
:10657000C4F81090C4F8A0902361C4F8A0304FF480
:1065800080232361C4F8A0304FF480732361C4F8E2
:10659000A0304FF480634FF400612361C4F8A03051
:1065A0004FF080632361C4F8A0302161C4F8A010CB
:1065B000C5F834806A634FF08072C5F834B06F63F9
:1065C0006A634FF40052C4F834A0C4F83490626394
:1065D0004FF4802262634FF4807262634FF48062F2
:1065E000626363634FF4004361636B61C5F8A0307D
:1065F0004FF400136B61C5F8A03003B0BDE8F08F15
:10660000000E0E4000100E40B2EB011F30B52CBF43
:106610001024082461434B0803EBC202B2FBF1F2E1
:106620004FF6FE73D1084D1E9D4210D8082C08BFAE
:1066300043684FEA024202F4E02208BF43F4002319
:1066400042EA010208BF43600262002030BD01201F
:1066500030BD0000084BC0F8E430002343604362C3
:10666000836288230360242303604FF480730360F4
:106670004FF40023036070470041535570B5054641
:106680000C46FFF7E7FF00230A4E336009B90120EB
:1066900070BD0968FFF7B8FF0028F8D1A2686368E9
:1066A000134322691343E26813436A683360134358
:1066B0006B6070BDE035082010B5FFF7CBFF1023ED
:1066C000036040230360436823F00F0343F00B0390
:1066D0004360FFF799FF003018BF012010BD436DE4
:1066E00023F00303194341657047436D23F004030E
:1066F00043657047436D23F0080343657047436D5E
:1067000023F0100343EA011141657047436D23F004
:10671000200343EA411141657047436D013923F479
:106720007F4343EA012343657047436D23F480337D
:1067300043657047806DC0B2704740230360704767
:1067400010230360704781607047C16070474069E3
:1067500070474FF480730360704743699B0743BFE2
:10676000C1F30801C1610020012070474369DB07C4
:1067700041BF83690020C3F308030B6058BF0120A9
:10678000704700000E4B1A6B22F003021A6340F6AA
:106790000102996E09070BD51A6B22F070021043A3
:1067A00040F601021863996E090705D5002070476D
:1067B000013AEED101207047013AF4D1FAE700BF67
:1067C00000060E400F4B1A6B22F0030242F001024A
:1067D0001A6340F60102996E09070BD51A6B22F075
:1067E0007002104340F601021863996E090705D53F
:1067F00000207047013AEED101207047013AF4D1F0
:10680000FAE700BF00060E400F4B1A6B22F0700231
:10681000104340F601021863996E08070CD51A6BF5
:1068200022F0030242F002021A6340F60102996E5E
:10683000090705D500207047013AEDD101207047C6
:10684000013AF4D1FAE700BF00060E40054B586943
:1068500010F080001FBFA3F5A053103B986EC0F34B
:10686000C0107047101A0E40174B10B51A6A12F07C
:10687000010F1A6A1FD0002122F45C1222F0780264
:1068800042F45C1242F0080202431A629A6E9203CA
:10689000FCD51A6A22F09B7222F4803242F45C1218
:1068A0001A6239B11A6A22F45C1222F0010242F42F
:1068B0005C121A6210BD054C054914402143014386
:1068C00019620121E2E700BF00060E408600C8FF02
:1068D00009FF3700044A136A23F45C1323F078039A
:1068E00043F45C131362704700060E40034A136AB8
:1068F00023F0030343F45C131362704700060E4059
:106900000E4A136A28B10E4919400E4B0B4313620D
:10691000704723F45C1323F00303090243F45C1370
:1069200089B243F001030B431362936EDB07FCD57E
:10693000136A43F09B7343F48033E8E700060E408C
:10694000FCFFC8FE02003701024B986E00F4803055
:10695000704700BF00060E404FF00052014B9A6294
:10696000704700BF00060E40024B986E00F0020018
:10697000704700BF00060E402C2818D81F280D4A6B
:106980004FF0010308D8916903FA00F030EA0103DF
:1069900000D01061002070472038D2F8081103FAA7
:1069A00000F030EA0103F5D0C2F80001F2E701205F
:1069B000704700BF00060E40034BC0F312001A6F71
:1069C00010431867704700BF00060E4041607047D3
:1069D0008160704700697047436A23F0FF031943E1
:1069E0004162704700EB4111D1F8100270478B797A
:1069F0000A781B0403F4702343F4000300EB4210F5
:106A0000C0F81C3270478B790A781B0403F470239A
:106A100043F4800300EB4210C0F81C3270470A7840
:106A20000B7930B500EB421063B9C0F80032C0F802
:106A30000432C0F80832C0F81432C0F81832C0F876
:106A40001C3230BDD0F80022CC7922F4702242EA08
:106A50000442C0F800224D79CC680A6985B144F03F
:106A60000054C0F8044242F00052C0F80822D0F8A6
:106A7000002222F0E06242EA0363C0F8003230BD37
:106A8000C0F80442F1E78A6870B502F0C073B3F150
:106A9000C07F14BF002402240B78C2F303425B01C1
:106AA000C518D5F80C62042A8A7126F060464E613A
:106AB000D5F8146288BFD5F818228E6188BFCA61E4
:106AC000C218D2F8102203448A60D201D3F80822F7
:106AD000D3F8083248BF44F0040412F000521DBF3E
:106AE00023F060430B6101239B0C12BF4B710B61C0
:106AF0004A71FFF77CFF204670BD0A7830B552011D
:106B00008418D4F810328B601B021AD54D790B69AA
:106B10000DB143F00053C4F808328B698418C4F8EF
:106B200014328B791044042B88BFC9694FEA0343A0
:106B300003F4702388BFC4F81812C0F81C32002078
:106B400030BD012030BD30B50024054689B08DF838
:106B500004400094694628460134FFF760FF082C82
:106B6000F7D109B030BD0000F8B546F2A8130446CD
:106B700003FB02F00B18013BB3FBF0F3802B01D9B0
:106B80000020F8BD4FF4FA505043B0EB510FF7D846
:106B90004FF47A7308265A434FF0FF373346B1FB60
:106BA000F0F5802D06D800FB1515BD4202D23DB18F
:106BB0002F461E460133DBB21A2B1044EFD1334669
:106BC0005A43B1FBF2F1C9B20129D9D90620226892
:106BD000083B22F001022260194A013900FB03221E
:106BE00093785078013B01381B01000200F4E0600B
:106BF00003F070030343D07812790138013A00F0B2
:106C00000700120302F4405203430904134301F442
:106C1000FE01194320466161FFF795FF00200246FF
:106C2000236843F001032360064B920204D4984288
:106C3000A6D022690130F8E7C01A18BF0120F8BDBC
:106C400044230900A0860100AC2310B54A68036004
:106C50000B68B3FBF2F34FF6FE721B095C1E944205
:106C60000AD803628B68436040F20223C0F82031E7
:106C700050230360002010BD012010BD502303608D
:106C80007047AC230360704781607047C1607047F4
:106C90004069704743699B0746BFC16100200120DE
:106CA00070474369DB0743BF836900200B700120F5
:106CB0007047C36C0164704741647047C06C704793
:106CC000D3060ED59306C0F8B0104CBFC0F8D41050
:106CD000C0F8D01053064CBFC0F8C010C0F8C410A4
:106CE0007047C0F8B4107047FFF7EABF014B53F884
:106CF00020007047901A0E40014B43F82010704757
:106D0000901A0E40014B0360704700BF050000A5BC
:106D1000406800F4E0607047084BB3FBF1F181423A
:106D200008D8C1EB0133834204D3B0FBF1F0C0F3C8
:106D30000B0070474FF6FF70704700BF0020A1079F
:106D400010B5044CC2F30B0204EA034313430B4394
:106D5000436010BD0000FF0F024B984204BF024B7E
:106D600003607047501A0E40010000A54068C0F350
:106D70000B00C001B0FBF1F101484843704700BF70
:106D800040420F00134B07B5DA6AD00742BF01211A
:106D90009962196A910742BF022199621B6AD30561
:106DA00044BF4FF480720B4B01A944BF9A621B6A27
:106DB000094B1868FBF727F9019B3BB14FF0805254
:106DC000064B1A60BFF34F8FBFF36F8F03B05DF8B0
:106DD00004FB00BF00C00840E435082004ED00E0DB
:106DE000436801F00F0123F00F030B43436070472A
:106DF000436801F4E06123F4E0630B4343607047B0
:106E0000436843F48053436070470068C0F3032035
:106E10007047C068704708B5120202F470621143EF
:106E20000EF092F8002008BD0368090201F47061B9
:106E300023F4706319430EF087B8000038B5A1F150
:106E40000E03012B17D9EFF3108472B6BFF35F8FD7
:106E500000230A4DC9B22B70094B03EA022242F00B
:106E6000B44211430EF06CF83CB901232B70BFF310
:106E70005F8F62B638BD4FF0FF3038BD7482072097
:106E800000FFFF0030B50F4C256805F500248C424B
:106E900010D8C5F17F4404F578040C44491B0A4D11
:106EA000C4F30F24C9B200B1056002B1148003B16C
:106EB000198030BDA1F50024C4F30F24C9B2034DDD
:106EC000F1E700BFC48C0720000C0E40000A0E4002
:106ED00038B504460D460A4601460548FFF79BFFB4
:106EE0002A4621460348FFF796FF002038BD00BF21
:106EF000000A0E40000C0E402DE9F04F85B00193C2
:106F00000F460DF10A030146154603A802AAFFF732
:106F1000B9FF0398FFF779FF062181460398FFF731
:106F200083FFDFF8BCB0DFF8B4803DB90398494671
:106F3000FFF77AFF284605B0BDE8F08FBDF80A20BC
:106F4000254CC2F58073AB421E4628BF2E460398DF
:106F5000BDF80810A04215BFDBF8004001F5006441
:106F600004F50024240218BF04EB01249B1B2146D6
:106F70001A481FFA83FA06F02BFDBDF80A003246C4
:106F80003946404406F024FDBDF80A00524630441C
:106F90000119404406F01CFD04F58073A8EB0401C0
:106FA0000A5944F8042BA342FAD1019BBDF80820EA
:106FB0007BB103210398FFF741FF0028BBD1BDF847
:106FC000083037440133AD1BADF80830ADF80A0086
:106FD000ABE70121EEE700BF000A0E40E8350820CC
:106FE000C48C0720042370B586B002AD06460C465B
:106FF00000930F222B460E2109480DF09DFF68B922
:10700000042C28BF04240346A34201D106B070BD5E
:1070100055F8232046F823200133F5E71020F5E743
:10702000000A0E40EFF30583FCE700002B4A10B581
:10703000136B03F00303012B294B0FD004D3116A08
:10704000CC012CD5274946E02749496908064CBFA1
:107050004FF400414FF4FA4119600DE0116AC90183
:1070600001D52049F8E721491960116A01F0700142
:10707000102912D02029F4D0116B01F07001702971
:1070800005BF03211A68116BB2FBF1F21EBF1A682B
:10709000C1F30211CA401A6010BD1549DCE713495B
:1070A0001960116A01F07001102913D02029C9D08C
:1070B000116B01F00301022901BF946A1968C4F33E
:1070C0000A4404FB011109BF906A0A49C0B2B1FB2E
:1070D000F0F1C1E706491960EAE700BF00060E407B
:1070E00070820720001BB700101A0E4000093D00F7
:1070F00000127A00001C4E0E114B124A9842124B9D
:1071000003D800211160196070471049884202D8E5
:107110004FF48071F6E70E49884202D84FF40071AF
:10712000F0E70C49884202D84FF44071EAE70A4977
:10713000884294BF4FF480614FF4A061E2E700BF42
:10714000BFEA2101000A0E40000C0E407FF0FA0257
:10715000FF8FD003FFB3C4047F4A5D050160704711
:1071600001210268530903F5001303F2077302F0CB
:107170001F025B0201FA02F21A63704701210268E2
:10718000530903F5001303F2077302F01F025B02B9
:1071900001FA02F25A6370470D4808B5FFF7ACFFD9
:1071A0003E210020FFF7ACFBFFF7CEFB0028FBD011
:1071B000FFF7D2FB074A084B9A62FFF7D5FB00287E
:1071C000FBD00020FFF720FBBDE80840FFF72EBFF3
:1071D00000BD0105013F062000060E402DE9F047E5
:1071E0002F4A86B013782F4E013313702E4B1B7825
:1071F0008BB932798DF8003033786846934228BFD6
:1072000013468DF8083005F013F9012000F09AF8C4
:1072100006B0BDE8F08700244FF6FF7827464FF010
:10722000010ADFF88C9056F82450A300454505D09C
:10723000BDB10120013DF55000F084F80134022C6D
:10724000F1D1CFB9337832798DF80070934228BFED
:1072500013468DF80830FCF78DFB684605F0E8F81A
:10726000D6E723464A4601212846FCF79DFB0AFA49
:1072700004F31F432846DFE70C4A01210020FCF7F6
:1072800093FB002368468DF800308DF8083005F038
:10729000CFF84FF47A70F9F793FDF9F70FFAB7E7E3
:1072A000F1360820E8360820F2360820D8230900F5
:1072B000BC2309004FF4B472014B43F820207047FF
:1072C000E83608204FF6FF72014B43F82020704744
:1072D000E8360820014B1870704700BFF2360820CE
:1072E00073B5124B124A01210020FCF75DFB114BD4
:1072F0001C78C4B901251D700F4B2A46FA21009352
:107300000E482346FAF7ECF90646F9F749FC2346FE
:107310000246009429463046FAF708FA4FF6FF7203
:10732000074B1A605A6002B070BD00BFB02309005D
:10733000B9150900F0360820DD710800EC230900BA
:10734000E83608204FF00052044B1A61C3F8A02021
:1073500008B11A6370475A63704700BF000E0E40B1
:1073600000230246FF2180F84630831C42F8403F4C
:1073700003F8011B9342FBD19F22002302700222DB
:1073800080F84930427080F8473080F84C3080F8FF
:10739000483080F84A3080F84B3080F8441080F84C
:1073A00045307047F8B500230B4C0C4E0C4F22783B
:1073B0005D1CDBB29A4206D80A4A0121BDE8F840BA
:1073C0000020FCF7F1BAF35C3A4601210020FCF7FB
:1073D000EBFA2B46EBE700BF7C380820B4370820D7
:1073E000792409002C1A090008B5F9F7A9F9002336
:1073F000054A1370054A13700122054B1A70BDE847
:107400000840F9F7ADB900BF6037082004370820FD
:107410007582072010B5124C2378022B10D8114A20
:1074200001210020FCF7C0FA23780F4801332370B4
:107430000023BDE810401A4619460068FAF7B2BCAE
:107440000A4A01210020FCF7AFFA094B0021186815
:10745000FAF742FCFFF7A6FFBDE81040FFF7C4BFF4
:10746000603708207F240900F836082089240900A5
:107470005C3708200023F7B51A46224C22492078B1
:10748000DDB285423AD39F230B7002232270002085
:1074900003224B701D4B93F844501F6C8D70C6B285
:1074A000BB5D01309F2B12BF13468B54531CBA5D3A
:1074B00008BFDBB2C6B2CA54B54203F10102D2B270
:1074C000EDD29F2088540322DD1C0233DBB2CA5464
:1074D0000F4BEDB21E68F9F763FB002302460093E1
:1074E00001213046FAF722F92A460A4B0649186864
:1074F0002570C36803B0BDE8F0401847CA54013393
:10750000BEE700BF7C380820B43708206437082065
:1075100000370820F436082030B50D4B93F84400AE
:107520001A6C93F8451002445170002193F84420DE
:107530004C1CC9B28A4202F1010202D283F84420F3
:1075400030BD186C415C855C694081542146EDE793
:1075500064370820094A92F84430A3F13D01C9B2CA
:10756000C1290AD90133116CDBB282F84430C85406
:1075700092F84530013382F845307047643708206F
:107580002DE9F047AF4E88B030684E2243694FF482
:10759000E1319847AC4CAD4F00213868FAF732FE24
:1075A000002857D0AA4B1B78002B53D0FFF762FF5F
:1075B00030680A2301220DF10B018069FEF72DFCD2
:1075C000002800F0298194F846209DF80B30002A0D
:1075D00000F09B800022022B84F8462077D12046C1
:1075E000FFF7BEFE012384F8493094F84830002BA1
:1075F000DED00125964B1D7094F84730002B00F02B
:10760000AC800A230093002392481A4603210068A5
:10761000FAF78CF894F84B30002B00F09B80DFF8E1
:10762000648298F80030032B00F28D808A4A294644
:107630000020FCF7B9F9002338681A461946FAF712
:10764000B1FB98F800302B4488F800302046FFF753
:1076500087FEADE7DFF8308298F80030002BA7D026
:107660007E4B002203A91868FAF724FD00289FD05A
:10767000774B1B78002B9BD07948FFF771FE0120D8
:10768000FFF768FFFE20FFF765FF9DF80C00FFF78E
:1076900061FF9DF80C30022B11D1DFF8F0A10DF144
:1076A0000F050DF113096B78524601210020FCF7FC
:1076B0007BF915F8010FFFF74DFF4D45F3D1FFF7AB
:1076C0002BFFFFF7D7FE002388F8003070E7032B6D
:1076D00007D194F84930002B87D0012384F8483033
:1076E00083E7062B05D1012384F84A3084F847301C
:1076F0007BE7152B03D1012384F84B30F6E79F2B52
:1077000009D02046FFF72CFE6FE79F2B03D1012302
:1077100084F8463069E794F84420A2F13E01C9B2EA
:10772000C0297FF662AF94F8491029B194F845104A
:1077300011B984F8453058E7216C0132D2B284F88F
:1077400044208B5451E7474A29460020FCF72CF986
:10775000FFF728FEFFF748FE78E7216C94F845E034
:107760000B46754694F8440001F141081FFA80FC6D
:107770005A1A92B2944505D313F8012B55409845F7
:10778000EDB2F5D186453CD1002D3AD1364A03AB56
:1077900010685168082203C3306803A9C36898477A
:1077A00094F84830002B3FF451AF216C4B78022BFA
:1077B00045D18B78032B12D10C22033104A806F09B
:1077C00007F90223294A8DF81C3001219DF8183051
:1077D0000020FCF7E9F803A801F07CFE36E7244A14
:1077E00001210020FCF7E0F894F84530FF2B18BF8A
:1077F0001D4600230335DAB2954203F10103FADA9C
:1078000024E71C4A03AB10685168082203C33068A0
:1078100003A9C368984719E7174B1D786A1C1A70AB
:10782000002D7FF4B8AEF9F717FC63283FF6B3AE2E
:10783000124B134A01212846FCF7B6F8ABE6FE2BA3
:10784000B7D003E7F436082008370820F8360820B8
:107850005837082000370820132409005C37082017
:10786000643708201A240900FB2309003924090081
:1078700057240900F2230900FD36082004240900DA
:10788000D7180900043708207582072079240900D9
:1078900073B5194E347864BB0125184A184B194941
:1078A0001A6019482346019400954FF4C872F9F7FD
:1078B0004BF8224610212820FAF74EFA134B2A469D
:1078C0001860134BA021009312482346F9F708FFD4
:1078D000114B2146186003222846FAF73DFA0F4B58
:1078E0000F4918601C20357002B0BDE87040FBF7EE
:1078F000F9BE02B070BD00BFFC36082034820720FC
:10790000F43608206A240900817508005C370820D5
:10791000157408007324090000370820F836082081
:107920003979080001460348002302220068FAF76B
:1079300039BA00BF5C3708207FB503781C2B30D1E3
:107940000023019383782BB99DF8043043F00103A1
:107950008DF8043043792BB99DF8043043F00803C7
:107960008DF8043003792BB99DF8043043F00403FB
:107970008DF80430C3782BB99DF8043043F002032E
:107980008DF804300422C3880DEB020103A8ADF882
:10799000063006F01DF8022302A88DF80830FFF724
:1079A000C1FF07B05DF804FB38B583784478012B3C
:1079B00012D10F4A13700F4D204600F057F82A7865
:1079C000A24211D0FCF726F97CB90B4A0121002014
:1079D000FBF7EAFF2C7007E0002BECD1074B1C7083
:1079E000034B1B78002BE6D038BD054AEEE700BFFD
:1079F0007D38082076820720B2240900778207208C
:107A0000C1240900014B1878704700BF7782072016
:107A100008B500F035F810200349FBF763FEBDE818
:107A20000840002000F022B8A979080070B58AB09B
:107A300004460E46FCF7CEF843780546A3420FD025
:107A40001020FCF7B7F810236C7068468DF80030F2
:107A50008DF801408DF80260FBF766FE0AB070BD3C
:107A60001020FCF797F80028EAD1F7E7034B4FF016
:107A7000007208B91A6370475A63704700100E40CD
:107A80004FF00072024B1A61C3F8A0201A637047CE
:107A900000100E40034B4FF4805208B91A63704730
:107AA0005A63704700100E40024BD86BC0F3003091
:107AB000704700BF00100E40034BD86B80F480501D
:107AC000C0F30030704700BF00100E40084B30B5C7
:107AD000084CDB6B084D2178C3F30043287841EA5A
:107AE0000302024001EA030029702370104330BDF5
:107AF000000E0E407E38082080380820084B30B534
:107B0000084CDB6B084D2178C3F30043287841EA29
:107B10000302024001EA030029702370104330BDC4
:107B200000100E407F380820813808204FF4805222
:107B3000024B1A61C3F8A020704700BF00100E402E
:107B40000378142B04D14278074B12B901221A7022
:107B500070471A78002AFBD004490A7882F00102A3
:107B60000A700022F3E700BF7C8207208A380820D1
:107B700038B50378072B28D1144B154C1D78CDB997
:107B8000042000F057FC1E2804D90420294600F0E8
:107B900057FC28463C23584320600E4B1B78A3B16A
:107BA0000D4A1378591C022B11700ED9BDE83840CC
:107BB000F8F784BD2368002BEFD0013B074A012171
:107BC00000202360FBF7F0FEE7E738BD7B8207204B
:107BD00084380820893808208838082017250900AB
:107BE000F8B503780546122B1BD12E4E42782E4F46
:107BF0002E4C31683A70227031B1012A04D1FFF75E
:107C000053FF60B100233B70294B227819789142D1
:107C100003D0002027491A700870012302E0306069
:107C2000F2E700232A78062A01D0002B33D0214B1B
:107C30001D4A1978147861B1012C2DD04CB919481E
:107C4000016859B319490C78012C27D10021016032
:107C500019701949097839B101240020147021469E
:107C6000164A1870FBF7A0FE2046FFF713FF14B169
:107C70000E4B1B7813B90020FFF71CFB104D2A7820
:107C8000A24208D0FBF7C6FF54B90E4A01210020DA
:107C9000FBF78AFE2C70F8BD0024DAE70124D8E750
:107CA000094AF3E784380820788207207B8207207E
:107CB0007A8207208A38082089380820D1240900D0
:107CC00079820720FA240900082509000122014BC6
:107CD0001A70704789380820014B1878704700BF28
:107CE0007B820720FFF7E0BE10B50E4CFFF71EFFAA
:107CF0000120FFF7CFFE21461220FBF7F3FC2146BF
:107D00000620FBF7EFFC08491420FBF7EBFC0749C2
:107D10000620FBF7E7FCBDE8104005490720FBF70C
:107D2000E1BC00BFE17B0800417B0800537D0800F7
:107D3000717B0800132300B58BB08DF801006846F5
:107D40008DF800308DF80210FBF7EEFC0BB05DF8FB
:107D500004FB08B50378062B0BD1FFF7B7FE002113
:107D6000FFF7E8FFFFF7CAFEBDE808400121FFF773
:107D7000E1BF08BD142300B58BB08DF80100684643
:107D80008DF80030FBF7D0FC0BB05DF804FB000071
:107D9000034B402208B91A6370475A63704700BF0B
:107DA00000100E40034BD86B80F04000C0F38010F1
:107DB000704700BF00100E404022034B1A61C3F809
:107DC000A0201A63704700BF00100E4038B54478F9
:107DD000094D2046FFF7DCFF2A78A24208D0FBF7C6
:107DE00019FF34B9054A01210020FBF7DDFD2C7095
:107DF00038BD034AF7E700BF7D8207204025090010
:107E00004C25090008B5FFF7D7FF15200349FBF7FC
:107E100069FCBDE808400120FFF7BABFCD7D08002E
:107E200030B58BB00446FBF7D5FEC3780546A342B8
:107E30000DD01520FBF7BEFE1523EC7068468DF8BB
:107E400000308DF80140FBF76FFC0BB030BD152002
:107E5000FBF7A0FE0028ECD1F7E70000034B20223F
:107E600008B91A6370475A63704700BF00100E408C
:107E7000034BD86B80F02000C0F34010704700BF68
:107E800000100E40024BD86BC0F34010704700BF8B
:107E900000100E402022024B1A61C3F8A020704748
:107EA00000100E40032238B5184B44781C70184B54
:107EB000012C1A701DD1FFF7E5FF10B3154B1C788C
:107EC000B4FA84F46409FFF707FF012808BF01240E
:107ED000114D2046FFF7C2FF2A78A24208D0FBF7D7
:107EE00099FE84B90D4A01210020FBF75DFD2C703D
:107EF00038BDFFF7C7FF0028E5D1094B1B78002BE1
:107F0000E1D00124DFE7074AEDE700BF7F820720C9
:107F1000808207208B3808207E820720592509009F
:107F20008C3808206625090003781A2B06D143688F
:107F3000B3F5AF6F82BF0022014B1A70704700BFCC
:107F40008B38082010B52B4A04461378002B3BD100
:107F5000294901200B7029490B7003231370284B0A
:107F60001870284B1870FFF779FF2478072C3FD141
:107F7000204600F05FFA1E2803D90021204600F0B9
:107F80005FFA062000F056FA1E2803D900210620C9
:107F900000F056FA1B4B05201B78C3B900F04AFAD3
:107FA000012804D1072000F045FA134B1870134A3A
:107FB0001378EBB1013BDBB21370134A0121BDE82A
:107FC00010400020FBF7F0BC013B1370CDE700F040
:107FD00031FA012804D1062000F02CFA074B187062
:107FE000054A137823B1013BDBB21370074AE5E77A
:107FF00010BD00BF808207208B3808208C380820F5
:108000007E8207207F820720742509009E250900B3
:1080100008B5FFF73FFF08491620FBF763FB074948
:108020000720FBF75FFB1A200549FBF75BFBBDE868
:1080300008400120FFF712BFA57E0800457F080019
:10804000297F080030B58BB00446FBF7C3FD837869
:108050000546A3420DD01620FBF7ACFD1623AC70ED
:1080600068468DF800308DF80140FBF75DFB0BB0E2
:1080700030BD1620FBF78EFD0028ECD1F7E700009D
:1080800030B58BB04FF0A00383F31188BFF36F8F2F
:10809000BFF34F8F144A154814880378144921F808
:1080A00013400023138083F311880A2502780132DC
:1080B000D2B2B2FBF5F405FB14221C46027031F873
:1080C000132001330A2B1444F9D10A4D2B689C422A
:1080D00007D01B2368468DF800300194FBF724FB82
:1080E0002C600BB030BD00BF8E38082090380820BF
:1080F00098380820AC38082037B51E4D44682B68E6
:108100009C4234BF1B1BE31A132B94BF0023012393
:108110006BB1204604F04AFD0022174B04F0E6FE46
:10812000164ACDE9000101210020FBF73DFC632C3C
:1081300007D80021084600F0A7F800232B6003B001
:1081400030BD2B689C4234BF1B1BE31A312B94BFFC
:1081500000230123002BF2D032234EF66021B4FB22
:10816000F3F30120B1FBF3F100F08EF8FBF752FDC1
:108170002C60E4E79438082000005940C925090024
:10818000014B1868704700BF9438082073B5134D31
:108190002C7804BB00F09AF811491A20FBF7A2FAD8
:1081A000104B01220093642123460F48F9F798FAF7
:1081B0000646F8F7F5FC23460246009401213046B6
:1081C000F9F7B4FA0123214620462B7002B0BDE82E
:1081D000704000F059B802B070BD00BF8D38082063
:1081E000F980080081800800D825090030B58BB0DF
:1081F0000446FBF7EFFC83680546A3420FD91B1B1F
:10820000012B0ED91A20FBF7D5FC1A23AC60684667
:108210008DF800300194FBF787FA0BB030BDE31AFC
:10822000EEE71A20FBF7B6FC0028EBD1F5E70000DB
:1082300038B5124804F064FB03061DD5104D1149F2
:108240002C680E4864082A6804F034FB22460D4965
:108250000A4804F03DFB2A680A49084804F02AFB52
:1082600022460849054804F033FBBDE838400022A7
:108270000721024804F04FBB38BD00BF0040094051
:10828000DC380820B038082038B505460C4C80B1E1
:108290000C4B196023782BB907210B4804F026FBFF
:1082A000012323700022BDE838400721064804F06E
:1082B00029BB0721044804F01EFB257038BD00BF10
:1082C000D8380820DC380820004009401FB5242099
:1082D000FEF752FB0721194804F00DFB2420FEF79E
:1082E0004BFB47F2305300240193154B01A913486F
:1082F0000294039304F050FA20B1124A214620461A
:10830000FBF752FB0023104907240B818B720B23D0
:108310004B6064230B6132230848CB600C6004F08F
:108320005AFA2146054804F0E6FA1022074B5A6033
:10833000F02283F8242304B010BD00BF00400940A0
:1083400000BD0105DE250900B038082000E100E08D
:1083500070B58AB004460E46FBF73CFC037905462F
:10836000A34209D01720FBF725FC1B2C2C710AD83F
:1083700017238DF800300CE01720FBF70BFC0028CA
:10838000F0D10AB070BD182305228DF800300F4BD4
:108390001A70002368468DF802308DF801408DF880
:1083A0000360FBF7C1F99DF80130002BE9D1074CC0
:1083B0002378002BE5D0182368468DF80030FBF7B2
:1083C000B3F92378013B2370DBE700BFE0380820D6
:1083D0000A2310B588B000930023124C124822786B
:1083E0000068162A87BF1A4603214FF496720421AB
:1083F000F9F79CF917238DF8083023780121DA0862
:108400008DF8102000920020084AFBF7CDFA0023D7
:108410008DF81130064B02A8039304F009F808B058
:1084200010BD00BFFA380820FC380820FA250900E2
:10843000F9840800014B185C704700BFE23808203F
:108440007FB5094B1A5C8A420AD0195405238DF86E
:10845000080068468DF800308DF8091003F0E8FF39
:1084600007B05DF804FB00BFE23808207FB57F232A
:1084700006A800F8183D03F0DBFF07B05DF804FB29
:1084800037B5114A1378EBB9FF201049585401331E
:10849000182BFBD101240E4B14704FF4C8712246E7
:1084A00000930C480023F9F71BF90B4B05461860A5
:1084B000F8F776FB0A23024600932146002328465C
:1084C000F9F734F903B030BDE1380820E23808206C
:1084D000D183080073240900FC3808201D2300B54F
:1084E0008BB08DF8010068468DF80030FBF71CF961
:1084F0000BB05DF804FB00002DE9F84F8946924669
:108500000024C000DFF85C80C6B2144F08EB060BF5
:108510004C4504D10122124B1A70BDE8F88FA51901
:10852000172D18DC1AF80430012D0BF8043002D195
:108530002846FFF7D3FF172D3D7009D198F8173063
:108540001BB901212846FFF77BFF0220FFF7C6FF7A
:108550003B7801333B700134DAE700BFFA3808207A
:10856000FB380820E238082070B5417990F80841BE
:108570008D1DA54217D18378C2780B44134402792C
:10858000053113440622DBB2914206DADB430134A3
:10859000435580F80841012070BD865C01323344A8
:1085A000DBB292B2F0E7002070BD0023FF2180F81B
:1085B000083180F8093100F20712431E03F8011F49
:1085C0009342FBD1002380F80A3180F80B317047C9
:1085D0000122014B1A707047943A0820704700003E
:1085E0000378262B02BF4278014B1A70704700BFF8
:1085F0007039082010B503780146212B03D12822B9
:10860000054805F0E5F9BDE81040002303481A4687
:1086100019460068F9F7C6BB003908202839082038
:1086200002F0ACBF03780146312B05D1034800238B
:108630000A220068F9F7B6BB704700BF983A0820D5
:10864000037801462E2B05D1034800230A22006837
:10865000F9F7A8BB704700BF343908200378272BEF
:1086600006D1011D034800230A220068F9F79ABBCE
:10867000704700BF7439082003782C2B03D1417850
:108680000920FFF7DDBE704710B50378292B10D104
:108690000446084A54F8043F04210220FBF784F9F9
:1086A00005482146BDE8104000230A220068F9F77A
:1086B00079BB10BD802609004439082010B5037825
:1086C0000446322B0DD1074A01210020FBF76CF93B
:1086D0000548611C0023BDE810400A220068F9F734
:1086E00061BB10BD582609002C39082013B503784A
:1086F000172B47D10222411C684605F069F99DF805
:10870000002052B923490B783BB1DC0741BF581C0C
:1087100008708DF800308DF801209DF80020D007FA
:1087200018D51C4B1B78D90714D59A4212D00024B7
:108730000133194A012120468DF804308DF8054097
:10874000FBF732F9154823464FF0FF3201A90068C4
:10875000F9F728FB9DF80030A3B10E4C22789A421D
:1087600010D00F4A01210020FBF71EF90B48694683
:10877000002302220068F9F715FB014620B19DF89D
:108780000030237002B010BD064A0220FBF70CF93E
:10879000F8E700BF39390820EB260900903A082095
:1087A000F62609000427090070B5037888B02D2B40
:1087B00040F00381037CA04C012B00F00081022BD0
:1087C00040F03481011D0C229C4805F001F99B4AC0
:1087D0006078537801091D098D4203F00F0300F002
:1087E0000F0028BF0D46834228BF03469DF8151091
:1087F000207865F3071163F3030113788DF81510E2
:108800001D0901098D4203F00F0300F00F0028BF7E
:108810000D46834228BF03469DF81410E07865F3A7
:10882000071163F30301D3788DF814101D090109B2
:108830008D4203F00F0300F00F0028BF0D46834266
:1088400028BF03469DF81710A07865F3071163F35E
:10885000030193788DF817101D0901098D4203F06B
:108860000F0300F00F0028BF0D46834228BF0346C8
:108870009DF81610607965F3071163F303018DF815
:108880001610517983098D099D4238BF1D469DF808
:108890001930C0F3011665F38713C1F30115B54212
:1088A00038BF3546C0F3810665F30513C1F3810572
:1088B000B54201F0030100F0030038BF35468142A4
:1088C00038BF014665F3830361F301038DF8193066
:1088D000117920798D0983099D4238BF1D469DF885
:1088E0001830C0F3011665F38713C1F30115B542C3
:1088F00038BF3546C0F3810665F30513C1F3810522
:10890000B54201F0030100F0030038BF3546814253
:1089100038BF014665F3830361F301038DF8183016
:1089200000238DF81C3094F908301646002BB4BF94
:108930000123137A9DF81C20A8BFDB0963F3C7123B
:108940004FF6FF738DF81C20BDF814203C4D9A4261
:1089500018BF2B784FF001011CBF43F002032B70AE
:108960004FF6FF73BDF8162000209A4218BF2B78EF
:10897000BDF818201CBF43F001032B702B78029226
:108980009DF81C200192059A00922E4AFBF70CF8E4
:10899000327A9DF81C300192227A01210092002047
:1089A000294AFBF701F8287802F0DAFD274800236E
:1089B0000A2205A90068F9F7F5F908B070BD011D94
:1089C0000C22204605F004F8214B1B78002B3FF4C5
:1089D000FEAE6078217800F00F030009834228BFC3
:1089E00003460809984228BF184601F00F0181424A
:1089F00028BF0146E2781309994228BF194602F0C0
:108A00000F038B4228BF0B46A2781109994228BF59
:108A1000194602F00F038B4228BF0B460F2B16BFDF
:108A20000C4A0020D05C03F081FED0E60A4A012106
:108A30000020FAF7B9FFCAE6603908205439082047
:108A400030390820AC260900D22609006C390820EC
:108A500031390820162609009426090010B590F82F
:108A60000A31044690F808110BB1032903D8637941
:108A700007338B4204D1204600F05AFE012010BD7E
:108A80000021054A0846FAF78FFF204694F808119E
:108A900000F04EFE002010BD1C2709002DE9F0411A
:108AA0001C4C054620461E4688461746FFF77DFDAE
:108AB000C723C82294F808012354431CDBB2E254B4
:108AC0001222831CDBB2E554C31CDBB2E254002249
:108AD000031DDBB2E2540422431DDBB2E254851DC8
:108AE000C11D00F10802EDB2C9B2D2B204F805808E
:108AF0006754A65400F109020A3084F80801D2B282
:108B00002046A654FFF730FD2046BDE8F041FFF7B0
:108B1000A5BF00BF80390820034B1A781F2A84BFE5
:108B200001221A70187870478C3A082008B5FFF7B0
:108B3000F3FF0130C0B2202828BF0120014B18707C
:108B400008BD00BF8C3A08202DE980487A4B89B0D7
:108B50000093012200234FF4FA717848F8F7C0FD22
:108B6000774C784B20600122C8210093764800237F
:108B7000F8F7B6FD754D286001F0C4FE2668F8F7D9
:108B80000FF8002402462346012130460094F8F7EE
:108B9000CDFD2D68F8F704F823460246012128464A
:108BA0000094F8F7C3FD0221694A0846FAF7FCFE73
:108BB0006848FFF7FAFCFFF7B9FF674D01466548C3
:108BC00002F040FC2F46654EC8213068F9F71AFBC9
:108BD0006C78DFF8B881012C68D1614A032102204A
:108BE000FAF7E2FE98F80030022B51D802215D4AD4
:108BF0000846FAF7D9FE574890F808218378012AE9
:108C000098BFFF23BA789A4240F08280FFF726FF90
:108C100098F80030013388F80030002CD4D10020BF
:108C2000514C88F800006278002A40F0E582DFF8B5
:108C3000608105A9D8F80000F9F73CFA002800F097
:108C4000D5809DF8142023789A4200F0CE82FFF759
:108C50006DFF9DF814300446162B00F2BA82DFE84F
:108C600013F061009900E101E801F101F80101024E
:108C7000080211027B028402180253025A026302A4
:108C80006B0274028B0292029A02A202A902B10242
:108C9000364A00210220FAF787FE354A1378002B66
:108CA000BDD000231370334A1370B8E7022C31D1C2
:108CB000314A03212046FAF777FE98F80030022B5C
:108CC00009D821462D4A2046FAF76EFE2148FFF7C3
:108CD000C5FE01249CE72A4A00212046FAF764FEDB
:108CE000234B1B7813B10022224B1A70254B1B78A3
:108CF00023B9FAF73FFE0120FEF7DCFAFEF7F2FF98
:108D0000044628B9FAF736FE0120FEF7D3FA7FE7CA
:108D100000247DE7164B1B78002B80D0154A137872
:108D20000133C1E7184A01210020FAF73DFE002374
:108D30001A46002136E000BFD18508002627090029
:108D40004C390820DD8508002C2709004839082007
:108D500032270900803908200039082028390820E6
:108D600041270900482709005039082057270900E2
:108D700078390820403908206A270900742709003B
:108D800083270900703908209827090071390820C5
:108D9000903A0820C34A01210020FAF705FE01237A
:108DA000002210212046FFF779FE0446002840F0FB
:108DB00015829DF81430BC4A0146FAF7F5FD0123EF
:108DC000052205A9D8F80000F8F7ECFF9DF814304B
:108DD0000094B64A01210020FAF7E6FD012C00F0CC
:108DE0001582022C02D10A20F7F7EAFFB04B0022CD
:108DF00005A91868F9F75EF948B1FFF797FE05AACB
:108E00000146AC4802F0EAFB00287FF4DDAEAA4B35
:108E1000002205A91868F9F74DF948B1FFF786FE59
:108E200005AA0146A34802F01DFC00287FF4CCAE41
:108E30000022A24B05A918680592F9F73BF948B141
:108E4000059C3CB1FFF772FE01469A48A0470028F6
:108E50007FF4BAAEDFF8AC82994C98F80030002B62
:108E600000F0E581DFF864A2DAF80030002B00F0B2
:108E7000DE8102212368934A0846FAF795FD2068AF
:108E800002F0B0F9DFF840B28146002800F0C2815C
:108E90009BF800108748C847002840F0EE81002367
:108EA000894A88F800301370884A1360884B002282
:108EB00005A91868F9F7FEF8002867D0FFF736FE15
:108EC0007C4C039020469DF81680DDF818A09DF894
:108ED00015B0DDF81C90FFF768FBC722C82094F896
:108EE00008310399E2545A1CD2B2A0549A1CD2B24F
:108EF000A1544021DA1CD2B2A15400211A1DD2B2D1
:108F0000A1545A1DD2B2A1549A1DD2B204F802B093
:108F1000DA1DD2B2083304F8028084F808315046D2
:108F200004F0FEFEA0465246C0B2A2EB0A03DBB23A
:108F30008342C0F0A681002294F808314846E254EA
:108F4000013384F8083104F0EBFE4A46C0B2A2EBCC
:108F50000903DBB2984200F29E814FF0000894F8BA
:108F6000083154485A1C04F80380053B84F8082152
:108F70006371FFF7F9FA574A01214046FAF714FDE9
:108F80004C48FFF76BFD00287FF41EAE524B0022C9
:108F900005A91868F9F78EF800283BD04F4A01213F
:108FA0000020FAF701FDFFF7C1FD424C8246204642
:108FB0009DF814909DF81580FFF7F7FAC722C82195
:108FC00094F808312046E2545A1CD2B2A15424210C
:108FD0009A1CD2B204F802A0DA1CD2B2A154002129
:108FE0001A1DD2B2A15402215A1DD2B2A1549A1D07
:108FF000D2B204F80290DA1DD2B2083304F802802B
:1090000084F80831FFF7B0FA2046FFF727FD002863
:109010007FF4DAAD324C2378002B40F046810023F8
:109020002370D1E52F4A01210020FAF7BDFC00236F
:10903000B6E62D4A01210020FAF7B6FC01230022F2
:109040002021AFE6294A01210020FAF7ADFC0023D8
:10905000F5E7274A01210020FAF7A6FC01230022A8
:1090600004219FE6234A01210020FAF79DFC0023FA
:10907000F5E7214A01210020FAF796FC012300229E
:1090800008218FE61D4A01210020FAF78DFC0023FC
:10909000F5E71B4A01210020FAF786FC0123002294
:1090A00040217FE6A3270900F128090016290900BD
:1090B0006C39082080390820343908207439082098
:1090C0003C39082049290900403908207C3908200A
:1090D000983A08207B2909002C3908208C2909009E
:1090E000943A0820B0270900BB270900C8270900C7
:1090F000D3270900E1270900ED270900FB27090014
:109100000728090078390820704A01210020FAF761
:109110004BFC0023C3E76E4A01210020FAF744FC10
:109120000123002201213DE66A4A01210020FAF7CD
:109130003BFC00231A46F5E7674A01210020FAF7B5
:1091400033FC0123002202212CE6644A0121002085
:10915000FAF72AFC0023F5E7614A01210020FAF71B
:1091600023FC0123002280211CE65E4A012100200D
:10917000FAF71AFC0023F5E75B4A01210020FAF711
:1091800013FC0123D4E5594A01210020FAF70CFC15
:1091900000230122CDE5564A01210020FAF704FC04
:1091A00001230222C5E5534A01210020FAF7FCFB06
:1091B0000023F6E7504A01210020FAF7F5FB0123CE
:1091C0000422B6E54D4A01210020FAF7EDFB002309
:1091D000F6E74B4A03210020FAF7E6FB022205A935
:1091E000484804F0F5FB0124F0E563789DF815206C
:1091F000134463700224E9E5013AD2B26270237825
:1092000001210092404AFAF7CFFBECE53220F7F754
:10921000D7FDD9E4022123683C4A0846FAF7C4FB8B
:1092200088F800908BF80090CAF800903EE6384B22
:10923000002238491868F8F73DFF00283FF436AEA1
:109240002368002B3FF432AE0221334A0846FAF776
:10925000ABFB206801F086FF206801F0C3FF0346E6
:1092600000283FF423AE2D4A2D4811789847002856
:109270003FF415AE22682B4B1A60012388F80030AA
:10928000A2E498F8083112F8011B08F80310013322
:1092900088F8083149E698F8083112F8011B08F8F7
:1092A0000310013388F8083151E6FFF73FFC01460F
:1092B0001B4802F0C7F880460A20F7F781FD00231B
:1092C0002370B8F1000F7FF47FACA8E614280900E2
:1092D0001F2809002F2809003D2809004D280900F2
:1092E0005B2809006A2809007728090089280900F5
:1092F00099280900AB280900BB280900CA280900E1
:10930000D728090050390820292909005C290900BB
:10931000443908203C3908206B29090040390820CD
:10932000803908207C390820024B00211868F8F7A2
:10933000D3BC00BF4439082037B5424D2C78002CEF
:109340007ED1224602211020F8F706FD04213E4B73
:10935000224618600846F8F7FFFC04213B4B2246E2
:1093600018600846F8F7F8FC394B224618600C21C3
:109370000220F8F7F1FC374B224618600C2102203E
:10938000F8F7EAFC0221344B224618600846F8F749
:10939000E3FC324B2246186009210220F8F7DCFC7E
:1093A0002F4B4FF44872186002232E49009301940A
:1093B00023462D48F7F7C8FA00F01EFA2B4917206C
:1093C000FAF790F92A493220FAF78CF9294929202D
:1093D000FAF788F928492720FAF784F92749212044
:1093E000FAF780F926492620FAF77CF92549282042
:1093F000FAF778F924492D20FAF774F923492E2039
:10940000FAF770F922493120FAF76CF921492C203A
:10941000FAF768F902F07CF801200322214628704F
:10942000F8F79AFC4FF0FF311B4A1C4B1160147285
:1094300091804FF6FF721860194B19601C729A8068
:1094400003B030BD38390820903A0820443908204C
:10945000743908206C390820983A08202C390820E3
:1094600034390820AD290900498B0800ED86080031
:10947000BD860800898608005D860800F58508001D
:10948000E1850800BD940800A9870800418608000E
:1094900025860800798608006039082028390820C8
:1094A00054390820272300B58BB0019068468DF809
:1094B0000030FAF739F90BB05DF804FB0378282B7C
:1094C00005D14378182B02D10148FFF7EBBF704755
:1094D0002186080000B58BB001461422684604F0CE
:1094E00077FA2D2368468DF80030FAF71DF90BB096
:1094F0005DF804FB10B526248AB08DF804309DF881
:1095000030308DF802008DF805309DF83430684613
:109510008DF806309DF838308DF800408DF8073012
:109520009DF83C308DF801108DF803208DF808303F
:10953000FAF7FAF80AB010BD2B2300B58BB08DF8FE
:1095400000309DF801308DF8022060F3030361F3D1
:10955000871368468DF80130FAF7E6F80BB05DF82E
:1095600004FB2F2300B58BB08DF8010068468DF801
:109570000030FAF7D9F80BB05DF804FB282300B5EA
:109580008BB08DF8010068468DF80030FAF7CCF802
:109590000BB05DF804FB000003462A2000B58DB037
:1095A0008DF8080000208DE806008DF80B108DF86E
:1095B0000C200121064A8DF80A308DF80900FAF7CF
:1095C000F3F902A8FAF7B0F80DB05DF804FB00BF9C
:1095D00025260900034608462A2100B58DB08DF8DE
:1095E000081001218DE805008DF80B008DF80C2086
:1095F0000020064A8DF809108DF80A30FAF7D4F9E0
:1096000002A8FAF791F80DB05DF804FB37260900BF
:109610002A2200B58DB08DF80820022203468DF86D
:1096200009208DF80A008DF80B100091054A0121E0
:109630000020FAF7B9F902A8FAF776F80DB05DF84C
:1096400004FB00BF49260900252300B58BB0ADF807
:10965000020068468DF80030FAF766F80BB05DF846
:1096600004FB08B50920FEF7E5FE122804D90920FD
:109670000121FEF7E5FE012008BD0000034B1A782A
:109680001F2A84BF01221A7018787047B03C082046
:109690000023FF21074A82F8083182F80931D154AA
:1096A0000133B3F5847FFAD1002382F80A3182F8BE
:1096B0000B317047A43B0820074B587993F80821D9
:1096C0000730811A93F80A314842484113B1032AFE
:1096D00088BF1846704700BFA43B082038B5FFF785
:1096E000EBFFD8B1114B93F80A111A4611B193F858
:1096F0000B0138BD5879D1789B78441D0B44062165
:109700000344DBB2A1420ADDDB4310448179DBB2C2
:1097100099420CBF0120022082F80B0138BD555C34
:1097200001312B44DBB289B2ECE700BFA43B082037
:10973000F7B500264FF0D80E34464FF0AA0C284D4E
:10974000F7B2B94232D8F7F72BFA02210346254A7D
:109750000846FAF729F90026234FF3B29C4237D87E
:109760000221224A0846FAF71FF9214B22461868BF
:109770001B49C36898470023FF22EA540133FE2B9C
:10978000FBD11C4B1C68F7F70BFA00230246009331
:1097900001212046F7F7CAFF03B0F0BDD82A03D154
:1097A000DBB22A55EA540EE02A550DE0FD2CCAD84A
:1097B000825D631CC72AF1D1002FF5D0DBB205F81A
:1097C00004E005F803C01C460134E4B20136B7E7F3
:1097D0000221AB5D3A460846FAF7E6F80136BCE7E7
:1097E000A03A0820492A0900512A09002C1A090028
:1097F0009C3A0820A03B082013B50221134A0846D2
:10980000FAF7D2F8124A04210220FAF7CDF81148EB
:10981000114B4E2218604FF4E13143699847002400
:1098200002234FF448728DE818000C4923460C4877
:10983000F7F78AF80B4B22460093A02123460A48EB
:10984000F7F74EFF094B186002B010BD192A090046
:10985000302A0900D48107209C3A08203E2A0900BA
:10986000E99808008F98080073240900A03B08209D
:10987000212300B58BB08DF8010068468DF80030CB
:109880008DF80210F9F750FF0BB05DF804FB0021D2
:109890000220FFF7EDBF0B2300B58BB08DF8010060
:1098A00068468DF800308DF80210F9F73DFF0BB0D7
:1098B0005DF804FB2C2300B58BB08DF801006846E1
:1098C0008DF80030F9F730FF0BB05DF804FB222370
:1098D00000B58BB08DF8010068468DF80030F9F7BF
:1098E00023FF0BB05DF804FB02212DE9F043BB4AD6
:1098F00087B00846BA4DFAF757F8C820F7F760FA6C
:109900002E46FFF7C5FEB74C28680A2301220DF149
:1099100017018069FCF781FA002800F0A4809DF807
:109920001700C72801D1FFF7B3FE94F808312BB117
:109930006278CA2A23D00DD8C82A20D0E054013337
:1099400084F808312378C72B1EBF002384F8083120
:10995000237020E0F02A01D0FF2AEFD10122032B4F
:1099600084F80A2173D1E070A278E178D243D2B2B0
:1099700091420CBF0122022284F80B21DEE7002273
:1099800094F8091184F80A21002954D1D828D5D196
:10999000012384F80931FFF78FFE0028B4D0F7F7D0
:1099A000FFF802210346904A0846F9F7FDFF00231D
:1099B000DFF8508294F808215F1CDBB29A424AD843
:1099C00002218A4A0846F9F7EFFF94F80831012B83
:1099D00004D9A3781F2B01D8854A1370FFF76CFEBA
:1099E000002891D00520F7F7EBF994F80A71002FC1
:1099F00042D00120FDF75EFCF9F7BCFF94F8083176
:109A0000A778012B637898BFFF27FF2B2FD1FFF793
:109A100065FE01282BD1FFF73BFE39460020FFF7FA
:109A200027FF0A230093002372481A460321006887
:109A3000F7F77CFE68E7AA2804D0D82803D084F87A
:109A40000921A8E7C720002284F8092176E7022B24
:109A50007FF674AF88E70221E35C42460846F9F7D7
:109A6000A3FF3B46A6E70220F7F7AAF9B6E7FFF700
:109A70000FFE39460120D2E7FFF730FED6F800800E
:109A80000128D8F8109040F0BF80FFF7F7FD01469D
:109A9000FFF7F4FDC043C0B2FF23C722019000913D
:109AA00040465549C847F7F77BF80146FFF7E6FD02
:109AB0008046FFF7E3FDC043C0B20390FF23C720F9
:109AC0008DE809000B460221CDF808804B4A084674
:109AD000F9F76AFFE378FF2B0ED0C32B55D018D8C7
:109AE000B72B46D00BD8912B39D0B62B3DD0902B2D
:109AF00017D1A079FFF742FDFFF7CAFD04E7C02B9D
:109B00003BD0C12B3DD0B82B0BD1204602F046F8FC
:109B1000F2E7D02B49D018D8C52B3ED039D3C62B6D
:109B20003FD0374A00210220F9F73EFF0023DFF83B
:109B3000D48094F808215F1CDBB29A4245D82B4AA6
:109B400000210220F9F730FFD6E7E52B35D0E82BCE
:109B500037D0D52BE5D1A079FFF7B9FECCE73A464F
:109B60003946A079FFF718FDC6E7204601F0E8FF67
:109B7000C2E7204601F0F8FFBEE7204602F024F8D5
:109B8000BAE7204602F034F8B6E7204602F042F881
:109B9000B2E7204602F068F8AEE7204602F06CF823
:109BA000AAE7204602F098F8A6E7A379E07900EB4F
:109BB000032080B2FFF748FD9EE7204602F08EF8B2
:109BC0009AE7204602F0BCF896E7E35C42460021A3
:109BD0000220F9F7E9FE3B46ABE700BFDC290900AC
:109BE0009C3A0820A43B0820EE2909002C1A090001
:109BF000B03C0820A03B0820B9290900C22909006F
:109C0000FA290900512A0900FFF738FD0146FFF73C
:109C100035FDC043C0B2F023C722019000914046F9
:109C20000C49C847F6F7BCFF0146FFF727FD804601
:109C3000FFF724FDC043C722F023C0B28DE80C001B
:109C400003900B46CDF80880034A39460220F9F705
:109C5000ABFE51E7B9290900C229090010B520243B
:109C60008AB08DF80430BDF830308DF802006846B7
:109C70008DF800408DF801108DF80320ADF8063006
:109C8000F9F752FD0AB010BD0D4A0178136871B999
:109C9000022B01D8032111601268003318BF012381
:109CA000003218BF0122934208D001F0EDBA012919
:109CB000EED00729F0D10BB1591EECE7704700BF79
:109CC000C43C082001780D4A0F2913680ED1022BDD
:109CD00001D8032111601268003318BF012300323C
:109CE00018BF0122934207D001F0CEBA0729F2D162
:109CF000002BF0D0591EEDE7704700BFCC3C082088
:109D0000F0B585B006460F46FFF7ABFC044601F000
:109D100025FFD0B90E4B1B78ABB10E4B53F8245036
:109D2000FEF7FAFE0C4B012253F824300146029351
:109D3000002303958DE80C00304607233A4601F0D6
:109D400077FD05B0F0BD054BE8E70020F9E700BF5F
:109D5000C93C0820282C090004360900DC2B090026
:109D60007FB50D460446FFF77CFC0646FEF7D4FEA1
:109D7000084B03220393084B014653F82630204634
:109D8000029300238DE80C000F232A4601F050FDBA
:109D900004B070BD8C2B0900F42A0900F0B585B021
:109DA0000E460546FFF75DFC0746FFF75AFC0D4BD4
:109DB0001B68ABB10C4B53F82040FEF7ADFE0B4BCC
:109DC000012253F8273001460293002303948DE8C3
:109DD0000C0028460423324601F02AFD05B0F0BDF0
:109DE000034BE8E7CC3C0820FC3609002C2E090088
:109DF000102F0900F0B585B00E460546FFF731FC7F
:109E00000746FFF72EFC0D4B1B68ABB10C4B53F80C
:109E10002040FEF781FE0B4B012253F8273001460C
:109E20000293002303948DE80C0028460323324656
:109E300001F0FEFC05B0F0BD034BE8E7C43C082090
:109E4000FC360900A82A0900102F09007FB50D462D
:109E50000446FFF706FC0646FEF75EFE084B014689
:109E60000393084B2A4653F82630204602930023DA
:109E700001930123009301F0DBFC04B070BD00BF2F
:109E8000F81509006C3509007FB50D460446FFF74B
:109E9000E8FB0646FEF740FE084B03220393084BFF
:109EA000014653F826302046029300238DE80C002B
:109EB00080232A4601F0BCFC04B070BD8C2B090045
:109EC000503609007FB50D460446FFF7CAFB06462B
:109ED000FEF722FE084B03220393084B014653F87A
:109EE00026302046029300238DE80C0010232A46DA
:109EF00001F09EFC04B070BD8C2B09008482072009
:109F00007FB50D460446FFF7ACFB0646FEF704FEA0
:109F1000084B03220393084B014653F82630204692
:109F2000029300238DE80C0002232A4601F080FCF6
:109F300004B070BD8C2B090040300900F0B587B02B
:109F40000D460446FFF78DFB0D4B07461E78FEF7C6
:109F5000E3FD3B230593002304930A4B01461B7842
:109F60002A460393084B00960293084B204653F869
:109F700027300193062301F06DFD07B0F0BD00BF4F
:109F8000D13C0820D33C08208C2B0900782E0900F6
:109F9000F0B587B00D460446FFF763FB0D4B07464F
:109FA0001E78FEF7B9FD17230593002304930A4B8F
:109FB00001461B782A460393084B00960293084BF0
:109FC000204653F827300193052301F043FD07B0E5
:109FD000F0BD00BFD13C0820D23C08208C2B0900EA
:109FE000942D0900F0B587B00D460446FFF739FB04
:109FF0000D4B07461E78FEF78FFD0C2305930023BB
:10A0000004930A4B01461B782A460393084B00969B
:10A010000293084B204653F827300193032301F0A5
:10A0200019FD07B0F0BD00BFD13C0820D182072048
:10A030008C2B0900C42E09002DE9F04186B00E4694
:10A040000546FFF70EFB0F4B80461F780E4B1C7822
:10A05000FEF762FD802305930A2304930B4B3034F3
:10A0600002930B4BE4B253F828300146019303945A
:10A07000009702233246284601F0ECFC06B0BDE80A
:10A08000F08100BFD13C0820D28207208C2B090030
:10A09000B03609002DE9FF4106460F46FFF7E1FA09
:10A0A0000E4B80461D78FFF7DCFAADB10C4B53F830
:10A0B0002040FEF731FD0B4B014653F82830039545
:10A0C00001930023029400933A460123304601F0A5
:10A0D0000AFC04B0BDE8F081034BE8E7D13C08205E
:10A0E000F42F0900B83509005C2F090073B5044648
:10A0F000FFF7B7FA0646FEF719FD084B0546186844
:10A1000001F090F8064B024653F82630294600939A
:10A1100020460F2301F04AFB02B070BDB83C082076
:10A12000F42A090073B50446FFF79BFA0646FEF7CA
:10A13000FDFC084B0546186801F074F8064B024612
:10A1400053F82630294600932046022301F02EFBC7
:10A1500002B070BDBC3C08204030090073B5044615
:10A16000FFF77FFA0646FEF7E1FC084B0546186844
:10A1700001F058F8064B024653F826302946009362
:10A180002046002301F012FB02B070BDB43C082051
:10A1900084820720F0B585B00E460546FFF761FAC8
:10A1A0000746FFF75EFA04460220FEF743F901284E
:10A1B0000CBF0B4B0B4B53F82440FEF7ADFC0A4B86
:10A1C000012253F8273001460293002303948DE8BF
:10A1D0000C0028460223324601F02AFB05B0F0BDF0
:10A1E000A82F0900902B0900E02D09002DE9F0436C
:10A1F00003780A2B2FD1194A90F804801478184953
:10A200004445B0F806900B888C46964621D1B9EBB0
:10A21000030318BF0123134EC7783278124CBA4299
:10A2200018BF0123857822784178AA4218BF0123FC
:10A230000E4AACF8009010788EF80080884218BF63
:10A2400001233770257011702BB1BDE8F04301F088
:10A250001BB80123DFE7BDE8F08300BFD1820720F0
:10A26000D2820720D0820720D23C0820D33C08208D
:10A270007FB502F097F80B2809D903238DF8003039
:10A28000FAF7F2FB8DF80800684602F0D1F807B043
:10A290005DF804FB014B1878704700BFD13C0820E3
:10A2A000014B1870704700BFD13C082008B5044B23
:10A2B0000521186800F062FF0122024B1A7008BDE8
:10A2C000BC3C0820CA3C082008B5044B042118688F
:10A2D00000F054FF0122024B1A7008BDBC3C08205C
:10A2E000D03C082082071FD16422B0FBF2F302FBAE
:10A2F00013039BB2D3B94FF4C872B0FBF2F302FB65
:10A30000130080B2B0FA80F040090B2912D8012363
:10A3100003FA01F111F4256F0AD14B070AD5002881
:10A3200014BF1D201C2070470020EEE70120ECE741
:10A330001E2070471F20704710B51446FFF7D2FF4C
:10A3400024B1A04228BF2046C0B210BD012010BDDC
:10A350002DE9F04186B00D460446FFF782F9124B15
:10A3600007461E78114B1A78114B1978114B188833
:10A37000FFF7E2FF8046FEF7CFFB1F230593002384
:10A3800004930D4B014602930C4BCDF80C8053F80F
:10A390002730009601932A460423204601F05AFBF9
:10A3A00006B0BDE8F08100BFD13C0820D082072074
:10A3B000D1820720D28207208C2B0900402B090074
:10A3C0002DE9F043037887B02A2B054640F09280B0
:10A3D0004378022B40F08E8000F09EFE0F287ED145
:10A3E000EC78AD78F6F7DCFB444B02950093444AD9
:10A3F0000346019401210020F9F7D6FA414B424E61
:10A400001B78424D9A1EDFF82C81DFF82C91404FCB
:10A41000042A5ED8DFE802F003323E4C550004F512
:10A42000FA6423463B4A01210020F9F7BDFA348043
:10A430003B78394A049399F800300121039398F846
:10A440000030002002932B780193338800932B4B2C
:10A45000F9F7AAFA3C78297899F8003098F80020A2
:10A460003088009401F09AFC2C4B186800F0F4FE40
:10A470000F2007B0BDE8F04300F01EBE2346284A77
:10A4800001210020F9F790FA0CB12C70D0E70123DC
:10A490002B70CDE72346234A01210020F9F784FAE7
:10A4A000224629783088FFF747FF88F80000BFE789
:10A4B00023461D4A01210020F9F776FA89F8004069
:10A4C000B6E72346194A01210020F9F76DFA3C70DE
:10A4D000AEE7174A01210020F9F766FAA8E710381D
:10A4E000C0B26F2806D8A978E87807B0BDE8F04375
:10A4F00000F038BD07B0BDE8F08300BF872A09002F
:10A50000D12C0900CB3C0820D2820720D182072021
:10A51000D33C0820E02C09004D2D0900B83C082050
:10A52000F12C0900022D0900152D0900252D090027
:10A53000382D0900D0820720D23C0820194B2DE984
:10A54000F341187058B3184D2888A0F5FA63362BDC
:10A5500025D8DFF86C8098F800104B1E0B2B1ED806
:10A56000124F3C78DCB12246FFF7E6FE844216D853
:10A570000F4C2378172B12D80E4E33783B2B0ED866
:10A580000D4B0E4A01210020F9F70EFA20782C8895
:10A590003A7898F8003031780094FFF75FFB02B00A
:10A5A000BDE8F081D13C0820D2820720D08207206C
:10A5B000D23C0820D33C0820562A09009C360900CA
:10A5C000D18207202DE9FF41037804462A2B03D1CD
:10A5D000477827B1012F11D004B0BDE8F08184780D
:10A5E000002CF9D100F0A8FD204600F065FD554B88
:10A5F000186804B0BDE8F04100F02EBE00F08CFDFC
:10A600000F2800F2958000F087FD02288046A5788B
:10A610007FD0E67824790AD30F282CD001940096B5
:10A620002B46494A39460020F9F7BEF9D4E715B957
:10A630000EB9012C0BD00F2C13D8012C07D9022CEA
:10A64000CAD1424B186800F007FE204604E03D4B9B
:10A65000186800F001FE002004B0BDE8F04100F0F1
:10A660002BBD2106B8D422463146284604B0BDE8A9
:10A67000F04100F0E3BBF6F793FA354B03940093F7
:10A68000029603460195334A39460020F9F78CF9C2
:10A690000F2DA1D1012C17D12F4E304A33782146EE
:10A6A0000020F9F781F9307880F00100FFF746FFCC
:10A6B00033782B4A21460020F9F776F9294B1868A0
:10A6C00000F0CAFD2846C7E7072C16D10121264A0B
:10A6D0000020F9F769F9254B197881F0010119700B
:10A6E00049B100210846FFF7D6F81E4B186800F064
:10A6F000B3FD0F20B0E70120F5E71D4D2B78A342F5
:10A700003FF46AAF1B4A01210020F9F74DF92C7084
:10A7100062E7022D06D124790F2C01D1114B91E76C
:10A720000A4BCCE7094B186800F096FD404693E7CA
:10A7300002063FF551AF227913063FF54DAFE178A0
:10A74000A07893E7B43C08207E1C0900BC3C08209C
:10A75000702A0900742C0900D13C08208C2C0900B7
:10A760006E180900B83C0820AC2C0900C93C082030
:10A77000CB3C0820BC2C0900024B0721186800F0D4
:10A780000EBD00BFB83C0820024B0221186800F043
:10A7900006BD00BFB83C082010B50446144A00218D
:10A7A00000F006FD2046134A012100F001FD20467D
:10A7B000114A022100F0FCFC2046104A032100F05F
:10A7C000F7FC20460E4A042100F0F2FC20460D4A18
:10A7D000052100F0EDFC20460B4A062100F0E8FCC4
:10A7E0002046BDE81040094A072100F0E1BC00BF47
:10A7F000EDA0080095A0080039A00800E59F08001A
:10A8000051A30800919F08003D9F0800019D08008A
:10A8100010B504461B4A002100F0CAFC1A4A012167
:10A82000204600F0C5FC194A0221204600F0C0FC79
:10A83000174A0321204600F0BBFC164A042120469B
:10A8400000F0B6FC144A0521204600F0B1FC134B81
:10A850001B7823B1124B0521186800F08FFC114BB7
:10A860001B7823B10E4B0421186800F087FC0E4BB7
:10A870001B7833B1BDE81040094B0321186800F084
:10A880007DBC10BD25A108004D9E080095A10800C3
:10A89000F59D08009D9D0800619D0800CA3C0820A8
:10A8A000BC3C0820D03C0820C83C082010B5044619
:10A8B0000E4A002100F07CFC0D4A0121204600F0E8
:10A8C00077FC0C4A0221204600F072FC0A4A032160
:10A8D000204600F06DFC094B1B7833B1BDE81040F9
:10A8E000074B0321186800F049BC10BD5DA10800AA
:10A8F000019F0800C59E0800899E0800D43C0820DE
:10A90000B43C082010B522492A20F8F7EBFE214C70
:10A9100021492A20F8F7E6FE20490A20F8F7E2FE4E
:10A9200021460020F8F7DEFE21460120F8F7DAFE86
:10A9300021461B4C0720F8F7D5FE21460F20F8F7DB
:10A94000D1FE21460720F8F7CDFE16490720F8F77B
:10A95000C9FE00F003FC144B1860FFF7A7FF00F0DE
:10A96000FDFB124B1860FFF753FF00F0F7FB104B95
:10A970001860FFF711FF00F0F1FB0E4B186000F0BC
:10A9800005FB00F0E9FBBDE8104000F089BC00BF0A
:10A99000C5A50800899C0800C1A30800EDA1080016
:10A9A000C59C080071A20800B43C0820BC3C0820EB
:10A9B000B83C0820C03C08207FB50D460446FEF791
:10A9C00050FE0646FEF7A8F8084B03220393084BF7
:10A9D000014653F826302046029300238DE80C00F0
:10A9E0000A232A4600F024FF04B070BD883A09000B
:10A9F0008C3A0900F0B585B00E460546FEF731FEEB
:10AA00000746FEF72EFE04460020FDF713FD012841
:10AA100001D0032815D10C4B53F82440FEF77CF8E5
:10AA20000A4B032253F82730014602930023039474
:10AA30008DE80C0028460923324600F0F9FE05B0E7
:10AA4000F0BD034BE8E700BFBC3C0900984009009B
:10AA500000400900F0B585B00E460546FEF701FE40
:10AA60000746FEF7FEFD04460020FDF7E3FC013833
:10AA7000012894BF0B4B0C4B53F82440FEF74CF8C5
:10AA80000A4B032253F82730014602930023039414
:10AA90008DE80C0028460823324600F0C9FE05B0B8
:10AAA000F0BD00BF94490900403B0900DC370900B4
:10AAB000F0B585B00E460546FEF7D3FD0746FEF716
:10AAC000D0FD044601F06EFC0B2833D8DFE800F01F
:10AAD000061C1E2022242E3026282A2C164B53F822
:10AAE0002440FEF719F8154B032253F8273001468E
:10AAF0000293002303948DE80C0028460623324677
:10AB000000F096FE05B0F0BD0D4BE8E70D4BE6E713
:10AB10000D4BE4E70D4BE2E70D4BE0E70D4BDEE7B5
:10AB20000D4BDCE70D4BDAE70D4BD8E70D4BD6E7C5
:10AB30000D4BD4E70D4CD4E7683F0900703C090089
:10AB4000A4390900D83A09000C39090090370900E6
:10AB5000C0380900D03E0900583909002C4A0900C4
:10AB60003C3A0900E0490900F0390900883A090037
:10AB7000F0B585B00E460546FEF773FD0746FEF7B5
:10AB800070FD04460520FDF755FCB0B1012816D133
:10AB90000F4B53F82440FDF7BFFF0E4B014653F80F
:10ABA000273003940293002301930323324600933A
:10ABB000284600F03DFE05B0F0BD074BE9E7064B27
:10ABC0000021052053F82440FDF73AFCE3E700BFDD
:10ABD00074380900B43F0900543D09002DE9FF41D4
:10ABE00006460F46FEF73DFD134B80461C781CB110
:10ABF00000210320FDF724FCFEF733FD054603206A
:10AC0000FDF718FC01280CBF0C4B0D4B53F82550D9
:10AC1000FDF782FF0B4B014653F828300395029352
:10AC20000323019400933A460123304600F000FECE
:10AC300004B0BDE8F08100BFDF3C0820D83B09002C
:10AC4000243C09008C3B09002DE9F04385B089467E
:10AC50008046FEF706FD06460820FDF7EBFB114B8C
:10AC600053F82670104B1D78BDB9012817D1044642
:10AC70000E4B53F82670FDF74FFF0D4B014653F86E
:10AC80002630039401930297009507234A464046D5
:10AC900000F029FE05B0BDE8F0830024EBE72C4668
:10ACA000E9E700BFEC3D0900E03C0820843E0900D4
:10ACB0001C3F09002DE9F04186B00F460646FEF71D
:10ACC000D0FC05460720FDF7B5FB80460520FDF7C3
:10ACD000B1FB0446FDF720FF3C230593002314F14C
:10ACE000FF3418BF01240493094B014653F8253063
:10ACF000CDF80C800293074B009453F825303A4668
:10AD000001933046052300F0A5FE06B0BDE8F081B2
:10AD10004C400900A03D09002DE9F04186B00F46E6
:10AD20000646FEF79EFC05460620FDF783FB80469F
:10AD30000520FDF77FFB0446FDF7EEFE3C2305935F
:10AD4000002314F1FF3418BF01240493094B01467A
:10AD500053F82530CDF80C800293074B009453F83C
:10AD600025303A4601933046042300F073FE06B0C6
:10AD7000BDE8F0814C400900383E0900F0B587B0CD
:10AD80000E460546FEF76DFC04460420FDF752FB17
:10AD90000746FDF7C1FE1E2305930023094A0493CD
:10ADA00052F8242000930292074A014652F82420C8
:10ADB0000397019202233246284600F04BFE07B06B
:10ADC000F0BD00BF083D09002838090073B50446EE
:10ADD000FEF747FC0646FDF7A9FE084B0546186836
:10ADE00000F020FA064B024653F82630294600931D
:10ADF0002046102300F0DAFC02B070BDD83C0820D9
:10AE00008482072008B5044B0721186800F0B6F9C2
:10AE10000122024B1A7008BDD83C0820E03C0820F3
:10AE200008B5044B0121186800F0A8F90122024B73
:10AE30001A7008BDD83C0820DF3C08207FB548B90F
:10AE4000414B186800F008FA102000F035F907B0FF
:10AE50005DF804FB1028FAD1531E092B70D8DFE8E7
:10AE600003F0056F116F6F1B2B3446640320FDF751
:10AE7000E1FA411CC9B2022908BF00210320FDF7F5
:10AE8000DFFADDE70520FDF7D5FA411CC9B202293A
:10AE900008BF00210520F2E701F084FA0130C0B2BA
:10AEA0000C2828BF002003238DF8080068468DF881
:10AEB000003001F0BDFAC3E70820FDF7BBFA10F13E
:10AEC000FF3118BF01210820D9E70020FDF7B2FAB1
:10AED0000138032803D8DFE800F008221B261B4BAB
:10AEE0001B4A01210020F8F75FFD032111E000203B
:10AEF000FDF7A0FA0138032813D801A353F820F076
:10AF000027AF080011AF08001FAF0800EBAE080024
:10AF100001210020FDF794FA01F098FB90E704214D
:10AF2000F7E70C4BDCE70221F3E70B4B0B4A01215F
:10AF30000020F8F739FDFDF799FAFCF7C7FE7FE727
:10AF4000074B1A707CE700BFD83C0820483709003F
:10AF5000243B09005F37090078370900B91509005B
:10AF6000DD3C0820084B01461B78042B06D0052B3E
:10AF700006D0022B06D10420FDF762BA0620FBE7BB
:10AF80000720F9E7704700BFDD3C082010B5394CB9
:10AF9000394A0021206000F00BF9384A012120686D
:10AFA00000F006F9364A0221206800F001F9354A1E
:10AFB0000321206800F0FCF8334A0421206800F0E7
:10AFC000F7F8324A0521206800F0F2F8304A0621ED
:10AFD000206800F0EDF82F4A0721206800F0E8F81B
:10AFE0002D4A0821206800F0E3F82C4A0921206846
:10AFF00000F0DEF82A4A0A21206800F0D9F8294B2F
:10B000001B781BB10721206800F0B8F8264B1B788D
:10B010001BB10121206800F0B1F8244B1B785BB113
:10B020000321206800F0AAF80421206800F0A6F8A7
:10B030000521206800F0A2F81D4B1B783BB10121CF
:10B04000206800F09BF80221206800F097F8194B67
:10B050001B786BB12068062100F090F82068082169
:10B0600000F08CF820680921BDE8104000F086B897
:10B0700010BD00BFD83C0820CDAD0800DDAB0800F6
:10B080007DAD080071AB080019AD0800B5AC080033
:10B09000B1AA080049AC080055AA0800F5A90800A3
:10B0A000B9A90800E03C0820DF3C0820E13C08206A
:10B0B000DE3C0820DC3C082010B40B4A0B49B2F9F6
:10B0C0000030CC1814F8014C844200D123B9092B6C
:10B0D000C85403DC0133138010BC70470021044ABC
:10B0E000084610BCF8F760BCE23C0820D482072078
:10B0F000784A0900FF21064BB3F90020002AC4BF9B
:10B1000002F1FF321A80B3F90030024AD15470477D
:10B11000E23C0820D4820720054BB3F90020002A26
:10B12000C3BF044B9B1813F8010CFF20704700BFEE
:10B13000E23C0820D48207200023FF21044A9954CE
:10B1400001330A2BFBD10022024B1A80704700BF4B
:10B15000D4820720E23C0820FFF7EEBF8C210120BB
:10B1600002F034B908B100238360704728B101238D
:10B1700003FA01F103680B430360704730B1012308
:10B1800003FA01F1036823EA01030360704728B161
:10B19000012303FA01F143680B434360704730B168
:10B1A000012303FA01F1436823EA01034360704776
:10B1B00038B50C4690B1202906D9BDE838400021A9
:10B1C000074A0846F8F7F0BB00EB8103DA60FFF7A7
:10B1D000DEFF2146BDE83840FFF7C8BF38BD00BFDD
:10B1E0009D4A090038B50446806820B923460C4AB8
:10B1F0000121F8F7D9FB01256168A36805FA03F27C
:10B2000011EA020005D0206810401CBF04EB830245
:10B21000D068013308B1A36038BD1F2BEED9FAE71F
:10B22000612909000122F0B500231646456800F1A6
:10B23000100106FA02F4254206D007683C4203D00A
:10B240000C680CB10133DBB20132202A01F1040198
:10B25000EFD11846F0BD0000094B13B51860FEF79A
:10B2600063F8084B1C68F5F79BFC05230246009326
:10B27000012100232046F6F759FA02B010BD00BFA5
:10B28000E83C0820EC3C082008B5FEF74DF8034BDD
:10B290001868BDE80840FFF7DFBF00BFE43C0820A6
:10B2A00007B5074B4FF4FA710093002305481A467F
:10B2B000F6F716FA044B186003B05DF804FB00BF04
:10B2C000EDB20800B24A0900EC3C0820292300B581
:10B2D0008BB0019068468DF80030F8F725FA684683
:10B2E000F8F722FA0BB05DF804FB000010B5054C2E
:10B2F000206830B1FFF7EAFF2268034B1A60002391
:10B30000236010BDE83C0820E43C082003781A2B99
:10B3100002BF4268014B1A60704700BFF43C08202E
:10B320000378072B04D1034A13780BB1013B137048
:10B33000704700BFDE82072038B503780546102B22
:10B340001AD18378012B11D10C4A13700C4C6978F7
:10B350002278914207D00B4A01210020F8F724FB04
:10B360000948FEF79FF86B78237005E0002BEDD1BC
:10B37000024B1B78002BE9D038BD00BFF03C082001
:10B38000DF820720B94A09000DB5080038B50378F7
:10B390000546162B0ED1084C41782278914207D0F1
:10B3A000064A01210020F8F7FFFA0548FEF77AF86F
:10B3B0006B78237038BD00BFE2820720F74A09008E
:10B3C0000DB5080038B503780546152B0ED1084C8D
:10B3D00041782278914207D0064A01210020F8F7EF
:10B3E000E3FA0548FEF75EF86B78237038BD00BFBE
:10B3F000E1820720E44A09000DB5080038B503785A
:10B400000546122B14D10B4C41782278914207D07B
:10B41000094A01210020F8F7C7FA0848FEF742F868
:10B420006B782370FCF75EFC10B10A22044B1A7093
:10B4300038BD00BFE0820720CF4A09000DB50800E3
:10B44000DE82072010B52C4B1C78002C4CD000233A
:10B45000FF2480F8093100F20712431E03F8014F60
:10B460009A42FBD1C7220270C822002342701022E8
:10B4700080F80A3180F80B310371204BC270204AEA
:10B480001B781278002B817014BF002361231AB33C
:10B4900043F002031B4A12780AB943F00803837190
:10B4A000194B15311B68C9B2C3F30722037200237D
:10B4B0004372202383720523C271437100F10B0292
:10B4C000831D9A420BD1C943C1720C2180F8081127
:10B4D000FEF72EF9012010BD43F00603DAE713F85A
:10B4E000014B2144C9B2ECE7F8F744FA0120FBF71D
:10B4F000E1FE204610BD00BFDE820720E08207206B
:10B50000E2820720DF820720F43C0820FFF79ABF81
:10B5100008B50D491220F8F7E5F80C491020F8F7A6
:10B52000E1F80B491620F8F7DDF80A491520F8F77D
:10B53000D9F809491A20F8F7D5F8BDE808400749B5
:10B540000720F8F7CFB800BFFDB3080039B30800F3
:10B550008DB30800C5B308000DB3080021B308007F
:10B56000044B1A78824203D018700348FDF79ABF43
:10B57000704700BFF83C0820D9B50800002310B57B
:10B58000FF2480F80931421E00F2071302F8014F30
:10B590009342FBD1C7230370C82343701823C370A1
:10B5A0000323002243710B4B80F80A211B7880F89B
:10B5B0000B21C3710B441D33817002718271DB4317
:10B5C00002220A210272437280F80811FEF7B0F8D5
:10B5D000012010BDF83C0820FFF7D0BF38B500238C
:10B5E000FF2480F8093100F20715431E03F8014FCC
:10B5F0009D42FBD1C7250570C8254570192500233C
:10B60000C5700E2580F80A3180F80B318170037106
:10B6100045711578273185715578C9B2C57195780E
:10B620000572D5788372457255790373C572127AA3
:10B6300083744273C3748473C47304744474831D29
:10B6400000F11402934208D1C9430175152180F815
:10B650000811FEF76DF8012038BD13F8014B2144A5
:10B66000C9B2EFE738B50023FF2580F8093100F2B1
:10B670000714431E03F8015F9C42FBD1C7240470EA
:10B68000C824002344701A248170C470037180F8A8
:10B690000A3180F80B315378223183719378C9B223
:10B6A000C371D37803721379437253798372937998
:10B6B000C372D3790373137A00F10E024373082324
:10B6C0004371831D934208D1C94381730F2180F8D0
:10B6D0000811FEF72DF8012038BD13F8014B214465
:10B6E000C9B2EFE770B5417990F808418D1DA542C8
:10B6F00017D18378C2780B4413440279053113447F
:10B700000622DBB2914206DADB430134435580F86E
:10B710000841012070BD865C01323344DBB292B235
:10B72000F0E7002070BD0023FF2180F8083180F889
:10B73000093100F20712431E03F8011F9342FBD1A7
:10B74000002380F80A3180F80B31704730B5144679
:10B75000A31ADBB2994200D830BD90F8083114F832
:10B76000015BC554013380F80831F1E710B590F85A
:10B770000A31044690F808110BB1032903D8637904
:10B7800007338B4204D12046FDF7D2FF012010BDC4
:10B790000021054A0846F8F707F9204694F80811F1
:10B7A000FDF7C6FF002010BD1C2709002DE9F04160
:10B7B000069E044690460D461F46FFF7B4FFC7237A
:10B7C000C82290F808012354431CDBB2E254831CC6
:10B7D0003022DBB2E5540025C31CDBB2E254411D2C
:10B7E000031DDBB2C9B204F80380C21D6554811D7C
:10B7F000C9B2D2B2083004F80180A75484F8080115
:10B80000304602F08DFA3246C1B22046FFF79EFF65
:10B8100094F808312046E5545A1C053B84F8082169
:10B820006371FFF75FFF2046BDE8F041FFF79EBF61
:10B830002DE9F84F0C9F04468B46154699460D9E00
:10B840009DF828A09DF82C80FFF76DFFC723CA2222
:10B8500090F808012354431CDBB2E2543022831CCD
:10B86000DBB204F803B0C31CDBB2E254031DDBB24D
:10B87000E5540025431D821DDBB2D2B2E55404F825
:10B8800002A000F10803C21DDBB2D2B2093004F8F5
:10B89000029004F8038084F80801384602F040FA68
:10B8A0003A46C1B22046FFF751FF94F808313046BE
:10B8B000E554013384F8083102F032FA3246C1B25D
:10B8C0002046FFF743FF94F808312046E5545A1C00
:10B8D000053B84F808216371FFF704FF2046BDE8AB
:10B8E000F84FFFF743BF2DE9F84FDDF82C800446F1
:10B8F0008B4615469A460C9F9DF828909DF834601B
:10B90000FFF711FFC723CA2290F808012354431CF4
:10B91000DBB2E2543022831CDBB204F803B0C31C58
:10B92000DBB2E254031DDBB2E5540025431DDBB25C
:10B93000E5540423821DD2B2A354C21D00F10803B2
:10B94000DBB2D2B2093004F802A004F8039084F804
:10B950000801404602F0E4F94246C1B22046FFF732
:10B96000F5FE94F808313846E554013384F808317F
:10B9700002F0D6F93A46C1B22046FFF7E7FE94F846
:10B98000083120465A1CD2B2E554A5549A1CD2B2B2
:10B99000A654DA1C033B84F808216371FFF7A2FE6A
:10B9A0002046BDE8F84FFFF7E1BE2DE9F047099FBB
:10B9B00004468A46154699469DF820809DF82860E1
:10B9C000FFF7B1FEC723CA2290F808012354431C95
:10B9D000DBB2E2543022831CDBB204F803A0C31CA8
:10B9E000DBB2E254031DDBB2E5540025431DDBB29C
:10B9F000E5540523821DD2B2A354C21D00F10803F1
:10BA0000DBB2D2B2093004F8029004F8038084F863
:10BA10000801384602F084F93A46C1B22046FFF7E1
:10BA200095FE94F8083120465A1CD2B2E554A5542C
:10BA30009A1CD2B2A554DA1CD2B2A6541A1D023BEB
:10BA400084F808216371FFF74DFE2046BDE8F047FA
:10BA5000FFF78CBE2DE9F74F0D9F04460D460E9E55
:10BA6000019200939DF830B09DF83C809DF840A075
:10BA70009DF84490FFF757FE90F80811C7204FF04B
:10BA8000CA0E6054481CC0B204F800E0881CC0B262
:10BA900025543025C81CC0B22554019A0025081D24
:10BAA000C0B2225406204A1DD2B2A5548A1DD2B279
:10BAB000A054009BCA1DD2B2A35401F10803DBB20B
:10BAC000093104F803B0384684F8081102F028F967
:10BAD0003A46C1B22046FFF739FE94F808313046A5
:10BAE000E554013384F8083102F01AF93246C1B244
:10BAF0002046FFF72BFE94F8083120465A1C991C6B
:10BB0000D2B2C9B2E554A55404F801A0D91CC9B2F7
:10BB10006554191DC9B204F80190591DC9B2655484
:10BB2000991DC9B2073304F8018084F808316271A5
:10BB3000FFF7D8FD204603B0BDE8F04FFFF716BE73
:10BB400037B5847A857904F5FA64437A027AC17943
:10BB500000942846FEF782F803B030BD014B1878F8
:10BB6000704700BFF93C082010B5837904466BB9D3
:10BB70000121074B074A19700220074BF7F714FF02
:10BB8000217AE079BDE81040FDF785BE10BD00BF09
:10BB9000F93C08201E4B09000B4B090010B5044668
:10BBA0008379074A01210020F7F7FEFEA379BDE85B
:10BBB00010401A2B96BF034A0120D05CFDF77ABED5
:10BBC000514B0900364B090030B5457B85B0C4792F
:10BBD000437A027A81790395057B0295C57A0195AE
:10BBE000807A00902046FDF785FC05B030BD00004E
:10BBF00010B50446064A01210020F7F7D5FEA379C7
:10BC0000022B04D1E079BDE81040FDF7AABC10BDBD
:10BC1000644B0900232300B58BB08DF80030837985
:10BC200007308DF80130002310F8012B0DEB0301D4
:10BC30001D2B8A7011D100210A4A0846F7F7B4FE7D
:10BC40002E238DF81F308DF81E308DF81D3068467C
:10BC5000F7F76AFD0BB05DF804FB0133002AE3D16E
:10BC6000F5E700BF6A4B09008379027AC17903F0D6
:10BC70000F00FDF761BC0000242300B58BB08DF8E8
:10BC80000030837908308DF8013010F8013C8DF8D0
:10BC90000230002310F8012B0DEB03011D2BCA709D
:10BCA00014D100210B4A0846F7F77EFE00238DF8D9
:10BCB00020302E238DF81F308DF81E308DF81D306A
:10BCC0006846F7F731FD0BB05DF804FB0133002A3D
:10BCD000E0D1F5E76A4B09007047000070B5154ADE
:10BCE000044601210020F7F75FFE0023124E94F86E
:10BCF00008215D1CDBB29A4214D8104A01210020B1
:10BD0000F7F752FEA37933B9E37923B9237A012BEC
:10BD100001D8FFF7EFF9227AE179A079BDE8704008
:10BD2000FDF758BCE35C324601210020F7F73CFEEA
:10BD30002B46DCE78A4B0900512A09002C1A09001E
:10BD400070B5104A044601210020F7F72DFE0023AC
:10BD50000D4E94F808215D1CDBB29A420AD80121ED
:10BD60000A4A0020F7F720FEE179A079BDE870408B
:10BD7000FDF74EBCE35C324601210020F7F714FECC
:10BD80002B46E6E78A4B0900512A09002C1A0900C4
:10BD9000014B1860704700BFFC3C082030B4074CD2
:10BDA0009DF8085024681CB10295A44630BC604739
:10BDB0002146204630BC024AF7F7F6BDFC3C08207D
:10BDC000954B090010B50A248AB08DF80430BDF8EF
:10BDD00030308DF8020068468DF800408DF8011073
:10BDE0008DF80320ADF80630F7F79EFC0AB010BDC1
:10BDF00000230246FF2180F84630831C42F8403F72
:10BE000003F8011B9342FBD19F2200230270022200
:10BE100080F84930427080F8473080F84C3080F824
:10BE2000483080F84A3080F84B3080F8441080F871
:10BE300045307047F8B500230B4C0C4E0C4F227860
:10BE40005D1CDBB29A4206D80A4A0121BDE8F840DF
:10BE50000020F7F7A9BDF35C3A4601210020F7F76F
:10BE6000A3FD2B46EBE700BF883E0820C03D08201D
:10BE7000792409002C1A090008B5F4F761FC0023A5
:10BE8000054A1370054A13700122054B1A70BDE86C
:10BE90000840F4F765BC00BF6C3D0820143D082045
:10BEA000E382072010B5104C2378022B10D80F4ADC
:10BEB00001210020F7F778FD23780D480133237026
:10BEC0000023BDE810401A4619460068F5F76ABF1E
:10BED000084A01210020F7F767FDFFF7ABFFBDE837
:10BEE0001040FFF7C9BF00BF6C3D08207F24090048
:10BEF000003D0820892409000023F7B51A46224C8A
:10BF000022492078DDB285423AD39F230B70022369
:10BF10002270002003224B701D4B93F844501F6C7D
:10BF20008D70C6B2BB5D01309F2B12BF13468B5480
:10BF3000531CBA5D08BFDBB2C6B2CA54B54203F1A6
:10BF40000102D2B2EDD29F2088540322DD1C0233BD
:10BF5000DBB2CA540F4BEDB21E68F4F721FE00238A
:10BF60000246009301213046F5F7E0FB2A460A4BD2
:10BF7000064918682570C36803B0BDE8F04018474B
:10BF8000CA540133BEE700BF883E0820C03D0820E8
:10BF9000703D0820103D0820083D082030B50D4BAD
:10BFA00093F844001A6C93F8451002445170002134
:10BFB00093F844204C1CC9B28A4202F1010202D219
:10BFC00083F8442030BD186C415C855C6940815425
:10BFD0002146EDE7703D0820094A92F84430A3F16C
:10BFE0003D01C9B2C1290AD90133116CDBB282F813
:10BFF0004430C85492F84530013382F845307047D8
:10C00000703D082010B50446C0B2FFF7E5FFC4F349
:10C010000720FFF7E1FFC4F30740FFF7DDFF200E25
:10C02000BDE81040FFF7D8BF036C587800F022BA83
:10C03000036C5878003018BF012000F015BA0000DA
:10C040002DE9F043B94E8BB030684E2243694FF46E
:10C05000E1319847B64CB74F00213868F6F7D2F86F
:10C06000024600284CD0FFF747FF30680A23012220
:10C070000DF10F018069F9F7D0FE002800F07881FA
:10C0800094F846209DF80F30002A00F08E800022A0
:10C09000022B84F846206AD12046FFF7A9FE01232F
:10C0A00084F8493094F84830002BDED094F84730BB
:10C0B000002B00F0A2800A23009300239E481A461A
:10C0C00003210068F5F732FB94F84B30002B00F0A9
:10C0D00091809A4D2B78032B00F28580984A01219C
:10C0E0000020F7F761FC002338681A461946F5F777
:10C0F00059FE2B7801332B702046FFF779FEB4E709
:10C10000904D2B78002BB0D08F4B04A91868F5F711
:10C11000D1FF0028A9D08D48FFF76AFE9DF81000D6
:10C12000FFF75AFF9DF81030042B19D009D8DBB166
:10C13000032B19D0FFF732FFFFF7DEFE00232B7031
:10C1400093E7172B0CD0182B0ED0052BF2D19DF8AE
:10C150001800FFF741FF9DF81900FFF73DFFE9E7E1
:10C160000598FFF74FFFF2E79DF81800F5E7032B5E
:10C1700007D194F84930002B94D0012384F848303B
:10C1800090E7062B05D1012384F84A3084F8473024
:10C1900088E7152B03D1012384F84B30F6E79F2B5A
:10C1A00009D02046FFF724FE7CE79F2B03D1012313
:10C1B00084F8463076E794F84420A2F13E01C9B2F3
:10C1C000C0297FF66FAF94F8491029B194F8451053
:10C1D00011B984F8453065E7216C0132D2B284F898
:10C1E00044208B545EE75A4A01210020F7F7DCFB1C
:10C1F000FFF720FEFFF740FE7EE7206C94F845E055
:10C200000346724694F8445000F141081FFA85FC39
:10C21000191A89B2614505D813F8011B984582EABD
:10C220000102F5D1AE4575D1002A73D1494A04AB5C
:10C2300010685168082203C3306804A9C36898478E
:10C2400094F8483043B1226C1378042B2CD027D8B3
:10C25000012B43D0032B4ED03F4A01210020F7F79A
:10C26000A3FB94F8455094F84830FF2D08BF0025F3
:10C2700000933A4A2B4601210020F7F795FB4FF037
:10C280000008DFF8E89003355FFA88F3AB4208F165
:10C29000010838DD324A01210020F7F785FB2BE742
:10C2A000162B2CD0172BD7D10023D2F80150DFF852
:10C2B000BC9094F8442003F10108DBB29A4211D8F3
:10C2C000274A01210020F7F76FFB002D3FF414AF40
:10C2D000236CDA1D99795879A8470DE72046FFF7B6
:10C2E000A3FE09E7226C0121D35C00204A46F7F740
:10C2F0005BFB4346DDE752781A4B1A70FCE620469A
:10C30000FFF796FEF8E6E35C4A4601210020F7F7C6
:10C310004BFBB9E7144A04AB10685168082203C309
:10C32000306804A9C3689847E6E600BF083D0820C6
:10C33000183D0820003D0820103D0820143D08202D
:10C3400013240900E3820720683D0820703D08207F
:10C350001A240900C44B090057240900E74B0900BF
:10C360002C1A09000D3D0820BB4B09007924090057
:10C37000094B1D786A1C1A70002D7FF46CAEF4F71F
:10C380006BFE63283FF667AE044B054A0121284641
:10C39000F7F70AFB5FE600BF0C3D0820CD4B090014
:10C3A000D7180900014B1878704700BF0D3D0820D1
:10C3B00073B5154E34782CBB0125144A144B15491E
:10C3C0001A60154823464FF4C87201940095F4F79B
:10C3D000BBFA224618212820F5F7BEFC0F4B224657
:10C3E00018600F4BA02100930E482346F5F778F90B
:10C3F0000D4B0322186021462846F5F7ADFC0B4B88
:10C400003570186002B070BD043D0820148207200A
:10C41000083D0820DD4B090041C00800683D0820A8
:10C42000A5BE080073240900103D0820003D082027
:10C4300001460348002302220068F5F7B3BC00BFA1
:10C44000683D0820054B1B782BB9054B1B7813B9A9
:10C45000044B187800B10120FBF78CBC893E082002
:10C460008A3E08208B3E0820014B1870FFF7EABF78
:10C47000893E082000F04403442B70B5064619D1CC
:10C480000122634B1A70FFF7DDFF06F07704032CDF
:10C49000604D1FD12B78042B11D85F4A0121002059
:10C4A000F7F782FA2B7801332B700021012000F07E
:10C4B000CFF83EE0002BE8D1554A1370E3E7574A26
:10C4C00001210020F7F770FA0122554B1A70FFF78F
:10C4D000B9FFEAE7534B1A7812B100222A701A709A
:10C4E000297800295FD004295BD808BF03234FF0C7
:10C4F00001014FF0030008BF2B7000F0A9F84A4A71
:10C5000001210020F7F750FA2B78013B2B70002215
:10C51000434B1A70FFF796FF402C01D0042CC4D176
:10C520000121084600F094F8404A01210020F7F765
:10C530003BFA302C3BD101213D4A0020F7F734FA79
:10C540000121022000F084F80021072000F080F88B
:10C55000102C3BD10121374A0020F7F725FA0121A1
:10C56000062000F075F80021042000F071F8012C7D
:10C570003BD12146304A0020F7F716FA2146052024
:10C5800006F0880600F064F8802E30D101212B4A95
:10C590000020F7F709FA0121082000F059F80021DE
:10C5A00031E00023B2E7032000F052F8AFE70021AA
:10C5B000022000F04DF8202CC6D10121204A002095
:10C5C000F7F7F2F90121072000F042F800210620D8
:10C5D00000F03EF8022CC6D101211A4A0020F7F7DC
:10C5E000E3F90121042000F033F80021C7E700211E
:10C5F000082000F02DF8082ED1D10121124A002088
:10C60000F7F7D2F90121BDE87040092000F020B809
:10C610008B3E0820E5820720F74B0900FE4B0900FE
:10C620008A3E0820E4820720074C09000E4C0900CE
:10C63000154C0900234C0900304C0900364C090008
:10C640001B4C0900294C09003F4C090070477047FA
:10C6500008B5034609282FD8DFE800F0050B0F13B3
:10C66000171A1E2124284FF400222D4B11B31A63F0
:10C6700008BD2C4B4FF08072F8E7294B4FF4802215
:10C68000F4E7274B4FF48072F0E7254B8022EDE76B
:10C69000234B4FF40052E9E7224B4022E6E7214BBF
:10C6A0001022E3E71E4B4FF48062DFE71C4B4FF490
:10C6B0000062DBE75A6308BD1B4A01210020F7F73F
:10C6C00073F94022174B5A6310225A634FF4000249
:10C6D0005A634FF480025A634FF080725A634FF4EA
:10C6E0000022C3F834228022C3F834224FF40052CF
:10C6F000C3F834224FF48022C3F834224FF48072FE
:10C70000C3F834224FF48062C3F834224FF08062C1
:10C71000C3F834224FF40062C3F8342208BD00BFCE
:10C7200000100E40000E0E404A4C0900054B1870D8
:10C73000054B10B9588018707047022240001A70DB
:10C74000588070478C3E08208E3E0820F0B5114D71
:10C750008DB001AC06460F460FCD0FC40FCD0FC4F0
:10C7600095E80700002384E8070001AA52F8230097
:10C77000B7FBF0F0B0FBF6F0B0F5807F06D90133DF
:10C780000B2BF3D14FF6FF700DB0F0BD40EA032044
:10C79000FAE700BF604C090070B50C6806460D460C
:10C7A00044B120468968FFF7D1FF4FF6FF739842E6
:10C7B00004460CD0686840B1A968FFF7C7FF4FF680
:10C7C000FF73984205D044EA0044346000242046B8
:10C7D00070BD0446FBE74A6830B58C8A02F00F0250
:10C7E00022430C898D7D22438C7A0B6842EA4422D5
:10C7F000CC7D42EA054242EA44420C7E42EA84424F
:10C8000000EB4314C4F80022CA68C4F804220A6981
:10C81000C4F80C221DB1D1F81A20C4F81822CA7F1E
:10C8200002FA03F48A7F9A4042EA0442826491F851
:10C83000212002FA03F491F820209A4042EA0442AF
:10C840004264012291F822409A4024B3046A1443BE
:10C85000046291F82440012C846E0CBF144394436D
:10C86000846691F825401204012C846E0CBF22438B
:10C8700024EA0202032B82664FF0FF0491F8232082
:10C880000DD8DB00C16E9C4021EA04049A4022438B
:10C89000C266002030BD046A24EA0204D8E7043BE3
:10C8A000DB00016F9C4021EA040402FA03F32343F6
:10C8B0000367EEE7CB6893429FBF0B680A6100EB0A
:10C8C0004310C0F8102294BF00204FF6FF7070474D
:10C8D0000B69934221BF0B68CA6000EB4310C0F89C
:10C8E00008222CBF00204FF6FF707047012303FA87
:10C8F00001F141607047012303FA01F18160704743
:10C90000C06970470123103203FA02F203FA01F101
:10C910000A43026170470123103203FA02F203FA5C
:10C9200001F10A434261704781F0004102E000BF1B
:10C9300083F0004330B54FEA41044FEA430594EADF
:10C94000050F08BF90EA020F1FBF54EA000C55EA1A
:10C95000020C7FEA645C7FEA655C00F0E2804FEAEB
:10C960005454D4EB5555B8BF6D420CDD2C4480EACD
:10C97000020281EA030382EA000083EA010180EAFD
:10C98000020281EA0303362D88BF30BD11F0004F4B
:10C990004FEA01314FF4801C4CEA113102D0404281
:10C9A00061EB410113F0004F4FEA03334CEA1333BC
:10C9B00002D0524263EB430394EA050F00F0A780D4
:10C9C000A4F10104D5F1200E0DDB02FA0EFC22FACF
:10C9D00005F2801841F1000103FA0EF2801843FAC3
:10C9E00005F359410EE0A5F120050EF1200E012AB4
:10C9F00003FA0EFC28BF4CF0020C43FA05F3C018F2
:10CA000051EBE37101F0004507D54FF0000EDCF16A
:10CA1000000C7EEB00006EEB0101B1F5801F1BD313
:10CA2000B1F5001F0CD349085FEA30004FEA3C0C17
:10CA300004F101044FEA445212F5800F80F09A800D
:10CA4000BCF1004F08BF5FEA500C50F1000041EB11
:10CA5000045141EA050130BD5FEA4C0C404141EB15
:10CA6000010111F4801FA4F10104E9D191F0000F3C
:10CA700004BF01460020B1FA81F308BF2033A3F1BF
:10CA80000B03B3F120020CDA0C3208DD02F1140CB6
:10CA9000C2F10C0201FA0CF021FA02F10CE002F1F1
:10CAA0001402D8BFC2F1200C01FA02F120FA0CFCEA
:10CAB000DCBF41EA0C019040E41AA2BF01EB045133
:10CAC000294330BD6FEA04041F3C1CDA0C340EDC31
:10CAD00004F11404C4F1200220FA04F001FA02F374
:10CAE00040EA030021FA04F345EA030130BDC4F132
:10CAF0000C04C4F1200220FA02F001FA04F340EA27
:10CB00000300294630BD21FA04F0294630BD94F0D7
:10CB1000000F83F4801306BF81F480110134013DBE
:10CB20004EE77FEA645C18BF7FEA655C29D094EA2F
:10CB3000050F08BF90EA020F05D054EA000C04BFAD
:10CB40001946104630BD91EA030F1EBF0021002098
:10CB500030BD5FEA545C05D14000494128BF41F037
:10CB6000004130BD14F580043CBF01F5801130BD9B
:10CB700001F0004545F0FE4141F470014FF0000026
:10CB800030BD7FEA645C1ABF194610467FEA655CD7
:10CB90001CBF0B46024650EA013406BF52EA033579
:10CBA00091EA030F41F4002130BD00BF90F0000F67
:10CBB00004BF0021704730B54FF4806404F13204A3
:10CBC0004FF000054FF0000150E700BF90F0000F5C
:10CBD00004BF0021704730B54FF4806404F1320483
:10CBE00010F0004548BF40424FF000013EE700BF53
:10CBF00042004FEAE2014FEA31014FEA02701FBFE3
:10CC000012F07F4393F07F4F81F06051704792F0B4
:10CC1000000F14BF93F07F4F704730B54FF460742E
:10CC200001F0004521F0004120E700BF50EA010279
:10CC300008BF704730B54FF000050AE050EA010226
:10CC400008BF704730B511F0004502D5404261EB96
:10CC500041014FF4806404F132045FEA915C3FF4D7
:10CC6000DCAE4FF003025FEADC0C18BF03325FEA70
:10CC7000DC0C18BF033202EBDC02C2F1200300FA25
:10CC800003FC20FA02F001FA03FE40EA0E0021FA4A
:10CC900002F11444C1E600BF70B54FF0FF0C4CF434
:10CCA000E06C1CEA11541DBF1CEA135594EA0C0FEA
:10CCB00095EA0C0F00F0DEF82C4481EA030621EA25
:10CCC0004C5123EA4C5350EA013518BF52EA033560
:10CCD00041F4801143F4801338D0A0FB02CE4FF012
:10CCE0000005E1FB02E506F00042E0FB03E54FF042
:10CCF0000006E1FB03569CF0000F18BF4EF0010E3A
:10CD0000A4F1FF04B6F5007F64F5407404D25FEA35
:10CD10004E0E6D4146EB060642EAC62141EA5551E8
:10CD20004FEAC52040EA5E504FEACE2EB4F1FD0C2A
:10CD300088BFBCF5E06F1ED8BEF1004F08BF5FEAA8
:10CD4000500E50F1000041EB045170BD06F000465A
:10CD500046EA010140EA020081EA0301B4EB5C0407
:10CD6000C2BFD4EB0C0541EA045170BD41F48011FF
:10CD70004FF0000E013C00F3AB8014F1360FDEBF24
:10CD8000002001F0004170BDC4F10004203C35DA00
:10CD90000C341BDC04F11404C4F1200500FA05F383
:10CDA00020FA04F001FA05F240EA020001F0004224
:10CDB00021F0004110EBD37021FA04F642EB06019A
:10CDC0005EEA430E08BF20EAD37070BDC4F10C04C4
:10CDD000C4F1200500FA04F320FA05F001FA04F288
:10CDE00040EA020001F0004110EBD37041F1000174
:10CDF0005EEA430E08BF20EAD37070BDC4F120057F
:10CE000000FA05F24EEA020E20FA04F301FA05F2E6
:10CE100043EA020321FA04F001F0004121FA04F28E
:10CE200020EA020000EBD3705EEA430E08BF20EA5E
:10CE3000D37070BD94F0000F0FD101F00046400098
:10CE400041EB010111F4801F08BF013CF7D041EA1A
:10CE5000060195F0000F18BF704703F0004652001E
:10CE600043EB030313F4801F08BF013DF7D043EAEF
:10CE70000603704794EA0C0F0CEA135518BF95EAA5
:10CE80000C0F0CD050EA410618BF52EA4306D1D12C
:10CE900081EA030101F000414FF0000070BD50EA4B
:10CEA000410606BF1046194652EA430619D094EAD5
:10CEB0000C0F02D150EA013613D195EA0C0F05D1BF
:10CEC00052EA03361CBF104619460AD181EA030113
:10CED00001F0004141F0FE4141F470014FF00000CB
:10CEE00070BD41F0FE4141F4780170BD70B54FF066
:10CEF000FF0C4CF4E06C1CEA11541DBF1CEA1355E6
:10CF000094EA0C0F95EA0C0F00F0A7F8A4EB0504C7
:10CF100081EA030E52EA03354FEA013100F08880BE
:10CF20004FEA03334FF0805545EA131343EA126387
:10CF30004FEA022245EA111545EA10654FEA00263C
:10CF40000EF000419D4208BF964244F1FD0404F5F5
:10CF5000407402D25B084FEA3202B61A65EB030551
:10CF60005B084FEA32024FF480104FF4002CB6EB0E
:10CF7000020E75EB030E22BFB61A754640EA0C008E
:10CF80005B084FEA3202B6EB020E75EB030E22BFCE
:10CF9000B61A754640EA5C005B084FEA3202B6EB0F
:10CFA000020E75EB030E22BFB61A754640EA9C00CE
:10CFB0005B084FEA3202B6EB020E75EB030E22BF9E
:10CFC000B61A754640EADC0055EA060E18D04FEA5C
:10CFD000051545EA16754FEA06164FEAC30343EAFC
:10CFE00052734FEAC2025FEA1C1CC0D111F4801FC9
:10CFF0000BD141EA00014FF000004FF0004CB6E7C2
:10D0000011F4801F04BF01430020B4F1FD0C88BF60
:10D01000BCF5E06F3FF6AFAEB5EB030C04BFB6EB6B
:10D02000020C5FEA500C50F1000041EB045170BD5E
:10D030000EF0004E4EEA113114EB5C04C2BFD4EB8B
:10D040000C0541EA045170BD41F480114FF0000E0F
:10D05000013C90E645EA060E8DE60CEA135594EA8B
:10D060000C0F08BF95EA0C0F3FF43BAF94EA0C0F8E
:10D070000AD150EA01347FF434AF95EA0C0F7FF403
:10D0800025AF104619462CE795EA0C0F06D152EA57
:10D0900003353FF4FDAE1046194622E750EA41063B
:10D0A00018BF52EA43067FF4C5AE50EA41047FF44C
:10D0B0000DAF52EA43057FF4EBAE12E753B94AB91C
:10D0C000002908BF00281CBF4FF0FF314FF0FF3090
:10D0D00000F07AB9ADF1080C6DE904CE00F006F865
:10D0E000DDF804E0DDE9022304B070472DE9F047E4
:10D0F0008C460E460446089D002B50D18A421746A6
:10D100006CD9B2FA82FEBEF1000F0BD0CEF1200C2A
:10D1100001FA0EF620FA0CFC02FA0EF74CEA060CA5
:10D1200000FA0EF43A0CBCFBF2F9BBB202FB19CCCC
:10D1300009FB03FA4FEA144848EA0C46B2450AD9FB
:10D14000F61909F1FF3180F02581B24540F22281C4
:10D15000A9F102093E44A6EB0A06B6FBF2F002FB77
:10D16000106600FB03F3A4B244EA0644A34209D9C3
:10D17000E41900F1FF3280F00B81A34240F20881F4
:10D1800002383C440021E41A40EA0940002D62D0F4
:10D19000002324FA0EF42C606B60BDE8F0878B420C
:10D1A00007D9002D55D0002185E841000846BDE88B
:10D1B000F087B3FA83F1002940F08F80B34202D3A5
:10D1C000824200F2FC80841A66EB03060120B4461A
:10D1D000002D40D085E81010BDE8F08712B9012776
:10D1E000B7FBF2F7B7FA87FEBEF1000F35D1012188
:10D1F000F61B4FEA174C1FFA87F8B6FBFCF20CFB44
:10D20000126608FB02F0230C43EA0646B04207D937
:10D21000F61902F1FF3302D2B04200F2D2801A4670
:10D22000361AB6FBFCF00CFB106608FB00F8A3B244
:10D2300043EA0644A04507D9E41900F1FF3302D2BE
:10D24000A04500F2B9801846A4EB080440EA024069
:10D250009CE729462846BDE8F08707FA0EF7CEF18D
:10D26000200326FA03F24FEA174CB2FBFCF11FFA37
:10D2700087F80CFB112206FA0EF620FA03F301FBE5
:10D2800008F933431E0C46EA0246B14500FA0EF493
:10D2900009D9F61901F1FF3280F08C80B14540F2D6
:10D2A000898002393E44A6EB0906B6FBFCF00CFB74
:10D2B000106200FB08F99EB246EA0246B14507D962
:10D2C000F61900F1FF3371D2B1456FD902383E44EF
:10D2D000A6EB090640EA01418FE7C1F1200722FAD7
:10D2E00007F88B4048EA030326FA07F44FEA134E87
:10D2F000B4FBFEF91FFA83FC0EFB19448E4020FAA2
:10D3000007F809FB0CFA48EA06084FEA184646EA0D
:10D310000444A24502FA01F200FA01F608D9E41821
:10D3200009F1FF3044D2A24542D9A9F102091C44B7
:10D33000A4EB0A04B4FBFEF00EFB104400FB0CFC53
:10D340001FFA88F848EA0444A44507D9E41800F114
:10D35000FF3E29D2A44527D902381C4440EA09409F
:10D36000A0FB0289A4EB0C0CCC45C246CE4615D3DB
:10D3700012D055B1B6EB0A036CEB0E0606FA07F7AE
:10D38000CB401F43CE402F606E600021BDE8F08788
:10D390001046F7E68946DEE64645EAD2B8EB020AD1
:10D3A00069EB030E0138E4E77046D7E718468FE7CC
:10D3B0008146BDE7114676E702383C4444E708461B
:10D3C00006E7023A3E442BE7704700BF024B0A468D
:10D3D0000146186800F002B8E882072010B502FB89
:10D3E00001F100F053F80446D8B150F8042C22F0B3
:10D3F0000302043A242A18D8132A14D900231B2A1A
:10D400000360436016D9242A8360C36011BF00F112
:10D4100010020361436100F118020023136053609E
:10D420009360204610BD0246F7E7002100F046FB5E
:10D43000204610BD00F10802EFE700BF70B50F4EA7
:10D440000F4D761BB61018BF002405D0013455F8D7
:10D45000043B9847A642F9D10A4E0B4D07F05CFDFC
:10D46000761BB61018BF002406D0013455F8043BD3
:10D470009847A642F9D170BD70BD00BF244F090086
:10D48000244F09002C4F0900244F09002DE9F04FCB
:10D4900001F10B06162E83B0054640F29E8036F051
:10D4A000070600F1BD80B14200F2BA8000F054FBE3
:10D4B000B6F5FC7FC0F08582730A00F0B880042BBB
:10D4C00000F26C81B30903F1390003F1380EC10099
:10D4D000B84F39444C680839A14206D10CE0002A03
:10D4E00080F2AB80E468A14206D0636823F00303B6
:10D4F0009A1B0F2AF3DD70463C69DFF8CCE27445D5
:10D5000000F09E81636823F003039A1B0F2A00F347
:10D510008381002AC7F814E0C7F810E080F29180F8
:10D52000B3F5007F80F054810122DB0879684FEA6F
:10D53000A30C134457F8338002FA0CF207EBC30C28
:10D540000A43ACF10801E160C4F808807A6047F84A
:10D550003340C8F80C40012483109C4094427DD88D
:10D56000144206D120F003006400144200F10400CC
:10D57000FAD007EBC009CC468046DCF80C309C455D
:10D5800007D15FE1002A80F26D81DB689C4500F0E5
:10D590005981596821F003018A1B0F2AF2DDDC68EA
:10D5A000D3F808C046F0010828461E4442F00105A1
:10D5B000C3F80480CCF80C40C4F808C07E613E611A
:10D5C000C6F80CE0C6F808E075605A50009300F009
:10D5D000C9FA009B03F108041EE0102920D800F0CE
:10D5E000BBFA102618230220724F3B445C68A3F15B
:10D5F0000802944200F02F816368E16823F003037E
:10D6000023445A68A66842F00102F16028468E6001
:10D610005A6000F0A7FA0834204603B0BDE8F08F46
:10D6200000240C2320462B6003B0BDE8F08F40207F
:10D630004FF400714FF03F0E4AE723445A68E16807
:10D64000E0E723445A68284642F001025A60083451
:10D6500000F088FA204603B0BDE8F08FBC6863682C
:10D6600023F00308B04504D3A8EB06030F2B00F307
:10D670008580DFF85891504BD9F800201B680132A3
:10D68000334404EB080A00F0548103F580530F3350
:10D6900023F47F6B2BF00F0B5946284600F068FAF5
:10D6A000411C024600F0FB80824500F2F680434BAD
:10D6B00019685944196000F04C81D9F80000013014
:10D6C0001BBFA2EB0A0A5144C9F80020196012F0EE
:10D6D000070100F01481C1F10800C1F58051024436
:10D6E000083102EB0B09C9F30B09A1EB0909494603
:10D6F00028460193009200F03BFA431C9DE80C0081
:10D7000000F04281801A484440F001001968BC4290
:10D710004944BA601960506017D0B8F10F0F40F259
:10D72000FA804FF0050C6268A8F10C0020F00700A9
:10D7300002F0010204EB000E02430F286260CEF8F3
:10D7400004C0CEF808C000F216811D4BBC681A68F0
:10D75000914288BF19601B4B1A689142626888BF6A
:10D76000196022F003029642A2EB060301D80F2BA8
:10D7700004DC284600F0F6F900244DE746F00102EB
:10D7800043F00103264462602846BE60083473609B
:10D7900000F0E8F9204603B0BDE8F08F142B70D9F3
:10D7A000542B00F2A280330B03F16F0003F16E0ED5
:10D7B000C1008DE618870720C43E0820943E08204B
:10D7C000BC3E0820C03E082020870720208B072071
:10D7D0005A0A042A5BD9142A00F2AE8002F15C01D5
:10D7E000C9005B3207EB010C7958ACF1080C8C4591
:10D7F00000F088804A6822F00302934273D289685D
:10D800008C45F7D1DCF80C307A68E360C4F808C0C6
:10D810009C60CCF80C409EE646F0010C42F0010101
:10D820002644C4F804C028467E613E61C6F80CE078
:10D83000C6F808E07160E25000F094F90834EBE6B5
:10D840007A6888E608F1010818F0030F0CF1080C5B
:10D850007FF493AE2DE0DC68A34208BF02303FF4B2
:10D860004BAEC9E61C4619444A68DB6854F8086F99
:10D8700042F001024A602846F3609E6000F072F9AF
:10D88000CAE603F15C0003F15B0EC10020E69A09D1
:10D8900002F13901C9003832A4E7BC4254D0BC6857
:10D8A000626822F003025EE759F80839994540F0B2
:10D8B000868010F0030F00F1FF30F5D17B6823EA7A
:10D8C00004037B6064009C423FF6C8AE002C3FF42A
:10D8D000C5AE1C4240467FF44CAE64001C4200F1D1
:10D8E0000400FAD045E68C468CE7B3F5AA7F15D83C
:10D8F000F30B03F1780003F1770EC100E8E54FF474
:10D900008051EEE601217B68921001FA02F21A437F
:10D910007A60634679E7012353602AE740F2545264
:10D92000934222D8B30C03F17D0003F17C0EC100B9
:10D93000CEE503F1100BAFE6542A29D81A0B02F1F9
:10D940006F01C9006E324DE7204B196859441960C8
:10D95000B3E6CAF30B0000287FF4AFAE08EB0B036D
:10D96000BA6843F001035360EFE67F204FF47E7105
:10D970004FF07E0EACE504F108012846009302F05A
:10D98000D3FD009B1968E0E601204FF00009BDE6D9
:10D99000B2F5AA7F05D8DA0B02F17801C900773217
:10D9A00020E740F254518A4205D89A0C02F17D01D9
:10D9B000C9007C3216E74FF47E717E2212E77B6845
:10D9C00080E7F00806F108030EE600BF943E082049
:10D9D000844641EA000313F0030349D1403A23D3BC
:10D9E0000B6803604B6843608B688360CB68C360DF
:10D9F0000B6903614B6943618B698361CB69C361C7
:10DA00000B6A03624B6A43628B6A8362CB6AC362AE
:10DA10000B6B03634B6B43638B6B8363CB6BC36396
:10DA200040304031403ADBD230320BD30B680360D8
:10DA30004B6843608B688360CB68C36010301031E3
:10DA4000103AF3D20C3205D351F8043B40F8043BB2
:10DA5000043AF9D2043208D0D2071CBF11F8013BB6
:10DA600000F8013B01D30B8803806046704700BF7C
:10DA7000082A13D38B07B1D010F00303AED0C3F143
:10DA80000403D21ADB071CBF11F8013B00F8013B6D
:10DA9000A4D331F8023B20F8023B9FE7043AD9D3E4
:10DAA000013A11F8013B00F8013BF9D20B78037001
:10DAB0004B7843708B7883706046704770B48607EC
:10DAC00046D0541E002A41D0CAB2034602E014F1E7
:10DAD000FF343BD303F8012B9D07F8D1032C2ED93B
:10DAE000CDB245EA05250F2C45EA054519D926464C
:10DAF00003F11002103E0F2E42F8105C42F80C5C4D
:10DB000042F8085C42F8045C02F11002F2D8A4F179
:10DB1000100222F00F0204F00F041032032C134401
:10DB20000DD91E462246043A032A46F8045BFAD869
:10DB3000221F22F003020432134404F003042CB128
:10DB4000C9B21C4403F8011B9C42FBD170BC704756
:10DB500014460346C2E700BF014802F0EBBD00BF18
:10DB6000D83E0820014802F0E7BD00BFD83E08209B
:10DB700038B50023064C054608462360F2F7ECFB57
:10DB8000431C00D038BD2368002BFBD02B6038BD70
:10DB9000EC3E08200EB40146F0B56FF000454FF49E
:10DBA00002774FF6FF769CB021AC54F8042B0B4B58
:10DBB00002910691186802A923460194ADF81470E9
:10DBC00004950795ADF8166000F0B4F90022029BA9
:10DBD0001A701CB0BDE8F04003B07047E88207201F
:10DBE000F8B507460E4617F8014B02F087FD2044B2
:10DBF000437816F8015B03F00303012B08BF2034C0
:10DC000002F07CFD2844437803F00303012B04D089
:10DC1000601B01D1002DE6D1F8BD05F12000201ACE
:10DC2000E1D0F8BD830710B5044610D10268A2F117
:10DC3000013323EA020313F0803F08D150F8042F88
:10DC4000A2F1013323EA020313F0803FF6D00378F8
:10DC50001BB110F8013F002BFBD100F003F8204668
:10DC600010BD00BF80EA0102844612F0030F4FD1BD
:10DC700011F0030F32D14DF8044D11F0040F51F89B
:10DC8000043B0BD0A3F101329A4312F0803F04BF52
:10DC90004CF8043B51F8043B16D100BF51F8044B3B
:10DCA000A3F101329A4312F0803FA4F101320BD16B
:10DCB0004CF8043BA24312F0803F04BF51F8043BF0
:10DCC0004CF8044BEAD023460CF8013B13F0FF0F4D
:10DCD0004FEA3323F8D15DF8044B704711F0010F80
:10DCE00006D011F8012B0CF8012B002A08BF704751
:10DCF00011F0020FBFD031F8022B12F0FF0F16BF48
:10DD00002CF8022B8CF8002012F47F4FB3D170470F
:10DD100011F8012B0CF8012B002AF9D1704700BF34
:10DD200020F0030110F00300C0F1000051F8043BA3
:10DD300000F1040C4FEACC0C6FF000021CBF22FA79
:10DD40000CF213434FF0010C4CEA0C2C4CEA0C4C37
:10DD5000A3EB0C0222EA030212EACC1204BF51F830
:10DD6000043B0430F4D0C2F1000102EA0102B2FA2D
:10DD700082F2C2F11F0200EBD200704740EA0103B9
:10DD800013F0030F70B4034624D0A2B10C78013A0B
:10DD90001C70013101333CB16AB111F8014B013AF9
:10DDA00003F8014B002CF7D12AB100211A4403F8E3
:10DDB000011B9A42FBD170BC70470E4651F8045BC0
:10DDC000A5F1013424EA050414F0803F05D1043A9A
:10DDD00043F8045B032AF0D8D7E73146D6E700BF03
:10DDE0002DE9F84FDDF828900F46804616461D466F
:10DDF0008A4600E0A2465446484614F801BB02F0A9
:10DE000079FC5844427812F00802F3D1BBF12D0F8F
:10DE10004FD0BBF12B0F04BF94F800B00AF10204FD
:10DE20001DB1102D56D0AC4604E0BBF1300F60D0D0
:10DE30000A25AC46002A0CBF6FF000494FF000499C
:10DE40000021B9FBFCFE08460CFB1E9A05E029D018
:10DE500001210CFB003014F801BBABF13003092B9E
:10DE600005D9ABF14103192B0BD8ABF137039D4218
:10DE70000FDDB1F1FF3FEED08645E8D24FF0FF3124
:10DE8000E9E7ABF16103192B03D8ABF157039D42CE
:10DE9000EFDC4B1C13D002B1404246B1C1B9376030
:10DEA000BDE8F88F9A45D3DA4FF0FF31D3E7BDE8EC
:10DEB000F88F94F800B001220AF10204B0E722239F
:10DEC000C8F80030EEB1671E48463760BDE8F88FED
:10DED0008146F8E7BBF1300FA5D1237803F0DF03CB
:10DEE000582BA0D14FF0100C94F801B065460234C5
:10DEF000A0E7237803F0DF03582BF3D00825AC46C6
:10DF000098E74846BDE8F88F084B70B51D68084E85
:10DF10006C6B82B0002C08BF3446134600940A464E
:10DF200001462846FFF75CFF02B070BDE88207207B
:10DF30002C8B07202DE9F04FC3B00C460B91924675
:10DF40000F930C9002F0E8FB036818461A93FFF752
:10DF5000E7FEA3891990190603D52369002B01F068
:10DF6000358000230DF1C809C84615931393149307
:10DF700018931B9309931693179327932693CDF821
:10DF800094909AF800305446EBB1252B02D11AE058
:10DF9000252B03D014F8013F002BF9D1A4EB0A057F
:10DFA0008DB1269B279A01332A44072BC8F800A07D
:10DFB000C8F804502792269300F38A8008F10808D5
:10DFC000099B2B4409932378002B00F089800023C0
:10DFD0004FF0FF301A468DF8773019460D939B4667
:10DFE000637804F1010A0A900AF1010AA3F1200002
:10DFF000582800F2B783DFE810F04C03B503B503EF
:10E000005403B503B503B503B503B503B503590010
:10E010005903B50366001402B5032F02A503A50337
:10E02000A503A503A503A503A503A503A503B503A0
:10E03000B503B503B503B503B503B503B503B50320
:10E04000B5038B02D302B503D302B503B503B50301
:10E05000B5031B03B503B5032003B503B503B5032F
:10E06000B503B5033402B503B5034B02B503B503DD
:10E07000B503B503B503B503B503B503B503B503E0
:10E0800076029E03D302D302D30263039E03B50339
:10E09000B5036803B5037503DD018C035E03B503A7
:10E0A000F201B5038700B503B50332030F9C236863
:10E0B00018460D932346002803F104030F9304DA56
:10E0C0000D9B5B420D934BF0040B9AF800308BE7ED
:10E0D00025AA0B990C9802F089FE40B9C8466FE753
:10E0E000279B23B10C9825AA0B9902F07FFE0B9B6E
:10E0F0009B8913F0400F099B18BF4FF0FF33099322
:10E10000099843B0BDE8F08F1BF0200F119340F049
:10E11000AF810F9A1BF0100F134640F09A851BF049
:10E12000400F00F0968500250123148804320F92D9
:10E13000002217468DF877200A994A1C00F01082B9
:10E140002BF08002079254EA050240F00F8200296A
:10E1500040F03184002B40F039851BF001030E9311
:10E1600000F06286302342AE06F8413D0A9B0E9ACB
:10E170009342B8BF134608930023129317B1089B2C
:10E1800001330893079B13F00203109302D0089BFE
:10E1900002330893079B13F0840540F010830D9B16
:10E1A000089AA3EB020BBBF1000F40F30883BBF10D
:10E1B000100F40F3B287279C43462146A8461027FC
:10E1C000269A0C9C0B9D06E0ABF1100BBBF1100FD7
:10E1D00003F1080318DD0132AB481031072A2791FB
:10E1E000269283E88100EFDD25AA2946204602F029
:10E1F000FDFD00287FF47BAFABF1100BBBF1100FDE
:10E200004B462799269AE6DC45460C46984601324D
:10E210009D4B5C44072A2794269288E8080800F35F
:10E22000C3829DF8777008F1080887B10121269B09
:10E230000C440B440DF17702072B27942693C8F862
:10E240000410C8F8002000F3CD8308F10808109BE3
:10E250007BB10221269B0C4401331EAA072B279475
:10E260002693C8F80410C8F8002000F3118408F1C0
:10E270000808802D00F004830A9B0E9A9F1A002F35
:10E2800037DD102F40F37986804D42462146B04657
:10E290004FF0100B2E46269B0C9C0B9D04E0103F6C
:10E2A000102F02F1080215DD01331031072B2791E1
:10E2B000269382E84008F2DD25AA2946204602F08E
:10E2C00095FD00287FF413AF103F102F4A46279981
:10E2D000269BE9DC35460C464646904601333C44D5
:10E2E000072B2794269388E8A00000F3708308F199
:10E2F0000808079BDF0500F16482269B0E99013315
:10E300000C44072B2794C8F80060C8F80410269323
:10E3100000F3B38308F10808079B5B073BD50D9B0F
:10E32000089A9D1A002D36DD102D40F32187102606
:10E33000269B0C9FDDF82CB004E0103D102D08F159
:10E34000080816DD0133504A1034072B2794269312
:10E3500088E84400F1DD25AA5946384602F046FD1A
:10E3600000287FF4C4AE103D102DC846279C269B84
:10E37000E8DC0133444A2C44072B2794269388E891
:10E38000240008DD25AA0B990C9802F02FFD002827
:10E390007FF4ADAE279C099B0D9A08998A42ACBFC9
:10E3A0009B185B180993002C40F0FB820023C846A1
:10E3B0002693E6E511931BF0200340F045811BF006
:10E3C000100240F066841BF0400300F062840F9955
:10E3D00013460A4604320C8800250F92A8E6002551
:10E3E0000F9A119316688DF87750141D002E00F0C7
:10E3F000CD860A9A531C00F01B862946304602F04F
:10E40000B3F9002800F00D87831B0A950E930F9433
:10E41000CDF81CB023EAE373089312959DF877704A
:10E42000ACE69AF800300AF101042A2B00F0C2870A
:10E43000A3F130000928A24600F2188700231C46E9
:10E440001AF8013B04EB840400EB4404A3F1300010
:10E450000928F5D90A94C9E54BF0800B9AF80030E9
:10E46000C2E54BF0100B1BF0200F11933FF451AE9F
:10E470000F9C073424F0070303F10802D3E9004599
:10E480000F92012354E600BFD44C0900E44C09006C
:10E490001193002A40F0AD87BE4B1BF0200F18935C
:10E4A00040F0E7800F9A1BF0100F134640F0D8831E
:10E4B0001BF0400F00F0D4830025043314880F9321
:10E4C0001BF0010F00F0E38054EA050300F0DF8049
:10E4D00030239DF844208DF878308DF879204BF06A
:10E4E000020B022324E601221193002311460F9808
:10E4F000089202681F468DF877300A931293031D25
:10E50000CDF81CB00E918DF8A0200F9328AE39E6FF
:10E510001193002A40F084874BF0100B1BF0200F62
:10E5200040F075840F9A1BF0100F134640F09D8346
:10E530001BF0400F00F09983B2F900400433E51757
:10E540000F9322462B46002A73F10003C0F29883F2
:10E550000A999DF877704A1C4FF001037FF4F0ADE3
:10E5600054EA050200F02982CDF81CB0012B00F01E
:10E570000E83022B40F09C824E461898230943EAF2
:10E580000573290904F00F020D461C46835C06F84A
:10E59000013D54EA0503F1D1A9EB06030E93E5E52D
:10E5A0001193002A40F038870F9C1BF0080F04F1EC
:10E5B000070400F0CF8424F0070303F108020F9250
:10E5C0001A685B6815921493149B159D23F0004400
:10E5D000284621464FF0FF326F4B02F095FF00288E
:10E5E00040F03484284621464FF0FF326A4B02F057
:10E5F0006DFF002840F02A8415A80DC8149902F078
:10E600005BFF002840F0D4859DF8777003231A46FD
:10E6100008930023614E19460A93614B0E92119A9A
:10E620002BF0800007901291472AD8BF1E46A5E51F
:10E630004BF0080B9AF80030D6E44BF0100B119316
:10E640001BF020033FF4BBAE0F9C073424F00703FC
:10E6500003F10802D3E900450F92002368E5119306
:10E66000002A40F0C2864F4B1BF0200F18933FF456
:10E6700019AF0F9C1BF0010F04F1070424F00703EE
:10E6800003F108020F92D3E900457FF41DAF022386
:10E690004EE59AF8003000297FF4A6AC0122202133
:10E6A000A2E44BF0010B9AF800309DE49AF8003098
:10E6B00001222B2198E44BF0200B9AF8003093E4D0
:10E6C0004BF0400B9AF800308EE49AF800306C2B37
:10E6D00003BF9AF801304BF0200B0AF1010A4BF00E
:10E6E000100B81E4002A40F07C861BF0200F40F0E4
:10E6F00052841BF0100F40F038841BF0400F00F0E4
:10E7000034840F9A136804320F92BDF824201A80C3
:10E7100037E4782330220F988DF879301193031D58
:10E720000F93204B046818934BF0020B8DF8782060
:10E7300000250223FCE41193002A3FF4EFAE8DF88C
:10E740007710EBE600200446A3F130001AF8013BF5
:10E7500004EB840400EB4404A3F130000928F5D94C
:10E760000D9443E41193002A40F04A86119A002A3E
:10E770003FF4B6AC002301211F4608918DF8A0207C
:10E78000CDF81CB08DF877300A9312930E9128AE15
:10E79000F8E400BFA04C0900FFFFEF7F944C090094
:10E7A000904C0900B44C090025AA0B990C9802F072
:10E7B0001DFB00287FF49BACC8469DF87770279C12
:10E7C00033E5119B652B40F39A8015A80DC8149969
:10E7D00002F068FE002800F093810121269BB54AD3
:10E7E0000B440C44072B27942693C8F80410C8F850
:10E7F000002000F3C68308F108081F9B139A279C8A
:10E80000934203DB079BDD077FF586AD269B1999B5
:10E8100001331A9A0C44072BC8F80020C8F80410DA
:10E820002794269300F3C48308F10808139B5E1E07
:10E83000002E7FF771AD102E40F37585224610270C
:10E84000269B9D4DDDF830B00B9C05E008F10808D3
:10E85000103E102E40F3258201331032072B2792F1
:10E86000269388E8A000F1DD25AA2146584602F04B
:10E87000BDFA00287FF43BACC846279A269BE7E701
:10E880000D9B089A9F1A002F7FF7F6AC102F40F3CC
:10E89000A884894D42462146B0464FF0100B2E46C3
:10E8A000269B0C9C0B9D04E0103F102F02F10802E8
:10E8B00015DD01331031072B2791269382E840089C
:10E8C000F2DD25AA2946204602F090FA00287FF4BE
:10E8D0000EAC103F102F4A462799269BE9DC35469F
:10E8E0000C464646904601333C44072B279426931A
:10E8F00088E8A00000F39E8208F10808BCE4139B9E
:10E90000012B40F34F820123269F1C441F44072FF5
:10E910002794C8F800602697C8F8043000F35F8297
:10E9200008F10808199A01371A9B1444072F2794F5
:10E930002697C8F80030C8F8042000F35C8208F17C
:10E94000080815A80DC8149902F0ACFD139B002807
:10E9500040F04181013B013701361C44072FC8F8C4
:10E96000006026972794C8F8043000F3668108F108
:10E9700008081B9A0137144421AB072F27942697C8
:10E98000C8F80420C8F800307FF7C4AC25AA0B995A
:10E990000C9802F02BFA00287FF4A9ABC846279CFC
:10E9A000BAE425AA0B990C9802F020FA00283FF44B
:10E9B000FDACFFF79CBBDDF81CB0012B00F07E81A5
:10E9C000022B71D1CDF81CB000240025D4E525AA76
:10E9D0000B990C9802F00AFA00287FF488ABC8461D
:10E9E000279C86E425AA0B990C9802F0FFF90028D1
:10E9F0007FF47DABC846279C29E40120269B2D4A45
:10EA000003440444072B27942693C8F80400C8F84D
:10EA1000002040F3D88225AA0B990C9802F0E6F961
:10EA200000287FF464ABC8461F99279C29B9139B23
:10EA30001BB9079BD8077FF56FAC1998269B024638
:10EA4000013322441A9C072B2792C8F80040C8F8CB
:10EA50000400269300F3318408F108080029C0F26D
:10EA60000984139901338C18072B27942693C8F82F
:10EA70000060C8F804107FF74DAC25AA0B990C98DC
:10EA800002F0B4F900287FF432AB279CC84643E477
:10EA900025AA0B990C9802F0A9F900287FF427AB5E
:10EAA000C846279CFFF7E5BB00240025CDF81CB025
:10EAB000494604E0D04C0900E44C09003146E20824
:10EAC00042EA4572E80804F007030546144630336D
:10EAD00054EA050201F8013C01F1FF36EED1079A34
:10EAE000D2077FF559AD302B3FF456AD30230239B4
:10EAF00006F8013CA9EB01030E930E46FFF736BB67
:10EB00001F9900297FF779AF129B139A9342A8BFF0
:10EB10001346002B1F460BDD269B3C440133072B7D
:10EB2000279488E8C000269300F3FB8208F10808C8
:10EB3000129B002FA8BFDB1B002B1F4640F3D78082
:10EB4000102B40F33484BA4D42462146B0464FF074
:10EB5000100B2E46269B0C9C0B9D04E00832103FA8
:10EB6000102F40F3B58001331031072B27912693E6
:10EB700082E84008F2DD25AA2946204602F036F94F
:10EB800000287FF4B4AA4A462799269BE7E7002D80
:10EB900008BF0A2CC0F090804E46204629460A2223
:10EBA0000023FEF78BFA303206F8012D2046294665
:10EBB00000230A22FEF782FA04460D4654EA0503B2
:10EBC000EBD1A9EB06030E93FFF7D0BA0A9B4E4692
:10EBD0000E93FFF7CBBA5E1E002E7FF7CAAE102E43
:10EBE00040F3E38322464FF0100B914D0C9C04E060
:10EBF000103E102E08F1080815DD01371032072FDE
:10EC00002792269788E82008F2DD25AA0B9920464E
:10EC100002F0ECF800287FF46AAA103E102EC846D5
:10EC2000279A269FE9DC144601373444072F27949E
:10EC3000269788E860007FF79AAE25AA0B990C9872
:10EC400002F0D4F800287FF452AA279C269FC846D9
:10EC50008FE604321C68002501230F92FFF768BA83
:10EC60001C6804330F9300252AE41C680433E5175D
:10EC700022460F932B46002A73F10003BFF668ACBF
:10EC80002D27644265EB45058DF877700123FFF76A
:10EC900053BA0F9900250A4604320C680F92FFF709
:10ECA00047BA144601333444072B2794269388E847
:10ECB00060007FF72FABE0E6DDF81CB0012342AE29
:10ECC0003034CDF81CB006F8414D0E93FFF74EBA24
:10ECD00035460C464646904601333C44072B279464
:10ECE000269388E8A00000F3468208F108081F9ADE
:10ECF000139B9A4245DB079BD90742D4139B12987A
:10ED00009A1A1D1A9542A8BF1546002D0EDD2699A8
:10ED1000064401312C440729C8F800602794C8F83C
:10ED20000450269100F3168208F10808002DB4BFA4
:10ED30001646561B002E7FF7EFAA102E40F3F382E3
:10ED400022461027269B3A4DDDF830B00B9C04E09C
:10ED500008F10808103E102EA3DD01331032072BF6
:10ED60002792269388E8A000F2DD25AA214658467E
:10ED700002F03CF800287FF4BAA9C846279A269BDF
:10ED8000E8E7269B199801331A990444072B279426
:10ED9000C8F80010C8F80400269300F3CF8108F1EA
:10EDA0000808ABE7079BDA073FF5ADAD0123269FC7
:10EDB0001C441F44072F2794C8F800602697C8F802
:10EDC00004307FF7D4AD25AA0B990C9802F00EF809
:10EDD00000287FF48CA9C846279C269FC9E525AA50
:10EDE0000B990C9802F002F800287FF480A9C8461D
:10EDF000279C269F96E525AA0B990C9801F0F6FF13
:10EE000000287FF474A9C846279C269F99E50F9C8B
:10EE1000073424F0070404F10801D4E900230F911A
:10EE200014461D46FFF78FBB4E46FFF79FB900BF44
:10EE3000E44C090025AA0B990C9801F0D7FF002893
:10EE40007FF455A9C846279CFFF716BA159C2246A1
:10EE50002046149C2346214602F056FB002840F031
:10EE600073820A9B0133119B23F020030E9300F061
:10EE70009C81472B00F0D6804BF480730793149B42
:10EE80001F1E159B0893B7BF3B46002303F10047A5
:10EE90002D231093119B662B00F09081462B00F0E0
:10EEA000A48002200E9B23A9452B0ABF0A9B0A9D22
:10EEB0005D1C8DE82100049120A81FA93B4603900A
:10EEC000089A02910C9800F0A3FB119B0646672B51
:10EED00040F0BA811BF0010F00F023827419169ADA
:10EEE0000898179B394602F0DDFA002840F024818B
:10EEF000239BA34206D230215A1C23921970239BD4
:10EF00009C42F9D89B1B13930E9B472B00F0A280C9
:10EF1000119B652B40F3A781119B662B1F9B1293BE
:10EF200000F07181139B129A1946914200F35D81A2
:10EF30001BF0010F40F0F08122EAE273089367238F
:10EF40000E921193109B002B7DD10A939DF8777040
:10EF5000FFF714B924F0070423681593636814932A
:10EF600004F108030F93FFF72FBB0F9A13680432C5
:10EF70000F92099A1A60FFF704B8269BAF4DFFF76E
:10EF8000ADB925AA0B990C9801F030FF00287FF449
:10EF9000AEA8C84631E40F9A134604330F93099B79
:10EFA0001168DD171A462B46C1E90023FEF7E9BFB9
:10EFB00025AA0B990C9801F019FF00287FF497A857
:10EFC000C846279C32E408F108082FE540210C9838
:10EFD000FEF75CFA0B9A10601061002800F01482B2
:10EFE00040230B9A5361FEF7BCBF03200A9C23A960
:10EFF0008DE81100049120A81FA90390089A3B46B0
:10F0000002910C9800F004FB25460646119B7419EA
:10F01000462B7FF464AF3378302B00F087811F9D3F
:10F020002C445CE70A9B002B08BF01230A9323E7CB
:10F0300030460A95FEF774FE0F940E90CDF81CB082
:10F040000346FFF7E7B92D2700238DF877700A9361
:10F05000FFF795B81F9B1A461293033304DB0A9BF4
:10F0600019469142BFF65EAF119B023B1193129B72
:10F070009DF84420013B002B8DF88420B4BF2D2245
:10F080002B221F93B8BF129B8DF88520B8BFC3F108
:10F090000103092B40F31F810DF193000146684CD9
:10F0A00000E0114684FB0352DD17C5EBA20505EB1A
:10F0B0008502A3EB42023032092D01F8012C2B46C8
:10F0C00001F1FF32EDDC30330239DCB2884202F864
:10F0D000014C40F292810DF18601134601E013F8D4
:10F0E000014B834201F8014BF9D101339B1A0DF119
:10F0F0008602134421AA9B1A139A1B93012A1344D4
:10F100000E9340F348810E9B199A13440E9323EA01
:10F11000E37308930023129314E7279C269AFFF7C2
:10F1200076B825AA0B990C9801F060FE00287EF4B1
:10F13000DEAFC846279CFBE42346E3E625AA0B99ED
:10F140000C9801F053FE00287EF4D1AFC8461F9AF8
:10F15000279CD3E525AA0B990C9801F047FE0028BF
:10F160007EF4C5AF1F9A139BC846279C9A1ADDE50B
:10F17000269BFFF7FEB825AA0B990C9801F036FEE6
:10F1800000287EF4B4AFC846279CB0E50A9B3746FA
:10F19000062B28BF06230A96129608930F94CDF8E3
:10F1A0001CB00E93274EFEF7E9BF06230A9363E6D1
:10F1B0002D231F468DF87730FFF728BA03200A9CCD
:10F1C00023A98DE81100049120A81FA90390089A93
:10F1D0003B4602910C9800F01BFA2546064604199E
:10F1E00019E7269B154DFFF77EBB199A139B134415
:10F1F000129A0E93002A40F3C78023EAE373089320
:10F20000672311939EE6002B40F3E1800A9A002ABF
:10F2100040F0B0801BF0010F40F0AC8008930E93DB
:10F2200090E60A9B0F9408930E930A90CDF81CB0B9
:10F2300012909DF87770FEF7A1BF00BFE44C090063
:10F2400067666666C84C0900119B472B7FF446AE83
:10F250001BF0010F7FF4DAAE239B9B1B13930E9BD5
:10F26000472B3FF4F7AE1F9B129300E700200A9054
:10F27000FEF7BCBE4F42103135DA10246A4DDDF87E
:10F2800030B004E008F10808103F102F2CDD0133E6
:10F290001032072B27922693C8F80050C8F8044074
:10F2A000F0DD25AA0B99584601F0A0FD00287EF458
:10F2B0001EAFC846279A269BE6E725AA0B990C980D
:10F2C00001F094FD00287EF412AFC8461F99279ADA
:10F2D000269BFFF7C3BB302213448DF887308DF88F
:10F2E000862022AB06E7504D01333A44072B88E8CD
:10F2F000A0002792269308F108087FF7B2AB25AA51
:10F300000B990C9801F072FD00287EF4F0AEC8460F
:10F31000279A269BFFF7A5BB129B199A13440E93BD
:10F320006BE7239BEEE5269B3F4DBBE4169A0898BE
:10F33000179B394602F0B6F800287FF470AEC5F18D
:10F3400001051F952C44CAE5149B384E002BBEBF07
:10F350002D231F468DF877304FF003031A4608938C
:10F360004FF00003A8BF9DF8777019460A93304B01
:10F37000FFF754B9129B199A13440A9A1A4422EAC5
:10F38000E2730E920893DDE5129B0E9AC3F101031E
:10F390001A441346C3E71BF0010312937FF4B3AE84
:10F3A0000E9B23EAE3730893CCE51F4D3CE4269BB8
:10F3B0001D4D91E40F9D9AF801302868A24640EA5D
:10F3C000E0700A90284604300F90FEF70DBE0A9BAD
:10F3D00013B91BF0010F02D0199B0133CDE70123B4
:10F3E0001CE78DF87710FFF780B98DF87710FFF7DD
:10F3F0003AB98DF87710FFF74FB80DF1860379E62B
:10F400008DF87710FFF7B2B94FF0FF320C23099255
:10F410000C9A1360FEF774BE8DF87710FFF7C4B82E
:10F420008DF87710FFF778B8E44C09009C4C090080
:10F43000984C090070B5141E9AB005462CDB1A468C
:10F440004FF4027300910491ADF80C304FF6FF7643
:10F450000FD0013C1E9B694602940594ADF80E60E6
:10F46000FEF768FD421C10DB0022009B1A701AB0E8
:10F4700070BD1E9B694602940594ADF80E60FEF7C0
:10F4800059FD431C04DB1AB070BD8B232B60EBE7E6
:10F490008B232B601AB070BD8B234FF0FF302B6095
:10F4A000F1E700BF10B5064C82B000932468134604
:10F4B0000A4601462046FFF7BDFF02B010BD00BF5F
:10F4C000E8820720024B13B1024800F005B87047EC
:10F4D0000000000055040900002301461A461846A2
:10F4E00001F00EBD2DE9F04F03690F6983B09F4213
:10F4F00000F38880013F01F1140600F1140A56F868
:10F5000027305AF827200133B2FBF3F8BB000093F1
:10F5100006EB030953440193B8F1000F3BD00023DD
:10F52000B4461C46D6465CF8042BDEF800501FFAA1
:10F5300082FB08FB0B33120C4FEA134B08FB02BB98
:10F540009AB2A21AABB21FFA8BF41A44C4EB154458
:10F5500004EB224492B242EA0442E1454EF8042B05
:10F560004FEA24444FEA1B43DDD2009B5AF8033094
:10F570008BB9019C231F9A450CD254F8043C4BB91B
:10F58000A4F1080302E01A68043B1AB99A4507F18E
:10F59000FF37F8D30761044601F02AFB00282DDB72
:10F5A0005546002308F1010856F8041B28688AB262
:10F5B0009A1A0B0C81B20A44C3EB104303EB2243AB
:10F5C00092B242EA0342B14545F8042B4FEA234385
:10F5D000EAD25AF827200AEB87037AB91A1F924514
:10F5E0000BD253F8042C42B9083B02E01A68043BE2
:10F5F0001AB99A4507F1FF37F8D32761404603B09F
:10F60000BDE8F08F002003B0BDE8F08F00000000DF
:10F610002DE9F04F056C9BB0044692469B46279E11
:10F620004DB10123426C29469340AB606A6001F002
:10F6300007F900232364BBF1000F5D4635DB00238F
:10F6400033609D4BAB4315D00022002350465946F2
:10F6500001F028FF804600282DD00123269A136050
:10F66000289B002B00F0BD809448186001381BB027
:10F67000BDE8F08F42F20F73269A1360BAF1000FC3
:10F680000DD1C5F3130555B9289B8D48002BEED03D
:10F6900000F10803289A13601BB0BDE8F08F289B87
:10F6A0008848002BE3D0C31CF4E701232BF000456E
:10F6B0003360AB46C5E718AA19AB019200935246D6
:10F6C0005B46204601F03EFB2B0D814671D0504633
:10F6D000CBF3130242F07F51189FA3F2FF36CDF80F
:10F6E000508041F440110022774BFDF721F96CA3C3
:10F6F000D3E90023FDF7D0FA6BA3D3E90023FDF78C
:10F7000019F9CDE902013046FDF760FA68A3D3E9A3
:10F710000023FDF7C1FA02460B46DDE90201FDF7C1
:10F7200009F9CDE9040101F005FF00220290002350
:10F73000DDE9040101F0C0FE002840F06D81029D6A
:10F74000162D00F257816149524601EBC5015B4617
:10F75000D1E9000101F0CEFE002800F0BE816B1E51
:10F76000029300230E93BF1B7B1E089300F14E8172
:10F7700000230A93029B002BC0F23F81089A0D934D
:10F7800011461944002308910C93249B092B2AD875
:10F79000052B40F358860025043B2493249B023B11
:10F7A000032B00F23F86DFE813F0CE03C302D90338
:10F7B0005B04189F199E3E4406F23243202B40F30F
:10F7C0008781C3F1400306F212409D402AFA00F0FF
:10F7D0002843FDF7EBF90123013E1493A1F1F871E1
:10F7E00081E73B4843E7002120466164259101F011
:10F7F00001F84FF0FF3307930F930123259A0490EC
:10F80000206424920B93199B002BC0F2D380029AA0
:10F810000E2A00F3CF802D4B03EBC203D3E9002364
:10F82000CDE90823259B002BC0F2B483DDE90856FF
:10F8300050462A4633465946FDF758FB01F07AFEFA
:10F840008046FDF7C3F92A463346FDF725FA0246FE
:10F850000B4650465946FDF76BF8079E049F08F18A
:10F860003005012E3D7002460B4607F1010564D0BC
:10F870000022184BFDF710FA0022002306460F461F
:10F8800001F010FE002840F08280CDF828904FF063
:10F89000000ADDE908894FF0000B0B9429E000BF56
:10F8A00061436F63A787D23FB3C8608B288AC63F86
:10F8B000FB799F501344D33F0000F07FD14C0900E7
:10F8C000F44C0900004D09000000F83F404D0900CC
:10F8D000D04C0900000024400022814BFDF7DCF9E8
:10F8E00052465B4606460F4601F0DCFD002840F01C
:10F8F000BA8342464B4630463946FDF7F7FA01F0E7
:10F9000019FE0446FDF762F942464B46FDF7C4F97D
:10F9100002460B4630463946FDF70AF804F1300638
:10F9200005F8016B049E079FAE1BBE4202460B46C4
:10F93000D2D1A046DDF828900B9C10461946FCF762
:10F94000F9FF06460F4602460B46DDE9080101F0C5
:10F95000B3FD48B9DDE9080132463B4601F0A2FD9E
:10F96000A8B118F0010F12D015F8018C6B1E049A83
:10F9700004E09A4200F0028413F8018DB8F1390FC7
:10F9800003F10105F5D008F1010883F8008049462C
:10F99000204600F055FF0022029B2A70269A013370
:10F9A0001360289B002B00F09F8304981D601BB000
:10F9B000BDE8F08F0B9A002A3ED0249A012A40F32A
:10F9C0001183079B0C9A5F1EBA42C0F29083D71B2B
:10F9D000079B002BC0F28C840A9D079B0A9A012189
:10F9E0001A440A92089A20461A44089200F0C4FF6A
:10F9F000064623E001230E93B5E600230A9A0D93F1
:10FA0000029BD21A5B420A920C93BEE6C7F1010335
:10FA10000A9300230893ADE6029D2846FDF7D6F829
:10FA200002460B46DDE9040101F03CFD00287FF4AD
:10FA300086AE6B1E029382E60AADE0CD002D0CDD92
:10FA4000089900290B4608DDA942A8BF2B460A9A4F
:10FA5000ED1AD21ACB1A0A9208930C9BD3B10B9BC6
:10FA6000002B00F0B882002F10DD31463A462046C8
:10FA700001F01EF84A4601460646204600F086FF81
:10FA8000034649462046994600F0DAFE0C9BDA1BF5
:10FA900040F0A2820121204600F06EFF0D9B8046BF
:10FAA000002B1FDD01461A46204601F001F8249B79
:10FAB0008046012B40F3558200230C93D8F8103078
:10FAC00008EB8303186900F007FFC0F1200013E082
:10FAD000C3F120050AFA05F07BE60E9043E600BF6D
:10FAE00000002440249B012B40F3858200230C93CB
:10FAF0000D9B0120002BE1D1089A104410F01F004B
:10FB000000F0A180C0F12003042B40F386840A9BFF
:10FB1000C0F11C0003440A931346034405440893B0
:10FB20000A9B002B05DD49461A46204601F010F8D5
:10FB30008146089B002B05DD41461A46204601F010
:10FB400007F880460E9B002B40F08680079B002B19
:10FB500040F364820B9B002B00F09880002D05DDA4
:10FB600031462A46204600F0F3FF06460C9B002B48
:10FB700040F036830896079B049A013BD3180B93F9
:10FB800017460AF00103C246DDF820B00C93514637
:10FB90004846FFF7A7FC31460546484601F028F8DD
:10FBA0005A4607905146204601F03EF8C26880460A
:10FBB00005F13003002A40F02982014648460A93A5
:10FBC00001F016F841460890204600F039FE089AE8
:10FBD0000A9B32B9249921B90C9A002A00F0EE83CD
:10FBE000249A07990029C0F29F8205D1249919B956
:10FBF0000C99002900F09882002A00F305830B9AE3
:10FC000007F1010897423B70454600F00B834946D7
:10FC100000230A22204600F01DFE5E458146314643
:10FC20004FF000034FF00A02204600F0E98100F097
:10FC300011FE5946064600230A22204600F00AFE1D
:10FC400047468346A3E71C200A9B054403440A93C6
:10FC5000089B0344089363E74146484600F0C8FF09
:10FC60000028BFF673AF029F494600230A222046B0
:10FC7000013F029700F0EEFD0B9B8146002B40F008
:10FC8000B5830F9B002B40F3BE830793DDF810A0D4
:10FC9000079F554606E0494600230A22204600F009
:10FCA000D9FD814641464846FFF71CFC303005F837
:10FCB000010BA5EB0A03BB42EDDB049B079A8246CE
:10FCC000012AACBF9B1801334FF0000B1D4649467B
:10FCD0000122204600F03CFF4146814600F088FFAB
:10FCE000002840F33F8215F8012C6B1E049904E0B4
:10FCF0008B4200F0AE8113F8012D392A03F1010582
:10FD0000F6D001321A704146204600F099FD002ECF
:10FD10003FF43DAEBBF1000F05D0B34503D05946CB
:10FD2000204600F08DFD3146204600F089FD2EE68C
:10FD300000230B93029B259A13440F930133012B4D
:10FD40001F461E46B8BF012707930021172F616485
:10FD50000AD9012204235B0003F1140087421146F3
:10FD600002F10102F7D26164204600F043FD0E2E3D
:10FD7000049020643FF647AD002D3FF444AD029956
:10FD8000CDE910AB002940F30382B94B01F00F021B
:10FD90000D1103EBC203E906D3E9006740F1AF811F
:10FDA000B44B5046D3E908235946FDF79FF84FF06E
:10FDB000030ACDE9120105F00F058DB1DFF8B48219
:10FDC000EA0709D5D8E9002330463946FCF764FF35
:10FDD00006460F460AF1010A6D1008F10808EFD136
:10FDE0003B46DDE912013246FDF780F807468846BA
:10FDF0000E9B43B10022A04B3846414601F05CFB0C
:10FE0000002840F087825046FCF7E0FE3A46434621
:10FE1000FCF742FF994B0022FCF78CFD079B05463F
:10FE2000A1F15076002B00F03F81029B1593079BB8
:10FE300012930B9B002B00F0FB81129A8C4B00203D
:10FE400003EBC20353E902238D49FDF74FF82A461D
:10FE50003346FCF76DFD82468B463846414601F03D
:10FE600069FB0546FCF7B2FE02460B4638464146A2
:10FE7000FCF75EFD30355FFA85F8049D06460F46B7
:10FE800085F8008002460B4650465946013501F080
:10FE900031FB002854D132463B4600207649FCF71E
:10FEA00047FD02460B465046594601F023FB002809
:10FEB00040F07082129A012A00F01281129B049A7B
:10FEC000CDF84890134499460FE032463B46002057
:10FED0006949FCF72DFD52465B4601F0EDFA00281A
:10FEE00040F056824D4500F0F980504659460022B8
:10FEF000644BFCF7D1FE0022624B82468B463046B3
:10FF00003946FCF7C9FE0F46064601F013FB804652
:10FF1000FCF75CFE02460B4630463946FCF708FD0E
:10FF200008F130085FFA88F805F8018B52465B4605
:10FF300006460F4601F0C0FA0028C6D0DDF848900A
:10FF4000159B029323E500230B93259B002B40F385
:10FF5000DD801F461E460F930793F6E601230B93A1
:10FF6000F3E7BAF1000F7FF4A7ADCBF31303002B37
:10FF70007FF4BCAD2BF000473F0D3F05002F00F094
:10FF80000D820A9B01330A93089B013308930123D6
:10FF90000C93ADE5079B002B3FF748AC40F0228265
:10FFA000DDE908010022384BFCF776FE52465B463D
:10FFB00001F096FADDF81C804646002841D0259BCA
:10FFC000049DDB4302934146204600F039FC002E9D
:10FFD0003FF4DDACA7E60C9A4946204600F068FDE8
:10FFE000814657E5149A002A00F0888103F23343D2
:10FFF0000C9F0A9DF2E4BAF1000F7FF477ADB4E7ED
:0200000290006C
:1000000000F028FC474606468346C0E501462046E8
:10001000089300F015FC0122089BE2E5249B022BCB
:100020007FF798AD079B002BC9D14146052220469A
:1000300000F010FC01468046484600F0D9FD00283B
:10004000BDDD3123029A0499013202920B704D1CDE
:10005000B9E73123029A01320292049A137052E6F0
:1000600001230B9366E6DDF828900B9C8FE400BF1C
:10007000404D0900184D09000000F03F00001C40F1
:100080000000E03F00002440000014405046FCF710
:100090009DFD3A464346FCF7FFFD0022C14BFCF7AD
:1000A00049FC0546A1F1507641460022BE4B384638
:1000B000FCF73EFC2A46334682468B4601F01AFA8C
:1000C0008046002840F010812A4606F10043504641
:1000D000594601F0F1F918B1464670E7DDF848904D
:1000E000DDE910ABFFF78FBB0498FFF7C0BA0C9B9C
:1000F0000D9AFB1A1A440C970D92002768E4DDE96B
:1001000010234FF0020ACDE9122356E60021012305
:1001100020466164259300F06DFB259B04900793B6
:10012000259B20640F9327E6002AD046CDF820B007
:100130009A4611DD49460122204600F009FD41465C
:10014000814600F055FD002840F34581BAF1390F92
:1001500000F0058105F1310AB34687F800A07D1C47
:10016000089ED0E504D11AF0010F01D0BBE5154679
:1001700015F8013C6A1E302BF9D0C4E530220499F1
:100180000A70029A15F8018C01320292FFF7FBBB4C
:1001900000F0BB80DDE91001029B4FF0020A5D42D6
:1001A000824B05F00F0203EBC203D3E90023FCF7F7
:1001B00073FD2D11074688463FF41AAE7C4EEB07BF
:1001C00009D5D6E9002338464146FCF765FD0746C8
:1001D00088460AF1010A6D1006F10806EFD107E61C
:1001E0007168204600F006FB0546336906F10C01F4
:1001F00002339A000C30FDF7EBFB29460122204622
:1002000000F0A6FC0890B6E4392BCDF820B0D0461B
:1002100000F0A58003F1010AB34687F800A07D1C19
:10022000089E70E55A46D046B3469A4616464EE5B5
:1002300012985E492A4601EBC001334651E902019A
:10024000FCF72AFDCDE916013846414601F072F966
:100250000546FCF7BBFC02460B4638464146FCF718
:1002600067FB06461298049A3035012815700F4630
:1002700002F1010526D0129B049ACDF84890134450
:100280004FF0000A9946DFF830B152465B463046DF
:100290003946FCF701FD0F46064601F04BF9804652
:1002A000FCF794FC02460B4630463946FCF740FB0F
:1002B00008F1300805F8018B4D4506460F46E4D19C
:1002C000DDF848900022DDE916013A4BFCF732FBDD
:1002D00032463B4601F0F0F8002846D0159B0293C9
:1002E00015F8018CFFF742BB4FF000084646A8E620
:1002F0000A9B079A9D1A0023FFF770BB189B0C9F5F
:10030000C3F136030A9DFFF769BBDDE910784FF0B2
:10031000020A6DE5079B002B3FF4B8AE0F9B002B44
:100320007FF7DEAE0022244B38464146FCF7B4FC92
:10033000074688460AF10100FCF748FC3A46434666
:10034000FCF7AAFC0022174BFCF7F4FA029A0F9B69
:10035000013A05461592A1F15076129369E53922CA
:10036000B3463A70089E7D1CBFE4DDE916230020E9
:100370001049FCF7DDFA32463B4601F0BBF808B9FC
:10038000AEE6154615F8013C6A1E302BF9D0D7E5CC
:10039000DDF84890159B0293FFF7E8BA0C97FFF73A
:1003A000A7BB00BF00001C4000001440404D0900E6
:1003B000184D09000000E03F00002440392BCDF823
:1003C00020B0D046DDF81CB09A46C8D0BBF1000F73
:1003D0003FF7C0AEC0E67FF4BFAE1AF0010F3FF4A6
:1003E000BBAEB3E64FF000084646E8E531460023D1
:1003F0000A22204600F02EFA0F9B0646002B07DD4E
:100400000793FFF7ABBB249B022B1FDC0F9B3CE445
:10041000249B022B1ADC0F9BF2E73FF481ABC0F167
:100420003C0011E4002520466564294600F0E2F90D
:100430004FF0FF3307930F93012304902595206419
:100440000B93FFF7E0B90125FFF7A8B90F9B0793BE
:10045000E8E500BF38B50A4C0A4D641BA4100AD069
:1004600004F18043013B05EB8305013C55F8043959
:100470009847002CF9D1BDE8384004F057BD00BFC3
:10048000544F0900504F0900F8B50C46234F06465B
:10049000FDF762FBBB68C4F57E615D680F3125F036
:1004A0000305294421F47F6121F00F01A1F5805457
:1004B000B4F5805F07DB00213046FDF759FBBB68D0
:1004C0002B44984204D03046FDF74CFB0020F8BD89
:1004D00061423046FDF74CFB01300DD0104BBA683D
:1004E00019682D1B45F001053046091B5560196040
:1004F000FDF738FB0120F8BD00213046FDF738FB41
:10050000BA68831A0F2BDEDD064C0549246843F0D8
:100510000103001B53600860D5E700BF1887072060
:10052000943E0820208B0720002944D02DE9F0417B
:100530000D468046FDF710FB55F8047C6949A5F18E
:10054000080427F00103E2188E685068B24220F0D8
:1005500003005ED0FE0750600BD455F8087C01F113
:10056000080EE41BA5683B4475456DD0E768EF6055
:10057000BD6015186D68ED073ED543F0010262605D
:10058000E350B3F5007F17D20122DB0898104D68C5
:10059000134451F83370824001EBC3002A430838FA
:1005A000E060A7604A6041F83340FC604046BDE827
:1005B000F041FDF7D7BA70475A0A042A52D89A096F
:1005C00002F13907FF0002F13805C819CA59083885
:1005D00090424FD0516821F003018B4232D2926891
:1005E0009042F7D1C368A060E3609C60C46040465D
:1005F000BDE8F041FDF7B6BA95683B4F0344BD42F4
:1006000040D0D06843F00102E86085606260E3504A
:10061000B7E7FF07034407D455F8085C641BE2689A
:10062000A0682B44C2609060304A43F00100126819
:10063000606093428C60B9D32D4B40461968FFF738
:1006400023FFB3E71046CDE711184968C90744D422
:1006500091680344D26843F00100CA609160606011
:10066000E350A3E7142A16D802F15C07FF0002F159
:100670005B05AAE70123AA104D6893402B434B600A
:100680000346B0E743F001024C610C61E560A560F0
:100690006260E3508AE7542A06D81A0B02F16F070A
:1006A000FF0002F16E0590E7B2F5AA7F06D8DA0BDB
:1006B00002F17807FF0002F1770586E740F2545017
:1006C000824206D89A0C02F17D07FF0002F17C05F8
:1006D0007BE74FF47E777E2577E743F00101616089
:1006E000136063E71887072020870720248B0720E3
:1006F000C43E0820D0F8EC00704700BF044B054A08
:100700001B685B6B002B08BF1346D3F8EC007047E7
:10071000E88207202C8B0720044A054B1268506B97
:10072000002808BF1846F030704700BFE882072055
:100730002C8B0720704700BF704700BF82B049B1C3
:100740005AB16BB113780B601278101C18BF0120DE
:1007500002B0704701A9002AF3D1104602B07047D9
:100760006FF00100F4E700BF830770B4CDB23DD055
:10077000541E0AB30378AB421FD0431C05E014F1AA
:10078000FF3419D30278AA4217D013F0030F18468A
:1007900003F10103F3D1032C11D84CB30378AB421E
:1007A0000BD00444431C02E00278AA4205D09C42CC
:1007B000184603F10103F7D1002070BC704709020D
:1007C00089B2294341EA0141036806464B40A3F13F
:1007D000013222EA030313F0803F00F1040003D149
:1007E000043C032CF0D8D8E73046D7E71446D2E7CC
:1007F0002046E2E7C36C70B505460C464BB153F892
:10080000240080B1026843F8242000230361C36000
:1008100070BD21220421FCF7E1FDE86403460028B5
:10082000EDD1002070BD012101FA04F6721D2846A9
:100830009200FCF7D3FD0028F3D044608660E4E723
:1008400031B1C36C4A6853F82200086043F82210A3
:10085000704700BFF0B50C4605464FF0000E0E691C
:1008600083B001F1140738680EF1010E81B202FB6A
:100870000133010C180C02FB01019BB203EB014395
:10088000764547F8043B4FEA1143ECDC3BB1A268E4
:10089000964207DA04EB8602013653612661204650
:1008A00003B0F0BD6168284601310193FFF7A2FF54
:1008B0000746226904F10C01023292000C30FDF768
:1008C00087F8EA6C6168019B52F82100206042F8C9
:1008D00021403C46DEE700BF020C12040346B2B9D9
:1008E0000304102013F07F4F04BF1B02083013F0E5
:1008F000704F04BF1B01043013F0404F04BF9B0036
:100900000230002B02DB5B0003D420207047002064
:10091000E8E70130704700BF0368014613F00702A3
:1009200007D0DA0721D4980721D49B080B60022056
:10093000704798B298B1104613F0FF0F04BF1B0A1E
:1009400008301A0704BF1B0904309A0704BF9B082C
:100950000230DA0707D45B0804D1202070471B0C53
:100960001020E9E701300B607047002070475B08FA
:100970000B600120704700BF10B50C460121FFF746
:1009800039FF01224461026110BD00BF2DE9F04F23
:100990000C69156983B0AC428B46164604DA2246D0
:1009A000B3462C460E461546DBF8083004EB050826
:1009B000DBF804109845C8BF0131FFF71BFF00F1B9
:1009C000140909EB880AD145009005D24B46002155
:1009D00043F8041B9A45FBD806F1140C0CEB850375
:1009E0000BF1140B9C450BEB840E4BD2CDF804A0FD
:1009F0009A46DCF80050AFB2E7B14D465E460021A2
:100A000056F8042B286893B284B2120C07FB0343F8
:100A1000000C07FB02020B4402EB13419BB243EABA
:100A20000143B64545F8043B4FEA1141E8D8296037
:100A3000DCF800502D0C1DD0D9F8003048461C467B
:100A4000594600220E88240C05FB06449BB2224422
:100A500043EA024340F8043B51F8043B04681B0C92
:100A6000A6B205FB03638E4503EB12434FEA134224
:100A7000E8D803600CF1040CE24509F10409B8D888
:100A8000DDF804A0B8F1000F0BDD5AF8043CAAF120
:100A9000040A1BB105E05AF8043D13B9B8F1010886
:100AA000F9D10098C0F8108003B0BDE8F08F00BF06
:100AB00012F003032DE9F041144607462ED10D46EE
:100AC000A4101CD0BE6C96B3E3074FF0000806D408
:100AD000641014D03068A8B10646E307F8D5324652
:100AE00029463846FFF752FFB5B16A68FB6C6410BF
:100AF00053F82210296043F822500546EAD12846CF
:100B0000BDE8F081324631463846FFF73FFF30609E
:100B1000C0F800800646E0E70546D9E70B4A013BEE
:100B200052F823200023FFF795FE0546C8E7012170
:100B30003846FFF75FFE40F2712101220023416138
:100B400002610646B8640360BEE700BF084E0900B4
:100B50002DE9F8430B69541104EB03088B6808F185
:100B600001059D420E4691460746496804DD5B003B
:100B70009D4201F10101FADC3846FFF73BFE002CF3
:100B800000F1140306DD002103EB840243F8041B8B
:100B90009A42FBD1346906F1140119F01F0901EBE7
:100BA000840E1DD00022C9F1200C0C6804FA09F44F
:100BB000144343F8044B51F8042B8E4522FA0CF2EF
:100BC000F3D81A600AB108F10205FB6C7268013DA6
:100BD00053F822100561316043F82260BDE8F883C4
:100BE000043B51F8042B8E4543F8042FF9D8ECE769
:100BF00030B40B6905460069C01A0FD19B0014354B
:100C0000143119442B4401E09D4207D253F8044D9E
:100C100051F8042D9442F7D002D3012030BC704724
:100C20004FF0FF30FAE700BF2DE9F84F0C69894615
:100C300011699246641A002C17D1890009F1140732
:100C400002F114067B18314401E09F4265D253F84B
:100C5000045D51F8042D9542F7D067D24B46BB4650
:100C6000D14637469A46012405E061DB002409F1AC
:100C700014070AF1140BD9F80410FFF7BBFD5D4609
:100C80004FF00008D9F810E0DAF810303E46C460A2
:100C90000BEB830C07EB8E0700F1140456F8049B52
:100CA00055F8042B1FFA89F343441FFA82F8120CFB
:100CB000A3EB0803C2EB194202EB23429BB243EAC7
:100CC0000243AC4544F8043B4FEA2248E6D8B74219
:100CD00017D9A446354655F8043B99B241440A1445
:100CE00002EB134289B241EA0243AF424CF8043BA3
:100CF0004FEA2248EFD8F643374427F0030704377A
:100D00003C44043C2BB954F8043D0EF1FF3E002B4B
:100D1000F9D0C0F810E0BDE8F88F0021FFF76AFDB8
:100D20000122002302614361BDE8F88FB346A2E7C8
:100D30004B4609F1140B02F11407914601249A461F
:100D400099E700BFF0B5012183B01C46C3F30A55F3
:100D50001646FFF74FFDC4F3130407460DB144F4E4
:100D60008014019406B302A840F8086DFFF7D4FD83
:100D7000002830D19DE80C007A61002B0CBF0121C6
:100D80000221BB613961D5B9089A07EB8103A0F252
:100D9000324010601869FFF79FFD099BC0EB4110BE
:100DA0001860384603B0F0BD01A8FFF7B5FD012279
:100DB000019B114620303A617B61002DE4D0A5F201
:100DC0003343089A03441360099BC0F1350018604F
:100DD000384603B0F0BD019BC0F12002009903FA30
:100DE00002F20A43C34001937A61C6E72DE9F04F4E
:100DF000936883B09046002B70D082460C461768EB
:100E00008D68086842E0A38913F4906F2ED065695D
:100E1000216905EB4505A0EB010B05EBD5750BF141
:100E200001006D103044A8422A4684BF05462A4678
:100E30005B0538D511465046FCF728FB00283CD00E
:100E40005A4621690190FCF7C3FDA289019B22F457
:100E5000906242F08002A281A5EB0B0203EB0B0033
:100E60006561B346354623612060A2605A46494613
:100E700000F0A8F8D8F80830A2682068551B58443C
:100E80009E1BA5602060C8F808603EB37E683B46A4
:100E90000837002EFAD0AE42D3F80090AB46B2D25B
:100EA0003546B346E2E7504600F0F0F80346002826
:100EB000D2D121695046FFF737FB0C2300224FF0B7
:100EC000FF30CAF80030A38943F04003A381C8F87B
:100ED0000820C8F8042003B0BDE8F08F0020C8F84F
:100EE000040003B0BDE8F08F19B1FF2A03D80A70DF
:100EF0000121084670478A234FF0FF310360F8E76D
:100F00002DE9F8432C4D0646286898460F46914631
:100F1000FFF710FC294B1C68D4F84831002B3ED059
:100F20005A681F2A1CDC02F1010E76B1012103EB85
:100F30008204C4F88890D3F8880191400843022EB7
:100F4000C3F88801C4F8088123D00232C3F804E052
:100F5000286843F82270FFF7EFFB0020BDE8F88314
:100F6000174B0BB34FF4C870AFF300800346D8B1F2
:100F70000020D4F848114FF0010E58601960024665
:100F8000C4F84831C3F88801C3F88C01002EDCD0C6
:100F9000CCE7D3F88C010143C3F88C11D5E704F5F5
:100FA000A673C4F84831BBE72868FFF7C5FB4FF0CC
:100FB000FF30BDE8F88300BF288B07208C4C090068
:100FC000000000008842F0B50DD98B1898420AD273
:100FD0008418002A51D0224613F8014D994202F894
:100FE000014DF9D1F0BD0F2A48D941EA00039B0712
:100FF00046D1154600F1100401F1100353F8106CAE
:10100000103D44F8106C53F80C6C0F2D44F80C6C28
:1010100053F8086C04F1100444F8186C53F8046C8D
:1010200003F1100344F8146CE8D8A2F1100323F084
:101030000F0302F00F0E1033BEF1030F19440344E7
:1010400021D90E4674461D1F56F8047B043C032C20
:1010500045F8047FF8D8AEF1040424F00304043406
:101060002144234402F0030262B1013B0A4411F817
:10107000014B8A4203F8014FF9D1F0BD0346F3E773
:101080000346F2E7F0BD7246EEE700BF002900F02C
:1010900094802DE9F04F0C46154683B0804605F14B
:1010A0000B06FCF759FD54F804EC162E2EF003073E
:1010B000A4F108093CD810221646B5423DD8974203
:1010C00043DAC64B09EB07009968884200F0C380F9
:1010D000436823F0010101444968C9074DD51EF05A
:1010E000010F00F09B8029464046FCF7CFF90546EA
:1010F00000283BD054F8043CA0F1080223F001037F
:101100004B449A4200F02B813A1F242A00F21881A6
:10111000132A00F2EB8003462246116819605168D9
:10112000596092689A6021464046FFF7FDF91DE03C
:1011300026F00706002E3246BFDA00250C2328468B
:10114000C8F8003003B0BDE8F08F2546BB1B0F2B5D
:10115000D9F804201DD802F001023A4309EB070137
:10116000C9F804204B6843F001034B604046FCF78C
:10117000F9FC284603B0BDE8F08F23F00303F9180B
:1011800091421DDBC36882682546D3600F469A6092
:10119000DCE702F0010209EB060143F001033243F0
:1011A000C9F804204F444B607B68083143F00103C9
:1011B0007B604046FFF7B8F9D8E71146FCF766B9FF
:1011C0001EF0010F8FD154F8081CA9EB010ADAF8C0
:1011D000041021F003010B443B44934226DB5546A7
:1011E000C16880683A1FC160886055F8080FDAF856
:1011F0000C10242AC160886026D8132A40F281800E
:1012000021681B2ACAF808106168CAF80C1000F29D
:10121000AD8004F108000AF1100274E054F8083CB3
:10122000A9EB030ADAF8041021F003017B189342BA
:10123000FFF659AF5546DAF80C1055F8080F3A1F6B
:10124000242AC1608860D8D9214628461F46D14645
:10125000FFF7B8FE7AE7416806F1100021F0030BB2
:10126000BB44834558DA1EF0010F7FF43CAF54F8BD
:10127000081CA9EB010ADAF8041021F003018B44E1
:101280005845D3DC5546DAF80C1055F8080F3A1FCC
:10129000242AC160886000F28D80132A40F2878082
:1012A00021681B2ACAF808106168CAF80C1000F2FD
:1012B000888004F108010AF110020868106048688B
:1012C000506089689160ABEB06020AEB060142F0C0
:1012D000010299604A60DAF80430404603F00103E5
:1012E0001E43CAF80460FCF73DFC42E723681B2A52
:1012F00003606368436027D800F1080304F1080223
:101300000BE720462A4601681F4611604168D14616
:1013100051608368936019E7ABEB060B09EB06019C
:101320004BF0010299604A6054F8043C404603F0D7
:1013300001031E4344F8046CFCF714FC254618E72F
:101340002146FFF73FFEEEE6A368242A8360E368A8
:10135000C36018D000F1100304F11002DDE650F86C
:10136000043C254623F003031F44EFE6A168242A2A
:10137000CAF81010E168CAF814100DD004F110007A
:101380000AF11802BFE7226900F1180302616169DE
:1013900004F118024161C0E6226904F11800CAF89C
:1013A000182061690AF12002CAF81C10ABE7214637
:1013B0002A4682E7214628460193FFF703FE019B58
:1013C00081E7A168242ACAF81010E168CAF814104D
:1013D00006D004F110010AF118026EE71887072001
:1013E000226904F11801CAF8182060690AF1200284
:1013F000CAF81C0061E700BF4FF0FF3C06E000BFE9
:101400004FF0010C02E000BF4FF0010C4DF804CD8D
:101410004FEA410C7FEA6C5C4FEA430C18BF7FEA4D
:101420006C5C1BD001B050EA410C0CBF52EA430C7B
:1014300091EA030F02BF90EA020F0020704710F1FB
:10144000000F91EA030F58BF994208BF90422CBF8A
:10145000D8176FEAE37040F0010070474FEA410C83
:101460007FEA6C5C02D150EA013C07D14FEA430CA1
:101470007FEA6C5CD6D152EA033CD3D05DF8040B12
:10148000704700BF8446104662468C461946634644
:1014900000E000BF01B5FFF7B7FF002848BF10F11B
:1014A000000F01BD4DF808EDFFF7F4FF0CBF012060
:1014B00000205DF808FB00BF4DF808EDFFF7EAFFDC
:1014C00034BF012000205DF808FB00BF4DF808ED97
:1014D000FFF7E0FF94BF012000205DF808FB00BF8C
:1014E0004DF808EDFFF7CEFF94BF012000205DF816
:1014F00008FB00BF4DF808EDFFF7C4FF34BF012023
:1015000000205DF808FB00BF4FEA410C7FEA6C5CED
:1015100002D150EA013C0AD14FEA430C7FEA6C5CED
:1015200002D152EA033C02D14FF0000070474FF065
:10153000010070474FEA410212F5001215D211D591
:101540006FF47873B3EB625212D94FEAC12343F0C0
:10155000004343EA505311F0004F23FA02F018BF42
:10156000404270474FF00000704750EA013005D10B
:1015700011F0004008BF6FF0004070474FF00000CE
:10158000704700BF48617264206661756C740D0A13
:10159000004368616E67656420686F75720D0A00AC
:1015A00052756E6E696E6720256325632563202D55
:1015B000202573202D2025732025730D0A0031343A
:1015C0003A33363A3439004D61792032392032309D
:1015D0003230007363686564756C65720D0A004390
:1015E000416D62696F206D696E75746F0D0A0046FA
:1015F00061696C65640D0A00424C35562D4D4259A7
:101600002D30330057414B452055500D0A0057618E
:10161000697420536C6565700D0A004177616B69D0
:101620006E670D0A00456E61626C652077617463B8
:1016300068646F672077697468202564206D69632A
:10164000726F7365636F6E647320706572696F6427
:101650000A0D00255820256C5820256C580D0A00CD
:1016600042616E6B20310D0A0042616E6B20320DBB
:101670000A002D462D20496E697469616C697A6192
:1016800074696F6E206572726F720A0D002D462D9F
:1016900020526561642074686520556E69717565B6
:1016A000204964656E746966696572206572726F3F
:1016B000720A0D00696E69745F626F6172642072F4
:1016C000756E6E696E670D0A00497665636F20441A
:1016D00061696C792030320D0A0049444C45005450
:1016E0006D725100546D72205376630030410030AA
:1016F0003300436F6D616E646F206E6F6E2067659F
:10170000737469746F0D0A0030430041420D0A0082
:101710004572722E20370D0A0030370042420D0A02
:10172000004572722E20380D0A0030380043420DF9
:101730000A0043430D0A00363800303400363900C1
:1017400042616E636F20312061747469766F0D0A97
:101750000042616E636F20302061747469766F0D92
:101760000A002563256325633A0025583A00255869
:101770003A25583A256C583A003045003632003642
:101780003300363400363600303500304200303118
:10179000005570646174657220696E69740D0A0089
:1017A000745F72657365740043616E6E6F7420635D
:1017B00072656174652074696D65722E0D0A00751D
:1017C0007064617465207461736B00253033580058
:1017D00025303458005265626F6F740D0A002D4633
:1017E0002D20496E697469616C697A6174696F6EE4
:1017F000206572726F7220256C750A0D0043616E50
:101800003020696E697469616C697A6174696F6EA0
:1018100020636F6D706C657465640D0A0043616EC2
:101820003120696E697469616C697A6174696F6E7F
:1018300020636F6D706C657465640D0A00745F6B76
:1018400065797300496D706F737369626C652063AD
:10185000616E20696E746572666163650D0A004D84
:1018600061696C626F78202564207069656E612003
:1018700025640D0A0041626F72742121210D0A0056
:10188000746F6F206D7563682043414E20657272DE
:101890006F72730D0A00557064617465722C206E4E
:1018A0006F7420726573657474696E670D0A0063E6
:1018B000616E6275735F7461736B5F7478006361EE
:1018C0006E5F7461736B0043616E207461736B2093
:1018D000696E69740D0A00257320737461636B204F
:1018E000746F6F206C6F772E0D0A007654696D65EA
:1018F000725365636F6E64006576656E745F7461C4
:10190000736B006576656E745F696E69740051462D
:101910000D0A006576656E745F7461736B005573B4
:10192000696E6720256420627974657320666F7222
:101930002068616E646C657273206D616E616765AD
:101940006D656E7420256420666F722071756575F3
:10195000652E0D0A00745F62726B006C6F676765BD
:10196000725F696E69740044454641554C54005598
:10197000415254004556454E54004144430052459F
:10198000504541544552004E4F524D414C00494E36
:10199000464F004552524F52005741524E494E4712
:1019A000004445425547004C6F67676572202573B8
:1019B0003A2564206E6F772073657420617320254B
:1019C000733A25640D0A00766572626F7365000DC7
:1019D0000A766572626F73653A0D0A766572626F98
:1019E0007365205B44454641554C547C43414E7CD5
:1019F000554152547C4556454E547C5245504541C4
:101A00005445527C4144435D205B4E4F524D414C06
:101A10007C494E464F7C4552524F527C5741524E64
:101A2000494E477C44454255475D0D0A0D0A00006A
:101A3000C7190900CF190900213A08000200000067
:101A40005365727669636520696E69740D0A007466
:101A50005F75706400756172745F73657269616C43
:101A60005F6572726F720073657269616C5F756138
:101A700072745F696E6974007573617274305F733C
:101A8000657269616C5F6572726F72004C494E20BD
:101A9000696E6974204B4F0D0A004C494E20696EE7
:101AA0006974204F4B0D0A002573206D756C7469A5
:101AB000706C6520636F6E66696775726174696FBB
:101AC0006E0D0A007573617274315F7365726961BE
:101AD0006C5F6572726F72007573617274325F73DE
:101AE000657269616C5F6572726F7200436F6461E9
:101AF00020646920747261736D697373696F6E65B8
:101B0000207069656E612E0D0A000000771F0900C4
:101B1000771F0900771F0900771F0900771F090049
:101B2000801F0900771F0900771F0900771F090030
:101B3000771F0900771F0900771F0900771F090029
:101B4000771F0900771F0900771F0900771F090019
:101B5000771F0900771F09006E1E09007A1E090011
:101B60007A1E0900821E09008F1E0900981E0900B6
:101B7000981E09007A1E09007A1E09007A1E0900C3
:101B80007A1E09007A1E09007A1E09007A1E0900D1
:101B90007A1E09007A1E09007A1E09007A1E0900C1
:101BA0007A1E0900631F0900631F0900631F0900F3
:101BB000631F09006D1F09006D1F0900631F0900E5
:101BC000631F0900631F0900631F0900631F0900E9
:101BD000631F0900631F0900631F0900631F0900D9
:101BE000631F0900631F0900631F0900631F0900C9
:101BF000B21E0900B21E0900B21E0900B21E090081
