:02000002A0005C
:10000000D05E0820F5000A00CD6F0A0025030A0023
:10001000CD6F0A00CD6F0A00CD6F0A00000000000E
:1000200000000000000000000000000039070A0086
:10003000CD6F0A00000000008D070A00C9070A0002
:10004000CD6F0A00CD6F0A00CD6F0A00CD6F0A0098
:10005000CD6F0A00CD6F0A00CD6F0A00CD6F0A0088
:10006000093D0A000000000000000000D9030A005A
:1000700031040A0000000000000000000000000041
:1000800000000000993E0A0089410A0005430A0069
:1000900000000000CD6F0A00316D0A00CD6F0A002C
:1000A000CD6F0A0000000000CD6F0A00CD6F0A007E
:1000B000CD6F0A00CD6F0A00CD6F0A00CD6F0A0028
:1000C000CD6F0A00000000000000000000000000EA
:1000D000D5810A00CD6F0A00CD6F0A00CD6F0A00EE
:1000E000CD6F0A00CD6F0A000000000091300A00B9
:1000F00069310A004FF0005208B5194B1A631A61B2
:100100004FF48052C3F83022C3F81022154A164B20
:100110009A4203D01549043A8B4219D30021144B5B
:10012000144A934219D3144B144A23F0604121F02E
:100130007F0103F16043B3F5801F91603EBF936878
:1001400043F0005393600DF069F900F083F8FEE787
:1001500052F8040F43F8040BDEE743F8041BE0E712
:10016000000E0E40145C0B0000800720948C0720CA
:10017000988C0720CC3E082000000A0000ED00E02B
:100180000348044B834202D0034B03B11847704726
:10019000145C0B00145C0B000000000005480649CD
:1001A000091A891001EBD171491002D0034B03B138
:1001B00018477047145C0B00145C0B000000000033
:1001C00010B5064C237843B9FFF7DAFF044B13B19F
:1001D0000448AFF300800123237010BD988C0720E2
:1001E00000000000145C0B0008B5044B1BB104496F
:1001F0000448AFF30080BDE80840CFE700000000EE
:100200009C8C0720145C0B00034B044A1A600022EC
:10021000034B1A60704700BFF4330820D0810720D9
:10022000B88C0720024A0221032003F0ABBB00BFB9
:10023000FD210B00024A0121002003F0A3BB00BFF7
:100240004B220B000378122B03D1407808B907F03A
:100250000DB870477FB503F063FB00F06FF903F052
:1002600063FC04F057F907F017F8012007F00EF8C7
:10027000012006F0FBFF002006F0F8FF03F0F0FA83
:100280001B49072003F01AFA1A49082003F016FA4E
:100290001949092003F012FA1849122003F00EFA46
:1002A00003F0E2FC1649174A049117491378CDE987
:1002B000022191785278019100920121134A002085
:1002C00003F060FB0CF040F808F0ACF80CF08BF990
:1002D00004F04AF900F004FA0D4A0121002003F06D
:1002E00051FB00F021FC002007B05DF804FB00BFCB
:1002F00009020A0035020A0025020A0045020A0026
:100300002A220B0064220B0033220B000C220B006C
:100310003F220B0030BF024A13680133136070475D
:10032000B88C0720064A074913688B4202D801336C
:1003300013607047002001211060034A03F022BBC4
:10034000B48C0720F5FF0900F0210B0038B56424B8
:10035000044D00212A46084603F014FB013CF8D165
:1003600038BD00BF5B220B00062070470620704797
:1003700002207047074B0246196809B906491960FF
:100380001868064902448A42D4BF1A604FF0FF3011
:10039000704700BFBC8C0720D05E0820FC7F08207F
:1003A00010B504461CB1022C02D9032C08D010BD94
:1003B00006F024FA003018BF01200028F2D0F6E73A
:1003C00006F09AFAF6E708B50B2006F0ADFABDE89C
:1003D00008400C2006F0A8BA10B5124806F05AFCE6
:1003E0008107044606D502210E4806F051FC012281
:1003F0000D4B1A70E20307D54FF48031094806F01F
:1004000047FC0122084B1A70E3040AD54FF48051CF
:10041000044806F03DFC054803F0A0FA0122024B17
:100420001A7010BD000E0E40C88C072070220B0001
:1004300010B50C4806F02EFC0204044607D54FF414
:100440000041084806F024FC0122074B1A70E30320
:1004500007D54FF48031034806F01AFC0122024B05
:100460001A7010BD00100E40C88C072038B5FFF779
:10047000AAFF02231A484FF480544361C0F8A03009
:100480004FF40043174D10226B61C5F8A030446152
:10049000C0F8A040446644654462C0F88040036FE1
:1004A000114923F48053036706F0DBFB10224FF45D
:1004B000C031284606F0D5FB4FF4006200210B4BFB
:1004C000C3F88020C3F8802183F80B131A60C3F8A7
:1004D0008040C3F8804183F80C131C6038BD00BF16
:1004E000000E0E4000100E400210010000E100E07E
:1004F00008B50F490F4806F0C8FB4FF4C0310E484D
:1005000006F0C3FB012006F02FFA022006F02CFAB9
:10051000082006F029FA802006F026FA4FF48050D1
:1005200006F022FABDE808404FF4005006F01CBA6D
:1005300002100100000E0E4000100E402DE9F041A7
:10054000002486B04FF480714D4806F027FC082146
:100550004B4806F01BFC4A4806F028FC494BDFF8E4
:1005600070811C70FFF782FFFFF7C2FF2046FFF784
:1005700017FF204606F0DEF806F090F906F082F943
:10058000414806F08BFD06F025FDFFF71CFF05F046
:10059000A7FE3E4F3E4D404603F0E0F93B784FF05A
:1005A00000563C4C43B94FF480536E636363FFF7CE
:1005B0009FFF03F0CDF9EEE7374803F0CFF94FF492
:1005C00080532E633548236306F078FB04460020F1
:1005D00006F022F90320FFF7E3FE002006F0CAF838
:1005E00006F0ACFDFFF7EFFE05F006FD4FF400410D
:1005F0002B4806F091FB2B4A03460121002003F013
:10060000C1F91F4B01205D6906F046FB264AC4F381
:100610000223CDE900500121002003F0B3F90120AD
:10062000002106F03FFB214BB3F5202F34BF2048BB
:10063000204803F093F9204B04211B680020C3F3EA
:100640000323092B0CBF4FF400324FF480221B4BC5
:100650001A6006F013FC10B1194803F07FF9042169
:1006600002A806F093FC10B1164803F077F9164B78
:10067000059A16481A6003F071F906B0BDE8F081DA
:10068000101A0E40C08C072000BD0105C88C072041
:10069000000E0E4000100E4087220B00001A0E4084
:1006A000501A0E4091220B00BF220B003D050A009C
:1006B000CC220B00D5220B0040090E40C48C072031
:1006C000DE220B00F9220B00CC8C072020230B002C
:1006D0007A220B00014806F0EBBA00BF001A0E4068
:1006E00008B5094A0121002003F04CF903F042FF4C
:1006F000072805D008F0F0FDBDE8084004F0E6B991
:1007000002F0F4FBF8E700BF35230B000348006854
:10071000006880F3088862B600DF00BF08ED00E0E3
:100720004FF0807340E90213002340F8202C40F87A
:100730000C3C403870470000064B19680868B0E868
:10074000F00F80F309884FF0000080F311884EF01D
:100750000D0E7047D08C07204FF0A00383F3118853
:10076000BFF36F8FBFF34F8F024A136801331360DB
:10077000704700BF8C800720034A1368013B136059
:100780000BB983F3118870478C800720EFF3098041
:100790000C4B1A6820E9F00F10602DE908404FF06B
:1007A000A00080F3118800F03FFB4FF0000080F3C1
:1007B0001188BDE8084019680868B0E8F00F80F3B8
:1007C00009887047D08C07204FF0805208B5094B3C
:1007D0001A60EFF311834FF0A00282F31188BFF388
:1007E0006F8FBFF34F8F00F0EDF9002383F3118873
:1007F00008BD00BF04ED00E0034B044A1A60072265
:1008000043F8042C704700BF14E000E01F480100CB
:1008100008B5084B1A6842F470021A601A6842F070
:1008200070421A60FFF7E8FF0020034B1860FFF7E3
:100830006DFF08BD20ED00E08C80072070470000B0
:10084000064A13681968064B19B94FF0FF321A604F
:1008500070471268D268D2685268F8E7D48C0720D3
:100860005C8D0720F8B51B4B1B4E1C680546306895
:100870000F46043000F0BDFE334640B90120316818
:10088000164EC96A3268884022EA000232606A1C49
:1008900007D137B1196812480431BDE8F84000F0BB
:1008A00085BE1A686419546007D30E4A1068196827
:1008B000BDE8F840043100F085BE0B4A10681968A5
:1008C000043100F07FFE094B1A68A24288BF1C6009
:1008D000F8BD00BFA48D0720D08C07202C8D0720E9
:1008E0007C8D0720D88C0720D48C07205C8D0720B6
:1008F00080B5DFF86880154F154C164E236873B924
:10090000154B1B68012B07D94FF08053C8F80030F6
:10091000BFF34F8FBFF36F8FFFF7FCFCECE7FFF7E0
:100920001BFFFB68DD68281D00F063FE3368013B98
:1009300033602368013B2360FFF71EFF286B01F043
:100940000FF9284601F00CF9D8E700BF908D072079
:100950001C8D0720188D0720DC8C072004ED00E09B
:100960002DE9F84F4FEA820A804650460D469946D7
:100970000B9E01F05FF8074698B1582001F05AF835
:10098000044658B107637DB94FF0A00383F3118883
:10099000BFF36F8FBFF34F8F00BFFDE7384601F005
:1009A000DFF84FF0FF3590E05246A52138460DF0B4
:1009B00073F8236BAAF1040A9A442AF0070A6B1E03
:1009C00004F13402093513F8011F02F8011B1978EC
:1009D00009B19D42F7D10A9D4FF0000B022D28BFAF
:1009E0000225271DE562C4E9125B384684F83DB054
:1009F00000F0D9FDC5F1030504F1180000F0D3FDA6
:100A0000C4F850B02461A561646284F854B04A46C9
:100A100041465046FFF784FE206006B13460FFF780
:100A20009BFE314B314E1A68DFF8F48001321A60B8
:100A30003268002A4CD134601B68012B1FD12C482E
:100A400000F0A6FDDFF8DC902A4800F0A1FD2A4D59
:100A50002A4800F09DFD484600F09AFD284600F027
:100A600097FD274800F094FD264800F091FD2648A8
:100A700000F08EFD254BC3F80090254B1D6001252D
:100A8000244A25491368086801331360E26A236425
:100A900005FA02F3034314200B60154B394600FBA3
:100AA000023000F083FDFFF767FED8F8003063B135
:100AB0003368DA6AE36A9A4207D24FF08052174BE2
:100AC0001A60BFF34F8FBFF36F8F2846BDE8F88FD2
:100AD000D8F80030002BD2D13368DA6AE36A9A4240
:100AE00098BF3460CBE700BF188D0720D08C07205B
:100AF000DC8C0720F08C0720448D0720048D072014
:100B0000648D0720908D07207C8D0720D48C0720D2
:100B1000D88C0720288D07202C8D072004ED00E0BD
:100B2000788D0720308D072013B50024184B0094D2
:100B30000193C822234617491748FFF711FF0128E0
:100B400018D100F0B1FD012814D14FF0A00383F3B8
:100B50001188BFF36F8FBFF34F8F4FF0FF320F4BF2
:100B60001A600F4B18600F4B1C6002B0BDE81040BC
:100B7000FFF74EBE013009D14FF0A00383F3118877
:100B8000BFF36F8FBFF34F8F00BFFDE702B010BD03
:100B9000588D072046230B00F1080A005C8D0720C2
:100BA000788D0720A48D0720024A13680133136053
:100BB000704700BF248D0720014B1868704700BFA5
:100BC000A48D07202DE9F84F3D4B1B68002B6FD1FA
:100BD0003C4B1C6801341C60C4B93B4B1A6812685A
:100BE0004AB14FF0A00383F31188BFF36F8FBFF3B7
:100BF0004F8F00BFFDE7354A196810681860116013
:100C0000334A136801331360FFF71AFE314D4FF07A
:100C1000000B2B68304FA34211D93A682F4BD16A91
:100C200014224A439A58022A28BF4FF0010B2C4A3B
:100C30001268002A0CBF58460120BDE8F88FDFF883
:100C400088A0DFF8A490DAF8002012681AB94FF0F3
:100C5000FF322A60E1E7DAF80020D268D6687168CE
:100C60008C4201D22960D8E706F10408404600F022
:100C7000C0FCB16A19B106F1180000F0BAFC0122FB
:100C80004FF0140CF06AD9F8003002FA00F1194361
:100C9000124BC9F800100CFB0030414600F086FCF6
:100CA0003868F16AC26A914228BF4FF0010BCAE767
:100CB0000C4A4FF0000B136801331360B7E700BF15
:100CC000248D0720A48D0720D48C0720D88C0720E2
:100CD000608D07205C8D0720D08C0720DC8C0720DE
:100CE000A88D0720208D07202C8D07202DE9F843A3
:100CF000314C23684BB94FF0A00383F31188BFF345
:100D00006F8FBFF34F8F00BFFDE7FFF725FD23680F
:100D1000013B236024682CB10024FFF72DFD204601
:100D2000BDE8F883254B1B68002BF5D0244D254EDC
:100D3000DFF8A4801FE0EB680127DC6804F10409F8
:100D400004F1180000F055FC484600F052FC142055
:100D5000E26A316807FA02F30B4300FB028049465E
:100D6000336000F023FC184BE26A1B68DB6A9A428E
:100D700001D3164B1F602B68002BDCD10CB1FFF7A1
:100D80005FFD134D2C6844B10127104EFFF71AFF89
:100D900000B13760013CF9D12C600C4B1B68002B73
:100DA000BAD04FF080520B4B1A60BFF34F8FBFF396
:100DB0006F8F0124B1E700BF248D0720188D072015
:100DC000648D07202C8D0720D08C0720A88D07204C
:100DD000208D072004ED00E0DC8C072008B540B929
:100DE0004FF080520E4B1A60BFF34F8FBFF36F8FDF
:100DF00008BD0C4B196849B14FF0A00383F311886B
:100E0000BFF36F8FBFF34F8F00BFFDE7FFF7CCFE3F
:100E1000FFF728FDFFF76AFF0028E1D0E8E700BFF1
:100E200004ED00E0248D0720184B10B51A68184B0C
:100E300012B101221A6010BD1A60164B1B68B3FA7A
:100E400083F31422DBB2C3F11F035A4312498C58B7
:100E500088184CB94FF0A00383F31188BFF36F8F4C
:100E6000BFF34F8F00BFFDE74468083264680A444F
:100E7000944208BF6268446008BF4260142202FBCB
:100E800003135B68DA68054BD4E700BF248D0720A5
:100E9000A88D07202C8D0720DC8C0720D08C072004
:100EA00010B50C4648B94FF0A00383F31188BFF387
:100EB0006F8FBFF34F8F00BFFDE7054B19681831E7
:100EC00000F080FB2046BDE810400121FFF7CABCBE
:100ED000D08C072038B50D46144648B94FF0A00312
:100EE00083F31188BFF36F8FBFF34F8F00BFFDE710
:100EF000074B1968183100F059FB002C214608BF38
:100F00002846BDE8384018BF4FF0FF30FFF7AABCB5
:100F1000D08C072038B5C368DC684CB94FF0A0030B
:100F200083F31188BFF36F8FBFF34F8F00BFFDE7CF
:100F300004F11805284600F05CFB114B1B68E3B96F
:100F4000251D284600F055FB01230E49E26A08687A
:100F50009340034314200B6029460B4B00FB0230E7
:100F600000F024FB094BE26A1B68DB6A9A4285BFEA
:100F70000120074B0020186038BD29460548EFE7DF
:100F8000248D07202C8D0720DC8C0720D08C072097
:100F9000A88D0720648D072010B5044648B94FF08E
:100FA000A00383F31188BFF36F8FBFF34F8F00BF90
:100FB000FDE7FFF7D1FB054B1B682360044B1B6863
:100FC0006360BDE81040FFF7D7BB00BF608D07200E
:100FD000A48D0720034B1B680360034B1B68436011
:100FE000704700BF608D0720A48D0720F8B50C4620
:100FF000054648B94FF0A00383F31188BFF36F8F04
:10100000BFF34F8F00BFFDE749B94FF0A00383F353
:101010001188BFF36F8FBFF34F8F00BFFDE7FFF75E
:101020009BFB0F4B6868196823680A1A5E1C0DD079
:101030000C4E2F683668B74201D088420DD99342D2
:1010400009D99B1A23602846FFF7C4FF0024FFF745
:1010500093FB2046F8BD002323600124F7E700BF7F
:10106000A48D0720608D07200122014B1A60704774
:10107000A88D072008B9064B1868026B1346981A0A
:1010800013F8011BA529FAD0C0F38F00704700BFE9
:10109000D08C0720014B1868704700BFD08C072008
:1010A000054B1B6833B1054B1B68002B0CBF02209E
:1010B0000020704701207047788D0720248D07207D
:1010C0002DE9F0410446002836D0234AC36A11684E
:1010D0001746C96A8B4237D2142682691F4D002AEF
:1010E000A8BF3A6806FB0353A2BFD26AC2F103024B
:1010F000826142699A4221D100F10408404600F021
:1011000078FA174B48B9E06A4643AA592AB901212F
:101110001A68814022EA01021A603A681968D26AA4
:10112000E262012404FA02F00843186014204146E8
:1011300000FB025000F03AFA204603E03B68DB6A0D
:10114000C3620120BDE8F0811368806CDC6AA042B4
:101150002CBF00200120F5E7D08C0720DC8C072075
:101160002C8D0720F8B5044608B90020F8BD234BA4
:101170001B68834209D04FF0A00383F31188BFF3AB
:101180006F8FBFF34F8F00BFFDE7DB6C4BB94FF0A4
:10119000A00383F31188BFF36F8FBFF34F8F00BF9E
:1011A000FDE7C16A826C013B9142C364DDD0002B34
:1011B000DBD1051D284600F01CFA114E114A50B92A
:1011C0001421E76A794373582BB901201368B8409A
:1011D00023EA00031360A36CC3F10301A161E3627E
:1011E0000124116804FA03F0084310601420294612
:1011F00000FB036000F0DAF92046B7E7D08C072047
:10120000DC8C07202C8D0720F8B5044600284ED032
:10121000C26C4AB94FF0A00383F31188BFF36F8FFC
:10122000BFF34F8F00BFFDE7836C994238BF19466B
:10123000C36A8B423BD0012A39D11D4A12688242CF
:1012400009D14FF0A00383F31188BFF36F8FBFF371
:101250004F8F00BFFDE71426164D826906FB03532E
:10126000002A4269C162A4BFC1F1030181619A42AF
:101270001DD1071D384600F0BCF9E26A0E4C48B992
:1012800001235643A85903FA02F118B9236823EA47
:101290000103236001231420216893400B43236042
:1012A000394600FB0250BDE8F84000F07FB9F8BDB8
:1012B000D08C0720DC8C07202C8D0720044B1A686B
:1012C0001AB11968CA6C0132CA641868704700BF45
:1012D000D08C07202DE9F0411E4C1E4680460F465B
:1012E0001546FFF739FA236893F85430022B14D0CF
:1012F000012123681A6D22EA08021A65236883F81F
:10130000541056B13046FFF7ADFA4FF08052124BF1
:101310001A60BFF34F8FBFF36F8FFFF72DFAFFF700
:101320001BFA15B123681B6D2B602368002293F80C
:101330005430022B09BF012500252368196D04BF15
:10134000B9431965236883F85420FFF715FA284636
:10135000BDE8F081D08C072004ED00E0F8B50E4622
:1013600017461D46044648B94FF0A00383F3118881
:10137000BFF36F8FBFF34F8F00BFFDE7FFF7ECF9AF
:101380000DB1236D2B60022394F8545084F854302F
:10139000EDB2042F16D8DFE807F00A0307051100A5
:1013A000216D0E43266502E0236D01332365012D77
:1013B00015D00125FFF7E0F92846F8BD022DF1D13F
:1013C0000025F7E7236D0133F1D04FF0A00383F33D
:1013D0001188BFF36F8FBFF34F8F00BFFDE7261D4E
:1013E000304600F006F91449E26A086805FA02F38B
:1013F000034314200B60114B314600FB023000F018
:10140000D5F8A36A4BB14FF0A00383F31188BFF363
:101410006F8FBFF34F8F00BFFDE7094BE26A1B6878
:10142000DB6A9A42C5D94FF08052064B1A60BFF36F
:101430004F8FBFF36F8FBDE72C8D0720DC8C07200B
:10144000D08C072004ED00E02DE9F843DDF8208082
:101450000E4691461D46044648B94FF0A00383F35B
:101460001188BFF36F8FBFF34F8F00BFFDE7FFF70A
:10147000E5F9EFF311874FF0A00383F31188BFF371
:101480006F8FBFF34F8F0DB1236D2B60022394F844
:10149000545084F85430EDB2B9F1040F16D8DFE897
:1014A00009F00A0307051100216D0E43266502E0CD
:1014B000236D01332365012D15D0012087F3118899
:1014C000BDE8F883022DF1D10020F7E7236D013349
:1014D000F1D04FF0A00383F31188BFF36F8FBFF3F8
:1014E0004F8F00BFFDE7A36A4BB14FF0A00383F31A
:1014F0001188BFF36F8FBFF34F8F00BFFDE7134B12
:101500001B68FBB9261D304600F073F8104A142002
:10151000E36A11689D400D43314615600D4A00FB9A
:10152000032000F043F80C4BE26A1B68DB6A9A4226
:10153000C3D90123B8F1000F01D0C8F80030074A21
:101540001360BAE704F118010548EAE7248D072083
:101550002C8D0720DC8C0720D08C0720A88D07203D
:10156000648D072038B5054608B9084B1D6800246E
:10157000FFF7F2F895F85430022B04BF85F8544079
:101580000124FFF7F9F8204638BD00BFD08C0720B2
:101590004FF0FF3200F108034360C0E9022303610A
:1015A00000230360704700230361704743689A6813
:1015B0004B608A609A6851609960036808610133E2
:1015C000036070470A6830B5531C0AD103695A6832
:1015D0004A6091608B605960036808610133036061
:1015E00030BD00F108035C6825689542EFD82346BA
:1015F000F9E70369D0E901128A608268516059688D
:10160000814208BF5A60002202611A68013A1A60DA
:1016100018687047F8B50F4CFFF79EF82568ADB90C
:101620000D4F0E4E3846FFF7B3FF3046FFF7B0FFC1
:101630000B4B2A461F600B4B10211E201E6000F032
:1016400093FB206010B1084900F0A0FEBDE8F8400F
:10165000FFF792B8E08D0720B48D0720C88D0720D2
:10166000AC8D0720B08D07204B230B00914208B5AD
:10167000416000610AD8D21A83699A420DD2084BA0
:10168000011D1868FFF79EFF002008BD9A4201D295
:10169000994202D2011D034BF3E70120F5E700BF99
:1016A000B08D0720AC8D072007B5FFF7B3FF0E4BB9
:1016B0001B684BB94FF0A00383F31188BFF36F8F02
:1016C000BFF34F8F00BFFDE7084B4FF496720193B5
:1016D00002230749009307480023FFF741F9002838
:1016E000E8D003B05DF804FBE08D0720E48D07200F
:1016F00050230B001D180A002DE9F04180462C20D4
:101700000D4617461E4600F095F90446B0B14DB996
:101710004FF0A00383F31188BFF36F8FBFF34F8F98
:1017200000BFFDE7FFF776FF069BC4F80080C4E921
:10173000065726626362201DFFF735FF2046BDE88D
:10174000F081000030B5154685B01A46034648B909
:101750004FF0A00383F31188BFF36F8FBFF34F8F58
:1017600000BFFDE70C4C206878B10529CDE90015D4
:1017700002930CDCFFF794FC002302280CBF089AAC
:101780001A466946206800F015FB05B030BD0023FD
:10179000694600F0D7FBF8E7E08D07202DE9F3411B
:1017A0004FF000081B4D2B681A6832B91A4A1168AD
:1017B0001360296002B0BDE8F081DB68DC681E6858
:1017C000271D3846FFF715FF636A20469847E369EF
:1017D000012BE8D1A36933449E4206D263602461A1
:1017E00039462868FFF7EEFEDDE70023CDF80080DC
:1017F000324619462046FFF7A5FF0028D3D14FF007
:10180000A00383F31188BFF36F8FBFF34F8F00BF27
:10181000FDE700BFAC8D0720B08D07202DE9F04F0C
:101820006D4DDFF8C0812F4687B02A68136853B327
:101830000024D368D3F80090FFF7B6F9FFF7BCF99E
:10184000DFF8A4B18246DBF800305E4698421DD333
:10185000CBF800001CB3614B1B681A68B2FA82F225
:1018600052095F4BA9EB0A01186800F0A1FDFFF7D0
:101870003DFA88B94FF08053C8F80030BFF34F8F5E
:10188000BFF36F8F08E001249946D5E7FFF786FF85
:10189000CBF800A0FFF72AFADFF8449167E0814512
:1018A0002DD8FFF723FA3B68DB68D3F80CB00BF1B7
:1018B0000400FFF79EFEDBF81C30012B1AD1DBF889
:1018C00018104B46524649445846FFF7CFFE88B1A0
:1018D000009423464A4621465846FFF733FF48B94D
:1018E0004FF0A00383F31188BFF36F8FBFF34F8FC7
:1018F00000BFFDE7DBF8243058469847CCE7224686
:10190000AFE7A169039B5A4619442046FFF7AEFE94
:1019100068B3636A20469847E369012B27D1A2691F
:101920000399CDF800A00A44534651462046FFF7DC
:1019300009FFE0B94FF0A00383F31188BFF36F8F65
:10194000BFF34F8F00BFFDE70399A16149B94FF085
:10195000A00383F31188BFF36F8FBFF34F8F00BFD6
:10196000FDE75B465A4659442046FFF77FFE0022BA
:1019700002A9D9F8000000F0A1FB00283FF455AF00
:10198000029B002B03DADDE90401039B9847029BCD
:10199000002BECDB049C636913B1201DFFF729FECB
:1019A000FFF70AF933688346984201D2FFF7F6FE43
:1019B000029AC6F800B0092AD9D80123934013F43B
:1019C000047AC1D113F0C70F9BD19B06CFD5204617
:1019D00000F0C6F8CBE700BFAC8D0720B08D072024
:1019E000E08D072004ED00E0DC8D072010B50F4BE3
:1019F0001A68824218D35C681919884201BF41688D
:101A0000184609195960446801198A4207D10849E2
:101A100009688A421FBF51681268091941609842DB
:101A2000026018BF186010BD1346E1E7382A08208D
:101A3000E88D07202DE9F041424D0446FFF7B4F848
:101A40002B684148FBB9414900234E070FBF49F6B7
:101A5000404207313E4A21F0070118BF521A0A449A
:101A60003C4E083A22F0070273603160C2E900334D
:101A7000531AC1E900232A60374A1360374A1360BA
:101A80004FF0004303600768274205D0FFF72EF9A7
:101A9000FEF75CFC002546E0002CF7D004F10803BB
:101AA00058071CBF23F007030833002BEED02B4A46
:101AB000166890469E42E9D3264A146860689842A8
:101AC00001D22168A9B92968A142DFD0216815682F
:101AD0001160C21A102A13D9E01841070CD04FF038
:101AE000A00383F31188BFF36F8FBFF34F8F00BF45
:101AF000FDE722460C46E1E742606360FFF776FFB0
:101B00000023154962680868B61A1743864205F132
:101B100008056760236038BF0E60C8F80060FFF7F3
:101B2000E5F8002DB4D06B0709D04FF0A00383F384
:101B30001188BFF36F8FBFF34F8F00BFFDE72846BB
:101B4000BDE8F081E88D07202C2A0820EC8D0720C5
:101B50002C2A0820382A0820342A0820302A082075
:101B600010B5044680B3194A50F8043C1268134279
:101B700009D14FF0A00383F31188BFF36F8FBFF338
:101B80004F8F00BFFDE750F8081C49B14FF0A0038C
:101B900083F31188BFF36F8FBFF34F8F00BFFDE753
:101BA00023EA020340F8043CFEF7FEFF084A54F81B
:101BB000043C1168A4F108000B441360FFF716FF02
:101BC000BDE81040FFF792B810BD00BF2C2A0820D6
:101BD000302A082010B50446FEF7BEFDA46BFEF7C0
:101BE000CBFDB4FA84F0400910BD70B51546026C07
:101BF0000446866B42B905689DB98068FFF7B2FA62
:101C0000A5600136A66370BD6DB940680BF0CEFECD
:101C10006368226C1344A2686360934201D3236813
:101C200063600020EDE7C0680BF0C0FE236CE26843
:101C30005B4221681A448A42E2603EBFA2689B1858
:101C4000E360022DEDD10EB1013EEAE73046D8E760
:101C500003461A6C10B4084662B1D9689C681144F6
:101C6000A142D96028BF196810BC28BFD960D968C3
:101C70000BF09CBE10BC704770B50446FEF76CFDBF
:101C800094F8455004F124066DB2002D14DCFF23B6
:101C900084F84530FEF770FDFEF75EFD94F8445081
:101CA00004F110066DB2002D12DCFF2384F84430DD
:101CB000BDE87040FEF760BD636A002BE7D0304698
:101CC000FFF728F908B1FFF7CFF9013D6DB2DCE766
:101CD0002369002BE9D03046FFF71CF908B1FFF764
:101CE000C3F9013D6DB2DEE738B50D46044648B98B
:101CF0004FF0A00383F31188BFF36F8FBFF34F8FB3
:101D000000BFFDE7FEF728FDD4E90F30434322680A
:101D1000D1181B1A1344A160E3600021FF23A163C3
:101D2000626084F8443084F8453095B9236963B122
:101D300004F11000FFF7EEF838B14FF08052094B74
:101D40001A60BFF34F8FBFF36F8FFEF715FD0120B1
:101D500038BD04F11000FFF71BFC04F12400FFF76D
:101D600017FCF2E704ED00E0F8B50D46174606460D
:101D700048B94FF0A00383F31188BFF36F8FBFF30F
:101D80004F8F00BFFDE748435030FFF753FE044636
:101D900048B155B92060C4E90F6501212046FFF71D
:101DA000A3FF84F84C702046F8BD00F15003036097
:101DB000F1E700002DE9FF47884601921F460446DF
:101DC00048B94FF0A00383F31188BFF36F8FBFF3BF
:101DD0004F8F00BFFDE759B9036C4BB14FF0A00323
:101DE00083F31188BFF36F8FBFF34F8F00BFFDE701
:101DF000022F0CD1E36B012B09D04FF0A00383F32A
:101E00001188BFF36F8FBFF34F8F00BFFDE7FFF760
:101E100047F958B9019E56B14FF0A00383F31188DA
:101E2000BFF36F8FBFF34F8F00BFFDE700264FF06A
:101E30000009DFF8E8A037E0019D1DB9FEF79CFC22
:101E4000002050E016B902A8FFF7C4F8FEF794FC92
:101E5000FEF7AAFEFEF780FC94F84430FF2B08BF83
:101E600084F8449094F84530FF2B08BF84F84590DF
:101E7000FEF782FC01A902A8FFF7B8F8002846D1B6
:101E8000FEF76AFCA26BE36B9A422FD1FEF774FC5B
:101E9000019904F11000FFF703F82046FFF7ECFE6C
:101EA000FEF724FF50B30126FEF756FCA26BE36B4E
:101EB0009A4201D3022FBFD13A4641462046FFF74E
:101EC00094FE636A1BB104F12400FFF723F838B1D4
:101ED0004FF08052114B1A60BFF34F8FBFF36F8FDB
:101EE000FEF74AFC012004B0BDE8F087FEF744FC91
:101EF0002046FFF7C1FEFEF7F9FED4E74FF080530E
:101F0000CAF80030BFF34F8FBFF36F8FCBE7204687
:101F1000FFF7B2FEFEF7EAFE92E700BF04ED00E035
:101F200010B5024600210120FFF71EFF044638B11C
:101F3000002383600360C3601A461946FFF73AFF27
:101F4000204610BD2DE9F843894690461F460446B9
:101F500048B94FF0A00383F31188BFF36F8FBFF32D
:101F60004F8F00BFFDE759B9036C4BB14FF0A00391
:101F700083F31188BFF36F8FBFF34F8F00BFFDE76F
:101F8000022F0CD1E36B012B09D04FF0A00383F398
:101F90001188BFF36F8FBFF34F8F00BFFDE7FEF7D0
:101FA0004DFCEFF311864FF0A00383F31188BFF3CC
:101FB0006F8FBFF34F8FA26BE36B9A4201D3022F57
:101FC00022D194F845503A466DB249462046FFF773
:101FD0000CFE6B1C13D1636A0BB901200BE004F1FA
:101FE0002400FEF797FF0028F7D0B8F1000FF4D0D7
:101FF0000120C8F8000086F31188BDE8F883013598
:102000006DB284F84550E8E70020F4E770B50D465E
:10201000044648B94FF0A00383F31188BFF36F8FD4
:10202000BFF34F8F00BFFDE7036C4BB14FF0A00330
:1020300083F31188BFF36F8FBFF34F8F00BFFDE7AE
:1020400003685BB983684BB14FF0A00383F3118839
:10205000BFF36F8FBFF34F8F00BFFDE7FEF7EEFBBF
:10206000EFF311864FF0A00383F31188BFF36F8F56
:10207000BFF34F8FA26BE36B93421CD994F84530AA
:1020800001325BB2A2635A1C10D1636A0BB9012002
:1020900009E004F12400FEF73DFF0028F7D0002DF1
:1020A000F5D00120286086F3118870BD01335BB242
:1020B00084F84530EBE70020F5E700002DE9F04318
:1020C00085B00F460192044648B94FF0A00383F350
:1020D0001188BFF36F8FBFF34F8F00BFFDE759B972
:1020E000036C4BB14FF0A00383F31188BFF36F8FE4
:1020F000BFF34F8F00BFFDE7FEF7D2FF58B9019E37
:1021000056B14FF0A00383F31188BFF36F8FBFF375
:102110004F8F00BFFDE700264FF00008DFF8DC908E
:102120003BE0019D1DB9FEF727FB002052E016B9E8
:1021300002A8FEF74FFFFEF71FFBFEF735FDFEF787
:102140000BFB94F84430FF2B08BF84F8448094F8CC
:102150004530FF2B08BF84F84580FEF70DFB01A931
:1021600002A8FEF743FF00283DD12046FFF732FDCD
:1021700098B3019904F12400FEF792FE2046FFF780
:102180007BFDFEF7B3FD38B94FF08053C9F800303E
:10219000BFF34F8FBFF36F8F0126FEF7DDFAA56BFC
:1021A000002DBED039462046013DFFF751FDA56305
:1021B000236963B104F11000FEF7ACFE38B14FF0B3
:1021C00080520E4B1A60BFF34F8FBFF36F8FFEF735
:1021D000D3FA012005B0BDE8F0832046FFF74CFD9F
:1021E000FEF784FDD8E72046FFF746FDFEF77EFDAB
:1021F0002046FFF7EFFC0028CED096E704ED00E084
:102200002DE9FF410446019148B94FF0A00383F343
:102210001188BFF36F8FBFF34F8F00BFFDE7056CD1
:102220004DB14FF0A00383F31188BFF36F8FBFF35D
:102230004F8F00BFFDE7FEF733FF58B9019D4DB149
:102240004FF0A00383F31188BFF36F8FBFF34F8F5D
:1022500000BFFDE72E460027DFF82C8150E0019BF0
:102260006BB94DB14FF0A00383F31188BFF36F8FAB
:10227000BFF34F8F00BFFDE7FEF77EFA5EE016B9B1
:1022800002A8FEF7A7FEFEF777FAFEF78DFCFEF731
:1022900063FA94F84430FF2B08BF84F8447094F834
:1022A0004530FF2B08BF84F84570FEF765FA01A999
:1022B00002A8FEF79BFE00284AD12046FFF78AFCC1
:1022C00000283FD023683BB9FEF746FAA068FEF726
:1022D000F7FE0546FEF750FA019904F12400FEF7D7
:1022E000DFFD2046FFF7C8FCFEF700FD38B94FF0D0
:1022F0008053C8F80030BFF34F8FBFF36F8F0126B4
:10230000FEF72AFAA36B002BA9D0013BA363236835
:1023100013B9FEF7D3FFA060236963B104F1100085
:10232000FEF7F8FD38B14FF08052174B1A60BFF33B
:102330004F8FBFF36F8FFEF71FFA0125284604B0B9
:10234000BDE8F0812046FFF797FCFEF7CFFCD6E70B
:102350002046FFF791FCFEF7C9FC2046FFF73AFC48
:102360000028CCD0002DE9D0FEF7F6F9616A19B14A
:10237000236B1968C1F10301A068FEF745FF002532
:10238000FEF7FAF9DAE700BF04ED00E0002330B50C
:10239000064A52F83350DC0025B942F83310224483
:1023A000506030BD0133082BF3D1FAE7402A0820F2
:1023B00070B504460D461646FEF7CEF994F8443043
:1023C000FF2B04BF002384F8443094F84530FF2BE2
:1023D00004BF002384F84530FEF7CEF9A36B2BB978
:1023E0003246294604F12400FEF774FD2046BDE87C
:1023F0007040FFF741BC000010B5094C094A0121AB
:10240000002001F0BFFA237833B906F001F805F097
:102410002FFC0123237010BDBDE8104001F0C4BCA7
:10242000172B082041240B00002330B5064C95B231
:1024300021449CB2AC4202D30023835430BDCC5C17
:10244000C4540133F5E700BF3C2C0820F0B5274801
:10245000B7B00BF05FFC0223C5B201AE2A46244997
:1024600030468DF810300BF095FB9DF804309DF848
:1024700005005A1C8DF8113000239DF80610024407
:102480008DF8120019488DF813100A44D9B28D4204
:1024900024D892B2174930460BF07CFB0023ACB233
:1024A000271DFA1836A992B20A44F15C0133042BB5
:1024B00002F8C81CF5D1032236AB234403F8C02C24
:1024C00036AB1C440A2304F8BF3C0B4B05F10A024F
:1024D000186804A9C368984737B0F0BD195C04AC0C
:1024E0001C4421710A440133D0E700BF422E08206A
:1024F00037240B003C240B00E02E082007B5435C7A
:10250000013189B28DF80430435C0021102201A80A
:102510008DF805308DF806100BF0F0FCC0B203B05A
:102520005DF804FB2DE9F743224B04460093B323E7
:1025300000F14606204F214DDFF88480ADF80430CD
:10254000B6B24FF0000904EB8901042289B2384683
:10255000FFF76AFF102200210BF0D0FC1022A881A7
:10256000002138460BF0CAFCAB883DF8192009EB76
:10257000830309F1010905EB43035040B9F1030F4F
:102580009882E0D104F10C0189B24046FFF7B6FF12
:10259000AB880E3405EBC302508301332A889BB20B
:1025A0009A42A4B2AB8001D9B442CAD103B0BDE80B
:1025B000F08300BF630028003C2E08209080072095
:1025C0003C2C082010B5084C4FF4807204F108012F
:1025D000201D00F0F3FC636803F580736360002343
:1025E000A4F8183110BD00BF182B08200A4B0B4A65
:1025F000B3F8101102EBC102D18A128BC3F80C118F
:102600000A440132C3F81421012283F81221002266
:10261000A3F81821704700BF182B082090800720CE
:102620000A4B10B5596803F58070C91ACA580433AB
:10263000C2F307241A715C71C2F30744C2F3076244
:102640009C71DA718342F1D110BD00BF182B0820B4
:102650002DE9F04F04460E46AE4FAF4DDFF8EC8249
:102660008FB03B88B3EB440F0BDC6B78013B042B42
:1026700000F24D81DFE813F00F007000B000C400DD
:10268000CA0031464046FFF739FF0236285501346B
:10269000A4B2B6B2E5E70DF1170000F095FC0028F2
:1026A00000F02F819DF817009C4D00284ED09C4AC9
:1026B0000121002001F066F900232B60994B0EAC3C
:1026C00044F8203D214698480BF0A6FA9749204649
:1026D0008B784A78C978009195490BF05BFA2146CE
:1026E00091480BF099FAFDF73FFE924902462046C9
:1026F0000BF050FA21468C480BF08EFAFDF736FEAF
:102700008C49024620460BF045FA214686480BF0DC
:1027100083FAFDF72DFE8749024620460BF03AFA70
:10272000214681480BF078FA00F076FC064600F06E
:102730007BFC2B68804900933246034620460BF011
:1027400029FA214678480BF067FA88E07B4A012194
:1027500001F018F90123B0E7A9782B79784CEE78CD
:102760006D7981F0590283F01A00A274E0746A4016
:10277000704002EB002281F0350183F0CD0303EBC2
:102780000123A260142104226E482382FFF74CFE2D
:10279000102200216B480BF0B1FB238A0422584021
:1027A00060801A216748FFF73FFE0021102265482C
:1027B0000BF0A4FB238A58404FF6FF73A081E381FE
:1027C00000245648A0F81041FFF710FF5E4980F83A
:1027D0001A41A0F81C41B5E7042208215948FFF727
:1027E00023FE1022002157480BF088FB0022544B97
:1027F000564918800C209A80FFF794FE5449A1E7AF
:1028000052490820FFF78EFE52499BE7434C94F84B
:102810001A71002F79D00025494EA846B346A4F876
:102820001051B4F8102133889A421BD3B368ADB26B
:10283000AB4268D1207800F0FFFB002861D0464908
:1028400039480BF0E9F9454B1C68FEF7B5F90A2346
:1028500002460093012100232046FEF773FF0FB0CC
:10286000BDE8F08F4FF00009FFF7C0FEB4F810216B
:1028700006EBC203DB8A06EBC202928AA4F80A3195
:1028800003F47F4303EB02136360B4F810310BEBE6
:10289000C302128B01324A4503D80133A4F8103128
:1028A000BFE7FFF7BDFE6368B4F80AC103F58073A4
:1028B00063601CF0FF03A4F8188118BFA4F8183156
:1028C000D4F81431B4F818E10393002318469AB2EF
:1028D0000CEB0201724492B2FF2A09EB030A89B29F
:1028E00004D908B1A4F80A11D146CEE7039A0133FE
:1028F0009142F6D20EEB03022244D27938461544B7
:10290000E5E717491EE717491CE717491AE7174972
:1029100018E700BF382C0820802A0820182B082030
:10292000AC230B0036303A00422E082064220B0004
:10293000CE230B00D6230B00DA230B00BD230B00A4
:10294000908007203C2E0820E8230B003C2C082018
:10295000EB230B00EE230B00F1230B00D82E0820F5
:10296000E5230B00F4230B00F7230B00FA230B00E5
:10297000014902480BF050B9FA230B00422E0820FF
:1029800010B5244A9178D378234A03EB012392F8B7
:1029900012119BB2A2F80831144669B1B2F81011B5
:1029A0001E4A02EBC102928A9A4230D11C491D484C
:1029B000BDE810400BF030B9B2F818314BB1FF2030
:1029C000DA1D2244FF2B18D909B1A4F81831FFF7FA
:1029D000F9FDB4F810311148013302889BB29A42D4
:1029E000A4F810310FD0FFF701FEB4F81031B4F89D
:1029F000082100EBC300838AD6E7013302F8010FF8
:102A00009BB20121DEE7012384F81A31CEE70649A3
:102A1000CDE700BF802A0820182B082090800720CF
:102A2000F1230B00422E082074230B000422002106
:102A3000F0B56B4C6B4EB4F81E71B4F81C3185B018
:102A400090B2874200F2888009B1A4F81C31F319D2
:102A5000F25D5B7803EB0223B4F81C219BB29A422F
:102A600040F0B780B278F37803EB022394F8122198
:102A70009BB2A4F80A3122B35B4DB4F8102105EBE8
:102A8000C202D28A9A426DD1584A0121002000F038
:102A900079FF002384F81231B4F81031B4F80A2118
:102AA00005EBC305A98A02F47F4303EB011312F07F
:102AB000FF0F636005D0FFF7B3FD94F80A31A4F867
:102AC00018310425AF4259D1842F1AD0D4F81421DB
:102AD000D4F80C319A426DD1B4F818318BB1444A14
:102AE0000121002000F04EFF0021FF20B4F8183132
:102AF000DA1D2244FF2B57D909B1A4F81831FFF78A
:102B000061FDD4F80C21D4F81431374D9A4214D118
:102B1000384A0121002000F035FFB4F810312A882E
:102B200001339BB29A42A4F810314ED0324A0121AF
:102B3000002000F027FFFFF759FD304930480BF027
:102B40006BF8EA892F4901A80BF024F801A92C4859
:102B50000BF062F800200FE0B15C01320B449BB235
:102B600001216DE7284A0121002000F00BFF2749D1
:102B700023480BF051F8072005B0F0BDB4F8182138
:102B8000715D531C9BB22244B3F5807FA4F81831C9
:102B9000117201D1FFF716FDD4F80C310135013364
:102BA000C4F80C31ADB28DE7013302F8010F9BB2CE
:102BB00001219FE7164A0121002000F0E3FE15499C
:102BC0000F480BF029F80820D6E7012384F81A31C2
:102BD000B3E711490A480BF01FF80420CCE700BF07
:102BE000182B0820802A08209080072077230B00CC
:102BF00088230B0099230B009E230B00A3230B00BB
:102C0000422E082037240B007C230B0085230B0069
:102C10008D230B0096230B00A6230B0008B5064B53
:102C2000B3F818310BB1FFF7CDFCBDE808400349FC
:102C300003480AF0F1BF00BF182B0820A9230B009E
:102C4000422E08202DE9F047404C414B61781B880B
:102C50000829404E4FF0020221D1073B93FBF2F3CB
:102C60003D480322A6F81E31FFF7DEFB3B4B102246
:102C7000DD8900210135ADB23748DD810BF03EF929
:102C8000C0F30B00854208D196F81A3123B33449BA
:102C90003448BDE8F0470AF0BFBF3349F8E7043BCA
:102CA00093FBF2F34FF00808A6F81E310025DFF879
:102CB000C4902A4FB6F81E311FFA85FA08EB4A0174
:102CC000534589B20BD86378053B042B32D8DFE833
:102CD00003F0212531292D004FF00B08E6E7484687
:102CE000FFF70CFC0AF0010ABA449AF812306B4064
:102CF0005840C0B200F00F023A4407EB101092F8AF
:102D0000141190F81421ABB2234402EB01129A7013
:102D10000135CFE7BDE8F047FFF72ABEBDE8F04731
:102D2000FFF72EBEBDE8F047FFF780BEBDE8F047D5
:102D3000FFF774BF0D490B480AF06EFFBDE8F0477E
:102D40000B4A0121002000F01DBE00BF802A082090
:102D5000382C0820182B08203C2E082090800720B3
:102D600058230B00422E08205B230B00FA230B0094
:102D70005E230B003C2C082010B504211148FFF7FE
:102D8000BDFB114C062120700E48FFF7B7FB042253
:102D9000607011460D48FFF747FB2378202B06D0C3
:102DA000262B0CD00A4909480AF036FF03E0082117
:102DB0000220FFF74DFCBDE81040FFF747BBFFF7CF
:102DC00041FFF8E73C2C0820802A0820422E0820EA
:102DD000FA230B002DE9F3470024264627463E4DF3
:102DE000002000F0F7FE002004F040FA012004F07B
:102DF0003DFA00F0ADFD394B012218680DF10701D5
:102E00000A23806902F0ECFF00285AD02B78022BAD
:102E100018BF00269DF80730B6F5007FAB5534BFCC
:102E2000334600235E1CEB5CB6B20A2B49D12C4B17
:102E30001E8000262B78022B41D1294C2388013B90
:102E4000EB5C0A2B3BD103220121264895F8018037
:102E500095F802A095F80390FFF7E6FA00211022FA
:102E600020480BF04BF8204B81B2198023885FFA81
:102E700088F80A3B99425FFA8AFA5FFA89F927D102
:102E8000002208F1010454444C4490B2031D8142D5
:102E90009BB219D80433EB5C0431032B89B217D1F0
:102EA00004221048FFF7C0FA102200210D480BF051
:102EB00025F84440A4B264B9FFF75EFF90E701240F
:102EC0008EE7002C8CD0B5E7EB5C01321C44DCE7CC
:102ED0002F70002484E700BF3C2C0820E02E08203F
:102EE0003A2C08203C2E0820382C08201F4B37B5E0
:102EF0001C78002C37D101251D4A294620461D701B
:102F000000F040FD00F048F81A4B1B481D701B4BA9
:102F10004E2218604FF4E13143699847032221465D
:102F20002846FEF721FF20B1234622462146FEF720
:102F300041FF134B4FF47A71009301220023114893
:102F4000FEF7DAFB104B0146186010B90F4A00F08B
:102F500019FD012200230E49CDE900230D484FF44D
:102F60001672FDF7FDFC03B030BD00BF162B082024
:102F7000FD230B00DC2E0820D0810720E02E082046
:102F8000F9230A000C240B00D82E082014240B006F
:102F90002B240B00D52D0A0010B50621002003F0CC
:102FA0006DFF034630B1BDE81040034A0121002007
:102FB00000F0E8BC10BD00BF4A240B0001234FF411
:102FC0008072006803F06EBF70B5002204460D21C8
:102FD0000E4803F009FF0646A8B90C4803F0EFFEBF
:102FE00010F0040507D00A4A0121304600F0CAFC5F
:102FF0000120207070BD074A0121284600F0C2FC64
:1030000025700120F6E70020F4E700BF000A0E401B
:10301000AC230B00BD230B00024B1868C0F3075014
:10302000704700BF40090E40024B1868C0F30320F0
:10303000704700BF40090E4008B5022238B10B218D
:10304000044803F0D1FEB0FA80F0400908BD0C211D
:10305000F6E700BF000A0E400023C0E90033C0E9D4
:103060000233C0E90433C0E90633704708B5064AA5
:103070000121002000F086FCBDE80840034A012140
:10308000002000F07FBC00BFEC240B0002250B00E9
:1030900030B5304893B003F075FC10F0FF0F52D0FC
:1030A00000252C4CE9B2204603F074FC03024CD5F9
:1030B000294CA06021462748256003F0BCFCE36949
:1030C00012A90293A369082241F8443D05A80AF019
:1030D0006DFC0022236920460393A3798DF81D20FF
:1030E0008DF81C3063799B1A18BF01238DF81030BE
:1030F000FFF7B2FF19491A480B68009201330B60C1
:10310000134603991D2B50F823201AD0914203F146
:103110000103F7D10023142203A909A88DF8203058
:103120000AF044FC694608A800F0D0FA009B53B1AD
:103130004FF080520B4B1A60BFF34F8FBFF36F8F6E
:1031400001E09142E6D013B030BD0135082DA9D180
:10315000F9E700BF00400B40E82E08207830082037
:103160008430082004ED00E030B5304893B003F01F
:1031700009FC10F0FF0F52D000252C4CE9B220467C
:1031800003F008FC03024CD5294CA06021462748D7
:10319000256003F050FCE36912A90293A369082299
:1031A00041F8443D05A80AF001FC23692046039339
:1031B000A3798DF81C3001238DF81D30637900331D
:1031C00018BF01238DF81030FFF746FF002319497F
:1031D00019484A68009301324A6003991A18742BFF
:1031E000926F1AD0914203F10403F7D10123142204
:1031F00003A909A88DF820300AF0D8FB694608A871
:1032000000F064FA009B53B14FF080520B4B1A60F0
:10321000BFF34F8FBFF36F8F01E09142E6D013B041
:1032200030BD0135082DA9D1F9E700BF00800B4062
:10323000102F0820783008208430082004ED00E0AA
:103240002DE9F34704463A4D407C3A4E2F5C81000D
:103250000A183A4406EB4213A268D4F800C09A61F7
:10326000E268DA612279A2B10122C3F810C05A7172
:103270000B183B44227C06EB43139A7178B101286A
:1032800004D02D4A0121002000F07CFBDFF8B4803F
:1032900007E05A71294A02EA8C421A61E8E7DFF82E
:1032A000A8800C27DFF8A490637C404603EB8301E1
:1032B000EB5C194406EB411103F0F7FB0128824651
:1032C000637C14D00821EB5C40469940C9B203F0FE
:1032D0005BFB0522617C6B5C0133DBB2B3FBF2F27A
:1032E00002EB82029B1A6B5402B0BDE8F087EA5CE5
:1032F0005146009200204A4600F044FB013F052061
:10330000FDF76CFD17F0FF07CED151460C4A384649
:1033100000F038FB4046637C03EB8301EB5C19440F
:1033200006EB411102B0BDE8F04703F044BB00BF1B
:10333000E42E0820382F0820B0240B000000FC1FCA
:10334000E1240B0000800B4000400B40CB240B001D
:10335000014803F0E5BE00BF082F0820014803F034
:10336000D1BE00BF082F08202DE9F04104463821C6
:103370001A4803F0C5FEFFF7F1FF2B2003F0D4FA43
:1033800022461749174803F0C7FB20B1164A01210E
:10339000002000F0F7FA03254FF0FF31114803F049
:1033A000EFFA104803F0A7FBA84600260F4C0D4F7C
:1033B0002046FFF751FEEB00093B256084F80480AE
:1033C000E3716671E66021463846013503F0FFFA85
:1033D000082D04F12004EBD1BDE8F081082F08206E
:1033E00000BD010500400B4069240B00382F082068
:1033F000014803F087BE00BF302F08202DE9F041BF
:10340000044636211A4803F07BFEFFF7F1FF2C201B
:1034100003F08AFA22461749174803F07DFB20B1D2
:10342000164A0121002000F0ADFA03254FF0FF31CC
:10343000114803F0A5FA104803F05DFBA8460026EA
:103440000F4C0D4F2046FFF707FEEB00093B2560B0
:1034500084F80480E3716671E660214638460135E0
:1034600003F0B5FA082D04F12004EBD1BDE8F0819A
:10347000302F082000BD010500800B4089240B007F
:10348000D82F08200D4938B50846FFF7E5FD002381
:1034900001250B4C0B60CB600A4B20460B610D7174
:1034A00003F095FA2946204603F068FA4FF40062CB
:1034B000054B5A60F02283F82B2338BDE82E0820F4
:1034C00000400B400000FC1F00E100E00D4938B552
:1034D0000846FFF7C1FD002301250B4C0B60CB60B4
:1034E0000A4B20460B610D7103F071FA2946204604
:1034F00003F044FA4FF48052054B5A60F02283F8EF
:103500002C2338BD102F082000800B400000FC1F2A
:1035100000E100E007B5074B0122009342F2107171
:1035200000230548FEF7E8F8044B186003B05DF887
:1035300004FB00BF6D300A00A9240B008030082076
:103540000023011D02481A460068FEF733BC00BF85
:10355000783108207FB51420FDF740FC0F4D104C4A
:103560004FF0FF3201A92868FEF7A8FD48B19DF889
:103570001530012B05D801A8FFF762FE1420FDF7D6
:103580002DFC0020FDF776FD6328E9D82346054A87
:103590000121002000F0F6F9E2E700BF78310820B1
:1035A0001B250B0043250B0078220D4B10B502FBA9
:1035B0000032002352F82340980044B1A4EB010CE0
:1035C000DCF1000040EB0C001D2B03D110BD1150AD
:1035D0000120FBE78C4203F10103EBD1F8E700BFC8
:1035E00084300820F7B51A4E074634786CBB0125A5
:1035F0002346019400954FF4967216491648FDF73C
:10360000AFF9224614211020FEF7AEFB134B144AEB
:1036100018602946204600F0B5F9FFF77BFF3868AF
:10362000FFF7A2FEB868FFF7E9FEFFF72BFFFFF7F1
:103630004DFF0C490220357000F040F80320094985
:1036400003B0BDE8F04000F039B803B0F0BD00BFF2
:10365000743108202A250B0055350A0078310820DE
:1036600033250B0041350A00022310B58AB00AAC9D
:1036700004F8283D0146142201A80AF097F92046D3
:1036800000F03EF80AB010BD70B504460E4623683F
:1036900023B92660012010E02C46F8E7B342F9D0A8
:1036A0006568002DF8D10821012009F05FFE08B1FE
:1036B000C0E9005560600028E9D170BD024B03EB02
:1036C000C000FFF7E1BF00BF4C3208200A460146A8
:1036D000084808B500680023FEF734FC48B9064BDB
:1036E00019784A1C1A7021B9BDE80840034A00F055
:1036F00049B908BDF03308207C3108207A250B0039
:1037000001460348002305220068FEF753BB00BFB3
:10371000F033082010B54FF461628AB0044600F11E
:103720000801D1E90001002309F098FC13430AD1F4
:103730002822214668460AF039F9092368468DF89F
:103740000030FFF7DDFF0AB010BD10B53C228AB093
:10375000044600F10801D1E90001002309F07EFCD4
:1037600013430AD12822214668460AF01FF908238C
:1037700068468DF80030FFF7C3FF0AB010BD0000A7
:103780002DE91048144C8BB023785A1C132B22704F
:1037900018D9124B124A0421002000F0F3F8072335
:1037A00010498DF80030D1E900BC1BF101024CF149
:1037B00000036846C1E90023CDE902BCFFF7A0FF82
:1037C00000232370062368468DF80030FFF798FF2A
:1037D0000BB0BDE8108800BFE533082057250B006B
:1037E00025220B00E833082038B503780546322B34
:1037F00010D8094C04EBC304236823B1284698472A
:103800006468002CF8D12978044A52F82130013339
:1038100042F8213038BD00BF4C32082080310820EA
:1038200000B50C4D0C4C8BB04FF4FA726946286809
:10383000FEF744FC10B16846FFF7D6FF0020FDF705
:1038400019FC6328F0D82346044A0121002000F027
:1038500099F8E9E7F033082064250B0043250B00B5
:10386000F7B5224E224B234A0121002000F08AF8AE
:103870003478002C37D1224628213620FEF774FAFE
:1038800001251D4B4FF4167218601C492346019404
:1038900000951B48FDF764F84FF40763194A00933D
:1038A00002214FF4CC73032000F06CF8164B2A462B
:1038B0003221009315482346FDF71EFF0746FDF70A
:1038C0007BF923460246294600943846FDF73AFF25
:1038D0000F491048FFF7D8FE0F491048FFF7D4FEF4
:1038E00003F0A8FF357003B0F0BD00BFE43308203B
:1038F0006F250B0025220B00F03308207F250B00DD
:1039000021380A008A250B0081370A00C1250B00E7
:103910004B370A008432082015370A008C32082001
:1039200010B54FF40041074803F0CCF9064C83B2C0
:103930001A462046054903F0D9F92046BDE8104053
:1039400003F0E0B900093D00501A0E40006000107D
:10395000014803F0D7B900BF501A0E404FF0604342
:10396000013810F8012F02B97047D3F8801EC9073B
:10397000F7D5D3F8001EC907F3D519680029FCD084
:103980001A70EEE70CB437B5184B04461B78CBB968
:103990004FF06045D5F8003EC340DB0712D5144B0D
:1039A0001B5C8B420ED307AB6421069A114801932E
:1039B0000BF058FD01231049A340A4002C4411F83A
:1039C000012F2AB9002003B0BDE8304002B0704793
:1039D000D5F8800EC007F2D5D5F8000E0342EED020
:1039E00020680028FCD02270E9E700BF623408207C
:1039F000F8330820FE330820FD33082070B5144644
:103A000086B004AA0121204601F0BAFF05AA0546A6
:103A10000221204601F0B4FF0023049A0646AB546D
:103A2000059A3349835428460AF0D6F800284ED028
:103A3000304928460AF0D0F800284AD02E492846B6
:103A40000AF0CAF8002846D02C4928460AF0C4F8E3
:103A5000002842D02A4928460AF0BEF800283ED065
:103A6000284928460AF0B8F800280CBF0424062488
:103A7000254930460AF0B0F898B3244930460AF098
:103A8000ABF880B3224930460AF0A6F860B121496C
:103A900030460AF0A1F840B31F4930460AF09CF8BE
:103AA000002814BF01200420062C18BF1B4B1C4A01
:103AB00018BF18550121CDE901602B460094002064
:103AC000FFF760FF0020174B187006B070BD04466A
:103AD000CEE70124CCE70224CAE70324C8E7052483
:103AE000C6E70120E0E70220DEE70320DCE700BFB5
:103AF000D3250B00F53D0B00DB250B00E0250B006B
:103B0000E6250B00EA250B00F3250B00FA250B0038
:103B1000FF250B0005260B000D260B00F8330820AF
:103B200013260B006234082002220A4B10B5012430
:103B30001A70042208485C70DC709A701C715C7109
:103B400001F0F2FE2146BDE81040044B044A00207B
:103B5000FFF718BFF83308209C260B00C7250B0081
:103B600025220B004FF0FF304FF0FF31014BC3E92E
:103B7000000170477834082001232DE9004803FA3A
:103B800000F0074BD3E9002302EA000B03EAE07CD4
:103B90005BEA0C0314BF01200020BDE8008800BFD1
:103BA00078340820012303FA00F0C0432DE90048CF
:103BB0000549D1E9002302EA000B03EAE07CC1E9F0
:103BC00000BCBDE8008800BF78340820004870477A
:103BD0006834082030B50C4C8BB022780546824200
:103BE00003D11220FFF7C8FF58B11220FFF7DAFF08
:103BF0001223684625708DF800308DF80150FFF7CC
:103C00007FFD0BB030BD00BF6834082010B58CB00C
:103C100003F024FF8DF80A0004F096F88DF80C00EC
:103C200004F0F8F88DF80B0004F07CFAADF80E0003
:103C300003F0BAFE1C238DF80D000CA800F8283DF7
:103C4000FFF75EFD064B1C68FCF7B6FF0A23024631
:103C50000093012100232046FDF774FD0CB010BD38
:103C600080340820FFF7D2BF73B51A4D1A4A0121DC
:103C70000020FFF787FE03F09DFE04F007F804F034
:103C800093F804F097F904F053FA2C7804BB134B23
:103C900001220093642123461148FDF72DFD114EAA
:103CA000114B30600122FA21009310482346FDF7A2
:103CB00023FD0F4B36681860FCF77EFF0A2302468F
:103CC0000093012123463046FDF73CFD01232B7074
:103CD00002B070BD74340820AC260B00653B0A00AE
:103CE000C1250B0064340820653C0A00BB260B008C
:103CF00080340820024B034A01210020FFF742BE16
:103D0000C1260B0025220B0013B5214802F098FFB5
:103D1000C207044618D500230DF103011C48019386
:103D200002F097FF1B4801AB01220DF103018069EE
:103D300001F0F6FF019B3BB14FF08052164B1A6029
:103D4000BFF34F8FBFF36F8FA3071AD5002211481F
:103D500002AB43F8042D0DF103010122C06902F00A
:103D6000BEF880B1019B3BB14FF080520A4B1A6004
:103D7000BFF34F8FBFF36F8F9DF80310044802F01D
:103D800061FF02B010BD0221014802F057FFF8E7C1
:103D900000080E40D081072004ED00E00121014819
:103DA00002F04ABF00080E40BFF34F8F0449054B95
:103DB000CA6802F4E0621343CB60BFF34F8FFEE7A3
:103DC00000ED00E00400FA050221014802F034BFD2
:103DD00000080E407FB5244B04460E4615460121CF
:103DE000224A0020FFF7CEFD214B1A782AB1214943
:103DF0000720FFF763FC04B070BD0121A2691970B0
:103E00001AB9602001F09EFEA061E2692AB9012181
:103E10004FF4807001F096FEE0610023164A452DB4
:103E20000393CDE9002605D04F2D14BF4FF4006356
:103E30004FF4007302934FF48073104C08202360FA
:103E400002F072FD69460E4802F0D6FE0C4802F000
:103E5000F0FE0B4802F0EAFE0121094802F0ECFEF8
:103E6000F02384F80833C6E7D3260B0025220B0085
:103E700084340820F53C0A0000BD010500E100E0A3
:103E800000080E40024B034A01210020FFF77ABDD3
:103E9000E4260B0014270B0030B543488DB002F028
:103EA0002EFC424B04461B78002B35D0C30716D599
:103EB000002301A93C48029302F030FC3C4802ABCD
:103EC000012201A9806901F02BFF029B3BB14FF059
:103ED0008052384B1A60BFF34F8FBFF36F8FA50727
:103EE0001AD5002232480CAB43F8282D01A9012233
:103EF000C06901F0F4FF002851D0029B3BB14FF0A4
:103F000080522C4B1A60BFF34F8FBFF36F8F9DF819
:103F10000410254802F0F9FB274B1B78002B3CD0FE
:103F2000A00405D50222254B1F481A7002F0E9FBB8
:103F300061040CD51C4802F0D5FB204A20491378B7
:103F400041F8230001331848137002F0DAFBE2074E
:103F50000CD51A4D2B78062B08D81949124801EBBD
:103F6000830102F0DBFB2B7801332B70230414D583
:103F7000002301930F230CAC04F8283D20221049A4
:103F800003A809F013FD204601A9FFF79FFB0222B9
:103F90000A4B05481A7002F0B4FB0DB030BD022187
:103FA000014802F0AAFBB7E70080094086340820E8
:103FB000F081072004ED00E08534082087340820D4
:103FC000B48107200121014802F095BB008009401F
:103FD0000221014802F08FBB0080094070B52A4BD6
:103FE00015461A7886B004460E4612B9274A12784A
:103FF0002AB127490720FFF761FB06B070BD0121F8
:10400000826919701AB9602001F09CFDA061E26913
:104010002AB901214FF4807001F094FDE0611D4840
:1040200002F0F0FA03211B4802F067FBC023452D84
:104030000096019304D04F2D23D04FF4006300E08D
:104040000023029300234FF40035134C1120CDE9D7
:104050000333059302F068FC104A69460D4802F0EC
:10406000E5FA0C48256002F043FB0A4802F03DFBEC
:104070000121084802F03FFBF02384F8113325604A
:10408000BBE74FF40073DCE7863408208534082052
:10409000853E0A000080094000E100E000BD010506
:1040A000F8B52C4B04461A7812B92B4A16782EB163
:1040B000BDE8F84029490720FFF700BB0125284843
:1040C00015701E7002F09EFA0321254802F015FBC0
:1040D000112002F029FC224802F0FFFA2146214A71
:1040E0001F4802F0C1FA044630B1294630461E4A44
:1040F000BDE8F840FFF746BC4FF40037184802F01F
:10410000ECFA174802F0C9FA154802F0CBFA21463A
:10411000134802F0CCFA2146114802F0CFFA134EB0
:1041200004210F4802F0D1FA29460D4802F0AFFAF7
:104130000B48376002F0DCFA4EF20101084802F049
:10414000DAFAF0230A4A86F8113329463760204606
:10415000CEE700BF8634082085340820853E0A005B
:104160000080094000BD0105F8260B0000E100E0D9
:1041700006270B00024B034A01210020FFF702BC77
:1041800030270B0014270B0013B5214802F0B7FAB3
:10419000C207044618D500230DF103011C48019302
:1041A00002F0BCFA1B4801AB01220DF1030180694A
:1041B00001F0B6FD019B3BB14FF08052164B1A60E7
:1041C000BFF34F8FBFF36F8FA3071AD5002211489B
:1041D00002AB43F8042D0DF103010122C06901F087
:1041E0007EFE80B1019B3BB14FF080520A4B1A60BA
:1041F000BFF34F8FBFF36F8F9DF80310044802F099
:1042000084FA02B010BD0221014802F076FAF8E704
:1042100000C009401082072004ED00E001210148A0
:1042200002F069BA00C009400221014802F063BAF5
:1042300000C0094070B5294B15461A7886B004466F
:104240000E462AB126490720FFF738FA06B070BD9E
:104250000121826919701AB9602001F073FCA06114
:10426000E2692AB901214FF4807001F06BFCE06132
:104270001C4802F0C7F903211A4802F03EFAC02395
:10428000452D0096019323D04F2D23D04FF400638A
:10429000029300234FF48025134C1220CDE9033301
:1042A000059302F041FB114A69460E4802F0BEF93F
:1042B0000C48256002F01CFA0A4802F016FA0121A7
:1042C000084802F018FAF02384F812332560BDE79D
:1042D0000023DDE74FF40073DAE700BF88340820DD
:1042E00075410A0000C0094000E100E000BD010581
:1042F000024B034A01210020FFF744BB44270B0077
:1043000014270B0013B5214802F0F9F9C20704463F
:1043100018D500230DF103011C48019302F0FEF9AA
:104320001B4801AB01220DF10301806901F0F8FC8B
:10433000019B3BB14FF08052164B1A60BFF34F8F79
:10434000BFF36F8FA3071AD50022114802AB43F8C1
:10435000042D0DF103010122C06901F0C0FD80B1FF
:10436000019B3BB14FF080520A4B1A60BFF34F8F55
:10437000BFF36F8F9DF80310044802F0C6F902B036
:1043800010BD0221014802F0B8F9F8E700000A4028
:104390003082072004ED00E00121014802F0ABB9B2
:1043A00000000A400221014802F0A5B900000A40BD
:1043B00070B5294B15461A7886B004460E462AB1C8
:1043C00026490720FFF77AF906B070BD01218269FE
:1043D00019701AB9602001F0B5FBA061E2692AB931
:1043E00001214FF4807001F0ADFBE0611C4802F048
:1043F00009F903211A4802F080F9C023452D0096DF
:10440000019323D04F2D23D04FF400630293002358
:104410004FF40025134C1320CDE90333059302F02C
:1044200083FA114A69460E4802F000F90C482560EB
:1044300002F05EF90A4802F058F90121084802F03A
:104440005AF9F02384F813332560BDE70023DDE734
:104450004FF40073DAE700BF89340820F1420A0004
:1044600000000A4000E100E000BD010513B504466C
:10447000C0698DF8071060B10A2301220DF1070110
:1044800001F0B3FB636803B198479DF8070002B0E1
:1044900010BD4FF0FF30FAE710B50A230446C0699B
:1044A00001F0A3FB18B9054A0121FFF76BFA636815
:1044B00013B1BDE81040184710BD00BF58270B00CE
:1044C0000EB433B5114C05462068C8B16421FDF720
:1044D00097FEA8B106AB059A4FF480710C48019382
:1044E0000AF0C0FF0A4809F015FC094902462846AF
:1044F000FFF7D2FF002320681A461946FDF75AFC41
:10450000002002B0BDE8304003B070478C35082071
:104510008A34082010B5044C23681BB90120FDF72C
:10452000FFFC206010BD00BF8C35082010B503785B
:1045300086B0072B0FD10B4C00F01CF823685A1CD7
:104540000BD1206018238DF80030236868468DF861
:10455000083007F039FF06B010BD9842F2D0FCF7E2
:10456000B9F8EFE75082072001490720FFF7A6B806
:104570002D450A00084BD86BDB6B80F020001A0633
:10458000064BC0F34010DB6B58BF40F002001B022B
:1045900058BF40F004007047000E0E4000100E405F
:1045A000F0B585B00E46054605F02BF807460B4BD7
:1045B0001C78631F5C425C4104F082FA084B0146A0
:1045C00053F8273002940193002332460093284683
:1045D000052307F0C0F905B0F0BD00BF9C350820E9
:1045E00030290B00F0B585B00E46054605F009F8F8
:1045F00007460B4B1C78231F5C425C4104F060FAB9
:10460000084B014653F827300294019300233246A9
:1046100000932846042307F09EF905B0F0BD00BFC3
:104620009C350820142A0B00F0B585B00E460546CF
:1046300004F0E7FF07460B4B1C78E31E5C425C412D
:1046400004F03EFA084B014653F8273002940193D8
:104650000023324600932846032307F07CF905B077
:10466000F0BD00BF9C3508205C280B00F0B585B07C
:104670000E46054604F0C5FF07460B4B1C78A31EEB
:104680005C425C4104F01CFA084B014653F82730A9
:10469000029401930023324600932846022307F038
:1046A0005AF905B0F0BD00BF9C350820C8290B00A1
:1046B000F0B585B00E46054604F0A3FF07460B4B48
:1046C0001C78631E5C425C4104F0FAF9084B014619
:1046D00053F8273002940193002332460093284672
:1046E000012307F038F905B0F0BD00BF9C35082064
:1046F00010280B00F0B585B00E46054604F081FF8A
:1047000007460A4B1C7804F0DBF9094BB4FA84F431
:1047100053F8273064090193002301460294009363
:104720003246284607F017F905B0F0BD9C35082041
:1047300078270B0073B5044604F063FF064604F0C7
:10474000C9F9084B0546186806F04EFD064B0246AF
:1047500053F82630294600932046812307F000F8BD
:1047600002B070BD983508207C290B0073B5044653
:1047700004F047FF064604F0ADF9084B05461868FB
:1047800006F032FD064B024653F8263029460093C8
:104790002046802306F0E4FF02B070BD9435082067
:1047A000142D0B00F0B585B00F46064604F029FF26
:1047B00004460E4B1A780E4B1B789A4216BF0D4BCF
:1047C0000D4D53F8205004F07BF90C4B002253F8A8
:1047D00024300146029303230395CDE9003230468D
:1047E00082233A4606F0FDFF05B0F0BD9C35082057
:1047F00091350820602A0B00A8280B00C4270B0065
:10480000F0B5204C85B023781F4A06460F4600209D
:104810000121FFF7B7F8257804F0F3FE0446052DD3
:1048200025D8DFE805F02D031C201E22174B53F876
:10483000244004F0E6FE054604F042F9144B002241
:1048400053F825300146029303230394CDE9003247
:10485000304681233A4606F0C4FF05B0F0BD0D4B4B
:10486000E5E70D4BE3E70D4BE1E70D4BDFE70121FA
:104870000C4A0020FFF786F80021012003F0B2FD6A
:10488000094BD4E79C35082008290B0010280B00A1
:104890007C290B00C8290B00142A0B005C280B0094
:1048A00030290B0011290B0078270B00F8B503788D
:1048B0001D2B39D14678012E36D1304603F08CFDC0
:1048C0001A4C1B4D0346207028701A4807785FBBAE
:1048D0000670052B1AD8DFE803F0250308130C1522
:1048E00000F046FB05F0C4FC06E0002000F01CFAD6
:1048F000F8E7002000F000FDBDE8F84005F0AABC94
:104900000120F7E7BDE8F84000F060BF0A4A012146
:104910000020FFF737F80021012003F063FD00239A
:104920002B7023700120E1E7F8BD00BF913508200E
:104930009C35082090350820AA280B000378F7B58D
:104940002A2B27D14778012F24D18578C67804797E
:1049500006F0BEFB024678B9802C0DD12C4A3946B0
:10496000FFF710F82B4B186806F056FC204603B0F2
:10497000BDE8F04006F07CBB13060BD5802A0BD0B7
:10498000812A34D00021CDE900642B46224A084612
:10499000FEF7F8FF03B0F0BD15B90EB9012C1CD01D
:1049A000812C07D0822C07D01A4B186806F034FCF3
:1049B0008020DCE7194BD6E7194B1978194B1B7887
:1049C0008B4208D0012003F00DFD4FF47A70FCF704
:1049D00005FA03F04DF98120C9E7104606F048FBBF
:1049E0000C4B186803B0BDE8F04006F015BC234638
:1049F0000D4A01210020FEF7C5FF094B0B4A1C7030
:104A0000012123460020FEF7BDFF06F04FFBE7E73C
:104A1000C6280B0094350820E1280B0098350820A3
:104A20009C35082091350820D8280B0008290B0058
:104A30000920704710B50446114A002106F094FB86
:104A40002046104A012106F08FFB20460E4A022123
:104A500006F08AFB20460D4A032106F085FB20461E
:104A60000B4A042106F080FB20460A4A052106F085
:104A70007BFB2046BDE81040074A062106F074BBC8
:104A800035470A00F5460A00B1460A006D460A009D
:104A900029460A00E5450A00A1450A0010B504466A
:104AA000074A002106F060FB2046064A012106F075
:104AB0005BFB2046BDE81040034A022106F054BBD0
:104AC0006D470A0001480A00A5470A0008B5002002
:104AD00000F00CFF06F080F906F070F906F058F9C6
:104AE0000A491D20FEF7EAFD09492A20FEF7E6FDE6
:104AF00006F010FB074B1860FFF7D0FF06F00AFB2B
:104B0000054B1860BDE80840FFF794BFAD480A00A8
:104B10003D490A0094350820983508200378262B53
:104B200002BF4278014B1A70704700BFA4350820BD
:104B300070470000064B187838B1064B187820B142
:104B4000054B1878003018BF0120FFF743B800BFAD
:104B50005582072056820720548207200378002BB5
:104B600049D1437D002B46D14268234B9A4242D122
:104B7000037B427B214902EB032292B2B2F5004F44
:104B80001F4B06D101221A700A700321187803F016
:104B9000B1BBB2F5804F03D103221A700122F3E7B3
:104BA000B2F5005F01D10B22F7E7B2F5805F01D1CA
:104BB0000522F2E7B2F5006F01D10722EDE7402AA6
:104BC00001D10922E9E7B2F5007F06D10D4A12783A
:104BD000052A0CBF11221522DFE7B2F5807F01D133
:104BE0001322DAE70A7822B11A7801321A70002209
:104BF000CAE71A70C9E7704700402806A5350820A3
:104C00009D350820A4350820027838B50346CAB976
:104C1000407DB8B959680C4A914213D101211A7BE1
:104C20005C7B0A4D04EB02243F2CC8BF084602F00F
:104C3000CFFE2B689C4205D019206043800803F00A
:104C4000A7FA2C6038BD00BF00403904A035082009
:104C50000346407D48B95968044A914205D15B7BBF
:104C60009B0658BF012003F0ADB8704700402102F9
:104C70000346407D48B95968044A914205D1DB7C1E
:104C80005B0758BF012003F0AFB970470140210412
:104C9000037810B4A3B9447D94B94268094B9A4291
:104CA0000ED10121837B084A13F04003074818BF47
:104CB000147010BC12BF017003701170FFF73ABF7F
:104CC00010BC704700402106548207209E35082002
:104CD0000378132B0CD183781BB1012B05D0FFF780
:104CE00029BF4278034B1A70F9E74278024BFAE782
:104CF000704700BF5582072056820720037870B5A1
:104D0000072B0CD1064B1B784BB100241426054D04
:104D100006FB04500134FEF7A7FC072CF8D170BD48
:104D20009E350820702D0B0030B5294A85B0012131
:104D3000034605460020FEF725FE3223002404A882
:104D400040F8103DCDE901440394FEF74BFCFEF71B
:104D5000FFFA20492046FEF727FC1F492046FEF7B0
:104D600023FC1E492046FEF71FFC1D492046FEF786
:104D70001BFC1C492046FEF717FC1B492046FEF78A
:104D800013FC1A491320FEF799FC1DB1184907209E
:104D9000FEF794FC17490020FEF790FC164900200E
:104DA000FEF78CFC15490020FEF788FC1449002012
:104DB000FEF784FC13490020FEF780FC12492620F0
:104DC000FEF77CFC11492B20FEF778FC05B030BDC6
:104DD000602D0B00004021060040090E0140210417
:104DE000004021020040390400402806D14C0A004E
:104DF000FD4C0A00914C0A00714C0A00514C0A000B
:104E0000094C0A005D4B0A001D4B0A00314B0A0099
:104E10000378002B44D1437D002B41D14268214BC4
:104E20009A423DD1037B427B1F4902EB032292B29F
:104E3000B2F5004F1D4B06D101221A700A700321F2
:104E4000187803F057BAB2F5804F03D103221A70D5
:104E50000122F3E7B2F5005F01D10B22F7E7B2F5CB
:104E6000805F01D10522F2E7B2F5006F01D1072280
:104E7000EDE7402A01D11522E9E7B2F5007F01D123
:104E80001122E4E7B2F5807F01D11322DFE70A782F
:104E900022B11A7801321A700022CFE71A70CEE7D9
:104EA000704700BF00402806AC350820A635082012
:104EB000027838B50346B2B9407DA0B959680A4AAC
:104EC000914210D1642401219B7B084D5C433F2C0F
:104ED000C8BF084602F07CFD2B689C4203D02046E8
:104EE00003F056F92C6038BD0302F00CA8350820F9
:104EF0000346407D50B95968054A914206D193F95D
:104F00000C30002BA8BF012002F05CBF704700BF2F
:104F100021C3FF180346407D48B95968044A9142AD
:104F200005D15B7B9B0758BF012003F05DB870473C
:104F300021C3FF180378132B14D182780A4B52B186
:104F4000012A0BD0187820B1084B1878003018BF10
:104F50000120FEF73FBE42781A70F3E74178034A1A
:104F60001170EFE7704700BF578207205882072073
:104F70001FB51C4A01210020FEF704FD4FF4FA730F
:104F8000002404A840F8103DCDE901440394FEF745
:104F900029FBFEF7DDF914492046FEF705FB13490E
:104FA0002046FEF701FB12492046FEF7FDFA1149A3
:104FB0002046FEF7F9FA10491320FEF77FFB204642
:104FC0000E49FEF77BFB20460D49FEF777FB204696
:104FD0000C49FEF773FB0C492046FEF76FFB04B04B
:104FE00010BD00BFFC2D0B000040280600A0180AD1
:104FF00021C3FF180302F00C354F0A00154F0A00B9
:10500000F14E0A00B14E0A00114E0A00037810B5A5
:10501000002B56D1437D002B40F08F804268474BD8
:105020009A4240F08A80837B427B1B0203EB02435F
:10503000C27B434C1344B3F5807F02D1012323701C
:1050400011E0B3F5806F05D1032323703D4B01229E
:105050001A700AE0B3F5805F01D10B23F5E7012B4D
:105060000DD105222270374A13702278364B032166
:10507000BDE810401A70344B187803F03BB9042B8C
:1050800001D10723E1E7102B01D10923DDE7B3F5B7
:10509000802F0FD12D4A01210020FEF773FC2C4BED
:1050A0001B78052BE1D12B4B1B78012B0CBF112357
:1050B0001323CAE7B3F5801F224B35D11522227086
:1050C000C5E70F2B39D10379002B36D1037A552B45
:1050D00033D1037B0C2B30D10269037F184C43EA98
:1050E00002634269120402F47F02134382691202CE
:1050F00092B21343184A9342A0D0B3F1022FA3D027
:10510000164A9342A9D0164A934201D105239CE73F
:10511000144A9342B5D0B3F5813FB6D0124A9342B8
:10512000B8D0124A9342C7E71A7822B122780132E6
:10513000227000228CE7227097E710BD21FFA7188C
:10514000AE350820B6350820AD3508206A2E0B0094
:10515000B5350820B4350820000200010002000423
:1051600000020008000200100002004000020200DD
:1051700003782B2B09D14378044AC3F3030313703C
:105180000121034A0020FEF7FDBB7047B43508201B
:105190003D2E0B000378262B07D14378034A0121CB
:1051A00013700020024AFEF7EDBB7047B5350820AA
:1051B000542E0B00037870B50446002B33D1407D8C
:1051C000002830D16268184B9A4213D10121237B09
:1051D000657B164E05EB03253F2DC8BF084602F040
:1051E000F7FB3368AB4205D019206843800802F012
:1051F000CFFF356062680E4B9A4214D10121237BA8
:10520000647B0A4D04EB03243F2CCCBF08460020EE
:1052100002F0DEFB2B689C4205D019206043800819
:1052200002F0B6FF2C6070BD00403904B035082094
:1052300000A0280A10B50446407DC0B962680C4B36
:105240009A4207D1637B03F06803682B18BF0120E3
:1052500002F0B8FD6268074B9A4208D1637BBDE853
:1052600010409B064CBF0020012002F0ABBD10BDDA
:105270000040210200A0180A10B50446407DB8B9CC
:1052800062680C4B9A4206D194F90C30002BA8BFEF
:10529000012002F0A9FE6268074B9A4208D1E37C24
:1052A000BDE810405B074CBF0020012002F09CBE0F
:1052B00010BD00BFC940310601A0180A0378132BA6
:1052C00014D182780A4B52B1012A0BD0187820B140
:1052D000084B1878003018BF0120FEF77BBC4278DD
:1052E0001A70F3E74178034A1170EFE7704700BF87
:1052F000598207205A8207201FB504461022002138
:10530000684608F0C9FB002C4FD1354A01212046E0
:10531000FEF738FB33492046FEF746F9324920466E
:10532000FEF742F931492046FEF73EF93049204662
:10533000FEF73AF92F492046FEF736F9322300935B
:105340002D492620FEF7BAF92C492B20FEF7B6F995
:105350004FF49640FEF7A4FE6846FEF743F928494D
:105360000020FEF7ABF927490020FEF7A7F92649F0
:105370000020FEF7A3F925490020FEF79FF92449F4
:105380000020FEF79BF922490F20FEF797F91C49F0
:105390001320FEF793F9002001F068FF012001F0CF
:1053A0006DFFFDF7D5FF04B010BD012CC8D1194A1F
:1053B00021460020FEF7E6FA17490020FEF7F4F830
:1053C00016490020FEF7F0F815490020FEF7ECF82A
:1053D00014490020FEF7E8F84FF4FA73AFE700BF76
:1053E0000E2E0B000040210200403904004021062F
:1053F00000403106C940310695510A0071510A003A
:10540000BD520A0079520A0035520A00B5510A000D
:105410000D500A00252E0B0000A0180A01A0180A42
:1054200000A0280A21FFA718F0B58DB09DF848709C
:10543000CDE90112CDE9033700900E4615461C4612
:10544000174A184B01210020FEF79CFA164B012247
:10545000079308238DF82C3000238DF820208DF839
:105460002D308DF824308DF82570ACB917238DF8C8
:1054700026300E238DF829307D238DF82A307E23A7
:10548000AD0007A88DF827608DF828508DF82B30D7
:10549000FEF7EAF80DB0F0BD013C8DF82640E8E7D4
:1054A000362F0B00742E0B0041E6FE1808B5084B92
:1054B000187848B1074B187830B1074B187818B1F5
:1054C000002004F0C1FE0120BDE80840FEF782BBC9
:1054D0005C8207205D8207205B82072003782B2BEC
:1054E00009D14378044AC3F3030313700121034A2B
:1054F0000020FEF747BA7047BC350820C72E0B00C6
:105500000378262B07D14378034A0121137000202A
:10551000024AFEF737BA7047BD350820E22E0B006D
:1055200010B5037886B00B2B044611D114220B4919
:1055300001A808F03BFA0A4B627801939DF80E30FF
:1055400042B923F0100301A88DF80E30FEF78CF855
:1055500006B010BD43F01003F5E700BFC0350820CA
:10556000410FFE18037853B9437D43B94268044B99
:105570009A4204D1011D1422024808F017BA70475C
:10558000170FFE18C0350820037837B5A3B9437D3F
:1055900093B94268094B9A420ED1847CC57CC37B87
:1055A000027C240144EA1514417B03F00F03807B45
:1055B0009208009406F0DAFB03B030BDEEE6FE1868
:1055C0000378132B0CD183781BB1012B05D0FFF787
:1055D0006DBF4278034B1A70F9E74278024BFAE745
:1055E000704700BF5C8207205D820720427D62B960
:1055F0004168064B994208D1837B13F0400F08BFE6
:105600000122034B1A70FFF751BF704700A0180A20
:105610005B820720037813B5202B044615D10F4B6E
:105620000F4A01210020FEF7ADF904F007FE70B12A
:105630000C4A01210020FEF7A5F9A378E278217930
:10564000E08864780094FFF7EFFE02B010BD0121FE
:10565000054A02B0BDE81040FEF794B9922E0B0047
:1056600025220B00FC2E0B000F2F0B00037810B52A
:10567000002B59D1437D002B56D142682B4B9A42C7
:1056800052D1837B427B1B0203EB0243C27B284C3B
:105690001344B3F5807F09D101232370254A137089
:1056A00020780321BDE8104002F024BEB3F5806FDE
:1056B00005D1032323701F4B01221A70F0E7B3F5C5
:1056C000805F01D10B23F5E7012B02D10522227067
:1056D000E4E7042B01D10723ECE7102B01D10923C8
:1056E000E8E7B3F5802F0FD1134A01210020FEF720
:1056F00049F9124B1B78052BD2D1114B1B78012B8A
:105700000CBF11231323D5E7B3F5801F094B02D13A
:1057100015222270D0E71A7822B122780132227045
:105720000022CAE72270BBE710BD00BF21FFA71807
:10573000B7350820BE3508206A2E0B00BD3508207D
:10574000BC350820027838B50346CAB9407DB8B9DF
:1057500059680C4A914213D101211A7B5C7B0A4D96
:1057600004EB02243F2CC8BF084602F031F92B6835
:105770009C4205D019206043800802F009FD2C608E
:1057800038BD00BF00A0280AB83508200346407D78
:1057900048B95968044A914205D15B7B9B0658BFC2
:1057A000012002F00FBB704700A0180A0346407D9D
:1057B00048B95968044A914205D1DB7C5B0758BF60
:1057C000012002F011BC704701A0180A1FB5102279
:1057D0000021684608F060F9304A01210020FEF7F8
:1057E000D1F82F490020FDF7DFFE2E490020FDF7FC
:1057F000DBFE2D490020FDF7D7FE2C490020FDF7E8
:10580000D3FE2B490020FDF7CFFE2A490020FDF7EB
:10581000CBFE4FF4FA73284926200093FDF74EFF84
:1058200026492B20FDF74AFF6846FDF7DBFE244999
:105830000020FDF743FF23490020FDF73FFF2249E9
:105840000020FDF73BFF21490020FDF737FF2049ED
:105850000020FDF733FF1F490020FDF72FFF1E49F1
:105860000020FDF72BFF1D492020FDF727FF1C49D5
:105870000B20FDF723FF04F04DFF04F043FF194810
:1058800006F05AFA18491320FDF718FF002001F01E
:10589000EDFCFDF75DFD05B05DF804FBAF2E0B00E0
:1058A00000A0180A01A0180A00A0280A21FFA718C2
:1058B000170FFE18EEE6FE1801550A00DD540A0027
:1058C000AD570A008D570A00ED550A0045570A00EA
:1058D0006D560A0065550A0089550A0015560A00DA
:1058E00021550A0029540A00C1550A00014B1870BD
:1058F000704700BFD435082010B5094C0A4623680C
:105900000BB9084B236023681B68596808F030FA0C
:10591000236858682060003018BF012010BD00BF08
:10592000D83508206482072038B5054648B94FF0BD
:10593000A00383F31188BFF36F8FBFF34F8F00BFB6
:10594000FDE70820FCF776F8044648B94FF0A003BD
:1059500083F31188BFF36F8FBFF34F8F00BFFDE755
:10596000FAF7FAFE00236360044B25601A681C6096
:105970005460FAF701FF012038BD00BF60820720A4
:10598000002330B513608B4217D0044610F8015B3A
:105990009DB1202DF9D125782046202D04F1010458
:1059A000F9D055B101339942EDD1411E11F8014FA3
:1059B000136814F0DF0F02D103B9002030BD0133AA
:1059C0001360F3E78268436800681344181A824240
:1059D00098BF801A70472DE9F0410E4604465521C4
:1059E000304690461F4608F057F8B042054609D0A9
:1059F0004FF0A00383F31188BFF36F8FBFF34F8F76
:105A000000BFFDE724220021204608F045F89DF85C
:105A10001830A561C4E902872377BDE8F0812DE93C
:105A2000F0410546884617464AB94FF0A00383F374
:105A30001188BFF36F8FBFF34F8F00BFFDE744683E
:105A400083681E1B964228BF1646A219934209D2AC
:105A50004FF0A00383F31188BFF36F8FBFF34F8F15
:105A600000BFFDE780693246204407F09FFFB74240
:105A700012D9AB68BA1B9A4209D94FF0A00383F33D
:105A80001188BFF36F8FBFF34F8F00BFFDE708EBA7
:105A90000601A86907F08AFFAB683C44A34298BF9F
:105AA000E41A6C603846BDE8F0819A422DE9F8436B
:105AB000164628BF1E46074689469046002E3ED011
:105AC000046883681D1BB54228BF3546AA4209D227
:105AD0004FF0A00383F31188BFF36F8FBFF34F8F95
:105AE00000BFFDE76219934209D24FF0A00383F390
:105AF0001188BFF36F8FBFF34F8F00BFFDE7816940
:105B00002A462144484607F051FFAE4211D9B0451C
:105B100009D24FF0A00383F31188BFF36F8FBFF357
:105B20004F8F00BFFDE7721BB96909EB050007F055
:105B30003DFFBB683444A34298BFE41A3C60304642
:105B4000BDE8F883012AF7B504460D460BD10428B9
:105B500014D84FF0A00383F31188BFF36F8FBFF306
:105B60004F8F00BFFDE7B0B94FF0A00383F311885A
:105B7000BFF36F8FBFF34F8F00BFFDE71646AC42F8
:105B80000BD24FF0A00383F31188BFF36F8FBFF3E5
:105B90004F8F00BFFDE70026F1E7002D04F125003F
:105BA00008BF0125FBF746FF074630B100962B469C
:105BB000621C00F12401FFF70EFF384603B0F0BD70
:105BC00048B94FF0A00383F31188BFF36F8FBFF381
:105BD0004F8F00BFFDE7826803684168D018013825
:105BE000401A824298BF801A70472DE9F04387B06F
:105BF000044616460193894649B94FF0A00383F342
:105C00001188BFF36F8FBFF34F8F00BFFDE748B917
:105C10004FF0A00383F31188BFF36F8FBFF34F8F53
:105C200000BFFDE7037FDA070DD506F104084645FE
:105C30000AD34FF0A00383F31188BFF36F8FBFF334
:105C40004F8F00BFFDE7B046019B5BB92046FFF7D1
:105C5000B7FF05460396002D36D10025284607B02C
:105C6000BDE8F08304A8FBF797F9FAF775FD204625
:105C7000FFF7A6FF8045054623D90020FBF772FCFD
:105C800067694FB14FF0A00383F31188BFF36F8FA3
:105C9000BFF34F8F00BFFDE7FBF7FCF96061FAF738
:105CA0006BFD3946019B3A463846FBF713FB6761AB
:105CB00001A904A8FBF79AF90028D6D0002DC5D079
:105CC000C8E7FAF759FDF9E7237FDB0720D4B5428F
:105CD00094BF03950396039A49462046FFF79FFE1B
:105CE00005460028B9D02046FFF76CFEE3689842CD
:105CF000B4D3FAF759FF23693BB1002320691A4650
:105D00001946FBF72BFB00232361FAF7EFFFA5E70A
:105D10004545A2D3042203A92046FFF780FEDAE717
:105D20002DE9FF410446154698460E4649B94FF005
:105D3000A00383F31188BFF36F8FBFF34F8F00BFB2
:105D4000FDE748B94FF0A00383F31188BFF36F8FCD
:105D5000BFF34F8F00BFFDE7037FDA074CBF2F1D56
:105D60002F46FFF72DFF039520B90025284604B0E4
:105D7000BDE8F081237FDB072AD4854294BF0395D9
:105D80000390039A31462046FFF749FE0546002856
:105D9000EBD02046FFF716FEE3689842E6D3EFF318
:105DA00011864FF0A00383F31188BFF36F8FBFF309
:105DB0004F8F23694BB1002320691A461946CDF84D
:105DC0000080FBF741FB0023236186F31188CDE7B8
:105DD0008742CAD8042203A92046FFF720FED0E755
:105DE0002DE9F743044617469946884649B94FF0CE
:105DF000A00383F31188BFF36F8FBFF34F8F00BFF2
:105E0000FDE748B94FF0A00383F31188BFF36F8F0C
:105E1000BFF34F8F00BFFDE7037F13F0010F14BFE7
:105E200004260026B9F1000F26D0FAF795FC20468B
:105E3000FFF7C8FD8642054611D30020FBF792FB11
:105E400023694BB14FF0A00383F31188BFF36F8F29
:105E5000BFF34F8F00BFFDE7FBF71CF92061FAF796
:105E60008BFCAE4212D300224B4611461046FBF784
:105E700031FA002320462361FFF7A4FDB042054616
:105E800004D80025284603B0BDE8F0837EB12B4638
:105E9000324601A92046D4F80090FFF706FE019B88
:105EA000AD1B9F4236BF00271F46C4F800902B460B
:105EB0003A4641462046FFF7F8FD05460028E0D067
:105EC000FAF772FE63693BB1002360691A4619460E
:105ED000FBF744FA00236361FAF708FFD2E72DE9E4
:105EE000FF47044616469946884649B94FF0A00335
:105EF00083F31188BFF36F8FBFF34F8F00BFFDE7B0
:105F000048B94FF0A00383F31188BFF36F8FBFF33D
:105F10004F8F00BFFDE7037F13F0010F14BF04276D
:105F20000027FFF74FFD8742054604D3002528468A
:105F300004B0BDE8F0877FB103463A4603A9204686
:105F4000D4F800A0FFF7B1FD039BED1B9E4236BFC6
:105F500000261E46C4F800A02B4632464146204685
:105F6000FFF7A3FD05460028E0D0EFF311864FF0C0
:105F7000A00383F31188BFF36F8FBFF34F8F636963
:105F80004BB1002360691A461946CDF80090FBF723
:105F90005BFA0023636186F31188C8E7012300F0F0
:105FA0001F02400900F5001000F207709340400204
:105FB0000A074CBF4366036643654362C0F88030FE
:105FC000026FC9074CBF134322EA030303677047FC
:105FD0004FF4003208B5074B00215A604FF480227D
:105FE00011205A60FFF7DAFFBDE8084000211220B7
:105FF000FFF7D4BF000E0E402DE9F74F4FF0010818
:106000000226B54D0B2000F08FFC0C2000F08CFC1C
:106010006E614046C5F8A0600021C5F81080C5F843
:10602000A0806E60C5F80480FFF7B8FF0021084625
:10603000FFF7B4FF4FF480424FF40043A74C002118
:1060400063612F20C4F8A0302261C4F8A0206360EF
:1060500062600192FFF7A2FF00212E20FFF79EFF52
:106060004FF080732361C4F8A03023634FF48003A2
:106070004FF4007723610821C4F8A03023634FF464
:10608000807308466B61C5F8A0302F61C5F8A07019
:106090006B606F60FFF782FF08210920FFF77EFF2A
:1060A0004FF480636B61C5F8A0304FF400632B613F
:1060B000C5F8A0304FF480636B604FF400634FF479
:1060C000805B6B6008210A20FFF768FF08210B2026
:1060D000FFF764FFC5F814B00021C5F8A0B00C208C
:1060E000C5F804B0FFF75AFF4FF4005308212B61A5
:1060F0000D20C5F8A0306B60FFF750FF4FF4001380
:106100004FF4801A63610021C4F8A0303520636029
:10611000FFF744FFC4F810A00821C4F8A0A0342061
:10612000C4F804A0FFF73AFFFFF752FF26610423EB
:10613000C4F8A06026630826C4F810804FF0400918
:10614000C4F8A0804FF00071C4F830802661C4F814
:10615000A06026632361C4F8A03023632023C4F821
:1061600010900320C4F8A090C4F810B0C4F8A0B0F8
:106170002761C4F8A0702361C4F8A0302161C4F87D
:10618000A010C4F83490C4F834B06763636300931C
:1061900061636E613146C5F8A060FFF7FFFE2761BD
:1061A000C4F8A07067604FF4803741462920FFF79C
:1061B000F5FE6F613146C5F8A0701020FFF7EEFEC6
:1061C00067613146C4F8A0703020FFF7E7FE4FF456
:1061D000003104234FF400274FF080086161019AD9
:1061E000C4F8A0106B61C5F8A030009BC5F810A0E2
:1061F0003146C5F8A0A00520C5F834A02F61C5F828
:10620000A0706F632A61C5F8A0206A636B61C5F84E
:10621000A030FFF7C3FEC5F814803146C5F8A08052
:106220000720FFF7BBFE10204FF400014FF480035E
:10623000C5F81090C5F8A0902861C5F8A0002961A4
:10624000C5F8A0102B61C5F8A0304FF080732B610A
:10625000C5F8A0304FF4005327614FF48022C4F8F2
:10626000A070C4F81080C4F8A0802361C4F8A030E6
:106270004FF480732261C4F8A0202361C4F8A030D9
:106280004FF480634FF400662361C4F8A0304FF0F0
:1062900080632361C4F8A0302661C4F8A060C5F80B
:1062A0003490686369634FF4800169634FF08071D3
:1062B00069634FF400516763C4F8348061636263BB
:1062C0004FF4807262634FF480626263636366635B
:1062D00003B0BDE8F08F00BF000E0E4000100E406E
:1062E0002DE9F74F01264FF00208B14D0B2000F0C9
:1062F0001BFB0C2000F018FBC5F814803046C5F8D5
:10630000A08000212E61C5F8A060C5F804806E60F1
:10631000FFF744FE00210846FFF740FE4FF4804996
:106320004FF40043A34C002163612F20C4F8A03038
:10633000C4F81090C4F8A0906360C4F80490FFF70C
:106340002DFE00212E20FFF729FE4FF080734FF421
:1063500080072361C4F8A03023634FF48073276162
:106360004FF4007AC4F8A07027636B61C5F8A030C1
:106370004FF48063C5F810A0C5F8A0A0C5F830A000
:106380006B61C5F8A0304FF400634FF400322B610D
:106390004FF4805BC5F8A0302B634FF40053C5F871
:1063A00014B00821C5F8A0B011202B61C5F8A030A9
:1063B0002B636A61C5F8A0200192FFF7EFFD4FF44F
:1063C000802308216B611220C5F8A030FFF7E6FD9D
:1063D000C4F810800423C4F8A0804FF00051C4F822
:1063E000308026614FF04008C4F8A060266308267C
:1063F0002661C4F8A06026632361C4F8A03023633B
:1064000000932963C4F830B02961C5F8A010C4F81E
:1064100010804FF00071C4F8A080C4F810B0C4F828
:10642000A0B04FF0200BC4F810A0C4F8A0A0C4F88E
:1064300010B0C4F8A0B02161C4F8A010C4F8348032
:10644000C4F834A04FF4803AC4F834B0102061632B
:106450003146C5F814A0C5F8A0A0FFF79FFDC4F809
:1064600014A03146C4F8A0A03020FFF797FD6E615C
:106470003146C5F8A0600320FFF790FD019A009B0C
:1064800062614FF4002AC4F8A0206B61C5F8A03007
:106490004FF480132B61C5F8A0306B63C5F810A0D2
:1064A000C5F8A0A0C5F834A0C5F81090C5F8A09014
:1064B000C5F834904FF08009C5F814B0C5F8A0B005
:1064C0004FF4000B31460520FFF768FDC5F8149026
:1064D0003146C5F8A0900720FFF760FDC4F814B05E
:1064E0003146C4F8A0B03720FFF758FD10224FF016
:1064F0008073C5F81080C5F8A0802A61C5F8A02077
:10650000C5F810B0C5F8A0B02F61C5F8A0702B6118
:10651000C5F8A0304FF40053C4F810A0C4F8A0A0F0
:10652000C4F81090C4F8A0902361C4F8A0304FF4D0
:1065300080232361C4F8A0304FF480732361C4F832
:10654000A0304FF480634FF400612361C4F8A030A1
:106550004FF080632361C4F8A0302161C4F8A0101B
:10656000C5F834806A634FF08072C5F834B06F6349
:106570006A634FF40052C4F834A0C4F834906263E4
:106580004FF4802262634FF4807262634FF4806242
:10659000626363634FF4004361636B61C5F8A030CD
:1065A0004FF400136B61C5F8A03003B0BDE8F08F65
:1065B000000E0E4000100E40B2EB011F30B52CBF94
:1065C0001024082461434B0803EBC202B2FBF1F232
:1065D0004FF6FE73D1084D1E9D4210D8082C08BFFF
:1065E00043684FEA024202F4E02208BF43F400236A
:1065F00042EA010208BF43600262002030BD012070
:10660000FCE70000084BC0F8E4300023436043621D
:10661000836288230360242303604FF48073036044
:106620004FF40023036070470041535570B5054691
:106630000C46FFF7E7FF00230A4E336009B901203B
:1066400070BD0968FFF7B8FF0028F8D1D4E901321E
:10665000134322691343E26813436A6833601343A8
:106660006B60EDE7DC35082010B5FFF7CBFF10239A
:10667000036040230360436823F00F0343F00B03E0
:106680004360FFF799FF003018BF012010BD436D34
:1066900023F00303194341657047436D23F004035E
:1066A00043657047436D23F0080343657047436DAE
:1066B00023F0100343EA011141657047436D23F055
:1066C000200343EA411141657047436D013923F4CA
:1066D0007F4343EA012343657047436D23F48033CE
:1066E00043657047806DC0B27047402303607047B8
:1066F00010230360704781607047C1607047406934
:1067000070474FF480730360704743699B0743BF32
:10671000C1F30801C1610020012070474369DB0714
:1067200041BF83690020C3F308030B6058BF0120F9
:10673000704700000E4B1A6B22F003021A6340F6FA
:106740000102996E09070BD51A6B22F070021043F3
:1067500040F601021863996E090705D500207047BD
:10676000013AEED101207047013AF4D1FAE700BFB7
:1067700000060E400F4B1A6B22F0030242F001029A
:106780001A6340F60102996E09070BD51A6B22F0C5
:106790007002104340F601021863996E090705D58F
:1067A00000207047013AEED101207047013AF4D140
:1067B000FAE700BF00060E400F4B1A6B22F0700282
:1067C000104340F601021863996E08070CD51A6B46
:1067D00022F0030242F002021A6340F60102996EAF
:1067E000090705D500207047013AEDD10120704717
:1067F000013AF4D1FAE700BF00060E40054B586994
:1068000010F080001FBFA3F5A053103B986EC0F39B
:10681000C0107047101A0E40174B10B51A6A12F0CC
:10682000010F1A6A1FD0002122F45C1222F07802B4
:1068300042F45C1242F0080202431A629A6E92031A
:10684000FCD51A6A22F09B7222F4803242F45C1268
:106850001A6239B11A6A22F45C1222F0010242F47F
:106860005C121A6210BD054C0549144021430143D6
:1068700019620121E2E700BF00060E408600C8FF52
:1068800009FF3700044A136A23F45C1323F07803EA
:1068900043F45C131362704700060E40034A136A08
:1068A00023F0030343F45C131362704700060E40A9
:1068B0000E4A136A28B10E4919400E4B0B4313625E
:1068C000704723F45C1323F00303090243F45C13C1
:1068D00089B243F001030B431362936EDB07FCD5CF
:1068E000136A43F09B7343F48033E8E700060E40DD
:1068F000FCFFC8FE02003701024B986E00F48030A6
:10690000704700BF00060E404FF00052014B9A62E4
:10691000704700BF00060E40024B986E00F0020068
:10692000704700BF00060E402C2818D81F280D4ABB
:106930004FF0010308D8916903FA00F030EA01032F
:1069400000D01061002070472038D2F8081103FAF7
:1069500000F030EA0103F5D0C2F80001F2E70120AF
:10696000704700BF00060E40034BC0F312001A6FC1
:1069700010431867704700BF00060E404160704723
:106980008160704700697047436A23F0FF03194331
:106990004162704700EB4111D1F8100270478B79CA
:1069A0000A781B0403F4702343F4000300EB421045
:1069B000C0F81C3270478B790A781B0403F47023EB
:1069C00043F4800300EB4210C0F81C32704710B54E
:1069D0000A780B795201104463B9C0F80032C0F84C
:1069E0000432C0F80832C0F81432C0F81832C0F8C7
:1069F0001C3210BDD0F80022CC7922F4702242EA79
:106A00000442C0F80022D1E90342497981B144F03F
:106A10000054C0F8044242F00052C0F80822D0F8F6
:106A2000002222F0E06242EA0363C0F80032E0E7AD
:106A3000C0F80442F1E78A6870B502F0C073B3F1A0
:106A4000C07F14BF002402240B78C2F303425B0111
:106A5000C518D5F80C62042A8A7126F060464E618A
:106A6000D5F8146288BFD5F818228E6188BFCA6134
:106A7000C218D2F8102203448A60D201D3F8082247
:106A8000D3F8083248BF44F0040412F000521DBF8E
:106A900023F060430B6101239B0C12BF4B710B6110
:106AA0004A71FFF77CFF204670BD0A7830B552016D
:106AB0008418D4F810328B601B021AD54D790B69FB
:106AC0000DB143F00053C4F808328B698418C4F840
:106AD00014328B791044042B88BFC9694FEA0343F1
:106AE00003F4702388BFC4F81812C0F81C320020C9
:106AF00030BD0120FCE730B50024054689B08DF893
:106B000004400094694628460134FFF760FF082CD2
:106B1000F7D109B030BD0000F8B546F2A81304461D
:106B200003FB02F00B18013BB3FBF0F3802B01D900
:106B30000020F8BD4FF4FA505043B0EB510FF7D896
:106B40004FF47A7308265A434FF0FF373346B1FBB0
:106B5000F0F5802D06D800FB1515BD4202D23DB1DF
:106B60002F461E460133DBB21A2B1044EFD13346B9
:106B70005A43B1FBF2F1C9B20129D9D906202268E2
:106B8000083B22F001022260194A013900FB03226E
:106B900093785078013B01381B01000200F4E0605B
:106BA00003F070030343D07812790138013A00F002
:106BB0000700120302F4405203430904134301F493
:106BC000FE01194320466161FFF795FF0020024650
:106BD000236843F001032360064B920204D49842D9
:106BE000A6D022690130F8E7C01A18BF0120A0E73B
:106BF000B02F0B00A0860100AC2310B50360D1E9D3
:106C00000032B3FBF2F34FF6FE721B095C1E944296
:106C10000AD803628B68436040F20223C0F8203137
:106C200050230360002010BD0120FCE750230360C7
:106C30007047AC230360704781607047C160704744
:106C40004069704743699B0746BFC161002001202E
:106C500070474369DB0743BF836900200B70012045
:106C60007047D3060ED59306C0F8B0104CBFC0F8DD
:106C7000D410C0F8D01053064CBFC0F8C010C0F8F4
:106C8000C4107047C0F8B4107047C36C01647047FB
:106C900041647047C06C7047014B53F82000704747
:106CA000901A0E40014B43F820107047901A0E4086
:106CB000014B0360704700BF050000A5406800F469
:106CC000E0607047084BB3FBF1F1814208D8C1EB9B
:106CD0000133834204D3B0FBF1F0C0F30B007047E3
:106CE0004FF6FF70704700BF0020A10710B5044C9D
:106CF000C2F30B0204EA034313430B43436010BD8A
:106D00000000FF0F024B984204BF024B0360704724
:106D1000501A0E40010000A54068C0F30B00C001EE
:106D2000B0FBF1F101484843704700BF40420F00FB
:106D3000134B07B5DA6AD00742BF01219962196A7D
:106D4000910742BF022199621B6AD30544BF4FF4E9
:106D500080720B4B01A944BF9A621B6A094B1868E9
:106D6000FBF754F9019B3BB14FF08052064B1A6080
:106D7000BFF34F8FBFF36F8F03B05DF804FB00BF0D
:106D800000C00840E035082004ED00E0436801F051
:106D90000F0123F00F03194341607047436801F46A
:106DA000E06123F4E063194341607047436843F4B2
:106DB0008053436070470068C0F303207047C06889
:106DC000704708B5120202F4706211430EF018FF0A
:106DD000002008BD0368090201F4706123F47063A8
:106DE00019430EF00DBF000038B5A1F10E03012BC1
:106DF00017D9EFF3108572B6BFF35F8F00230A4CEB
:106E0000C9B22370094B03EA022242F0B442114393
:106E10000EF0EEFE25B901232370BFF35F8F62B63B
:106E200038BD4FF0FF30FBE77082072000FFFF0006
:106E300070B50F4C26688CB206F500258D4210D82F
:106E4000C6F17F4505F578052944A41B094DC1F31A
:106E50000F21E4B200B1056002B1118003B11C80C2
:106E600070BDA1F50021C1F30F21E4B2024DF1E79D
:106E7000C48C0720000C0E40000A0E4038B50446B2
:106E80000D460A4601460548FFF79BFF2A46214664
:106E90000348FFF796FF002038BD00BF000A0E40F0
:106EA000000C0E402DE9F04F85B001930F460DF117
:106EB0000A030146154603A802AAFFF7B9FF039883
:106EC000FFF779FF062181460398FFF783FFDFF87C
:106ED000B8B0DFF8B080039835B94946FFF77AFFBC
:106EE000284605B0BDE8F08FBDF80A20244CC2F555
:106EF0008073AB421E4628BF2E46A04218BFDBF867
:106F00000040BDF8081013BF04F5002401F500642B
:106F1000240204EB01249B1B21461A481FFA83FA22
:106F200006F044FDBDF80A0032463946404406F0FA
:106F30003DFDBDF80A00524630440119404406F0B8
:106F400035FD04F58073A8EB04010A5944F8042BBD
:106F5000A342FAD1019B0398BDF8082073B1032125
:106F6000FFF742FF0028BCD1BDF808303744013399
:106F7000AD1BADF80830ADF80A00ACE70121EFE732
:106F8000000A0E40E4350820C48C0720042370B5A5
:106F900086B002AD06460C4600930F222B460E210A
:106FA00009480EF029FE68B9042C28BF04240346C2
:106FB000A34201D106B070BD55F8232046F8232026
:106FC0000133F5E71020F5E7000A0E40EFF30583E3
:106FD000FCE700002A4A10B5136B03F00303012BF2
:106FE000284B0FD004D3116ACC012BD5264945E09C
:106FF0002649496908064CBF4FF400414FF4FA4155
:1070000019600DE0116AC90101D51F49F8E720494F
:107010001960116A01F07001102911D02029F4D0F3
:10702000106B196800F07000702807BF0322B1FBD5
:10703000F2F1126BC2F3021218BFD140196010BDF9
:107040001449DDE712491960116A01F07001102935
:1070500013D02029CAD0116B01F00301022901BF0E
:10706000946A1968C4F30A4404FB011109BF906AC9
:107070000949C0B2B1FBF0F1C2E706491960EAE77D
:1070800000060E406C820720001BB700101A0E404D
:1070900000093D0000127A00001C4E0E114B124AEE
:1070A0009842124B03D800211160196070471049B3
:1070B000884202D84FF48071F6E70E49884202D820
:1070C0004FF40071F0E70C49884202D84FF4407148
:1070D000EAE70A49884294BF4FF480614FF4A06107
:1070E000E2E700BFBFEA2101000A0E40000C0E409B
:1070F0007FF0FA02FF8FD003FFB3C4047F4A5D051F
:107100000160704701210268530903F5001303F27F
:10711000077302F01F025B0201FA02F21A63704762
:1071200001210268530903F5001303F2077302F00B
:107130001F025B0201FA02F25A6370470D4808B55C
:10714000FFF7ACFF3E210020FFF7B2FBFFF7D4FBB7
:107150000028FBD0FFF7D8FB074B084A9A62FFF7DD
:10716000DBFB0028FBD00020FFF726FBBDE8084032
:10717000FFF730BF00BD010500060E40013F0620AD
:1071800070B5354A86B0137801331370334A344BE7
:1071900012781C681D4682B91B79E4B29C4228BF54
:1071A0001C4668468DF800208DF8084005F00CF963
:1071B000012000F0A3F806B070BD4FF6FF739C42AB
:1071C00032D064BB2346274A01212046FCF7DAFB74
:1071D000204600F093F801264FF6FF736C689C423E
:1071E00029D01CBB01231F4A19462046FCF7CAFBC5
:1071F000204600F083F81C4A01210020FCF7C2FB66
:10720000002368468DF800308DF8083005F0DCF872
:107210004FF47A70F9F7E2FDF9F75CFACBE7013C3D
:1072200001202C6000F06AF80026D5E7013C01201F
:107230006C6000F063F8002EDDD12B782A798DF890
:107240000060934228BF13468DF80830FCF780FB9E
:10725000684605F0B9F8AEE7ED360820EE360820AE
:10726000E436082028300B0044300B004FF4B47291
:10727000014B43F820207047E43608204FF6FF7298
:10728000014B43F820207047E4360820014B18706A
:10729000704700BFEE36082073B5124B124A012129
:1072A0000020FCF76FFB114B1C78C4B901251D7041
:1072B0000F4B2A46FA2100930E482346FAF71CFA90
:1072C0000646F9F779FC23460246009429463046E3
:1072D000FAF738FA4FF6FF72074BC3E9002202B003
:1072E00070BD00BF1C300B0025220B00EC360820BF
:1072F00081710A0058300B00E43608204FF000522C
:10730000044B1A61C3F8A02008B11A6370475A638E
:10731000704700BF000E0E4000230246FF2180F898
:107320004630831C42F8403F03F8011B9342FBD1D7
:10733000002340F29F2280F84930028080F84730D5
:1073400080F84C3080F8483080F84A3080F84B3074
:10735000A0F8441070470000F8B500230B4C0C4E09
:107360000C4F22785D1CDBB29A4206D8BDE8F8408B
:10737000094A01210020FCF705BBF35C3A460121D4
:107380000020FCF7FFFA2B46EBE700BF7838082017
:10739000B0370820E5300B0098260B0008B5F9F748
:1073A000DBF90023054A1370054A13700122054BCF
:1073B0001A70BDE80840F9F7DFB900BF5C37082054
:1073C000003708207182072010B5124C2378022B59
:1073D00010D8114A01210020FCF7D4FA23780F4875
:1073E000013323700023BDE810401A461946006897
:1073F000FAF7E0BC0A4A01210020FCF7C3FA094B66
:1074000000211868FAF770FCFFF7A6FFBDE81040EE
:10741000FFF7C4BF5C370820EB300B00F4360820C0
:10742000F5300B00583708200023F7B51A46234CD7
:1074300023492078DDB285423DD39F230B70022380
:107440002270002003224B701E4B93F844501F6C97
:107450008D70C6B217F806C00130BCF19F0F12BF85
:10746000134601F802C0531CBA5D08BFDBB2C6B2B6
:10747000CA54B54203F10102D2B2EAD29F20885425
:107480000322DD1C0233DBB2CA540F4BEDB21E687F
:10749000F9F792FB00230246009301213046FAF7E8
:1074A00051F92A46094B064918682570C36803B08C
:1074B000BDE8F0401847CA540133BBE778380820CC
:1074C000B037082060370820FC360820F036082046
:1074D00030B50D4B93F844001A6C93F845100244F4
:1074E0005170002193F844204C1CC9B28A4202F129
:1074F000010202D283F8442030BD186C415C855CE7
:10750000694081542146EDE760370820094A92F826
:107510004430A3F13D01C9B2C1290AD90133116C2C
:10752000DBB282F84430C85492F84530013382F817
:1075300045307047603708202DE9F047AA4E88B0E3
:1075400030684E2243694FF4E1319847A74CA84F69
:1075500000213868FAF754FEF8B1A64B1B78E3B166
:10756000FFF762FF30680A2301220DF10B018069E9
:10757000FEF736FC00284DD19F4B1D786A1C1A700F
:10758000002DE4D1F9F776FD6328E0D89B4B9C4AA7
:1075900001212846FCF7F6F9D9E7DFF88C8298F844
:1075A0000030002BDED0974B002203A91868FAF7B1
:1075B00085FD0028D6D08F4B1B78002BD2D0924867
:1075C000FFF7AAFE0120FFF7A1FFFE20FFF79EFFB5
:1075D0009DF80C00FFF79AFF9DF80C30022B11D19B
:1075E000DFF848A20DF10F050DF1130915F8013F61
:1075F000524601210020FCF7C5F92878FFF786FFE5
:107600004D45F3D1FFF764FFFFF70EFF002388F825
:107610000030A7E794F846209DF80B30002A5AD096
:107620000022022B84F8462037D12046FFF774FE53
:10763000012384F8493094F84830002B92D001257A
:107640006C4B1D7094F84730002B6BD00A230093CD
:1076500000236E481A4603210068FAF773F894F87D
:107660004B30002B5BD0DFF8C88198F80030032B3B
:107670004ED8674A29460020FCF784F90023386871
:107680001A461946FAF796FB98F800302B4488F80A
:1076900000302046FFF740FE64E7032B07D194F843
:1076A0004930002BC7D0012384F84830C3E7062BAC
:1076B00005D1012384F84A3084F84730BBE7152B05
:1076C00003D1012384F84B30F6E79F2B09D02046E5
:1076D000FFF722FEAFE79F2B03D1012384F846304A
:1076E000A9E794F84420A2F13E01C9B2C029A2D969
:1076F00094F8491029B194F8451011B984F845302F
:1077000099E7216C0132D2B284F844208B5492E77D
:10771000404A29460020FCF735F9FFF71DFEFFF728
:107720003DFEB6E794F8450094F844100546D4F8B9
:1077300040E01FFA81FC9AB2944506D31EF803205C
:1077400001335540412BEDB2F5D1D6F800C0884247
:10775000DCF80C803AD1002D38D12F4A03AB1068E9
:107760005168082203C303A96046C04794F8483013
:10777000002B8ED0216C4B78022B31D18B78032BD0
:1077800012D10C22033104A806F010F90223234A77
:107790008DF81C3001219DF818300020FCF7F2F81C
:1077A00003A801F067FE74E71D4A01210020FCF7E1
:1077B000E9F894F84530FF2B18BF1D460023033528
:1077C000DAB2954203F10103FADA62E7154A03AB34
:1077D00010685168082203C303A96046C04758E7F0
:1077E000FE2BCBD055E700BFF03608200437082029
:1077F000F436082054370820F936082070300B0082
:1078000043250B005837082060370820FC36082035
:107810007F300B0086300B005E300B00A5300B0074
:10782000C3300B0067300B0071820720E5300B007E
:107830000037082073B5194E347864BB0125184B06
:10784000184A19491A6019482346019400954FF4C3
:10785000C872F9F785F8224610212820FAF784FA31
:10786000134B2A461860134BA0210093124823465D
:10787000F9F742FF114B2146186003222846FAF718
:1078800073FA0F4B0F4918601C20357002B0BDE829
:107890007040FBF713BF02B070BD00BFF836082080
:1078A000F036082030820720D6300B0039750A00E8
:1078B00058370820C9730A00DF300B00FC36082057
:1078C000F4360820DD780A0001460348002302222E
:1078D0000068FAF76FBA00BF583708207FB5037801
:1078E0001C2B30D10023019383782BB99DF80430F1
:1078F00043F001038DF8043043792BB99DF804302F
:1079000043F008038DF8043003792BB99DF8043057
:1079100043F004038DF80430C3782BB99DF804308C
:1079200043F002038DF804300422C3880DEB0201FA
:1079300003A8ADF8063006F039F8022302A88DF846
:107940000830FFF7C1FF07B05DF804FB38B5837856
:107950004478012B12D10F4A13700F4D204600F0CE
:1079600057F82A78A24211D0FCF750F97CB90B4A9B
:1079700001210020FCF706F82C7007E0002BECD169
:10798000074B1C70034B1B78002BE6D038BD054A13
:10799000EEE700BF79380820728207201E310B0005
:1079A000738207202D310B00014B1878704700BF00
:1079B0007382072008B500F035F810200349FBF763
:1079C0007DFEBDE80840002000F022B84D790A0095
:1079D00070B58AB004460E46FCF7F8F843780546C1
:1079E000A3420FD01020FCF7DDF810236C7068461E
:1079F0008DF800308DF801408DF80260FBF780FEB5
:107A00000AB070BD1020FCF7B7F80028EAD1F7E7FC
:107A1000034B4FF0007208B91A6370475A637047FE
:107A200000100E404FF00072024B1A61C3F8A02004
:107A30001A63704700100E40034B4FF4805208B990
:107A40001A6370475A63704700100E40024BD86BA0
:107A5000C0F30030704700BF00100E40034BD86BDE
:107A600080F48050C0F30030704700BF00100E401B
:107A7000084B30B5084CDB6B084D2178C3F300434D
:107A8000287841EA0302024001EA030029702370CA
:107A9000104330BD000E0E407A3808207C38082094
:107AA000084B30B5084CDB6B084D2178C3F300431D
:107AB000287841EA0302024001EA0300297023709A
:107AC000104330BD00100E407B3808207D38082060
:107AD0004FF48052024B1A61C3F8A020704700BFD8
:107AE00000100E400378142B04D14278074B12B9D2
:107AF00001221A7070471A78002AFBD004490A78CC
:107B000082F001020A700022F3E700BF78820720AA
:107B10008638082038B50378072B28D1144B154C2C
:107B20001D78CDB9042000F057FC1E2804D904208C
:107B3000294600F057FC28463C23584320600E4B52
:107B40001B78A3B10D4A1378591C022B11700ED962
:107B5000BDE83840F8F7BEBD2368002BEFD0013BED
:107B6000074A012100202360FBF70CFFE7E738BD3F
:107B7000778207208038082085380820843808203C
:107B800083310B00F8B503780546122B1BD12E4E1E
:107B900042782E4F2E4C31683A70227031B1012A52
:107BA00004D1FFF753FF60B100233B70294B2278CB
:107BB0001978914203D0002027491A7008700123D8
:107BC00002E03060F2E700232A78062A01D0002B79
:107BD00033D0214B1D4A1978147861B1012C2DD076
:107BE0004CB91948016859B319490C78012C27D1AF
:107BF0000021016019701949097839B10124002068
:107C000014702146164A1870FBF7BCFE2046FFF799
:107C100013FF14B10E4B1B7813B90020FFF726FB9E
:107C2000104D2A78A24208D0FBF7F0FF54B90E4A53
:107C300001210020FBF7A6FE2C70F8BD0024DAE736
:107C40000124D8E7094AF3E7803808207482072026
:107C5000778207207682072086380820853808201A
:107C60003D310B007582072066310B0074310B002B
:107C70000122014B1A70704785380820014B187893
:107C8000704700BF77820720FFF7E0BE10B50E4CAB
:107C9000FFF71EFF0120FFF7CFFE21461220FBF762
:107CA0000DFD21460620FBF709FD08491420FBF7CE
:107CB00005FD07490620FBF701FDBDE81040054919
:107CC0000720FBF7FBBC00BF857B0A00E57A0A00B2
:107CD000F77C0A00157B0A00132300B58BB08DF8E2
:107CE000010068468DF800308DF80210FBF708FDA2
:107CF0000BB05DF804FB08B50378062B0BD1FFF73A
:107D0000B7FE0021FFF7E8FFFFF7CAFEBDE8084015
:107D10000121FFF7E1BF08BD142300B58BB08DF83A
:107D2000010068468DF80030FBF7EAFC0BB05DF807
:107D300004FB0000034B402208B91A6370475A63E2
:107D4000704700BF00100E40034BD86B80F040001E
:107D5000C0F38010704700BF00100E404022034B5C
:107D60001A61C3F8A0201A63704700BF00100E40CC
:107D700038B54478094D2046FFF7DCFF2A78A24247
:107D800008D0FBF743FF34B9054A01210020FBF777
:107D9000F9FD2C7038BD034AF7E700BF7982072050
:107DA000AC310B00B8310B0008B5FFF7D7FF152039
:107DB0000349FBF783FCBDE808400120FFF7BABF89
:107DC000717D0A0030B58BB00446FBF7FFFEC37827
:107DD0000546A3420DD01520FBF7E4FE1523EC70F9
:107DE00068468DF800308DF80140FBF789FC0BB038
:107DF00030BD1520FBF7C0FE0028ECD1F7E70000EE
:107E0000034B202208B91A6370475A63704700BFBA
:107E100000100E40034BD86B80F02000C0F34010E0
:107E2000704700BF00100E40024BD86BC0F34010EB
:107E3000704700BF00100E402022024B1A61C3F8A9
:107E4000A020704700100E40032238B54478184B2C
:107E5000012C1C70174B1A701DD1FFF7E5FF10B3F2
:107E6000154B1C78B4FA84F46409FFF707FF012866
:107E700008BF0124114D2046FFF7C2FF2A78A24215
:107E800008D0FBF7C3FE84B90D4A01210020FBF79F
:107E900079FD2C7038BDFFF7C7FF0028E5D1094BED
:107EA0001B78002BE1D00124DFE7074AEDE700BF94
:107EB0007B8207207C820720873808207A8207206F
:107EC000C5310B0088380820D2310B0003781A2BFB
:107ED00006D14368B3F5AF6F82BF0022014B1A7021
:107EE000704700BF8738082010B52B4A0446137826
:107EF000002B3BD1294901200B7029490B7003232A
:107F00001370284B1870284B1870FFF779FF2478EE
:107F1000072C3FD1204600F05FFA1E2803D900212C
:107F2000204600F05FFA062000F056FA1E2803D91A
:107F30000021062000F056FA1B4B05201B78C3B920
:107F400000F04AFA012804D1072000F045FA134B4B
:107F50001870134A1378EBB1013BDBB21370134A6C
:107F60000121BDE810400020FBF70CBD013B137060
:107F7000CDE700F031FA012804D1062000F02CFAF8
:107F8000074B1870054A137823B1013BDBB213701D
:107F9000074AE5E710BD00BF7C820720873808202C
:107FA000883808207A8207207B820720E0310B0086
:107FB0000A320B0008B5FFF73FFF08491620FBF710
:107FC0007DFB07490720FBF779FB1A200549FBF7E2
:107FD00075FBBDE808400120FFF712BF497E0A008B
:107FE000E97E0A00CD7E0A0030B58BB00446FBF76F
:107FF000EDFD83780546A3420DD01620FBF7D2FD98
:108000001623AC7068468DF800308DF80140FBF700
:1080100077FB0BB030BD1620FBF7AEFD0028ECD18E
:10802000F7E7000030B58BB04FF0A00383F3118861
:10803000BFF36F8FBFF34F8F144A1548148803782E
:10804000144921F813400023138083F311880A2573
:1080500002780132D2B2B2FBF5F405FB14221C46C1
:10806000027031F8132001330A2B1444F9D10A4D60
:108070002B68A34207D01B2368468DF8003001947B
:10808000FBF73EFB2C600BB030BD00BF8A380820E8
:108090008C38082094380820A838082037B51E4DA1
:1080A00044682B68A3428CBF1B1BE31A132B94BF9D
:1080B000002301236BB1204604F044FD0022174B3E
:1080C00004F0E4FE164ACDE9000101210020FBF78F
:1080D00059FC632C07D80021084600F0A7F80023BC
:1080E0002B6003B030BD2B68A3428CBF1B1BE31A6F
:1080F000312B94BF00230123002BF2D032234EF604
:108100006021B4FBF3F30120B1FBF3F100F08EF832
:10811000FBF77CFD2C60E4E7903808200000594014
:1081200035320B00014B1868704700BF90380820AB
:1081300073B5134D2C7804BB00F09AF811491A203E
:10814000FBF7BCFA104B01220093642123460F4831
:10815000F9F7D2FA0646F8F72FFD234602460094B7
:1081600001213046F9F7EEFA0123214620462B7013
:1081700002B0BDE8704000F059B802B070BD00BF59
:10818000893808209D800A0025800A0044320B00AF
:1081900030B58BB00446FBF719FD83680546A34252
:1081A0000FD91B1B012B0FD01A20FBF7FBFC1A2346
:1081B000AC6068468DF800300194FBF7A1FA0BB073
:1081C00030BDE31A012BEFD81A20FBF7D5FC0028AD
:1081D000EAD1F4E738B5124804F05EFB03061DD57A
:1081E000104D11492C680E4864082A6804F02EFBD3
:1081F00022460D490A4804F037FB2A680A49084814
:1082000004F024FB22460849054804F02DFBBDE894
:10821000384000220721024804F049BB38BD00BFA6
:1082200000400940D8380820AC38082038B5054649
:108230000C4C80B10C4B196023782BB907210B48EB
:1082400004F020FB012323700022BDE83840072101
:10825000064804F023BB0721044804F018FB2570EE
:1082600038BD00BFD4380820D83808200040094065
:108270001FB52420FEF758FB0721194804F007FB1F
:108280002420FEF751FB002447F23053CDE901349E
:10829000144B01A91248039304F04AFA20B1124A80
:1082A00021462046FBF76EFB0023104964200B811A
:1082B0008B720B234B6032230724C1E9033008483B
:1082C0000C6004F054FA2146054804F0E0FA10224C
:1082D000074B5A60F02283F8242304B010BD00BF7E
:1082E0000040094000BD01054A320B00AC380820AF
:1082F00000E100E070B58AB004460E46FBF766FC6C
:1083000003790546A34209D01720FBF74BFC1B2C31
:108310002C710AD817238DF800300CE01720FBF7DA
:108320002BFC0028F0D10AB070BD182305228DF86F
:1083300000300F4B1A70002368468DF802308DF81C
:1083400001408DF80360FBF7DBF99DF80130002B4D
:10835000E9D1074C2378002BE5D0182368468DF827
:108360000030FBF7CDF92378013B2370DBE700BF3A
:10837000DC380820144B10B518680A2388B0009325
:108380000023124C2278162A87BF1A4603214FF485
:1083900096720421F9F7D6F917238DF8083023785F
:1083A0000121DA088DF8102000920020084AFBF71E
:1083B000E9FA00238DF81130064B02A8039304F06C
:1083C00003F808B010BD00BFF8380820F6380820C0
:1083D00066320B009D840A00014B185C704700BF99
:1083E000DE3808207FB5094B1A5C8A420AD019543E
:1083F00005238DF8080068468DF800308DF80910C7
:1084000003F0E2FF07B05DF804FB00BFDE38082090
:108410007FB57F2306A800F8183D03F0D5FF07B00D
:108420005DF804FB37B5114A1378EBB9FF2010490A
:1084300058540133182BFBD101240E4B14704FF408
:10844000C871224600930C480023F9F755F90B4BED
:1084500005461860F8F7B0FB0A2302460093214650
:1084600000232846F9F76EF903B030BDDD38082047
:10847000DE38082075830A00DF300B00F83808204A
:108480001D2300B58BB08DF8010068468DF80030D3
:10849000FBF736F90BB05DF804FB00002DE9F84F4F
:1084A000894692460024C000DFF85C80C6B2144FB3
:1084B00008EB060BA14504D10122124B1A70BDE84E
:1084C000F88FA519172D18DC1AF80430012D0BF8B8
:1084D000043002D12846FFF7D3FF172D3D7009D194
:1084E00098F817301BB901212846FFF77BFF0220BF
:1084F000FFF7C6FF3B7801333B700134DAE700BF7A
:10850000F6380820F7380820DE38082070B54179A1
:1085100090F808418D1DA54217D18378C2780B448D
:1085200013440279053113440622DBB2914206DA84
:10853000DB430134435580F80841012070BD865C5F
:1085400001323344DBB292B2F0E70020F6E70023B9
:10855000FF2180F8083180F8093100F20712431E2C
:1085600003F8011F9342FBD1002380F80A3180F801
:108570000B3170470122014B1A707047943A082062
:10858000704700000378262B02BF4278014B1A7017
:10859000704700BF70390820037810B5212B0146C1
:1085A00003D12822054805F001FABDE81040002358
:1085B00003481A4619460068F9F7FCBB0039082041
:1085C0002839082002F0B4BF03780146312B05D1C9
:1085D000034800230A220068F9F7ECBB704700BF8C
:1085E000983A0820037801462E2B05D10348002332
:1085F0000A220068F9F7DEBB704700BF3439082053
:108600000378272B06D1011D034800230A220068A6
:10861000F9F7D0BB704700BF7439082003782C2BC2
:1086200003D141780920FFF7DDBE7047037810B50C
:10863000292B10D10446084A54F8043F0421022093
:10864000FBF7A0F905482146BDE8104000230A22A7
:108650000068F9F7AFBB10BDEC320B0044390820BD
:10866000037810B5322B04460DD1074A01210020B2
:10867000FBF788F90548611C0023BDE810400A2279
:108680000068F9F797BB10BDC4320B002C390820E5
:10869000037813B5172B47D10222411C684605F019
:1086A00085F99DF8002052B923490B783BB1DC07CE
:1086B00041BF581C08708DF800308DF801209DF8DE
:1086C0000020D00718D51C4B1B78D90714D59A4227
:1086D00012D000240133194A012120468DF80430BC
:1086E0008DF80540FBF74EF9154823464FF0FF3251
:1086F00001A90068F9F75EFB9DF80030A3B10E4CAC
:1087000022789A4210D00F4A01210020FBF73AF953
:108710000B486946002302220068F9F74BFB01462B
:1087200020B19DF80030237002B010BD064A02202F
:10873000FBF728F9F8E700BF3939082057330B0059
:10874000903A082062330B0070330B0070B5037849
:1087500088B02D2B40F00481037CA14C012B00F04C
:108760000181022B40F03681011D0C229D4805F04D
:108770001DF99C4A6078537801091D098D4203F068
:108780000F0300F00F0028BF0D46834228BF0346A9
:108790009DF81510207865F3071163F30301137832
:1087A0008DF815101D0901098D4203F00F0300F02B
:1087B0000F0028BF0D46834228BF03469DF81410C2
:1087C000E07865F3071163F30301D3788DF8141093
:1087D0001D0901098D4203F00F0300F00F0028BFAF
:1087E0000D46834228BF03469DF81710A07865F315
:1087F000071163F3030193788DF817101D09010920
:108800008D4203F00F0300F00F0028BF0D46834296
:1088100028BF03469DF81610607965F3071163F3CE
:1088200003018DF81610517983098D099D4238BFD7
:108830001D469DF81930C0F3011665F38713C1F387
:108840000115B54238BF3546C0F3810665F30513FF
:10885000C1F38105B54201F0030100F0030038BF08
:108860003546814238BF014665F3830361F3010356
:108870008DF81930117920798D0983099D4238BF0F
:108880001D469DF81830C0F3011665F38713C1F338
:108890000115B54238BF3546C0F3810665F30513AF
:1088A000C1F38105B54201F0030100F0030038BFB8
:1088B0003546814238BF014665F3830361F3010306
:1088C0008DF8183000238DF81C3094F908301646C6
:1088D000002BB4BF012392F908309DF81C20A8BFDB
:1088E000DB0F63F3C7124FF6FF738DF81C20BDF842
:1088F00014203D4D9A4218BF2B784FF001011CBF48
:1089000043F002032B704FF6FF73BDF816200020D2
:108910009A4218BF2B78BDF818201CBF43F0010302
:108920002B702B7802929DF81C200192059A0092E0
:108930002E4AFBF727F8327A9DF81C300192227AF2
:108940000121009200202A4AFBF71CF8287802F047
:10895000E1FD284800230A2205A90068F9F72AFA50
:1089600008B070BD011D0C22204605F01FF8224BF7
:108970001B78002B3FF4FDAE6278130902F00F0262
:10898000934228BF13462278184602F00F011309BC
:108990008B4228BF0B46E27811098B4228BF0B4659
:1089A00002F00F018B4228BF0B46A27811098B42BF
:1089B00028BF0B4602F00F02934228BF13468342A2
:1089C00028BF03460F2B16BF0C4A0020D05C03F0D3
:1089D00079FECEE60A4A01210020FAF7D3FFC8E665
:1089E00060390820543908203039082018330B002A
:1089F0003E330B006C3908203139082082320B00DD
:108A000000330B0010B590F80A31044690F80811B5
:108A10000BB1032903D8637907338B4204D1204675
:108A200000F056FE012010BD0021054A0846FAF765
:108A3000A9FF204694F8081100F04AFE0020F2E752
:108A400088330B002DE9F0411C4C054620461E469C
:108A500088461746FFF77BFDC723C82294F8080114
:108A60002354431CDBB2E2541222831CDBB2E554D4
:108A7000C31CDBB2E2540022031DDBB2E254042229
:108A8000431DDBB2E254851DC11D00F10802EDB2A9
:108A9000C9B2D2B204F805806754A65400F10902A5
:108AA0000A3084F80801D2B22046A654FFF72EFD02
:108AB0002046BDE8F041FFF7A5BF00BF8039082080
:108AC000034B1A781F2A84BF01221A701878704746
:108AD0008C3A082008B5FFF7F3FF0130C0B2202818
:108AE00028BF0120014B187008BD00BF8C3A082038
:108AF0002DE980487A4B89B00093012200234FF47E
:108B0000FA717848F8F7F8FD774C784B206001222D
:108B1000C821009376480023F8F7EEFD754D2860D4
:108B200001F0B6FE2668F8F747F80024024623460F
:108B3000012130460094F8F705FE2D68F8F73CF85F
:108B400023460246012128460094F8F7FBFD022146
:108B5000694A0846FAF716FF6848FFF7F8FCFFF77E
:108B6000B9FF674D0146654802F04CFC2F46654E43
:108B7000C8213068F9F744FB6C78DFF8B881012C24
:108B800068D1614A03210220FAF7FCFE98F8003010
:108B9000022B51D802215D4A0846FAF7F3FE5748E6
:108BA00090F808218378012A98BFFF23BA789A4267
:108BB00040F08280FFF726FF98F80030013388F8F4
:108BC0000030002CD4D10020514C88F8000062788D
:108BD000002A40F0E382DFF8608105A9D8F80000A0
:108BE000F9F76CFA002800F0D3809DF81420237860
:108BF0009A4200F0CC82FFF76DFF9DF814300446D6
:108C0000162B00F2B882DFE813F061009900DE0154
:108C1000E501EE01F501FE0105020E027902820274
:108C20001502510258026102690272028902900221
:108C30009802A002A702AF02364A00210220FAF7EA
:108C4000A1FE354A1378002BBDD000231370334AA0
:108C50001370B8E7022C31D1314A03212046FAF7CC
:108C600091FE98F80030022B09D821462D4A204663
:108C7000FAF788FE2148FFF7C5FE01249CE72A4A3F
:108C800000212046FAF77EFE234B1B7813B1002209
:108C9000224B1A70254B1B7823B9FAF759FE012095
:108CA000FEF7E4FAFEF7F0FF044628B9FAF750FEA3
:108CB0000120FEF7DBFA7FE700247DE7164B1B78E7
:108CC000002B80D0154A13780133C1E7184A0121DF
:108CD0000020FAF757FE00231A46002136E000BFB5
:108CE00075850A0092330B004C39082081850A00F3
:108CF00098330B00483908209E330B008039082038
:108D00000039082028390820AD330B00B4330B009C
:108D100050390820C3330B00783908204039082027
:108D2000D6330B00E0330B00EF330B007039082013
:108D300004340B0071390820903A0820C24A0121FE
:108D40000020FAF71FFE0123002210212046FFF722
:108D500079FE0446002840F013829DF81430BB4A87
:108D60000146FAF70FFE0123052205A9D8F80000F5
:108D7000F9F720F89DF814300094B54A012100203D
:108D8000FAF700FE012C00F01682022C00F00F8290
:108D9000B04B002205A91868F9F790F948B1FFF720
:108DA00099FE05AA0146AC4802F0F2FB00287FF4C8
:108DB000DFAEAA4B002205A91868F9F77FF948B180
:108DC000FFF788FE05AA0146A34802F025FC00280B
:108DD0007FF4CEAE0022A24B05A918680592F9F7E0
:108DE0006DF948B1059C3CB1FFF774FE01469A4805
:108DF000A04700287FF4BCAEDFF8AC82994C98F80D
:108E00000030002B00F0E881DFF864A2DAF80030CF
:108E1000002B00F0E18102212368934A0846FAF70B
:108E2000B1FD206802F0BAF9DFF840B281460028AF
:108E300000F0C5819BF800108748C847002840F023
:108E4000F1810023894A88F800301370884A136042
:108E5000884B002205A91868F9F730F9002867D077
:108E6000FFF738FEDDE906A97B4C039020469DF80C
:108E700016809DF815B0FFF76AFBC722C82094F84A
:108E800008310399E2545A1CD2B2A0549A1CD2B2AF
:108E9000A1544021DA1CD2B2A15400211A1DD2B231
:108EA000A1545A1DD2B2A1549A1DD2B204F802B0F4
:108EB000DA1DD2B2083304F8028084F80831504633
:108EC00004F028FFA046D446C0B298F80811ACEBD5
:108ED0000A02D2B24B1C9042DBB200F2A781002200
:108EE00084F808316254484604F014FFCC46C0B2FE
:108EF00098F80831ACEB0901C9B25A1C8142D2B2D0
:108F0000C0F09B814FF0000804F80380053B84F813
:108F1000082163715048FFF7F9FA574A012140468A
:108F2000FAF730FD4C48FFF76DFD00287FF420AEC6
:108F3000524B002205A91868F9F7C0F800283AD06A
:108F40004F4A01210020FAF71DFDFFF7C3FD424CF7
:108F5000824620469DF814909DF81580FFF7F7FA99
:108F6000C722C82194F80831E2545A1CD2B2A15445
:108F700024219A1CD2B204F802A0DA1CD2B2A15465
:108F800000211A1DD2B2A15402215A1DD2B2A154FD
:108F90009A1DD2B204F80290DA1DD2B2083304F856
:108FA000028084F80831FFF7B1FA2046FFF72AFD66
:108FB00000287FF4DDAD334C2378002B40F0448152
:108FC00000232370D4E5304A01210020FAF7DAFCAF
:108FD0000023B9E62D4A01210020FAF7D3FC012332
:108FE00000222021B2E62A4A01210020FAF7CAFC19
:108FF0000023F5E7274A01210020FAF7C3FC0123EB
:1090000000220421A2E6244A01210020FAF7BAFC3A
:109010000023F5E7214A01210020FAF7B3FC0123E0
:109020000022082192E61E4A01210020FAF7AAFC3C
:109030000023F5E71B4A01210020FAF7A3FC0123D6
:109040000022402182E600BF0F340B005D350B008B
:1090500082350B006C39082080390820343908200B
:10906000743908203C390820B5350B0040390820F8
:109070007C390820983A0820E7350B002C39082065
:10908000F8350B00943A08201C340B0027340B00F1
:1090900034340B003F340B004D340B0059340B00BB
:1090A00067340B0073340B00783908206F4A0121B4
:1090B0000020FAF767FC0023C2E76D4A0121002077
:1090C000FAF760FC0123002201213FE6694A0121F1
:1090D0000020FAF757FC00231A46F5E7664A0121FB
:1090E0000020FAF74FFC0123002202212EE6634AFA
:1090F00001210020FAF746FC0023F5E7604A012130
:109100000020FAF73FFC0123002280211EE65D4A81
:1091100001210020FAF736FC0023F5E75A4A012125
:109120000020FAF72FFC0123D6E5584A0121002040
:10913000FAF728FC00230122CFE5554A012100203F
:10914000FAF720FC01230222C7E5524A0121002040
:10915000FAF718FC0023F6E74F4A01210020FAF73E
:1091600011FC01230422B8E54C4A01210020FAF742
:1091700009FC0023F6E74A4A03210020FAF702FC23
:10918000022205A9474804F011FC0124F2E56378A6
:109190009DF81520134463700224EBE5013AD2B226
:1091A00062702378012100923F4AFAF7EBFB0A2014
:1091B000F7F714FEECE53220F7F710FED8E40221B1
:1091C00023683A4A0846FAF7DDFB88F800908BF8E6
:1091D0000090CAF800903BE6354B002235491868EC
:1091E000F8F76CFF00283FF433AE2368002B3FF400
:1091F0002FAE0221304A0846FAF7C4FB206801F07E
:109200008DFF206801F0CAFF034600283FF420AE1E
:109210002A4A2B481178984700283FF412AE22685A
:10922000284B1A60012388F80030A1E41CF8012BB8
:1092300088F8083108F8012047E61CF8011B88F877
:10924000082108F8031053E6FFF744FC01461C48C8
:1092500002F0D8F880460A20F7F7C0FD00232370FB
:10926000B8F1000F3FF4ACAE82E400BF80340B00D5
:109270008B340B009B340B00A9340B00B9340B006A
:10928000C7340B00D6340B00E3340B00F5340B006D
:1092900005350B0017350B0027350B0036350B0055
:1092A00043350B005039082095350B00C8350B00AD
:1092B000443908203C390820D7350B0040390820B4
:1092C000803908207C390820024B00211868F8F703
:1092D0000BBD00BF4439082037B5424D2C78002C17
:1092E0007ED1224602211020F8F73EFD04213E4B9C
:1092F000224618600846F8F737FD04213B4B22460A
:1093000018600846F8F730FD394B224618600C21EA
:109310000220F8F729FD374B224618600C21022065
:10932000F8F722FD0221344B224618600846F8F770
:109330001BFD324B2246186009210220F8F714FD6C
:109340002F4B4FF44872186002232E49009301946A
:1093500023462D48F7F704FB00F024FA2B49172089
:10936000FAF7ACF92A493220FAF7A8F92949292055
:10937000FAF7A4F928492720FAF7A0F9274921206C
:10938000FAF79CF926492620FAF798F9254928206A
:10939000FAF794F924492D20FAF790F923492E2061
:1093A000FAF78CF922493120FAF788F921492C2063
:1093B000FAF784F902F086F801200322214628708A
:1093C000F8F7D2FC4FF0FF311B4A1C4B11601472AE
:1093D00091804FF6FF721860194B19601C729A80C9
:1093E00003B030BD38390820903A082044390820AD
:1093F000743908206C390820983A08202C39082044
:109400003439082019360B00F18A0A0091860A00C7
:1094100061860A002D860A0001860A0099850A00E5
:1094200085850A005D940A004D870A00E5850A00DB
:10943000C9850A001D860A006039082028390820DD
:1094400054390820272300B58BB0019068468DF869
:109450000030FAF755F90BB05DF804FB0378282BC0
:1094600005D14378182B02D10148FFF7EBBF7047B5
:10947000C5850A0000B58BB001461422684604F089
:1094800095FA2D2368468DF80030FAF739F90BB0BC
:109490005DF804FB10B526248AB08DF804309DF8E1
:1094A00030308DF802008DF805309DF83430684674
:1094B0008DF806309DF838308DF800408DF8073073
:1094C0009DF83C308DF801108DF803208DF80830A0
:1094D000FAF716F90AB010BD2B2300B58BB08DF842
:1094E00000309DF801308DF8022060F3030361F332
:1094F000871368468DF80130FAF702F90BB05DF872
:1095000004FB2F2300B58BB08DF8010068468DF861
:109510000030FAF7F5F80BB05DF804FB282300B52E
:109520008BB08DF8010068468DF80030FAF7E8F846
:109530000BB05DF804FB000003462A2000B58DB097
:109540008DF808000020CDE900128DF80B108DF881
:109550000C200121064A8DF80A308DF80900FAF72F
:1095600011FA02A8FAF7CCF80DB05DF804FB00BFC1
:1095700091320B00034608462A2100B58DB08DF8C4
:1095800008100121CDE900028DF80B008DF80C20A8
:109590000020064A8DF809108DF80A30FAF7F2F922
:1095A00002A8FAF7ADF80DB05DF804FBA3320B008A
:1095B0002A2200B58DB08DF80820022203468DF8CE
:1095C00009208DF80A008DF80B100091054A012141
:1095D0000020FAF7D7F902A8FAF792F80DB05DF873
:1095E00004FB00BFB5320B00252300B58BB0ADF8EE
:1095F000020068468DF80030FAF782F80BB05DF88B
:1096000004FB08B50920FEF7E7FE122804D909205B
:109610000121FEF7E7FE012008BD0000034B1A7888
:109620001F2A84BF01221A7018787047B03C0820A6
:109630000023FF21074A82F8083182F80931D1540A
:109640000133B3F5847FFAD1002382F80A3182F81E
:109650000B317047A43B0820074B587993F8082139
:109660000730811A93F80A314842484113B1032A5E
:1096700088BF1846704700BFA43B082038B5FFF7E5
:10968000EBFF30B1114B93F80A111A4611B193F860
:109690000B0138BD5879D1789B78441D0B440621C5
:1096A0000344DBB2A1420ADDDB4310448179DBB223
:1096B00099420CBF0120022082F80B01E9E7555CBA
:1096C00001312B44DBB289B2ECE700BFA43B082098
:1096D0002DE9F341C6B20024F7434FF0D80C4FF008
:1096E000AA0E2A4D831BDBB28B4201D2FD2C2BD953
:1096F000F7F762FA02210346254A0846FAF742F9CB
:109700000026244FF3B29C4238D80221224A084650
:10971000FAF738F9214B224618681C49C368984764
:109720000023FF22EA540133FE2BFBD11C4B1C68A3
:10973000F7F742FA00230246009301212046F8F78A
:1097400001F802B0BDE8F08110F8013B621CC72BA4
:10975000D2B20ED107EB000818F0FF0F05D005F8C4
:1097600004C005F802E0144600E02B550134E4B2D1
:10977000B8E7D82B2B55F9D1AB54F4E70221AB5DF8
:109780003A460846FAF7FEF80136BBE7A03A082049
:10979000B5360B00BD360B0098260B009C3A08200E
:1097A000A03B082013B50221134A0846FAF7EAF84D
:1097B000124A04210220FAF7E5F81148114B4E2213
:1097C00018604FF4E13143699847002402234FF4B5
:1097D0004872CDE900340C4923460C48F7F7C0F82D
:1097E0000B4B22460093A02123460A48F7F784FF3B
:1097F000094B186002B010BD85360B009C360B007B
:10980000D08107209C3A0820AA360B0095980A00C0
:109810003B980A00DF300B00A03B0820212300B555
:109820008BB08DF8010068468DF800308DF802107D
:10983000F9F766FF0BB05DF804FB00210220FFF78B
:10984000EDBF0B2300B58BB08DF8010068468DF895
:1098500000308DF80210F9F753FF0BB05DF804FBF0
:109860002C2300B58BB08DF8010068468DF80030D0
:10987000F9F746FF0BB05DF804FB222300B58BB06F
:109880008DF8010068468DF80030F9F739FF0BB00C
:109890005DF804FB02212DE9F043BA4A87B008467F
:1098A000B94DFAF76FF8C820F7F798FA2E46FFF788
:1098B000BFFEB64C28680A2301220DF1170180690A
:1098C000FCF78EFA002800F094809DF81700C72856
:1098D00001D1FFF7ADFE94F808312BB16278CA2AA6
:1098E00023D00DD8C82A20D0E054013384F80831A1
:1098F0002378C72B1EBF002384F80831237020E093
:10990000F02A01D0FF2AEFD10122032B84F80A218B
:1099100064D1E070A278E178D243D2B291420CBF18
:109920000122022284F80B21DEE7002294F80911BB
:1099300084F80A21002945D1D828D5D1012384F8FB
:109940000931FFF789FE0028B4D0F7F735F9022175
:1099500003468F4A0846FAF715F80023DFF84C82D1
:1099600094F808215F1CDBB29A423AD80221894A56
:109970000846FAF707F894F80831012B04D9A378C0
:109980001F2B01D8844A1370FFF766FE002891D080
:109990000520F7F723FA94F80A71002F41D001202F
:1099A000FDF764FCF9F7D4FF94F80831A778012B90
:1099B000637898BFFF27FF2B1FD0FFF739FE39468A
:1099C000012022E0AA2804D0D82803D084F8092155
:1099D000B7E7C720002284F8092185E7022B83D945
:1099E00098E70221E35C42460846F9F7CBFF3B4685
:1099F000B6E70220F7F7F2F9C6E7FFF73FFE0128C6
:109A0000DBD1FFF715FE39460020FFF707FF0A23D9
:109A10000093002361481A4603210068F7F792FE7D
:109A200048E7FFF72BFED6F800800128D8F8109001
:109A300040F0BE80FFF7F2FD0146FFF7EFFDC043A7
:109A4000C0B2FF23C722CDE9001055494046C847A0
:109A5000F7F7B2F80146FFF7E1FD8046FFF7DEFDBC
:109A6000C043C0B2CDE90280C723FF20CDE900305A
:109A70000B4602214B4A0846F9F784FFE378FF2B97
:109A80000ED0C32B55D018D8B72B46D00BD8912B5E
:109A900039D0B62B3DD0902B17D1A079FFF73EFDE2
:109AA000FFF7C6FD06E7C02B3BD0C12B3DD0B82B3E
:109AB0000BD1204602F046F8F2E7D02B49D018D857
:109AC000C52B3ED039D3C62B3FD0374A00210220C8
:109AD000F9F758FF0023DFF8D48094F808215F1CC1
:109AE000DBB29A4245D82B4A00210220F9F74AFFFF
:109AF000D6E7E52B35D0E82B37D0D52BE5D1A079AB
:109B0000FFF7BBFECCE73A463946A079FFF714FDD4
:109B1000C6E7204601F0E8FFC2E7204601F0F8FF63
:109B2000BEE7204602F024F8BAE7204602F034F8F7
:109B3000B6E7204602F042F8B2E7204602F068F8A5
:109B4000AEE7204602F06CF8AAE7204602F098F84B
:109B5000A6E7A379E07900EB032080B2FFF744FD8C
:109B60009EE7204602F08EF89AE7204602F0BCF805
:109B700096E7E35C424600210220F9F703FF3B46EB
:109B8000ABE700BF48360B009C3A0820A43B0820F6
:109B90005A360B0098260B00B03C0820A03B08204A
:109BA00025360B002E360B0066360B00BD360B003B
:109BB000FFF734FD0146FFF731FDC043C0B2F0238B
:109BC000C722CDE900100D494046C847F6F7F4FF1B
:109BD0000146FFF723FD8046FFF720FDC043C72362
:109BE000F022C0B2CDE90032CDE902800B46044A32
:109BF00039460220F9F7C6FE52E700BF25360B00B2
:109C00002E360B0010B520248AB08DF80430BDF834
:109C100030308DF8020068468DF800408DF8011054
:109C20008DF80320ADF80630F9F76AFD0AB010BDD3
:109C30000D4A0178136871B9022B01D80321116014
:109C40001268003318BF0123003218BF012293426B
:109C500008D001F0F9BA0129EED00729F0D10BB1F3
:109C6000591EECE7704700BFC43C082001780D4A3C
:109C70000F2913680ED1022B01D80321116012683D
:109C8000003318BF0123003218BF0122934207D0CE
:109C900001F0DABA0729F2D1002BF0D0591EEDE716
:109CA000704700BFCC3C0820F0B585B006460F4693
:109CB000FFF7A7FC044601F025FFD0B90E4B1B7837
:109CC000ABB10E4B53F82450FEF7FAFE0C4B0022BA
:109CD00053F824300146029301230395CDE9003265
:109CE000304607233A4601F07CFD05B0F0BD054B38
:109CF000E8E70020F9E700BFC93C0820E0380B0086
:109D000070420B0094380B007FB50D460446FFF7F8
:109D100078FC0646FEF7D4FE084B00220393084B5E
:109D2000014653F82630204602930323CDE9003242
:109D30000F232A4601F055FD04B070BDF8370B0023
:109D400060370B00F0B585B00E460546FFF759FCAD
:109D50000746FFF756FC0D4B1B68ABB10C4B53F895
:109D60002040FEF7ADFE0B4B002253F82730014692
:109D7000029301230394CDE900322846042332469E
:109D800001F02FFD05B0F0BD034BE8E7CC3C082007
:109D900068430B00E43A0B00C83B0B00F0B585B0FC
:109DA0000E460546FFF72DFC0746FFF72AFC0D4B34
:109DB0001B68ABB10C4B53F82040FEF781FE0B4BF8
:109DC000002253F827300146029301230394CDE982
:109DD000003228460323324601F003FD05B0F0BDF2
:109DE000034BE8E7C43C082068430B0014370B0022
:109DF000C83B0B007FB50D460446FFF702FC064644
:109E0000FEF75EFE084B00220393084B014653F811
:109E10002630204602930123CDE900322A4601F084
:109E2000E0FC04B070BD00BF64220B00D8410B0001
:109E30007FB50D460446FFF7E4FB0646FEF740FEFD
:109E4000084B00220393084B014653F82630204666
:109E500002930323CDE9003280232A4601F0C1FC9E
:109E600004B070BDF8370B00BC420B007FB50D4647
:109E70000446FFF7C6FB0646FEF722FE084B00220B
:109E80000393084B014653F82630204602930323E0
:109E9000CDE9003210232A4601F0A3FC04B070BDC6
:109EA000F8370B00808207207FB50D460446FFF788
:109EB000A8FB0646FEF704FE084B00220393084B5E
:109EC000014653F82630204602930323CDE90032A1
:109ED00002232A4601F085FC04B070BDF8370B0060
:109EE00048380B00F0B587B00D460446FFF789FBF4
:109EF0000D4B07461E78FEF7E3FD00233B22CDE91C
:109F000004320A4B01461B782A460393084B20462D
:109F10000293084B53F82730CDE90063062301F084
:109F20006EFD07B0F0BD00BFD13C0820D33C082037
:109F3000F8370B00303B0B00F0B587B00D460446F8
:109F4000FFF75FFB0D4B07461E78FEF7B9FD0023B8
:109F50001722CDE904320A4B01461B782A460393A7
:109F6000084B20460293084B53F82730CDE9006395
:109F7000052301F044FD07B0F0BD00BFD13C08202F
:109F8000D23C0820F8370B004C3A0B00F0B587B0F4
:109F90000D460446FFF735FB0D4B07461E78FEF7CE
:109FA0008FFD00230C22CDE904320A4B01461B78B9
:109FB0002A460393084B20460293084B53F8273058
:109FC000CDE90063032301F01AFD07B0F0BD00BF27
:109FD000D13C0820CD820720F8370B007C3B0B00DA
:109FE0002DE9F04186B00E460546FFF70AFB0F4B00
:109FF00080461F780E4B1C78FEF762FD0A238022F4
:10A00000CDE904320B4B303402930B4BE4B253F8DE
:10A0100028300146CDE900730394022332462846D6
:10A0200001F0EDFC06B0BDE8F08100BFD13C082096
:10A03000CE820720F8370B001C430B002DE9FF41AF
:10A0400006460F46FFF7DDFA0E4B80461D78FFF7F8
:10A05000D8FAADB10C4B53F82040FEF731FD0B4B55
:10A06000014653F82830CDE90245019300233A46D2
:10A0700000933046012301F00EFC04B0BDE8F081EE
:10A08000034BE8E7D13C0820AC3C0B0024420B001A
:10A09000143C0B0073B50446FFF7B3FA0646FEF70F
:10A0A00019FD084B0546186801F09EF8064B02465C
:10A0B00053F826302946009320460F2301F050FB29
:10A0C00002B070BDB83C082060370B0073B5044681
:10A0D000FFF797FA0646FEF7FDFC084B05461868A1
:10A0E00001F082F8064B024653F8263029460093C9
:10A0F0002046022301F034FB02B070BDBC3C0820B6
:10A1000048380B0073B50446FFF77BFA0646FEF7A6
:10A11000E1FC084B0546186801F066F8064B02465C
:10A1200053F82630294600932046002301F018FBFF
:10A1300002B070BDB43C082080820720F0B585B025
:10A140000E460546FFF75DFA0746FFF75AFA044642
:10A150000220FEF741F901280CBF0B4B0B4B53F8C3
:10A160002440FEF7ADFC0A4B002253F8273001468D
:10A17000029301230394CDE900322846022332469C
:10A1800001F02FFB05B0F0BD603C0B00FC370B006D
:10A19000983A0B0003782DE9F0430A2B2FD1194A86
:10A1A00090F80480147818494445B0F806900B885C
:10A1B0008E46944621D1B9EB030318BF0123134EF9
:10A1C000C7783278124CBA4218BF012385782278BA
:10A1D0004178AA4218BF01230E4AAEF800901078C9
:10A1E0008CF80080884218BF0123377025701170E9
:10A1F0002BB1BDE8F04301F027B80123DFE7BDE84C
:10A20000F08300BFCD820720CE820720CC820720BA
:10A21000D23C0820D33C08207FB502F08FF80B28F1
:10A2200009D903238DF80030FAF702FC8DF80800F5
:10A23000684602F0C9F807B05DF804FB014B1878D6
:10A24000704700BFD13C0820014B1870704700BF19
:10A25000D13C082008B5044B0521186800F06AFFBE
:10A260000122024B1A7008BDBC3C0820CA3C0820E1
:10A2700008B5044B0421186800F05CFF0122024B72
:10A280001A7008BDBC3C0820D03C082082071FD1B2
:10A290006422B0FBF2F302FB13039BB2D3B94FF479
:10A2A000C872B0FBF2F302FB130080B2B0FA80F088
:10A2B00040090B2912D8012303FA01F111F4256F8B
:10A2C0000AD14B070AD5002814BF1D201C20704757
:10A2D0000020EEE70120ECE71E2070471F207047AA
:10A2E00010B51446FFF7D2FF24B1A04228BF204684
:10A2F000C0B210BD0120FCE72DE9F04186B00D464B
:10A300000446FFF77EF9124B07461E78114B1A7868
:10A31000114B1978114B1888FFF7E2FF8046FEF7C2
:10A32000CFFB00231F22CDE904320D4B01460293DF
:10A330000C4BCDF80C8053F827302A46CDE900634A
:10A340002046042301F05BFB06B0BDE8F08100BFAE
:10A35000D13C0820CC820720CD820720CE82072066
:10A36000F8370B00AC370B002DE9F043037887B0CA
:10A370002A2B054640F092804378022B40F08E80D5
:10A3800000F0A6FE0F287ED1EC78AD78F6F714FC2D
:10A39000444BCDE901450093434A03460121002087
:10A3A000F9F7F0FA414B424E1B78424D9A1EDFF806
:10A3B0002C81DFF82C91404F042A5ED8DFE802F0B0
:10A3C00003323E4C550004F5FA6423463B4A012112
:10A3D0000020F9F7D7FA34803B78394A049399F88A
:10A3E00000300121039398F80030002002932B786D
:10A3F0000193338800932B4BF9F7C4FA3C78297802
:10A4000099F8003098F800203088009401F09AFC08
:10A410002C4B186800F000FF0F2007B0BDE8F04398
:10A4200000F026BE2346284A01210020F9F7AAFAA7
:10A430000CB12C70D0E701232B70CDE72346234AC3
:10A4400001210020F9F79EFA224629783088FFF78B
:10A4500047FF88F80000BFE723461D4A012100207E
:10A46000F9F790FA89F80040B6E72346194A012126
:10A470000020F9F787FA3C70AEE7174A0121002067
:10A48000F9F780FAA8E71038C0B26F2806D8A97883
:10A49000E87807B0BDE8F04300F040BD07B0BDE884
:10A4A000F08300BFF3360B0089390B00CB3C08204A
:10A4B000CE820720CD820720D33C082098390B009C
:10A4C000053A0B00B83C0820A9390B00BA390B003B
:10A4D000CD390B00DD390B00F0390B00CC820720A1
:10A4E000D23C0820194B2DE9F341187058B3184D90
:10A4F0002888A0F5FA63362B25D8DFF86C8098F809
:10A5000000104B1E0B2B1ED8124F3C78DCB122469C
:10A51000FFF7E6FE844216D80F4C2378172B12D88B
:10A520000E4E33783B2B0ED80D4B0E4A01210020E6
:10A53000F9F728FA20782C883A7898F800303178A2
:10A540000094FFF75FFB02B0BDE8F081D13C08202A
:10A55000CE820720CC820720D23C0820D33C0820A2
:10A56000C2360B0008430B00CD8207202DE9FF41C6
:10A57000037804462A2B03D1477827B1012F11D045
:10A5800004B0BDE8F0818478002CF9D100F0B0FD72
:10A59000204600F06DFD4E4B186804B0BDE8F04158
:10A5A00000F03ABE00F094FD0F2800F2868000F023
:10A5B0008FFD0228A5787AD0E67824790AD30F286F
:10A5C0002CD0CDE900642B46424A39460020F9F7E9
:10A5D000D9F9D5E715B90EB9012C0BD00F2C13D82A
:10A5E000012C07D9022CCBD13B4B186800F014FE8C
:10A5F000022004E0364B186800F00EFE002004B084
:10A60000BDE8F04100F034BD2106B9D42246314600
:10A61000284604B0BDE8F04100F0ECBBF6F7CCFAF8
:10A620002E4BCDE902640093019503462C4A39462E
:10A630000020F9F7A7F90F2DA2D1012C17D1294E2F
:10A64000294A337821460020F9F79CF9307880F0C8
:10A650000100FFF747FF3378244A21460020F9F72D
:10A6600091F9234B186800F0D7FD0F20C7E7072C9E
:10A6700011D101211F4A0020F9F784F91E4B1978E6
:10A6800081F00101197021B100210846FFF7D9F8C6
:10A69000E7E70120FAE7194D2B78A3423FF470AFAA
:10A6A000174A01210020F9F76DF92C7068E7022D97
:10A6B0009AD124790F2C97D1D3E702063FF560AFEA
:10A6C000227913063FF55CAFE178A078A1E700BFDF
:10A6D000B43C0820EA280B00BC3C0820DC360B0008
:10A6E0002C390B00D13C082044390B00DA240B0034
:10A6F000B83C082064390B00C93C0820CB3C08203A
:10A7000074390B00024B0721186800F024BD00BF0C
:10A71000B83C0820024B0221186800F01CBD00BFA5
:10A72000B83C082010B50446144A002100F01CFD76
:10A730002046134A012100F017FD2046114A02214C
:10A7400000F012FD2046104A032100F00DFD2046C6
:10A750000E4A042100F008FD20460D4A052100F0B4
:10A7600003FD20460B4A062100F0FEFC2046BDE812
:10A770001040094A072100F0F7BC00BF95A00A006D
:10A780003DA00A00E19F0A008D9F0A00F9A20A007D
:10A79000399F0A00E59E0A00A99C0A0010B50446EC
:10A7A0001B4A002100F0E0FC1A4A0121204600F07B
:10A7B000DBFC194A0221204600F0D6FC174A03218F
:10A7C000204600F0D1FC164A0421204600F0CCFCC3
:10A7D000144A0521204600F0C7FC134B1B7823B117
:10A7E000124B0521186800F0A5FC114B1B7823B112
:10A7F0000E4B0421186800F09DFC0E4B1B7833B102
:10A80000BDE81040094B0321186800F093BC10BD4F
:10A81000CDA00A00F59D0A003DA10A009D9D0A00F9
:10A82000459D0A00099D0A00CA3C0820BC3C08203E
:10A83000D03C0820C83C082010B504460E4A002130
:10A8400000F092FC0D4A0121204600F08DFC0C4ADC
:10A850000221204600F088FC0A4A0321204600F02D
:10A8600083FC094B1B7833B1BDE81040074B032133
:10A87000186800F05FBC10BD05A10A00A99E0A007F
:10A880006D9E0A00319E0A00D43C0820B43C08208A
:10A8900010B522492A20F8F711FF214C21492A201E
:10A8A000F8F70CFF20490A20F8F708FF214600209E
:10A8B000F8F704FF21460120F8F700FF21461B4C62
:10A8C0000720F8F7FBFE21460F20F8F7F7FE214698
:10A8D0000720F8F7F3FE16490720F8F7EFFE00F01F
:10A8E00019FC144B1860FFF7A7FF00F013FC124B84
:10A8F0001860FFF753FF00F00DFC104B1860FFF7D6
:10A9000011FF00F007FC0E4B186000F01BFB00F07D
:10A91000FFFBBDE8104000F0A3BC00BF6DA50A001E
:10A92000319C0A0069A30A0095A10A006D9C0A00E7
:10A9300019A20A00B43C0820BC3C0820B83C0820FE
:10A94000C03C08207FB50D460446FEF75AFE064679
:10A95000FEF7B6F8084B00220393084B014653F864
:10A960002630204602930323CDE900320A232A46EB
:10A9700000F037FF04B070BDF4460B00F8460B0042
:10A98000F0B585B00E460546FEF73BFE0746FEF7DE
:10A9900038FE04460020FDF71FFD012801D00328E2
:10A9A00015D10C4B53F82440FEF78AF80A4B0022CD
:10A9B00053F827300146029303230394CDE9003274
:10A9C00028460923324600F00CFF05B0F0BD034BCA
:10A9D000E8E700BF28490B00044D0B006C4C0B004E
:10A9E000F0B585B00E460546FEF70BFE0746FEF7AE
:10A9F00008FE04460020FDF7EFFC0138012894BF53
:10AA00000B4B0C4B53F82440FEF75AF80A4B00222C
:10AA100053F827300146029303230394CDE9003213
:10AA200028460823324600F0DCFE05B0F0BD00BF2A
:10AA300000560B00AC470B0048440B00F0B585B046
:10AA40000E460546FEF7DDFD0746FEF7DAFD044635
:10AA500001F074FC0B2833D8DFE800F0061C1E2040
:10AA600022242E3026282A2C164B53F82440FEF799
:10AA700027F8154B002253F8273001460293032391
:10AA80000394CDE9003228460623324600F0A9FEA1
:10AA900005B0F0BD0D4BE8E70D4BE6E70D4BE4E7E5
:10AAA0000D4BE2E70D4BE0E70D4BDEE70D4BDCE72E
:10AAB0000D4BDAE70D4BD8E70D4BD6E70D4BD4E73E
:10AAC0000D4CD4E7D44B0B00DC480B0010460B00B8
:10AAD00044470B0078450B00FC430B002C450B0052
:10AAE0003C4B0B00C4450B0098560B00A8460B00CE
:10AAF0004C560B005C460B00F4460B00F0B585B0DD
:10AB00000E460546FEF77DFD0746FEF77AFD044634
:10AB10000520FDF761FCB0B1012816D10F4B53F8A9
:10AB20002440FDF7CDFF0E4B002253F8273001469D
:10AB3000029303230394CDE900322846324600F005
:10AB400050FE05B0F0BD074BE9E7064B002105209C
:10AB500053F82440FDF746FCE3E700BFE0440B0058
:10AB6000204C0B00C0490B002DE9FF4106460F4663
:10AB7000FEF747FD134B80461C781CB100210320D3
:10AB8000FDF730FCFEF73DFD05460320FDF724FCF4
:10AB900001280CBF0C4B0D4B53F82550FDF790FFCF
:10ABA0000B4B014653F828300395CDE901430323AD
:10ABB0003A4600933046012300F013FE04B0BDE88E
:10ABC000F08100BFDF3C082044480B0090480B0098
:10ABD000F8470B002DE9F04385B089468046FEF723
:10ABE00010FD06460820FDF7F7FB114B53F82670C1
:10ABF000104B1D78BDB9012817D104460E4B53F8F0
:10AC00002670FDF75DFF0D4B014653F82630CDE968
:10AC10000274CDE900534A460723404600F03BFE4C
:10AC200005B0BDE8F0830024EBE72C46E9E700BF60
:10AC3000584A0B00E03C0820F04A0B00884B0B0000
:10AC40002DE9F04186B00F460646FEF7DAFC0546D0
:10AC50000720FDF7C1FB80460520FDF7BDFB04463C
:10AC6000FDF72EFF00233C2214F1FF3418BF01240E
:10AC7000CDE90432094B014653F82530CDF80C805C
:10AC80000293074B009453F825303A46019330461F
:10AC9000052300F0B4FE06B0BDE8F081B84C0B000F
:10ACA0000C4A0B002DE9F04186B00F460646FEF730
:10ACB000A8FC05460620FDF78FFB80460520FDF722
:10ACC0008BFB0446FDF7FCFE00233C2214F1FF340D
:10ACD00018BF0124CDE90432094B014653F8253051
:10ACE000CDF80C800293074B009453F825303A4678
:10ACF00001933046042300F082FE06B0BDE8F081E7
:10AD0000B84C0B00A44A0B00F0B587B00E460546C0
:10AD1000FEF777FC04460420FDF75EFB0746FDF7CF
:10AD2000CFFE00231E22CDE90432094A014652F823
:10AD3000242003970292074A284652F82420CDE99E
:10AD400000320223324600F05AFE07B0F0BD00BFC9
:10AD500074490B0094440B0073B50446FEF751FC94
:10AD60000646FDF7B7FE084B0546186800F03CFAAA
:10AD7000064B024653F826302946009320461023FE
:10AD800000F0EEFC02B070BDD83C082080820720A5
:10AD900010B5084C0621206800F0CCF90821206885
:10ADA00000F0C8F90921206800F0C4F90122024B23
:10ADB0001A7010BDD83C0820DC3C082008B5044BB4
:10ADC0000721186800F0B6F90122024B1A7008BD7D
:10ADD000D83C0820E03C082008B5044B0121186845
:10ADE00000F0A8F90122024B1A7008BDD83C0820D7
:10ADF000DF3C08207FB548B9414B186800F00CFAD9
:10AE0000102000F035F907B05DF804FB1028FAD1E6
:10AE1000531E092B70D8DFE803F0056F116F6F1B0D
:10AE20002B3446640320FDF7D7FA411CC9B202292E
:10AE300008BF00210320FDF7D5FADDE70520FDF767
:10AE4000CBFA411CC9B2022908BF00210520F2E754
:10AE500001F074FA0130C0B20C2828BF002003238F
:10AE60008DF8080068468DF8003001F0ADFAC3E7B0
:10AE70000820FDF7B1FA10F1FF3118BF01210820B9
:10AE8000D9E70020FDF7A8FA0138032803D8DFE846
:10AE900000F008221B261B4B1B4A01210020F8F75B
:10AEA00071FD032111E00020FDF796FA0138032817
:10AEB00013D801A353F820F0DFAE0A00C9AE0A0090
:10AEC000D7AE0A00A3AE0A0001210020FDF78AFADE
:10AED00001F088FB90E70421F7E70C4BDCE7022147
:10AEE000F3E70B4B0B4A01210020F8F74BFDFDF770
:10AEF0008FFAFCF7BDFE7FE7074B1A707CE700BFB7
:10AF0000D83C0820B4430B0090470B00CB430B0008
:10AF1000E4430B0025220B00DD3C0820084B0146D2
:10AF20001B78042B06D0052B06D0022B06D104205B
:10AF3000FDF758BA0620FBE70720F9E7704700BF86
:10AF4000DD3C082010B5394C394A0021206000F062
:10AF50000BF9384A0121206800F006F9364A02212F
:10AF6000206800F001F9354A0321206800F0FCF860
:10AF7000334A0421206800F0F7F8324A052120689E
:10AF800000F0F2F8304A0621206800F0EDF82F4A70
:10AF90000721206800F0E8F82D4A0821206800F019
:10AFA000E3F82C4A0921206800F0DEF82A4A0A2139
:10AFB000206800F0D9F8294B1B781BB107212068C5
:10AFC00000F0B8F8264B1B781BB10121206800F077
:10AFD000B1F8244B1B785BB10321206800F0AAF87C
:10AFE0000421206800F0A6F80521206800F0A2F8EE
:10AFF0001D4B1B783BB10121206800F09BF802211A
:10B00000206800F097F8194B1B786BB12068062177
:10B0100000F090F82068082100F08CF820680921E1
:10B02000BDE8104000F086B810BD00BFD83C082035
:10B0300059AD0A0069AB0A0009AD0A00FDAA0A0071
:10B04000A5AC0A0041AC0A003DAA0A00D5AB0A0033
:10B05000E1A90A0081A90A0045A90A00E03C0820EC
:10B06000DF3C0820E13C0820DE3C0820DC3C0820D6
:10B0700010B40B4A0B49B2F90030CC1814F8014C4B
:10B08000844200D123B9092BC85403DC0133138057
:10B0900010BC70470021044A084610BCF8F772BC87
:10B0A000E23C0820D0820720E4560B00FF21064B2B
:10B0B000B3F90020002AC4BF02F1FF321A80B3F9AD
:10B0C0000030024AD1547047E23C0820D082072069
:10B0D000054BB3F90020002AC3BF044B9B1813F89B
:10B0E000010CFF20704700BFE23C0820D0820720FF
:10B0F0000023FF21044A995401330A2BFBD100227B
:10B10000024B1A80704700BFD0820720E23C082023
:10B11000FFF7EEBF8C21012002F028B908B100230F
:10B120008360704728B1012303FA01F103680B43E0
:10B130000360704730B1012303FA01F1036823EA89
:10B1400001030360704728B1012303FA01F143684A
:10B150000B434360704730B1012303FA01F14368A8
:10B1600023EA01034360704738B50C4690B12029AB
:10B1700006D9BDE838400021074A0846F8F702BC66
:10B1800000EB8103DA60FFF7DEFF2146BDE83840BF
:10B19000FFF7C8BF38BD00BF09570B0070B50446A4
:10B1A000806820B923460F4A0121F8F7EBFBD4E968
:10B1B0000153012606FA03F10D4203F1010205D104
:10B1C00013461F2AF6D9A260002009E02068014238
:10B1D000F6D004EB8303D86813460028F1D0A260B0
:10B1E00070BD00BFCD350B00012370B500221D4698
:10B1F000446805FA03F10C4208D00668314205D0D4
:10B2000000EB8301C96809B10132D2B20133202BAE
:10B21000EFD1104670BD0000094B13B51860FEF762
:10B2200053F8084B1C68F5F7C7FC0523024600934A
:10B23000012100232046F6F785FA02B010BD00BFB9
:10B24000E83C0820EC3C082008B5FEF73DF8034B2D
:10B250001868BDE80840FFF7DFBF00BFE43C0820E6
:10B2600007B5074B4FF4FA710093002305481A46BF
:10B27000F6F742FA044B186003B05DF804FB00BF18
:10B28000ADB20A001E570B00EC3C0820292300B584
:10B290008BB0019068468DF80030F8F731FA6846B7
:10B2A000F8F72EFA0BB05DF804FB000010B5054C62
:10B2B000206830B1FFF7EAFF2268034B1A600023D1
:10B2C000236010BDE83C0820E43C082003781A2BDA
:10B2D00002BF4268014B1A60704700BFF43C08206F
:10B2E0000378072B04D1034A13780BB1013B137089
:10B2F000704700BFDA82072038B503780546102B67
:10B300001AD18378012B11D10C4A13700C4C697837
:10B310002278914207D00B4A01210020F8F732FB36
:10B320000948FEF78FF86B78237005E0002BEDD10C
:10B33000024B1B78002BE9D038BD00BFF03C082041
:10B34000DB82072025570B00C1B40A0038B503780B
:10B350000546162B0ED1084C41782278914207D031
:10B36000064A01210020F8F70DFB0548FEF76AF8B0
:10B370006B78237038BD00BFDE82072063570B0057
:10B38000C1B40A0038B503780546152B0ED1084C18
:10B3900041782278914207D0064A01210020F8F72F
:10B3A000F1FA0548FEF74EF86B78237038BD00BF00
:10B3B000DD82072050570B00C1B40A0038B503786E
:10B3C0000546122B14D10B4C41782278914207D0BC
:10B3D000094A01210020F8F7D5FA0848FEF732F8AB
:10B3E0006B782370FCF750FC10B10A22044B1A70E2
:10B3F00038BD00BFDC8207203B570B00C1B40A00F8
:10B40000DA82072038B5294B1C78002C46D000235F
:10B41000FF2480F8093100F20712431E03F8014FA0
:10B420009A42FBD1C7220270C82200234270102228
:10B4300080F80A3180F80B3103711D4BC2701D4A30
:10B440001B781278002B817014BF0023612312B384
:10B4500043F00203184A12780AB943F008030025A2
:10B4600045722025154A153112688371C2F30724ED
:10B470000B44D2B22344134420338572DB430C21A6
:10B480000525C47102724571C37280F80811FEF778
:10B490001FF9012038BD43F00603DBE7F8F758FA3F
:10B4A0000120FBF7E3FE2046F4E700BFDA82072025
:10B4B000DC820720DE820720DB820720F43C0820A4
:10B4C000FFF7A0BF08B50D491220F8F7F7F80C49AF
:10B4D0001020F8F7F3F80B491620F8F7EFF80A49AF
:10B4E0001520F8F7EBF809491A20F8F7E7F8BDE856
:10B4F000084007490720F8F7E1B800BFBDB30A00CC
:10B50000F9B20A004DB30A0085B30A00CDB20A00B1
:10B51000E1B20A00044B1A78824203D01870034843
:10B52000FDF790BF704700BFF83C08208DB50A00BA
:10B53000002310B5FF2480F80931421E00F20713E2
:10B5400002F8014F9342FBD1C7230370C823437015
:10B550001823C3700323002243710B4B80F80A2188
:10B560001B7880F80B21C3710B441D33817002716D
:10B570008271DB4302220A210272437280F80811B1
:10B58000FEF7A6F8012010BDF83C0820FFF7D0BF59
:10B5900038B50023FF2480F8093100F20715431E57
:10B5A00003F8014F9D42FBD1C7250570C8254570A2
:10B5B00019250023C5700E2581700371457115781A
:10B5C00027318571557880F80A31C571957880F8F2
:10B5D0000B310572D5788372457255790373C57244
:10B5E000127AC9B242738374C3748473C4730474CB
:10B5F0004474831D00F11402934208D1C9430175BC
:10B60000152180F80811FEF763F8012038BD13F802
:10B61000014B2144C9B2EFE738B50023FF2580F87C
:10B62000093100F20714431E03F8015F9C42FBD16D
:10B63000C7240470C824002344701A248170C47085
:10B64000037180F80A3180F80B315378223183710D
:10B650009378C9B2C371D378037213794372537963
:10B6600083729379C372D3790373137A00F10E0254
:10B67000437308234371831D934208D1C9438173E7
:10B680000F2180F80811FEF723F8012038BD13F8C8
:10B69000014B2144C9B2EFE770B5417990F80841F8
:10B6A0008D1DA54217D18378C2780B4413440279CB
:10B6B000053113440622DBB2914206DADB43013442
:10B6C000435580F80841012070BD865C0132334447
:10B6D000DBB292B2F0E70020F6E70023FF2180F80A
:10B6E000083180F8093100F20712431E03F8011FE8
:10B6F0009342FBD1002380F80A3180F80B31704768
:10B7000030B51446A31ADBB2994200D830BD90F888
:10B71000083114F8015BC554013380F80831F1E7B2
:10B7200010B590F80A31044690F808110BB10329BE
:10B7300003D8637907338B4204D12046FDF7C8FF55
:10B74000012010BD0021054A0846F8F71BF92046E4
:10B7500094F80811FDF7BCFF0020F2E788330B00D6
:10B760002DE9F041069E044690460D461F46FFF720
:10B77000B4FFC723C82290F808012354431CDBB24E
:10B78000E254831C3022DBB2E5540025C31CDBB23B
:10B79000E254411D031DDBB2C9B204F80380C21D8F
:10B7A0006554811DC9B2D2B2083004F80180A75493
:10B7B00084F80801304602F0ADFA3246C1B22046A4
:10B7C000FFF79EFF94F80831E5545A1C053B84F8B6
:10B7D00008216371FFF760FF2046BDE8F041FFF7E5
:10B7E0009FBF2DE9F84F0446DDE90C768B461546E0
:10B7F00099469DF828A09DF82C80FFF76EFFC7237F
:10B80000CA2290F808012354431CDBB2E2543022D0
:10B81000831CDBB204F803B0C31CDBB2E254031D8B
:10B82000DBB2E5540025431D821DDBB2D2B2E554E4
:10B8300004F802A000F10803C21DDBB2D2B2093045
:10B8400004F8029004F8038084F80801384602F0F6
:10B8500061FA3A46C1B22046FFF752FF94F8083128
:10B860003046E554013384F8083102F053FA324689
:10B87000C1B22046FFF744FF94F80831E5545A1C42
:10B88000053B84F808216371FFF706FF2046BDE8F9
:10B89000F84FFFF745BF2DE9F84F0446DDE90B8768
:10B8A0008B4615469A469DF828909DF83460FFF720
:10B8B00014FFC723CA2290F808012354431CDBB2AB
:10B8C000E2543022831CDBB204F803B0C31CDBB2A9
:10B8D000E254031DDBB2E5540025431DDBB2E55401
:10B8E0000423821DD2B2A354C21D00F10803DBB2AF
:10B8F000D2B2093004F802A004F8039084F80801D9
:10B90000404602F007FA4246C1B22046FFF7F8FE71
:10B9100094F808313846E554013384F8083102F0D0
:10B92000F9F93A46C1B22046FFF7EAFE94F8083129
:10B930005A1CD2B2E554A5549A1CD2B2A654DA1CB1
:10B94000033B84F808216371FFF7A6FE2046BDE89B
:10B95000F84FFFF7E5BE2DE9F047099F04468A46F8
:10B96000154699469DF820809DF82860FFF7B5FEA2
:10B97000C723CA2290F808012354431CDBB2E254C7
:10B980003022831CDBB204F803A0C31CDBB2E254F8
:10B99000031DDBB2E5540025431DDBB2E55405234E
:10B9A000821DD2B2A354C21D00F10803DBB2D2B291
:10B9B000093004F8029004F8038084F8080138463E
:10B9C00002F0A8F93A46C1B22046FFF799FE94F872
:10B9D00008315A1CD2B2E554A5549A1CD2B2A554CF
:10B9E000DA1CD2B2A6541A1D023B84F808216371F6
:10B9F000FFF752FE2046BDE8F047FFF791BE2DE964
:10BA0000F74F0446DDE90D760D46CDE900329DF88D
:10BA100030B09DF83C809DF840A09DF84490FFF721
:10BA20005CFE90F80811C7204FF0CA0C6054481C07
:10BA3000C0B204F800C0881CC0B225543025C81C10
:10BA4000C0B22554019A0025081DC0B22254062018
:10BA50004A1DD2B2A5548A1DD2B2A054009BCA1D61
:10BA6000D2B2A35401F10803DBB2093104F803B0E8
:10BA7000384684F8081102F04DF93A46C1B2204622
:10BA8000FFF73EFE94F808313046E554013384F860
:10BA9000083102F03FF93246C1B22046FFF730FECE
:10BAA00094F808315A1C991CD2B2C9B2E554A55475
:10BAB00004F801A0D91CC9B26554191DC9B204F813
:10BAC0000190591DC9B26554991DC9B2073304F8D4
:10BAD000018084F808316271FFF7DEFD204603B073
:10BAE000BDE8F04FFFF71CBE37B5847A857904F5C1
:10BAF000FA64437A027AC17900942846FEF782F804
:10BB000003B030BD014B1878704700BFF93C0820E6
:10BB100010B5837904466BB90121074B074A1970A8
:10BB20000220074BF7F72EFF217AE079BDE810409D
:10BB3000FDF787BE10BD00BFF93C08208A570B00F7
:10BB400077570B0010B504468379074A012100207E
:10BB5000F7F718FFA379BDE810401A2B96BF034AE8
:10BB60000120D05CFDF77CBEBD570B00A2570B0037
:10BB700030B5457B85B0C479437A027A81790395E3
:10BB8000057B0295C57A0195807A00902046FDF7E5
:10BB900081FC05B030BD000010B50446064A012105
:10BBA0000020F7F7EFFEA379022B04D1E079BDE87E
:10BBB0001040FDF7A6BC10BDD0570B00232300B5E5
:10BBC0008BB08DF80030837907308DF80130002379
:10BBD00010F8012B0DEB03011D2B8A7011D10021F0
:10BBE0000A4A0846F7F7CEFE2E238DF81F308DF84F
:10BBF0001E308DF81D306846F7F782FD0BB05DF8FA
:10BC000004FB0133002AE3D1F5E700BFD6570B0050
:10BC10008379027AC17903F00F00FDF75DBC000063
:10BC2000242300B58BB08DF80030837908308DF86F
:10BC3000013010F8013C8DF80230002310F8012B80
:10BC40000DEB03011D2BCA7014D100210B4A0846CD
:10BC5000F7F798FE00238DF820302E238DF81F3043
:10BC60008DF81E308DF81D306846F7F749FD0BB092
:10BC70005DF804FB0133002AE0D1F5E7D6570B004D
:10BC80007047000070B5154A044601210020F7F7FF
:10BC900079FE0023124E94F808215D1CDBB29A4213
:10BCA00014D8104A01210020F7F76CFEA37933B9AC
:10BCB000E37923B9237A012B01D8FFF7F7F9227A28
:10BCC000E179A079BDE87040FDF754BCE35C3246F1
:10BCD00001210020F7F756FE2B46DCE7F6570B0054
:10BCE000BD360B0098260B0070B5104A04460121A2
:10BCF0000020F7F747FE00230D4E94F808215D1C45
:10BD0000DBB29A420AD801210A4A0020F7F73AFE2C
:10BD1000E179A079BDE87040FDF74ABCE35C3246AA
:10BD200001210020F7F72EFE2B46E6E7F6570B0021
:10BD3000BD360B0098260B00014B1860704700BF02
:10BD4000FC3C082030B4074C9DF8085024681CB116
:10BD50000295A44630BC60472146204630BC024ACA
:10BD6000F7F710BEFC3C082001580B0010B50A2460
:10BD70008AB08DF80430BDF830308DF80200684686
:10BD80008DF800408DF801108DF80320ADF80630D5
:10BD9000F7F7B6FC0AB010BD00230246FF2180F879
:10BDA0004630831C42F8403F03F8011B9342FBD10D
:10BDB000002340F29F2280F84930028080F847300B
:10BDC00080F84C3080F8483080F84A3080F84B30AA
:10BDD000A0F8441070470000F8B500230B4C0C4E3F
:10BDE0000C4F22785D1CDBB29A4206D8BDE8F840C1
:10BDF000094A01210020F7F7C5BDF35C3A4601214D
:10BE00000020F7F7BFFD2B46EBE700BF883E082078
:10BE1000C03D0820E5300B0098260B0008B5F4F76C
:10BE20009BFC0023054A1370054A13700122054B41
:10BE30001A70BDE80840F4F79FBC00BF6C3D0820B5
:10BE4000143D0820DF82072010B5104C2378022B08
:10BE500010D80F4A01210020F7F794FD23780D48F0
:10BE6000013323700023BDE810401A4619460068CC
:10BE7000F5F7A0BF084A01210020F7F783FDFFF77F
:10BE8000ABFFBDE81040FFF7C9BF00BF6C3D082005
:10BE9000EB300B00003D0820F5300B000023F7B518
:10BEA0001A46234C23492078DDB285423DD39F2397
:10BEB0000B7002232270002003224B701E4B93F85C
:10BEC00044501F6C8D70C6B217F806C00130BCF12B
:10BED0009F0F12BF134601F802C0531CBA5D08BF82
:10BEE000DBB2C6B2CA54B54203F10102D2B2EAD201
:10BEF0009F2088540322DD1C0233DBB2CA540F4B4F
:10BF0000EDB21E68F4F758FE0023024600930121AB
:10BF10003046F5F717FC2A46094B06491868257084
:10BF2000C36803B0BDE8F0401847CA540133BBE70B
:10BF3000883E0820C03D0820703D0820103D0820A4
:10BF4000083D082030B50D4B93F844001A6C93F867
:10BF5000451002445170002193F844204C1CC9B292
:10BF60008A4202F1010202D283F8442030BD186CEB
:10BF7000415C855C694081542146EDE7703D0820B5
:10BF8000094A92F84430A3F13D01C9B2C1290AD946
:10BF90000133116CDBB282F84430C85492F845305A
:10BFA000013382F845307047703D082010B50446D3
:10BFB000C0B2FFF7E5FFC4F30720FFF7E1FFC4F3CA
:10BFC0000740FFF7DDFF200EBDE81040FFF7D8BFA8
:10BFD000036C587800F01ABA036C5878003018BF18
:10BFE000012000F00DBA00002DE9F043B64E8BB0F1
:10BFF00030684E2243694FF4E1319847B34CB44F57
:10C0000000213868F6F7FCF80246E0B1FFF746FF7A
:10C0100030680A2301220DF10F018069F9F7E0FE73
:10C02000002847D1AB4B1D786A1C1A70002DE6D151
:10C03000F5F720F86328E2D8A74BA84A0121284643
:10C04000F7F7A0FCDBE7A64D2B78002BE0D0A54B43
:10C0500004A91868F6F732F80028D9D0A248FFF7EB
:10C060009BFE9DF81000FFF78BFF9DF81030042B0E
:10C070001CD009D8ABB1032B13D0FFF763FFFFF738
:10C080000DFF00232B70C3E7172B0FD0182B08D000
:10C09000052BF2D19DF81800FFF772FF9DF81900EB
:10C0A00001E09DF81800FFF76BFFE6E70598FFF742
:10C0B0007DFFEFE794F846209DF80F30002A53D01B
:10C0C0000022022B84F8462030D12046FFF764FE80
:10C0D000012384F8493094F84830002B98D094F824
:10C0E0004730002B67D00A23009300237F481A466D
:10C0F00003210068F5F726FB94F84B30002B57D04E
:10C100007B4D2B78032B4CD87A4A01210020F7F77E
:10C1100039FC002338681A461946F5F74BFE2B7890
:10C1200001332B702046FFF737FE71E7032B07D151
:10C1300094F84930002BCED0012384F84830CAE768
:10C14000062B05D1012384F84A3084F84730C2E732
:10C15000152B03D1012384F84B30F6E79F2B09D030
:10C160002046FFF719FEB6E79F2B03D1012384F881
:10C170004630B0E794F84420A2F13E01C9B2C0298C
:10C18000A9D994F8491029B194F8451011B984F847
:10C190004530A0E7216C0132D2B284F844208B54A0
:10C1A00099E7554A01210020F7F7ECFBFFF714FE51
:10C1B000FFF734FEB6E794F8450094F844100546BE
:10C1C000D4F840E01FFA81FC9AB2944506D31EF8D9
:10C1D000032001335540412BEDB2F5D1D6F800C014
:10C1E0008842DCF80C8040F09C80002D40F0998063
:10C1F000424A04AB10685168082203C304A9604690
:10C20000C04794F8483043B1226C1378042B2CD0EB
:10C2100027D8012B43D0032B4ED0394A01210020CF
:10C22000F7F7B0FB94F84530364AFF2B18BF1D4690
:10C2300094F848300121009300202B46F7F7A2FB29
:10C240004FF00008DFF8C89003355FFA88F3AB427F
:10C2500008F101085EDD2C4A01210020F7F792FB6E
:10C2600060E7162B2CD0172BD7D10023D2F8015022
:10C27000DFF89C9094F8442003F10108DBB29A4265
:10C2800011D8214A01210020F7F77CFB002D3FF453
:10C2900049AF236CDA1D99795879A84742E72046BF
:10C2A000FFF796FE3EE7226C0121D35C00204A4650
:10C2B000F7F768FB4346DDE75278144B1A7031E715
:10C2C0002046FFF789FE2DE7083D0820183D08208D
:10C2D000003D08200C3D082039580B0043250B0079
:10C2E000DF820720683D0820703D0820103D0820AF
:10C2F000143D08207F300B0086300B0027580B00C0
:10C30000C3300B0053580B0098260B000D3D08203E
:10C31000E5300B00E35C4A4601210020F7F732FBD1
:10C3200093E7054A04AB10685168082203C304A9C7
:10C330006046C047F6E600BF30580B00014B187846
:10C34000704700BF0D3D082073B5154E34782CBBE7
:10C350000125144B144A15491A60154823464FF419
:10C36000C87201940095F4F7FBFA224618212820A0
:10C37000F5F7FAFC0F4B224618600F4BA0210093F3
:10C380000E482346F5F7B8F90D4B032218602146F5
:10C390002846F5F7E9FC0B4B3570186002B070BD0C
:10C3A000043D0820083D08201082072049580B0052
:10C3B000E9BF0A00683D082049BE0A00DF300B00D3
:10C3C000103D0820003D08200146034800230222BA
:10C3D0000068F5F7EFBC00BF683D0820054B1B78EF
:10C3E0002BB9054B1B7813B9044B187800B1012009
:10C3F000FBF792BC893E08208A3E08208B3E08202D
:10C40000014B1870FFF7EABF893E082000F0440393
:10C41000442B70B5064619D10122634B1A70FFF701
:10C42000DDFF06F07704032C604D1FD12B78042B21
:10C4300011D85F4A01210020F7F7A4FA2B780133C5
:10C440002B700021012000F0CFF83EE0002BE8D156
:10C45000554A1370E3E7574A01210020F7F792FA93
:10C460000122554B1A70FFF7B9FFEAE7534B1A78D0
:10C4700012B100222A701A70297800295FD004298D
:10C480005BD808BF03234FF001014FF0030008BF42
:10C490002B7000F0A9F84A4A01210020F7F772FA40
:10C4A0002B78013B2B700022434B1A70FFF796FF4D
:10C4B000402C01D0042CC4D10121084600F094F88E
:10C4C000404A01210020F7F75DFA302C3BD10121D1
:10C4D0003D4A0020F7F756FA0121022000F084F8C7
:10C4E0000021072000F080F8102C3BD10121374AB1
:10C4F0000020F7F747FA0121062000F075F8002127
:10C50000042000F071F8012C3BD12146304A002074
:10C51000F7F738FA2146052006F0880600F064F89F
:10C52000802E30D101212B4A0020F7F72BFA012170
:10C53000082000F059F8002131E00023B2E7032081
:10C5400000F052F8AFE70021022000F04DF8202C57
:10C55000C6D10121204A0020F7F714FA0121072053
:10C5600000F042F80021062000F03EF8022CC6D16F
:10C5700001211A4A0020F7F705FA0121042000F0F2
:10C5800033F80021C7E70021082000F02DF8082E1D
:10C59000D1D10121124A0020F7F7F4F90121BDE8B9
:10C5A0007040092000F020B88B3E0820E18207206F
:10C5B00063580B006A580B008A3E0820E08207206F
:10C5C00073580B007A580B0081580B008F580B00E2
:10C5D0009C580B00A2580B0087580B0095580B0075
:10C5E000AB580B007047704708B5034609282FD891
:10C5F000DFE800F0050B0F13171A1E2124284FF453
:10C6000000222D4B11B31A6308BD2C4B4FF08072E2
:10C61000F8E7294B4FF48022F4E7274B4FF4807260
:10C62000F0E7254B8022EDE7234B4FF40052E9E77A
:10C63000224B4022E6E7214B1022E3E71E4B4FF44A
:10C640008062DFE71C4B4FF40062DBE75A63DBE7F5
:10C650001B4A01210020F7F795F94022174B5A6336
:10C6600010225A634FF400025A634FF480025A6357
:10C670004FF080725A634FF40022C3F834228022B4
:10C68000C3F834224FF40052C3F834224FF480220E
:10C69000C3F834224FF48072C3F834224FF480621E
:10C6A000C3F834224FF08062C3F834224FF40062A2
:10C6B000C3F83422A8E700BF00100E40000E0E4061
:10C6C000B6580B00054B1870054B10B95880187000
:10C6D0007047022240001A70588070478C3E082034
:10C6E0008E3E0820F0B5114D8DB001AC06460F46C8
:10C6F0000FCD0FC40FCD0FC495E80700002384E8C9
:10C70000070001AA52F82300B7FBF0F0B0FBF6F0E7
:10C71000B0F5807F06D901330B2BF3D14FF6FF70B4
:10C720000DB0F0BD40EA0320FAE700BFCC580B0083
:10C7300070B50C6806460D4644B120468968FFF77F
:10C74000D1FF4FF6FF73984204460CD0686840B1A1
:10C75000A968FFF7C7FF4FF6FF73984205D044EA78
:10C76000004434600024204670BD0446FBE74A685C
:10C7700030B58C8A02F00F0222430C898D7D224352
:10C780008C7A0B6842EA4422CC7D42EA054242EAB6
:10C7900044420C7E42EA844200EB4314C4F8002277
:10C7A000CA68C4F804220A69C4F80C221DB1D1F881
:10C7B0001A20C4F81822CA7F02FA03F48A7F9A402A
:10C7C00042EA0442826491F8212002FA03F491F8CB
:10C7D00020209A4042EA04424264012291F8224019
:10C7E0009A4024B3046A1443046291F82440012C53
:10C7F000846E0CBF14439443846691F82540120460
:10C80000012C846E0CBF224324EA0202032B8266B1
:10C8100091F823204FF0FF010DD8DB00C46E994042
:10C8200024EA01019A400A43C266002030BD046A2E
:10C8300024EA0204D8E7043BDB00046F994024EAB1
:10C84000010102FA03F30B430367EEE7CB6893425F
:10C850009FBF0B680A6100EB4310C0F8102294BF21
:10C8600000204FF6FF7070470B69934221BF0B68A1
:10C87000CA6000EB4310C0F808222CBF00204FF61E
:10C88000FF707047012303FA01F1416070470123F3
:10C8900003FA01F181607047C069704701231032CB
:10C8A00003FA02F203FA01F10A430261704701231D
:10C8B000103203FA02F203FA01F10A4342617047AF
:10C8C00081F0004102E000BF83F0004330B54FEA41
:10C8D00041044FEA430594EA050F08BF90EA020FAE
:10C8E0001FBF54EA000C55EA020C7FEA645C7FEA41
:10C8F000655C00F0E2804FEA5454D4EB5555B8BF64
:10C900006D420CDD2C4480EA020281EA030382EAD4
:10C91000000083EA010180EA020281EA0303362D66
:10C9200088BF30BD11F0004F4FEA01314FF4801C39
:10C930004CEA113102D0404261EB410113F0004F4B
:10C940004FEA03334CEA133302D0524263EB430302
:10C9500094EA050F00F0A780A4F10104D5F1200EA0
:10C960000DDB02FA0EFC22FA05F2801841F10001FB
:10C9700003FA0EF2801843FA05F359410EE0A5F1CF
:10C9800020050EF1200E012A03FA0EFC28BF4CF000
:10C99000020C43FA05F3C01851EBE37101F00045B6
:10C9A00007D54FF0000EDCF1000C7EEB00006EEBC3
:10C9B0000101B1F5801F1BD3B1F5001F0CD349084D
:10C9C0005FEA30004FEA3C0C04F101044FEA4452A4
:10C9D00012F5800F80F09A80BCF1004F08BF5FEA2B
:10C9E000500C50F1000041EB045141EA050130BD0B
:10C9F0005FEA4C0C404141EB010111F4801FA4F1AE
:10CA00000104E9D191F0000F04BF01460020B1FA02
:10CA100081F308BF2033A3F10B03B3F120020CDA3A
:10CA20000C3208DD02F1140CC2F10C0201FA0CF018
:10CA300021FA02F10CE002F11402D8BFC2F1200C7D
:10CA400001FA02F120FA0CFCDCBF41EA0C01904033
:10CA5000E41AA2BF01EB0451294330BD6FEA04047C
:10CA60001F3C1CDA0C340EDC04F11404C4F1200267
:10CA700020FA04F001FA02F340EA030021FA04F379
:10CA800045EA030130BDC4F10C04C4F1200220FAD0
:10CA900002F001FA04F340EA0300294630BD21FA0E
:10CAA00004F0294630BD94F0000F83F4801306BFD4
:10CAB00081F480110134013D4EE77FEA645C18BFC8
:10CAC0007FEA655C29D094EA050F08BF90EA020F5F
:10CAD00005D054EA000C04BF1946104630BD91EA57
:10CAE000030F1EBF0021002030BD5FEA545C05D15A
:10CAF0004000494128BF41F0004130BD14F5800499
:10CB00003CBF01F5801130BD01F0004545F0FE410C
:10CB100041F470014FF0000030BD7FEA645C1ABF41
:10CB2000194610467FEA655C1CBF0B46024650EA78
:10CB3000013406BF52EA033591EA030F41F40021A4
:10CB400030BD00BF90F0000F04BF0021704730B52A
:10CB50004FF4806404F132044FF000054FF00001FF
:10CB600050E700BF90F0000F04BF0021704730B5C0
:10CB70004FF4806404F1320410F0004548BF404295
:10CB80004FF000013EE700BF42004FEAE2014FEAEA
:10CB900031014FEA02701FBF12F07F4393F07F4FC5
:10CBA00081F06051704732F07F4208BF704793F0C8
:10CBB0007F4F04BF41F40021704730B54FF46074DB
:10CBC00001F0004521F000411CE700BF50EA0102DE
:10CBD00008BF704730B54FF000050AE050EA010287
:10CBE00008BF704730B511F0004502D5404261EBF7
:10CBF00041014FF4806404F132045FEA915C3FF438
:10CC0000D8AE4FF003025FEADC0C18BF03325FEAD4
:10CC1000DC0C18BF033202EBDC02C2F1200300FA85
:10CC200003FC20FA02F001FA03FE40EA0E0021FAAA
:10CC300002F11444BDE600BF70B54FF0FF0C4CF498
:10CC4000E06C1CEA11541DBF1CEA135594EA0C0F4A
:10CC500095EA0C0F00F0DEF82C4481EA030621EA85
:10CC60004C5123EA4C5350EA013518BF52EA0335C0
:10CC700041F4801143F4801338D0A0FB02CE4FF072
:10CC80000005E1FB02E506F00042E0FB03E54FF0A2
:10CC90000006E1FB03569CF0000F18BF4EF0010E9A
:10CCA000A4F1FF04B6F5007F64F5407404D25FEA96
:10CCB0004E0E6D4146EB060642EAC62141EA555149
:10CCC0004FEAC52040EA5E504FEACE2EB4F1FD0C8B
:10CCD00088BFBCF5E06F1ED8BEF1004F08BF5FEA09
:10CCE000500E50F1000041EB045170BD06F00046BB
:10CCF00046EA010140EA020081EA0301B4EB5C0468
:10CD0000C2BFD4EB0C0541EA045170BD41F480115F
:10CD10004FF0000E013C00F3AB8014F1360FDEBF84
:10CD2000002001F0004170BDC4F10004203C35DA60
:10CD30000C341BDC04F11404C4F1200500FA05F3E3
:10CD400020FA04F001FA05F240EA020001F0004284
:10CD500021F0004110EBD37021FA04F642EB0601FA
:10CD60005EEA430E08BF20EAD37070BDC4F10C0424
:10CD7000C4F1200500FA04F320FA05F001FA04F2E8
:10CD800040EA020001F0004110EBD37041F10001D4
:10CD90005EEA430E08BF20EAD37070BDC4F12005DF
:10CDA00000FA05F24EEA020E20FA04F301FA05F247
:10CDB00043EA020321FA04F001F0004121FA04F2EF
:10CDC00020EA020000EBD3705EEA430E08BF20EABF
:10CDD000D37070BD94F0000F0FD101F000464000F9
:10CDE00041EB010111F4801F08BF013CF7D041EA7B
:10CDF000060195F0000F18BF704703F0004652007F
:10CE000043EB030313F4801F08BF013DF7D043EA4F
:10CE10000603704794EA0C0F0CEA135518BF95EA05
:10CE20000C0F0CD050EA410618BF52EA4306D1D18C
:10CE300081EA030101F000414FF0000070BD50EAAB
:10CE4000410606BF1046194652EA430619D094EA35
:10CE50000C0F02D150EA013613D195EA0C0F05D11F
:10CE600052EA03361CBF104619460AD181EA030173
:10CE700001F0004141F0FE4141F470014FF000002B
:10CE800070BD41F0FE4141F4780170BD70B54FF0C6
:10CE9000FF0C4CF4E06C1CEA11541DBF1CEA135546
:10CEA00094EA0C0F95EA0C0F00F0A7F8A4EB050428
:10CEB00081EA030E52EA03354FEA013100F088801F
:10CEC0004FEA03334FF0805545EA131343EA1263E8
:10CED0004FEA022245EA111545EA10654FEA00269D
:10CEE0000EF000419D4208BF964244F1FD0404F556
:10CEF000407402D25B084FEA3202B61A65EB0305B2
:10CF00005B084FEA32024FF480104FF4002CB6EB6E
:10CF1000020E75EB030E22BFB61A754640EA0C00EE
:10CF20005B084FEA3202B6EB020E75EB030E22BF2E
:10CF3000B61A754640EA5C005B084FEA3202B6EB6F
:10CF4000020E75EB030E22BFB61A754640EA9C002E
:10CF50005B084FEA3202B6EB020E75EB030E22BFFE
:10CF6000B61A754640EADC0055EA060E18D04FEABC
:10CF7000051545EA16754FEA06164FEAC30343EA5C
:10CF800052734FEAC2025FEA1C1CC0D111F4801F29
:10CF90000BD141EA00014FF000004FF0004CB6E722
:10CFA00011F4801F04BF01430020B4F1FD0C88BFC1
:10CFB000BCF5E06F3FF6AFAEB5EB030C04BFB6EBCC
:10CFC000020C5FEA500C50F1000041EB045170BDBF
:10CFD0000EF0004E4EEA113114EB5C04C2BFD4EBEC
:10CFE0000C0541EA045170BD41F480114FF0000E70
:10CFF000013C90E645EA060E8DE60CEA135594EAEC
:10D000000C0F08BF95EA0C0F3FF43BAF94EA0C0FEE
:10D010000AD150EA01347FF434AF95EA0C0F7FF463
:10D0200025AF104619462CE795EA0C0F06D152EAB7
:10D0300003353FF4FDAE1046194622E750EA41069B
:10D0400018BF52EA43067FF4C5AE50EA41047FF4AC
:10D050000DAF52EA43057FF4EBAE12E753B94AB97C
:10D06000002908BF00281CBF4FF0FF314FF0FF30F0
:10D0700000F074B9ADF1080C6DE904CE00F006F8CB
:10D08000DDF804E0DDE9022304B070472DE9F04744
:10D090008C460446089E002B4BD18A42154667D920
:10D0A000B2FA82F24AB1C2F1200701FA02F320FA81
:10D0B00007F7954047EA030C94404FEA154EBCFB36
:10D0C000FEF71FFA85F80EFB17C307FB08F9210CC2
:10D0D00041EA0343994509D9EB1807F1FF3180F084
:10D0E0001C81994540F21981023F2B44A3EB0903AF
:10D0F000B3FBFEF00EFB103300FB08F1A4B244EAD0
:10D100000344A14209D92C1900F1FF3380F00781B3
:10D11000A14240F2048102382C4440EA0740002733
:10D12000641A1EB10023D440C6E900433946BDE865
:10D13000F0878B4209D9002E00F0EC800027C6E969
:10D14000000138463946BDE8F087B3FA83F7002F6F
:10D1500048D18B4202D3824200F2FB80841A61EBF9
:10D16000030301209C46002EE0D0C6E9004CDDE719
:10D1700002B9FFDEB2FA82F2002A40F08F80012766
:10D18000491B4FEA15481FFA85F9B1FBF8FE08FB69
:10D190001E1109FB0EF04FEA144C4CEA0143984271
:10D1A00007D9EB180EF1FF3102D2984200F2CD8080
:10D1B0008E461B1AB3FBF8F008FB103309FB00F98D
:10D1C000A4B244EA0344A14507D92C1900F1FF3366
:10D1D00002D2A14500F2B6801846A4EB090440EA49
:10D1E0000E409EE7C7F12005BB4022FA05FC4CEA41
:10D1F000030C21FA05F44FEA1C4EB4FBFEF91FFAAA
:10D200008CF80EFB194420FA05F3B94009FB08FA23
:10D2100019430B0C43EA0444A24502FA07F200FA50
:10D2200007F30BD91CEB040409F1FF3080F0888070
:10D23000A24540F28580A9F102096444A4EB0A04E6
:10D24000B4FBFEF00EFB104400FB08FA89B241EA81
:10D250000444A24508D91CEB040400F1FF316BD251
:10D26000A24569D90238644440EA0940A0FB02891A
:10D27000A4EB0A044C454146CE4654D351D0002E6F
:10D2800069D05A1A64EB0E0404FA05F522FA07F382
:10D29000FC401D43C6E90054002747E79540C2F112
:10D2A000200321FA03F04FEA1548B0FBF8F71FFA04
:10D2B00085F908FB170024FA03F3914007FB09FCEA
:10D2C0000B43190C41EA00418C4504FA02F407D9DA
:10D2D000691807F1FF3031D28C452FD9023F29441C
:10D2E000A1EB0C01B1FBF8F008FB101C00FB09FEE0
:10D2F00099B241EA0C418E4507D9691800F1FF3314
:10D3000018D28E4516D902382944A1EB0E0140EA05
:10D3100007473AE73746304608E70F46E6E618463D
:10D32000FBE64345ABD2B8EB020169EB0C020138D6
:10D330009646A4E71846E8E7084695E70746CFE78C
:10D3400081467BE702382C4447E7AEF1020E2B44BE
:10D350002FE7384607E73746E8E600BF704700BFCB
:10D36000002301461A46184602F08CB8024B0A46C2
:10D370000146186800F002B8E882072010B502FBE9
:10D3800001F100F06FF80446E8B150F8042C22F0E7
:10D390000302043A242A1FD8132A16D900231B2A71
:10D3A000C0E900331DD9242AC0E9023308BFC0E90F
:10D3B00004334FF0000314BF00F1100200F1180213
:10D3C000C2E900339360204610BD02460023204688
:10D3D000C2E90033936010BD002100F05DFB2046E0
:10D3E00010BD00F10802F1E738B50A4C0A4D641B84
:10D3F000A4100AD004F18043013B05EB8305013CF6
:10D4000055F804399847002CF9D1BDE8384008F0A8
:10D41000E9BB00BF0C5C0B00085C0B0070B50D4E47
:10D420000D4D761BB61006D00024013455F8043B90
:10D430009847A642F9D1094E094D08F0C9FB761B61
:10D44000B61006D00024013455F8043B9847A64294
:10D45000F9D170BDDC5B0B00DC5B0B00E45B0B0007
:10D46000DC5B0B002DE9F04F01F10B05162D83B0AD
:10D47000064623D8102900F2B68000F057FB10258D
:10D4800018230220D14F3B445C68A3F10802944268
:10D4900000F05F816368E16823F0030323445A6866
:10D4A000A56842F00102E96030468D605A6000F0E4
:10D4B0003FFB0834204603B0BDE8F08F35F0070588
:10D4C00000F19180A94200F28E8000F02FFBB5F5AB
:10D4D000FC7FC0F06D816B0A00F08C80042B00F2A1
:10D4E0003F81AB0903F1390003F1380CC100B74F9C
:10D4F00039444C680839A14206D10CE0002A80F278
:10D500002481E468A14206D0636823F003035A1B18
:10D510000F2AF3DD60463C69DFF8B4C264456FD082
:10D52000636823F003035A1B0F2A00F32F81002A9C
:10D53000C7E904CC80F22081B3F5007F80F05B81E5
:10D540000122DB08991013448A40796857F833E0C8
:10D5500007EBC3080A43A8F10801C4E902E17A60B5
:10D5600047F83340CEF80C40012483109C4094428D
:10D570004CD8144206D120F003006400144200F19C
:10D580000400FAD007EBC009CE468046DEF80C3026
:10D590009E4507D110E1002A80F21E81DB689E457E
:10D5A00000F00A81596821F003014A1B0F2AF2DDBD
:10D5B00045F001083046D3E902E41D4442F001067B
:10D5C000C3F80480CEF80C40C4F808E0C7E904555D
:10D5D000C5E902CC6E605A50009300F0A9FA009B96
:10D5E00003F1080466E700240C232046336003B0EF
:10D5F000BDE8F08F4FF4007140204FF03F0C76E70C
:10D6000001247A6883109C409442B2D9BC68636854
:10D6100023F00309A94504D3A9EB05030F2B00F35D
:10D620008480DFF8B0A1D7F80824DAF8003001329E
:10D6300005EB030800F03B8108F5805808F10F085E
:10D6400028F47F6828F00F084146304600F072FA4F
:10D65000B0F1FF3F834600F0F78004EB0900584526
:10D6600000F2F080DAF8042008EB0201CAF8041096
:10D6700000F04E81D7F8083401331BBFABEB00023A
:10D680005218C7F808B4CAF804201BF0070300F0CA
:10D690002481C3F108029344C3F58052D844083270
:10D6A000A2EB0802C2F30B0211463046019300922E
:10D6B00000F040FA421CDDE9002300F05A81DAF85C
:10D6C0000410A0EB0B03134443F001031144BC42CC
:10D6D000C7F808B0CAF80410CBF8043014D0B9F178
:10D6E0000F0F40F22C814FF0050C6368A9F10C027A
:10D6F00022F0070203F001031343A0180F2A63600E
:10D70000C0E901CC00F23A81DAF82C30BC689942C9
:10D71000DAF83030626888BFCAF82C10994222F0DB
:10D72000030288BFCAF8301092E045F0010243F0CE
:10D730000103254462603046BD6008346B6000F030
:10D74000F7F9204603B0BDE8F08F23445A68E1683A
:10D75000A6E6DC68A34208BF02303FF4DCAE99E6DF
:10D76000142B69D9542B00F2A5802B0B03F16F0009
:10D7700003F16E0CC100BAE623445A68304642F009
:10D7800001025A60083400F0D3F993E645F0010E27
:10D7900042F001012544C4F804E03046C7E90455CD
:10D7A000C5E902CC6960E25000F0C2F9083481E6B4
:10D7B000E80805F1080365E608F1010818F0030F11
:10D7C0000EF1080E7FF4E2AE59E000BF1887072083
:10D7D00020870720943E08201C4619444A68DB68CD
:10D7E00054F8085F42F001024A603046EB609D60E9
:10D7F00000F09EF95EE65A0A042A35D9142A7FD829
:10D8000002F15C01C9005B3207EB010E7958AEF101
:10D81000080E8E4558D04A6822F003029A4202D977
:10D8200089688E45F7D1D1F80CE07A68C4E9021E08
:10D83000CEF80840CC6097E603F15C0003F15B0C86
:10D84000C10054E6BC427ED0BC68626822F003028C
:10D850009542A2EB050302D80F2B3FF766AF304687
:10D8600000F066F9002425E69A0902F13901C900A1
:10D870003832C9E7D9F80090994540F0958010F00A
:10D88000030FA9F1080300F1FF30F3D17B6823EA0D
:10D8900004037B6064009C423FF6B8AE1CB9B5E659
:10D8A000640008F104081C42FAD040466AE608F118
:10D8B0001008C9E6B3F5AA7F36D8EB0B03F1780060
:10D8C00003F1770CC10012E64FF001087B6892105B
:10D8D00008FA02F21A437A60A8E7D844C8F10002B5
:10D8E000C2F30B02114630460193009200F022F978
:10D8F000431CDDE900237FF4E2AE40461A46DEE633
:10D90000542A27D81A0B02F16F01C9006E327BE747
:10D91000C0F30B03002B7FF4ADAE09EB0803BA682C
:10D9200043F001035360EFE640F2545293421AD899
:10D93000AB0C03F17D0003F17C0CC100D7E50123A2
:10D94000CBF804308BE7DAF8042008EB0201CAF8C0
:10D9500004108FE6B2F5AA7F18D8DA0B02F178012D
:10D96000C900773250E74FF47E717F204FF07E0C74
:10D97000BDE5083B002208EB0300A0E604F1080126
:10D98000304602F0B5FDDAF80410BDE640F254511D
:10D990008A4205D89A0C02F17D01C9007C3233E736
:10D9A0004FF47E717E222FE77B6873E7844641EA5D
:10D9B000000313F0030349D1403A23D30B680360FB
:10D9C0004B6843608B688360CB68C3600B690361FD
:10D9D0004B6943618B698361CB69C3610B6A0362E5
:10D9E0004B6A43628B6A8362CB6AC3620B6B0363CD
:10D9F0004B6B43638B6B8363CB6BC36340304031B2
:10DA0000403ADBD230320BD30B6803604B68436083
:10DA10008B688360CB68C36010301031103AF3D24A
:10DA20000C3205D351F8043B40F8043B043AF9D2D8
:10DA3000043208D0D2071CBF11F8013B00F8013BAB
:10DA400001D30B8803806046704700BF082A13D3B8
:10DA50008B07B1D010F00303AED0C3F10403D21A88
:10DA6000DB071CBF11F8013B00F8013BA4D331F8E0
:10DA7000023B20F8023B9FE7043AD9D3013A11F860
:10DA8000013B00F8013BF9D20B7803704B784370EF
:10DA90008B78837060467047F0B4860743D0541E7D
:10DAA000002A3ED0CAB2034602E014F1FF3438D354
:10DAB00003F8012B9D07F8D1032C2BD9CDB245EAF1
:10DAC00005250F2C45EA054516D9A4F110073F0995
:10DAD00003F1200606EB071603F1100242E9045594
:10DAE00042E902551032B242F8D104F00F04013776
:10DAF000032C03EB07130DD91E462246043A032AD2
:10DB000046F8045BFAD8221F22F0030204321344C1
:10DB100004F003042CB1C9B21C4403F8011B9C425D
:10DB2000FBD1F0BC704714460346C5E7704700BF01
:10DB3000704700BF38B50023064C054608462360F1
:10DB4000F2F718FC431C00D038BD2368002BFBD033
:10DB50002B6038BDC83E08200CB470B56FF000458E
:10DB60009CB020AC54F8042B094E02910691234638
:10DB700002A901940795CDE9045600F0C9F90022E5
:10DB8000029B1A701CB0BDE8704002B0704700BF25
:10DB90000802FFFF0EB4034630B56FF000449CB09E
:10DBA0001FA951F8042B0A480A4D029306930191CC
:10DBB0000B46006802A90794CDE9044500F0A8F9D6
:10DBC0000022029B1A701CB0BDE8304003B07047C1
:10DBD000E88207200802FFFF30B40E4D10F8013B29
:10DBE000EA5C02F00302012A11F8012B08BF20337E
:10DBF000AC5C04F00304012C06D09B1A01D1002A6E
:10DC0000ECD130BC1846704720329B1AE6D018463B
:10DC100030BC704761590B00830710B5044610D122
:10DC20000268A2F1013323EA020313F0803F08D116
:10DC300050F8042FA2F1013323EA020313F0803FCE
:10DC4000F6D003781BB110F8013F002BFBD100F098
:10DC500003F8204610BD00BF80EA0102844612F09E
:10DC6000030F4FD111F0030F32D14DF8044D11F0D5
:10DC7000040F51F8043B0BD0A3F101329A4312F088
:10DC8000803F04BF4CF8043B51F8043B16D100BF61
:10DC900051F8044BA3F101329A4312F0803FA4F1F2
:10DCA00001320BD14CF8043BA24312F0803F04BF79
:10DCB00051F8043B4CF8044BEAD023460CF8013BE6
:10DCC00013F0FF0F4FEA3323F8D15DF8044B704790
:10DCD00011F0010F06D011F8012B0CF8012B002ACE
:10DCE00008BF704711F0020FBFD031F8022B12F0BD
:10DCF000FF0F16BF2CF8022B8CF8002012F47F4F78
:10DD0000B3D1704711F8012B0CF8012B002AF9D17F
:10DD1000704700BF20F0030110F00300C0F10000C5
:10DD200051F8043B00F1040C4FEACC0C6FF00002F8
:10DD30001CBF22FA0CF213434FF0010C4CEA0C2CDE
:10DD40004CEA0C4CA3EB0C0222EA030212EACC12BE
:10DD500004BF51F8043B0430F4D0C2F1000102EAE0
:10DD60000102B2FA82F2C2F11F0200EBD200704748
:10DD700040EA01039B0770B42AD1032A28D90C4634
:10DD80000346214654F8046BA6F1013525EA060541
:10DD900015F0803F06D1043A032A43F8046B21466C
:10DDA000EFD89AB10C78013A1C7001333CB16AB1DA
:10DDB00011F8014F013A03F8014B002CF7D12AB1B9
:10DDC00000211A4403F8011B9342FBD170BC704739
:10DDD0000346E6E72DE9F04F8146414F084600E053
:10DDE0002846054615F8014B3E5D16F00806F7D1AA
:10DDF0002D2C53D02B2C12BFA34690F801B0851CBC
:10DE00001BB1102B4FD09E4604E0BBF1300F54D015
:10DE10000A239E46002E0CBF6FF000484FF00048CA
:10DE20000027B8FBFEFC38460EFB1C8A05E029D013
:10DE3000012700FB0E4015F801BBABF13004092CA3
:10DE400005D9ABF14104192C0BD8ABF13704A3422F
:10DE50000FDDB7F1FF3FEED08445E8D24FF0FF373A
:10DE6000E9E7ABF16104192C03D8ABF15704A342E5
:10DE7000EFDC7B1C0BD006B140420AB14FBB1160F6
:10DE8000BDE8F08FA245D3DA4FF0FF37D3E7222366
:10DE9000C9F80030FAB14046691EF0E7851C90F8D9
:10DEA00001B00126ACE7BBF1300FACD1287800F00F
:10DEB000DF00582806D09E46ACE72B7803F0DF033E
:10DEC000582B0AD14FF0100E95F801B07346023569
:10DED000A0E78046DFE74046D2E708239E4699E761
:10DEE00061590B0076E700BF10B4034C13460A4695
:10DEF0000146206810BC6DE7E882072010B4034C8F
:10DF000013460A460146206810BC63E7E8820720F2
:10DF10002DE9F04FC3B00C460C9190460F930D9035
:10DF200002F0DCFB036818461A93FFF7F3FEA3899F
:10DF300019901D0603D52369002B00F036870023B6
:10DF40000DF1C80AD146C346CDE91633CDE92633D3
:10DF500015931393149318931B930A93CDF894A0DD
:10DF60009BF80030002B00F09780252B5C4602D1F7
:10DF70001AE0252B03D014F8013F002BF9D1A4EBB4
:10DF80000B0575B1DDE9263201332A44072BC9E9B7
:10DF900000B5CDE9263277DC09F108090A9B2B444C
:10DFA0000A932378002B77D000234FF0FF301A46D6
:10DFB0008DF8773019460B939846637804F1010B7E
:10DFC00009901F460BF1010BA7F12003582B00F21B
:10DFD0007483DFE813F0D10272037203CC02720380
:10DFE00072037203720372037203BF02BA027203F6
:10DFF00066034C0372036B03B600B600B600B600AE
:10E00000B600B600B600B600B60072037203720323
:10E010007203720372037203720372037203340396
:10E02000F5027203F5027203720372037203F002C7
:10E0300072037203A5007203720372037203720308
:10E040007500720372039802720372037203720303
:10E0500072037203720372037203720379012B015C
:10E06000F502F502F50226012B0172037203190174
:10E0700072030301A700CA00C5007203DA0072032D
:10E08000770072037203D90225AADDE90C1002F0B1
:10E09000E7FF40B9D14681E7279B23B10D9825AA18
:10E0A0000C9902F0DDFF0C9B9B8913F0400F0A9B3B
:10E0B00018BF4FF0FF330A930A9843B0BDE8F08FC2
:10E0C00048F0100818F0200F00F048850F9C073426
:10E0D00024F0070303F10802D3E9004501230F925E
:10E0E0000026099A8DF87760013200F0098428F043
:10E0F0008002079254EA050240F0BC80099A002A87
:10E1000040F0CC86002B40F0ED8418F001030E9314
:10E1100000F06085302342AA02F8413D1192CAE026
:10E1200048F0100818F0200300F00D850F9C07340C
:10E1300024F0070303F10802D3E900450F920023FE
:10E14000CEE70020A7F130031BF8017B00EB800035
:10E1500003EB4000A7F13003092BF5D90B9033E70F
:10E1600048F020089BF800302BE747F630030F9A61
:10E17000ADF87830131D0F939F4B1468189348F037
:10E180000208002502237827AAE700250F9A8DF8B8
:10E1900077501368141D1193002B00F03086099AF4
:10E1A000531C00F0D8862946119802F09FFA0028E7
:10E1B00000F0CE87119B0995C31ACDE90E34CDF836
:10E1C0001C8023EAE3739DF8776008931295002E74
:10E1D00000F08D80089B0133089388E0002A41F00D
:10E1E000EF800F9A18F0200F52F8043B0F9240F086
:10E1F0002A8518F0100F40F0278618F0400F00F025
:10E2000023860A9A1A80ABE69BF800306C2B03BF7A
:10E210009BF8013048F020080BF1010B48F0100882
:10E22000CFE648F040089BF80030CAE6002A41F0EB
:10E23000C38018F0200F00F00B820F9C073424F0ED
:10E24000070303F108020F92D3E90045002C75F192
:10E250000003C0F2CB84099B9DF87760013300F086
:10E26000CF8428F08002079254EA05024FF00103A0
:10E270003FF444AF012B00F04883022B00F09F8352
:10E28000514600E01146E20842EA4572E80804F00F
:10E29000070305461446303354EA050001F8013CF3
:10E2A00001F1FF32EED107981192C00700F1758499
:10E2B000AAEB02030E93099B0E9A9342B8BF134632
:10E2C00008930023129382E7002301210F981E4632
:10E2D00002688DF8773009931293031D0F9328ABD2
:10E2E0000891CDF81C800E918DF8A0201193079B0A
:10E2F00013F00203109302D0089B02330893079B8C
:10E30000279C13F084083FD10B9B089A9D1A002D7F
:10E310003ADD102D269B29DD4A462146A946DDE936
:10E320000C54102606E0A9F11009B9F1100F02F102
:10E33000080218DD013331481031072BCDE92631B1
:10E34000C2E90006EFDD25AA2946204602F088FE34
:10E3500000287FF4A8AEDDE92631A9F11009B9F152
:10E36000100F5246E6DC4D460C4691460133234AD7
:10E370002C44072BCDE92634C9E9002500F3688534
:10E380009DF8776009F1080976B10121269B0C44BC
:10E390000B440DF17702072BCDE92634C9E90021A2
:10E3A00000F3F78209F10809109B6BB10221269B4B
:10E3B0000C4401331EAA072BCDE92634C9E90021FC
:10E3C00000F3F28209F10809B8F1800F00F0E5814D
:10E3D000099B0E9A9D1A002D3FDD102D269A40F3C1
:10E3E0009285DFF81C804B4640462146DDE90C94BF
:10E3F000B846102607460AE040590B00FC580B00AF
:10E400000C590B00103D102D03F1080315DD0132EE
:10E410001031072ACDE92621C3E90076F2DD25AACD
:10E420004946204602F01CFE00287FF43CAEDDE9A0
:10E430002621103D102D5346E9DC99463B460C46FB
:10E440004746984601322C44072ACDE92624C9E9DB
:10E45000008500F3CB8209F10809079BDE0500F176
:10E460004281269B0E9A013311991444072B27945D
:10E47000C9E90012269300F3818209F10809079B7C
:10E480005B0731D50B9B089A9D1A002D2CDD102DB2
:10E49000269B1FDDDDE90C87102604E0103D102DC2
:10E4A00009F1080916DD0133C64A1034072BCDE9FE
:10E4B0002634C9E90026F1DD25AA4146384602F096
:10E4C000CFFD00287FF4EFADDDE92634103D102D9F
:10E4D000D146E8DC0133BB4A2C44072BCDE9263476
:10E4E000C9E9002500F36C83DDE90A3208998A4204
:10E4F000ACBF9B185B180A93002C40F09F8100234F
:10E50000D14626932CE5002A40F06A87AE4B18F0DE
:10E51000200F189340D00F9C073424F0070303F119
:10E5200008020F92D3E9004518F0010F00F0C380F4
:10E5300054EA050300F0BF8030238DF879708DF820
:10E54000783048F002080223CAE59BF80030012227
:10E550002B2136E50F9B1C68181D002C0B949BF893
:10E5600000300F90BFF62DAD60420B909BE048F05D
:10E5700001089BF8003024E59BF8003000297FF467
:10E5800020AD012220211CE5002A40F021878F4B7D
:10E5900018F0200F1893BED10F9B18F0100F53F8EE
:10E5A000044B0F9340F01A8318F0400F00F01683CD
:10E5B000A4B20025B8E748F008089BF8003000E551
:10E5C000002A40F0ED860F9C073424F00706D6E9B8
:10E5D000002323F000441592154610461493083684
:10E5E00021464FF0FF327A4B0F9603F0C3FD00280F
:10E5F00040F04083284621464FF0FF32744B03F031
:10E600009BFD002840F03683DDE91502179B149925
:10E6100003F088FD002840F02F859DF877600321E6
:10E620000020CDE908106B4A6B4B472FD8BF1A4624
:10E6300028F0800407940E9112901192C7E5002AE9
:10E6400040F0C28648F0100818F0200F7FF4F5ADB6
:10E650000F9B18F0100F53F8044B0F9340F0C0823B
:10E6600018F0400F00F0BC8224B2E517EEE59BF8ED
:10E6700000700BF101002A2F00F07D86A7F1300316
:10E68000092B834600F2608500201BF8017B00EB1C
:10E69000800003EB4000A7F13003092BF5D9099066
:10E6A00092E49BF8003048F004088AE448F08008BF
:10E6B0009BF8003085E4022312E5002A40F08C86A6
:10E6C000002F3FF4E9AC002301221E468DF877307D
:10E6D0000993129328AB08928DF8A070CDF81C8096
:10E6E0000E92119303E6652F40F3B180DDE9150228
:10E6F000179B149903F00CFD002800F08281012182
:10E70000269B364A0B440C44072B27942693C9E9D1
:10E71000002100F3EE8309F108091F9B139A279C3F
:10E72000934280F24882269B199A01331A99144425
:10E73000072BC9E90012CDE9263400F3558309F10E
:10E740000809139B5D1E002D7FF799AE102D269AA8
:10E7500040F39F85DFF888802346102644460D9FAE
:10E76000DDF8308005E009F10809103D102D40F377
:10E77000998301321033072ACDE92623C9E90046DF
:10E78000F1DD25AA4146384602F06AFC00287FF4F4
:10E790008AACDDE92623D146E7E70B9B089A9D1A50
:10E7A000002D7FF715AE102D269A40F3B384DFF8C5
:10E7B00030804B4640462146DDE90C94B846102691
:10E7C000074614E0FC580B002C590B0040590B0075
:10E7D000FFFFEF7F20590B001C590B005C590B0009
:10E7E0000C590B00103D102D03F1080315DD01320B
:10E7F0001031072ACDE92621C3E90076F2DD25AAEA
:10E800004946204602F02CFC00287FF44CACDDE9A0
:10E810002621103D102D5346E9DC99463B460C4617
:10E820004746984601322C44072ACDE92624C9E9F7
:10E83000008500F3438309F10809C9E525AADDE94C
:10E840000C1002F00DFC00283FF459AE2BE4139A93
:10E85000269B012A04F1010403F1010509F10806D0
:10E8600040F387810123119A072DC9F80020CDE9D3
:10E870002654C9F8043000F3F982199B01351A9A1D
:10E880001C44072DCDE92654C6E9002300F3FA8283
:10E8900008366F1C0E970997139FDDE91502179B29
:10E8A0001499013F06F1080903F032FC002840F0FA
:10E8B0001F813C44119B7760099F0133072F336010
:10E8C0002794269700F3808206F110034E4699465E
:10E8D000AA1C09921B9A21AB14447260099A2794CE
:10E8E000072A269233607FF7CAADDDE90C1025AA0E
:10E8F00002F0B6FB00287FF4D6ABD146279CBEE5DC
:10E90000012BCDF81C807FF4B8AC002D08BF0A2C79
:10E9100080F07D8142AB303403F8414D11930123E7
:10E920000E93C8E425AADDE90C1002F099FB00283B
:10E930007FF4B9ABD1461F9B279C1BB9139A002AC1
:10E9400000F01483269A199901321A980C44072A68
:10E950002794C9E90001269200F3068409F1080909
:10E96000002BC0F23F84139B013211991C44072AEB
:10E97000CDE92624C9E900137FF77FADDDE90C104E
:10E9800025AA02F06DFB00287FF48DAB279CD146B1
:10E9900075E525AADDE90C1002F062FB00287FF482
:10E9A00082ABD146279CFFE425AADDE90C1002F0DA
:10E9B00057FB00287FF477ABD146279C04E55246ED
:10E9C000DDF860C0230943EA0573280904F00F014C
:10E9D00005461C461CF8013002F8013D54EA0503C7
:10E9E000F0D1AAEB020311920E9364E425AADDE9AB
:10E9F0000C1002F035FB00287FF455ABD146279C64
:10EA00002BE51F9B002B40F36582DDE91232934218
:10EA1000A8BF1346002B1D460CDD269B119A01331F
:10EA20002C44072B2794C9E90025269300F32A8359
:10EA300009F10809129B002DA8BF5B1B002B1D4686
:10EA400000F38C811F9B139A9342C0F2EE81079AC8
:10EA5000D10700F1EA81139A1298D31A151A9D4230
:10EA6000A8BF1D46002D0FDD269A119901320144E1
:10EA70002C44072AC9F800102794C9F8045026929C
:10EA800000F3348309F10809002DB4BF1D465D1B56
:10EA9000002D7FF7F4AC102D269A40F3FA83DFF8AF
:10EAA00070862346102644460D9FDDF8308005E031
:10EAB00009F10809103D102D40F3F48101321033A3
:10EAC000072ACDE92623C9E90046F1DD25AA4146FA
:10EAD000384602F0C5FA00287FF4E5AADDE92623CE
:10EAE000D146E7E7099BCDF844A00E93FFF7E3BBBF
:10EAF000002F7FF7EFAE102F40F31A84DFF8108657
:10EB00003346224646464FF010090D9CDDF8308012
:10EB10000E9D05E00833103F102F40F3F8810135BA
:10EB20001032072DCDE92652C3E90069F2DD25AA8E
:10EB30004146204602F094FA00287FF4B4AADDE9A9
:10EB400026525346E7E70F9A52F8044B0F9218F0FB
:10EB5000100200F087800025FFF7C2BA0F9B18F063
:10EB6000100F53F8044B0F9374D000250123FFF7C7
:10EB7000B7BA079AD2073FF575AE01221199072D52
:10EB8000C9F80010CDE92654C9F8042000F39D828D
:10EB90000233099309F110099CE6302B00F03F8104
:10EBA0003023119A023902F8013CAAEB01030E93BB
:10EBB0001191FFF780BB079BDD073FF5B4AD5EE425
:10EBC00025AADDE90C1002F04BFA00287FF46BAAAD
:10EBD000279C89E4CDF844A0FFF76DBB0025A3E492
:10EBE000E517002C75F10003BFF635AB2D26099B08
:10EBF000644265EB450501338DF877607FF431ABF6
:10EC0000002D08BF0A2CCDF81C80FFF483AED0463F
:10EC1000204629460A220023FEF720FA303208F85F
:10EC2000012D2046294600230A22FEF717FA044642
:10EC30000D4654EA0503EBD1AAEB0803CDF8448056
:10EC40000E93FFF738BB0A9A1046D117C3E90001AB
:10EC5000FFF786B918F0400F18BFA4B200250123B2
:10EC6000FFF73EBA18F040031CBF1346A4B20025BC
:10EC7000FFF736BA159C22462046149C23462146AF
:10EC800003F078FA002840F02E83099A27F0200339
:10EC9000541C089300F04282472B00F06C8148F42A
:10ECA00080730793DDE914361D1EB6BF03F10045DE
:10ECB00000232D23662F109300F03382462F00F09F
:10ECC0007482089B3246452B4FF002002B4600F021
:10ECD0005881099C23A9CDE90004049120A81FA90B
:10ECE000CDE902100D9800F09DFC672F119040F0C7
:10ECF000548318F0010F00F06981119B099A9C1848
:10ED0000169A3046179B294603F002FA002800F0B5
:10ED1000D0812346119A9B1A13931F9B1293089B31
:10ED2000472B00F05C81662F40F06081129B002B26
:10ED3000099B40F3F582002B40F0E88218F0010FA8
:10ED400040F0E482129B08930E93109B002B40F03E
:10ED50007A8109939DF87760FFF739BA102B269ACC
:10ED600040F3EA82DFF8A8832346102644460D9F2D
:10ED7000DDF8308005E009F10809103D102D40F361
:10ED8000DC8001321033072ACDE92623C9E9004689
:10ED9000F1DD25AA4146384602F062F900287FF4E9
:10EDA00082A9DDE92623D146E7E740210D98FEF749
:10EDB00059FB0C9B18601861002800F0F582402375
:10EDC0000C9A5361FFF7BBB825AADDE90C1002F0DD
:10EDD00047F900287FF467A9DDE926340133099358
:10EDE0000DF1D009564675E525AADDE90C1002F0B3
:10EDF00037F900287FF457A9D146279CA1E4099B45
:10EE0000119E062B28BF062308930E93BE4B09962E
:10EE10000F94CDF81C8012961193FFF7D8B9119B6F
:10EE2000AAEB03030E93FFF746BA269A199901320B
:10EE30001A980C44072A2794C9E90001269200F386
:10EE40002C8109F1080906E60A9A1A60FFF788B8CA
:10EE500025AADDE90C1002F003F900287FF423A9AC
:10EE6000D1469DF87760279CFFF78EBA25AADDE989
:10EE70000C1002F0F5F800287FF415A9DDE92654FE
:10EE80005646FAE425AADDE90C1002F0E9F800285C
:10EE90007FF409A9DDE926545646FAE4012B7FF4F4
:10EEA000ECA937E5A0461C4601322C44072ACDE9DF
:10EEB0002624C9E900857FF7E0AA5FE525AADDE9F8
:10EEC0000C1002F0CDF800287FF4EDA8D146279C65
:10EED000FFF77EBA0120269A8C4902440444072A8F
:10EEE000CDE92624C9E900103FF71CAD09F1080956
:10EEF00023E525AADDE90C1002F0B2F800287FF422
:10EF0000D2A8D14609E4DFF80882FFF79BBAB046E1
:10EF10001E466B1C1446099306F10802099B3C44EB
:10EF2000072B2794C6E9008726933FF74DAF01339F
:10EF3000099302F108091646CCE4A0461C460132AA
:10EF40002C44072ACDE92624C9E9008500F33F8136
:10EF500009F1080976E511980995FEF7DBFECDF871
:10EF60001C80CDE90E040346FFF72BB9079AD007A2
:10EF70007FF585AAE6E4002A134608BF012309931A
:10EF80008DE6099900904C1C23A920A804911FA983
:10EF9000CDE9021001940D980E9400F043FB1190FE
:10EFA000472F40F0E38118F0010F00F0D881119B4A
:10EFB0000E9A462F03EB02047FF4A2AE119B1B783E
:10EFC000302B00F069811F9B1C4499E61F9A239BFC
:10EFD0001292119A9B1A1393089B472B06D1129BEE
:10EFE000DA1C02DB099A9A4234DA023F129B8DF84E
:10EFF0008470013B002BB4BF2D222B221F93B8BF7E
:10F00000129B8DF88520B8BFC3F10103092B00F3D3
:10F010000D81302213448DF887308DF8862022AB85
:10F0200021AA9B1A139A1B93012A13440E9340F3AF
:10F0300050810E9B199A13440E9323EAE3730893AD
:10F040000023129381E62D2600238DF87760099323
:10F05000FFF7C0B8DDE912318B42C0F2938018F09F
:10F06000010F00F01081129B199A672713440E9329
:10F0700023EAE373089368E62D231E468DF8773064
:10F08000FFF7CDBA25AADDE90C1001F0E9FF002851
:10F090007FF409A8D146279CCCE425AADDE90C1011
:10F0A00001F0DEFF00287EF4FEAFD1461F9B279CB7
:10F0B000D1E4239BA342BFF42DAE30215A1C2392EE
:10F0C0001970239B9C42F9D824E625AADDE90C108F
:10F0D00001F0C6FF00287EF4E6AFDDE926340133F7
:10F0E000564609930DF1D009FFF7F4BB25AADDE9D7
:10F0F0000C1001F0B5FF00287EF4D5AF1F9B139ACA
:10F10000D146279CD31ABFE454590B005C590B001D
:10F110000C590B00DFF8DC82FFF784BB0623099350
:10F12000BDE50320099C23A9CDE90004049120A892
:10F130001FA9CDE9021032462B460D9800F072FA55
:10F140000E941190041939E700230993FEF73CBF90
:10F15000099B0F9408930E930990CDF81C80129090
:10F160009DF87760FFF733B825AADDE90C1001F0B0
:10F1700077FF00287EF497AFDDE92624D1461F9B58
:10F18000FFF7EEBB199A139B1344129A0E93002AB1
:10F1900006DC129B0E9AC3F101031A4413460E9229
:10F1A00023EAE37308936727CFE50320099C23A98B
:10F1B000CDE90004049120A81FA9CDE90210324630
:10F1C0002B460D9800F02EFA0E941190EFE625AA2A
:10F1D000DDE90C1001F044FF00287EF464AFD14655
:10F1E000279C2FE45D42103380F2D180DFF8048247
:10F1F000234610260D9F444604E009F10809103DFE
:10F20000102D58DD01321033072ACDE92623C9E934
:10F210000046F2DD25AA0C99384601F021FF0028AE
:10F220007EF441AFDDE92623D146E8E70DF19300F6
:10F2300001466D4C00E01146A4FB0325ED0805EBEB
:10F240008502A3EB42023032092D01F8012C2B4636
:10F2500001F1FF32EFDC30330239DCB2884202F8D0
:10F26000014C40F297800DF18601134601E013F83E
:10F27000014B984201F8014BF9D125AB9B1A0DF1D6
:10F2800086021344CCE623EAE37208920E936727C2
:10F290005BE5DFF8608107E6169A3046179B294642
:10F2A00002F036FF00287FF48EAE0E9BC3F10103FF
:10F2B0001F931C4424E5A0461C4601322C44072A17
:10F2C000CDE92624C9E900853CDC09F10809FFF7EE
:10F2D0004ABB18F0010312937FF4ABAE0E9B23EAF6
:10F2E000E373089331E5149B0321002BB8BF2D2352
:10F2F0004FF00000BABF1E468DF877309DF877605A
:10F30000CDE90810394A3A4BFFF78FB9129B199A89
:10F310001344099A1A4422EAE2730E92089314E500
:10F320006BB918F0010F0AD1012308930E930CE575
:10F330004A46DFF8C080F1E5DFF8B880FFE5199BA9
:10F340000133E6E725AADDE90C1001F089FE00286B
:10F350007EF4A9AEDDE92624D146FFF704BB1F9A4F
:10F36000239B1292119A9B1A139338E60E9B119AC3
:10F3700013441C46C4E40F9D9BF801302C6883465F
:10F3800044EAE474281D09940F90FEF71ABEDFF8D2
:10F39000648092E70DF1860342E6099B0E93FFE538
:10F3A0008DF87710FFF70FB94FF0FF320C230A9258
:10F3B0000D9A1360FEF780BE8DF87710FEF739BF07
:10F3C0008DF87710FEF70DBF8DF87710FFF73AB97B
:10F3D0008DF87710FFF7DBB88DF87710FFF770B96D
:10F3E0008DF87710FFF792B8CDCCCCCC28590B0014
:10F3F00024590B000C590B0070B5141E9AB0054629
:10F400002ADB1A464FF4027300910491ADF80C30D8
:10F410004FF6FF7611D0013C1E9B6946029405947D
:10F42000ADF80E60FEF774FD421C01DA8B232B60F1
:10F430000022009B1A701AB070BD1E9B6946029490
:10F440000594ADF80E60FEF763FD431C01DB1AB0B6
:10F4500070BD8B232B60FAE78B234FF0FF302B60BE
:10F46000F5E700BF10B5064C82B000932468134640
:10F470000A4601462046FFF7BFFF02B010BD00BF9D
:10F48000E8820720F0B4174C2568D5F848410CB342
:10F4900065681F2D23DC38B900206B1C02356360C2
:10F4A00044F82510F0BC7047012604EB850CCCF81D
:10F4B0008820D4F8887106FA05F217430228C4F8A8
:10F4C0008871CCF80831E7D1D4F88C311A43C4F8EC
:10F4D0008C21E1E705F5A674C5F84841D8E74FF05F
:10F4E000FF30DFE7F8580B00024B13B10248FDF77D
:10F4F00037BF704700000000E9D30A000000000099
:10F500002DE9F04F03690E6983B0B342C0F28680E3
:10F51000013E01F1140800F1140958F8263059F899
:10F5200026700133B7FBF3F7B300009308EB030A2F
:10F530004B440193002F3BD00023C6461C46CC46CB
:10F540005EF8042BDCF800501FFA82FB07FB0B333C
:10F55000120C4FEA134B07FB02BB9AB2A21AABB2D2
:10F560001FFA8BF41A44C4EB154404EB224492B204
:10F5700042EA0442F2454CF8042B4FEA24444FEA95
:10F580001B43DDD2009B59F803308BB9019A131F3E
:10F5900099450CD252F8043C4BB9A2F1080302E0A1
:10F5A0001A68043B1AB9994506F1FF36F8D306618B
:10F5B000044601F049FB00282CDB4D4600230137AF
:10F5C00058F8041B28688AB29A1A0B0C81B20A44B4
:10F5D000C3EB104303EB224392B242EA0342C2451B
:10F5E00045F8042B4FEA2343EAD259F8262009EBC9
:10F5F00086037AB91A1F91450BD253F8042C42B9ED
:10F60000083B02E01A68043B1AB9994506F1FF3637
:10F61000F8D32661384603B0BDE8F08F002003B070
:10F62000BDE8F08F2DE9F04F1F461646036C99B0E8
:10F630000446CDE902674BB10122456C1946AA4048
:10F64000C3E9015201F0BEF8002323643E1EB4BF9B
:10F6500001230023259AB8BF26F000461360744B9F
:10F66000B8BF0396B34300F0A380DDE9028900220E
:10F6700000234046494602F04BFD074678B101237E
:10F68000249A1360269B002B00F0BF80694B269ABA
:10F6900003F1FF391360484619B0BDE8F08F16AA90
:10F6A00017ABCDE90032204642464B4601F0EAFB5B
:10F6B000350D834640F09C80DDE91685454405F212
:10F6C0003243202B40F32F84C3F140039E40029B22
:10F6D00005F2124023FA00F03043FDF733FA01221D
:10F6E000013D0A92A1F1F8710022534BFDF7ECF8AD
:10F6F00049A3D3E90023FDF79FFA49A3D3E90023E7
:10F70000FDF7E4F8064628460F46FDF72BFA46A318
:10F71000D3E90023FDF790FA02460B4630463946FE
:10F72000FDF7D4F806460F4602F03AFD0022059098
:10F7300000233046394602F0F5FC002840F075827F
:10F74000059E162E00F25F82DDE902233B4901EBA4
:10F75000C601D1E9000102F003FD002800F0DF83BB
:10F76000731E059300230D93A8EB0505B5F1010A5F
:10F7700000F1558200230693059B002BC0F24682C0
:10F780009A440C9300230B93229B092B5ED8052BE4
:10F7900040F3C7830026043B2293229B023B032BAA
:10F7A00000F29F84DFE813F0E403C603EE03FA04DB
:10F7B00042F20F73249A1360029B83B9C6F31306B7
:10F7C0006EB9269BDFF87890002B3FF464AF09F107
:10F7D00008034846269A136019B0BDE8F08F269BAF
:10F7E000DFF86090002B3FF456AF09F10303F0E718
:10F7F000C9F3130343F07F514046A5F2FF350A9742
:10F8000041F44011DDF858806EE7DFF83C9048463F
:10F8100019B0BDE8F08F00BF61436F63A787D23F87
:10F82000B3C8608B288AC63FFB799F501344D33FEF
:10F830000000F07F5D590B000000F83F885A0B0074
:10F84000645A0B00705A0B005C590B004FF0FF35E7
:10F8500001260023CDE90856229323930021149515
:10F860006164204600F088FF0E2D8146206400F27E
:10F87000FE80002E00F0FB80DDE9022316461F46C5
:10F880000599CDE90E67002940F3E9839B4B01F010
:10F890000F020D1103EBC203D3E90012CDE90212EE
:10F8A000EA0640F1A084964B3946D3E90823304656
:10F8B000FDF7ECFA0327CDE9100105F00F057DB146
:10F8C000DDE902018E4EEB0704D5D6E90023FDF7F2
:10F8D000B3F901376D1006F10806F4D1CDE9020144
:10F8E000DDE90223DDE91001FDF7D0FACDE90201DF
:10F8F0000D9B43B1DDE902010022824B02F012FCB4
:10F90000002840F009853846FDF72CF9DDE902238F
:10F91000FDF792F97C4B0022FCF7D8FF089B0546C7
:10F92000A1F15076002B00F01E84059B1593089BD7
:10F930001093DDE9020102F033FC109A6F4B00F1E5
:10F94000300803EBC20353E90212CDE91212FDF7AE
:10F9500009F90B460246DDE90201CDE90256FCF742
:10F96000B3FF099B5FFA88F806460F4609F10105C7
:10F97000002B00F06384DDE9122300206349FDF7CA
:10F9800085FADDE90223FCF79FFF89F80080324603
:10F990003B46CDE9020102F0E3FB002840F00E8572
:10F9A00032463B4600205749FCF78EFF02460B4685
:10F9B000DDE9020102F0D4FB002840F00985109A2D
:10F9C000012A50D04A44CDF848A0CDF840B0A04616
:10F9D000DDE902ABCDF8089091460EE032463B4699
:10F9E00000204849FCF770FF52465B4602F09AFB44
:10F9F000002840F0E6844D452ED05046594600225E
:10FA0000434BFDF719F90022414B82468B463046A5
:10FA10003946FDF711F90F46064602F0C1FB0446D0
:10FA2000FDF7A0F802460B4630463946FCF74CFF7E
:10FA30003034E4B205F8014B52465B4606460F46A9
:10FA400002F070FB0028C9D0159BDDF840B0DDF84E
:10FA500008904446059339E24446DDF848A0DDF8B5
:10FA600040B0DDF80890DDE90E23CDE90223179BB5
:10FA7000002BC0F2A980059A0E2A00F3A5801F4B27
:10FA800003EBC203D3E90023CDE90623239B002B1C
:10FA9000C0F2C182DDE90267DDE90623304639465E
:10FAA000FDF7F4F902F07CFB8046FDF75BF8DDE939
:10FAB0000623FDF7C1F802460B4630463946FCF7EF
:10FAC00003FF089E08F13005012E89F80050024618
:10FAD0000B4609F101054CD000220D4BFDF7ACF8A7
:10FAE0000022002306460F4602F012FB002840F0D9
:10FAF000ED81CDF808B0DDE906AB18E0885A0B00BF
:10FB0000785B0B000000F03F00001C400000E03F6D
:10FB1000000024400022C64BFDF78EF8002200238F
:10FB200006460F4602F0F4FA002840F041835246A0
:10FB30005B4630463946FDF7A9F902F031FB8046B5
:10FB4000FDF710F852465B46FDF776F802460B4685
:10FB500030463946FCF7B8FE08F1300605F8016B6F
:10FB6000089FA5EB0906B74202460B46D2D1DDF845
:10FB700008B010461946FCF7A9FEDDE90623064643
:10FB80000F4602F0EDFA60B9DDE90623304639464A
:10FB900002F0BEFA002800F0998118F0010F00F081
:10FBA000958115F8018C05E0994500F03A831D46D2
:10FBB00013F8018CB8F1390F05F1FF33F4D008F1D7
:10FBC000010883F8008081E1099A002A3DD0229A39
:10FBD000012A40F31282089B03F1FF380B9B434537
:10FBE000C0F2E982A3EB0808089B002BC0F20E8349
:10FBF000069A9A440A921A4406920121204600F07D
:10FC0000C9FE064626E001230D93ADE500230C93C3
:10FC1000DDE90532D21A5B4206920B93B4E5C5F1D9
:10FC2000010306934FF0000AA6E5DDF8149048465C
:10FC3000FCF798FF32463B4602F06AFA00287FF450
:10FC40007FAD09F1FF3305937AE5069BDDF82C8043
:10FC5000099E0A930A9900290B460CDDBAF1000FA0
:10FC600009DD5145A8BF5346069AAAEB030AD21AEA
:10FC70000692CA1A0A920B9B7BB1099A002A00F0DD
:10FC80009082A3EB0807B8F1000F40F09A81594623
:10FC90003A46204600F02EFF83460121204600F020
:10FCA00079FE0C9A0746002A40F02581229B012B01
:10FCB00040F36B810120504410F01F0000F01981C7
:10FCC000C0F12003042B40F3B483C0F11C00069B59
:10FCD0008244034406930A9B03440A93069B002B29
:10FCE00005DD59461A46204600F054FF8346BAF116
:10FCF000000F05DD39465246204600F04BFF07460F
:10FD00000D9B002B77D1089B002B40F30582099BAC
:10FD1000002B00F089800A9B002B00F367810C9B6D
:10FD2000002B40F0CA81B246C846029B089A03F0F5
:10FD300001030A9309F1FF331A440692CDF82C907F
:10FD400039465846FFF7DCFB314681460990584654
:10FD500000F07AFF524602903946204600F090FFAC
:10FD6000C268054609F130090146002A40F0CF81FA
:10FD7000584600F069FF29460890204600F022FD11
:10FD8000089A32B9229B23B90A9B002B00F02483E6
:10FD9000229A029B002BC0F2198205D1229B1BB92B
:10FDA0000A9B002B00F01282002A08F1010500F3E3
:10FDB0002182069B88F80090434500F02C8259462A
:10FDC00000230A22204600F007FD564583463146AF
:10FDD0004FF000034FF00A02204600F0928100F03D
:10FDE000FBFC5146064600230A22204600F0F4FCA4
:10FDF000A8468246A4E73946584600F025FF002869
:10FE000081DA059D594600230A222046013D0595C9
:10FE100000F0E2FC099B8346002B40F0EE82149B2D
:10FE2000002B40F3F98208934D46DDF8208008E06E
:10FE300000002440594600230A22204600F0CCFC52
:10FE4000834639465846FFF75BFB303005F8010B17
:10FE5000A5EB09029045EDDC0022034602925946CB
:10FE600001222046089300F095FE3946834600F0B3
:10FE7000EBFE002815F8012C089B11DC05D1DB07EF
:10FE80000ED402E015F8022C1D46302A05F1FF338E
:10FE9000F8D00BE0994500F04C811D4613F8012C79
:10FEA000392A05F1FF33F5D001321A703946204660
:10FEB00000F088FC56B1029921B1B14202D020462F
:10FEC00000F080FC3146204600F07CFC594620467C
:10FED00000F078FC0022059B2A70249A01331360FD
:10FEE000269B002B3FF4D7AB48461D6019B0BDE8F8
:10FEF000F08F1C20EBE60146204600F0FBFD229B24
:10FF00000746012B40F3D48000230C933B6907EB99
:10FF10008303186900F0EEFCC0F12000CBE60D90E1
:10FF200022E4012639E4C3F12006029B03FA06F01D
:10FF3000FFF7D3BB00230993059B239A1344149323
:10FF40000133012B1F46B8BF012708930021172F4B
:10FF5000089D61647FF785AC012204235B0003F1F7
:10FF60001400B842114602F10102F7D9616478E445
:10FF700000230993239B002B40F3E2801493089302
:10FF80001F46E3E701230993F4E7029B002B7FF46C
:10FF900091AEDDE90212C2F31303002B40F0998108
:10FFA00022F000431B0D1B052BB1069B0AF1010A31
:10FFB0000133069301230C9A0C93002A3FF47AAE86
:10FFC000A4E742463146204600F094FD5A460146D9
:10FFD0000646204600F0E8FC80465946204600F0E0
:10FFE000F1FBC346002F3FF458AE50E631461A46A7
:10FFF000204600F0CFFD064691E60A9A002A00F05E
:02000002B0004C
:100000005D81069A03F233430A921A449A44069297
:10001000DDF82C80F1E5089B002B3FF73BAD40F06D
:10002000F881DDE906010022B54BFCF705FEDDE9AC
:10003000022302F08BF8089F3E46002874D131233A
:10004000059A89F800300132059209F10105394617
:10005000204600F0B7FB002E7FF434AF36E700F007
:100060004881DDE90E01059B5D42A64B05F00F02BC
:1000700003EBC203D3E90023FCF7DEFD2D11CDE92C
:10008000020100F0CE81002302279F4EEA0705D52A
:10009000D6E90023FCF7D0FD01231F446D1006F1C3
:1000A0000806F3D1002B3FF423ACCDE902011FE495
:1000B000029B002B3FF46DAF26E77168204600F0ED
:1000C0005BFB0546336906F10C0102339A000C30E4
:1000D000FDF76CFC29460122204600F05BFD8246BC
:1000E00022E6002520466564294600F045FB4FF0D6
:1000F000FF331493089301238146239520640993C9
:10010000B5E400F069FBA8460646824618E620469C
:1001100000F058FB01223CE6229B022B7FF7F7AD53
:10012000089B002B00F0D780239B4D46DB430593B3
:100130008DE73123059A89F8003001320592B5E642
:10014000012523950895FFF789BB3846FCF70AFD82
:10015000DDE90223FCF770FD00226C4BFCF7B6FBD7
:100160000546A1F15076DDE902010022644BFCF75F
:10017000ABFB2A463346CDE9020101F0F1FF074609
:10018000002858D1DDE902012A4606F1004301F0BA
:10019000C9FF00283FF467AC3E46C5E70123099339
:1001A000CAE659460B9A204600F0A4FC834674E543
:1001B000DDF808B08AE60B9B0C9AA8EB03031A44FF
:1001C000CDF82C800C924FF000080DE5002A4B462C
:1001D00008F10105DDF82C9000F3C580029688F83F
:1001E0000030564662E6DDE90E230227CDE91023F2
:1001F000FFF765BB4B46392BDDF82C9000F0C5802E
:100200000133029688F8003056464FE6069B089A5E
:100210009B1A0A93F1E44B460296DDF82C90564661
:100220001DE6302389F80030059B15F8018C013359
:1002300005934B46C3E400273E4600E7DDE9122361
:10024000DDE90201FCF7F8FC109BCDE90201012B6E
:1002500089F8008021D0109BCDF840A04B449A46ED
:1002600000222B4B30463946FCF7E6FC0F4606468B
:1002700001F096FF8046FCF775FC02460B463046BF
:100280003946FCF721FB08F1300805F8018B55458C
:1002900006460F46E4D1DDF840A00022DDE9020168
:1002A0001C4BFCF713FB32463B4601F03BFF00289A
:1002B00071D0159B059315F8018C7BE4169B069A6B
:1002C000C3F136030A921A449A440692DDF82C8050
:1002D00093E400236FE639460522204600F07CFABD
:1002E00001460746584600F0AFFC00283FF7A7AE8E
:1002F0001AE7DDE90E230227CDE90223FFF7F8BA5A
:1003000000001440885A0B00785B0B0000001C4072
:10031000000024400000E03F089B002B3FF415AF95
:10032000149B002B7FF79FABDDE902010022454BB8
:10033000FCF782FC05460E46781CCDE90256FCF718
:1003400011FC2A463346FCF777FC00223E4BFCF7B3
:10035000BDFA059A149B013A05461592A1F1507613
:100360001093FFF7E6BA594601222046029300F0A7
:1003700011FC3946834600F067FC0028029B36DDFD
:10038000392B02D0099B313328E73922029688F8AD
:100390000020564684E5DDE9022300202B49FCF7C6
:1003A00093FA32463B4601F0DBFE10B9FFF75BBB28
:1003B000154615F8013C6A1E302BF9D0159B0593A4
:1003C00084E54346A0461C46DDF840B0DDF80890C1
:1003D000159B0593FFF7EEBB4B46392BDDF82C90B0
:1003E00008F10105D1D0029A002ACBDCF6E67FF4B1
:1003F000F5AEDA077FF5F2AEC2E7314600230A22F6
:10040000204600F0E9F9149B0646002B0CDD08930A
:1004100081E400273E4687E6229B022B0EDC149BDC
:1004200001E50227FFF764BA229B022B06DC149B2E
:10043000EDE73FF453ACC0F13C0048E4149B089353
:100440006EE600BF0000244000001C400000E03FBA
:10045000F8B50C46234F0646FDF768FBBB68C4F5AC
:100460007E615D680F3125F00305294421F47F6129
:1004700021F00F01A1F58054B4F5805F07DB002166
:100480003046FDF757FBBB682B44984204D03046FA
:10049000FDF74EFB0020F8BD61423046FDF74AFBF8
:1004A00001300DD0104BBA6819682D1B45F00105BD
:1004B0003046091B55601960FDF73AFB0120F8BD75
:1004C00000213046FDF736FBBA68831A0F2BDEDDBC
:1004D000064943F001030C680349001B53600860A0
:1004E000D5E700BF18870720983E0820208B0720FB
:1004F000002953D0F8B50D460646FDF717FB55F811
:1005000004CC714FA5F108012CF00103CA18B8689A
:100510005468904224F0030453D01CF0010F54603F
:1005200002EB04003BD155F808CC4068A1EB0C016C
:100530008D6807F1080E7545634400F0010075D021
:10054000D1F80CC0C5F80CC0CCF8085060B343F02B
:1005500001024A60CB50B3F5007F50D35A0A042AF7
:1005600070D89A0902F13905ED0002F138007C19C2
:100570007A59083C944278D0506820F003009842A1
:1005800071D992689442F7D1E368C1E902433046D9
:100590009960E160BDE8F840FDF7CABA704740686D
:1005A00000F001000028D2D19068484D2344A842B1
:1005B00043F0010462D0D268C26090604C60CB50BE
:1005C000C9E71CF0010F234407D155F8084C091B5B
:1005D000D1E902022344C26090603D4A43F0010029
:1005E000126848609A42B96004D83A4B304619689C
:1005F000FFF72EFF3046BDE8F840FDF799BA01221B
:10060000DB087C68981013448240224307EBC30048
:1006100057F833400838C1E902407A60304647F85D
:100620003310E160BDE8F840FDF782BA002845D1FB
:10063000D2E90202234443F00104C26090604C609E
:10064000CB50D7E7142A08D9542A1ED81A0B02F126
:100650006F05ED0002F16E0089E702F15C05ED0027
:1006600002F15B0083E714468EE70123821078686D
:1006700003FA02F202437A60234686E7C7E90411CF
:10068000C1E902004C60CB50B4E7B2F5AA7F06D8AE
:10069000DA0B02F17805ED0002F1770067E740F22E
:1006A0005450824206D89A0C02F17D05ED0002F109
:1006B0007C005CE74FF47E757E2058E743F0010034
:1006C0004860136096E700BF18870720208707203F
:1006D000248B0720943E0820F03070470048704774
:1006E000188C072000487047188C0720830770B4C7
:1006F000CDB23DD0541E0AB30378AB421FD0431C89
:1007000005E014F1FF3419D30278AA4217D013F090
:10071000030F184603F10103F3D1032C11D84CB396
:100720000378AB420BD00444431C02E00278AA4297
:1007300005D09C42184603F10103F7D1002070BC9C
:10074000704706460A0292B22A4342EA02423368DE
:1007500030465340A3F1013121EA030313F0803FF7
:1007600006F10406DCD1043C032C3046EFD8D6E772
:100770001446D2E72046E2E7C36C70B505460C4646
:100780004BB153F8240080B1026843F824200023C1
:10079000C0E9033370BD21220421FCF7EFFD0346BD
:1007A000E8640028EDD1002070BD012101FA04F6B3
:1007B000721D28469200FCF7E1FD0028F3D0C0E945
:1007C0000146E4E731B1C36C4A6853F8220008607F
:1007D00043F82210704700BFF0B54FF0000C0C46F4
:1007E00005460E6983B001F1140738680CF1010C5D
:1007F00081B202FB0133010C180C02FB01019BB218
:1008000003EB0143664547F8043B4FEA1143ECDC38
:100810003BB1A268B24207DD04EB860201365361A8
:100820002661204603B0F0BD61682846013101937E
:10083000FFF7A2FF0746226904F10C010232920081
:100840000C30FDF7B3F8EA6C6168019B52F82100A7
:10085000206042F821403C46DEE700BF2DE9F84326
:10086000234C1E46083384FB034CDB17C3EB6C0C94
:10087000BCF1010F07460C469046089D35DD01236B
:1008800000215B009C4501F10101FADC3846FFF7CD
:1008900073FF0123B8F1090FC0E9043521DD04F12C
:1008A00009094D46444415F8013B0146303B0A22F4
:1008B0003846FFF791FFAC42F5D109EB0804083C3C
:1008C00046450CDDA6EB0806264414F8013B01461C
:1008D000303B0A223846FFF77FFFA642F5D1BDE83C
:1008E000F8834FF009080A34EAE70021CEE700BF99
:1008F000398EE338020C12040346C2B903041020F7
:1009000013F07F4F04BF1B02083013F0704F04BF79
:100910001B01043013F0404F04BF9B000230002B3A
:1009200004DB5B0001D501307047202070470020B8
:10093000E6E700BF0368014613F0070207D0DA07B5
:100940001FD498071FD55B080B600120704798B231
:10095000A0B1104613F0FF0F04BF1B0A08301A079E
:1009600004BF1B0904309A0704BF9B080230DA0752
:1009700002D45B080BD001300B6070471B0C1020B9
:10098000E8E7002070479B080B600220704720209A
:10099000704700BF10B50C460121FFF7EDFE0122A4
:1009A000C0E9042410BD00BF2DE9F04F0D691469A2
:1009B00085B0A5420E46914604DA2A464E462546A3
:1009C00089461446B36805EB040871684345B8BF0F
:1009D0000131FFF7D1FE00F1140B0BEB880AD34570
:1009E000019005D25B46002243F8042B9A45FBD8C0
:1009F00009F1140303EB840406F11402A34202EB91
:100A0000850E62D2A4EB0904153C24F003042344B0
:100A1000CDE902A809F1100990469A4605E0090CB3
:100A20002CD1CA450BF1040B4DD059F8041F1FFA05
:100A300081FCBCF1000FF2D047465E46002100E089
:100A40000646304657F8042B346893B2A5B2120C10
:100A50000CFB0353240C0CFB02420B4402EB13412E
:100A60009BB243EA0143BE454FEA114140F8043BC3
:100A7000E6D87160D9F80010090CD2D0DBF800304C
:100A800040461E465D46002200E025462C4607886B
:100A9000360C01FB07669BB2324443EA024344F83A
:100AA000043B50F8043B6E681B0CB7B201FB0373A8
:100AB000864503EB12434FEA1342E6D8CA456B6002
:100AC0000BF1040BB1D1DDE902A8B8F1000F0BDD89
:100AD0005AF8043CAAF1040A1BB105E05AF8043D97
:100AE00013B9B8F10108F9D10198C0F8108005B028
:100AF000BDE8F08F12F003032DE9F04114460746DC
:100B00002ED10D46A4101CD0BE6C96B3E3074FF057
:100B1000000806D4641014D03068A8B10646E30774
:100B2000F8D5324629463846FFF73EFFB5B16A6828
:100B3000FB6C641053F82210296043F822500546DC
:100B4000EAD12846BDE8F081324631463846FFF703
:100B50002BFF3060C0F800800646E0E70546D9E785
:100B60000B4A013B52F823200023FFF735FE0546D0
:100B7000C8E701213846FFF7FFFD40F2712101224D
:100B80000023C0E904210646B8640360BEE700BF45
:100B9000785A0B000B692DE9F047541104EB030858
:100BA0008B6808F101059D420E469146074649684B
:100BB00004DD5B009D4201F10101FADC3846FFF7DC
:100BC000DBFD002C00F114033CDD002203EB84016B
:100BD00043F8042B8B42FBD1346906F1140319F05E
:100BE0001F0903EB840C25D0C9F120024FF0000A45
:100BF00000E071468E461C6804FA09F444EA0A04CF
:100C00004EF8044B53F8044B634524FA02FAF0D330
:100C1000C1F804A0BAF1000F01D008F10205FB6C85
:100C20007268013D53F822100561316043F822607B
:100C3000BDE8F087043953F8042B9C4541F8042F94
:100C4000F9D8ECE71946C7E730B40B6905460069E7
:100C5000C01A0FD19B001435143119442B4401E004
:100C60009D4207D253F8044D51F8042D9442F7D019
:100C700002D3012030BC70474FF0FF30FAE700BFCD
:100C80002DE9F84F0C6913698946E41A002C924645
:100C900001F1140702F1140B14D19B00FA185B4404
:100CA00001E0BA4262D952F8045D53F8041D8D4246
:100CB000F7D009D23A464B465F46D14693469A460C
:100CC000012401E0F6DB0024D9F80410FFF754FDFD
:100CD0005E464FF00008D9F810C0DAF810303D46F3
:100CE000C4600BEB830E07EB8C0700F1140455F87E
:100CF000049B56F8042B1FFA89F343441FFA82F829
:100D0000120CA3EB0803C2EB194202EB23429BB285
:100D100043EA0243B64544F8043B4FEA2248E6D88A
:100D2000AF4217D9A6462E4656F8043B99B2414425
:100D30000A1402EB134289B241EA0243B7424EF869
:100D4000043B4FEA2248EFD8ED432F4427F0030736
:100D500004373C44043C2BB954F8043D0CF1FF3CEF
:100D6000002BF9D0C0F810C0BDE8F88F0021FFF7C4
:100D700003FD01220023C0E90423BDE8F88F00BF72
:100D80000F4B0B40A3F15073002B02DD00201946DE
:100D900070475B421B15132B0BDD143B1E2BD7BF7B
:100DA00001220123C3F11F0302FA03F300211846B5
:100DB00070474FF40022002042FA03F1704700BF51
:100DC0000000F07F2DE9F041076900F1140606EB01
:100DD000870757F8048C4046FFF78CFDC0F12003CD
:100DE0000A280B60A7F1040218DC96422CBF0022EF
:100DF00057F8082CC0F10B0328FA03F138BFDA408A
:100E000000F1150341F07F5508FA03F345F440154E
:100E100043EA020420462946BDE8F0819642A0F14B
:100E20000B031DD257F8080CE3B108FA03F848F099
:100E30007F58C3F12001A7F1080220FA01FC48F411
:100E40004018964200FA03F048EA0C0503D257F81E
:100E50000C3CCB401843044620462946BDE8F081AF
:100E600033B9184648F07F5545F440150446F3E77A
:100E7000002008FA03F343F07F5545F4401504467B
:100E8000EAE700BF2DE9F0411C4682B00121DDE90F
:100E900008659046FFF770FC2346C4F30A540746E2
:100EA000C3F313030CB143F48013B8F100020193B0
:100EB0001ED002A840F8082DFFF73CFD70BBDDE90D
:100EC00000237A61002B0CBF01210221BB61396133
:100ED000CCB907EB8103A0F2324030601869FFF70C
:100EE00009FDC0EB41102860384602B0BDE8F08132
:100EF00001A8FFF71FFD0122019B11462030C7E921
:100F00000423002CE5D0A4F233430344C0F13500A0
:100F100033602860384602B0BDE8F081019BC0F123
:100F20002002009903FA02F20A43C34001937A6156
:100F3000C8E700BF2DE9F04383B00F466946064677
:100F4000FFF740FF04460D46384601A9FFF73AFF78
:100F500036693A698946DDE90013B61ACB1A03EB04
:100F60004613002B80460BDD05EB03573D464246FA
:100F70004B4620462946FBF789FF03B0BDE8F083C6
:100F8000C3EB033309EB03518946F0E71728D0B5CB
:100F900004460ADD002000260749084F32463B463A
:100FA000FBF74AFE013CF9D1D0BD054B03EBC00471
:100FB000D4E90401D0BD00BF0000F03F0000244090
:100FC000785A0B0070B414694D1E02F1140303EB40
:100FD00084016D1101358B4200EB85040CD2051F95
:100FE00053F8046B994245F8046FF9D88B1A153BF6
:100FF00023F0030304331844844204D9002340F847
:10100000043B8442FBD870BC704700BF036910B436
:101010004C11A34200F114020FDA02EB83039A424F
:101020001CD253F8040C043B18B114E053F8041D0F
:1010300089B99A42FAD310BC704702EB8403EEDD03
:1010400011F01F01EBD052F8244024FA01F000FA0D
:1010500001F18C42E3D0012010BC70470020EAE788
:101060002DE9F04F936883B09046002B6CD0176841
:1010700082460C46086808378D6842E0A38913F45D
:10108000906F2DD0D4E9041505EB4505A0EB010BBD
:1010900005EBD575701C6D105844A8422A4684BFD4
:1010A00005462A465B0536D511465046FCF7DAF967
:1010B00000283AD05A4621690190FCF777FCA289B2
:1010C000019B22F4906242F08002A281A5EB0B0208
:1010D00003EB0B006561B346354623612060A260D7
:1010E0005A46494600F08CFDD8F80830A2682068BE
:1010F000551B58449E1BA5602060C8F808601EB3AD
:10110000083757E90296AB46002EF9D0AE42B5D269
:101110003546B346E4E7504600F0D4FD03460028C8
:10112000D4D121695046FFF7E3F90C2300224FF098
:10113000FF30CAF80030A38943F04003A381C8E917
:10114000012203B0BDE8F08F0020C8F8040003B00E
:10115000BDE8F08F2DE9F04FABB00C4602918989C4
:1011600093460906CDE9050303D52369002B00F05A
:1011700093840023CDE90E330DF1680A089301939F
:10118000CDF834A09BF80030002B00F0F080252B28
:101190005C4602D11CE0252B03D014F8013F002B44
:1011A000F9D1A4EB0B057DB1DDE90E3201332A4400
:1011B000072BCAE900B5CDE90E3200F3CF800AF162
:1011C000080A019B2B4401932378002B00F0CF8069
:1011D00000214FF00003084688464FF0FF398DF894
:1011E0002F306378049104F1010B0BF1010BA3F193
:1011F0002002582A00F24383DFE812F0170141036E
:1012000041031201410341034103410341034103EF
:10121000050100014103FB00E1004103DC00CD00BA
:10122000CD00CD00CD00CD00CD00CD00CD00CD0056
:10123000410341034103410341034103410341038E
:1012400041034103E30241034103410341034103DD
:10125000410341034103410341039F004103410313
:10126000410341034103590041034103CB024103C0
:10127000410341034103410341034103410341034E
:101280004103AD0179014103410341037401790137
:1012900041034103670141031303A100FB02620103
:1012A0004103420141035B00410341031F0148F038
:1012B000100818F0200F00F0D582069CB9F1FF3F0E
:1012C00004F1070424F0070303F1080206924FF02B
:1012D0000002D3E900678DF82F204FF0010340F0A2
:1012E0009E820024CDF80080012B00F06E83022B3B
:1012F00000F0D5821AA900E02946F20842EA4772B6
:10130000F80806F0070307461646303356EA070288
:1013100001F8013C01F1FF35EED1009AD20740F10E
:10132000CE82302B00F0CB823023023905F8013C0D
:101330001AAB5B1A03930D46C4E248F0100818F08C
:10134000200300F08582069C073424F0070303F194
:101350000802D3E900670692002358E20DAA029919
:101360000598FFF77DFE48B90DF1680A29E70F9B44
:1013700023B105980DAA0299FFF772FE029B9B8983
:1013800013F0400F019B18BF4FF0FF3301930198FA
:101390002BB0BDE8F08F0024A3F130021BF8013B15
:1013A00004EB840402EB4404A3F13002092AF5D9CA
:1013B00004941CE748F080089BF8003015E79BF880
:1013C00000300BF101042A2B00F0CF83A3F130028F
:1013D000092A00F2B8834FF0000914F8013B09EB29
:1013E000890902EB4909A3F13002092AF5D9A3467C
:1013F000FDE69BF8003048F00408F6E69BF8003064
:1014000001212B20F1E6069B1C681A1D002C049478
:101410009BF800300692BFF6E8AE62420492EAE71B
:1014200048F001089BF80030DFE69BF80030002808
:101430007FF4DBAE01212020D7E6002940F0B783FE
:10144000B74A18F0200F089200F0AC81069C0734D0
:1014500024F0070202F108010691D2E9006718F0B2
:10146000010F00F00A8256EA070200F006823022DD
:101470008DF8313048F002088DF830200223C6E1A3
:101480004FF00002069B8DF82F201D681C1D002DBB
:1014900000F04D83B9F1FF3F00F00B834A46002175
:1014A0002846FFF723F9002800F05283431B0694D7
:1014B0000393CDF800809DF82F404FF0000901E222
:1014C00048F020089BF800308FE69BF800306C2B2A
:1014D00003BF9BF8013048F020080BF1010B48F0E6
:1014E000100882E648F040089BF800307DE60029AD
:1014F00040F0578318F0200F00F06C81069C0734F1
:1015000024F0070303F108020692D3E90067002ED6
:1015100077F10003C0F27F829DF82F40B9F1FF3FC1
:1015200000F05182012328F08002009256EA07025F
:101530007FF4DAAEB9F1000F40F0CC82002B40F01E
:10154000608218F00103039300F0878230232AADF4
:1015500005F8413DB6E101264FF00001069A8DF8ED
:101560002F10136803968DF84030131D069310ADAD
:101570004FF00009CDF80080009B009813F00203A3
:1015800018BF023610F08400DDE90E1207903CD13E
:101590000498841B002C38DD102C40F3D082614F5E
:1015A0005046B2461E463B464FF010082F461D4699
:1015B00004E0103C102C00F1080015DD0131103260
:1015C0000729CDE90E12C0E90058F2DD0DAA0299F3
:1015D0000598FFF745FD00287FF4D0AEDDE90E1237
:1015E000103C102C1AA8E9DC3346564682462846A1
:1015F0003D460746013122440729CDE90E12CAE9CA
:10160000007400F311820AF1080A9DF82F4001F1DD
:10161000010C0AF1080094B101270DF12F043A449E
:10162000BCF1070FCDE90EC2CAE9004700F3A9815A
:101630008F1C0AF1100461468246BC4620467BB1ED
:1016400002210CAB0A44BCF1070FCDE90EC2CAE976
:10165000003100F3A881614682460CF1010C08308C
:10166000079B802B00F03881039BA9EB0307002F19
:1016700039DD102F40F3588253464FF010082A4CA2
:10168000DDF81490DDF808A004E0103F102F03F1FE
:10169000080315DD013110320729CDE90E12C3E927
:1016A0000048F2DD0DAA51464846FFF7D9FC002854
:1016B0007FF464AEDDE90E12103F102F1AABE9DCA7
:1016C0009A4601F1010C08333A44BCF1070F0F921E
:1016D000CAE90047CDF838C000F383819A460CF17F
:1016E000010C03F10800039BBCF1070F1A440F9291
:1016F000CAE90053CDF838C000F32F81009B5B0787
:1017000038D5049B9C1B002C34DD102C0E9B40F321
:1017100018821025034FDDF81480DDF808900AE0E8
:1017200040590B00A05B0B00B05B0B00103C102C71
:1017300000F1080015DD01331032072BCDE90E3220
:10174000C0E90075F2DD0DAA49464046FFF788FC66
:1017500000287FF413AEDDE90E32103C102C1AA8DD
:10176000E9DC01332244072BCDE90E32C0E90074D5
:1017700000F36981019B0499B142ACBF5B189B19CE
:101780000193002A40F0F48000230DF1680A0E93C3
:10179000F8E4002940F00882BC4A18F0200F0892B3
:1017A0007FF454AE069A18F0100F52F8046B0692AC
:1017B00040F0388118F0400F00F03481B6B20027B5
:1017C0004DE6002940F0E48148F0100818F0200FA1
:1017D0007FF494AE069B18F0100F53F8046B069339
:1017E00040F0138118F0400F00F00F8136B2F71768
:1017F0008DE647F63003069AADF83030131D069398
:10180000A34B002708930223166848F002084FF004
:101810000002B9F1FF3F8DF82F203FF462AD0024A4
:1018200081E6002940F0B781069A18F0200F02F1F6
:101830000403126840F0138118F0100F40F0458146
:1018400018F0400F00F0418101990693118099E44E
:10185000069A52F8046B069218F0100200F00F81FD
:101860000027D4E7069B18F0100F53F8046B06937B
:1018700000F0FE8000270123C9E70223C7E7002903
:1018800040F08C81002B3FF472AD01268DF8403082
:101890004FF0000303968DF82F3010AD68E60898DE
:1018A0001AAD330943EA0773390906F00F020F46F0
:1018B0001E46835C05F8013D56EA0703F1D11AABD9
:1018C0005B1B0393039B4B45B8BF4B461E46002C46
:1018D0003FF452AE01364FE6049B9F1B002F7FF76B
:1018E000C3AE102F40F33D816A4C50464FF01008B4
:1018F000B2462E462546059C04E0103F102F00F10D
:10190000080015DD013110320729CDE90E12C0E9BA
:101910000058F2DD0DAA02992046FFF7A1FB00282E
:101920007FF42CADDDE90E12103F102F1AA8E9DC70
:101930002C46354656468246013100F108033A44AA
:1019400007290F92CAE900470E9100F3DD8001F1EB
:10195000010C03F108009A4686E60DAA0299059843
:10196000FFF77EFB00287FF409AD1AA80F9AC5E6A1
:101970000DAA02990598FFF773FB00283FF404AF06
:10198000FCE40DAA029905980993FFF769FB00286A
:101990007FF4F4ACDDE90E120DF1680A01F1010CDF
:1019A0001CA8099B4BE60DAA02990598FFF758FB66
:1019B00000287FF4E3ACDDE90E120DF1680A01F1B5
:1019C000010C1CA84CE6CDF80080002F08BF0A2EA1
:1019D00080F0848001232AAD303605F8416D0393F1
:1019E00070E70DAA02990598FFF73AFB00287FF4EB
:1019F000C5ACDDE90E320DF1680A03F1010C1CA83B
:101A000071E6CDF80C901AAD5CE7F717002E77F170
:101A10000003BFF681AD2D24764267EB47078DF8B2
:101A20002F407BE500271AE50DAA02990598099336
:101A3000FFF716FB00287FF4A1ACDDE90E120DF1D3
:101A4000680A099BE1E50DAA02990598FFF708FBD2
:101A500000287FF493AC0F9A8CE61AAD32E7019917
:101A60000693CD1708462946C2E90001FFF78ABB55
:101A700018F0400F18BFB6B200270123C7E618F0D0
:101A800040031CBF1346B6B20027C0E62C590B001A
:101A900040590B00B05B0B004021FBF7E3FC029BBD
:101AA0001860186100286BD04023029A5361FFF739
:101AB00060BB28460694CDF80080FCF72BF94FF068
:101AC000000903909DF82F40FCE6019911600693F0
:101AD000FFF758BB012B7FF40AAC7BE71AAD304609
:101AE00039460A220023FBF7B9FA303205F8012DF6
:101AF0003046394600230A22FBF7B0FA06460F4665
:101B000056EA0703EBD1DAE60DAA02990598FFF72A
:101B1000A7FA00287FF432ACDDE90E120DF1680A55
:101B200001F1010C1CA89FE50346224CCCE54E4672
:101B3000062E28BF0626069403961F4D18E51F4F54
:101B400058E51E4F0DE6A3464FF00009FFF74FBBC7
:101B5000CDF80C900694CDF8008081469DF82F407A
:101B6000B0E603466146134CE9E6069D9BF801305A
:101B70002A68A34642EAE2792A1D0692FFF735BB9E
:101B80004FF0FF320C230192059A1360FFF7FFBB61
:101B90008DF82F0018E68DF82F0045E68DF82F0000
:101BA00070E68DF82F00A5E48DF82F00F4E58DF890
:101BB0002F0045E4B05B0B0054590B00A05B0B00F9
:101BC00010B4034CD4F8E440A44610BC604700BFF6
:101BD000288B072082B049B15AB16BB113780B60E2
:101BE0001278101C18BF012002B0704701A9002A0A
:101BF000F3D1104602B070476FF00100F4E700BF68
