:0200000280007C
:10000000505D0820F5000800895508000903080024
:10001000895508008955080089550800000000002E
:1000200000000000000000000000000021070800A0
:10003000895508000000000075070800B107080096
:100040008955080089550800895508008955080018
:100050008955080089550800895508008955080008
:10006000A13808000000000000000000C1030800E3
:10007000190408000000000000000000000000005B
:10008000000000003D3A08005D3C0800D93D080032
:100090000000000089550800E95208008955080051
:1000A000895508000000000089550800895508009E
:1000B00089550800895508008955080089550800A8
:1000C000895508000000000000000000000000004A
:1000D000E966080089550800895508008955080017
:1000E0008955080089550800000000009930080073
:1000F000713108004FF0005208B5194B1A631A61AC
:100100004FF48052C3F83022C3F81022154A164B20
:100110009A4219D10021154B154A93421DD3154B14
:10012000154A23F0604121F07F0103F16043B3F5EC
:10013000801F91603EBF936843F0005393600BF0C3
:100140004DFB00F079F8FEE70C49043A8B42E1D20E
:1001500052F8040F43F8040BF8E743F8041BDCE7FC
:10016000000E0E40942A090000800720908C072082
:10017000503D08200000080000ED00E0908C0720B2
:1001800010B5054C237833B9044B13B10448AFF3D1
:1001900000800123237010BD908C07200000000018
:1001A000942A09000C4B43B10C4810B50C49AFF32D
:1001B00000800C48036823B910BD0A48036833B9AE
:1001C0007047094B002BF7D0BDE810401847064B8D
:1001D000002BF5D0184700BF00000000942A09004A
:1001E000948C0720942A090000000000034A044B65
:1001F0001A600022034B1A60704700BFD4810720A9
:100200009C320820B08C0720024A0221032003F010
:1002100097B900BF31F90800024A0121002003F01C
:100220008FB900BF7FF908000378132B03D1407802
:1002300008B905F0D3BA70477FB503F04FF900F065
:1002400071F903F04BFA03F0CFFE05F0DDFA01205F
:1002500005F0D4FA012005F0C1FA002005F0BEFA3D
:1002600003F0DCF81B49072003F008F81A490820BE
:1002700003F004F81949092003F000F81849132085
:1002800002F0FCFF03F0BCFA1649174A0491174923
:100290001378039102929178527801910092012192
:1002A000134A002003F04CF90AF052FA06F004FB5E
:1002B0000AF09DFB03F0C2FE00F006FA0D4A012190
:1002C000002003F03DF900F023FC002007B05DF8AA
:1002D00004FB00BFED010800190208000902080034
:1002E000290208005EF9080098F9080067F908007B
:1002F00040F9080073F9080030BF024A136801335F
:1003000013607047B08C0720064A074913688B4278
:1003100002D8013313607047002001211060034AA6
:1003200003F00EB9AC8C0720F5FF090024F9080092
:1003300038B56424044D00212A46084603F000F92C
:10034000013CF8D138BD00BF8FF908000720704785
:100350000620704701207047074B1A680AB9074A00
:100360001A601A68064910448142A6BF18601046F8
:100370004FF0FF30704700BFB48C0720505D08205D
:10038000FC7F082010B50446072CFDD8DFE804F0F8
:100390000B04040C0C0C0C0C04F0FAFD003018BF1C
:1003A00001200028F0D010BD04F070FEF6E708B57B
:1003B0000B2004F083FEBDE808400C2004F07EBE54
:1003C00010B5124804F02BFF8107044606D5022120
:1003D0000E4804F022FF01220D4B1A70E20307D5EC
:1003E0004FF48031094804F018FF0122084B1A70BD
:1003F000E3040AD54FF48051044804F00EFF054889
:1004000003F08AF80122024B1A7010BD000E0E4054
:10041000C08C0720A4F9080010B50C4804F0FFFEBA
:100420000204044607D54FF40041084804F0F5FEE5
:100430000122074B1A70E30307D54FF480310348BC
:1004400004F0EBFE0122024B1A7010BD00100E40AA
:10045000C08C072038B5FFF7AAFF02231A484FF4D3
:1004600080544361C0F8A0304FF40043174D102270
:100470006B61C5F8A0304461C0F8A0404466446593
:100480004462C0F88040036F114923F4805303672E
:1004900004F0DBFE10224FF4C031284604F0D5FEF4
:1004A0004FF4006200210B4BC3F88020C3F8802179
:1004B00083F80B131A60C3F88040C3F8804183F8B7
:1004C0000C131C6038BD00BF000E0E4000100E4023
:1004D0000210010000E100E008B50F490F4804F0E8
:1004E00099FE4FF4C0310E4804F094FE012004F050
:1004F00005FE022004F002FE082004F0FFFD80202B
:1005000004F0FCFD4FF4805004F0F8FDBDE8084015
:100510004FF4005004F0F2BD02100100000E0E4036
:1005200000100E402DE9F041002486B04FF4807198
:100530004D4804F00FFF08214B4804F003FF4A48E0
:1005400004F010FF494BDFF870811C70FFF782FF49
:10055000FFF7C2FF2046FFF715FF204604F0B4FC6A
:1005600004F066FD04F058FD414805F077F805F009
:100570000FF8FFF71CFF04F0BBFA3E4F3E4D40461C
:1005800002F0CAFF3B784FF000563C4C43B94FF4A1
:1005900080536E636363FFF79FFF02F0B7FFEEE7E0
:1005A000374802F0B9FF4FF480532E633548236378
:1005B00004F060FE0446002004F0F8FC0320FFF77E
:1005C000E1FE002004F0A0FC05F07AF8FFF7EFFE52
:1005D00004F01AF94FF400412B4804F079FE2B4A3D
:1005E00003460121002002F0ABFF1F4B01205D6993
:1005F00004F02EFE264AC4F3022301900121009547
:10060000002002F09DFF0120002104F027FE214B75
:10061000B3F5202F34BF2048204802F07DFF204B47
:1006200004211B680020C3F30323092B0CBF4FF4E4
:1006300000324FF480221B4B1A6004F0FBFE10B115
:10064000194802F069FF042102A804F07DFF10B1EF
:10065000164802F061FF059A154B16481A6002F021
:100660005BFF06B0BDE8F081101A0E40B88C072081
:1006700000BD0105C08C0720000E0E4000100E408A
:10068000BBF90800001A0E40501A0E40C5F90800C8
:10069000F3F908002505080000FA080009FA080027
:1006A00040090E40BC8C072012FA08002DFA080001
:1006B000C48C072054FA0800AEF90800014804F081
:1006C000D3BD00BF001A0E4008B5094A0121002021
:1006D00002F036FF03F0B8FC072805D007F03AF81F
:1006E000BDE8084003F0E4BC02F012FCF8E700BFEC
:1006F00069FA080003480068006880F3088862B659
:1007000000DF00BF08ED00E04FF0807300E90A0051
:10071000002340F8202C40F80C3C40387047000083
:10072000064B19680868B0E8F00F80F309884FF0AD
:10073000000080F311884EF00D0E7047C88C072022
:100740004FF0A00383F31188BFF36F8FBFF34F8F78
:10075000024A136801331360704700BF908007207E
:10076000034A1368013B13600BB983F31188704788
:1007700090800720EFF309800C4B1A6820E9F00FF6
:1007800010602DE908404FF0A00080F3118800F0C0
:100790003DFB4FF0000080F31188BDE80840196868
:1007A0000868B0E8F00F80F309887047C88C07200C
:1007B0004FF0805208B5094B1A60EFF311834FF0E8
:1007C000A00282F31188BFF36F8FBFF34F8F00F049
:1007D000EDF9002383F3118808BD00BF04ED00E0AC
:1007E000034A044B1A60072243F8042C704700BFE9
:1007F0001F48010014E000E008B5084B1A6842F4F5
:1008000070021A601A6842F070421A60FFF7E8FF3F
:100810000020034B1860FFF76DFF08BD20ED00E0DE
:100820009080072070470000064A13681968064B3D
:1008300019B94FF0FF321A6070471268D268D26857
:100840005268F8E7CC8C0720548D0720F8B51B4B75
:100850001B4E1D68044630680F46043000F0BDFE94
:10086000334640B901203168164EC96A3268884063
:1008700022EA00023260621C07D137B119681248BF
:100880000431BDE8F84000F085BE2C441A68A5424A
:10089000546007D90D4A10681968BDE8F840043162
:1008A00000F084BE0A4A10681968043100F07EFE28
:1008B000084B1A68944238BF1C60F8BD9C8D072015
:1008C000C88C0720248D0720748D0720D08C07202A
:1008D000CC8C0720548D072080B5DFF86880154F39
:1008E000154C164E236873B9154B1B68012B07D99D
:1008F0004FF08053C8F80030BFF34F8FBFF36F8FB6
:10090000FFF7FAFCECE7FFF71BFFFB68DD68281D2B
:1009100000F063FE3368013B33602368013B2360D2
:10092000FFF71EFF286B01F013F9284601F010F9BC
:10093000D8E700BF888D0720148D0720108D072071
:10094000D48C072004ED00E02DE9F84F4FEA820A2D
:10095000804650460D4699460B9E01F067F80746C3
:1009600098B1582001F062F8044658B107637DB988
:100970004FF0A00383F31188BFF36F8FBFF34F8F46
:1009800000BFFDE7384601F0E3F84FF0FF3591E096
:100990005246A52138460BF061FA236BAAF1040AEE
:1009A0009A442AF0070A6B1E04F13402093559787B
:1009B00002F8011B13F8011F09B19D42F7D10A9DEE
:1009C0004FF0000B022D28BF0225271DE562A5640C
:1009D000384684F83DB0C4F84CB000F0D8FDC5F1FD
:1009E000030504F1180000F0D2FDC4F850B02461F2
:1009F000A561646284F854B04A4641465046FFF708
:100A000083FE206006B13460FFF79AFE304B314E12
:100A10001A68DFF8F48001321A603268002A4CD17B
:100A200034601B68012B1FD12B4800F0A5FDDFF8B7
:100A3000DC902A4800F0A0FD294D2A4800F09CFDDA
:100A4000484600F099FD284600F096FD264800F043
:100A500093FD264800F090FD254800F08DFD254BC4
:100A6000C3F80090244B1D600125244A24491368D3
:100A7000086801331360E26A236405FA02F3034352
:100A800014200B60144B394600FB023000F082FD4D
:100A9000FFF766FED8F8003063B13368DA6AE36ABC
:100AA0009A4207D24FF08052164B1A60BFF34F8F15
:100AB000BFF36F8F2846BDE8F88FD8F80030002BC1
:100AC000D2D13368DA6AE36A9A4298BF3460CBE7DE
:100AD000108D0720C88C0720D48C0720E88C0720B5
:100AE0003C8D0720FC8C07205C8D0720888D07201B
:100AF000748D0720CC8C0720D08C0720208D0720F8
:100B0000248D072004ED00E0708D0720288D07203C
:100B100013B50024184B00940193C82223461749AB
:100B20001748FFF711FF012818D100F0B1FD012887
:100B300014D14FF0A00383F31188BFF36F8FBFF37D
:100B40004F8F4FF0FF320F4B1A600F4B18600F4B57
:100B50001C6002B0BDE81040FFF74EBE013009D165
:100B60004FF0A00383F31188BFF36F8FBFF34F8F54
:100B700000BFFDE702B010BD508D07207FFA0800CE
:100B8000D9080800548D0720708D07209C8D072000
:100B9000024A136801331360704700BF1C8D0720A1
:100BA000014B1868704700BF9C8D07202DE9F84F56
:100BB0003C4B1B68002B6ED13B4B1C6801341C6006
:100BC000C4B93A4B1A6812684AB14FF0A00383F3D4
:100BD0001188BFF36F8FBFF34F8F00BFFDE7344A1B
:100BE0001968106818601160324A13680133136085
:100BF000FFF71AFE304D4FF0000B2B682F4F9C4231
:100C00000AD3DFF8A8A0DFF8C490DAF80020126851
:100C1000A2B94FF0FF322A603A68294BD16A1422F8
:100C20004A439A58022A28BF4FF0010B254A1268FE
:100C3000002A0CBF58460120BDE8F88FDAF80020E2
:100C4000D268D66871688C4201D22960E4E706F167
:100C50000408404600F0C1FCB16A19B106F1180061
:100C600000F0BBFC01224FF0140EF06AD9F80030FE
:100C700002FA00F11943124BC9F800100EFB0030C4
:100C8000414600F087FC3868F16AC26A914228BF89
:100C90004FF0010BB9E70C4A4FF0000B136801331A
:100CA0001360C3E71C8D07209C8D0720CC8C072088
:100CB000D08C0720588D0720548D0720C88C072022
:100CC000D48C0720A08D0720188D0720248D0720A5
:100CD0002DE9F843314C23684BB94FF0A00383F35F
:100CE0001188BFF36F8FBFF34F8F00BFFDE7FFF792
:100CF00027FD2368013B236024682CB10024FFF703
:100D00002FFD2046BDE8F883254B1B68002BF5D04E
:100D1000DFF8A490234FDFF8A480D9F80030E3B9BE
:100D20000CB1FFF781FD204D2C6844B101271F4E07
:100D3000FFF73CFF00B13760013CF9D12C601B4B41
:100D40001B68002BDAD04FF08052194B1A60BFF3AA
:100D50004F8FBFF36F8F0124D1E7D9F80C300125F5
:100D6000DC68261D04F1180000F037FC304600F066
:100D700034FC1420E26A396805FA02F30B4300FBE5
:100D8000028031463B6000F005FC0A4BE26A1B68BA
:100D9000DB6A9A4224BF054B1D60BEE71C8D07200D
:100DA000108D0720248D0720188D0720A08D072087
:100DB00004ED00E0C88C07205C8D0720D48C072050
:100DC00008B540B94FF080520E4B1A60BFF34F8FF9
:100DD000BFF36F8F08BD0C4B196849B14FF0A003EA
:100DE00083F31188BFF36F8FBFF34F8F00BFFDE711
:100DF000FFF7CEFEFFF72AFDFFF76AFF0028E1D0DC
:100E000008BD00BF04ED00E01C8D0720184B10B595
:100E10001A68184B12B101221A6010BD1A60164BE5
:100E20001B68B3FA83F31422DBB2C3F11F035A43E6
:100E300012498C5888184CB94FF0A00383F31188DD
:100E4000BFF36F8FBFF34F8F00BFFDE744680832D9
:100E500064680A44944208BF6268446008BF426004
:100E6000142202FB03135B68DA68054BD4E700BF6A
:100E70001C8D0720A08D0720248D0720D48C0720EF
:100E8000C88C072010B50C4648B94FF0A00383F377
:100E90001188BFF36F8FBFF34F8F00BFFDE7054B86
:100EA0001968183100F082FB2046BDE8104001218E
:100EB000FFF7CCBCC88C072038B50D46144648B99E
:100EC0004FF0A00383F31188BFF36F8FBFF34F8FF1
:100ED00000BFFDE7074B1968183100F05BFB002CE1
:100EE000214608BF2846BDE8384018BF4FF0FF3004
:100EF000FFF7ACBCC88C072038B5C368DC684CB9B8
:100F00004FF0A00383F31188BFF36F8FBFF34F8FB0
:100F100000BFFDE704F11805284600F05EFB114B09
:100F20001B68E3B9251D284600F057FB01230E4935
:100F3000E26A08689340034314200B6029460B4B78
:100F400000FB023000F026FB094BE26A1B68DB6AFB
:100F50009A4285BF0120074B0020186038BD294602
:100F60000548EFE71C8D0720248D0720D48C07202F
:100F7000C88C0720A08D07205C8D072010B5044683
:100F800048B94FF0A00383F31188BFF36F8FBFF30D
:100F90004F8F00BFFDE7FFF7D3FB054B1B682360B6
:100FA000044B1B686360BDE81040FFF7D9BB00BF6E
:100FB000588D07209C8D0720034B1B680360034B53
:100FC0001B684360704700BF588D07209C8D072029
:100FD00070B50C46054648B94FF0A00383F311885D
:100FE000BFF36F8FBFF34F8F00BFFDE749B94FF0DD
:100FF000A00383F31188BFF36F8FBFF34F8F00BF40
:10100000FDE7FFF79DFB0F4B69681A682368581CC2
:101010000ED00D482E680068864201D08A420ED25A
:10102000521A9A4209D29B1A23602846FFF7C4FF3E
:101030000024FFF795FB204670BD002323600124A8
:10104000F7E700BF9C8D0720588D07200122014B38
:101050001A607047A08D072008B9064B1868026B0C
:101060001346981A13F8011BA529FAD0C0F38F0074
:10107000704700BFC88C0720014B1868704700BF3D
:10108000C88C0720054B1B6833B1054B1B68002B30
:101090000CBF02200020704701207047708D072090
:1010A0001C8D07202DE9F0410446002836D0244A43
:1010B000C36A11681746C96A8B4238D214268269FE
:1010C000204D002AA8BF3A6806FB0353A2BFD26A8C
:1010D000C2F10302826142699A4222D100F10408FE
:1010E000404600F07AFA184B48B9E06A4643AA59DC
:1010F0002AB901211A68814022EA01021A603A687D
:101100001968D26AE262012404FA02F00843186006
:101110001420414600FB025000F03CFA2046BDE896
:10112000F0813B68DB6AC3620120BDE8F08113688F
:10113000806CDC6AA0422CBF00200120BDE8F08159
:10114000C88C0720D48C0720248D0720F8B50446CE
:1011500008B90020F8BD234B1B68984209D04FF016
:10116000A00383F31188BFF36F8FBFF34F8F00BFCE
:10117000FDE7C36C4BB94FF0A00383F31188BFF3B5
:101180006F8FBFF34F8F00BFFDE7C16A826C013BD9
:101190009142C364DDD0002BDBD1051D284600F051
:1011A0001CFA114E114A50B91421E76A7943735859
:1011B0002BB901201368B84023EA00031360A36C25
:1011C000C3F10301E362A1610124116804FA03F091
:1011D000084310601420294600FB036000F0DAF990
:1011E0002046F8BDC88C0720D48C0720248D07200A
:1011F000F8B5044600284DD0C26C4AB94FF0A003A0
:1012000083F31188BFF36F8FBFF34F8F00BFFDE7EC
:10121000836C994238BF1946C36A8B423AD0012A7F
:1012200038D11D4A1268904209D14FF0A00383F3D0
:101230001188BFF36F8FBFF34F8F00BFFDE71426F8
:10124000164D826906FB0353002A4269C162A4BF9E
:10125000C1F1030181619A421CD1071D384600F09B
:10126000BCF9E26A0E4C40B95643AB592BB9012187
:101270002368914023EA010323600123142021689D
:1012800093400B432360394600FB0250BDE8F84011
:1012900000F080B9F8BD00BFC88C0720D48C0720AF
:1012A000248D0720044B1A681AB11968CA6C0132E0
:1012B000CA641868704700BFC88C07202DE9F04148
:1012C0001E4C1E4680460F461546FFF739FA236826
:1012D00093F85430022B14D0012123681A6D22EAAE
:1012E00008021A65236883F8541056B13046FFF798
:1012F000ADFA4FF08052124B1A60BFF34F8FBFF31D
:101300006F8FFFF72DFAFFF71BFA15B123681B6DDE
:101310002B602368002293F85430022B09BF01256B
:1013200000252368196D04BFB9431965236883F844
:101330005420FFF715FA2846BDE8F081C88C072035
:1013400004ED00E0F8B50E4617461D46044648B9C0
:101350004FF0A00383F31188BFF36F8FBFF34F8F5C
:1013600000BFFDE7FFF7ECF90DB1236D2B60022301
:1013700094F8545084F85430EDB2042F16D8DFE8B6
:1013800007F00A0307051100216D0E43266502E0F0
:10139000236D01332365012D15D00125FFF7E0F9F9
:1013A0002846F8BD022DF1D10025F7E7236D013362
:1013B000F1D04FF0A00383F31188BFF36F8FBFF319
:1013C0004F8F00BFFDE7261D304600F006F9144997
:1013D000E26A086805FA02F3034314200B60114B1C
:1013E000314600FB023000F0D5F8A36A4BB14FF054
:1013F000A00383F31188BFF36F8FBFF34F8F00BF3C
:10140000FDE7094BE26A1B68DB6A9A42C5D94FF0D7
:101410008052064B1A60BFF34F8FBFF36F8FBDE74B
:10142000248D0720D48C0720C88C072004ED00E011
:101430002DE9F843DDF820800E4691461D4604460E
:1014400048B94FF0A00383F31188BFF36F8FBFF348
:101450004F8F00BFFDE7FFF7E5F9EFF311874FF07E
:10146000A00383F31188BFF36F8FBFF34F8F0DB1CC
:10147000236D2B60022394F8545084F85430EDB25D
:10148000B9F1040F16D8DFE809F00A0307051100C7
:10149000216D0E43266502E0236D01332365012D86
:1014A00015D0012087F31188BDE8F883022DF1D112
:1014B0000020F7E7236D0133F1D04FF0A00383F351
:1014C0001188BFF36F8FBFF34F8F00BFFDE7A36A93
:1014D0004BB14FF0A00383F31188BFF36F8FBFF3BD
:1014E0004F8F00BFFDE7134B1B68FBB9261D30462D
:1014F00000F073F8104A1420E36A11689D400D4310
:10150000314615600D4A00FB032000F043F80C4BF8
:10151000E26A1B68DB6A9A42C3D90123B8F1000F63
:1015200001D0C8F80030074A1360BAE704F1180187
:101530000548EAE71C8D0720248D0720D48C07205E
:10154000C88C0720A08D07205C8D072038B5054684
:1015500008B9084B1D680024FFF7F2F895F85430DD
:10156000022B04BF85F854400124FFF7F9F8204608
:1015700038BD00BFC88C072000F1080343604FF05E
:10158000FF32C36003610023826003607047002361
:101590000361704743689A684B608A609A6851603B
:1015A0009960036808610133036070470A6830B5C9
:1015B000531C0AD103695A684A6091608B60596074
:1015C000036808610133036030BD00F108035C6803
:1015D0002568AA42EFD32346F9E741688268036988
:1015E0008A60826851605968884208BF5A60002248
:1015F00002611A68013A1A6018687047F8B50F4C12
:10160000FFF79EF82568ADB90D4F0E4E3846FFF72F
:10161000B3FF3046FFF7B0FF0B4B2A461F600B4B62
:1016200010211E201E6000F097FB206010B10849B9
:1016300000F0ACFEBDE8F840FFF792B8D88D072067
:10164000AC8D0720C08D0720A48D0720A88D072012
:1016500084FA0800914208B5416000610AD8D21AA4
:1016600083699A420DD2084B011D1868FFF79EFF4F
:10167000002008BD9A4201D2994202D2011D034BBB
:10168000F3E7012008BD00BFA88D0720A48D072027
:1016900007B5FFF7B3FF0E4B1B684BB94FF0A00324
:1016A00083F31188BFF36F8FBFF34F8F00BFFDE748
:1016B000084B4FF4967201930223074900930748A1
:1016C0000023FFF741F90028E8D003B05DF804FBE0
:1016D000D88D0720DC8D072089FA0800051808003E
:1016E0002DE9F04180462C200D4617461E4600F09D
:1016F0009DF90446B0B14DB94FF0A00383F31188B2
:10170000BFF36F8FBFF34F8F00BFFDE7FFF776FF8B
:10171000069BC4F80080A561E76126626362201D14
:10172000FFF735FF2046BDE8F081000030B51546D3
:1017300085B01A46034648B94FF0A00383F31188D9
:10174000BFF36F8FBFF34F8F00BFFDE70C4C2068D6
:1017500078B105298DE8220002930CDCFFF792FC9A
:10176000002302280CBF089A1A466946206800F038
:1017700019FB05B030BD0023694600F0DFFBF8E738
:10178000D88D07202DE9F3414FF000081B4D2B6841
:101790001A6832B91A4A11681360296002B0BDE8AC
:1017A000F081DB68DC681E68271D3846FFF715FFEF
:1017B000636A20469847E369012BE8D1A369334463
:1017C0009E4206D26360246139462868FFF7EEFE28
:1017D000DDE70023CDF80080324619462046FFF7AA
:1017E000A5FF0028D3D14FF0A00383F31188BFF3E6
:1017F0006F8FBFF34F8F00BFFDE700BFA48D0720A1
:10180000A88D07202DE9F04F714DDFF8D0812F46CC
:1018100087B02B681C68002C40F0D5804FF0010A7F
:10182000FFF7B6F9FFF7BCF9DFF8B4B18146DBF892
:1018300000305E46984236D2FFF7A4FF0122CBF873
:101840000090002A40F08380BAF1000F66D14C4529
:101850006AD8FFF73DFA3B68DB68D3F80CB00BF1B0
:101860000400FFF7BAFEDBF81C30012B1DD1DBF8BA
:10187000181023464A4621445846FFF7EBFEA0B114
:10188000CDF800A05346224651465846FFF74EFF7A
:1018900058B94FF0A00383F31188BFF36F8FBFF3E4
:1018A0004F8F00BFFDE70022C9E7DBF82430584620
:1018B0009847DFF82491002202A9D9F8000000F02F
:1018C000F9FB0028A5D0029B002B03DA05990498A8
:1018D000039B9847029B002BEDDB049C636913B1CB
:1018E000201DFFF77AFEFFF75BF9336883469842C5
:1018F00001D2FFF747FF029AC6F800B0092ADAD8EA
:101900000123934013F4047A49D113F0C70F21D176
:101910009B06D0D5204600F01BF9CCE72D4B1B6869
:101920001A68B2FA82F252092B4BA4EB090118682B
:1019300000F03EFDFFF7CCF90028BAD14FF08053FC
:10194000C8F80030BFF34F8FBFF36F8FB1E7FFF7D9
:10195000BFF9AEE7A169039B5A4619442046FFF739
:1019600079FE0028A7D0636A20469847E369012BD7
:10197000A1D1A2690399CDF800A00A44534651466B
:101980002046FFF7D3FE002895D14FF0A00383F344
:101990001188BFF36F8FBFF34F8F00BFFDE703992F
:1019A000A16149B94FF0A00383F31188BFF36F8F92
:1019B000BFF34F8F00BFFDE75B465A4659442046B0
:1019C000FFF748FE77E7DB684FF0000A1C6827E75F
:1019D000A48D0720A88D0720D88D072004ED00E0F6
:1019E000D48D072010B50F4B1A68824218D35C685B
:1019F0001919884201BF416818460919596044689D
:101A000001198A4207D1084909688A421FBF5168F3
:101A10001268091941609842026018BF186010BD31
:101A20001346E1E7302A0820E08D07202DE9F04138
:101A30000446FFF7ADF83F493F4D0B68FBB93F4AFD
:101A4000002056070FBF49F6404307323C4B22F0B7
:101A5000070218BF9B1A13443A4E083B23F00703B2
:101A600070603260586018600B60981A1360364BD3
:101A700050601860354B18604FF000432B602F68A2
:101A8000274216D1002C41D004F1080358071CBF8F
:101A900023F00703083363B12C4A16689046B3421B
:101AA00007D8284A15686868834204D809688D42B7
:101AB00007D100242AE02C68002CF7D02A462546BE
:101AC000F1E7296814681160C21A102A10D9E818C1
:101AD000410709D04FF0A00383F31188BFF36F8F44
:101AE000BFF34F8F00BFFDE742606B60FFF77AFFE7
:101AF0006B681549F61A1F4300230868C8F8006090
:101B0000864238BF0E6008346F602B60FFF7E0F844
:101B10000CB9FEF70DFC630709D04FF0A00383F367
:101B20001188BFF36F8FBFF34F8F00BFFDE72046D3
:101B3000BDE8F081E08D0720242A0820E48D0720ED
:101B4000242A0820302A08202C2A0820282A0820A5
:101B500010B5044680B3194A50F8043C1268134289
:101B600009D14FF0A00383F31188BFF36F8FBFF348
:101B70004F8F00BFFDE750F8081C49B14FF0A0039C
:101B800083F31188BFF36F8FBFF34F8F00BFFDE763
:101B900023EA020340F8043CFEF7FAFF084A54F82F
:101BA000043C1168A4F108000B441360FFF71AFF0E
:101BB000BDE81040FFF78CB810BD00BF242A0820F4
:101BC000282A082010B50446FEF7BAFDA46BFEF7DC
:101BD000C7FDB4FA84F0400910BD70B51546026C1B
:101BE0000446866B42B905689DB98068FFF7AEFA76
:101BF000A5600136A66370BD6DB940680AF0B8F8FB
:101C00006368226C1344A2686360934201D3236823
:101C100063600020EDE7C0680AF0AAF8236CE26870
:101C20005B4221681A448A42E2603EBFA2689B1868
:101C3000E360022DEDD10EB1013EEAE73046D8E770
:101C400003461A6C10B4084662B1D9689C68114406
:101C5000A142D96028BF196810BC28BFD960D968D3
:101C60000AF086B810BC704770B50446FEF768FDF0
:101C700094F8455004F124066DB2002D14DCFF23C6
:101C800084F84530FEF76CFDFEF75AFD94F8445099
:101C900004F110066DB2002D12DCFF2384F84430ED
:101CA000BDE87040FEF75CBD636A002BE7D03046AC
:101CB000FFF722F908B1FFF7C9F9013D6DB2DCE782
:101CC0002369002BE9D03046FFF716F908B1FFF77A
:101CD000BDF9013D6DB2DEE738B50D46044648B9A1
:101CE0004FF0A00383F31188BFF36F8FBFF34F8FC3
:101CF00000BFFDE7FEF724FD206CE36B2268434341
:101D0000D1181B1A1344A160E3600021FF23A163D3
:101D1000626084F8443084F8453095B9236963B132
:101D200004F11000FFF7E8F838B14FF08052094B8A
:101D30001A60BFF34F8FBFF36F8FFEF711FD0120C5
:101D400038BD04F11000FFF717FC04F12400FFF781
:101D500013FCF2E704ED00E0F8B50D461746064621
:101D600048B94FF0A00383F31188BFF36F8FBFF31F
:101D70004F8F00BFFDE748435030FFF757FE044642
:101D800048B155B92060E663256401212046FFF77C
:101D9000A3FF84F84C702046F8BD00F150030360A7
:101DA000F1E700002DE9FF47894601921F460446EE
:101DB00048B94FF0A00383F31188BFF36F8FBFF3CF
:101DC0004F8F00BFFDE7002940F08A80036C002B95
:101DD00000F086804FF0A00383F31188BFF36F8F6C
:101DE000BFF34F8F00BFFDE7019E002E00F0838000
:101DF0004FF0A00383F31188BFF36F8FBFF34F8FB2
:101E000000BFFDE7019D1DB9FEF7AAFC002058E0C8
:101E100016B902A8FFF7D0F8FEF7A2FCFEF7B8FE4D
:101E2000FEF78EFC94F84430FF2B08BF84F8448002
:101E300094F84530FF2B08BF84F84580FEF790FCEE
:101E400001A902A8FFF7C4F8002843D1FEF778FCE7
:101E5000A66BE56BFEF784FCAE4235D1019904F127
:101E60001000FFF70FF82046FFF7FEFEFEF730FFE9
:101E700038B94FF08053CAF80030BFF34F8FBFF32B
:101E80006F8F0126FEF75CFCA26BE36B9A4201D3D5
:101E9000022FB7D13A4649462046FFF79EFE636AB5
:101EA0001BB104F12400FFF727F838B14FF080523E
:101EB000184B1A60BFF34F8FBFF36F8FFEF750FCC4
:101EC000012004B0BDE8F0872046FFF7CDFEFEF705
:101ED000FFFED6E72046FFF7C7FEFEF7F9FE95E7BF
:101EE000022F02D1E36B012B0AD1FFF7CBF80028B8
:101EF0003FF47AAF00264FF00008DFF818A0C1E7E2
:101F00004FF0A00383F31188BFF36F8FBFF34F8FA0
:101F100000BFFDE704ED00E010B5024600210120FE
:101F2000FFF71AFF044638B1002383600360C360E3
:101F30001A461946FFF736FF204610BD2DE9F84333
:101F4000884691461F46044648B94FF0A00383F3E4
:101F50001188BFF36F8FBFF34F8F00BFFDE711BB39
:101F6000036C03B34FF0A00383F31188BFF36F8FAB
:101F7000BFF34F8F00BFFDE704F12400FEF7BCFF65
:101F8000002834D0B9F1000F31D00120C9F8000089
:101F900086F31188BDE8F88301356DB284F84550A9
:101FA00025E00020F4E7022F02D1E36B012B20D1C2
:101FB000FEF738FCEFF311864FF0A00383F311888E
:101FC000BFF36F8FBFF34F8FA26BE36B9A4201D3C6
:101FD000022FE6D194F845503A466DB2414620466C
:101FE000FFF7FBFD6B1CD7D1636A002BC4D1012026
:101FF000CEE74FF0A00383F31188BFF36F8FBFF3D9
:102000004F8F00BFFDE770B50D46044648B94FF04D
:10201000A00383F31188BFF36F8FBFF34F8F00BF0F
:10202000FDE7036C4BB14FF0A00383F31188BFF3BE
:102030006F8FBFF34F8F00BFFDE703680BB9836855
:1020400073BBFEF7EFFBEFF311864FF0A00383F3B2
:102050001188BFF36F8FBFF34F8FA26BE36B9A4270
:1020600001D3002014E094F8453001325BB2A26342
:102070005A1C10D1636A0BB9012009E004F1240055
:10208000FEF73AFF0028F7D0002DF5D00120286098
:1020900086F3118870BD01335BB284F84530EBE7FD
:1020A0004FF0A00383F31188BFF36F8FBFF34F8FFF
:1020B00000BFFDE72DE9F04385B088460192044654
:1020C00048B94FF0A00383F31188BFF36F8FBFF3BC
:1020D0004F8F00BFFDE7002940F08880036C002B84
:1020E00000F084804FF0A00383F31188BFF36F8F5B
:1020F000BFF34F8F00BFFDE7019E002E7BD04FF056
:10210000A00383F31188BFF36F8FBFF34F8F00BF1E
:10211000FDE7019D1DB9FEF723FB002052E016B933
:1021200002A8FEF749FFFEF71BFBFEF731FDFEF7A5
:1021300007FB94F84430FF2B08BF84F8447094F8F0
:102140004530FF2B08BF84F84570FEF709FB01A955
:1021500002A8FEF73DFF00283DD12046FFF732FDE3
:1021600098B3019904F12400FEF78CFE2046FFF796
:102170007BFDFEF7ADFD38B94FF08053C9F8003054
:10218000BFF34F8FBFF36F8F0126FEF7D9FAA56B10
:10219000002DBED041462046013DFFF751FDA5630D
:1021A000236963B104F11000FEF7A6FE38B14FF0C9
:1021B0008052134B1A60BFF34F8FBFF36F8FFEF740
:1021C000CFFA012005B0BDE8F0832046FFF74CFDB3
:1021D000FEF77EFDD8E72046FFF746FDFEF778FDC7
:1021E0002046FFF7EFFC0028CED096E7FEF74AFF27
:1021F000002881D000260027DFF80490C5E700BF43
:1022000004ED00E02DE9FF410446019148B94FF08B
:10221000A00383F31188BFF36F8FBFF34F8F00BF0D
:10222000FDE7056C4DB14FF0A00383F31188BFF3B8
:102230006F8FBFF34F8F00BFFDE7FEF723FF18B985
:10224000019D002D40F096802E460027DFF8388152
:10225000FEF776FAA36BE3B1013BA363236813B9DE
:10226000FFF720F8A060236963B104F11000FEF7C6
:1022700043FE38B14FF08052434B1A60BFF34F8F8B
:10228000BFF36F8FFEF76CFA0125284604B0BDE856
:10229000F081019B6BB94DB14FF0A00383F311881E
:1022A000BFF36F8FBFF34F8F00BFFDE7FEF758FA04
:1022B000EBE716B902A8FEF77FFEFEF751FAFEF72C
:1022C00067FCFEF73DFA94F84430FF2B08BF84F812
:1022D000447094F84530FF2B08BF84F84570FEF732
:1022E0003FFA01A902A8FEF773FE40BB2046FFF7A4
:1022F00069FCF0B123683BB9FEF722FAA068FEF74B
:10230000D1FE0546FEF72CFA019904F12400FEF7F0
:10231000B9FD2046FFF7A8FCFEF7DAFC38B94FF00C
:102320008053C8F80030BFF34F8FBFF36F8F012683
:102330008EE72046FFF798FCFEF7CAFCF7E7204639
:10234000FFF792FCFEF7C4FC2046FFF73BFC002899
:10235000EDD0002D99D0FEF7F3F9616A19B1236B26
:102360001968C1F10301A068FEF742FF0025FEF7DE
:10237000F7F98AE74FF0A00383F31188BFF36F8F5B
:10238000BFF34F8F00BFFDE704ED00E0002330B541
:10239000064A52F83350DC0025B942F83310224483
:1023A000506030BD0133082BF3D130BD382A0820EE
:1023B00070B504460D461646FEF7C2F994F844304F
:1023C000FF2B04BF002384F8443094F84530FF2BE2
:1023D00004BF002384F84530FEF7C2F9A36B2BB984
:1023E0003246294604F12400FEF766FD2046BDE88A
:1023F0007040FFF739BC000010B5094C094A0121B3
:10240000002001F09DF8237833B904F04BFA03F073
:1024100017FF0123237010BDBDE8104001F090BAF2
:102420000F2B08207AFB0800002370B5064E95B2EA
:102430009CB2A54202D80023835470BDCC18345DF1
:10244000C4540133F4E700BF342C0820F0B527480A
:10245000B7B009F035FE0223C5B201AE2A462449C1
:1024600030468DF8103009F065FD9DF804309DF878
:1024700005005A1C8DF8113000239DF80610024407
:102480008DF8120019488DF813100A44D9B28D4204
:1024900024D892B21749304609F04CFD0023ACB263
:1024A000271DFA1836A992B20A44F15C0133042BB5
:1024B00002F8C81CF5D1032236AB234403F8C02C24
:1024C00036AB1C440A2304F8BF3C0B4B05F10A024F
:1024D000186804A9C368984737B0F0BD195C04AC0C
:1024E0001C4421710A440133D0E700BF3A2E082072
:1024F00070FB080075FB0800D82E082007B5435C68
:10250000013189B28DF80430435C0021102201A80A
:102510008DF805308DF8061009F0C6FEC0B203B084
:102520005DF804FB63232DE9F347ADF80030282361
:10253000ADF80230B323044600F14606224F234D86
:10254000DFF88C80ADF80430B6B24FF0000904EB30
:102550008901042289B23846FFF766FF1022002164
:10256000384609F0A1FE1022A88100213846B5F8AE
:1025700004A009F099FE3DF8193009EB8A0A09F127
:10258000010905EB4A0A5840B9F1030FAAF81400F3
:10259000DDD104F10C0189B24046B5F80490FFF793
:1025A000ADFFAB882A8801339BB205EBC9090E3415
:1025B0009A42A9F81A00A4B2AB8001D9B442C4D19E
:1025C00002B0BDE8F08700BF342E082094800720B9
:1025D000342C082010B5084C4FF4807204F1080127
:1025E000201D00F0FDFC636803F580736360002329
:1025F000A4F8183110BD00BF102B08200A4B0B4A5D
:10260000B3F8101102EBC102D18A128BC3F80C117E
:102610000A440132C3F81421012283F81221002256
:10262000A3F81821704700BF102B082094800720C2
:102630000A4B10B55968081FFC3150F8042F0433B9
:10264000C2F307241A715C718842C2F30744C2F3D3
:1026500007629C71DA71F0D110BD00BF102B082009
:102660002DE9F04F04460E46B24FB34DDFF8F88225
:102670008FB03B88B3EB440F0BDC6B78013B042B32
:1026800000F25581DFE813F00F007800B800CC00AD
:10269000D20031464046FFF731FF0236285501345B
:1026A000A4B2B6B2E5E70DF1170000F09FFC0028D8
:1026B00000F037819DF81700A04C002856D0A04AA2
:1026C0000121002000F03CFF0023236036238DF819
:1026D000183030238DF819303A238DF81A30002342
:1026E00006A998488DF81B3009F06CFC964906A89D
:1026F0008B784A78C9780091944909F01BFC06A9A7
:10270000904809F05FFCFDF721FE9149024606A8BA
:1027100009F010FC06A98B4809F054FCFDF718FEDF
:102720008B49024606A809F005FC06A9854809F070
:1027300049FCFDF70FFE8649024606A809F0FAFBA0
:1027400006A9804809F03EFC00F078FC054600F040
:102750007DFC23687F4900932A46034606A809F0BA
:10276000E9FB06A9774809F02DFC88E07A4A0121A7
:1027700000F0E6FE0123A8E7A9782B79774CEE78E4
:102780006D7981F0590283F01A00A274E0746A40F6
:10279000704002EB002281F0350183F0CD0303EBA2
:1027A0000123A260142104226D482382FFF73CFE1E
:1027B000102200216A4809F077FD238A042258403C
:1027C00060801A216648FFF72FFE0021102264481E
:1027D00009F06AFD238A58404FF6FF73A081E38118
:1027E00000245648A0F81041FFF708FF5D4980F823
:1027F0001A41A0F81C41B5E7042208215848FFF708
:1028000013FE10220021564809F04EFD0022534BC2
:10281000554918800C209A80FFF784FE5349A1E7A0
:1028200051490820FFF77EFE51499BE7434C94F83D
:102830001A71002F79D00025484EA846B346A4F857
:102840001051B4F8102133889A421BD3B368ADB24B
:102850009D4268D1207800F001FC002861D04549F4
:10286000384809F0AFFB444B1C68FEF799F90A237E
:1028700002460093012100232046FEF757FF0FB0C8
:10288000BDE8F08F4FF00009FFF7B8FEB4F8102153
:1028900006EBC203DB8A06EBC202928AA4F80A3175
:1028A00003F47F4303EB02136360B4F810310BEBC6
:1028B000C302128B0132914503D30133A4F81031C6
:1028C000BFE7FFF7B5FE6368B4F80AE103F580736C
:1028D00063601EF0FF03A4F8188118BFA4F8183134
:1028E000D4F81431B4F818C10393002318469AB2EF
:1028F00002EB0E01624492B2FF2A89B209EB030A8D
:1029000004D908B1A4F80A11D146CEE7039A0133DD
:102910009142F6D20CEB03022244D2793846154498
:10292000E5E716491EE716491CE716491AE7164956
:1029300018E700BF302C0820782A0820102B082028
:10294000E5FA08003A2E082098F9080007FB08006D
:102950000FFB080013FB0800F6FA0800948007201C
:10296000342E082021FB0800342C082024FB08000A
:1029700027FB08002AFB0800D02E08201EFB0800B9
:102980002DFB080030FB080033FB0800014902481A
:1029900009F018BB33FB08003A2E082010B5244A72
:1029A0009178D378234A03EB012392F812119BB25A
:1029B000A2F80831144669B1B2F810111E4A02EBB0
:1029C000C102928A9A4230D11C491D48BDE810408C
:1029D00009F0F8BAB2F818314BB1FF20DA1D2244E1
:1029E000FF2B18D909B1A4F81831FFF7F3FDB4F89B
:1029F00010311148013302889BB29A42A4F8103179
:102A00000FD0FFF7FBFDB4F81031B4F8082100EB4C
:102A1000C300838AD6E7013302F8010F9BB201217C
:102A2000DEE7012384F81A31CEE70649CDE700BF7F
:102A3000782A0820102B0820948007202AFB080001
:102A40003A2E0820ADFA080000210422F0B56C4CA3
:102A50006C48B4F81E71B4F81C3185B0BA42C0F0AD
:102A6000898009B1A4F81C31674DEB19EA5D5B78E8
:102A700003EB0223B4F81C219BB29A4240F0B980C8
:102A8000AA78EB7803EB022394F812219BB2A4F806
:102A90000A3122B35D4EB4F8102106EBC202D28A8D
:102AA0009A426FD15A4A0121002000F049FD0023CB
:102AB00084F81231B4F81031B4F80A2106EBC306D9
:102AC000B18A02F47F4303EB011312F0FF0F63603E
:102AD00005D0FFF7ADFD94F80A31A4F818310426AB
:102AE000BE425BD1842E1AD0D4F80C21D4F8143114
:102AF0009A426FD1B4F818318BB1464A01210020B7
:102B000000F01EFD0021FF20B4F81831DA1D224428
:102B1000FF2B59D909B1A4F81831FFF75BFDD4F8A0
:102B20000C21D4F81431394D9A4214D13A4A01217A
:102B3000002000F005FDB4F810312A8801339BB263
:102B40009A42A4F8103150D0344A0121002000F0FC
:102B5000F7FCFFF753FD3249324809F033FAEA89AE
:102B6000314901A809F0E6F901A92E4809F02AFA2D
:102B7000002011E010F8011F01320B449BB292B209
:102B800001216BE7294A0121002000F0D9FC2849E6
:102B9000244809F017FA072005B0F0BDB4F8182151
:102BA000A95D531C9BB22244B3F5807FA4F8183171
:102BB000117201D1FFF70EFDD4F80C31013601334B
:102BC000C4F80C31B6B28BE7013302F8010F9BB2A7
:102BD00001219DE7174A0121002000F0B1FC1649B0
:102BE000104809F0EFF90820D6E7012384F81A31DC
:102BF000B1E712490B4809F0E5F90420CCE700BF22
:102C0000102B08207B2A0820782A0820948007208F
:102C1000B0FA0800C1FA0800D2FA0800D7FA080092
:102C2000DCFA08003A2E082070FB0800B5FA08000C
:102C3000BEFA0800C6FA0800CFFA0800DFFA08005A
:102C400008B5064BB3F818310BB1FFF7C3FCBDE86C
:102C500008400349034809F0B5B900BF102B08200C
:102C6000E2FA08003A2E08202DE9F047404C414B8B
:102C70006178414E08291B8822D10222073B93FB31
:102C8000F2F33E480322A6F81E31FFF7CDFB3C4B82
:102C90001022DD8900210135ADB23848DD8109F00F
:102CA00003FBC0F30B00854208D196F81A312BB311
:102CB00034493548BDE8F04709F084B93349F8E7AD
:102CC0000222043B93FBF2F34FF00808A6F81E31F2
:102CD0000025DFF8C4902A4FB6F81E311FFA85FA96
:102CE00008EB4A01534589B20BD86378053B042BA6
:102CF00032D8DFE803F0212531292D004FF00B08F1
:102D0000E6E74846FFF7FAFB0AF0010ABA449AF8E8
:102D100012306B405840C0B200F00F023A4407EB4B
:102D2000101092F8141190F81421ABB2234402EB66
:102D300001129A700135CFE7BDE8F047FFF726BED4
:102D4000BDE8F047FFF72ABEBDE8F047FFF77CBEBD
:102D5000BDE8F047FFF774BF0D490B4809F032F9A1
:102D6000BDE8F0470B4A0121002000F0E9BB00BF9D
:102D7000782A0820302C0820102B0820342E082018
:102D80009480072091FA08003A2E082094FA08004F
:102D900033FB080097FA0800342C082010B50421F2
:102DA0001148FFF7ABFB114C062120700E48FFF7CE
:102DB000A5FB0422607011460D48FFF735FB237810
:102DC000202B06D0262B0CD00A49094809F0FAF826
:102DD00003E008210220FFF743FCBDE81040FFF7A5
:102DE00035BBFFF741FFF8E7342C0820782A08208C
:102DF0003A2E082033FB08002DE9F347002427462C
:102E0000A0463E4E002000F0B1FC002002F0E6FC9F
:102E1000012002F0E3FC00F079FB394B0122186835
:102E20000DF107010A23806901F0D7FB002859D072
:102E30003378022B18BF00279DF80730B7F5007FC5
:102E4000F35528BF0027F25D7B1C0A2A9BB248D1AC
:102E500000272C4A13803378022B40D1294C238839
:102E60009BB2013BF35C0A2B39D103220121264896
:102E7000757896F802A096F80390FFF7D5FA00212E
:102E80001022214809F010FA204B81B219802388C2
:102E9000EDB29BB20A3B99425FFA8AFA5FFA89F96E
:102EA00027D100226C1C54444C4490B2031D814233
:102EB0009BB21AD8043189B20B1DF35C032B18D1D5
:102EC00004221148FFF7B0FA102200210E4809F041
:102ED000EBF94440A4B274B9FFF760FF92E7012414
:102EE00090E71F46002C8DD0B5E7F35C01321C44FF
:102EF000DBE786F80080002484E700BF342C08203C
:102F0000D82E0820322C0820342E0820302C0820FF
:102F10001F4B37B51C78002C37D101251D4A294697
:102F200020461D7000F00CFB00F048F81A4B1B48BF
:102F30001D701B4B4E2218604FF4E13143699847D6
:102F4000032221462846FEF707FF20B123462246EA
:102F50002146FEF727FF134B4FF47A7100930122AD
:102F600000231148FEF7BCFB104B0146186010B956
:102F70000F4A00F0E5FA012200230E498DE80C000B
:102F80000D484FF41672FDF7DFFC03B030BD00BFF3
:102F90000E2B082036FB0800D42E0820D4810720F1
:102FA000D82E0820F923080045FB0800D02E082061
:102FB0004DFB080064FB0800F92D080010B5062140
:102FC000002002F037FA034630B1BDE81040034A52
:102FD0000121002000F0B4BA10BD00BF83FB08003F
:102FE00001234FF48072006802F038BA70B50022F5
:102FF00004460D210E4802F0D3F90646A8B90C4844
:1030000002F0B9F910F0040507D00A4A0121304650
:1030100000F096FA0120207070BD074A0121284671
:1030200000F08EFA2570012070BD002070BD00BF39
:10303000000A0E40E5FA0800F6FA0800024B18688C
:10304000C0F30750704700BF40090E40024B18689C
:10305000C0F30320704700BF40090E4008B50222AC
:1030600038B10B21044802F09BF9B0FA80F0400916
:1030700008BD0C21F6E700BF000A0E4000230360E4
:10308000037143718371C3718360C36003614361E2
:103090008361C3617047000070B5304892B002F0A0
:1030A00037F810F0FF0F53D000242C4EE5B229461C
:1030B000304602F02FF803024CD5294CA06021467F
:1030C0002648256002F037F8E36912A90293A36944
:1030D000082241F8443D05A808F04AFE0022236971
:1030E00020460393A3798DF81D208DF81C30637959
:1030F0009B1A18BF01238DF81030FFF7BFFF194945
:1031000019480B68009201330B60134603991D2B7D
:1031100050F823201AD0914203F10103F7D1002384
:10312000142203A909A88DF8203008F021FE694671
:1031300008A800F0ABF8009B53B14FF080520B4B46
:103140001A60BFF34F8FBFF36F8F01E09142E6D05B
:1031500012B070BD0134082CA8D1F9E700400B4033
:10316000DC2E08201C2F0820242F082004ED00E06E
:1031700070B5304892B001F0CBFF10F0FF0F53D084
:1031800000242C4EE5B22946304601F0C3FF03026D
:103190004CD5294CA06021462648256001F0CBFF84
:1031A000E36912A90293A369082241F8443D05A8E6
:1031B00008F0DEFD236920460393A3798DF81C30C7
:1031C00001238DF81D306379003318BF01238DF87A
:1031D0001030FFF753FF0023184919484A6800933D
:1031E00001324A6003991A18742B926F1AD09142D7
:1031F00003F10403F7D10123142203A909A88DF8D0
:10320000203008F0B5FD694608A800F03FF8009BA3
:1032100053B14FF080520B4B1A60BFF34F8FBFF387
:103220006F8F01E09142E6D012B070BD0134082CDE
:10323000A8D1F9E700800B40FC2E08201C2F0820A5
:10324000242F082004ED00E070B50E4604462368E4
:1032500023B92660012070BD2C46F8E7B342F9D0AF
:103260006568002DF8D10821012008F07FFA08B127
:103270004560056060600028E9D170BD024B03EB3A
:10328000C000FFF7E1BF00BFE83008200A46014652
:10329000084808B500680023FEF750FE48B9064B01
:1032A00019784A1C1A7021B9BDE80840034A00F099
:1032B00047B908BD9832082014300820C5FB080023
:1032C00001460348002305220068FEF76BBD00BFDE
:1032D0009832082010B54FF461628AB0044600F1BC
:1032E0000801D1E90001002308F0B8F813430AD11E
:1032F00028222146684608F03BFD092368468DF8E0
:103300000030FFF7DDFF0AB010BD10B53C228AB0D7
:10331000044600F10801D1E90001002308F09EF8FD
:1033200013430AD128222146684608F021FD0823CC
:1033300068468DF80030FFF7C3FF0AB010BD0000EB
:1033400010B5134C8AB023785A1C132B227017D94E
:10335000104B114A0421002000F0F2F807230F4916
:103360008DF80030D1E90023CDE90223013243F189
:1033700000036846C1E90023FFF7A2FF0023237082
:10338000062368468DF80030FFF79AFF0AB010BD9B
:1033900089320820A2FB080059F908009032082061
:1033A00038B503780546332B12D80A4C04EBC30416
:1033B00023683BB92978084A52F82130013342F892
:1033C000213038BD284698476468002CF0D1F1E7D9
:1033D00038BD00BFE83008201830082000B50C4D7B
:1033E0000C4C8BB04FF4FA7269462868FEF762FE07
:1033F00010B16846FFF7D4FF0020FDF72DFE6328CB
:10340000F0D82346044A0121002000F099F8E9E7AA
:1034100098320820AFFB080012FC0800F7B5224ED6
:10342000224B234A0121002000F08AF83478002C36
:1034300037D1224628213620FEF78EFC01251D4B70
:103440004FF4167218601C492346019400951B48DE
:10345000FDF77AFA4FF40763194A009302214FF4FB
:10346000D073032000F06CF8164B2A4632210093EB
:1034700015482346FEF734F90746FDF791FB23462E
:103480000246294600943846FEF750F90F49104885
:10349000FFF7DAFE0F491048FFF7D6FE02F08CFC6A
:1034A000357003B0F0BD00BF88320820BAFB0800B9
:1034B00059F9080098320820CAFB0800DD330800DB
:1034C000D5FB0800413308000CFC08000B33080052
:1034D00020310820D53208002831082010B54FF4DB
:1034E0000041074801F0CAFE064C83B21A46204646
:1034F000054901F0D7FE2046BDE8104001F0DEBED0
:1035000000093D00501A0E4000600010014801F013
:10351000D5BE00BF501A0E404FF06043013810F87E
:10352000012F02B97047D3F8801EC907F7D5D3F829
:10353000001EC907F3D519680029FCD01A70EEE700
:103540000CB437B5184B04461B78CBB94FF0604527
:10355000D5F8003EC340DB0712D5144B1B5C8B42F1
:103560000ED307AB6421069A114801930AF06AF959
:1035700001231049A340A4002C4411F8012F2AB9BB
:10358000002003B0BDE8304002B07047D5F8800E8F
:10359000C007F2D5D5F8000E0342EED0206800280F
:1035A000FCD02270E9E700BF0A330820A0320820CF
:1035B000A6320820A532082070B5144686B004AAA9
:1035C0000121204600F0DEFD05AA05460221204625
:1035D00000F0D8FD0023049A0646AB54059A314901
:1035E0008354284608F0CCFC002834D02E492846C5
:1035F00008F0C6FC88B32D49284608F0C1FC70B31A
:103600002B49284608F0BCFC58B32A49284608F044
:10361000B7FC40B32849284608F0B2FC002814BF84
:10362000062404242549304608F0AAFCE8B9012004
:10363000062C18BF224B234A18BF185501210290AF
:103640002B468DE850000020FFF77AFF00201E4B2C
:10365000187006B070BD0446E4E70124E2E70224D6
:10366000E0E70324DEE70524DCE71849304608F0EC
:1036700087FC90B11649304608F082FC0028D7D06C
:103680001449304608F07CFC48B11349304608F034
:1036900077FC0028CBD10420CAE70220C8E703202A
:1036A000C6E700BF32FC0800F50B09003AFC080031
:1036B0003FFC080045FC080049FC080052FC0800DB
:1036C000A032082072FC08000A33082059FC0800C8
:1036D0005EFC080064FC08006CFC080002220A4B37
:1036E00010B501241A70042208485C70DC709A70CE
:1036F0001C715C7100F01AFD2146BDE81040044BBE
:10370000044A0020FFF71CBFA0320820FCFC080080
:1037100026FC080059F908004FF0FF304FF0FF3148
:10372000014BC3E90001704720330820012303FA4D
:1037300000F0054BD3E90023024003EAE073134392
:1037400014BF01200020704720330820012303FA12
:1037500000F0C0430449D1E90023024003EAE073CA
:10376000C1E90023704700BF2033082030B50C4C5E
:103770008BB022780546824203D11320FFF7D6FF93
:1037800058B11320FFF7E2FF1323684625708DF828
:1037900000308DF80150FFF793FD0BB030BD00BF36
:1037A0001033082010B58CB002F040FC8DF80A00F0
:1037B00002F0B2FD8DF80C0002F0F6FD8DF80B0062
:1037C00002F05CFFADF80E0002F0B0FB1D238DF897
:1037D0000D000CA800F8283DFFF772FD064B1C6891
:1037E000FDF7DEF90A23024600930121002320465B
:1037F000FDF79CFF0CB010BD28330820FFF7D2BFA7
:1038000073B51A4D1A4A01210020FFF799FE02F004
:1038100093FB02F023FD02F0AFFD02F095FE02F0F3
:1038200033FF2C7804BB134B012200936421234601
:103830001148FDF755FF114E114B30600122FA215E
:10384000009310482346FDF74BFF0F4B3668186076
:10385000FDF7A6F90A2302460093012123463046CC
:10386000FDF764FF01232B7002B070BD1C330820EC
:103870000CFD0800193708000CFC08000C33082068
:10388000FD3708001BFD080028330820024B034ABF
:1038900001210020FFF754BE21FD080059F908005E
:1038A00013B5214801F0A5FCC207044618D5002332
:1038B0000DF103011C48019301F0A4FC1B4801AB6E
:1038C00001220DF10301806900F039FE019B3BB13B
:1038D0004FF08052164B1A60BFF34F8FBFF36F8FBC
:1038E000A3071AD50022114802AB43F8042D0DF1AD
:1038F00003010122C06900F0EFFE80B1019B3BB1E2
:103900004FF080520A4B1A60BFF34F8FBFF36F8F97
:103910009DF80310044801F06EFC02B010BD0221B6
:10392000014801F064FCF8E700080E40D48107204C
:1039300004ED00E00121014801F057BC00080E40F1
:10394000BFF34F8F0449054BCA6802F4E06213438A
:10395000CB60BFF34F8FFEE700ED00E00400FA05F7
:103960000221014801F041BC00080E407FB5274B01
:1039700004460E4615460121254A0020FFF7E0FDCA
:10398000244B1A782AB124490720FFF777FC04B0AA
:1039900070BD0121A26919701AB9602000F0F2FC13
:1039A000A061E2692AB901214FF4807000F0EAFCBD
:1039B000E06110220021684608F050FA174B452DAF
:1039C0008DE848001DD04F2D1DD04FF400630293A9
:1039D0004FF48073124C0820236001F06FFB69469E
:1039E000104801F0E2FB0F4801F0FCFB0D4801F02C
:1039F000F6FB01210B4801F0F8FBF02384F80833B3
:103A0000C5E70023E3E74FF40073E0E733FD080068
:103A100059F908002C3308208D38080000BD010535
:103A200000E100E000080E40024B034A01210020A3
:103A3000FFF786BD44FD080058FD080070B54448F6
:103A40008CB001F026FA434B04461B78002B35D08E
:103A5000C60716D5002301A93D48029301F028FAB4
:103A60003D4802AB012201A9806900F068FD029B7C
:103A70003BB14FF08052394B1A60BFF34F8FBFF309
:103A80006F8FA5071AD5002233480CAB43F8282DB9
:103A900001A90122C06900F01FFE002852D0029B3C
:103AA0003BB14FF080522D4B1A60BFF34F8FBFF3E5
:103AB0006F8F9DF80410264801F0F1F9284B1B7810
:103AC000002B3DD0A00405D50222264B20481A70B9
:103AD00001F0E1F961040DD5224D1D482E7801F069
:103AE000CBF9214B43F826002B78194801332B7072
:103AF00001F0D1F9E2070CD51A4D2B78062B08D826
:103B00001949134801EB830101F0D2F92B780133F5
:103B10002B70230414D5002301930F230CAC04F85D
:103B2000283D2022104903A808F022F9204601A9C7
:103B3000FFF7ACFB02220B4B05481A7001F0ABF902
:103B40000CB070BD0221024801F0A1F9B6E700BF38
:103B5000008009402E330820F481072004ED00E0A6
:103B60002D3308202F330820B88107200121014878
:103B700001F08BB9008009400221014801F085B9AC
:103B80000080094070B52A4B15461A7886B0044665
:103B90000E4612B9274A12782AB127490720FFF7A3
:103BA0006DFB06B070BD0121826919701AB96020E1
:103BB00000F0E8FBA061E2692AB901214FF48070AE
:103BC00000F0E0FBE0611D4801F024F903211B48EF
:103BD00001F05DF9C023452D0096019304D04F2DCF
:103BE00023D04FF4006300E00023029300234FF43E
:103BF0000035134C112003930493059301F05EFAF2
:103C0000104A69460D4801F019F90C48256001F089
:103C100039F90A4801F033F90121084801F035F972
:103C2000F02384F811332560BBE74FF40073DCE721
:103C30002E3308202D330820293A0800008009403F
:103C400000E100E000BD0105024B034A0121002014
:103C5000FFF776BC74FD080058FD080013B5214835
:103C600001F017F9C207044618D500230DF103012E
:103C70001C48019301F01CF91B4801AB01220DF116
:103C80000301806900F05BFC019B3BB14FF0805267
:103C9000164B1A60BFF34F8FBFF36F8FA3071AD570
:103CA0000022114802AB43F8042D0DF1030101225B
:103CB000C06900F011FD80B1019B3BB14FF0805213
:103CC0000A4B1A60BFF34F8FBFF36F8F9DF803103D
:103CD000044801F0E4F802B010BD0221014801F0EF
:103CE000D6F8F8E700C009401482072004ED00E090
:103CF0000121014801F0C9B800C009400221014872
:103D000001F0C3B800C0094070B5294B15461A78B8
:103D100086B004460E462AB126490720FFF7AEFAC0
:103D200006B070BD0121826919701AB9602000F0D7
:103D300029FBA061E2692AB901214FF4807000F0EB
:103D400021FBE0611C4801F065F803211A4801F0ED
:103D50009EF8C023452D0096019323D04F2D23D0EC
:103D60004FF40063029300234FF48025134C12207C
:103D700003930493059301F0A1F9114A69460E4893
:103D800001F05CF80C48256001F07CF80A4801F06D
:103D900076F80121084801F078F8F02384F812330E
:103DA0002560BDE70023DDE74FF40073DAE700BFCD
:103DB00030330820493C080000C0094000E100E021
:103DC00000BD0105024B034A01210020FFF7B8BBEB
:103DD00088FD080058FD080013B5214801F059F886
:103DE000C207044618D500230DF103011C480193B6
:103DF00001F05EF81B4801AB01220DF1030180695F
:103E000000F09DFB019B3BB14FF08052164B1A60B6
:103E1000BFF34F8FBFF36F8FA3071AD5002211484E
:103E200002AB43F8042D0DF103010122C06900F03B
:103E300053FC80B1019B3BB14FF080520A4B1A609A
:103E4000BFF34F8FBFF36F8F9DF80310044801F04D
:103E500026F802B010BD0221014801F018F8F8E779
:103E600000000A403482072004ED00E001210148EF
:103E700001F00BB800000A400221014801F005B82A
:103E800000000A4070B5294B15461A7886B00446E2
:103E90000E462AB126490720FFF7F0F906B070BD9B
:103EA0000121826919701AB9602000F06BFAA061D3
:103EB000E2692AB901214FF4807000F063FAE061F1
:103EC0001C4800F0A7FF03211A4800F0E0FFC023C0
:103ED000452D0096019323D04F2D23D04FF400633E
:103EE000029300234FF40025134C132003930493F3
:103EF000059301F0E3F8114A69460E4800F09EFF71
:103F00000C48256000F0BEFF0A4800F0B8FF012110
:103F1000084800F0BAFFF02384F813332560BDE7AA
:103F20000023DDE74FF40073DAE700BF31330820E8
:103F3000C53D080000000A4000E100E000BD0105A9
:103F400013B50446C0698DF8071060B10A23012239
:103F50000DF1070100F06AFA636803B198479DF814
:103F6000070002B010BD4FF0FF30FAE710B50A238A
:103F70000446C06900F05AFA18B9054A0121FFF752
:103F8000DFFA636813B1BDE81040184710BD00BFE9
:103F90009CFD08000EB433B5114C05462068C8B12D
:103FA0006421FEF72FF9A8B106AB059A4FF4807192
:103FB0000C48019309F046FC0A4808F081F80949C9
:103FC00002462846FFF7D2FF002320681A4619460A
:103FD000FDF7E8FE002002B0BDE8304003B07047B6
:103FE000343408203233082010B5044C23681BB940
:103FF0000120FDF791FF206010BD00BF3434082080
:1040000010B5037886B0072B0FD10B4C00F01CF8CD
:1040100023685A1C0BD1206018238DF800302368C8
:1040200068468DF8083006F0D3FB06B010BD984204
:10403000F2D0FCF743FBEFE7548207200149072049
:10404000FFF71CB901400800084BD86BDB6B80F010
:1040500020001A06064BC0F34010DB6B58BF40F03F
:1040600002001B0258BF40F004007047000E0E40D3
:1040700000100E400378142B14D182780A4B52B1F1
:10408000012A0BD0187820B1084B1878003018BFDF
:104090000120FFF76BBB42781A70F3E74178034ABF
:1040A0001170EFE7704700BF588207205982072040
:1040B00008B5002000F01CF8012001F097FB05F086
:1040C000C5F805F0ADF804F0F3FA04F01BFB04F0BA
:1040D000FDFA05F0DBF805F0CBF804F005FBBDE8D0
:1040E000084002491420FFF7C9B800BF7540080016
:1040F000014B1870704700BF3834082010B5094CC8
:104100000A4623680BB9084B236023681B6859686B
:1041100008F004F8236858682060003018BF0120B8
:1041200010BD00BF3C3408206082072038B505462A
:1041300048B94FF0A00383F31188BFF36F8FBFF32B
:104140004F8F00BFFDE70820FDF770FC044648B91B
:104150004FF0A00383F31188BFF36F8FBFF34F8F2E
:1041600000BFFDE7FCF7ECFA00236360044B256019
:104170001A681C605460FCF7F3FA012038BD00BFD8
:104180005C820720002330B513608B4217D00446B1
:1041900010F8015B9DB1202DF9D125782046202D06
:1041A00004F10104F9D055B101339942EDD1411E1A
:1041B00011F8013F13F0DF0F136802D123B900207B
:1041C00030BD01331360F3E730BD82684368006897
:1041D0001344181A824298BF801A7047F8B50D46EA
:1041E00004465521284617461E4607F037FE8542ED
:1041F00009D04FF0A00383F31188BFF36F8FBFF393
:104200004F8F00BFFDE724220021204607F026FE45
:104210009DF81830A5612377A760E660F8BD2DE909
:10422000F0410546884617464AB94FF0A00383F38C
:104230001188BFF36F8FBFF34F8F00BFFDE7446856
:1042400083681E1B964228BF1646A219934209D2C4
:104250004FF0A00383F31188BFF36F8FBFF34F8F2D
:1042600000BFFDE780693246204407F081FDB74278
:1042700012D9AB68BA1B9A4209D94FF0A00383F355
:104280001188BFF36F8FBFF34F8F00BFFDE708EBBF
:104290000601A86907F06CFDAB683C449C4228BF4E
:1042A000E41A6C603846BDE8F08137B504460D4627
:1042B0000192BBB1017FC9070AD49A4294BF01920F
:1042C0000193019A29462046FFF7A9FF034609E01A
:1042D000069A934205D304220DEB0201FFF79FFFDC
:1042E000EFE70023184603B030BD9A422DE9F843AA
:1042F000164628BF1E46074689469046002E3ED0E9
:10430000046883681D1BB54228BF3546AA4209D2FE
:104310004FF0A00383F31188BFF36F8FBFF34F8F6C
:1043200000BFFDE76219934209D24FF0A00383F367
:104330001188BFF36F8FBFF34F8F00BFFDE7816917
:104340002A462144484607F013FDAE4211D9B04534
:1043500009D24FF0A00383F31188BFF36F8FBFF32F
:104360004F8F00BFFDE7721BB96909EB050007F02D
:10437000FFFCBB6834449C4228BFE41A3C603046D2
:10438000BDE8F883012AF7B50C460BD1042814D8F0
:104390004FF0A00383F31188BFF36F8FBFF34F8FEC
:1043A00000BFFDE7B0B94FF0A00383F31188BFF35E
:1043B0006F8FBFF34F8F00BFFDE71546A0420BD2B2
:1043C0004FF0A00383F31188BFF36F8FBFF34F8FBC
:1043D00000BFFDE70025F1E7002C00F1010700F127
:1043E000250008BF0124FDF721FB064630B10095EA
:1043F00023463A4600F12401FFF7F0FE304603B0B1
:10440000F0BD48B94FF0A00383F31188BFF36F8F5D
:10441000BFF34F8F00BFFDE7826803684168D01883
:104420000138401A824298BF801A70472DE9F04344
:1044300087B0044616460393894649B94FF0A00356
:1044400083F31188BFF36F8FBFF34F8F00BFFDE77A
:1044500048B94FF0A00383F31188BFF36F8FBFF308
:104460004F8F00BFFDE7037FDB070DD502F1040886
:1044700042450AD34FF0A00383F31188BFF36F8F37
:10448000BFF34F8F00BFFDE79046039B2BBB204639
:10449000FFF7B7FF0746CDF800803B463246494656
:1044A0002046FFF702FF054698B12046FFF78DFE34
:1044B000E36898420DD3FCF76BFB23693BB1002303
:1044C00020691A461946FCF73DFF00232361FCF7DB
:1044D000FFFB284607B0BDE8F08304A8FCF74EFDBB
:1044E000FCF72EF92046FFF78CFF8045074623D9BD
:1044F0000020FDF72BF865694DB14FF0A00383F361
:104500001188BFF36F8FBFF34F8F00BFFDE7FCF73C
:10451000B3FD6061FCF724F92946039B2A4628462F
:10452000FCF7CCFE656103A904A8FCF751FD002847
:10453000D6D0002FAFD1AAE7FCF712F9F9E72DE9A1
:10454000F3410446154698460E4649B94FF0A0037C
:1045500083F31188BFF36F8FBFF34F8F00BFFDE769
:1045600048B94FF0A00383F31188BFF36F8FBFF3F7
:104570004F8F00BFFDE7037FDB074CBF171D1746BA
:10458000FFF73FFF2A460346009731462046FFF7D4
:104590008CFE0546E8B12046FFF717FEE368984217
:1045A00017D3EFF311864FF0A00383F31188BFF305
:1045B0006F8FBFF34F8F23694BB1002320691A46D9
:1045C0001946CDF80080FCF733FF0023236186F302
:1045D0001188284602B0BDE8F0812DE9F743044672
:1045E00017469946884649B94FF0A00383F31188CE
:1045F000BFF36F8FBFF34F8F00BFFDE748B94FF098
:10460000A00383F31188BFF36F8FBFF34F8F00BFF9
:10461000FDE7037F13F0010F14BF04260026B9F154
:10462000000F26D0FCF78CF82046FFF7CEFD86421F
:10463000054611D30020FCF789FF23694BB14FF0E9
:10464000A00383F31188BFF36F8FBFF34F8F00BFB9
:10465000FDE7FCF711FD2061FCF782F8AE4212D3B2
:1046600000224B4611461046FCF728FE0023204648
:104670002361FFF7AAFDB042054604D8002528466D
:1046800003B0BDE8F0837EB12B46324601A9204637
:10469000D4F80090FFF729FE019BAD1B9F4236BF67
:1046A00000271F46C4F800902B463A464146204654
:1046B000FFF71BFE05460028E0D0FCF769FA6369A6
:1046C0003BB1002360691A461946FCF73BFE002304
:1046D0006361FCF7FDFAD2E72DE9FF470446164671
:1046E0009946884649B94FF0A00383F31188BFF378
:1046F0006F8FBFF34F8F00BFFDE748B94FF0A003A6
:1047000083F31188BFF36F8FBFF34F8F00BFFDE7B7
:10471000037F13F0010F14BF04270027FFF755FD97
:104720008742054604D30025284604B0BDE8F0873B
:104730007FB103463A4603A92046D4F800A0FFF70C
:10474000D4FD039BED1B9E4236BF00261E46C4F8D7
:1047500000A02B46324641462046FFF7C6FD0546DF
:104760000028E0D0EFF311864FF0A00383F3118807
:10477000BFF36F8FBFF34F8F63694BB10023606945
:104780001A461946CDF80090FCF752FE00236361EB
:1047900086F31188C8E7012300F01F02400900F5E5
:1047A000001000F20770934040020A074CBF4366B6
:1047B00003668A064CBF0365436511F0C00F14BF42
:1047C000036243620A064CBFC0F88430C0F88030F0
:1047D000026FC9074CBF134322EA03030367704704
:1047E0004FF4003208B5074B00215A604FF4802285
:1047F00011205A60FFF7CFFFBDE8084000211220CA
:10480000FFF7C9BF000E0E402DE9F74F4FF001082A
:104810000226B54D0B2000F051FC0C2000F04EFCA0
:104820006E614046C5F8A0600021C5F81080C5F84B
:10483000A0806E60C5F80480FFF7ADFF0021084638
:10484000FFF7A9FF4FF480424FF40043A74C00212B
:1048500063612F20C4F8A0302261C4F8A0206360F7
:1048600062600192FFF797FF00212E20FFF793FF70
:104870004FF080732361C4F8A03023634FF48003AA
:104880004FF4007723610821C4F8A03023634FF46C
:10489000807308466B61C5F8A0302F61C5F8A07021
:1048A0006B606F60FFF777FF08210920FFF773FF48
:1048B0004FF480636B61C5F8A0304FF400632B6147
:1048C000C5F8A0304FF480636B604FF400634FF481
:1048D000805B6B6008210A20FFF75DFF08210B2039
:1048E000FFF759FFC5F814B00021C5F8A0B00C209F
:1048F000C5F804B0FFF74FFF4FF4005308212B61B8
:104900000D20C5F8A0306B60FFF745FF4FF4001392
:104910004FF4801A63610021C4F8A0303520636031
:10492000FFF739FFC4F810A00821C4F8A0A0342074
:10493000C4F804A0FFF72FFFFFF752FF26610423FE
:10494000C4F8A06026630826C4F810804FF0400920
:10495000C4F8A0804FF00071C4F830802661C4F81C
:10496000A06026632361C4F8A03023632023C4F829
:1049700010900320C4F8A090C4F810B0C4F8A0B000
:104980002761C4F8A0702361C4F8A0302161C4F885
:10499000A010C4F83490C4F834B067636363009324
:1049A00061636E613146C5F8A060FFF7F4FE2761D0
:1049B000C4F8A07067604FF4803741462920FFF7A4
:1049C000EAFE6F613146C5F8A0701020FFF7E3FEE4
:1049D00067613146C4F8A0703020FFF7DCFE4FF469
:1049E000003104234FF400274FF080086161019AE1
:1049F000C4F8A0106B61C5F8A030009BC5F810A0EA
:104A00003146C5F8A0A00520C5F834A02F61C5F82F
:104A1000A0706F632A61C5F8A0206A636B61C5F856
:104A2000A030FFF7B8FEC5F814803146C5F8A08065
:104A30000720FFF7B0FE10204FF400014FF4800371
:104A4000C5F81090C5F8A0902861C5F8A0002961AC
:104A5000C5F8A0102B61C5F8A0304FF080732B6112
:104A6000C5F8A0304FF4005327614FF48022C4F8FA
:104A7000A070C4F81080C4F8A0802361C4F8A030EE
:104A80004FF480732261C4F8A0202361C4F8A030E1
:104A90004FF480634FF400662361C4F8A0304FF0F8
:104AA00080632361C4F8A0302661C4F8A060C5F813
:104AB0003490686369634FF4800169634FF08071DB
:104AC00069634FF400516763C4F8348061636263C3
:104AD0004FF4807262634FF4806262636363666363
:104AE00003B0BDE8F08F00BF000E0E4000100E4076
:104AF0002DE9F74F01264FF00208B14D0B2000F0D1
:104B0000DDFA0C2000F0DAFAC5F814803046C5F85A
:104B1000A08000212E61C5F8A060C5F804806E60F9
:104B2000FFF739FE00210846FFF735FE4FF48049B4
:104B30004FF40043A34C002163612F20C4F8A03040
:104B4000C4F81090C4F8A0906360C4F80490FFF714
:104B500022FE00212E20FFF71EFE4FF080734FF43F
:104B600080072361C4F8A03023634FF4807327616A
:104B70004FF4007AC4F8A07027636B61C5F8A030C9
:104B80004FF48063C5F810A0C5F8A0A0C5F830A008
:104B90006B61C5F8A0304FF400634FF400322B6115
:104BA0004FF4805BC5F8A0302B634FF40053C5F879
:104BB00014B00821C5F8A0B011202B61C5F8A030B1
:104BC0002B636A61C5F8A0200192FFF7E4FD4FF462
:104BD000802308216B611220C5F8A030FFF7DBFDB0
:104BE000C4F810800423C4F8A0804FF00051C4F82A
:104BF000308026614FF04008C4F8A0602663082684
:104C00002661C4F8A06026632361C4F8A030236342
:104C100000932963C4F830B02961C5F8A010C4F826
:104C200010804FF00071C4F8A080C4F810B0C4F830
:104C3000A0B04FF0200BC4F810A0C4F8A0A0C4F896
:104C400010B0C4F8A0B02161C4F8A010C4F834803A
:104C5000C4F834A04FF4803AC4F834B01020616333
:104C60003146C5F814A0C5F8A0A0FFF794FDC4F81C
:104C700014A03146C4F8A0A03020FFF78CFD6E616F
:104C80003146C5F8A0600320FFF785FD019A009B1F
:104C900062614FF4002AC4F8A0206B61C5F8A0300F
:104CA0004FF480132B61C5F8A0306B63C5F810A0DA
:104CB000C5F8A0A0C5F834A0C5F81090C5F8A0901C
:104CC000C5F834904FF08009C5F814B0C5F8A0B00D
:104CD0004FF4000B31460520FFF75DFDC5F8149039
:104CE0003146C5F8A0900720FFF755FDC4F814B071
:104CF0003146C4F8A0B03720FFF74DFD10224FF029
:104D00008073C5F81080C5F8A0802A61C5F8A0207E
:104D1000C5F810B0C5F8A0B02F61C5F8A0702B6120
:104D2000C5F8A0304FF40053C4F810A0C4F8A0A0F8
:104D3000C4F81090C4F8A0902361C4F8A0304FF4D8
:104D400080232361C4F8A0304FF480732361C4F83A
:104D5000A0304FF480634FF400612361C4F8A030A9
:104D60004FF080632361C4F8A0302161C4F8A01023
:104D7000C5F834806A634FF08072C5F834B06F6351
:104D80006A634FF40052C4F834A0C4F834906263EC
:104D90004FF4802262634FF4807262634FF480624A
:104DA000626363634FF4004361636B61C5F8A030D5
:104DB0004FF400136B61C5F8A03003B0BDE8F08F6D
:104DC000000E0E4000100E40B2EB011F30B52CBF9C
:104DD0001024082461434B0803EBC202B2FBF1F23A
:104DE0004FF6FE73D1084D1E9D4210D8082C08BF07
:104DF00043684FEA024202F4E02208BF43F4002372
:104E000042EA010208BF43600262002030BD012077
:104E100030BD0000084BC0F8E4300023436043621B
:104E2000836288230360242303604FF4807303604C
:104E30004FF40023036070470041535570B5054699
:104E40000C46FFF7E7FF00230A4E336009B9012043
:104E500070BD0968FFF7B8FF0028F8D1A268636841
:104E6000134322691343E26813436A6833601343B0
:104E70006B6070BD40340820806DC0B27047402325
:104E80000360704710230360704781607047C16002
:104E90007047406970474FF48073036070474369FF
:104EA0009B0743BFC1F30801C16100200120704787
:104EB0004369DB0741BF83690020C3F308030B602C
:104EC00058BF0120704700000E4B1A6B22F00302FE
:104ED0001A6340F60102996E09070BD51A6B22F08E
:104EE0007002104340F601021863996E090705D558
:104EF00000207047013AEED101207047013AF4D109
:104F0000FAE700BF00060E400F4B1A6B22F00302B7
:104F100042F001021A6340F60102996E09070BD5AF
:104F20001A6B22F07002104340F601021863996E6A
:104F3000090705D500207047013AEED101207047DE
:104F4000013AF4D1FAE700BF00060E400F4B1A6B8E
:104F500022F07002104340F601021863996E0807B0
:104F60000CD51A6B22F0030242F002021A6340F6DB
:104F70000102996E090705D500207047013AEDD16D
:104F800001207047013AF4D1FAE700BF00060E4055
:104F9000054B586910F080001FBFA3F5A053103BCC
:104FA000986EC0F3C0107047101A0E40174B10B522
:104FB0001A6A12F0010F1A6A1FD0002122F45C1243
:104FC00022F0780242F45C1242F0080202431A62B4
:104FD0009A6E9203FCD51A6A22F09B7222F48032F8
:104FE00042F45C121A6239B11A6A22F45C1222F09D
:104FF000010242F45C121A6210BD054C05491440CE
:105000002143014319620121E2E700BF00060E407F
:105010008600C8FF09FF3700044A136A23F45C13B3
:1050200023F0780343F45C131362704700060E40CC
:10503000034A136A23F0030343F45C1313627047BB
:1050400000060E400E4A136A28B10E4919400E4B55
:105050000B431362704723F45C1323F0030309022C
:1050600043F45C1389B243F001030B431362936E64
:10507000DB07FCD5136A43F09B7343F48033E8E706
:1050800000060E40FCFFC8FE02003701024B986E7E
:1050900000F48030704700BF00060E404FF0005211
:1050A000014B9A62704700BF00060E40024B986E9B
:1050B00000F00200704700BF00060E402C2818D8F0
:1050C0001F280D4A4FF0010308D8916903FA00F038
:1050D00030EA010300D01061002070472038D2F878
:1050E000081103FA00F030EA0103F5D0C2F800011C
:1050F000F2E70120704700BF00060E40034BC0F3EB
:1051000012001A6F10431867704700BF00060E4068
:105110000069704700EB4111D1F8100270478B799C
:105120000A781B0403F4702343F4000300EB4210DD
:10513000C0F81C3270478A6870B502F0C073B3F1D2
:10514000C07F14BF002402240B78C2F303425B012A
:10515000C518D5F80C62042A8A7126F060464E61A3
:10516000D5F8146288BFD5F818228E6188BFCA614D
:10517000C218D2F8102203448A60D201D3F8082260
:10518000D3F8083248BF44F0040412F000521DBFA7
:1051900023F060430B6101239B0C12BF4B710B6129
:1051A0004A71FFF7BCFF204670BDAC2310B54A68BA
:1051B00003600B68B3FBF2F34FF6FE721B095C1E33
:1051C00094420AD803628B68436040F20223C0F81D
:1051D000203150230360002010BD012010BD50235A
:1051E00003607047AC230360704781607047C16003
:1051F00070474069704743699B0746BFC161002003
:10520000012070474369DB0743BF836900200B70AF
:1052100001207047C36C0164704741647047C06CE3
:105220007047D3060ED59306C0F8B0104CBFC0F837
:10523000D410C0F8D01053064CBFC0F8C010C0F84E
:10524000C4107047C0F8B4107047FFF7EABF000001
:10525000014B53F820007047901A0E40014B43F861
:1052600020107047901A0E40014B0360704700BF3A
:10527000050000A5406800F4E0607047084BB3FBF0
:10528000F1F1814208D8C1EB0133834204D3B0FB72
:10529000F1F0C0F30B0070474FF6FF70704700BF8E
:1052A0000020A10710B5044CC2F30B0204EA03432B
:1052B00013430B43436010BD0000FF0F024B9842A5
:1052C00004BF024B03607047501A0E40010000A556
:1052D0004068C0F30B00C001B0FBF1F10148484346
:1052E000704700BF40420F00134B07B5DA6AD00782
:1052F00042BF01219962196A910742BF0221996256
:105300001B6AD30544BF4FF480720B4B01A944BF05
:105310009A621B6A094B1868FCF775FE019B3BB14A
:105320004FF08052064B1A60BFF34F8FBFF36F8F61
:1053300003B05DF804FB00BF00C0084044340820FF
:1053400004ED00E0436801F00F0123F00F030B436D
:1053500043607047436801F4E06123F4E0630B436A
:1053600043607047436843F480534360704700686C
:10537000C0F303207047C068704708B5120202F4FA
:10538000706211430DF074FB002008BD0368090230
:1053900001F4706123F4706319430DF069BB0000E0
:1053A00038B5A1F10E03012B17D9EFF3108472B6B3
:1053B000BFF35F8F00230A4DC9B22B70094B03EA7C
:1053C000022242F0B44211430DF05AFB3CB90123D2
:1053D0002B70BFF35F8F62B638BD4FF0FF3038BD22
:1053E0006C82072000FFFF0030B50F4C256805F5E3
:1053F00000248C4210D8C5F17F4404F578040C4495
:10540000491B0A4DC4F30F24C9B200B1056002B1B3
:10541000148003B1198030BDA1F50024C4F30F241A
:10542000C9B2034DF1E700BFBC8C0720000C0E4051
:10543000000A0E4038B504460D460A4601460548A6
:10544000FFF79BFF2A4621460348FFF796FF0020FF
:1054500038BD00BF000A0E40000C0E402DE9F04F91
:1054600085B001930F460DF10A030146154603A8C6
:1054700002AAFFF7B9FF0398FFF779FF06218146DB
:105480000398FFF783FFDFF8BCB0DFF8B4803DB9C5
:1054900003984946FFF77AFF284605B0BDE8F08F2C
:1054A000BDF80A20254CC2F58073AB421E4628BFCA
:1054B0002E460398BDF80810A04215BFDBF8004047
:1054C00001F5006404F50024240218BF04EB012454
:1054D0009B1B21461A481FFA83FA06F049FCBDF8C7
:1054E0000A0032463946404406F042FCBDF80A0044
:1054F000524630440119404406F03AFC04F58073EA
:10550000A8EB04010A5944F8042BA342FAD1019BE9
:10551000BDF808207BB103210398FFF741FF002865
:10552000BBD1BDF8083037440133AD1BADF80830AE
:10553000ADF80A00ABE70121EEE700BF000A0E401C
:1055400048340820BC8C0720042370B586B002AD17
:1055500006460C4600930F222B460E2109480DF0FB
:105560008BFA68B9042C28BF04240346A34201D156
:1055700006B070BD55F8232046F823200133F5E727
:105580001020F5E7000A0E40EFF30583FCE700006A
:105590002B4A10B5136B03F00303012B294B0FD0DB
:1055A00004D3116ACC012CD5274946E02749496923
:1055B00008064CBF4FF400414FF4FA4119600DE06A
:1055C000116AC90101D52049F8E721491960116A1A
:1055D00001F07001102912D02029F4D0116B01F0D4
:1055E0007001702905BF03211A68116BB2FBF1F23B
:1055F0001EBF1A68C1F30211CA401A6010BD1549D6
:10560000DCE713491960116A01F07001102913D009
:105610002029C9D0116B01F00301022901BF946A4E
:105620001968C4F30A4404FB011109BF906A0A49CE
:10563000C0B2B1FBF0F1C1E706491960EAE700BF6B
:1056400000060E4068820720001BB700101A0E40AB
:1056500000093D0000127A00001C4E0E114B124A48
:105660009842124B03D8002111601960704710490D
:10567000884202D84FF48071F6E70E49884202D87A
:105680004FF40071F0E70C49884202D84FF44071A2
:10569000EAE70A49884294BF4FF480614FF4A06161
:1056A000E2E700BFBFEA2101000A0E40000C0E40F5
:1056B0007FF0FA02FF8FD003FFB3C4047F4A5D0579
:1056C0000D4808B5FFF7CAFF3E210020FFF7BAFCDE
:1056D000FFF7DCFC0028FBD0FFF7E0FC074A084B93
:1056E0009A62FFF7E3FC0028FBD00020FFF72EFCB6
:1056F000BDE80840FFF74CBF00BD0105013F062093
:1057000000060E402DE9F0472F4A86B013782F4E41
:10571000013313702E4B1B788BB932798DF8003022
:1057200033786846934228BF13468DF8083005F059
:105730004FF8012000F09AF806B0BDE8F087002489
:105740004FF6FF7827464FF0010ADFF88C9056F8A5
:105750002450A300454505D0BDB10120013DF550C1
:1057600000F084F80134022CF1D1CFB933783279CA
:105770008DF80070934228BF13468DF80830FDF76E
:10578000C5FE684605F024F8D6E723464A460121BF
:105790002846FDF7D5FE0AFA04F31F432846DFE743
:1057A0000C4A01210020FDF7CBFE002368468DF84E
:1057B00000308DF8083005F00BF84FF47A70FBF7E5
:1057C000FFFAFAF77BFFB7E7513508204835082084
:1057D0005235082028FE08000CFE08004FF4B47271
:1057E000014B43F820207047483508204FF6FF72E0
:1057F000014B43F82020704748350820014B1870B2
:10580000704700BF5235082073B5124B124A012170
:105810000020FDF795FE114B1C78C4B901251D70C1
:105820000F4B2A46FA2100930E482346FBF758FFF8
:105830000646FBF7B5F92346024600942946304652
:10584000FBF774FF4FF6FF72074B1A605A6002B005
:1058500070BD00BF00FE080059F90800503508204F
:10586000055708003CFE0800483508204FF000525C
:10587000044B1A61C3F8A02008B11A6370475A6339
:10588000704700BF000E0E4000230246FF2180F843
:105890004630831C42F8403F03F8011B9342FBD182
:1058A0009F2200230270022280F84930427080F863
:1058B000473080F84C3080F8483080F84A3080F823
:1058C0004B3080F8441080F845307047F8B500231D
:1058D0000B4C0C4E0C4F22785D1CDBB29A4206D862
:1058E0000A4A0121BDE8F8400020FDF729BEF35C1B
:1058F0003A4601210020FDF723FE2B46EBE700BFCF
:10590000DC36082014360820C9FE0800F7FC080021
:1059100008B5FAF715FF0023054A1370054A1370FE
:105920000122054B1A70BDE80840FAF719BF00BF05
:10593000C0350820643508206D82072010B5124C50
:105940002378022B10D8114A01210020FDF7F8FD21
:1059500023780F48013323700023BDE810401A4616
:1059600019460068FCF71EBA0A4A01210020FDF71B
:10597000E7FD094B00211868FCF7AEF9FFF7A6FF19
:10598000BDE81040FFF7C4BFC0350820CFFE0800B7
:1059900058350820D9FE0800BC3508200023F7B58B
:1059A0001A46224C22492078DDB285423AD39F2301
:1059B0000B7002232270002003224B701D4B93F8C2
:1059C00044501F6C8D70C6B2BB5D01309F2B12BF5F
:1059D00013468B54531CBA5D08BFDBB2C6B2CA541F
:1059E000B54203F10102D2B2EDD29F2088540322C6
:1059F000DD1C0233DBB2CA540F4BEDB21E68FBF75D
:105A0000CFF800230246009301213046FBF78EFEBB
:105A10002A460A4B064918682570C36803B0BDE8DA
:105A2000F0401847CA540133BEE700BFDC360820F7
:105A300014360820C4350820603508205435082065
:105A400030B50D4B93F844001A6C93F8451002449E
:105A50005170002193F844204C1CC9B28A4202F1D3
:105A6000010202D283F8442030BD186C415C855C91
:105A7000694081542146EDE7C4350820094A92F86F
:105A80004430A3F13D01C9B2C1290AD90133116CD7
:105A9000DBB282F84430C85492F84530013382F8C2
:105AA00045307047C43508202DE9F047AF4E88B027
:105AB00030684E2243694FF4E1319847AC4CAD4F0A
:105AC00000213868FCF79EFB002857D0AA4B1B78B2
:105AD000002B53D0FFF762FF30680A2301220DF13B
:105AE0000B018069FEF779FD002800F0298194F808
:105AF00046209DF80B30002A00F09B800022022BEC
:105B000084F8462077D12046FFF7BEFE012384F8B3
:105B1000493094F84830002BDED00125964B1D709B
:105B200094F84730002B00F0AC800A230093002348
:105B300092481A4603210068FBF7F8FD94F84B30B1
:105B4000002B00F09B80DFF8648298F80030032B74
:105B500000F28D808A4A29460020FDF7F1FC0023DF
:105B600038681A461946FCF71DF998F800302B449E
:105B700088F800302046FFF787FEADE7DFF8308277
:105B800098F80030002BA7D07E4B002203A918689C
:105B9000FCF790FA00289FD0774B1B78002B9BD006
:105BA0007948FFF771FE0120FFF768FFFE20FFF73D
:105BB00065FF9DF80C00FFF761FF9DF80C30022B8C
:105BC00011D1DFF8F0A10DF10F050DF113096B787C
:105BD000524601210020FDF7B3FC15F8010FFFF735
:105BE0004DFF4D45F3D1FFF72BFFFFF7D7FE002305
:105BF00088F8003070E7032B07D194F84930002B68
:105C000087D0012384F8483083E7062B05D1012390
:105C100084F84A3084F847307BE7152B03D1012301
:105C200084F84B30F6E79F2B09D02046FFF72CFE77
:105C30006FE79F2B03D1012384F8463069E794F87E
:105C40004420A2F13E01C9B2C0297FF662AF94F8A8
:105C5000491029B194F8451011B984F8453058E736
:105C6000216C0132D2B284F844208B5451E7474A68
:105C700029460020FDF764FCFFF728FEFFF748FEE9
:105C800078E7216C94F845E00B46754694F844009B
:105C900001F141081FFA80FC5A1A92B2944505D3CB
:105CA00013F8012B55409845EDB2F5D186453CD10E
:105CB000002D3AD1364A03AB10685168082203C35D
:105CC000306803A9C368984794F84830002B3FF424
:105CD00051AF216C4B78022B45D18B78032B12D11D
:105CE0000C22033104A806F043F80223294A8DF858
:105CF0001C3001219DF818300020FDF721FC03A87D
:105D000001F0F6FD36E7244A01210020FDF718FCDA
:105D100094F84530FF2B18BF1D4600230335DAB237
:105D2000954203F10103FADA24E71C4A03AB106839
:105D30005168082203C3306803A9C368984719E76C
:105D4000174B1D786A1C1A70002D7FF4B8AEFBF754
:105D500083F963283FF6B3AE124B134A012128465C
:105D6000FDF7EEFBABE6FE2BB7D003E7543508207A
:105D70006835082058350820B835082060350820D7
:105D800063FE0800BC350820C43508206AFE080000
:105D90004BFE080089FE0800A7FE080042FE08002E
:105DA0005D35082054FE080012FC08006435082008
:105DB0006D820720C9FE080073B5194E347864BBA4
:105DC0000125184A184B19491A60194823460194AD
:105DD00000954FF4C872FAF7B7FD2246102128202B
:105DE000FBF7BAFF134B2A461860134BA021009310
:105DF00012482346FBF774FC114B2146186003221E
:105E00002846FBF7A9FF0F4B0F4918601D2035707E
:105E100002B0BDE87040FDF731BA02B070BD00BFFE
:105E20005C3508203482072054350820BAFE08006B
:105E3000A95A0800BC3508203D590800C3FE0800D7
:105E40006035082058350820615E08000146034887
:105E5000002302220068FBF7A5BF00BFBC35082065
:105E60007FB503781D2B30D10023019383782BB9A4
:105E70009DF8043043F001038DF8043043792BB9C9
:105E80009DF8043043F008038DF8043003792BB9F2
:105E90009DF8043043F004038DF80430C3782BB927
:105EA0009DF8043043F002038DF804300422C388C7
:105EB0000DEB020103A8ADF8063005F059FF0223EF
:105EC00002A88DF80830FFF7C1FF07B05DF804FBAA
:105ED00038B583784478012B12D10F4A13700F4DD7
:105EE000204600F06DF82A78A24211D0FDF75AFC46
:105EF0007CB90B4A01210020FDF722FB2C7007E042
:105F0000002BECD1074B1C70034B1B78002BE6D009
:105F100038BD054AEEE700BFDD3608206E82072057
:105F200002FF08006F82072011FF0800014B18785C
:105F3000704700BF6F82072008B500F04BF8064994
:105F40001020FDF79BF9002000F03AF8BDE808406A
:105F500002490620FDF792B9D15E08007B5F080078
:105F6000112300B58BB08DF8010068468DF8003024
:105F7000FDF7A6F90BB05DF804FB08B50378062B16
:105F800005D100F005F8BDE80840FFF7E9BF08BDFE
:105F9000084B30B5084CDB6B084D2178C3F34053F8
:105FA000287841EA0302024001EA030029702370C5
:105FB000104330BD000E0E40DE360820DF360820CC
:105FC000034B4FF0007208B91A6370475A63704769
:105FD00000100E404FF000720A4B1A61C3F8A02067
:105FE0001A634FF40012A3F500735A61C3F8A0209E
:105FF0005A665A655A62C3F880201A6F22F400125A
:106000001A67704700100E40034B4FF4805208B9D6
:106010001A6370475A63704700100E40024BD86BEA
:10602000C0F30030704700BF00100E40034BD86B28
:1060300080F48050C0F30030704700BF00100E4065
:10604000084B30B5084CDB6B084D2178C3F3004397
:10605000287841EA0302024001EA03002970237014
:10606000104330BD000E0E40E0360820E236082016
:10607000084B30B5084CDB6B084D2178C3F3004367
:10608000287841EA0302024001EA030029702370E4
:10609000104330BD00100E40E1360820E3360820E2
:1060A0004FF48052024B1A61C3F8A020704700BF22
:1060B00000100E400378152B04D14278074B12B91B
:1060C00001221A7070471A78002AFBD004490A7816
:1060D00082F001020A700022F3E700BF74820720F9
:1060E000EA36082038B50378072B28D1144B154C15
:1060F0001D78CDB9042000F0B9FB1E2804D9042076
:10610000294600F0B9FB28463C23584320600E4B3B
:106110001B78A3B10D4A1378591C022B11700ED9AC
:10612000BDE83840FAF7CABA2368002BEFD0013B2C
:10613000074A012100202360FDF702FAE7E738BD96
:1061400073820720E4360820E9360820E836082064
:1061500067FF0800F8B503780546132B1BD12E4EB8
:1061600042782E4F2E4C31683A70227031B1012A9C
:1061700004D1FFF753FF60B100233B70294B227815
:106180001978914203D0002027491A700870012322
:1061900002E03060F2E700232A78062A01D0002BC3
:1061A00033D0214B1D4A1978147861B1012C2DD0C0
:1061B0004CB91948016859B319490C78012C27D1F9
:1061C0000021016019701949097839B101240020B2
:1061D00014702146164A1870FDF7B2F92046FFF7F1
:1061E00013FF14B10E4B1B7813B90020FFF7F6FA1A
:1061F000104D2A78A24208D0FDF7D4FA54B90E4ABD
:1062000001210020FDF79CF92C70F8BD0024DAE78D
:106210000124D8E7094AF3E7E43608207082072012
:106220007382072072820720EA360820E9360820A8
:1062300021FF0800718207204AFF080058FF08006C
:106240000122014B1A707047E9360820014B18787B
:10625000704700BF73820720FFF7E0BE10B50E4CF9
:10626000FFF71EFF0120FFF7CFFE21461320FDF7A9
:1062700005F821460620FDF701F808491520FCF72E
:10628000FDFF07490620FCF7F9FFBDE8104005496E
:106290000720FCF7F3BF00BF55610800B560080098
:1062A000C7620800E5600800142300B58BB08DF8C4
:1062B000010068468DF800308DF80210FDF700F8F7
:1062C0000BB05DF804FB08B50378062B0BD1FFF784
:1062D000B7FE0021FFF7E8FFFFF7CAFEBDE8084060
:1062E0000121FFF7E1BF08BD152300B58BB08DF884
:1062F000010068468DF80030FCF7E2FF0BB05DF856
:1063000004FB0000034B402208B91A6370475A632C
:10631000704700BF00100E40034BD86B80F0400068
:10632000C0F38010704700BF00100E404022034BA6
:106330001A61C3F8A0201A63704700BF00100E4016
:1063400038B54478094D2046FFF7DCFF2A78A24291
:1063500008D0FDF727FA34B9054A01210020FDF7DE
:10636000EFF82C7038BD034AF7E700BF75820720AD
:1063700090FF08009CFF080008B5FFF7D7FF162024
:106380000349FCF77BFFBDE808400120FFF7BABFD7
:1063900041630800034B202208B91A6370475A630F
:1063A000704700BF00100E40034BD86B80F02000F8
:1063B000C0F34010704700BF00100E40024BD86B76
:1063C000C0F34010704700BF00100E402022024B67
:1063D0001A61C3F8A020704700100E40032238B5A0
:1063E000184B44781C70184B012C1A701DD1FFF704
:1063F000E5FF10B3154B1C78B4FA84F46409FFF779
:1064000025FF012808BF0124114D2046FFF7C2FFD8
:106410002A78A24208D0FDF7C5F984B90D4A0121B6
:106420000020FDF78DF82C7038BDFFF7C7FF00285E
:10643000E5D1094B1B78002BE1D00124DFE7074AA7
:10644000EDE700BF7782072078820720EB3608202F
:1064500076820720A9FF0800EC360820B6FF080066
:1064600003781B2B06D14368B3F5AF6F82BF0022C0
:10647000014B1A70704700BFEB36082010B52B4A4D
:1064800004461378002B3BD1294901200B70294980
:106490000B7003231370284B1870284B1870FFF7EC
:1064A00079FF2478072C3FD1204600F0DFF91E2821
:1064B00003D90021204600F0DFF9062000F0D6F9CC
:1064C0001E2803D90021062000F0D6F91B4B052019
:1064D0001B78C3B900F0CAF9012804D1072000F0E5
:1064E000C5F9134B1870134A1378EBB1013BDBB2BB
:1064F0001370134A0121BDE810400020FDF720B8B9
:10650000013B1370CDE700F0B1F9012804D106205A
:1065100000F0ACF9074B1870054A137823B1013B22
:10652000DBB21370074AE5E710BD00BF7882072091
:10653000EB360820EC360820768207207782072089
:10654000C4FF0800EEFF080008B5FFF73FFF084949
:106550001720FCF793FE07490720FCF78FFE1B204E
:106560000549FCF78BFEBDE808400120FFF712BF8C
:10657000DD6308007D6408006164080030B58BB0FD
:106580004FF0A00383F31188BFF36F8FBFF34F8FDA
:10659000144A154814880378144921F8134000233D
:1065A000138083F311880A2502780132D2B2B2FB3C
:1065B000F5F405FB14221C46027031F81320013358
:1065C0000A2B1444F9D10A4D2B689C4207D01C2396
:1065D00068468DF800300194FCF772FE2C600BB019
:1065E00030BD00BFEE360820F0360820F83608200F
:1065F0000C37082037B51E4D44682B689C4234BFC9
:106600001B1BE31A132B94BF002301236BB12046FD
:1066100004F09CFC0022174B04F038FE164ACDE92A
:10662000000101210020FCF78BFF632C07D800211B
:10663000084600F085F800232B6003B030BD2B68BE
:106640009C4234BF1B1BE31A312B94BF0023012350
:10665000002BF2D032234EF66021B4FBF3F301207D
:10666000B1FBF3F100F06CF8FDF79CF82C60E4E767
:10667000F43608200000594019000900014B186841
:10668000704700BFF436082073B5134D2C7804BB57
:1066900000F078F811491B20FCF7F0FD104B0122A7
:1066A0000093642123460F48FBF71AF80646FAF7D1
:1066B00077FA23460246009401213046FBF736F86C
:1066C0000123214620462B7002B0BDE8704000F047
:1066D00037B802B070BD00BFED360820F565080080
:1066E0007D6508002800090038B5124804F0D8FA82
:1066F00003061DD5104D11492C680E4864082A6800
:1067000004F0A8FA22460D490A4804F0B1FA2A68B2
:106710000A49084804F09EFA22460849054804F050
:10672000A7FABDE8384000220721024804F0C3BAA6
:1067300038BD00BF004009403C3708201037082012
:1067400038B505460C4C80B10C4B196023782BB939
:1067500007210B4804F09AFA012323700022BDE8B8
:1067600038400721064804F09DBA0721044804F088
:1067700092FA257038BD00BF383708203C37082012
:10678000004009401FB52420FEF798FC0721194856
:1067900004F081FA2420FEF791FC47F230530024E4
:1067A0000193154B01A913480294039304F0C4F913
:1067B00020B1124A21462046FCF7C2FE00231049B0
:1067C00007240B818B720B234B6064230B613223F4
:1067D0000848CB600C6004F0CEF92146054804F06F
:1067E0005AFA1022074B5A60F02283F8242304B08F
:1067F00010BD00BF0040094000BD01052E0009008A
:106800001037082000E100E00A2310B588B000939B
:106810000023124C124822780068162A87BF1A46B5
:1068200003214FF496720421FAF780FF17238DF8A5
:10683000083023780121DA088DF81020009200201A
:10684000084AFCF77DFE00238DF81130064B02A8A4
:10685000039303F0BDFF08B010BD00BF59370820F7
:106860005C3708204A00090031690800014B185CB8
:10687000704700BF413708207FB5094B1A5C8A4238
:106880000AD0195405238DF8080068468DF80030A9
:106890008DF8091003F09CFF07B05DF804FB00BF02
:1068A000413708207FB57F2306A800F8183D03F084
:1068B0008FFF07B05DF804FB37B5114A1378EBB9C9
:1068C000FF20104958540133182BFBD101240E4BE3
:1068D00014704FF4C871224600930C480023FAF755
:1068E000FFFE0B4B05461860FAF75AF90A230246D9
:1068F0000093214600232846FAF718FF03B030BD65
:10690000403708204137082009680800C3FE080006
:106910005C3708201E2300B58BB08DF80100684657
:106920008DF80030FCF7CCFC0BB05DF804FB0000E8
:106930002DE9F84F894692460024C000DFF85C80BC
:10694000C6B2144F08EB060B4C4504D10122124B82
:106950001A70BDE8F88FA519172D18DC1AF8043045
:10696000012D0BF8043002D12846FFF7D3FF172D75
:106970003D7009D198F817301BB901212846FFF75F
:106980007BFF0220FFF7C6FF3B7801333B700134E9
:10699000DAE700BF593708205A3708204137082066
:1069A00070B5417990F808418D1DA54217D18378C3
:1069B000C2780B4413440279053113440622DBB23A
:1069C000914206DADB430134435580F80841012047
:1069D00070BD865C01323344DBB292B2F0E7002036
:1069E00070BD0023FF2180F8083180F8093100F2E2
:1069F0000712431E03F8011F9342FBD1002380F8C6
:106A00000A3180F80B3170470122014B1A70704730
:106A1000F4380820704700000378272B02BF427823
:106A2000014B1A70704700BFD037082010B50378AB
:106A30000146222B03D12822054805F099F9BDE82B
:106A40001040002303481A4619460068FBF7AAB90C
:106A5000603708208837082002F0C2BF037801465B
:106A6000322B05D1034800230A220068FBF79AB9AC
:106A7000704700BFF8380820037801462F2B05D156
:106A8000034800230A220068FBF78CB9704700BF57
:106A9000943708200378282B06D1011D03480023D2
:106AA0000A220068FBF77EB9704700BFD437082080
:106AB00003782D2B03D141780920FFF7DDBE704705
:106AC00010B503782A2B10D10446084A54F8043F25
:106AD00004210220FCF734FD05482146BDE81040A2
:106AE00000230A220068FBF75DB910BDD000090041
:106AF000A437082010B503780446332B0DD1074A7C
:106B000001210020FCF71CFD0548611C0023BDE8A5
:106B100010400A220068FBF745B910BDA800090023
:106B20008C37082013B50378182B47D10222411C5B
:106B3000684605F01DF99DF8002052B923490B78ED
:106B40003BB1DC0741BF581C08708DF800308DF850
:106B500001209DF80020D00718D51C4B1B78D907C1
:106B600014D59A4212D000240133194A012120463B
:106B70008DF804308DF80540FCF7E2FC15482346FB
:106B80004FF0FF3201A90068FBF70CF99DF80030C7
:106B9000A3B10E4C22789A4210D00F4A0121002056
:106BA000FCF7CEFC0B486946002302220068FBF785
:106BB000F9F8014620B19DF80030237002B010BDF5
:106BC000064A0220FCF7BCFCF8E700BF9937082012
:106BD0003B010900F0380820460109005401090072
:106BE00070B5037888B02E2B40F00381037CA04C55
:106BF000012B00F00081022B40F03481011D0C229A
:106C00009C4805F0B5F89B4A6078537801091D0946
:106C10008D4203F00F0300F00F0028BF0D468342A2
:106C200028BF03469DF81510207865F3071163F31C
:106C3000030113788DF815101D0901098D4203F029
:106C40000F0300F00F0028BF0D46834228BF034604
:106C50009DF81410E07865F3071163F30301D3780E
:106C60008DF814101D0901098D4203F00F0300F087
:106C70000F0028BF0D46834228BF03469DF817101A
:106C8000A07865F3071163F3030193788DF817106B
:106C90001D0901098D4203F00F0300F00F0028BF0A
:106CA0000D46834228BF03469DF81610607965F3B0
:106CB000071163F303018DF81610517983098D09CB
:106CC0009D4238BF1D469DF81930C0F3011665F38B
:106CD0008713C1F30115B54238BF3546C0F38106AD
:106CE00065F30513C1F38105B54201F0030100F01E
:106CF000030038BF3546814238BF014665F3830340
:106D000061F301038DF81930117920798D09830918
:106D10009D4238BF1D469DF81830C0F3011665F33B
:106D20008713C1F30115B54238BF3546C0F381065C
:106D300065F30513C1F38105B54201F0030100F0CD
:106D4000030038BF3546814238BF014665F38303EF
:106D500061F301038DF8183000238DF81C3094F98D
:106D600008301646002BB4BF0123137A9DF81C206F
:106D7000A8BFDB0963F3C7124FF6FF738DF81C2021
:106D8000BDF814203C4D9A4218BF2B784FF00101FA
:106D90001CBF43F002032B704FF6FF73BDF81620A3
:106DA00000209A4218BF2B78BDF818201CBF43F072
:106DB00001032B702B7802929DF81C200192059AFA
:106DC00000922E4AFCF7BCFB327A9DF81C300192EF
:106DD000227A012100920020294AFCF7B1FB287891
:106DE00002F0F0FD274800230A2205A90068FAF7FF
:106DF000D9FF08B070BD011D0C22204604F0B8FF79
:106E0000214B1B78002B3FF4FEAE6078217800F018
:106E10000F030009834228BF03460809984228BF90
:106E2000184601F00F01814228BF0146E27813099C
:106E3000994228BF194602F00F038B4228BF0B4628
:106E4000A2781109994228BF194602F00F038B421C
:106E500028BF0B460F2B16BF0C4A0020D05C03F056
:106E600035FED0E60A4A01210020FCF769FBCAE69C
:106E7000C0370820B437082090370820FC000900EC
:106E800022010900CC37082091370820660009004C
:106E9000E400090010B590F80A31044690F8081192
:106EA0000BB1032903D8637907338B4204D1204601
:106EB00000F04CFE012010BD0021054A0846FCF7F9
:106EC0003FFB204694F8081100F040FE002010BD62
:106ED0006C0109002DE9F0411C4C054620461E4678
:106EE00088461746FFF77DFDC723C82294F808019E
:106EF0002354431CDBB2E2541222831CDBB2E55460
:106F0000C31CDBB2E2540022031DDBB2E2540422B4
:106F1000431DDBB2E254851DC11D00F10802EDB234
:106F2000C9B2D2B204F805806754A65400F1090230
:106F30000A3084F80801D2B22046A654FFF730FD8B
:106F40002046BDE8F041FFF7A5BF00BFE0370820AD
:106F5000034B1A781F2A84BF01221A7018787047D1
:106F6000EC38082008B5FFF7F3FF0130C0B2202845
:106F700028BF0120014B187008BD00BFEC38082065
:106F80002DE98048AE4B89B00093012200234FF4D5
:106F9000FA71AC48FAF7A4FBAB4CAC4B2060012271
:106FA000C8210093AA480023FAF79AFBA94DAA4FDB
:106FB000286001F0B5FE2668F9F7F2FD00240246CC
:106FC0002346012130460094FAF7B0FB2D68F9F70B
:106FD000E7FD23460246012128460094FAF7A6FB66
:106FE00002219E4A0846FCF7ABFA9D48FFF7F9FCE0
:106FF000FFF7B8FF9B4D0146994802F055FC2E461D
:10700000DFF8A892CA46C8213868FBF7FBF899F860
:107010000140DFF89C82012C67D1934A03210220B2
:10702000FCF78EFA98F80030022B51D802218F4AD3
:107030000846FCF785FA8A4890F808218378012AE7
:1070400098BFFF239AF802209A427FD1FFF722FFD0
:1070500098F80030013388F80030002CD3D1002399
:1070600088F800302B78824C002B00F08880DFF805
:107070000C92D9F80030002B00F0818002212368A7
:107080007C4A0846FCF75CFA206802F0DDFADFF87B
:10709000E8A18046002865D09AF800107048C047E3
:1070A00000285CD10023744A33701370734A136054
:1070B000734C6278002A00F08980013AD2B2627083
:1070C00023780121009200206E4AFCF739FA1CE176
:1070D0006D4A00210220FCF733FA2B78002BBED03A
:1070E0000023654A2B701370B9E7022C30D1674A30
:1070F00003212046FCF724FA98F80030022B09D827
:107100002146634A2046FCF71BFA5548FFF7C2FEAA
:1071100001249DE75F4A00212046FCF711FA2B78F5
:1071200013B10022544B1A705B4B1B7823B9FCF748
:10713000EDF90120FEF752FBFFF78EF8044628B95F
:10714000FCF7E4F90120FEF749FB81E700247FE723
:107150002B78002B83D0484A13780133C3E70123EF
:107160002B704DE7022123684C4A0846FCF7E8F9EA
:1071700086F800808AF80080C9F8008098E7484BBC
:1071800000223B491868FAF795FF002890D0236841
:10719000002B8DD00221434A0846FCF7D1F9206824
:1071A00002F01AFA206802F04FFA034600283FF472
:1071B0007FAF314A2A481178984700283FF472AFD0
:1071C0002E4B22681A600123337019E7DFF8E48040
:1071D00005A9D8F80000FAF76DFF002800F09880A4
:1071E0009DF8142023789A4200F06882FFF7BAFED7
:1071F0009DF814300446162B00F25482DFE813F099
:1072000017005C0078017F0188018F0198019F01C0
:10721000A801E0011E02AF01B801BF01C801D00101
:10722000D90125022C0234023C0243024B021E4AC1
:1072300001210020FCF784F900231A46002143E0D5
:10724000096A080076010900AC370820156A0800B1
:107250007C010900A837082088370820820109002E
:10726000E0370820D837082091010900980109006B
:107270009C370820E8010900A0370820DC370820E7
:10728000B0370820AB030900A7010900BA010900C3
:10729000C4010900D3010900D0370820FB0109000F
:1072A000A43708200A0209001A02090060370820E2
:1072B000D1370820F0380820C64A01210020FCF709
:1072C0003FF90123002210212046FFF703FE044668
:1072D000002840F0EC819DF81430BF4A0146FCF7CD
:1072E0002FF90123052205A9D8F80000FAF75AFD65
:1072F0009DF814300094B94A01210020FCF720F9D0
:10730000012C00F0E281022C02D10A20F9F758FD8D
:10731000B34B002205A91868FAF7CCFE48B1FFF775
:1073200021FE05AA0146AF4802F0CEFB00287FF4FB
:1073300067AE0022AC4B05A918680592FAF7BAFEB1
:1073400048B1059C3CB1FFF70DFE0146A548A0479A
:1073500000287FF455AEA54B002205A91868FAF75E
:10736000A9FE002867D0FFF7FDFD9E4C0390204644
:107370009DF81680DDF818A09DF815B0DDF81C907A
:10738000FFF72FFBC722C82094F808310399E25475
:107390005A1CD2B2A0549A1CD2B2A1544021DA1C79
:1073A000D2B2A15400211A1DD2B2A1545A1DD2B298
:1073B000A1549A1DD2B204F802B0DA1DD2B2083339
:1073C00004F8028084F80831504604F079FEA046A3
:1073D0005246C0B2A2EB0A03DBB28342C0F079810D
:1073E000002294F808314846E254013384F8083109
:1073F00004F066FE4A46C0B2A2EB0903DBB2834248
:10740000C0F071814FF0000894F8083175485A1C9B
:1074100004F80380053B84F808216371FFF7C0FA84
:10742000734A01214046FCF78BF86E48FFF732FDA6
:1074300000287FF4E5AD6F4B002205A91868FAF724
:1074400039FE00283BD06C4A01210020FCF778F877
:10745000FFF788FD634C824620469DF814909DF806
:107460001580FFF7BEFAC722C82194F808312046DC
:10747000E2545A1CD2B2A15424219A1CD2B204F86C
:1074800002A0DA1CD2B2A15400211A1DD2B2A1541A
:1074900002215A1DD2B2A1549A1DD2B204F8029010
:1074A000DA1DD2B2083304F8028084F80831FFF7FD
:1074B00077FA2046FFF7EEFC00287FF4A1AD4F4B92
:1074C000002205A91868FAF7F5FD48B1FFF74AFD53
:1074D00005AA0146434802F0B3FA00287FF490ADB4
:1074E000474C2378002B40F008810023237087E568
:1074F000444A01210020FCF723F80023E2E6424A37
:1075000001210020FCF71CF8012300222021DBE6EA
:107510003E4A01210020FCF713F80023F5E73C4A1E
:1075200001210020FCF70CF8012300220421CBE606
:10753000384A01210020FCF703F80023F5E7364A1A
:1075400001210020FBF7FCFF012300220821BBE6FC
:10755000324A01210020FBF7F3FF0023F5E7304A10
:1075600001210020FBF7ECFF012300224021ABE6C4
:107570002C4A01210020FBF7E3FF0023F5E72A4A0C
:1075800001210020FBF7DCFF0123002201219BE603
:10759000264A01210020FBF7D3FF00231A46F5E716
:1075A000234A01210020FBF7CBFF01230022022107
:1075B0008AE6204A01210020FBF7C2FF0023F5E7FD
:1075C0001D4A01210020FBF7BBFF0123002280217F
:1075D0007AE600BF25020900730309009803090039
:1075E00094370820E0370820D4370820F8380820DE
:1075F000CB0309008C370820DC030900CC370820B6
:10760000F4380820320209003D0209004A0209004C
:1076100055020900630209006F0209007D0209009A
:107620008902090096020900A1020900B1020900BD
:10763000BF020900CF020900DD020900374A01211B
:107640000020FBF77DFF0023C0E7354A0121002021
:10765000FBF776FF0123F0E5324A01210020FBF71A
:107660006FFF00230122E9E52F4A01210020FBF7EB
:1076700067FF01230222E1E52C4A01210020FBF7EC
:107680005FFF0023F6E72A4A01210020FBF758FF9D
:1076900001230422D2E5274A01210020FBF750FFF5
:1076A0000023F6E7244A03210020FBF749FF0222CA
:1076B00005A9224804F05CFB012419E663789DF8D3
:1076C000152013446370022412E63220F9F778FB88
:1076D00096E498F8083112F8011B08F803100133FA
:1076E00088F8083176E698F8083112F8011B08F896
:1076F0000310013388F808317EE6FFF733FC0146BA
:107700000F4802F0D1F880460A20F9F759FB002310
:107710002370B8F1000F7FF473ACE6E6EC020900C9
:10772000F90209000B0309001B0309002D030900DE
:107730003D0309004C03090059030900B037082034
:10774000E0370820024B00211868FAF7C5BA00BFDD
:10775000A437082037B5424D2C78002C7ED1224624
:1077600002211020FAF7F8FA04213E4B2246186055
:107770000846FAF7F1FA04213B4B22461860084606
:10778000FAF7EAFA394B224618600C210220FAF780
:10779000E3FA374B224618600C210220FAF7DCFA94
:1077A0000221344B224618600846FAF7D5FA324BCC
:1077B0002246186009210220FAF7CEFA2F4B4FF427
:1077C0004872186002232E490093019423462D48E5
:1077D000F9F7BAF800F01EFA2B491820FBF74EFD16
:1077E0002A493320FBF74AFD29492A20FBF746FDA9
:1077F00028492820FBF742FD27492220FBF73EFDC0
:1078000026492720FBF73AFD25492920FBF736FDBD
:1078100024492E20FBF732FD23492F20FBF72EFDB4
:1078200022493220FBF72AFD21492D20FBF726FDB6
:1078300002F0A0F80120032221462870FAF78CFA02
:107840004FF0FF311B4A1C4B1160147291804FF6B0
:10785000FF721860194B19601C729A8003B030BD1A
:1078600098370820F0380820A4370820D43708209B
:10787000CC370820F83808208C37082094370820A7
:10788000FD030900816F0800256B0800F56A0800F8
:10789000C16A0800956A08002D6A0800196A080084
:1078A000D9780800E16B0800796A08005D6A080071
:1078B000B16A0800C037082088370820B43708208C
:1078C000282300B58BB0019068468DF80030FBF797
:1078D000F7FC0BB05DF804FB0378292B05D1437846
:1078E000182B02D10148FFF7EBBF7047596A080017
:1078F00000B58BB001461422684604F039FA2E23F5
:1079000068468DF80030FBF7DBFC0BB05DF804FB3C
:1079100010B527248AB08DF804309DF830308DF8EA
:1079200002008DF805309DF8343068468DF8063039
:107930009DF838308DF800408DF807309DF83C30C8
:107940008DF801108DF803208DF80830FBF7B8FC96
:107950000AB010BD2C2300B58BB08DF800309DF817
:1079600001308DF8022060F3030361F3871368464A
:107970008DF80130FBF7A4FC0BB05DF804FB30235D
:1079800000B58BB08DF8010068468DF80030FBF72C
:1079900097FC0BB05DF804FB292300B58BB08DF884
:1079A000010068468DF80030FBF78AFC0BB05DF8EB
:1079B00004FB000003462B2000B58DB08DF80800B5
:1079C00000208DE806008DF80B108DF80C200121A9
:1079D000064A8DF80A308DF80900FBF7B1FD02A8C0
:1079E000FBF76EFC0DB05DF804FB00BF75000900ED
:1079F000034608462B2100B58DB08DF808100121F3
:107A00008DE805008DF80B008DF80C200020064A4B
:107A10008DF809108DF80A30FBF792FD02A8FBF7EC
:107A20004FFC0DB05DF804FB870009002B2200B568
:107A30008DB08DF80820022203468DF809208DF8BC
:107A40000A008DF80B100091054A01210020FBF778
:107A500077FD02A8FBF734FC0DB05DF804FB00BF16
:107A600099000900262300B58BB0ADF802006846E6
:107A70008DF80030FBF724FC0BB05DF804FB08B573
:107A80000920FEF7F3FE122804D909200121FEF790
:107A9000F3FE012008BD0000034B1A781F2A84BFA3
:107AA00001221A7018787047103B08200023FF212C
:107AB000074A82F8083182F80931D1540133B3F50D
:107AC000847FFAD1002382F80A3182F80B317047A3
:107AD000043A0820074B587993F808210730811A97
:107AE00093F80A314842484113B1032A88BF184627
:107AF000704700BF043A082038B5FFF7EBFFD8B154
:107B0000114B93F80A111A4611B193F80B0138BDC5
:107B10005879D1789B78441D0B4406210344DBB28D
:107B2000A1420ADDDB4310448179DBB299420CBFEC
:107B30000120022082F80B0138BD555C01312B4435
:107B4000DBB289B2ECE700BF043A0820F7B50026A3
:107B50004FF0D80E34464FF0AA0C284DF7B2B94278
:107B600032D8F9F71DF802210346254A0846FBF7EB
:107B7000E7FC0026234FF3B29C4237D80221224A69
:107B80000846FBF7DDFC214B224618681B49C368F9
:107B900098470023FF22EA540133FE2BFBD11C4BF4
:107BA0001C68F8F7FDFF00230246009301212046E0
:107BB000F9F7BCFD03B0F0BDD82A03D1DBB22A55DA
:107BC000EA540EE02A550DE0FD2CCAD8825D631CF4
:107BD000C72AF1D1002FF5D0DBB205F804E005F893
:107BE00003C01C460134E4B20136B7E70221AB5DA5
:107BF0003A460846FBF7A4FC0136BCE700390820EA
:107C000099040900A1040900F7FC0800FC380820C9
:107C1000003A082013B50221134A0846FBF790FCEE
:107C2000124A04210220FBF78BFC1148114B4E2213
:107C300018604FF4E13143699847002402234FF460
:107C400048728DE818000C4923460C48F8F77CFE72
:107C50000B4B22460093A02123460A48F9F740FD2A
:107C6000094B186002B010BD6904090080040900C6
:107C7000D4810720FC3808208E040900057D080007
:107C8000AB7C0800C3FE0800003A0820222300B5A0
:107C90008BB08DF8010068468DF800308DF8021029
:107CA000FBF70EFB0BB05DF804FB00210220FFF791
:107CB000EDBF0B2300B58BB08DF8010068468DF841
:107CC00000308DF80210FBF7FBFA0BB05DF804FBF7
:107CD0002D2300B58BB08DF8010068468DF800307B
:107CE000FBF7EEFA0BB05DF804FB232300B58BB075
:107CF0008DF8010068468DF80030FBF7E1FA0BB013
:107D00005DF804FB02212DE9F043BB4A87B0084629
:107D1000BA4DFBF715FCC820F9F752F82E46FFF7CD
:107D2000C5FEB74C28680A2301220DF117018069AE
:107D3000FCF753FC002800F0A4809DF81700C7282A
:107D400001D1FFF7B3FE94F808312BB16278CA2A4B
:107D500023D00DD8C82A20D0E054013384F808314C
:107D60002378C72B1EBF002384F80831237020E03E
:107D7000F02A01D0FF2AEFD10122032B84F80A2137
:107D800073D1E070A278E178D243D2B291420CBFB5
:107D90000122022284F80B21DEE7002294F8091167
:107DA00084F80A21002954D1D828D5D1012384F898
:107DB0000931FFF78FFE0028B4D0F8F7F1FE022159
:107DC0000346904A0846FBF7BBFB0023DFF85082CE
:107DD00094F808215F1CDBB29A424AD802218A4AF1
:107DE0000846FBF7ADFB94F80831012B04D9A378C2
:107DF0001F2B01D8854A1370FFF76CFE002891D025
:107E00000520F8F7DDFF94F80A71002F42D0012019
:107E1000FDF7E4FCFBF77AFB94F80831A778012B17
:107E2000637898BFFF27FF2B2FD1FFF765FE01284E
:107E30002BD1FFF73BFE39460020FFF727FF0A232F
:107E40000093002372481A4603210068F9F76EFC7C
:107E500068E7AA2804D0D82803D084F80921A8E725
:107E6000C720002284F8092176E7022B7FF674AF41
:107E700088E70221E35C42460846FBF761FB3B468C
:107E8000A6E70220F8F79CFFB6E7FFF70FFE39469A
:107E90000120D2E7FFF730FED6F800800128D8F89D
:107EA000109040F0BF80FFF7F7FD0146FFF7F4FDAB
:107EB000C043C0B2FF23C7220190009140465549FC
:107EC000C847F8F76DFE0146FFF7E6FD8046FFF76D
:107ED000E3FDC043C0B20390FF23C7208DE8090033
:107EE0000B460221CDF808804B4A0846FBF728FBD9
:107EF000E378FF2B0ED0C32B55D018D8B72B46D024
:107F00000BD8912B39D0B62B3DD0902B17D1A0791F
:107F1000FFF742FDFFF7CAFD04E7C02B3BD0C12BA2
:107F20003DD0B82B0BD1204602F016F8F2E7D02B4B
:107F300049D018D8C52B3ED039D3C62B3FD0374AAD
:107F400000210220FBF7FCFA0023DFF8D48094F82C
:107F500008215F1CDBB29A4245D82B4A002102203F
:107F6000FBF7EEFAD6E7E52B35D0E82B37D0D52B4B
:107F7000E5D1A079FFF7B9FECCE73A463946A079BA
:107F8000FFF718FDC6E7204601F0B7FFC2E720461D
:107F900001F0C8FFBEE7204601F0F4FFBAE7204633
:107FA00002F004F8B6E7204602F012F8B2E72046E5
:107FB00002F038F8AEE7204602F03CF8AAE7204687
:107FC00002F068F8A6E7A379E07900EB032080B21D
:107FD000FFF748FD9EE7204602F05EF89AE720464C
:107FE00002F08CF896E7E35C424600210220FBF7A2
:107FF000A7FA3B46ABE700BF2C040900FC38082079
:10800000043A08203E040900F7FC0800103B082051
:10801000003A082009040900120409004A04090072
:10802000A1040900FFF738FD0146FFF735FDC04305
:10803000C0B2F023C7220190009140460C49C847C6
:10804000F8F7AEFD0146FFF727FD8046FFF724FD58
:10805000C043C722F023C0B28DE80C0003900B464A
:10806000CDF80880034A39460220FBF769FA51E748
:10807000090409001204090010B521248AB08DF802
:108080000430BDF830308DF8020068468DF80040AD
:108090008DF801108DF80320ADF80630FBF710F9CC
:1080A0000AB010BD0D4A0178136871B9022B01D8CE
:1080B000032111601268003318BF0123003218BF7A
:1080C0000122934208D001F011BB0129EED007290B
:1080D000F0D10BB1591EECE7704700BF243B0820DC
:1080E00001780D4A0F2913680ED1022B01D8032104
:1080F00011601268003318BF0123003218BF01223B
:10810000934207D001F0F2BA0729F2D1002BF0D048
:10811000591EEDE7704700BF2C3B0820F0B585B035
:1081200006460F46FFF7ABFC044601F0F5FED0B95A
:108130000E4B1B78ABB10E4B53F82450FEF708FFE3
:108140000C4B012253F8243001460293002303957F
:108150008DE80C00304607233A4601F09BFD05B040
:10816000F0BD054BE8E70020F9E700BF293B0820F8
:1081700078060900F81009002C0609007FB50D46A5
:108180000446FFF77CFC0646FEF7E2FE084B03229E
:108190000393084B014653F82630204602930023F0
:1081A0008DE80C000F232A4601F074FD04B070BD69
:1081B000DC05090044050900F0B585B00E4605460A
:1081C000FFF75DFC0746FFF75AFC0D4B1B68ABB190
:1081D0000C4B53F82040FEF7BBFE0B4B012253F82B
:1081E000273001460293002303948DE80C002846B3
:1081F0000423324601F04EFD05B0F0BD034BE8E725
:108200002C3B0820F0110900980809007C0909009E
:10821000F0B585B00E460546FFF731FC0746FFF77F
:108220002EFC0D4B1B68ABB10C4B53F82040FEF7F6
:108230008FFE0B4B012253F8273001460293002397
:1082400003948DE80C0028460323324601F022FDFA
:1082500005B0F0BD034BE8E7243B0820F01109000E
:10826000F80409007C0909007FB50D460446FFF7B4
:1082700006FC0646FEF76CFE084B01460393084BCE
:108280002A4653F826302046029300230193012307
:10829000009301F0FFFC04B070BD00BF98F9080026
:1082A000601009007FB50D460446FFF7E8FB06465F
:1082B000FEF74EFE084B03220393084B014653F88A
:1082C00026302046029300238DE80C0080232A46A6
:1082D00001F0E0FC04B070BDDC05090044110900A8
:1082E0007FB50D460446FFF7CAFB0646FEF730FE93
:1082F000084B03220393084B014653F826302046CF
:10830000029300238DE80C0010232A4601F0C2FCE2
:1083100004B070BDDC0509007C8207207FB50D46E6
:108320000446FFF7ACFB0646FEF712FE084B03229D
:108330000393084B014653F826302046029300234E
:108340008DE80C0002232A4601F0A4FC04B070BDA5
:10835000DC050900AC0A0900F0B587B00D460446FB
:10836000FFF78DFB0D4B07461E78FEF7F1FD3B2313
:108370000593002304930A4B01461B782A46039376
:10838000084B00960293084B204653F82730019380
:10839000062301F03CFD07B0F0BD00BF313B0820D3
:1083A000333B0820DC050900E4080900F0B587B07C
:1083B0000D460446FFF763FB0D4B07461E78FEF79C
:1083C000C7FD17230593002304930A4B01461B782E
:1083D0002A460393084B00960293084B204653F815
:1083E00027300193052301F012FD07B0F0BD00BF57
:1083F000313B0820323B0820DC0509000008090059
:10840000F0B587B00D460446FFF739FB0D4B074624
:108410001E78FEF79DFD0C230593002304930A4B61
:1084200001461B782A460393084B00960293084B9B
:10843000204653F827300193032301F0E8FC07B0EE
:10844000F0BD00BF313B0820C9820720DC050900D0
:10845000300909002DE9F04186B00E460546FFF7C8
:108460000EFB0F4B80461F780E4B1C78FEF770FDFD
:10847000802305930A2304930B4B303402930B4B58
:10848000E4B253F828300146019303940097022385
:108490003246284601F0BBFC06B0BDE8F08100BFC3
:1084A000313B0820CA820720DC050900A41109001D
:1084B0002DE9FF4106460F46FFF7E1FA0E4B8046D5
:1084C0001D78FFF7DCFAADB10C4B53F82040FEF7F6
:1084D0003FFD0B4B014653F82830039501930023D1
:1084E000029400933A460123304601F02EFC04B07A
:1084F000BDE8F081034BE8E7313B0820600A090042
:10850000AC100900C809090073B50446FFF7B7FAB3
:108510000646FEF727FD084B0546186801F0B4F83B
:10852000064B024653F826302946009320460F2377
:1085300001F06EFB02B070BD183B08204405090035
:1085400073B50446FFF79BFA0646FEF70BFD084B92
:108550000546186801F098F8064B024653F8263095
:10856000294600932046022301F052FB02B070BD61
:108570001C3B0820AC0A090073B50446FFF77FFADC
:108580000646FEF7EFFC084B0546186801F07CF83C
:10859000064B024653F82630294600932046002316
:1085A00001F036FB02B070BD143B08207C8207202E
:1085B000F0B585B00E460546FFF761FA0746FFF7AE
:1085C0005EFA04460220FEF751F901280CBF0B4B5E
:1085D0000B4B53F82440FEF7BBFC0A4B012253F827
:1085E000273001460293002303948DE80C002846AF
:1085F0000223324601F04EFB05B0F0BD140A09001B
:10860000E00509004C0809002DE9F04303780A2B26
:108610002FD1194A90F80480147818494445B0F8CD
:1086200006900B888C46964621D1B9EB030318BF00
:108630000123134EC7783278124CBA4218BF012377
:10864000857822784178AA4218BF01230E4AACF8F7
:10865000009010788EF80080884218BF0123377090
:10866000257011702BB1BDE8F04301F03FB8012334
:10867000DFE7BDE8F08300BFC9820720CA82072078
:10868000C8820720323B0820333B08207FB502F028
:1086900059F80B2809D903238DF8003001F06AFD41
:1086A0008DF80800684602F093F807B05DF804FB07
:1086B00008B5044B0321186800F09AFF0122024B11
:1086C0001A7008BD143B0820343B082008B5044B41
:1086D0000521186800F08CFF0122024B1A7008BDBA
:1086E0001C3B08202A3B082008B5044B04211868CD
:1086F00000F07EFF0122024B1A7008BD1C3B0820CF
:10870000303B082008B5044B0321186800F070FFC7
:108710000122024B1A7008BD1C3B0820283B082090
:1087200082071FD16422B0FBF2F302FB13039BB25A
:10873000D3B94FF4C872B0FBF2F302FB130080B25E
:10874000B0FA80F040090B2912D8012303FA01F195
:1087500011F4256F0AD14B070AD5002814BF1D203C
:108760001C2070470020EEE70120ECE71E20704738
:108770001F20704710B51446FFF7D2FF24B1A04266
:1087800028BF2046C0B210BD012010BD2DE9F04128
:1087900086B00D460446FFF772F9124B07461E7865
:1087A000114B1A78114B1978114B1888FFF7E2FF1B
:1087B0008046FEF7CDFB1F230593002304930D4B4A
:1087C000014602930C4BCDF80C8053F827300096ED
:1087D00001932A460423204601F019FB06B0BDE8A8
:1087E000F08100BF313B0820C8820720C9820720E2
:1087F000CA820720DC050900900509002DE9F04335
:10880000037887B02B2B054640F092804378022BEB
:1088100040F08E8000F0BAFE0F287ED1EC78AD7863
:10882000F8F7BEF9444B02950093444A034601947D
:1088300001210020FAF784FE414B424E1B78424D45
:108840009A1EDFF82C81DFF82C91404F042A5ED865
:10885000DFE802F003323E4C550004F5FA6423468B
:108860003B4A01210020FAF76BFE34803B78394AFD
:10887000049399F800300121039398F80030002008
:1088800002932B780193338800932B4BFAF758FE11
:108890003C78297899F8003098F8002030880094C6
:1088A00001F054FC2C4B186800F008FF0F2007B0B3
:1088B000BDE8F04300F03ABE2346284A01210020DB
:1088C000FAF73EFE0CB12C70D0E701232B70CDE7F8
:1088D0002346234A01210020FAF732FE2246297856
:1088E0003088FFF747FF88F80000BFE723461D4A9E
:1088F00001210020FAF724FE89F80040B6E723465C
:10890000194A01210020FAF71BFE3C70AEE7174A16
:1089100001210020FAF714FEA8E71038C0B26F2832
:1089200006D8A978E87807B0BDE8F04300F054BD58
:1089300007B0BDE8F08300BFD70409003F07090076
:108940002B3B0820CA820720C9820720333B08201E
:108950004E070900BB070900183B08205F07090004
:10896000700709008307090093070900A60709009B
:10897000C8820720323B0820194B2DE9F3411870BB
:1089800058B3184D2888A0F5FA63362B25D8DFF8A0
:108990006C8098F800104B1E0B2B1ED8124F3C78A1
:1089A000DCB12246FFF7E6FE844216D80F4C23784E
:1089B000172B12D80E4E33783B2B0ED80D4B0E4A88
:1089C00001210020FAF7BCFD20782C883A7898F82D
:1089D000003031780094FFF74FFB02B0BDE8F08122
:1089E000313B0820CA820720C8820720323B08207A
:1089F000333B0820A604090090110900C982072012
:108A00002DE9FF41037804462B2B03D1477827B18A
:108A1000012F11D004B0BDE8F0818478002CF9D189
:108A200000F0C4FD204600F081FD554B186804B0ED
:108A3000BDE8F04100F042BE00F0A8FD0F2800F2B2
:108A4000958000F0A3FD02288046A5787FD0E678C7
:108A500024790AD30F282CD0019400962B46494A3A
:108A600039460020FAF76CFDD4E715B90EB9012C90
:108A70000BD00F2C13D8012C07D9022CCAD1424B92
:108A8000186800F01BFE204604E03D4B186800F01B
:108A900015FE002004B0BDE8F04100F047BD2106FE
:108AA000B8D422463146284604B0BDE8F04100F073
:108AB000FFBBF8F775F8354B039400930296034615
:108AC0000195334A39460020FAF73AFD0F2DA1D11E
:108AD000012C17D12F4E304A337821460020FAF767
:108AE0002FFD307880F00100FFF746FF33782B4AE6
:108AF00021460020FAF724FD294B186800F0DEFD1E
:108B00002846C7E7072C16D10121264A0020FAF78C
:108B100017FD254B197881F00101197049B1002129
:108B20000846FFF7C6F81E4B186800F0C7FD0F2077
:108B3000B0E70120F5E71D4D2B78A3423FF46AAF63
:108B40001B4A01210020FAF7FBFC2C7062E7022D82
:108B500006D124790F2C01D1114B91E70A4BCCE7B8
:108B6000094B186800F0AAFD404693E702063FF55E
:108B700051AF227913063FF54DAFE178A07893E726
:108B8000143B0820210709001C3B0820C0040900F1
:108B9000C4060900313B0820DC0609008C070900E7
:108BA000183B0820FC060900293B08202B3B082025
:108BB0000C07090010B50446144A002100F02AFDF4
:108BC0002046134A012100F025FD2046114A0221CA
:108BD00000F020FD2046104A032100F01BFD204636
:108BE0000E4A042100F016FD20460D4A052100F032
:108BF00011FD20460B4A062100F00CFD2046BDE881
:108C00001040094A072100F005BD00BF0985080092
:108C1000B184080055840800018408008D8708008D
:108C2000AD830800598308001D81080010B5044673
:108C30001B4A002100F0EEFC1A4A0121204600F0F8
:108C4000E9FC194A0221204600F0E4FC174A0321FE
:108C5000204600F0DFFC164A0421204600F0DAFC32
:108C6000144A0521204600F0D5FC134B1B7823B194
:108C7000124B0521186800F0BBFC114B1B7823B187
:108C80000E4B0421186800F0B3FC0E4B1B7833B177
:108C9000BDE81040094B0321186800F0A9BC10BDC5
:108CA0004185080069820800B1850800118208002A
:108CB000B98108007D8108002A3B08201C3B082060
:108CC000303B0820283B082010B504460E4A0021FE
:108CD00000F0A0FC0D4A0121204600F09BFC0C4A4C
:108CE0000221204600F096FC0A4A0321204600F0AB
:108CF00091FC094B1B7833B1BDE81040074B0321B1
:108D0000186800F075BC10BD798508001D83080047
:108D1000E1820800A5820800343B0820143B0820AB
:108D200010B522492B20FAF7A9FA214C21492B2012
:108D3000FAF7A4FA20490A20FAF7A0FA21460020FF
:108D4000FAF79CFA21460120FAF798FA21461B4CC3
:108D50000720FAF793FA21460F20FAF78FFA2146F7
:108D60000720FAF78BFA16490720FAF787FA00F07E
:108D70002FFC144B1860FFF7A7FF00F029FC124BE3
:108D80001860FFF753FF00F023FC104B1860FFF74B
:108D900011FF00F01DFC0E4B186000F031FB00F0DD
:108DA00015FCBDE8104000F0ADBC00BF018A080012
:108DB000A5800800FD87080009860800E1800800FA
:108DC0008D860800143B08201C3B0820183B082017
:108DD000203B08207FB50D460446FEF750FE0646B0
:108DE000FEF7B6F8084B03220393084B014653F8ED
:108DF00026302046029300238DE80C000A232A46E1
:108E000000F048FF04B070BD7C1509008015090012
:108E1000F0B585B00E460546FEF731FE0746FEF773
:108E20002EFE04460020FDF721FD012801D0032875
:108E300015D10C4B53F82440FEF78AF80A4B032255
:108E400053F8273001460293002303948DE80C0069
:108E500028460923324600F01DFF05B0F0BD034B44
:108E6000E8E700BFB01709008C1B0900F41A0900DD
:108E7000F0B585B00E460546FEF701FE0746FEF743
:108E8000FEFD04460020FDF7F1FC0138012894BFE7
:108E90000B4B0C4B53F82440FEF75AF80A4B0322B5
:108EA00053F8273001460293002303948DE80C0009
:108EB00028460823324600F0EDFE05B0F0BD00BFA5
:108EC0008824090034160900D0120900F0B585B0D5
:108ED0000E460546FEF7D3FD0746FEF7D0FD0446D5
:108EE00001F030FC0B2833D8DFE800F0061C1E2010
:108EF00022242E3026282A2C164B53F82440FEF725
:108F000027F8154B032253F827300146029300231C
:108F100003948DE80C0028460623324600F0BAFE82
:108F200005B0F0BD0D4BE8E70D4BE6E70D4BE4E770
:108F30000D4BE2E70D4BE0E70D4BDEE70D4BDCE7B9
:108F40000D4BDAE70D4BD8E70D4BD6E70D4BD4E7C9
:108F50000D4CD4E75C1A0900641709009814090045
:108F6000CC1509000014090084120900B41309008B
:108F7000C41909004C140900202509003015090006
:108F8000D4240900E41409007C150900F0B585B06B
:108F90000E460546FEF773FD0746FEF770FD0446D4
:108FA0000520FDF763FCB0B1012816D10F4B53F833
:108FB0002440FDF7CDFF0E4B014653F827300394B4
:108FC000029300230193032332460093284600F0C6
:108FD00061FE05B0F0BD074BE9E7064B0021052017
:108FE00053F82440FDF748FCE3E700BF681309008D
:108FF000A81A0900481809002DE9FF4106460F4646
:10900000FEF73DFD134B80461C781CB10021032068
:10901000FDF732FCFEF733FD05460320FDF726FC85
:1090200001280CBF0C4B0D4B53F82550FDF790FF5A
:109030000B4B014653F82830039502930323019408
:1090400000933A460123304600F024FE04B0BDE808
:10905000F08100BF3F3B0820CC160900181709001B
:10906000801609002DE9F04385B089468046FEF759
:1090700006FD06460820FDF7F9FB114B53F8267054
:10908000104B1D78BDB9012817D104460E4B53F87B
:109090002670FDF75DFF0D4B014653F82630039413
:1090A00001930297009507234A46404600F04DFE83
:1090B00005B0BDE8F0830024EBE72C46E9E700BFEC
:1090C000E0180900403B082078190900101A09002F
:1090D0002DE9F04186B00F460646FEF7D0FC054666
:1090E0000720FDF7C3FB80460520FDF7BFFB0446C4
:1090F000FDF72EFF3C230593002314F1FF3418BF26
:1091000001240493094B014653F82530CDF80C8017
:109110000293074B009453F825303A4601933046AA
:10912000052300F074FE06B0BDE8F081401B090085
:10913000941809002DE9F04186B00F460646FEF767
:109140009EFC05460620FDF791FB80460520FDF7B5
:109150008DFB0446FDF7FCFE3C230593002314F130
:10916000FF3418BF01240493094B014653F82530FE
:10917000CDF80C800293074B009453F825303A4603
:1091800001933046042300F042FE06B0BDE8F081B2
:10919000401B09002C190900F0B587B00E460546A2
:1091A000FEF76DFC04460420FDF760FB0746FDF763
:1091B000CFFE1E2305930023094A049352F824206E
:1091C00000930292074A014652F824200397019225
:1091D00002233246284600F01AFE07B0F0BD00BF59
:1091E000FC1709001C13090073B50446FEF747FC81
:1091F0000646FDF7B7FE084B0546186800F044FA2E
:10920000064B024653F82630294600932046102389
:1092100000F0FEFC02B070BD383B08207C820720C5
:1092200010B5084C0321206800F0E2F90421206801
:1092300000F0DEF90521206800F0DAF90122024B86
:109240001A7010BD383B0820413B082010B5064C71
:109250000121206800F0CCF90221206800F0C8F953
:109260000122024B1A7010BD383B08203E3B0820FB
:1092700008B5044B0721186800F0BAF90122024B27
:109280001A7008BD383B0820403B082008B5064B43
:109290000121186800F0ACF900210320FDF7ECFA79
:1092A0000122024B1A7008BD383B08203F3B0820C2
:1092B0007FB548B9414B186800F000FA102000F063
:1092C00035F907B05DF804FB1028FAD1531E092BBD
:1092D00070D8DFE803F0056F116F6F1B2B34466405
:1092E0000320FDF7C3FA411CC9B2022908BF0021BF
:1092F0000320FDF7C1FADDE70520FDF7B7FA411CB1
:10930000C9B2022908BF00210520F2E701F01AFACC
:109310000130C0B20C2828BF002003238DF80800BC
:1093200068468DF8003001F053FAC3E70820FDF7D6
:109330009DFA10F1FF3118BF01210820D9E7002064
:10934000FDF794FA0138032803D8DFE800F008227B
:109350001B261B4B1B4A01210020FAF7F1F80321C1
:1093600011E00020FDF782FA0138032813D801A389
:1093700053F820F09B93080085930800939308000E
:109380005F93080001210020FDF776FA01F02EFB23
:1093900090E70421F7E70C4BDCE70221F3E70B4BE6
:1093A0000B4A01210020FAF7CBF8FDF77BFAFCF716
:1093B00047FF7FE7074B1A707CE700BF383B082068
:1093C0003C12090018160900531209006C1209001A
:1093D00059F908003D3B0820084B01461B78042B37
:1093E00006D0052B06D0022B06D10420FDF744BA87
:1093F0000620FBE70720F9E7704700BF3D3B082048
:1094000010B5394C394A0021206000F003F9384A80
:109410000121206800F0FEF8364A0221206800F0A1
:10942000F9F8354A0321206800F0F4F8334A0421A2
:10943000206800F0EFF8324A0521206800F0EAF8D1
:10944000304A0621206800F0E5F82F4A07212068FD
:1094500000F0E0F82D4A0821206800F0DBF82C4AE3
:109460000921206800F0D6F82A4A0A21206800F075
:10947000D1F8294B1B781BB10721206800F0B8F800
:10948000264B1B781BB10121206800F0B1F8244B5A
:109490001B785BB10321206800F0AAF80421206842
:1094A00000F0A6F80521206800F0A2F81D4B1B78FB
:1094B0003BB10121206800F09BF80221206800F0F8
:1094C00097F8194B1B786BB12068062100F090F8D3
:1094D0002068082100F08CF820680921BDE81040C0
:1094E00000F086B810BD00BF383B0820E9910800A5
:1094F000F98F0800999108008D8F080035910800B8
:10950000D1900800CD8E080065900800718E08008B
:10951000118E0800D58D0800403B08203F3B0820F5
:10952000413B08203E3B08203C3B082010B40B4A3E
:109530000B49B2F90030CC1814F8014C844200D128
:1095400023B9092BC85403DC0133138010BC7047C6
:109550000021044A084610BCF9F7F2BF423B08203C
:10956000CC8207206C250900FF21064BB3F90020AF
:10957000002AC4BF02F1FF321A80B3F90030024A58
:10958000D1547047423B0820CC820720054BB3F9E9
:109590000020002AC3BF044B9B1813F8010CFF20C6
:1095A000704700BF423B0820CC8207200023FF21E8
:1095B000044A995401330A2BFBD10022024B1A8032
:1095C000704700BFCC820720423B0820FFF7EEBF68
:1095D0008C21012002F0CAB808B1002383607047D3
:1095E00028B1012303FA01F103680B4303607047BC
:1095F00030B1012303FA01F1036823EA0103036098
:10960000704728B1012303FA01F143680B4343601B
:109610007047000038B50C4690B1202906D9BDE846
:1096200038400021074A0846F9F78ABF00EB81035A
:10963000DA60FFF7E6FF2146BDE83840FFF7D0BF0C
:1096400038BD00BF9125090038B50446806820B9AF
:1096500023460C4A0121F9F773FF01256168A368CD
:1096600005FA03F211EA020005D0206810401CBF81
:1096700004EB8302D068013308B1A36038BD1F2B0F
:10968000EED9FAE7000209000122F0B500231646E0
:10969000456800F1100106FA02F4254206D0076879
:1096A0003C4203D00C680CB10133DBB20132202AFA
:1096B00001F10401EFD11846F0BD0000094B13B5CC
:1096C0001860FEF73FF8084B1C68F7F769FA0523A6
:1096D00002460093012100232046F8F727F802B044
:1096E00010BD00BF483B08204C3B082008B5FEF7E2
:1096F00029F8034B1868BDE80840FFF7DFBF00BF3B
:10970000443B082007B5074B4FF4FA710093002340
:1097100005481A46F7F7E4FF044B186003B05DF8FC
:1097200004FB00BF51970800A62509004C3B082008
:109730002A2300B58BB0019068468DF80030F9F708
:10974000BFFD6846F9F7BCFD0BB05DF804FB0000F7
:1097500010B5054C206830B1FFF7EAFF2268034BD3
:109760001A600023236010BD483B0820443B0820BA
:1097700003781B2B02BF4268014B1A60704700BF81
:10978000543B08200378072B04D1034A13780BB10C
:10979000013B1370704700BFD682072038B50378AD
:1097A0000546102B1AD18378012B11D10C4A137066
:1097B0000C4C69782278914207D00B4A0121002095
:1097C000F9F7BEFE0948FEF77BF86B78237005E0D9
:1097D000002BEDD1024B1B78002BE9D038BD00BF28
:1097E000503B0820D7820720AD2509007199080059
:1097F00038B503780546172B0ED1084C41782278EE
:10980000914207D0064A01210020F9F799FE054848
:10981000FEF756F86B78237038BD00BFDA82072058
:10982000EB2509007199080038B503780546162B19
:109830000ED1084C41782278914207D0064A012186
:109840000020F9F77DFE0548FEF73AF86B782370A3
:1098500038BD00BFD9820720D825090071990800BA
:1098600038B503780546132B14D10B4C4178227878
:10987000914207D0094A01210020F9F761FE08480A
:10988000FEF71EF86B782370FCF7E6FC10B10A2295
:10989000044B1A7038BD00BFD8820720C3250900C9
:1098A00071990800D682072010B52C4B1C78002C2B
:1098B0004CD00023FF2480F8093100F20712431E28
:1098C00003F8014F9A42FBD1C7220270C82200233D
:1098D0004270102280F80A3180F80B310371204B5E
:1098E000C270204A1B781278002B817014BF0023AD
:1098F00061231AB343F002031B4A12780AB943F0FA
:1099000008038371194B15311B68C9B2C3F30722D1
:10991000037200234372202383720523C2714371B3
:1099200000F10B02831D9A420BD1C943C1720C2175
:1099300080F80811FEF70AF9012010BD43F0060374
:10994000DAE713F8014B2144C9B2ECE7F9F7DEFD81
:109950000120FBF743FF204610BD00BFD682072041
:10996000D8820720DA820720D7820720543B0820BC
:10997000FFF79ABF08B50D491320F9F77FFC0C4992
:109980001020F9F77BFC0B491720F9F777FC0A49FF
:109990001620F9F773FC09491B20F9F76FFCBDE8A5
:1099A000084007490720F9F769BC00BF6198080023
:1099B0009D970800F1970800299808007197080002
:1099C00085970800044B1A78824203D01870034828
:1099D000FDF776BF704700BF583B08203D9A08004E
:1099E000002310B5FF2480F80931421E00F207134E
:1099F00002F8014F9342FBD1C7230370C823437081
:109A00001823C3700323002243710B4B80F80A21F3
:109A10001B7880F80B21C3710B441D3381700271D8
:109A20008271DB4302220A210272437280F808111C
:109A3000FEF78CF8012010BD583B0820FFF7D0BF7F
:109A400038B50023FF2480F8093100F20715431EC2
:109A500003F8014F9D42FBD1C7250570C82545700D
:109A600019250023C5700E2580F80A3180F80B31C6
:109A70008170037145711578273185715578C9B2A8
:109A8000C57195780572D5788372457255790373DF
:109A9000C572127A83744273C3748473C47304747A
:109AA0004474831D00F11402934208D1C943017527
:109AB000152180F80811FEF749F8012038BD13F888
:109AC000014B2144C9B2EFE738B50023FF2580F8E8
:109AD000093100F20714431E03F8015F9C42FBD1D9
:109AE000C7240470C824002344701A248170C470F1
:109AF000037180F80A3180F80B3153782231837179
:109B00009378C9B2C371D3780372137943725379CE
:109B100083729379C372D3790373137A00F10E02BF
:109B2000437308234371831D934208D1C943817352
:109B30000F2180F80811FEF709F8012038BD13F84D
:109B4000014B2144C9B2EFE770B5417990F8084163
:109B50008D1DA54217D18378C2780B441344027936
:109B6000053113440622DBB2914206DADB430134AD
:109B7000435580F80841012070BD865C01323344B2
:109B8000DBB292B2F0E7002070BD0023FF2180F825
:109B9000083180F8093100F20712431E03F8011F53
:109BA0009342FBD1002380F80A3180F80B317047D3
:109BB00030B51446A31ADBB2994200D830BD90F8F4
:109BC000083114F8015BC554013380F80831F1E71E
:109BD00010B590F80A31044690F808110BB103292A
:109BE00003D8637907338B4204D12046FDF7AEFFDB
:109BF000012010BD0021054A0846F9F7A1FC2046C6
:109C000094F80811FDF7A2FF002010BD6C010900B7
:109C10002DE9F041069E044690460D461F46FFF78B
:109C2000B4FFC723C82290F808012354431CDBB2B9
:109C3000E254831C3022DBB2E5540025C31CDBB2A6
:109C4000E254411D031DDBB2C9B204F80380C21DFA
:109C50006554811DC9B2D2B2083004F80180A754FE
:109C600084F80801304602F02BFA3246C1B2204691
:109C7000FFF79EFF94F808312046E5545A1C053B37
:109C800084F808216371FFF75FFF2046BDE8F041CB
:109C9000FFF79EBF2DE9F84F0C9F04468B461546F3
:109CA00099460D9E9DF828A09DF82C80FFF76DFF2A
:109CB000C723CA2290F808012354431CDBB2E254A4
:109CC0003022831CDBB204F803B0C31CDBB2E254C5
:109CD000031DDBB2E5540025431D821DDBB2D2B269
:109CE000E55404F802A000F10803C21DDBB2D2B2B1
:109CF000093004F8029004F8038084F8080138461B
:109D000002F0DEF93A46C1B22046FFF751FF94F85F
:109D100008313046E554013384F8083102F0D0F9B7
:109D20003246C1B22046FFF743FF94F8083120467F
:109D3000E5545A1C053B84F808216371FFF704FFC2
:109D40002046BDE8F84FFFF743BF2DE9F84FDDF897
:109D50002C8004468B4615469A460C9F9DF8289009
:109D60009DF83460FFF711FFC723CA2290F808015D
:109D70002354431CDBB2E2543022831CDBB204F8D0
:109D800003B0C31CDBB2E254031DDBB2E554002573
:109D9000431DDBB2E5540423821DD2B2A354C21D7D
:109DA00000F10803DBB2D2B2093004F802A004F8D3
:109DB000039084F80801404602F082F94246C1B29D
:109DC0002046FFF7F5FE94F808313846E554013394
:109DD00084F8083102F074F93A46C1B22046FFF720
:109DE000E7FE94F8083120465A1CD2B2E554A55437
:109DF0009A1CD2B2A654DA1C033B84F80821637182
:109E0000FFF7A2FE2046BDE8F84FFFF7E1BE2DE9BF
:109E1000F74F0D9F04460D460E9E019200939DF84C
:109E200030B09DF83C809DF840A09DF84490FFF72D
:109E3000ACFE90F80811C7204FF0CA0E6054481CC1
:109E4000C0B204F800E0881CC0B225543025C81CFC
:109E5000C0B22554019A0025081DC0B22254062024
:109E60004A1DD2B2A5548A1DD2B2A054009BCA1D6D
:109E7000D2B2A35401F10803DBB2093104F803B0F4
:109E8000384684F8081102F01BF93A46C1B2204660
:109E9000FFF78EFE94F808313046E554013384F81C
:109EA000083102F00DF93246C1B22046FFF780FEBC
:109EB00094F8083120465A1C991CD2B2C9B2E55414
:109EC000A55404F801A0D91CC9B26554191DC9B222
:109ED00004F80190591DC9B26554991DC9B20733E0
:109EE00004F8018084F808316271FFF72DFE2046E6
:109EF00003B0BDE8F04FFFF76BBE37B5847A8579C4
:109F000004F5FA64437A027AC17900942846FEF790
:109F1000B3F803B030BD0000014B1878704700BFA4
:109F2000593B082010B5837904466BB90121074BD2
:109F3000074A19700220074BF9F702FB217AE079F2
:109F4000BDE81040FDF7B5BE10BD00BF593B08206D
:109F500012260900FF25090010B504468379074A37
:109F600001210020F9F7ECFAA379BDE810401A2B83
:109F700096BF034A0120D05CFDF7AABE4526090022
:109F80002A26090030B5457B85B0C479437A027A28
:109F900081790395057B0295C57A0195807A0090B9
:109FA0002046FDF7B5FC05B030BD000010B50446F5
:109FB000064A01210020F9F7C3FAA379022B04D144
:109FC000E079BDE81040FDF7DABC10BD5826090065
:109FD000242300B58BB08DF80030837907308DF8DD
:109FE0000130002310F8012B0DEB03011D2B8A70AB
:109FF00011D100210A4A0846F9F7A2FA2E238DF85A
:10A000001F308DF81E308DF81D306846F9F758F96D
:10A010000BB05DF804FB0133002AE3D1F5E700BF84
:10A020005E2609008379027AC17903F00F00FDF7FB
:10A0300091BC0000252300B58BB08DF800308379EA
:10A0400008308DF8013010F8013C8DF80230002303
:10A0500010F8012B0DEB03011D2BCA7014D1002148
:10A060000B4A0846F9F76CFA00238DF820302E23AE
:10A070008DF81F308DF81E308DF81D306846F9F7C9
:10A080001FF90BB05DF804FB0133002AE0D1F5E7BE
:10A090005E2609007047000070B5154A044601218C
:10A0A0000020F9F74DFA0023124E94F808215D1CA8
:10A0B000DBB29A4214D8104A01210020F9F740FA85
:10A0C000A37933B9E37923B9237A012B01D8FFF7B8
:10A0D0004BFA227AE179A079BDE87040FDF788BC9F
:10A0E000E35C324601210020F9F72AFA2B46DCE72F
:10A0F0007E260900A1040900F7FC080070B5104A8B
:10A10000044601210020F9F71BFA00230D4E94F8B4
:10A1100008215D1CDBB29A420AD801210A4A0020BC
:10A12000F9F70EFAE179A079BDE87040FDF77EBC41
:10A13000E35C324601210020F9F702FA2B46E6E7FC
:10A140007E260900A1040900F7FC080030B4074C82
:10A150009DF8085024681CB10295A44630BC6047A5
:10A160002146204630BC024AF9F7EAB95C3B082098
:10A17000D426090008B5044A044B01210020F9F750
:10A18000DFF9062008BD00BFA726090089260900BF
:10A1900000230246FF2180F84630831C42F8403FEE
:10A1A00003F8011B9342FBD19F220023027002227D
:10A1B00080F84930427080F8473080F84C3080F8A1
:10A1C000483080F84A3080F84B3080F8441080F8EE
:10A1D00045307047F8B500230B4C0C4E0C4F2278DD
:10A1E0005D1CDBB29A4206D80A4A0121BDE8F8405C
:10A1F0000020F9F7A5B9F35C3A4601210020F9F7F0
:10A200009FF92B46EBE700BFE83C0820203C0820E4
:10A21000C9FE0800F7FC080008B5F6F791FA00231C
:10A22000054A1370054A13700122054B1A70BDE8E8
:10A230000840F6F795BA00BFCC3B0820743B0820D5
:10A24000DB82072010B5104C2378022B10D80F4A60
:10A2500001210020F9F774F923780D4801332370A8
:10A260000023BDE810401A4619460068F7F79ABD6A
:10A27000084A01210020F9F763F9FFF7ABFFBDE8B9
:10A280001040FFF7C9BF00BFCC3B0820CFFE08003D
:10A29000603B0820D9FE08000023F7B51A46224C7F
:10A2A00022492078DDB285423AD39F230B700223E6
:10A2B0002270002003224B701D4B93F844501F6CFA
:10A2C0008D70C6B2BB5D01309F2B12BF13468B54FD
:10A2D000531CBA5D08BFDBB2C6B2CA54B54203F123
:10A2E0000102D2B2EDD29F2088540322DD1C02333A
:10A2F000DBB2CA540F4BEDB21E68F6F751FC0023D7
:10A300000246009301213046F7F710FA2A460A4B1D
:10A31000064918682570C36803B0BDE8F0401847C7
:10A32000CA540133BEE700BFE83C0820203C0820A7
:10A33000D03B0820703B0820683B082030B50D4B0F
:10A3400093F844001A6C93F84510024451700021B0
:10A3500093F844204C1CC9B28A4202F1010202D295
:10A3600083F8442030BD186C415C855C69408154A1
:10A370002146EDE7D03B0820094A92F84430A3F18A
:10A380003D01C9B2C1290AD90133116CDBB282F88F
:10A390004430C85492F84530013382F84530704754
:10A3A000D03B082010B50446C0B2FFF7E5FFC4F368
:10A3B0000720FFF7E1FFC4F30740FFF7DDFF200EA2
:10A3C000BDE81040FFF7D8BF036C587800F022BA00
:10A3D000036C5878003018BF012000F015BA000057
:10A3E0002DE9F043B94E8BB030684E2243694FF4EB
:10A3F000E1319847B64CB74F00213868F7F702FFB4
:10A40000024600284CD0FFF747FF30680A2301229C
:10A410000DF10F018069FAF7E0F8002800F078816B
:10A4200094F846209DF80F30002A00F08E8000221C
:10A43000022B84F846206AD12046FFF7A9FE0123AB
:10A4400084F8493094F84830002BDED094F8473037
:10A45000002B00F0A2800A23009300239E481A4696
:10A4600003210068F7F762F994F84B30002B00F0F5
:10A4700091809A4D2B78032B00F28580984A012118
:10A480000020F9F75DF8002338681A461946F7F7F7
:10A4900089FC2B7801332B702046FFF779FEB4E757
:10A4A000904D2B78002BB0D08F4B04A91868F7F78C
:10A4B00001FE0028A9D08D48FFF76AFE9DF8100024
:10A4C000FFF75AFF9DF81030042B19D009D8DBB1E3
:10A4D000032B19D0FFF732FFFFF7DEFE00232B70AE
:10A4E00093E7172B0CD0182B0ED0052BF2D19DF82B
:10A4F0001800FFF741FF9DF81900FFF73DFFE9E75E
:10A500000598FFF74FFFF2E79DF81800F5E7032BDA
:10A5100007D194F84930002B94D0012384F84830B7
:10A5200090E7062B05D1012384F84A3084F84730A0
:10A5300088E7152B03D1012384F84B30F6E79F2BD6
:10A5400009D02046FFF724FE7CE79F2B03D101238F
:10A5500084F8463076E794F84420A2F13E01C9B26F
:10A56000C0297FF66FAF94F8491029B194F84510CF
:10A5700011B984F8453065E7216C0132D2B284F814
:10A5800044208B545EE75A4A01210020F8F7D8FF97
:10A59000FFF720FEFFF740FE7EE7206C94F845E0D1
:10A5A0000346724694F8445000F141081FFA85FCB6
:10A5B000191A89B2614505D813F8011B984582EA3A
:10A5C0000102F5D1AE4575D1002A73D1494A04ABD9
:10A5D00010685168082203C3306804A9C36898470B
:10A5E00094F8483043B1226C1378042B2CD027D830
:10A5F000012B43D0032B4ED03F4A01210020F8F716
:10A600009FFF94F8455094F84830FF2D08BF00256F
:10A6100000933A4A2B4601210020F8F791FF4FF0B2
:10A620000008DFF8E89003355FFA88F3AB4208F1E1
:10A63000010838DD324A01210020F8F781FF2BE7BD
:10A64000162B2CD0172BD7D10023D2F80150DFF8CE
:10A65000BC9094F8442003F10108DBB29A4211D86F
:10A66000274A01210020F8F76BFF002D3FF414AFBB
:10A67000236CDA1D99795879A8470DE72046FFF732
:10A68000A3FE09E7226C0121D35C00204A46F8F7BB
:10A6900057FF4346DDE752781A4B1A70FCE6204616
:10A6A000FFF796FEF8E6E35C4A4601210020F8F742
:10A6B00047FFB9E7144A04AB10685168082203C386
:10A6C000306804A9C3689847E6E600BF683B0820E5
:10A6D000783B0820603B0820703B0820743B082032
:10A6E00063FE0800DB820720C83B0820D03B08201F
:10A6F0006AFE080003270900A7FE080026270900B4
:10A70000F7FC08006D3B0820FA260900C9FE080086
:10A71000094B1D786A1C1A70002D7FF46CAEF6F799
:10A720009BFC63283FF667AE044B054A012128468F
:10A73000F8F706FF5FE600BF6C3B08200C27090016
:10A7400012FC0800014B1878704700BF6D3B0820D1
:10A7500073B5154E34782CBB0125144A144B15499A
:10A760001A60154823464FF4C87201940095F6F715
:10A77000EBF8224618212820F7F7EEFA0F4B224675
:10A7800018600F4BA02100930E482346F6F7A8FF50
:10A790000D4B0322186021462846F7F7DDFA0B4BD4
:10A7A0003570186002B070BD643B08201482072029
:10A7B000683B08201C270900E1A30800C83B0820CB
:10A7C00045A20800C3FE0800703B0820603B08203B
:10A7D00001460348002302220068F7F7E3BA00BFEE
:10A7E000C83B0820054B1B782BB9054B1B7813B9C8
:10A7F000044B187800B10120FBF776BDE93C082036
:10A80000EA3C0820EB3C0820014B1870FFF7EABF38
:10A81000E93C082000F04403442B70B5064619D1EA
:10A820000122634B1A70FFF7DDFF06F07704032C5B
:10A83000604D1FD12B78042B11D85F4A01210020D5
:10A84000F8F77EFE2B7801332B700021012000F0F9
:10A85000CFF83EE0002BE8D1554A1370E3E7574AA2
:10A8600001210020F8F76CFE0122554B1A70FFF70A
:10A87000B9FFEAE7534B1A7812B100222A701A7016
:10A88000297800295FD004295BD808BF03234FF043
:10A8900001014FF0030008BF2B7000F0A9F84A4AED
:10A8A00001210020F8F74CFE2B78013B2B70002291
:10A8B000434B1A70FFF796FF402C01D0042CC4D1F3
:10A8C0000121084600F094F8404A01210020F8F7E1
:10A8D00037FE302C3BD101213D4A0020F8F730FEF5
:10A8E0000121022000F084F80021072000F080F808
:10A8F000102C3BD10121374A0020F8F721FE01211D
:10A90000062000F075F80021042000F071F8012CF9
:10A910003BD12146304A0020F8F712FE214605209F
:10A9200006F0880600F064F8802E30D101212B4A11
:10A930000020F8F705FE0121082000F059F8002159
:10A9400031E00023B2E7032000F052F8AFE7002126
:10A95000022000F04DF8202CC6D10121204A002011
:10A96000F8F7EEFD0121072000F042F80021062053
:10A9700000F03EF8022CC6D101211A4A0020F8F757
:10A98000DFFD0121042000F033F80021C7E700219A
:10A99000082000F02DF8082ED1D10121124A002004
:10A9A000F8F7CEFD0121BDE87040092000F020B885
:10A9B000EB3C0820DD820720362709003D270900EF
:10A9C000EA3C0820DC820720462709004D270900C1
:10A9D00054270900622709006F270900752709001D
:10A9E0005A270900682709007E2709007047704729
:10A9F00008B5034609282FD8DFE800F0050B0F1330
:10AA0000171A1E2124284FF400222D4B11B31A636C
:10AA100008BD2C4B4FF08072F8E7294B4FF4802291
:10AA2000F4E7274B4FF48072F0E7254B8022EDE7E7
:10AA3000234B4FF40052E9E7224B4022E6E7214B3B
:10AA40001022E3E71E4B4FF48062DFE71C4B4FF40C
:10AA50000062DBE75A6308BD1B4A01210020F8F7BA
:10AA60006FFD4022174B5A6310225A634FF40002C5
:10AA70005A634FF480025A634FF080725A634FF466
:10AA80000022C3F834228022C3F834224FF400524B
:10AA9000C3F834224FF48022C3F834224FF480727A
:10AAA000C3F834224FF48062C3F834224FF080623E
:10AAB000C3F834224FF40062C3F8342208BD00BF4B
:10AAC00000100E40000E0E4089270900054B18703B
:10AAD000054B10B9588018707047022240001A7058
:10AAE00058807047EC3C0820EE3C0820F0B5114D32
:10AAF0008DB001AC06460F460FCD0FC40FCD0FC46D
:10AB000095E80700002384E8070001AA52F8230013
:10AB1000B7FBF0F0B0FBF6F0B0F5807F06D901335B
:10AB20000B2BF3D14FF6FF700DB0F0BD40EA0320C0
:10AB3000FAE700BF9C27090070B50C6806460D4671
:10AB400044B120468968FFF7D1FF4FF6FF73984262
:10AB500004460CD0686840B1A968FFF7C7FF4FF6FC
:10AB6000FF73984205D044EA004434600024204634
:10AB700070BD0446FBE74A6830B58C8A02F00F02CC
:10AB800022430C898D7D22438C7A0B6842EA442251
:10AB9000CC7D42EA054242EA44420C7E42EA8442CB
:10ABA00000EB4314C4F80022CA68C4F804220A69FE
:10ABB000C4F80C221DB1D1F81A20C4F81822CA7F9B
:10ABC00002FA03F48A7F9A4042EA0442826491F8CE
:10ABD000212002FA03F491F820209A4042EA04422C
:10ABE0004264012291F822409A4024B3046A14433B
:10ABF000046291F82440012C846E0CBF14439443EA
:10AC0000846691F825401204012C846E0CBF224307
:10AC100024EA0202032B82664FF0FF0491F82320FE
:10AC20000DD8DB00C16E9C4021EA04049A40224307
:10AC3000C266002030BD046A24EA0204D8E7043B5F
:10AC4000DB00016F9C4021EA040402FA03F3234372
:10AC50000367EEE7CB6893429FBF0B680A6100EB86
:10AC60004310C0F8102294BF00204FF6FF707047C9
:10AC70000B69934221BF0B68CA6000EB4310C0F818
:10AC800008222CBF00204FF6FF707047012303FA03
:10AC900001F141607047012303FA01F181607047BF
:10ACA000C06970470123103203FA02F203FA01F17E
:10ACB0000A43026170470123103203FA02F203FAD9
:10ACC00001F10A434261704781F0004102E000BF98
:10ACD00083F0004330B54FEA41044FEA430594EA5C
:10ACE000050F08BF90EA020F1FBF54EA000C55EA97
:10ACF000020C7FEA645C7FEA655C00F0E2804FEA68
:10AD00005454D4EB5555B8BF6D420CDD2C4480EA49
:10AD1000020281EA030382EA000083EA010180EA79
:10AD2000020281EA0303362D88BF30BD11F0004FC7
:10AD30004FEA01314FF4801C4CEA113102D04042FD
:10AD400061EB410113F0004F4FEA03334CEA133338
:10AD500002D0524263EB430394EA050F00F0A78050
:10AD6000A4F10104D5F1200E0DDB02FA0EFC22FA4B
:10AD700005F2801841F1000103FA0EF2801843FA3F
:10AD800005F359410EE0A5F120050EF1200E012A30
:10AD900003FA0EFC28BF4CF0020C43FA05F3C0186E
:10ADA00051EBE37101F0004507D54FF0000EDCF1E7
:10ADB000000C7EEB00006EEB0101B1F5801F1BD390
:10ADC000B1F5001F0CD349085FEA30004FEA3C0C94
:10ADD00004F101044FEA445212F5800F80F09A808A
:10ADE000BCF1004F08BF5FEA500C50F1000041EB8E
:10ADF000045141EA050130BD5FEA4C0C404141EB92
:10AE0000010111F4801FA4F10104E9D191F0000FB8
:10AE100004BF01460020B1FA81F308BF2033A3F13B
:10AE20000B03B3F120020CDA0C3208DD02F1140C32
:10AE3000C2F10C0201FA0CF021FA02F10CE002F16D
:10AE40001402D8BFC2F1200C01FA02F120FA0CFC66
:10AE5000DCBF41EA0C019040E41AA2BF01EB0451AF
:10AE6000294330BD6FEA04041F3C1CDA0C340EDCAD
:10AE700004F11404C4F1200220FA04F001FA02F3F0
:10AE800040EA030021FA04F345EA030130BDC4F1AE
:10AE90000C04C4F1200220FA02F001FA04F340EAA3
:10AEA0000300294630BD21FA04F0294630BD94F054
:10AEB000000F83F4801306BF81F480110134013D3B
:10AEC0004EE77FEA645C18BF7FEA655C29D094EAAC
:10AED000050F08BF90EA020F05D054EA000C04BF2A
:10AEE0001946104630BD91EA030F1EBF0021002015
:10AEF00030BD5FEA545C05D14000494128BF41F0B4
:10AF0000004130BD14F580043CBF01F5801130BD17
:10AF100001F0004545F0FE4141F470014FF00000A2
:10AF200030BD7FEA645C1ABF194610467FEA655C53
:10AF30001CBF0B46024650EA013406BF52EA0335F5
:10AF400091EA030F41F4002130BD00BF90F0000FE3
:10AF500004BF0021704730B54FF4806404F132041F
:10AF60004FF000054FF0000150E700BF90F0000FD8
:10AF700004BF0021704730B54FF4806404F13204FF
:10AF800010F0004548BF40424FF000013EE700BFCF
:10AF900042004FEAE2014FEA31014FEA02701FBF5F
:10AFA00012F07F4393F07F4F81F06051704792F031
:10AFB000000F14BF93F07F4F704730B54FF46074AB
:10AFC00001F0004521F0004120E700BF50EA0102F6
:10AFD00008BF704730B54FF000050AE050EA0102A3
:10AFE00008BF704730B511F0004502D5404261EB13
:10AFF00041014FF4806404F132045FEA915C3FF454
:10B00000DCAE4FF003025FEADC0C18BF03325FEAEC
:10B01000DC0C18BF033202EBDC02C2F1200300FAA1
:10B0200003FC20FA02F001FA03FE40EA0E0021FAC6
:10B0300002F11444C1E600BF70B54FF0FF0C4CF4B0
:10B04000E06C1CEA11541DBF1CEA135594EA0C0F66
:10B0500095EA0C0F00F0DEF82C4481EA030621EAA1
:10B060004C5123EA4C5350EA013518BF52EA0335DC
:10B0700041F4801143F4801338D0A0FB02CE4FF08E
:10B080000005E1FB02E506F00042E0FB03E54FF0BE
:10B090000006E1FB03569CF0000F18BF4EF0010EB6
:10B0A000A4F1FF04B6F5007F64F5407404D25FEAB2
:10B0B0004E0E6D4146EB060642EAC62141EA555165
:10B0C0004FEAC52040EA5E504FEACE2EB4F1FD0CA7
:10B0D00088BFBCF5E06F1ED8BEF1004F08BF5FEA25
:10B0E000500E50F1000041EB045170BD06F00046D7
:10B0F00046EA010140EA020081EA0301B4EB5C0484
:10B10000C2BFD4EB0C0541EA045170BD41F480117B
:10B110004FF0000E013C00F3AB8014F1360FDEBFA0
:10B12000002001F0004170BDC4F10004203C35DA7C
:10B130000C341BDC04F11404C4F1200500FA05F3FF
:10B1400020FA04F001FA05F240EA020001F00042A0
:10B1500021F0004110EBD37021FA04F642EB060116
:10B160005EEA430E08BF20EAD37070BDC4F10C0440
:10B17000C4F1200500FA04F320FA05F001FA04F204
:10B1800040EA020001F0004110EBD37041F10001F0
:10B190005EEA430E08BF20EAD37070BDC4F12005FB
:10B1A00000FA05F24EEA020E20FA04F301FA05F263
:10B1B00043EA020321FA04F001F0004121FA04F20B
:10B1C00020EA020000EBD3705EEA430E08BF20EADB
:10B1D000D37070BD94F0000F0FD101F00046400015
:10B1E00041EB010111F4801F08BF013CF7D041EA97
:10B1F000060195F0000F18BF704703F0004652009B
:10B2000043EB030313F4801F08BF013DF7D043EA6B
:10B210000603704794EA0C0F0CEA135518BF95EA21
:10B220000C0F0CD050EA410618BF52EA4306D1D1A8
:10B2300081EA030101F000414FF0000070BD50EAC7
:10B24000410606BF1046194652EA430619D094EA51
:10B250000C0F02D150EA013613D195EA0C0F05D13B
:10B2600052EA03361CBF104619460AD181EA03018F
:10B2700001F0004141F0FE4141F470014FF0000047
:10B2800070BD41F0FE4141F4780170BD70B54FF0E2
:10B29000FF0C4CF4E06C1CEA11541DBF1CEA135562
:10B2A00094EA0C0F95EA0C0F00F0A7F8A4EB050444
:10B2B00081EA030E52EA03354FEA013100F088803B
:10B2C0004FEA03334FF0805545EA131343EA126304
:10B2D0004FEA022245EA111545EA10654FEA0026B9
:10B2E0000EF000419D4208BF964244F1FD0404F572
:10B2F000407402D25B084FEA3202B61A65EB0305CE
:10B300005B084FEA32024FF480104FF4002CB6EB8A
:10B31000020E75EB030E22BFB61A754640EA0C000A
:10B320005B084FEA3202B6EB020E75EB030E22BF4A
:10B33000B61A754640EA5C005B084FEA3202B6EB8B
:10B34000020E75EB030E22BFB61A754640EA9C004A
:10B350005B084FEA3202B6EB020E75EB030E22BF1A
:10B36000B61A754640EADC0055EA060E18D04FEAD8
:10B37000051545EA16754FEA06164FEAC30343EA78
:10B3800052734FEAC2025FEA1C1CC0D111F4801F45
:10B390000BD141EA00014FF000004FF0004CB6E73E
:10B3A00011F4801F04BF01430020B4F1FD0C88BFDD
:10B3B000BCF5E06F3FF6AFAEB5EB030C04BFB6EBE8
:10B3C000020C5FEA500C50F1000041EB045170BDDB
:10B3D0000EF0004E4EEA113114EB5C04C2BFD4EB08
:10B3E0000C0541EA045170BD41F480114FF0000E8C
:10B3F000013C90E645EA060E8DE60CEA135594EA08
:10B400000C0F08BF95EA0C0F3FF43BAF94EA0C0F0A
:10B410000AD150EA01347FF434AF95EA0C0F7FF47F
:10B4200025AF104619462CE795EA0C0F06D152EAD3
:10B4300003353FF4FDAE1046194622E750EA4106B7
:10B4400018BF52EA43067FF4C5AE50EA41047FF4C8
:10B450000DAF52EA43057FF4EBAE12E753B94AB998
:10B46000002908BF00281CBF4FF0FF314FF0FF300C
:10B4700000F07AB9ADF1080C6DE904CE00F006F8E1
:10B48000DDF804E0DDE9022304B070472DE9F04760
:10B490008C460E460446089D002B50D18A42174622
:10B4A0006CD9B2FA82FEBEF1000F0BD0CEF1200CA7
:10B4B00001FA0EF620FA0CFC02FA0EF74CEA060C22
:10B4C00000FA0EF43A0CBCFBF2F9BBB202FB19CC49
:10B4D00009FB03FA4FEA144848EA0C46B2450AD978
:10B4E000F61909F1FF3180F02581B24540F2228141
:10B4F000A9F102093E44A6EB0A06B6FBF2F002FBF4
:10B50000106600FB03F3A4B244EA0644A34209D93F
:10B51000E41900F1FF3280F00B81A34240F2088170
:10B5200002383C440021E41A40EA0940002D62D070
:10B53000002324FA0EF42C606B60BDE8F0878B4288
:10B5400007D9002D55D0002185E841000846BDE807
:10B55000F087B3FA83F1002940F08F80B34202D321
:10B56000824200F2FC80841A66EB03060120B44696
:10B57000002D40D085E81010BDE8F08712B90127F2
:10B58000B7FBF2F7B7FA87FEBEF1000F35D1012104
:10B59000F61B4FEA174C1FFA87F8B6FBFCF20CFBC0
:10B5A000126608FB02F0230C43EA0646B04207D9B4
:10B5B000F61902F1FF3302D2B04200F2D2801A46ED
:10B5C000361AB6FBFCF00CFB106608FB00F8A3B2C1
:10B5D00043EA0644A04507D9E41900F1FF3302D23B
:10B5E000A04500F2B9801846A4EB080440EA0240E6
:10B5F0009CE729462846BDE8F08707FA0EF7CEF10A
:10B60000200326FA03F24FEA174CB2FBFCF11FFAB3
:10B6100087F80CFB112206FA0EF620FA03F301FB61
:10B6200008F933431E0C46EA0246B14500FA0EF40F
:10B6300009D9F61901F1FF3280F08C80B14540F252
:10B64000898002393E44A6EB0906B6FBFCF00CFBF0
:10B65000106200FB08F99EB246EA0246B14507D9DE
:10B66000F61900F1FF3371D2B1456FD902383E446B
:10B67000A6EB090640EA01418FE7C1F1200722FA53
:10B6800007F88B4048EA030326FA07F44FEA134E03
:10B69000B4FBFEF91FFA83FC0EFB19448E4020FA1E
:10B6A00007F809FB0CFA48EA06084FEA184646EA8A
:10B6B0000444A24502FA01F200FA01F608D9E4189E
:10B6C00009F1FF3044D2A24542D9A9F102091C4434
:10B6D000A4EB0A04B4FBFEF00EFB104400FB0CFCD0
:10B6E0001FFA88F848EA0444A44507D9E41800F191
:10B6F000FF3E29D2A44527D902381C4440EA09401C
:10B70000A0FB0289A4EB0C0CCC45C246CE4615D357
:10B7100012D055B1B6EB0A036CEB0E0606FA07F72A
:10B72000CB401F43CE402F606E600021BDE8F08704
:10B730001046F7E68946DEE64645EAD2B8EB020A4D
:10B7400069EB030E0138E4E77046D7E718468FE748
:10B750008146BDE7114676E702383C4444E7084697
:10B7600006E7023A3E442BE7704700BF024B0A4609
:10B770000146186800F002B8E082072010B502FB0D
:10B7800001F100F053F80446D8B150F8042C22F02F
:10B790000302043A242A18D8132A14D900231B2A96
:10B7A0000360436016D9242A8360C36011BF00F18F
:10B7B00010020361436100F118020023136053601B
:10B7C0009360204610BD0246F7E7002100F046FBDB
:10B7D000204610BD00F10802EFE700BF70B50F4E24
:10B7E0000F4D761BB61018BF002405D0013455F854
:10B7F000043B9847A642F9D10A4E0B4D07F028F9B1
:10B80000761BB61018BF002406D0013455F8043B4F
:10B810009847A642F9D170BD70BD00BF5C2A0900EF
:10B820005C2A0900642A09005C2A09002DE9F04F0E
:10B8300001F10B06162E83B0054640F29E8036F0CD
:10B84000070600F1BD80B14200F2BA8000F054FB5F
:10B85000B6F5FC7FC0F08582730A00F0B880042B37
:10B8600000F26C81B30903F1390003F1380EC10015
:10B87000B84F39444C680839A14206D10CE0002A7F
:10B8800080F2AB80E468A14206D0636823F0030332
:10B890009A1B0F2AF3DD70463C69DFF8CCE2744551
:10B8A00000F09E81636823F003039A1B0F2A00F3C4
:10B8B0008381002AC7F814E0C7F810E080F2918075
:10B8C000B3F5007F80F054810122DB0879684FEAEC
:10B8D000A30C134457F8338002FA0CF207EBC30CA5
:10B8E0000A43ACF10801E160C4F808807A6047F8C7
:10B8F0003340C8F80C40012483109C4094427DD80A
:10B90000144206D120F003006400144200F1040048
:10B91000FAD007EBC009CC468046DCF80C309C45D9
:10B9200007D15FE1002A80F26D81DB689C4500F061
:10B930005981596821F003018A1B0F2AF2DDDC6866
:10B94000D3F808C046F0010828461E4442F001051D
:10B95000C3F80480CCF80C40C4F808C07E613E6196
:10B96000C6F80CE0C6F808E075605A50009300F085
:10B97000C9FA009B03F108041EE0102920D800F04A
:10B98000BBFA102618230220724F3B445C68A3F1D7
:10B990000802944200F02F816368E16823F00303FA
:10B9A00023445A68A66842F00102F16028468E607E
:10B9B0005A6000F0A7FA0834204603B0BDE8F08FC3
:10B9C00000240C2320462B6003B0BDE8F08F4020FC
:10B9D0004FF400714FF03F0E4AE723445A68E16884
:10B9E000E0E723445A68284642F001025A600834CE
:10B9F00000F088FA204603B0BDE8F08FBC686368A9
:10BA000023F00308B04504D3A8EB06030F2B00F383
:10BA10008580DFF85891504BD9F800201B6801321F
:10BA2000334404EB080A00F0548103F580530F33CC
:10BA300023F47F6B2BF00F0B5946284600F068FA71
:10BA4000411C024600F0FB80824500F2F680434B29
:10BA500019685944196000F04C81D9F80000013090
:10BA60001BBFA2EB0A0A5144C9F80020196012F06A
:10BA7000070100F01481C1F10800C1F580510244B2
:10BA8000083102EB0B09C9F30B09A1EB090949467F
:10BA900028460193009200F03BFA431C9DE80C00FD
:10BAA00000F04281801A484440F001001968BC420D
:10BAB0004944BA601960506017D0B8F10F0F40F2D6
:10BAC000FA804FF0050C6268A8F10C0020F0070026
:10BAD00002F0010204EB000E02430F286260CEF870
:10BAE00004C0CEF808C000F216811D4BBC681A686D
:10BAF000914288BF19601B4B1A689142626888BFE7
:10BB0000196022F003029642A2EB060301D80F2B24
:10BB100004DC284600F0F6F900244DE746F0010267
:10BB200043F00103264462602846BE600834736017
:10BB300000F0E8F9204603B0BDE8F08F142B70D96F
:10BB4000542B00F2A280330B03F16F0003F16E0E51
:10BB5000C1008DE610870720243D0820F43C082012
:10BB60001C3D0820203D082018870720188B07203F
:10BB70005A0A042A5BD9142A00F2AE8002F15C0151
:10BB8000C9005B3207EB010C7958ACF1080C8C450D
:10BB900000F088804A6822F00302934273D28968D9
:10BBA0008C45F7D1DCF80C307A68E360C4F808C043
:10BBB0009C60CCF80C409EE646F0010C42F001017E
:10BBC0002644C4F804C028467E613E61C6F80CE0F5
:10BBD000C6F808E07160E25000F094F90834EBE632
:10BBE0007A6888E608F1010818F0030F0CF1080CD8
:10BBF0007FF493AE2DE0DC68A34208BF02303FF42F
:10BC00004BAEC9E61C4619444A68DB6854F8086F15
:10BC100042F001024A602846F3609E6000F072F92B
:10BC2000CAE603F15C0003F15B0EC10020E69A094D
:10BC300002F13901C9003832A4E7BC4254D0BC68D3
:10BC4000626822F003025EE759F80839994540F02E
:10BC5000868010F0030F00F1FF30F5D17B6823EAF6
:10BC600004037B6064009C423FF6C8AE002C3FF4A6
:10BC7000C5AE1C4240467FF44CAE64001C4200F14D
:10BC80000400FAD045E68C468CE7B3F5AA7F15D8B8
:10BC9000F30B03F1780003F1770EC100E8E54FF4F0
:10BCA0008051EEE601217B68921001FA02F21A43FC
:10BCB0007A60634679E7012353602AE740F25452E1
:10BCC000934222D8B30C03F17D0003F17C0EC10036
:10BCD000CEE503F1100BAFE6542A29D81A0B02F176
:10BCE0006F01C9006E324DE7204B19685944196045
:10BCF000B3E6CAF30B0000287FF4AFAE08EB0B03EA
:10BD0000BA6843F001035360EFE67F204FF47E7181
:10BD10004FF07E0EACE504F108012846009302F0D6
:10BD2000D3FD009B1968E0E601204FF00009BDE655
:10BD3000B2F5AA7F05D8DA0B02F17801C900773293
:10BD400020E740F254518A4205D89A0C02F17D0155
:10BD5000C9007C3216E74FF47E717E2212E77B68C1
:10BD600080E7F00806F108030EE600BFF43C082067
:10BD7000844641EA000313F0030349D1403A23D338
:10BD80000B6803604B6843608B688360CB68C3605B
:10BD90000B6903614B6943618B698361CB69C36143
:10BDA0000B6A03624B6A43628B6A8362CB6AC3622B
:10BDB0000B6B03634B6B43638B6B8363CB6BC36313
:10BDC00040304031403ADBD230320BD30B68036055
:10BDD0004B6843608B688360CB68C3601030103160
:10BDE000103AF3D20C3205D351F8043B40F8043B2F
:10BDF000043AF9D2043208D0D2071CBF11F8013B33
:10BE000000F8013B01D30B8803806046704700BFF8
:10BE1000082A13D38B07B1D010F00303AED0C3F1BF
:10BE20000403D21ADB071CBF11F8013B00F8013BE9
:10BE3000A4D331F8023B20F8023B9FE7043AD9D360
:10BE4000013A11F8013B00F8013BF9D20B7803707D
:10BE50004B7843708B7883706046704770B4860768
:10BE600046D0541E002A41D0CAB2034602E014F163
:10BE7000FF343BD303F8012B9D07F8D1032C2ED9B7
:10BE8000CDB245EA05250F2C45EA054519D92646C8
:10BE900003F11002103E0F2E42F8105C42F80C5CC9
:10BEA00042F8085C42F8045C02F11002F2D8A4F1F6
:10BEB000100222F00F0204F00F041032032C13447E
:10BEC0000DD91E462246043A032A46F8045BFAD8E6
:10BED000221F22F003020432134404F003042CB1A5
:10BEE000C9B21C4403F8011B9C42FBD170BC7047D3
:10BEF00014460346C2E700BF014802F0EBBD00BF95
:10BF0000383D0820014802F0E7BD00BF383D082059
:10BF100038B50023064C054608462360F4F71CFAA2
:10BF2000431C00D038BD2368002BFBD02B6038BDEC
:10BF30004C3D08200EB40146F0B56FF000454FF4BB
:10BF400002774FF6FF769CB021AC54F8042B0B4BD4
:10BF500002910691186802A923460194ADF8147065
:10BF600004950795ADF8166000F0B4F90022029B25
:10BF70001A701CB0BDE8F04003B07047E0820720A3
:10BF8000F8B507460E4617F8014B02F087FD20442E
:10BF9000437816F8015B03F00303012B08BF20343C
:10BFA00002F07CFD2844437803F00303012B04D006
:10BFB000601B01D1002DE6D1F8BD05F12000201A4B
:10BFC000E1D0F8BD830710B5044610D10268A2F194
:10BFD000013323EA020313F0803F08D150F8042F05
:10BFE000A2F1013323EA020313F0803FF6D0037875
:10BFF0001BB110F8013F002BFBD100F003F82046E5
:10C0000010BD00BF80EA0102844612F0030F4FD139
:10C0100011F0030F32D14DF8044D11F0040F51F817
:10C02000043B0BD0A3F101329A4312F0803F04BFCE
:10C030004CF8043B51F8043B16D100BF51F8044BB7
:10C04000A3F101329A4312F0803FA4F101320BD1E7
:10C050004CF8043BA24312F0803F04BF51F8043B6C
:10C060004CF8044BEAD023460CF8013B13F0FF0FC9
:10C070004FEA3323F8D15DF8044B704711F0010FFC
:10C0800006D011F8012B0CF8012B002A08BF7047CD
:10C0900011F0020FBFD031F8022B12F0FF0F16BFC4
:10C0A0002CF8022B8CF8002012F47F4FB3D170478C
:10C0B00011F8012B0CF8012B002AF9D1704700BFB1
:10C0C00020F0030110F00300C0F1000051F8043B20
:10C0D00000F1040C4FEACC0C6FF000021CBF22FAF6
:10C0E0000CF213434FF0010C4CEA0C2C4CEA0C4CB4
:10C0F000A3EB0C0222EA030212EACC1204BF51F8AD
:10C10000043B0430F4D0C2F1000102EA0102B2FAA9
:10C1100082F2C2F11F0200EBD200704740EA010335
:10C1200013F0030F70B4034624D0A2B10C78013A87
:10C130001C70013101333CB16AB111F8014B013A75
:10C1400003F8014B002CF7D12AB100211A4403F85F
:10C15000011B9A42FBD170BC70470E4651F8045B3C
:10C16000A5F1013424EA050414F0803F05D1043A16
:10C1700043F8045B032AF0D8D7E73146D6E700BF7F
:10C180002DE9F84FDDF828900F46804616461D46EB
:10C190008A4600E0A2465446484614F801BB02F025
:10C1A00079FC5844427812F00802F3D1BBF12D0F0C
:10C1B0004FD0BBF12B0F04BF94F800B00AF102047A
:10C1C0001DB1102D56D0AC4604E0BBF1300F60D04D
:10C1D0000A25AC46002A0CBF6FF000494FF0004919
:10C1E0000021B9FBFCFE08460CFB1E9A05E029D095
:10C1F00001210CFB003014F801BBABF13003092B1B
:10C2000005D9ABF14103192B0BD8ABF137039D4294
:10C210000FDDB1F1FF3FEED08645E8D24FF0FF31A0
:10C22000E9E7ABF16103192B03D8ABF157039D424A
:10C23000EFDC4B1C13D002B1404246B1C1B93760AC
:10C24000BDE8F88F9A45D3DA4FF0FF31D3E7BDE868
:10C25000F88F94F800B001220AF10204B0E722231B
:10C26000C8F80030EEB1671E48463760BDE8F88F69
:10C270008146F8E7BBF1300FA5D1237803F0DF0347
:10C28000582BA0D14FF0100C94F801B06546023441
:10C29000A0E7237803F0DF03582BF3D00825AC4642
:10C2A00098E74846BDE8F88F084B70B51D68084E02
:10C2B0006C6B82B0002C08BF3446134600940A46CB
:10C2C00001462846FFF75CFF02B070BDE082072000
:10C2D000248B07202DE9F04FC3B00C460B919246FA
:10C2E0000F930C9002F0E8FB036818461A93FFF7CF
:10C2F000E7FEA3891990190603D52369002B01F0E5
:10C30000358000230DF1C809C84615931393149383
:10C3100018931B9309931693179327932693CDF89D
:10C3200094909AF800305446EBB1252B02D11AE0D4
:10C33000252B03D014F8013F002BF9D1A4EB0A05FB
:10C340008DB1269B279A01332A44072BC8F800A0F9
:10C35000C8F804502792269300F38A8008F1080851
:10C36000099B2B4409932378002B00F0898000233C
:10C370004FF0FF301A468DF8773019460D939B46E3
:10C38000637804F1010A0A900AF1010AA3F120007E
:10C39000582800F2B783DFE810F04C03B503B5036B
:10C3A0005403B503B503B503B503B503B50359008D
:10C3B0005903B50366001402B5032F02A503A503B4
:10C3C000A503A503A503A503A503A503A503B5031D
:10C3D000B503B503B503B503B503B503B503B5039D
:10C3E000B5038B02D302B503D302B503B503B5037E
:10C3F000B5031B03B503B5032003B503B503B503AC
:10C40000B503B5033402B503B5034B02B503B50359
:10C41000B503B503B503B503B503B503B503B5035C
:10C4200076029E03D302D302D30263039E03B503B5
:10C43000B5036803B5037503DD018C035E03B50323
:10C44000F201B5038700B503B50332030F9C2368DF
:10C4500018460D932346002803F104030F9304DAD2
:10C460000D9B5B420D934BF0040B9AF800308BE769
:10C4700025AA0B990C9802F089FE40B9C8466FE7CF
:10C48000279B23B10C9825AA0B9902F07FFE0B9BEA
:10C490009B8913F0400F099B18BF4FF0FF3309939E
:10C4A000099843B0BDE8F08F1BF0200F119340F0C6
:10C4B000AF810F9A1BF0100F134640F09A851BF0C6
:10C4C000400F00F0968500250123148804320F9256
:10C4D000002217468DF877200A994A1C00F0108236
:10C4E0002BF08002079254EA050240F00F820029E7
:10C4F00040F03184002B40F039851BF001030E938E
:10C5000000F06286302342AE06F8413D0A9B0E9A47
:10C510009342B8BF134608930023129317B1089BA8
:10C5200001330893079B13F00203109302D0089B7A
:10C5300002330893079B13F0840540F010830D9B92
:10C54000089AA3EB020BBBF1000F40F30883BBF189
:10C55000100F40F3B287279C43462146A846102778
:10C56000269A0C9C0B9D06E0ABF1100BBBF1100F53
:10C5700003F1080318DD0132AB481031072A279177
:10C58000269283E88100EFDD25AA2946204602F0A5
:10C59000FDFD00287FF47BAFABF1100BBBF1100F5A
:10C5A0004B462799269AE6DC45460C4698460132CA
:10C5B0009D4B5C44072A2794269288E8080800F3DC
:10C5C000C3829DF8777008F1080887B10121269B86
:10C5D0000C440B440DF17702072B27942693C8F8DF
:10C5E0000410C8F8002000F3CD8308F10808109B60
:10C5F0007BB10221269B0C4401331EAA072B2794F2
:10C600002693C8F80410C8F8002000F3118408F13C
:10C610000808802D00F004830A9B0E9A9F1A002FB1
:10C6200037DD102F40F37986804D42462146B046D3
:10C630004FF0100B2E46269B0C9C0B9D04E0103FE8
:10C64000102F02F1080215DD01331031072B27915D
:10C65000269382E84008F2DD25AA2946204602F00A
:10C6600095FD00287FF413AF103F102F4A462799FD
:10C67000269BE9DC35460C464646904601333C4451
:10C68000072B2794269388E8A00000F3708308F115
:10C690000808079BDF0500F16482269B0E99013391
:10C6A0000C44072B2794C8F80060C8F804102693A0
:10C6B00000F3B38308F10808079B5B073BD50D9B8C
:10C6C000089A9D1A002D36DD102D40F32187102683
:10C6D000269B0C9FDDF82CB004E0103D102D08F1D6
:10C6E000080816DD0133504A1034072B279426938F
:10C6F00088E84400F1DD25AA5946384602F046FD97
:10C7000000287FF4C4AE103D102DC846279C269B00
:10C71000E8DC0133444A2C44072B2794269388E80D
:10C72000240008DD25AA0B990C9802F02FFD0028A3
:10C730007FF4ADAE279C099B0D9A08998A42ACBF45
:10C740009B185B180993002C40F0FB820023C8461D
:10C750002693E6E511931BF0200340F045811BF082
:10C76000100240F066841BF0400300F062840F99D1
:10C7700013460A4604320C8800250F92A8E60025CD
:10C780000F9A119316688DF87750141D002E00F043
:10C79000CD860A9A531C00F01B862946304602F0CB
:10C7A000B3F9002800F00D87831B0A950E930F94B0
:10C7B000CDF81CB023EAE373089312959DF87770C7
:10C7C000ACE69AF800300AF101042A2B00F0C28787
:10C7D000A3F130000928A24600F2188700231C4666
:10C7E0001AF8013B04EB840400EB4404A3F130008D
:10C7F0000928F5D90A94C9E54BF0800B9AF8003066
:10C80000C2E54BF0100B1BF0200F11933FF451AE1B
:10C810000F9C073424F0070303F10802D3E9004515
:10C820000F92012354E600BF1028090020280900B8
:10C830001193002A40F0AD87BE4B1BF0200F1893D8
:10C8400040F0E7800F9A1BF0100F134640F0D8839A
:10C850001BF0400F00F0D4830025043314880F939D
:10C860001BF0010F00F0E38054EA050300F0DF80C5
:10C8700030239DF844208DF878308DF879204BF0E6
:10C88000020B022324E601221193002311460F9884
:10C89000089202681F468DF877300A931293031DA1
:10C8A000CDF81CB00E918DF8A0200F9328AE39E67C
:10C8B0001193002A40F084874BF0100B1BF0200FDF
:10C8C00040F075840F9A1BF0100F134640F09D83C3
:10C8D0001BF0400F00F09983B2F900400433E517D4
:10C8E0000F9322462B46002A73F10003C0F298836F
:10C8F0000A999DF877704A1C4FF001037FF4F0AD60
:10C9000054EA050200F02982CDF81CB0012B00F09A
:10C910000E83022B40F09C824E461898230943EA6E
:10C920000573290904F00F020D461C46835C06F8C6
:10C93000013D54EA0503F1D1A9EB06030E93E5E5A9
:10C940001193002A40F038870F9C1BF0080F04F168
:10C95000070400F0CF8424F0070303F108020F92CC
:10C960001A685B6815921493149B159D23F000447C
:10C97000284621464FF0FF326F4B02F095FF00280A
:10C9800040F03484284621464FF0FF326A4B02F0D3
:10C990006DFF002840F02A8415A80DC8149902F0F4
:10C9A0005BFF002840F0D4859DF8777003231A467A
:10C9B00008930023614E19460A93614B0E92119A17
:10C9C0002BF0800007901291472AD8BF1E46A5E59C
:10C9D0004BF0080B9AF80030D6E44BF0100B119393
:10C9E0001BF020033FF4BBAE0F9C073424F0070379
:10C9F00003F10802D3E900450F92002368E5119383
:10CA0000002A40F0C2864F4B1BF0200F18933FF4D2
:10CA100019AF0F9C1BF0010F04F1070424F007036A
:10CA200003F108020F92D3E900457FF41DAF022302
:10CA30004EE59AF8003000297FF4A6AC01222021AF
:10CA4000A2E44BF0010B9AF800309DE49AF8003014
:10CA500001222B2198E44BF0200B9AF8003093E44C
:10CA60004BF0400B9AF800308EE49AF800306C2BB3
:10CA700003BF9AF801304BF0200B0AF1010A4BF08A
:10CA8000100B81E4002A40F07C861BF0200F40F060
:10CA900052841BF0100F40F038841BF0400F00F060
:10CAA00034840F9A136804320F92BDF824201A8040
:10CAB00037E4782330220F988DF879301193031DD5
:10CAC0000F93204B046818934BF0020B8DF87820DD
:10CAD00000250223FCE41193002A3FF4EFAE8DF809
:10CAE0007710EBE600200446A3F130001AF8013B72
:10CAF00004EB840400EB4404A3F130000928F5D9C9
:10CB00000D9443E41193002A40F04A86119A002ABA
:10CB10003FF4B6AC002301211F4608918DF8A020F8
:10CB2000CDF81CB08DF877300A9312930E9128AE91
:10CB3000F8E400BFDC270900FFFFEF7FD0270900E2
:10CB4000CC270900F027090025AA0B990C9802F0C0
:10CB50001DFB00287FF49BACC8469DF87770279C8E
:10CB600033E5119B652B40F39A8015A80DC81499E5
:10CB700002F068FE002800F093810121269BB54A4F
:10CB80000B440C44072B27942693C8F80410C8F8CC
:10CB9000002000F3C68308F108081F9B139A279C06
:10CBA000934203DB079BDD077FF586AD269B199932
:10CBB00001331A9A0C44072BC8F80020C8F8041057
:10CBC0002794269300F3C48308F10808139B5E1E84
:10CBD000002E7FF771AD102E40F375852246102789
:10CBE000269B9D4DDDF830B00B9C05E008F1080850
:10CBF000103E102E40F3258201331032072B27926E
:10CC0000269388E8A000F1DD25AA2146584602F0C7
:10CC1000BDFA00287FF43BACC846279A269BE7E77D
:10CC20000D9B089A9F1A002F7FF7F6AC102F40F348
:10CC3000A884894D42462146B0464FF0100B2E463F
:10CC4000269B0C9C0B9D04E0103F102F02F1080264
:10CC500015DD01331031072B2791269382E8400818
:10CC6000F2DD25AA2946204602F090FA00287FF43A
:10CC70000EAC103F102F4A462799269BE9DC35461B
:10CC80000C464646904601333C44072B2794269396
:10CC900088E8A00000F39E8208F10808BCE4139B1A
:10CCA000012B40F34F820123269F1C441F44072F72
:10CCB0002794C8F800602697C8F8043000F35F8214
:10CCC00008F10808199A01371A9B1444072F279472
:10CCD0002697C8F80030C8F8042000F35C8208F1F9
:10CCE000080815A80DC8149902F0ACFD139B002884
:10CCF00040F04181013B013701361C44072FC8F841
:10CD0000006026972794C8F8043000F3668108F184
:10CD100008081B9A0137144421AB072F2794269744
:10CD2000C8F80420C8F800307FF7C4AC25AA0B99D6
:10CD30000C9802F02BFA00287FF4A9ABC846279C78
:10CD4000BAE425AA0B990C9802F020FA00283FF4C7
:10CD5000FDACFFF79CBBDDF81CB0012B00F07E8121
:10CD6000022B71D1CDF81CB000240025D4E525AAF2
:10CD70000B990C9802F00AFA00287FF488ABC84699
:10CD8000279C86E425AA0B990C9802F0FFF900284D
:10CD90007FF47DABC846279C29E40120269B2D4AC1
:10CDA00003440444072B27942693C8F80400C8F8CA
:10CDB000002040F3D88225AA0B990C9802F0E6F9DE
:10CDC00000287FF464ABC8461F99279C29B9139BA0
:10CDD0001BB9079BD8077FF56FAC1998269B0246B5
:10CDE000013322441A9C072B2792C8F80040C8F848
:10CDF0000400269300F3318408F108080029C0F2EA
:10CE00000984139901338C18072B27942693C8F8AB
:10CE10000060C8F804107FF74DAC25AA0B990C9858
:10CE200002F0B4F900287FF432AB279CC84643E4F3
:10CE300025AA0B990C9802F0A9F900287FF427ABDA
:10CE4000C846279CFFF7E5BB00240025CDF81CB0A1
:10CE5000494604E00C280900202809003146E20870
:10CE600042EA4572E80804F00703054614463033E9
:10CE700054EA050201F8013C01F1FF36EED1079AB0
:10CE8000D2077FF559AD302B3FF456AD3023023930
:10CE900006F8013CA9EB01030E930E46FFF736BBE3
:10CEA0001F9900297FF779AF129B139A9342A8BF6D
:10CEB0001346002B1F460BDD269B3C440133072BFA
:10CEC000279488E8C000269300F3FB8208F1080845
:10CED000129B002FA8BFDB1B002B1F4640F3D780FF
:10CEE000102B40F33484BA4D42462146B0464FF0F1
:10CEF000100B2E46269B0C9C0B9D04E00832103F25
:10CF0000102F40F3B58001331031072B2791269362
:10CF100082E84008F2DD25AA2946204602F036F9CB
:10CF200000287FF4B4AA4A462799269BE7E7002DFC
:10CF300008BF0A2CC0F090804E46204629460A229F
:10CF40000023FEF78BFA303206F8012D20462946E1
:10CF500000230A22FEF782FA04460D4654EA05032E
:10CF6000EBD1A9EB06030E93FFF7D0BA0A9B4E460E
:10CF70000E93FFF7CBBA5E1E002E7FF7CAAE102EBF
:10CF800040F3E38322464FF0100B914D0C9C04E0DC
:10CF9000103E102E08F1080815DD01371032072F5A
:10CFA0002792269788E82008F2DD25AA0B992046CB
:10CFB00002F0ECF800287FF46AAA103E102EC84652
:10CFC000279A269FE9DC144601373444072F27941B
:10CFD000269788E860007FF79AAE25AA0B990C98EF
:10CFE00002F0D4F800287FF452AA279C269FC84656
:10CFF0008FE604321C68002501230F92FFF768BA00
:10D000001C6804330F9300252AE41C680433E517D9
:10D0100022460F932B46002A73F10003BFF668AC3B
:10D020002D27644265EB45058DF877700123FFF7E6
:10D0300053BA0F9900250A4604320C680F92FFF785
:10D0400047BA144601333444072B2794269388E8C3
:10D0500060007FF72FABE0E6DDF81CB0012342AEA5
:10D060003034CDF81CB006F8414D0E93FFF74EBAA0
:10D0700035460C464646904601333C44072B2794E0
:10D08000269388E8A00000F3468208F108081F9A5A
:10D09000139B9A4245DB079BD90742D4139B1298F6
:10D0A0009A1A1D1A9542A8BF1546002D0EDD269925
:10D0B000064401312C440729C8F800602794C8F8B9
:10D0C0000450269100F3168208F10808002DB4BF21
:10D0D0001646561B002E7FF7EFAA102E40F3F38260
:10D0E00022461027269B3A4DDDF830B00B9C04E019
:10D0F00008F10808103E102EA3DD01331032072B73
:10D100002792269388E8A000F2DD25AA21465846FA
:10D1100002F03CF800287FF4BAA9C846279A269B5B
:10D12000E8E7269B199801331A990444072B2794A2
:10D13000C8F80010C8F80400269300F3CF8108F166
:10D140000808ABE7079BDA073FF5ADAD0123269F43
:10D150001C441F44072F2794C8F800602697C8F87E
:10D1600004307FF7D4AD25AA0B990C9802F00EF885
:10D1700000287FF48CA9C846279C269FC9E525AACC
:10D180000B990C9802F002F800287FF480A9C84699
:10D19000279C269F96E525AA0B990C9801F0F6FF8F
:10D1A00000287FF474A9C846279C269F99E50F9C08
:10D1B000073424F0070404F10801D4E900230F9197
:10D1C00014461D46FFF78FBB4E46FFF79FB900BFC1
:10D1D0002028090025AA0B990C9801F0D7FF0028F8
:10D1E0007FF455A9C846279CFFF716BA159C22461E
:10D1F0002046149C2346214602F056FB002840F0AE
:10D2000073820A9B0133119B23F020030E9300F0DD
:10D210009C81472B00F0D6804BF480730793149BBE
:10D220001F1E159B0893B7BF3B46002303F1004721
:10D230002D231093119B662B00F09081462B00F05C
:10D24000A48002200E9B23A9452B0ABF0A9B0A9D9E
:10D250005D1C8DE82100049120A81FA93B46039086
:10D26000089A02910C9800F0A3FB119B0646672BCD
:10D2700040F0BA811BF0010F00F023827419169A56
:10D280000898179B394602F0DDFA002840F0248107
:10D29000239BA34206D230215A1C23921970239B50
:10D2A0009C42F9D89B1B13930E9B472B00F0A28046
:10D2B000119B652B40F3A781119B662B1F9B12933B
:10D2C00000F07181139B129A1946914200F35D811F
:10D2D0001BF0010F40F0F08122EAE273089367230C
:10D2E0000E921193109B002B7DD10A939DF87770BD
:10D2F000FFF714B924F007042368159363681493A7
:10D3000004F108030F93FFF72FBB0F9A1368043241
:10D310000F92099A1A60FFF704B8269BAF4DFFF7EA
:10D32000ADB925AA0B990C9801F030FF00287FF4C5
:10D33000AEA8C84631E40F9A134604330F93099BF5
:10D340001168DD171A462B46C1E90023FEF7E9BF35
:10D3500025AA0B990C9801F019FF00287FF497A8D3
:10D36000C846279C32E408F108082FE540210C98B4
:10D37000FEF75CFA0B9A10601061002800F014822E
:10D3800040230B9A5361FEF7BCBF03200A9C23A9DC
:10D390008DE81100049120A81FA90390089A3B462C
:10D3A00002910C9800F004FB25460646119B741967
:10D3B000462B7FF464AF3378302B00F087811F9DBC
:10D3C0002C445CE70A9B002B08BF01230A9323E748
:10D3D00030460A95FEF774FE0F940E90CDF81CB0FF
:10D3E0000346FFF7E7B92D2700238DF877700A93DE
:10D3F000FFF795B81F9B1A461293033304DB0A9B71
:10D4000019469142BFF65EAF119B023B1193129BEE
:10D410009DF84420013B002B8DF88420B4BF2D22C1
:10D420002B221F93B8BF129B8DF88520B8BFC3F184
:10D430000103092B40F31F810DF193000146684C55
:10D4400000E0114684FB0352DD17C5EBA20505EB96
:10D450008502A3EB42023032092D01F8012C2B4644
:10D4600001F1FF32EDDC30330239DCB2884202F8E0
:10D47000014C40F292810DF18601134601E013F850
:10D48000014B834201F8014BF9D101339B1A0DF195
:10D490008602134421AA9B1A139A1B93012A134450
:10D4A0000E9340F348810E9B199A13440E9323EA7E
:10D4B000E37308930023129314E7279C269AFFF73F
:10D4C00076B825AA0B990C9801F060FE00287EF42E
:10D4D000DEAFC846279CFBE42346E3E625AA0B996A
:10D4E0000C9801F053FE00287EF4D1AFC8461F9A75
:10D4F000279CD3E525AA0B990C9801F047FE00283C
:10D500007EF4C5AF1F9A139BC846279C9A1ADDE587
:10D51000269BFFF7FEB825AA0B990C9801F036FE62
:10D5200000287EF4B4AFC846279CB0E50A9B374676
:10D53000062B28BF06230A96129608930F94CDF85F
:10D540001CB00E93274EFEF7E9BF06230A9363E64D
:10D550002D231F468DF87730FFF728BA03200A9C49
:10D5600023A98DE81100049120A81FA90390089A0F
:10D570003B4602910C9800F01BFA2546064604191A
:10D5800019E7269B154DFFF77EBB199A139B134491
:10D59000129A0E93002A40F3C78023EAE37308939C
:10D5A000672311939EE6002B40F3E1800A9A002A3C
:10D5B00040F0B0801BF0010F40F0AC8008930E9358
:10D5C00090E60A9B0F9408930E930A90CDF81CB036
:10D5D00012909DF87770FEF7A1BF00BF20280900C8
:10D5E0006766666604280900119B472B7FF446AEE8
:10D5F0001BF0010F7FF4DAAE239B9B1B13930E9B52
:10D60000472B3FF4F7AE1F9B129300E700200A90D0
:10D61000FEF7BCBE4F42103135DA10246A4DDDF8FA
:10D6200030B004E008F10808103F102F2CDD013362
:10D630001032072B27922693C8F80050C8F80440F0
:10D64000F0DD25AA0B99584601F0A0FD00287EF4D4
:10D650001EAFC846279A269BE6E725AA0B990C9889
:10D6600001F094FD00287EF412AFC8461F99279A56
:10D67000269BFFF7C3BB302213448DF887308DF80B
:10D68000862022AB06E7504D01333A44072B88E849
:10D69000A0002792269308F108087FF7B2AB25AACD
:10D6A0000B990C9801F072FD00287EF4F0AEC8468C
:10D6B000279A269BFFF7A5BB129B199A13440E933A
:10D6C0006BE7239BEEE5269B3F4DBBE4169A08983B
:10D6D000179B394602F0B6F800287FF470AEC5F10A
:10D6E00001051F952C44CAE5149B384E002BBEBF84
:10D6F0002D231F468DF877304FF003031A46089309
:10D700004FF00003A8BF9DF8777019460A93304B7D
:10D71000FFF754B9129B199A13440A9A1A4422EA41
:10D72000E2730E920893DDE5129B0E9AC3F101039A
:10D730001A441346C3E71BF0010312937FF4B3AE00
:10D740000E9B23EAE3730893CCE51F4D3CE4269B34
:10D750001D4D91E40F9D9AF801302868A24640EAD9
:10D76000E0700A90284604300F90FEF70DBE0A9B29
:10D7700013B91BF0010F02D0199B0133CDE7012330
:10D780001CE78DF87710FFF780B98DF87710FFF759
:10D790003AB98DF87710FFF74FB80DF1860379E6A7
:10D7A0008DF87710FFF7B2B94FF0FF320C230992D2
:10D7B0000C9A1360FEF774BE8DF87710FFF7C4B8AB
:10D7C0008DF87710FFF778B820280900D8270900CE
:10D7D000D427090070B5141E9AB005462CDB1A46F2
:10D7E0004FF4027300910491ADF80C304FF6FF76C0
:10D7F0000FD0013C1E9B694602940594ADF80E6063
:10D80000FEF768FD421C10DB0022009B1A701AB064
:10D8100070BD1E9B694602940594ADF80E60FEF73C
:10D8200059FD431C04DB1AB070BD8B232B60EBE762
:10D830008B232B601AB070BD8B234FF0FF302B6011
:10D84000F1E700BF10B5064C82B000932468134680
:10D850000A4601462046FFF7BDFF02B010BD00BFDB
:10D86000E0820720024B13B1024800F005B8704770
:10D8700000000000F5E70800002301461A4618469C
:10D8800001F00EBD2DE9F04F03690F6983B09F428F
:10D8900000F38880013F01F1140600F1140A56F8E4
:10D8A00027305AF827200133B2FBF3F8BB0000936E
:10D8B00006EB030953440193B8F1000F3BD000235A
:10D8C000B4461C46D6465CF8042BDEF800501FFA1E
:10D8D00082FB08FB0B33120C4FEA134B08FB02BB15
:10D8E0009AB2A21AABB21FFA8BF41A44C4EB1544D5
:10D8F00004EB224492B242EA0442E1454EF8042B82
:10D900004FEA24444FEA1B43DDD2009B5AF8033010
:10D910008BB9019C231F9A450CD254F8043C4BB997
:10D92000A4F1080302E01A68043B1AB99A4507F10A
:10D93000FF37F8D30761044601F02AFB00282DDBEE
:10D940005546002308F1010856F8041B28688AB2DE
:10D950009A1A0B0C81B20A44C3EB104303EB224327
:10D9600092B242EA0342B14545F8042B4FEA234301
:10D97000EAD25AF827200AEB87037AB91A1F924590
:10D980000BD253F8042C42B9083B02E01A68043B5E
:10D990001AB99A4507F1FF37F8D32761404603B01B
:10D9A000BDE8F08F002003B0BDE8F08F000000005C
:10D9B0002DE9F04F056C9BB0044692469B46279E8E
:10D9C0004DB10123426C29469340AB606A6001F07F
:10D9D00007F900232364BBF1000F5D4635DB00230C
:10D9E00033609D4BAB4315D000220023504659466F
:10D9F00001F028FF804600282DD00123269A1360CD
:10DA0000289B002B00F0BD809448186001381BB0A3
:10DA1000BDE8F08F42F20F73269A1360BAF1000F3F
:10DA20000DD1C5F3130555B9289B8D48002BEED0B9
:10DA300000F10803289A13601BB0BDE8F08F289B03
:10DA40008848002BE3D0C31CF4E701232BF00045EA
:10DA50003360AB46C5E718AA19AB01920093524652
:10DA60005B46204601F03EFB2B0D814671D05046AF
:10DA7000CBF3130242F07F51189FA3F2FF36CDF88B
:10DA8000508041F440110022774BFDF721F96CA33F
:10DA9000D3E90023FDF7D0FA6BA3D3E90023FDF708
:10DAA00019F9CDE902013046FDF760FA68A3D3E920
:10DAB0000023FDF7C1FA02460B46DDE90201FDF73E
:10DAC00009F9CDE9040101F005FF002202900023CD
:10DAD000DDE9040101F0C0FE002840F06D81029DE7
:10DAE000162D00F257816149524601EBC5015B4694
:10DAF000D1E9000101F0CEFE002800F0BE816B1ECE
:10DB0000029300230E93BF1B7B1E089300F14E81EE
:10DB100000230A93029B002BC0F23F81089A0D93C9
:10DB200011461944002308910C93249B092B2AD8F1
:10DB3000052B40F358860025043B2493249B023B8D
:10DB4000032B00F23F86DFE813F0CE03C302D903B4
:10DB50005B04189F199E3E4406F23243202B40F38B
:10DB60008781C3F1400306F212409D402AFA00F07B
:10DB70002843FDF7EBF90123013E1493A1F1F8715D
:10DB800081E73B4843E7002120466164259101F08D
:10DB900001F84FF0FF3307930F930123259A049068
:10DBA000206424920B93199B002BC0F2D380029A1D
:10DBB0000E2A00F3CF802D4B03EBC203D3E90023E1
:10DBC000CDE90823259B002BC0F2B483DDE908567C
:10DBD00050462A4633465946FDF758FB01F07AFE77
:10DBE0008046FDF7C3F92A463346FDF725FA02467B
:10DBF0000B4650465946FDF76BF8079E049F08F107
:10DC00003005012E3D7002460B4607F1010564D038
:10DC10000022184BFDF710FA0022002306460F469B
:10DC200001F010FE002840F08280CDF828904FF0DF
:10DC3000000ADDE908894FF0000B0B9429E000BFD2
:10DC400061436F63A787D23FB3C8608B288AC63F02
:10DC5000FB799F501344D33F0000F07F0D2809004B
:10DC6000302809003C2809000000F83F7828090006
:10DC70000C280900000024400022814BFDF7DCF94C
:10DC800052465B4606460F4601F0DCFD002840F098
:10DC9000BA8342464B4630463946FDF7F7FA01F063
:10DCA00019FE0446FDF762F942464B46FDF7C4F9FA
:10DCB00002460B4630463946FDF70AF804F13006B5
:10DCC00005F8016B049E079FAE1BBE4202460B4641
:10DCD000D2D1A046DDF828900B9C10461946FCF7DF
:10DCE000F9FF06460F4602460B46DDE9080101F042
:10DCF000B3FD48B9DDE9080132463B4601F0A2FD1B
:10DD0000A8B118F0010F12D015F8018C6B1E049AFF
:10DD100004E09A4200F0028413F8018DB8F1390F43
:10DD200003F10105F5D008F1010883F800804946A8
:10DD3000204600F055FF0022029B2A70269A0133EC
:10DD40001360289B002B00F09F8304981D601BB07C
:10DD5000BDE8F08F0B9A002A3ED0249A012A40F3A6
:10DD60001183079B0C9A5F1EBA42C0F29083D71BA7
:10DD7000079B002BC0F28C840A9D079B0A9A012105
:10DD80001A440A92089A20461A44089200F0C4FFE6
:10DD9000064623E001230E93B5E600230A9A0D936D
:10DDA000029BD21A5B420A920C93BEE6C7F10103B2
:10DDB0000A9300230893ADE6029D2846FDF7D6F8A6
:10DDC00002460B46DDE9040101F03CFD00287FF42A
:10DDD00086AE6B1E029382E60AADE0CD002D0CDD0F
:10DDE000089900290B4608DDA942A8BF2B460A9ACC
:10DDF000ED1AD21ACB1A0A9208930C9BD3B10B9B43
:10DE0000002B00F0B882002F10DD31463A46204644
:10DE100001F01EF84A4601460646204600F086FFFD
:10DE2000034649462046994600F0DAFE0C9BDA1B71
:10DE300040F0A2820121204600F06EFF0D9B80463B
:10DE4000002B1FDD01461A46204601F001F8249BF5
:10DE50008046012B40F3558200230C93D8F81030F4
:10DE600008EB8303186900F007FFC0F1200013E0FE
:10DE7000C3F120050AFA05F07BE60E9043E600BFE9
:10DE800000002440249B012B40F3858200230C9347
:10DE90000D9B0120002BE1D1089A104410F01F00C7
:10DEA00000F0A180C0F12003042B40F386840A9B7C
:10DEB000C0F11C0003440A9313460344054408932D
:10DEC0000A9B002B05DD49461A46204601F010F852
:10DED0008146089B002B05DD41461A46204601F08D
:10DEE00007F880460E9B002B40F08680079B002B96
:10DEF00040F364820B9B002B00F09880002D05DD21
:10DF000031462A46204600F0F3FF06460C9B002BC4
:10DF100040F036830896079B049A013BD3180B9375
:10DF200017460AF00103C246DDF820B00C935146B3
:10DF30004846FFF7A7FC31460546484601F028F859
:10DF40005A4607905146204601F03EF8C268804686
:10DF500005F13003002A40F02982014648460A9321
:10DF600001F016F841460890204600F039FE089A64
:10DF70000A9B32B9249921B90C9A002A00F0EE8349
:10DF8000249A07990029C0F29F8205D1249919B9D2
:10DF90000C99002900F09882002A00F305830B9A5F
:10DFA00007F1010897423B70454600F00B83494654
:10DFB00000230A22204600F01DFE5E4581463146C0
:10DFC0004FF000034FF00A02204600F0E98100F014
:10DFD00011FE5946064600230A22204600F00AFE9A
:10DFE00047468346A3E71C200A9B054403440A9343
:10DFF000089B0344089363E74146484600F0C8FF86
:10E000000028BFF673AF029F494600230A2220462C
:10E01000013F029700F0EEFD0B9B8146002B40F084
:10E02000B5830F9B002B40F3BE830793DDF810A050
:10E03000079F554606E0494600230A22204600F085
:10E04000D9FD814641464846FFF71CFC303005F8B3
:10E05000010BA5EB0A03BB42EDDB049B079A82464A
:10E06000012AACBF9B1801334FF0000B1D464946F7
:10E070000122204600F03CFF4146814600F088FF27
:10E08000002840F33F8215F8012C6B1E049904E030
:10E090008B4200F0AE8113F8012D392A03F10105FE
:10E0A000F6D001321A704146204600F099FD002E4C
:10E0B0003FF43DAEBBF1000F05D0B34503D0594648
:10E0C000204600F08DFD3146204600F089FD2EE609
:10E0D00000230B93029B259A13440F930133012BCA
:10E0E0001F461E46B8BF012707930021172F616402
:10E0F0000AD9012204235B0003F114008742114670
:10E1000002F10102F7D26164204600F043FD0E2EB9
:10E11000049020643FF647AD002D3FF444AD0299D2
:10E12000CDE910AB002940F30382B94B01F00F0297
:10E130000D1103EBC203E906D3E9006740F1AF819B
:10E14000B44B5046D3E908235946FDF79FF84FF0EA
:10E15000030ACDE9120105F00F058DB1DFF8B48295
:10E16000EA0709D5D8E9002330463946FCF764FFB1
:10E1700006460F460AF1010A6D1008F10808EFD1B2
:10E180003B46DDE912013246FDF780F80746884636
:10E190000E9B43B10022A04B3846414601F05CFB88
:10E1A000002840F087825046FCF7E0FE3A4643469E
:10E1B000FCF742FF994B0022FCF78CFD079B0546BC
:10E1C000A1F15076002B00F03F81029B1593079B35
:10E1D00012930B9B002B00F0FB81129A8C4B0020BA
:10E1E00003EBC20353E902238D49FDF74FF82A469A
:10E1F0003346FCF76DFD82468B463846414601F0BA
:10E2000069FB0546FCF7B2FE02460B46384641461E
:10E21000FCF75EFD30355FFA85F8049D06460F4633
:10E2200085F8008002460B4650465946013501F0FC
:10E2300031FB002854D132463B4600207649FCF79A
:10E2400047FD02460B465046594601F023FB002885
:10E2500040F07082129A012A00F01281129B049AF7
:10E26000CDF84890134499460FE032463B460020D3
:10E270006949FCF72DFD52465B4601F0EDFA002896
:10E2800040F056824D4500F0F98050465946002234
:10E29000644BFCF7D1FE0022624B82468B4630462F
:10E2A0003946FCF7C9FE0F46064601F013FB8046CF
:10E2B000FCF75CFE02460B4630463946FCF708FD8B
:10E2C00008F130085FFA88F805F8018B52465B4682
:10E2D00006460F4601F0C0FA0028C6D0DDF8489087
:10E2E000159B029323E500230B93259B002B40F302
:10E2F000DD801F461E460F930793F6E601230B931E
:10E30000F3E7BAF1000F7FF4A7ADCBF31303002BB3
:10E310007FF4BCAD2BF000473F0D3F05002F00F010
:10E320000D820A9B01330A93089B01330893012352
:10E330000C93ADE5079B002B3FF748AC40F02282E1
:10E34000DDE908010022384BFCF776FE52465B46B9
:10E3500001F096FADDF81C804646002841D0259B46
:10E36000049DDB4302934146204600F039FC002E19
:10E370003FF4DDACA7E60C9A4946204600F068FD64
:10E38000814657E5149A002A00F0888103F233434E
:10E390000C9F0A9DF2E4BAF1000F7FF477ADB4E769
:10E3A00000F028FC474606468346C0E50146204665
:10E3B000089300F015FC0122089BE2E5249B022B48
:10E3C0007FF798AD079B002BC9D141460522204617
:10E3D00000F010FC01468046484600F0D9FD0028B8
:10E3E000BDDD3123029A0499013202920B704D1C5B
:10E3F000B9E73123029A01320292049A137052E66D
:10E4000001230B9366E6DDF828900B9C8FE400BF98
:10E4100078280900502809000000F03F00001C4047
:10E420000000E03F00002440000014405046FCF78C
:10E430009DFD3A464346FCF7FFFD0022C14BFCF729
:10E4400049FC0546A1F1507641460022BE4B3846B4
:10E45000FCF73EFC2A46334682468B4601F01AFA08
:10E460008046002840F010812A4606F100435046BD
:10E47000594601F0F1F918B1464670E7DDF84890C9
:10E48000DDE910ABFFF78FBB0498FFF7C0BA0C9B18
:10E490000D9AFB1A1A440C970D92002768E4DDE9E7
:10E4A00010234FF0020ACDE9122356E60021012382
:10E4B00020466164259300F06DFB259B0490079333
:10E4C000259B20640F9327E6002AD046CDF820B084
:10E4D0009A4611DD49460122204600F009FD4146D9
:10E4E000814600F055FD002840F34581BAF1390F0F
:10E4F00000F0058105F1310AB34687F800A07D1CC4
:10E50000089ED0E504D11AF0010F01D0BBE51546F5
:10E5100015F8013C6A1E302BF9D0C4E5302204996D
:10E520000A70029A15F8018C01320292FFF7FBBBC8
:10E5300000F0BB80DDE91001029B4FF0020A5D4252
:10E54000824B05F00F0203EBC203D3E90023FCF773
:10E5500073FD2D11074688463FF41AAE7C4EEB073B
:10E5600009D5D6E9002338464146FCF765FD074644
:10E5700088460AF1010A6D1006F10806EFD107E698
:10E580007168204600F006FB0546336906F10C0170
:10E5900002339A000C30FDF7EBFB2946012220469E
:10E5A00000F0A6FC0890B6E4392BCDF820B0D04698
:10E5B00000F0A58003F1010AB34687F800A07D1C96
:10E5C000089E70E55A46D046B3469A4616464EE532
:10E5D00012985E492A4601EBC001334651E9020117
:10E5E000FCF72AFDCDE916013846414601F072F9E3
:10E5F0000546FCF7BBFC02460B4638464146FCF795
:10E6000067FB06461298049A3035012815700F46AC
:10E6100002F1010526D0129B049ACDF848901344CC
:10E620004FF0000A9946DFF830B152465B4630465B
:10E630003946FCF701FD0F46064601F04BF98046CE
:10E64000FCF794FC02460B4630463946FCF740FB8B
:10E6500008F1300805F8018B4D4506460F46E4D118
:10E66000DDF848900022DDE916013A4BFCF732FB59
:10E6700032463B4601F0F0F8002846D0159B029345
:10E6800015F8018CFFF742BB4FF000084646A8E69C
:10E690000A9B079A9D1A0023FFF770BB189B0C9FDB
:10E6A000C3F136030A9DFFF769BBDDE910784FF02F
:10E6B000020A6DE5079B002B3FF4B8AE0F9B002BC1
:10E6C0007FF7DEAE0022244B38464146FCF7B4FC0F
:10E6D000074688460AF10100FCF748FC3A464346E3
:10E6E000FCF7AAFC0022174BFCF7F4FA029A0F9BE6
:10E6F000013A05461592A1F15076129369E5392247
:10E70000B3463A70089E7D1CBFE4DDE91623002065
:10E710001049FCF7DDFA32463B4601F0BBF808B978
:10E72000AEE6154615F8013C6A1E302BF9D0D7E548
:10E73000DDF84890159B0293FFF7E8BA0C97FFF7B6
:10E74000A7BB00BF00001C4000001440782809004F
:10E75000502809000000E03F00002440392BCDF88C
:10E7600020B0D046DDF81CB09A46C8D0BBF1000FEF
:10E770003FF7C0AEC0E67FF4BFAE1AF0010F3FF422
:10E78000BBAEB3E64FF000084646E8E5314600234D
:10E790000A22204600F02EFA0F9B0646002B07DDCA
:10E7A0000793FFF7ABBB249B022B1FDC0F9B3CE4C2
:10E7B000249B022B1ADC0F9BF2E73FF481ABC0F1E4
:10E7C0003C0011E4002520466564294600F0E2F98A
:10E7D0004FF0FF3307930F93012304902595206496
:10E7E0000B93FFF7E0B90125FFF7A8B90F9B07933B
:10E7F000E8E500BF38B50A4C0A4D641BA4100AD0E6
:10E8000004F18043013B05EB8305013C55F80439D5
:10E810009847002CF9D1BDE8384004F023B900BF77
:10E820008C2A0900882A0900F8B50C46234F0646B1
:10E83000FDF762FBBB68C4F57E615D680F3125F0B2
:10E840000305294421F47F6121F00F01A1F58054D3
:10E85000B4F5805F07DB00213046FDF759FBBB684C
:10E860002B44984204D03046FDF74CFB0020F8BD05
:10E8700061423046FDF74CFB01300DD0104BBA68B9
:10E8800019682D1B45F001053046091B55601960BC
:10E89000FDF738FB0120F8BD00213046FDF738FBBD
:10E8A000BA68831A0F2BDEDD064C0549246843F055
:10E8B0000103001B53600860D5E700BF10870720E5
:10E8C000F43C0820188B0720002944D02DE9F041A2
:10E8D0000D468046FDF710FB55F8047C6949A5F10B
:10E8E000080427F00103E2188E685068B24220F055
:10E8F00003005ED0FE0750600BD455F8087C01F190
:10E90000080EE41BA5683B4475456DD0E768EF60D1
:10E91000BD6015186D68ED073ED543F001026260D9
:10E92000E350B3F5007F17D20122DB0898104D6841
:10E93000134451F83370824001EBC3002A43083876
:10E94000E060A7604A6041F83340FC604046BDE8A3
:10E95000F041FDF7D7BA70475A0A042A52D89A09EB
:10E9600002F13907FF0002F13805C819CA59083801
:10E9700090424FD0516821F003018B4232D292680D
:10E980009042F7D1C368A060E3609C60C4604046D9
:10E99000BDE8F041FDF7B6BA95683B4F0344BD4270
:10E9A00040D0D06843F00102E86085606260E350C7
:10E9B000B7E7FF07034407D455F8085C641BE26817
:10E9C000A0682B44C2609060304A43F00100126896
:10E9D000606093428C60B9D32D4B40461968FFF7B5
:10E9E00023FFB3E71046CDE711184968C90744D49F
:10E9F00091680344D26843F00100CA60916060608E
:10EA0000E350A3E7142A16D802F15C07FF0002F1D5
:10EA10005B05AAE70123AA104D6893402B434B6086
:10EA20000346B0E743F001024C610C61E560A5606C
:10EA30006260E3508AE7542A06D81A0B02F16F0786
:10EA4000FF0002F16E0590E7B2F5AA7F06D8DA0B57
:10EA500002F17807FF0002F1770586E740F2545093
:10EA6000824206D89A0C02F17D07FF0002F17C0574
:10EA70007BE74FF47E777E2577E743F00101616005
:10EA8000136063E710870720188707201C8B072077
:10EA9000243D0820D0F8EC00704700BF044B054A25
:10EAA0001B685B6B002B08BF1346D3F8EC00704764
:10EAB000E0820720248B0720044A054B1268506B24
:10EAC000002808BF1846F030704700BFE0820720DA
:10EAD000248B0720704700BF704700BF82B049B148
:10EAE0005AB16BB113780B601278101C18BF01205B
:10EAF00002B0704701A9002AF3D1104602B0704756
:10EB00006FF00100F4E700BF830770B4CDB23DD0D1
:10EB1000541E0AB30378AB421FD0431C05E014F126
:10EB2000FF3419D30278AA4217D013F0030F184606
:10EB300003F10103F3D1032C11D84CB30378AB429A
:10EB40000BD00444431C02E00278AA4205D09C4248
:10EB5000184603F10103F7D1002070BC7047090289
:10EB600089B2294341EA0141036806464B40A3F1BB
:10EB7000013222EA030313F0803F00F1040003D1C5
:10EB8000043C032CF0D8D8E73046D7E71446D2E748
:10EB90002046E2E7C36C70B505460C464BB153F80E
:10EBA000240080B1026843F8242000230361C3607D
:10EBB00070BD21220421FCF7E1FDE8640346002832
:10EBC000EDD1002070BD012101FA04F6721D284626
:10EBD0009200FCF7D3FD0028F3D044608660E4E7A0
:10EBE00031B1C36C4A6853F82200086043F8221020
:10EBF000704700BFF0B50C4605464FF0000E0E6999
:10EC000083B001F1140738680EF1010E81B202FBE6
:10EC10000133010C180C02FB01019BB203EB014311
:10EC2000764547F8043B4FEA1143ECDC3BB1A26860
:10EC3000964207DA04EB86020136536126612046CC
:10EC400003B0F0BD6168284601310193FFF7A2FFD0
:10EC50000746226904F10C01023292000C30FDF7E4
:10EC600087F8EA6C6168019B52F82100206042F845
:10EC700021403C46DEE700BF020C12040346B2B955
:10EC80000304102013F07F4F04BF1B02083013F061
:10EC9000704F04BF1B01043013F0404F04BF9B00B2
:10ECA0000230002B02DB5B0003D4202070470020E1
:10ECB000E8E70130704700BF0368014613F0070220
:10ECC00007D0DA0721D4980721D49B080B600220D3
:10ECD000704798B298B1104613F0FF0F04BF1B0A9B
:10ECE00008301A0704BF1B0904309A0704BF9B08A9
:10ECF0000230DA0707D45B0804D1202070471B0CD0
:10ED00001020E9E701300B607047002070475B0876
:10ED10000B600120704700BF10B50C460121FFF7C2
:10ED200039FF01224461026110BD00BF2DE9F04F9F
:10ED30000C69156983B0AC428B46164604DA22464C
:10ED4000B3462C460E461546DBF8083004EB0508A2
:10ED5000DBF804109845C8BF0131FFF71BFF00F135
:10ED6000140909EB880AD145009005D24B460021D1
:10ED700043F8041B9A45FBD806F1140C0CEB8503F1
:10ED80000BF1140B9C450BEB840E4BD2CDF804A079
:10ED90009A46DCF80050AFB2E7B14D465E4600211E
:10EDA00056F8042B286893B284B2120C07FB034375
:10EDB000000C07FB02020B4402EB13419BB243EA37
:10EDC0000143B64545F8043B4FEA1141E8D82960B4
:10EDD000DCF800502D0C1DD0D9F8003048461C46F8
:10EDE000594600220E88240C05FB06449BB222449F
:10EDF00043EA024340F8043B51F8043B04681B0C0F
:10EE0000A6B205FB03638E4503EB12434FEA1342A0
:10EE1000E8D803600CF1040CE24509F10409B8D804
:10EE2000DDF804A0B8F1000F0BDD5AF8043CAAF19C
:10EE3000040A1BB105E05AF8043D13B9B8F1010802
:10EE4000F9D10098C0F8108003B0BDE8F08F00BF82
:10EE500012F003032DE9F041144607462ED10D466A
:10EE6000A4101CD0BE6C96B3E3074FF0000806D484
:10EE7000641014D03068A8B10646E307F8D53246CE
:10EE800029463846FFF752FFB5B16A68FB6C64103B
:10EE900053F82210296043F822500546EAD128464B
:10EEA000BDE8F081324631463846FFF73FFF30601B
:10EEB000C0F800800646E0E70546D9E70B4A013B6B
:10EEC00052F823200023FFF795FE0546C8E70121ED
:10EED0003846FFF75FFE40F27121012200234161B5
:10EEE00002610646B8640360BEE700BF402909001E
:10EEF0002DE9F8430B69541104EB03088B6808F102
:10EF000001059D420E4691460746496804DD5B00B7
:10EF10009D4201F10101FADC3846FFF73BFE002C6F
:10EF200000F1140306DD002103EB840243F8041B07
:10EF30009A42FBD1346906F1140119F01F0901EB63
:10EF4000840E1DD00022C9F1200C0C6804FA09F4CB
:10EF5000144343F8044B51F8042B8E4522FA0CF26B
:10EF6000F3D81A600AB108F10205FB6C7268013D22
:10EF700053F822100561316043F82260BDE8F88340
:10EF8000043B51F8042B8E4543F8042FF9D8ECE7E5
:10EF900030B40B6905460069C01A0FD19B001435C7
:10EFA000143119442B4401E09D4207D253F8044D1B
:10EFB00051F8042D9442F7D002D3012030BC7047A1
:10EFC0004FF0FF30FAE700BF2DE9F84F0C69894692
:10EFD00011699246641A002C17D1890009F11407AF
:10EFE00002F114067B18314401E09F4265D253F8C8
:10EFF000045D51F8042D9542F7D067D24B46BB46CD
:10F00000D14637469A46012405E061DB002409F128
:10F0100014070AF1140BD9F80410FFF7BBFD5D4685
:10F020004FF00008D9F810E0DAF810303E46C4601E
:10F030000BEB830C07EB8E0700F1140456F8049BCE
:10F0400055F8042B1FFA89F343441FFA82F8120C77
:10F05000A3EB0803C2EB194202EB23429BB243EA43
:10F060000243AC4544F8043B4FEA2248E6D8B74295
:10F0700017D9A446354655F8043B99B241440A14C1
:10F0800002EB134289B241EA0243AF424CF8043B1F
:10F090004FEA2248EFD8F643374427F003070437F6
:10F0A0003C44043C2BB954F8043D0EF1FF3E002BC8
:10F0B000F9D0C0F810E0BDE8F88F0021FFF76AFD35
:10F0C0000122002302614361BDE8F88FB346A2E745
:10F0D0004B4609F1140B02F11407914601249A469C
:10F0E00099E700BFF0B5012183B01C46C3F30A5570
:10F0F0001646FFF74FFDC4F3130407460DB144F461
:10F100008014019406B302A840F8086DFFF7D4FDFF
:10F11000002830D19DE80C007A61002B0CBF012142
:10F120000221BB613961D5B9089A07EB8103A0F2CE
:10F13000324010601869FFF79FFD099BC0EB41103A
:10F140001860384603B0F0BD01A8FFF7B5FD0122F5
:10F15000019B114620303A617B61002DE4D0A5F27D
:10F160003343089A03441360099BC0F135001860CB
:10F17000384603B0F0BD019BC0F12002009903FAAC
:10F1800002F20A43C34001937A61C6E72DE9F04FCA
:10F19000936883B09046002B70D082460C46176867
:10F1A0008D68086842E0A38913F4906F2ED06569DA
:10F1B000216905EB4505A0EB010B05EBD5750BF1BE
:10F1C00001006D103044A8422A4684BF05462A46F5
:10F1D0005B0538D511465046FCF728FB00283CD08B
:10F1E0005A4621690190FCF7C3FDA289019B22F4D4
:10F1F000906242F08002A281A5EB0B0203EB0B00B0
:10F200006561B346354623612060A2605A4649468F
:10F2100000F0A8F8D8F80830A2682068551B5844B8
:10F220009E1BA5602060C8F808603EB37E683B4620
:10F230000837002EFAD0AE42D3F80090AB46B2D2D7
:10F240003546B346E2E7504600F0F0F803460028A2
:10F25000D2D121695046FFF737FB0C2300224FF033
:10F26000FF30CAF80030A38943F04003A381C8F8F7
:10F270000820C8F8042003B0BDE8F08F0020C8F8CB
:10F28000040003B0BDE8F08F19B1FF2A03D80A705B
:10F290000121084670478A234FF0FF310360F8E7E9
:10F2A0002DE9F8432C4D0646286898460F469146AE
:10F2B000FFF710FC294B1C68D4F84831002B3ED0D6
:10F2C0005A681F2A1CDC02F1010E76B1012103EB02
:10F2D0008204C4F88890D3F8880191400843022E34
:10F2E000C3F88801C4F8088123D00232C3F804E0CF
:10F2F000286843F82270FFF7EFFB0020BDE8F88391
:10F30000174B0BB34FF4C870AFF300800346D8B16E
:10F310000020D4F848114FF0010E586019600246E1
:10F32000C4F84831C3F88801C3F88C01002EDCD042
:10F33000CCE7D3F88C010143C3F88C11D5E704F571
:10F34000A673C4F84831BBE72868FFF7C5FB4FF048
:10F35000FF30BDE8F88300BF208B0720C8270900D5
:10F36000000000008842F0B50DD98B1898420AD2EF
:10F370008418002A51D0224613F8014D994202F810
:10F38000014DF9D1F0BD0F2A48D941EA00039B078E
:10F3900046D1154600F1100401F1100353F8106C2A
:10F3A000103D44F8106C53F80C6C0F2D44F80C6CA5
:10F3B00053F8086C04F1100444F8186C53F8046C0A
:10F3C00003F1100344F8146CE8D8A2F1100323F001
:10F3D0000F0302F00F0E1033BEF1030F1944034464
:10F3E00021D90E4674461D1F56F8047B043C032C9D
:10F3F00045F8047FF8D8AEF1040424F00304043483
:10F400002144234402F0030262B1013B0A4411F893
:10F41000014B8A4203F8014FF9D1F0BD0346F3E7EF
:10F420000346F2E7F0BD7246EEE700BF002900F0A8
:10F4300094802DE9F04F0C46154683B0804605F1C7
:10F440000B06FCF759FD54F804EC162E2EF00307BA
:10F45000A4F108093CD810221646B5423DD897427F
:10F4600043DAC64B09EB07009968884200F0C38075
:10F47000436823F0010101444968C9074DD51EF0D6
:10F48000010F00F09B8029464046FCF7CFF9054666
:10F4900000283BD054F8043CA0F1080223F00103FB
:10F4A0004B449A4200F02B813A1F242A00F2188123
:10F4B000132A00F2EB800346224611681960516856
:10F4C000596092689A6021464046FFF7FDF91DE0B9
:10F4D00026F00706002E3246BFDA00250C23284608
:10F4E000C8F8003003B0BDE8F08F2546BB1B0F2BDA
:10F4F000D9F804201DD802F001023A4309EB0701B4
:10F50000C9F804204B6843F001034B604046FCF708
:10F51000F9FC284603B0BDE8F08F23F00303F91887
:10F5200091421DDBC36882682546D3600F469A600E
:10F53000DCE702F0010209EB060143F0010332436C
:10F54000C9F804204F444B607B68083143F0010345
:10F550007B604046FFF7B8F9D8E71146FCF766B97B
:10F560001EF0010F8FD154F8081CA9EB010ADAF83C
:10F57000041021F003010B443B44934226DB554623
:10F58000C16880683A1FC160886055F8080FDAF8D2
:10F590000C10242AC160886026D8132A40F281808A
:10F5A00021681B2ACAF808106168CAF80C1000F21A
:10F5B000AD8004F108000AF1100274E054F8083C30
:10F5C000A9EB030ADAF8041021F003017B18934237
:10F5D000FFF659AF5546DAF80C1055F8080F3A1FE8
:10F5E000242AC1608860D8D9214628461F46D146C2
:10F5F000FFF7B8FE7AE7416806F1100021F0030B2F
:10F60000BB44834558DA1EF0010F7FF43CAF54F839
:10F61000081CA9EB010ADAF8041021F003018B445D
:10F620005845D3DC5546DAF80C1055F8080F3A1F48
:10F63000242AC160886000F28D80132A40F28780FE
:10F6400021681B2ACAF808106168CAF80C1000F279
:10F65000888004F108010AF1100208681060486807
:10F66000506089689160ABEB06020AEB060142F03C
:10F67000010299604A60DAF80430404603F0010361
:10F680001E43CAF80460FCF73DFC42E723681B2ACE
:10F6900003606368436027D800F1080304F108029F
:10F6A0000BE720462A4601681F4611604168D14693
:10F6B00051608368936019E7ABEB060B09EB060119
:10F6C0004BF0010299604A6054F8043C404603F054
:10F6D00001031E4344F8046CFCF714FC254618E7AC
:10F6E0002146FFF73FFEEEE6A368242A8360E36825
:10F6F000C36018D000F1100304F11002DDE650F8E9
:10F70000043C254623F003031F44EFE6A168242AA6
:10F71000CAF81010E168CAF814100DD004F11000F6
:10F720000AF11802BFE7226900F11803026161695A
:10F7300004F118024161C0E6226904F11800CAF818
:10F74000182061690AF12002CAF81C10ABE72146B3
:10F750002A4682E7214628460193FFF703FE019BD4
:10F7600081E7A168242ACAF81010E168CAF81410C9
:10F7700006D004F110010AF118026EE71087072085
:10F78000226904F11801CAF8182060690AF1200200
:10F79000CAF81C0061E700BF4FF0FF3C06E000BF65
:10F7A0004FF0010C02E000BF4FF0010C4DF804CD0A
:10F7B0004FEA410C7FEA6C5C4FEA430C18BF7FEACA
:10F7C0006C5C1BD001B050EA410C0CBF52EA430CF8
:10F7D00091EA030F02BF90EA020F0020704710F178
:10F7E000000F91EA030F58BF994208BF90422CBF07
:10F7F000D8176FEAE37040F0010070474FEA410C00
:10F800007FEA6C5C02D150EA013C07D14FEA430C1D
:10F810007FEA6C5CD6D152EA033CD3D05DF8040B8E
:10F82000704700BF8446104662468C4619466346C0
:10F8300000E000BF01B5FFF7B7FF002848BF10F197
:10F84000000F01BD4DF808EDFFF7F4FF0CBF0120DC
:10F8500000205DF808FB00BF4DF808EDFFF7EAFF58
:10F8600034BF012000205DF808FB00BF4DF808ED13
:10F87000FFF7E0FF94BF012000205DF808FB00BF08
:10F880004DF808EDFFF7CEFF94BF012000205DF892
:10F8900008FB00BF4DF808EDFFF7C4FF34BF01209F
:10F8A00000205DF808FB00BF4FEA410C7FEA6C5C6A
:10F8B00002D150EA013C0AD14FEA430C7FEA6C5C6A
:10F8C00002D152EA033C02D14FF0000070474FF0E2
:10F8D000010070474FEA410212F5001215D211D50E
:10F8E0006FF47873B3EB625212D94FEAC12343F03D
:10F8F000004343EA505311F0004F23FA02F018BFBF
:10F90000404270474FF00000704750EA013005D187
:10F9100011F0004008BF6FF0004070474FF000004A
:10F92000704700BF48617264206661756C740D0A8F
:10F93000004368616E67656420686F75720D0A0028
:10F9400052756E6E696E6720256325632563202DD1
:10F95000202573202D2025732025730D0A003134B6
:10F960003A33373A3238004A756C2031352032301C
:10F970003230007363686564756C65720D0A00430C
:10F98000416D62696F206D696E75746F0D0A004676
:10F9900061696C65640D0A00424C37462D4D425931
:10F9A0002D30370057414B452055500D0A00576107
:10F9B000697420536C6565700D0A004177616B694D
:10F9C0006E670D0A00456E61626C65207761746335
:10F9D00068646F672077697468202564206D6963A7
:10F9E000726F7365636F6E647320706572696F64A4
:10F9F0000A0D00255820256C5820256C580D0A004A
:10FA000042616E6B20310D0A0042616E6B20320D37
:10FA10000A002D462D20496E697469616C697A610E
:10FA200074696F6E206572726F720A0D002D462D1B
:10FA300020526561642074686520556E6971756532
:10FA4000204964656E746966696572206572726FBB
:10FA5000720A0D00696E69745F626F617264207270
:10FA6000756E6E696E670D0A00467265657374790E
:10FA70006C6520726F746172792030370D0A00490D
:10FA8000444C4500546D725100546D72205376639E
:10FA900000304100303300436F6D616E646F206E43
:10FAA0006F6E206765737469746F0D0A00304300D0
:10FAB00041420D0A004572722E20370D0A00303780
:10FAC0000042420D0A004572722E20380D0A0030A5
:10FAD000380043420D0A0043430D0A003638003017
:10FAE000340036390042616E636F203120617474D6
:10FAF00069766F0D0A0042616E636F203020617479
:10FB00007469766F0D0A002563256325633A002525
:10FB1000583A0025583A25583A256C583A0030454D
:10FB200000363200363300363400363600303500C9
:10FB30003042003031005570646174657220696E26
:10FB400069740D0A00745F72657365740043616EB9
:10FB50006E6F74206372656174652074696D65727F
:10FB60002E0D0A00757064617465207461736B00FA
:10FB7000253033580025303458005265626F6F7459
:10FB80000D0A002D462D20496E697469616C697AF1
:10FB90006174696F6E206572726F7220256C750AD0
:10FBA0000D007654696D65725365636F6E64006510
:10FBB00076656E745F7461736B006576656E745FF5
:10FBC000696E69740051460D0A006576656E745F52
:10FBD0007461736B005573696E67202564206279C8
:10FBE00074657320666F722068616E646C657273F1
:10FBF000206D616E6167656D656E74202564206699
:10FC00006F722071756575652E0D0A00745F6272E2
:10FC10006B00257320737461636B20746F6F206CAD
:10FC20006F772E0D0A006C6F676765725F696E698A
:10FC3000740044454641554C5400554152540045CA
:10FC400056454E54004144430052455045415445A9
:10FC500052004E4F524D414C00494E464F004552C6
:10FC6000524F52005741524E494E4700444542556B
:10FC700047004C6F676765722025733A2564206ED4
:10FC80006F77207365742061732025733A25640DA6
:10FC90000A00766572626F7365000D0A766572629E
:10FCA0006F73653A0D0A766572626F7365205B4407
:10FCB000454641554C547C43414E7C554152547C01
:10FCC0004556454E547C52455045415445527C4121
:10FCD00044435D205B4E4F524D414C7C494E464F54
:10FCE0007C4552524F527C5741524E494E477C44BC
:10FCF000454255475D0D0A0D0A00000092FC0800C0
:10FD00009AFC0800B93508000200000053657276BD
:10FD100069636520696E69740D0A00745F757064AB
:10FD200000756172745F73657269616C5F65727290
:10FD30006F720073657269616C5F756172745F697F
:10FD40006E6974007573617274305F736572696196
:10FD50006C5F6572726F72002573206D756C7469CB
:10FD6000706C6520636F6E66696775726174696F28
:10FD70006E0D0A007573617274315F73657269612B
:10FD80006C5F6572726F72007573617274325F734B
:10FD9000657269616C5F6572726F7200436F646156
:10FDA00020646920747261736D697373696F6E6525
:10FDB000207069656E612E0D0A0068656C70000D1B
:10FDC0000A68656C703A0D0A204C6973747320617F
:10FDD0006C6C207468652072656769737465726500
:10FDE0006420636F6D6D616E64730D0A0D0A00000F
:10FDF000BAFD0800BFFD0800FD400800000000003B
:10FE00007769736B65725F696E6974005769736BAC
:10FE10006572206D6F64756C652025642074696D52
:10FE200065646F75740D0A004E6F7420676976699A
:10FE30006E67207769736B65720D0A00745F777364
:10FE40006B009F02019F15149F03009F02019F06F4
:10FE5000079F03006163636573736F72795F7461F9
:10FE6000736B004E41434B0D0A0033204E41434B10
:10FE70002C2067697665207570207472616E736DD1
:10FE8000697474696E670D0A005061726B696E6700
:10FE90002073656E736F72206163746976653A20B2
:10FEA000253032580D0A004E6F2068616E646C6513
:10FEB000727320666F723A0D0A006163635F74614A
:10FEC000736B00745F313630002530325820007477
:10FED000696D656F75740D0A00546F6F206D7563E1
:10FEE00068206572726F727320776974686F7574B9
:10FEF000207265706C792C20676976652075700DAD
:10FF00000A0048414E444252414B455F4F4E0D0A54
:10FF10000048414E444252414B455F4F46460D0A10
:10FF200000466163746F7279207265736574207224
:10FF300065717565737465642E2049676E697469AF
:10FF40006F6E204F46462E0D0A0049474E495449D0
:10FF50004F4E5F4F4E0D0A0049474E4954494F4E90
:10FF60005F4F46460D0A0044656C617965642069FF
:10FF7000676E6974696F6E20256C64207365636FAA
:10FF80006E64732072656D61696E696E670D0A003B
:10FF90004C49474854535F4F4E0D0A004C4947485F
:10FFA00054535F4F46460D0A00524556455253453D
:10FFB0005F4F4E0D0A00524556455253455F4F461E
:10FFC000460D0A0044656C61796564206F6E20728D
:10FFD000657665727365202564207365636F6E6452
:10FFE000732072656D61696E696E670D0A00446504
:10FFF0006C61796564206F666620726576657273E0
:0200000290006C
:1000000065202564207365636F6E64732072656D6F
:1000100061696E696E670D0A005370656564206ED4
:100020006F772025660D0A00745F77697200496E4C
:1000300076616C69642050574D20636F6E66696706
:1000400075726174696F6E0D0A0046696C6C696E39
:10005000672045322072756E74696D6520256420B5
:1000600025642E0D0A00010102030404050506069D
:1000700007070808084D525F39313A2025642025CA
:10008000642025640D0A004D525F45353A202564F1
:100090002025642025640D0A004D525F45383A2022
:1000A00025642025640D0A00486F20756E6120725A
:1000B00069636869657374612064692063616D6256
:1000C000696F2073636865726D6174612E0D0A003B
:1000D00061206D656E7520746F2073656E642025D8
:1000E000700D0A00556E6B6E6F776E207061726BCB
:1000F00073656E7320747970650D0A005061726BC0
:1001000073656E7320747970653A202530325820FB
:100110002530326C58202530325820253032580D89
:100120000A004163746976653A20253032582025EB
:1001300030325820253032580D0A0052696C6173F4
:1001400063696F0D0A005269747261736D6574742E
:100150006F0D0A0068616E646C655F737763207170
:10016000756575652066756C6C0D0A004552524FB9
:10017000524521212100745F35303000745F3230E8
:100180003000726164696F20616C70696E650D0A80
:10019000004E41434B090A0072657065617420741A
:1001A00078202564090A00474956452055502C20DF
:1001B00033204E41434B530D0A0054494D454F5592
:1001C00054740A0072657065617420747820256427
:1001D0000D0A00474956452055502C2033205449DC
:1001E0004D454F55540D0A00436F6E74696E756F1F
:1001F000206D656E752025700D0A0046696E6520BC
:100200006D656E752025700D0A00496E76696F2048
:100210006D656E752025700D0A004E6F2050726559
:1002200073730D0A00566F6C2B2070726573730D1B
:100230000A00566F6C2B2072656C0D0A00566F6CAD
:100240002D2070726573730D0A00566F6C2D20722D
:10025000656C0D0A005365656B2B207072657373B6
:100260000D0A005365656B2B2072656C0D0A0053F7
:1002700065656B2D2070726573730D0A005365659B
:100280006B2D2072656C0D0A004D757465207072BF
:100290006573730D0A004D7574652072656C0D0AE7
:1002A000005072657365742B2070726573730D0A4C
:1002B000005072657365742B2072656C0D0A0050D6
:1002C00072657365742D2070726573730D0A00502A
:1002D00072657365742D2072656C0D0A00536F751D
:1002E0007263652070726573730D0A00536F7572C7
:1002F00063652072656C0D0A0054656C5069636B10
:1003000055702070726573730D0A0054656C5069E6
:10031000636B55702072656C0D0A0054656C486102
:100320006E6755702070726573730D0A0054656CAA
:1003300048616E6755702072656C0D0A00537065D8
:100340006563682070726573730D0A00537065658C
:1003500063682072656C0D0A00556E737570706F5E
:10036000727465642053574320636F6D6D616E64D2
:100370000D0A004572726F722073656E64696E6754
:100380002C2070757368696E67206261636B2073DF
:1003900077632025640D0A0053574320256420729B
:1003A000657456616C2025640D0A0052657461699C
:1003B0006E206B6579202530325820666F722025BB
:1003C000642074696D65732E0D0A00496E76696F3D
:1003D00020616C6C61726D652E0D0A002A2A2A2A32
:1003E0002A2A20547261736D6574746F20696C20C1
:1003F0006D657373616767696F2E0D0A00616C70BC
:10040000696E655F7461736B0025632563256325E1
:100410006300092530356C75092530325825303296
:100420005825303258253032580D0A00416C706919
:100430006E65204C6F776C6576656C0D0A0009253A
:1004400030356C750909090920007265717565738D
:1004500074206E6F7420696D706C656D656E746567
:100460006420253032580D0A00416C70696E652099
:100470004C6F776C6576656C20696E69740D0A0047
:1004800073657269616C20696E69740D0A00616C34
:1004900070696E655F6C6F7700092530356C750982
:1004A00000253032580076656869636C655F757049
:1004B000646174655F73796E635F636C6F636B0017
:1004C00068616E646C655F636C6F636B5F646174BD
:1004D000655F6D656E750068616E646C655F636C09
:1004E0006F636B5F646174655F76616C75655F7285
:1004F0006563656976656400A60B0900B50B0900A4
:10050000B50B0900C20B0900CD0B0900DB0B09007C
:10051000EA0B0900B50B0900B50B0900B50B090082
:10052000B50B0900B50B0900B50B0900B50B0900A7
:10053000B50B0900B50B0900B50B0900B50B090097
:10054000B50B0900D20D0900E40D0900E40D090006
:10055000F00D0900000E09000B0E0900190E09002C
:10056000290E0900360E0900360E0900430E090057
:10057000360E0900360E0900360E0900510E09002C
:10058000360E0900360E0900360E0900360E090037
:100590004E0D0900520D0900520D0900560D0900BB
:1005A0005B0D0900620D0900620D0900670D09006D
:1005B000520D0900520D09006E0D0900520D09007F
:1005C000520D0900520D0900720D0900520D09006B
:1005D000520D0900520D0900520D090000000000E3
:1005E000210C0900280C0900280C0900280C09001E
:1005F0002E0C0900280C0900280C0900280C090001
:10060000280C0900280C0900280C0900280C0900F6
:10061000280C0900280C0900280C0900280C0900E6
:10062000280C0900280C0900280C0900FC0A090004
:10063000000B0900000B0900000B0900000B09006A
:10064000000B0900000B0900000B0900000B09005A
:10065000000B0900000B0900000B0900000B09004A
:10066000000B0900000B0900000B0900000B09003A
:10067000000B0900000B0900F80A0900F80A09003C
:10068000F80A0900F80A0900F80A0900F80A09003E
:10069000F80A0900F80A0900F80A0900F80A09002E
:1006A000F80A0900F80A0900F80A0900F80A09001E
:1006B000F80A0900F80A0900F80A0900F80A09000E
:1006C000F80A0900256C6420257320253032582053
:1006D0002530325820253032580D0A0043616D62B2
:1006E000696F2076616C6F72652073796E63206329
:1006F0006C6F636B206461202564200043616D6230
:10070000696F2031322F3234480D0A0043616D6227
:10071000696F2072696761206174746976610D0A7E
:1007200000556E6B6E6F776E206D656E752025308F
:100730003258202530325820253032580D0A0025F5
:100740006C642025732025642025640D0A00436114
:100750006D62696F20616E6E6F2025640D0A004323
:10076000616D62696F206D6573652025640D0A00F7
:1007700043616D62696F2067696F726E6F202564D7
:100780000D0A0043616D62696F206F7261202564FC
:100790000D0A0043616D62696F206D696E75746F3B
:1007A0002025640D0A00526F77202564206E6F7437
:1007B0002068616E646C65640D0A0025732079659C
:1007C00061723A2025642076656869636C655F6DA7
:1007D0006F6E74683A2025642076656869636C657D
:1007E0005F6461793A20256420686F75723A20252C
:1007F00064206D696E7574653A2025640D0A0000E9
:10080000040D09000B0D09000B0D0900100D090066
:10081000070E0900160D0900160D09001B0D090031
:100820000B0D09000B0D0900230D09000B0D09002C
:100830000B0D09000B0D0900260D09000B0D090019
:100840000B0D09000B0D09000B0D0900060B09002B
:10085000060B0900060B0900170B0900280B0900FD
:100860003A0B09004E0B0900060B0900060B0900A4
:10087000060B0900060B0900060B0900060B090010
:10088000060B0900060B0900060B0900060B090000
:10089000060B0900060B09005F0B09006E0B09002F
:1008A0006E0B09006E0B09007B0B0900890B090018
:1008B000970B09006E0B09006E0B09006E0B090007
:1008C0006E0B09006E0B09006E0B09006E0B090020
:1008D0006E0B09006E0B09006E0B09006E0B090010
:1008E0006E0B09002B0D09002B0D09002B0D0900C3
:1008F0002B0D0900320D0900320D0900320D0900DF
:10090000390D09002B0D09002B0D0900400D0900C0
:100910002B0D09002B0D09002B0D0900470D0900B7
:100920002B0D09002B0D09002B0D09002B0D0900C3
:10093000770D09007D0D09007D0D0900830D09006B
:10094000880D09008D0D0900910D0900960D090013
:100950007D0D09007D0D09009F0D09007D0D090029
:100960007D0D09007D0D0900530D09007D0D090065
:100970007D0D09007D0D09007D0D0900380C090071
:100980003D0C09003D0C0900400C09003D0C09001C
:100990003D0C0900440C09003D0C09003D0C090008
:1009A0003D0C09003D0C09003D0C09003D0C0900FF
:1009B0003D0C09003D0C09003D0C09003D0C0900EF
:1009C0003D0C09003D0C09005B0C09005F0C09009F
:1009D0005F0C09005F0C09005F0C09005F0C090047
:1009E0005F0C09005F0C09005F0C09005F0C090037
:1009F0005F0C09005F0C09005F0C09005F0C090027
:100A0000630C09005F0C09005F0C09005F0C090012
:100A10005F0C0900350C0900350C0900350C090084
:100A2000350C0900350C0900350C0900350C09009E
:100A3000350C0900350C0900350C0900350C09008E
:100A4000350C0900350C0900350C0900350C09007E
:100A5000350C0900350C0900350C0900350C09006E
:100A60006B0C09006B0C09006B0C09006B0C090086
:100A70006B0C09006B0C09006B0C09006B0C090076
:100A80006B0C09006B0C09006B0C09006B0C090066
:100A90006B0C09006B0C09006E0C09006B0C090053
:100AA0006B0C09006B0C09006B0C09005F0E090050
:100AB0005F0E09005F0E09005F0E09006B0E090052
:100AC000780E0900850E09005F0E09005F0E09000F
:100AD0005F0E09005F0E09005F0E09005F0E09003E
:100AE0005F0E09005F0E09005F0E09005F0E09002E
:100AF0005F0E09005F0E0900323468003132680071
:100B0000414D2F504D00496E7465726661636520DA
:100B100073746174757300496E74657266616365A0
:100B20002073746174757400537461746F20696EFE
:100B30007465726661636369610045737461646FB3
:100B40002064656C20696E74657266617A00457315
:100B50007461646F20496E74657266616365004CF0
:100B6000494E20416B7469766974C3A474004C4982
:100B70004E204163746976697479004174746976B2
:100B80006974C3A0204C494E00416374697669645E
:100B90006164204C494E0041637469766964616404
:100BA00065204C494E0043414E20416B7469766983
:100BB00074C3A4740043414E204163746976697420
:100BC000790043414E2073746174757400417474EC
:100BD00069766974C3A02043414E0041637469760D
:100BE000696461642043414E200041637469766901
:100BF000646164652043414E00466F726D6174000C
:100C0000466F726D61746F00466F726D617475002E
:100C1000466F726D61617400466F726D6174C4B12C
:100C2000004665686C6572004572726F72004572AD
:100C3000726F7265004F4B004E65696E004E6F001B
:100C40004E6F6E004EC3A36F004A6100596573007A
:100C50004F75690053690053696D00417573004F0A
:100C60006666004B6170616CC4B1004F6E0041C399
:100C7000A7C4B16B005568727A6569742073796E88
:100C80006368726F6E6973696572656E0053796E21
:100C90006320726164696F20636C6F636B005379CA
:100CA0006E6368726F6E69736174696F6E206465DC
:100CB000206C27686F726C6F67650053696E632ED6
:100CC000206F726F6C6F67696F20726164696F006B
:100CD00053696E63726F6E697A61722072656C6FB0
:100CE0006A20756E696461640053696E63726F6E29
:100CF000697A61722072656CC3B367696F20726133
:100D000064696F005374756E646500486F75720096
:100D1000486575726500486F726100676F647A6933
:100D20006E61006E750073616174004D696E75745B
:100D300065004D696E75746F006D696E7574610044
:100D40006D696E7575740064616B696B61005461E7
:100D50006700446179004A6F75720047696F726E6F
:100D60006F0044C3AD6100647A6965C58400646145
:100D7000670067C3BC6E004D6F6E6174004D6F6E8F
:100D80007468004D6F6973004D657365004D657340
:100D9000004DC3AA73006D69657369C48563006DF6
:100DA00061616E64004A6168720059656172004158
:100DB0006E6EC3A96500416E6E6F0041C3B16F00D6
:100DC000416E6F00726F6B006A6161720079C4B12D
:100DD0006C005568727A65697420756E6420446190
:100DE00074756D0054696D6520262044617465003A
:100DF000486F726C6F67652065742064617465006C
:100E0000446174612065204F72610052656C6F6AA5
:100E100020792066656368610052656CC3B36769B9
:100E20006F20652044617461005A656761722069B2
:100E3000206461746100436C6F636B202620446101
:100E40007465004B6C6F6B20656E20646174756D0A
:100E5000005361617420766520746172696800498D
:100E60006E666F726D6174696F6E00496E666F7247
:100E70006D617A696F6E6900496E666F726D61634C
:100E800069C3B36E00496E666F726D61C3A7C3A379
:100E90006F00536F6674776172652056657273696F
:100EA0006F6E0053572056657273696F6E005665FA
:100EB0007273696F6E2053570056657273696F6E57
:100EC0006520535720005665727369C3B36E205373
:100ED000570056657273C3A36F205357005765724E
:100EE000736A612053570053572D566572736965B5
:100EF00000466168727A65756765696E7374656CC2
:100F00006C756E67656E0056656869636C65207305
:100F1000657474696E67730052C3A9676C61676515
:100F2000732064752076C3A9686963756C65004990
:100F30006D706F7374617A696F6E6920766569632D
:100F40006F6C6F00436F6E6669677572616369C32A
:100F5000B36E2064656C20766568C3AD63756C6F95
:100F600000436F6E666967757261C3A7C3A36F2084
:100F7000646F2076656963756C6F00557374617773
:100F800069656E696120706F6A617A647500566F79
:100F900065727475696720696E7374656C6C696ECF
:100FA00067656E00496E74657266616365204569A8
:100FB0006E7374656C6C756E67656E00496E7465F2
:100FC00072666163652053657474696E677300505F
:100FD0006172616DC3A874726573206465206C27AB
:100FE000496E7465726661636500496D706F7374F4
:100FF000617A696F6E6920496E74657266616363B8
:10100000696100416A757374657320646520696E57
:1010100074657266617A00446566696E69C3A7C3C8
:10102000B5657320646F20696E746572666163656F
:1010300000557374617769656E696120496E7465E6
:101040007266656A73C3B37700496E7465726661D0
:1010500063652D696E7374656C6C696E67656E008F
:10106000920E0900A30E0900A30E0900AE0E09009E
:10107000B90E0900C60E0900D20E0900DD0E0900E6
:10108000A30E0900A30E0900E70E0900A30E090034
:10109000A30E0900A30E0900A30E0900A30E090068
:1010A000A30E0900A30E0900A30E0900750C090088
:1010B0008D0C09008D0C09009E0C0900BB0C090069
:1010C000D00C0900E90C09008D0C09008D0C0900F9
:1010D0008D0C09008D0C09008D0C09008D0C090088
:1010E0008D0C09008D0C09008D0C09008D0C090078
:1010F0008D0C09008D0C0900F90B0900F90B090092
:10110000F90B0900F90B0900000C0900000C09009B
:10111000000C0900080C0900F90B0900F90B090083
:10112000100C0900F90B0900F90B0900F90B090073
:10113000180C0900F90B0900F90B0900F90B09005B
:10114000F90B0900F10E0900070F0900070F09004C
:10115000180F09002F0F0900440F0900610F090043
:101160007B0F0900070F0900070F09008E0F090008
:10117000070F0900070F0900070F0900070F0900F3
:10118000070F0900070F0900070F0900070F0900E3
:10119000257320612076616C696420646174652E1A
:1011A0000D0A0000A50D0900AA0D0900AA0D0900ED
:1011B000AF0D0900B60D0900BB0D0900C00D0900F7
:1011C000C40D0900AA0D0900AA0D0900C80D0900E7
:1011D000AA0D0900AA0D0900AA0D0900CD0D0900EC
:1011E000AA0D0900AA0D0900AA0D0900AA0D0900FF
:1011F000490C09004C0C09004C0C0900500C09006A
:10120000540C0900540C0900570C09004C0C09003F
:101210004C0C09004C0C09004C0C09004C0C09004A
:101220004C0C09004C0C09004C0C09004C0C09003A
:101230004C0C09004C0C09004C0C090068616E64F0
:101240006C655F627574746F6E5F706F73697469DB
:101250006F6E0068616E646C655F7374656572695A
:101260006E675F706F736974696F6E0068616E643A
:101270006C655F666163746F72795F7365747469BE
:101280006E677300C31F09009D1F09009D1F0900A1
:10129000C81F0900CD1F0900D11F0900D11F090077
:1012A0009D1F09009D1F09009D1F09009D1F09002A
:1012B0009D1F09009D1F09009D1F09009D1F09001A
:1012C0009D1F09009D1F09009D1F09009D1F09000A
:1012D000B01C0900C41C0900C41C0900D91C090069
:1012E000F31C09000B1D0900231D0900C41C090083
:1012F000C41C0900C41C0900C41C0900C41C09004A
:10130000C41C0900C41C0900C41C0900C41C090039
:10131000C41C0900C41C0900C41C09001F230900C7
:101320003523090035230900472309005B23090001
:10133000742309008E230900352309003523090091
:101340003523090035230900352309003523090019
:101350003523090035230900352309003523090009
:1013600035230900352309003922090044220900E8
:10137000442209004C220900532209005D22090081
:10138000672209004422090044220900442209007E
:101390004422090044220900442209004422090091
:1013A0004422090044220900442209004422090081
:1013B000442209008A1F0900991F0900991F09008A
:1013C000A21F0900AE1F0900B81F0900B81F0900BD
:1013D000991F0900991F0900991F0900991F090009
:1013E000991F0900991F0900991F0900991F0900F9
:1013F000991F0900991F0900991F0900991F0900E9
:10140000D61F0900E61F0900E61F0900F01F0900AA
:10141000FC1F09000820090008200900E61F090038
:10142000E61F0900E61F0900E61F0900E61F090084
:10143000E61F0900E61F0900E61F0900E61F090074
:10144000E61F0900E61F0900E61F09001A1F090030
:101450002B1F09002B1F0900361F0900441F09001C
:10146000541F0900621F09002B1F09002B1F0900D0
:101470002B1F09002B1F09002B1F09002B1F090020
:101480002B1F09002B1F09002B1F09002B1F090010
:101490002B1F09002B1F09002520090033200900FC
:1014A000332009003B20090048200900542009008E
:1014B0005F20090033200900332009003320090090
:1014C00033200900332009003320090033200900AC
:1014D000332009003320090033200900332009009C
:1014E00033200900371E0900471E0900471E090066
:1014F000511E09005E1E09006B1E0900781E0900BE
:10150000471E0900471E0900471E0900471E090023
:10151000471E0900471E0900471E0900471E090013
:10152000471E0900471E0900471E0900471E090003
:10153000A61E0900B51E0900B51E0900C01E09003F
:10154000CD1E0900DA1E0900E91E0900B51E0900BA
:10155000B51E0900B51E0900B51E0900B51E09001B
:10156000B51E0900B51E0900B51E0900B51E09000B
:10157000B51E0900B51E0900B51E090000000000D7
:10158000BE1D0900D11D0900D11D0900E21D090081
:10159000F41D09000A1E09001E1E0900D11D0900C4
:1015A000D11D0900D11D0900D11D0900D11D09005F
:1015B000D11D0900D11D0900D11D0900D11D09004F
:1015C000D11D0900D11D0900D11D090014200900F9
:1015D000EA1F0900EA1F09001A2009001F2009005C
:1015E0001F2009001F200900EA1F0900EA1F090047
:1015F000EA1F0900EA1F0900EA1F0900EA1F0900A3
:10160000EA1F0900EA1F0900EA1F0900EA1F090092
:10161000EA1F0900EA1F09002573206E6F2076611A
:101620006C696420636F6E66696720666F756E64AF
:101630002E0D0A00991C0900991C0900991C09002B
:10164000991C0900A41C0900991C0900991C090097
:10165000991C0900991C0900991C0900991C090092
:10166000991C0900991C0900991C0900991C090082
:10167000991C0900991C0900991C0900991C090072
:1016800026240900352409003524090044240900D2
:10169000572409006A240900792409003524090027
:1016A00035240900352409003524090035240900B2
:1016B00035240900352409003524090035240900A2
:1016C000352409003524090035240900ED230900DB
:1016D000F2230900F2230900F7230900FE23090081
:1016E0000424090018240900F2230900F223090048
:1016F000F2230900F2230900F2230900F223090072
:10170000F2230900F2230900F2230900F223090061
:10171000F2230900F2230900A6230900B1230900DE
:10172000B1230900B5230900C3230900CA23090016
:10173000DC230900B1230900B1230900B12309000A
:10174000B1230900B1230900B1230900B123090025
:10175000B1230900B1230900B1230900B123090015
:10176000B12309008C2009009E2009009E20090059
:10177000B2200900CB200900DB200900F12009007C
:101780009E2009009E2009009E2009009E2009003D
:101790009E2009009E2009009E2009009E2009002D
:1017A0009E2009009E2009009E2009009E2009001D
:1017B000031C0900091C0900091C09000E1C090072
:1017C000151C09001E1C0900281C0900091C090021
:1017D000091C0900091C0900091C0900091C090051
:1017E000091C0900091C0900091C0900091C090041
:1017F000091C0900091C0900091C0900142309001F
:1018000018230900182309001823090014230900CC
:1018100018230900182309001823090018230900B8
:1018200018230900182309001823090018230900A8
:101830001823090018230900182309001823090098
:1018400018230900182309007022090077220900D3
:10185000772209007F220900862209007F220900E1
:101860007F220900772209007722090077220900E8
:1018700077220900772209007722090077220900E0
:1018800077220900772209007722090077220900D0
:1018900077220900072109002521090025210900D7
:1018A0003B210900512109006E2109008B2109000B
:1018B00025210900252109002521090025210900EC
:1018C00025210900252109002521090025210900DC
:1018D00025210900252109002521090025210900CC
:1018E0005B0C09005F0C09005F0C09005F0C09002C
:1018F0005F0C09005F0C09005F0C09005F0C090018
:101900005F0C09005F0C09005F0C09005F0C090007
:101910005F0C09005F0C0900630C09005F0C0900F3
:101920005F0C09005F0C09005F0C0900A52109008C
:10193000C3210900C3210900D8210900ED210900B4
:101940000722090020220900C3210900C321090040
:10195000C3210900C3210900C3210900C3210900D3
:10196000C3210900C3210900C3210900C3210900C3
:10197000C3210900C32109003B1D09006B0C0900AC
:101980006B0C09006B0C09006B0C09006B0C090057
:101990006B0C09006B0C09006B0C09006B0C090047
:1019A0006B0C09006B0C09006B0C09006B0C090037
:1019B0006E0C09006B0C09006B0C09006B0C090024
:1019C0006B0C09002F1F09002F1F09002F1F090092
:1019D0002F1F0900701F09007A1F0900821F0900CC
:1019E0002F1F09002F1F09002F1F09002F1F09009B
:1019F0002F1F09002F1F09002F1F09002F1F09008B
:101A00002F1F09002F1F09002F1F09002F1F09007A
:101A10003F1D0900541D0900541D0900641D0900E3
:101A2000771D0900931D0900A81D0900541D090018
:101A3000541D0900541D0900541D0900541D0900BE
:101A4000541D0900541D0900541D0900541D0900AE
:101A5000541D0900541D0900541D09006E20090081
:101A6000372009003720090072200900782009007A
:101A70007E20090083200900372009003720090053
:101A800037200900372009003720090037200900D6
:101A900037200900372009003720090037200900C6
:101AA00037200900372009008F220900A4220900ED
:101AB000A4220900B2220900CA220900D722090083
:101AC000EA220900A4220900A4220900A422090094
:101AD000A4220900A4220900A4220900A4220900CA
:101AE000A4220900A4220900A4220900A4220900BA
:101AF000A4220900D81B0900DF1B0900DF1B090015
:101B0000E51B0900EC1B0900F31B0900FB1B090086
:101B1000DF1B0900DF1B0900DF1B0900DF1B0900B9
:101B2000DF1B0900DF1B0900DF1B0900DF1B0900A9
:101B3000DF1B0900DF1B0900DF1B0900DF1B090099
:101B4000FE220900022309000223090002230900E2
:101B5000092309000D2309000D23090002230900B0
:101B600002230900022309000223090002230900BD
:101B700002230900022309000223090002230900AD
:101B8000022309000223090002230900311C090075
:101B9000391C0900391C0900481C09004F1C0900A8
:101BA000571C0900691C0900391C0900391C09006F
:101BB000391C0900391C0900391C0900391C0900AD
:101BC000391C0900391C0900391C0900391C09009D
:101BD000391C0900391C090052656368747300528E
:101BE000696768740044726F697465004465737452
:101BF0007261004465726563686100446972656979
