:02000002A0005C
:10000000E0600820F5000A0085690A00DD020A00A8
:1000100085690A0085690A0085690A0000000000F8
:1000200000000000000000000000000099070A0026
:1000300085690A0000000000ED070A0029080A008F
:1000400085690A0085690A0085690A0085690A00D0
:1000500085690A0085690A0085690A0085690A00C0
:10006000713D0A00000000000000000035040A0095
:100070008D040A00000000000000000000000000E5
:1000800000000000093F0A00FD410A0081430A0008
:100090000000000085690A00E1660A0085690A001F
:1000A00085690A000000000085690A0085690A0068
:1000B00085690A0085690A0085690A0085690A0060
:1000C00085690A0000000000000000000000000038
:1000D00085690A0085690A0085690A0085690A0040
:1000E00085690A0085690A000000000041310A00A4
:1000F00015320A004FF0005208B5194B5A631A61C5
:100100004FF48052C3F83422C3F81022154A164B1C
:100110009A4202D015498B4219D30021144B154A3B
:10012000934219D3144B154A23F0604121F07F010B
:1001300003F16043B3F5801F91603EBF936843F0C5
:10014000005393600EF064F900F060F8FEE752F897
:10015000040B43F8040BDEE743F8041BE0E700BFA1
:10016000000E0E40ECA90B0000800720908C0720A9
:10017000908C0720DC40082000000A0000ED00E021
:1001800010B5054C237833B9044B13B10448AFF3D1
:1001900000800123237010BD908C07200000000018
:1001A000ECA90B0008B5034B1BB103490348AFF39F
:1001B000008008BD00000000948C0720ECA90B0013
:1001C000034B044A1A600022034B1A60704700BFB9
:1001D0001C340820D4810720B08C07200221032082
:1001E000014A03F01FBC00BF8C650B0001210020F9
:1001F000014A03F017BC00BF9B650B000378132B6B
:1002000003D1407808B906F017BD70477FB503F0F9
:10021000C5FB00F0C1F903F0C1FC04F0BDF906F024
:1002200021FD012006F018FD012006F005FD00204B
:1002300006F002FD03F052FB07201B4903F080FA91
:1002400008201A4903F07CFA0920194903F078FACA
:100250001320184903F074FA03F03AFD164A174BBD
:100260000492174A0121CDE902329A7800200192C6
:100270005A781B780092134A03F0D4FB0DF05CF817
:1002800007F0BAFD0DF0B3F904F012FC00F050FADB
:1002900001210D4A002003F0C5FB00F075FC002091
:1002A00007B05DF804FB00BFC1010A00ED010A00C0
:1002B000DD010A00FD010A00C9650B0000660B00A4
:1002C000D2650B00AB650B00DE650B0030BF024A48
:1002D0001368013313607047B08C0720064A074942
:1002E00013688B4202D8013313607047002001214C
:1002F0001060034A03F096BBAC8C0720F5FF0900A1
:10030000EA650B0038B56424044D00212A460846EE
:1003100003F088FB013CF8D138BD00BFF7650B0046
:100320000B2070470620704702207047074A03469B
:10033000116809B9064911601068064903448B42E7
:10034000D4BF13604FF0FF30704700BFB48C07205C
:10035000E0600820FC7F08204FF0FF3070474FF42A
:10036000005300204B607047012070470020704709
:10037000014608B501480EF0EFFBFEE70C660B00E6
:1003800070474FF0FF3070472DE9F041144690B9A7
:1003900016460A4FDFF828808D18002EA5EB0601BF
:1003A00003DC24EAE470BDE8F0813868D8F8003056
:1003B0009847013EF1E74FF0FF30F4E7C08C07208B
:1003C000B88C0720013802282DE9F0410D4603D9E9
:1003D0004FF0FF30BDE8F0810E46084FDFF8208077
:1003E0008C18A642A6EB0500F4D03868D8F8003087
:1003F00016F8011B98470028F3DAE9E7C08C0720BC
:10040000BC8C072010B50446032C05D01CB105F0A8
:1004100089FE0028F8D010BD05F002FF0028FBD0AF
:10042000F9E708B50B2005F013FFBDE808400C20E4
:1004300005F00EBF10B5124806F0C2F88107044659
:1004400006D502210E4806F0B9F801220D4B1A70AC
:10045000E20307D54FF48031094806F0AFF80122D6
:10046000084B1A70E3040AD54FF48051044806F093
:10047000A5F8054803F0CCFA0122024B1A7010BD12
:10048000000E0E40CC8C072025660B0010B50C48E2
:1004900006F096F80204044607D54FF400410848D8
:1004A00006F08CF80122074B1A70E30307D54FF4CE
:1004B0008031034806F082F80122024B1A7010BD09
:1004C00000100E40CC8C072038B5FFF7AAFF02239E
:1004D0001A484FF480544361C0F8A0304FF40043F1
:1004E000174D10226B61C5F8A0304461C0F8A040E0
:1004F000446644654462C0F88040036F114923F4A8
:100500008053036706F043F810224FF4C0312846A9
:1005100006F03DF84FF4006200210B4BC3F8802039
:10052000C3F8802183F80B131A60C3F88040C3F826
:10053000804183F80C131C6038BD00BF000E0E40D4
:1005400000100E400210010000E100E008B50F4964
:100550000F4806F030F84FF4C0310E4806F02BF883
:10056000012005F095FE022005F092FE082005F01E
:100570008FFE802005F08CFE4FF4805005F088FE41
:10058000BDE808404FF4005005F082BE02100100A3
:10059000000E0E4000100E4070B5002486B04FF4DF
:1005A00080714B4806F0D2F80821494806F0C6F899
:1005B000474806F0D3F8474B474E1C70FFF784FFBF
:1005C000FFF7C4FF2046FFF71DFF204605F046FD5C
:1005D00005F0F6FD05F0E8FD404806F03FFA06F0AC
:1005E000D5F9FFF71EFF05F013FB3D4D3D4C30469E
:1005F00003F00EFA2B785BB94FF000534FF48052A2
:100600006363394B5A63FFF7A1FF03F0DFF9EEE7AD
:10061000364D374803F0FCF9284606F025F8044625
:10062000002005F08DFD0320FFF7ECFE002005F013
:1006300035FD06F055FAFFF7F4FE05F075F94FF4B5
:1006400000412C4806F040F8012103462A4A0020C8
:1006500003F0E8F901206D6A05F0F4FF274AC4F3BE
:1006600002230121CDE90050002003F0DBF9012035
:10067000002105F0EDFF224BB3F5202F34BF2148B8
:10068000214803F0C5F9214B04211B6C0020C3F362
:100690000323092B0CBF4FF400324FF480221C4B74
:1006A0001A6006F0C3F810B11A4803F0B1F904213A
:1006B00002A806F045F910B1174803F0A9F9174B45
:1006C000059A17481A6006B0BDE8704003F0A0B95B
:1006D000101A0E40C48C07202F660B0000BD0105C8
:1006E000CC8C0720000E0E4000100E40001A0E4069
:1006F0003C660B00501A0E4046660B0074660B00F9
:1007000099050A0081660B008A660B0000090E40FD
:10071000C88C072093660B00AE660B00D08C0720B8
:10072000D5660B00014805F099BF00BF001A0E40C6
:100730001FB501210C4A002003F074F904F0BEF942
:100740000023CDE9013303937D230728009307D0CD
:1007500008F062FA684603F05FFF05B05DF804FB3D
:1007600002F01CFCF6E700BFEA660B0003480068D5
:10077000006880F3088862B600DF00BF08ED00E083
:100780004FF0807340E90213002340F8202C40F81A
:100790000C3C403870470000064B19680868B0E808
:1007A000F00F80F309884FF0000080F311884EF0BD
:1007B0000D0E7047D48C07204FF0A00383F31188EF
:1007C000BFF36F8FBFF34F8F024A1368013313607B
:1007D000704700BF90800720034A1368013B1360F5
:1007E0000BB983F31188704790800720EFF30980DD
:1007F0000C4B1A6820E9F00F10602DE908404FF00B
:10080000A00080F3118800F03DFB4FF0000080F362
:100810001188BDE8084019680868B0E8F00F80F357
:1008200009887047D48C072008B54FF080524FF0EC
:10083000E023C3F8042DEFF311834FF0A00282F3FD
:100840001188BFF36F8FBFF34F8F00F0EBF90023D8
:1008500083F3118808BD00004FF0E023024A5A617B
:1008600007221A61704700BF1F4801004FF0E023C4
:1008700010B50024D3F8202D42F47002C3F8202DC7
:10088000D3F8202D42F07042C3F8202DFFF7E4FF8B
:10089000024B1C60FFF76AFF204610BD90800720C6
:1008A00070470000F8B51A4B1A4D06461C682868B8
:1008B0000F46043000F0CBFE40B92A681649D06AD2
:1008C00001220B68824023EA02030B60731C07D1EC
:1008D00037B1296811480431BDE8F84000F094BEF2
:1008E0002B68A4195C6007D30D4B18682968BDE814
:1008F000F840043100F094BE0A4B186829680431AE
:1009000000F08EFE084B1A68A24288BF1C60F8BD3A
:10091000A88D0720D48C0720308D0720808D0720DC
:10092000DC8C0720D88C0720608D0720064A1368CE
:100930001968064B19B94FF0FF321A6070471268F8
:10094000D268D2685268F8E7D88C0720608D0720FB
:1009500080B5164C164F174E236883B9164B1B688B
:10096000012B09D94FF0E0234FF08052C3F8042D3A
:10097000BFF34F8FBFF36F8FFFF7A8FCEBE7FFF7D5
:100980001BFFFB68DD68281D00F061FE3368013B3A
:1009900033602368013B2360FFF71EFF286B01F0E3
:1009A00011F9284601F00EF9D6E700BF208D072087
:1009B000948D07201C8D0720E08C07202DE9F84F2F
:1009C0004FEA820A064650460D461F46DDF82C9037
:1009D00001F06AF88046A0B1582001F065F804469D
:1009E00060B1C0F830807DB94FF0A00383F3118867
:1009F000BFF36F8FBFF34F8F00BFFDE7404601F09D
:100A0000E1F84FF0FF3593E05246A52140460EF045
:100A100045F8236BAAF1040A9A442AF0070A6B1ED0
:100A200004F13402093513F8011F02F8011B09B162
:100A30009D42F8D10A9D4FF0000B022D28BF0225E0
:100A400004F104084046C4E9125BE56284F83DB055
:100A500000F0D7FDC5F1030504F1180000F0D1FD49
:100A6000C4F850B03A46314650462461A5616462EC
:100A700084F854B0FFF784FE2060B9F1000F01D074
:100A8000C9F80040FFF798FE304B314E1A68314FDD
:100A900001321A603268002A4DD134601B68012B84
:100AA0001FD12D4800F0A2FDDFF8B0902C4800F0D7
:100AB0009DFD2C4D2C4800F099FD484600F096FD18
:100AC000284600F093FD294800F090FD284800F0EA
:100AD0008DFD284800F08AFD274BC3F80090274B76
:100AE0001D600125264A27491368086801331360F1
:100AF000E26A236405FA02F3034314200B60164BE9
:100B0000414600FB023000F07FFDFFF765FE3B68C9
:100B100073B13368DA6AE36A9A4209D24FF0E0238C
:100B20004FF08052C3F8042DBFF34F8FBFF36F8F88
:100B30002846BDE8F88F3B68002BD2D13368DA6ACB
:100B4000E36A9A4298BF3460CBE700BF1C8D072050
:100B5000D48C07207C8D0720E08C0720348D072063
:100B6000F48C0720488D0720088D0720688D07200A
:100B7000948D0720808D0720D88C0720DC8C0720DF
:100B80002C8D0720308D072013B50024184BC82268
:100B900001931849234618480094FFF70FFF0128D6
:100BA00018D100F0AFFD012814D14FF0A00383F35A
:100BB0001188BFF36F8FBFF34F8F4FF0FF320F4B92
:100BC0001A600F4B18600F4B1C6002B0BDE810405C
:100BD000FFF74CBE013009D14FF0A00383F3118819
:100BE000BFF36F8FBFF34F8F00BFFDE702B010BDA3
:100BF0005C8D0720FB660B0051090A00608D072001
:100C00007C8D0720A88D0720024A136801331360EA
:100C1000704700BF288D0720014B1868704700BF40
:100C2000A88D07202DE9F84F3C4B1B68002B6FD196
:100C30003B4B1D6801351D60C5B93A4B1A681268F7
:100C40004AB14FF0A00383F31188BFF36F8FBFF356
:100C50004F8F00BFFDE7344A1968106818601160B3
:100C6000324A136801331360FFF760FE304E0024F0
:100C70003368304FAB4210D914222F4B1B68DB6A0C
:100C80005343FB58022B28BF01242C4B1B68002B1D
:100C90000CBF20460120BDE8F88FDFF888A0DFF800
:100CA000A090DAF800301B681BB94FF0FF333360B7
:100CB000E2E7DAF80030DB68D3F80CB0DBF80420A8
:100CC000954201D23260D7E70BF10408404600F0AC
:100CD000BEFCDBF828201AB10BF1180000F0B7FCBD
:100CE0000122DBF82C00D9F8003082401A43C9F801
:100CF00000201422414602FB007000F085FC0E4BE0
:100D0000DBF82C201968CB6A9A4228BF0124C8E777
:100D10000C4A0024136801331360B6E7288D0720BE
:100D2000A88D0720D88C0720DC8C0720648D072035
:100D3000608D0720E08C0720D48C0720AC8D072025
:100D4000308D0720248D07202DE9F843324C23688D
:100D50004BB94FF0A00383F31188BFF36F8FBFF33C
:100D60004F8F00BFFDE7FFF727FD2368013B23609E
:100D700024682CB10024FFF72FFD2046BDE8F8833E
:100D8000264B1B68002BF5D0254D264EDFF89880AA
:100D90001FE0EB680127DC6804F1040904F1180086
:100DA00000F055FC484600F052FC1420E26A31681D
:100DB00007FA02F30B4300FB02804946336000F060
:100DC00023FC1A4BE26A1B68DB6A9A4201D3184B78
:100DD0001F602B68002BDCD10CB1FFF7A7FD154D70
:100DE0002C6844B10127124EFFF71CFF00B1376099
:100DF000013CF9D12C600E4B1B68002BBAD04FF090
:100E0000E0234FF08052C3F8042DBFF34F8FBFF3A0
:100E10006F8F0124AFE700BF288D07201C8D0720AE
:100E2000688D0720308D0720E08C0720D48C0720A8
:100E3000AC8D0720248D072008B550B94FF0E02372
:100E40004FF08052C3F8042DBFF34F8FBFF36F8F65
:100E500008BD0B4B196849B14FF0A00383F311880B
:100E6000BFF36F8FBFF34F8F00BFFDE7FFF7CCFEDF
:100E7000FFF718FDFFF768FF0028DFD0E8E700BFA5
:100E8000288D0720184B10B51A68184B12B1012293
:100E90001A6010BD1A60164B1A68B2FA82F2142357
:100EA000D2B2C2F11F0253431249CC58C8184CB9F0
:100EB0004FF0A00383F31188BFF36F8FBFF34F8F01
:100EC00000BFFDE74468083364680B449C4208BFD8
:100ED0006368446008BF4360142303FB0212536835
:100EE000DA68054BD4E700BF288D0720AC8D0720BA
:100EF000308D0720E08C0720D48C072010B50C46DD
:100F000048B94FF0A00383F31188BFF36F8FBFF38D
:100F10004F8F00BFFDE7054B1968183100F080FBCB
:100F20002046BDE810400121FFF7BCBCD48C07204F
:100F300038B50D46144648B94FF0A00383F3118825
:100F4000BFF36F8FBFF34F8F00BFFDE7074B1968EB
:100F5000183100F059FB002C214608BF2846BDE897
:100F6000384018BF4FF0FF30FFF79CBCD48C0720EF
:100F700038B5C368DC684CB94FF0A00383F311881F
:100F8000BFF36F8FBFF34F8F00BFFDE704F118056C
:100F9000284600F05CFB114B1B68E3B9251D284671
:100FA00000F055FB01230E49E26A086893400343B1
:100FB00014200B6029460B4B00FB023000F024FB91
:100FC000094BE26A1B68DB6A9A4285BF0120074B26
:100FD0000020186038BD29460548EFE7288D072016
:100FE000308D0720E08C0720D48C0720AC8D0720A3
:100FF000688D072010B5044648B94FF0A00383F36D
:101000001188BFF36F8FBFF34F8F00BFFDE7FFF76E
:10101000D3FB054B1B682360044B1B686360BDE872
:101020001040FFF7D9BB00BF648D0720A88D0720B3
:10103000034B1B680360034B1B684360704700BF92
:10104000648D0720A88D072070B50C46054648B969
:101050004FF0A00383F31188BFF36F8FBFF34F8F5F
:1010600000BFFDE749B94FF0A00383F31188BFF338
:101070006F8FBFF34F8F00BFFDE7FFF79DFB0F4B57
:10108000196823685A1C10D00D482E6800686A68D9
:10109000864201D08A420FD9881A83420AD95B1A44
:1010A000134428462360FFF7C3FF0024FFF794FB97
:1010B000204670BD002323600124F7E7A88D072098
:1010C000648D07200122014B1A607047AC8D072008
:1010D00008B9064B1868026B0020135CA52B02D0E0
:1010E000C0F38F0070470130F7E700BFD48C0720B2
:1010F000014B1868704700BFD48C0720054B1B6854
:1011000033B1054B1B68002B0CBF02200020704739
:10111000012070477C8D0720288D07202DE9F041A4
:101120000446002835D0234DC36A2A68D26A934208
:1011300037D214268269204F002AA8BF2A6806FBEE
:101140000373A2BFD26AC2F10302826142699A426A
:1011500021D100F10408404600F079FA174B48B954
:10116000E06A4643BA592AB901211A68814022EA45
:1011700001021A602A681968D26AE262012404FA3C
:1011800002F0084318601420414600FB027000F092
:101190003BFA204603E02B68DB6AC3620120BDE80E
:1011A000F0812B68806CDC6AA0422CBF00200120FB
:1011B000F5E700BFD48C0720E08C0720308D072096
:1011C000F8B5044608B90020F8BD234B1B688342DC
:1011D00009D04FF0A00383F31188BFF36F8FBFF3E3
:1011E0004F8F00BFFDE7DB6C4BB94FF0A00383F3DB
:1011F0001188BFF36F8FBFF34F8F00BFFDE7C16A48
:10120000826C013B9142C364DDD0002BDBD1061D13
:10121000304600F01CFA114F114A50B91421E06A0F
:1012200041437B582BB901251368854023EA050308
:101230001360A36C1420C3F10301A161E3620124D4
:10124000116804FA03F500FB03700D433146156085
:1012500000F0DAF92046B7E7D48C0720E08C0720AD
:10126000308D0720F8B5044600284DD0C26C4AB92D
:101270004FF0A00383F31188BFF36F8FBFF34F8F3D
:1012800000BFFDE7836C994238BF1946C36A8B42A1
:101290003AD0012A38D11D4A1268824209D14FF052
:1012A000A00383F31188BFF36F8FBFF34F8F00BF8D
:1012B000FDE71425164E826905FB0363002A426987
:1012C000C162A4BFC1F1030181619A421CD1071D13
:1012D000384600F0BCF9E26A0E4C40B955437359E8
:1012E0002BB901212368914023EA010323600123E4
:1012F0001420216893400B4300FB026039462360B1
:10130000BDE8F84000F080B9F8BD00BFD48C0720DC
:10131000E08C0720308D0720044B1A681AB1196839
:10132000CA6C0132CA641868704700BFD48C0720A9
:101330002DE9F0411F4C1E4680460F461546FFF72B
:101340003BFA236893F85430022B16D0012122680F
:10135000136D23EA08031365236883F8541066B1FC
:101360003046FFF79FFA4FF0E0234FF08052C3F86A
:10137000042DBFF34F8FBFF36F8FFFF72DFAFFF7E9
:101380001BFA15B123681B6D2B60236893F854304A
:10139000022B03BF22680125136D002504BFBB4348
:1013A00013650022236883F85420FFF715FA2846B6
:1013B000BDE8F081D48C0720F8B50E4617461D46CF
:1013C000044648B94FF0A00383F31188BFF36F8F31
:1013D000BFF34F8F00BFFDE7FFF7EEF90DB1236DAF
:1013E0002B60022394F8545084F85430EDB2042F4B
:1013F00016D8DFE807F00A0307051100216D0E4338
:10140000266502E0236D01332365012D15D00125EA
:10141000FFF7E2F92846F8BD022DF1D10025F7E7E4
:10142000236D0133F1D04FF0A00383F31188BFF394
:101430006F8FBFF34F8F00BFFDE7261D304600F0D2
:1014400006F91549E26A086805FA02F30343142015
:101450000B60124B314600FB023000F0D5F8A36A56
:101460004BB14FF0A00383F31188BFF36F8FBFF32D
:101470004F8F00BFFDE70A4BE26A1B68DB6A9A42A6
:10148000C5D94FF0E0234FF08052C3F8042DBFF3CD
:101490004F8FBFF36F8FBBE7308D0720E08C0720A5
:1014A000D48C07202DE9F843DDF820800E4617463E
:1014B0001D46044648B94FF0A00383F31188BFF3DB
:1014C0006F8FBFF34F8F00BFFDE7FFF7E9F9EFF331
:1014D00011894FF0A00383F31188BFF36F8FBFF31F
:1014E0004F8F0DB1236D2B60022394F8545084F874
:1014F0005430EDB2042F16D8DFE807F00A030705D1
:101500001100216D0E43266502E0236D0133236532
:10151000012D15D0012089F31188BDE8F883022D33
:10152000F1D10020F7E7236D0133F1D04FF0A00394
:1015300083F31188BFF36F8FBFF34F8F00BFFDE7B9
:10154000A36A4BB14FF0A00383F31188BFF36F8FF1
:10155000BFF34F8F00BFFDE7134B1B68FBB9261D80
:10156000304600F074F8114A1420E36A11689D4077
:101570000D43314615600E4A00FB032000F044F88D
:101580000C4BE26A1B68DB6A9A42C3D90123B8F1AB
:10159000000F01D0C8F80030074A1360BAE70748C7
:1015A00004F11801EAE700BF288D0720308D0720DD
:1015B000E08C0720D48C0720AC8D0720688D072095
:1015C00010B5044608B9084B1C68FFF7F5F8002071
:1015D00094F85430022B0ABF84F8540004460124C6
:1015E000FFF7FAF8204610BDD48C07204FF0FF32E9
:1015F00000F10803C0E90223436003610023036094
:10160000704700230361704743689A684B608A60A3
:101610009A685160996003680861013303607047FC
:1016200030B50C68631C0AD103695A684A6091603E
:101630008B605960036808610133036030BD00F1BD
:101640000802134652681568A542FAD9EDE7036906
:10165000D0E901128A6051605968814208BF5A601E
:10166000002202611A68013A1A6018687047000087
:10167000F8B50F4CFFF7A0F82568ADB90D4F0E4E29
:101680003846FFF7B3FF3046FFF7B0FF0B4B2A4653
:101690001F600B4B10211E201E6000F099FB206084
:1016A00010B1084900F0B0FEBDE8F840FFF794B86B
:1016B000E48D0720B88D0720CC8D0720B08D072042
:1016C000B48D072000670B00914208B541600061AE
:1016D0000AD8D21A83699A420DD2084B011D1868A4
:1016E000FFF79EFF002008BD9A4201D2994202D224
:1016F000034B011DF3E70120F5E700BFB48D072080
:10170000B08D072007B5FFF7B3FF0E4B1B684BB931
:101710004FF0A00383F31188BFF36F8FBFF34F8F98
:1017200000BFFDE7084B4FF496720193022307496F
:10173000009307480023FFF741F90028E8D003B0E1
:101740005DF804FBE48D0720E88D072005670B009A
:10175000A1180A002DE9F04180462C200D461746BD
:101760001E4600F0A1F90446B0B14DB94FF0A003F8
:1017700083F31188BFF36F8FBFF34F8F00BFFDE777
:10178000FFF776FF069BC4E90657C4F8008026627F
:101790006362201DFFF735FF2046BDE8F0810000A1
:1017A0007FB5164604461A4648B94FF0A00383F3A6
:1017B0001188BFF36F8FBFF34F8F00BFFDE70D4D53
:1017C000286880B10529CDE9001602940DDCFFF7E9
:1017D00095FC0023022818BF1A46694608BF089ADC
:1017E000286800F01AFB04B070BD0023694600F0C1
:1017F000E6FBF8E7E48D07202DE9F74F0646FFF7F3
:101800000BFADFF890800546D8F8003083423FD9C4
:101810004FF00009204F3B681A685AB91F4A1168F7
:1018200013600123396028463360C8F8005003B0C4
:10183000BDE8F08FDB68DC68D3F800A004F1040B8E
:101840005846FFF704FF636A20469847E369012B77
:10185000E1D1A36953449A4506D25946386863607A
:101860002461FFF7DDFED6E70023524619462046E5
:10187000CDF80090FFF794FF0028CCD14FF0A003E3
:1018800083F31188BFF36F8FBFF34F8F00BFFDE766
:101890000023C8E7E08D0720B08D0720B48D072016
:1018A0002DE9F0436B4D6C4E89B02B681F68002FFB
:1018B00038D00024DB681F68FFF7A6F904A8FFF7FB
:1018C0009BFF049B8146002B7BD1002C5ED1B8424C
:1018D00062D3FFF739FA2B68DB68D3F80C8008F184
:1018E0000400FFF7B4FED8F81C30012B1CD1D8F847
:1018F00018103B464A4640463944FFF7E5FE98B18A
:1019000023463A46214640460094FFF749FF58B91E
:101910004FF0A00383F31188BFF36F8FBFF34F8F96
:1019200000BFFDE70124C7E74046D8F824309847B8
:101930000022306804A900F0FDFB0028B5D0049B0C
:101940000698002B40DB069C6369002B43D103A85B
:10195000FFF752FF049B0246092BE9D801A151F879
:1019600023F000BFDF190A00DF190A00DF190A009F
:1019700031190A00251A0A004B1A0A00DF190A0059
:10198000DF190A0031190A00251A0A00334B1B68B7
:101990001C68B4FA84F4640922463068A7EB090194
:1019A00000F044FDFFF7D0F90028C1D14FF0E0234B
:1019B0004FF08052C3F8042DBFF34F8FBFF36F8FEA
:1019C000B6E7FFF7C1F9B3E7059B07999847049B72
:1019D000002BADDBB7E7201DFFF739FEB7E7A169A4
:1019E000059B20461944FFF76FFE0028A0D0636ACC
:1019F00020469847E369012B9AD10023A2690599F3
:101A000020460A4400931946FFF7CAFE00288FD1EA
:101A10004FF0A00383F31188BFF36F8FBFF34F8F95
:101A200000BFFDE70599A16149B94FF0A00383F319
:101A30001188BFF36F8FBFF34F8F00BFFDE70346E1
:101A400001442046FFF740FE72E7204600F0BAF856
:101A50006EE700BFB08D0720E48D0720B48D07200E
:101A600010B50F4B1A461B688342FBD354681119FB
:101A7000884201BF41681046091951604468011944
:101A80008B4207D1074909688B421FBF59681B6801
:101A9000091941609042036018BF106010BD00BF7B
:101AA0003C2A0820EC8D07202DE9F0410446FFF781
:101AB000ABF83D493D4D0B68CBB900203C4B3D4A4E
:101AC0005E071CBF073323F00703136050603A4AD8
:101AD00022F00702C2E90000D01AC3E90020374B08
:101AE0000A601860364B18604FF000432B602F6877
:101AF000274207D0FFF728F90026FEF703FC3046FF
:101B0000BDE8F081002CF5D004F1080360071CBF8C
:101B100023F007030833002BECD0DFF8A480D8F8BB
:101B200000509D42E6D3234A14686068984201D26F
:101B30002668BEB90968A142DCD021681668116028
:101B4000C21A102A06F1080613D9E01841070CD072
:101B50004FF0A00383F31188BFF36F8FBFF34F8F54
:101B600000BFFDE722463446DFE742606360FFF7CF
:101B700077FF0023114962680868AD1A1743854250
:101B80002360676038BF0D60C8F80050FFF7DCF8CD
:101B90007307B4D04FF0A00383F31188BFF36F8FA6
:101BA000BFF34F8F00BFFDE7EC8D0720302A0820E0
:101BB000F08D07203C2A0820282A0820382A0820EF
:101BC000342A082010B5044680B3194A50F8043C62
:101BD0001268134209D14FF0A00383F31188BFF3B9
:101BE0006F8FBFF34F8F00BFFDE750F8081C49B15E
:101BF0004FF0A00383F31188BFF36F8FBFF34F8FB4
:101C000000BFFDE723EA020340F8043CFEF7FCFFB7
:101C1000084A54F8043C1168A4F108000B4413600E
:101C2000FFF71EFFBDE81040FFF78EB810BD00BFE4
:101C3000302A0820342A082010B50446FEF7BCFDDF
:101C4000A46BFEF7C9FDB4FA84F0400910BDF8B5E5
:101C50001546026C0446866B52B9076847BB80681C
:101C6000FFF7AEFA0546A76001362846A663F8BD21
:101C700065B940680CF09CFE6368226C1344A2684E
:101C800063609342F0D323686360EDE7C0680CF0B3
:101C90008FFE226CE36851429B1A2268E3609342F4
:101CA0003EBFA3685B18E360022D01D116B1013E6F
:101CB0000025D9E73546D7E703461A6C084610B425
:101CC00062B1DC68996814448C4228BF1968DC60F2
:101CD00028BFD960D96810BC0CF06ABE10BC704730
:101CE00070B50446FEF768FD94F8455004F12406EB
:101CF0006DB2002D14DCFF2384F84530FEF76CFD37
:101D0000FEF75AFD94F8445004F110066DB2002D10
:101D100012DCFF2384F84430BDE87040FEF75CBD60
:101D2000636A002BE7D03046FFF722F908B1FFF7CE
:101D3000C9F9013D6DB2DCE72369002BE9D03046DB
:101D4000FFF716F908B1FFF7BDF9013D6DB2DEE707
:101D500038B50D46044648B94FF0A00383F3118807
:101D6000BFF36F8FBFF34F8F00BFFDE7FEF724FD7A
:101D7000D4E90F314B432268D0185B1A1344A0609A
:101D8000E3600020FF23A063626084F8443084F89D
:101D90004530A5B9236973B104F11000FFF7E8F8E5
:101DA00048B14FF0E0234FF08052C3F8042DBFF349
:101DB0004F8FBFF36F8FFEF70FFD012038BD04F189
:101DC0001000FFF713FC04F12400FFF70FFCF2E70B
:101DD000F8B50D461746064648B94FF0A00383F301
:101DE0001188BFF36F8FBFF34F8F00BFFDE74843EC
:101DF0005030FFF759FE044658B165B100F1500369
:101E000001212046C4E90F652360FFF7A1FF84F894
:101E10004C702046F8BD0346F2E72DE9F04385B04B
:101E200088461F460446019248B94FF0A00383F349
:101E30001188BFF36F8FBFF34F8F00BFFDE759B914
:101E4000036C4BB14FF0A00383F31188BFF36F8F86
:101E5000BFF34F8F00BFFDE7022F0CD1E36B012BC7
:101E600009D04FF0A00383F31188BFF36F8FBFF346
:101E70004F8F00BFFDE7FFF741F9064658B9019BB8
:101E800053B14FF0A00383F31188BFF36F8FBFF3FB
:101E90004F8F00BFFDE700264FF0000937E0019D9E
:101EA0001DB9FEF799FC002052E016B902A8FFF711
:101EB000BFF8FEF791FCFEF7A7FEFEF77DFC94F855
:101EC0004430FF2B08BF84F8449094F84530FF2B32
:101ED00008BF84F84590FEF77FFC01A902A8FFF730
:101EE000B3F800284AD1FEF767FCA26BE36B9A4275
:101EF00031D1FEF771FC019904F11000FEF7FEFFED
:101F00002046FFF7EDFEFEF71FFF60B30126FEF748
:101F100053FCA26BE36B9A4201D3022FBFD13A4626
:101F200041462046FFF793FE636A1BB104F124008B
:101F3000FFF71EF848B14FF0E0234FF08052C3F88E
:101F4000042DBFF34F8FBFF36F8FFEF745FC0120C9
:101F500005B0BDE8F083FEF73FFC2046FFF7C0FE6A
:101F6000FEF7F2FED2E74FF0E0234FF08052C3F8C5
:101F7000042DBFF34F8FBFF36F8FC7E72046FFF7E6
:101F8000AFFEFEF7E1FE8EE770B506465020FFF784
:101F90008BFD044688B1002501210060C0E90F15C2
:101FA000FFF7D6FE2B462A462946204684F84C6089
:101FB000A5602560E560FFF730FF204670BD2DE984
:101FC000F843894690461F46044648B94FF0A0039F
:101FD00083F31188BFF36F8FBFF34F8F00BFFDE70F
:101FE00059B9036C4BB14FF0A00383F31188BFF3D1
:101FF0006F8FBFF34F8F00BFFDE7022F0CD1E36B54
:10200000012B09D04FF0A00383F31188BFF36F8F2A
:10201000BFF34F8F00BFFDE7FEF742FCEFF31186E1
:102020004FF0A00383F31188BFF36F8FBFF34F8F7F
:10203000A26BE36B9A4201D3022F22D194F8455050
:102040003A46494620466DB2FFF701FE6B1C13D19C
:10205000636A0BB901200BE004F12400FEF788FF4E
:102060000028F7D0B8F1000FF4D00120C8F8000024
:1020700086F31188BDE8F88301356DB284F84550C8
:10208000E8E70020F4E770B50D46044648B94FF084
:10209000A00383F31188BFF36F8FBFF34F8F00BF8F
:1020A000FDE7036C4BB14FF0A00383F31188BFF33E
:1020B0006F8FBFF34F8F00BFFDE703685BB9836885
:1020C0004BB14FF0A00383F31188BFF36F8FBFF3C1
:1020D0004F8F00BFFDE7FEF7E3FBEFF311864FF0F4
:1020E000A00383F31188BFF36F8FBFF34F8FA26BF1
:1020F000E36B93421CD994F845100132FF294BB28F
:10210000A26310D1636A0BB9012009E004F1240035
:10211000FEF72EFF0028F7D0002DF5D00120286013
:1021200086F3118870BD01335BB284F84530EBE76C
:102130000020F5E72DE9FF410F460446019248B91A
:102140004FF0A00383F31188BFF36F8FBFF34F8F5E
:1021500000BFFDE759B9036C4BB14FF0A00383F307
:102160001188BFF36F8FBFF34F8F00BFFDE7FEF7FE
:10217000C5FF064658B9019B53B14FF0A00383F346
:102180001188BFF36F8FBFF34F8F00BFFDE70026AD
:102190004FF000083DE0019D1DB9FEF71DFB00203A
:1021A00056E016B902A8FEF743FFFEF715FBFEF74F
:1021B0002BFDFEF701FB94F84430FF2B08BF84F899
:1021C000448094F84530FF2B08BF84F84580FEF723
:1021D00003FB01A902A8FEF737FF002841D12046E2
:1021E000FFF72AFDB8B3019904F12400FEF786FE3B
:1021F0002046FFF775FDFEF7A7FD48B94FF0E02335
:102200004FF08052C3F8042DBFF34F8FBFF36F8F91
:102210000126FEF7D1FAA56B002DBCD03946204629
:10222000013DFFF749FDA563236973B104F1100077
:10223000FEF79EFE48B14FF0E0234FF08052C3F806
:10224000042DBFF34F8FBFF36F8FFEF7C5FA012048
:1022500004B0BDE8F0812046FFF742FDFEF774FDB3
:10226000D6E72046FFF73CFDFEF76EFD2046FFF760
:10227000E3FC0028CCD092E7F0B585B0044601918C
:1022800048B94FF0A00383F31188BFF36F8FBFF3FA
:102290004F8F00BFFDE7056C4DB14FF0A00383F3F6
:1022A0001188BFF36F8FBFF34F8F00BFFDE7FEF7BD
:1022B00025FF064658B9019B63B14FF0A00383F395
:1022C0001188BFF36F8FBFF34F8F00BFFDE72E461E
:1022D000002754E00546FBE7019B6BB94DB14FF079
:1022E000A00383F31188BFF36F8FBFF34F8F00BF3D
:1022F000FDE7FEF771FA62E016B902A8FEF798FE54
:10230000FEF76AFAFEF780FCFEF756FA94F84430BE
:10231000FF2B08BF84F8447094F84530FF2B08BFAA
:1023200084F84570FEF758FA01A902A8FEF78CFE62
:1023300000284DD12046FFF77FFC002842D02368BB
:102340003BB9FEF739FAA068FEF7E8FE0546FEF74E
:1023500043FA019904F12400FEF7D0FD2046FFF76F
:10236000BFFCFEF7F1FC48B94FF0E0234FF080527C
:10237000C3F8042DBFF34F8FBFF36F8F0126FEF715
:102380001BFAA36B002BA7D0013BA363236813B9EF
:10239000FEF7C2FFA060236973B104F11000FEF7DD
:1023A000E7FD48B14FF0E0234FF08052C3F8042D11
:1023B000BFF34F8FBFF36F8FFEF70EFA012528464C
:1023C00005B0F0BD2046FFF78BFCFEF7BDFCD5E75E
:1023D0002046FFF785FCFEF7B7FC2046FFF72CFCF4
:1023E0000028CBD0002DEAD0FEF7E6F9616A19B1DA
:1023F000236B1968C1F10301A068FEF733FF0025C4
:10240000FEF7EAF9DBE70000002310B5064A52F8B0
:1024100033402CB942F8331002EBC303586010BDAF
:102420000133082BF3D1FAE7442A082070B504469B
:102430000D461646FEF7C0F994F84430FF2B04BF52
:10244000002384F8443094F84530FF2B04BF002368
:1024500084F84530FEF7C0F9A36B2BB93246294604
:1024600004F12400FEF764FD2046BDE87040FFF74C
:1024700037BC000010B5094C01210020084A01F0CA
:10248000D1FA237833B905F0ADFC05F013F9012337
:10249000237010BDBDE8104001F0BCBC1B2B082010
:1024A0000D670B00002330B5054C95B20C44E15C80
:1024B000C154013399B28D42F9D80023835430BD01
:1024C000402C082070B52848B6B00CF02DFC022333
:1024D000C5B22A46254901A88DF810300CF062FBE0
:1024E0009DF804309DF805005A1C8DF8113000232A
:1024F0009DF8061002448DF813100A441A498DF80D
:10250000120005A8DCB2A54226D892B21849AEB294
:1025100001A80CF047FB2C1D01AB06F1080236A9FF
:102520002144013413F8010BA4B2944201F8C80C01
:10253000F5D136AB1C44032304F8C83C36AB1E442B
:102540000A2306F8BF3C0B4B05F10A02186804A9E0
:10255000C368984736B070BD11F8014B013300F8DD
:10256000014B2244CEE700BF462E082016670B0021
:102570001B670B00E42E082007B5435C013189B2CC
:102580008DF80430435C0021102201A88DF805303D
:102590008DF806100CF0E8FCC0B203B05DF804FB47
:1025A00063232DE9F347ADF800302823ADF802305E
:1025B000B323044600F146061F4F204DDFF880800C
:1025C000ADF80430B6B2EA464FF0000904EB8901D9
:1025D0000422384689B2FFF765FF102200210CF073
:1025E000C3FC1022A881002138460CF0BDFCAB884A
:1025F0003AF8022B09EB830309F1010905EB4303C8
:102600004240B9F1030F9A82E0D104F10C01404637
:1026100089B2FFF7B1FFAB880E3405EBC3025083DC
:1026200001332A889BB29A42A4B2AB8001D9A64258
:10263000C9D102B0BDE8F087402E08209480072061
:10264000402C082010B5084C4FF4807204F10801AA
:10265000201D00F00BFD636803F5807363600023A9
:10266000A4F8183110BD00BF1C2B08200A4B0B4AE0
:10267000B3F8101102EBC102D18A128BC3F80C110E
:102680000A440132C3F81421012283F812210022E6
:10269000A3F81821704700BF1C2B08209480072046
:1026A0000A4B10B5596801F5807051F8042B0433BA
:1026B000C2F307241A715C718142C2F30744C2F36A
:1026C00007629C71DA71F0D110BD00BF1C2B08208D
:1026D0002DE9F04F04460D46B44FB54EDFF8D482D5
:1026E0008FB03B88B3EB440F0BDC7378013B042BBA
:1026F00000F25A81DFE813F00F007B00BE00D1002A
:10270000D70029464046FFF737FF023530550134E0
:10271000A4B2ADB2E5E70DF1170000F0ADFC002862
:1027200063D09DF81700A44D002858D00121002047
:10273000A24A01F077F900232B6036238DF8183078
:1027400030238DF819303A238DF81A30002306A96A
:102750009B488DF81B300CF069FA9A4A9A49D37855
:1027600006A80093937852780CF01CFA06A99448B6
:102770000CF05CFAFDF7D4FD9449024606A80CF073
:1027800011FA06A98E480CF051FAFDF7CBFD8F49DE
:10279000024606A80CF006FA06A989480CF046FA8B
:1027A000FDF7C2FD8949024606A80CF0FBF906A90F
:1027B00083480CF03BFA00F08FFC044600F084FCE8
:1027C0002A6803468249009206A822460CF0EAF9DC
:1027D00006A97B480CF02AFA0FB0BDE8F08F012162
:1027E0007C4A01F01FF90123A6E77B49F1E7337921
:1027F0007A4CF578B17883F01A00E0746840757906
:1028000081F05902A2746A4002EB002281F0350186
:1028100083F0CD0303EB0123A2601421042270484E
:102820002382FFF73FFE102200210CF09DFB238A3C
:102830000422584060801A216948FFF733FE0021C6
:1028400010220CF091FB238A58404FF6FF73A081B1
:10285000E38100245848A0F81041FFF707FF6149C1
:1028600080F81A41A0F81C4155480FB0BDE8F04F60
:102870000CF0DCB9042208215948FFF713FE10229E
:1028800000210CF071FB0022544B4A4918800C20A7
:102890009A80FFF785FE5449E6E746490820FFF78E
:1028A0007FFE5249E0E7444C94F81A71002F79D02A
:1028B0000025AA46494EA4F81051B4F810213388D7
:1028C0009A4219D3B368ADB2AB4269D1207800F017
:1028D0000BFC002862D0464939480CF0A7F9454B5B
:1028E0001C68FEF799F90A23024600930121002390
:1028F0002046FEF755FF6FE74FF00008FFF7B6FEE2
:10290000B4F8102106EBC203DB8A06EBC202928AFE
:10291000A4F80A3103F47F4303EB02136360B4F8B5
:10292000103106EBC302128B0132424503D801334A
:10293000A4F81031C1E7FFF7B3FE6368B4F80AB139
:1029400003F58073636094F80A31A4F818A10BB101
:10295000A4F8183100218C46B4F818E1D4F81431E9
:102960000EF10800039320448BB20BEB0302734477
:102970009BB2FF2B01EB080992B206D9BCF1000F04
:1029800001D0A4F80A21C846C9E7039B01319A4245
:10299000F4D210F8013BBC461D44E5E70E4963E75D
:1029A000154961E715495FE715495DE73C2C0820AB
:1029B000842A0820402C08201C2B082020670B00AC
:1029C000462E082000660B0042670B004A670B008A
:1029D0004E670B0031670B0059670B00948007208E
:1029E000402E08205C670B005F670B0062670B00DE
:1029F00065670B00DC2E082068670B006B670B0017
:102A00006E670B00014902480CF010B96E670B00AD
:102A1000462E082038B5284A284C9178D37894F867
:102A2000120103EB01239BB2A4F8083168B1B4F89A
:102A30001011234A02EBC102928A9A423AD12149EB
:102A40002148BDE838400CF0F1B8B4F818319BB11A
:102A50001A46FF2503F108012144FF2A20D9B3F5C6
:102A6000807FC3F5807288BF002213449BB208B1F7
:102A7000A4F81831FFF7E6FDB4F81031104801331F
:102A800002889BB29A42A4F810310FD0FFF7EEFDF6
:102A9000B4F81031B4F8082100EBC300838ACCE706
:102AA0000132012001F8015B92B2D6E7012384F8DC
:102AB0001A31C4E70549C3E7842A08201C2B0820E3
:102AC0009480072065670B00462E082071670B0075
:102AD00004220021F0B5704C704EB4F81E71B4F8A9
:102AE0001C3185B090B2874261D809B1A4F81C317D
:102AF000F319F25D5B7803EB0223B4F81C219BB25F
:102B00009A4266D1B278F37803EB022394F812214B
:102B10009BB2A4F80A311AB3614DB4F8102105EB49
:102B2000C202D28A9A4248D101215E4A002000F0B6
:102B300079FF0023B4F8102184F8123105EBC205A7
:102B4000B4F80A31A98A03F47F4202EB0112DBB226
:102B500062602BB1FFF7A4FD94F80A31A4F8183194
:102B60000425AF423BD1842F6BD0D4F80C21D4F88C
:102B700014319A4240F08180B4F81831002B44D1CE
:102B8000494A0121002000F04DFFB4F81031444AB9
:102B9000013312889BB29A42A4F8103178D00121F7
:102BA000424A002000F03EFFFFF760FD4FE0B15CBD
:102BB00001320B449BB2012194E701213C4A0020E1
:102BC00000F030FF3B493C480CF030F8072005B0DE
:102BD000F0BD3A4938480CF029F80420F7E7B4F87A
:102BE0001821715D531C9BB22244B3F5807FA4F879
:102BF0001831117201D1FFF725FDD4F80C310135E0
:102C00000133C4F80C31ADB2ABE701212C4A0020EE
:102C100000F008FFB4F8182100201346FF2502F148
:102C200008012144FF2B22D9B2F5807FC2F58073C1
:102C300088BF002313449BB208B1A4F81831FFF7F2
:102C400001FDD4F80C21D4F814319A4298D01D49D2
:102C500019480BF0EBFF124B1B49DA8901A80BF066
:102C6000A1FF154801A90BF0E1FF0020AFE70133F8
:102C7000012001F8015B9BB2D4E70121134A002037
:102C800000F0D0FE12490C480BF0D0FF08209EE760
:102C9000012384F81A31DAE71C2B0820842A082043
:102CA0009480072074670B0088670B009E670B00F9
:102CB00079670B0082670B00462E082085670B00A2
:102CC0008D670B00A3670B0016670B0092670B0064
:102CD0009B670B0008B5064BB3F818310BB1FFF733
:102CE000B1FCBDE80840034903480BF09FBF00BF9B
:102CF0001C2B0820A6670B00462E08202DE9F04764
:102D00003F4D404B69781B8808293F4C21D1073B38
:102D100003EBD3735B1003223C48A4F81E31FFF78A
:102D2000C1FB3B4B1022DE8900210136B6B2DE81A9
:102D30000CF01AF9C0F30B00864208D194F81A314E
:102D40002BB334493448BDE8F0470BF06FBF33492B
:102D5000F8E74FF00808043B03EBD3735B10A4F8CB
:102D60001E310026DFF8B890294FB4F81E311FFA43
:102D700086FA08EB4A01534589B20BD86B78053BBC
:102D8000042B32D8DFE803F0212531292D004FF044
:102D90000B08E6E74846FFF7EFFB0AF0010ABA44E2
:102DA0009AF812307340584000F00F02C0F303103D
:102DB0003A44384492F8141190F81421B3B22B44D9
:102DC00002EB01129A700136CFE7BDE8F047FFF73A
:102DD00019BEBDE8F047FFF71DBEBDE8F047FFF79D
:102DE00077BEBDE8F047FFF775BF0E490A480BF004
:102DF0001DFFBDE8F047012100200B4A00F012BE84
:102E0000842A08203C2C08201C2B0820402E082057
:102E100094800720A9670B00462E0820AC670B00A2
:102E2000402C08206E670B00AF670B0010B5042123
:102E30001148FFF7A1FB114C062120700E48FFF747
:102E40009BFB0422607011460D48FFF72BFB237893
:102E5000202B05D0262B0BD00A490BF0E7FE03E010
:102E600008210220FFF734FCBDE81040FFF72ABB21
:102E7000FFF744FFF8E700BF402C0820842A082011
:102E8000462E08206E670B002DE9F34700242646E6
:102E900027463D4D002000F0D1FE002003F0CCFE7F
:102EA000012003F0C9FE00F091FD384B01221868A3
:102EB0000DF107010A23806902F024FC002857D095
:102EC0002B78022B18BF00269DF80730B6F5007F3F
:102ED000AB5528BF0026AA5D731C0A2A9BB246D1B7
:102EE00000262B4A13802B78022B3ED1284C2388B6
:102EF0009BB2013BEB5C0A2B37D103220121254811
:102F000095F8018095F802A095F80390FFF7CAFAAA
:102F1000002110220CF028F81F4B81B21980238861
:102F20005FFA88F89BB20A3B99425FFA8AFA5FFA25
:102F300089F925D1042308F10104544404314C4497
:102F400089B2994217D10B1DEB5C032B18D10422D7
:102F50001048FFF7A7FA102200210CF005F84440B2
:102F6000A4B274B9FFF762FF94E7012492E71E460A
:102F7000002C8FD0B7E7EA5C013314449BB2E0E742
:102F80002F70002486E700BF402C0820E42E082084
:102F90003E2C0820402E08203C2C08201F4B37B523
:102FA0001C78002C37D101251D4A294620461D706A
:102FB00000F038FD00F048F81A4B1B481D701B4B01
:102FC0004E2218604FF4E1314369984703222146AD
:102FD0002846FEF7FDFE20B1234622462146FEF795
:102FE0001CFF134B4FF47A71009301220023114808
:102FF000FEF7B0FB104B0146186010B90F4A00F005
:1030000011FD012200230E49CDE900230D484FF4A4
:103010001672FDF7D3FC03B030BD00BF1A2B082099
:10302000C5670B00E02E0820D4810720E42E08207D
:1030300075240A00D4670B00DC2E0820DC670B0027
:10304000F3670B00892E0A000621002010B503F05B
:10305000EDFB034630B1BDE8104001210020024ADB
:1030600000F0E0BC10BD00BFFF670B0001234FF470
:103070008072006803F0EEBB70B5002205460D219A
:103080000E4803F089FB0646A8B90C4803F06FFB15
:1030900010F0040407D001213046094A00F0C2FCB8
:1030A0000120287070BD01212046064A00F0BAFCBC
:1030B00001202C70F6E70020F4E700BF000A0E4064
:1030C00020670B0031670B00024B186CC0F3032024
:1030D000704700BF00090E4008B5FFF7F5FF09284B
:1030E0000CBF8320842008BD022208B538B10B2113
:1030F000044803F051FBB0FA80F0400908BD0C21F0
:10310000F6E700BF000A0E400023C0E90033C0E923
:103110000233C0E90433C0E90633704708B5012122
:10312000054A002000F07EFCBDE808400121002097
:10313000024A00F077BC00BF1E680B0034680B0029
:1031400030B5304893B003F0B1F8C0B2002852D087
:1031500000252C4C2046E9B203F0B0F803024CD510
:10316000294C2146A0602748256003F0F8F8E36960
:1031700008220293A36901A905A801930BF018FC8A
:103180000022236921490393A37920468DF81C303E
:1031900063798DF81D209B1A18BF01238DF810301C
:1031A000FFF7B2FF0B681A4801330B6003990092D6
:1031B0000132D2B21E2A50F8043B1AD09942F7D1FC
:1031C0000023142203A909A88DF820300BF0F0FB8E
:1031D000694608A800F0BCFA009B63B14FF0E023F9
:1031E0004FF08052C3F8042DBFF34F8FBFF36F8FA2
:1031F00001E09942E4D013B030BD0135082DA9D1CA
:10320000F9E700BF00400B40EC2E08207C3008207E
:103210008830082030B5304893B003F047F8C0B28A
:10322000002853D000252C4C2046E9B203F046F884
:1032300003024DD5294C2146A0602748256003F0A4
:103240008EF8E36908220293A36901A905A80193F6
:103250000BF0AEFB236920460393A37920498DF838
:103260001C3001238DF81D306379003B18BF01230A
:103270008DF81030FFF748FF00234A6819480132E3
:103280004A60039900930133DBB21E2B50F8042BE4
:103290001AD09142F7D10123142203A909A88DF86D
:1032A00020300BF085FB694608A800F051FA009B1E
:1032B00063B14FF0E0234FF08052C3F8042DBFF309
:1032C0004F8FBFF36F8F01E09142E4D013B030BD58
:1032D0000135082DA8D1F9E700800B40142F0820F4
:1032E0007C300820003108202DE9F3470446427C59
:1032F000394D3A4EAF5C02EB820380683B4406EBEB
:1033000043139861E068D4F800C0D8612079910037
:10331000A0B10120C3F810C058718B183B44217C28
:1033200006EB431399717AB1012A04D001210020E0
:103330002B4A00F077FBDFF8AC8007E058712A4891
:1033400000EA8C401861E8E7DFF8A0800C27DFF87E
:10335000A0A0637C404603EB8301EB5C194406EBC1
:10336000411103F037F801288146637C14D008210D
:10337000EB5C40469940C9B202F09AFF0522617C9D
:103380006B5C0133DBB2B3FBF2F202EB82029B1AFD
:103390006B5402B0BDE8F087EA5C49460092002019
:1033A000524600F03FFB013F0520FDF745FD17F0B9
:1033B000FF07CED1494638460E4A00F033FB40465F
:1033C000617C6B5C01EB8101194406EB411102B099
:1033D000BDE8F04702F083BFE82E08203C2F08200C
:1033E0004D680B0000800B400000FC1F00400B40AC
:1033F00068680B007E680B00014803F063BB00BFE8
:103400000C2F08202DE9F041044638211A4803F01A
:1034100057FBFFF7F1FF2B2002F01AFF2246174956
:10342000174803F00FF820B101210020154A00F0E1
:10343000F9FA03254FF0FF31114802F035FF10482B
:1034400002F0EFFFA84600260F4C0D4F2046FFF775
:103450005BFEEB00093B2560214684F80480E371A4
:103460006671E6603846013502F045FF082D04F12B
:103470002004EBD1BDE8F0810C2F082000BD010530
:1034800000400B4089680B003C2F0820014803F0E6
:1034900019BB00BF342F08202DE9F0410446362126
:1034A0001D4803F00DFBFFF7F1FF2C2002F0D0FECA
:1034B00022461A491A4802F0C5FF20B10121002016
:1034C000184A00F0AFFA03254FF0FF31144802F01C
:1034D000EBFE134802F0A5FFA8460026124C104F41
:1034E00004F1A000FFF710FEEB00093BC4F8A05068
:1034F000014684F8A48084F8A73084F8A560C4F855
:10350000AC603846013502F0F6FE082D04F12004C7
:10351000E6D1BDE8F08100BF342F082000BD0105D1
:1035200000800B40A9680B003C2F08200D4838B5DF
:10353000FFF7EAFD002301250360C3600A4C0B4B33
:10354000014603610571204602F0D5FE294620465A
:1035500002F0A8FE4FF40062054B5A60F02283F897
:103560002B2338BDEC2E082000400B400000FC1F30
:1035700000E100E00D4838B5FFF7C6FD0023012546
:103580000360C3600A4C0B4B014603610571204682
:1035900002F0B1FE2946204602F084FE4FF480522C
:1035A000054B5A60F02283F82C2338BD142F0820D5
:1035B00000800B400000FC1F00E100E007B5074B56
:1035C0000122009342F2107100230548FEF7C2F871
:1035D000044B186003B05DF804FB00BF1D310A0006
:1035E000C9680B00843008200023011D02481A46D8
:1035F0000068FEF712BC00BF7C3108207FB51420A4
:10360000FDF71AFC0F4D104C4FF0FF32286801A94E
:10361000FEF790FD48B19DF81530012B05D801A8A3
:10362000FFF762FE1420FDF707FC0020FDF750FDB8
:103630006328E9D823460121044A002000F0F2F96A
:10364000E2E700BF7C310820FD680B00D0680B006A
:1036500078230C4A03FB0022002352F8040B60B1CC
:10366000A0EB010CDCF1000040EB0C000133DBB2FD
:103670001E2B01D00028F0D07047012042F8041C16
:10368000F4E700BF88300820F7B51A4F05463C78AC
:103690006CBB012623464FF496721749019400969D
:1036A0001648FDF78BF9224614211020FEF790FBF7
:1036B000134B31461860134A204600F0B3F9FFF768
:1036C0007DFF2868FFF79EFEA868FFF7E5FEFFF77D
:1036D0002DFFFFF74FFF02200B493E7000F030F83E
:1036E0000320094903B0BDE8F04000F029B803B059
:1036F000F0BD00BF78310820E4680B00FD350A00FA
:103700007C310820ED680B00E9350A0070B50446ED
:103710000D4623681BB9256070BD3446F9E7AB42FE
:10372000FAD06668002EF8D1082101200AF036FE92
:1037300008B1C0E9006660600028EAD1ECE700004B
:10374000024B03EBC000FFF7E1BF00BF5C32082073
:103750000A460146084808B500680023FEF72FFC1A
:1037600048B9064B19784A1C1A7021B9BDE80840BF
:10377000034A00F057B908BD1834082080310820EA
:103780000C690B0001460348002305220068FEF780
:1037900044BB00BF1834082010B54FF461620446E2
:1037A00000F10801D1E9000100238AB00AF072FC9F
:1037B00013430AD12822214668460BF0F9F8092361
:1037C00068468DF80030FFF7DDFF0AB010BD10B578
:1037D0003C22044600F10801D1E9000100238AB02F
:1037E0000AF058FC13430AD12822214668460BF000
:1037F000DFF8082368468DF80030FFF7C3FF0AB0F2
:1038000010BD000010B5134C8AB023785A1C132B3E
:10381000227017D90421104B104A002000F002F941
:1038200007230F4A8DF80030D2E90031CDE902318B
:10383000013341F100016846C2E90031FFF7A2FF00
:1038400000232370062368468DF80030FFF79AFFA7
:103850000AB010BD0D34082064690B00C4650B006C
:103860001034082038B503780546352B10D8094C9C
:1038700004EBC304236823B1284698476468002CEE
:10388000F8D12978044A52F82130013342F8213026
:1038900038BD00BF5C3208208431082000B50C4DD3
:1038A0000C4C8BB04FF4FA7269462868FEF742FC64
:1038B00010B16846FFF7D6FF0020FDF709FC63282A
:1038C000F0D823460121044A002000F0ABF8E9E7D4
:1038D0001834082059690B00D0680B00F7B5224F47
:1038E00001210020214B224A00F09CF83C78002C5A
:1038F00037D1224628213620FEF76AFA01251D4BD2
:103900004FF4167218601C4923461C480194009518
:10391000FDF754F84FF407630221194A009303207E
:103920004FF4D87300F07EF8164B2A4632210093EC
:1039300015482346FDF70EFF0646FDF76DF92346B1
:103940000246294630460094FDF72AFF0F491048E9
:10395000FFF7DCFE0F491048FFF7D8FE03F03AFCF2
:103960003D7003B0F0BD00BF0C34082071690B003E
:10397000C4650B001834082011690B009D380A003B
:103980001C690B0005380A0053690B00CF370A0089
:103990009432082099370A009C32082010B54FF461
:1039A0000041074802F064FE064C83B21A462046E6
:1039B000054902F071FE2046BDE8104002F078BED5
:1039C00000093D00501A0E4000600010014802F04E
:1039D0006FBE00BF501A0E404FF06043D3F8802EE8
:1039E000D2070BD5D3F8002ECA40D20706D553F81C
:1039F0002120002AFBD0C0B203F82100704700004C
:103A000005289CBF014B1954704700BF2034082083
:103A100010B5441E14F8010F00B910BD0021FFF7C6
:103A2000DBFFF7E70CB437B5114B04461B78ABB995
:103A30004FF06043D3F8003EC340DB070ED50D4B7B
:103A40001B5C8B420AD307AB6421069A0A48019398
:103A50000EF0E0FD084D15F8010B28B9002003B069
:103A6000BDE8304002B070472146FFF7B5FFF2E7EE
:103A70008A340820203408202634082070B51446E3
:103A800086B00121204604AA01F012FC022105465D
:103A900005AA204601F00CFC0023049A0646AB540C
:103AA000059A3149835428460BF09EF80446F8B134
:103AB00028462E490BF098F8002847D028462C4974
:103AC0000BF092F8002843D028462A490BF08CF8D6
:103AD00000283FD0284628490BF086F800283BD024
:103AE000284626490BF080F8002814BF0624042439
:103AF000304623490BF078F880B3304621490BF06B
:103B000073F868B3204930460BF06EF8014660B197
:103B100030461E490BF068F820B31D4930460BF0C3
:103B200063F8002814BF012104212046FFF768FF35
:103B3000184A2B46CDE90161009401210020FFF7CE
:103B400071FF0020144B187006B070BD0124CFE740
:103B50000224CDE70324CBE70524C9E70121E4E7EC
:103B60000221E2E70321E0E77C690B007F7B0B0089
:103B700084690B0089690B008F690B0093690B0046
:103B80009C690B00A3690B00A8690B00AE690B00D0
:103B9000B6690B00BC690B008A34082010B50422FA
:103BA0000124094B09481C705C70DC709A701C7110
:103BB0005C7101F051FB2146BDE810400020044B30
:103BC000044AFFF72FBF00BF20340820506A0B00C3
:103BD000446A0B00C4650B004FF0FF304FF0FF311B
:103BE000014BC3E900017047A034082001230749B5
:103BF00003FA00F0D1E90023024003EAE07052EA40
:103C0000000314BF01200020704700BFA03408202B
:103C1000012202FA00F010B5C443054BD3E90012AB
:103C200021EA000002EAE472C3E9000210BD00BF0D
:103C3000A0340820004870479034082030B50C4D5F
:103C400004462B788BB0834203D11320FFF7CEFFBD
:103C500058B11320FFF7DCFF132368462C708DF852
:103C600000308DF80140FFF78DFD0BB030BD00BF77
:103C70009034082010B58CB003F012FC8DF80A00C7
:103C800003F084FD8DF80C0003F0C8FD8DF80B00E7
:103C900003F068FFADF80E0003F058FB1D238DF80C
:103CA0000D0002A88DF80830FFF76CFD064B1C686C
:103CB000FCF7B2FF0A2302460093012100232046AD
:103CC000FDF76EFD0CB010BDA8340820FFF7D2BF81
:103CD00073B51A4D01211A4A0020FFF7A3FE03F025
:103CE0003BFB03F0F5FC03F081FD03F07DFE03F0E8
:103CF0003FFF2C7804BB134B012264210093124830
:103D00002346FDF727FD114E114B30600122FA21A9
:103D1000009310482346FDF71DFD0F4B36681860D1
:103D2000FCF77AFF0A23024600930121234630461E
:103D3000FDF736FD01232B7002B070BD9C340820C6
:103D4000606A0B00D93B0A0053690B008C340820D1
:103D5000CD3C0A006F6A0B00A83408200121002026
:103D6000014B024AFFF75EBE756A0B00C4650B008B
:103D700013B5234802F0FAFBC20704461AD5002304
:103D80000DF103011E48019302F0F9FB1D4801AB40
:103D9000012280690DF1030101F06BFC019B4BB125
:103DA0004FF0E0234FF08052C3F8042DBFF34F8F44
:103DB000BFF36F8FA3071BD5002312480193012285
:103DC000C06901AB0DF1030101F01BFD90B1019B36
:103DD0004BB14FF0E0234FF08052C3F8042DBFF3F6
:103DE0004F8FBFF36F8F9DF80310054802F0C0FBA3
:103DF00002B010BD0221024802F0B6FBF8E700BF96
:103E000000080E40D48107200121014802F0AABB1E
:103E100000080E40BFF34F8F0449054BCA6802F4F7
:103E2000E0621343CB60BFF34F8FFEE700ED00E08D
:103E30000400FA050221014802F094BB00080E407C
:103E40007FB5254B04460E4615460121234A002026
:103E5000FFF7E8FD224B1A7832B10720214904B060
:103E6000BDE87040FFF76CBC0121A26919701AB956
:103E7000602001F022FBA061E2692AB901214FF420
:103E8000807001F01AFBE0610023174A452DCDE94F
:103E90000026039305D04F2D14BF4FF400634FF459
:103EA000007302934FF48073104C0820236002F0DB
:103EB000CFF969460E4802F035FB0D4802F04FFB82
:103EC0000B4802F049FB0121094802F04BFBF023AB
:103ED00084F8083304B070BD876A0B00C4650B001A
:103EE000AC3408205D3D0A0000BD010500E100E0A2
:103EF00000080E4001210020014B024AFFF792BD4D
:103F0000D06A0B00986A0B0030B544488DB002F0BF
:103F10008AF8434B04461B78002B38D0C30718D5CA
:103F2000002301A93D48029302F08CF83D4802AB02
:103F30000122806901A901F09CFB029B4BB14FF06B
:103F4000E0234FF08052C3F8042DBFF34F8FBFF32F
:103F50006F8FA5071BD50023324802930122C06949
:103F600002AB01A901F04DFC002852D0029B4BB1DD
:103F70004FF0E0234FF08052C3F8042DBFF34F8F72
:103F8000BFF36F8F9DF80410244802F052F8264BBF
:103F90001B78002B3BD0A00405D50222234B1F48E1
:103FA0001A7002F042F861040CD51C4802F02EF899
:103FB0001E4A1F49137841F8230001331748137034
:103FC00002F033F8E2070CD5184D2B78062B08D8F1
:103FD0001749124801EB830102F034F82B780133C2
:103FE0002B70230413D5002301930F2320221049A3
:103FF00003A88DF808300AF0DBFC02A801A9FFF73E
:10400000A7FB0222094B05481A7002F00EF80DB00A
:1040100030BD0221014802F004F8B8E700800940F1
:10402000AE340820F4810720AD340820AF340820D6
:10403000B88107200121014801F0F1BF008009404B
:104040000221014801F0EBBF0080094070B52B4B05
:1040500015461A7804460E4686B012B9284A1278D8
:1040600032B10720274906B0BDE87040FFF768BBB2
:104070000121826919701AB9602001F01EFAA0614D
:10408000E2692AB901214FF4807001F016FAE0616B
:104090001D4801F04BFF03211B4801F0C2FFC02364
:1040A000452D0096019304D04F2D24D04FF400638A
:1040B00000E00023029300234FF40035134C11203D
:1040C000CDE90333059302F0C3F86946104A0E4860
:1040D00001F040FF0C48256001F09EFF0A4801F006
:1040E00098FF0121084801F09AFFF02384F811336A
:1040F000256006B070BD4FF40073DBE7AE340820D6
:10410000AD340820F53E0A000080094000E100E0DF
:1041100000BD0105F8B52C4B04461A7812B92B4A9C
:1041200016782EB1BDE8F84007202949FFF708BBF3
:104130000125284815701E7001F0F8FE032125485E
:1041400001F06FFF112002F083F8224801F059FFBF
:104150002146214A1F4801F01BFF044630B1294681
:1041600030461E4ABDE8F840FFF75CBC4FF400370C
:10417000184801F046FF174801F023FF154801F0E9
:1041800025FF2146134801F026FF2146114801F082
:1041900029FF134E04210F4801F02BFF29460D483B
:1041A00001F009FF0B48376001F036FF4EF20101C4
:1041B000084801F034FFF023294686F811332046E1
:1041C000084A3760CEE700BFAE340820AD3408207F
:1041D000F53E0A000080094000BD0105B46A0B00ED
:1041E00000E100E0C26A0B0001210020014B024AFD
:1041F000FFF718BCE46A0B00986A0B0013B523485C
:1042000001F011FFC20704461AD500230DF1030186
:104210001E48019301F016FF1D4801AB0122806981
:104220000DF1030101F025FA019B4BB14FF0E023A2
:104230004FF08052C3F8042DBFF34F8FBFF36F8F41
:10424000A3071BD50023124801930122C06901ABCB
:104250000DF1030101F0D5FA90B1019B4BB14FF084
:10426000E0234FF08052C3F8042DBFF34F8FBFF30C
:104270006F8F9DF80310054801F0DBFE02B010BD02
:104280000221024801F0CDFEF8E700BF00C009405E
:10429000148207200121014801F0C1BE00C009407D
:1042A0000221014801F0BBBE00C0094070B52A4B95
:1042B00015461A7804460E4686B032B107202749C3
:1042C00006B0BDE87040FFF73BBA01218269197062
:1042D0001AB9602001F0F1F8A061E2692AB9012160
:1042E0004FF4807001F0E9F8E0611D4801F01EFE16
:1042F00003211B4801F095FEC023452D0096019334
:1043000024D04F2D24D04FF40063029300234FF4A8
:104310008025144C1220CDE90333059301F098FF5A
:104320006946114A0E4801F015FE0D48256001F05E
:1043300073FE0B4801F06DFE0121094801F06FFE8C
:10434000F02384F81233256006B070BD0023DCE74B
:104350004FF40073D9E700BFB0340820E9410A00E8
:1043600000C0094000E100E000BD0105012100207E
:10437000014B024AFFF756BBF86A0B00986A0B0024
:1043800013B5234801F04FFEC20704461AD5002397
:104390000DF103011E48019301F054FE1D4801ABCD
:1043A000012280690DF1030101F063F9019B4BB11A
:1043B0004FF0E0234FF08052C3F8042DBFF34F8F2E
:1043C000BFF36F8FA3071BD500231248019301226F
:1043D000C06901AB0DF1030101F013FA90B1019B2B
:1043E0004BB14FF0E0234FF08052C3F8042DBFF3E0
:1043F0004F8FBFF36F8F9DF80310054801F019FE32
:1044000002B010BD0221024801F00BFEF8E700BF28
:1044100000000A40348207200121014801F0FFBD5D
:1044200000000A400221014801F0F9BD00000A40E5
:1044300070B52A4B15461A7804460E4686B032B13E
:104440000720274906B0BDE87040FFF779B9012180
:10445000826919701AB9602001F02FF8A061E26931
:104460002AB901214FF4807001F027F8E0611D485E
:1044700001F05CFD03211B4801F0D3FDC023452D55
:104480000096019324D04F2D24D04FF40063029363
:1044900000234FF40025144C1320CDE9033305937A
:1044A00001F0D6FE6946114A0E4801F053FD0D4851
:1044B000256001F0B1FD0B4801F0ABFD0121094879
:1044C00001F0ADFDF02384F81333256006B070BD14
:1044D0000023DCE74FF40073D9E700BFB1340820B4
:1044E0006D430A0000000A4000E100E000BD010544
:1044F00013B50446C0698DF8071060B10A23012284
:104500000DF1070101F02CF8636803B198479DF89D
:10451000070002B010BD4FF0FF30FAE710B50A23D4
:104520000446C06901F01CF818B90121044AFFF7DC
:1045300079FA636813B1BDE81040184710BD00BF99
:104540000C6B0B000EB433B5114D04462868C8B18E
:104550006421FDF791FEA8B106AB4FF48071059A76
:104560000C4801930EF056F80A480AF0DDFB0949A1
:1045700002462046FFF7D2FF002328681A46194654
:10458000FDF74BFC002002B0BDE8304003B070479F
:10459000B4350820B234082010B5044C23681BB988
:1045A0000120FDF7F1FC206010BD00BFB4350820EC
:1045B000027803466AB9407D58B95A68B2F5797FE6
:1045C00007D1DB7C03F06003202B18BF012003F030
:1045D0002BBA70470346407D10B5E0B940F2E23295
:1045E0005968914217D140F271226424B3F8113016
:1045F00001215BBAC3F3CC03534349F6A342B3FB97
:10460000F4F4934288BF084602F0BAFE2046BDE8A3
:10461000104003F0DDBA10BD08B5FFF735F84FF4D0
:104620009640FFF777FD00F0E7F800F06BF900F037
:10463000D1F900F019FA012002F006FB002002F087
:10464000FBFA4FF479710020FFF702F800200949C6
:10465000FFF776F840F2E2310020FEF7F9FF002084
:104660000549FFF76DF806F00FF8BDE8084005F0C2
:10467000FDBF00BFB1450A00D5450A0008B5084B8B
:10468000187848B1074B187830B1074B187818B133
:10469000002005F0E5FF0120BDE80840FFF7CEBA95
:1046A00056820720578207205482072008B50378D6
:1046B000352B0BD106F0E8FB40B106F0A3FF012239
:1046C000034B1A70BDE8084006F0E4BB08BD00BF0C
:1046D000B83508200378072B0FD1084B084A1B7800
:1046E0000BB9137070471378042B06D8013313707D
:1046F00001210020034AFFF795B97047BA35082019
:10470000B93508202A6B0B0038B50378D3B9437D3F
:10471000C3B940F2E23342689A4213D1037C13F0EA
:10472000020310D0094B1B78042B0BD9084D2B78B2
:1047300043B9082003F03AFB0128044602D106F0F1
:1047400061FF2C7038BD024A1370FBE7B9350820B1
:10475000B8350820037870B52BBB447D1CBB40F2F4
:10476000563342689A421ED1857B90F90F3005F08E
:10477000C005002B4FF00300ACBF0226012603F05A
:1047800015FB094A35B1094B14701C70BDE8704027
:10479000FFF774BF01239842137001D19E42F5D1F7
:1047A000024A1370F2E770BD558207205482072039
:1047B0000378142B0BD1827843781AB1012A04D0E4
:1047C000FFF75CBF024A1370FAE7024AFBE7704743
:1047D00056820720578207200378282B07D1437879
:1047E000034A012113700020024AFFF71BB97047EA
:1047F000BA350820326B0B0008B514201149FEF7BA
:104800009FFF00201049FEF79BFF40F25631002029
:10481000FEF71EFF00200D49FEF792FF40F2E23145
:104820000020FEF715FF28200949FEF789FF072021
:104830000849FEF785FFBDE8084035200649FEF728
:104840007FBF00BFB1470A0055470A0009470A0069
:10485000D9470A00D5460A00AD460A0038B50378A4
:104860000D2B16D16FF47A7441F662134268111958
:104870009942214C214B0DD8012222701A70204DF3
:1048800020782B78834204D0032103F01BFA23788D
:104890002B7038BD41F27A55A2F5EA510D39A94283
:1048A00003D8032222700122E8E7B2F57A7F01D211
:1048B0000B22F7E7C268B2F5617F01D20922F1E766
:1048C0006FF4617040F24A411018884201D8052205
:1048D000E8E76FF4FA610A4440F6B6318A4201D83B
:1048E0000722DFE71A782AB100221A7023780133F1
:1048F0002370C4E72270C2E7BB350820BD3508200D
:10490000BC35082008B50D200349FEF719FFBDE8A6
:10491000084000F0CBB900BF5D480A0038B5037805
:1049200003BB437DF3B940F2EE2342689A4219D1AA
:10493000437B027B1B0403EB0263827B224C03EB71
:104940000223C27B1344012B204A0CD12370137025
:104950001F4D20782B78834204D0032103F0B2F955
:1049600023782B7038BD042B03D10323237001233C
:10497000EDE7102B01D10B23F8E7402B01D10523E4
:10498000F4E7B3F5807F01D10723EFE7B3F5803F6C
:1049900001D10923EAE7B3F5805F01D11123E5E7EF
:1049A000B3F5804F01D11323E0E7B3F5802F01D198
:1049B0001523DBE7137823B1237801332370002319
:1049C000C5E72370C4E700BFBE350820C035082006
:1049D000BF35082008B540F2EE210020FEF738FE72
:1049E000BDE8084000200149FEF7AABE1D490A00A3
:1049F00038B503780F2B1FD10179E9B9037A552B0C
:104A00001AD1037B022B17D10369027D1B029BB2D3
:104A10001343B3F5004F114C114A0ED113232370E9
:104A2000012313700F4D20782B78834204D003218B
:104A300003F048F923782B7038BDB3F5804F01D1CE
:104A40001123ECE7022B01D11523E8E7137813B10A
:104A50002378117001332370E4E700BFC1350820CB
:104A6000C3350820C23508200F200149FEF768BE73
:104A7000F1490A0010B5037886B0072B0FD10B4C13
:104A800000F01CF823685A1C0BD1206018238DF805
:104A90000030236868468DF8083008F08DFC06B0B9
:104AA00010BD9842F2D0FBF73DFEEFE75882072099
:104AB00007200149FEF744BE754A0A00084BD86B2F
:104AC000DB6B80F020001A06064BC0F34010DB6B56
:104AD00058BF40F002001B0258BF40F0040070476E
:104AE000000E0E4000100E40054A1368B3F57A6FB1
:104AF00027BF0122034B0133136028BF1A70704790
:104B0000C4350820C8350820014B1878704700BF0D
:104B1000C835082090F834300133DBB2032B88BF4E
:104B2000002380F8343090F8343000EB430359858B
:104B300090F8293013B1013B80F82930704790F884
:104B40002900B0FA80F040097047438E0B445B089F
:104B5000438670470A090A2A38BF0A22438E8B42CD
:104B600034BFCB1A5B1A9A42D4BF00200120704791
:104B700038B5037F04460D46C3B10129006A0AD047
:104B8000022914D0012100F0A9FA0121606A00F085
:104B9000A5FA032506E0002100F0A0FA0021606AD2
:104BA00000F09CFA0523657784F8293038BD01218F
:104BB000F2E7027F034662B390F829204ABB427FA6
:104BC000022A0FD0032A1CD0012A22D190F83420C7
:104BD00000EB4202528DB2F5206F1AD9022118461D
:104BE000FFF7C6BF90F8342000EB42035B8DB3F5AE
:104BF000407F01D20121F3E7B3F5246F09D90321E6
:104C0000EEE790F8342000EB4202528DB2F5407F7F
:104C1000E4D37047437F022B05D0032B05D0012B33
:104C200005D10068704740687047806870474FF052
:104C3000FF3070472DE9F843836904465A1C22D09F
:104C4000406900B3B0FBF3F0013008F077FF06468F
:104C50000F4625696B1C19D0284608F06FFF804667
:104C6000E0688946284408F069FF02460B46404642
:104C7000494609F007F902460B463046394609F025
:104C800001F9BDE8F8830026024FE2E70022014B5C
:104C9000F3E700BF0000F03F438D828D1A44C38DBF
:104CA000008E13441844800870470000F7B5284F61
:104CB0003D78002D4AD10121264B274A2846FEF790
:104CC000B1FE264800F0C0F9254800F017FA00F0C0
:104CD000A5FA044640B1012827D0294628461D4B95
:104CE000204AFEF79FFE11E001221F4B1146009360
:104CF00003461E48FCF72EFD0546FBF78DFF0121FC
:104D00000246234628460091FCF74AFD01233B70EA
:104D100000F05EFA03211148FFF72AFF0321104833
:104D200003B0BDE8F040FFF723BF114B0246014638
:104D300000930E482B46FCF70DFD0646FBF76CFF73
:104D40002B460246214630460094DDE703B0F0BD15
:104D5000C93508207B6B0B00C4650B00CC350820DF
:104D6000083608205A6B0B00754D0A00526B0B0079
:104D7000114F0A002DE9F04F85B000F063F90028CB
:104D800000F0B0805E4FFFF7AFFE3B78002B00F0E5
:104D9000AC8000F0FBF901465A48FFF7BBFE5948CA
:104DA000FFF707FF5748FFF7CAFE564C002800F0F0
:104DB000908004F13C00FFF7C2FE002800F08980DB
:104DC0002046FFF727FF82462046FFF765FF06468D
:104DD00004F13C00FFF760FF05461FFA86F84146E4
:104DE00020461FFA85F9FFF7B0FE494604F13C0062
:104DF000FFF7ABFE41462046FFF7ACFE8046494632
:104E000004F13C00FFF7A6FEB8F1000F5CD00028CB
:104E10005AD02046FFF70EFF804606FB0AF089466F
:104E200008F08CFE002282468B46374B40464946AE
:104E300008F0FEFE80463046894608F07FFE0246B6
:104E40000B464046494608F03BFD02460B4650469D
:104E5000594609F017F809F0FDF80126009004F111
:104E60003C008DF80460FFF7D5FE824604F13C005B
:104E7000FFF7E0FE80460AFB05F0894608F05EFE7B
:104E80000022214B82468B464046494608F0D0FE20
:104E900080462846894608F051FE02460B464046A9
:104EA000494608F00DFD02460B465046594608F0AB
:104EB000E9FF09F0CFF88DF80C600290FFF724FEAF
:104EC00010B1684600F0AEF8052384F8293084F864
:104ED00065303B788BB10D4800F06CF93B7883F07E
:104EE00001033B7005B0BDE8F08F00F059F90146B1
:104EF0000648FFF70FFE054852E70248ECE700BFFF
:104F000044360820CC3508200000B0400836082080
:104F10002DE9F04F87B000F095F8002866D03C4EA0
:104F2000FFF7E2FD3378002B63D000F02FF9014644
:104F30003848FFF7EFFD3748FFF701FE354C0028F2
:104F40004BD004F13C00FFF7FAFD002845D000F0FB
:104F500065F9012852D12046FFF79EFE05462046FE
:104F6000FFF768FE40F6E44B40F6FF7A804689463C
:104F70000BFB05F0B0FBFAF008F0E0FD42464B46B3
:104F800008F056FE09F066F80027029004F13C0094
:104F90008DF80C70FFF780FE054604F13C00FFF72A
:104FA00049FE804689460BFB05F5B5FBFAF008F093
:104FB000C5FD42464B4608F03BFE09F04BF88DF824
:104FC00014700490FFF7A0FD10B102A800F02AF8B9
:104FD000052384F8293084F865303378B3B10E485E
:104FE00000F0E8F8337883F00103337007B0BDE8D0
:104FF000F08F00F0D5F8014607489AE700210090AD
:10500000064B0846064AFEF70DFDE6E70148E7E7CE
:1050100045360820CC35082008360820AE6B0B003A
:105020008A6B0B000D2300B58BB00146102201A83E
:105030008DF8003009F0BCFC6846FEF7A3FB0BB00E
:105040005DF804FB01F07CBD10B5044600F0E6F805
:1050500048B1012829D0BDE8104000211C4B08466A
:105060001C4AFEF7DFBC4FF42A7240F68C7346F6FA
:105070004C51C4E9002340F6E443C4E902134FF065
:10508000FF334FF0210C23612023C4E908C340F211
:1050900001330222A383104B1A6301221A630523F2
:1050A00084F829300A23A36310BD4FF0FF33C4E90D
:1050B0000033A36040F6E443C4E903334FF47F4375
:1050C000A383052384F829300A23A363C3E700BF21
:1050D000DC6B0B005A6B0B0000100E4001224309E1
:1050E00003F5001303F2077300F01F005B0202FADE
:1050F00000F009B1186370475863704710B5044653
:1051000000F08CF848B1012827D0BDE810400021FC
:105110001B4B08461B4AFEF785BC4FF42A7240F62B
:105120008C7346F64C51C4E9002340F6E443C4E9CD
:1051300002134FF0FF33232223612223C4E9082303
:1051400040F201330822A3830F4B1A6304221A632F
:105150000523A06384F8293010BD4FF0FF33C4E964
:105160000033A36040F6E443C4E903334FF47F43C4
:10517000A383052384F829300023A363C5E700BF78
:10518000C86B0B005A6B0B0000100E400A2108B5CB
:10519000024801F04BFA80B208BD00BF00000C408D
:1051A000002108B5024801F041FA80B208BD00BFF5
:1051B00000000C4010B5054C90F83810204601F066
:1051C00031FA2046BDE8104001F029BA00000C4039
:1051D00010B5104C252001F03BF84FF400234FF49C
:1051E000FA3220460C4901F0EDF901234FF4401248
:1051F0000021204601F006FA204601F01EFA204662
:10520000002101F0F8F92046BDE810400A2101F024
:1052100009BA00BF00000C4000BD0105014B187821
:10522000704700BF4636082010B5094C0A4623686F
:105230000BB9084B236023681B68596809F0D0FD3F
:10524000236858682060003818BF012010BD00BFD7
:10525000483608206082072038B5054648B94FF027
:10526000A00383F31188BFF36F8FBFF34F8F00BF8D
:10527000FDE70820FCF718FC044648B94FF0A003EE
:1052800083F31188BFF36F8FBFF34F8F00BFFDE72C
:10529000FBF792FA00236360044B25601A681C60D8
:1052A0005460FBF799FA012038BD00BF5C820720EB
:1052B000002330B513608B420DD00478054614F0FE
:1052C000DF0F00F10100F8D12C782846202C05F1E1
:1052D0000105F9D00CB9002030BD01339942EAD163
:1052E000411E11F8014F136814F0DF0F02D1002B9B
:1052F000F2D1F0E701331360F3E782684368006896
:105300001344181A824298BF801A704793422DE9BD
:10531000F84328BF13460646894690461C46002B94
:105320003ED0056883685F1BA74228BF2746BA4264
:1053300009D24FF0A00383F31188BFF36F8FBFF33F
:105340004F8F00BFFDE7EA19934209D24FF0A00347
:1053500083F31188BFF36F8FBFF34F8F00BFFDE75B
:1053600081693A464846294409F022FBBC4211D9DA
:10537000A04509D24FF0A00383F31188BFF36F8FCC
:10538000BFF34F8F00BFFDE7B169E21B09EB0700D8
:1053900009F00EFBB3682544AB4298BFED1A3560A7
:1053A0002046BDE8F8832DE9F0410E46044655211C
:1053B000304690461F4609F071FBB042054609D0C1
:1053C0004FF0A00383F31188BFF36F8FBFF34F8FAC
:1053D00000BFFDE724220021204609F05FFB9DF875
:1053E0001830C4E90287A5612377BDE8F0812DE973
:1053F000F0418368456816465F1B974228BF1746F1
:10540000EA1993420446884609D24FF0A00383F379
:105410001188BFF36F8FBFF34F8F00BFFDE7806927
:105420003A46284409F0C4FABE4212D9A368F21BD6
:105430009A4209D94FF0A00383F31188BFF36F8F0D
:10544000BFF34F8F00BFFDE7A06908EB070109F02C
:10545000AFFAA36835449D4228BFED1A3046656017
:10546000BDE8F08137B504460D46019203B3017FD4
:10547000C9070FD49A4294BF01920193019A92B93D
:105480004FF0A00383F31188BFF36F8FBFF34F8FEB
:1054900000BFFDE7069A93420DD304220DEB0201F3
:1054A000FFF7A5FFEAE729462046FFF7A0FF0346DE
:1054B000184603B030BD0023FAE7012AF7B50446C9
:1054C0000F4615460BD1042815D84FF0A00383F3DF
:1054D0001188BFF36F8FBFF34F8F00BFFDE748B94F
:1054E0004FF0A00383F31188BFF36F8FBFF34F8F8B
:1054F00000BFFDE70025BC4209D24FF0A00383F3B3
:105500001188BFF36F8FBFF34F8F00BFFDE704F12A
:105510002500FCF7C9FA064648B1012F3B46009525
:1055200038BF0123621C00F12401FFF73CFF304625
:1055300003B0F0BD034648B94FF0A00383F31188D0
:10554000BFF36F8FBFF34F8F00BFFDE78268006826
:105550005B6810440138C01A824298BF801A7047B5
:105560002DE9F04387B0044616468846039349B9AF
:105570004FF0A00383F31188BFF36F8FBFF34F8FFA
:1055800000BFFDE748B94FF0A00383F31188BFF3D4
:105590006F8FBFF34F8F00BFFDE7037FDB070DD594
:1055A00002F104094A450AD34FF0A00383F311889E
:1055B000BFF36F8FBFF34F8F00BFFDE79146039B93
:1055C0002BBB2046FFF7B6FF05462B463246414629
:1055D0002046CDF80090FFF745FF054698B12046DC
:1055E000FFF78BFEE36898420DD3FBF70DFB2369B1
:1055F0003BB1002320691A461946FBF7DDFE002364
:105600002361FBF7A1FB284607B0BDE8F08304A89F
:10561000FBF7F0FCFBF7D0F82046FFF78BFF814546
:10562000054623D90020FBF7CBFF67694FB14FF048
:10563000A00383F31188BFF36F8FBFF34F8F00BFB9
:10564000FDE7FBF755FD6061FBF7C6F839463A46C2
:105650003846039BFBF76CFE676103A904A8FBF7C0
:10566000F3FC0028D6D0002DABD0AEE7FBF7B4F8A2
:10567000F9E7F7B5044615461E4649B94FF0A003B1
:1056800083F31188BFF36F8FBFF34F8F00BFFDE728
:1056900048B94FF0A00383F31188BFF36F8FBFF3B6
:1056A0004F8F00BFFDE7037FDB0754BF1746171D71
:1056B000FFF740FF2A46034600972046FFF7D2FE39
:1056C0000546E0B12046FFF718FEE368984216D37E
:1056D000EFF311874FF0A00383F31188BFF36F8FAF
:1056E000BFF34F8F236943B1002320691A4619463F
:1056F0000096FBF7D7FE0023236187F31188284625
:1057000003B0F0BD2DE9F743044616469946884696
:1057100049B94FF0A00383F31188BFF36F8FBFF334
:105720004F8F00BFFDE748B94FF0A00383F3118806
:10573000BFF36F8FBFF34F8F00BFFDE7037F13F001
:10574000010F14BF04270027B9F1000F26D0FBF783
:1057500033F82046FFF7D1FD8742054611D30020DC
:10576000FBF72EFF23694BB14FF0A00383F31188A1
:10577000BFF36F8FBFF34F8F00BFFDE7FBF7B8FCA0
:105780002061FBF729F8AF4212D300224B461146A5
:105790001046FBF7CDFD002320462361FFF7ADFD4A
:1057A000B842054604D80025284603B0BDE8F0837A
:1057B0007FB12B463A46204601A9D4F80090FFF766
:1057C000A5FD019BED1B9E4236BF00261E46C4F878
:1057D00000902B46324641462046FFF797FD05468E
:1057E0000028E0D0FBF710FA63693BB10023606941
:1057F0001A461946FBF7E0FD00236361FBF7A4FAA4
:10580000D2E72DE9FF470446164698460F4649B9A8
:105810004FF0A00383F31188BFF36F8FBFF34F8F57
:1058200000BFFDE748B94FF0A00383F31188BFF331
:105830006F8FBFF34F8F00BFFDE7037F13F0010FA2
:1058400014BF4FF004094FF00009FFF756FD8145E2
:10585000054604D30025284604B0BDE8F087B9F119
:10586000000F10D003464A46204603A9D4F800A0F2
:10587000FFF74CFD039BA5EB09059E4236BF0026B2
:105880001E46C4F800A02B46324639462046FFF794
:105890003DFD05460028DDD0EFF311864FF0A00353
:1058A00083F31188BFF36F8FBFF34F8F63694BB1E1
:1058B000002360691A461946CDF80080FBF7F2FD17
:1058C0000023636186F31188C5E7012200F01F03FE
:1058D0009A40430903F5001303F207735B020807BC
:1058E0004CBF5A661A665A655A62C3F8802011F096
:1058F000010F196F14BF0A4321EA02021A677047A9
:105900004FF4003208B5074B00215A604FF4802253
:1059100011205A60FFF7D9FFBDE80840002112208E
:10592000FFF7D3BF000E0E402DE9F84F4FF00108EE
:105930000226B54D0B2000F08BFC0C2000F088FCFB
:105940006E614046C5F8A0600021C5F81080C5F81A
:10595000A0806E60C5F80480FFF7B7FF00210846FD
:10596000FFF7B3FF4FF400434FF48042A74C0021F0
:1059700063612F20C4F8A0302261C4F8A0206360C6
:105980006260FFF7A2FF00212E20FFF79EFF4FF479
:1059900000774FF4807E4FF480024FF0807308212F
:1059A0004FF4806A4FF4006B23610846C4F8A030BE
:1059B00023632261C4F8A0202263C5F814E0C5F86F
:1059C000A0E02F61C5F8A070C5F804E06F60FFF794
:1059D0007CFF08210920FFF778FFC5F814A0C5F85F
:1059E000A0A0C5F810B0C5F8A0B0C5F804A0C5F8CF
:1059F00004B04FF4805B08210A20FFF766FF0821FE
:105A00000B20FFF762FFC5F814B00021C5F8A0B065
:105A10000C20C5F804B0FFF758FF4FF400510D20DB
:105A20002961C5F8A01069600821FFF74EFF4FF407
:105A300000134FF4801A63610021C4F8A0303520B0
:105A40006360FFF742FFC4F810A008213420C4F8B7
:105A5000A0A0C4F804A0FFF738FF4FF04009FFF7FB
:105A60004FFF26612023C4F8A060042026634FF076
:105A700000710826C4F81080C4F8A080C4F83080F3
:105A80002661C4F8A06026632061C4F8A0002063EA
:105A9000C4F810900320C4F8A090C4F810B0C4F863
:105AA000A0B02761C4F8A0702361C4F8A0302161C0
:105AB000C4F8A010C4F83490C4F834B067636363CA
:105AC000616331466E61C5F8A060FFF7FEFE276195
:105AD000C4F8A07067604FF4803741462920FFF773
:105AE000F4FE31466F611020C5F8A070FFF7EDFE9F
:105AF000314667613020C4F8A070FFF7E6FE4FF42E
:105B000000274FF4804220234FF4003104204FF04F
:105B100080086161C4F8A01068613146C5F8A00032
:105B2000C5F810A00520C5F8A0A0C5F834A02F61C5
:105B3000C5F8A0706F632A61C5F8A0206A636B6125
:105B4000C5F8A030FFF7C1FE31460720C5F8148024
:105B5000C5F8A080FFF7B9FE4FF400014FF48002B2
:105B60004FF080731020C5F810901E46C5F8A09025
:105B70002861C5F8A0002961C5F8A0102A61C5F800
:105B8000A0202B61C5F8A0304FF4005327614FF4DB
:105B9000807EC4F8A0704FF4806AC4F810804FF47F
:105BA000006BC4F8A080944623614FF48022C4F8AF
:105BB000A0304FF080632261C4F8A020C4F810E048
:105BC000C4F8A0E0C4F810A0C4F8A0A02361C4F8F1
:105BD000A030C4F810B0C4F8A0B0C5F83490686321
:105BE00069634FF40051C5F834C06E636763C4F84D
:105BF000348061636263C4F834E0C4F834A0636342
:105C0000C4F834B0BDE8F88F000E0E4000100E400E
:105C10002DE9F84F0B2000F01BFB0C2000F018FBC7
:105C200001260222AC4D30466A610021C5F8A02051
:105C30002E61C5F8A0606A606E60FFF746FE002125
:105C40000846FFF742FE4FF480494FF40043A34C4F
:105C5000002163612F20C4F8A030C4F81090C4F86C
:105C6000A0906360C4F80490FFF72FFE00212E205F
:105C7000FFF72BFE4FF4007A4FF080774FF4800847
:105C80004FF400634FF480724FF4806127614FF44A
:105C9000805BC4F8A0702763C4F81080C4F8A080AB
:105CA000C4F830806A61C5F8A020C5F810A04FF490
:105CB0000052C5F8A0A0C5F830A06961C5F8A010D1
:105CC0002B61C5F8A0302B634FF40033C5F814B036
:105CD0000821C5F8A0B011202A61C5F8A0202A63C8
:105CE0006B61C5F8A030FFF7F0FD4FF4802008216C
:105CF0006861C5F8A0001220FFF7E7FD02224FF00F
:105D0000400C22614FF00050C4F8A02022632661AD
:105D10000422C4F8A060266308262661C4F8A060A7
:105D200026632261C4F8A02022636863C4F834B0FB
:105D30002861C5F8A000C4F810C04FF00070C4F886
:105D4000A0C0C4F810B0C4F8A0B04FF0200BC4F845
:105D500010A0C4F8A0A0C4F810B0C4F8A0B020618E
:105D6000C4F8A000C4F834C0C4F834A04FF4803A9A
:105D7000C4F834B031466063C5F814A01020C5F8EB
:105D8000A0A0FFF7A2FD3146C4F814A03020C4F84B
:105D9000A0A0FFF79AFD31466E610320C5F8A06010
:105DA000FFF793FD4FF40033042263614FF4002AA0
:105DB000C4F8A0304FF480136A61C5F8A0202B61AD
:105DC000C5F8A0306B63C5F810A0C5F8A0A0C5F851
:105DD00034A0C5F81090C5F8A090C5F834904FF0E5
:105DE0008009C5F814B0C5F8A0B04FF4000B3146D7
:105DF0000520FFF76AFD31460720C5F81490C5F865
:105E0000A090FFF762FD31463720C4F814B0C4F803
:105E1000A0B0FFF75AFD4FF0400C4FF40050C5F80A
:105E200010C01022C5F8A0C066464FF4802C2A612D
:105E30004FF08063C5F8A0204FF4806EC5F810B015
:105E40004FF40061C5F8A0B0C5F81080C5F8A08077
:105E50002F61C5F8A070C4F810A0C4F8A0A0C4F8C1
:105E60001090C4F8A0902061C4F8A000C4F810C03D
:105E7000C4F8A0C04FF4807CC4F810C0C4F8A0C01F
:105E8000C4F810E0C4F8A0E02361C4F8A030216198
:105E9000C4F8A0106E636A63C5F834B0C5F83480E6
:105EA0006F63C4F834A0C4F8349060634FF480206A
:105EB0006063C4F834C0C4F834E063634FF4004353
:105EC00061636B61C5F8A0304FF400136B61C5F8D6
:105ED000A030BDE8F88F00BF000E0E4000100E404D
:105EE000B2EB011F30B52CBF1024082461434B08CE
:105EF00003EBC202B2FBF1F24FF6FE73D1084D1E66
:105F00009D4210D8082C08BF43684FEA024202F4B1
:105F1000E02208BF43F4002342EA010208BF4360C5
:105F20000262002030BD0120FCE70000084BC0F8F1
:105F3000E4300023436043628362882303602423A8
:105F400003604FF4807303604FF4002303607047D5
:105F50000041535570B5FFF7E9FF00230B4E05468E
:105F60000C46336009B9012070BD0968FFF7B8FF1E
:105F70000028F8D1D4E90132134322691343E268BF
:105F800013436A68336013436B60EDE74C360820B7
:105F900010B5FFF7CBFF1023036040230360436875
:105FA00023F00F0343F00B034360FFF799FF003822
:105FB00018BF012010BD436D23F003030B4343655D
:105FC0007047436D23F0040343657047436D23F02E
:105FD000080343657047436D23F0100343EA011340
:105FE00043657047436D23F0200343EA4113436543
:105FF0007047436D013923F47F4343EA012343652E
:106000007047436D23F4803343657047806DC0B2A1
:10601000704740230360704710230360704781601E
:106020007047C1607047406970474FF480730360E8
:10603000704743699B0743BFC1F30801C16100205A
:10604000012070474369DB0743BF83690020C3F326
:106050000803012048BF0B60704700000E4B1A6B0D
:1060600022F003021A6340F60102996E09070BD56C
:106070001A6B22F07002104340F601021863996E09
:10608000090705D500207047013AEED1012070477D
:10609000013AF4D1FAE700BF00060E400F4B1A6B2D
:1060A00022F0030242F001021A6340F60102996EE7
:1060B00009070BD51A6B22F07002104340F601025B
:1060C0001863996E090705D500207047013AEED193
:1060D00001207047013AF4D1FAE700BF00060E40F4
:1060E0000F4B1A6B22F0700202431A6340F6010252
:1060F000996E08070CD51A6B22F0030242F00202D7
:106100001A6340F60102996E090705D50020704711
:10611000013AEDD101207047013AF4D1FAE700BF0E
:1061200000060E40054B586A10F080001EBFA3F514
:10613000A053986EC0F3C010704700BF001A0E4005
:10614000164A136A13F0010F136A1FD0002123F4BB
:106150005C1323F07803184340F45C1040F008000F
:106160001062936E9B03FCD5136A23F09B7323F498
:10617000803343F45C13136239B1136A23F45C1364
:1061800023F0010343F45C13136270470449194080
:10619000044B0843034301211362E2E700060E406B
:1061A0008600C8FF09FF3700044A136A23F45C1312
:1061B00023F0780343F45C131362704700060E402B
:1061C000034A136A23F0030343F45C13136270471A
:1061D00000060E400F4A30B1136A0F4919400F4BA9
:1061E0000B4313627047106A0B0220F45C119BB2E0
:1061F00021F003010B4343F45C1343F001031362EA
:10620000936EDB07FCD5136A43F09B7343F4803332
:10621000E7E700BF00060E40FCFFC8FE02003701A2
:10622000024B986E00F48030704700BF00060E40AD
:106230004FF00052014B9A62704700BF00060E40BB
:10624000024B986E00F00200704700BF00060E403F
:106250002C2818D81F284FF001030C4A08D8916940
:1062600003FA00F030EA010300D01061002070470B
:10627000D2F80811203803FA00F030EA0103F5D013
:10628000C2F80001F2E70120704700BF00060E408F
:10629000034BC0F312001A6F10431867704700BF1A
:1062A00000060E404160704781607047006970478A
:1062B000436A23F0FF030B434362704700EB411036
:1062C000D0F8100270478B790A781B0403F470230E
:1062D00043F4000300EB4210C0F81C3270478B7986
:1062E0000A781B0403F4702343F4800300EB42108C
:1062F000C0F81C32704710B50A780B79520110446F
:1063000063B9C0F80032C0F80432C0F80832C0F8EF
:106310001432C0F81832C0F81C3210BDD0F8002278
:10632000CC7922F4702242EA0442C0F80022D1E97A
:106330000342497981B144F00054C0F8044242F06C
:106340000052C0F80822D0F8002222F0E06242EAAF
:106350000363C0F80032E0E7C0F80442F1E770B52B
:106360008C680A7804F0C073B3F1C07F14BF0025B5
:106370000225530100EB4212D2F80C62C4F303442D
:106380008C71042C26F060464E61D2F8146288BFEE
:10639000D2F818228E6188BFCA61C218D2F81022C2
:1063A00003448A60D201D3F80822D3F8083248BFE8
:1063B00045F0040512F000521DBF23F060430B614D
:1063C00001239B0C12BF4B710B614A71FFF77BFFDE
:1063D000284670BD0B7830B55C0100EB4313D3F851
:1063E00010228A6012021AD54D790A690DB142F065
:1063F0000052C3F808228B690219C2F814328B7953
:106400002044042B88BFC9694FEA034303F4702377
:1064100088BFC2F81812C0F81C32002030BD01201D
:10642000FCE730B50024054689B08DF8044000949F
:10643000694628460134FFF75EFF082CF7D109B002
:1064400030BD0000F8B546F2A813044603FB02F085
:106450000B18013BB3FBF0F3802B01D90020F8BDF2
:106460004FF4FA505043B0EB510FF7D84FF47A7312
:10647000082653434FF0FF373246B1FBF0F5802D2D
:1064800006D800FB1515BD4202D23DB12F46164677
:106490000132D2B21A2A1844EFD132465343B1FB2B
:1064A000F3F1C9B20129D9D906202368083A23F0AB
:1064B00001032360194B013900FB023293785078B5
:1064C000013B01381B01000200F4E06003F070039F
:1064D0000343D07812790138013A00F00700120323
:1064E000034302F440520904134301F4FE010B4339
:1064F00020466361FFF795FF0020236843F0010306
:106500002360074B22690130920202D49842F9D1EC
:10651000A4E7C01A18BF0120A1E700BF386C0B0028
:10652000A0860100AC2310B50360D1E90032B3FBB3
:10653000F2F34FF6FE721B095C1E94420AD8036206
:106540008B68436040F20223C0F82031502303607F
:10655000002010BD0120FCE7502303607047AC23EE
:106560000360704781607047C16070474069704741
:1065700043699B0746BFC161002001207047436902
:10658000DB0743BF836900200B7001207047D306EF
:106590000ED59306C0F8B0104CBFC0F8D410C0F8A8
:1065A000D01053064CBFC0F8C010C0F8C4107047DC
:1065B000C0F8B4107047C36C016470474164704701
:1065C000C06C704730B50446012040F202252060BF
:1065D00052000020B1FBF2F16060C4F82051C4F811
:1065E0000401C4F814016568013909021D4389B228
:1065F0002943616030BD4368090101F0100119436E
:106600004160704710B50906446801F0706121438C
:106610001B07114303F040531943416010BD02238F
:106620000360704701238B40036170470F299ABFB5
:10663000503050F8210000207047036C43F0807305
:1066400003647047014B800018587047901A0E4041
:10665000014B800019507047901A0E40014B0360A7
:10666000704700BF050000A5406800F4E060704777
:10667000084BB3FBF1F18142C1EB013306D88342F1
:1066800004D3B0FBF1F0C0F30B0070474FF6FF707E
:10669000704700BF0020A10710B5044CC2F30B02E5
:1066A00004EA034414430C43446010BD0000FF0F90
:1066B000034B984202BF034A503B1A65704700BF24
:1066C000501A0E40010000A54068044BC0F30B00B7
:1066D000C001B0FBF1F05843704700BF40420F00CB
:1066E000144B07B5DA6AD00742BF01219962196AD3
:1066F000910742BF022199621B6AD30544BF4FF440
:1067000080720C4B01A944BF9A621B6A0A4B18683D
:10671000FBF7B9FC019B4BB14FF0E0234FF08052E7
:10672000C3F8042DBFF34F8FBFF36F8F03B05DF835
:1067300004FB00BF00C0084050360820436801F049
:106740000F0123F00F03194341607047436801F4C0
:10675000E06123F4E063194341607047436843F408
:106760008053436070470068C0F303207047C068DF
:10677000704708B5120202F47062114314F028F950
:10678000002008BD0368090201F4706123F47063FE
:10679000194314F01DB9000038B5A1F10E03012B07
:1067A00017D9EFF3108572B6BFF35F8F00230A4C41
:1067B000C9B22370094B03EA0222114341F0B441EC
:1067C00014F00AF925B901232370BFF35F8F62B675
:1067D00038BD4FF0FF30FBE76C82072000FFFF0061
:1067E00070B50F4C26688CB206F500258D4210D886
:1067F000C6F17F4505F578052944A41B094DC1F371
:106800000F21E4B200B1056002B1118003B11C8018
:1068100070BDA1F50021044DC1F30F21E4B2F1E7F1
:10682000C88C0720000C0E40000A0E4038B5044604
:106830000D460A4601460548FFF79BFF2A462146BA
:106840000348FFF796FF002038BD00BF000A0E4046
:10685000000C0E402DE9F04F85B001930E460DF16E
:106860000A030146154603A802AAFFF7B9FF0398D9
:10687000FFF779FF062180460398FFF783FFDFF8D3
:10688000B4B0DFF8B490039835B94146FFF77AFF0A
:10689000284605B0BDE8F08FBDF80A202749C2F5AB
:1068A0008073AB421F4628BF2F468842BDF808C000
:1068B00015BFDBF800100CF5006401F5002424027C
:1068C00018BF04EB0C24DB1B21461B481FFA83FA7C
:1068D00008F06EF8BDF80A003A463146484408F020
:1068E00067F8BDF80A00524638442118484408F0B9
:1068F0005FF8114B04F58072214653F8040B043401
:10690000A2420860F8D1019B0398BDF8082073B13A
:106910000321FFF741FF0028BBD1BDF808303E44FA
:106920000133ED1BADF80830ADF80A00ABE70121EB
:10693000EFE700BFC88C072054360820000A0E403D
:10694000042330B587B004460D4600930F220E2174
:106950000B4802AB14F038F878B9042D28BF042591
:10696000234602AA04EB8505AB4201D107B030BD36
:1069700052F8041B43F8041BF6E71020F6E700BFAB
:10698000000A0E40EFF30583FCE700002C4A10B527
:10699000116B2C4B01F0030101292AD00239012986
:1069A0001DD8116ACC0148D427491960116A01F039
:1069B000700110293ED020293FD0116B01F0030156
:1069C000022901BF946A1968C4F30A4404FB011147
:1069D00009BF906A1D49C0B2B1FBF0F107E01C4944
:1069E000496A08064CBF4FF400414FF4FA41196060
:1069F0000DE0116AC90101D51649F8E7124919607D
:106A0000116A01F07001102912D02029F4D0106B06
:106A1000196800F07000702807BF0322B1FBF2F282
:106A2000126BC2F3021218BF21FA02F21A6010BDF3
:106A30000949DCE708491960BFE70649FBE700BFE1
:106A400000060E406882072000093D00001C4E0E23
:106A5000001A0E40001BB70000127A00114B124AB8
:106A60009842124B03D800211160196070471049F9
:106A7000884202D84FF48071F6E70E49884202D26C
:106A80004FF40071F0E70C49884202D84FF440718E
:106A9000EAE70A49884294BF4FF480614FF4A0614D
:106AA000E2E700BFBFEA2101000A0E40000C0E40E1
:106AB0007FF0FA020090D003FFB3C4047F4A5D0563
:106AC0000160704701210268530903F5001303F2C6
:106AD000077302F01F025B0201FA02F21A637047A9
:106AE0000D4808B5FFF7BAFF3E210020FFF772FB03
:106AF000FFF796FB0028FBD0FFF79AFB074B084AED
:106B00009A62FFF79DFB0028FBD00020FFF7E8FA10
:106B1000BDE80840FFF73ABF00BD010500060E4082
:106B2000013F06204FF00052044B1A61C3F8A02029
:106B300008B11A6370475A63704700BF000E0E40D9
:106B4000024BD86BC0F34070704700BF000E0E4080
:106B500070B5344A344C137886B001331370334B1C
:106B60001B7883B922788DF80030237968469342E8
:106B700028BF13468DF8083006F01EFC0120FFF7F1
:106B8000D1FF06B070BD4FF6FF7325689D422AD035
:106B900025BB2B460121264A2846FCF743FF284601
:106BA000FFF7C0FF01264FF6FF7365689D4205D0D1
:106BB000DDB1013D01206560FFF7B4FFF6B9237830
:106BC00022798DF80060934228BF13468DF8083073
:106BD000FCF7FCFE684606F0EFFBD2E7013D012022
:106BE0002560FFF79FFF0026DDE7012328461946B1
:106BF0000F4AFCF717FF2846FFF794FF01210D4AC3
:106C00000020FCF70FFF002368468DF800308DF858
:106C1000083006F0D1FB4FF47A70FAF70DF9F9F766
:106C200081FDAEE75D370820543708205E37082025
:106C3000A46C0B00C06C0B004FF4B472014B43F812
:106C400020207047543708204FF6FF72014B43F85D
:106C50002020704754370820014B1870704700BF40
:106C60005E37082073B5124B01210020114AFCF752
:106C7000D9FE114B1C78C4B901261E700F4B324649
:106C8000FA2100930E482346FAF764FD0546F9F70A
:106C9000C3FF23460246314628460094FAF780FD9A
:106CA0004FF6FF72074BC3E9002202B070BD00BF70
:106CB000DA6C0B00C4650B005C370820516B0A00CE
:106CC000D46C0B005437082000230246FF2180F8C3
:106CD0004630831C42F8403F03F8011B9342FBD12E
:106CE00040F29F2303800023A0F8441080F847302F
:106CF000836480F84C307047F8B500240A4D0B4E81
:106D00000B4F2978E3B2994206D8BDE8F84001213B
:106D10000020084AFCF786BE3A4601210020F35CB9
:106D2000FCF780FE0134ECE7E83808202038082022
:106D3000E66C0B00416A0B0008B5F9F73DFD002336
:106D4000054A1370054A13700122054B1A70BDE8FD
:106D50000840F9F741BD00BFCC3708207037082044
:106D60006D82072010B5124C2378022B10D8012118
:106D7000104A0020FCF756FE23780F480133237099
:106D80000023BDE810401A4619460068FBF745B8D5
:106D90000A4A01210020FCF745FE094B0021186832
:106DA000FAF7D6FFFFF7A8FFBDE81040FFF7C4BF12
:106DB000CC370820EC6C0B0064370820F66C0B0015
:106DC000C83708200023F7B5244A18461146244D39
:106DD0002E78DCB2A6423DD89F230B700223287088
:106DE000032200204B701F4B93F844401F6C8C70A3
:106DF000C6B217F806C00130BCF19F0F12BF134690
:106E000001F802C0531CBA5D08BFDBB2C6B2CA5457
:106E1000B44203F10102D2B2EAD29F208854032285
:106E2000DC1C0233DBB2CA540F4BE4B21E68F9F724
:106E3000F3FE00230246009301213046FAF7B0FC2E
:106E400022460A4B054918682C70C36803B0BDE898
:106E5000F040184702F8010B0133BAE72038082048
:106E6000E8380820D03708206C3708206037082021
:106E700030B50D4B93F844001A6C93F8451002445A
:106E80005170002193F84420CCB2A24202F10102D9
:106E900002D283F8442030BD186C0131045D855C5A
:106EA0006C408454EEE700BFD0370820094A92F8BE
:106EB0004430A3F13D01C9B2C1290AD9116C013393
:106EC000DBB282F84430C85492F84530013382F87E
:106ED00045307047D03708202DE9F047AA4E4E22A2
:106EE00030684FF4E131436988B09847A74CA84F08
:106EF00000213868FBF7C0F9F8B1A64B1B78E3B165
:106F0000FFF760FF30680A23012280690DF10B0151
:106F1000FEF7F8FB00284FD19F4B1D786A1C1A70B2
:106F2000002DE4D1FAF7D4F86328E0D801212846EF
:106F30009A4B9B4AFCF776FDD9E7DFF8689299F8FF
:106F40000030002BDED0984B0022186803A9FBF715
:106F5000F1F80028D6D08F4B1B78002BD2D0934865
:106F6000FFF7B2FE0120FFF7A1FFFE20FFF79EFF13
:106F70009DF80C00FFF79AFF9DF80C30022B13D1FF
:106F80000425DFF82CA20DF1100898F800305246C5
:106F900001210020FCF746FD013D18F8010BFFF729
:106FA00085FF15F0FF05F0D1FFF762FFFFF70AFF3D
:106FB000002389F80030A5E794F846209DF80B30AF
:106FC000002A5AD00022022B84F846200AD12046FB
:106FD000FFF77AFE012384F8493094F84830002BFB
:106FE00090D008E0032B34D194F84930002BF4D032
:106FF000012384F848300125664B1D7094F8473012
:10700000002B61D00A23009300236A481A4603210B
:107010000068FAF7C5FB94F84B30002B51D0DFF82D
:10702000988198F80030032B44D82946634A002001
:10703000FCF7F8FC002338681A461946FAF7EDFE0B
:1070400098F800302B4488F800302046FFF73CFECB
:1070500058E7062B05D1012384F84A3084F84730DD
:10706000BBE7152B03D1012384F84B30F6E79F2BA8
:1070700009D02046FFF728FEAFE79F2B03D101235D
:1070800084F84630A9E794F84420A2F13E01C9B241
:10709000C029A2D994F8491029B194F8451011B922
:1070A00084F8453099E7216C0132D2B284F844204B
:1070B0008B5492E72946424A0020FCF7B3FCFFF7C5
:1070C0001BFEFFF739FEC0E794F8452094F8441002
:1070D00015468C46D4F840E098B2844506D31EF895
:1070E00003000133412B85EA0005F5D1D6F800C035
:1070F0008A42DCF80C8038D1002D36D1314A03ABFE
:1071000010685168082203C3604603A9C04794F879
:107110004830002B99D0216C4B78022B2FD18B78E3
:10712000032B12D10C22033104A807F041FC0223E7
:1071300001218DF81C30244A9DF818300020FCF7FE
:1071400071FC03A801F036FE7FE7012100201F4AF1
:10715000FCF768FC94F84530FF2B08BF002303338D
:107160000135EDB2AB42FBDA6FE7194A03AB1068A9
:107170005168082203C3604603A9C04765E7FE2B98
:107180007FF463AFCBE700BF603708207437082077
:1071900064370820C437082069370820976D0B0032
:1071A000D0680B006D820720C8370820D037082030
:1071B000E66C0B006C370820703708201F6D0B0041
:1071C000266D0B00766D0B00456D0B00636D0B009B
:1071D0007F6D0B0073B5194E347864BB0125184BD5
:1071E000184A19491A60194823464FF4C872019485
:1071F0000095F9F7E3FB224610212820FAF7E8FD75
:10720000134B2A461860134BA021009312482346C3
:10721000FAF7A0FA114B2146186003222846FAF724
:10722000D7FD0F4B0F4918601D20357002B0BDE827
:107230007040FCF785BA02B070BD00BF6837082007
:107240006037082034820720886D0B00D96E0A0051
:10725000C8370820656D0A00916D0B006C37082057
:10726000643708207D720A00014603480023022289
:107270000068FAF7D2BD00BFC83708207FB5037891
:107280001D2B31D10023ADF8043083782BB99DF844
:10729000043043F001038DF8043043792BB99DF895
:1072A000043043F008038DF8043003792BB99DF8BE
:1072B000043043F004038DF80430C3782BB99DF8F3
:1072C000043043F002038DF804300422C3880DEB30
:1072D000020103A8ADF8063007F06AFB022302A8FA
:1072E0008DF80830FFF7C0FF07B05DF804FB000021
:1072F00038B583784478012B12D10F4A13700F4DA3
:10730000204600F097F82B78A34211D0FCF7B2FC8E
:107310007CB90B4A01210020FCF784FB2C7007E0AC
:10732000002BECD1074B1C70034B1B78002BE6D0D5
:1073300038BD054AEEE700BFEA3808206E82072014
:10734000A66D0B006F820720B56D0B00014B1878FE
:10735000704700BF6F82072008B500F075F8064936
:107360001020FCF7EDF9002000F064F8BDE80840BB
:1073700006200249FCF7E4B9F1720A00DD730A0045
:1073800070B58AB004460E46FCF754FC43780546B7
:10739000A3420FD01020FCF73BFC10236C70684612
:1073A0008DF800308DF801408DF80260FCF7EAF9A5
:1073B0000AB070BD1020FCF719FC0028EAD1F7E7ED
:1073C000112300B58BB08DF8010068468DF80030B0
:1073D000FCF7D8F90BB05DF804FB000008B50378A2
:1073E000062B07D100F00EF8054A1378042B02D8BB
:1073F0000133137008BDBDE80840FFF7E1BF00BFCF
:10740000E9380820084B30B5084CDB6B084D217873
:107410002878C3F3405341EA0302024001EA030023
:1074200029702370104330BD000E0E40EB38082049
:10743000EC3808204FF00072024B08B91A6370470D
:107440005A63704700100E404FF000720A4B1A61E9
:10745000C3F8A0201A634FF40012A3F500735A6119
:10746000C3F8A0205A665A655A62C3F880201A6F82
:1074700022F400121A67704700100E404FF4805239
:10748000024B08B91A6370475A63704700100E40E8
:10749000024BD86BC0F30030704700BF00100E40A5
:1074A000034BD86B80F48050C0F30030704700BFAE
:1074B00000100E40084B30B5084CDB6B084D2178AE
:1074C0002878C3F3004341EA0302024001EA0300C3
:1074D00029702370104330BD000E0E40ED38082097
:1074E000EF380820084B30B5084CDB6B084D21788D
:1074F0002878C3F3004341EA0302024001EA030093
:1075000029702370104330BD00100E40EE38082063
:10751000F03808204FF48052024B1A61C3F8A020C3
:10752000704700BF00100E40F8B503780446132BD7
:107530001BD12E4E43782E4F2E4D32683B702B7050
:1075400032B1012B04D1FFF7A3FF60B100233B70E0
:10755000294B2A781978914203D0002027491A70C4
:107560000870012302E03060F2E700232278062A47
:1075700001D0002B33D0214B1D4A1978147861B10A
:10758000012C2DD04CB91948016859B319490C7810
:10759000012C27D10021016019701949097839B1EE
:1075A0000124002014702146164A1870FCF73AFA9C
:1075B0002046FFF763FF14B10E4B1B7813B9002070
:1075C000FFF73AFB104D2B78A34208D0FCF752FB93
:1075D00054B90E4A01210020FCF724FA2C70F8BDA2
:1075E0000024DAE70124D8E7094AF3E7F438082051
:1075F000708207207382072072820720FA380820E1
:10760000F9380820C56D0B0071820720EE6D0B0064
:10761000FC6D0B000378152B04D14278074B12B98F
:1076200001221A7070471A78002AFBD004490A78A0
:1076300082F001020A700022F3E700BF7482072083
:10764000FA38082038B50378072B28D1144B154C8D
:107650001D78CDB9042000F0A9FB1E2804D9042010
:10766000294600F0A9FB28463C23584320600E4BD6
:107670001B78A3B10D4A1378591C022B11700ED937
:10768000BDE83840F9F74EB82368002BEFD0013B36
:107690000121074A00202360FCF7C4F9E7E738BD61
:1076A00073820720F4380820F9380820F8380820B9
:1076B0000B6E0B000122014B1A707047F93808203D
:1076C000014B1878704700BF73820720FFF7E0BEB8
:1076D00010B50E4CFFF71EFF0120FFF7CFFE21462D
:1076E0001320FCF72DF821460620FCF729F8152079
:1076F0000749FCF725F806200649FCF721F8BDE804
:10770000104007200449FCF71BB800BF29750A0088
:1077100015760A003B770A0045760A00142300B567
:107720008BB08DF8010068468DF800308DF802109E
:10773000FCF728F80BB05DF804FB08B50378062BBE
:107740000BD1FFF7B7FE0021FFF7E8FFFFF7CAFEF6
:10775000BDE808400121FFF7E1BF08BD152300B5D2
:107760008BB08DF8010068468DF80030FCF70AF800
:107770000BB05DF804FB00004022034B08B91A630C
:1077800070475A63704700BF00100E40034BD86B20
:1077900080F04000C0F38010704700BF00100E4022
:1077A0004022034B1A61C3F8A0201A63704700BF40
:1077B00000100E4038B54478094D2046FFF7DCFF35
:1077C0002B78A34208D0FCF755FA34B9054A0121B9
:1077D0000020FCF727F92C7038BD034AF7E700BFFB
:1077E00075820720346E0B00406E0B0008B5FFF762
:1077F000D7FF16200349FBF7A3FFBDE8084001208F
:10780000FFF7BABFB5770A002022034B08B91A6305
:1078100070475A63704700BF00100E40034BD86B8F
:1078200080F02000C0F34010704700BF00100E40F1
:10783000024BD86BC0F34010704700BF00100E40E1
:107840002022024B1A61C3F8A020704700100E409E
:107850004278014B1A707047FB380820032238B574
:1078600044781F4B012C1C701E4B1A7021D1FFF75E
:10787000DFFF30B31C4B1C78B4FA84F46409FFF7C3
:107880001FFF012808BF0124184D2046FFF7BCFF49
:107890002B78A34223D0FCF7EDF9012C13D1144B24
:1078A0001B78122B03D1122005F010FF8CB1114A66
:1078B00010E0FFF7BDFF0028E1D10F4B1B78002B34
:1078C000DDD00124DBE7002CF1D1094B1B78122B12
:1078D000E9D10A4A01210020FCF7A4F82C7038BD38
:1078E0007782072078820720FC38082076820720DC
:1078F000FB3808205A6E0B00FD3808204D6E0B0037
:1079000010B52B4A04461378002B3BD1294901209E
:107910000B7029490B7003231370284B1870284BE8
:107920001870FFF771FF2478072C3FD1204600F034
:107930003DFA1E2803D90021204600F03DFA06201A
:1079400000F034FA1E2803D90021062000F034FA92
:107950001B4B05201B78C3B900F028FA012804D17D
:10796000072000F023FA134B1870134A1378EBB179
:10797000013BDBB21370134A0121BDE81040002027
:10798000FCF750B8013B1370CDE700F00FFA012867
:1079900004D1062000F00AFA074B1870054A137844
:1079A00023B1013BDBB21370074AE5E710BD00BF0E
:1079B00078820720FC380820FD38082076820720CE
:1079C00077820720686E0B00926E0B0003781B2BEA
:1079D00006D14368B3F5AF6F82BF0022014B1A7026
:1079E000704700BFFC38082008B5FFF729FF1720B3
:1079F0000949FBF7A5FE07200849FBF7A1FE1B205C
:107A00000749FBF79DFE28200649FBF799FEBDE8D4
:107A100008400120FFF7F8BE5D780A0001790A00EE
:107A2000CD790A0051780A0030B58BB00446FCF7D6
:107A300001F983780546A3420DD01720FCF7E8F83A
:107A400017236846AC708DF800308DF80140FBF7C5
:107A500099FE0BB030BD1720FCF7C8F80028ECD118
:107A6000F7E7000030B58BB04FF0A00383F3118827
:107A7000BFF36F8FBFF34F8F144B15481C88154908
:107A8000027821F8124000241C8084F311880A2314
:107A900002780132D2B2B2FBF3F503FB1522027079
:107AA0000A4632F8021B013B13F0FF030C44F8D1E5
:107AB000094D2B68A34207D01C2368468DF800307F
:107AC0000194FBF75FFE2C600BB030BD003908203D
:107AD00002390820083908201C39082037B51E4D06
:107AE00044682B68A3428CBF1B1BE31A132B94BF63
:107AF000002301236BB1204606F020F80022174B2B
:107B000006F0C0F9164ACDE9000101210020FBF77B
:107B100089FF632C07D80021084600F07BF800237A
:107B20002B6003B030BD2B68A3428CBF1B1BE31A34
:107B3000312B94BF00230123002BF2D032234EF6C9
:107B40006021B4FBF3F30120B1FBF3F100F062F824
:107B5000FCF790F82C60E4E7043908200000594055
:107B6000BD6E0B00014B1868704700BF0439082038
:107B700073B5134E347804BB00F06AF81B2011492A
:107B8000FBF7DEFD104B0122642100930F482346D2
:107B9000F9F7E0FD0546F9F73FF8234602460121D3
:107BA00028460094F9F7FCFD012321462046337056
:107BB00002B0BDE8704000F02DB802B070BD00BF4B
:107BC000FE380820DD7A0A00657A0A00CC6E0B00C8
:107BD00030B58BB00446FCF72DF883680546A34208
:107BE0000FD91B1B012B0FD01B20FCF711F81B23F7
:107BF0006846AC608DF800300194FBF7C3FD0BB014
:107C000030BDE31A012BEFD81B20FBF7EFFF002854
:107C1000EAD1F4E70A4638B50B484D080C460B4943
:107C200005F026FE2A46094920B9BDE83840064835
:107C300005F02CBE044805F029FE2246BDE8384078
:107C40000249014805F014BE0040094020390820CF
:107C50001FB52420FEF7FCFA0721164805F028FE80
:107C60002420FEF7F5FA002447F23053CDE9013421
:107C7000114B104801A9039305F06CFD20B121467A
:107C800020460E4AFBF7CEFE00230D4964200B81EF
:107C900001238B720B234B6032230724C1E903308D
:107CA00004480C6005F075FD2146024805F0FCFD16
:107CB00004B010BD0040094000BD0105D26E0B00AC
:107CC0002039082070B58AB004460E46FBF7B2FF93
:107CD00003790546A34209D01820FBF799FF1B2C16
:107CE0002C710AD818238DF800300CE01820FBF70F
:107CF0007DFF0028F0D10AB070BD192305228DF850
:107D000000300F4B1A70002368468DF802308DF852
:107D100001408DF80360FBF735FD9DF80130002B25
:107D2000E9D1074C2378002BE5D0192368468DF85C
:107D30000030FBF727FD2378013B2370DBE700BF12
:107D40004839082010B5154B154C1868237888B0B1
:107D50002E2B4FF00A0300934FF0000387BF03213F
:107D60001A464FF496720421F9F71AFD17238DF87D
:107D7000083023780121DA088DF8102000920020C5
:107D8000084AFBF74FFE00238DF81130064B02A87E
:107D9000039305F011FB08B010BD00BF7C3908202B
:107DA0007A390820EE6E0B00797E0A00014B185CD0
:107DB000704700BF4A3908207FB5094B1A5C8A42D8
:107DC0000AD0195405238DF8080068468DF8003054
:107DD0008DF8091005F0F0FA07B05DF804FB00BF5C
:107DE0004A3908207FB57F2368468DF8003005F0BA
:107DF000E3FA07B05DF804FB134B73B51A7802BBC6
:107E00003024FF21114A013C14F0FF0402F8011B49
:107E1000F9D101261E700E4B32464FF4C871009303
:107E20000C482346F9F796FC0B4B05461860F8F70B
:107E3000F3FE0A2302460093314623462846F9F70B
:107E4000AFFC02B070BD00BF493908204A39082094
:107E5000457D0A00916D0B007C3908201E2300B57A
:107E60008BB08DF8010068468DF80030FBF78AFC76
:107E70000BB05DF804FB00002DE9F0411546C00091
:107E8000DFF85080144FC4B25618B54204D1012215
:107E9000124B1A70BDE8F0812F2C17DC2B78012CC7
:107EA00004F8083002D12046FFF7D8FF2F2C3C7091
:107EB00009D198F82F301BB901212046FFF77CFF2C
:107EC0000220FFF7CBFF3B7801333B7001340135D3
:107ED000DBE700BF4A3908207A3908207B390820BF
:107EE00090F80831C154013380F8083170470023FD
:107EF000FF2180F8083180F8093100F20712431E93
:107F000003F8011F9342FBD1002380F80A3180F867
:107F10000B3170470122014B1A707047143B082047
:107F2000704700000378282B02BF4278014B1A707B
:107F3000704700BFF039082003780146232B10B5A5
:107F400003D12822054806F033FDBDE81040002388
:107F500003481A4619460068F9F75FBF80390820C0
:107F6000A839082004F0A6BA03780146332B05D1BE
:107F7000034800230A220068F9F74FBF704700BF8B
:107F8000183B082003780146302B05D10348002315
:107F90000A220068F9F741BF704700BFB4390820D2
:107FA0000378292B06D1011D034800230A2200680B
:107FB000F9F733BF704700BFF4390820037810B5D4
:107FC0002B2B04460FD154F8043F0421064A02200B
:107FD000FBF728FD05482146BDE8104000230A2292
:107FE0000068F9F71ABF10BD0A6F0B00C4390820EA
:107FF000037810B5342B04460DD10121064A002028
:10800000FBF710FD0548611C0023BDE810400A2263
:108010000068F9F702BF10BD1E6F0B00AC390820D5
:10802000037813B5182B47D10222411C684606F08D
:10803000BFFC9DF8002052B923490B783BB1DC0707
:1080400041BF581C08708DF800308DF801209DF854
:108050000020D00718D51C4B1B78D90714D59A429D
:1080600012D0002401330121184A20468DF8043033
:108070008DF80540FBF7D6FC154823464FF0FF323C
:10808000006801A9F9F7C9FE9DF80030A3B10E4CB4
:1080900022789A4210D001210E4A0020FBF7C2FC40
:1080A0000B4869460023C8220068F9F7B6FE01466E
:1080B00020B19DF80030237002B010BD064A0220A6
:1080C000FBF7B0FCF8E700BFB9390820466F0B009A
:1080D000103B0820516F0B005F6F0B002DE9F04F34
:1080E00003788BB02F2B40F0FC80037C9D4C012B40
:1080F00000F0FA80022B40F02F81011D0C229A48DB
:1081000006F056FC984D63796A799909900988427E
:1081100038BF0846C3F301110490C2F3011088422E
:1081200038BF0846C2F3810EC3F38101277995F861
:1081300004C08E4502F0030203F0030338BF8E46ED
:108140009A424FEA9C1838BF1A46BB099845CCF3AF
:10815000011938BF9846C7F3011399452678CCF327
:10816000810138BF99460590C7F3810328788B4277
:108170004FEA101A38BF0B463109514500F00F0085
:1081800006F00F0628BF5146B04228BF304694F88B
:1081900001A040EA011168780AF00F0B00F00F0609
:1081A0005E4528BF5E4641EA062B06094FEA1A10D3
:1081B000B04228BF304695F802A04BEA003694F84A
:1081C00002B00AF00F000BF00F01814228BF0146F8
:1081D00046EA01404FEA1A114FEA1B1A8A4528BFA6
:1081E0008A46EE7840EA0A5194F803A006F00F00A0
:1081F0000AF00F0B58454FEA16164FEA1A1A0CF000
:10820000030C28BF584607F0030756454FEA83037F
:1082100028BF5646BC452CBF43EA0C033B4343EA08
:10822000091949EA8818059B48EA022242EA8E2E7B
:108230004EEA033E049B41EA00604EEA833E00237F
:108240008DF8243094F908309DF82420002BB4BF19
:10825000012395F9083040EA0670A8BFDB0F63F3ED
:10826000C7124FF6FF7307908DF82420BDF81C202D
:108270003E4C9A4218BF2378BDF81E201CBF43F025
:10828000020323704FF6FF739A4218BF2378ADF8AC
:1082900020E01CBF43F001032370BDF82030012112
:1082A00002939DF82430324A0193079B00200093EB
:1082B0002378FBF7B7FB2B7A01210193294B2D4A39
:1082C0001B7A002000939DF82430FBF7ABFB20784D
:1082D00004F0E2F8284800230A22006807A9F9F709
:1082E0009CFD0BB0BDE8F08F011D0C22204606F06E
:1082F0005FFB224B1B78002B3FF404AF627802F047
:108300000F031209934228BF13462278184602F041
:108310000F0113098B4228BF0B46E27811098B42EB
:1083200028BF0B4602F00F018B4228BF0B46A278F4
:1083300011098B4228BF0B4602F00F02934228BF5F
:108340001346834228BF03460F2B16BF0C4A00205A
:10835000D05C05F0C9F9D5E601210A4A0020FBF7F7
:1083600061FBCFE6E0390820D4390820B039082075
:108370008F6F0B00B56F0B00EC390820B139082066
:10838000A8720B00776F0B0003782E2B03D1417876
:108390001520FFF711BD704710B5437990F808110B
:1083A00007338B42044604D1204600F03FFE0120F3
:1083B00010BD90F80A310BB10329F5D80021054A08
:1083C0000846FBF72FFB204694F8081100F02EFE1C
:1083D0000020EDE7CE6F0B00427990F80831911D37
:1083E000994210B415D18178C378114419440379A6
:1083F000053219440623C9B2934204DDC94310BCB7
:10840000C9B2FFF76DBDC45C01332144C9B29BB250
:10841000F2E710BC70470000F8B507460E46154657
:108420001C461348FFF763FDC721FFF759FDC8211C
:10843000FFF756FD3946FFF753FD1221FFF750FDB8
:108440000021FFF74DFD0421FFF74AFD3146FFF7FC
:1084500047FD2946FFF744FD2146FFF741FDFFF7A1
:108460003FFDFFF7B9FFBDE8F840FFF795BF00BF3C
:10847000003A0820034B1A781F2A84BF01221A7081
:10848000187870470C3B082008B5FFF7F3FF013060
:10849000C0B2202828BF0120014B187008BD00BFC2
:1084A0000C3B0820BFB5A64B01224FF4FA71009394
:1084B000A4480023F9F74EF9A34CA44B0122C8218C
:1084C00020600093A2480023F9F744F9A14DA24F80
:1084D000286003F081F92668F8F79EFB0024024625
:1084E0002346012130460094F9F75AF92D68F8F730
:1084F00093FB23460246012128460094F9F750F9E0
:108500000221964A0846FBF78DFA9548FFF7EFFCE3
:10851000FFF7BAFF0146924803F0F0FE914DDFF8F5
:108520004882C8213868F9F7A7FE98F801408F4EB5
:10853000012C40F09180032102208D4AFBF772FA52
:108540003378022B7BD802218A4A0846FBF76AFA65
:10855000834B93F80821012A94BFFF239B7898F856
:1085600002209A4240F0A4807D48FFF715FF0124C5
:10857000337801333370002CD3D1002333702B7840
:108580007D4C002B00F0AA80DFF8F081D8F8003095
:10859000002B00F0A380022123680846784AFBF7ED
:1085A00041FA206803F06EFDDFF8D89106460028F6
:1085B00000F0888099F800106948B047002840F022
:1085C000B38000236F4A2B7013706C4A1360DFF87E
:1085D000B88198F80140002C40F0DC826B4E2246B6
:1085E000306803A9F9F7A6FD002800F00B819DF87B
:1085F0000C2098F800309A4200F0C382FFF744FF45
:108600009DF80C308046162B00F2AF82DFE813F0A5
:108610008F00D200C901D001D901E001E901F001C8
:10862000F90131023A020002090210021902210284
:108630002A0241024802500258029E02A60200216C
:108640000220534AFBF7EEF92B78002B95D000233C
:108650004C4A2B70137090E7022C2BD1032120463B
:108660004C4AFBF7DFF93378022B05D82146204628
:10867000494AFBF7D7F977E700212046474AFBF73D
:10868000D1F92B7813B100223E4B1A70444B1B7862
:1086900023B9FBF79BF90120FEF7CEFAFFF716F896
:1086A000044628B9FBF792F90120FEF7C5FA5FE707
:1086B00000245DE72B78002B3FF45FAF314A13783D
:1086C0000133C7E7022123680846364AFBF7AAF9B7
:1086D0002E7089F80060C8F8006078E7324B0022FD
:1086E00025491868F9F726FD00283FF470AF236884
:1086F000002B3FF46CAF02212C4A0846FBF792F99D
:10870000206803F087FC206803F0BCFC03460028C7
:108710003FF45DAF1B4A12481178984700283FF498
:1087200050AF2268154B1A6001232B70F7E6012128
:1087300000201F4AFBF776F900231A46002141E08A
:10874000157F0A00D86F0B00CC390820217F0A0062
:10875000DE6F0B00C8390820A8390820E46F0B0031
:10876000003A0820F839082080390820F13908201B
:10877000F36F0B00FA6F0B00BC390820FC3908209E
:108780004A700B00C0390820D0390820103B08205F
:1087900009700B001C700B0026700B0035700B006D
:1087A000F03908205D700B00C43908206C700B0094
:1087B0007C700B0001210020C54AFBF733F901232F
:1087C000002210214046FFF727FE002840F0D2810A
:1087D00001469DF80C30BF4AFBF724F9012305221E
:1087E000306803A9F9F719FB012100209DF80C302E
:1087F000B94A0094FBF716F9012C00F0DB81022C3A
:1088000000F0D481B54B0022186803A9F9F792FC57
:1088100048B1FFF739FE03AA0146B14803F052FF01
:1088200000287FF47CAE0022AE4B03A918680392A7
:10883000F9F780FC48B1039C3CB1FFF725FE0146E7
:10884000A748A04700287FF46AAEA74B002218680B
:1088500003A9F9F76FFC002850D0FFF715FEDDE9FA
:10886000046480469E489DF80DA09DF80E90FFF789
:108870003EFBC721FFF734FBC821FFF731FB414620
:10888000FFF72EFB4021FFF72BFB0021FFF728FB12
:10889000FFF726FB5146FFF723FB4946FFF720FB76
:1088A000304606F041FA3246C6B28D481644B2420E
:1088B00040F0848100218A48FFF712FB204606F031
:1088C00033FA2246C4B286481444944240F07B8175
:1088D000834C00212046FFF703FB94F80831063B48
:1088E0006371FFF779FD01210020804AFBF79AF8B8
:1088F0002046FFF751FD00287FF411AE7C4B00228B
:10890000186803A9F9F716FC90B39DF80D30794A61
:108910000121009300209DF80C30FBF783F8FFF74E
:10892000B3FD04466E489DF80C809DF80D60FFF77E
:10893000DEFAC721FFF7D4FAC821FFF7D1FA2146A2
:10894000FFF7CEFA2421FFF7CBFA0021FFF7C8FA90
:108950000221FFF7C5FA4146FFF7C2FA3146FFF799
:10896000BFFAFFF739FDFFF717FD00287FF4D7ADF9
:10897000614B0022186803A9F9F7DCFB48B1FFF747
:1089800083FD03AA0146564803F00CFE00287FF43D
:10899000C6AD5A4E3378002B40F01A810023337055
:1089A000BDE501210020564AFBF73CF8002307E70C
:1089B00001210020534AFBF735F801230022202132
:1089C00000E701210020504AFBF72CF80023F5E7CF
:1089D000012100204D4AFBF725F801230022042144
:1089E000F0E6012100204A4AFBF71CF80023F5E7D6
:1089F00001210020474AFBF715F801230022082136
:108A0000E0E601210020444AFBF70CF80023F5E7DB
:108A100001210020414AFBF705F8012300224021F3
:108A2000D0E6012100203E4AFAF7FCFF0023F5E7DB
:108A30003C4A01210020FAF7F5FF01230022012121
:108A4000C0E6394A01210020FAF7ECFF00231A465C
:108A5000F5E701210020354AFAF7E4FF012300225F
:108A60000221AFE601210020314AFAF7DBFF0023A3
:108A7000F5E7012100202F4AFAF7D4FF0123002255
:108A800080219FE6012100202B4AFAF7CBFF00232B
:108A9000F5E701210020294AFAF7C4FF01234CE63B
:108AA000274A01210020FAF7BDFF0023012245E6F5
:108AB00001210020234AFAF7B5FF012302223DE6F7
:108AC00001210020204AFAF7ADFF0023F6E700BF9E
:108AD00087700B00D5710B00FA710B00B4390820B8
:108AE000003A0820F4390820183B08202D720B00AA
:108AF000AC3908203E720B00EC390820143B0820EA
:108B000094700B009F700B00AC700B00B7700B00E3
:108B1000C5700B00D1700B00DF700B00EB700B0009
:108B2000F8700B0003710B0013710B0021710B0027
:108B300031710B003F710B004E710B005B710B002C
:108B40006D710B007D710B008F710B0001210020F6
:108B5000274AFAF767FF01230422EFE501210020ED
:108B6000244AFAF75FFF0023F6E703210020224A98
:108B7000FAF758FF0222214803A905F019FF012442
:108B800032E698F801309DF80D200224134488F84D
:108B9000013029E6013CE4B288F80140009401214B
:108BA000002098F80030164AFAF73CFF0A20F8F740
:108BB00043F927E63220F8F73FF9B0E412F8011B39
:108BC000FFF78EF973E612F8011BFFF789F97CE6CF
:108BD000FFF75AFC01460B4803F090FB04460A20BD
:108BE000F8F72AF900233370002C3FF4D7AE96E44F
:108BF0009F710B00AE710B00BB710B00D0390820C8
:108C00000D720B00003A0820024B00211868F9F79A
:108C10009FB800BFC439082037B5424D2C78002CCE
:108C20007ED1224602211020F9F7D2F804213E4BD2
:108C3000224618600846F9F7CBF804213B4B224640
:108C400018600846F9F7C4F8394B224618600C2121
:108C50000220F9F7BDF8374B224618600C2102209C
:108C6000F9F7B6F80221344B224618600846F9F7A6
:108C7000AFF8324B2246186009210220F9F7A8F814
:108C80002F4B4FF44872186002232E4900932E4850
:108C900023460194F7F792FE00F032FA18202B4990
:108CA000FAF74EFD34202A49FAF74AFD2B202949CC
:108CB000FAF746FD29202849FAF742FD23202749E3
:108CC000FAF73EFD28202649FAF73AFD2A202549E1
:108CD000FAF736FD2F202449FAF732FD30202349D8
:108CE000FAF72EFD33202249FAF72AFD2E202149DA
:108CF000FAF726FD03F0A0FB01200322214628708D
:108D0000F9F766F84FF0FF311B4A1C4B11601472E3
:108D100091804FF6FF721860194B19601C729A808F
:108D200003B030BDB8390820103B0820C4390820F2
:108D3000F4390820EC390820183B0820AC39082009
:108D4000B439082069720B00A5840A0021800A004A
:108D5000F17F0A00BD7F0A00A17F0A00397F0A0067
:108D6000257F0A009D8D0A00DD800A00857F0A00AC
:108D7000697F0A0089830A00E0390820A8390820A1
:108D8000D4390820292300B58BB0019068468DF8AE
:108D90000030FAF7F7FC0BB05DF804FB03782A2BE0
:108DA00005D14378182B02D10148FFF7EBBF70477C
:108DB000657F0A0000B58BB001461422684605F0B5
:108DC000F7FD2F2368468DF80030FAF7DBFC0BB077
:108DD0005DF804FB10B528248AB08DF804309DF8A6
:108DE00030308DF802008DF805309DF8343068463B
:108DF0008DF806309DF838308DF800408DF807303A
:108E00009DF83C308DF801108DF803208DF8083066
:108E1000FAF7B8FC0AB010BD00B500F00F00000270
:108E20008BB040F02D0040EA8130BDF800108DF885
:108E3000022001F440510843ADF800006846FAF7FB
:108E4000A1FC0BB05DF804FB312300B58BB08DF8AD
:108E5000010068468DF80030FAF794FC0BB05DF81D
:108E600004FB2A2300B58BB08DF8010068468DF80D
:108E70000030FAF787FC0BB05DF804FB03462C20AA
:108E800000B58DB0CDE90012ADF808008DF80B10DB
:108E90008DF80C200121064A00208DF80A30FAF7DF
:108EA000C1FD02A8FAF76EFC0DB05DF804FB00BF2F
:108EB00075720B0003464FF4967000B58DB0CDE986
:108EC0000012ADF808008DF80B108DF80C20012170
:108ED000054A00208DF80A30FAF7A4FD02A8FAF737
:108EE00051FC0DB05DF804FB87720B004FF40B7260
:108EF00000B58DB00346ADF808208DF80A00074A8A
:108F00008DF80B10009100200121FAF78BFD02A8CB
:108F1000FAF738FC0DB05DF804FB00BF99720B0046
:108F200000B58BB001460C22684605F041FD3323A5
:108F300068468DF80030FAF725FC0BB05DF804FBAD
:108F4000272300B58BB0ADF8020068468DF80030DD
:108F5000FAF718FC0BB05DF804FB152008B5FEF716
:108F600025FF122804D915200121FEF725FF012035
:108F700008BD0000034B1A781F2A84BF01221A7013
:108F800018787047303D082000230A4AFF2082F8F5
:108F9000083182F8093111464FF48473013B9BB2CA
:108FA00002F8010B002BF9D181F80A3181F80B315D
:108FB000704700BF243C0820074B587993F80821DC
:108FC0000730811A93F80A314842484113B1032A05
:108FD00088BF1846704700BF243C082038B5FFF70B
:108FE000EBFF28B1104A92F80A3113B192F80B0145
:108FF00038BDD178937850790B4406210344DBB215
:10900000441DA1420ADDDB4310448179DBB2994261
:109010000CBF0120022082F80B01E9E7555C013109
:109020002B44DBB289B2ECE7243C08202DE9F34164
:1090300000264FF0D80C34464FF0AA0E2A4BF7B258
:10904000B94201D9FD2C30D9F7F7E6FD0221264DB2
:109050000346264A0846FAF7E5FC2F460026DFF8C5
:109060009080F3B2A34236D30221224A0846FAF78F
:10907000D9FC214B224618681B49C3689847FE2437
:10908000FF23013C14F0FF0405F8013BF9D11B4B11
:109090001D68F7F7C1FD23460246012128460094CA
:1090A000F8F77EFB02B0BDE8F081825D651CC72A3F
:1090B000EDB20BD12FB103F804C003F805E02C4644
:1090C00000E01A550134E4B20136B8E7D82A1A553F
:1090D000F8D15A55F3E702214246084617F8013BFA
:1090E000FAF7A0FC0136BCE7203B0820B7720B0062
:1090F000BF720B00416A0B001C3B0820203C08207B
:1091000013B50221134A0846FAF78CFC0421124ACF
:109110000220FAF787FC1148114B4E2218604FF4D9
:10912000E13143699847002402234FF44872CDE9A6
:1091300000340C4923460C48F7F740FC0B4B224601
:109140000093A02123460A48F8F704FB094B186056
:1091500002B010BDC4720B00DB720B00D48107207B
:109160001C3B0820E9720B00F1910A0097910A005C
:10917000916D0B00203C0820232300B58BB08DF8A7
:10918000010068468DF800308DF80210FAF7FAFAFF
:109190000BB05DF804FB00210220FFF7EDBF0B23AD
:1091A00000B58BB08DF8010068468DF800308DF861
:1091B0000210FAF7E7FA0BB05DF804FB2E2300B5B6
:1091C0008BB08DF8010068468DF80030FAF7DAFAB6
:1091D0000BB05DF804FB242300B58BB08DF80100C3
:1091E00068468DF80030FAF7CDFA0BB05DF804FB55
:1091F00002212DE9F0410846BE4A86B0FAF712FC7A
:10920000C820F7F719FEFFF7BFFEBB4EBB4C306816
:109210000A23012280690DF11701FCF773FA002877
:1092200000F0A2809DF81750C72D01D1FFF7ACFECA
:1092300094F80831002B63D06278F02A78D05DD89A
:1092400002F0FD02C82A5BD1002294F8091184F8CB
:109250000A21002960D1D82D52D1012384F8093187
:10926000FFF7AAFE0028D2D0F7F7D6FC022103466A
:10927000A34A0846FAF7D6FB0025A24F94F8081136
:10928000EBB2994268D802219F4A0846FAF7CAFB16
:1092900094F80831012B04D9A3781F2B01D89B4ADD
:1092A0001370FFF789FE0028B1D00520F7F7C4FD41
:1092B00094F80A51002D60D00120FDF7BDFCFAF7AB
:1092C00085FB94F80831012B637894BFFF25A578BE
:1092D000FF2B4DD1FFF782FE012849D1FFF754FE45
:1092E00029460020FFF748FF0A23009300238848FF
:1092F0001A4603210068F8F753FA88E7FF2A17D0C7
:10930000E554013384F808312378C72B1EBF0023AE
:1093100084F808312370A3E7AA2D04D0D82D03D0F8
:1093200084F809219CE7C725002284F80921E7E792
:109330000122032B84F80A210BD1E570A278E17891
:10934000D243D2B291420CBF0122022284F80B21F7
:10935000D6E7022BD4D9F1E702213A460846E35C6E
:10936000FAF760FB013589E70220F7F765FD98E71A
:10937000FFF70AFE29460120B4E7FFF72FFE376802
:109380000128D7F8108040F0EF80FFF7F3FD014689
:10939000FFF7F0FDC343DBB2C722CDE90013384627
:1093A000FF235C49C047F7F737FC0146FFF7E2FDB2
:1093B0000746FFF7DFFDC723C243FF20CDE900309A
:1093C0000B460221D2B2CDE902720846524AFAF7A0
:1093D00029FBE378FF2B6CD0D52B5FD8B52B16D8A3
:1093E000902B63D0912B67D0002102204B4AFAF7D3
:1093F00019FB0025434F94F80811EBB2994200F293
:10940000AB800021404A0220FAF70CFB51E0A3F1A7
:10941000B6021F2AE8D801A151F822F0C5940A002B
:10942000CD940A00D5940A00E9930A00E9930A0052
:10943000E9930A00E9930A00E9930A00E9930A0014
:10944000E9930A00DD940A00E5940A00E9930A0012
:10945000ED940A0021950A0029950A0031950A0029
:10946000E9930A00E9930A00E9930A00E9930A00E4
:10947000E9930A00E9930A00E9930A00E9930A00D4
:10948000E9930A0039950A00E9930A00E9930A0072
:10949000E9930A00E9930A0049950A00E52B57D0A1
:1094A000E82BA1D1204603F031FC02E0A079FFF7C0
:1094B000D8FCFFF769FDAAE62A462946A079FFF7FE
:1094C000DDFCF6E7204603F009FBF2E7204603F057
:1094D00019FBEEE7204603F02FFBEAE7204603F0F6
:1094E00041FBE6E7204603F04FFBE2E7204603F0AE
:1094F0005DFBDEE7F4720B001C3B0820243C0820D7
:1095000006730B00BF720B00416A0B00303D082050
:10951000203C082031730B003A730B0012730B00D0
:10952000204603F073FBC4E7204603F077FBC0E757
:10953000204603F0ABFBBCE7A379E07900EB032006
:1095400080B2FFF7FDFCB4E7A079FFF744FEB0E777
:10955000204603F09DFBACE73A4600210220E35C85
:10956000FAF760FA013546E7FFF704FD0146FFF719
:1095700001FDC343DBB2C722CDE900133846F02317
:109580000C49C047F7F748FB0146FFF7F3FC0746D5
:10959000FFF7F0FCC243D2B2C723CDE90272F0223A
:1095A0000220CDE900320B46034A2946FAF73AFA7F
:1095B0007FE700BF31730B003A730B0010B5222414
:1095C0008AB08DF80430BDF830308DF8020068465E
:1095D0008DF800408DF801108DF80320ADF80630AD
:1095E000FAF7D0F80AB010BD2DE9FF4104460D4648
:1095F000FFF7B3FC0E4F0F4B53F820803B78A3B11D
:109600000D4B53F82060FEF735FF3B780146CDE95E
:10961000026300232A46009320461723CDF80480D6
:1096200003F0ABF904B0BDE8F081044BE9E700BFFB
:10963000C53E0820448B0B0008850B0070840B008E
:109640002DE9FF4104460D46FFF787FC0E4F0F4BF7
:1096500053F820803B78A3B10D4B53F82060FEF700
:1096600009FF3B780146CDE9026300232A460093B7
:1096700020461623CDF8048003F07FF904B0BDE83E
:10968000F081044BE9E700BF663D0820148A0B0017
:1096900008850B0070840B002DE9FF4104460D4640
:1096A000FFF75BFC0E4F0F4B53F820803B78A3B1C4
:1096B0000D4B53F82060FEF7DDFE3B780146CDE907
:1096C000026300232A46009320461523CDF8048028
:1096D00003F053F904B0BDE8F081044BE9E700BFA3
:1096E000533D0820D0860B0008850B0070840B00CA
:1096F0002DE9FF4104460D46FFF72FFC0E4F0F4B9F
:1097000053F820803B78A3B10D4B53F82060FEF74F
:10971000B1FE3B780146CDE9026300232A4600935F
:1097200020461423CDF8048003F027F904B0BDE8E7
:10973000F081044BE9E700BF4A3D082084860B0016
:1097400008850B0070840B002DE9FF4104460D468F
:10975000FFF703FC0E4F0F4B53F820803B78A3B16B
:109760000D4B53F82060FEF785FE3B780146CDE9AE
:10977000026300232A46009320461323CDF8048079
:1097800003F0FBF804B0BDE8F081044BE9E700BF4B
:10979000483D0820EC850B0008850B0070840B0009
:1097A0002DE9FF4104460D46FFF7D7FB0E4F0F4B47
:1097B00053F820803B78A3B10D4B53F82060FEF79F
:1097C00059FE3B780146CDE9026300232A46009307
:1097D00020461223CDF8048003F0CFF804B0BDE892
:1097E000F081044BE9E700BF493D082038860B00B3
:1097F00008850B0070840B002DE9FF4104460D46DF
:10980000FFF7ABFB0E4F0F4B53F820803B78A3B113
:109810000D4B53F82060FEF72DFE3B780146CDE955
:10982000026300232A46009320461123CDF80480CA
:1098300003F0A3F804B0BDE8F081044BE9E700BFF2
:10984000653D0820C8890B0008850B0070840B005B
:109850002DE9FF4104460D46FFF77FFB0E4F0F4BEE
:1098600053F820803B78A3B10D4B53F82060FEF7EE
:1098700001FE3B780146CDE9026300232A460093AE
:1098800020461023CDF8048003F077F804B0BDE83B
:10989000F081044BE9E700BFC33E0820F88A0B00C3
:1098A00008850B0070840B002DE9FF4104460D462E
:1098B000FFF753FB0E4F0F4B53F820803B78A3B1BB
:1098C0000D4B53F82060FEF7D5FD3B780146CDE9FE
:1098D000026300232A46009320460F23CDF804801C
:1098E00003F04BF804B0BDE8F081044BE9E700BF9A
:1098F0005B3D0820E4880B0008850B0070840B009A
:109900002DE9FF4104460D46FFF727FB0E4F0F4B95
:1099100053F820803B78A3B10D4B53F82060FEF73D
:10992000A9FD3B780146CDE9026300232A46009356
:1099300020460E23CDF8048003F01FF804B0BDE8E4
:10994000F081044BE9E700BF583D082000880B0078
:1099500008850B0070840B002DE9FF4104460D467D
:10996000FFF7FBFA0E4F0F4B53F820803B78A3B163
:109970000D4B53F82060FEF77DFD3B780146CDE9A5
:10998000026300232A46009320460D23CDF804806D
:1099900002F0F3FF04B0BDE8F081044BE9E700BF3B
:1099A000D73E08200C8D0B0008850B0070840B003F
:1099B0002DE9FF4104460D46FFF7CFFA0E4F0F4B3E
:1099C00053F820803B78A3B10D4B53F82060FEF78D
:1099D00051FD3B780146CDE9026300232A460093FE
:1099E00020460C23CDF8048002F0C7FF04B0BDE888
:1099F000F081044BE9E700BFC23E0820AC8A0B00AF
:109A000008850B0070840B002DE9FF4104460D46CC
:109A1000FFF7A3FA0E4F0F4B53F820803B78A3B10A
:109A20000D4B53F82060FEF725FD3B780146CDE94C
:109A3000026300232A46009320460B23CDF80480BE
:109A400002F09BFF04B0BDE8F081044BE9E700BFE2
:109A5000C03E0820608A0B0008850B0070840B0054
:109A60002DE9FF410D460446FFF777FA104B0646F5
:109A700093F80080FFF771FA0346B8F1000F15D094
:109A80000C4A52F82370FEF7F5FC0B4B014653F8D5
:109A900026302A460193002320460093CDE9027820
:109AA000012302F06AFF04B0BDE8F081034AE8E751
:109AB000C43E082008850B00888E0B0070840B00C4
:109AC000F0B585B004460D46FFF747FA0D4B53F845
:109AD00020700D4B1B7893B90C4B53F82060FEF7A8
:109AE000C9FC032300220146CDE9003220460A23A7
:109AF0002A46CDE9027602F0F7FE05B0F0BD044B30
:109B0000EBE700BFB4870B00573D08201C870B0014
:109B100068870B007FB50D460446FFF71EFA064620
:109B2000FEF7A8FC084B00220393084B014653F8AC
:109B30002630204602930323CDE900320F232A4624
:109B400002F0D2FE04B070BD74810B00DC800B000B
:109B5000F0B585B00D460446FFF7FFF90646FFF75E
:109B6000FCF90E4A03461268AAB10D4A52F8237056
:109B7000FEF780FC0B4B002253F82630014602937F
:109B800001232046CDE90032039704232A4602F040
:109B9000ABFE05B0F0BD044AE8E700BF603D082019
:109BA000B88F0B0040830B0024840B00F0B585B008
:109BB0000D460446FFF7D1F90646FFF7CEF90E4AE7
:109BC00003461268AAB10D4A52F82370FEF752FC00
:109BD0000B4B002253F82630014602930123204606
:109BE000CDE90032039703232A4602F07DFE05B03B
:109BF000F0BD044AE8E700BF4C3D0820B88F0B00D9
:109C000090800B0024840B007FB50D460446FFF7BF
:109C1000A4F90646FEF72EFC084B00220393084BDE
:109C2000014653F82630204602930123CDE9003245
:109C30002A4602F059FE04B070BD00BF00660B005A
:109C40003C8E0B007FB50D460446FFF786F90646AD
:109C5000FEF710FC084B00220393084B014653F813
:109C60002630204602930323CDE900322A4602F033
:109C70003BFE04B070BD00BF74810B00F08D0B0083
:109C80007FB50D460446FFF768F90646FEF7F2FB7E
:109C9000084B00220393084B014653F82630204618
:109CA00002930323CDE9003280232A4602F01CFEF2
:109CB00004B070BD74810B00208F0B007FB50D4682
:109CC0000446FFF74AF90646FEF7D4FB084B00228C
:109CD0000393084B014653F8263020460293032392
:109CE000CDE9003210232A4602F0FEFD04B070BD1B
:109CF00074810B007C8207207FB50D460446FFF778
:109D00002CF90646FEF7B6FB084B00220393084BDE
:109D1000014653F82630204602930323CDE9003252
:109D200002232A4602F0E0FD04B070BD74810B00EE
:109D3000C4810B0070B586B00D460446FFF70DF9DF
:109D40000646FEF797FB00236322CDE90432094A59
:109D50000146127820460392074A0292074A52F8B7
:109D60002620CDE9003209232A4602F054FE06B02F
:109D700070BD00BFD43E082074810B00288C0B00FE
:109D800070B586B00D460446FFF7E7F80646FEF7C5
:109D900071FB01236322CDE90432094B01461B7894
:109DA0002A460393074B20460293074B53F826306D
:109DB000019300230093082302F02DFE06B070BD2E
:109DC000D33E082074810B00DC8B0B0070B586B08D
:109DD0000D460446FFF7C1F80646FEF74BFB00238D
:109DE0006322CDE90432094A0146127820460392E3
:109DF000074A0292074A52F82620CDE9003207238B
:109E00002A4602F008FE06B070BD00BF593D08208A
:109E100074810B004C880B0070B586B00D4604466B
:109E2000FFF79BF80646FEF725FB01236322CDE9E9
:109E30000432094B01461B782A460393074B204600
:109E40000293074B53F82630019300230093062317
:109E500002F0E1FD06B070BD5A3D082074810B0090
:109E600098880B0070B586B00D460446FFF775F86C
:109E70000646FEF7FFFA00236322CDE90432094AC1
:109E80000146127820460392074A0292074A52F886
:109E90002620CDE9003205232A4602F0BCFD06B09B
:109EA00070BD00BFD53E082074810B00748C0B0080
:109EB00070B586B00D460446FFF74FF80646FEF72C
:109EC000D9FA01236322CDE90432094B01461B78FC
:109ED0002A460393074B20460293074B53F826303C
:109EE000019300230093042302F095FD06B070BD9A
:109EF000D63E082074810B00C08C0B0070B586B074
:109F00000D460446FFF729F80646FEF7B3FA00238C
:109F10006322CDE90432094A0146127820460392B1
:109F2000074A0292074A52F82620CDE9003203235D
:109F30002A4602F070FD06B070BD00BF5C3D0820EF
:109F400074810B0030890B0070B586B00D46044655
:109F5000FFF703F80646FEF78DFA01236322CDE9E9
:109F60000432094B01461B782A460393074B2046CF
:109F70000293074B53F826300193002300930223EA
:109F800002F049FD06B070BD5D3D082074810B00F4
:109F90007C890B0070B586B00D460446FEF7DDFFE8
:109FA0000646FEF767FA01236322CDE90432094A27
:109FB0000146127820460392074A0292074A52F855
:109FC00026200192002200922A4602F024FD06B0CB
:109FD00070BD00BF673D082074810B00908B0B00A3
:109FE000F0B587B00D460446FEF7B7FF0D4B0646A9
:109FF0001F78FEF73FFA00233B22CDE904320A4BDB
:10A0000001461B782A460393084B20460293084BCF
:10A0100053F82630CDE90073062302F0FCFC07B0AC
:10A02000F0BD00BFC43E0820D13E082074810B0063
:10A030008C830B00F0B587B00D460446FEF78DFF0C
:10A040000D4B06461F78FEF715FA00231722CDE9BF
:10A0500004320A4B01461B782A460393084B2046DC
:10A060000293084B53F82630CDE90073052302F024
:10A07000D2FC07B0F0BD00BFC43E0820D03E08208F
:10A0800074810B00A8820B00F0B587B00D46044622
:10A09000FEF763FF0D4B06461F78FEF7EBF9002332
:10A0A0000C22CDE904320A4B01461B782A46039361
:10A0B000084B20460293084B53F82630CDE9007335
:10A0C000032302F0A8FC07B0F0BD00BFC43E082087
:10A0D000C982072074810B00D8830B002DE9F04161
:10A0E00086B00E460546FEF738FF0F4B074693F83D
:10A0F00000800E4B1C88FEF7BDF90A238022CDE9B3
:10A1000004320B4B303402930A4BE4B253F827303D
:10A110000146CDE90083324602232846039402F02B
:10A120007AFC06B0BDE8F081C43E0820CA82072050
:10A1300074810B006C8F0B0073B50446FEF70DFFA6
:10A1400001220B4B06461A70FEF79EF9094B054695
:10A15000186801F0BDFF084B024653F82630294627
:10A1600000932046032302F088FB02B070BD00BFBD
:10A17000BF3E0820403D0820A0850B0073B5044673
:10A18000FEF7EBFE0646FEF77FF9084B054618681A
:10A1900001F09EFF064B024653F8263029460093F5
:10A1A00020460F2302F069FB02B070BD383D082045
:10A1B000DC800B0073B50446FEF7CFFE0646FEF7C3
:10A1C00063F9084B0546186801F082FF064B02460A
:10A1D00053F82630294600932046022302F04DFB17
:10A1E00002B070BD3C3D0820C4810B0073B504462D
:10A1F000FEF7B3FE0646FEF747F9084B054618681A
:10A2000001F066FF064B024653F8263029460093BC
:10A210002046002302F031FB02B070BD343D08201F
:10A220007C820720114B01781A6819B9022A10D8CC
:10A23000032119600178012904D11968022908D87D
:10A24000032119600178072903D1196809B101397F
:10A2500019601B68003A18BF0122003B18BF012398
:10A260009A4201D001F064BF704700BF4C3D082006
:10A2700001780D4B0F291A6803D1022A08D803214F
:10A2800019600178072903D1196809B101391960EA
:10A290001B68003A18BF0122003B18BF01239A42F5
:10A2A00001D001F045BF7047603D0820F0B585B092
:10A2B00005460E46FEF751FE044602F01DFCD0B9DD
:10A2C0000E4B1B78ABB10E4B53F82470FEF7D2F84F
:10A2D0000C4B002253F824300146029301232846F8
:10A2E000CDE9003203970723324602F0FDFA05B0AC
:10A2F000F0BD054BE8E70020F9E700BF513D08201D
:10A300005C820B00D48E0B0010820B00F0B585B080
:10A310000E460546FEF721FE0746FEF71EFE0446E2
:10A320000220FDF743FD01280CBF0B4B0B4B53F8EC
:10A330002440FEF79FF80A4B002253F827300146CD
:10A34000029301232846CDE90032039402233246CA
:10A3500002F0CAFA05B0F0BDBC840B0078810B0096
:10A36000F4820B0003782DE9F0430A2B31D1DFF89A
:10A3700068C090F804E09CF80020DFF86080724527
:10A38000B0F80690B8F8003021D1B9EB030318BF3C
:10A390000123134EC7783278124CBA4218BF0123FA
:10A3A000857822784178AA4218BF01230E4AA8F87E
:10A3B000009010788CF800E0884218BF01233770B5
:10A3C000257011702BB1BDE8F04301F0B1BE01233F
:10A3D000DFE7BDE8F08300BFC9820720CA820720FB
:10A3E000C8820720D03E0820D13E08207FB502F069
:10A3F0009DFF0B2809D903238DF8003002F0C2FC21
:10A400008DF80800684602F0D7FF07B05DF804FB3E
:10A4100038B503781E2B40F0B2804378022B40F011
:10A42000AE80754B1A78002A40F0A98001220920DD
:10A430001A70FDF7BBFC431EDBB2622B6F4B00F2C0
:10A440009F8018700A20FDF7B1FC431EDBB2622B1F
:10A450006B4B00F29B8018700B20FDF7A7FC632864
:10A46000684B00F2998018700C20FDF79FFC431E8A
:10A47000DBB2622B644B00F2958018700D20FDF763
:10A4800095FC6328614B00F2938018700E20FDF755
:10A490008DFC431EDBB2622B5D4B00F28F80187087
:10A4A0000F20FDF783FC63285A4B00F28D80187053
:10A4B0001020FDF77BFC431EDBB2622B564B00F2F3
:10A4C000898018701120FDF771FC6328534B00F24E
:10A4D000878018701220FDF769FC0128504B00F2AC
:10A4E000858018701320FDF761FC4E4D4E4C28708E
:10A4F0001420FDF75BFC2B7820701840FF2809D151
:10A500000021132029702170FDF756FC14202178BA
:10A51000FDF752FC2B78454A03F001011170444AC3
:10A52000C3F340011170434AC3F380011170424AE2
:10A53000C3F3C0011170414AC3F300111170404AC6
:10A54000C3F3401111703F4AC3F3801111703E4AAA
:10A55000DB09137023783D4A03F0010111703C4A76
:10A56000C3F3400111703B4AC3F3800111703A4AB2
:10A57000C3F3C0011170394AC3F30013137038BD1F
:10A580000F2109201970FDF717FC5BE706210A204F
:10A590001970FDF711FC5FE732210B201970FDF7F0
:10A5A0000BFC61E702210C201970FDF705FC65E743
:10A5B00019210D201970FDF7FFFB67E703210E201D
:10A5C0001970FDF7F9FB6BE700210F201970FDF7FB
:10A5D000F3FB6DE7032110201970FDF7EDFB71E728
:10A5E000312111201970FDF7E7FB73E700211220DC
:10A5F0001970FDF7E1FB75E7C13E0820673D0820B3
:10A600005D3D08205C3D0820D63E0820D53E082050
:10A610005A3D0820593D0820D33E0820D43E08204A
:10A62000573D0820553D0820563D0820C03E0820D3
:10A63000C23E0820D73E0820583D08205B3D082038
:10A64000C33E0820653D0820493D0820483D0820BC
:10A650004A3D0820533D0820663D0820C53E08209D
:10A66000014B1870704700BFC43E082008B5044B6A
:10A670000321186801F0DAFC0122024B1A7008BDB0
:10A68000343D0820D23E082008B5044B0521186847
:10A6900001F0CCFC0122024B1A7008BD3C3D0820A1
:10A6A000523D082083071AD16422B0FBF2F302FB6B
:10A6B00013039BB2ABB94FF4C873B0FBF3F203FBC7
:10A6C000120080B2B0FA80F040090239092911D88D
:10A6D000DFE801F00B100910091010091009002023
:10A6E000F3E70120F1E71E207047002814BF1D206A
:10A6F0001C2070471F20704710B5144632B1FFF779
:10A70000D1FFA04228BF2046C0B210BD0120FCE707
:10A710002DE9F04186B00D460446FEF71EFC124BB3
:10A72000064693F80080114B1A78114B1978114B9B
:10A730001888FFF7E1FF0746FDF79CFE00231F2264
:10A74000CDE904320C4B014602930C4B2A4653F8D8
:10A7500026302046CDE900830397042302F05BF9FD
:10A7600006B0BDE8F08100BFC43E0820C8820720C3
:10A77000C9820720CA82072074810B0028810B0040
:10A780002DE9F043037805462C2B87B040F0068175
:10A790004378022B40F0028101F014FC0F287ED197
:10A7A000EC78AD78F6F738FA7E4A0346CDE90145F4
:10A7B000009201217C4A0020F9F734F97B4B7C4E52
:10A7C0001B787C4D9A1E7C4FDFF8F081DFF8F0910A
:10A7D000042A5ED8DFE802F003323E4B540004F551
:10A7E000FA64234601210020764AF9F71BF93480E8
:10A7F00099F800300121049398F80030724A0393CD
:10A800003B78002002932B78019333880093654BAB
:10A81000F9F708F999F80030009398F800303A7881
:10A820002978308802F09AFA684B186801F068FCC1
:10A830000F2007B0BDE8F04301F094BB234601218F
:10A840000020634AF9F7EEF80CB12C70D0E7012331
:10A850002B70CDE7234601215E4A0020F9F7E2F88C
:10A86000224629783088FFF747FF3870C0E7234633
:10A8700001210020584AF9F7D5F888F80040B7E7D9
:10A88000234601210020554AF9F7CCF889F8004009
:10A89000AEE70121524A0020F9F7C4F8A8E7A0F179
:10A8A0001003DBB26F2B06D8A978E87807B0BDE8B3
:10A8B000F04301F0ADBA032870D1AE78EC78F6F72A
:10A8C000ABF9484A034600920121374A0020CDE9FE
:10A8D0000146F9F7A7F8354B1B785A1E082A57D8B6
:10A8E000DFE802F00531363B40454A4F540021462F
:10A8F00009203D4B1C70FDF75FFADFF8C4802F4F35
:10A9000098F800302C4E04933B782A4D039333780B
:10A91000274C02932B780121019323882A4A009324
:10A920000020304BF9F77EF898F8003000933B7820
:10A9300032782978208802F011FA2C4B186801F03F
:10A94000DFFB032075E72A4B21460A201C70D2E763
:10A95000284B21460B201C70CDE7274B21460C20AD
:10A960001C70C8E7254B21460D201C70C3E7244B03
:10A9700021460E201C70BEE7224B21460F201C7082
:10A98000B9E7214B214610201C70B4E71F4BF9E7B3
:10A990000121134A0020F9F745F8AEE707B0BDE8FA
:10A9A000F08300BF54800B0054730B00543D08200B
:10A9B000CA820720C9820720C8820720D03E08200B
:10A9C000D13E082063730B00D0730B00383D082084
:10A9D00074730B0085730B0098730B00A8730B0046
:10A9E000BB730B0034800B00673D0820403D0820FE
:10A9F0005D3D08205C3D0820D63E0820D53E08205D
:10AA00005A3D0820593D0820D33E0820D43E082056
:10AA1000194B2DE9F341187058B3DFF86080B8F88E
:10AA20000000A0F5FA63362B23D8154F39784B1E5A
:10AA30000B2B1ED8134E3478DCB12246FFF75CFE98
:10AA4000844216D8104C2378172B12D80F4D2B7830
:10AA50003B2B0ED801210E4B0E4A0020F8F7E2FFE7
:10AA6000B8F800303278009329783B782078FEF7E8
:10AA7000A5FD02B0BDE8F081C43E0820CA820720CF
:10AA8000C9820720C8820720D03E0820D13E082076
:10AA900075800B0014740B00F0B5037804462C2B62
:10AAA00085B003D146781EB1012E10D005B0F0BD9F
:10AAB0008478002CFAD101F097FA204601F052FA7E
:10AAC0009C4B186805B0BDE8F04001F019BB01F0DF
:10AAD00079FA0F2800F2B98101F074FA03287FD0C7
:10AAE0001AD80228A07800F0A781E178247950EAEA
:10AAF000010501D1012C05D00F2C28D8022C20D023
:10AB000017D8D3D08B4B186801F0FAFA002005B0A3
:10AB1000BDE8F04001F026BA0F2820D02379314655
:10AB20000193E378844A0093A3780020F8F77AFF32
:10AB3000BCE7032CBAD1814B186801F0E1FA20463A
:10AB4000E5E77F4B186801F0DBFA0220DFE7220619
:10AB5000ACD4224605B0BDE8F04001F0CDB8A578F0
:10AB6000E7782479F6F758F8764A0346009231469A
:10AB70000020CDE90274744A0195F8F753FF0F2DB8
:10AB800094D1012C17D1714E21463378704A0020A0
:10AB9000F8F748FF307880F00100FFF739FF2146D1
:10ABA000002033786B4AF8F73DFF6B4B186801F0D3
:10ABB000A7FA0F20ABE7072C40F0328101210020DB
:10ABC000664AF8F72FFF664B197881F0010119707A
:10ABD00021B100210846FEF7E2FAE6E70120FAE794
:10ABE000A578E7782479F6F717F85E4A03460092CD
:10ABF00031460020CDE90274534A0195F8F712FF5F
:10AC0000032D7FF453AFA4F10A030D2B00F208814A
:10AC1000DFE813F00E001D002D003B004900570037
:10AC2000650073008100BE00CE00DC00EA00F80081
:10AC30004D4B12201978B1FA81F149091970FDF7CD
:10AC4000BBF83E4B186801F05BFA03205FE7474A08
:10AC5000137883F001031370454A117823B141F052
:10AC6000010113201170EAE701F0FE01F9E7414A02
:10AC7000137883F0010313703D4A117813B141F04A
:10AC80000201EEE701F0FD01EBE73B4A137883F0A8
:10AC900001031370364A117813B141F00401E0E763
:10ACA00001F0FB01DDE7354A137883F001031370EF
:10ACB0002F4A117813B141F00801D2E701F0F701F2
:10ACC000CFE72F4A137883F001031370284A1178D5
:10ACD00013B141F01001C4E701F0EF01C1E7294AC7
:10ACE000137883F001031370214A117813B141F0F6
:10ACF0002001B6E701F0DF01B3E7234A137883F0C0
:10AD0000010313701A4A117813B141F04001A8E70A
:10AD100001F0BF01A5E71D4A137883F0010313700A
:10AD2000134A117813B141F080019AE701F07F01D5
:10AD300097E700BF343D082084740B00403D082095
:10AD40003C3D08201D800B0027740B00C43E0820EA
:10AD50003F740B0077680B00383D08205F740B00D0
:10AD6000513D082007800B00573D0820C03E0820B9
:10AD7000553D0820C23E0820D73E0820583D0820F7
:10AD80005B3D0820C33E0820653D0820493D082062
:10AD9000344A137883F001031370334A117823B1D6
:10ADA00041F001011420117049E701F0FE01F9E7BB
:10ADB0002E4A137883F0010313702B4A117813B1D4
:10ADC00041F00201EEE701F0FD01EBE7284A1378BC
:10ADD00083F001031370244A117813B141F0040188
:10ADE000E0E701F0FB01DDE7224A137883F001037D
:10ADF00013701D4A117813B141F00801D2E701F038
:10AE0000F701CFE71C4A137883F001031370164A49
:10AE1000117813B141F01001C4E701F0EF01C1E76F
:10AE2000164D2B78A3423FF441AE01210020144A75
:10AE3000F8F7F8FD2C7039E602287FF482AE247909
:10AE40000F2C7FF47EAE0F4B76E603063FF52EAE59
:10AE500094F904302279002BFFF628AEE178A0782F
:10AE600078E600BF483D0820563D08204A3D0820AE
:10AE7000533D0820663D0820C53E0820543D08206B
:10AE80006F740B00383D0820014B1878704700BFE5
:10AE9000BF3E08200022014B1A707047BF3E0820B9
:10AEA00010B5044600213C4A01F0D2F820460121A9
:10AEB0003A4A01F0CDF820460221394A01F0C8F89B
:10AEC00020460321374A01F0C3F820460421364AC0
:10AED00001F0BEF820460521344A01F0B9F82046B9
:10AEE0000621334A01F0B4F820460721314A01F027
:10AEF000AFF820460821304A01F0AAF8204609217F
:10AF00002E4A01F0A5F820460A212D4A01F0A0F8AA
:10AF100020460B212B4A01F09BF820460C212A4A9F
:10AF200001F096F820460D21284A01F091F82046BC
:10AF30000E21274A01F08CF820460F21254A01F006
:10AF400087F820461021244A01F082F8204611217A
:10AF5000224A01F07DF820461221214A01F078F8BA
:10AF6000204613211F4A01F073F8204614211E4A7F
:10AF700001F06EF8204615211C4A01F069F82046C0
:10AF800016211B4A01F064F82046BDE81040172145
:10AF9000184A01F05DB800BF39A10A00959F0A0068
:10AFA000499F0A00FD9E0A00B19E0A00659E0A00A4
:10AFB000199E0A00CD9D0A00819D0A00359D0A0058
:10AFC000C19A0A00099A0A00B1990A0059990A001F
:10AFD00001990A00A9980A0051980A00F9970A00F5
:10AFE000A1970A0049970A00F1960A0099960A006B
:10AFF00041960A00E9950A00F8B5FDF7AEFF002674
:10B00000754C764B074653F820502046267003F0C7
:10B010008BFE2946C0F163022046714D03F0B2FE5B
:10B02000704B71491A7828462E7003F0BBFD2046FC
:10B0300003F07AFE2946C0F16402204603F0A2FE26
:10B04000204603F071FE6949C0F16402204603F016
:10B0500099FE674B64491A7828462E7003F0A2FDCA
:10B06000204603F061FE2946C0F16402204603F049
:10B0700089FE204603F058FE5E49C0F16402204676
:10B0800003F080FE5C4B58491A7828462E7003F076
:10B0900089FD204603F048FE2946C0F1640220469F
:10B0A00003F070FE204603F03FFE5049C0F16402F9
:10B0B000204603F067FE514B4B491A7828462E7004
:10B0C00003F070FD204603F02FFE2946C0F1640214
:10B0D000204603F057FE204603F026FE4549C0F106
:10B0E0006402204603F04EFE454B3F491A7828463D
:10B0F0002E7003F057FD204603F016FE2946C0F1DE
:10B100006402204603F03EFE204603F00DFE374960
:10B11000C0F16402204603F035FE3A4B32491A78FA
:10B1200028462E7003F03EFD204603F0FDFD294623
:10B13000C0F16402204603F025FE204603F0F4FD32
:10B140003149C0F16402204603F01CFE2F4B264912
:10B150001A7828462E7003F025FD204603F0E4FD02
:10B160002946C0F16402204603F00CFE204603F09D
:10B17000DBFD1E49C0F16402204603F003FE244BB0
:10B1800019491A7828462E7003F00CFD204603F06A
:10B19000CBFD2946C0F16402204603F0F3FD2046B2
:10B1A00003F0C2FD1B49C0F16402204603F0EAFD32
:10B1B000194B1B786BB9194B204653F8275003F0F5
:10B1C000B3FD2946C0F16402204603F0DBFD0248CE
:10B1D000F8BD134BF0E700BF5B3E082054850B0021
:10B1E000C63E08205D3D0820A2740B00A5740B002C
:10B1F0005C3D0820A7740B00D63E0820D53E0820F1
:10B200005A3D0820593D0820AC740B00D33E08205D
:10B21000D43E0820B0740B00573D08201C870B005B
:10B2200068870B002DE9F74FFDF797FE0023AB4D24
:10B2300004462B70AA4BDFF8ACB21A78DFF8A8A24C
:10B24000DFF8A892DFF8A882AA4FAB4ED2B99BF8DC
:10B250000020BAB99AF80020A2B999F800208AB95A
:10B2600098F8002072B93A7862B9327852B9A34A94
:10B2700012783AB9A24A127822B9A24A1278002A60
:10B2800000F00F81A04A954852F82410019103F074
:10B290004BFD0199C0F1F202904803F073FD904B11
:10B2A0001B78ABB1994B8D4853F82410019103F0F2
:10B2B0003BFD0199C0F1F302884803F063FD874824
:10B2C00003F032FD9249C0F1F302844803F05AFDC5
:10B2D0009BF80030A3B18F4B804853F824B003F0A3
:10B2E00023FD5946C0F1F3027C4803F04BFD7B4837
:10B2F00003F01AFD8649C0F1F302784803F042FDDD
:10B300009AF80030A3B1844B744853F824A003F09A
:10B310000BFD5146C0F1F302704803F033FD6F4856
:10B3200003F002FD7A49C0F1F3026C4803F02AFDF4
:10B3300099F80030A3B1794B684853F8249003F092
:10B34000F3FC4946C0F1F302644803F01BFD634877
:10B3500003F0EAFC6E49C0F1F302604803F012FD0D
:10B3600098F80030A3B16E4B5C4853F8248003F08A
:10B37000DBFC4146C0F1F302584803F003FD574897
:10B3800003F0D2FC6249C0F1F302544803F0FAFC26
:10B390003B78A3B1634B514853F8247003F0C4FCCD
:10B3A0003946C0F1F3024D4803F0ECFC4B4803F082
:10B3B000BBFC5749C0F1F302484803F0E3FC337883
:10B3C000A3B1594B454853F8246003F0ADFC314616
:10B3D000C0F1F302414803F0D5FC404803F0A4FC5F
:10B3E0004B49C0F1F3023D4803F0CCFC434B1B78C2
:10B3F000A3B14E4B394853F8246003F095FC314615
:10B40000C0F1F302354803F0BDFC344803F08CFC76
:10B410003F49C0F1F302314803F0B4FC384B1B78CC
:10B42000A3B1434B2D4853F8246003F07DFC314613
:10B43000C0F1F302294803F0A5FC284803F074FC8E
:10B440003349C0F1F302254803F09CFC2D4B1B78D7
:10B45000A3B1384B214853F8246003F065FC314612
:10B46000C0F1F3021D4803F08DFC1C4803F05CFCA6
:10B470002749C0F1F302194803F084FC174803F090
:10B4800053FC2E230238C0B22B54002328444370AF
:10B49000124803F049FC2849C0F1F3020F4803F0B9
:10B4A00071FCDFF89880264F98F80030254E2BB9B4
:10B4B0003B781BB93378002B00F09680224B07486D
:10B4C00053F8249003F030FC4946C0F1F3020348DE
:10B4D00003F058FC98F8003038E000BF683D0820C1
:10B4E000C23E0820D73E0820583D0820C33E082011
:10B4F000493D0820483D08204A3D0820533D08208A
:10B50000663D0820C53E0820588D0B00AC8A0B0014
:10B51000B4740B000C8D0B0000880B00F88A0B0034
:10B5200038860B00EC850B0084860B00D0860B0060
:10B53000148A0B00448B0B0010730B00C03E0820D4
:10B540005B3D0820653D0820A48D0B00A3B1284B6E
:10B55000284853F8248003F0E7FB4146C0F1F3028A
:10B56000244803F00FFC234803F0DEFB2249C0F11E
:10B57000F302204803F006FC3B78A3B11F4B1D48A3
:10B5800053F8247003F0D0FB3946C0F1F302194898
:10B5900003F0F8FB174803F0C7FB1749C0F1F302AB
:10B5A000144803F0EFFB3378A3B1154B114853F85F
:10B5B000244003F0B9FB2146C0F1F3020D4803F02B
:10B5C000E1FB0C4803F0B0FB0B49C0F1F302094862
:10B5D00003F0D8FB074803F0A7FB2E230238C0B2C4
:10B5E0002B54002305446B70024803B0BDE8F08F74
:10B5F000608A0B00683D0820B4740B00E4880B00DF
:10B60000C8890B00332330B585B0ADF80430124B38
:10B610001B788DF80630FFF7EFFC0290FFF702FE73
:10B620000546029803F080FBC0F1F304284603F0BE
:10B630007BFBE4B2A04207D92E222B1903F8012C80
:10B6400003F8022C03F8032C002301A82B550395C3
:10B65000FDF766FC05B030BD673D082010B5044617
:10B660000021144A00F0F4FC20460121124A00F0A7
:10B67000EFFC20460221114A00F0EAFC204603219B
:10B680000F4A00F0E5FC204604210E4A00F0E0FCE1
:10B69000204605210C4A00F0DBFC204606210B4A1F
:10B6A00000F0D6FC2046BDE810400721084A00F013
:10B6B000CFBC00BF7DA10A00619A0A00DDA00A008C
:10B6C00089A00A0011A70A0035A00A00E19F0A001C
:10B6D000ADA20A0010B5044600211B4A00F0B8FCD8
:10B6E00001212046194A00F0B3FC02212046184AE5
:10B6F00000F0AEFC03212046164A00F0A9FC04210C
:10B700002046154A00F0A4FC05212046134A00F00B
:10B710009FFC134B1B7823B1124B0521186800F0D6
:10B7200085FC114B1B7823B10E4B0421186800F0E7
:10B730007DFC0E4B1B7833B1BDE81040094B032153
:10B74000186800F073BC10BDB5A10A00099C0A007E
:10B750000DA30A00AD9B0A00519B0A00159B0A002D
:10B76000523D08203C3D0820643D0820503D082003
:10B7700010B504460021114A00F06AFC0121204660
:10B780000F4A00F065FC022120460E4A00F060FCE2
:10B79000032120460C4A00F05BFC042120460B4AA2
:10B7A00000F056FC0A4B1B7833B1BDE81040094B42
:10B7B0000321186800F03ABC10BD00BFEDA10A00DB
:10B7C000F99C0A00BD9C0A00819C0A00459C0A0065
:10B7D000D23E0820343D082010B52C202649F7F72A
:10B7E000AFFF264C2C202649F7F7AAFF0A2025494F
:10B7F000F7F7A6FF21460020F7F7A2FF2146012018
:10B80000F7F79EFF2146204C0720F7F799FF2146C6
:10B810000F20F7F795FF21460720F7F791FF072044
:10B820001A49F7F78DFF1A491E20F7F789FF00F034
:10B83000EDFB184B1860FFF79BFF00F0E7FB164B82
:10B840001860FFF747FF00F0E1FB144B1860FFF7AB
:10B8500005FF00F0DBFB124B186000F0EDFA00F082
:10B86000D5FB104B1860FFF71BFB00F0CDFBBDE8CC
:10B87000104000F069BC00BF99AA0A0025A20A0086
:10B8800081A70A0065A30A0071A20A00EDA30A00BD
:10B8900011A40A00343D08203C3D0820383D082012
:10B8A000443D0820403D08207FB50D460446FDF785
:10B8B00054FB0646FCF7DEFD084B00220393084BC1
:10B8C000014653F82630204602930323CDE9003287
:10B8D0000A232A4601F008F804B070BD189C0B003A
:10B8E0001C9C0B00F0B585B00E460546FDF735FBF8
:10B8F0000746FDF732FB04460020FCF757FA00F03C
:10B90000FD0001280CBF0B4B0B4B53F82440FCF7F8
:10B91000B1FD0A4B002253F827300146029303235E
:10B920002846CDE9003203940923324600F0DCFFBB
:10B9300005B0F0BD309E0B0074A10B000CA20B00F3
:10B94000F0B585B00E460546FDF707FB0746FDF747
:10B9500004FB04460020FCF729FA0138012894BFB3
:10B960000B4B0C4B53F82440FCF784FD0A4B002290
:10B9700053F827300146029303232846CDE90032CD
:10B9800003940823324600F0AFFF05B0F0BD00BFBE
:10B9900058A20B00B49C0B006C990B00F0B585B05D
:10B9A0000E460546FDF7D9FA0746FDF7D6FA0446D6
:10B9B00001F0BCFC0B2833D8DFE800F0061C1E2089
:10B9C00022242E3026282A2C164B53F82440FCF72C
:10B9D00051FD154B002253F82730014602930323F3
:10B9E0002846CDE9003203940623324600F07CFF5E
:10B9F00005B0F0BD0D4BE8E70D4BE6E70D4BE4E776
:10BA00000D4BE2E70D4BE0E70D4BDEE70D4BDCE7BE
:10BA10000D4BDAE70D4BD8E70D4BD6E70D4BD4E7CE
:10BA20000D4CD4E7DCA00B00E49D0B00349B0B0015
:10BA3000689C0B009C9A0B0020990B00509A0B00FD
:10BA400044A00B00E89A0B00F0A20B00CC9B0B006B
:10BA5000A4A20B00809B0B00189C0B00F0B585B0D6
:10BA60000E460546FDF779FA0746FDF776FA0446D5
:10BA70000520FCF79BF9B0B1012816D10F4B53F804
:10BA80002440FCF7F7FC0E4B002253F82730014608
:10BA9000029303232846CDE900320394324600F096
:10BAA00023FF05B0F0BD074BE9E7064B0021052059
:10BAB00053F82440FCF780F9E3E700BF049A0B0039
:10BAC00028A10B00C89E0B002DE9FF4105460E463C
:10BAD000FDF743FA144B074693F80080B8F1000FC6
:10BAE00003D000210320FCF767F9FDF736FA04467E
:10BAF0000320FCF75BF901280CBF0C4B0C4B53F8EF
:10BB00002440FCF7B7FC0B4B014653F82730324674
:10BB1000CDE901830323284600930394012300F019
:10BB2000E3FE04B0BDE8F081DF3E08204C9D0B0031
:10BB3000989D0B00009D0B002DE9F04385B00F464A
:10BB40000646FDF70AFA05460820FCF72FF9124BC6
:10BB5000044653F82590114B93F80080B8F1000F7C
:10BB600016D1012816D10E4B53F82590FCF782FC14
:10BB70000C4B014653F825303A46CDE90083304658
:10BB80000723CDE9029400F0F8FE05B0BDE8F0838C
:10BB90000024EBE74446E9E7609F0B00E03E082005
:10BBA000F89F0B0090A00B002DE9F04186B00F46E6
:10BBB0000646FDF7D2F905460720FCF7F7F8804660
:10BBC0000520FCF7F3F80446FCF754FC00233C2264
:10BBD000013C18BF0124CDE904320A4B014653F859
:10BBE00025303A460293084B304653F82530CDF8BD
:10BBF0000C8001930094052300F00DFF06B0BDE812
:10BC0000F08100BFC0A10B00149F0B002DE9F04193
:10BC100086B00F460646FDF7A0F905460620FCF75C
:10BC2000C5F880460520FCF7C1F80446FCF722FC65
:10BC300000233C22013C18BF0124CDE904320A4B09
:10BC4000014653F825303A460293084B304653F8E4
:10BC50002530CDF80C8001930094042300F0DBFE26
:10BC600006B0BDE8F08100BFC0A10B00AC9F0B0087
:10BC7000F0B587B00E460546FDF76FF9044604207F
:10BC8000FCF794F80746FCF7F5FB00231E22CDE9EC
:10BC90000432094A014652F8242028460292074AF3
:10BCA000039752F82420CDE900320223324600F0F7
:10BCB000B2FE07B0F0BD00BF7C9E0B00B8990B0030
:10BCC00073B50446FDF749F90646FCF7DDFB084B62
:10BCD0000546186800F0FCF9064B024653F826307A
:10BCE000294600932046102300F0C7FD02B070BD26
:10BCF000D83E08207C8207207FB548B93B4B1868A6
:10BD000000F0FEF9102007B05DF804EB00F02AB94E
:10BD1000102868D1531E092B62D8DFE803F00561B3
:10BD20001161611B2B334B560320FCF73FF8411C7C
:10BD3000C9B2022908BF00210320FCF73DF8DDE766
:10BD40000520FCF733F8411CC9B2022908BF0021C5
:10BD50000520F2E701F0EAFA0130C0B20C2828BF52
:10BD6000002003238DF8080068468DF8003001F0AC
:10BD700023FBC3E70820FCF719F8411E18BF012177
:10BD80000820DAE70020FCF711F80138C0B20328D8
:10BD900008D8174B19560020C9B2FCF70DF801F06E
:10BDA00025FCABE7134B01210020134AF7F73AFEBD
:10BDB0000321F0E70020FBF7F9FF0138C0B20328A8
:10BDC00001D80E4BE6E70E4BEDE701210D4B0E4A75
:10BDD0000020F7F727FEFCF705F8FBF76BFC8DE773
:10BDE0000A4B1A708AE707B05DF804FBD83E0820BA
:10BDF000CD980B0006990B0004900B00D1980B0016
:10BE0000ED980B00D5980B00C4650B00DD3E0820B3
:10BE1000084B01461B78042B06D0052B06D0022BBD
:10BE200006D10420FBF7C8BF0620FBE70720F9E78F
:10BE3000704700BFDD3E082010B5394C0021394A5B
:10BE4000206000F005F90121374A206800F000F970
:10BE50000221364A206800F0FBF80321344A2068AA
:10BE600000F0F6F80421334A206800F0F1F80521CB
:10BE7000314A206800F0ECF80621304A206800F0D2
:10BE8000E7F807212E4A206800F0E2F808212D4A41
:10BE9000206800F0DDF809212B4A206800F0D8F86E
:10BEA0000A212A4A206800F0D3F8294B1B781BB1DD
:10BEB0000721206800F0BAF8264B1B781BB101213E
:10BEC000206800F0B3F8244B1B785BB10321206895
:10BED00000F0ACF80421206800F0A8F805212068E3
:10BEE00000F0A4F81D4B1B783BB10121206800F045
:10BEF0009DF80221206800F099F8194B1B786BB16E
:10BF00002068062100F092F82068082100F08EF8E1
:10BF100020680921BDE8104000F088B810BD00BFBE
:10BF2000D83E0820C1BC0A00C9BA0A0071BC0A0088
:10BF30005DBA0A000DBC0A00A9BB0A009DB90A003F
:10BF400039BB0A0041B90A00E5B80A00A9B80A00DD
:10BF5000E03E0820DF3E0820E13E0820DE3E0820CB
:10BF6000DC3E082010B40B4A0B49B2F90030CC1863
:10BF700014F8014C844200D123B9092BC85403DCC6
:10BF80000133138010BC70470021044A084610BCDE
:10BF9000F7F748BDE23E0820CC8207203CA30B0007
:10BFA000FF21064AB2F90030002BC4BF03F1FF3372
:10BFB0001380B2F90030024AD1547047E23E0820A3
:10BFC000CC820720064BB3F90030002BC1BF03F130
:10BFD000FF33044A1BB2D05CD8BFFF20704700BFBC
:10BFE000E23E0820CC8207200A23FF21044A013BBD
:10BFF00013F0FF0302F8011BF9D1024A13807047C6
:10C00000CC820720E23E0820FFF7EEBF8C21012002
:10C0100002F0C4B908B100238360704728B101233E
:10C0200003FA01F103680B430360704730B1012349
:10C0300003FA01F1036823EA01030360704728B1A2
:10C04000012303FA01F143680B434360704700008A
:10C0500010B50C4690B1202906D9BDE8104000214A
:10C06000074A0846F7F7DEBC00EB8103DA60FFF70A
:10C07000E6FF2146BDE81040FFF7D0BF10BD00BF6E
:10C0800061A30B00F8B50446806820B9234601215E
:10C090000E4AF7F7C7FCD4E90153012604F10C0757
:10C0A00006FA03F10D4203F1010205D113461F2ADE
:10C0B000F6D90020A260F8BD20680142F6D057F8FA
:10C0C000230013460028F2D0A260F4E762700B0050
:10C0D00001230246F0B544681D46002002F10C061B
:10C0E00005FA03F10C4207D01768394204D056F81C
:10C0F000231009B10130C0B20133202BF0D1F0BDC3
:10C10000094B13B51860FCF77FFD084B1C68F4F76A
:10C1100083FD052302460093012100232046F5F705
:10C120003FFB02B010BD00BFE83E0820EC3E0820F7
:10C1300008B5FCF769FD034B1868BDE80840FFF738
:10C14000DFBF00BFE43E082007B5074B4FF4FA718C
:10C150000093002305481A46F5F7FCFA044B1860D3
:10C1600003B05DF804FB00BF95C10A0076A30B0085
:10C17000EC3E08202B2300B58BB0019068468DF86B
:10C180000030F7F7FFFA6846F7F7FCFA0BB05DF8F6
:10C1900004FB000010B5054C206830B1FFF7EAFF42
:10C1A0002268034B1A600023236010BDE83E08207C
:10C1B000E43E082090F80831C154013380F808317A
:10C1C0007047000003781B2B02BF4268014B1A60C6
:10C1D000704700BFF43E08200378072B04D1034AC0
:10C1E00013780BB1013B1370704700BFD682072054
:10C1F00038B503780446102B1AD18378012B11D15E
:10C200000C4A13700C4D62782B789A4207D00121AA
:10C2100000200A4AF7F706FC0948FCF7B3FD6378EB
:10C220002B7005E0002BEDD1024B1B78002BE9D0E1
:10C2300038BD00BFF03E0820D78207207DA30B0049
:10C2400035C40A0038B503780446172B0ED1084DC3
:10C2500042782B789A4207D001210020054AF7F74F
:10C26000E1FB0548FCF78EFD63782B7038BD00BFFD
:10C27000DA82072093A30B0035C40A0038B503788F
:10C280000446162B0ED1084D42782B789A4207D0DF
:10C2900001210020054AF7F7C5FB0548FCF772FDB0
:10C2A00063782B7038BD00BFD9820720A7A30B008D
:10C2B00035C40A0038B503780446132B14D10B4D4E
:10C2C00042782B789A4207D001210020084AF7F7DC
:10C2D000A9FB0848FCF756FD63782B70FBF7F6F9CD
:10C2E00010B10A22044B1A7038BD00BFD882072053
:10C2F000BAA30B0035C40A00D682072070B5474B9D
:10C3000004461D780E460023002D70D0FF2180F8D2
:10C31000083180F8093100F20712431E03F8011FAB
:10C320009A42FBD100222046C72184F80A2184F8D2
:10C330000B21FFF73FFFC821FFF73CFF3146FFF716
:10C3400039FF1021FFF736FF1146FFF733FFFFF7E4
:10C3500031FF334B1B789342324B08BF61211B786E
:10C36000002B3BD041F002012F4B1B780BB941F061
:10C3700008012046FFF71EFF2C4B1A68C2F3072165
:10C38000FFF718FFD1B2FFF715FF0021FFF712FFEB
:10C390002021FFF70FFF94F80821931FDBB2991DAE
:10C3A000914263710FD1E278A1781144227911444E
:10C3B00006221944C9B205339A4212DDC943204608
:10C3C000C9B2FFF7F7FE637994F8081107338B427F
:10C3D00013D12046FCF72AFE012070BD41F0060172
:10C3E000C2E7A05C01320144C9B292B2E4E7F7F7B8
:10C3F000EDFA0120FAF720FC0EE094F80A310BB1B7
:10C400000329E6D800210A4A0846F7F70BFB204625
:10C4100094F80811FCF70AFE0020DEE7D682072018
:10C42000D8820720DA820720D7820720F43E08202E
:10C43000CE6F0B00FFF762BF08B513200C49F7F76A
:10C440007FF910200B49F7F77BF917200A49F7F716
:10C4500077F916200949F7F773F91B200849F7F710
:10C460006FF9BDE8084007200649F7F769B900BF32
:10C47000B5C20A00F1C10A0045C20A007DC20A0025
:10C48000C5C10A00D9C10A0090F80831C15401336E
:10C4900080F8083170470000044B1A78824203D0BC
:10C4A00018700348FCF76EBC704700BFF83E0820C8
:10C4B00091C50A0038B500230D460446FF2180F8D7
:10C4C000083180F8093100F20712431E03F8011FFA
:10C4D0009A42FBD100222046C72184F80A2184F821
:10C4E0000B21FFF7D1FFC821FFF7CEFF2946FFF749
:10C4F000CBFF1821FFF7C8FF1146FFF7C5FF032147
:10C50000FFF7C2FF1146FFF7BFFF1F4B1978FFF778
:10C51000BBFF0221FFF7B8FF627994F80831911D43
:10C5200099420FD1A178E378114419442379053257
:10C5300019440623C9B293420FDDC9432046C9B24C
:10C54000FFF7A2FF637994F8081107338B420AD1F1
:10C550002046FCF76BFD012038BDE05C013301444F
:10C56000C9B29BB2E7E794F80A310BB10329EFD8BF
:10C570000021064A0846F7F755FA204694F80811B4
:10C58000FCF754FD0020E7E7F83E0820CE6F0B00D3
:10C59000FFF790BF90F80831C154013380F808319B
:10C5A00070470000002370B580F8083180F8093129
:10C5B00004460E46431E00F20711FF2003F8010F48
:10C5C0009942FBD100252046C72184F80A5184F8FE
:10C5D0000B51FFF7DFFFC821FFF7DCFF3146FFF704
:10C5E000D9FF1921FFF7D6FF2946FFF7D3FF0E2108
:10C5F000FFF7D0FF1178FFF7CDFF5178FFF7CAFFA3
:10C600009178FFF7C7FFD178FFF7C4FF2946FFF7FE
:10C61000C1FF5179FFF7BEFF2946FFF7BBFF117A33
:10C62000FFF7B8FFFF21FFF7B5FFFFF7B3FFFFF7F5
:10C63000B1FFFFF7AFFF2946FFF7ACFFFFF7AAFFF7
:10C64000627994F80831911D99420FD1A178E3786D
:10C65000114419442379053219440623C9B293427F
:10C660000FDDC9432046C9B2FFF794FF637994F800
:10C67000081107338B420AD12046FCF7D7FC012072
:10C6800070BDE05C01330144C9B29BB2E7E794F8A6
:10C690000A310BB10329EFD80021054A0846F7F704
:10C6A000C1F9204694F80811FCF7C0FC0020E7E728
:10C6B000CE6F0B0090F80831C154013380F8083177
:10C6C00070470000002370B580F8083180F8093108
:10C6D00004460E46431E00F20711FF2003F8010F27
:10C6E0008B42FBD100252046C72184F80A5184F8EB
:10C6F0000B51FFF7DFFFC821FFF7DCFF3146FFF7E3
:10C70000D9FF1A21FFF7D6FF2946FFF7D3FFFFF71E
:10C71000D1FF5178FFF7CEFF9178FFF7CBFFD178AB
:10C72000FFF7C8FF1179FFF7C5FF5179FFF7C2FF87
:10C730009179FFF7BFFFD179FFF7BCFF117AFFF7BF
:10C74000B9FF94F80821931FDBB2991D91426371E0
:10C750000FD1E278A17811442279114406221944BC
:10C76000C9B205339A420FDDC9432046C9B2FFF76B
:10C77000A1FF637994F8081107338B420AD1204650
:10C78000FCF754FC012070BDA05C01320144C9B229
:10C7900092B2E7E794F80A310BB10329EFD80021F0
:10C7A000034A0846F7F73EF994F80811E7E700BF97
:10C7B000CE6F0B0090F80831C154013380F8083176
:10C7C00070470023FF2180F8083180F8093100F21A
:10C7D0000712431E03F8011F9342FBD1002380F888
:10C7E0000A3180F80B31704710B58C18A24200D185
:10C7F00010BD12F8011BFFF7DDFFF7E710B5437915
:10C8000090F8081107338B42044604D12046FCF708
:10C810000DFC012010BD90F80A310BB10329F5D8A9
:10C820000021054A0846F7F7FDF8204694F808115C
:10C83000FCF7FCFB0020EDE7CE6F0B00427990F88F
:10C840000831911D994210B415D18178C3781144F3
:10C8500019440379053219440623C9B2934204DD11
:10C86000C94310BCC9B2FFF7A5BFC45C0133214462
:10C87000C9B29BB2F2E710BC70472DE9F0410F46F8
:10C8800014461E46DDF81880FFF79BFFC721FFF70F
:10C8900091FFC821FFF78EFF3946FFF78BFF30214C
:10C8A000FFF788FF2146FFF785FF0021FFF782FF92
:10C8B0002146FFF77FFF31460546FFF77BFF4046E5
:10C8C00002F032FA4246C1B22846FFF78DFF00213E
:10C8D000FFF770FF95F80831063B6B71FFF7AEFF6D
:10C8E000BDE8F041FFF78ABF2DE9F84F0F46DDE9BB
:10C8F0000C9816461D469DF828B09DF82CA0FFF711
:10C9000060FFC721FFF756FFCA21FFF753FF3946E3
:10C91000FFF750FF3021FFF74DFF3146FFF74AFF89
:10C920000021FFF747FF5946FFF744FF2946FFF76D
:10C9300041FF51460446FFF73DFF484602F0F4F937
:10C940004A46C1B22046FFF74FFF0021FFF732FFF2
:10C95000404602F0E9F94246C1B22046FFF744FFE3
:10C960000021FFF727FF94F80831063B6371FFF7BA
:10C9700065FFBDE8F84FFFF741BF2DE9F84F0F46BF
:10C98000DDE90B9816461D469DF828B09DF834A0A9
:10C99000FFF717FFC721FFF70DFFCA21FFF70AFFB7
:10C9A0003946FFF707FF3021FFF704FF3146FFF755
:10C9B00001FF0021FFF7FEFE0421FFF7FBFE2946E1
:10C9C000FFF7F8FE59460446FFF7F4FE484602F02A
:10C9D000ABF94A46C1B22046FFF706FF0021FFF738
:10C9E000E9FE404602F0A0F94246C1B22046FFF7F8
:10C9F000FBFE0021FFF7DEFEFFF7DCFE5146FFF7EE
:10CA0000D9FE94F80831063B6371FFF717FFBDE8C4
:10CA1000F84FFFF7F3BE2DE9F74F0F46DDE90D980C
:10CA200016461D469DF830209DF840309DF83CA0EC
:10CA300000939DF844B00192FFF7C3FEC721FFF7B2
:10CA4000B9FECA21FFF7B6FE3946FFF7B3FE302123
:10CA5000FFF7B0FE3146FFF7ADFE0021FFF7AAFE5B
:10CA60000621FFF7A7FE2946FFF7A4FE019A044618
:10CA70001146FFF79FFE484602F056F94A46C1B2FA
:10CA80002046FFF7B1FE0021FFF794FE404602F07A
:10CA90004BF94246C1B22046FFF7A6FE0021FFF740
:10CAA00089FEFFF787FE009B1946FFF783FE0021F2
:10CAB000FFF780FE5946FFF77DFE0021FFF77AFE63
:10CAC0005146FFF777FE94F80831063B6371FFF794
:10CAD000B5FE03B0BDE8F04FFFF790BE07B5837A0F
:10CAE00003F5FA630093437A027AC1798079FCF7FF
:10CAF00065FD03B05DF804FB014B1878704700BF7B
:10CB0000F93E082010B5837904466BB90121074B23
:10CB100002201970064A074BF6F784FF217AE07964
:10CB2000BDE81040FCF73BBB10BD00BFF93E08203C
:10CB3000CFA30B00E7A30B0010B504468379074A87
:10CB400001210020F6F76EFFA379BDE810401A2BF3
:10CB500096BF034A0120D05CFCF730BBFAA30B0060
:10CB60000DA40B001FB5437B0393037B0293C37A91
:10CB70000193837A0093437A027A8179C079FCF732
:10CB800029F905B05DF804FB10B504460121002029
:10CB9000054AF6F747FFA379022B04D1E079BDE8F7
:10CBA0001040FCF751B910BD28A40B0025232DE936
:10CBB000F04300254FF02E098BB08DF800308379BB
:10CBC000DFF844808DF80130C41D0DF1020714F820
:10CBD000016B1D2D07F8016B0AD100214246084662
:10CBE000F6F720FF42F62E638DF81D90ADF81E304B
:10CBF0000135EDB21E2D01D0002EE8D16846F6F7C2
:10CC0000C1FD0BB0BDE8F0832EA40B008379027A3E
:10CC1000C17903F00F00FCF7FFB800002DE9F047E1
:10CC200000252623A9464FF02E0A8AB08DF8003041
:10CC30008379DFF854808DF80130C37900F108045E
:10CC40008DF802300DF1030714F8016B1D2D07F864
:10CC5000016B0CD1002142460846F6F7E3FE42F68E
:10CC60002E638DF81DA0ADF81E308DF82090013593
:10CC7000EDB21E2D01D0002EE6D16846F6F782FDFA
:10CC80000AB0BDE8F08700BF2EA40B00704700007B
:10CC900070B5012104461A4A00208AB0F6F7C2FE98
:10CCA0000025184E94F80811EBB2994214D80121CE
:10CCB0000020154AF6F7B6FEA3792BB9E3791BB924
:10CCC000237A8BB1012B18D0227AE179A0790AB0AE
:10CCD000BDE87040FCF7EEB8324601210020E35C6D
:10CCE000F6F7A0FE0135DDE7FFF75AF93523684670
:10CCF0008DF80030F6F746FDE6E7FFF751F9E3E778
:10CD00004EA40B00BF720B00416A0B0070B50121ED
:10CD100004460F4A0020F6F785FE00250D4E94F8D4
:10CD20000811EBB299420AD8012100200A4AF6F70D
:10CD300079FEE179A079BDE87040FCF7D7B83246BA
:10CD400001210020E35CF6F76DFE0135E7E700BF47
:10CD50004EA40B00BF720B00416A0B0030B4074CAD
:10CD60009DF8085024681CB1A446029530BC604769
:10CD70002146204630BC024AF6F754BEFC3E08204D
:10CD800059A40B0008B50121034B044A0020F6F713
:10CD900049FE062008BD00BFACA40B007FA40B0019
:10CDA00000230246FF2180F84630831C42F8403FB2
:10CDB00003F8011B9342FBD140F29F230380002321
:10CDC000A0F8441080F84730836480F84C307047F6
:10CDD000F8B500240A4D0B4E0B4F2978E3B2994267
:10CDE00006D8BDE8F84001210020084AF6F71ABE2F
:10CDF0003A4601210020F35CF6F714FE0134ECE71B
:10CE000088400820C03F0820E66C0B00416A0B00F8
:10CE100008B5F3F7D1FC0023054A1370054A1370D7
:10CE20000122054B1A70BDE80840F3F7D5BC00BFDE
:10CE30006C3F0820143F0820DB82072010B5104CFF
:10CE40002378022B10D801210E4A0020F6F7EAFDC4
:10CE500023780D48013323700023BDE810401A46A3
:10CE600019460068F4F7D9BF0121084A0020F6F7F7
:10CE7000D9FDFFF7ADFFBDE81040FFF7C9BF00BF08
:10CE80006C3F0820EC6C0B00003F0820F66C0B0098
:10CE90000023F7B5244A18461146244D2E78DCB2FB
:10CEA000A6423DD89F230B70022328700322002046
:10CEB0004B701F4B93F844401F6C8C70C6B217F830
:10CEC00006C00130BCF19F0F12BF134601F802C02B
:10CED000531CBA5D08BFDBB2C6B2CA54B44203F1F8
:10CEE0000102D2B2EAD29F2088540322DC1C023312
:10CEF000DBB2CA540F4BE4B21E68F3F78DFE002379
:10CF00000246009301213046F4F74AFC22460A4BC0
:10CF1000054918682C70C36803B0BDE8F040184795
:10CF200002F8010B0133BAE7C03F0820884008200F
:10CF3000703F0820103F0820083F082030B50D4BF7
:10CF400093F844001A6C93F8451002445170002184
:10CF500093F84420CCB2A24202F1010202D283F83B
:10CF6000442030BD186C0131045D855C6C408454F4
:10CF7000EEE700BF703F0820094A92F84430A3F161
:10CF80003D01C9B2C1290AD9116C0133DBB282F863
:10CF90004430C85492F84530013382F84530704728
:10CFA000703F082010B50446C0B2FFF7E5FFC4F398
:10CFB0000720FFF7E1FFC4F30740FFF7DDFF200E76
:10CFC000BDE81040FFF7D8BF036C587800F016BAE0
:10CFD000036C5878003818BF012000F009BA00002F
:10CFE0002DE9F043AC4E4E2230684FF4E1314369F5
:10CFF0008BB09847A94CAA4F00213868F5F73CF947
:10D000000246E0B1FFF744FF30680A23012280693D
:10D010000DF10F01F8F776FB002846D1A14B1D78E2
:10D020006A1C1A70002DE6D1F4F752F86328E2D892
:10D03000012128469C4B9D4AF6F7F4FCDBE79C4D0A
:10D040002B78002BE0D09B4B04A91868F5F772F8F9
:10D050000028D9D09848FFF7A3FE9DF81000FFF7ED
:10D060008BFF9DF81030052B06D8052B0CD8DFE878
:10D0700003F0070B0B071215172B0CD0182B03D13D
:10D080009DF81800FFF778FFFFF758FFFFF700FF44
:10D0900000232B70B8E70598FFF784FF9DF8180070
:10D0A000FFF76AFF9DF81900ECE794F846209DF819
:10D0B0000F30002A53D00022022B84F846200AD1D8
:10D0C0002046FFF76DFE012384F8493094F848307C
:10D0D000002B99D008E0032B2DD194F84930002B78
:10D0E000F4D0012384F8483094F84730002B5DD009
:10D0F0000A230093002371481A4603210068F4F7BD
:10D100004FFB94F84B30002B4DD06D4D2B78032BFB
:10D1100042D801216B4A0020F6F784FC00233868CE
:10D120001A461946F4F779FE2B7801332B70204606
:10D13000FFF736FE68E7062B05D1012384F84A3055
:10D1400084F84730C2E7152B03D1012384F84B3014
:10D15000F6E79F2B09D02046FFF722FEB6E79F2B6C
:10D1600003D1012384F84630B0E794F84420A2F1BB
:10D170003E01C9B2C029A9D994F8491029B194F83F
:10D18000451011B984F84530A0E7216C0132D2B2C4
:10D1900084F844208B5499E701214B4A0020F6F78C
:10D1A00041FCFFF715FEFFF733FEC0E794F845108A
:10D1B00094F844000A468446D4F840E09DB2AC4559
:10D1C00006D31EF803500133412B82EA0502F5D144
:10D1D00035688142D5F80C8040F09A80002A40F0F2
:10D1E00097803A4A04AB10685168082203C3284666
:10D1F00004A9C04794F8483043B1226C1378042B3B
:10D200002CD027D8012B42D0032B72D00121304AD9
:10D210000020F6F707FC94F8455094F84830FF2DAD
:10D2200008BF0025009301212B460020294AF6F76C
:10D23000F9FB4FF00008DFF8A09003355FFA88F3A0
:10D24000AB4208F101085CDD0121244A0020F6F719
:10D25000E9FB6CE7162B50D0172BD7D10025D2F85D
:10D260000180DFF8749094F84410EBB2994237D8FB
:10D2700001210020194AF6F7D5FBB8F1000F3FF461
:10D2800056AF236C99795879DA1DC0474FE720468D
:10D29000FFF79AFE4BE700BF083F0820183F082021
:10D2A000003F08200C3F0820E4A40B00D0680B00CE
:10D2B000DB820720683F0820703F0820103F0820CD
:10D2C000143F08201F6D0B00266D0B00766D0B00C0
:10D2D000636D0B00CAA40B00E66C0B00416A0B00E7
:10D2E000226C0121D35C00204A46F6F79BFB0135F6
:10D2F000B9E752780B4B1A7019E72046FFF768FE22
:10D3000015E74A460121E35C0020F6F78BFB95E721
:10D31000054A04AB10685168082203C3284604A9D3
:10D32000C04704E70D3F08207F6D0B00014B1878C4
:10D33000704700BF0D3F082073B5154E34782CBBE5
:10D340000125144B144A15491A60154823464FF419
:10D35000C87201940095F3F731FB2246182128206A
:10D36000F4F736FD0F4B224618600F4BA0210093B7
:10D370000E482346F4F7EEF90D4B032218602146C0
:10D380002846F4F725FD0B4B3570186002B070BDD0
:10D39000043F0820083F082014820720DAA40B006D
:10D3A000E1CF0A00683F08203DCE0A00916D0B00D6
:10D3B000103F0820003F08200146034800230222B6
:10D3C0000068F4F72ABD00BF683F0820054B1B78B2
:10D3D0002BB9054B1B7813B9044B187800B1012009
:10D3E000FAF7BCB9894008208A4008208B40082001
:10D3F000014B1870FFF7EABF89400820F8B500F02C
:10D400004403442B064619D10122684B1A70FFF7DA
:10D41000DDFF06F07704032C654D1FD12B78042B1C
:10D4200011D801210020634AF6F7FCFA2B7801336A
:10D430002B700021012000F0DBF83EE0002BE8D14A
:10D440005A4A1370E3E701215B4A0020F6F7EAFA33
:10D4500001225A4B1A70FFF7B9FFEAE7584B1A78C6
:10D4600012B100222A701A702978002967D0042985
:10D4700063D808BF03234FF001014FF0030008BF3A
:10D480002B7000F0B5F8012100204E4AF6F7CAFAD9
:10D490002B78013B2B700022484B1A70FFF796FF48
:10D4A000402C01D0042CC4D10121084600F0A0F882
:10D4B00001210020444AF6F7B5FA302C434F42D1FF
:10D4C0000121434A0020F6F7ADFA0121022000F0C5
:10D4D0008FF83B7823B1122000F0F8F800233B705E
:10D4E0000021072000F084F8102C3DD101210020FC
:10D4F000384AF6F797FA0121062000F079F8002162
:10D50000042000F075F8012C3DD121460020324A5C
:10D51000F6F788FA2146052006F0880600F068F83C
:10D52000802E32D1012100202C4AF6F77BFA01210E
:10D53000082000F05DF8002133E00023AAE7032073
:10D5400000F056F8A7E701250021022000F050F86E
:10D55000202C3D70C4D129460020214AF6F762FAFA
:10D560002946072000F044F80021062000F040F88A
:10D57000022CC4D1012100201A4AF6F753FA0121E6
:10D58000042000F035F80021C5E70021082000F054
:10D590002FF8082ECFD101210020134AF6F742FAC6
:10D5A0000121BDE8F840092000F022B88B40082096
:10D5B000DE820720F4A40B00FBA40B008A400820A5
:10D5C000DD82072004A50B000BA50B00DC820720E1
:10D5D00012A50B0020A50B002DA50B0033A50B00F9
:10D5E00018A50B0026A50B003CA50B007047704743
:10D5F00008B5034609282FD8DFE800F0050B0F1304
:10D60000171A1E2124284FF400222D4B11B31A6340
:10D6100008BD4FF080722B4BF8E74FF48022284B67
:10D62000F4E74FF48072264BF0E78022244BEDE7BD
:10D630004FF40052224BE9E74022224BE6E710224A
:10D64000204BE3E74FF480621D4BDFE74FF40062AD
:10D650001B4BDBE75A63DBE71B4A01210020F6F78F
:10D66000E1F94022174B5A6310225A634FF400022B
:10D670005A634FF480025A634FF080725A634FF43A
:10D680000022C3F834228022C3F834224FF400521F
:10D69000C3F834224FF48022C3F834224FF480724E
:10D6A000C3F834224FF48062C3F834224FF0806212
:10D6B000C3F834224FF40062C3F83422A8E700BF55
:10D6C00000100E40000E0E4047A50B001F2300B5B2
:10D6D0008BB08DF8010068468DF80030F6F752F8EF
:10D6E0000BB05DF804FB0000054B1870054B10B93A
:10D6F000588018707047022240001A705880704796
:10D700008C4008208E400820F0B5114D8DB001AC42
:10D7100006460F460FCD0FC40FCD0FC495E8070086
:10D7200084E80700002201A951F8043BB7FBF3F39A
:10D73000B3FBF6F3B3F5807F06D901320B2AF3D1A0
:10D740004FF6FF700DB0F0BD43EA0220FAE700BFCC
:10D750005CA50B0070B50C6806460D4644B120462A
:10D760008968FFF7D1FF4FF6FF73984204460CD04B
:10D77000686840B1A968FFF7C7FF4FF6FF7398428A
:10D7800005D044EA004434600024204670BD0446BD
:10D79000FBE730B54A688C8A02F00F0222430C89FD
:10D7A0008D7D22438C7A0B6842EA4422CC7D42EA8A
:10D7B000054242EA44420C7E42EA844200EB4314B2
:10D7C000C4F80022CA68C4F804220A69C4F80C220A
:10D7D0001DB1D1F81A20C4F81822CA7F02FA03F446
:10D7E0008A7F9A4042EA0442826491F8212002FA38
:10D7F00003F491F820209A4042EA04424264012254
:10D8000091F822409A4024B3046A1443046291F8C8
:10D810002440012C846E0CBF14439443846691F819
:10D8200025401204012C846E0CBF224324EA02021C
:10D830008266032B91F823204FF0FF010DD8C46EB0
:10D84000DB00994024EA01019A400A43C2660020A5
:10D8500030BD046A24EA0204D8E7043B046FDB000D
:10D86000994024EA010102FA03F30B430367EEE750
:10D87000CB6893429FBF0B680A6100EB4310C0F86E
:10D88000102294BF00204FF6FF7070470B6993423F
:10D8900021BF0B68CA6000EB4310C0F808222CBF00
:10D8A00000204FF6FF70704701238B4043607047A4
:10D8B00001238B408360704781F0004102E000BF8C
:10D8C00083F0004330B54FEA41044FEA430594EA40
:10D8D000050F08BF90EA020F1FBF54EA000C55EA7B
:10D8E000020C7FEA645C7FEA655C00F0E2804FEA4C
:10D8F0005454D4EB5555B8BF6D420CDD2C4480EA2E
:10D90000020281EA030382EA000083EA010180EA5D
:10D91000020281EA0303362D88BF30BD11F0004FAB
:10D920004FEA01314FF4801C4CEA113102D04042E1
:10D9300061EB410113F0004F4FEA03334CEA13331C
:10D9400002D0524263EB430394EA050F00F0A78034
:10D95000A4F10104D5F1200E0DDB02FA0EFC22FA2F
:10D9600005F2801841F1000103FA0EF2801843FA23
:10D9700005F359410EE0A5F120050EF1200E012A14
:10D9800003FA0EFC28BF4CF0020C43FA05F3C01852
:10D9900051EBE37101F0004507D54FF0000EDCF1CB
:10D9A000000C7EEB00006EEB0101B1F5801F1BD374
:10D9B000B1F5001F0CD349085FEA30004FEA3C0C78
:10D9C00004F101044FEA445212F5800F80F09A806E
:10D9D000BCF1004F08BF5FEA500C50F1000041EB72
:10D9E000045141EA050130BD5FEA4C0C404141EB76
:10D9F0000101013C28BFB1F5801FE9D291F0000F71
:10DA000004BF01460020B1FA81F308BF2033A3F11F
:10DA10000B03B3F120020CDA0C3208DD02F1140C16
:10DA2000C2F10C0201FA0CF021FA02F10CE002F151
:10DA30001402D8BFC2F1200C01FA02F120FA0CFC4A
:10DA4000DCBF41EA0C019040E41AA2BF01EB045193
:10DA5000294330BD6FEA04041F3C1CDA0C340EDC91
:10DA600004F11404C4F1200220FA04F001FA02F3D4
:10DA700040EA030021FA04F345EA030130BDC4F192
:10DA80000C04C4F1200220FA02F001FA04F340EA87
:10DA90000300294630BD21FA04F0294630BD94F038
:10DAA000000F83F4801306BF81F480110134013D1F
:10DAB0004EE77FEA645C18BF7FEA655C29D094EA90
:10DAC000050F08BF90EA020F05D054EA000C04BF0E
:10DAD0001946104630BD91EA030F1EBF00210020F9
:10DAE00030BD5FEA545C05D14000494128BF41F098
:10DAF000004130BD14F580043CBF01F5801130BDFC
:10DB000001F0004545F0FE4141F470014FF0000086
:10DB100030BD7FEA645C1ABF194610467FEA655C37
:10DB20001CBF0B46024650EA013406BF52EA0335D9
:10DB300091EA030F41F4002130BD00BF90F0000FC7
:10DB400004BF0021704730B54FF4806404F1320403
:10DB50004FF000054FF0000150E700BF90F0000FBC
:10DB600004BF0021704730B54FF4806404F13204E3
:10DB700010F0004548BF40424FF000013EE700BFB3
:10DB800042004FEAE2014FEA31014FEA02701FBF43
:10DB900012F07F4393F07F4F81F06051704732F075
:10DBA0007F4208BF704793F07F4F04BF41F40021CC
:10DBB000704730B54FF4607401F0004521F000412A
:10DBC0001CE700BF50EA010208BF704730B54FF0B4
:10DBD00000050AE050EA010208BF704730B511F0B5
:10DBE000004502D5404261EB41014FF4806404F1ED
:10DBF00032045FEA915C3FF4D8AE4FF003025FEA73
:10DC0000DC0C18BF03325FEADC0C18BF033202EBF6
:10DC1000DC02C2F1200300FA03FC20FA02F001FA50
:10DC200003FE40EA0E0021FA02F11444BDE600BFF3
:10DC300070B54FF0FF0C4CF4E06C1CEA11541DBFA2
:10DC40001CEA135594EA0C0F95EA0C0F00F0DEF86D
:10DC50002C4481EA030621EA4C5123EA4C5350EA52
:10DC6000013518BF52EA033541F4801143F48013A3
:10DC700038D0A0FB02CE4FF00005E1FB02E506F034
:10DC80000042E0FB03E54FF00006E1FB03569CF089
:10DC9000000F18BF4EF0010EA4F1FF04B6F5007F8F
:10DCA00064F5407404D25FEA4E0E6D4146EB060601
:10DCB00042EAC62141EA55514FEAC52040EA5E508A
:10DCC0004FEACE2EB4F1FD0C88BFBCF5E06F1ED834
:10DCD000BEF1004F08BF5FEA500E50F1000041EB6B
:10DCE000045170BD06F0004646EA010140EA020018
:10DCF00081EA0301B4EB5C04C2BFD4EB0C0541EA3A
:10DD0000045170BD41F480114FF0000E013C00F34E
:10DD1000AB8014F1360FDEBF002001F0004170BD72
:10DD2000C4F10004203C35DA0C341BDC04F114048B
:10DD3000C4F1200500FA05F320FA04F001FA05F217
:10DD400040EA020001F0004221F0004110EBD370E4
:10DD500021FA04F642EB06015EEA430E08BF20EA10
:10DD6000D37070BDC4F10C04C4F1200500FA04F3B3
:10DD700020FA05F001FA04F240EA020001F0004145
:10DD800010EBD37041F100015EEA430E08BF20EAB8
:10DD9000D37070BDC4F1200500FA05F24EEA020E00
:10DDA00020FA04F301FA05F243EA020321FA04F02F
:10DDB00001F0004121FA04F220EA020000EBD370E6
:10DDC0005EEA430E08BF20EAD37070BD94F0000FE6
:10DDD0000FD101F00046400041EB010111F4801F1A
:10DDE00008BF013CF7D041EA060195F0000F18BFCB
:10DDF000704703F00046520043EB030313F4801F07
:10DE000008BF013DF7D043EA0603704794EA0C0FC0
:10DE10000CEA135518BF95EA0C0F0CD050EA4106D6
:10DE200018BF52EA4306D1D181EA030101F0004153
:10DE30004FF0000070BD50EA410606BF104619467B
:10DE400052EA430619D094EA0C0F02D150EA013687
:10DE500013D195EA0C0F05D152EA03361CBF1046C8
:10DE600019460AD181EA030101F0004141F0FE4167
:10DE700041F470014FF0000070BD41F0FE4141F4EB
:10DE8000780170BD70B54FF0FF0C4CF4E06C1CEAEB
:10DE900011541DBF1CEA135594EA0C0F95EA0C0FA0
:10DEA00000F0A7F8A4EB050481EA030E52EA03355B
:10DEB0004FEA013100F088804FEA03334FF080557C
:10DEC00045EA131343EA12634FEA022245EA1115A9
:10DED00045EA10654FEA00260EF000419D4208BF5A
:10DEE000964244F1FD0404F5407402D25B084FEA07
:10DEF0003202B61A65EB03055B084FEA32024FF4B3
:10DF000080104FF4002CB6EB020E75EB030E22BF0F
:10DF1000B61A754640EA0C005B084FEA3202B6EBCF
:10DF2000020E75EB030E22BFB61A754640EA5C007E
:10DF30005B084FEA3202B6EB020E75EB030E22BF0E
:10DF4000B61A754640EA9C005B084FEA3202B6EB0F
:10DF5000020E75EB030E22BFB61A754640EADC00CE
:10DF600055EA060E18D04FEA051545EA16754FEA30
:10DF700006164FEAC30343EA52734FEAC2025FEA4E
:10DF80001C1CC0D111F4801F0BD141EA00014FF0DD
:10DF900000004FF0004CB6E711F4801F04BF0143AE
:10DFA0000020B4F1FD0C88BFBCF5E06F3FF6AFAECA
:10DFB000B5EB030C04BFB6EB020C5FEA500C50F15A
:10DFC000000041EB045170BD0EF0004E4EEA1131DD
:10DFD00014EB5C04C2BFD4EB0C0541EA045170BDE4
:10DFE00041F480114FF0000E013C90E645EA060E28
:10DFF0008DE60CEA135594EA0C0F08BF95EA0C0F56
:10E000003FF43BAF94EA0C0F0AD150EA01347FF49D
:10E0100034AF95EA0C0F7FF425AF104619462CE774
:10E0200095EA0C0F06D152EA03353FF4FDAE1046D7
:10E03000194622E750EA410618BF52EA43067FF428
:10E04000C5AE50EA41047FF40DAF52EA43057FF4B8
:10E05000EBAE12E74A0011D212F5001211D20DD523
:10E060006FF47873B3EB62520ED44FEAC12343F0DE
:10E07000004343EA505323FA02F070474FF0000088
:10E08000704750EA013002D14FF0FF3070474FF037
:10E090000000704753B94AB9002908BF00281CBFC7
:10E0A0004FF0FF314FF0FF3000F076B9ADF1080CC2
:10E0B0006DE904CE00F006F8DDF804E0DDE90223A6
:10E0C00004B070472DE9F047089E0D460446884687
:10E0D000002B4DD18A42944668D9B2FA82F252B1ED
:10E0E00001FA02F3C2F1200120FA01F10CFA02FC5C
:10E0F00041EA030894404FEA1C41B8FBF1F71FFACC
:10E100008CFE01FB178807FB0EF0230C43EA084343
:10E1100098420AD91CEB030307F1FF3580F01E81FA
:10E12000984240F21B81023F63441B1AB3FBF1F09B
:10E1300001FB103300FB0EFEA4B244EA0344A645E3
:10E140000AD91CEB040400F1FF3380F00981A645D5
:10E1500040F20681644402380021A4EB0E0440EA38
:10E1600007401EB10023D440C6E90043BDE8F08754
:10E170008B4208D9002E00F0EE800021C6E9000590
:10E180000846BDE8F087B3FA83F100294AD1AB42D3
:10E1900002D3824200F2FC80841A65EB0303012063
:10E1A0009846002EE2D0C6E90048DFE702B9FFDE5C
:10E1B000B2FA82F2002A40F09180A1EB0C0001211A
:10E1C0004FEA1C471FFA8CFEB0FBF7F307FB130066
:10E1D000250C45EA00450EFB03F0A84208D91CEBCC
:10E1E000050503F1FF3802D2A84200F2CE80434673
:10E1F0002D1AB5FBF7F007FB10550EFB00FEA4B27D
:10E2000044EA0544A64508D91CEB040400F1FF3597
:10E2100002D2A64500F2B6802846A4EB0E0440EADE
:10E2200003409EE7C1F120078B4022FA07FC4CEA2D
:10E23000030C25FA07FA4FEA1C49BAFBF9F820FA51
:10E2400007F309FB18AA8D401FFA8CFE1D4300FA44
:10E2500001F308FB0EF02C0C44EA0A44A04202FA37
:10E2600001F20BD91CEB040408F1FF3A80F088801E
:10E27000A04240F28580A8F102086444241AB4FB4D
:10E28000F9F009FB104400FB0EFEADB245EA044470
:10E29000A64508D91CEB040400F1FF356CD2A64555
:10E2A0006AD90238644440EA0840A0FB0295A4EB16
:10E2B0000E04AC42C846AE4656D353D0002E69D0A9
:10E2C000B3EB080264EB0E0422FA01F304FA07F739
:10E2D0001F43CC40C6E90074002147E70CFA02FC5A
:10E2E000C2F1200125FA01F34FEA1C4720FA01F19F
:10E2F00095400D43B3FBF7F107FB11331FFA8CFE7A
:10E30000280C40EA034001FB0EF3834204FA02F4B6
:10E3100008D91CEB000001F1FF382FD283422DD920
:10E3200002396044C01AB0FBF7F307FB1300ADB22B
:10E3300045EA004503FB0EF0A84208D91CEB050591
:10E3400003F1FF3816D2A84214D9023B6544281ABB
:10E3500043EA014138E73146304607E72F46E4E615
:10E360001846F9E64B45A9D2B9EB020865EB0C0E4D
:10E370000138A3E74346EAE7284694E74146D1E758
:10E38000D0467BE76444023847E7023B65442FE709
:10E39000084606E73146E9E6704700BF03460A46ED
:10E3A00002490868194600F003B800BFE082072060
:10E3B00010B502FB01F100F04FF8044668B150F8C7
:10E3C000042C22F00302043A242A18D8132A06D86F
:10E3D00002460023C2E900339360204610BD0023AB
:10E3E0001B2AC0E900330FD9242AC0E9023311BF28
:10E3F00000F11002036100F118024361E9E7002116
:10E4000000F04CFB204610BD00F10802E1E700BF20
:10E4100070B50D4E0D4D761BB61006D0002455F884
:10E42000043B01349847A642F9D1094E094D0CF03E
:10E43000B9FA761BB61006D0002455F8043B013417
:10E440009847A642F9D170BDB0A90B00B0A90B0046
:10E45000B8A90B00B0A90B002DE9F04F01F10B0595
:10E46000162D064683B025D8102900F2B88000F09A
:10E4700067FB102518224FF0020CB54F3A44536841
:10E48000A2F108018B4200F0B7805A68D96822F0E7
:10E4900003021A449C683046E1608C60516803F1C5
:10E4A000080441F00101516000F050FB204603B028
:10E4B000BDE8F08F35F0070500F19180A94200F228
:10E4C0008E8000F03DFBB5F5FC7FC0F094816B0AB7
:10E4D00000F08C80042B00F26A81AB0903F1390C47
:10E4E00003F138044FEACC00994F384443680838A8
:10E4F000984206D10CE0002980F22681DB68984220
:10E5000006D05A6822F00302511B0F29F3DDA446FE
:10E510003C69DFF840E274457AD0626822F0030279
:10E52000531B0F2B00F37681002BC7E904EE80F21A
:10E530006781B2F5007F80F019810121D30852096B
:10E540000B4491407A6857F833000A4307EBC30144
:10E550000839A060E1607A6047F83340C460012167
:10E560004FEAAC039940914259D8114206D12CF0A0
:10E57000030C490011420CF1040CFAD007EBCC0952
:10E5800048466446D0F80C80404508D11CE1002B79
:10E5900080F22181D8F80C80404500F01581D8F830
:10E5A000042022F00302531B0F2BF0DD08EB0501C2
:10E5B00045F00105C8F804503046D8E90264F4601B
:10E5C000A66043F00104C7E904114C60C1E902EE02
:10E5D00048F8023000F0BAFA08F1080402E00C230F
:10E5E00000243360204603B0BDE8F08F4FF4007084
:10E5F0004FF0400C3F2477E7D3689A4208BF0CF1F4
:10E60000020C7FF442AF3C69DFF848E1744584D1E5
:10E6100001217A684FEAAC0399409142A5D9BC68C0
:10E62000636823F003094D4503D8A9EB05030F2BBD
:10E630007ADCDFF824B1494BDBF800201B6801329B
:10E640002B4404EB090A00F02F8103F580530F33AC
:10E6500023F47F6828F00F084146304600F090FA16
:10E66000411C024600F0EF80824500F2EA803C4BFC
:10E67000196841440846196000F04981DBF8001030
:10E68000019301311BBFA2EB0A0A5044CBF80020D2
:10E69000186012F0070B00F01181CBF108010A4459
:10E6A000CBF5805190440831A1EB0801C1F30B0A6E
:10E6B00051463046009200F063FA421CDDE9002327
:10E6C00000F04B81801A00EB0A08196848F001003D
:10E6D0005144BC42BA601960506000F02481B9F125
:10E6E0000F0F40F222814FF0050E6068A9F10C0C6B
:10E6F0002CF0070C00F0010040EA0C006060BCF157
:10E700000F0F04EB0C00C0E901EE00F22E8114465D
:10E710005068144B1A688A4238BF1960124B1A6845
:10E720008A4238BF196090E0621943F0010345F056
:10E73000010565603046BA600834536000F006FA9F
:10E74000204603B0BDE8F08FD9681A44A2E600BFA6
:10E750001087072018870720188B0720C44008203F
:10E7600094400820BC400820C0400820B2F5206F2B
:10E770004FEA52235FD3142B00F2B18003F15C0106
:10E78000C9005B33781879580838884200F08F80C8
:10E790004B6823F00303934202D989688842F7D17A
:10E7A000C8687A68C4E902108460CC60D7E6142B8C
:10E7B00059D9542B00F29B802B0B03F16F0C03F102
:10E7C0006E044FEACC008FE60134A30700F1080085
:10E7D0007FF4D8AE53E0444642445368D8F80C1056
:10E7E00043F00103536054F8083F3046D9608B6012
:10E7F00000F0ACF9F6E64FEAD50C05F108023CE66C
:10E8000022445368304643F00103536000F09EF900
:10E810000834E7E6611945F00105656043F001053C
:10E82000C7E904113046C1E902EE4D60A35000F083
:10E830008DF90834D6E6930903F13901C90038335C
:10E84000A0E7BC425ED0BC68606820F00308454584
:10E85000A8EB050302D80F2B3FF766AF304600F058
:10E8600075F90024BEE603F15C0C03F15B044FEA8A
:10E87000CC0039E659F808394B4540F095801CF03A
:10E88000030F0CF1FF3CF5D17B6823EA01037B60A9
:10E89000490099423FF6C3AE11B9C0E649000434BD
:10E8A0001942FBD0A44669E603F11008D4E6012220
:10E8B0009B109A407B681A437A6073E702EB080169
:10E8C0004942C1F30B0A51463046009200F058F914
:10E8D000431CDDE900237FF4F5AEDA46F5E6542B60
:10E8E00026D8130B03F16F01C9006E334AE7B3F565
:10E8F000AA7F26D8EB0B03F1780C03F177044FEADB
:10E90000CC00F1E5294B186840441860B6E6CAF31C
:10E910000B0CBCF1000F7FF4B1AEBC68C84448F0EA
:10E9200001006060F5E61446F3E60123536095E7C5
:10E93000B3F5AA7F24D8D30B03F17801C90077334C
:10E9400020E740F25452934224D8AB0C03F17D0CE3
:10E9500003F17C044FEACC00C6E5ABF1080BD844C8
:10E960004FF0000AA8EB0208AFE604F108013046B8
:10E97000009305F0BFF8BC68009B60681968C8E6A2
:10E9800040F254518B420BD8930C03F17D01C90026
:10E990007C33F7E64FF47E704FF07F0C7E24A3E5C6
:10E9A0004FF47E717E23EDE67B6871E7944008208A
:10E9B000844641EA000313F0030349D1403A23D3CC
:10E9C0000B6803604B6843608B688360CB68C360EF
:10E9D0000B6903614B6943618B698361CB69C361D7
:10E9E0000B6A03624B6A43628B6A8362CB6AC362BF
:10E9F0000B6B03634B6B43638B6B8363CB6BC363A7
:10EA000040304031403ADBD230320BD30B680360E8
:10EA10004B6843608B688360CB68C36010301031F3
:10EA2000103AF3D20C3205D351F8043B40F8043BC2
:10EA3000043AF9D2043208D0D2071CBF11F8013BC6
:10EA400000F8013B01D30B8803806046704700BF8C
:10EA5000082A13D38B07B1D010F00303AED0C3F153
:10EA60000403D21ADB071CBF11F8013B00F8013B7D
:10EA7000A4D331F8023B20F8023B9FE7043AD9D3F4
:10EA8000013A11F8013B00F8013BF9D20B78037011
:10EA90004B7843708B78837060467047830730B53E
:10EAA00048D0541E002A3FD00346CAB201E0013CC0
:10EAB0003AD303F8012B9D07F9D1032C2DD9CDB200
:10EAC00045EA05250F2C45EA054536D9A4F1100283
:10EAD00022F00F0C03F1200EE6444FEA121C03F162
:10EAE000100242E9045542E9025510327245F8D14C
:10EAF0000CF1010214F00C0F03EB021204F00F0CE6
:10EB000013D0ACF1040323F003030433134442F89D
:10EB1000045B9342FBD10CF003042CB1CAB21C4439
:10EB200003F8012B9C42FBD130BD64461346002CF8
:10EB3000F4D1F9E703461446BFE71A46A446E0E7D6
:10EB4000014805F07BBA00BFCC400820014805F021
:10EB500077BA00BFCC4008200FB400B5074A83B095
:10EB600004AB106853F8042B8168019301F064FF33
:10EB700003B05DF804EB04B0704700BFE0820720EB
:10EB8000002238B5064D044608462A60F1F7CEFB50
:10EB9000431C00D038BD2B68002BFBD0236038BD50
:10EBA000D84008200EB430B504466FF000459CB044
:10EBB0000B4A1FAB0B49059253F8042B086802A9B6
:10EBC000CDE9013407950495069400F0E3F900229D
:10EBD000029B1A701CB0BDE8304003B0704700BF04
:10EBE0000802FFFFE0820720844610B40E4C1CF898
:10EBF000013B11F8010BE25C02F00302012A225CE6
:10EC000008BF203302F00302012A05D01B1A08D1E5
:10EC10000028ECD110BC70472030181AE7D010BC87
:10EC20007047184610BC704711A60B00830710B53B
:10EC3000044610D10268A2F1013323EA020313F063
:10EC4000803F08D150F8042FA2F1013323EA0203D8
:10EC500013F0803FF6D003781BB110F8013F002B72
:10EC6000FBD100F003F8204610BD00BF80EA01028E
:10EC7000844612F0030F4FD111F0030F32D14DF83B
:10EC8000044D11F0040F51F8043B0BD0A3F10132F5
:10EC90009A4312F0803F04BF4CF8043B51F8043B08
:10ECA00016D100BF51F8044BA3F101329A4312F080
:10ECB000803FA4F101320BD14CF8043BA24312F087
:10ECC000803F04BF51F8043B4CF8044BEAD0234684
:10ECD0000CF8013B13F0FF0F4FEA3323F8D15DF836
:10ECE000044B704711F0010F06D011F8012B0CF8FE
:10ECF000012B002A08BF704711F0020FBFD031F876
:10ED0000022B12F0FF0F16BF2CF8022B8CF80020FC
:10ED100012F47F4FB3D1704711F8012B0CF8012B7F
:10ED2000002AF9D1704700BF20F0030110F0030062
:10ED3000C0F1000051F8043B00F1040C4FEACC0C88
:10ED40006FF000021CBF22FA0CF213434FF0010CCB
:10ED50004CEA0C2C4CEA0C4CA3EB0C0222EA03020A
:10ED600012EACC1204BF51F8043B0430F4D0C2F1D3
:10ED7000000102EA0102B2FA82F2C2F11F0200EBC4
:10ED8000D2007047830730B428D10468A4F101335E
:10ED900023EA040313F0803F034608D153F8045FCD
:10EDA000A5F1013424EA050414F0803FF6D01C7864
:10EDB0001CB113F8014F002CFBD19C4601391344C0
:10EDC000634509D011F8012F0CF8012B22B19C45A5
:10EDD000F6D100238CF8003030BC70470346E6E7DC
:10EDE00030B540EA0104A30722D1032A20D90B46FB
:10EDF0008446194653F8045BA5F1013424EA05045E
:10EE000014F0803F15D1043A032A19464CF8045BEC
:10EE1000EFD801F1FF3E52B163461EF8011F541EA8
:10EE200003F8011B41B122469C46002AF4D130BDB3
:10EE3000844601F1FF3EEEE76244002CF7D003F870
:10EE4000011B9342FBD130BD2DE9F04F81468E4628
:10EE5000444D70461EF801CB15F80C4014F0080420
:10EE6000F7D1BCF12D0FE34653D06FF00048BCF151
:10EE70002B0F04BF9EF800B000F1020E1BB1102B47
:10EE80004FD01F4604E0BBF1300F55D00A231F4678
:10EE90000025B8FBF7F6284607FB168A07E08642EE
:10EEA00015D329D0012507FB00C01EF801BBABF12B
:10EEB000300CBCF1090F06D9ABF1410CBCF1190FB4
:10EEC00008D8ABF1370C63450DDD002DE7DA4FF0C4
:10EED000FF35EAE7ABF1610CBCF1190F03D8ABF1D8
:10EEE000570C6345F1DC002D0BDB04B140420AB145
:10EEF00095BB1160BDE8F08FE245D3DA4FF0FF35E6
:10EF0000D3E72223C9F800301AB340460EF1FF318F
:10EF1000EFE79EF800B04FF00048012400F1020E28
:10EF2000ACE7BBF1300FACD19EF8000000F0DF0081
:10EF3000582807D01F46ABE79EF8003003F0DF03E8
:10EF4000582B0BD110279EF801B03B460EF1020E54
:10EF50009EE74046BDE8F08F8046D6E708231F466F
:10EF600096E700BF11A60B00012A10B50AD0242A8B
:10EF700008D8074C13460A4601462068BDE81040F1
:10EF8000FFF762BF04F0F2FB16230360002010BD00
:10EF9000E08207202DE9F04FD5B00C460C91914648
:10EFA0000E930A9005F042F8036818461793FFF78E
:10EFB000BBFEA3891690190603D52369002B00F028
:10EFC0008F8700242BAB224698464D46CDE9294435
:10EFD0002893129400230024CDE914342B78CDE932
:10EFE0001922CDE91B2218920892002B00F0CE8145
:10EFF000AA4604E01AF8013F002B00F00981252BF6
:10F00000F8D1BAEB050640F007819AF80030002BE2
:10F0100000F0BC8100234FF0FF324FF02B09202479
:10F020001F469AF8016007920AF1010A8DF88330B1
:10F0300009930AF1010AA6F120035A2B00F220815C
:10F04000DFE813F0CA021E011E01C5021E011E01E7
:10F050001E01A3021E011E016A00F3021E014702E7
:10F06000D9021E01D4025B005B005B005B005B0009
:10F070005B005B005B005B001E011E011E011E01A8
:10F080001E011E011E01B0011E010B027A00B0011B
:10F09000B001B0011E011E011E011E019E021E01D3
:10F0A0001E01B6001E011E011E0119021E014C02A6
:10F0B0001E011E013F071E011E011E011E011E0131
:10F0C0001E011E011E01B0011E010B027C00B001D9
:10F0D000B001B00191027C0075001E0184021E0186
:10F0E0007002B8005E0275001E01190272001C0752
:10F0F0001E011E011F071E0172000022A6F130032F
:10F100001AF8016B02EB820203EB4202A6F1300314
:10F11000092BF5D909928EE70E9B53F8042B002A90
:10F1200009920E93C0F2D2819AF8006081E79AF8B2
:10F13000006047F020077CE747F01007BA060E9BF7
:10F1400040F17D81073323F007031A465B6852F8CC
:10F15000084B99460E92002BC0F27F85079B013326
:10F1600001F0398054EA090327F0800B00F005858F
:10F170000A2C79F1000380F0938701235F46303435
:10F180008DF84F410B930DF24F15079A0B99002301
:10F190008A42B8BF0A4606929DF883200D930F93CA
:10F1A00013931093002A7CD0069B0133069378E0DA
:10F1B00047F0100717F0200900F032810E9B07334B
:10F1C00023F00703D3F8049053F8084B0E93002361
:10F1D00027F4806B00228DF88320079A511C00F0E1
:10F1E0002A8254EA09012BF0800740F02382002A8A
:10F1F00041F02B80002B40F0C5841BF001030B93E2
:10F2000000F0548530230DF24F158DF84F31BCE7D7
:10F21000BAEB050600F0BA802A9BC8E900563344D1
:10F220002A93299B0133072B299305DC08F1080851
:10F23000089B33440893E8E60C990A9828AA05F03D
:10F2400045FE80B90DF1AC08F2E70C990A9828AA9E
:10F2500005F03CFE002800F08A800D9B1BB10D9943
:10F260000A9804F047FC0C9B9B8913F0400F089B05
:10F2700018BF4FF0FF330893089855B0BDE8F08FE2
:10F28000002E00F08380012300228DF8EC600693AD
:10F290003BAD8DF883200B930D9207920F92139242
:10F2A000109217F0020302D006990231069117F06E
:10F2B000840B07D109990698A1EB0009B9F1000F59
:10F2C00000F336832A9C82B10122C8F80420299ACF
:10F2D000013401320DF18301072A2A942992C8F8DA
:10F2E000001000F3698308F108087BB10223C8F815
:10F2F0000430299B0234013321AA072B2A94299335
:10F30000C8F8002000F36C8308F10808BBF1800FF7
:10F3100000F02E82079B0B9AA3EB020BBBF1000FB0
:10F3200000F37182FB0500F1C5810B9BC8F800500A
:10F330001C44C8F80430299B2A940133072B2993D5
:10F3400000F3EA8208F108087B0705D5099B069AB5
:10F350009D1A002D00F35083DDE9083206998A4298
:10F36000ACBF9B185B180893002C7FF46EAF002392
:10F3700029930D9B1BB10D990A9804F0BBFB5546D0
:10F380000DF1AC082B78002B7FF432AE2A9B002BBA
:10F390003FF469AF0C9C0A98214628AA05F096FD17
:10F3A000A38962E70E9B073323F00702F2E80234D9
:10F3B000CDE91434DDE9143424F0004499461846AC
:10F3C0000E9221464FF0FF32B64B07F0A1F800280D
:10F3D00040F09684484621464FF0FF32B14B07F08B
:10F3E00079F8002840F08C84DDE914010022002324
:10F3F00007F066F8002840F0A6879DF883200021DA
:10F400000320A94DA94B27F080070D910690472EA8
:10F41000C8BF1D4607910B900F9113911091C1E643
:10F4200017F0100340F0628417F0400200F07B8771
:10F430000E9A994652F8044B0E92A4B2C7E653F8BE
:10F44000044B0E93FB0600F141847D0640F13B84A2
:10F4500044F3C0394B4624B27DE6012000220E9BC6
:10F46000069053F8041B3BAD8DF883208DF8EC100B
:10F470000E930B9010E74FF000090E9C079B54F879
:10F48000045B8DF88390002D00F0EE865A1C00F08E
:10F4900060851A464946284604F044FE0D9000282F
:10F4A00001F09E800D9B9DF883205B1B0B9323EA4C
:10F4B000E373CDF81C900E940693CDF83490CDF8FC
:10F4C0003C90CDF84C90CDF840906BE6099B5B42A8
:10F4D00009939AF8006047F00407AAE547F0100B7B
:10F4E0001BF0200900F0AA830E9B073323F00703CB
:10F4F0001A4652F8084BD3F804900E92012369E69D
:10F50000302278260E9B8DF8842053F8044B684AED
:10F510000E934FF00009022347F0020B8DF885602F
:10F52000189257E6BD0600F1D683FC0600F19386DB
:10F53000780600F15D87B90540F18D860E9B08992C
:10F5400053F8042B554611700E931BE79AF8006090
:10F550006C2E03BF9AF8016047F020070AF1010AF8
:10F5600047F0100765E59AF80060682E03BF9AF827
:10F57000016047F400770AF1010A47F0400758E5B7
:10F580009AF8006047F0080753E50A9E304604F0F9
:10F590004DFD436818461B93FFF7C6FB03463046F4
:10F5A0001C931E4604F042FD83681993002E3FF41D
:10F5B000BBAD199B002B3FF4B7AD199B1B78002BFB
:10F5C0003FF4B2AD9AF8006047F4806731E59AF8ED
:10F5D000006047F001072CE59DF88330002B7FF495
:10F5E000A3AD9AF800608DF8834022E59AF8006098
:10F5F00047F080071DE5524612F8016B2A2E01F0F4
:10F60000EB81A6F13003092B924698BF002201F24C
:10F6100003801AF8016B02EB820203EB4202A6F1AF
:10F620003003092BF5D9079205E59AF800608DF8AB
:10F630008390FEE4BB46012B3FF49AAD022B54AD00
:10F6400012D1189A04F00F03D35C240944EA097418
:10F650004FEA191905F8013D54EA0903F2D154ABF8
:10F660005B1B5F460B9390E504F00703E40844EA54
:10F6700049744FEAD909303354EA09012A4605F89A
:10F68000013DF1D11BF0010FE9D0302BE7D0302341
:10F69000023A05F8013C54AB9B1A5F4615460B93A2
:10F6A00073E500BFFFFFEF7F8CA50B0090A50B005B
:10F6B0009CA50B00652E40F3E980DDE914010022D2
:10F6C000002306F0F3FE002800F0D2810123C8F8E1
:10F6D0000430299BBF4A01330134072B2A94299314
:10F6E000C8F8002000F37A8508F10808229B129AD6
:10F6F000934280F2D782169B179A1C44C8E90023D4
:10F70000299B2A940133072B299300F3DD8308F109
:10F710000808129B5D1E002D7FF716AE102D41F3D9
:10F720004181DFF8B492224649461026B946299B0A
:10F730000F46DDF828B00C9C05E008F10808103DE4
:10F74000102D40F3588501331032072BC8E900769D
:10F75000CDE92932F1DD2146584628AA05F0B6FB4D
:10F7600000287FF47AADDDE929320DF1AC08E6E737
:10F77000099B069AA3EB020BBBF1000F7FF7CAAD02
:10F78000BBF1100F41F30580DFF84C924146204653
:10F79000A8464C461023299A0C9DDDF8289006E0D7
:10F7A000ABF1100BBBF1100F01F1080119DD0132B3
:10F7B0001030072AC1E90043CDE92920F0DD2946B0
:10F7C000484628AA05F082FB00287FF446ADDDE913
:10F7D0002920ABF1100BBBF1100F4FF010032BA938
:10F7E000E5DC4546A1468846044601325C44072ACA
:10F7F000CDE92924C8F80090C8F804B000F31885B2
:10F8000008F1080886E5BBF1100F40F39785DFF893
:10F81000C89141462046A8464C461023299A0C9D83
:10F82000DDF8289006E0ABF1100BBBF1100F01F1F1
:10F83000080119DD01321030072AC1E90043CDE982
:10F840002920F0DD2946484628AA05F03FFB00287C
:10F850007FF403ADDDE92920ABF1100BBBF1100FF4
:10F860004FF010032BA9E5DC4546A1468846044627
:10F8700001325C44072ACDE92924C8F80090C8F871
:10F8800004B000F3CE8108F108084BE5129B012B70
:10F8900040F37E810123299E01341E44072EC8F8BF
:10F8A00000502A94C8F80430299600F3E18108F149
:10F8B0000808169B0136179A1C44072EC8E9002336
:10F8C000CDE9296400F3E18108F108080022DDE9AF
:10F8D0001401002306F0EAFD002840F07681129B17
:10F8E0000136013B01351C44072EC8F8005029960B
:10F8F000C8F804302A9400F35B8108F108081A9BC9
:10F9000001361C44C8F80430072E24ABCDE9296425
:10F91000C8F800307FF716AD0C990A9828AA05F0B0
:10F92000D5FA00287FF499AC2A9C0DF1AC080BE5C0
:10F93000B9F1100F40F35086DDE929214046CDE9A9
:10F940001D36B84610244F460C9EA9460A9D04E079
:10F95000103F102F00F1080016DD01321F4B10314F
:10F96000072AC0E90034CDE92921F1DD31462846D6
:10F9700028AA05F0ABFA00287FF46FACDDE9292155
:10F98000103F102F2BA8E8DC4D46DDE91D36B946A7
:10F990004746804609EB010401321049072ACDE9A8
:10F9A0002924C8F80490C8F8001000F3C3839DF818
:10F9B000832008F1080886E40C990A9828AA1D9368
:10F9C00005F084FA00287FF448AC2A9C1D9B0DF1B9
:10F9D000AC088AE4CCA50B00E0A50B00D0A50B0079
:10F9E0000C990A9828AA05F071FA00287FF435AC22
:10F9F0002A9C0DF1AC0889E4102D40F3C486102632
:10FA0000299B0A9FDDF8309004E0103D102D08F18D
:10FA1000080817DD0133B84A1034072BC8E900265F
:10FA2000CDE92934F1DD4946384628AA05F04EFAD9
:10FA300000287FF412ACDDE92934103D102D0DF1C2
:10FA4000AC08E7DC0133AC4A2C44072BCDE9293460
:10FA5000C8F80450C8F800207FF77EAC0C990A98CB
:10FA600028AA05F033FA00287FF4F7AB2A9C73E448
:10FA70002299002940F36F83DDF84090129B99454D
:10FA8000A8BF9946B9F1000F0BDD299B4C44013307
:10FA9000072BC8E900592A94299300F31D8508F122
:10FAA0000808109EB9F1000FA8BFA6EB0906002EAA
:10FAB00000F32582DDF840B07805AB4400F15F82A9
:10FAC000229B129A934202DBF90740F17684169A40
:10FAD00017991444C8E90012299A2A940132072A76
:10FAE000299200F3138508F10808129AAE18A6EBC4
:10FAF0000B06D51AAE42A8BF2E46002E0DDD299B5F
:10FB000034440133072BC8F800B0C8F804602A94C5
:10FB1000299300F3718508F10808002EA8BFAD1BDA
:10FB2000002D7FF711AC102D40F33C87DFF8CC910E
:10FB3000224649461026B946299B0F46DDF828B0D3
:10FB40000C9C05E008F10808103D102D40F353838C
:10FB500001331032072BC8E90076CDE92932F1DDF7
:10FB60002146584628AA05F0B1F900287FF475AB64
:10FB7000DDE929320DF1AC08E6E7079B002B7FF4A5
:10FB8000FCAA5F46002354AD07930B93FFF7FDBA21
:10FB9000FA073FF57FAE0123299E01341E44072E4C
:10FBA000C8F800502A94C8F8043029967FF7A5AE0B
:10FBB0000C990A9828AA05F089F900287FF44DAB22
:10FBC000DDE929640DF1AC0899E6129B5D1E002D5C
:10FBD0007FF795AE102D40F3DF86224607974FF052
:10FBE000100BDFF818910A9C0C9F05E008F108083B
:10FBF000103D102D40F37F8301361032072EC8E9E7
:10FC0000009BCDE92962F1DD3946204628AA05F09E
:10FC10005DF900287FF421ABDDE929620DF1AC0824
:10FC2000E6E70C990A9828AA05F050F900287FF415
:10FC300014AB2A9C0DF1AC08FFF774BB1BF010034A
:10FC40000E9A3AD11BF0400133D052F8044B99463A
:10FC50000E920123A4B2FFF7BDBA2D2364428DF8A2
:10FC60008330BB464FF0010369EB4909FFF7B5BA92
:10FC70000C990A9828AA05F029F900287FF4EDAA22
:10FC8000DDE929640DF1AC0813E60C990A9828AA5D
:10FC900005F01CF900287FF4E0AADDE929640DF1E4
:10FCA000AC0813E6FD077FF54FAB24E554ADFFF735
:10FCB0006CBA1BF4007940F08A8352F8044B01239C
:10FCC0000E92FFF787BAB80500F19B834FEAE479FB
:10FCD0004B46FFF740BA0E9B089853F8041BC21717
:10FCE0005546C1E900020E93FFF74CBB0E9B53F83B
:10FCF000044B0E93FFF76BBAD0A50B00E0A50B00E9
:10FD0000DDE9140102460B4606F002FC002840F033
:10FD1000E985612E00F07D85412E00F08B84079BE4
:10FD2000013300F08F8326F02003472B069300F069
:10FD30008F85DDE9141247F480730F931346002B6F
:10FD4000C0F2B0850B9300238B461D930D93069B49
:10FD5000462B00F0E983452B00F0468507990B9B65
:10FD600001910221009126A9049123A9039122A9BE
:10FD70005A460A98029102F093FD069B0546472BCE
:10FD800040F03A8617F0010FB9460F9F40F0FE840D
:10FD9000269B5B1B1293069B472B00F06E83069BF2
:10FDA000462B00F0F083229B1093109B069A013B98
:10FDB000412A229300F0BB850021F2B2002B8DF87E
:10FDC0009020B6BF2D222B22109B8DF89120B8BF1A
:10FDD000C3F10103092B40F39B850DF19F0C624693
:10FDE000B64F1C46104687FB0312D917C1EBA20180
:10FDF00001EB8102A3EB42023032632C00F8012CAC
:10FE00000B4600F1FF32ECDC3033811EDBB28C4557
:10FE100002F8013C40F2F9850DF1920101E012F87F
:10FE2000013B944501F8013BF9D10DF1A1030DF11E
:10FE300092021B1A134424AA9B1A1A93129B1A9A11
:10FE4000012B1A440B9240F381850B9B169A1344A5
:10FE50000B9300230B9A29F4806722EAE27247F49D
:10FE600080770F930692139310931D9B002B40F005
:10FE70002C839DF883200793FFF794B9BB46FFF7C7
:10FE80002FBB8F4B189317F0200900F0F5800E9BC5
:10FE9000073323F00703D3F8049053F8084B0E936D
:10FEA000F80709D554EA090306D030238DF8856098
:10FEB00047F002078DF88430022327F4806BFFF7A8
:10FEC00089B9804B1893DEE70C990A9828AA04F0A8
:10FED000FDFF00287FF4C1A92A9C0DF1AC0818E4AD
:10FEE00040210A98FEF7B8FA0C9B186018610028A8
:10FEF00000F0978540230C9A5361FFF762B8102EEB
:10FF000040F37685DFF8C091424648462146A84630
:10FF1000B9464FF0100B0746299B0A9C0C9D04E044
:10FF20000832103E102E40F3138201331031072B9C
:10FF3000C2E9007BCDE92931F2DD2946204628AA15
:10FF400004F0C4FF00287FF488A9DDE929312BAA39
:10FF5000E7E72846CDF81C900E94FEF7E5FE20EA70
:10FF6000E0739DF883200B90CDF83490CDF83C9051
:10FF7000CDF84C90CDF840900693FFF713B9129B43
:10FF80004246DDF84C80EB185E460793CDF82CA076
:10FF900010972146199FDDF87090DDF828A0DDF854
:10FFA00030B00F9B1395B8F1000F2ED083BB013FEB
:10FFB00008F1FF381B9B4944C2E90039299B2A916B
:10FFC0000133072B299360DC0832079B38789B1B91
:10FFD0008342A8BF0346002B1C460BDD2998194419
:10FFE00001300728C2E900632A91299000F31481A7
:10FFF00038780832002CB4BF0546051B002D0BDCF9
:02000002B0004C
:1000000006440F9BB8F1000FD0D1002B00F02682E0
:100010000F9B013B0F93CDE7102D40F39D841024DF
:10002000299804E0103D102D02F1080216DD013080
:10003000254B10310728C2E90034CDE92901F1DD53
:100040005946504628AA04F041FF00287FF405A92C
:10005000DDE92901103D102D2BAAE8DC01301A4BF7
:1000600029440728CDE929015560136000F3418236
:10007000387808320644C4E717F0100300F0A08077
:100080000E9B53F8044B0E930AE75946504628AA94
:1000900004F01CFF00287FF4E0A82A992BAA94E71B
:1000A00000230BF480620696CDF82CA0CDF83480A6
:1000B0001E469246DDF8648054AF14E067666666BB
:1000C0009CA50B00B0A50B00E0A50B00002320466B
:1000D00049460A22FDF7DEFF0A2C79F100031BD303
:1000E000044689462F4620460A2200234946FDF74A
:1000F000D1FF30327D1E013607F8012CBAF1000F16
:10010000E4D098F800309E42E0D1FF2EDED00A2CD9
:1001100079F1000380F0308154AB5B1BDDF82CA03B
:10012000CDF8648012965F46069EDDF834800B930E
:10013000FFF72BB80C990A9828AA1D9304F0C6FE65
:1001400000287FF48AA89DF883202A9C1D9B0DF12E
:10015000AC08FFF7B8B80123C8F80430299BBC4AA3
:1001600001330134072B2A942993C8F8002000F3A7
:10017000178108F10808002940F08680129A07F0DC
:10018000010313433FF4E0A8169B17991A19C8E915
:100190000013299B2A920133072B299300F33781FF
:1001A00008F10808129901338C18072BCDE929347E
:1001B000C8F80050C8F804107FF7C4A8FFF7ACBB1C
:1001C00017F0400200F0A5800E9A994652F8044BB1
:1001D0000E92A4B264E6BB46FEF7CABF0C990A9819
:1001E00028AA04F073FE00287FF437A82A9C0DF19A
:1001F000AC08FFF77BBA14463A464F4691460133A6
:100200002C44072BC8F80090C8F80450CDE92934D5
:100210007FF798A8FFF780BB5946504628AA04F0FC
:1002200055FE00287FF419A838782A992BAAE1E610
:100230000C990A9828AA04F049FE00287FF40DA81A
:100240002A9C0DF1AC08FFF765B8012BBB467FF483
:10025000F5A9FEF792BF0E9B089953F8042B55465B
:1002600011600E93FFF78EB8062B294628BF062390
:100270002A4607950D950693764D0E940B930F9194
:1002800013911091FEF78EBF169B17981A19C8E9A3
:100290000003299B2A920133072B299300F3B7808F
:1002A00008F108080029BFF67DAF4E42103180F2F8
:1002B000A98341461024A846DFF89C91DDF828B0B8
:1002C0000C9D04E00831103E102E40F3A78201334C
:1002D0001032072BC1E90094CDE92932F2DD29461D
:1002E000584628AA04F0F2FD00287EF4B6AFDDE9F6
:1002F00029322BA9E7E71446079F01362C44072E25
:10030000CDE92964C8F80090C8F804507FF7F5AA31
:100310004EE417F400790E9B66D053F8044B9146D7
:100320000E93E4B2BCE517F400790E9B57D053F856
:10033000044B91460E93E4B2FEF749BF299ADFF8C9
:100340001891FFF795BA2D228DF88320FFF757B843
:10035000454690463A460C464F4691460133344452
:10036000072BCDE92934C8F80090C8F804605CDC9C
:1003700008F10808FFF79EBB1C9B1B99ED1A1A4653
:100380002846FEF72DFD98F801300BB108F1010861
:10039000204649460A2200230026FDF77BFE9FE601
:1003A0000C990A9828AA04F091FD00287EF455AF14
:1003B00022992A9C0DF1AC08DDE6129AAE18A6EB44
:1003C0000B06D51AAE42A8BF2E46FFF7A6BB52F8C1
:1003D000044B894601230E92E4B2FEF7FBBE53F8AC
:1003E000044B0E93FEF7F3BE53F8044B0E9357E500
:1003F0000E9B089953F8042B554611800E93FEF777
:10040000C1BF44F3C0194B4664B2FEF7A4BE0C99B9
:100410000A9828AA04F05AFD00287EF41EAFDDE9F0
:10042000293222990DF1AC083CE70C990A9828AAC8
:1004300004F04CFD00287EF410AF2A9C0DF1AC08AE
:10044000FFF738BB0623079326F02003069370E4DA
:10045000CCA50B00C4A50B00E0A50B00DDE912350F
:10046000EB189E42B346199790460C4628BF9B4610
:10047000DDF82CA0109FFFF723BB229BDA1C109302
:1004800002DB079A934204DD023E26F02003069326
:100490008BE4109B129A9342C0F2C28019F0010FB4
:1004A00000F01D82169A13440B9319F4806F00F02C
:1004B0001482109B6726002B76DC0B9B23EAE373E8
:1004C000069300230F931393CFE42D2200238DF87E
:1004D00083200793FEF768BE0C990A9828AA04F0B7
:1004E000F5FC00287EF4B9AE2A9C0DF1AC08FFF7AC
:1004F000D8BA5946504628AA04F0E8FC00287EF4F1
:10050000ACAE38782A992BAA06447AE50C990A9859
:1005100028AA04F0DBFC00287EF49FAE229B2A9CD4
:100520000DF1AC08FFF7E1BA07990B9B019103218C
:10053000009126A9049123A9039122A95A460A9859
:10054000029102F0ADF903780546302B00F01682D7
:10055000229B079AB94613440F9FEC185846002275
:1005600000230B9905F0A2FF08B1234611E4269B56
:10057000A342BFF40EAC30215A1C26921970269B60
:100580009C42F9D805E4229A002A109240F30E8288
:10059000079909F001030B4340F07E816626109B0A
:1005A0000B9319F4806F88D019990B78FF2B00F00A
:1005B00025820024109A204604E001300131FF2BEF
:1005C00000F05981934280F25681D21A4B78002B69
:1005D000F3D10B780134F2E7DDE92921FFF7DAB92D
:1005E000079B9DF883200E9406930B9307900F9022
:1005F00013901090FEF7D6BD0C990A9828AA04F023
:1006000065FC00287EF429AE229D129B2A9C0DF1E8
:10061000AC085D1BFFF781BA00230793FEF70BBD03
:10062000129B169A9A18109B0B92002B40F385810F
:100630006726B6E730238DF8843058238DF885304F
:10064000079B47F00204632B00F3C48000233BADFB
:100650000D9347F481730F93DDE914121346002BB9
:100660002746C0F284800B9300238B461D9326F00F
:1006700020030693612E00F01881412E7FF467ABB2
:1006800022AA58460B9904F0A3FB00224FF07F5397
:10069000FDF7CEFA02460B46CDE9102300220023D7
:1006A00005F004FF08B101232293AD4B0B93079B88
:1006B000CDE912A6CDE91E78DDE91067AB46DDF87D
:1006C0002CA003F1FF39109506E00022002309F168
:1006D000FF3905F0EBFEE8B90022A24B304639465F
:1006E000FDF7A6FA0F46064605F028FF0446FDF77B
:1006F00035FA0B46024639463046FDF7E1F81AF85E
:100700000430B9F1FF3FD8464D4606460F460BF878
:10071000013BDAD1304639460022934BA946DDF839
:1007200048A0109DCDF84880CDE91001DDF87C800F
:10073000139E1E9F05F0E2FE80BBDDE91001002242
:10074000894B05F0B3FE08B1E10727D44B46002BD7
:1007500006DB302201335B440BF8012B5B45FBD1F8
:10076000ABEB0503B94612930F9FFFF714BB26F0BE
:10077000200306932D22DDE914349B4604F1004347
:100780001D920B9376E7299BFFF75CB9079BEC184A
:10079000E4E6299ADFF8D491FFF727B8129B269355
:1007A0000B9B1BF8012CD97B5B468A4209D1302078
:1007B00003F8010C269B5A1E269213F8012C914235
:1007C000F6D0392A0BBF0B9A0132927AD2B203F8D3
:1007D000012CC5E70A98591CFDF73EFE0546002886
:1007E00000F017810D9034E70221009107995A46D5
:1007F0004C1C26A9049123A9039122A90B9B0A98BA
:100800000194029102F04CF80546B9462C440F9F22
:10081000A4E630238DF8843078230FE745468846D8
:1008200001333244072BCDE92932C8F80090C8F8CB
:1008300004607FF7B5AC0C990A9828AA04F046FB2F
:1008400000287EF40AADDDE929320DF1AC08A9E4F7
:10085000079B002B08BF0123079347F480730F9376
:10086000159B002BC0F2B680DDF850B00D900B93B5
:100870001D90FFF773BA1991109213900F940F9A6D
:10088000139B1C9913440B9A01FB03230B9323EA3C
:10089000E3730693FFF7E9BA169B6626D31819444B
:1008A0000B917EE600230D9364E722AA58460B992C
:1008B00004F08EFA00224FF07F53FDF7B9F902469B
:1008C0000B46CDE910230022002305F0EFFD08B10F
:1008D00001232293264B0B93E9E66726EDE5109B57
:1008E0000B93E2E5159B0320002BB8BF2D224FF0A0
:1008F0000003A8BF9DF8832019460D931D4D1E4B84
:10090000B8BF8DF8832027F080070690FEF77FBDE3
:10091000002944D130228DF892200DF1930230331A
:1009200002F8013B24ABD31A1A93FFF787BA06F1FA
:100930000F020121D2B2FFF741BAC3F101031A44F9
:1009400022EAE27367260B920693BAE519F0010FCB
:100950003FF47FAAFFF779BA2998FFF77FBB00BF62
:10096000B0A50B00000030400000E03FE0A50B0008
:100970009CA50B0094A50B0098A50B0058460022DF
:1009800000230B9905F092FD00287FF4E1AD079B51
:10099000C3F101032293DCE5DFF89890ADE40DF19B
:1009A0009202BCE7299BDFF88C9028E4079A09F0B3
:1009B000010959EA020304D10123662606930B9329
:1009C0007FE5169B662601331A4422EAE2730B92F6
:1009D000069376E50D90CDE60E9B9AF8016092465F
:1009E00053F8042B0E9342EAE2730793FEF721BB00
:1009F000299BDFF84090B1E4079C06E700230F93A2
:100A000013933CE7DFF82C900AE702231A93FFF7D1
:100A100015BA0C998B8943F0400213468A81FEF780
:100A200024BC4FF0FF320C2308920A9A1360FEF7A1
:100A300023BC00BFE0A50B002DE9F04FD5B01C464C
:100A4000914607910546099003F0F0FA02680E946A
:100A500010461792FEF768F916901DB1AB6B002B8C
:100A600000F01D82079A536EDD0740F12D81B2F927
:100A70000C2091B28F0409D4079B42F400529A8152
:100A800091B21A465B6E23F4005353660E0740F191
:100A9000C080079B1B69002B00F0BB8001F01A038C
:100AA0000A2B00F0C48000242BAB224698464D460A
:100AB000CDE929442893129400230024CDE914346D
:100AC0002B78CDE91922CDE91B2218920B92002B2D
:100AD00000F08F81AA4604E01AF8013F002B00F0D5
:100AE000BB80252BF8D1BAEB050640F0B9809AF807
:100AF0000030002B00F07D8100234FF0FF324FF0DB
:100B00002B0920241F469AF8016008920AF1010A75
:100B10008DF883300A930AF1010AA6F120035A2BBB
:100B200000F2E180DFE813F00503DF00DF000003DF
:100B3000DF00DF00DF00DE02DF00DF006A006E02A0
:100B4000DF0055027802DF0073025B005B005B0090
:100B50005B005B005B005B005B005B00DF00DF00B5
:100B6000DF00DF00DF00DF00DF006C01DF00EA01F3
:100B7000C4016C016C016C01DF00DF00DF00DF00ED
:100B8000D002DF00DF002302DF00DF00DF00F8011A
:100B9000DF009202DF00DF008707DF00DF00DF00F9
:100BA000DF00DF00DF00DF00DF006C01DF00EA01B3
:100BB000C6016C016C016C01B602C601BF01DF0009
:100BC000C302DF005A022502A402BF01DF00F801C0
:100BD00072008407DF00DF006507DF00720000227B
:100BE000A6F130031AF8016B02EB820203EB42021A
:100BF000A6F13003092BF5D90A928EE70E9B53F824
:100C0000042B002A0A920E93C0F2E0819AF8006049
:100C100081E7079D0998294601F032FD002841F03F
:100C20004D83A98901F01A030A2B7FF43CAF079A80
:100C3000B2F90E30002BFFF636AF536ED80702D450
:100C4000890541F1488123464A460799099855B0DC
:100C5000BDE8F04F01F09CBCBAEB050600F0C9807E
:100C60002A9BC8E9005633442A93299B0133072B5A
:100C7000299305DC08F108080B9B33440B9336E7F6
:100C80000799099828AA04F0DBF980B90DF1AC089E
:100C9000F2E70799099828AA04F0D2F9002800F091
:100CA00099800D9B1BB11946099802F023FF079A02
:100CB000536ED90740F1E88093895B0601F10A83FE
:100CC0000B9855B0BDE8F08F079BB3F90C20900549
:100CD00091B23FF5CFAE1D46986D03F0AFF9B5F96F
:100CE0000C2091B2C6E6002E00F083800123002282
:100CF0008DF8EC6006933BAD8DF883200C930D923C
:100D000008920F921392109217F0020302D00699E4
:100D10000231069117F0840B07D10A990698A1EBCE
:100D20000009B9F1000F00F390832A9C82B10122DF
:100D3000C8F80420299A013401320DF18301072AF1
:100D40002A942992C8F8001000F3D88308F1080803
:100D50007BB10223C8F80430299B0234013321AA55
:100D6000072B2A942993C8F8002000F3D58308F1B3
:100D70000808BBF1800F00F08882089B0C9AA3EB57
:100D8000020BBBF1000F00F3CB82FB0500F11F82C9
:100D90000C9BC8F800501C44C8F80430299B2A94C6
:100DA0000133072B299300F3448308F108087807DF
:100DB00005D50A9B069A9D1A002D00F3B983DDE93B
:100DC0000A2306998A42ACBF9B185B180B93002C30
:100DD0007FF45FAF002329930D9B1BB10D990998F8
:100DE00002F088FE55460DF1AC082B78002B7FF4FD
:100DF00071AE2A9B002B41F010820023299356E705
:100E00000E9B073323F00702F2E80234CDE91434D5
:100E1000DDE9143424F00044994618460E92214628
:100E20004FF0FF32AB4B05F073FB002840F0188504
:100E3000484621464FF0FF32A64B05F04BFB0028F9
:100E400040F00E85DDE914010022002305F038FB97
:100E5000002840F065879DF88320002103209E4DE7
:100E60009E4B27F080070D910690472EC8BF1D4668
:100E700008910C900F9113911091002A3FF444AF08
:100E8000069B013306933FE7079B9B899A053FF535
:100E900014AF079CA06D03F0D3F8A3890DE7099860
:100EA00002F030FDDEE59AF8006047F0200732E6F8
:100EB00047F01007BA060E9B40F16E84073323F00B
:100EC00007031A465B6852F8084B99460E92002BAE
:100ED000C0F26F84089B013300F0FB8254EA0903DF
:100EE00027F0800B40F0F682089B002B40F0F78241
:100EF0005F46002354AD08930C933DE1012000228E
:100F00000E9B069053F8041B3BAD8DF883208DF8A3
:100F1000EC100E930C90F2E64FF000090E9C089B2B
:100F200054F8045B8DF88390002D00F0A1855A1CC5
:100F300000F0A5861A464946284603F0F3F80D90BE
:100F4000002801F050810D9B9DF883205B1B0C93C2
:100F500023EAE373CDF820900E940693CDF83490F5
:100F6000CDF83C90CDF84C90CDF8409085E747F017
:100F7000100717F0200900F0F2830E9B073323F0CF
:100F80000703D3F8049053F8084B0E93002327F47B
:100F9000806B00228DF88320089A511C00F0D480C9
:100FA00054EA09012BF0800740F0CD80002A40F080
:100FB0000486002B9DD11BF001030C9300F03084BC
:100FC00030230DF24F158DF84F31D5E00A9B5B426F
:100FD0000A939AF8006047F004079CE5BD0600F10B
:100FE000FD84FC0600F1EE85780600F1B286B905B5
:100FF00040F1E8850E9B0B9953F8042B5546117070
:101000000E93F2E69AF800608DF8839083E59AF8E3
:10101000006047F080077EE5524612F8016B2A2EE9
:1010200001F08D82A6F13003092B924698BF002271
:1010300001F2E5801AF8016B02EB820203EB420237
:10104000A6F13003092BF5D9089266E547F0100B9D
:101050001BF0200900F091830E9B073323F0070358
:101060001A4652F8084BD3F804900E92012390E7E9
:10107000302278260E9B8DF8842053F8044B184AB2
:101080000E934FF00009022347F0020B8DF88560A4
:1010900018927EE79AF80060682E03BF9AF8016004
:1010A00047F400770AF1010A47F0400733E59AF860
:1010B00000606C2E03BF9AF8016047F020070AF128
:1010C000010A47F0100726E59AF8006047F0080784
:1010D00021E500BFFFFFEF7F8CA50B0090A50B0063
:1010E0009CA50B00099E304602F0A0FF43681846FD
:1010F0001B93FDF719FE034630461C931E4602F073
:1011000095FF83681993002E3FF480AD199B002B47
:101110003FF47CAD199B1B78002B3FF477AD9AF818
:10112000006047F48067F6E49AF8006047F0010732
:10113000F1E49DF88330002B7FF468AD9AF80060ED
:101140008DF88340E7E4BB46012B00F0C381022BFE
:1011500054AD1FD1189A04F00F03D35C240944EA5C
:1011600009744FEA191905F8013D54EA0903F2D14F
:101170005F4654AB5B1B0C93089A0C9900238A4280
:10118000B8BF0A460D9306920F939DF883201393E0
:10119000109372E604F00703E40844EA49744FEA46
:1011A000D909303354EA09012A4605F8013DF1D145
:1011B0001BF0010FDCD0302BDAD03023023A05F8D7
:1011C000013C54AB9B1A5F4615460C93D4E7652E41
:1011D00040F3E980DDE914010022002305F066F9FF
:1011E000002800F0E1810123C8F80430299BC04A9F
:1011F00001330134072B2A942993C8F8002000F307
:10120000BF8408F10808229B129A934280F2DC8284
:10121000169B179A1C44C8E90023299B2A94013382
:10122000072B299300F3178408F10808129B5D1E11
:10123000002D7FF7BCAD102D41F35D81DFF8B49236
:10124000224649461026B946299B0F46DDF824B0B0
:10125000079C05E008F10808103D102D40F39D841F
:1012600001331032072BC8E90076CDE92932F1DDD0
:101270002146584628AA03F0E3FE00287FF411AD6A
:10128000DDE929320DF1AC08E6E70A9B069AA3EBEB
:10129000020BBBF1000F7FF770ADBBF1100F41F3F4
:1012A0005280DFF85092204641464C46A846102313
:1012B000299A079DDDF8249006E0ABF1100BBBF1F5
:1012C000100F01F1080119DD01321030072AC1E9C0
:1012D0000043CDE92920F0DD2946484628AA03F03D
:1012E000AFFE00287FF4DDACDDE92920ABF1100B67
:1012F000BBF1100F4FF010032BA9E5DC4546A146CA
:101300008846044601325C44072ACDE92924C8F8FE
:101310000090C8F804B000F3918308F108082CE5A8
:10132000BBF1100F40F3E384DFF8C891204641463B
:101330004C46A8461023299A079DDDF8249006E024
:10134000ABF1100BBBF1100F01F1080119DD0132F7
:101350001030072AC1E90043CDE92920F0DD2946F4
:10136000484628AA03F06CFE00287FF49AACDDE919
:101370002920ABF1100BBBF1100F4FF010032BA97C
:10138000E5DC4546A1468846044601325C44072A0E
:10139000CDE92924C8F80090C8F804B000F3D28140
:1013A00008F10808F1E4129B012B40F3828101232C
:1013B000299E01341E44072EC8F800502A94C8F80C
:1013C0000430299600F36C8308F10808169B013657
:1013D000179A1C44072EC8E90023CDE9296400F3BD
:1013E0006C8308F108080022DDE91401002305F0F0
:1013F0005DF8002840F07A81129B0136013B0135EF
:101400001C44072EC8F800502996C8F804302A94C6
:1014100000F35F8108F108081A9B01361C44C8F8E4
:101420000430072E24ABCDE92964C8F800307FF7DB
:10143000BCAC0799099828AA03F002FE00287FF4A3
:1014400030AC2A9C0DF1AC08B1E4B9F1100F40F3B7
:10145000C686DDE929214046CDE91D36B84610246F
:101460004F46079EA946099D04E0103F102F00F14A
:10147000080016DD0132204B1031072AC0E9003484
:10148000CDE92921F1DD3146284628AA03F0D8FD0F
:1014900000287FF406ACDDE92921103F102F2BA88E
:1014A000E8DC4D46DDE91D36B9464746804609EB86
:1014B000010401321049072ACDE92924C8F8049013
:1014C000C8F8001000F340839DF8832008F1080855
:1014D0002CE4BB460A2C79F1000380F0FB82012347
:1014E00030345F468DF84F410C930DF24F1543E6B3
:1014F000CCA50B0000A60B00F0A50B0007990998DE
:1015000028AA1D9303F09CFD00287FF4CAAB2A9CF7
:101510001D9B0DF1AC081BE40799099828AA03F05C
:101520008FFD00287FF4BDAB2A9C0DF1AC0820E4B0
:10153000102D40F3BE861026299B099FDDF81C90D4
:1015400004E0103D102D08F1080817DD0133BA4AF8
:101550001034072BC8E90026CDE92934F1DD4946CE
:10156000384628AA03F06CFD00287FF49AABDDE929
:101570002934103D102D0DF1AC08E7DC0133AE4AE3
:101580002C44072BCDE92934C8F80450C8F80020B2
:101590007FF715AC0799099828AA03F051FD002898
:1015A0007FF47FAB2A9C0AE42299002940F3108142
:1015B000DDF84090129B9945A8BF9946B9F1000FFC
:1015C0000BDD299B4C440133072BC8E900592A94B1
:1015D000299300F3818508F10808109EB9F1000FE6
:1015E000A8BFA6EB0906002E00F3F582DDF840B097
:1015F0007905AB4400F1AC84229B129A934202DB42
:10160000FA0740F19283169A17991444C8E9001218
:10161000299A2A940132072A299200F3A88508F111
:101620000808129AAE18A6EB0B06D51AAE42A8BF50
:101630002E46002E0DDD299B34440133072BC8F8BC
:1016400000B0C8F804602A94299300F3FC8508F1DF
:101650000808002EA8BFAD1B002D7FF7A8AB102DEA
:1016600040F34987DFF8D491224649461026B9460F
:10167000299B0F46DDF824B0079C05E008F1080817
:10168000103D102D40F3898201331032072BC8E939
:101690000076CDE92932F1DD2146584628AA03F02B
:1016A000CFFC00287FF4FDAADDE929320DF1AC085A
:1016B000E6E7FE073FF57BAE0123299E01341E4479
:1016C000072EC8F800502A94C8F8043029967FF7EE
:1016D000A1AE0799099828AA03F0B2FC00287FF46C
:1016E000E0AADDE929640DF1AC0895E6129B5D1EC8
:1016F000002D7FF791AE102D40F3198722460897F1
:101700004FF0100BDFF83491099C079F05E008F1BA
:101710000808103D102D40F3C78201361032072E05
:10172000C8E9009BCDE92962F1DD3946204628AAA7
:1017300003F086FC00287FF4B4AADDE929620DF1EC
:10174000AC08E6E70799099828AA03F079FC002875
:101750007FF4A7AA2A9C0DF1AC08FFF716BB17F07F
:10176000100377D117F0400200F0AC820E9A994630
:1017700052F8044B0E92A4B208E41BF010030E9A28
:1017800054D11BF040014DD052F8044B99460E92B3
:101790000123A4B2FFF7FDBB53F8044B0E93FB06E5
:1017A00053D47D064ED544F3C0394B4624B2FFF7DF
:1017B0008EBB2D2364428DF88330BB464FF001036E
:1017C00069EB4909FFF7E8BBF8077FF5F0AA1FE5C9
:1017D0000123C8F80430299B194A01330134072B2F
:1017E0002A942993C8F8002000F3688408F10808B7
:1017F000002940F02582129A07F0010313433FF4B9
:10180000D6AA169B1799E218C8E90013299B2A92B9
:101810000133072B299300F3508308F1080820E2D5
:1018200054ADA9E41BF4007940F0A08252F8044BB7
:1018300001230E92FFF7ADBBF0A50B0000A60B0035
:10184000CCA50B00B80500F179824FEAE4794B464C
:10185000FFF73DBB0E9B53F8044B0E93FFF796BB6F
:10186000DDE9140102460B4604F052FE002840F068
:10187000F785612E00F06C85412E00F07F82089B79
:10188000013300F0948526F02003472B069300F0E7
:101890007B85DDE9141247F480730F931346002B08
:1018A000C0F2F4850C9300238B461D930D93069B89
:1018B000462B00F02B84452B00F0148508990C9BD7
:1018C00001910221009126A9049123A9039122A943
:1018D0005A460998029100F0E3FF069B0546472B04
:1018E00040F0448617F0010FB9460F9F40F0F7848F
:1018F000269B5B1B1293069B472B00F0F182069BF5
:10190000462B00F04284229B1093109B069A013BC9
:10191000412A229300F08A850021F2B2002B8DF833
:101920009020B6BF2D222B22109B8DF89120B8BF9E
:10193000C3F10103092B40F381850DF19F0C624631
:10194000BA4F1C46104687FB0312D917C1EBA20100
:1019500001EB8102A3EB42023032632C00F8012C30
:101960000B4600F1FF32ECDC3033811EDBB28C45DC
:1019700002F8013C40F2FF850DF1920101E012F8FE
:10198000013B944501F8013BF9D10DF1A1030DF1A3
:1019900092021B1A134424AA9B1A1A93129B1A9A96
:1019A000012B1A440C9240F39E850C9B169A13440B
:1019B0000C9300230C9A29F4806722EAE27247F420
:1019C00080770F930692139310931D9B002B40F08A
:1019D000B0829DF883200893FFF74FBA0E9B0B98B7
:1019E00053F8041BC2175546C1E900020E93FFF7D6
:1019F000FCB98F4B189317F0200949D00E9B073381
:101A000023F00703D3F8049053F8084B0E93F8071C
:101A100009D554EA090306D030238DF8856047F0D4
:101A200002078DF88430022327F4806BFFF7B1BAE8
:101A3000BB46FFF70DBB7F4B1893DCE7079909986E
:101A400028AA03F0FDFA00287FF42BA92A9C0DF1A7
:101A5000AC08FFF792B90799099828AA03F0F0FAA1
:101A600000287FF41EA92A9C0DF1AC08FFF7DEBB0D
:101A7000062B294628BF06232A4608950D9506936E
:101A80006D4D0E940C930F9113911091FFF7F5B9D2
:101A900017F0100369D00E9B53F8044B0E93B6E772
:101AA0000799099828AA03F0CBFA00287FF4F9A82F
:101AB000DDE929640DF1AC0888E40799099828AAA2
:101AC00003F0BEFA00287FF4ECA8DDE929640DF1EB
:101AD000AC0888E400230BF48062CDE90CA80696DC
:101AE00092461E46DDF8648054AF0CE00023204689
:101AF00049460A22FCF7CEFA0A2C79F100031BD3DF
:101B0000044689462F4620460A2200234946FCF710
:101B1000C1FA30327D1E013607F8012CBAF1000FF0
:101B2000E4D098F800309E42E0D1FF2EDED00A2C9F
:101B300079F1000380F0E080CDF864801296DDE951
:101B40000CA8069EFFF714BB0799099828AA1D93B5
:101B500003F076FA00287FF4A4A89DF883202A9C3D
:101B60001D9B0DF1AC08FFF7E1B817F0400200F043
:101B7000B4800E9A994652F8044B0E92A4B246E7EE
:101B80000799099828AA03F05BFA00287FF489A82E
:101B90002A9C0DF1AC08FFF736BB14463A464F4677
:101BA000914601332C44072BC8F80090C8F8045024
:101BB000CDE929347FF7F9A83BE4012BBB467FF43C
:101BC000C6AA8CE40E9B0B9953F8042B5546116062
:101BD0000E93FFF70AB9102E40F3AD84DFF85C9046
:101BE000214648464246B946A8464FF0100B0746E4
:101BF000299B099C079D04E00832103E102E40F3FB
