:02000002C0003C
:1000000070610820F5000C0009800C00DD020C0076
:1000100009800C0009800C0009800C000000000021
:100020000000000000000000000000009D070C0020
:1000300009800C0000000000F1070C002D080C00E6
:1000400009800C0009800C0009800C0009800C005C
:1000500009800C0009800C0009800C0009800C004C
:10006000AD3D0C00000000000000000035040C0055
:100070008D040C00000000000000000000000000E3
:1000800000000000453F0C0065410C00E9420C00F7
:100090000000000009800C00657D0C0009800C0048
:1000A00009800C000000000009800C0009800C0091
:1000B00009800C0009800C0009800C0009800C00EC
:1000C00009800C000000000000000000000000009B
:1000D00009800C0009800C0009800C0009800C00CC
:1000E00009800C0009800C000000000045310C0064
:1000F00019320C004FF0005208B5194B5A631A61BF
:100100004FF48052C3F83422C3F81022154A164B1C
:100110009A4202D015498B4219D30021144B154A3B
:10012000934219D3144B154A23F0604121F07F010B
:1001300003F16043B3F5801F91603EBF936843F0C5
:10014000005393600FF0E2FC00F060F8FEE752F815
:10015000040B43F8040BDEE743F8041BE0E700BFA1
:10016000000E0E4024CE0D0000800720988C072042
:10017000988C07206C41082000000C0000ED00E086
:1001800010B5054C237833B9044B13B10448AFF3D1
:1001900000800123237010BD988C07200000000010
:1001A00024CE0D0008B5034B1BB103490348AFF340
:1001B000008008BD000000009C8C072024CE0D00AC
:1001C000034B044A1A600022034B1A60704700BFB9
:1001D0001C340820D4810720B88C0720022103207A
:1001E000014A03F03DBC00BFF47C0D00012100205A
:1001F000014A03F035BC00BF037D0D000378132BCB
:1002000003D1407808B908F067B870477FB503F0AC
:10021000E3FB00F0C1F903F0DFFC04F071F908F032
:1002200069F8012008F060F8012008F055F8002076
:1002300008F052F803F070FB07201B4903F09EFA08
:1002400008201A4903F09AFA0920194903F096FA8E
:100250001320184903F092FA03F058FD164A174B81
:100260000492174A0121CDE902329A7800200192C6
:100270005A781B780092134A03F0F2FB0EF004FC4C
:1002800009F004F90EF04FFD04F064F900F050FAA3
:1002900001210D4A002003F0E3FB00F077FC002071
:1002A00007B05DF804FB00BFC1010C00ED010C00BC
:1002B000DD010C00FD010C00317D0D00687D0D009D
:1002C0003A7D0D00137D0D00467D0D0030BF024AC2
:1002D0001368013313607047B88C0720064A07493A
:1002E00013688B4202D8013313607047002001214C
:1002F0001060034A03F0B4BBB48C0720F5FF09007B
:10030000527D0D0038B56424044D00212A4608466C
:1003100003F0A6FB013CF8D138BD00BF5F7D0D00A6
:10032000012070470620704700207047074A0346A7
:10033000116809B9064911601068064903448B42E7
:10034000D4BF13604FF0FF30704700BFBC8C072054
:1003500070610820FC7F08204FF0FF3070474FF499
:10036000005300204B607047012070470020704709
:10037000014608B501480FF0A1FFFEE7757D0D00AD
:1003800070474FF0FF3070472DE9F041144690B9A7
:1003900016460A4FDFF828808D18002EA5EB0601BF
:1003A00003DC24EAE470BDE8F0813868D8F8003056
:1003B0009847013EF1E74FF0FF30F4E7C88C072083
:1003C000C08C0720013802282DE9F0410D4603D9E1
:1003D0004FF0FF30BDE8F0810E46084FDFF8208077
:1003E0008C18A642A6EB0500F4D03868D8F8003087
:1003F00016F8011B98470028F3DAE9E7C88C0720B4
:10040000C48C072010B50446032C05D01CB107F09E
:10041000CBF90028F8D010BD07F044FA0028FBD033
:10042000F9E708B50B2007F055FABDE808400C20A5
:1004300007F050BA10B5124807F004FC81070446D3
:1004400006D502210E4807F0FBFB01220D4B1A7066
:10045000E20307D54FF48031094807F0F1FB012290
:10046000084B1A70E3040AD54FF48051044807F092
:10047000E7FB054803F0EAFA0122024B1A7010BDAF
:10048000000E0E40D48C07208E7D0D0010B50C4858
:1004900007F0D8FB0204044607D54FF40041084892
:1004A00007F0CEFB0122074B1A70E30307D54FF488
:1004B0008031034807F0C4FB0122024B1A7010BDC3
:1004C00000100E40D48C072038B5FFF7AAFF022396
:1004D0001A484FF480544361C0F8A0304FF40043F1
:1004E000174D10226B61C5F8A0304461C0F8A040E0
:1004F000446644654462C0F88040036F114923F4A8
:100500008053036707F085FB10224FF4C031284663
:1005100007F07FFB4FF4006200210B4BC3F88020F3
:10052000C3F8802183F80B131A60C3F88040C3F826
:10053000804183F80C131C6038BD00BF000E0E40D4
:1005400000100E400210010000E100E008B50F4964
:100550000F4807F072FB4FF4C0310E4807F06DFBF7
:10056000012007F0D7F9022007F0D4F9082007F09E
:10057000D1F9802007F0CEF94FF4805007F0CAF986
:10058000BDE808404FF4005007F0C4B90210010064
:10059000000E0E4000100E4070B5002486B04FF4DF
:1005A00080714B4807F014FC0821494807F008FC0B
:1005B000474807F015FC474B474E1C70FFF784FF78
:1005C000FFF7C4FF2046FFF71DFF204607F088F81D
:1005D00007F038F907F02AF9404807F081FD07F0E5
:1005E00017FDFFF71EFF06F093FE3D4D3D4C3046D4
:1005F00003F02CFA2B785BB94FF000534FF4805284
:100600006363394B5A63FFF7A1FF03F0FDF9EEE78F
:10061000364D374803F01AFA284607F067FB0446C0
:10062000002007F0CFF80320FFF7ECFE002007F0D2
:1006300077F807F0A5FDFFF7F4FE06F0F5FC4FF4A0
:1006400000412C4807F082FB012103462A4A002082
:1006500003F006FA01206D6A07F036FB274AC4F35F
:1006600002230121CDE90050002003F0F9F9012017
:10067000002107F02FFB224BB3F5202F34BF214878
:10068000214803F0E3F9214B04211B6C0020C3F344
:100690000323092B0CBF4FF400324FF480221C4B74
:1006A0001A6007F005FC10B11A4803F0CFF90421D5
:1006B00002A807F087FC10B1174803F0C7F9174BE1
:1006C000059A17481A6006B0BDE8704003F0BEB93D
:1006D000101A0E40CC8C0720987D0D0000BD01053E
:1006E000D48C0720000E0E4000100E40001A0E4061
:1006F000A57D0D00501A0E40AF7D0D00DD7D0D0073
:1007000099050C00EA7D0D00F37D0D0000090E40F7
:10071000D08C0720FC7D0D00177E0D00D88C0720A3
:100720003E7E0D00014807F0DBBA00BF001A0E4004
:100730001FB501210D4A002003F092F90023CDE9F5
:100740000133039332236846009306F067F803F001
:1007500007FF072807D009F0A3FD684603F0A0FFB4
:1007600005B05DF804FB02F01BFCF6E7537E0D00BC
:1007700003480068006880F3088862B600DF00BFA5
:1007800008ED00E04FF0807340E90213002340F8C9
:10079000202C40F80C3C403870470000064B19688C
:1007A0000868B0E8F00F80F309884FF0000080F38C
:1007B00011884EF00D0E7047DC8C07204FF0A0031F
:1007C00083F31188BFF36F8FBFF34F8F024A136813
:1007D00001331360704700BF90800720034A1368FD
:1007E000013B13600BB983F3118870479080072099
:1007F000EFF309800C4B1A6820E9F00F10602DE927
:1008000008404FF0A00080F3118800F03DFB4FF04E
:10081000000080F31188BDE8084019680868B0E856
:10082000F00F80F309887047DC8C072008B54FF083
:1008300080524FF0E023C3F8042DEFF311834FF003
:10084000A00282F31188BFF36F8FBFF34F8F00F0C8
:10085000EBF9002383F3118808BD00004FF0E0237B
:10086000024A5A6107221A61704700BF1F480100FF
:100870004FF0E02310B50024D3F8202D42F470028D
:10088000C3F8202DD3F8202D42F07042C3F8202D5C
:10089000FFF7E4FF024B1C60FFF76AFF204610BD24
:1008A0009080072070470000F8B51A4B1A4D064695
:1008B0001C6828680F46043000F0CBFE40B92A6857
:1008C0001649D06A01220B68824023EA02030B60BA
:1008D000731C07D137B1296811480431BDE8F840CD
:1008E00000F094BE2B68A4195C6007D30D4B186808
:1008F0002968BDE8F840043100F094BE0A4B18683E
:100900002968043100F08EFE084B1A68A24288BFA5
:100910001C60F8BDB08D0720DC8C0720388D0720C7
:10092000888D0720E48C0720E08C0720688D072045
:10093000064A13681968064B19B94FF0FF321A605E
:1009400070471268D268D2685268F8E7E08C0720D6
:10095000688D072080B5164C164F174E236883B953
:10096000164B1B68012B09D94FF0E0234FF0805242
:10097000C3F8042DBFF34F8FBFF36F8FFFF7A6FCB3
:10098000EBE7FFF71BFFFB68DD68281D00F061FE49
:100990003368013B33602368013B2360FFF71EFF90
:1009A000286B01F011F9284601F00EF9D6E700BFD7
:1009B000288D07209C8D0720248D0720E88C072098
:1009C0002DE9F84F4FEA820A064650460D461F466B
:1009D000DDF82C9001F06AF88046A0B1582001F0B3
:1009E00065F8044660B1C0F830807DB94FF0A003CF
:1009F00083F31188BFF36F8FBFF34F8F00BFFDE705
:100A0000404601F0E1F84FF0FF3593E05246A52152
:100A100040460FF0F5FB236BAAF1040A9A442AF032
:100A2000070A6B1E04F13402093513F8011F02F89E
:100A3000011B09B19D42F8D10A9D4FF0000B022D18
:100A400028BF022504F104084046C4E9125BE562B0
:100A500084F83DB000F0D7FDC5F1030504F118009E
:100A600000F0D1FDC4F850B03A46314650462461FA
:100A7000A561646284F854B0FFF784FE2060B9F188
:100A8000000F01D0C9F80040FFF798FE304B314EFF
:100A90001A68314F01321A603268002A4DD1346031
:100AA0001B68012B1FD12D4800F0A2FDDFF8B0908C
:100AB0002C4800F09DFD2C4D2C4800F099FD484637
:100AC00000F096FD284600F093FD294800F090FDC7
:100AD000284800F08DFD284800F08AFD274BC3F818
:100AE0000090274B1D600125264A27491368086896
:100AF00001331360E26A236405FA02F3034314200E
:100B00000B60164B414600FB023000F07FFDFFF703
:100B100065FE3B6873B13368DA6AE36A9A4209D2C8
:100B20004FF0E0234FF08052C3F8042DBFF34F8FF6
:100B3000BFF36F8F2846BDE8F88F3B68002BD2D1FA
:100B40003368DA6AE36A9A4298BF3460CBE700BF41
:100B5000248D0720DC8C0720848D0720E88C07205B
:100B60003C8D0720FC8C0720508D0720108D07201E
:100B7000708D07209C8D0720888D0720E08C072032
:100B8000E48C0720348D0720388D072013B500240E
:100B9000184BC82201931849234618480094FFF7C0
:100BA0000FFF012818D100F0AFFD012814D14FF03C
:100BB000A00383F31188BFF36F8FBFF34F8F4FF004
:100BC000FF320F4B1A600F4B18600F4B1C6002B0C6
:100BD000BDE81040FFF74CBE013009D14FF0A00333
:100BE00083F31188BFF36F8FBFF34F8F00BFFDE713
:100BF00002B010BD648D0720647E0D0055090C0005
:100C0000688D0720848D0720B08D0720024A136865
:100C100001331360704700BF308D0720014B186807
:100C2000704700BFB08D07202DE9F84F3C4B1B6883
:100C3000002B6FD13B4B1D6801351D60C5B93A4B88
:100C40001A6812684AB14FF0A00383F31188BFF30A
:100C50006F8FBFF34F8F00BFFDE7344A19681068EC
:100C600018601160324A136801331360FFF760FEA9
:100C7000304E00243368304FAB4210D914222F4B32
:100C80001B68DB6A5343FB58022B28BF01242C4B03
:100C90001B68002B0CBF20460120BDE8F88FDFF851
:100CA00088A0DFF8A090DAF800301B681BB94FF07D
:100CB000FF333360E2E7DAF80030DB68D3F80CB0DA
:100CC000DBF80420954201D23260D7E70BF104082B
:100CD000404600F0BEFCDBF828201AB10BF11800EA
:100CE00000F0B7FC0122DBF82C00D9F8003082407C
:100CF0001A43C9F800201422414602FB007000F09C
:100D000085FC0E4BDBF82C201968CB6A9A4228BF71
:100D10000124C8E70C4A0024136801331360B6E7C6
:100D2000308D0720B08D0720E08C0720E48C072051
:100D30006C8D0720688D0720E88C0720DC8C07204D
:100D4000B48D0720388D07202C8D07202DE9F8431E
:100D5000324C23684BB94FF0A00383F31188BFF3E3
:100D60006F8FBFF34F8F00BFFDE7FFF727FD2368AD
:100D7000013B236024682CB10024FFF72FFD20469F
:100D8000BDE8F883264B1B68002BF5D0254D264E79
:100D9000DFF898801FE0EB680127DC6804F10409A4
:100DA00004F1180000F055FC484600F052FC1420F5
:100DB000E26A316807FA02F30B4300FB02804946FE
:100DC000336000F023FC1A4BE26A1B68DB6A9A422C
:100DD00001D3184B1F602B68002BDCD10CB1FFF73F
:100DE000A7FD154D2C6844B10127124EFFF71CFFDB
:100DF00000B13760013CF9D12C600E4B1B68002B11
:100E0000BAD04FF0E0234FF08052C3F8042DBFF367
:100E10004F8FBFF36F8F0124AFE700BF308D0720E6
:100E2000248D0720708D0720388D0720E88C07203F
:100E3000DC8C0720B48D07202C8D072008B550B915
:100E40004FF0E0234FF08052C3F8042DBFF34F8FD3
:100E5000BFF36F8F08BD0B4B196849B14FF0A0036A
:100E600083F31188BFF36F8FBFF34F8F00BFFDE790
:100E7000FFF7CCFEFFF718FDFFF768FF0028DFD073
:100E8000E8E700BF308D0720184B10B51A68184BE3
:100E900012B101221A6010BD1A60164B1A68B2FA1C
:100EA00082F21423D2B2C2F11F0253431249CC582A
:100EB000C8184CB94FF0A00383F31188BFF36F8FAC
:100EC000BFF34F8F00BFFDE74468083364680B44ED
:100ED0009C4208BF6368446008BF4360142303FB5F
:100EE00002125368DA68054BD4E700BF308D072043
:100EF000B48D0720388D0720E88C0720DC8C072074
:100F000010B50C4648B94FF0A00383F31188BFF326
:100F10006F8FBFF34F8F00BFFDE7054B1968183186
:100F200000F080FB2046BDE810400121FFF7BCBC6B
:100F3000DC8C072038B50D46144648B94FF0A003A5
:100F400083F31188BFF36F8FBFF34F8F00BFFDE7AF
:100F5000074B1968183100F059FB002C214608BFD7
:100F60002846BDE8384018BF4FF0FF30FFF79CBC63
:100F7000DC8C072038B5C368DC684CB94FF0A0039F
:100F800083F31188BFF36F8FBFF34F8F00BFFDE76F
:100F900004F11805284600F05CFB114B1B68E3B90F
:100FA000251D284600F055FB01230E49E26A08681A
:100FB0009340034314200B6029460B4B00FB023087
:100FC00000F024FB094BE26A1B68DB6A9A4285BF8A
:100FD0000120074B0020186038BD29460548EFE77F
:100FE000308D0720388D0720E88C0720DC8C072007
:100FF000B48D0720708D072010B5044648B94FF016
:10100000A00383F31188BFF36F8FBFF34F8F00BF2F
:10101000FDE7FFF7D3FB054B1B682360044B1B6800
:101020006360BDE81040FFF7D9BB00BF6C8D07209F
:10103000B08D0720034B1B680360034B1B684360A4
:10104000704700BF6C8D0720B08D072070B50C462F
:10105000054648B94FF0A00383F31188BFF36F8FA3
:10106000BFF34F8F00BFFDE749B94FF0A00383F3F3
:101070001188BFF36F8FBFF34F8F00BFFDE7FFF7FE
:101080009DFB0F4B196823685A1C10D00D482E6821
:1010900000686A68864201D08A420FD9881A834262
:1010A0000AD95B1A134428462360FFF7C3FF0024C4
:1010B000FFF794FB204670BD002323600124F7E76F
:1010C000B08D07206C8D07200122014B1A607047FC
:1010D000B48D072008B9064B1868026B0020135C1A
:1010E000A52B02D0C0F38F0070470130F7E700BF97
:1010F000DC8C0720014B1868704700BFDC8C072090
:10110000054B1B6833B1054B1B68002B0CBF02203D
:101110000020704701207047848D0720308D072004
:101120002DE9F0410446002835D0234DC36A2A68D2
:10113000D26A934237D214268269204F002AA8BF70
:101140002A6806FB0373A2BFD26AC2F1030282615E
:1011500042699A4221D100F10408404600F079FA30
:10116000174B48B9E06A4643BA592AB901211A68AF
:10117000814022EA01021A602A681968D26AE26292
:10118000012404FA02F0084318601420414600FBD1
:10119000027000F03BFA204603E02B68DB6AC36272
:1011A0000120BDE8F0812B68806CDC6AA0422CBF76
:1011B00000200120F5E700BFDC8C0720E88C072029
:1011C000388D0720F8B5044608B90020F8BD234B38
:1011D0001B68834209D04FF0A00383F31188BFF34B
:1011E0006F8FBFF34F8F00BFFDE7DB6C4BB94FF044
:1011F000A00383F31188BFF36F8FBFF34F8F00BF3E
:10120000FDE7C16A826C013B9142C364DDD0002BD3
:10121000DBD1061D304600F01CFA114F114A50B9BF
:101220001421E06A41437B582BB90125136885409E
:1012300023EA05031360A36C1420C3F10301A16129
:10124000E3620124116804FA03F500FB03700D4307
:101250003146156000F0DAF92046B7E7DC8C07204C
:10126000E88C0720388D0720F8B5044600284DD0BB
:10127000C26C4AB94FF0A00383F31188BFF36F8F9C
:10128000BFF34F8F00BFFDE7836C994238BF19460B
:10129000C36A8B423AD0012A38D11D4A1268824271
:1012A00009D14FF0A00383F31188BFF36F8FBFF311
:1012B0004F8F00BFFDE71425164E826905FB0363BF
:1012C000002A4269C162A4BFC1F1030181619A424F
:1012D0001CD1071D384600F0BCF9E26A0E4C40B93B
:1012E000554373592BB901212368914023EA010327
:1012F000236001231420216893400B4300FB02600C
:1013000039462360BDE8F84000F080B9F8BD00BF61
:10131000DC8C0720E88C0720388D0720044B1A68E6
:101320001AB11968CA6C0132CA641868704700BFE4
:10133000DC8C07202DE9F0411F4C1E4680460F46ED
:101340001546FFF73BFA236893F85430022B16D06A
:1013500001212268136D23EA08031365236883F8CB
:10136000541066B13046FFF79FFA4FF0E0234FF07C
:101370008052C3F8042DBFF34F8FBFF36F8FFFF779
:101380002DFAFFF71BFA15B123681B6D2B6023683C
:1013900093F85430022B03BF22680125136D0025FA
:1013A00004BFBB4313650022236883F85420FFF772
:1013B00015FA2846BDE8F081DC8C0720F8B50E460A
:1013C00017461D46044648B94FF0A00383F3118821
:1013D000BFF36F8FBFF34F8F00BFFDE7FFF7EEF94D
:1013E0000DB1236D2B60022394F8545084F85430CF
:1013F000EDB2042F16D8DFE807F00A030705110045
:10140000216D0E43266502E0236D01332365012D16
:1014100015D00125FFF7E2F92846F8BD022DF1D1DC
:101420000025F7E7236D0133F1D04FF0A00383F3DC
:101430001188BFF36F8FBFF34F8F00BFFDE7261DED
:10144000304600F006F91549E26A086805FA02F329
:10145000034314200B60124B314600FB023000F0B6
:10146000D5F8A36A4BB14FF0A00383F31188BFF303
:101470006F8FBFF34F8F00BFFDE70A4BE26A1B6817
:10148000DB6A9A42C5D94FF0E0234FF08052C3F88F
:10149000042DBFF34F8FBFF36F8FBBE7388D07204D
:1014A000E88C0720DC8C07202DE9F843DDF820804C
:1014B0000E4617461D46044648B94FF0A00383F375
:1014C0001188BFF36F8FBFF34F8F00BFFDE7FFF7AA
:1014D000E9F9EFF311894FF0A00383F31188BFF30B
:1014E0006F8FBFF34F8F0DB1236D2B60022394F8E4
:1014F000545084F85430EDB2042F16D8DFE807F0CA
:101500000A0307051100216D0E43266502E0236DD5
:1015100001332365012D15D0012089F31188BDE821
:10152000F883022DF1D10020F7E7236D0133F1D0CC
:101530004FF0A00383F31188BFF36F8FBFF34F8F7A
:1015400000BFFDE7A36A4BB14FF0A00383F31188FE
:10155000BFF36F8FBFF34F8F00BFFDE7134B1B68C7
:10156000FBB9261D304600F074F8114A1420E36AD6
:1015700011689D400D43314615600E4A00FB032063
:1015800000F044F80C4BE26A1B68DB6A9A42C3D94C
:101590000123B8F1000F01D0C8F80030074A1360EA
:1015A000BAE7074804F11801EAE700BF308D0720C9
:1015B000388D0720E88C0720DC8C0720B48D0720AD
:1015C000708D072010B5044608B9084B1C68FFF75A
:1015D000F5F8002094F85430022B0ABF84F8540028
:1015E00004460124FFF7FAF8204610BDDC8C0720E2
:1015F0004FF0FF3200F10803C0E9022343600361AA
:1016000000230360704700230361704743689A68B2
:101610004B608A609A685160996003680861013381
:101620000360704730B50C68631C0AD103695A68BF
:101630004A6091608B605960036808610133036000
:1016400030BD00F10802134652681568A542FAD968
:10165000EDE70369D0E901128A605160596881425F
:1016600008BF5A60002202611A68013A1A601868BD
:1016700070470000F8B50F4CFFF7A0F82568ADB92A
:101680000D4F0E4E3846FFF7B3FF3046FFF7B0FF61
:101690000B4B2A461F600B4B10211E201E6000F0D2
:1016A00099FB206010B1084900F0B0FEBDE8F84099
:1016B000FFF794B8EC8D0720C08D0720D48D07204C
:1016C000B88D0720BC8D0720697E0D00914208B5BA
:1016D000416000610AD8D21A83699A420DD2084B40
:1016E000011D1868FFF79EFF002008BD9A4201D235
:1016F000994202D2034B011DF3E70120F5E700BF39
:10170000BC8D0720B88D072007B5FFF7B3FF0E4B40
:101710001B684BB94FF0A00383F31188BFF36F8FA1
:10172000BFF34F8F00BFFDE7084B4FF49672019354
:1017300002230749009307480023FFF741F90028D7
:10174000E8D003B05DF804FBEC8D0720F08D072096
:101750006E7E0D00A5180C002DE9F04180462C206E
:101760000D4617461E4600F0A1F90446B0B14DB92A
:101770004FF0A00383F31188BFF36F8FBFF34F8F38
:1017800000BFFDE7FFF776FF069BC4E90657C4F8E4
:10179000008026626362201DFFF735FF2046BDE80A
:1017A000F08100007FB5164604461A4648B94FF04E
:1017B000A00383F31188BFF36F8FBFF34F8F00BF78
:1017C000FDE70D4D286880B10529CDE9001602948A
:1017D0000DDCFFF795FC0023022818BF1A46694666
:1017E00008BF089A286800F01AFB04B070BD0023F7
:1017F000694600F0E6FBF8E7EC8D07202DE9F74F8E
:101800000646FFF70BFADFF890800546D8F800305F
:1018100083423FD94FF00009204F3B681A685AB9FC
:101820001F4A116813600123396028463360C8F8E5
:10183000005003B0BDE8F08FDB68DC68D3F800A08F
:1018400004F1040B5846FFF704FF636A20469847EB
:10185000E369012BE1D1A36953449A4506D2594665
:10186000386863602461FFF7DDFED6E70023524647
:1018700019462046CDF80090FFF794FF0028CCD100
:101880004FF0A00383F31188BFF36F8FBFF34F8F27
:1018900000BFFDE70023C8E7E88D0720B88D0720CB
:1018A000BC8D07202DE9F0436B4D6C4E89B02B6841
:1018B0001F68002F38D00024DB681F68FFF7A6F9E7
:1018C00004A8FFF79BFF049B8146002B7BD1002CD3
:1018D0005ED1B84262D3FFF739FA2B68DB68D3F8E0
:1018E0000C8008F10400FFF7B4FED8F81C30012B7F
:1018F0001CD1D8F818103B464A4640463944FFF7F9
:10190000E5FE98B123463A46214640460094FFF74B
:1019100049FF58B94FF0A00383F31188BFF36F8FCD
:10192000BFF34F8F00BFFDE70124C7E74046D8F85B
:10193000243098470022306804A900F0FDFB0028FD
:10194000B5D0049B0698002B40DB069C6369002BF6
:1019500043D103A8FFF752FF049B0246092BE9D8A5
:1019600001A151F823F000BFE3190C00E3190C00AA
:10197000E3190C0035190C00291A0C004F1A0C0041
:10198000E3190C00E3190C0035190C00291A0C009E
:10199000334B1B681C68B4FA84F46409224630682F
:1019A000A7EB090100F044FDFFF7D0F90028C1D1F1
:1019B0004FF0E0234FF08052C3F8042DBFF34F8F58
:1019C000BFF36F8FB6E7FFF7C1F9B3E7059B079940
:1019D0009847049B002BADDBB7E7201DFFF739FECE
:1019E000B7E7A169059B20461944FFF76FFE002861
:1019F000A0D0636A20469847E369012B9AD100235F
:101A0000A269059920460A4400931946FFF7CAFEC9
:101A100000288FD14FF0A00383F31188BFF36F8F9D
:101A2000BFF34F8F00BFFDE70599A16149B94FF0A2
:101A3000A00383F31188BFF36F8FBFF34F8F00BFF5
:101A4000FDE7034601442046FFF740FE72E72046CB
:101A500000F0BAF86EE700BFB88D0720EC8D0720C4
:101A6000BC8D072010B50F4B1A461B688342FBD371
:101A700054681119884201BF416810460919516024
:101A8000446801198B4207D1074909688B421FBF7F
:101A900059681B68091941609042036018BF1060C3
:101AA00010BD00BF442A0820F48D07202DE9F04125
:101AB0000446FFF7ABF83D493D4D0B68CBB900201C
:101AC0003C4B3D4A5E071CBF073323F007031360FE
:101AD00050603A4A22F00702C2E90000D01AC3E976
:101AE0000020374B0A601860364B18604FF00043F7
:101AF0002B602F68274207D0FFF728F90026FEF752
:101B000001FC3046BDE8F081002CF5D004F108035B
:101B100060071CBF23F007030833002BECD0DFF86D
:101B2000A480D8F800509D42E6D3234A1468606828
:101B3000984201D22668BEB90968A142DCD021686A
:101B400016681160C21A102A06F1080613D9E018A7
:101B500041070CD04FF0A00383F31188BFF36F8FC0
:101B6000BFF34F8F00BFFDE722463446DFE74260F8
:101B70006360FFF777FF0023114962680868AD1AB8
:101B8000174385422360676038BF0D60C8F8005076
:101B9000FFF7DCF87307B4D04FF0A00383F311888C
:101BA000BFF36F8FBFF34F8F00BFFDE7F48D0720AA
:101BB000382A0820F88D0720442A0820302A0820D7
:101BC000402A08203C2A082010B5044680B3194A50
:101BD00050F8043C1268134209D14FF0A00383F37C
:101BE0001188BFF36F8FBFF34F8F00BFFDE750F831
:101BF000081C49B14FF0A00383F31188BFF36F8F26
:101C0000BFF34F8F00BFFDE723EA020340F8043C17
:101C1000FEF7FCFF084A54F8043C1168A4F10800E0
:101C20000B441360FFF71EFFBDE81040FFF78EB8AE
:101C300010BD00BF382A08203C2A082010B50446F1
:101C4000FEF7BCFDA46BFEF7C9FDB4FA84F04009B1
:101C500010BDF8B51546026C0446866B52B907688C
:101C600047BB8068FFF7AEFA0546A76001362846F5
:101C7000A663F8BD65B940680EF04CFA6368226C43
:101C80001344A26863609342F0D323686360EDE776
:101C9000C0680EF03FFA226CE36851429B1A22683A
:101CA000E36093423EBFA3685B18E360022D01D15D
:101CB00016B1013E0025D9E73546D7E703461A6C31
:101CC000084610B462B1DC68996814448C4228BF9D
:101CD0001968DC6028BFD960D96810BC0EF01ABA48
:101CE00010BC704770B50446FEF768FD94F8455087
:101CF00004F124066DB2002D14DCFF2384F8453076
:101D0000FEF76CFDFEF75AFD94F8445004F11006FE
:101D10006DB2002D12DCFF2384F84430BDE8704022
:101D2000FEF75CBD636A002BE7D03046FFF722F96F
:101D300008B1FFF7C9F9013D6DB2DCE72369002B5B
:101D4000E9D03046FFF716F908B1FFF7BDF9013DBC
:101D50006DB2DEE738B50D46044648B94FF0A00332
:101D600083F31188BFF36F8FBFF34F8F00BFFDE781
:101D7000FEF724FDD4E90F314B432268D0185B1ADB
:101D80001344A060E3600020FF23A063626084F836
:101D9000443084F84530A5B9236973B104F11000CB
:101DA000FFF7E8F848B14FF0E0234FF08052C3F856
:101DB000042DBFF34F8FBFF36F8FFEF70FFD012090
:101DC00038BD04F11000FFF713FC04F12400FFF705
:101DD0000FFCF2E7F8B50D461746064648B94FF036
:101DE000A00383F31188BFF36F8FBFF34F8F00BF42
:101DF000FDE748435030FFF759FE044658B165B13E
:101E000000F1500301212046C4E90F652360FFF76C
:101E1000A1FF84F84C702046F8BD0346F2E72DE997
:101E2000F04385B088461F460446019248B94FF0FA
:101E3000A00383F31188BFF36F8FBFF34F8F00BFF1
:101E4000FDE759B9036C4BB14FF0A00383F3118840
:101E5000BFF36F8FBFF34F8F00BFFDE7022F0CD191
:101E6000E36B012B09D04FF0A00383F31188BFF37C
:101E70006F8FBFF34F8F00BFFDE7FFF741F90646B5
:101E800058B9019B53B14FF0A00383F31188BFF3FE
:101E90006F8FBFF34F8F00BFFDE700264FF00009A3
:101EA00037E0019D1DB9FEF799FC002052E016B9FC
:101EB00002A8FFF7BFF8FEF791FCFEF7A7FEFEF7BA
:101EC0007DFC94F84430FF2B08BF84F8449094F8CC
:101ED0004530FF2B08BF84F84590FEF77FFC01A931
:101EE00002A8FFF7B3F800284AD1FEF767FCA26BFF
:101EF000E36B9A4231D1FEF771FC019904F11000B5
:101F0000FEF7FEFF2046FFF7EDFEFEF71FFF60B372
:101F10000126FEF753FCA26BE36B9A4201D3022F1A
:101F2000BFD13A4641462046FFF793FE636A1BB194
:101F300004F12400FFF71EF848B14FF0E0234FF002
:101F40008052C3F8042DBFF34F8FBFF36F8FFEF79E
:101F500045FC012005B0BDE8F083FEF73FFC2046BC
:101F6000FFF7C0FEFEF7F2FED2E74FF0E0234FF09E
:101F70008052C3F8042DBFF34F8FBFF36F8FC7E7B5
:101F80002046FFF7AFFEFEF7E1FE8EE770B506468E
:101F90005020FFF78BFD044688B100250121006029
:101FA000C0E90F15FFF7D6FE2B462A4629462046E4
:101FB00084F84C60A5602560E560FFF730FF20469F
:101FC00070BD2DE9F843894690461F46044648B93E
:101FD0004FF0A00383F31188BFF36F8FBFF34F8FD0
:101FE00000BFFDE759B9036C4BB14FF0A00383F379
:101FF0001188BFF36F8FBFF34F8F00BFFDE7022F34
:102000000CD1E36B012B09D04FF0A00383F31188AF
:10201000BFF36F8FBFF34F8F00BFFDE7FEF742FCAA
:10202000EFF311864FF0A00383F31188BFF36F8F96
:10203000BFF34F8FA26BE36B9A4201D3022F22D1E1
:1020400094F845503A46494620466DB2FFF701FEE6
:102050006B1C13D1636A0BB901200BE004F124005F
:10206000FEF788FF0028F7D0B8F1000FF4D0012068
:10207000C8F8000086F31188BDE8F88301356DB219
:1020800084F84550E8E70020F4E770B50D460446B3
:1020900048B94FF0A00383F31188BFF36F8FBFF3EC
:1020A0004F8F00BFFDE7036C4BB14FF0A00383F3EC
:1020B0001188BFF36F8FBFF34F8F00BFFDE7036839
:1020C0005BB983684BB14FF0A00383F31188BFF372
:1020D0006F8FBFF34F8F00BFFDE7FEF7E3FBEFF31A
:1020E00011864FF0A00383F31188BFF36F8FBFF306
:1020F0004F8FA26BE36B93421CD994F845100132C9
:10210000FF294BB2A26310D1636A0BB9012009E029
:1021100004F12400FEF72EFF0028F7D0002DF5D0A3
:102120000120286086F3118870BD01335BB284F80A
:102130004530EBE70020F5E72DE9FF410F46044667
:10214000019248B94FF0A00383F31188BFF36F8F5A
:10215000BFF34F8F00BFFDE759B9036C4BB14FF090
:10216000A00383F31188BFF36F8FBFF34F8F00BFBE
:10217000FDE7FEF7C5FF064658B9019B53B14FF086
:10218000A00383F31188BFF36F8FBFF34F8F00BF9E
:10219000FDE700264FF000083DE0019D1DB9FEF768
:1021A0001DFB002056E016B902A8FEF743FFFEF71C
:1021B00015FBFEF72BFDFEF701FB94F84430FF2BD7
:1021C00008BF84F8448094F84530FF2B08BF84F89A
:1021D0004580FEF703FB01A902A8FEF737FF0028A0
:1021E00041D12046FFF72AFDB8B3019904F124003C
:1021F000FEF786FE2046FFF775FDFEF7A7FD48B9FE
:102200004FF0E0234FF08052C3F8042DBFF34F8FFF
:10221000BFF36F8F0126FEF7D1FAA56B002DBCD05E
:1022200039462046013DFFF749FDA563236973B197
:1022300004F11000FEF79EFE48B14FF0E0234FF08E
:102240008052C3F8042DBFF34F8FBFF36F8FFEF79B
:10225000C5FA012004B0BDE8F0812046FFF742FD39
:10226000FEF774FDD6E72046FFF73CFDFEF76EFD56
:102270002046FFF7E3FC0028CCD092E7F0B585B00C
:102280000446019148B94FF0A00383F31188BFF3CE
:102290006F8FBFF34F8F00BFFDE7056C4DB14FF05F
:1022A000A00383F31188BFF36F8FBFF34F8F00BF7D
:1022B000FDE7FEF725FF064658B9019B63B14FF0D5
:1022C000A00383F31188BFF36F8FBFF34F8F00BF5D
:1022D000FDE72E46002754E00546FBE7019B6BB95E
:1022E0004DB14FF0A00383F31188BFF36F8FBFF39D
:1022F0004F8F00BFFDE7FEF771FA62E016B902A842
:10230000FEF798FEFEF76AFAFEF780FCFEF756FA33
:1023100094F84430FF2B08BF84F8447094F845309B
:10232000FF2B08BF84F84570FEF758FA01A902A8F0
:10233000FEF78CFE00284DD12046FFF77FFC0028D9
:1023400042D023683BB9FEF739FAA068FEF7E8FEF1
:102350000546FEF743FA019904F12400FEF7D0FD8B
:102360002046FFF7BFFCFEF7F1FC48B94FF0E02331
:102370004FF08052C3F8042DBFF34F8FBFF36F8F20
:102380000126FEF71BFAA36B002BA7D0013BA3632A
:10239000236813B9FEF7C2FFA060236973B104F18B
:1023A0001000FEF7E7FD48B14FF0E0234FF08052F8
:1023B000C3F8042DBFF34F8FBFF36F8FFEF70EFAF4
:1023C0000125284605B0F0BD2046FFF78BFCFEF73F
:1023D000BDFCD5E72046FFF785FCFEF7B7FC20469D
:1023E000FFF72CFC0028CBD0002DEAD0FEF7E6F951
:1023F000616A19B1236B1968C1F10301A068FEF786
:1024000033FF0025FEF7EAF9DBE70000002310B5F3
:10241000064A52F833402CB942F8331002EBC3039A
:10242000586010BD0133082BF3D1FAE74C2A08207D
:1024300070B504460D461646FEF7C0F994F84430D0
:10244000FF2B04BF002384F8443094F84530FF2B61
:1024500004BF002384F84530FEF7C0F9A36B2BB905
:102460003246294604F12400FEF764FD2046BDE80B
:102470007040FFF737BC000010B5094C0121002067
:10248000084A01F0EDFA237833B906F0F5FF06F0BB
:1024900059FC0123237010BDBDE8104001F0D8BCE9
:1024A000232B0820767E0D00002330B5054C95B215
:1024B0000C44E15CC154013399B28D42F9D8002338
:1024C000835430BD482C082070B52848B6B00DF0B4
:1024D000DDFF0223C5B22A46254901A88DF8103038
:1024E0000DF012FF9DF804309DF805005A1C8DF880
:1024F000113000239DF8061002448DF813100A4491
:102500001A498DF8120005A8DCB2A54226D892B26D
:102510001849AEB201A80DF0F7FE2C1D01AB06F173
:10252000080236A92144013413F8010BA4B29442E5
:1025300001F8C80CF5D136AB1C44032304F8C83CA1
:1025400036AB1E440A2306F8BF3C0B4B05F10A02CA
:10255000186804A9C368984736B070BD11F8014BDC
:10256000013300F8014B2244CEE700BF4E2E082075
:102570007F7E0D00847E0D00EC2E082007B5435CA5
:10258000013189B28DF80430435C0021102201A88A
:102590008DF805308DF806100EF098F8C0B203B033
:1025A0005DF804FB63232DE9F347ADF800302823E1
:1025B000ADF80230B323044600F146061F4F204D0C
:1025C000DFF88080ADF80430B6B2EA464FF000097B
:1025D00004EB89010422384689B2FFF765FF102217
:1025E00000210EF073F81022A881002138460EF069
:1025F0006DF8AB883AF8022B09EB830309F1010966
:1026000005EB43034240B9F1030F9A82E0D104F194
:102610000C01404689B2FFF7B1FFAB880E3405EBE1
:10262000C302508301332A889BB29A42A4B2AB8082
:1026300001D9A642C9D102B0BDE8F087482E0820D2
:1026400094800720482C082010B5084C4FF4807265
:1026500004F10801201D00F00BFD636803F5807391
:1026600063600023A4F8183110BD00BF242B08209C
:102670000A4B0B4AB3F8101102EBC102D18A128B3C
:10268000C3F80C110A440132C3F81421012283F863
:1026900012210022A3F81821704700BF242B082024
:1026A000948007200A4B10B5596801F5807051F8E5
:1026B000042B0433C2F307241A715C718142C2F304
:1026C0000744C2F307629C71DA71F0D110BD00BFFC
:1026D000242B08202DE9F04F04460D46B44FB54E8B
:1026E000DFF8D4828FB03B88B3EB440F0BDC7378F8
:1026F000013B042B00F25A81DFE813F00F007B004E
:10270000BE00D100D70029464046FFF737FF02350B
:1027100030550134A4B2ADB2E5E70DF1170000F079
:10272000ADFC002863D09DF81700A44D002858D0B8
:1027300001210020A24A01F093F900232B603623E7
:102740008DF8183030238DF819303A238DF81A306F
:10275000002306A99B488DF81B300DF019FE9A4AFC
:102760009A49D37806A80093937852780DF0CCFD5F
:1027700006A994480DF00CFEFDF7D2FD94490246DF
:1027800006A80DF0C1FD06A98E480DF001FEFDF76B
:10279000C9FD8F49024606A80DF0B6FD06A9894875
:1027A0000DF0F6FDFDF7C0FD8949024606A80DF0C3
:1027B000ABFD06A983480DF0EBFD00F08FFC04464D
:1027C00000F084FC2A6803468249009206A822464B
:1027D0000DF09AFD06A97B480DF0DAFD0FB0BDE8BB
:1027E000F08F01217C4A01F03BF90123A6E77B49E8
:1027F000F1E733797A4CF578B17883F01A00E07418
:102800006840757981F05902A2746A4002EB002297
:1028100081F0350183F0CD0303EB0123A260142185
:10282000042270482382FFF73FFE102200210DF0A2
:102830004DFF238A0422584060801A216948FFF71F
:1028400033FE002110220DF041FF238A58404FF63D
:10285000FF73A081E38100245848A0F81041FFF7DE
:1028600007FF614980F81A41A0F81C4155480FB094
:10287000BDE8F04F0DF08CBD042208215948FFF748
:1028800013FE102200210DF021FF0022544B4A4973
:1028900018800C209A80FFF785FE5449E6E74649E8
:1028A0000820FFF77FFE5249E0E7444C94F81A7184
:1028B000002F79D00025AA46494EA4F81051B4F84B
:1028C000102133889A4219D3B368ADB2AB4269D1B3
:1028D000207800F00BFC002862D0464939480DF002
:1028E00057FD454B1C68FEF799F90A2302460093F1
:1028F000012100232046FEF755FF6FE74FF0000847
:10290000FFF7B6FEB4F8102106EBC203DB8A06EB34
:10291000C202928AA4F80A3103F47F4303EB021344
:102920006360B4F8103106EBC302128B01324245EA
:1029300003D80133A4F81031C1E7FFF7B3FE636891
:10294000B4F80AB103F58073636094F80A31A4F80F
:1029500018A10BB1A4F8183100218C46B4F818E185
:10296000D4F814310EF10800039320448BB20BEB22
:10297000030273449BB2FF2B01EB080992B206D904
:10298000BCF1000F01D0A4F80A21C846C9E7039B97
:1029900001319A42F4D210F8013BBC461D44E5E7F0
:1029A0000E4963E7154961E715495FE715495DE79A
:1029B000442C08208C2A0820482C0820242B08208E
:1029C000897E0D004E2E0820687D0D00AB7E0D0027
:1029D000B37E0D00B77E0D009A7E0D00C27E0D0005
:1029E00094800720482E0820C57E0D00C87E0D006B
:1029F000CB7E0D00CE7E0D00E42E0820D17E0D0092
:102A0000D47E0D00D77E0D00014902480DF0C0BCF8
:102A1000D77E0D004E2E082038B5284A284C9178D4
:102A2000D37894F8120103EB01239BB2A4F8083188
:102A300068B1B4F81011234A02EBC102928A9A429B
:102A40003AD121492148BDE838400DF0A1BCB4F885
:102A500018319BB11A46FF2503F108012144FF2AD2
:102A600020D9B3F5807FC3F5807288BF002213445C
:102A70009BB208B1A4F81831FFF7E6FDB4F81031A5
:102A80001048013302889BB29A42A4F810310FD04B
:102A9000FFF7EEFDB4F81031B4F8082100EBC300E5
:102AA000838ACCE70132012001F8015B92B2D6E7BC
:102AB000012384F81A31C4E70549C3E78C2A0820AA
:102AC000242B082094800720CE7E0D004E2E082057
:102AD000DA7E0D0004220021F0B5704C704EB4F87F
:102AE0001E71B4F81C3185B090B2874261D809B12B
:102AF000A4F81C31F319F25D5B7803EB0223B4F800
:102B00001C219BB29A4266D1B278F37803EB022380
:102B100094F812219BB2A4F80A311AB3614DB4F8AB
:102B2000102105EBC202D28A9A4248D101215E4AA5
:102B3000002000F095FF0023B4F8102184F8123132
:102B400005EBC205B4F80A31A98A03F47F4202EB0F
:102B50000112DBB262602BB1FFF7A4FD94F80A31D9
:102B6000A4F818310425AF423BD1842F6BD0D4F8A0
:102B70000C21D4F814319A4240F08180B4F8183115
:102B8000002B44D1494A0121002000F069FFB4F82C
:102B90001031444A013312889BB29A42A4F8103192
:102BA00078D00121424A002000F05AFFFFF760FD73
:102BB0004FE0B15C01320B449BB2012194E701214B
:102BC0003C4A002000F04CFF3B493C480DF0E0FB44
:102BD000072005B0F0BD3A4938480DF0D9FB042074
:102BE000F7E7B4F81821715D531C9BB22244B3F58A
:102BF000807FA4F81831117201D1FFF725FDD4F8B8
:102C00000C3101350133C4F80C31ADB2ABE7012111
:102C10002C4A002000F024FFB4F8182100201346AD
:102C2000FF2502F108012144FF2B22D9B2F5807F54
:102C3000C2F5807388BF002313449BB208B1A4F887
:102C40001831FFF701FDD4F80C21D4F814319A4261
:102C500098D01D4919480DF09BFB124B1B49DA898E
:102C600001A80DF051FB154801A90DF091FB0020C2
:102C7000AFE70133012001F8015B9BB2D4E70121EA
:102C8000134A002000F0ECFE12490C480DF080FBC6
:102C900008209EE7012384F81A31DAE7242B082064
:102CA0008C2A082094800720DD7E0D00F17E0D0027
:102CB000077F0D00E27E0D00EB7E0D004E2E0820FA
:102CC000EE7E0D00F67E0D000C7F0D007F7E0D0068
:102CD000FB7E0D00047F0D0008B5064BB3F81831DC
:102CE0000BB1FFF7B1FCBDE80840034903480DF004
:102CF0004FBB00BF242B08200F7F0D004E2E082055
:102D00002DE9F0473F4D404B69781B8808293F4C1F
:102D100021D1073B03EBD3735B1003223C48A4F89B
:102D20001E31FFF7C1FB3B4B1022DE89002101362B
:102D3000B6B2DE810DF0CAFCC0F30B00864208D1AA
:102D400094F81A312BB334493448BDE8F0470DF0FC
:102D50001FBB3349F8E74FF00808043B03EBD3737C
:102D60005B10A4F81E310026DFF8B890294FB4F8A4
:102D70001E311FFA86FA08EB4A01534589B20BD877
:102D80006B78053B042B32D8DFE803F0212531298D
:102D90002D004FF00B08E6E74846FFF7EFFB0AF07F
:102DA000010ABA449AF812307340584000F00F02FA
:102DB000C0F303103A44384492F8141190F81421E7
:102DC000B3B22B4402EB01129A700136CFE7BDE893
:102DD000F047FFF719BEBDE8F047FFF71DBEBDE89D
:102DE000F047FFF777BEBDE8F047FFF775BF0E4924
:102DF0000A480DF0CDFABDE8F047012100200B4A4A
:102E000000F02EBE8C2A0820442C0820242B0820F9
:102E1000482E082094800720127F0D004E2E082097
:102E2000157F0D00482C0820D77E0D00187F0D005F
:102E300010B504211148FFF7A1FB114C06212070A9
:102E40000E48FFF79BFB0422607011460D48FFF708
:102E50002BFB2378202B05D0262B0BD00A490DF015
:102E600097FA03E008210220FFF734FCBDE8104088
:102E7000FFF72ABBFFF744FFF8E700BF482C082004
:102E80008C2A08204E2E0820D77E0D002DE9F3470E
:102E90000024264627463D4D002000F0EDFE002090
:102EA00005F01AFA012005F017FA00F0ADFD384BD5
:102EB000012218680DF107010A23806903F0A2FFBF
:102EC000002857D02B78022B18BF00269DF807301A
:102ED000B6F5007FAB5528BF0026AA5D731C0A2AF1
:102EE0009BB246D100262B4A13802B78022B3ED171
:102EF000284C23889BB2013BEB5C0A2B37D1032281
:102F00000121254895F8018095F802A095F80390D5
:102F1000FFF7CAFA002110220DF0D8FB1F4B81B237
:102F2000198023885FFA88F89BB20A3B99425FFABE
:102F30008AFA5FFA89F925D1042308F1010454447F
:102F400004314C4489B2994217D10B1DEB5C032B21
:102F500018D104221048FFF7A7FA102200210DF023
:102F6000B5FB4440A4B274B9FFF762FF94E70124B3
:102F700092E71E46002C8FD0B7E7EA5C0133144479
:102F80009BB2E0E72F70002486E700BF482C0820A2
:102F9000EC2E0820462C0820482E0820442C08201F
:102FA0001F4B37B51C78002C37D101251D4A294607
:102FB00020461D7000F054FD00F048F81A4B1B48E5
:102FC0001D701B4B4E2218604FF4E1314369984746
:102FD000032221462846FEF7FDFE20B12346224665
:102FE0002146FEF71CFF134B4FF47A710093012228
:102FF00000231148FEF7B0FB104B0146186010B9D2
:103000000F4A00F02DFD012200230E49CDE90023D7
:103010000D484FF41672FDF7D3FC03B030BD00BF6E
:10302000222B08202E7F0D00E82E0820D4810720B7
:10303000EC2E082079240C003D7F0D00E42E0820A2
:10304000457F0D005C7F0D008D2E0C0006210020B9
:1030500010B504F02DFF034630B1BDE8104001214A
:103060000020024A00F0FCBC10BD00BF687F0D00CC
:1030700001234FF48072006804F02EBF70B5002267
:1030800005460D210E4804F0C9FE0646A8B90C48B5
:1030900004F0AFFE10F0040407D001213046094AC5
:1030A00000F0DEFC0120287070BD01212046064A98
:1030B00000F0D6FC01202C70F6E70020F4E700BFFA
:1030C000000A0E40897E0D009A7E0D00024B186C9E
:1030D000C0F30320704700BF00090E4008B5FFF79A
:1030E000F5FF09280CBF8320842008BD022208B503
:1030F00038B10B21044804F091FEB0FA80F0400989
:1031000008BD0C21F6E700BF000A0E400023C0E90D
:103110000033C0E90233C0E90433C0E90633704725
:1031200008B50121054A002000F09AFCBDE80840DE
:1031300001210020024A00F093BC00BF877F0D00F0
:103140009D7F0D0030B5304893B004F0F1FBC0B264
:10315000002852D000252C4C2046E9B204F0F0FBA8
:1031600003024CD5294C2146A0602748256004F075
:1031700038FCE36908220293A36901A905A8019319
:103180000CF0C8FF0022236921490393A37920464C
:103190008DF81C3063798DF81D209B1A18BF012310
:1031A0008DF81030FFF7B2FF0B681A4801330B603F
:1031B000039900920132D2B21E2A50F8043B1AD071
:1031C0009942F7D10023142203A909A88DF82030D1
:1031D0000CF0A0FF694608A800F0D8FA009B63B184
:1031E0004FF0E0234FF08052C3F8042DBFF34F8F10
:1031F000BFF36F8F01E09942E4D013B030BD0135C9
:10320000082DA9D1F9E700BF00400B40F42E08209B
:10321000843008209030082030B5304893B004F056
:1032200087FBC0B2002853D000252C4C2046E9B2C1
:1032300004F086FB03024DD5294C2146A0602748A7
:10324000256004F0CEFBE36908220293A36901A97B
:1032500005A801930CF05EFF236920460393A37930
:1032600020498DF81C3001238DF81D306379003B17
:1032700018BF01238DF81030FFF748FF00234A687C
:10328000194801324A60039900930133DBB21E2BC7
:1032900050F8042B1AD09142F7D10123142203A92C
:1032A00009A88DF820300CF035FF694608A800F019
:1032B0006DFA009B63B14FF0E0234FF08052C3F8EA
:1032C000042DBFF34F8FBFF36F8F01E09142E4D025
:1032D00013B030BD0135082DA8D1F9E700800B40AF
:1032E0001C2F082084300820083108202DE9F347DE
:1032F0000446427C394D3A4EAF5C02EB8203806853
:103300003B4406EB43139861E068D4F800C0D861F1
:1033100020799100A0B10120C3F810C058718B181A
:103320003B44217C06EB431399717AB1012A04D006
:10333000012100202B4A00F093FBDFF8AC8007E06E
:1033400058712A4800EA8C401861E8E7DFF8A0804D
:103350000C27DFF8A0A0637C404603EB8301EB5C05
:10336000194406EB411104F077FB01288146637C88
:1033700014D00821EB5C40469940C9B204F0DAFA57
:103380000522617C6B5C0133DBB2B3FBF2F202EB32
:1033900082029B1A6B5402B0BDE8F087EA5C494692
:1033A00000920020524600F05BFB013F0520FDF734
:1033B00045FD17F0FF07CED1494638460E4A00F0CA
:1033C0004FFB4046617C6B5C01EB8101194406EBCD
:1033D000411102B0BDE8F04704F0C3BAF02E082056
:1033E000442F0820B67F0D0000800B400000FC1F1A
:1033F00000400B40D17F0D00E77F0D00014804F035
:10340000B1BE00BF142F0820014804F09DBE00BFCC
:10341000142F08202DE9F041044638211A4804F001
:1034200091FEFFF7F1FF2B2004F054FA22461749D2
:10343000174804F049FB20B101210020154A00F093
:103440000FFB03254FF0FF31114804F06FFA1048CD
:1034500004F029FBA84600260F4C0D4F2046FFF72D
:1034600055FEEB00093B2560214684F80480E3719A
:103470006671E6603846013504F07FFA082D04F1E4
:103480002004EBD1BDE8F081142F082000BD010518
:1034900000400B40F27F0D00442F0820014804F04B
:1034A00061BE00BF3C2F0820014804F04DBE00BFA4
:1034B0003C2F08202DE9F041044636211D4804F038
:1034C00041FEFFF7F1FF2C2004F004FA22461A49CE
:1034D0001A4804F0F9FA20B101210020184A00F03E
:1034E000BFFA03254FF0FF31144804F01FFA1348C8
:1034F00004F0D9FAA8460026124C104F04F1A0009F
:10350000FFF704FEEB00093BC4F8A050014684F825
:10351000A48084F8A73084F8A560C4F8AC6038466D
:10352000013504F02AFA082D04F12004E6D1BDE8A3
:10353000F08100BF3C2F082000BD010500800B403A
:1035400012800D00442F08200D4838B5FFF7DEFD2E
:10355000002301250360C3600A4C0B4B0146036145
:103560000571204604F009FA2946204604F0DCF9EA
:103570004FF40062054B5A60F02283F82B2338BDCC
:10358000F42E082000400B400000FC1F00E100E08A
:103590000D4838B5FFF7BAFD002301250360C3606D
:1035A0000A4C0B4B014603610571204604F0E5F916
:1035B0002946204604F0B8F94FF48052054B5A6072
:1035C000F02283F82C2338BD1C2F082000800B40EC
:1035D0000000FC1F00E100E007B5074B012200934B
:1035E00042F2107100230548FEF7B6F8044B18604C
:1035F00003B05DF804FB00BF21310C0032800D00E8
:103600008C3008200023011D02481A460068FEF78E
:1036100006BC00BF843108207FB51420FDF70EFCE6
:103620000F4D104C4FF0FF32286801A9FEF784FDC2
:1036300048B19DF81530012B05D801A8FFF756FEBB
:103640001420FDF7FBFB0020FDF744FD6328E9D8BB
:1036500023460121044A002000F002FAE2E700BFFD
:103660008431082066800D0039800D0078230C4AD3
:1036700003FB0022002352F8040B60B1A0EB010C05
:10368000DCF1000040EB0C000133DBB21E2B01D05B
:103690000028F0D07047012042F8041CF4E700BF76
:1036A00090300820F7B51A4F05463C786CBB0126D0
:1036B00023464FF496721749019400961648FDF779
:1036C0007FF9224614211020FEF784FB134B31466C
:1036D0001860134A204600F0C3F9FFF77DFF286801
:1036E000FFF798FEA868FFF7E5FEFFF72DFFFFF74D
:1036F0004FFF02200B493E7000F040F803200949BB
:1037000003B0BDE8F04000F039B803B0F0BD00BF31
:10371000803108204D800D0019360C0084310820BE
:1037200056800D0005360C00022300B58BB0014613
:10373000142201A88DF800300CF0ECFC684600F073
:103740003FF80BB05DF804FB70B504460D462368E6
:103750001BB9256070BD3446F9E7AB42FAD0666804
:10376000002EF8D1082101200CF096F908B1C0E92B
:10377000006660600028EAD1ECE70000024B03EB32
:10378000C000FFF7E1BF00BF603208200A460146D3
:10379000084808B500680023FEF713FC48B9064B3B
:1037A00019784A1C1A7021B9BDE80840034A00F094
:1037B00057B908BD183408208831082075800D00DD
:1037C00001460348002305220068FEF728BB00BF1E
:1037D0001834082010B54FF46162044600F1080166
:1037E000D1E9000100238AB00BF0D2FF13430AD1C4
:1037F0002822214668460CF08DFC092368468DF886
:103800000030FFF7DDFF0AB010BD10B53C220446C2
:1038100000F10801D1E9000100238AB00BF0B8FFE4
:1038200013430AD12822214668460CF073FC082372
:1038300068468DF80030FFF7C3FF0AB010BD0000E6
:1038400010B5134C8AB023785A1C132B227017D949
:103850000421104B104A002000F002F907230F4A00
:103860008DF80030D2E90031CDE90231013341F168
:1038700000016846C2E90031FFF7A2FF0023237070
:10388000062368468DF80030FFF79AFF0AB010BD96
:1038900009340820CD800D002C7D0D001034082047
:1038A00038B503780546342B10D8094C04EBC30413
:1038B000236823B1284698476468002CF8D12978FA
:1038C000044A52F82130013342F8213038BD00BF9C
:1038D000603208208C31082000B50C4D0C4C8BB0A8
:1038E0004FF4FA7269462868FEF726FC10B1684664
:1038F000FFF7D6FF0020FDF7EDFB6328F0D8234645
:103900000121044A002000F0ABF8E9E71834082050
:10391000C2800D0039800D00F7B5224F0121002033
:10392000214B224A00F09CF83C78002C37D12246EB
:1039300028213620FEF74EFA01251D4B4FF4167252
:1039400018601C4923461C4801940095FDF738F87F
:103950004FF407630221194A009303204FF4D473F4
:1039600000F07EF8164B2A46322100931548234674
:10397000FDF7F2FE0646FDF751F9234602462946B9
:1039800030460094FDF70EFF0F491048FFF7DCFEAC
:103990000F491048FFF7D8FE04F064FF3D7003B0F4
:1039A000F0BD00BF08340820DA800D002C7D0D002A
:1039B000183408207A800D00D9380C0085800D005D
:1039C00041380C00BC800D000B380C0098320820E8
:1039D000D5370C00A032082010B54FF4004107483D
:1039E00004F088F9064C83B21A462046054904F0D3
:1039F00095F92046BDE8104004F09CB900093D004F
:103A0000501A0E4000600010014804F093B900BF46
:103A1000501A0E404FF06043D3F8802ED2070BD5DA
:103A2000D3F8002ECA40D20706D553F82120002A29
:103A3000FBD0C0B203F821007047000005289CBFEE
:103A4000014B1954704700BF2034082010B5441EA4
:103A500014F8010F00B910BD0021FFF7DBFFF7E7F5
:103A60000CB437B5114B04461B78ABB94FF060432B
:103A7000D3F8003EC340DB070ED50D4B1B5C8B42D9
:103A80000AD307AB6421069A0A48019310F074F92F
:103A9000084D15F8010B28B9002003B0BDE83040EF
:103AA00002B070472146FFF7B5FFF2E78A340820DD
:103AB000203408202634082070B5144686B0012131
:103AC000204604AA02F074FF0221054605AA2046FA
:103AD00002F06EFF0023049A0646AB54059A314962
:103AE000835428460CF032FC0446F8B128462E498F
:103AF0000CF02CFC002847D028462C490CF026FC62
:103B0000002843D028462A490CF020FC00283FD04A
:103B1000284628490CF01AFC00283BD028462649A4
:103B20000CF014FC002814BF06240424304623495A
:103B30000CF00CFC80B3304621490CF007FC68B354
:103B4000204930460CF002FC014660B130461E4967
:103B50000CF0FCFB20B31D4930460CF0F7FB0028AD
:103B600014BF012104212046FFF768FF184A2B46A5
:103B7000CDE90161009401210020FFF771FF0020D1
:103B8000144B187006B070BD0124CFE70224CDE7B6
:103B90000324CBE70524C9E70121E4E70221E2E79A
:103BA0000321E0E7E5800D00A5A00D00ED800D00EC
:103BB000F2800D00F8800D00FC800D0005810D00E5
:103BC0000C810D0011810D0017810D001F810D006A
:103BD00025810D008A34082002220A4B10B50124E9
:103BE0001A7004225C70DC709A701C715C7106485B
:103BF00002F0B2FE2146BDE810400020034B044A0B
:103C0000FFF72EBF20340820BC810D00AD810D00D0
:103C10002C7D0D004FF0FF304FF0FF31014BC3E919
:103C200000017047A03408200123074903FA00F07F
:103C3000D1E90023024003EAE07052EA000314BF16
:103C400001200020704700BFA0340820012202FAA2
:103C500000F010B5C443054BD3E9001221EA00007F
:103C600002EAE472C3E9000210BD00BFA0340820DC
:103C7000004870479034082030B50C4D04462B782E
:103C80008BB0834203D11320FFF7CEFF58B113202E
:103C9000FFF7DCFF132368462C708DF800308DF899
:103CA0000140FFF78DFD0BB030BD00BF9034082000
:103CB00010B58CB004F03CFF8DF80A0005F0AEF8AA
:103CC0008DF80C0005F010F98DF80B0005F094FA52
:103CD000ADF80E0004F082FE1D238DF80D0002A841
:103CE0008DF80830FFF76CFD064B1C68FCF796FF5B
:103CF0000A2302460093012100232046FDF752FDCE
:103D00000CB010BDA8340820FFF7D2BF73B51A4D10
:103D100001211A4A0020FFF7A3FE04F065FE05F01A
:103D20001FF805F0ABF805F0AFF905F06BFA2C7849
:103D300004BB134B01226421009312482346FDF774
:103D40000BFD114E114B30600122FA2100931048F7
:103D50002346FDF701FD0F4B36681860FCF75EFF48
:103D60000A2302460093012123463046FDF71AFD3F
:103D700001232B7002B070BD9C340820CC810D0053
:103D8000153C0C00BC800D008C340820093D0C0053
:103D9000DB810D00A834082001210020014B024ADC
:103DA000FFF75EBEE1810D002C7D0D0013B52348A9
:103DB00003F01EFFC20704461AD500230DF10301CC
:103DC0001E48019303F01DFF1D4801AB01228069CD
:103DD0000DF1030102F0CDFF019B4BB14FF0E02349
:103DE0004FF08052C3F8042DBFF34F8FBFF36F8F96
:103DF000A3071BD50023124801930122C06901AB20
:103E00000DF1030103F07DF890B1019B4BB14FF030
:103E1000E0234FF08052C3F8042DBFF34F8FBFF360
:103E20006F8F9DF80310054803F0E4FE02B010BD4B
:103E30000221024803F0DAFEF8E700BF00080E4056
:103E4000D48107200121014803F0CEBE00080E40B6
:103E5000BFF34F8F0449054BCA6802F4E062134375
:103E6000CB60BFF34F8FFEE700ED00E00400FA05E2
:103E70000221014803F0B8BE00080E407FB5254B73
:103E800004460E4615460121234A0020FFF7E8FDAF
:103E9000224B1A7832B10720214904B0BDE87040A6
:103EA000FFF76CBC0121A26919701AB9602002F0F9
:103EB00084FEA061E2692AB901214FF4807002F00A
:103EC0007CFEE0610023174A452DCDE900260393CF
:103ED00005D04F2D14BF4FF400634FF400730293CD
:103EE0004FF48073104C0820236003F0F3FC694604
:103EF0000E4803F059FE0D4803F073FE0B4803F023
:103F00006DFE0121094803F06FFEF02384F80833A9
:103F100004B070BDF3810D002C7D0D00AC34082081
:103F2000993D0C0000BD010500E100E000080E40D5
:103F300001210020014B024AFFF792BD20820D00B3
:103F400004820D0030B544488DB003F0AEFB434B06
:103F500004461B78002B38D0C30718D5002301A9CD
:103F60003D48029303F0B0FB3D4802AB012280695B
:103F700001A902F0FEFE029B4BB14FF0E0234FF08F
:103F80008052C3F8042DBFF34F8FBFF36F8FA50787
:103F90001BD50023324802930122C06902AB01A95C
:103FA00002F0AFFF002852D0029B4BB14FF0E0234C
:103FB0004FF08052C3F8042DBFF34F8FBFF36F8FC4
:103FC0009DF80410244803F076FB264B1B78002B49
:103FD0003BD0A00405D50222234B1F481A7003F0E2
:103FE00066FB61040CD51C4803F052FB1E4A1F49B6
:103FF000137841F8230001331748137003F057FB7F
:10400000E2070CD5184D2B78062B08D81749124813
:1040100001EB830103F058FB2B7801332B70230451
:1040200013D5002301930F232022104903A88DF8F4
:1040300008300CF06FF802A801A9FFF7A7FB0222D5
:10404000094B05481A7003F032FB0DB030BD022158
:10405000014803F028FBB8E700800940AE3408208F
:10406000F4810720AD340820AF340820B881072040
:104070000121014803F015BB0080094002210148DD
:1040800003F00FBB0080094070B52B4B15461A7822
:1040900004460E4686B012B9284A127832B107207B
:1040A000274906B0BDE87040FFF768BB012182696F
:1040B00019701AB9602002F080FDA061E2692AB986
:1040C00001214FF4807002F078FDE0611D4803F09B
:1040D000ADFA03211B4803F0E6FAC023452D0096F4
:1040E000019304D04F2D24D04FF4006300E000234F
:1040F000029300234FF40035134C1120CDE9033314
:10410000059303F0E7FB6946104A0E4803F0A2FA54
:104110000C48256003F0C2FA0A4803F0BCFA0121FA
:10412000084803F0BEFAF02384F81133256006B086
:1041300070BD4FF40073DBE7AE340820AD340820C7
:10414000313F0C000080094000E100E000BD0105A6
:1041500001210020014B024AFFF782BC34820D008E
:1041600004820D0013B5234803F09FFAC2070446EA
:104170001AD500230DF103011E48019303F0A4FAA0
:104180001D4801AB012280690DF1030102F0F1FD30
:10419000019B4BB14FF0E0234FF08052C3F8042D48
:1041A000BFF34F8FBFF36F8FA3071BD500231248B8
:1041B00001930122C06901AB0DF1030102F0A1FEE0
:1041C00090B1019B4BB14FF0E0234FF08052C3F808
:1041D000042DBFF34F8FBFF36F8F9DF80310054879
:1041E00003F069FA02B010BD0221024803F05BFA45
:1041F000F8E700BF00C009401482072001210148F0
:1042000003F04FBA00C009400221014803F049BA47
:1042100000C0094070B52A4B15461A7804460E4670
:1042200086B032B10720274906B0BDE87040FFF7DD
:10423000A5BA0121826919701AB9602002F0BDFC8B
:10424000A061E2692AB901214FF4807002F0B5FC47
:10425000E0611D4803F0EAF903211B4803F023FA4B
:10426000C023452D0096019324D04F2D24D04FF428
:104270000063029300234FF48025144C1220CDE9F3
:104280000333059303F026FB6946114A0E4803F0F9
:10429000E1F90D48256003F001FA0B4803F0FBF942
:1042A0000121094803F0FDF9F02384F81233256059
:1042B00006B070BD0023DCE74FF40073D9E700BF00
:1042C000B034082051410C0000C0094000E100E07A
:1042D00000BD010501210020014B024AFFF7C0BBD0
:1042E00048820D0004820D0013B5234803F0DDF968
:1042F000C20704461AD500230DF103011E4801939D
:1043000003F0E2F91D4801AB012280690DF10301C0
:1043100002F02FFD019B4BB14FF0E0234FF0805294
:10432000C3F8042DBFF34F8FBFF36F8FA3071BD5C7
:104330000023124801930122C06901AB0DF1030172
:1043400002F0DFFD90B1019B4BB14FF0E0234FF045
:104350008052C3F8042DBFF34F8FBFF36F8F9DF8CA
:104360000310054803F0A7F902B010BD022102486E
:1043700003F099F9F8E700BF00000A4034820720F3
:104380000121014803F08DB900000A4002210148D3
:1043900003F087B900000A4070B52A4B15461A7819
:1043A00004460E4686B032B10720274906B0BDE864
:1043B0007040FFF7E3B90121826919701AB96020D2
:1043C00002F0FBFBA061E2692AB901214FF4807081
:1043D00002F0F3FBE0611D4803F028F903211B48BC
:1043E00003F061F9C023452D0096019324D04F2D91
:1043F00024D04FF40063029300234FF40025144CA3
:104400001320CDE90333059303F064FA6946114A9A
:104410000E4803F01FF90D48256003F03FF90B48E3
:1044200003F039F90121094803F03BF9F02384F83E
:104430001333256006B070BD0023DCE74FF4007332
:10444000D9E700BFB1340820D5420C0000000A4073
:1044500000E100E000BD010513B50446C0698DF818
:10446000071060B10A2301220DF1070102F0F8FBE9
:10447000636803B198479DF8070002B010BD4FF084
:10448000FF30FAE710B50A230446C06902F0E8FBE2
:1044900018B90121044AFFF7E3FA636813B1BDE8D4
:1044A0001040184710BD00BF5C820D000EB433B53C
:1044B000114D04462868C8B16421FDF7DFFEA8B19C
:1044C00006AB4FF48071059A0C4801930FF054FC31
:1044D0000A480BF0DBFF094902462046FFF7D2FFEE
:1044E000002328681A461946FDF799FC002002B0FF
:1044F000BDE8304003B07047B4350820B23408201E
:1045000010B5044C23681BB90120FDF73FFD206066
:1045100010BD00BFB435082010B5037886B0072B56
:104520000FD10B4C00F01CF823685A1C0BD12060F3
:1045300018238DF80030236868468DF808300AF09B
:10454000E3FA06B010BD9842F2D0FCF7EBF8EFE7C3
:104550005482072007200149FFF710B919450C00C4
:10456000084BD86BDB6B80F020001A06064BC0F3BB
:104570004010DB6B58BF40F002001B0258BF40F0F8
:1045800004007047000E0E4000100E40037873B90F
:10459000417D61B94268064B9A4208D1037B13F012
:1045A000200312BF08461946012004F031BA7047B3
:1045B00000402106037810B51E2B28D14078012831
:1045C00025D1194C237813BB04F03AFF174A034650
:1045D0001070174A107004281AD8DFE800F0220380
:1045E0000C070700FEF70AFF01F0AAFA00F072F9C3
:1045F00007F086FB09E0FEF701FF01F02FFB00F05A
:104600004FFA00F0DDFB00F065F90123237010BDC7
:1046100001210020074AFFF723FA0021012004F0BE
:1046200015FF00F0DBF8E3E7B8350820B9350820BE
:10463000BA3508207A820D000278034610B5C2B957
:10464000407DB0B959680B4A914212D101211C7BBF
:104650005B7B240204F4F8541C443F2CC8BF08467A
:1046600004F0D6F919206043BDE81040800804F03A
:10467000F9BD10BD00403904027803465AB9407DA7
:1046800048B95968044A914205D1DB7C5B0758BFA1
:10469000012004F013BD7047014021040820704739
:1046A00008B5FEF7FFFF002002F038F901F048F9E5
:1046B00001F046F801F0D2F904F0D4F81E200E49BA
:1046C000FFF75CF80D490020FEF7D0FF00200C49F1
:1046D000FFF754F80B490020FEF7C8FF00200A49F5
:1046E000FFF74CF809490020FEF7C0FFBDE808407D
:1046F00000200749FFF742B8B5450C0000403904D7
:1047000039460C000140210479460C000040210686
:104710008D450C000378272B02BF8278014B1A705D
:10472000704700BFBC350820037810B40D2B4CD166
:104730004168274AA1F17903802B264B07D8012134
:10474000197011700321187810BC04F005BEA1F196
:104750003204452C03D8032119700121F1E7A1F19E
:10476000FB04B4F5AE7F01D80B21F5E7302901D861
:104770001521F1E7C168A1F17900802801D8052150
:10478000EAE7A1F13200452801D80721E4E7302902
:1047900006D81149097840290CBF13210921DBE70C
:1047A000FB39B1F5AE7F06D80B49097840290CBF1B
:1047B00011211521D0E7117821B119780131197033
:1047C0000021BEE700221A70BCE710BC704700BF92
:1047D000BD350820BB350820BC35082008B50D20A4
:1047E0000549FEF7CBFF27200449FEF7C7FFBDE8C8
:1047F000084001F057BB00BF29470C0015470C00CB
:104800000378272B02BF8278014B1A70704700BFD4
:10481000BF3508200378002B53D1437D002B50D1A6
:104820004268284B9A424CD1037B427B264902EBDB
:10483000032292B2B2F5004F244B06D101221A7026
:104840000A700321187804F087BDB2F5804F03D1B8
:1048500003221A700122F3E7B2F5005F01D10B22A7
:10486000F7E7B2F5805F01D10522F2E7B2F5006FFC
:1048700001D10722EDE7B2F5806F01D10922E8E707
:10488000B2F5007F06D1124A1278402A0CBF1122DD
:104890001522DEE7B2F5807F06D10D4A1278402A54
:1048A0000CBF13220922D4E7402A01D11522D0E7F8
:1048B0000A7822B11A7801321A700022C0E71A7001
:1048C000BFE7704700402806C0350820BE350820E5
:1048D000BF35082008B500200649FEF74FFF272006
:1048E0000549FEF74BFFBDE8084000200349FEF7ED
:1048F000BDBE00BF15480C0001480C000040280652
:10490000037810B50446DBB9437DCBB942680D4B43
:104910009A4215D1007B00F017F9607B00F050F946
:10492000207C00F059F9E07B00F03EF9207CC0F3D8
:10493000410000F05DF918B1BDE8104008F042BF39
:1049400010BD00BF0340390C037810B50446FBB915
:10495000437DEBB942680F4B9A4219D1417C007CF0
:1049600001F0AEF90C4B1880E07B01F0A0F90B4B85
:104970001870A07B01F09BF9094B1870207B01F0A7
:1049800096F9084B1870607B01F091F9064B18708E
:1049900010BD00BF0340210C5C8207205B82072012
:1049A00058820720598207205A8207202DE9F043B8
:1049B0009846334B8DB01880324B9DF8509019704B
:1049C000314B04461A70314B0E4683F80080304B51
:1049D000174683F80090CDE90112CDE903890090D4
:1049E00001212C4B2C4A0020FFF73AF82B4B0A25CB
:1049F00007930623ADF82C3001238DF82030B8FB47
:104A0000F5F3B9FBF5F205FB1388B6FBF5F108EBFE
:104A1000031805FB12934FF47A7003EB0213B7FBF4
:104A2000F5F205FB116606EB0116B4FBF0F105FB90
:104A3000127707EB0217642200FB1144A4B28DF831
:104A40002530B4FBF2F302FB1344A4B2B4FBF5F23D
:104A500005FB124404EB032303EB01339BB203EB8E
:104A600002135BBA07A88DF824808DF826708DF8A4
:104A70002760ADF82830FEF757FE0DB0BDE8F08393
:104A80005C8207205B82072058820720598207201A
:104A90005A820720CA820D0096820D002440210C04
:104AA00008B508490020FEF7E1FD074809F0E6FCDB
:104AB00000200649FEF762FEBDE8084000200449D8
:104AC000FEF75CBE0340390CAD490C0001490C00F7
:104AD00049490C00037813B5212B044615D1012157
:104AE0000E4B0F4A0020FEF7BBFF07F0FDF870B138
:104AF00001210C4A0020FEF7B3FF6378E2780093AF
:104B00002179A378E088FFF751FF02B010BD0121A1
:104B1000054A02B0BDE81040FEF7A2BF79830D0040
:104B20002C7D0D00EE820D0001830D00014B1878E5
:104B3000704700BFC2350820024B1878003818BFF4
:104B400001207047C335082010F00302034610B55A
:104B500002D0012A18BF02220C490878904218BFDF
:104B60000A700B4A03F08001147814BF0120002062
:104B70008C4218BF1170074A03F04003117818BF28
:104B8000012099421CBF1370012010BDC2350820BE
:104B9000C4350820C5350820024B1878003818BFE6
:104BA00001207047C1350820044BC0F300101A786B
:104BB00082421ABF1870012000207047C1350820BA
:104BC000044B00F002001A78824218BF18700120CE
:104BD000704700BFC6350820044BC0F3C0001A78E8
:104BE00082421ABF1870012000207047C335082088
:104BF000034B1A781870101A18BF0120704700BFB5
:104C00005F820720014B1878704700BF5F82072042
:104C100030B52A4B8BB005930123294A8DF8183003
:104C2000284B1478284A1B78157843EA04022A4353
:104C30008DF81C20254A127842F010028DF81D20B4
:104C40004FF4C062ADF81E200822ADF82420204A9F
:104C5000127812B116228DF81F2002228DF8202022
:104C60001C4A127812B10A228DF820201A4A1178B3
:104C70009DF8202042EA41028DF82020174A117841
:104C8000174ACDE9015112F8110002EB41028DF8EB
:104C9000210000205278012142F002028DF82220EA
:104CA0000094104A8DF82300FEF7DAFE05A8FEF7FF
:104CB0003BFD08F087FD0BB030BD00BF2440390C30
:104CC000C2350820C4350820C5350820C63508205F
:104CD000C1350820C33508205F8207205E82072087
:104CE0009C830D0028830D0008B5054B1A7882427D
:104CF00004D01870FFF78CFF012008BD0020FCE7EE
:104D00005F82072003780B2B0AD14378054A002BDA
:104D100018BF02231178994202D01370FFF778BFB1
:104D2000704700BFC6350820034B1A78824202D074
:104D30001870FFF76DBF70475E82072003782D2B38
:104D400002D14078FFF7F0BF70470000034B1A789C
:104D5000824202D01870FFF75BBF7047C33508204E
:104D6000034B1A78824202D01870FFF751BF704788
:104D7000C1350820034B1A78824202D01870FFF721
:104D800047BF7047C5350820084B1A7882420CD0BF
:104D90000128187006D9022802D18022044B1A700B
:104DA000FFF736BF0022024BF9E77047C2350820F3
:104DB000C4350820014B1878704700BFC53508205E
:104DC00008B52D200649FEF7D9FC21200549FEF73C
:104DD000D5FCBDE808400B200349FEF7CFBC00BF5F
:104DE0003D4D0C00D54A0C00054D0C00F0B585B0CA
:104DF0000D46044605F0F5FB06460B4B1F783B1F9E
:104E00005F425F4104F080FE084B014653F82630B4
:104E10002A4601930023204600930297042309F0B9
:104E200044F905B0F0BD00BFBA350820608C0D0014
:104E3000F0B585B00D46044605F0D3FB06460B4B96
:104E40001F78FB1E5F425F4104F05EFE084B014687
:104E500053F826302A4601930023204600930297F8
:104E6000032309F022F905B0F0BD00BFBA350820D0
:104E7000AC8C0D00F0B585B00D46044605F0B1FBD5
:104E800006460B4B1F78BB1E5F425F4104F03CFEA1
:104E9000084B014653F826302A460193002320464A
:104EA00000930297022309F000F905B0F0BD00BF9E
:104EB000BA350820448D0D00F0B585B00D46044686
:104EC00005F08FFB06460B4B1F787B1E5F425F4150
:104ED00004F01AFE084B014653F826302A46019387
:104EE0000023204600930297012309F0DEF805B065
:104EF000F0BD00BFBA350820F88C0D00F0B585B0C4
:104F00000E46054605F06DFB07460A4B1C7804F07B
:104F1000FBFD094BB4FA84F453F82730640901937C
:104F200000230146324628460294009309F0BDF85A
:104F300005B0F0BDBA350820148C0D0073B50446D9
:104F400005F04FFB064604F0E9FD084B05461868DE
:104F500008F008FC064B024653F826302946009319
:104F60002046842308F0D3FF02B070BDD03508205E
:104F7000308B0D0073B5044605F033FB064604F094
:104F8000CDFD084B0546186808F0ECFB064B0246C1
:104F900053F82630294600932046832308F0B7FFB4
:104FA00002B070BDCC350820C08E0D0073B504462C
:104FB00005F017FB064604F0B1FD084B05461868DE
:104FC00008F0D0FB064B024653F8263029460093E2
:104FD0002046822308F09BFF02B070BDD435082024
:104FE000748E0D0073B5044605F0FBFA064604F016
:104FF00095FD084B0546186808F0B4FB064B0246C1
:1050000053F82630294600932046802308F07FFF7E
:1050100002B070BDC8350820C08E0D00F0B585B057
:105020000E46054605F0DDFA04460E4B1A780E4B87
:105030001B789A4216BF0D4B0D4F53F8207004F0A9
:1050400063FD0C4B002253F82430014602930323E6
:105050002846CDE9003203970223324608F08EFF3E
:1050600005B0F0BDBA350820B9350820908D0D0087
:10507000288A0D00DC890D007FB50D46044605F039
:10508000B0FA064604F040FD084B00220393084B9B
:10509000014653F82630204602930323CDE900321F
:1050A00082232A4608F06AFF04B070BD66890D00AD
:1050B000748E0D0038B5054605F093FA0446042DAC
:1050C0000ED8DFE805F0110307090B00074B53F872
:1050D000240038BD064BFAE7064BF8E7064BF6E727
:1050E0000021012004F0B2F9044BF0E7F88C0D0028
:1050F000448D0D00AC8C0D00608C0D00148C0D00E7
:10510000F0B585B00D46044605F06BFA0C4B06462B
:105110001878FFF7CFFF074604F0F6FC094B002292
:1051200053F826300146029303232046CDE900328E
:10513000039784232A4608F021FF05B0F0BD00BF85
:10514000BA350820308B0D00F0B585B00D46044609
:1051500005F047FA0C4B06461878FFF7ABFF0746F9
:1051600004F0D2FC094B002253F82630014602938A
:1051700003232046CDE90032039783232A4608F013
:10518000FDFE05B0F0BD00BFB9350820308B0D0025
:10519000F0B585B00D46044605F023FA0646FFF744
:1051A00009FE0C4F0C4B002818BF1F4604F0ACFC46
:1051B0000A4B002253F8263001460293032320466F
:1051C000CDE90032039788232A4608F0D7FE05B0C0
:1051D000F0BD00BFD4890D002A8A0D00DC8D0D00C2
:1051E000F0B585B005460E4605F0FBF90746FFF71A
:1051F0009DFCB8B10C4C0D4A012818BF144604F0B0
:1052000083FC0B4B002253F8273001460293032303
:105210002846CDE9003203948723324608F0AEFEDB
:1052200005B0F0BD034CEAE73C8A0D00E08A0D00B2
:10523000948A0D00358A0D00F0B585B00D46044600
:1052400005F0CFF9064600F02BFD074605F0C9F939
:10525000012F0CBF0B4A0C4A52F8207004F054FC8A
:105260000A4B002253F826300146029303232046BE
:10527000CDE9003203978A232A4608F07FFE05B065
:10528000F0BD00BFC88B0D007C8B0D00E48A0D00C3
:10529000F0B585B005460E4605F0A3F90746FFF7C1
:1052A000B1FCB8B10C4C0D4A012808BF144604F0FB
:1052B0002BFC0B4B002253F82730014602930323AB
:1052C0002846CDE9003203948923324608F056FE81
:1052D00005B0F0BD034CEAE7D87E0D00C67E0D0098
:1052E000488A0D00167F0D00F0B585B00D460446C6
:1052F00005F077F90646FFF74FFC074605F071F910
:105300000346AFB10B4A52F8237004F0FDFB0A4B81
:10531000002253F826300146029303232046CDE9AC
:105320000032039786232A4608F028FE05B0F0BD18
:10533000024AE8E7C88B0D0088890D007C8B0D00C0
:10534000F0B585B00D46044605F04BF90646FFF76B
:10535000F3FB074605F045F90346AFB10B4A52F897
:10536000237004F0D1FB0A4B002253F8263001468B
:10537000029303232046CDE90032039785232A4672
:1053800008F0FCFD05B0F0BD024AE8E7C88B0D004F
:10539000288E0D007C8B0D0003782B2B04D14378D5
:1053A000022B01D108F058B970470000F0B503781E
:1053B00004462B2B85B040F0E48001210020724B85
:1053C000724AFEF74DFB6578012D40F0DA80A67831
:1053D000E778247908F040F9034660B9802C40F062
:1053E000D08029466A4AFEF73BFB6A4B186808F0F2
:1053F000D1F980202FE0020640F1C380A0F18002A5
:10540000042A00F2B680DFE802F003B48D6A64007B
:1054100056EA070301D1012C4FD0823C082CE4D876
:1054200001A353F824F000BF61540C00F1540C00A8
:105430004D540C006D540C007F540C00EB530C00C9
:10544000EB530C0091540C00A5540C00524B1868FF
:1054500008F0A0F9842005B0BDE8F04008F0CCB811
:105460004E4B186808F096F98220F4E7FFF764FBCA
:1054700018B10020FFF76AFCB7E70120FAE7FFF751
:105480008BFB18B10020FFF76BFCAEE70120FAE7B9
:10549000FFF7B8FB0130C0B2032828BF0020FFF798
:1054A00023FCA2E701213E4A0020FEF7D9FA00F0D2
:1054B000F7FB60B1002000F0F6FB802008F09CF8BC
:1054C000344B186805B0BDE8F04008F063B901201E
:1054D000F1E7344B1C7008F0ADF8334BF1E756EAB6
:1054E000070301D1012C19D0022C07D0842CADD098
:1054F0002D4B186808F04EF98320ACE7294B19783A
:105500002A4B1B788B42F7D0012003F09FFF4FF40A
:105510007A70FBF793FC03F015FCEDE7832008F0AD
:105520006BF8DAE7334601210020CDE90074204A08
:10553000FEF796FA872C06D0882C11D0822008F02E
:105540005BF8164BBDE7FFF7F1FA012806D00028FB
:1055500008BF02252846FFF717FCEFE70025F9E70B
:10556000FFF728FC00280CBF40200020FFF702FCBA
:10557000E4E70021CDE9017408460E4A0096FEF7E3
:105580006FFA05B0F0BD00BF68890D002C7D0D00DD
:10559000C2830D00C8350820D0350820D435082036
:1055A000D5830D00BA350820CC350820B935082040
:1055B000ED940D00EF830D0010B5044600210F4A55
:1055C00008F090F8204601210D4A08F08BF820469B
:1055D00002210C4A08F086F8204603210A4A08F006
:1055E00081F820460421094A08F07CF82046BDE8ED
:1055F00010400521064A08F075B800BF3D4F0C0069
:10560000FD4E0C00B94E0C00754E0C00314E0C00D6
:10561000ED4D0C0010B504460021074A08F062F871
:1056200020460121054A08F05DF82046BDE81040FB
:105630000221034A08F056B8754F0C0001510C00C6
:105640001D500C0010B504460021074A08F04AF826
:1056500020460121054A08F045F82046BDE81040E3
:105660000221034A08F03EB8AD4F0C00E1510C0096
:1056700091510C0010B50B4C0221206808F020F865
:105680002068032108F01CF82068042108F018F8AD
:105690002068052108F014F820680621BDE81040B4
:1056A00008F00EB8C835082010B5084C237863B947
:1056B000012003F0C5FE064B02281870054B187038
:1056C00001D0FFF7D7FF0123237010BDC735082095
:1056D000B9350820BA35082010B504460021114A12
:1056E00008F000F8204601210F4A07F0FBFF204692
:1056F00002210E4A07F0F6FF204603210C4A07F06C
:10570000F1FF204604210B4A07F0ECFF204605215B
:10571000094A07F0E7FF2046BDE810400621074A86
:1057200007F0E0BFE54F0C0049510C0079500C0028
:1057300041530C00E9520C0091520C0039520C00FC
:1057400008B507F0ADFF134B1860FFF735FF07F002
:10575000A7FF114B1860FFF75DFF07F0A1FF0F4B8C
:105760001860FFF76FFF07F09BFF0D4B1860FFF706
:10577000B3FF06F0D3FA2B200A49FDF7FFFF2B20D9
:105780000949FDF7FBFFBDE808401E200749FDF76A
:10579000F5BF00BFD0350820CC350820D43508200F
:1057A000C8350820AD530C0099530C00A9560C00C5
:1057B00008B5084B187848B1074B187830B1074B3B
:1057C000187818B1002006F095FA0120BDE80840CD
:1057D000FEF752BA628207206382072060820720A8
:1057E00008B50378342B0BD106F098FE40B107F0D2
:1057F00053FA0122034B1A70BDE8084006F094BE2C
:1058000008BD00BFD83508200378072B0FD1084BFF
:10581000084A1B780BB9137070471378042B06D80D
:105820000133137001210020034AFEF719B97047B4
:10583000DA350820D93508200C8F0D0038B50378EB
:10584000D3B9437DC3B942680D4B9A4214D1C37C8E
:105850009B0611D4837C83B10A4B1B78042B0BD994
:10586000094D2B7843B9082003F0EAFD01280446CE
:1058700002D107F011FA2C7038BD034A1370FBE710
:1058800001402104D9350820D8350820037870B5A7
:1058900023BB447D14BB4268114B9A421ED1857BC9
:1058A000437B05F0400513F0040F4FF003000CBFDD
:1058B0000226012603F0C4FD0A4A35B10A4B1470D2
:1058C0001C70BDE87040FFF773BF0123984213704E
:1058D00001D19E42F5D1044A1370F2E770BD00BFBA
:1058E0000040210661820720608207200378142B84
:1058F0000BD1827843781AB1012A04D0FFF758BF40
:10590000024A1370FAE7024AFBE7704762820720F7
:10591000638207200378272B07D14378034A0121AC
:1059200013700020024AFEF79BB87047DA35082052
:10593000148F0D00014B1878704700BF618207205B
:1059400008B514201049FDF719FF00200F49FDF795
:1059500015FF0F490020FDF789FE00200D49FDF7D6
:105960000DFF0D490020FDF781FE27200B49FDF7B3
:1059700005FF07200A49FDF701FFBDE80840342074
:105980000849FDF7FBBE00BFED580C008D580C0018
:10599000004021063D580C000140210415590C001F
:1059A00009580C00E1570C00037810B5232B04466E
:1059B00008D14378044A01210020FEF751F86278AB
:1059C000024B1A7010BD00BF348F0D00DC3508206B
:1059D00038B50C4608F07CFD00F062F980B184B166
:1059E000114C237863B9114B1B784BB103210B2069
:1059F00003F0B2FC03210C2003F0AEFC0123237062
:105A000038BD0A4B1D78002DFAD1074C2378002BA6
:105A1000F6D003210B2003F09FFC03210C2003F0A0
:105A20009BFC2570ECE700BFDB350820DC35082047
:105A3000437D83B94268084B9A420CD1C37B5B0615
:105A400003D500210846FFF7C3BF437C13F00C0FBA
:105A5000F7D00121F6E770471E40210408B5074939
:105A60000020FDF703FE00200549FDF787FEBDE895
:105A7000084023200349FDF781BE00BF1E402104DA
:105A8000315A0C00A9590C0030B5437D8BB0B3B925
:105A900042680C4B9A4212D1011D142268460AF04A
:105AA00039FB094D094B684605AC0093FDF73CFEF8
:105AB0000FCD0FC42B6805A82360FDF735FE0BB092
:105AC00030BD00BF0340111E488F0D000540111E60
:105AD000037810B5072B12D1FFF72CFF084C60B9E3
:105AE00023782BB10748FDF71FFE0748FDF71CFE82
:105AF0000648FDF719FE002300E00123237010BDC6
:105B000064820720848F0D00988F0D00708F0D0028
:105B100030B5437D87B063B94268074B9A4208D1DC
:105B2000064D01AC0FCD0FC42B6801A82360FDF713
:105B3000FBFD07B030BD00BF034031065C8F0D0098
:105B400008B50B490020FDF791FD0A490020FDF73B
:105B50008DFD07200849FDF711FE00200749FDF7DC
:105B60000DFEBDE8084000200549FDF707BE00BF57
:105B7000034031060340111ED15A0C00115B0C008A
:105B8000895A0C0030B5437D8BB0B3B942680C4BD9
:105B90009A4212D1011D142268460AF0BBFA094D3F
:105BA000094B684605AC0093FDF7BEFD0FCD0FC451
:105BB0002B6805A82360FDF7B7FD0BB030BD00BF13
:105BC0000340111EAC8F0D002440111E037810B548
:105BD000072B19D1FFF7AEFE0D4CB0B9237843B1B6
:105BE0000C48FDF7A1FD0C48FDF79EFD0B48FDF7A5
:105BF0009BFD0B48FDF798FD0A48FDF795FD0A4807
:105C0000FDF792FD0023237010BD0123FBE700BFC9
:105C10006582072010900D0024900D0038900D0033
:105C2000D48F0D00E88F0D00FC8F0D0030B5437D43
:105C300087B063B94268074B9A4208D1064D01AC60
:105C40000FCD0FC42B6801A82360FDF76DFD07B0D1
:105C500030BD00BF03403106C08F0D0008B50B49B1
:105C60000020FDF703FD0A490020FDF7FFFC072097
:105C70000849FDF783FD00200749FDF77FFDBDE8DA
:105C8000084000200549FDF779BD00BF03403106FB
:105C90000340111ECD5B0C002D5C0C00855B0C00DD
:105CA0001C2003F0CDBB01461C2003F0CFBB030931
:105CB00003EB830300F00F0000EB4300C0B270471A
:105CC00008B5FFF7F4FF02460846FFF7F0FF02EBC6
:105CD000820202EB820200EB820080B208BD00006B
:105CE000054A1368B3F57A6F27BF0122034B0133CE
:105CF000136028BF1A707047E0350820E43508208B
:105D0000014B1878704700BFE435082090F8343014
:105D10000133DBB2032B88BF002380F8343090F8C6
:105D2000343000EB4303598590F8293013B1013B1F
:105D300080F82930704790F82900B0FA80F04009C7
:105D40007047438E0B445B08438670470A090A2A52
:105D500038BF0A22438E8B4234BFCB1A5B1A9A4259
:105D6000D4BF00200120704738B5037F04460D469C
:105D7000C3B10129006A0AD0022914D0012100F020
:105D8000A9FA0121606A00F0A5FA032506E00021C6
:105D900000F0A0FA0021606A00F09CFA0523657704
:105DA00084F8293038BD0121F2E7027F034662B34F
:105DB00090F829204ABB427F022A0FD0032A1CD028
:105DC000012A22D190F8342000EB4202528DB2F524
:105DD000206F1AD902211846FFF7C6BF90F8342069
:105DE00000EB42035B8DB3F5407F01D20121F3E765
:105DF000B3F5246F09D90321EEE790F8342000EBC6
:105E00004202528DB2F5407FE4D37047437F022BAC
:105E100005D0032B05D0012B05D1006870474068E1
:105E20007047806870474FF0FF3070472DE9F843A6
:105E3000836904465A1C22D0406900B3B0FBF3F0DA
:105E4000013009F0F9F906460F4625696B1C19D097
:105E5000284609F0F1F98046E0688946284409F0AF
:105E6000EBF902460B464046494609F089FB0246DB
:105E70000B463046394609F083FBBDE8F88300261F
:105E8000024FE2E70022014BF3E700BF0000F03FC2
:105E9000438D828D1A44C38D008E134418448008AC
:105EA00070470000F7B5284F3D78002D4AD10121F9
:105EB000264B274A2846FDF7D3FD264800F0C0F9B7
:105EC000254800F017FA00F023FD044640B10128F0
:105ED00027D0294628461D4B204AFDF7C1FD11E079
:105EE00001221F4B1146009303461E48FBF734FC6A
:105EF0000546FAF793FE0121024623462846009103
:105F0000FBF750FC01233B7000F05EFA03211148BF
:105F1000FFF72AFF0321104803B0BDE8F040FFF768
:105F200023BF114B0246014600930E482B46FBF758
:105F300013FC0646FAF772FE2B460246214630460F
:105F40000094DDE703B0F0BDE535082075900D0045
:105F50002C7D0D00E83508202436082054900D00D3
:105F60006D5F0C004C900D0009610C002DE9F04FA5
:105F700085B000F063F9002800F0B0805E4FFFF7B5
:105F8000AFFE3B78002B00F0AC8000F0FBF901463F
:105F90005A48FFF7BBFE5948FFF707FF5748FFF77E
:105FA000CAFE564C002800F0908004F13C00FFF738
:105FB000C2FE002800F089802046FFF727FF8246B6
:105FC0002046FFF765FF064604F13C00FFF760FF3F
:105FD00005461FFA86F8414620461FFA85F9FFF765
:105FE000B0FE494604F13C00FFF7ABFE41462046B7
:105FF000FFF7ACFE8046494604F13C00FFF7A6FEE1
:10600000B8F1000F5CD000285AD02046FFF70EFFF1
:10601000804606FB0AF0894609F00EF90022824606
:106020008B46374B4046494609F080F9804630465A
:10603000894609F001F902460B464046494608F0F8
:10604000BDFF02460B465046594609F099FA09F041
:106050007FFB0126009004F13C008DF80460FFF7FF
:10606000D5FE824604F13C00FFF7E0FE80460AFBC5
:1060700005F0894609F0E0F80022214B82468B4664
:106080004046494609F052F980462846894609F0BB
:10609000D3F802460B464046494608F08FFF0246B9
:1060A0000B465046594609F06BFA09F051FB8DF842
:1060B0000C600290FFF724FE10B1684600F0AEF8C5
:1060C000052384F8293084F865303B788BB10D487E
:1060D00000F06CF93B7883F001033B7005B0BDE83C
:1060E000F08F00F059F901460648FFF70FFE05480A
:1060F00052E70248ECE700BF60360820E835082088
:106100000000B040243608202DE9F04F87B000F0A1
:1061100095F8002866D03C4EFFF7E2FD3378002B5F
:1061200063D000F02FF901463848FFF7EFFD3748FC
:10613000FFF701FE354C00284BD004F13C00FFF77F
:10614000FAFD002845D000F0E3FB012852D120469B
:10615000FFF79EFE05462046FFF768FE40F6E44B3B
:1061600040F6FF7A804689460BFB05F0B0FBFAF05B
:1061700009F062F842464B4609F0D8F809F0E8FA0F
:106180000027029004F13C008DF80C70FFF780FEB0
:10619000054604F13C00FFF749FE804689460BFBAB
:1061A00005F5B5FBFAF009F047F842464B4609F011
:1061B000BDF809F0CDFA8DF814700490FFF7A0FD3A
:1061C00010B102A800F02AF8052384F8293084F8D9
:1061D00065303378B3B10E4800F0E8F8337883F0D7
:1061E0000103337007B0BDE8F08F00F0D5F8014629
:1061F00007489AE700210090064B0846064AFDF73B
:106200002FFCE6E70148E7E761360820E83508207B
:1062100024360820A8900D0084900D000D2300B5B1
:106220008BB00146102201A88DF8003009F072FFF2
:106230006846FDF7C5FA0BB05DF804FB01F0D0BF6E
:1062400010B5044600F064FB48B1012829D0BDE830
:10625000104000211C4B08461C4AFDF701BC4FF4BE
:106260002A7240F68C7346F64C51C4E9002340F67E
:10627000E443C4E902134FF0FF334FF0210C2361D4
:106280002023C4E908C340F201330222A383104B48
:106290001A6301221A63052384F829300A23A363B1
:1062A00010BD4FF0FF33C4E90033A36040F6E44370
:1062B000C4E903334FF47F43A383052384F82930D3
:1062C0000A23A363C3E700BFD6900D0054900D00CE
:1062D00000100E400122430903F5001303F2077377
:1062E00000F01F005B0202FA00F009B1186370476A
:1062F0005863704710B5044600F00AFB48B1012806
:1063000027D0BDE8104000211B4B08461B4AFDF773
:10631000A7BB4FF42A7240F68C7346F64C51C4E981
:10632000002340F6E443C4E902134FF0FF33232275
:1063300023612223C4E9082340F201330822A38306
:106340000F4B1A6304221A630523A06384F82930D3
:1063500010BD4FF0FF33C4E90033A36040F6E443BF
:10636000C4E903334FF47F43A383052384F8293022
:106370000023A363C5E700BFC2900D0054900D0039
:1063800000100E400A2108B5024801F091FC80B2CD
:1063900008BD00BF00000C40002108B5024801F014
:1063A00087FC80B208BD00BF00000C4010B5054C52
:1063B00090F83810204601F077FC2046BDE81040E8
:1063C00001F06FBC00000C4010B5104C252001F00E
:1063D00081FA4FF400234FF4FA3220460C4901F0C1
:1063E00033FC01234FF440120021204601F04CFC05
:1063F000204601F064FC2046002101F03EFC2046CE
:10640000BDE810400A2101F04FBC00BF00000C4065
:1064100000BD010510B5941F082C06D8012B04D12E
:106420000523037002230B7010BD0270FBE7037895
:106430001E2B01D1FDF732B870470000037810B56C
:10644000062B0FD1084C2378202B0BD901210020DB
:10645000064AFDF705FB002301202370BDE810402C
:1064600002F01ABD10BD00BF8C360820EA900D0066
:1064700008B50378072B0FD1084A137863B1013BA5
:10648000DBB2137001210020054AFDF7E9FABDE8EF
:106490000840044803F0D2BF08BD00BF633608209F
:1064A000FD900D0078360820037810B51B2B24D101
:1064B0004368134A013B622B8CBF002301231370F6
:1064C00002F01CFD0F4C10B90D4B1B783BB10020A6
:1064D00002F0E2FC237B43F08003237310BD012014
:1064E00002F0DAFC94F90C30002BBEBF0A22064BF6
:1064F0001A70237B6FF3C713EFE7172BEED1DFE79B
:10650000D5360820783608206336082010B5137871
:10651000C1540A2113780133DBB2B3FBF1F401FB60
:1065200014331370421E00F10903FF2012F8011FFB
:10653000884228BF08469A42F8D110BD0378F7B5C3
:10654000012B074640F05981437D012B40F05581D6
:106550004368AB4A23F07F43934204D002F5702294
:10656000934240F04A813D7B012D40F04681A54A8F
:1065700029460020FDF774FAFC79A34A013CE4B2F5
:10658000052C22D1002313700123A04EA0483355BF
:106590000B23634303F10A020244797B1844FFF79B
:1065A000B5FF012823D002281CD0002812BF0F22DB
:1065B00001220325631E974C042B1BD8DFE813F040
:1065C00049008400A200C200FE001378FD2B9CBF8E
:1065D00001331370052CD7D9032003B0BDE8F04078
:1065E00007F0A4BA032C34BF0A220722E2E70225EF
:1065F0000522DFE72B460DF107010DF10600FFF73D
:1066000009FF9DF80610E37961F30713E3719DF824
:106610000710237A61F38713237273783BB9E37908
:1066200062F30303E371237A65F3051323720223F4
:10663000142279497748237409F038FD0028CBD01B
:10664000744803F0FBFE14227249734809F062FD9E
:10665000C2E7E379A77962F30303E371237A05F0D4
:10666000030161F3051362F3071761F38303A77155
:106670002372337893B92B460DF107010DF1060013
:10668000FFF7C8FE9DF80610E37961F30713E37185
:106690009DF80710237A61F387132372B378002BD8
:1066A000C5D12B460DF107010DF10600FFF7B2FE33
:1066B0009DF80620A37962F30303A3719DF80720D8
:1066C000237A62F30103B1E72B460DF107010DF1C7
:1066D0000600FFF79FFE9DF80610A37961F3030300
:1066E000A3719DF80710237A61F301032372737875
:1066F000002B9CD1A37962F30713A371237A65F36E
:10670000830393E72B460DF107010DF10600FFF718
:1067100081FE9DF80610637961F3071363719DF89C
:106720000710637A61F3871363723379002B7FF468
:106730007EAF637962F303036371637A65F30513D4
:10674000637274E7637905F0030162F30303637115
:10675000637A277961F3051361F383036372F37836
:1067600062F30717277193B92B460DF107010DF15D
:106770000600FFF74FFE9DF80610637961F30713DB
:1067800063719DF80710637A61F3871363727379FD
:10679000002B7FF44CAF2B460DF107010DF10600E5
:1067A000FFF738FE23799DF8062062F30303237177
:1067B0009DF80720637A62F30103C1E72B460DF1D0
:1067C00007010DF10600FFF725FE9DF8061023795D
:1067D00061F3030323719DF80710637A61F30103EA
:1067E00063723379002B7FF422AF237962F30713AE
:1067F0002371637A65F38303A2E703B0F0BD00BFA2
:10680000AB15510012910D008C360820CF360820B0
:106810008D36082078360820643608202A4A10B5BC
:106820001378002B4FD1012414704FF4FA720373C4
:10683000826026491B20FCF7A1FF17202349FCF7A3
:106840009DFF07202249FCF799FF20462149FCF7CC
:1068500095FF06202049FCF791FF1E201F49FCF7F9
:106860008DFF20461E49FCF701FF20461D49FCF71D
:10687000FDFE20461C49FCF7F9FE20461B49FCF7AB
:10688000F5FE20461A49FCF7F1FE20461949FCF7AF
:10689000EDFE20461849FCF7E9FE20461749FCF7B3
:1068A000E5FE20461649FCF7E1FE20461549FCF7B7
:1068B000DDFE20461449FCF7D9FE2046BDE8104015
:1068C0001249FCF7D3BE10BD62360820A9640C0043
:1068D00071640C003D650C003D640C002F640C00DD
:1068E000AB156001AB156002AB156003AB1560041E
:1068F000AB156005AB156006AB155101AB15510228
:10690000AB155103AB155104AB155105AB15510631
:10691000014B1878704700BFD6360820014B18701D
:10692000704700BFD636082010B5094C0A462368C8
:106930000BB9084B236023681B68596809F002FEF5
:10694000236858682060003818BF012010BD00BFC0
:10695000D83608206C82072038B5054648B94FF074
:10696000A00383F31188BFF36F8FBFF34F8F00BF76
:10697000FDE70820FBF79AF8044648B94FF0A0035A
:1069800083F31188BFF36F8FBFF34F8F00BFFDE715
:10699000F9F714FF00236360044B25601A681C603C
:1069A0005460F9F71BFF012038BD00BF6882072043
:1069B000002330B513608B420DD00478054614F0E7
:1069C000DF0F00F10100F8D12C782846202C05F1CA
:1069D0000105F9D00CB9002030BD01339942EAD14C
:1069E000411E11F8014F136814F0DF0F02D1002B84
:1069F000F2D1F0E701331360F3E78268436800687F
:106A00001344181A824298BF801A704793422DE9A6
:106A1000F84328BF13460646894690461C46002B7D
:106A20003ED0056883685F1BA74228BF2746BA424D
:106A300009D24FF0A00383F31188BFF36F8FBFF328
:106A40004F8F00BFFDE7EA19934209D24FF0A00330
:106A500083F31188BFF36F8FBFF34F8F00BFFDE744
:106A600081693A464846294409F054FBBC4211D991
:106A7000A04509D24FF0A00383F31188BFF36F8FB5
:106A8000BFF34F8F00BFFDE7B169E21B09EB0700C1
:106A900009F040FBB3682544AB4298BFED1A35605E
:106AA0002046BDE8F8832DE9F0410E460446552105
:106AB000304690461F4609F0A3FBB042054609D078
:106AC0004FF0A00383F31188BFF36F8FBFF34F8F95
:106AD00000BFFDE724220021204609F091FB9DF82C
:106AE0001830C4E90287A5612377BDE8F0812DE95C
:106AF000F0418368456816465F1B974228BF1746DA
:106B0000EA1993420446884609D24FF0A00383F362
:106B10001188BFF36F8FBFF34F8F00BFFDE7806910
:106B20003A46284409F0F6FABE4212D9A368F21B8D
:106B30009A4209D94FF0A00383F31188BFF36F8FF6
:106B4000BFF34F8F00BFFDE7A06908EB070109F015
:106B5000E1FAA36835449D4228BFED1A30466560CE
:106B6000BDE8F08137B504460D46019203B3017FBD
:106B7000C9070FD49A4294BF01920193019A92B926
:106B80004FF0A00383F31188BFF36F8FBFF34F8FD4
:106B900000BFFDE7069A93420DD304220DEB0201DC
:106BA000FFF7A5FFEAE729462046FFF7A0FF0346C7
:106BB000184603B030BD0023FAE7012AF7B50446B2
:106BC0000F4615460BD1042815D84FF0A00383F3C8
:106BD0001188BFF36F8FBFF34F8F00BFFDE748B938
:106BE0004FF0A00383F31188BFF36F8FBFF34F8F74
:106BF00000BFFDE70025BC4209D24FF0A00383F39C
:106C00001188BFF36F8FBFF34F8F00BFFDE704F113
:106C10002500FAF74BFF064648B1012F3B46009589
:106C200038BF0123621C00F12401FFF73CFF30460E
:106C300003B0F0BD034648B94FF0A00383F31188B9
:106C4000BFF36F8FBFF34F8F00BFFDE7826800680F
:106C50005B6810440138C01A824298BF801A70479E
:106C60002DE9F04387B0044616468846039349B998
:106C70004FF0A00383F31188BFF36F8FBFF34F8FE3
:106C800000BFFDE748B94FF0A00383F31188BFF3BD
:106C90006F8FBFF34F8F00BFFDE7037FDB070DD57D
:106CA00002F104094A450AD34FF0A00383F3118887
:106CB000BFF36F8FBFF34F8F00BFFDE79146039B7C
:106CC0002BBB2046FFF7B6FF05462B463246414612
:106CD0002046CDF80090FFF745FF054698B12046C5
:106CE000FFF78BFEE36898420DD3F9F78FFF236916
:106CF0003BB1002320691A461946FAF75FFB0023CF
:106D00002361FAF723F8284607B0BDE8F08304A80A
:106D1000FAF772F9F9F752FD2046FFF78BFF81452C
:106D2000054623D90020FAF74DFC67694FB14FF0B3
:106D3000A00383F31188BFF36F8FBFF34F8F00BFA2
:106D4000FDE7FAF7D7F96061F9F748FD39463A46A9
:106D50003846039BFAF7EEFA676103A904A8FAF72D
:106D600075F90028D6D0002DABD0AEE7F9F736FD87
:106D7000F9E7F7B5044615461E4649B94FF0A0039A
:106D800083F31188BFF36F8FBFF34F8F00BFFDE711
:106D900048B94FF0A00383F31188BFF36F8FBFF39F
:106DA0004F8F00BFFDE7037FDB0754BF1746171D5A
:106DB000FFF740FF2A46034600972046FFF7D2FE22
:106DC0000546E0B12046FFF718FEE368984216D367
:106DD000EFF311874FF0A00383F31188BFF36F8F98
:106DE000BFF34F8F236943B1002320691A46194628
:106DF0000096FAF759FB0023236187F31188284690
:106E000003B0F0BD2DE9F74304461646994688467F
:106E100049B94FF0A00383F31188BFF36F8FBFF31D
:106E20004F8F00BFFDE748B94FF0A00383F31188EF
:106E3000BFF36F8FBFF34F8F00BFFDE7037F13F0EA
:106E4000010F14BF04270027B9F1000F26D0F9F76E
:106E5000B5FC2046FFF7D1FD8742054611D300203F
:106E6000FAF7B0FB23694BB14FF0A00383F311880D
:106E7000BFF36F8FBFF34F8F00BFFDE7FAF73AF90B
:106E80002061F9F7ABFCAF4212D300224B4611460A
:106E90001046FAF74FFA002320462361FFF7ADFDB5
:106EA000B842054604D80025284603B0BDE8F08363
:106EB0007FB12B463A46204601A9D4F80090FFF74F
:106EC000A5FD019BED1B9E4236BF00261E46C4F861
:106ED00000902B46324641462046FFF797FD054677
:106EE0000028E0D0F9F792FE63693BB100236069A6
:106EF0001A461946FAF762FA00236361F9F726FF8A
:106F0000D2E72DE9FF470446164698460F4649B991
:106F10004FF0A00383F31188BFF36F8FBFF34F8F40
:106F200000BFFDE748B94FF0A00383F31188BFF31A
:106F30006F8FBFF34F8F00BFFDE7037F13F0010F8B
:106F400014BF4FF004094FF00009FFF756FD8145CB
:106F5000054604D30025284604B0BDE8F087B9F102
:106F6000000F10D003464A46204603A9D4F800A0DB
:106F7000FFF74CFD039BA5EB09059E4236BF00269B
:106F80001E46C4F800A02B46324639462046FFF77D
:106F90003DFD05460028DDD0EFF311864FF0A0033C
:106FA00083F31188BFF36F8FBFF34F8F63694BB1CA
:106FB000002360691A461946CDF80080FAF774FA82
:106FC0000023636186F31188C5E7012200F01F03E7
:106FD0009A40430903F5001303F207735B020807A5
:106FE0004CBF5A661A665A655A62C3F8802011F07F
:106FF000010F196F14BF0A4321EA02021A67704792
:107000004FF4003208B5074B00215A604FF480223C
:1070100011205A60FFF7D9FFBDE808400021122077
:10702000FFF7D3BF000E0E402DE9F84F4FF00108D7
:107030000226B54D0B2000F04DFC0C2000F04AFC60
:107040006E614046C5F8A0600021C5F81080C5F803
:10705000A0806E60C5F80480FFF7B7FF00210846E6
:10706000FFF7B3FF4FF400434FF48042A74C0021D9
:1070700063612F20C4F8A0302261C4F8A0206360AF
:107080006260FFF7A2FF00212E20FFF79EFF4FF462
:1070900000774FF4807E4FF480024FF08073082118
:1070A0004FF4806A4FF4006B23610846C4F8A030A7
:1070B00023632261C4F8A0202263C5F814E0C5F858
:1070C000A0E02F61C5F8A070C5F804E06F60FFF77D
:1070D0007CFF08210920FFF778FFC5F814A0C5F848
:1070E000A0A0C5F810B0C5F8A0B0C5F804A0C5F8B8
:1070F00004B04FF4805B08210A20FFF766FF0821E7
:107100000B20FFF762FFC5F814B00021C5F8A0B04E
:107110000C20C5F804B0FFF758FF4FF400510D20C4
:107120002961C5F8A01069600821FFF74EFF4FF4F0
:1071300000134FF4801A63610021C4F8A030352099
:107140006360FFF742FFC4F810A008213420C4F8A0
:10715000A0A0C4F804A0FFF738FF4FF04009FFF7E4
:107160004FFF26612023C4F8A060042026634FF05F
:1071700000710826C4F81080C4F8A080C4F83080DC
:107180002661C4F8A06026632061C4F8A0002063D3
:10719000C4F810900320C4F8A090C4F810B0C4F84C
:1071A000A0B02761C4F8A0702361C4F8A0302161A9
:1071B000C4F8A010C4F83490C4F834B067636363B3
:1071C000616331466E61C5F8A060FFF7FEFE27617E
:1071D000C4F8A07067604FF4803741462920FFF75C
:1071E000F4FE31466F611020C5F8A070FFF7EDFE88
:1071F000314667613020C4F8A070FFF7E6FE4FF417
:1072000000274FF4804220234FF4003104204FF038
:1072100080086161C4F8A01068613146C5F8A0001B
:10722000C5F810A00520C5F8A0A0C5F834A02F61AE
:10723000C5F8A0706F632A61C5F8A0206A636B610E
:10724000C5F8A030FFF7C1FE31460720C5F814800D
:10725000C5F8A080FFF7B9FE4FF400014FF480029B
:107260004FF080731020C5F810901E46C5F8A0900E
:107270002861C5F8A0002961C5F8A0102A61C5F8E9
:10728000A0202B61C5F8A0304FF4005327614FF4C4
:10729000807EC4F8A0704FF4806AC4F810804FF468
:1072A000006BC4F8A080944623614FF48022C4F898
:1072B000A0304FF080632261C4F8A020C4F810E031
:1072C000C4F8A0E0C4F810A0C4F8A0A02361C4F8DA
:1072D000A030C4F810B0C4F8A0B0C5F8349068630A
:1072E00069634FF40051C5F834C06E636763C4F836
:1072F000348061636263C4F834E0C4F834A063632B
:10730000C4F834B0BDE8F88F000E0E4000100E40F7
:107310002DE9F84F0B2000F0DDFA0C2000F0DAFA2E
:1073200001260222AC4D30466A610021C5F8A0203A
:107330002E61C5F8A0606A606E60FFF746FE00210E
:107340000846FFF742FE4FF480494FF40043A34C38
:10735000002163612F20C4F8A030C4F81090C4F855
:10736000A0906360C4F80490FFF72FFE00212E2048
:10737000FFF72BFE4FF4007A4FF080774FF4800830
:107380004FF400634FF480724FF4806127614FF433
:10739000805BC4F8A0702763C4F81080C4F8A08094
:1073A000C4F830806A61C5F8A020C5F810A04FF479
:1073B0000052C5F8A0A0C5F830A06961C5F8A010BA
:1073C0002B61C5F8A0302B634FF40033C5F814B01F
:1073D0000821C5F8A0B011202A61C5F8A0202A63B1
:1073E0006B61C5F8A030FFF7F0FD4FF48020082155
:1073F0006861C5F8A0001220FFF7E7FD02224FF0F8
:10740000400C22614FF00050C4F8A0202263266196
:107410000422C4F8A060266308262661C4F8A06090
:1074200026632261C4F8A02022636863C4F834B0E4
:107430002861C5F8A000C4F810C04FF00070C4F86F
:10744000A0C0C4F810B0C4F8A0B04FF0200BC4F82E
:1074500010A0C4F8A0A0C4F810B0C4F8A0B0206177
:10746000C4F8A000C4F834C0C4F834A04FF4803A83
:10747000C4F834B031466063C5F814A01020C5F8D4
:10748000A0A0FFF7A2FD3146C4F814A03020C4F834
:10749000A0A0FFF79AFD31466E610320C5F8A060F9
:1074A000FFF793FD4FF40033042263614FF4002A89
:1074B000C4F8A0304FF480136A61C5F8A0202B6196
:1074C000C5F8A0306B63C5F810A0C5F8A0A0C5F83A
:1074D00034A0C5F81090C5F8A090C5F834904FF0CE
:1074E0008009C5F814B0C5F8A0B04FF4000B3146C0
:1074F0000520FFF76AFD31460720C5F81490C5F84E
:10750000A090FFF762FD31463720C4F814B0C4F8EC
:10751000A0B0FFF75AFD4FF0400C4FF40050C5F8F3
:1075200010C01022C5F8A0C066464FF4802C2A6116
:107530004FF08063C5F8A0204FF4806EC5F810B0FE
:107540004FF40061C5F8A0B0C5F81080C5F8A08060
:107550002F61C5F8A070C4F810A0C4F8A0A0C4F8AA
:107560001090C4F8A0902061C4F8A000C4F810C026
:10757000C4F8A0C04FF4807CC4F810C0C4F8A0C008
:10758000C4F810E0C4F8A0E02361C4F8A030216181
:10759000C4F8A0106E636A63C5F834B0C5F83480CF
:1075A0006F63C4F834A0C4F8349060634FF4802053
:1075B0006063C4F834C0C4F834E063634FF400433C
:1075C00061636B61C5F8A0304FF400136B61C5F8BF
:1075D000A030BDE8F88F00BF000E0E4000100E4036
:1075E000B2EB011F30B52CBF1024082461434B08B7
:1075F00003EBC202B2FBF1F24FF6FE73D1084D1E4F
:107600009D4210D8082C08BF43684FEA024202F49A
:10761000E02208BF43F4002342EA010208BF4360AE
:107620000262002030BD0120FCE70000084BC0F8DA
:10763000E430002343604362836288230360242391
:1076400003604FF4807303604FF4002303607047BE
:107650000041535570B5FFF7E9FF00230B4E054677
:107660000C46336009B9012070BD0968FFF7B8FF07
:107670000028F8D1D4E90132134322691343E268A8
:1076800013436A68336013436B60EDE7DC36082010
:10769000806DC0B2704740230360704710230360C1
:1076A000704781607047C1607047406970474FF410
:1076B00080730360704743699B0743BFC1F30801B0
:1076C000C1610020012070474369DB0743BF836924
:1076D0000020C3F30803012048BF0B60704700007F
:1076E0000E4B1A6B22F003021A6340F60102996EE8
:1076F00009070BD51A6B22F07002104340F6010205
:107700001863996E090705D500207047013AEED13C
:1077100001207047013AF4D1FAE700BF00060E409D
:107720000F4B1A6B22F0030242F001021A6340F67B
:107730000102996E09070BD51A6B22F070021043F3
:1077400040F601021863996E090705D500207047BD
:10775000013AEED101207047013AF4D1FAE700BFB7
:1077600000060E400F4B1A6B22F0700202431A63A0
:1077700040F60102996E08070CD51A6B22F003023D
:1077800042F002021A6340F60102996E090705D51C
:1077900000207047013AEDD101207047013AF4D141
:1077A000FAE700BF00060E40054B586A10F0800053
:1077B0001EBFA3F5A053986EC0F3C010704700BF62
:1077C000001A0E40164A136A13F0010F136A1FD0F5
:1077D000002123F45C1323F07803184340F45C1079
:1077E00040F008001062936E9B03FCD5136A23F0EF
:1077F0009B7323F4803343F45C13136239B1136A2F
:1078000023F45C1323F0010343F45C131362704709
:1078100004491940044B0843034301211362E2E782
:1078200000060E408600C8FF09FF3700044A136AAD
:1078300023F45C1323F0780343F45C131362704762
:1078400000060E40034A136A23F0030343F45C135B
:107850001362704700060E400F4A30B1136A0F4999
:1078600019400F4B0B4313627047106A0B0220F450
:107870005C119BB221F003010B4343F45C1343F012
:1078800001031362936EDB07FCD5136A43F09B730D
:1078900043F48033E7E700BF00060E40FCFFC8FE5C
:1078A00002003701024B986E00F48030704700BF31
:1078B00000060E404FF00052014B9A62704700BF25
:1078C00000060E40024B986E00F00200704700BFA9
:1078D00000060E402C2818D81F284FF001030C4A30
:1078E00008D8916903FA00F030EA010300D0106172
:1078F00000207047D2F80811203803FA00F030EA6F
:107900000103F5D0C2F80001F2E70120704700BF83
:1079100000060E40034BC0F312001A6F10431867A5
:10792000704700BF00060E4041607047816070479D
:1079300000697047436A23F0FF030B4343627047BB
:1079400000EB4110D0F8100270478B790A781B04C5
:1079500003F4702343F4000300EB4210C0F81C3220
:1079600070478B790A781B0403F4702343F4800377
:1079700000EB4210C0F81C32704710B50A780B7942
:107980005201104463B9C0F80032C0F80432C0F8A4
:107990000832C0F81432C0F81832C0F81C3210BDDA
:1079A000D0F80022CC7922F4702242EA0442C0F8D6
:1079B0000022D1E90342497981B144F00054C0F872
:1079C000044242F00052C0F80822D0F8002222F00F
:1079D000E06242EA0363C0F80032E0E7C0F8044224
:1079E000F1E770B58C680A7804F0C073B3F1C07F1A
:1079F00014BF00250225530100EB4212D2F80C629D
:107A0000C4F303448C71042C26F060464E61D2F816
:107A1000146288BFD2F818228E6188BFCA61C2186A
:107A2000D2F8102203448A60D201D3F80822D3F896
:107A3000083248BF45F0040512F000521DBF23F084
:107A400060430B6101239B0C12BF4B710B614A71A8
:107A5000FFF77BFF284670BD0B7830B55C0100EB6B
:107A60004313D3F810228A6012021AD54D790A699D
:107A70000DB142F00052C3F808228B690219C2F816
:107A800014328B792044042B88BFC9694FEA034321
:107A900003F4702388BFC2F81812C0F81C3200200B
:107AA00030BD0120FCE730B50024054689B08DF8D3
:107AB00004400094694628460134FFF75EFF082C15
:107AC000F7D109B030BD0000F8B546F2A81304465E
:107AD00003FB02F00B18013BB3FBF0F3802B01D941
:107AE0000020F8BD4FF4FA505043B0EB510FF7D8D7
:107AF0004FF47A73082653434FF0FF373246B1FBF9
:107B0000F0F5802D06D800FB1515BD4202D23DB11F
:107B10002F4616460132D2B21A2A1844EFD1324605
:107B20005343B1FBF3F1C9B20129D9D90620236827
:107B3000083A23F001032360194B013900FB02329C
:107B400093785078013B01381B01000200F4E0609B
:107B500003F070030343D07812790138013A00F042
:107B600007001203034302F440520904134301F4D3
:107B7000FE010B4320466361FFF795FF0020236859
:107B800043F001032360074B22690130920202D4C3
:107B90009842F9D1A4E7C01A18BF0120A1E700BF9D
:107BA00068910D00A0860100AC2310B50360D1E9F7
:107BB0000032B3FBF2F34FF6FE721B095C1E9442D7
:107BC0000AD803628B68436040F20223C0F8203178
:107BD00050230360002010BD0120FCE75023036008
:107BE0007047AC230360704781607047C160704785
:107BF0004069704743699B0746BFC161002001206F
:107C000070474369DB0743BF836900200B70012085
:107C10007047D3060ED59306C0F8B0104CBFC0F81D
:107C2000D410C0F8D01053064CBFC0F8C010C0F834
:107C3000C4107047C0F8B4107047C36C016470473B
:107C400041647047C06C704730B50446012040F273
:107C50000225206052000020B1FBF2F16060C4F800
:107C60002051C4F80401C4F81401656801390902FF
:107C70001D4389B22943616030BD4368090101F0A9
:107C8000100119434160704710B50906446801F0BE
:107C9000706121431B07114303F0405319434160B6
:107CA00010BD02230360704701238B4003617047BE
:107CB0000F299ABF503050F8210000207047036C04
:107CC00043F0807303647047014B8000185870477D
:107CD000901A0E40014B800019507047901A0E40C8
:107CE000014B0360704700BF050000A5406800F429
:107CF000E0607047084BB3FBF1F18142C1EB013307
:107D000006D8834204D3B0FBF1F0C0F30B007047F8
:107D10004FF6FF70704700BF0020A10710B5044C5C
:107D2000C2F30B0204EA034414430C43446010BD45
:107D30000000FF0F034B984202BF034A503B1A65F5
:107D4000704700BF501A0E40010000A54068044B68
:107D5000C0F30B00C001B0FBF1F05843704700BF07
:107D600040420F00144B07B5DA6AD00742BF012129
:107D70009962196A910742BF022199621B6AD30571
:107D800044BF4FF480720C4B01A944BF9A621B6A36
:107D90000A4B1868FAF779F9019B4BB14FF0E023D1
:107DA0004FF08052C3F8042DBFF34F8FBFF36F8F96
:107DB00003B05DF804FB00BF00C00840E0360820B7
:107DC000436801F00F0123F00F031943416070472E
:107DD000436801F4E06123F4E063194341607047B4
:107DE000436843F48053436070470068C0F3032046
:107DF0007047C068704708B5120202F47062114300
:107E000015F006F8002008BD0368090201F470614E
:107E100023F47063194314F0FBBF000038B5A1F1DF
:107E20000E03012B17D9EFF3108572B6BFF35F8FE6
:107E300000230A4CC9B22370094B03EA0222114302
:107E400041F0B44114F0E0FF25B901232370BFF3E2
:107E50005F8F62B638BD4FF0FF30FBE778820720B6
:107E600000FFFF0070B50F4C26688CB206F50025A8
:107E70008D4210D8C6F17F4505F578052944A41B2D
:107E8000094DC1F30F21E4B200B1056002B11180C8
:107E900003B11C8070BDA1F50021044DC1F30F2179
:107EA000E4B2F1E7D08C0720000C0E40000A0E402F
:107EB00038B504460D460A4601460548FFF79BFFC4
:107EC0002A4621460348FFF796FF002038BD00BF31
:107ED000000A0E40000C0E402DE9F04F85B00193D2
:107EE0000E460DF10A030146154603A802AAFFF744
:107EF000B9FF0398FFF779FF062180460398FFF743
:107F000083FFDFF8B4B0DFF8B490039835B9414689
:107F1000FFF77AFF284605B0BDE8F08FBDF80A20CC
:107F20002749C2F58073AB421F4628BF2F468842BF
:107F3000BDF808C015BFDBF800100CF5006401F5B2
:107F40000024240218BF04EB0C24DB1B21461B4831
:107F50001FFA83FA08F0DEF8BDF80A003A46314607
:107F6000484408F0D7F8BDF80A00524638442118B2
:107F7000484408F0CFF8114B04F58072214653F8BD
:107F8000040B0434A2420860F8D1019B0398BDF8A9
:107F9000082073B10321FFF741FF0028BBD1BDF8D2
:107FA00008303E440133ED1BADF80830ADF80A004F
:107FB000ABE70121EFE700BFD08C0720E4360820B3
:107FC000000A0E40042330B587B004460D460093E6
:107FD0000F220E210B4802AB14F012FF78B9042DCA
:107FE00028BF0425234602AA04EB8505AB4201D134
:107FF00007B030BD52F8041B43F8041BF6E710200D
:10800000F6E700BF000A0E40EFF30583FCE700002F
:108010002C4A10B5116B2C4B01F0030101292AD019
:10802000023901291DD8116ACC0148D427491960A9
:10803000116A01F0700110293ED020293FD0116B48
:1080400001F00301022901BF946A1968C4F30A44CC
:1080500004FB011109BF906A1D49C0B2B1FBF0F1E8
:1080600007E01C49496A08064CBF4FF400414FF431
:10807000FA4119600DE0116AC90101D51649F8E706
:1080800012491960116A01F07001102912D02029DB
:10809000F4D0106B196800F07000702807BF03223D
:1080A000B1FBF2F2126BC2F3021218BF21FA02F214
:1080B0001A6010BD0949DCE708491960BFE70649A5
:1080C000FBE700BF00060E407482072000093D0058
:1080D000001C4E0E001A0E40001BB70000127A0062
:1080E000114B124A9842124B03D8002111601960BB
:1080F00070471049884202D84FF48071F6E70E4964
:10810000884202D24FF40071F0E70C49884202D84D
:108110004FF44071EAE70A49884294BF4FF4806106
:108120004FF4A061E2E700BFBFEA2101000A0E4060
:10813000000C0E407FF0FA020090D003FFB3C4049D
:108140007F4A5D050160704701210268530903F50C
:10815000001303F2077302F01F025B0201FA02F23E
:108160001A63704701210268530903F5001303F2F3
:10817000077302F01F025B0201FA02F25A637047B2
:108180000D4808B5FFF7ACFF3E210020FFF764FB68
:10819000FFF788FB0028FBD0FFF78CFB074B084A52
:1081A0009A62FFF78FFB0028FBD00020FFF7DAFA76
:1081B000BDE80840FFF72CBF00BD010500060E40DA
:1081C000013F06204FF00052044B1A61C3F8A02073
:1081D00008B11A6370475A63704700BF000E0E4023
:1081E000024BD86BC0F34070704700BF000E0E40CA
:1081F00070B5344A344C137886B001331370334B66
:108200001B7883B922788DF8003023796846934231
:1082100028BF13468DF8083006F076FC0120FFF7E2
:10822000D1FF06B070BD4FF6FF7325689D422AD07E
:1082300025BB2B460121264A2846FBF711FC284680
:10824000FFF7C0FF01264FF6FF7365689D4205D01A
:10825000DDB1013D01206560FFF7B4FFF6B9237879
:1082600022798DF80060934228BF13468DF80830BC
:10827000FBF7CAFB684606F047FCD2E7013D012048
:108280002560FFF79FFF0026DDE7012328461946FA
:108290000F4AFBF7E5FB2846FFF794FF01210D4A43
:1082A0000020FBF7DDFB002368468DF800308DF8D9
:1082B000083006F029FC4FF47A70F8F7BFFDF8F7A4
:1082C00031FAAEE7ED370820E4370820EE37082012
:1082D000D4910D00F0910D004FF4B472014B43F8AE
:1082E00020207047E4370820014B1870704700BF0A
:1082F000EE37082073B5124B01210020114AFBF71D
:10830000AFFB114B1C78C4B901261E700F4B3246CF
:10831000FA2100930E482346F9F71EFA0546F8F7AE
:108320007DFC23460246314628460094F9F73AFA86
:108330004FF6FF72074BC3E9002202B070BD00BFC9
:108340000A920D002C7D0D00EC370820F1810C0005
:1083500004920D00E437082000230246FF2180F834
:108360004630831C42F8403F03F8011B9342FBD187
:1083700040F29F2303800023A0F8441080F8473088
:10838000836480F84C307047F8B500240A4D0B4EDA
:108390000B4F2978E3B2994206D8BDE8F840012195
:1083A0000020084AFBF75CBB3A4601210020F35C41
:1083B000FBF756FB0134ECE778390820B038082089
:1083C00016920D00AA810D0008B5F8F7F7F9002301
:1083D000054A1370054A13700122054B1A70BDE857
:1083E0000840F8F7FBB900BF5C38082000380820C7
:1083F0007982072010B5124C2378022B10D8012166
:10840000104A0020FBF72CFB23780F480133237020
:108410000023BDE810401A4619460068F9F7FFBC72
:108420000A4A01210020FBF71BFB094B00211868B9
:10843000F9F790FCFFF7A8FFBDE81040FFF7C4BFB5
:108440005C3808201C920D00F437082026920D009D
:10845000583808200023F7B5244A18461146244D01
:108460002E78DCB2A6423DD89F230B7002232870E1
:10847000032200204B701F4B93F844401F6C8C70FC
:10848000C6B217F806C00130BCF19F0F12BF1346E9
:1084900001F802C0531CBA5D08BFDBB2C6B2CA54B1
:1084A000B44203F10102D2B2EAD29F2088540322DF
:1084B000DC1C0233DBB2CA540F4BE4B21E68F8F77F
:1084C000ADFB00230246009301213046F9F76AF91B
:1084D00022460A4B054918682C70C36803B0BDE8F2
:1084E000F040184702F8010B0133BAE7B038082012
:1084F0007839082060380820FC370820F037082039
:1085000030B50D4B93F844001A6C93F845100244B3
:108510005170002193F84420CCB2A24202F1010232
:1085200002D283F8442030BD186C0131045D855CB3
:108530006C408454EEE700BF60380820094A92F886
:108540004430A3F13D01C9B2C1290AD9116C0133EC
:10855000DBB282F84430C85492F84530013382F8D7
:1085600045307047603808202DE9F047AA4E4E226A
:1085700030684FF4E131436988B09847A74CA84F61
:1085800000213868F9F77AFEF8B1A64B1B78E3B101
:10859000FFF760FF30680A23012280690DF10B01AB
:1085A000FEF730FC00284FD19F4B1D786A1C1A70D3
:1085B000002DE4D1F8F78EFD6328E0D8012128468C
:1085C0009A4B9B4AFBF74CFAD9E7DFF8689299F887
:1085D0000030002BDED0984B0022186803A9F9F771
:1085E000ABFD0028D6D08F4B1B78002BD2D0934800
:1085F000FFF7B2FE0120FFF7A1FFFE20FFF79EFF6D
:108600009DF80C00FFF79AFF9DF80C30022B13D158
:108610000425DFF82CA20DF1100898F8003052461E
:1086200001210020FBF71CFA013D18F8010BFFF7B0
:1086300085FF15F0FF05F0D1FFF762FFFFF70AFF96
:10864000002389F80030A5E794F846209DF80B3008
:10865000002A5AD00022022B84F846200AD1204654
:10866000FFF77AFE012384F8493094F84830002B54
:1086700090D008E0032B34D194F84930002BF4D08B
:10868000012384F848300125664B1D7094F847306B
:10869000002B61D00A23009300236A481A46032165
:1086A0000068F9F77FF894F84B30002B51D0DFF8D1
:1086B000988198F80030032B44D82946634A00205B
:1086C000FBF7CEF9002338681A461946F9F7A7FBDD
:1086D00098F800302B4488F800302046FFF73CFE25
:1086E00058E7062B05D1012384F84A3084F8473037
:1086F000BBE7152B03D1012384F84B30F6E79F2B02
:1087000009D02046FFF728FEAFE79F2B03D10123B6
:1087100084F84630A9E794F84420A2F13E01C9B29A
:10872000C029A2D994F8491029B194F8451011B97B
:1087300084F8453099E7216C0132D2B284F84420A4
:108740008B5492E72946424A0020FBF789F9FFF74C
:108750001BFEFFF739FEC0E794F8452094F844105B
:1087600015468C46D4F840E098B2844506D31EF8EE
:1087700003000133412B85EA0005F5D1D6F800C08E
:108780008A42DCF80C8038D1002D36D1314A03AB57
:1087900010685168082203C3604603A9C04794F8D3
:1087A0004830002B99D0216C4B78022B2FD18B783D
:1087B000032B12D10C22033104A807F0ABFC0223D7
:1087C00001218DF81C30244A9DF818300020FBF759
:1087D00047F903A801F032FE7FE7012100201F4A7C
:1087E000FBF73EF994F84530FF2B08BF0023033315
:1087F0000135EDB2AB42FBDA6FE7194A03AB106803
:108800005168082203C3604603A9C04765E7FE2BF1
:108810007FF463AFCBE700BFF037082004380820AF
:10882000F437082054380820F9370820C7920D0083
:1088300039800D00798207205838082060380820D8
:1088400016920D00FC370820003808204F920D00CA
:1088500056920D00A6920D0075920D0093920D0098
:10886000AF920D0073B5194E347864BB0125184BD7
:10887000184A19491A60194823464FF4C8720194DE
:108880000095F8F79DF8224610212820F9F7A2FA62
:10889000134B2A461860134BA0210093124823461D
:1088A000F8F75AFF114B2146186003222846F9F7C2
:1088B00091FA0F4B0F4918601D20357002B0BDE8CA
:1088C0007040FAF75BBF02B070BD00BFF8370820F8
:1088D000F037082034820720B8920D0069850C001B
:1088E00058380820F5830C00C1920D00FC37082091
:1088F000F43708200D890C000146034800230222AA
:108900000068F9F78CBA00BF583808207FB50378A3
:108910001D2B31D10023ADF8043083782BB99DF89D
:10892000043043F001038DF8043043792BB99DF8EE
:10893000043043F008038DF8043003792BB99DF817
:10894000043043F004038DF80430C3782BB99DF84C
:10895000043043F002038DF804300422C3880DEB89
:10896000020103A8ADF8063007F0D4FB022302A8E9
:108970008DF80830FFF7C0FF07B05DF804FB00007A
:1089800038B583784478012B12D10F4A13700F4DFC
:10899000204600F097F82B78A34211D0FBF788F916
:1089A0007CB90B4A01210020FBF75AF82C7007E034
:1089B000002BECD1074B1C70034B1B78002BE6D02F
:1089C00038BD054AEEE700BF7A3908207A820720D1
:1089D000D6920D007B820720E5920D00014B18789E
:1089E000704700BF7B82072008B500F075F8064984
:1089F0001020FAF7C3FE002000F064F8BDE808403C
:108A000006200249FAF7BABE81890C006D8A0C0073
:108A100070B58AB004460E46FBF72AF9437805463E
:108A2000A3420FD01020FBF711F910236C70684699
:108A30008DF800308DF801408DF80260FAF7C0FE25
:108A40000AB070BD1020FBF7EFF80028EAD1F7E775
:108A5000112300B58BB08DF8010068468DF8003009
:108A6000FAF7AEFE0BB05DF804FB000008B5037822
:108A7000062B07D100F00EF8054A1378042B02D814
:108A80000133137008BDBDE80840FFF7E1BF00BF28
:108A900079390820084B30B5084CDB6B084D21783C
:108AA0002878C3F3405341EA0302024001EA03007D
:108AB00029702370104330BD000E0E407B39082012
:108AC0007C3908204FF00072024B08B91A637047D6
:108AD0005A63704700100E404FF000720A4B1A6143
:108AE000C3F8A0201A634FF40012A3F500735A6173
:108AF000C3F8A0205A665A655A62C3F880201A6FDC
:108B000022F400121A67704700100E404FF4805292
:108B1000024B08B91A6370475A63704700100E4041
:108B2000024BD86BC0F30030704700BF00100E40FE
:108B3000034BD86B80F48050C0F30030704700BF07
:108B400000100E40084B30B5084CDB6B084D217807
:108B50002878C3F3004341EA0302024001EA03001C
:108B600029702370104330BD000E0E407D3908205F
:108B70007F390820084B30B5084CDB6B084D217855
:108B80002878C3F3004341EA0302024001EA0300EC
:108B900029702370104330BD00100E407E3908202C
:108BA000803908204FF48052024B1A61C3F8A0208C
:108BB000704700BF00100E40F8B503780446132B31
:108BC0001BD12E4E43782E4F2E4D32683B702B70AA
:108BD00032B1012B04D1FFF7A3FF60B100233B703A
:108BE000294B2A781978914203D0002027491A701E
:108BF0000870012302E03060F2E700232278062AA1
:108C000001D0002B33D0214B1D4A1978147861B163
:108C1000012C2DD04CB91948016859B319490C7869
:108C2000012C27D10021016019701949097839B147
:108C30000124002014702146164A1870FAF710FF1C
:108C40002046FFF763FF14B10E4B1B7813B90020C9
:108C5000FFF742FB104D2B78A34208D0FBF728F812
:108C600054B90E4A01210020FAF7FAFE2C70F8BD23
:108C70000024DAE70124D8E7094AF3E78439082019
:108C80007C8207207F8207207E8207208A39082085
:108C900089390820F5920D007D8207201E930D0072
:108CA0002C930D000378152B04D14278074B12B991
:108CB00001221A7070471A78002AFBD004490A78FA
:108CC00082F001020A700022F3E700BF80820720D1
:108CD0008A39082038B50378072B28D1144B154C56
:108CE0001D78CDB9042000F0ABFB1E2804D9042068
:108CF000294600F0ABFB28463C23584320600E4B2E
:108D00001B78A3B10D4A1378591C022B11700ED990
:108D1000BDE83840F7F706BD2368002BEFD0013BD4
:108D20000121074A00202360FAF79AFEE7E738BDE1
:108D30007F82072084390820893908208839082053
:108D40003B930D000122014B1A70704789390820AE
:108D5000014B1878704700BF7F820720FFF7E0BE05
:108D600010B50E4CFFF71EFF0120FFF7CFFE214686
:108D70001320FAF703FD21460620FAF7FFFC152021
:108D80000749FAF7FBFC06200649FAF7F7FCBDE8AD
:108D9000104007200449FAF7F1BC00BFB98B0C0062
:108DA000A58C0C00CB8D0C00D58C0C00142300B5C9
:108DB0008BB08DF8010068468DF800308DF80210F8
:108DC000FAF7FEFC0BB05DF804FB08B50378062B40
:108DD0000BD1FFF7B7FE0021FFF7E8FFFFF7CAFE50
:108DE000BDE808400121FFF7E1BF08BD152300B52C
:108DF0008BB08DF8010068468DF80030FAF7E0FC82
:108E00000BB05DF804FB00004022034B08B91A6365
:108E100070475A63704700BF00100E40034BD86B79
:108E200080F04000C0F38010704700BF00100E407B
:108E30004022034B1A61C3F8A0201A63704700BF99
:108E400000100E4038B54478094D2046FFF7DCFF8E
:108E50002B78A34208D0FAF72BFF34B9054A012139
:108E60000020FAF7FDFD2C7038BD034AF7E700BF7C
:108E70008182072064930D0070930D0008B5FFF701
:108E8000D7FF16200349FAF779FCBDE80840012016
:108E9000FFF7BABF458E0C0030B58BB00446FAF729
:108EA000E7FEC3780546A3420DD01620FAF7CEFEA2
:108EB00016236846EC708DF800308DF80140FAF703
:108EC0007FFC0BB030BD1620FAF7AEFE0028ECD1C7
:108ED000F7E700002022034B08B91A6370475A6372
:108EE000704700BF00100E40034BD86B80F020008D
:108EF000C0F34010704700BF00100E40024BD86B0B
:108F0000C0F34010704700BF00100E402022024BFB
:108F10001A61C3F8A020704700100E40032238B534
:108F20004478184B012C1C70174B1A701DD1FFF799
:108F3000E5FF10B3154B1C78B4FA84F46409FFF70D
:108F400007FF012808BF0124114D2046FFF7C2FF8B
:108F50002B78A34208D0FAF7ABFE84B90D4A012161
:108F60000020FAF77DFD2C7038BDFFF7C7FF002801
:108F7000E5D1094B1B78002BE1D00124DFE7074A3C
:108F8000EDE700BF83820720848207208B39082009
:108F9000828207207D930D008C3908208A930D0072
:108FA00010B52B4A04461378002B3BD129490120E8
:108FB0000B7029490B7003231370284B1870284B32
:108FC0001870FFF787FF2478072C3FD1204600F068
:108FD00037FA1E2803D90021204600F037FA062070
:108FE00000F02EFA1E2803D90021062000F02EFAE8
:108FF0001B4B05201B78C3B900F022FA012804D1CD
:10900000072000F01DFA134B1870134A1378EBB1C8
:10901000013BDBB21370134A0121BDE81040002070
:10902000FAF71EBD013B1370CDE700F009FA0128E5
:1090300004D1062000F004FA074B1870054A137893
:1090400023B1013BDBB21370074AE5E710BD00BF57
:10905000848207208B3908208C39082082820720DF
:109060008382072098930D00C2930D0003781B2B79
:1090700006D14368B3F5AF6F82BF0022014B1A706F
:10908000704700BF8B39082008B5FFF73FFF172056
:109090000749FAF773FB07200649FAF76FFB1B2015
:1090A0000549FAF76BFBBDE808400120FFF712BF46
:1090B0001D8F0C00A18F0C006D900C0030B58BB093
:1090C0000446FAF7D5FD83780546A3420DD0172054
:1090D000FAF7BCFD17236846AC708DF800308DF8A8
:1090E0000140FAF76DFB0BB030BD1720FAF79CFD7D
:1090F0000028ECD1F7E7000030B58BB04FF0A003AB
:1091000083F31188BFF36F8FBFF34F8F144B154854
:109110001C881549027821F8124000241C8084F331
:1091200011880A2302780132D2B2B2FBF3F503FBB5
:10913000152202700A4632F8021B013B13F0FF03AE
:109140000C44F8D1094D2B68A34207D01C23684674
:109150008DF800300194FAF733FB2C600BB030BD72
:109160008E3908209039082098390820AC39082019
:1091700037B51E4D44682B68A3428CBF1B1BE31AF6
:10918000132B94BF002301236BB1204606F054F843
:109190000022174B06F0F4F9164ACDE9000101212F
:1091A0000020FAF75DFC632C07D80021084600F088
:1091B0007BF800232B6003B030BD2B68A3428CBF2B
:1091C0001B1BE31A312B94BF00230123002BF2D089
:1091D00032234EF66021B4FBF3F30120B1FBF3F12F
:1091E00000F062F8FAF764FD2C60E4E79439082097
:1091F00000005940ED930D00014B1868704700BF07
:109200009439082073B5134E347804BB00F06AF823
:109210001B201149FAF7B2FA104B01226421009386
:109220000F482346F8F798FA0546F7F7F7FC234668
:109230000246012128460094F8F7B4FA012321469A
:109240002046337002B0BDE8704000F02DB802B087
:1092500070BD00BF8D39082071910C00F9900C0091
:10926000FC930D0030B58BB00446FAF701FD83681E
:109270000546A3420FD91B1B012B0FD01B20FAF769
:10928000E5FC1B236846AC608DF800300194FAF7CA
:1092900097FA0BB030BDE31A012BEFD81B20FAF779
:1092A000C3FC0028EAD1F4E70A4638B50B484D085C
:1092B0000C460B4905F05AFE2A46094920B9BDE87B
:1092C0003840064805F060BE044805F05DFE2246C1
:1092D000BDE838400249014805F048BE0040094059
:1092E000B03908201FB52420FEF7F4FA07211648EC
:1092F00005F05CFE2420FEF7EDFA002447F230531F
:10930000CDE90134114B104801A9039305F0A0FDEC
:1093100020B1214620460E4AFAF7A2FB00230D4950
:1093200064200B8101238B720B234B6032230724B3
:10933000C1E9033004480C6005F0A9FD214602484C
:1093400005F030FE04B010BD0040094000BD01052D
:1093500002940D00B039082070B58AB004460E465C
:10936000FAF786FC03790546A34209D01820FAF7DC
:109370006DFC1B2C2C710AD818238DF800300CE0E2
:109380001820FAF751FC0028F0D10AB070BD19235B
:1093900005228DF800300F4B1A70002368468DF8B7
:1093A00002308DF801408DF80360FAF709FA9DF854
:1093B0000130002BE9D1074C2378002BE5D019238D
:1093C00068468DF80030FAF7FBF92378013B2370EB
:1093D000DBE700BFD839082010B5154B154C1868CD
:1093E000237888B02E2B4FF00A0300934FF0000330
:1093F00087BF03211A464FF496720421F8F7D2F979
:1094000017238DF8083023780121DA088DF8102011
:1094100000920020084AFAF723FB00238DF8113050
:10942000064B02A8039305F06FFB08B010BD00BF08
:109430000C3A08200A3A08201E940D000D950C00E5
:10944000014B185C704700BFDA3908207FB5094B23
:109450001A5C8A420AD0195405238DF80800684620
:109460008DF800308DF8091005F04EFB07B05DF85F
:1094700004FB00BFDA3908207FB57F2368468DF8EA
:10948000003005F041FB07B05DF804FB134B73B5EA
:109490001A7802BB3024FF21114A013C14F0FF046A
:1094A00002F8011BF9D101261E700E4B32464FF413
:1094B000C87100930C482346F8F74EF90B4B05464C
:1094C0001860F7F7ABFB0A230246009331462346A8
:1094D0002846F8F767F902B070BD00BFD9390820F7
:1094E000DA390820D9930C00C1920D000C3A0820FB
:1094F0001E2300B58BB08DF8010068468DF8003052
:10950000FAF75EF90BB05DF804FB00002DE9F041BD
:109510001546C000DFF85080144FC4B25618B5424B
:1095200004D10122124B1A70BDE8F0812F2C17DCF8
:109530002B78012C04F8083002D12046FFF7D8FF21
:109540002F2C3C7009D198F82F301BB901212046EF
:10955000FFF77CFF0220FFF7CBFF3B7801333B7026
:1095600001340135DBE700BFDA3908200A3A082068
:109570000B3A082090F80831C154013380F80831C3
:1095800070470023FF2180F8083180F8093100F28C
:109590000712431E03F8011F9342FBD1002380F8FA
:1095A0000A3180F80B3170470122014B1A70704765
:1095B000A43B0820704700000378272B02BF4278A5
:1095C000014B1A70704700BF803A082003780146AB
:1095D000222B10B503D12822054806F09BFDBDE8DB
:1095E0001040002303481A4619460068F8F717BCD4
:1095F000103A0820383A082004F0A6BA0378014649
:10960000322B05D1034800230A220068F8F707BC73
:10961000704700BFA83B0820037801462F2B05D1D7
:10962000034800230A220068F8F7F9BB704700BF1F
:10963000443A08200378282B06D1011D0348002353
:109640000A220068F8F7EBBB704700BF843A082095
:10965000037810B52A2B04460FD154F8043F042197
:10966000064A0220FAF7FCF905482146BDE81040F9
:1096700000230A220068F8F7D2BB10BD3A940D000F
:10968000543A0820037810B5332B04460DD101213C
:10969000064A0020FAF7E4F90548611C0023BDE8FA
:1096A00010400A220068F8F7BABB10BD4E940D00B6
:1096B0003C3A0820037813B5182B47D10222411CED
:1096C000684606F027FD9DF8002052B923490B7823
:1096D0003BB1DC0741BF581C08708DF800308DF895
:1096E00001209DF80020D00718D51C4B1B78D90706
:1096F00014D59A4212D0002401330121184A204681
:109700008DF804308DF80540FAF7AAF9154823467C
:109710004FF0FF32006801A9F8F781FB9DF8003097
:10972000A3B10E4C22789A4210D001210E4A00209B
:10973000FAF796F90B486946002302220068F8F709
:109740006EFB014620B19DF80030237002B010BDC1
:10975000064A0220FAF784F9F8E700BF493A0820E0
:1097600076940D00A03B082081940D008F940D008D
:109770002DE9F04F03788BB02E2B40F0FC80037C5A
:109780009D4C012B00F0FA80022B40F02F81011D2F
:109790000C229A4806F0BEFC984D63796A799909C3
:1097A0009009884238BF0846C3F301110490C2F300
:1097B0000110884238BF0846C2F3810EC3F381010D
:1097C000277995F804C08E4502F0030203F00303E5
:1097D00038BF8E469A424FEA9C1838BF1A46BB09DA
:1097E0009845CCF3011938BF9846C7F30113994542
:1097F0002678CCF3810138BF99460590C7F38103E1
:1098000028788B424FEA101A38BF0B463109514570
:1098100000F00F0006F00F0628BF5146B04228BFE7
:10982000304694F801A040EA011168780AF00F0B65
:1098300000F00F065E4528BF5E4641EA062B06098A
:109840004FEA1A10B04228BF304695F802A04BEA02
:10985000003694F802B00AF00F000BF00F018142BD
:1098600028BF014646EA01404FEA1A114FEA1B1A87
:109870008A4528BF8A46EE7840EA0A5194F803A048
:1098800006F00F000AF00F0B58454FEA16164FEA84
:109890001A1A0CF0030C28BF584607F00307564568
:1098A0004FEA830328BF5646BC452CBF43EA0C034E
:1098B0003B4343EA091949EA8818059B48EA022212
:1098C00042EA8E2E4EEA033E049B41EA00604EEAD5
:1098D000833E00238DF8243094F908309DF824202D
:1098E000002BB4BF012395F9083040EA0670A8BFE9
:1098F000DB0F63F3C7124FF6FF7307908DF8242038
:10990000BDF81C203E4C9A4218BF2378BDF81E209B
:109910001CBF43F0020323704FF6FF739A4218BF37
:109920002378ADF820E01CBF43F001032370BDF89D
:109930002030012102939DF82430324A0193079B85
:10994000002000932378FAF78BF82B7A01210193FA
:10995000294B2D4A1B7A002000939DF82430FAF7FA
:109960007FF8207804F0E2F8284800230A220068F3
:1099700007A9F8F754FA0BB0BDE8F08F011D0C22CF
:10998000204606F0C7FB224B1B78002B3FF404AFA8
:10999000627802F00F031209934228BF134622781F
:1099A000184602F00F0113098B4228BF0B46E278DC
:1099B00011098B4228BF0B4602F00F018B4228BFD2
:1099C0000B46A27811098B4228BF0B4602F00F020A
:1099D000934228BF1346834228BF03460F2B16BF6E
:1099E0000C4A0020D05C04F063FDD5E601210A4A50
:1099F0000020FAF735F8CFE6703A0820643A0820DC
:109A0000403A0820BF940D00E5940D007C3A0820F0
:109A1000413A0820CE970D00A7940D0003782D2B16
:109A200003D141781520FFF711BD704710B5437978
:109A300090F8081107338B42044604D1204600F009
:109A400039FE012010BD90F80A310BB10329F5D879
:109A50000021054A0846FAF703F8204694F8081151
:109A600000F028FE0020EDE7FE940D00427990F80A
:109A70000831911D994210B415D18178C3781144F1
:109A800019440379053219440623C9B2934204DD0F
:109A9000C94310BCC9B2FFF76DBDC45C013321449A
:109AA000C9B29BB2F2E710BC70470000F8B5074698
:109AB0000E4615461C461348FFF763FDC721FFF706
:109AC00059FDC821FFF756FD3946FFF753FD122116
:109AD000FFF750FD0021FFF74DFD0421FFF74AFD80
:109AE0003146FFF747FD2946FFF744FD2146FFF7C2
:109AF00041FDFFF73FFDFFF7B9FFBDE8F840FFF775
:109B000095BF00BF903A0820034B1A781F2A84BFE4
:109B100001221A70187870479C3B082008B5FFF79F
:109B2000F3FF0130C0B2202828BF0120014B18707C
:109B300008BD00BF9C3B0820BFB5A64B01224FF4D7
:109B4000FA710093A4480023F7F706FEA34CA44B38
:109B50000122C82120600093A2480023F7F7FCFDF2
:109B6000A14DA24F286003F081F92668F7F756F857
:109B7000002402462346012130460094F7F712FEE6
:109B80002D68F7F74BF8234602460121284600943A
:109B9000F7F708FE0221964A0846F9F761FF954853
:109BA000FFF7EFFCFFF7BAFF0146924803F0F0FE23
:109BB000914DDFF84882C8213868F8F75FFB98F8C4
:109BC00001408F4E012C40F09180032102208D4AEC
:109BD000F9F746FF3378022B7BD802218A4A0846E0
:109BE000F9F73EFF834B93F80821012A94BFFF2326
:109BF0009B7898F802209A4240F0A4807D48FFF7B5
:109C000015FF0124337801333370002CD3D10023A6
:109C100033702B787D4C002B00F0AA80DFF8F081A8
:109C2000D8F80030002B00F0A380022123680846FA
:109C3000784AF9F715FF206803F06EFDDFF8D89138
:109C40000646002800F0888099F800106948B0475F
:109C5000002840F0B38000236F4A2B7013706C4AC9
:109C60001360DFF8B88198F80140002C40F0D882EA
:109C70006B4E2246306803A9F8F75EFA002800F020
:109C80000B819DF80C2098F800309A4200F0BF82BA
:109C9000FFF744FF9DF80C308046162B00F2AB8294
:109CA000DFE813F08F00D200C401CB01D401DB0147
:109CB000E401EB01F4012C023502FB0104020B026A
:109CC00014021C0225023C0243024B0253025A02B8
:109CD000A20200210220534AF9F7C2FE2B78002B82
:109CE00095D000234C4A2B70137090E7022C2BD197
:109CF000032120464C4AF9F7B3FE3378022B05D8EE
:109D000021462046494AF9F7ABFE77E70021204675
:109D1000474AF9F7A5FE2B7813B100223E4B1A7083
:109D2000444B1B7823B9F9F76FFE0120FEF7D4FAF4
:109D3000FFF714F8044628B9F9F766FE0120FEF78C
:109D4000CBFA5FE700245DE72B78002B3FF45FAF91
:109D5000314A13780133C7E7022123680846364A9F
:109D6000F9F77EFE2E7089F80060C8F8006078E789
:109D7000324B002225491868F8F7DEF900283FF435
:109D800070AF2368002B3FF46CAF02212C4A0846C9
:109D9000F9F766FE206803F087FC206803F0BCFC3E
:109DA000034600283FF45DAF1B4A124811789847DC
:109DB00000283FF450AF2268154B1A6001232B7026
:109DC000F7E6012100201F4AF9F74AFE00231A4650
:109DD000002141E0A9950C0008950D005C3A08208F
:109DE000B5950C000E950D00583A0820383A082019
:109DF00014950D00903A0820883A0820103A08205F
:109E0000813A082023950D002A950D004C3A082030
:109E10008C3A08207A950D00503A0820603A0820C4
:109E2000A03B082039950D004C950D0056950D006E
:109E300065950D00803A08208D950D00543A082054
:109E40009C950D00AC950D0001210020C64AF9F744
:109E500007FE0123002210214046FFF727FE0028BD
:109E600040F0CE8101469DF80C30C04AF9F7F8FD6C
:109E700001230522306803A9F7F7D1FF0121002053
:109E80009DF80C30BA4A0094F9F7EAFD012C00F075
:109E9000D781022C00F0D081B64B0022186803A9AC
:109EA000F8F74AF948B1FFF739FE03AA0146B2486C
:109EB00003F052FF00287FF47CAE0022AF4B03A9D1
:109EC00018680392F8F738F948B1039C3CB1FFF7E2
:109ED00025FE0146A848A04700287FF46AAEA84B9B
:109EE0000022186803A9F8F727F9002850D0FFF7D7
:109EF00015FEDDE9046480469F489DF80DA09DF89D
:109F00000E90FFF73EFBC721FFF734FBC821FFF798
:109F100031FB4146FFF72EFB4021FFF72BFB0021D1
:109F2000FFF728FBFFF726FB5146FFF723FB4946C7
:109F3000FFF720FB304606F0A9FA3246C6B28E483B
:109F40001644B24240F0808100218B48FFF712FB9B
:109F5000204606F09BFA2246C4B287481444944235
:109F600040F07781844C00212046FFF703FB94F8F2
:109F70000831063B6371FFF779FD01210020814A1A
:109F8000F9F76EFD2046FFF751FD00287FF411AE72
:109F90007D4B0022186803A9F8F7CEF868B37B4A16
:109FA00001210020F9F75CFDFFF7B8FD0446724877
:109FB0009DF80C809DF80D60FFF7E3FAC721FFF7CD
:109FC000D9FAC821FFF7D6FA2146FFF7D3FA2421A0
:109FD000FFF7D0FA0021FFF7CDFA0221FFF7CAFA06
:109FE0004146FFF7C7FA3146FFF7C4FAFFF73EFDD7
:109FF000FFF71CFD00287FF4DCAD654B00221868DC
:10A0000003A9F8F799F848B1FFF788FD03AA0146BC
:10A01000594803F011FE00287FF4CBAD5D4E337834
:10A02000002B40F01B8100233370C2E5012100208A
:10A03000594AF9F715FD00230CE701210020574A82
:10A04000F9F70EFD01230022202105E70121002060
:10A05000534AF9F705FD0023F5E701210020514A95
:10A06000F9F7FEFC012300220421F5E6012100207E
:10A070004D4AF9F7F5FC0023F5E7012100204B4A92
:10A08000F9F7EEFC012300220821E5E6012100207A
:10A09000474AF9F7E5FC0023F5E701210020454A8E
:10A0A000F9F7DEFC012300224021D5E60121002042
:10A0B000414AF9F7D5FC0023F5E7404A0121002089
:10A0C000F9F7CEFC012300220121C5E63C4A01211B
:10A0D0000020F9F7C5FC00231A46F5E7012100200E
:10A0E000384AF9F7BDFC012300220221B4E6012120
:10A0F0000020354AF9F7B4FC0023F5E701210020E0
:10A10000324AF9F7ADFC012300228021A4E60121A7
:10A1100000202F4AF9F7A4FC0023F5E701210020D5
:10A120002C4AF9F79DFC012351E62B4A012100201E
:10A13000F9F796FC002301224AE601210020274A74
:10A14000F9F78EFC0123022242E601210020244A75
:10A15000F9F786FC0023F6E701210020214AF9F7F0
:10A160007FFC0123042233E6B7950D0005970D000F
:10A170002A970D00443A0820903A0820843A082093
:10A18000A83B08205D970D003C3A08206E970D0013
:10A190007C3A0820A43B0820C4950D00CF950D0003
:10A1A000DC950D00E7950D00F5950D0001960D006D
:10A1B0000F960D001B960D0028960D0033960D008E
:10A1C00043960D0051960D0061960D006F960D009F
:10A1D0007E960D008B960D009D960D00AD960D00A0
:10A1E000BF960D00CF960D0001210020234AF9F7FC
:10A1F00037FC0023B6E703210020214AF9F730FCA1
:10A200000222204803A905F085FF012436E698F8CC
:10A2100001309DF80D200224134488F801302DE60A
:10A22000013CE4B288F8014000940121002098F834
:10A230000030154AF9F714FC0A20F6F7FFFD2BE66B
:10A240003220F6F7FBFDB4E412F8011BFFF792F998
:10A2500077E612F8011BFFF78DF980E6FFF75EFC49
:10A2600001460A4803F094FB04460A20F6F7E6FD8F
:10A2700000233370002C3FF4D6AE9AE4DE960D0036
:10A28000EB960D00603A08203D970D00903A0820AB
:10A29000024B00211868F7F75DBD00BF543A082053
:10A2A00037B5424D2C78002C7ED122460221102059
:10A2B000F7F790FD04213E4B224618600846F7F759
:10A2C00089FD04213B4B224618600846F7F782FDC2
:10A2D000394B224618600C210220F7F77BFD374BE3
:10A2E000224618600C210220F7F774FD0221344B3E
:10A2F000224618600846F7F76DFD324B224618607B
:10A3000009210220F7F766FD2F4B4FF448721860C1
:10A3100002232E4900932E4823460194F6F750FB62
:10A3200000F032FA18202B49F9F728FA33202A498D
:10A33000F9F724FA2A202949F9F720FA2820284990
:10A34000F9F71CFA22202749F9F718FA272026499D
:10A35000F9F714FA29202549F9F710FA2E20244993
:10A36000F9F70CFA2F202349F9F708FA322022498D
:10A37000F9F704FA2D202149F9F700FA03F0A6FBBA
:10A380000120032221462870F7F724FD4FF0FF310A
:10A390001B4A1C4B1160147291804FF6FF721860BB
:10A3A000194B19601C729A8003B030BD483A0820DE
:10A3B000A03B0820543A0820843A08207C3A082020
:10A3C000A83B08203C3A0820443A08208F970D000B
:10A3D000399B0C00B5960C0085960C0051960C002C
:10A3E00035960C00CD950C00B9950C0025A40C00F9
:10A3F00071970C0019960C00FD950C001D9A0C002D
:10A40000703A0820383A0820643A0820282300B51A
:10A410008BB0019068468DF80030F9F7D1F90BB098
:10A420005DF804FB0378292B05D14378182B02D162
:10A430000148FFF7EBBF7047F9950C0000B58BB0F2
:10A4400001461422684605F065FE2E2368468DF805
:10A450000030F9F7B5F90BB05DF804FB10B527240F
:10A460008AB08DF804309DF830308DF802008DF8F8
:10A4700005309DF8343068468DF806309DF8383048
:10A480008DF800408DF807309DF83C308DF80110B4
:10A490008DF803208DF80830F9F792F90AB010BD55
:10A4A00000B500F00F0000028BB040F02C0040EA35
:10A4B0008130BDF800108DF8022001F440510843AE
:10A4C000ADF800006846F9F77BF90BB05DF804FBC6
:10A4D000302300B58BB08DF8010068468DF8003050
:10A4E000F9F76EF90BB05DF804FB292300B58BB0CA
:10A4F0008DF8010068468DF80030F9F761F90BB06E
:10A500005DF804FB03462B2000B58DB0CDE90012A9
:10A51000ADF808008DF80B108DF80C200121064ACB
:10A5200000208DF80A30F9F79BFA02A8F9F748F9EC
:10A530000DB05DF804FB00BF9B970D00034640F291
:10A540002B1000B58DB0CDE90012ADF808008DF8E4
:10A550000B108DF80C200121054A00208DF80A30DF
:10A56000F9F77EFA02A8F9F72BF90DB05DF804FBB4
:10A57000AD970D0040F22B2200B58DB00346ADF82B
:10A5800008208DF80A00074A8DF80B100091002072
:10A590000121F9F765FA02A8F9F712F90DB05DF893
:10A5A00004FB00BFBF970D0000B58BB001460C2225
:10A5B000684605F0AFFD322368468DF80030F9F7A4
:10A5C000FFF80BB05DF804FB262300B58BB0ADF8A7
:10A5D000020068468DF80030F9F7F2F80BB05DF82C
:10A5E00004FB152008B5FEF72BFF122804D915200F
:10A5F0000121FEF72BFF012008BD0000034B1A7854
:10A600001F2A84BF01221A7018787047C03D0820A5
:10A6100000230A4AFF2082F8083182F809311146E6
:10A620004FF48473013B9BB202F8010B002BF9D16C
:10A6300081F80A3181F80B31704700BFB43C082023
:10A64000074B587993F808210730811A93F80A319B
:10A650004842484113B1032A88BF1846704700BFDB
:10A66000B43C082038B5FFF7EBFF28B1104A92F848
:10A670000A3113B192F80B0138BDD1789378507933
:10A680000B4406210344DBB2441DA1420ADDDB4337
:10A6900010448179DBB299420CBF0120022082F87C
:10A6A0000B01E9E7555C01312B44DBB289B2ECE7E1
:10A6B000B43C08202DE9F34100264FF0D80C344675
:10A6C0004FF0AA0E2A4BF7B2B94201D9FD2C30D96E
:10A6D000F6F7A4FA0221264D0346264A0846F9F762
:10A6E000BFF92F460026DFF89080F3B2A34236D39D
:10A6F0000221224A0846F9F7B3F9214B224618688D
:10A700001B49C3689847FE24FF23013C14F0FF0453
:10A7100005F8013BF9D11B4B1D68F6F77FFA23467C
:10A720000246012128460094F7F73CF802B0BDE844
:10A73000F081825D651CC72AEDB20BD12FB103F801
:10A7400004C003F805E02C4600E01A550134E4B2D9
:10A750000136B8E7D82A1A55F8D15A55F3E702213D
:10A760004246084617F8013BF9F77AF90136BCE78B
:10A77000B03B0820DD970D00E5970D00AA810D0084
:10A78000AC3B0820B03C082013B50221134A084610
:10A79000F9F766F90421124A0220F9F761F9114824
:10A7A000114B4E2218604FF4E13143699847002461
:10A7B00002234FF44872CDE900340C4923460C487B
:10A7C000F6F7FEF80B4B22460093A02123460A48D9
:10A7D000F6F7C2FF094B186002B010BDEA970D00F2
:10A7E00001980D00D4810720AC3B08200F980D0084
:10A7F00079A80C001FA80C00C1920D00B03C0820E5
:10A80000222300B58BB08DF8010068468DF800302A
:10A810008DF80210F8F7D4FF0BB05DF804FB0021AF
:10A820000220FFF7EDBF0B2300B58BB08DF80100C0
:10A8300068468DF800308DF80210F8F7C1FF0BB0B4
:10A840005DF804FB2D2300B58BB08DF80100684640
:10A850008DF80030F8F7B4FF0BB05DF804FB23234C
:10A8600000B58BB08DF8010068468DF80030F8F720
:10A87000A7FF0BB05DF804FB02212DE9F04108466B
:10A88000BE4A86B0F9F7ECF8C820F6F7D7FAFFF71A
:10A89000BFFEBB4EBB4C30680A23012280690DF11C
:10A8A0001701FCF7AFFA002800F0A2809DF81750BE
:10A8B000C72D01D1FFF7ACFE94F80831002B63D00F
:10A8C0006278F02A78D05DD802F0FD02C82A5BD108
:10A8D000002294F8091184F80A21002960D1D82DAA
:10A8E00052D1012384F80931FFF7AAFE0028D2D003
:10A8F000F6F794F902210346A34A0846F9F7B0F89F
:10A900000025A24F94F80811EBB2994268D80221B1
:10A910009F4A0846F9F7A4F894F80831012B04D9A6
:10A92000A3781F2B01D89B4A1370FFF789FE0028DC
:10A93000B1D00520F6F782FA94F80A51002D60D0C4
:10A940000120FDF7C9FCF9F75FF894F80831012BF5
:10A95000637894BFFF25A578FF2B4DD1FFF782FECA
:10A96000012849D1FFF754FE29460020FFF748FF90
:10A970000A230093002388481A4603210068F6F74B
:10A9800011FF88E7FF2A17D0E554013384F8083116
:10A990002378C72B1EBF002384F808312370A3E758
:10A9A000AA2D04D0D82D03D084F809219CE7C7250F
:10A9B000002284F80921E7E70122032B84F80A2109
:10A9C0000BD1E570A278E178D243D2B291420CBFAC
:10A9D0000122022284F80B21D6E7022BD4D9F1E719
:10A9E00002213A460846E35CF9F73AF8013589E76F
:10A9F0000220F6F723FA98E7FFF70AFE294601201E
:10AA0000B4E7FFF72FFE37680128D7F8108040F031
:10AA1000EF80FFF7F3FD0146FFF7F0FDC343DBB224
:10AA2000C722CDE900133846FF235C49C047F6F73B
:10AA3000F5F80146FFF7E2FD0746FFF7DFFDC72304
:10AA4000C243FF20CDE900300B460221D2B2CDE94E
:10AA500002720846524AF9F703F8E378FF2B6CD0EC
:10AA6000D52B5FD8B52B16D8902B63D0912B67D000
:10AA7000002102204B4AF8F7F3FF0025434F94F8DA
:10AA80000811EBB2994200F2AB800021404A02204B
:10AA9000F8F7E6FF51E0A3F1B6021F2AE8D801A1BA
:10AAA00051F822F04DAB0C0055AB0C005DAB0C0027
:10AAB00071AA0C0071AA0C0071AA0C0071AA0C00FA
:10AAC00071AA0C0071AA0C0071AA0C0065AB0C00F5
:10AAD0006DAB0C0071AA0C0075AB0C00A9AB0C009F
:10AAE000B1AB0C00B9AB0C0071AA0C0071AA0C0040
:10AAF00071AA0C0071AA0C0071AA0C0071AA0C00BA
:10AB000071AA0C0071AA0C0071AA0C00C1AB0C0058
:10AB100071AA0C0071AA0C0071AA0C0071AA0C0099
:10AB2000D1AB0C00E52B57D0E82BA1D1204603F088
:10AB30007DFC02E0A079FFF7D8FCFFF769FDAAE6EB
:10AB40002A462946A079FFF7DDFCF6E7204603F008
:10AB500054FBF2E7204603F065FBEEE7204603F0E6
:10AB60007BFBEAE7204603F08DFBE6E7204603F097
:10AB70009BFBE2E7204603F0A9FBDEE71A980D00F5
:10AB8000AC3B0820B43C08202C980D00E5970D0044
:10AB9000AA810D00C03D0820B03C082057980D0048
:10ABA00060980D0038980D00204603F0BFFBC4E705
:10ABB000204603F0C3FBC0E7204603F0F7FBBCE7E9
:10ABC000A379E07900EB032080B2FFF7FDFCB4E746
:10ABD000A079FFF744FEB0E7204603F0E9FBACE7BD
:10ABE0003A4600210220E35CF8F73AFF013546E7D8
:10ABF000FFF704FD0146FFF701FDC343DBB2C722A7
:10AC0000CDE900133846F0230C49C047F6F706F8A3
:10AC10000146FFF7F3FC0746FFF7F0FCC243D2B250
:10AC2000C723CDE90272F0220220CDE900320B46A3
:10AC3000034A2946F8F714FF7FE700BF57980D0035
:10AC400060980D0010B521248AB08DF80430BDF84D
:10AC500030308DF8020068468DF800408DF8011004
:10AC60008DF80320ADF80630F8F7AAFD0AB010BD44
:10AC70002DE9FF4104460D46FFF7B3FC0E4F0F4B85
:10AC800053F820803B78A3B10D4B53F82060FEF7BA
:10AC90003BFF3B780146CDE9026300232A4600933F
:10ACA00020461723CDF8048003F0B1F904B0BDE8C5
:10ACB000F081044BE9E700BF553F0820C8AF0D0005
:10ACC0008CA90D00F4A80D002DE9FF4104460D46A6
:10ACD000FFF787FC0E4F0F4B53F820803B78A3B152
:10ACE0000D4B53F82060FEF70FFF3B780146CDE98E
:10ACF000026300232A46009320461623CDF80480E1
:10AD000003F085F904B0BDE8F081044BE9E700BF2A
:10AD1000F63D082098AE0D008CA90D00F4A80D009A
:10AD20002DE9FF4104460D46FFF75BFC0E4F0F4B2C
:10AD300053F820803B78A3B10D4B53F82060FEF709
:10AD4000E3FE3B780146CDE9026300232A460093E7
:10AD500020461523CDF8048003F059F904B0BDE86E
:10AD6000F081044BE9E700BFE33D082054AB0D0040
:10AD70008CA90D00F4A80D002DE9FF4104460D46F5
:10AD8000FFF72FFC0E4F0F4B53F820803B78A3B1F9
:10AD90000D4B53F82060FEF7B7FE3B780146CDE936
:10ADA000026300232A46009320461423CDF8048032
:10ADB00003F02DF904B0BDE8F081044BE9E700BFD2
:10ADC000DA3D082008AB0D008CA90D00F4A80D0099
:10ADD0002DE9FF4104460D46FFF703FC0E4F0F4BD4
:10ADE00053F820803B78A3B10D4B53F82060FEF759
:10ADF0008BFE3B780146CDE9026300232A4600938F
:10AE000020461323CDF8048003F001F904B0BDE817
:10AE1000F081044BE9E700BFD83D082070AA0D007F
:10AE20008CA90D00F4A80D002DE9FF4104460D4644
:10AE3000FFF7D7FB0E4F0F4B53F820803B78A3B1A1
:10AE40000D4B53F82060FEF75FFE3B780146CDE9DD
:10AE5000026300232A46009320461223CDF8048083
:10AE600003F0D5F804B0BDE8F081044BE9E700BF7A
:10AE7000D93D0820BCAA0D008CA90D00F4A80D0036
:10AE80002DE9FF4104460D46FFF7ABFB0E4F0F4B7C
:10AE900053F820803B78A3B10D4B53F82060FEF7A8
:10AEA00033FE3B780146CDE9026300232A46009336
:10AEB00020461123CDF8048003F0A9F804B0BDE8C2
:10AEC000F081044BE9E700BFF53D08204CAE0D00D2
:10AED0008CA90D00F4A80D002DE9FF4104460D4694
:10AEE000FFF77FFB0E4F0F4B53F820803B78A3B149
:10AEF0000D4B53F82060FEF707FE3B780146CDE985
:10AF0000026300232A46009320461023CDF80480D4
:10AF100003F07DF804B0BDE8F081044BE9E700BF21
:10AF2000533F08207CAF0D008CA90D00F4A80D0044
:10AF30002DE9FF4104460D46FFF753FB0E4F0F4B23
:10AF400053F820803B78A3B10D4B53F82060FEF7F7
:10AF5000DBFD3B780146CDE9026300232A460093DE
:10AF600020460F23CDF8048003F051F804B0BDE86B
:10AF7000F081044BE9E700BFEB3D082068AD0D0010
:10AF80008CA90D00F4A80D002DE9FF4104460D46E3
:10AF9000FFF727FB0E4F0F4B53F820803B78A3B1F0
:10AFA0000D4B53F82060FEF7AFFD3B780146CDE92D
:10AFB000026300232A46009320460E23CDF8048026
:10AFC00003F025F804B0BDE8F081044BE9E700BFC9
:10AFD000E83D082084AC0D008CA90D00F4A80D00FC
:10AFE0002DE9FF4104460D46FFF7FBFA0E4F0F4BCC
:10AFF00053F820803B78A3B10D4B53F82060FEF747
:10B0000083FD3B780146CDE9026300232A46009385
:10B0100020460D23CDF8048002F0F9FF04B0BDE80E
:10B02000F081044BE9E700BF673F082090B10D00B5
:10B030008CA90D00F4A80D002DE9FF4104460D4632
:10B04000FFF7CFFA0E4F0F4B53F820803B78A3B198
:10B050000D4B53F82060FEF757FD3B780146CDE9D4
:10B06000026300232A46009320460C23CDF8048077
:10B0700002F0CDFF04B0BDE8F081044BE9E700BF6A
:10B08000523F082030AF0D008CA90D00F4A80D0030
:10B090002DE9FF4104460D46FFF7A3FA0E4F0F4B73
:10B0A00053F820803B78A3B10D4B53F82060FEF796
:10B0B0002BFD3B780146CDE9026300232A4600932D
:10B0C00020460B23CDF8048002F0A1FF04B0BDE8B8
:10B0D000F081044BE9E700BF503F0820E4AE0D00CB
:10B0E0008CA90D00F4A80D002DE9FF410D46044682
:10B0F000FFF777FA104B064693F80080FFF771FAD6
:10B100000346B8F1000F15D00C4A52F82370FEF731
:10B11000FBFC0B4B014653F826302A4601930023D3
:10B1200020460093CDE90278012302F070FF04B0BD
:10B13000BDE8F081034AE8E7543F08208CA90D00E0
:10B140000CB30D00F4A80D00F0B585B004460D4613
:10B15000FFF747FA0D4B53F820700D4B1B7893B94E
:10B160000C4B53F82060FEF7CFFC0323002201466E
:10B17000CDE9003220460A232A46CDE9027602F0C4
:10B18000FDFE05B0F0BD044BEBE700BF38AC0D0091
:10B19000E73D0820A0AB0D00ECAB0D007FB50D46E0
:10B1A0000446FFF71EFA0646FEF7AEFC084B0022E7
:10B1B0000393084B014653F826302046029303239D
:10B1C000CDE900320F232A4602F0D8FE04B070BD4C
:10B1D000F8A50D0060A50D00F0B585B00D4604463C
:10B1E000FFF7FFF90646FFF7FCF90E4A034612681F
:10B1F000AAB10D4A52F82370FEF786FC0B4B0022D1
:10B2000053F826300146029301232046CDE900324F
:10B21000039704232A4602F0B1FE05B0F0BD044AAC
:10B22000E8E700BFF03D08203CB40D00C4A70D00C6
:10B23000A8A80D00F0B585B00D460446FFF7D1F97A
:10B240000646FFF7CEF90E4A03461268AAB10D4A28
:10B2500052F82370FEF758FC0B4B002253F82630AF
:10B260000146029301232046CDE9003203970323D0
:10B270002A4602F083FE05B0F0BD044AE8E700BFAD
:10B28000DC3D08203CB40D0014A50D00A8A80D005D
:10B290007FB50D460446FFF7A4F90646FEF734FCD9
:10B2A000084B00220393084B014653F826302046F2
:10B2B00002930123CDE900322A4602F05FFE04B07A
:10B2C00070BD00BF687D0D00C0B20D007FB50D469A
:10B2D0000446FFF786F90646FEF716FC084B0022E7
:10B2E0000393084B014653F826302046029303236C
:10B2F000CDE900322A4602F041FE04B070BD00BF25
:10B30000F8A50D0074B20D007FB50D460446FFF799
:10B3100068F90646FEF7F8FB084B00220393084B3A
:10B32000014653F82630204602930323CDE900322C
:10B3300080232A4602F022FE04B070BDF8A50D005D
:10B34000A4B30D007FB50D460446FFF74AF9064643
:10B35000FEF7DAFB084B00220393084B014653F833
:10B360002630204602930323CDE9003210232A46DB
:10B3700002F004FE04B070BDF8A50D00888207201D
:10B380007FB50D460446FFF72CF90646FEF7BCFBD9
:10B39000084B00220393084B014653F82630204601
:10B3A00002930323CDE9003202232A4602F0E6FD90
:10B3B00004B070BDF8A50D0048A60D0070B586B0AC
:10B3C0000D460446FFF70DF90646FEF79DFB0023E8
:10B3D0006322CDE90432094A0146127820460392DD
:10B3E000074A0292074A52F82620CDE90032092383
:10B3F0002A4602F09FFE06B070BD00BF643F0820E1
:10B40000F8A50D00ACB00D0070B586B00D46044631
:10B41000FFF7E7F80646FEF777FB01236322CDE945
:10B420000432094B01461B782A460393074B2046FA
:10B430000293074B53F8263001930023009308230F
:10B4400002F078FE06B070BD633F0820F8A50D003D
:10B4500060B00D0070B586B00D460446FFF7C1F828
:10B460000646FEF751FB00236322CDE90432094A68
:10B470000146127820460392074A0292074A52F880
:10B480002620CDE9003207232A4602F053FE06B0FB
:10B4900070BD00BFE93D0820F8A50D00D0AC0D003F
:10B4A00070B586B00D460446FFF79BF80646FEF7DA
:10B4B0002BFB01236322CDE90432094B01461B78A3
:10B4C0002A460393074B20460293074B53F8263036
:10B4D000019300230093062302F02CFE06B070BDFA
:10B4E000EA3D0820F8A50D001CAD0D0070B586B032
:10B4F0000D460446FFF775F80646FEF705FB0023E8
:10B500006322CDE90432094A0146127820460392AB
:10B51000074A0292074A52F82620CDE90032052355
:10B520002A4602F007FE06B070BD00BF653F082046
:10B53000F8A50D00F8B00D0070B586B00D460446B4
:10B54000FFF74FF80646FEF7DFFA01236322CDE945
:10B550000432094B01461B782A460393074B2046C9
:10B560000293074B53F826300193002300930423E2
:10B5700002F0E0FD06B070BD663F0820F8A50D00A2
:10B5800044B10D0070B586B00D460446FFF729F8AA
:10B590000646FEF7B9FA00236322CDE90432094AD0
:10B5A0000146127820460392074A0292074A52F84F
:10B5B0002620CDE9003203232A4602F0BBFD06B067
:10B5C00070BD00BFEC3D0820F8A50D00B4AD0D0026
:10B5D00070B586B00D460446FFF703F80646FEF741
:10B5E00093FA01236322CDE90432094B01461B780B
:10B5F0002A460393074B20460293074B53F8263005
:10B60000019300230093022302F094FD06B070BD65
:10B61000ED3D0820F8A50D0000AE0D0070B586B018
:10B620000D460446FEF7DDFF0646FEF76DFA0123E0
:10B630006322CDE90432094A01461278204603927A
:10B64000074A0292074A52F82620019200220092ED
:10B650002A4602F06FFD06B070BD00BFF73D08201E
:10B66000F8A50D0014B00D00F0B587B00D460446E6
:10B67000FEF7B7FF0D4B06461F78FEF745FA00238D
:10B680003B22CDE904320A4B01461B782A4603933C
:10B69000084B20460293084B53F82630CDE900733F
:10B6A000062302F047FD07B0F0BD00BF543F08205D
:10B6B000613F0820F8A50D0010A80D00F0B587B077
:10B6C0000D460446FEF78DFF0D4B06461F78FEF72C
:10B6D0001BFA00231722CDE904320A4B01461B78DE
:10B6E0002A460393084B20460293084B53F8263012
:10B6F000CDE90073052302F01DFD07B0F0BD00BFCA
:10B70000543F0820603F0820F8A50D002CA70D002D
:10B71000F0B587B00D460446FEF763FF0D4B0646B5
:10B720001F78FEF7F1F900230C22CDE904320A4B11
:10B7300001461B782A460393084B20460293084B88
:10B7400053F82630CDE90073032302F0F3FC07B071
:10B75000F0BD00BF543F0820D5820720F8A50D009A
:10B760005CA80D002DE9F04186B00E460546FEF7B7
:10B7700038FF0F4B074693F800800E4B1C88FEF7EE
:10B78000C3F90A238022CDE904320B4B30340293F3
:10B790000A4BE4B253F827300146CDE90083324624
:10B7A00002232846039402F0C5FC06B0BDE8F081F0
:10B7B000543F0820D6820720F8A50D00F0B30D00F5
:10B7C00073B50446FEF70DFF01220B4B06461A70B7
:10B7D000FEF7A4F9094B0546186801F0C3FF084BB2
:10B7E000024653F82630294600932046032302F0F0
:10B7F0008EFB02B070BD00BF4F3F0820D03D082037
:10B8000024AA0D0073B50446FEF7EBFE0646FEF7CC
:10B8100085F9084B0546186801F0A4FF064B02465F
:10B8200053F826302946009320460F2302F06FFB81
:10B8300002B070BDC83D082060A50D0073B5044678
:10B84000FEF7CFFE0646FEF769F9084B0546186875
:10B8500001F088FF064B024653F826302946009334
:10B860002046022302F053FB02B070BDCC3D0820FD
:10B8700048A60D0073B50446FEF7B3FE0646FEF774
:10B880004DF9084B0546186801F06CFF064B02465F
:10B8900053F82630294600932046002302F037FB58
:10B8A00002B070BDC43D082088820720114B01788A
:10B8B0001A6819B9022A10D80321196001780129E0
:10B8C00004D11968022908D80321196001780729D1
:10B8D00003D1196809B1013919601B68003A18BF12
:10B8E0000122003B18BF01239A4201D001F06ABF38
:10B8F000704700BFDC3D082001780D4B0F291A6806
:10B9000003D1022A08D8032119600178072903D13D
:10B91000196809B1013919601B68003A18BF012282
:10B92000003B18BF01239A4201D001F04BBF704782
:10B93000F03D0820F0B585B005460E46FEF751FEF5
:10B94000044602F069FCD0B90E4B1B78ABB10E4B2C
:10B9500053F82470FEF7D8F80C4B002253F824302B
:10B960000146029301232846CDE9003203970723BD
:10B97000324602F003FB05B0F0BD054BE8E70020BE
:10B98000F9E700BFE13D0820E0A60D0058B30D0027
:10B9900094A60D00F0B585B00E460546FEF721FED3
:10B9A0000746FEF71EFE04460220FDF749FD01286A
:10B9B0000CBF0B4B0B4B53F82440FEF7A5F80A4B7A
:10B9C000002253F827300146029301232846CDE98F
:10B9D000003203940223324602F0D0FA05B0F0BDE3
:10B9E00040A90D00FCA50D0078A70D0003782DE9F6
:10B9F000F0430A2B31D1DFF868C090F804E09CF8DE
:10BA00000020DFF860807245B0F80690B8F800308A
:10BA100021D1B9EB030318BF0123134EC778327845
:10BA2000124CBA4218BF0123857822784178AA4285
:10BA300018BF01230E4AA8F8009010788CF800E097
:10BA4000884218BF01233770257011702BB1BDE8F3
:10BA5000F04301F0B7BE0123DFE7BDE8F08300BF8C
:10BA6000D5820720D6820720D4820720603F082095
:10BA7000613F08207FB503F001F80B2809D90323A3
:10BA80008DF80030F8F70AFE8DF80800684603F0DC
:10BA90003BF807B05DF804FB38B503781E2B40F087
:10BAA000B2804378022B40F0AE80754B1A78002AA2
:10BAB00040F0A980012209201A70FDF7C1FC431E45
:10BAC000DBB2622B6F4B00F29F8018700A20FDF7EB
:10BAD000B7FC431EDBB2622B6B4B00F29B801870ED
:10BAE0000B20FDF7ADFC6328684B00F299801870BD
:10BAF0000C20FDF7A5FC431EDBB2622B644B00F269
:10BB0000958018700D20FDF79BFC6328614B00F2B7
:10BB1000938018700E20FDF793FC431EDBB2622B5E
:10BB20005D4B00F28F8018700F20FDF789FC6328B1
:10BB30005A4B00F28D8018701020FDF781FC431ED7
:10BB4000DBB2622B564B00F2898018701120FDF792
:10BB500077FC6328534B00F2878018701220FDF7A2
:10BB60006FFC0128504B00F2858018701320FDF700
:10BB700067FC4E4D4E4C28701420FDF761FC2B786D
:10BB800020701840FF2809D100211320297021704E
:10BB9000FDF75CFC14202178FDF758FC2B78454A12
:10BBA00003F001011170444AC3F340011170434A8C
:10BBB000C3F380011170424AC3F3C0011170414ABE
:10BBC000C3F300111170404AC3F3401111703F4A92
:10BBD000C3F3801111703E4ADB09137023783D4A8C
:10BBE00003F0010111703C4AC3F3400111703B4A5C
:10BBF000C3F3800111703A4AC3F3C0011170394A8E
:10BC0000C3F30013137038BD0F2109201970FDF71D
:10BC10001DFC5BE706210A201970FDF717FC5FE7A2
:10BC200032210B201970FDF711FC61E702210C2075
:10BC30001970FDF70BFC65E719210D201970FDF750
:10BC400005FC67E703210E201970FDF7FFFB6BE78A
:10BC500000210F201970FDF7F9FB6DE7032110207B
:10BC60001970FDF7F3FB71E7312111201970FDF711
:10BC7000EDFB73E7002112201970FDF7E7FB75E774
:10BC8000513F0820F73D0820ED3D0820EC3D0820FD
:10BC9000663F0820653F0820EA3D0820E93D08206E
:10BCA000633F0820643F0820E73D0820E53D082069
:10BCB000E63D0820503F0820523F0820673F0820FB
:10BCC000E83D0820EB3D0820533F0820F53D0820C3
:10BCD000D93D0820D83D0820DA3D0820E33D082062
:10BCE000F63D0820553F0820014B1878704700BFEB
:10BCF000543F0820014B1870704700BF543F082084
:10BD000008B5044B0521186801F0DAFC0122024B4A
:10BD10001A7008BDCC3D0820E23D082008B5044B50
:10BD20000421186801F0CCFC0122024B1A7008BDF6
:10BD3000CC3D0820F43D082083071AD16422B0FBD3
:10BD4000F2F302FB13039BB2ABB94FF4C873B0FB21
:10BD5000F3F203FB120080B2B0FA80F0400902391E
:10BD6000092911D8DFE801F00B100910091010099A
:10BD700010090020F3E70120F1E71E20704700289A
:10BD800014BF1D201C2070471F20704710B514469B
:10BD900032B1FFF7D1FFA04228BF2046C0B210BD8C
:10BDA0000120FCE72DE9F04186B00D460446FEF780
:10BDB00018FC124B064693F80080114B1A78114B71
:10BDC0001978114B1888FFF7E1FF0746FDF79CFE35
:10BDD00000231F22CDE904320C4B014602930C4B89
:10BDE0002A4653F826302046CDE9008303970423E2
:10BDF00002F0A0F906B0BDE8F08100BF543F082072
:10BE0000D4820720D5820720D6820720F8A50D000E
:10BE1000ACA50D002DE9F043037805462B2B87B028
:10BE200040F006814378022B40F0028101F014FCBF
:10BE30000F287ED1EC78AD78F4F7F0FE7E4A034609
:10BE4000CDE90145009201217C4A0020F7F708FE68
:10BE50007B4B7C4E1B787C4D9A1E7C4FDFF8F0812B
:10BE6000DFF8F091042A5ED8DFE802F003323E4B9F
:10BE7000540004F5FA64234601210020764AF7F7BE
:10BE8000EFFD348099F800300121049398F80030D8
:10BE9000724A03933B78002002932B7801933388F6
:10BEA0000093654BF7F7DCFD99F80030009398F8A4
:10BEB00000303A782978308802F0E6FA684B186842
:10BEC00001F068FC0F2007B0BDE8F04301F094BB1F
:10BED000234601210020634AF7F7C2FD0CB12C7004
:10BEE000D0E701232B70CDE7234601215E4A0020D5
:10BEF000F7F7B6FD224629783088FFF747FF3870FC
:10BF0000C0E7234601210020584AF7F7A9FD88F829
:10BF10000040B7E7234601210020554AF7F7A0FD6E
:10BF200089F80040AEE70121524A0020F7F798FD5A
:10BF3000A8E7A0F11003DBB26F2B06D8A978E87848
:10BF400007B0BDE8F04301F0ADBA032870D1AE7878
:10BF5000EC78F4F763FE484A034600920121374A21
:10BF60000020CDE90146F7F77BFD354B1B785A1EC3
:10BF7000082A57D8DFE802F00531363B40454A4FE2
:10BF80005400214609203D4B1C70FDF75FFADFF895
:10BF9000C4802F4F98F800302C4E04933B782A4DE4
:10BFA00003933378274C02932B7801210193238844
:10BFB0002A4A00930020304BF7F752FD98F80030E2
:10BFC00000933B7832782978208802F05DFA2C4B78
:10BFD000186801F0DFFB032075E72A4B21460A2091
:10BFE0001C70D2E7284B21460B201C70CDE7274B55
:10BFF00021460C201C70C8E7254B21460D201C70E3
:10C00000C3E7244B21460E201C70BEE7224B21467D
:10C010000F201C70B9E7214B214610201C70B4E79B
:10C020001F4BF9E70121134A0020F7F719FDAEE78E
:10C0300007B0BDE8F08300BFD6A40D007A980D00CC
:10C04000E43D0820D6820720D5820720D48207202D
:10C05000603F0820613F082089980D00F6980D0088
:10C06000C83D08209A980D00AB980D00BE980D00B1
:10C07000CE980D00E1980D00B6A40D00F73D082004
:10C08000D03D0820ED3D0820EC3D0820663F08200B
:10C09000653F0820EA3D0820E93D0820633F08206D
:10C0A000643F0820194B2DE9F341187058B3DFF8AD
:10C0B0006080B8F80000A0F5FA63362B23D8154F3E
:10C0C00039784B1E0B2B1ED8134E3478DCB1224628
:10C0D000FFF75CFE844216D8104C2378172B12D839
:10C0E0000F4D2B783B2B0ED801210E4B0E4A002012
:10C0F000F7F7B6FCB8F800303278009329783B782F
:10C100002078FEF79FFD02B0BDE8F081543F082083
:10C11000D6820720D5820720D4820720603F0820DE
:10C12000613F0820F7A40D003A990D00F0B503789F
:10C1300004462B2B85B003D146781EB1012E10D0BA
:10C1400005B0F0BD8478002CFAD101F097FA2046B2
:10C1500001F052FA9C4B186805B0BDE8F04001F0C0
:10C1600019BB01F079FA0F2800F2B98101F074FAD5
:10C1700003287FD01AD80228A07800F0A781E178A0
:10C18000247950EA010501D1012C05D00F2C28D8C3
:10C19000022C20D017D8D3D08B4B186801F0FAFAB4
:10C1A000002005B0BDE8F04001F026BA0F2820D0ED
:10C1B000237931460193E378844A0093A3780020E1
:10C1C000F7F74EFCBCE7032CBAD1814B186801F09D
:10C1D000E1FA2046E5E77F4B186801F0DBFA022020
:10C1E000DFE72206ACD4224605B0BDE8F04001F0FE
:10C1F000CDB8A578E7782479F4F710FD764A0346A0
:10C20000009231460020CDE90274744A0195F7F797
:10C2100027FC0F2D94D1012C17D1714E2146337874
:10C22000704A0020F7F71CFC307880F00100FFF71F
:10C2300039FF2146002033786B4AF7F711FC6B4B2E
:10C24000186801F0A7FA0F20ABE7072C40F0328105
:10C2500001210020664AF7F703FC664B197881F04C
:10C260000101197021B100210846FEF7DCFAE6E76A
:10C270000120FAE7A578E7782479F4F7CFFC5E4A45
:10C280000346009231460020CDE90274534A0195DD
:10C29000F7F7E6FB032D7FF453AFA4F10A030D2B50
:10C2A00000F20881DFE813F00E001D002D003B00B6
:10C2B00049005700650073008100BE00CE00DC001D
:10C2C000EA00F8004D4B12201978B1FA81F14909C2
:10C2D0001970FDF7BBF83E4B186801F05BFA0320BC
:10C2E0005FE7474A137883F001031370454A1178DA
:10C2F00023B141F0010113201170EAE701F0FE01C2
:10C30000F9E7414A137883F0010313703D4A11782D
:10C3100013B141F00201EEE701F0FD01EBE73B4A0A
:10C32000137883F001031370364A117813B141F08A
:10C330000401E0E701F0FB01DDE7354A137883F003
:10C34000010313702F4A117813B141F00801D2E7AD
:10C3500001F0F701CFE72F4A137883F00103137040
:10C36000284A117813B141F01001C4E701F0EF0140
:10C37000C1E7294A137883F001031370214A117829
:10C3800013B141F02001B6E701F0DF01B3E7234A22
:10C39000137883F0010313701A4A117813B141F036
:10C3A0004001A8E701F0BF01A5E71D4A137883F01B
:10C3B00001031370134A117813B141F080019AE719
:10C3C00001F07F0197E700BFC43D0820AA990D0046
:10C3D000D03D0820CC3D08209FA40D004D990D00B4
:10C3E000543F082065990D00E07F0D00C83D0820EE
:10C3F00085990D00E13D082089A40D00E73D082046
:10C40000503F0820E53D0820523F0820673F0820A4
:10C41000E83D0820EB3D0820533F0820F53D08206B
:10C42000D93D0820344A137883F001031370334A4E
:10C43000117823B141F001011420117049E701F096
:10C44000FE01F9E72E4A137883F0010313702B4A9B
:10C45000117813B141F00201EEE701F0FD01EBE7C5
:10C46000284A137883F001031370244A117813B11A
:10C4700041F00401E0E701F0FB01DDE7224A137817
:10C4800083F0010313701D4A117813B141F00801C4
:10C49000D2E701F0F701CFE71C4A137883F00103DC
:10C4A0001370164A117813B141F01001C4E701F07E
:10C4B000EF01C1E7164D2B78A3423FF441AE0121B5
:10C4C0000020144AF7F7CCFA2C7039E602287FF4E2
:10C4D00082AE24790F2C7FF47EAE0F4B76E60306F6
:10C4E0003FF52EAE94F904302279002BFFF628AEEA
:10C4F000E178A07878E600BFD83D0820E63D082026
:10C50000DA3D0820E33D0820F63D0820553F08208D
:10C51000E43D082095990D00C83D0820014B18788E
:10C52000704700BF4F3F08200022014B1A70704730
:10C530004F3F082010B5044600213C4A01F0D2F8D4
:10C54000204601213A4A01F0CDF820460221394A1D
:10C5500001F0C8F820460321374A01F0C3F820460D
:10C560000421364A01F0BEF820460521344A01F084
:10C57000B9F820460621334A01F0B4F820460721D5
:10C58000314A01F0AFF820460821304A01F0AAF8FC
:10C59000204609212E4A01F0A5F820460A212D4AFD
:10C5A00001F0A0F820460B212B4A01F09BF8204611
:10C5B0000C212A4A01F096F820460D21284A01F064
:10C5C00091F820460E21274A01F08CF820460F21D1
:10C5D000254A01F087F820461021244A01F082F80C
:10C5E00020461121224A01F07DF820461221214ADD
:10C5F00001F078F8204613211F4A01F073F8204615
:10C6000014211E4A01F06EF8204615211C4A01F043
:10C6100069F8204616211B4A01F064F82046BDE85F
:10C6200010401721184A01F05DB800BFC1B70C00D7
:10C630001DB60C00D1B50C0085B50C0039B50C0049
:10C64000EDB40C00A1B40C0055B40C0009B40C00FE
:10C65000BDB30C0049B10C0091B00C0039B00C0016
:10C66000E1AF0C0089AF0C0031AF0C00D9AE0C006B
:10C6700081AE0C0029AE0C00D1AD0C0079AD0C00E0
:10C6800021AD0C00C9AC0C0071AC0C00F8B5FDF785
:10C69000A8FF0026754C764B074653F820502046DD
:10C6A000267003F0F3FE2946C0F164022046714D66
:10C6B00003F01AFF704B71491A7828462E7003F068
:10C6C00023FE204603F0E2FE2946C0F16402204624
:10C6D00003F00AFF204603F0D9FE6949C0F1640265
:10C6E000204603F001FF674B64491A7828462E70F4
:10C6F00003F00AFE204603F0C9FE2946C0F1640299
:10C70000204603F0F1FE204603F0C0FE5E49C0F172
:10C710006402204603F0E8FE5C4B58491A7828462C
:10C720002E7003F0F1FD204603F0B0FE2946C0F163
:10C730006402204603F0D8FE204603F0A7FE5049CD
:10C74000C0F16402204603F0CFFE514B4B491A78EA
:10C7500028462E7003F0D8FD204603F097FE2946A8
:10C76000C0F16402204603F0BFFE204603F08EFEB7
:10C770004549C0F16402204603F0B6FE454B3F49EF
:10C780001A7828462E7003F0BFFD204603F07EFE87
:10C790002946C0F16402204603F0A6FE204603F0BD
:10C7A00075FE3749C0F16402204603F09DFE3A4B06
:10C7B00032491A7828462E7003F0A6FD204603F071
:10C7C00065FE2946C0F16402204603F08DFE204636
:10C7D00003F05CFE3149C0F16402204603F084FEA0
:10C7E0002F4B26491A7828462E7003F08DFD2046DF
:10C7F00003F04CFE2946C0F16402204603F074FEAB
:10C80000204603F043FE1E49C0F16402204603F0B7
:10C810006BFE244B19491A7828462E7003F074FDDC
:10C82000204603F033FE2946C0F16402204603F09F
:10C830005BFE204603F02AFE1B49C0F1640220463D
:10C8400003F052FE194B1B786BB9194B204653F875
:10C85000275003F01BFE2946C0F16402204603F076
:10C8600043FE0248F8BD134BF0E700BFEB3E082043
:10C87000D8A90D00563F0820ED3D0820C8990D00AD
:10C88000CB990D00EC3D0820CD990D00663F0820A6
:10C89000653F0820EA3D0820E93D0820D2990D00B7
:10C8A000633F0820643F0820D6990D00E73D08202B
:10C8B000A0AB0D00ECAB0D002DE9F74FFDF791FE9D
:10C8C0000023AB4D04462B70AA4BDFF8ACB21A78AC
:10C8D000DFF8A8A2DFF8A892DFF8A882AA4FAB4E33
:10C8E000D2B99BF80020BAB99AF80020A2B999F8F9
:10C8F00000208AB998F8002072B93A7862B9327883
:10C9000052B9A34A12783AB9A24A127822B9A24A75
:10C910001278002A00F00F81A04A954852F824109E
:10C92000019103F0B3FD0199C0F1F302904803F0C7
:10C93000DBFD904B1B78ABB1994B8D4853F824101D
:10C94000019103F0A3FD0199C0F1F302884803F0BF
:10C95000CBFD874803F09AFD9249C0F1F302844869
:10C9600003F0C2FD9BF80030A3B18F4B804853F811
:10C9700024B003F08BFD5946C0F1F3027C4803F06C
:10C98000B3FD7B4803F082FD8649C0F1F30278488D
:10C9900003F0AAFD9AF80030A3B1844B744853F811
:10C9A00024A003F073FD5146C0F1F302704803F078
:10C9B0009BFD6F4803F06AFD7A49C0F1F3026C48B1
:10C9C00003F092FD99F80030A3B1794B684853F811
:10C9D000249003F05BFD4946C0F1F302644803F084
:10C9E00083FD634803F052FD6E49C0F1F3026048D5
:10C9F00003F07AFD98F80030A3B16E4B5C4853F811
:10CA0000248003F043FD4146C0F1F302584803F08F
:10CA10006BFD574803F03AFD6249C0F1F3025448F8
:10CA200003F062FD3B78A3B1634B514853F8247087
:10CA300003F02CFD3946C0F1F3024D4803F054FDDC
:10CA40004B4803F023FD5749C0F1F302484803F077
:10CA50004BFD3378A3B1594B454853F8246003F09C
:10CA600015FD3146C0F1F302414803F03DFD404859
:10CA700003F00CFD4B49C0F1F3023D4803F034FDD7
:10CA8000434B1B78A3B14E4B394853F8246003F055
:10CA9000FDFC3146C0F1F302354803F025FD344872
:10CAA00003F0F4FC3F49C0F1F302314803F01CFDF0
:10CAB000384B1B78A3B1434B2D4853F8246003F047
:10CAC000E5FC3146C0F1F302294803F00DFD28488A
:10CAD00003F0DCFC3349C0F1F302254803F004FD08
:10CAE0002D4B1B78A3B1384B214853F8246003F039
:10CAF000CDFC3146C0F1F3021D4803F0F5FC1C48A3
:10CB000003F0C4FC2749C0F1F302194803F0ECFC20
:10CB1000174803F0BBFC2E230238C0B22B5400236D
:10CB200028444370124803F0B1FC2849C0F1F302D5
:10CB30000F4803F0D9FCDFF89880264F98F80030B2
:10CB4000254E2BB93B781BB93378002B00F096802B
:10CB5000224B074853F8249003F098FC4946C0F153
:10CB6000F302034803F0C0FC98F8003038E000BF3F
:10CB7000F83D0820523F0820673F0820E83D082084
:10CB8000533F0820D93D0820D83D0820DA3D082031
:10CB9000E33D0820F63D0820553F0820DCB10D009C
:10CBA00030AF0D00DA990D0090B10D0084AC0D008E
:10CBB0007CAF0D00BCAA0D0070AA0D0008AB0D00E3
:10CBC00054AB0D0098AE0D00C8AF0D0036980D00A7
:10CBD000503F0820EB3D0820F53D082028B20D000D
:10CBE000A3B1284B284853F8248003F04FFC41465A
:10CBF000C0F1F302244803F077FC234803F046FC1D
:10CC00002249C0F1F302204803F06EFC3B78A3B147
:10CC10001F4B1D4853F8247003F038FC3946C0F10F
:10CC2000F302194803F060FC174803F02FFC174982
:10CC3000C0F1F302144803F057FC3378A3B1154B4D
:10CC4000114853F8244003F021FC2146C0F1F302BF
:10CC50000D4803F049FC0C4803F018FC0B49C0F1E7
:10CC6000F302094803F040FC074803F00FFC2E23B1
:10CC70000238C0B22B54002305446B70024803B045
:10CC8000BDE8F08FE4AE0D00F83D0820DA990D0004
:10CC900068AD0D004CAE0D00322330B585B0ADF857
:10CCA0000430124B1B788DF80630FFF7EFFC029032
:10CCB000FFF702FE0546029803F0E8FBC0F1F3041B
:10CCC000284603F0E3FBE4B2A04207D92E222B1939
:10CCD00003F8012C03F8022C03F8032C002301A80D
:10CCE0002B550395FDF760FC05B030BDF73D0820DE
:10CCF00010B504460021144A00F0F4FC204601213E
:10CD0000124A00F0EFFC20460221114A00F0EAFC32
:10CD1000204603210F4A00F0E5FC204604210E4A7C
:10CD200000F0E0FC204605210C4A00F0DBFC204628
:10CD300006210B4A00F0D6FC2046BDE81040072132
:10CD4000084A00F0CFBC00BF05B80C00E9B00C00E9
:10CD500065B70C0011B70C00A5BD0C00BDB60C00EA
:10CD600069B60C0035B90C0010B5044600211B4A09
:10CD700000F0B8FC01212046194A00F0B3FC022162
:10CD80002046184A00F0AEFC03212046164A00F067
:10CD9000A9FC04212046154A00F0A4FC05212046E8
:10CDA000134A00F09FFC134B1B7823B1124B052153
:10CDB000186800F085FC114B1B7823B10E4B042141
:10CDC000186800F07DFC0E4B1B7833B1BDE81040B5
:10CDD000094B0321186800F073BC10BD3DB80C006E
:10CDE00091B20C0095B90C0035B20C00D9B10C0011
:10CDF0009DB10C00E23D0820CC3D0820F43D082008
:10CE0000E03D082010B504460021114A00F06AFCFC
:10CE1000012120460F4A00F065FC022120460E4AFF
:10CE200000F060FC032120460C4A00F05BFC04216A
:10CE300020460B4A00F056FC0A4B1B7833B1BDE884
:10CE40001040094B0321186800F03ABC10BD00BF28
:10CE500075B80C0081B30C0045B30C0009B30C008D
:10CE6000CDB20C00623F0820C43D082010B52B2035
:10CE70002649F6F783FC264C2B202649F6F77EFC44
:10CE80000A202549F6F77AFC21460020F6F776FCC1
:10CE900021460120F6F772FC2146204C0720F6F7C8
:10CEA0006DFC21460F20F6F769FC21460720F6F7B6
:10CEB00065FC07201A49F6F761FC1A491E20F6F7AF
:10CEC0005DFC00F0EDFB184B1860FFF79BFF00F0D6
:10CED000E7FB164B1860FFF747FF00F0E1FB144B30
:10CEE0001860FFF705FF00F0DBFB124B186000F045
:10CEF000EDFA00F0D5FB104B1860FFF71BFB00F0BC
:10CF0000CDFBBDE8104000F069BC00BF2DC10C0096
:10CF1000ADB80C0015BE0C00EDB90C00F9B80C0052
:10CF200075BA0C0099BA0C00C43D0820CC3D08200D
:10CF3000C83D0820D43D0820D03D08207FB50D46CF
:10CF40000446FDF74EFB0646FCF7DEFD084B0022CB
:10CF50000393084B014653F82630204602930323DF
:10CF6000CDE900320A232A4601F008F804B070BD6A
:10CF700098C00D009CC00D00F0B585B00E4605466A
:10CF8000FDF72FFB0746FDF72CFB04460020FCF7BE
:10CF900057FA00F0FD0001280CBF0B4B0B4B53F868
:10CFA0002440FCF7B1FD0A4B002253F8273001461C
:10CFB000029303232846CDE9003203940923324625
:10CFC00000F0DCFF05B0F0BDB0C20D00F4C50D00EF
:10CFD0008CC60D00F0B585B00E460546FDF701FB89
:10CFE0000746FDF7FEFA04460020FCF729FA01384F
:10CFF000012894BF0B4B0C4B53F82440FCF784FDE5
:10D000000A4B002253F82730014602930323284697
:10D01000CDE9003203940823324600F0AFFF05B09B
:10D02000F0BD00BFD8C60D0034C10D00ECBD0D0031
:10D03000F0B585B00E460546FDF7D3FA0746FDF775
:10D04000D0FA044601F01AFD0B2833D8DFE800F0CF
:10D05000061C1E2022242E3026282A2C164B53F87C
:10D060002440FCF751FD154B002253F827300146B0
:10D07000029303232846CDE9003203940623324667
:10D0800000F07CFF05B0F0BD0D4BE8E70D4BE6E787
:10D090000D4BE4E70D4BE2E70D4BE0E70D4BDEE710
:10D0A0000D4BDCE70D4BDAE70D4BD8E70D4BD6E720
:10D0B0000D4BD4E70D4CD4E75CC50D0064C20D00E8
:10D0C000B4BF0D00E8C00D001CBF0D00A0BD0D00D9
:10D0D000D0BE0D00C4C40D0068BF0D0070C70D00A8
:10D0E0004CC00D0024C70D0000C00D0098C00D00FD
:10D0F000F0B585B00E460546FDF773FA0746FDF715
:10D1000070FA04460520FCF79BF9B0B1012816D14E
:10D110000F4B53F82440FCF7F7FC0E4B002253F85A
:10D1200027300146029303232846CDE900320394B9
:10D13000324600F023FF05B0F0BD074BE9E7064B90
:10D140000021052053F82440FCF780F9E3E700BFF5
:10D1500084BE0D00A8C50D0048C30D002DE9FF4198
:10D1600005460E46FDF73DFA144B074693F800803E
:10D17000B8F1000F03D000210320FCF767F9FDF799
:10D1800030FA04460320FCF75BF901280CBF0C4B76
:10D190000C4B53F82440FCF7B7FC0B4B014653F8FB
:10D1A00027303246CDE901830323284600930394B8
:10D1B000012300F0E3FE04B0BDE8F0816F3F0820DA
:10D1C000CCC10D0018C20D0080C10D002DE9F04347
:10D1D00085B00F460646FDF704FA05460820FCF721
:10D1E0002FF9124B044653F82590114B93F8008009
:10D1F000B8F1000F16D1012816D10E4B53F8259027
:10D20000FCF782FC0C4B014653F825303A46CDE939
:10D21000008330460723CDE9029400F0F8FE05B004
:10D22000BDE8F0830024EBE74446E9E7E0C30D00E6
:10D23000703F082078C40D0010C50D002DE9F041A5
:10D2400086B00F460646FDF7CCF905460720FCF7E9
:10D25000F7F880460520FCF7F3F80446FCF754FC89
:10D2600000233C22013C18BF0124CDE904320A4BC3
:10D27000014653F825303A460293084B304653F89E
:10D280002530CDF80C8001930094052300F052FF67
:10D2900006B0BDE8F08100BF40C60D0094C30D008C
:10D2A0002DE9F04186B00F460646FDF79AF905468E
:10D2B0000620FCF7C5F880460520FCF7C1F80446B7
:10D2C000FCF722FC00233C22013C18BF0124CDE9DD
:10D2D00004320A4B014653F825303A460293084B74
:10D2E000304653F82530CDF80C8001930094042388
:10D2F00000F020FF06B0BDE8F08100BF40C60D0081
:10D300002CC40D00F0B587B00E460546FDF769F94F
:10D3100004460420FCF794F80746FCF7F5FB0023CD
:10D320001E22CDE90432094A014652F8242028463B
:10D330000292074A039752F82420CDE900320223D3
:10D34000324600F0F7FE07B0F0BD00BFFCC20D0092
:10D3500038BE0D0073B50446FDF743F90646FCF7E9
:10D36000DDFB084B0546186800F0FCF9064B024649
:10D3700053F82630294600932046102300F0C7FDBD
:10D3800002B070BD683F0820888207207FB548B989
:10D390003B4B186800F0FEF9102007B05DF804EB75
:10D3A00000F02AB9102868D1531E092B62D8DFE893
:10D3B00003F005611161611B2B334B560320FCF711
:10D3C0003FF8411CC9B2022908BF00210320FCF725
:10D3D0003DF8DDE70520FCF733F8411CC9B202290E
:10D3E00008BF00210520F2E701F048FB0130C0B280
:10D3F0000C2828BF002003238DF8080068468DF80C
:10D40000003001F081FBC3E70820FCF719F8411E4A
:10D4100018BF01210820DAE70020FCF711F80138D5
:10D42000C0B2032808D8174B19560020C9B2FCF720
:10D430000DF801F077FCABE7134B01210020134AF4
:10D44000F6F70EFB0321F0E70020FBF7F9FF0138A8
:10D45000C0B2032801D80E4BE6E70E4BEDE70121E1
:10D460000D4B0E4A0020F6F7FBFAFCF705F8FBF728
:10D4700069FC8DE70A4B1A708AE707B05DF804FB78
:10D48000683F08204DBD0D0086BD0D0088B40D001D
:10D4900051BD0D006DBD0D0055BD0D002C7D0D0065
:10D4A0006D3F0820084B01461B78042B06D0052B46
:10D4B00006D0022B06D10420FBF7C8BF0620FBE7ED
:10D4C0000720F9E7704700BF6D3F082010B5394CC1
:10D4D0000021394A206000F005F90121374A20680F
:10D4E00000F000F90221364A206800F0FBF8032121
:10D4F000344A206800F0F6F80421334A206800F02E
:10D50000F1F80521314A206800F0ECF80621304A94
:10D51000206800F0E7F807212E4A206800F0E2F8C2
:10D5200008212D4A206800F0DDF809212B4A2068E7
:10D5300000F0D8F80A212A4A206800F0D3F8294BD5
:10D540001B781BB10721206800F0BAF8264B1B7826
:10D550001BB10121206800F0B3F8244B1B785BB1AC
:10D560000321206800F0ACF80421206800F0A8F83E
:10D570000521206800F0A4F81D4B1B783BB1012168
:10D58000206800F09DF80221206800F099F8194BFE
:10D590001B786BB12068062100F092F82068082102
:10D5A00000F08EF820680921BDE8104000F088B82E
:10D5B00010BD00BF683F082055D30C005DD10C00A2
:10D5C00005D30C00F1D00C00A1D20C003DD20C0010
:10D5D00031D00C00CDD10C00D5CF0C0079CF0C0090
:10D5E0003DCF0C00703F08206F3F0820713F08209E
:10D5F0006E3F08206C3F082010B40B4A0B49B2F96B
:10D600000030CC1814F8014C844200D123B9092B06
:10D61000C85403DC0133138010BC70470021044A56
:10D62000084610BCF6F71CBA723F0820D8820720C3
:10D63000BCC70D00FF21064AB2F90030002BC4BF61
:10D6400003F1FF331380B2F90030024AD15470471E
:10D65000723F0820D8820720064BB3F90030002B18
:10D66000C1BF03F1FF33044A1BB2D05CD8BFFF2017
:10D67000704700BF723F0820D88207200A23FF218D
:10D68000044A013B13F0FF0302F8011BF9D1024ADF
:10D6900013807047D8820720723F0820FFF7EEBF43
:10D6A0008C21012002F0F8B908B100238360704793
:10D6B00028B1012303FA01F103680B4303607047AB
:10D6C00030B1012303FA01F1036823EA0103036087
:10D6D000704728B1012303FA01F143680B4343600B
:10D6E0007047000010B50C4690B1202906D9BDE85E
:10D6F00010400021074A0846F6F7B2B900EB810353
:10D70000DA60FFF7E6FF2146BDE81040FFF7D0BF23
:10D7100010BD00BFE1C70D00F8B50446806820B910
:10D72000234601210E4AF6F79BF9D4E9015301265D
:10D7300004F10C0706FA03F10D4203F1010205D1D1
:10D7400013461F2AF6D90020A260F8BD20680142C6
:10D75000F6D057F8230013460028F2D0A260F4E771
:10D7600092950D0001230246F0B544681D46002045
:10D7700002F10C0605FA03F10C4207D01768394292
:10D7800004D056F8231009B10130C0B20133202B68
:10D79000F0D1F0BD094B13B51860FCF779FD084BCB
:10D7A0001C68F3F73BFA052302460093012100238E
:10D7B0002046F3F7F7FF02B010BD00BF783F082006
:10D7C0007C3F082008B5FCF763FD034B1868BDE8F3
:10D7D0000840FFF7DFBF00BF743F082007B5074BC5
:10D7E0004FF4FA710093002305481A46F3F7B4FF8B
:10D7F000044B186003B05DF804FB00BF29D80C008F
:10D80000F6C70D007C3F08202A2300B58BB001909D
:10D8100068468DF80030F5F7D3FF6846F5F7D0FF7E
:10D820000BB05DF804FB000010B5054C206830B16A
:10D83000FFF7EAFF2268034B1A600023236010BD44
:10D84000783F0820743F082090F80831C154013314
:10D8500080F808317047000003781B2B02BF426834
:10D86000014B1A60704700BF843F08200378072BE4
:10D8700004D1034A13780BB1013B1370704700BF0A
:10D88000E282072038B503780446102B1AD183783A
:10D89000012B11D10C4A13700C4D62782B789A42EF
:10D8A00007D0012100200A4AF6F7DAF80948FCF708
:10D8B000ADFD63782B7005E0002BEDD1024B1B789A
:10D8C000002BE9D038BD00BF803F0820E38207204D
:10D8D000FDC70D00C9DA0C0038B503780446172BD4
:10D8E0000ED1084D42782B789A4207D001210020B2
:10D8F000054AF6F7B5F80548FCF788FD63782B7004
:10D9000038BD00BFE682072013C80D00C9DA0C003D
:10D9100038B503780446162B0ED1084D42782B7883
:10D920009A4207D001210020054AF6F799F80548E8
:10D93000FCF76CFD63782B7038BD00BFE5820720D3
:10D9400027C80D00C9DA0C0038B503780446132B3C
:10D9500014D10B4D42782B789A4207D00121002038
:10D96000084AF6F77DF80848FCF750FD63782B70FD
:10D97000FBF7F4F910B10A22044B1A7038BD00BF4E
:10D98000E48207203AC80D00C9DA0C00E2820720C1
:10D9900070B5474B04461D780E460023002D70D00D
:10D9A000FF2180F8083180F8093100F20712431E88
:10D9B00003F8011F9A42FBD100222046C72184F8B8
:10D9C0000A2184F80B21FFF73FFFC821FFF73CFF36
:10D9D0003146FFF739FF1021FFF736FF1146FFF7F9
:10D9E00033FFFFF731FF334B1B789342324B08BFB5
:10D9F00061211B78002B3BD041F002012F4B1B789B
:10DA00000BB941F008012046FFF71EFF2C4B1A68A6
:10DA1000C2F30721FFF718FFD1B2FFF715FF00216E
:10DA2000FFF712FF2021FFF70FFF94F80821931F43
:10DA3000DBB2991D914263710FD1E278A178114454
:10DA40002279114406221944C9B205339A4212DDE3
:10DA5000C9432046C9B2FFF7F7FE637994F808116D
:10DA600007338B4213D12046FCF724FE012070BD02
:10DA700041F00601C2E7A05C01320144C9B292B292
:10DA8000E4E7F5F7C1FF0120FAF726FC0EE094F871
:10DA90000A310BB10329E6D800210A4A0846F5F7F6
:10DAA000DFFF204694F80811FCF704FE0020DEE7B3
:10DAB000E2820720E4820720E6820720E382072033
:10DAC000843F0820FE940D00FFF762BF08B51320C5
:10DAD0000C49F5F753FE10200B49F5F74FFE1720C0
:10DAE0000A49F5F74BFE16200949F5F747FE1B20BA
:10DAF0000849F5F743FEBDE8084007200649F5F759
:10DB00003DBE00BF49D90C0085D80C00D9D80C0007
:10DB100011D90C0059D80C006DD80C0090F80831C0
:10DB2000C154013380F8083170470000044B1A7863
:10DB3000824203D018700348FCF768BC704700BFEE
:10DB4000883F082025DC0C0038B500230D4604462C
:10DB5000FF2180F8083180F8093100F20712431ED6
:10DB600003F8011F9A42FBD100222046C72184F806
:10DB70000A2184F80B21FFF7D1FFC821FFF7CEFF60
:10DB80002946FFF7CBFF1821FFF7C8FF1146FFF723
:10DB9000C5FF0321FFF7C2FF1146FFF7BFFF1F4B71
:10DBA0001978FFF7BBFF0221FFF7B8FF627994F8FD
:10DBB0000831911D99420FD1A178E378114419449D
:10DBC0002379053219440623C9B293420FDDC943B4
:10DBD0002046C9B2FFF7A2FF637994F80811073312
:10DBE0008B420AD12046FCF765FD012038BDE05C80
:10DBF00001330144C9B29BB2E7E794F80A310BB193
:10DC00000329EFD80021064A0846F5F729FF2046E8
:10DC100094F80811FCF74EFD0020E7E7883F082044
:10DC2000FE940D00FFF790BF90F80831C154013306
:10DC300080F8083170470000002370B580F8083183
:10DC400080F8093104460E46431E00F20711FF20FA
:10DC500003F8010F9942FBD100252046C72184F823
:10DC60000A5184F80B51FFF7DFFFC821FFF7DCFFF3
:10DC70003146FFF7D9FF1921FFF7D6FF2946FFF7F5
:10DC8000D3FF0E21FFF7D0FF1178FFF7CDFF5178BA
:10DC9000FFF7CAFF9178FFF7C7FFD178FFF7C4FFFE
:10DCA0002946FFF7C1FF5179FFF7BEFF2946FFF76D
:10DCB000BBFF117AFFF7B8FFFF21FFF7B5FFFFF7B2
:10DCC000B3FFFFF7B1FFFFF7AFFF2946FFF7ACFF48
:10DCD000FFF7AAFF627994F80831911D99420FD19C
:10DCE000A178E378114419442379053219440623B5
:10DCF000C9B293420FDDC9432046C9B2FFF794FF72
:10DD0000637994F8081107338B420AD12046FCF757
:10DD1000D1FC012070BDE05C01330144C9B29BB26B
:10DD2000E7E794F80A310BB10329EFD80021054A3F
:10DD30000846F5F795FE204694F80811FCF7BAFC62
:10DD40000020E7E7FE940D0090F80831C15401333C
:10DD500080F8083170470000002370B580F8083162
:10DD600080F8093104460E46431E00F20711FF20D9
:10DD700003F8010F8B42FBD100252046C72184F810
:10DD80000A5184F80B51FFF7DFFFC821FFF7DCFFD2
:10DD90003146FFF7D9FF1A21FFF7D6FF2946FFF7D3
:10DDA000D3FFFFF7D1FF5178FFF7CEFF9178FFF750
:10DDB000CBFFD178FFF7C8FF1179FFF7C5FF517985
:10DDC000FFF7C2FF9179FFF7BFFFD179FFF7BCFFE3
:10DDD000117AFFF7B9FF94F80821931FDBB2991D60
:10DDE000914263710FD1E278A178114422791144F4
:10DDF00006221944C9B205339A420FDDC9432046B1
:10DE0000C9B2FFF7A1FF637994F8081107338B4279
:10DE10000AD12046FCF74EFC012070BDA05C013207
:10DE20000144C9B292B2E7E794F80A310BB1032971
:10DE3000EFD80021034A0846F5F712FE94F80811BE
:10DE4000E7E700BFFE940D0090F80831C15401339C
:10DE500080F8083170470023FF2180F8083180F8EE
:10DE6000093100F20712431E03F8011F9342FBD150
:10DE7000002380F80A3180F80B31704710B58C18F8
:10DE8000A24200D110BD12F8011BFFF7DDFFF7E73A
:10DE900010B5437990F8081107338B42044604D13A
:10DEA0002046FCF707FC012010BD90F80A310BB1A9
:10DEB0000329F5D80021054A0846F5F7D1FD20468B
:10DEC00094F80811FCF7F6FB0020EDE7FE940D0036
:10DED000427990F80831911D994210B415D181789A
:10DEE000C378114419440379053219440623C9B291
:10DEF000934204DDC94310BCC9B2FFF7A5BFC45C9F
:10DF000001332144C9B29BB2F2E710BC70472DE93E
:10DF1000F0410F4614461E46DDF81880FFF79BFFC0
:10DF2000C721FFF791FFC821FFF78EFF3946FFF7A2
:10DF30008BFF3021FFF788FF2146FFF785FF002187
:10DF4000FFF782FF2146FFF77FFF31460546FFF7C7
:10DF50007BFF404602F09AFA4246C1B22846FFF7DC
:10DF60008DFF0021FFF770FF95F80831063B6B71BC
:10DF7000FFF7AEFFBDE8F041FFF78ABF2DE9F84F8C
:10DF80000F46DDE90C9816461D469DF828B09DF811
:10DF90002CA0FFF760FFC721FFF756FFCA21FFF74C
:10DFA00053FF3946FFF750FF3021FFF74DFF314651
:10DFB000FFF74AFF0021FFF747FF5946FFF744FFED
:10DFC0002946FFF741FF51460446FFF73DFF48460B
:10DFD00002F05CFA4A46C1B22046FFF74FFF00212B
:10DFE000FFF732FF404602F051FA4246C1B22046E6
:10DFF000FFF744FF0021FFF727FF94F80831063BA5
:10E000006371FFF765FFBDE8F84FFFF741BF2DE9EA
:10E01000F84F0F46DDE90B9816461D469DF828B0CF
:10E020009DF834A0FFF717FFC721FFF70DFFCA21A6
:10E03000FFF70AFF3946FFF707FF3021FFF704FF1C
:10E040003146FFF701FF0021FFF7FEFE0421FFF735
:10E05000FBFE2946FFF7F8FE59460446FFF7F4FE9B
:10E06000484602F013FA4A46C1B22046FFF706FFBF
:10E070000021FFF7E9FE404602F008FA4246C1B22D
:10E080002046FFF7FBFE0021FFF7DEFEFFF7DCFE78
:10E090005146FFF7D9FE94F80831063B6371FFF74C
:10E0A00017FFBDE8F84FFFF7F3BE2DE9F0470F4625
:10E0B00016461D46DDF824809DF820A09DF8289086
:10E0C000FFF7C9FEC721FFF7BFFECA21FFF7BCFE5D
:10E0D0003946FFF7B9FE3021FFF7B6FE3146FFF7AC
:10E0E000B3FE0021FFF7B0FE0521FFF7ADFE294684
:10E0F000FFF7AAFE51460446FFF7A6FE404602F08F
:10E10000C5F94246C1B22046FFF7B8FE0021FFF72D
:10E110009BFEFFF799FEFFF797FE4946FFF794FE37
:10E1200094F80831063B6371FFF7D2FEBDE8F04773
:10E13000FFF7AEBE2DE9F74F0F46DDE90D98164605
:10E140001D469DF830209DF840309DF83CA000937E
:10E150009DF844B00192FFF77EFEC721FFF774FEE1
:10E16000CA21FFF771FE3946FFF76EFE3021FFF737
:10E170006BFE3146FFF768FE0021FFF765FE0621C2
:10E18000FFF762FE2946FFF75FFE019A044611463B
:10E19000FFF75AFE484602F079F94A46C1B22046D6
:10E1A000FFF76CFE0021FFF74FFE404602F06EF9CC
:10E1B0004246C1B22046FFF761FE0021FFF744FE50
:10E1C000FFF742FE009B1946FFF73EFE0021FFF7D6
:10E1D0003BFE5946FFF738FE0021FFF735FE51465A
:10E1E000FFF732FE94F80831063B6371FFF770FECB
:10E1F00003B0BDE8F04FFFF74BBE07B5837A03F5D8
:10E20000FA630093437A027AC1798079FCF71AFDA8
:10E2100003B05DF804FB0000014B1878704700BFA5
:10E22000893F082010B5837904466BB90121074B5B
:10E2300002201970064A074BF5F712FC217AE079A3
:10E24000BDE81040FCF7EFBA10BD00BF893F0820C1
:10E250004FC80D0067C80D0010B504468379074A02
:10E2600001210020F5F7FCFBA379BDE810401A2B33
:10E2700096BF034A0120D05CFCF7E4BA7AC80D00CF
:10E280008DC80D001FB5437B0393037B0293C37AB4
:10E290000193837A0093437A027A8179C079FCF7FB
:10E2A000DDF805B05DF804FB10B50446012100203F
:10E2B000054AF5F7D5FBA379022B04D1E079BDE837
:10E2C0001040FCF705B910BDA8C80D0024232DE9A6
:10E2D000F04300254FF02E098BB08DF80030837984
:10E2E000DFF844808DF80130C41D0DF1020714F8E9
:10E2F000016B1D2D07F8016B0AD10021424608462B
:10E30000F5F7AEFB42F62E638DF81D90ADF81E308A
:10E310000135EDB21E2D01D0002EE8D16846F5F78B
:10E320004FFA0BB0BDE8F083AEC80D008379027AD6
:10E33000C17903F00F00FCF7B3B800002DE9F047F6
:10E3400000252523A9464FF02E0A8AB08DF800300B
:10E350008379DFF854808DF80130C37900F1080427
:10E360008DF802300DF1030714F8016B1D2D07F82D
:10E37000016B0CD1002142460846F5F771FB42F6CD
:10E380002E638DF81DA0ADF81E308DF8209001355C
:10E39000EDB21E2D01D0002EE6D16846F5F710FA39
:10E3A0000AB0BDE8F08700BFAEC80D00704700009E
:10E3B00070B5012104461A4A00208AB0F5F750FBD7
:10E3C0000025184E94F80811EBB2994214D8012197
:10E3D0000020154AF5F744FBA3792BB9E3791BB963
:10E3E000237A8BB1012B18D0227AE179A0790AB077
:10E3F000BDE87040FCF7A2B8324601210020E35C82
:10E40000F5F72EFB0135DDE7FFF714F934236846F5
:10E410008DF80030F5F7D4F9E6E7FFF70BF9E3E7FD
:10E42000CEC80D00E5970D00AA810D0070B5012141
:10E4300004460F4A0020F5F713FB00250D4E94F813
:10E440000811EBB299420AD8012100200A4AF5F7D7
:10E4500007FBE179A079BDE87040FCF78BB8324644
:10E4600001210020E35CF5F7FBFA0135E7E700BF87
:10E47000CEC80D00E5970D00AA810D00014B186074
:10E48000704700BF8C3F082030B4074C9DF80850FF
:10E4900024681CB1A446029530BC60472146204642
:10E4A00030BC024AF5F7DCBA8C3F0820D9C80D0011
:10E4B000054B1870054B10B9588018707047022230
:10E4C00040001A7058807047913F0820923F082002
:10E4D000014B187000F002B8903F08204FF48042C2
:10E4E000024B08B11A6370475A637047000E0E4022
:10E4F00000230246FF2180F84630831C42F8403F4B
:10E5000003F8011B9342FBD140F29F2303800023B9
:10E51000A0F8441080F84730836480F84C3070478E
:10E52000F8B500240A4D0B4E0B4F2978E3B29942FF
:10E5300006D8BDE8F84001210020084AF5F790BA56
:10E540003A4601210020F35CF5F78AFA0134ECE742
:10E55000204108205840082016920D00AA810D0085
:10E5600008B5F2F72BF90023054A1370054A13701A
:10E570000122054B1A70BDE80840F2F72FB900BF21
:10E5800004400820AC3F0820E782072010B5104C5B
:10E590002378022B10D801210E4A0020F5F760FAEB
:10E5A00023780D48013323700023BDE810401A463C
:10E5B00019460068F3F733BC0121084A0020F5F73B
:10E5C0004FFAFFF7ADFFBDE81040FFF7C9BF00BF2E
:10E5D000044008201C920D00983F082026920D0050
:10E5E0000023F7B5244A18461146244D2E78DCB294
:10E5F000A6423DD89F230B700223287003220020DF
:10E600004B701F4B93F844401F6C8C70C6B217F8C8
:10E6100006C00130BCF19F0F12BF134601F802C0C3
:10E62000531CBA5D08BFDBB2C6B2CA54B44203F190
:10E630000102D2B2EAD29F2088540322DC1C0233AA
:10E64000DBB2CA540F4BE4B21E68F2F7E7FA0023BC
:10E650000246009301213046F3F7A4F822460A4B04
:10E66000054918682C70C36803B0BDE8F04018472E
:10E6700002F8010B0133BAE7584008202041082076
:10E6800008400820A83F0820A03F082030B50D4BC7
:10E6900093F844001A6C93F845100244517000211D
:10E6A00093F84420CCB2A24202F1010202D283F8D4
:10E6B000442030BD186C0131045D855C6C4084548D
:10E6C000EEE700BF08400820094A92F84430A3F161
:10E6D0003D01C9B2C1290AD9116C0133DBB282F8FC
:10E6E0004430C85492F84530013382F845307047C1
:10E6F0000840082010B50446C0B2FFF7E5FFC4F398
:10E700000720FFF7E1FFC4F30740FFF7DDFF200E0E
:10E71000BDE81040FFF7D8BF036C587800F016BA78
:10E72000036C5878003818BF012000F009BA0000C7
:10E730002DE9F043AC4E4E2230684FF4E13143698D
:10E740008BB09847A94CAA4F00213868F3F796FD83
:10E750000246E0B1FFF744FF30680A2301228069D6
:10E760000DF10F01F8F74EFB002846D1A14B1D78A3
:10E770006A1C1A70002DE6D1F2F7ACFC6328E2D8CF
:10E78000012128469C4B9D4AF5F76AF9DBE79C4D31
:10E790002B78002BE0D09B4B04A91868F3F7CCFC36
:10E7A0000028D9D09848FFF7A3FE9DF81000FFF786
:10E7B0008BFF9DF81030052B06D8052B0CD8DFE811
:10E7C00003F0070B0B071215172B0CD0182B03D1D6
:10E7D0009DF81800FFF778FFFFF758FFFFF700FFDD
:10E7E00000232B70B8E70598FFF784FF9DF8180009
:10E7F000FFF76AFF9DF81900ECE794F846209DF8B2
:10E800000F30002A53D00022022B84F846200AD170
:10E810002046FFF76DFE012384F8493094F8483014
:10E82000002B99D008E0032B2DD194F84930002B10
:10E83000F4D0012384F8483094F84730002B5DD0A1
:10E840000A230093002371481A4603210068F2F757
:10E85000A9FF94F84B30002B4DD06D4D2B78032B36
:10E8600042D801216B4A0020F5F7FAF800233868F6
:10E870001A461946F3F7D3FA2B7801332B7020464A
:10E88000FFF736FE68E7062B05D1012384F84A30EE
:10E8900084F84730C2E7152B03D1012384F84B30AD
:10E8A000F6E79F2B09D02046FFF722FEB6E79F2B05
:10E8B00003D1012384F84630B0E794F84420A2F154
:10E8C0003E01C9B2C029A9D994F8491029B194F8D8
:10E8D000451011B984F84530A0E7216C0132D2B25D
:10E8E00084F844208B5499E701214B4A0020F5F726
:10E8F000B7F8FFF715FEFFF733FEC0E794F84510B1
:10E9000094F844000A468446D4F840E09DB2AC45F1
:10E9100006D31EF803500133412B82EA0502F5D1DC
:10E9200035688142D5F80C8040F09A80002A40F08A
:10E9300097803A4A04AB10685168082203C32846FE
:10E9400004A9C04794F8483043B1226C1378042BD3
:10E950002CD027D8012B42D0032B72D00121304A72
:10E960000020F5F77DF894F8455094F84830FF2DD5
:10E9700008BF0025009301212B460020294AF5F706
:10E980006FF84FF00008DFF8A09003355FFA88F3C6
:10E99000AB4208F101085CDD0121244A0020F5F7B3
:10E9A0005FF86CE7162B50D0172BD7D10025D2F883
:10E9B0000180DFF8749094F84410EBB2994237D894
:10E9C00001210020194AF5F74BF8B8F1000F3FF488
:10E9D00056AF236C99795879DA1DC0474FE7204626
:10E9E000FFF79AFE4BE700BFA03F0820B03F08208A
:10E9F000983F0820A43F082019C90D0039800D0058
:10EA0000E78207200040082008400820A83F08208F
:10EA1000AC3F08204F920D0056920D00A6920D00BB
:10EA200093920D00FFC80D0016920D00AA810D00F3
:10EA3000226C0121D35C00204A46F5F711F801351C
:10EA4000B9E752780B4B1A7019E72046FFF768FEBA
:10EA500015E74A460121E35C0020F5F701F895E748
:10EA6000054A04AB10685168082203C3284604A96C
:10EA7000C04704E7A53F0820AF920D00014B18786E
:10EA8000704700BFA53F082073B5154E34782CBBE6
:10EA90000125144B144A15491A60154823464FF4B2
:10EAA000C87201940095F1F78BFF224618212820A7
:10EAB000F3F790F90F4B224618600F4BA0210093FB
:10EAC0000E482346F2F748FE0D4B032218602146FC
:10EAD0002846F3F77FF90B4B3570186002B070BD14
:10EAE0009C3F0820A03F0820148207200FC90D007A
:10EAF00031E70C00004008208DE50C00C1920D00AC
:10EB0000A83F0820983F082001460348002302221E
:10EB10000068F3F784B900BF00400820054B1B785C
:10EB20002BB9054B1B7813B9044B187800B10120A1
:10EB3000FAF75CB92141082022410820234108202E
:10EB4000014B1870FFF7EABF2141082000F0440391
:10EB5000442B70B5064619D10122634B1A70FFF79A
:10EB6000DDFF06F07704032C604D1FD12B78042BBA
:10EB700011D8012100205E4AF4F772FF2B7801338F
:10EB80002B700021012000F0CFF83EE0002BE8D1EF
:10EB9000554A1370E3E70121564A0020F4F760FF5D
:10EBA0000122554B1A70FFF7B9FFEAE7534B1A7869
:10EBB00012B100222A701A70297800295FD0042926
:10EBC0005BD808BF03234FF001014FF0030008BFDB
:10EBD0002B7000F0A9F801210020494AF4F740FF0A
:10EBE0002B78013B2B700022434B1A70FFF796FFE6
:10EBF000402C01D0042CC4D10121084600F094F827
:10EC0000012100203F4AF4F72BFF302C3BD101219A
:10EC100000203D4AF4F724FF0121022000F084F88F
:10EC20000021072000F080F8102C3BD101210020AA
:10EC3000364AF4F715FF0121062000F075F800218F
:10EC4000042000F071F8012C3BD121460020304A0D
:10EC5000F4F706FF2146052006F0880600F064F868
:10EC6000802E30D1012100202A4AF4F7F9FE01213B
:10EC7000082000F059F8002131E00023B2E703201A
:10EC800000F052F8AFE70021022000F04DF8202CF0
:10EC9000C6D101210020204AF4F7E2FE012107201D
:10ECA00000F042F80021062000F03EF8022CC6D108
:10ECB00001210020194AF4F7D3FE0121042000F0BD
:10ECC00033F80021C7E70021082000F02DF8082EB6
:10ECD000D1D101210020124AF4F7C2FE0121BDE882
:10ECE0007040092000F020B823410820E982072065
:10ECF00029C90D0030C90D0022410820E8820720F3
:10ED000039C90D0040C90D0047C90D0055C90D0096
:10ED100062C90D0068C90D004DC90D005BC90D0029
:10ED200071C90D007047704708B5034609282FD8F0
:10ED3000DFE800F0050B0F13171A1E2124284FF4EB
:10ED400000222D4B11B31A6308BD4FF080722B4B7C
:10ED5000F8E74FF48022284BF4E74FF48072264BFB
:10ED6000F0E78022244BEDE74FF40052224BE9E715
:10ED70004022224BE6E71022204BE3E74FF480626B
:10ED80001D4BDFE74FF400621B4BDBE75A63DBE709
:10ED90001B4A01210020F4F763FE4022174B5A63FF
:10EDA00010225A634FF400025A634FF480025A63F0
:10EDB0004FF080725A634FF40022C3F8342280224D
:10EDC000C3F834224FF40052C3F834224FF48022A7
:10EDD000C3F834224FF48072C3F834224FF48062B7
:10EDE000C3F834224FF08062C3F834224FF400623B
:10EDF000C3F83422A8E700BF00100E40000E0E40FA
:10EE00007CC90D00F0B5114D8DB001AC06460F4622
:10EE10000FCD0FC40FCD0FC495E8070084E807009D
:10EE2000002201A951F8043BB7FBF3F3B3FBF6F35F
:10EE3000B3F5807F06D901320B2AF3D14FF6FF706C
:10EE40000DB0F0BD43EA0220FAE700BF90C90D0003
:10EE500070B50C6806460D4644B120468968FFF738
:10EE6000D1FF4FF6FF73984204460CD0686840B15A
:10EE7000A968FFF7C7FF4FF6FF73984205D044EA31
:10EE8000004434600024204670BD0446FBE730B5E2
:10EE90004A688C8A02F00F0222430C898D7D22433E
:10EEA0008C7A0B6842EA4422CC7D42EA054242EA6F
:10EEB00044420C7E42EA844200EB4314C4F8002230
:10EEC000CA68C4F804220A69C4F80C221DB1D1F83A
:10EED0001A20C4F81822CA7F02FA03F48A7F9A40E3
:10EEE00042EA0442826491F8212002FA03F491F884
:10EEF00020209A4042EA04424264012291F82240D2
:10EF00009A4024B3046A1443046291F82440012C0B
:10EF1000846E0CBF14439443846691F82540120418
:10EF2000012C846E0CBF224324EA02028266032B6A
:10EF300091F823204FF0FF010DD8C46EDB009940FB
:10EF400024EA01019A400A43C266002030BD046AE7
:10EF500024EA0204D8E7043B046FDB00994024EA6A
:10EF6000010102FA03F30B430367EEE7CB68934218
:10EF70009FBF0B680A6100EB4310C0F8102294BFDA
:10EF800000204FF6FF7070470B69934221BF0B685A
:10EF9000CA6000EB4310C0F808222CBF00204FF6D7
:10EFA000FF70704701238B404360704701238B4003
:10EFB0008360704781F0004102E000BF83F00043AE
:10EFC00030B54FEA41044FEA430594EA050F08BF04
:10EFD00090EA020F1FBF54EA000C55EA020C7FEAC8
:10EFE000645C7FEA655C00F0E2804FEA5454D4EB45
:10EFF0005555B8BF6D420CDD2C4480EA020281EA0F
:10F00000030382EA000083EA010180EA020281EA46
:10F010000303362D88BF30BD11F0004F4FEA013198
:10F020004FF4801C4CEA113102D0404261EB4101A7
:10F0300013F0004F4FEA03334CEA133302D052422D
:10F0400063EB430394EA050F00F0A780A4F10104E9
:10F05000D5F1200E0DDB02FA0EFC22FA05F2801823
:10F0600041F1000103FA0EF2801843FA05F3594109
:10F070000EE0A5F120050EF1200E012A03FA0EFC88
:10F0800028BF4CF0020C43FA05F3C01851EBE371B2
:10F0900001F0004507D54FF0000EDCF1000C7EEBCF
:10F0A00000006EEB0101B1F5801F1BD3B1F5001F0D
:10F0B0000CD349085FEA30004FEA3C0C04F101042C
:10F0C0004FEA445212F5800F80F09A80BCF1004F55
:10F0D00008BF5FEA500C50F1000041EB045141EAD7
:10F0E000050130BD5FEA4C0C404141EB0101013CA0
:10F0F00028BFB1F5801FE9D291F0000F04BF01468F
:10F100000020B1FA81F308BF2033A3F10B03B3F160
:10F1100020020CDA0C3208DD02F1140CC2F10C02F0
:10F1200001FA0CF021FA02F10CE002F11402D8BF4E
:10F13000C2F1200C01FA02F120FA0CFCDCBF41EA1A
:10F140000C019040E41AA2BF01EB0451294330BDE9
:10F150006FEA04041F3C1CDA0C340EDC04F11404C6
:10F16000C4F1200220FA04F001FA02F340EA03009D
:10F1700021FA04F345EA030130BDC4F10C04C4F1E3
:10F18000200220FA02F001FA04F340EA03002946C3
:10F1900030BD21FA04F0294630BD94F0000F83F40D
:10F1A000801306BF81F480110134013D4EE77FEAF0
:10F1B000645C18BF7FEA655C29D094EA050F08BF3C
:10F1C00090EA020F05D054EA000C04BF194610461D
:10F1D00030BD91EA030F1EBF0021002030BD5FEA61
:10F1E000545C05D14000494128BF41F0004130BD89
:10F1F00014F580043CBF01F5801130BD01F00045DD
:10F2000045F0FE4141F470014FF0000030BD7FEA4F
:10F21000645C1ABF194610467FEA655C1CBF0B464A
:10F22000024650EA013406BF52EA033591EA030F61
:10F2300041F4002130BD00BF90F0000F04BF002159
:10F24000704730B54FF4806404F132044FF000058C
:10F250004FF0000150E700BF90F0000F04BF002105
:10F26000704730B54FF4806404F1320410F000456B
:10F2700048BF40424FF000013EE700BF42004FEA66
:10F28000E2014FEA31014FEA02701FBF12F07F43E3
:10F2900093F07F4F81F06051704732F07F4208BF9A
:10F2A000704793F07F4F04BF41F40021704730B5A1
:10F2B0004FF4607401F0004521F000411CE700BFED
:10F2C00050EA010208BF704730B54FF000050AE070
:10F2D00050EA010208BF704730B511F0004502D571
:10F2E000404261EB41014FF4806404F132045FEA73
:10F2F000915C3FF4D8AE4FF003025FEADC0C18BF1C
:10F3000003325FEADC0C18BF033202EBDC02C2F10D
:10F31000200300FA03FC20FA02F001FA03FE40EA9F
:10F320000E0021FA02F11444BDE600BF70B54FF0A3
:10F33000FF0C4CF4E06C1CEA11541DBF1CEA135581
:10F3400094EA0C0F95EA0C0F00F0DEF82C4481EAE9
:10F35000030621EA4C5123EA4C5350EA013518BF09
:10F3600052EA033541F4801143F4801338D0A0FBF6
:10F3700002CE4FF00005E1FB02E506F00042E0FBA3
:10F3800003E54FF00006E1FB03569CF0000F18BFA9
:10F390004EF0010EA4F1FF04B6F5007F64F5407451
:10F3A00004D25FEA4E0E6D4146EB060642EAC621E4
:10F3B00041EA55514FEAC52040EA5E504FEACE2E51
:10F3C000B4F1FD0C88BFBCF5E06F1ED8BEF1004F54
:10F3D00008BF5FEA500E50F1000041EB045170BDD0
:10F3E00006F0004646EA010140EA020081EA030114
:10F3F000B4EB5C04C2BFD4EB0C0541EA045170BD10
:10F4000041F480114FF0000E013C00F3AB8014F189
:10F41000360FDEBF002001F0004170BDC4F10004D2
:10F42000203C35DA0C341BDC04F11404C4F1200553
:10F4300000FA05F320FA04F001FA05F240EA0200AE
:10F4400001F0004221F0004110EBD37021FA04F6E4
:10F4500042EB06015EEA430E08BF20EAD37070BD9E
:10F46000C4F10C04C4F1200500FA04F320FA05F0FD
:10F4700001FA04F240EA020001F0004110EBD370FF
:10F4800041F100015EEA430E08BF20EAD37070BD6F
:10F49000C4F1200500FA05F24EEA020E20FA04F348
:10F4A00001FA05F243EA020321FA04F001F00041F7
:10F4B00021FA04F220EA020000EBD3705EEA430E68
:10F4C00008BF20EAD37070BD94F0000F0FD101F097
:10F4D0000046400041EB010111F4801F08BF013CD0
:10F4E000F7D041EA060195F0000F18BF704703F00E
:10F4F0000046520043EB030313F4801F08BF013D95
:10F50000F7D043EA0603704794EA0C0F0CEA135550
:10F5100018BF95EA0C0F0CD050EA410618BF52EA0A
:10F520004306D1D181EA030101F000414FF0000010
:10F5300070BD50EA410606BF1046194652EA43061E
:10F5400019D094EA0C0F02D150EA013613D195EA92
:10F550000C0F05D152EA03361CBF104619460AD1DA
:10F5600081EA030101F0004141F0FE4141F47001E4
:10F570004FF0000070BD41F0FE4141F4780170BDD4
:10F5800070B54FF0FF0C4CF4E06C1CEA11541DBF39
:10F590001CEA135594EA0C0F95EA0C0F00F0A7F83B
:10F5A000A4EB050481EA030E52EA03354FEA013168
:10F5B00000F088804FEA03334FF0805545EA13137B
:10F5C00043EA12634FEA022245EA111545EA106543
:10F5D0004FEA00260EF000419D4208BF964244F1DA
:10F5E000FD0404F5407402D25B084FEA3202B61AF9
:10F5F00065EB03055B084FEA32024FF480104FF4CD
:10F60000002CB6EB020E75EB030E22BFB61A754640
:10F6100040EA0C005B084FEA3202B6EB020E75EBD3
:10F62000030E22BFB61A754640EA5C005B084FEA3B
:10F630003202B6EB020E75EB030E22BFB61A754608
:10F6400040EA9C005B084FEA3202B6EB020E75EB13
:10F65000030E22BFB61A754640EADC0055EA060ED4
:10F6600018D04FEA051545EA16754FEA06164FEA17
:10F67000C30343EA52734FEAC2025FEA1C1CC0D1C3
:10F6800011F4801F0BD141EA00014FF000004FF050
:10F69000004CB6E711F4801F04BF01430020B4F111
:10F6A000FD0C88BFBCF5E06F3FF6AFAEB5EB030CC9
:10F6B00004BFB6EB020C5FEA500C50F1000041EBC6
:10F6C000045170BD0EF0004E4EEA113114EB5C0493
:10F6D000C2BFD4EB0C0541EA045170BD41F4801166
:10F6E0004FF0000E013C90E645EA060E8DE60CEA6E
:10F6F000135594EA0C0F08BF95EA0C0F3FF43BAF8B
:10F7000094EA0C0F0AD150EA01347FF434AF95EA41
:10F710000C0F7FF425AF104619462CE795EA0C0F25
:10F7200006D152EA03353FF4FDAE1046194622E7F2
:10F7300050EA410618BF52EA43067FF4C5AE50EACC
:10F7400041047FF40DAF52EA43057FF4EBAE12E7BC
:10F750004A0011D212F5001211D20DD56FF4787350
:10F76000B3EB62520ED44FEAC12343F0004343EAA5
:10F77000505323FA02F070474FF00000704750EAF0
:10F78000013002D14FF0FF3070474FF0000070475A
:10F7900053B94AB9002908BF00281CBF4FF0FF31F8
:10F7A0004FF0FF3000F076B9ADF1080C6DE904CEF2
:10F7B00000F006F8DDF804E0DDE9022304B070474C
:10F7C0002DE9F047089E0D4604468846002B4DD192
:10F7D0008A42944668D9B2FA82F252B101FA02F32F
:10F7E000C2F1200120FA01F10CFA02FC41EA0308FF
:10F7F00094404FEA1C41B8FBF1F71FFA8CFE01FB65
:10F80000178807FB0EF0230C43EA084398420AD9F5
:10F810001CEB030307F1FF3580F01E81984240F294
:10F820001B81023F63441B1AB3FBF1F001FB103351
:10F8300000FB0EFEA4B244EA0344A6450AD91CEB21
:10F84000040400F1FF3380F00981A64540F20681EF
:10F85000644402380021A4EB0E0440EA07401EB1C4
:10F860000023D440C6E90043BDE8F0878B4208D9A5
:10F87000002E00F0EE800021C6E900050846BDE834
:10F88000F087B3FA83F100294AD1AB4202D3824216
:10F8900000F2FC80841A65EB030301209846002ED9
:10F8A000E2D0C6E90048DFE702B9FFDEB2FA82F231
:10F8B000002A40F09180A1EB0C0001214FEA1C4787
:10F8C0001FFA8CFEB0FBF7F307FB1300250C45EA8B
:10F8D00000450EFB03F0A84208D91CEB050503F117
:10F8E000FF3802D2A84200F2CE8043462D1AB5FB63
:10F8F000F7F007FB10550EFB00FEA4B244EA0544E6
:10F90000A64508D91CEB040400F1FF3502D2A64538
:10F9100000F2B6802846A4EB0E0440EA03409EE7BE
:10F92000C1F120078B4022FA07FC4CEA030C25FAB0
:10F9300007FA4FEA1C49BAFBF9F820FA07F309FB6A
:10F9400018AA8D401FFA8CFE1D4300FA01F308FB34
:10F950000EF02C0C44EA0A44A04202FA01F20BD940
:10F960001CEB040408F1FF3A80F08880A04240F2CA
:10F970008580A8F102086444241AB4FBF9F009FB5D
:10F98000104400FB0EFEADB245EA0444A64508D97A
:10F990001CEB040400F1FF356CD2A6456AD902388D
:10F9A000644440EA0840A0FB0295A4EB0E04AC427C
:10F9B000C846AE4656D353D0002E69D0B3EB0802EA
:10F9C00064EB0E0422FA01F304FA07F71F43CC405C
:10F9D000C6E90074002147E70CFA02FCC2F12001DD
:10F9E00025FA01F34FEA1C4720FA01F195400D4337
:10F9F000B3FBF7F107FB11331FFA8CFE280C40EA2A
:10FA0000034001FB0EF3834204FA02F408D91CEB15
:10FA1000000001F1FF382FD283422DD90239604412
:10FA2000C01AB0FBF7F307FB1300ADB245EA00457F
:10FA300003FB0EF0A84208D91CEB050503F1FF38C3
:10FA400016D2A84214D9023B6544281A43EA014160
:10FA500038E73146304607E72F46E4E61846F9E630
:10FA60004B45A9D2B9EB020865EB0C0E0138A3E7B0
:10FA70004346EAE7284694E74146D1E7D0467BE78C
:10FA80006444023847E7023B65442FE7084606E72F
:10FA90003146E9E6704700BF03460A460249086856
:10FAA000194600F003B800BFEC82072010B502FB36
:10FAB00001F100F04FF8044668B150F8042C22F030
:10FAC0000302043A242A18D8132A06D8024600232F
:10FAD000C2E900339360204610BD00231B2AC0E911
:10FAE00000330FD9242AC0E9023311BF00F11002FC
:10FAF000036100F118024361E9E7002100F080FB97
:10FB0000204610BD00F10802E1E700BF70B50D4EC0
:10FB10000D4D761BB61006D0002455F8043B013479
:10FB20009847A642F9D1094E094D0DF057F9761BB9
:10FB3000B61006D0002455F8043B01349847A6427D
:10FB4000F9D170BDE8CD0D00E8CD0D00F0CD0D0070
:10FB5000E8CD0D002DE9F04F01F10B05162D0646FD
:10FB600083B025D8102900F2B88000F09BFB102547
:10FB700018224FF0020CB54F3A445368A2F1080125
:10FB80008B4200F0B7805A68D96822F003021A4409
:10FB90009C683046E1608C60516803F1080441F0D4
:10FBA0000101516000F084FB204603B0BDE8F08FF6
:10FBB00035F0070500F19180A94200F28E8000F037
:10FBC00071FBB5F5FC7FC0F094816B0A00F08C806E
:10FBD000042B00F26A81AB0903F1390C03F13804FC
:10FBE0004FEACC00994F384443680838984206D110
:10FBF0000CE0002980F22681DB68984206D05A6822
:10FC000022F00302511B0F29F3DDA4463C69DFF803
:10FC100040E274457AD0626822F00302531B0F2B36
:10FC200000F37681002BC7E904EE80F26781B2F51C
:10FC3000007F80F019810121D30852090B449140C3
:10FC40007A6857F833000A4307EBC3010839A0600C
:10FC5000E1607A6047F83340C46001214FEAAC03A9
:10FC60009940914259D8114206D12CF0030C490019
:10FC700011420CF1040CFAD007EBCC09484664465B
:10FC8000D0F80C80404508D11CE1002B80F2218186
:10FC9000D8F80C80404500F01581D8F8042022F0F7
:10FCA0000302531B0F2BF0DD08EB050145F00105A6
:10FCB000C8F804503046D8E90264F460A66043F006
:10FCC0000104C7E904114C60C1E902EE48F80230B2
:10FCD00000F0EEFA08F1080402E00C23002433607F
:10FCE000204603B0BDE8F08F4FF400704FF0400C99
:10FCF0003F2477E7D3689A4208BF0CF1020C7FF4E7
:10FD000042AF3C69DFF848E1744584D101217A684B
:10FD10004FEAAC0399409142A5D9BC68636823F0CF
:10FD200003094D4503D8A9EB05030F2B7ADCDFF857
:10FD300024B1494BDBF800201B6801322B4404EB53
:10FD4000090A00F02F8103F580530F3323F47F68F5
:10FD500028F00F084146304600F0C4FA411C024624
:10FD600000F0EF80824500F2EA803C4B1968414484
:10FD70000846196000F04981DBF800100193013159
:10FD80001BBFA2EB0A0A5044CBF80020186012F007
:10FD9000070B00F01181CBF108010A44CBF580512B
:10FDA00090440831A1EB0801C1F30B0A51463046DB
:10FDB000009200F097FA421CDDE9002300F04B812D
:10FDC000801A00EB0A08196848F001005144BC424F
:10FDD000BA601960506000F02481B9F10F0F40F251
:10FDE00022814FF0050E6068A9F10C0C2CF0070C75
:10FDF00000F0010040EA0C006060BCF10F0F04EB62
:10FE00000C00C0E901EE00F22E8114465068144B3C
:10FE10001A688A4238BF1960124B1A688A4238BF82
:10FE2000196090E0621943F0010345F00105656037
:10FE30003046BA600834536000F03AFA204603B006
:10FE4000BDE8F08FD9681A44A2E600BF18870720E2
:10FE500020870720208B07205441082024410820B8
:10FE60004C41082050410820B2F5206F4FEA522340
:10FE70005FD3142B00F2B18003F15C01C9005B3346
:10FE8000781879580838884200F08F804B6823F042
:10FE90000303934202D989688842F7D1C8687A6817
:10FEA000C4E902108460CC60D7E6142B59D9542BD6
:10FEB00000F29B802B0B03F16F0C03F16E044FEAF1
:10FEC000CC008FE60134A30700F108007FF4D8AE20
:10FED00053E0444642445368D8F80C1043F0010301
:10FEE000536054F8083F3046D9608B6000F0E0F969
:10FEF000F6E64FEAD50C05F108023CE622445368C9
:10FF0000304643F00103536000F0D2F90834E7E6CD
:10FF1000611945F00105656043F00105C7E9041169
:10FF20003046C1E902EE4D60A35000F0C1F908343B
:10FF3000D6E6930903F13901C9003833A0E7BC4282
:10FF40005ED0BC68606820F003084545A8EB050357
:10FF500002D80F2B3FF766AF304600F0A9F9002416
:10FF6000BEE603F15C0C03F15B044FEACC0039E61A
:10FF700059F808394B4540F095801CF0030F0CF1FF
:10FF8000FF3CF5D17B6823EA01037B60490099427D
:10FF90003FF6C3AE11B9C0E6490004341942FBD0A4
:10FFA000A44669E603F11008D4E601229B109A40AA
:10FFB0007B681A437A6073E702EB08014942C1F398
:10FFC0000B0A51463046009200F08CF9431CDDE9E3
:10FFD00000237FF4F5AEDA46F5E6542B26D8130B52
:10FFE00003F16F01C9006E334AE7B3F5AA7F26D843
:10FFF000EB0B03F1780C03F177044FEACC00F1E549
:02000002D0002C
:10000000294B186840441860B6E6CAF30B0CBCF1E3
:10001000000F7FF4B1AEBC68C84448F001006060D6
:10002000F5E61446F3E60123536095E7B3F5AA7F9E
:1000300024D8D30B03F17801C900773320E740F2CD
:100040005452934224D8AB0C03F17D0C03F17C0491
:100050004FEACC00C6E5ABF1080BD8444FF0000ADC
:10006000A8EB0208AFE604F108013046009305F062
:10007000F5F8BC68009B60681968C8E640F2545106
:100080008B420BD8930C03F17D01C9007C33F7E65A
:100090004FF47E704FF07F0C7E24A3E54FF47E7109
:1000A0007E23EDE67B6871E724410820032A10B522
:1000B00016D940EA010C1CF0030F04460B4622D16E
:1000C00019462046D1F800E0D0F800C00433F445CA
:1000D00004F1040417D1043A032A20461946EFD844
:1000E000541EA2B100F1FF3C013901E0C3180CD04D
:1000F0001CF801EF11F8012FA4EB0C039645F5D085
:10010000AEEB020010BD541EECE7184610BD1046C1
:1001100010BD00BF844641EA000313F0030349D138
:10012000403A23D30B6803604B6843608B6883605D
:10013000CB68C3600B6903614B6943618B69836161
:10014000CB69C3610B6A03624B6A43628B6A836249
:10015000CB6AC3620B6B03634B6B43638B6B836331
:10016000CB6BC36340304031403ADBD230320BD3EB
:100170000B6803604B6843608B688360CB68C36027
:1001800010301031103AF3D20C3205D351F8043B41
:1001900040F8043B043AF9D2043208D0D2071CBF1D
:1001A00011F8013B00F8013B01D30B880380604646
:1001B000704700BF082A13D38B07B1D010F0030398
:1001C000AED0C3F10403D21ADB071CBF11F8013B08
:1001D00000F8013BA4D331F8023B20F8023B9FE733
:1001E000043AD9D3013A11F8013B00F8013BF9D2A6
:1001F0000B7803704B7843708B7883706046704740
:10020000830730B548D0541E002A3FD00346CAB2F7
:1002100001E0013C3AD303F8012B9D07F9D1032CEF
:100220002DD9CDB245EA05250F2C45EA054536D92D
:10023000A4F1100222F00F0C03F1200EE6444FEA65
:10024000121C03F1100242E9045542E90255103232
:100250007245F8D10CF1010214F00C0F03EB0212FD
:1002600004F00F0C13D0ACF1040323F003030433A8
:10027000134442F8045B9342FBD10CF003042CB10D
:10028000CAB21C4403F8012B9C42FBD130BD64462A
:100290001346002CF4D1F9E703461446BFE71A468B
:1002A000A446E0E7014805F07DBA00BF5C410820A4
:1002B000014805F079BA00BF5C4108200FB400B5D1
:1002C000074A83B004AB106853F8042B816801938C
:1002D00001F064FF03B05DF804EB04B0704700BFA9
:1002E000EC820720002238B5064D044608462A60F5
:1002F000F0F71CF8431C00D038BD2B68002BFBD056
:10030000236038BD684108200EB430B504466FF054
:1003100000459CB00B4A1FAB0B49059253F8042BC8
:10032000086802A9CDE9013407950495069400F008
:10033000E3F90022029B1A701CB0BDE8304003B004
:10034000704700BF0802FFFFEC820720844610B40C
:100350000E4C1CF8013B11F8010BE25C02F00302A9
:10036000012A225C08BF203302F00302012A05D0D3
:100370001B1A08D10028ECD110BC70472030181A85
:10038000E7D010BC7047184610BC704745CA0D0036
:10039000830710B5044610D10268A2F1013323EAA5
:1003A000020313F0803F08D150F8042FA2F101336B
:1003B00023EA020313F0803FF6D003781BB110F854
:1003C000013F002BFBD100F003F8204610BD00BF19
:1003D00080EA0102844612F0030F4FD111F0030F9F
:1003E00032D14DF8044D11F0040F51F8043B0BD0FD
:1003F000A3F101329A4312F0803F04BF4CF8043B52
:1004000051F8043B16D100BF51F8044BA3F101325F
:100410009A4312F0803FA4F101320BD14CF8043B17
:10042000A24312F0803F04BF51F8043B4CF8044B48
:10043000EAD023460CF8013B13F0FF0F4FEA3323B9
:10044000F8D15DF8044B704711F0010F06D011F898
:10045000012B0CF8012B002A08BF704711F0020F86
:10046000BFD031F8022B12F0FF0F16BF2CF8022B71
:100470008CF8002012F47F4FB3D1704711F8012B94
:100480000CF8012B002AF9D1704700BF20F00301BE
:1004900010F00300C0F1000051F8043B00F1040C1F
:1004A0004FEACC0C6FF000021CBF22FA0CF213438F
:1004B0004FF0010C4CEA0C2C4CEA0C4CA3EB0C0258
:1004C00022EA030212EACC1204BF51F8043B0430C2
:1004D000F4D0C2F1000102EA0102B2FA82F2C2F1E2
:1004E0001F0200EBD2007047830730B428D10468A4
:1004F000A4F1013323EA040313F0803F034608D13B
:1005000053F8045FA5F1013424EA050414F0803F98
:10051000F6D01C781CB113F8014F002CFBD19C467F
:1005200001391344634509D011F8012F0CF8012B50
:1005300022B19C45F6D100238CF8003030BC7047C6
:100540000346E6E730B540EA0104A30722D1032AB7
:1005500020D90B468446194653F8045BA5F10134B3
:1005600024EA050414F0803F15D1043A032A194601
:100570004CF8045BEFD801F1FF3E52B163461EF820
:10058000011F541E03F8011B41B122469C46002A5C
:10059000F4D130BD844601F1FF3EEEE76244002C09
:1005A000F7D003F8011B9342FBD130BD2DE9F04F8A
:1005B00081468E46444D70461EF801CB15F80C401E
:1005C00014F00804F7D1BCF12D0FE34653D06FF0BF
:1005D0000048BCF12B0F04BF9EF800B000F1020EE2
:1005E0001BB1102B4FD01F4604E0BBF1300F55D08C
:1005F0000A231F460025B8FBF7F6284607FB168A94
:1006000007E0864215D329D0012507FB00C01EF85C
:1006100001BBABF1300CBCF1090F06D9ABF1410CB9
:10062000BCF1190F08D8ABF1370C63450DDD002D77
:10063000E7DA4FF0FF35EAE7ABF1610CBCF1190FD7
:1006400003D8ABF1570C6345F1DC002D0BDB04B193
:1006500040420AB195BB1160BDE8F08FE245D3DAA4
:100660004FF0FF35D3E72223C9F800301AB34046D4
:100670000EF1FF31EFE79EF800B04FF00048012483
:1006800000F1020EACE7BBF1300FACD19EF80000D8
:1006900000F0DF00582807D01F46ABE79EF8003077
:1006A00003F0DF03582B0BD110279EF801B03B4617
:1006B0000EF1020E9EE74046BDE8F08F8046D6E779
:1006C00008231F4696E700BF45CA0D00012A10B552
:1006D0000AD0242A08D8074C13460A460146206847
:1006E000BDE81040FFF762BF04F0F4FB162303607F
:1006F000002010BDEC8207202DE9F04FD5B00C464C
:100700000C9191460E930A9005F044F80368184640
:100710001793FFF7BBFEA3891690190603D523692B
:10072000002B00F08F8700242BAB224698464D46C5
:10073000CDE929442893129400230024CDE91434F0
:100740002B78CDE91922CDE91B2218920892002BB3
:1007500000F0CE81AA4604E01AF8013F002B00F019
:100760000981252BF8D1BAEB050640F007819AF8EC
:100770000030002B00F0BC8100234FF0FF324FF01F
:100780002B0920241F469AF8016007920AF1010AFA
:100790008DF8833009930AF1010AA6F120035A2B40
:1007A00000F22081DFE813F0CA021E011E01C5021B
:1007B0001E011E011E01A3021E011E016A00F3029A
:1007C0001E014702D9021E01D4025B005B005B00E0
:1007D0005B005B005B005B005B005B001E011E01B9
:1007E0001E011E011E011E011E01B0011E010B0291
:1007F0007A00B001B001B0011E011E011E011E01F0
:100800009E021E011E01B6001E011E011E011902DC
:100810001E014C021E011E013F071E011E011E018A
:100820001E011E011E011E011E01B0011E010B0250
:100830007C00B001B001B00191027C0075001E0186
:1008400084021E017002B8005E0275001E011902CA
:1008500072001C071E011E011F071E0172000022EC
:10086000A6F130031AF8016B02EB820203EB42029D
:10087000A6F13003092BF5D909928EE70E9B53F8A8
:10088000042B002A09920E93C0F2D2819AF80060DC
:1008900081E79AF8006047F020077CE747F01007EF
:1008A000BA060E9B40F17D81073323F007031A46F9
:1008B0005B6852F8084B99460E92002BC0F27F8578
:1008C000079B013301F0398054EA090327F0800BBC
:1008D00000F005850A2C79F1000380F0938701234D
:1008E0005F4630348DF84F410B930DF24F15079A48
:1008F0000B9900238A42B8BF0A4606929DF88320CE
:100900000D930F9313931093002A7CD0069B013311
:10091000069378E047F0100717F0200900F03281C5
:100920000E9B073323F00703D3F8049053F8084BCA
:100930000E93002327F4806B00228DF88320079A02
:10094000511C00F02A8254EA09012BF0800740F084
:100950002382002A41F02B80002B40F0C5841BF03D
:1009600001030B9300F0548530230DF24F158DF8E1
:100970004F31BCE7BAEB050600F0BA802A9BC8E904
:10098000005633442A93299B0133072B299305DC16
:1009900008F10808089B33440893E8E60C990A9884
:1009A00028AA05F047FE80B90DF1AC08F2E70C99D2
:1009B0000A9828AA05F03EFE002800F08A800D9BC8
:1009C0001BB10D990A9804F049FC0C9B9B8913F00C
:1009D000400F089B18BF4FF0FF330893089855B09D
:1009E000BDE8F08F002E00F08380012300228DF8F7
:1009F000EC6006933BAD8DF883200B930D9207922C
:100A00000F921392109217F0020302D0069902314E
:100A1000069117F0840B07D109990698A1EB0009FC
:100A2000B9F1000F00F336832A9C82B10122C8F885
:100A30000420299A013401320DF18301072A2A94F6
:100A40002992C8F8001000F3698308F108087BB107
:100A50000223C8F80430299B0234013321AA072B52
:100A60002A942993C8F8002000F36C8308F1080841
:100A7000BBF1800F00F02E82079B0B9AA3EB020BB9
:100A8000BBF1000F00F37182FB0500F1C5810B9BE8
:100A9000C8F800501C44C8F80430299B2A9401333C
:100AA000072B299300F3EA8208F108087B0705D594
:100AB000099B069A9D1A002D00F35083DDE9083248
:100AC00006998A42ACBF9B185B180893002C7FF4F0
:100AD0006EAF002329930D9B1BB10D990A9804F06A
:100AE000BDFB55460DF1AC082B78002B7FF432AEE0
:100AF0002A9B002B3FF469AF0C9C0A98214628AA38
:100B000005F098FDA38962E70E9B073323F00702E7
:100B1000F2E80234CDE91434DDE9143424F0004461
:100B2000994618460E9221464FF0FF32B64B07F019
:100B3000A3F8002840F09684484621464FF0FF3243
:100B4000B14B07F07BF8002840F08C84DDE91401FC
:100B50000022002307F068F8002840F0A6879DF8DF
:100B6000832000210320A94DA94B27F080070D9178
:100B70000690472EC8BF1D4607910B900F91139109
:100B80001091C1E617F0100340F0628417F04002A4
:100B900000F07B870E9A994652F8044B0E92A4B24D
:100BA000C7E653F8044B0E93FB0600F141847D0623
:100BB00040F13B8444F3C0394B4624B27DE601202A
:100BC00000220E9B069053F8041B3BAD8DF883204A
:100BD0008DF8EC100E930B9010E74FF000090E9C6F
:100BE000079B54F8045B8DF88390002D00F0EE868F
:100BF0005A1C00F060851A464946284604F046FE15
:100C00000D90002801F09E800D9B9DF883205B1BBA
:100C10000B9323EAE373CDF81C900E940693CDF862
:100C20003490CDF83C90CDF84C90CDF840906BE6E8
:100C3000099B5B4209939AF8006047F00407AAE514
:100C400047F0100B1BF0200900F0AA830E9B07331E
:100C500023F007031A4652F8084BD3F804900E927B
:100C6000012369E6302278260E9B8DF8842053F804
:100C7000044B684A0E934FF00009022347F0020B21
:100C80008DF88560189257E6BD0600F1D683FC0604
:100C900000F19386780600F15D87B90540F18D86F5
:100CA0000E9B089953F8042B554611700E931BE7C1
:100CB0009AF800606C2E03BF9AF8016047F0200795
:100CC0000AF1010A47F0100765E59AF80060682EFE
:100CD00003BF9AF8016047F400770AF1010A47F070
:100CE000400758E59AF8006047F0080753E50A9E68
:100CF000304604F04FFD436818461B93FFF7C6FBD0
:100D0000034630461C931E4604F044FD8368199345
:100D1000002E3FF4BBAD199B002B3FF4B7AD199BE0
:100D20001B78002B3FF4B2AD9AF8006047F480675F
:100D300031E59AF8006047F001072CE59DF8833013
:100D4000002B7FF4A3AD9AF800608DF8834022E574
:100D50009AF8006047F080071DE5524612F8016BD3
:100D60002A2E01F0EB81A6F13003092B924698BFA1
:100D7000002201F203801AF8016B02EB820203EBFE
:100D80004202A6F13003092BF5D9079205E59AF83E
:100D900000608DF88390FEE4BB46012B3FF49AADD2
:100DA000022B54AD12D1189A04F00F03D35C24091E
:100DB00044EA09744FEA191905F8013D54EA090398
:100DC000F2D154AB5B1B5F460B9390E504F0070335
:100DD000E40844EA49744FEAD909303354EA090176
:100DE0002A4605F8013DF1D11BF0010FE9D0302B67
:100DF000E7D03023023A05F8013C54AB9B1A5F461A
:100E000015460B9373E500BFFFFFEF7FC0C90D00D0
:100E1000C4C90D00D0C90D00652E40F3E980DDE99D
:100E200014010022002306F0F5FE002800F0D28114
:100E30000123C8F80430299BBF4A01330134072B32
:100E40002A942993C8F8002000F37A8508F108084D
:100E5000229B129A934280F2D782169B179A1C44C7
:100E6000C8E90023299B2A940133072B299300F317
:100E7000DD8308F10808129B5D1E002D7FF716AE7A
:100E8000102D41F34181DFF8B492224649461026E5
:100E9000B946299B0F46DDF828B00C9C05E008F107
:100EA0000808103D102D40F3588501331032072BF0
:100EB000C8E90076CDE92932F1DD2146584628AA55
:100EC00005F0B8FB00287FF47AADDDE929320DF199
:100ED000AC08E6E7099B069AA3EB020BBBF1000FF7
:100EE0007FF7CAADBBF1100F41F30580DFF84C92DC
:100EF00041462046A8464C461023299A0C9DDDF811
:100F0000289006E0ABF1100BBBF1100F01F10801C6
:100F100019DD01321030072AC1E90043CDE929204B
:100F2000F0DD2946484628AA05F084FB00287FF416
:100F300046ADDDE92920ABF1100BBBF1100F4FF0EE
:100F400010032BA9E5DC4546A1468846044601323C
:100F50005C44072ACDE92924C8F80090C8F804B0F9
:100F600000F3188508F1080886E5BBF1100F40F37F
:100F70009785DFF8C89141462046A8464C46102385
:100F8000299A0C9DDDF8289006E0ABF1100BBBF11F
:100F9000100F01F1080119DD01321030072AC1E9F3
:100FA0000043CDE92920F0DD2946484628AA05F06E
:100FB00041FB00287FF403ADDDE92920ABF1100BE4
:100FC000BBF1100F4FF010032BA9E5DC4546A146FD
:100FD0008846044601325C44072ACDE92924C8F832
:100FE0000090C8F804B000F3CE8108F108084BE582
:100FF000129B012B40F37E810123299E01341E4464
:10100000072EC8F800502A94C8F80430299600F337
:10101000E18108F10808169B0136179A1C44072E37
:10102000C8E90023CDE9296400F3E18108F108084B
:101030000022DDE91401002306F0ECFD002840F059
:101040007681129B0136013B01351C44072EC8F8FE
:1010500000502996C8F804302A9400F35B8108F107
:1010600008081A9B01361C44C8F80430072E24AB2C
:10107000CDE92964C8F800307FF716AD0C990A98BD
:1010800028AA05F0D7FA00287FF499AC2A9C0DF124
:10109000AC080BE5B9F1100F40F35086DDE92921CA
:1010A0004046CDE91D36B84610244F460C9EA94651
:1010B0000A9D04E0103F102F00F1080016DD0132F8
:1010C0001F4B1031072AC0E90034CDE92921F1DD99
:1010D0003146284628AA05F0ADFA00287FF46FAC07
:1010E000DDE92921103F102F2BA8E8DC4D46DDE972
:1010F0001D36B9464746804609EB010401321049C6
:10110000072ACDE92924C8F80490C8F8001000F394
:10111000C3839DF8832008F1080886E40C990A9897
:1011200028AA1D9305F086FA00287FF448AC2A9C73
:101130001D9B0DF1AC088AE400CA0D0014CA0D0015
:1011400004CA0D000C990A9828AA05F073FA002821
:101150007FF435AC2A9C0DF1AC0889E4102D40F3E6
:10116000C4861026299B0A9FDDF8309004E0103DCC
:10117000102D08F1080817DD0133B84A1034072B89
:10118000C8E90026CDE92934F1DD4946384628AAC8
:1011900005F050FA00287FF412ACDDE92934103D47
:1011A000102D0DF1AC08E7DC0133AC4A2C44072BC1
:1011B000CDE92934C8F80450C8F800207FF77EAC88
:1011C0000C990A9828AA05F035FA00287FF4F7ABA5
:1011D0002A9C73E42299002940F36F83DDF8409044
:1011E000129B9945A8BF9946B9F1000F0BDD299BC9
:1011F0004C440133072BC8E900592A94299300F382
:101200001D8508F10808109EB9F1000FA8BFA6EBD4
:101210000906002E00F32582DDF840B07805AB44C6
:1012200000F15F82229B129A934202DBF90740F1A0
:101230007684169A17991444C8E90012299A2A94B8
:101240000132072A299200F3138508F10808129A3F
:10125000AE18A6EB0B06D51AAE42A8BF2E46002E3E
:101260000DDD299B34440133072BC8F800B0C8F8C2
:1012700004602A94299300F3718508F10808002E70
:10128000A8BFAD1B002D7FF711AC102D40F33C879C
:10129000DFF8CC91224649461026B946299B0F46D5
:1012A000DDF828B00C9C05E008F10808103D102D71
:1012B00040F3538301331032072BC8E90076CDE9A0
:1012C0002932F1DD2146584628AA05F0B3F9002855
:1012D0007FF475ABDDE929320DF1AC08E6E7079B39
:1012E000002B7FF4FCAA5F46002354AD07930B93B9
:1012F000FFF7FDBAFA073FF57FAE0123299E0134BF
:101300001E44072EC8F800502A94C8F804302996C5
:101310007FF7A5AE0C990A9828AA05F08BF900284A
:101320007FF44DABDDE929640DF1AC0899E6129B21
:101330005D1E002D7FF795AE102D40F3DF8622460F
:1013400007974FF0100BDFF818910A9C0C9F05E0EF
:1013500008F10808103D102D40F37F83013610324C
:10136000072EC8E9009BCDE92962F1DD3946204608
:1013700028AA05F05FF900287FF421ABDDE9296296
:101380000DF1AC08E6E70C990A9828AA05F052F985
:1013900000287FF414AB2A9C0DF1AC08FFF774BB56
:1013A0001BF010030E9A3AD11BF0400133D052F8D3
:1013B000044B99460E920123A4B2FFF7BDBA2D2328
:1013C00064428DF88330BB464FF0010369EB490955
:1013D000FFF7B5BA0C990A9828AA05F02BF900284E
:1013E0007FF4EDAADDE929640DF1AC0813E60C9950
:1013F0000A9828AA05F01EF900287FF4E0AADDE982
:1014000029640DF1AC0813E6FD077FF54FAB24E529
:1014100054ADFFF76CBA1BF4007940F08A8352F8A0
:10142000044B01230E92FFF787BAB80500F19B83A6
:101430004FEAE4794B46FFF740BA0E9B089853F801
:10144000041BC2175546C1E900020E93FFF74CBBBF
:101450000E9B53F8044B0E93FFF76BBA04CA0D00B2
:1014600014CA0D00DDE9140102460B4606F004FC27
:10147000002840F0E985612E00F07D85412E00F0C6
:101480008B84079B013300F08F8326F02003472BCA
:10149000069300F08F85DDE9141247F480730F93F3
:1014A0001346002BC0F2B0850B9300238B461D938F
:1014B0000D93069B462B00F0E983452B00F04685F3
:1014C00007990B9B01910221009126A9049123A960
:1014D000039122A95A460A98029102F095FD069BB3
:1014E0000546472B40F03A8617F0010FB9460F9F8B
:1014F00040F0FE84269B5B1B1293069B472B00F05B
:101500006E83069B462B00F0F083229B1093109B6A
:10151000069A013B412A229300F0BB850021F2B2DA
:10152000002B8DF89020B6BF2D222B22109B8DF81A
:101530009120B8BFC3F10103092B40F39B850DF146
:101540009F0C6246B64F1C46104687FB0312D91704
:10155000C1EBA20101EB8102A3EB42023032632C0A
:1015600000F8012C0B4600F1FF32ECDC3033811E19
:10157000DBB28C4502F8013C40F2F9850DF1920195
:1015800001E012F8013B944501F8013BF9D10DF15E
:10159000A1030DF192021B1A134424AA9B1A1A9359
:1015A000129B1A9A012B1A440B9240F381850B9BD4
:1015B000169A13440B9300230B9A29F4806722EAAE
:1015C000E27247F480770F930692139310931D9B5A
:1015D000002B40F02C839DF883200793FFF794B9EC
:1015E000BB46FFF72FBB8F4B189317F0200900F075
:1015F000F5800E9B073323F00703D3F8049053F8CC
:10160000084B0E93F80709D554EA090306D0302396
:101610008DF8856047F002078DF88430022327F4A7
:10162000806BFFF789B9804B1893DEE70C990A9815
:1016300028AA04F0FFFF00287FF4C1A92A9C0DF11D
:10164000AC0818E440210A98FEF784FA0C9B186055
:101650001861002800F0978540230C9A5361FFF72A
:1016600062B8102E40F37685DFF8C09142464846B6
:101670002146A846B9464FF0100B0746299B0A9C05
:101680000C9D04E00832103E102E40F3138201330B
:101690001031072BC2E9007BCDE92931F2DD294663
:1016A000204628AA04F0C6FF00287FF488A9DDE9B7
:1016B00029312BAAE7E72846CDF81C900E94FEF7B7
:1016C000E5FE20EAE0739DF883200B90CDF834907E
:1016D000CDF83C90CDF84C90CDF840900693FFF7B4
:1016E00013B9129B4246DDF84C80EB185E46079317
:1016F000CDF82CA010972146199FDDF87090DDF8E9
:1017000028A0DDF830B00F9B1395B8F1000F2ED054
:1017100083BB013F08F1FF381B9B4944C2E90039F4
:10172000299B2A910133072B299360DC0832079B00
:1017300038789B1B8342A8BF0346002B1C460BDD59
:101740002998194401300728C2E900632A91299099
:1017500000F3148138780832002CB4BF0546051B0D
:10176000002D0BDC06440F9BB8F1000FD0D1002BED
:1017700000F026820F9B013B0F93CDE7102D40F325
:101780009D841024299804E0103D102D02F10802D8
:1017900016DD0130254B10310728C2E90034CDE9B0
:1017A0002901F1DD5946504628AA04F043FF0028DC
:1017B0007FF405A9DDE92901103D102D2BAAE8DCF5
:1017C00001301A4B29440728CDE9290155601360DF
:1017D00000F34182387808320644C4E717F010035A
:1017E00000F0A0800E9B53F8044B0E930AE7594675
:1017F000504628AA04F01EFF00287FF4E0A82A998A
:101800002BAA94E700230BF480620696CDF82CA057
:10181000CDF834801E469246DDF8648054AF14E063
:1018200067666666D0C90D00E4C90D0014CA0D00D4
:101830000023204649460A22FDF7AAFF0A2C79F127
:1018400000031BD3044689462F4620460A22002364
:101850004946FDF79DFF30327D1E013607F8012C09
:10186000BAF1000FE4D098F800309E42E0D1FF2E8C
:10187000DED00A2C79F1000380F0308154AB5B1B81
:10188000DDF82CA0CDF8648012965F46069EDDF848
:1018900034800B93FFF72BB80C990A9828AA1D9354
:1018A00004F0C8FE00287FF48AA89DF883202A9CB3
:1018B0001D9B0DF1AC08FFF7B8B80123C8F8043040
:1018C000299BBC4A01330134072B2A942993C8F879
:1018D000002000F3178108F10808002940F08680F5
:1018E000129A07F0010313433FF4E0A8169B1799DF
:1018F0001A19C8E90013299B2A920133072B29934F
:1019000000F3378108F10808129901338C18072B6E
:10191000CDE92934C8F80050C8F804107FF7C4A8EE
:10192000FFF7ACBB17F0400200F0A5800E9A994675
:1019300052F8044B0E92A4B264E6BB46FEF7CABF4F
:101940000C990A9828AA04F075FE00287FF437A89D
:101950002A9C0DF1AC08FFF77BBA14463A464F4675
:10196000914601332C44072BC8F80090C8F8045066
:10197000CDE929347FF798A8FFF780BB5946504638
:1019800028AA04F057FE00287FF419A838782A996D
:101990002BAAE1E60C990A9828AA04F04BFE00282D
:1019A0007FF40DA82A9C0DF1AC08FFF765B8012B58
:1019B000BB467FF4F5A9FEF792BF0E9B089953F83A
:1019C000042B554611600E93FFF78EB8062B29465F
:1019D00028BF06232A4607950D950693764D0E944B
:1019E0000B930F9113911091FEF78EBF169B1798D2
:1019F0001A19C8E90003299B2A920133072B29935E
:101A000000F3B78008F108080029BFF67DAF4E4209
:101A1000103180F2A98341461024A846DFF89C913A
:101A2000DDF828B00C9D04E00831103E102E40F384
:101A3000A78201331032072BC1E90094CDE9293286
:101A4000F2DD2946584628AA04F0F4FD00287EF469
:101A5000B6AFDDE929322BA9E7E71446079F013627
:101A60002C44072ECDE92964C8F80090C8F804502A
:101A70007FF7F5AA4EE417F400790E9B66D053F871
:101A8000044B91460E93E4B2BCE517F400790E9B2B
:101A900057D053F8044B91460E93E4B2FEF749BF7A
:101AA000299ADFF81891FFF795BA2D228DF8832037
:101AB000FFF757B8454690463A460C464F46914682
:101AC00001333444072BCDE92934C8F80090C8F815
:101AD00004605CDC08F10808FFF79EBB1C9B1B99A7
:101AE000ED1A1A462846FEF72DFD98F801300BB185
:101AF00008F10108204649460A2200230026FDF786
:101B000047FE9FE60C990A9828AA04F093FD002846
:101B10007EF455AF22992A9C0DF1AC08DDE6129AAD
:101B2000AE18A6EB0B06D51AAE42A8BF2E46FFF79D
:101B3000A6BB52F8044B894601230E92E4B2FEF78D
:101B4000FBBE53F8044B0E93FEF7F3BE53F8044B61
:101B50000E9357E50E9B089953F8042B55461180B8
:101B60000E93FEF7C1BF44F3C0194B4664B2FEF7B3
:101B7000A4BE0C990A9828AA04F05CFD00287EF403
:101B80001EAFDDE9293222990DF1AC083CE70C9932
:101B90000A9828AA04F04EFD00287EF410AF2A9C73
:101BA0000DF1AC08FFF738BB0623079326F020039E
:101BB000069370E400CA0D00F8C90D0014CA0D00A8
:101BC000DDE91235EB189E42B346199790460C4654
:101BD00028BF9B46DDF82CA0109FFFF723BB229B5C
:101BE000DA1C109302DB079A934204DD023E26F0D2
:101BF000200306938BE4109B129A9342C0F2C2809A
