:0200000280007C
:1000000038610820F5000800C186080001030800D7
:10001000C1860800C1860800C186080000000000F3
:10002000000000000000000000000000F1070800D0
:10003000C18608000000000045080800810808008B
:10004000C1860800C1860800C1860800C186080074
:10005000C1860800C1860800C1860800C186080064
:10006000C14308000000000000000000490408002F
:10007000A9040800000000000000000000000000CB
:100080000000000071450800B94708005549080004
:1000900000000000C186080021840800C186080015
:1000A000C186080000000000C1860800C186080063
:1000B000C1860800C1860800C1860800C186080004
:1000C000C1860800000000000000000000000000E1
:1000D000C1860800C1860800C1860800C1860800E4
:1000E000C1860800C186080000000000E135080054
:1000F000C136080038B54FF480514FF000541F4806
:100100001F4A204D204B90426C632C61596319614A
:100110000FD01E498A420CD20139891A21F00301FD
:1001200004310346084453F8041B834242F8041B7D
:10013000F9D1174A17498A420BD200200139891A8E
:1001400021F00301043113460A4443F8040B9A4298
:10015000FBD1114B114923F0604203F1604322F0BF
:100160007F02B3F5801F8A6003D28B6843F000538F
:100170008B6011F009FA00F05BF8FEE74CEC090027
:1001800000800720000E0E4000100E40B88C0720A3
:10019000B88C0720384108200000080000ED00E07E
:1001A00010B5054C237833B9044B13B10448AFF3B1
:1001B00000800123237010BDB88C072000000000D0
:1001C0004CEC090008B5034B1BB103490348AFF3DE
:1001D000008008BD00000000BC8C07204CEC09002A
:1001E000002203490348044B08601A60704700BFAF
:1001F0004C340820F4810720D88C072002210320EA
:10020000014A03F0EDBE00BF049709000121002060
:10021000014A03F0E5BE00BF149709000378132BD1
:1002200000D0704740780028FBD108F0D9BB00BF50
:1002300010B586B003F09AFE00F0C2F903F0CEFFCD
:1002400004F0B4FC08F0DAFB012008F0D1FB012037
:1002500008F0C6FB002008F0C3FB03F0F5FD072003
:100260001A4903F067FD0820194903F063FD0920CE
:10027000184903F05FFD1320174903F05BFD04F0FC
:100280004BF8164A164B9078547816490493CDE9EA
:10029000022113780121144A01900094002003F0F8
:1002A0009FFE10F0BBF809F0D9FD10F055FA04F0EC
:1002B000ABFC00F061FA01210C4A002003F090FE33
:1002C00000F08AFC002006B010BD00BFE10108006C
:1002D0000D020800FD0108001D02080084970900B6
:1002E0004497090050970900249709005C9709007A
:1002F00030BF024A1368013313607047D88C07205F
:1003000010B4084C084A2368934203D80133236091
:1003100010BC7047002001212060044A10BC03F08B
:100320005FBE00BFD48C0720F5FF09006897090065
:1003300038B56424044D00212A46084603F050FED7
:10034000013CF8D138BD00BF789709000120704703
:100350000620704701207047094A0346106810B410
:10036000084940B103448B42C8BF4FF0FF3010BC76
:10037000D8BF13607047044C20461460F2E700BFFA
:10038000DC8C0720FC7F0820386108204FF0FF300C
:10039000704700BF4FF4005300204B60704700BF10
:1003A0000120704700207047014608B5014811F050
:1003B0008FFCFEE790970900704700BF4FF0FF30B9
:1003C000704700BF2DE9F0410C46904690B9002AD5
:1003D0000CDD0A4F0A4E8D18214638683368013407
:1003E0009847AC42F8D14046BDE8F081804640468F
:1003F000BDE8F0814FF0FF38F5E700BFE88C07203B
:10040000E08C0720013802282DE9F0410D4612D872
:100410009AB114460A4FDFF82C80561C01E0013CCB
:100420000BD03868D8F8003015F8011B9847002821
:10043000A6EB0402F3DA4FF0FF321046BDE8F0817C
:10044000E88C0720E48C072010B5144807F046FF1D
:100450008107044619D4E2030ED4E30400D410BD8E
:100460004FF480510D4807F037FF0D4803F09EFD13
:1004700001220C4B1A7010BD4FF48031074807F071
:100480002BFF0122074B1A70E7E70221034807F010
:1004900023FF0122034B1A70DDE700BF000E0E4060
:1004A000AC970900F48C072010B50D4807F016FF33
:1004B000020404460BD4E30300D410BD4FF4803192
:1004C000074807F009FF0122064B1A7010BD4FF4D0
:1004D0000041034807F000FF0122024B1A70EAE7CF
:1004E00000100E40F48C072070B50B2007F014FDAF
:1004F0000C2007F011FD4FF480544FF40043022606
:100500001848194D4661C0F8A0606B61C5F8A0306D
:100510004461C0F8A040446644654462C0F880402D
:10052000036F102223F480530367104907F0BCFEC9
:1005300010224FF4C031284607F0B6FE4FF4006297
:1005400000210B4BC3F88020C3F8802183F80B13E4
:100550001A60C3F88040C3F8804183F80C131C6014
:1005600070BD00BF000E0E4000100E4002100100D2
:1005700000E100E008B50F490F4807F0A9FE4FF46D
:10058000C0310E4807F0A4FE012007F0E7FC02206E
:1005900007F0E4FC082007F0E1FC802007F0DEFC17
:1005A0004FF4805007F0DAFCBDE808404FF40050EB
:1005B00007F0D4BC02100100000E0E4000100E40E7
:1005C000F0B5002687B04FF48071534807F05EFF06
:1005D0000821514807F052FF4F4807F05FFF4F4B8B
:1005E0004F4D1E70FFF780FFFFF7C4FF304607F046
:1005F0007DFB07F047FC07F039FC4A4808F0D8F8C3
:1006000008F062F80B2007F087FC0C2007F084FC50
:10061000454C07F005F9454F454E09E04FF00052B3
:100620004FF480537A637363FFF7A4FF03F0B8FCC1
:10063000204603F0BBFC2B78002BEFD03D4803F0A5
:10064000B5FC3D4807F0AEFE04460020C4F302248A
:1006500007F0D4FB07F048FC0028FBD0002007F08F
:1006600071FB08F005F90B2007F056FC0C2007F091
:1006700053FC06F0F1FE4FF40041304807F0C4FE91
:10068000012103462E4A002003F0AAFC2A4B012038
:100690005E6A07F071FE05462A4A234601210020C2
:1006A0000096019503F09CFC0120002107F06CFEF0
:1006B000254BB3F5202F34BF2448254803F076FCA2
:1006C000244B254A1B6C0421C3F30323092B0CBFC5
:1006D0004FF400334FF480230020136007F022FF13
:1006E00068B9042102A807F0C5FF88B91B4B059A19
:1006F0001B481A6007B0BDE8F04003F057BC19482A
:1007000003F054FC042102A807F0B4FF0028EDD048
:10071000154803F04BFCE9E7101A0E40EC8C07205B
:10072000F48C072000BD0105B8970900000E0E40AB
:1007300000100E40C8970900001A0E40501A0E40D3
:10074000D497090004980900C1050800149809000D
:100750002098090000090E40F08C0720F88C072033
:10076000709809002C98090048980900014807F082
:1007700013BE00BF001A0E4000B5012185B00F4A1C
:10078000002003F02DFC00233222CDE90233CDE915
:10079000002304F03FFA072807D00AF061FD6846FD
:1007A00004F0E8FA05B05DF804FB02F045FE684687
:1007B00004F0E0FA05B05DF804FB00BF889809007A
:1007C00003480068006880F3088862B600DF00BF55
:1007D00008ED00E010B400234FF0807440F80C3CAA
:1007E00040E9021440F8202C10BC4038704700BF8C
:1007F000064B19680868B0E8F00F80F309884FF0DD
:10080000000080F311884EF00D0E7047FC8C07201D
:100810004FF0A00383F31188BFF36F8FBFF34F8FA7
:10082000024A136801331360704700BFB08007208D
:10083000034A1368013B13600BB983F311887047B7
:10084000B0800720EFF309800C4B1A6820E9F00F05
:1008500010602DE908404FF0A00080F3118800F0EF
:1008600091FB4FF0000080F31188BDE80840196843
:100870000868B0E8F00F80F309887047FC8C072007
:1008800008B54FF080524FF0E023C3F8042DEFF38A
:1008900011834FF0A00282F31188BFF36F8FBFF373
:1008A0004F8F00F0E9F9002383F3118808BD00BFE2
:1008B0004FF0E0230722024959611A61704700BFD7
:1008C0001F4801004FF0E02310B50024D3F8202D7D
:1008D00042F47002C3F8202DD3F8202D42F070426C
:1008E000C3F8202DFFF7E4FF024B1C60FFF768FF01
:1008F000204610BDB0800720704700BFF8B51B4BE5
:100900001B4E05461C6830680F46043000F060FF3F
:1009100048B933681749DA6A012303FA02F20B680F
:1009200023EA02030B606B1C17D0336864195C6008
:1009300007D3114B18683168BDE8F840043100F066
:100940002FBF0E4B18683168043100F029FF0C4BA3
:100950001A68A24288BF1C60F8BD002FE5D031683C
:1009600008480431BDE8F84000F00CBFD08D0720E6
:10097000FC8C0720588D0720048D0720008D072050
:10098000888D0720A88D072080B54FF0E02A4FF012
:100990008059154D154F164EDFF8588014E0FFF7BB
:1009A00037FFFB68DC68201D00F012FF3368013B55
:1009B00033602B68013B2B60FFF73AFF206B01F09F
:1009C000EFF9204601F0ECF92B68002BE7D1D8F8BD
:1009D0000030012B05D9CAF8049DBFF34F8FBFF338
:1009E0006F8FFFF785FCEFE7488D0720BC8D072050
:1009F000448D0720088D07202DE9F0479700804699
:100A000038460D46994601F035F9064600287DD056
:100A1000582001F02FF9044600287BD00663002DF2
:100A200000F0818030463A46A52111F0F3F8236B9F
:100A3000043F1F4427F007066B1E04F133010935FC
:100A400013F8012F01F8012F0AB19D42F8D1089D3A
:100A50000027022D28BF022504F1040A5046C4E9EC
:100A60001257E56284F83D7000F088FEC5F1030579
:100A700004F1180000F082FE27654A4641463046E0
:100A8000A56184F8547024616462FFF7A3FE099B9A
:100A9000206003B11C60FFF7BBFE404A404E136864
:100AA000013313603368002B4ED03E4F3B68002B60
:100AB00043D0E36A01253C48DFF8F0C0026803EB4D
:100AC000830E2A44026022643948DCF8002005FACB
:100AD00003F31343514600EB8E00CCF8003000F0D6
:100AE00051FEFFF7A5FE3B68D3B13268E36AD26AD4
:100AF0009A4215D24FF0E0234FF08052C3F8042DF4
:100B0000BFF34F8FBFF36F8F284601E04FF0FF30E8
:100B1000BDE8F087304601F043F94FF0FF30F7E7CA
:100B20002846BDE8F0874FF0A00383F31188BFF398
:100B30006F8FBFF34F8F00BFFDE73368DA6AE36A58
:100B40009A4298BF3460B5E734601368012B02D035
:100B5000E36A144FAEE7164800F004FEDFF8548055
:100B6000154800F0FFFD154D154800F0FBFD40460F
:100B700000F0F8FD284600F0F5FD124800F0F2FD07
:100B8000114800F0EFFD114800F0ECFD104B054F4F
:100B9000C3F800800F4B1D60E36A8BE7448D07208C
:100BA000FC8C0720A48D0720548D0720588D07202A
:100BB000088D07205C8D07201C8D0720708D072075
:100BC000308D0720908D0720BC8D0720A88D072031
:100BD000008D0720048D072030B50024194B83B009
:100BE0000193C8222346184918480094FFF704FFD0
:100BF00001280DD0013001D003B030BD4FF0A0036B
:100C000083F31188BFF36F8FBFF34F8F00BFFDE7F2
:100C100000F01EFE0128EDD14FF0A00383F31188F0
:100C2000BFF36F8FBFF34F8F4FF0FF350849094A6D
:100C3000094B0D6010601C6003B0BDE83040FFF749
:100C400041BE00BF848D07209C98090089090800D7
:100C5000888D0720A48D0720D08D0720024A1368B5
:100C600001331360704700BF508D0720014B186897
:100C7000704700BFD08D07202DE9F04F4E4B83B059
:100C80001B68002B48D14D4B1D6801351D60002DA0
:100C900050D04B4B0193019B1B68AB4258D8494E37
:100CA00033681C68002C76D00024DFF81C81DFF844
:100CB0001C91474F23E0504600F08AFDDBF82820C6
:100CC0000BF118000AB100F083FD0122DBF82C00C3
:100CD0003B68824000EB80001A43514608EB8000DD
:100CE0003A6000F04FFDD9F80030DBF82C20DB6AC9
:100CF0009A4228BF012433681B68002B4FD0336809
:100D0000DB68D3F80CB0DBF804200BF1040A954241
:100D1000D1D2019B1A6020E000242E4A13680133CF
:100D200013602D4B1B68002B0CBF2046012003B025
:100D3000BDE8F08F234B1A681268D2B14FF0A003C0
:100D400083F31188BFF36F8FBFF34F8F00BFFDE7B1
:100D50000024DFF87480DFF87490D9F80030DB6A83
:100D600003EB83039B0058F80330022B28BF0124B8
:100D7000D7E71A4A186811681960194910600A689B
:100D800001320A601A68126872B94FF0FF330C4AD8
:100D9000019213607FE7DFF83080DFF830904FF08A
:100DA000FF33019A1360D8E71B68054ADB6801929C
:100DB000DB685B6813606EE7508D0720D08D0720DD
:100DC000888D0720008D0720088D0720FC8C0720C8
:100DD000588D07204C8D0720D48D0720048D0720C7
:100DE0008C8D07202DE9F84FFFF712FD394B1A685B
:100DF000013A1A601B68002B5DD1374B1B68002B32
:100E000059D0DFF8D8A0DAF80030002B5ED00126E8
:100E1000334DDFF8D080344FDFF8D090DAF80C3063
:100E2000DC6804F1040B04F1180000F0D1FC584612
:100E300000F0CEFCE06A2A6806FA00F300EB8000BE
:100E40001343594608EB80002B6000F09BFC3B6885
:100E5000E26ADB6A9A4228BFC9F80060DAF800301B
:100E6000002BDBD1224B1A68126852B31A68214B4F
:100E7000D268D26852681A601F4E346844B10125A6
:100E8000FFF7FAFE08B1C9F80050013CF8D1346010
:100E9000D9F800307BB14FF0E0234FF08052C3F817
:100EA000042DBFF34F8FBFF36F8F0124FFF7C0FCFA
:100EB0002046BDE8F88F0024FFF7BAFC2046BDE8C5
:100EC000F88F4FF0FF320B4B1A60D5E7DFF81C901C
:100ED000D2E700BF508D0720448D0720908D07205A
:100EE000588D0720088D0720FC8C0720D48D072003
:100EF000008D0720888D07204C8D0720074B1B682D
:100F00004BB94FF0A00383F31188BFF36F8FBFF38A
:100F10004F8F00BFFDE7FFF765BF00BF508D072073
:100F200010B550B94FF0E0234FF08052C3F8042DB4
:100F3000BFF34F8FBFF36F8F10BD114C216849B1C4
:100F40004FF0A00383F31188BFF36F8FBFF34F8F70
:100F500000BFFDE7236801332360FFF7CFFC236860
:100F60004BB94FF0A00383F31188BFF36F8FBFF32A
:100F70004F8F00BFFDE7FFF735FF0028D2D010BD2F
:100F8000508D0720174B1B681BB10122164B1A60AE
:100F900070471549154A0B601368B3FA83F3DBB247
:100FA000C3F11F03124A03EB83039900505802EB6D
:100FB000830348B94FF0A00383F31188BFF36F8F09
:100FC000BFF34F8F00BFFDE75868083140680A44FF
:100FD0009042586008BF4068C26808BF5860054B1F
:100FE0001A607047508D0720D48D0720588D072038
:100FF000088D0720FC8C072010B50C4650B10A4B19
:101000001968183100F0CCFB2046BDE810400121E2
:10101000FFF774BC4FF0A00383F31188BFF36F8F09
:10102000BFF34F8F00BFFDE7FC8C072038B50D469E
:10103000144678B10C4B1968183100F0A3FB002C52
:10104000214608BF2846BDE8384018BF4FF0FF30A2
:10105000FFF754BC4FF0A00383F31188BFF36F8FE9
:10106000BFF34F8F00BFFDE7FC8C0720C36870B54E
:10107000DC6854B304F11805284600F0A9FB194BAD
:101080001B6873B12946184800F07CFB174BE26AD5
:101090001B68DB6A9A4222D90123154A184613605D
:1010A00070BD261D304600F093FB0123114DE26A0E
:1010B000314611482E6802EB820C9340334300EB1B
:1010C0008C002B6000F05EFBE0E74FF0A00383F3A1
:1010D0001188BFF36F8FBFF34F8F00BFFDE7002074
:1010E00070BD00BF508D0720908D0720FC8C07201D
:1010F000D48D0720588D0720088D072010B5044691
:1011000058B1FFF785FB0A4A0A4B12681B68C4E90D
:101110000023BDE81040FFF78BBB4FF0A00383F323
:101120001188BFF36F8FBFF34F8F00BFFDE700BF84
:101130008C8D0720D08D0720034A044B12681B6852
:10114000C0E90023704700BF8C8D0720D08D072099
:10115000F8B504460D46F0B199B1FFF759FB2B687D
:101160001D4A581C11682DD0D4E900C01B4E3768A9
:10117000BC451AD0884218D80126FFF759FB3046E3
:10118000F8BD4FF0A00383F31188BFF36F8FBFF357
:101190004F8F00BFFDE74FF0A00383F31188BFF32B
:1011A0006F8FBFF34F8F00BFFDE7A1EB000C6345CE
:1011B0000DD95B1A3168126803442B600026C4E91C
:1011C0000012DAE70026FFF733FB3046F8BD0023B4
:1011D00001262B60D1E700BFD08D07208C8D072022
:1011E0000122014B1A607047D48D072068B1036B50
:1011F0001A78A52A0FD1C3F10101C81813F8012FDD
:10120000A52AFAD0C0F38F007047044B1868036B0F
:101210001A78A52AEFD00020704700BFFC8C072069
:10122000014B1868704700BFFC8C0720054B1B68FA
:1012300033B1054B1B68002B0CBF02200020704708
:1012400001207047A48D0720508D0720F8B5044673
:10125000C8B1254DC36A2A68D26A934214D2826902
:10126000002A04DB2A68D26AC2F1030282611F4E9F
:10127000626903EB830306EB83039A420CD00120DF
:101280002B68DB6AE362F8BD2B68806CDB6A9842EE
:101290002CBF00200120F8BD271D384600F098FA29
:1012A00070B9E16A01EB81039B00F35843B9012354
:1012B0000F4A03FA01F1136823EA0103136000E007
:1012C0000B4A2B681568DB6A3946E362012403EB9D
:1012D000830004FA03F306EB80002B43136000F055
:1012E00051FA2046F8BD00BFFC8C0720088D07206E
:1012F000588D0720F8B5044600B3274B1B6883427E
:1013000009D04FF0A00383F31188BFF36F8FBFF3B1
:101310004F8F00BFFDE7DB6C4BB94FF0A00383F3A9
:101320001188BFF36F8FBFF34F8F00BFFDE7C16A16
:10133000826C013B9142C36400D00BB10020F8BD28
:10134000061D304600F044FAA8B11448144A01259D
:10135000A36C3146C3F103071668E362A76103EB90
:10136000830405FA03F300EB84003343136000F0B9
:1013700009FA2846F8BDE56A084805EB85039B0095
:10138000C358074A002BE2D1012303FA05F513687D
:1013900023EA05031360DAE7FC8C0720088D072099
:1013A000588D072070B50446A0B1C36C4BB94FF0FF
:1013B000A00383F31188BFF36F8FBFF34F8F00BF7C
:1013C000FDE7806CE26A814238BF01468A4201D063
:1013D000012B00D070BD244B1B68A34224D0A3690D
:1013E000E162002BA8BFC1F10301204DA8BFA1619C
:1013F00002EB8202616905EB82039942EAD1261D64
:10140000304600F0E5F9C8B10123E26A184C9000BB
:101410009340104422683146134305EB800023605B
:10142000BDE8704000F0AEB94FF0A00383F311881F
:10143000BFF36F8FBFF34F8F00BFFDE7E26A02EB90
:1014400082039B00EB5890001BB10123084C934092
:10145000DFE70123064C9340D4F800C02CEA030CCC
:10146000C4F800C0D5E700BFFC8C0720088D07201A
:10147000588D0720044B1A681AB11968CA6C0132DA
:10148000CA641868704700BFFC8C07202DE9F04142
:10149000214C0E46074615469846FFF7B9F92168D4
:1014A00091F8541002290BD0012123681A6D22EA09
:1014B00007021A65236883F85410B8F1000F16D19B
:1014C000FFF7B6F9FFF7A4F915B123681B6D2B6080
:1014D000236893F85430022B17D00025002223688C
:1014E00083F85420FFF7A4F92846BDE8F081404670
:1014F000FFF704FA4FF0E0234FF08052C3F8042DB9
:10150000BFF34F8FBFF36F8FDAE723680125196DA3
:1015100021EA06061E65E1E7FC8C0720F8B50446C3
:101520000F4615461E46D8B1FFF772F90EB1236D6E
:101530003360022394F8546084F85430F6B2042DDA
:1015400052D8DFE805F006171B050300022E38D03D
:101550002765012E16D00126FFF76AF93046F8BD3F
:101560004FF0A00383F31188BFF36F8FBFF34F8F4A
:1015700000BFFDE7216D39432165EAE7236D0133A3
:101580002365E6E7271D38461E4D00F021F9E36A82
:1015900039461D482F6806FA03F203EB83033A43EA
:1015A00000EB83002A6000F0EDF8A36A5BB14FF016
:1015B000A00383F31188BFF36F8FBFF34F8F00BF7A
:1015C000FDE70026C8E7114BE26A1B68DB6A9A4216
:1015D000C1D94FF0E0234FF08052C3F8042DBFF380
:1015E0004F8FBFF36F8FB7E7236D0133B1D04FF04B
:1015F000A00383F31188BFF36F8FBFF34F8F00BF3A
:10160000FDE700BF588D0720088D0720FC8C0720C0
:101610002DE9F04104460F4615461E4628B3FFF754
:101620006BF9EFF311884FF0A00383F31188BFF338
:101630006F8FBFF34F8F0EB1236D3360022394F889
:10164000546084F85430F6B2042D59D8DFE805F020
:1016500006171B050300022E25D02765012E16D084
:10166000012088F31188BDE8F0814FF0A00383F3D7
:101670001188BFF36F8FBFF34F8F00BFFDE7216D60
:1016800039432165EAE7236D01332365E6E7A36A61
:101690005BB14FF0A00383F31188BFF36F8FBFF3EB
:1016A0004F8F00BFFDE70020DBE71C4B1B680BBB27
:1016B000251D284600F08CF8E06A194B194A86402F
:1016C00000EB800002EB80001A68294616431E607A
:1016D00000F058F8144BE26A1B68DB6A9A42BFD9E3
:1016E000069B13B10123069A136001230F4A184683
:1016F0001360B6E70E4804F1180100F043F8E9E77B
:10170000236D0133AAD04FF0A00383F31188BFF3F8
:101710006F8FBFF34F8F00BFFDE700BF508D0720D5
:10172000588D0720088D0720FC8C0720D48D0720BA
:10173000908D072038B5044670B1FFF769F894F82A
:101740005430022B05BF00230125002584F85430B6
:10175000FFF76EF8284638BD014B1C68EDE700BF67
:10176000FC8C07204FF0FF31002200F10803C0E994
:101770000131C0E903330260704700BF00230361F9
:10178000704700BF436810B49C6802688C609C6816
:1017900001324B606160996010BC08610260704763
:1017A00030B40D686B1C10D000F108031C465B6858
:1017B0001A68AA42FAD902684B60013299608C60BB
:1017C0006160086130BC0260704704696368F2E7D9
:1017D000036910B4D0E901125C688A60516000218D
:1017E000844208BF5A601A680161013A1A60186899
:1017F00010BC7047F8B5104CFFF70AF825681DB10A
:10180000BDE8F840FFF714B80C4F0D4E3846FFF70F
:10181000A9FF3046FFF7A6FF0A4B2A461F600A4B76
:1018200010211E201E6000F0BDFB20600028E7D0C4
:10183000064900F02FFFE3E70C8E0720E08D07201C
:10184000F48D0720D88D0720DC8D0720A49809008F
:1018500010B582B0FFF7CEFF0D4B1B685BB10224C1
:101860000C48002301904FF496720B490B480094EA
:10187000FFF7C2F848B94FF0A00383F31188BFF314
:101880006F8FBFF34F8F00BFFDE702B010BD00BFE9
:101890000C8E0720108E0720AC980900DD19080077
:1018A0002DE9F04107462C200D4690461E4600F0DB
:1018B000E1F90446A8B14DB94FF0A00383F31188B4
:1018C000BFF36F8FBFF34F8F00BFFDE7FFF792FFAE
:1018D000069BC4E90658276026626362201DFFF755
:1018E0004DFF2046BDE8F08130B59C460C4685B0E2
:1018F000B8B1184D296889B1052CCDE90042029094
:1019000019DCFFF793FC02284FF000031BD0694657
:101910001A46286800F074FB05B030BD084605B0D3
:1019200030BD4FF0A00383F31188BFF36F8FBFF377
:101930004F8F00BFFDE7002362460846694600F06E
:101940003FFC05B030BD6946089A286800F058FB96
:10195000E5E700BF0C8E07202DE9F0414FF00008AD
:101960001C4E82B00CE0DB68DC681F68251D284631
:10197000FFF72EFF636A20469847E369012B0AD0E0
:1019800033681A68002AEED1134A11681360316077
:1019900002B0BDE8F081A3693B449F4206D22946CC
:1019A000306863602461FFF7FBFEE9E700233A46F5
:1019B00020461946CDF80080FFF796FF0028DFD1BA
:1019C0004FF0A00383F31188BFF36F8FBFF34F8FE6
:1019D00000BFFDE7D88D0720DC8D07202DE9F04FF3
:1019E0004FF0E029874E884D884C89B03368D3F892
:1019F0000080B8F1000F00F09780DB68D3F800801A
:101A0000FFF72CF9FFF732F92A6882469042C0F0BE
:101A10009C808045286040F2AB8000222068A8EBC3
:101A20000A0100F04BFEFFF769FA38B94FF0805316
:101A3000C9F8043DBFF34F8FBFF36F8F00222068BA
:101A400004A900F081FC0028D0D0049B002B63DBAC
:101A5000069F7B6913B1381DFFF7BAFEFFF706F941
:101A60002B688046984277D3049BC5F80080092BE9
:101A7000E4D801A252F823F0A11A0800A11A080024
:101A8000A11A08003D1A0800F31A0800111B0800EB
:101A9000A11A0800A11A08003D1A0800F31A08004C
:101AA000059BBA693F6199182CBF01200020414570
:101AB000796054D8A8EB03039A4223D87B6A38464E
:101AC0009847FB69012BB9D10023BA6905993846BB
:101AD0000A4400931946FFF707FF0028AED14FF0E4
:101AE000A00383F31188BFF36F8FBFF34F8F00BF45
:101AF000FDE7059BBB61002B75D0434443457B60EC
:101B00003F6130D8424B391D1868FFF749FE95E711
:101B1000384600F045F991E7059BDDE90601984755
:101B2000049B002B8ADB93E7FFF798F8FFF79EF8FA
:101B30002A688246824208D8354BC5F800A01A6848
:101B40001268B2FA82F2520968E7FFF705FFC5F89A
:101B500000A0FFF7D3F971E7FFF7FEFE84E74345E6
:101B600001D90028AAD03068391DFFF719FE65E7B2
:101B7000FFF7C4F93268D268D2F80CB00BF1040157
:101B800008460391FFF724FEDBF81C0003990128A7
:101B900004D05846DBF8243098474FE7DBF81800AC
:101BA000CBF810B008EB00035345CBF8043003D951
:101BB0003068FFF7F5FDECE7AAEB080398421CD864
:101BC00000234246584619460093FFF78DFE002831
:101BD000DFD14FF0A00383F31188BFF36F8FBFF302
:101BE0004F8F00BFFDE74FF0A00383F31188BFF3D1
:101BF0006F8FBFF34F8F00BFFDE7054B1868FFF7EE
:101C0000CFFDC6E7D88D0720088E07200C8E072051
:101C1000DC8D072010B4154B1A461B688342FBD39A
:101C2000516802EB010C60450AD0416800EB010CE1
:101C300063450DD09042036010BC18BF1060704720
:101C400044681046214400EB010C63455160F1D11A
:101C5000074C2468A342EDD018CB90422144C0E940
:101C6000003110BC18BF1060704700BF642A082004
:101C7000148E07202DE9F041424D0446FEF7EEFF99
:101C80002B68002B5CD0404B1E68344231D184B3AA
:101C900004F1080160071CBF21F00701083141B3BE
:101CA000DFF8E880D8F800708F4222D3384B18460E
:101CB0001C6803E0236823B120461C4662688A4200
:101CC000F8D32B68A34214D0236805680360531A25
:101CD000102B05F1080519D96018420711D04FF0F3
:101CE000A00383F31188BFF36F8FBFF34F8F00BF43
:101CF000FDE7FFF703F90025FEF71AFB2846BDE8CC
:101D0000F08143606160FFF785FF6268002321492D
:101D1000BF1A086832438742C4E9003238BF0F60F7
:101D2000C8F80070FFF7EAF86B07E7D04FF0A003A0
:101D300083F31188BFF36F8FBFF34F8F00BFFDE7B1
:101D4000154B5E0718D11946144A00204FF0004782
:101D5000083A22F007020E4ED31AC6E900102A6094
:101D6000C2E90000C1E900230A4A3E461360074A5F
:101D70001360054B1F6088E7073323F007031946FC
:101D8000064AE2E7148E0720582A08205C2A082019
:101D9000642A0820602A0820188E0720582A082064
:101DA00000B583B0E0B11B4A50F8043C12681342FE
:101DB0000CD050F8081CB1B14FF0A00383F3118888
:101DC000BFF36F8FBFF34F8F00BFFDE74FF0A0034E
:101DD00083F31188BFF36F8FBFF34F8F00BFFDE711
:101DE00003B05DF804FB23EA020340F8043C0190D1
:101DF000FEF734FF084A0198116850F8043C08388F
:101E00000B441360FFF706FF03B05DF804EBFFF728
:101E100075B800BF582A08205C2A082070B51546FE
:101E2000026C0446866B2AB905684DB30020013662
:101E3000A66370BD7DB940680FF076FE6368226CC2
:101E40001344A26863609342F0D3236801362846A6
:101E50006360A66370BDC0680FF066FE226CE36825
:101E600051429B1A2268E360934202D2A3680B445A
:101E7000E360022DDAD1012E38BF01260020D7E71A
:101E80008068FFF737FA0136A560D1E770B50546DF
:101E9000FEF7BEFC95F845305CB2002C14DD05F170
:101EA000240603E0631EDAB25CB26AB16B6A5BB10E
:101EB0003046FFF7DBF80028F4D0FFF791F9631EF6
:101EC000DAB25CB2002AF1D1FF2385F84530FEF783
:101ED000AFFCFEF79DFC95F844305CB2002C14DD9D
:101EE00005F1100603E0631EDAB25CB26AB12B6939
:101EF0005BB13046FFF7BAF80028F4D0FFF770F96D
:101F0000631EDAB25CB2002AF1D1FF2385F84430B7
:101F1000BDE87040FEF78CBC38B504460D46D0B124
:101F2000FEF776FCD4E90F3101FB03F32268591A5E
:101F300013446260A3600A44FF230021E260A163AE
:101F400084F8443084F845307DB92369CBB9FEF775
:101F50006FFC012038BD4FF0A00383F31188BFF35D
:101F60006F8FBFF34F8F00BFFDE704F11000FFF745
:101F7000F9FB04F12400FFF7F5FBFEF759FC012003
:101F800038BD04F11000FFF771F80028DFD04FF0E2
:101F9000E0234FF08052C3F8042DBFF34F8FBFF3FF
:101FA0006F8FD4E7F8B505460E46174648B94FF08F
:101FB000A00383F31188BFF36F8FBFF34F8F00BF70
:101FC000FDE779B95020FFF755FE0446A8B124601B
:101FD00001212046C4E90F56FFF79EFF84F84C709C
:101FE0002046F8BD01FB00F05030FFF743FE0446E9
:101FF00018B100F150030360EAE700242046F8BD61
:102000002DE9F04385B0044688461E46019200281B
:1020100074D0002965D0022E0CD1E36B012B09D0BE
:102020004FF0A00383F31188BFF36F8FBFF34F8F7F
:1020300000BFFDE7FFF7FAF80546002868D0002545
:102040004FF0000907E0FEF7F3FB2046FFF71EFF05
:10205000FEF754FF0125FEF7DBFBA26BE36B9A4210
:1020600067D3022E65D0019F002F7AD0002D5CD05F
:10207000FEF7DEFBFEF7F2FDFEF7CAFB94F84430F4
:10208000FF2B08BF84F8449094F84530FF2B08BF1D
:1020900084F84590FEF7CCFB01A902A8FFF758F899
:1020A000002862D1FEF7B4FBA26BE36B9A42CAD15F
:1020B000FEF7BEFB019904F11000FEF79DFF2046DC
:1020C000FFF7E4FEFEF71AFF0028C3D14FF0E0232C
:1020D0004FF08052C3F8042DBFF34F8FBFF36F8FC3
:1020E000B8E7036C002B96D04FF0A00383F3118860
:1020F000BFF36F8FBFF34F8F00BFFDE74FF0A0031B
:1021000083F31188BFF36F8FBFF34F8F00BFFDE7DD
:10211000019B002B94D04FF0A00383F31188BFF3F1
:102120006F8FBFF34F8F00BFFDE702A8FFF704F8E2
:102130009EE7324641462046FFF770FE636ADBB9F0
:1021400048B14FF0E0234FF08052C3F8042DBFF3A5
:102150004F8FBFF36F8FFEF76BFB012005B0BDE81B
:10216000F083FEF765FB3846F8E72046FFF78EFE62
:10217000FEF7C4FE0020F1E704F12400FEF776FF2D
:102180000028E8D0DDE700BF70B505465020FFF716
:1021900071FD044688B1002601210060C0E90F16D8
:1021A000FFF7BAFE334632463146204684F84C509B
:1021B000A6602660E660FFF723FF204670BD00BFE3
:1021C0002DE9F04104460E4617461D46002846D02C
:1021D00029B3022D0CD1E36B012B09D04FF0A003E2
:1021E00083F31188BFF36F8FBFF34F8F00BFFDE7FD
:1021F000FEF782FBEFF311884FF0A00383F3118801
:10220000BFF36F8FBFF34F8FA26BE36B9A4213D371
:10221000022D11D0002088F31188BDE8F081036CF5
:10222000002BD6D04FF0A00383F31188BFF36F8F3C
:10223000BFF34F8F00BFFDE72A4694F84550314663
:1022400020466DB2FFF7EAFD6B1C12D06B1C5BB22F
:10225000012084F8453088F31188BDE8F0814FF003
:10226000A00383F31188BFF36F8FBFF34F8F00BFBD
:10227000FDE7636A0BB90120CDE704F12400FEF706
:10228000F5FE0028F7D0002FF5D0012318463B605B
:10229000C1E700BF70B504460D4650B3036C4BB1A7
:1022A0004FF0A00383F31188BFF36F8FBFF34F8FFD
:1022B00000BFFDE7036833B3FEF71EFBEFF31186A3
:1022C0004FF0A00383F31188BFF36F8FBFF34F8FDD
:1022D000A36BE26B9A4223D994F845200133FF2A7D
:1022E000A36353B220D001335BB2012084F84530A0
:1022F00017E04FF0A00383F31188BFF36F8FBFF394
:102300004F8F00BFFDE78368002BD5D04FF0A003AF
:1023100083F31188BFF36F8FBFF34F8F00BFFDE7CB
:10232000002086F3118870BD636A0BB90120F8E7BD
:1023300004F12400FEF79AFE0028F7D0002DF5D016
:10234000012318462B60ECE72DE9F04385B00446E5
:102350000D460192002800F0A180002947D0FEF729
:1023600065FF002850D0FEF753FAA66B002E69D106
:10237000019B002B35D002A8FEF7DEFE37464FF05A
:10238000E02904F12408FEF753FAFEF767FCFEF794
:102390003FFA94F84430FF2B08BF84F8447094F857
:1023A0004530FF2B08BF84F84570FEF741FA01A9BC
:1023B00002A8FEF7CDFE002833D1FEF729FAA36B61
:1023C000002B55D0FEF734FA2046FFF75FFDFEF7ED
:1023D00095FDFEF71DFAA66B002E33D1019B002B55
:1023E000D1D1FEF725FA002005B0BDE8F083036CDB
:1023F000002BB4D04FF0A00383F31188BFF36F8F8D
:10240000BFF34F8F00BFFDE7019B002BABD04FF018
:10241000A00383F31188BFF36F8FBFF34F8F00BF0B
:10242000FDE72046FFF732FDFEF768FDFEF7F0F905
:10243000A36B002BD5D0FEF7FBF9FEF7E9F9A66BED
:10244000002ECBD0226C5AB1E168A36811449942A6
:10245000E16028BF2168284628BFE1600FF064FBD7
:10246000013EA66323691BBBFEF7E2F90120BBE72F
:10247000FEF7DEF940460199FEF7BEFD2046FFF764
:1024800005FDFEF73BFD0028D7D14FF08053C9F87A
:10249000043DBFF34F8FBFF36F8FCEE74FF0A00324
:1024A00083F31188BFF36F8FBFF34F8F00BFFDE73A
:1024B00004F11000FEF7DAFD0028D5D04FF0E0233C
:1024C0004FF08052C3F8042DBFF34F8FBFF36F8FCF
:1024D000CAE700BFF0B585B004460191002855D089
:1024E000066C4EB14FF0A00383F31188BFF36F8FDA
:1024F000BFF34F8F00BFFDE7FEF798FE05460028AB
:102500004ED03546FEF784F9A36B00278BBB019BA9
:10251000002B00F09D80002D5BD0FEF789F9FEF7BF
:102520009DFBFEF775F994F84430FF2B08BF84F843
:10253000447094F84530FF2B08BF84F84570FEF7CF
:1025400077F901A902A8FEF703FE002835D1FEF7AE
:102550005FF9A36B002B46D0FEF76AF92046FFF720
:1025600095FCFEF7CBFCFEF753F9A36B0125002B7E
:10257000CDD02268013BA363002A00F08680236946
:10258000002B71D1FEF754F9012629E04FF0A0038A
:1025900083F31188BFF36F8FBFF34F8F00BFFDE749
:1025A000019B002B3AD04FF0A00383F31188BFF3B7
:1025B0006F8FBFF34F8F00BFFDE72046FFF766FC2C
:1025C000FEF79CFCFEF724F9A36B33B1FEF730F95C
:1025D000C9E702A8FEF7B0FD9FE7FEF729F9FEB9AB
:1025E000304605B0F0BDFEF723F923683BB30199EF
:1025F00004F12400FEF700FD2046FFF747FCFEF73C
:102600007DFC0028AFD14FF0E0234FF08052C3F89B
:10261000042DBFF34F8FBFF36F8FA4E7064671E71A
:10262000FEF7F6F8616A19B1236B1968C1F103016D
:10263000A068FEF7B7FE0026FEF7FAF8D0E7FEF72F
:10264000E7F8A068FEF702FE0646FEF7F1F8CEE7CF
:10265000002EF1D04FF0A00383F31188BFF36F8FEA
:10266000BFF34F8F00BFFDE704F11000FEF7FEFC43
:10267000002887D04FF0E0234FF08052C3F8042D9C
:10268000BFF34F8FBFF36F8F7CE7FEF7F3FEA060C1
:1026900075E700BF002310B4074C54F8332022B173
:1026A0000133082BF9D110BC704704EBC30244F886
:1026B0003310506010BC70476C2A082070B5044677
:1026C0000E461546FEF7A4F894F84430FF2B04BFDD
:1026D000002384F8443094F84530FF2B04BF0023D6
:1026E00084F84530FEF7A4F8A36B23B12046BDE87B
:1026F0007040FFF7CBBB04F124002A463146FEF7B9
:1027000095FC2046BDE87040FFF7C0BB10B5094CF2
:1027100001210020084A01F063FC237833B907F057
:1027200091FB06F085FF0123237010BDBDE810402A
:1027300001F09EBE432B0820B498090030B52D4807
:10274000B7B00FF0ADFB04460223E4B222462A499B
:1027500001A88DF810300FF0E1FA9DF804309DF8D3
:1027600005109DF806208DF8113001330B441344F9
:102770008DF813208DF812101A46002C37D01D4A00
:10278000651EEDB2501C0DF1130C284412F8011B0C
:1027900082420CF8011F0B44F8D105359AB2174953
:1027A00001A80FF0BBFA2B4601AA291D03F1010E67
:1027B00036A8184412F801CB1FFA8EF3994200F89C
:1027C000C8CCF3D14FF00A0C4FF0030E36AB0B44DC
:1027D0000B4936AA0868154403F8C8EC05F8C3CCC1
:1027E000C36804EB0C0204A9984737B030BD042538
:1027F000D5E700BF702E0820C0980900C8980900CE
:10280000102F0820B323632128222DE9F04F8146A1
:1028100087B0DFF8D080ADF8143000F146039BB2EA
:10282000314FDFF8C8A008F10404ADF81010ADF87E
:10283000122001934D4600260DF1100B294B0AEB97
:10284000050212F8011B03F8011B9C42F9D14FF05D
:10285000000310220021404688F804300FF040FCAD
:102860000346102200214046BB810FF039FCBB8893
:102870003BF8022B06EB83030136043507EB4303D9
:102880004240032EADB29A82D8D109F10D0309F16D
:102890000C0292B29BB21AF802001AF8033010220E
:1028A0008DF80D304FF0000300218DF80C0003A8C7
:1028B0008DF80E300FF014FCBA883988531C9BB287
:1028C00009F10E0907EBC202C0B299421FFA89F959
:1028D000BB80508302D9019B4B45ABD107B0BDE80B
:1028E000F08F00BF682E0820B4800720682C0820D5
:1028F0000B4A10B51346546802F5807EA41AE258BC
:102900000433C2F3072CC2F30740C2F307617345D7
:1029100083F805C09871D9711A71F0D110BD00BF4C
:10292000442B08202DE9F047DFF8CC820546B8F8A3
:1029300000300C46B3EB400FB04F8CB01DDD4FF0B4
:102940000009AF4E1022631C9BB216F804C0F35C62
:102950000DEB020000218DF811308DF810C08DF8BC
:1029600012900FF0BDFBB8F800306A1C785595B294
:102970000234B3EB450FA4B2E4DC7B78013B042BBB
:1029800000F2A081DFE813F07500DB00580173014D
:1029900005009C4D95F81AA1BAF1000F00F079815D
:1029A0004FF00009984EA5F81091B6F80080B8F1E4
:1029B000000F53D04B464F460122002485F81221C8
:1029C00006EBC302D38A918A128BC5F80C311A44E4
:1029D000A5F80A3103F47F43013203EB0113A5F894
:1029E0001871C5F814216B60FFF782FF6B68B5F8AA
:1029F0000A2103F580736B6012F0FF03A5F81871CC
:102A000001D0A5F818314FF0000ED5F814C108E038
:102A1000007AB3F5807F8AB2814404F101040BD0BF
:102A2000D646E818624503F1010302F101019BB2A9
:102A3000EED3BEF1000F01D0A5F80A21B5F81021A0
:102A400006EBC2031B8B0133A342CDD8531C9BB2B0
:102A50009845A5F81031AFD81FFA89F8B3684345F7
:102A600000F0198169496A480CB0BDE8F0470FF0E1
:102A700099B90DF10F0000F04FFD002800F004811E
:102A80009DF80F000121002800F0F7800020614A26
:102A900001F0A6FA00235B4D2B603A22002330247C
:102AA000362604A95A488DF811408DF812208DF869
:102AB00013308DF810600FF075F9574A04A8D178DB
:102AC00093780091527855490FF028F904A950489D
:102AD0000FF068F9FDF73AFC5149024604A80FF0DF
:102AE0001DF904A94A480FF05DF9FDF731FC4C4986
:102AF000024604A80FF012F904A945480FF052F954
:102B0000FDF728FC4649024604A80FF007F904A97E
:102B10003F480FF047F900F02FFD044600F024FD78
:102B20002A6803463F49009204A822460FF0F6F8AF
:102B3000374804A90FF036F90CB0BDE8F087BA7831
:102B40003B79394C82F0590583F01A0C82F035023A
:102B500083F0CD0303EB0222F878797923462746E8
:102B6000294E69408CEA000001EB002132822F4A95
:102B7000B57486F813C0B160251D12F8011B03F867
:102B8000011B9D42F9D100211022274839710FF015
:102B9000A7FA338A43407380254B13F8012B04F8BE
:102BA000012BA542F9D10024102221463C711E4878
:102BB0000FF096FA338AF18A328B4340B3810A448C
:102BC000104B01324FF6FF75C3F814210122C3F8F0
:102BD0000C110F481749F581A3F81041A3F81841CB
:102BE00083F81A41A3F81C4183F812210CB0BDE808
:102BF000F0470FF0D7B800BF642C0820AC2A08209B
:102C0000682C0820442B0820B48007202499090050
:102C1000702E0820D098090084970900F8980900C0
:102C20000099090004990900682E08207C2C0820CE
:102C3000822C082014990900234F244A3B46381D52
:102C400012F8011B03F8011B9842F9D1002410224D
:102C500021461D483C710FF043FA02461C4B1D49AA
:102C60000C209C801A80FFF7CDFD1B49FBE619491B
:102C70000820FFF7C7FD1949F5E6194A01F0B0F938
:102C80000123184D2B6008E7174918480FF08AF800
:102C900052E71749E7E6287800F07AFC80B1154939
:102CA00012480FF07FF8144B0A241D68FDF7DEFF71
:102CB00000230246012128460094FEF715FE3BE75B
:102CC0000949D0E60D49CEE6682E0820702C082070
:102CD000B4800720682C0820189909001C99090065
:102CE000E4980900442B082010990900702E082050
:102CF0002899090020990900082F08202C9909001B
:102D000010B5374A374C9178D37894F8122103EBF9
:102D100001239BB2A4F808316AB1334AB4F8101108
:102D200002EBC102928A9A4237D0BDE810402F4987
:102D30002F480FF037B8B4F8180108B3FF2812D89D
:102D4000FF2104F10802A1EB000CC31D02441FFA8D
:102D50008CF02344024403F8011F9342FBD14FF44B
:102D60008073A4F8183123494FF48072081F00F0D3
:102D7000CDFB00226368A4F8182103F5807363601B
:102D8000B4F81031184A013311889BB29942A4F863
:102D9000103108D1012384F81A3117491448BDE8CD
:102DA00010400EF0FFBF02EBC300C18A028B4FF050
:102DB000010C531800220133808AC4F81431B4F88E
:102DC0000831C4F80C11834284F812C1A4F8182108
:102DD000E3D0BDE81040054905480EF0E3BF00BF51
:102DE000AC2A0820442B0820B48007203099090021
:102DF000702E08204C2B0820209909002DE9F0475F
:102E00008D4C84B0B4F81E61042E40F2EC808B4AE5
:102E1000701F80B2511CB4F81C31084412F8011F15
:102E20000B4490429BB2F9D1A4F81C31844FBA19DB
:102E3000B95D527802EB012292B29A4207D08149E1
:102E400081480EF0AFFF042004B0BDE8F087BA78E7
:102E5000FB7803EB022394F812219BB2A4F80A3109
:102E6000002A40F0AB80A6F104081FFA88F8B8F1F8
:102E7000000F00F0DE8004254FF00009DFF8CCA140
:102E800008E0D4F80C310135ADB20133B542C4F8D5
:102E90000C3116D0B4F81831795D5A1C92B2234423
:102EA000B2F5807FA4F818211972EAD1514668481A
:102EB00000F02CFB6368A4F8189103F5807363603D
:102EC000DFE7B8F1800F63D0D4F814219A422AD1F9
:102ED000B4F81831A3BB5F4A0121002001F080F84B
:102EE0005D4DB4F810312A8801339BB29A42A4F8A0
:102EF000103100F09A800121584A002001F070F84A
:102F0000B4F81031012105EBC303DA8A1B8BC4F836
:102F10000C21134400220B44C4F8143184F812111C
:102F2000A4F8182139E04E4A0121002001F058F898
:102F30004C4945480EF036FF082004B0BDE8F08744
:102F400001210020484A01F04BF8B4F81801FF288D
:102F50000FD8FF213D4A0D1AC31D0244A8B22344D5
:102F6000024403F8011F9A42FBD14FF48073A4F886
:102F7000183136494FF48072081F00F0C7FA00215B
:102F80006268D4F80C3102F580726260A4F81811FE
:102F9000D4F814219A429ED02F4D34492A480EF07D
:102FA00001FFEA89324901A80EF0B8FE01A92648BE
:102FB0000EF0F8FE002004B0BDE8F087264DB4F80E
:102FC000102105EBC202D28A9A420FD0294A012170
:102FD000002001F005F828491B480EF0E3FE072009
:102FE00004B0BDE8F087B4F81C311FE70121234A83
:102FF000002000F0F5FF0021B4F8103184F8121120
:1030000005EBC305B4F80A31A88A03F47F4202EB4A
:103010000012DBB26260002B3FF425AFFFF768FCC3
:1030200094F80A31A4F818311DE7012384F81A3105
:10303000B3E7D4F80C3147E7442B0820AF2A082027
:10304000AC2A08204C990900702E08204C2B08202F
:10305000482B082050990900B48007207099090076
:10306000609909006C99090058990900789909003C
:10307000C09809003C990900489909003499090051
:103080002DE9F0475C4F82B07B78082B48D00825AB
:103090005A4BDFF86C811B88043B03EBD373C3F3FB
:1030A0004F03A8F81E3193B30024A146DFF854A1C2
:1030B000554E6B1C1AF805009BB21AF8033010220B
:1030C00000218DF8040001A88DF805308DF80690D8
:1030D0000FF006F804F0010333449B7C6040584035
:1030E00000F00F03C0F303103344304493F814C1CD
:1030F000A2B290F81431B8F81E110134A0B2023512
:103100003A4403EB0C138142ADB29370D1D87B7873
:10311000053B042B4BD8DFE803F039404A452F002C
:103120000021364BDFF8DCA01B88DFF8D480073B9A
:1031300003EBD3735B103548A8F81E319AF80830BA
:10314000314E03709AF80930F48943709AF80A30C6
:103150000134A4B21022C1708370F4810EF0C0FF5C
:10316000C0F30B0084422ED198F81A31002B31D1D4
:103170000B25B8F81E3196E7B8F8183163BB24491F
:10318000244802B0BDE8F0470EF00CBE22492148A9
:1031900002B0BDE8F0470EF005BE02B0BDE8F04752
:1031A000FFF7AEBD02B0BDE8F047FFF727BE1A49F2
:1031B00018480EF0F7FD01210020184A02B0BDE8C2
:1031C000F04700F00DBF1649124802B0BDE8F047C5
:1031D0000EF0E8BD1349D3E713494FF48072081F7E
:1031E00000F094F90022D8F80430A8F8182103F56B
:1031F0008073C8F80430C2E7AC2A0820642C082089
:10320000442B0820682C0820B4800720682E082052
:103210007C990900702E08202C99090088990900D2
:1032200084990900809909004C2B082070B500256D
:10323000244C82B02279637929468DF8042001A8B4
:1032400010228DF805308DF806500EF049FF034628
:10325000A2791D4E8DF80420E27929468DF806509A
:103260008DF80520194D102201A833700EF038FF9B
:103270002B46221D70702C1D12F8011B03F8011B38
:10328000A342F9D1002233782A71202B0AD0262BB1
:1032900011D00F490D480EF085FD02B0BDE8704019
:1032A000FFF74CBA08210220FFF73CFB02B0BDE853
:1032B0007040FFF743BAFFF7E3FE02B0BDE870408D
:1032C000FFF73CBA682C0820AC2A0820702E082092
:1032D0002C9909002DE9F04F00273D46504EDFF8AC
:1032E0004491514CDFF8448183B0002000F0C4FFCA
:1032F000002005F075FB012005F072FB00F050FE88
:1033000031680A23886901220DF1070103F098FF53
:1033100050B123789DF80720022B43D001250023CC
:103320002270E35C0A2B06D0002FDED02378022B1C
:1033300007D00127D9E7A8F8005023780025022BF1
:10334000F7D1B8F800309BB2013BE35C0A2BF0D117
:103350004FF0000394F801A089F80330A77894F89F
:1033600003B06378102289F80030A378002189F82F
:103370000130E378484689F802300EF0B1FEB8F823
:10338000003082B29BB22A490A3B93425FFA8AFA22
:10339000FFB25FFA8BFB0A800ED04FF000030027CC
:1033A0002370A2E7B5F5007F2B46625533BF013588
:1033B00001250023ADB2B4E70AF1010A57445F4486
:1033C0005AB30423043292B2E15C01339BB29342BC
:1033D0000F44F9D1131DE35C032B04D04FF000031D
:1033E0000027237081E70F4B224412F8011B03F8DA
:1033F000011B10499942F8D14FF00003102200211F
:10340000484689F804300EF06BFE4740BFB217B94A
:10341000FFF70CFF69E7002767E70422DAE700BF40
:10342000102F0820682E0820682C0820662C082001
:10343000642C08206C2E082030B5204B83B01C78FB
:103440000CB103B030BD01251D4A294620461D7030
:1034500000F0C6FD00F048F81A481B4A1B4B4FF419
:10346000E1311860157043694E22984703222146C6
:103470002846FEF797FD20B1234622462146FEF757
:10348000BFFD134C00234FF47A71012211480094C0
:10349000FEF706FA104B0146186058B100230124CC
:1034A0004FF41672CDE900430C490D48FDF7A4FA1C
:1034B00003B030BD0B4A00F093FDEFE7422B08202C
:1034C000A0990900F48107200C2F0820102F082054
:1034D0000D270800B0990900082F0820D09909008D
:1034E000D5320800B899090010B50621002005F072
:1034F00019F800B910BD0346BDE8104001210020B5
:10350000014A00F06DBD00BFDC99090001234FF4B2
:103510008072006805F01AB870B5002205460D21CA
:103520000E4804F0DBFF044608B1002070BD0B48D4
:1035300004F0BEFF10F004064FF0010107D0204652
:10354000074A00F04DFD01232B70184670BD304630
:10355000044A00F045FD2E70012070BD000A0E40A7
:10356000D0980900E4980900024B186CC0F30320BE
:10357000704700BF00090E40044B1B6CC3F30323CC
:10358000092B0CBF83208420704700BF00090E4028
:10359000022208B538B10B21074804F09FFFB0FAAA
:1035A00080F0400908BD0C21034804F097FFB0FAF1
:1035B00080F0400908BD00BF000A0E4008B5012197
:1035C000054A002000F00CFDBDE808400121002064
:1035D000024A00F005BD00BFFC990900149A0900D9
:1035E00030B5334893B004F0C7FCC0B258B10024E2
:1035F0002F4D2846E1B204F0C7FC0202034604D472
:103600000134082CF5D113B030BD2A4D2848294685
:103610002C60AB6004F084FDD5E906300822CDE9CA
:10362000013001A905A80EF07FFA00226B7922482B
:103630009B1A18BF01238DF81030036829690133E4
:1036400003601E4BAC79C5E90222C5E90422C5E935
:1036500006228DF81D202A60009203F178006A602E
:1036600053F8042B039191428DF81C4005D08342FE
:10367000C9D053F8042B9142F9D10023142203A995
:1036800009A88DF820300EF04FFA694608A800F01E
:103690006FFB009B002BB6D04FF0E0234FF0805221
:1036A000C3F8042DBFF34F8FBFF36F8FABE700BF9D
:1036B00000400B40182F0820A8300820B430082004
:1036C00030B5334893B004F057FCC0B258B1002471
:1036D0002F4D2846E1B204F057FC0202034604D401
:1036E0000134082CF5D113B030BD2A4D28482946A5
:1036F0002C60AB6004F014FDD5E906300822CDE95A
:10370000013001A905A80EF00FFA00226B790124FF
:103710009B1A18BF012320488DF81030436829698F
:10372000234443601D4BC5E90222C5E90422C5E9D3
:1037300006228DF81D402A60AC79009203F17800D2
:103740006A6053F8042F039191428DF81C4005D014
:103750008342C8D053F8042F9142F9D10123142297
:1037600003A909A88DF820300EF0DEF9694608A8F3
:1037700000F0FEFA009B002BB5D04FF0E0234FF095
:103780008052C3F8042DBFF34F8FBFF36F8FAAE7AA
:1037900000800B40402F0820A83008202831082046
:1037A0002DE9F0470546437C404E414FF25C03EB68
:1037B0008300A968104407EB401081612C79E96807
:1037C00082B0C16199007CB1012444712C6804610C
:1037D000C8182C7C104407EB4010847163B1012B96
:1037E00040D1DFF8D08009E04471D5F800C0324CF8
:1037F00004EA8C440461EBE7DFF8C0800C24DFF8B6
:10380000C09002E06B7CF25C990019441144404680
:1038100007EB411104F0CEFC012882462DD16B7CD0
:103820004A4616F803C05146CDF800C0002000F00B
:10383000D7FB013C0520FDF773FB14F0FF04E1D139
:10384000514620461F4A00F0CBFB4046697C735C22
:1038500001EB8101194407EB411102B0BDE8F047CB
:1038600004F098BB0121184A002000F0B9FB6B7CE2
:10387000DFF84080F25C9900C0E708216B7C40468D
:10388000F35C9940C9B204F079FB687C0F4A335C61
:103890000133DBB2A2FB031202F0FC0101EB920246
:1038A0009B1A335402B0BDE8F08700BF142F0820E4
:1038B000682F082000800B400000FC1F00400B40D8
:1038C0004C9A0900649A0900309A0900CDCCCCCCFE
:1038D0002DE9F843044638211E4804F0ABFF1D488B
:1038E00004F0AAFF2B2004F017FB22461A491B48BC
:1038F00004F096FB38BB03274FF0FF31174804F064
:1039000039FB164804F082FC0F260025B846144CFB
:10391000DFF848902760E6712146C4E90255C4E902
:103920000455C4E906556571A57184F804804846BC
:10393000013704F03BFB0836082F04F12004F6B2EF
:10394000E8D1BDE8F8830121064A002000F048FBD9
:10395000D1E700BF382F082000BD010500400B4013
:10396000682F0820709A0900014804F073BF00BF57
:10397000382F08202DE9F84304463621204804F06A
:1039800059FF1F4804F058FF2C2004F0C5FA2246C6
:103990001C491D4804F044FB60BB03274FF0FF3176
:1039A000194804F0E7FA184804F030FC0F26002507
:1039B000B846164CDFF85090C4F8A07084F8A760A1
:1039C000C4E92A55C4E92C55C4E92E5504F1A001D7
:1039D00084F8A55084F8A65084F8A480484601379E
:1039E00004F0E4FA0836082F04F12004F6B2E3D11B
:1039F000BDE8F8830121064A002000F0F1FACCE787
:103A0000602F082000BD010500800B40682F0820B2
:103A1000909A090038B5002301250D490D4C0E4A36
:103A2000C1E900352046C1E90233C1E905330A6125
:103A3000CB6104F0BBFA2946204604F099FA4FF412
:103A40000061F022054B596083F82B2338BD00BF7D
:103A5000182F082000400B400000FC1F00E100E090
:103A600038B5002301250D490D4C0E4AC1E900353A
:103A70002046C1E90233C1E905330A61CB6104F094
:103A800095FA2946204604F073FA4FF48051F0224B
:103A9000054B596083F82C2338BD00BF402F082008
:103AA00000800B400000FC1F00E100E010B5074C57
:103AB00082B00023012242F2107100940448FDF705
:103AC000EFFE044B186002B010BD00BFBD3508000A
:103AD000B09A0900B030082001460023024A0431A0
:103AE00010681A46FEF78CBAA831082000B51420D9
:103AF00087B0FDF715FA104C104E114D4FF0FF3204
:103B0000206801A9FEF720FC18B19DF81530012BA3
:103B10000BD90020FDF76AFB6328EFD833462A460D
:103B20000121002000F05CFAE8E701A8FFF738FE69
:103B30001420FDF7F5F9ECE7A8310820E89A090010
:103B4000B89A0900002210B50F4CC0EB001C04EB22
:103B5000CC0C8646ACF1040C00015CF8043F8B42AF
:103B60000DD023B101321E2AF7D1002010BDA0EBE9
:103B70000E0002EB400244F82210012010BD002983
:103B8000F5D0012010BD00BFB4300820F0B51B4EA9
:103B90000446357883B00DB103B0F0BD01272B4644
:103BA0004FF496721649019500971648FCF724FFCA
:103BB0002A4614211020FEF7F5F90246124B394629
:103BC0001A602846114A00F00BFAFFF76FFF2068D1
:103BD000FFF77EFEA068FFF7CDFEFFF71BFFFFF7A4
:103BE0003FFF02200A49377000F0A4F8032008497B
:103BF00003B0BDE8F04000F09DB800BFA43108203C
:103C0000CC9A0900ED3A0800A8310820D89A09009A
:103C1000D93A0800022300B58BB00146142201A84E
:103C20008DF800300DF080FF684600F0BDF80BB055
:103C30005DF804FB70B5194C8AB023785A1C132B1D
:103C400022700CD86E46164D0624002305223146FC
:103C500028688DF80040FEF7D3F90AB070BD042142
:103C6000104B114A002000F0BBF96E4607200F4AA6
:103C70000B4DD2E9003102930133039141F1000170
:103C80001360516000238DF800000522314628683A
:103C9000FEF7B6F900232370D6E700BF39340820B9
:103CA00048340820609B0900F89A09004034082035
:103CB00010B54FF461620023044600F10801D1E918
:103CC00000018AB00DF0A2FA13430ED12146092457
:103CD000282268460DF028FF054800230522694682
:103CE00000688DF80040FEF78BF90AB010BD00BFE8
:103CF0004834082010B53C220023044600F1080196
:103D0000D1E900018AB00DF081FA13430ED12146AA
:103D10000824282268460DF007FF054800230522E5
:103D2000694600688DF80040FEF76AF90AB010BDD8
:103D30004834082070B50E460C4C04EBC0042368D0
:103D40003BB19E4206D065682DB12C462368002BFE
:103D5000F7D1266070BD082101200DF0DBFB18B102
:103D6000C0E900556060EAE7606070BD88320820F5
:103D700084460A46094908B5086800236146FEF7EB
:103D80001FFA20B9064B19784A1C1A7001B108BDF8
:103D9000044ABDE8084000F023B900BF48340820B9
:103DA000AC310820009B090001460348002305228E
:103DB0000068FEF725B900BF4834082038B50378FD
:103DC0000546352B00D938BD084C04EBC3042368E5
:103DD00023B1284698476468002CF8D12978044A12
:103DE00052F82130013342F8213038BD88320820A2
:103DF000B031082000B5114C114E124D8BB0694600
:103E00004FF4FA722068FEF79FFA90B90020FDF790
:103E1000EDF96328F3D82A4601213346002000F04B
:103E2000DFF869464FF4FA722068FEF78DFA002831
:103E3000ECD06846FFF7C2FFE8E700BF483408202F
:103E4000549B0900B89A09002DE9F0433A4F01212B
:103E500000203A4B3A4A83B000F0C2F83D7815B1E1
:103E600003B0BDE8F0832A4628213620FEF79AF8F1
:103E70004FF001098646DFF8CCC02B464FF416728E
:103E8000314901953148CCF800E0CDF80090FCF7BD
:103E9000B3FD4FF4076302212D4A009303204FF432
:103EA000D87300F09DF82B4B4A46322100932A48E4
:103EB0002B46FDF7F5FC8046FCF7D8FE4946024646
:103EC0002B4640460095254C254EFDF70DFD2368F9
:103ED0003BB1B34206D065680DB32C462368002B76
:103EE000F7D126601F4C204D23683BB1AB4206D072
:103EF00066685EB134462368002BF7D1256005F073
:103F000001F901233B7003B0BDE8F08308210120D3
:103F10000DF000FB60B1C0E900666060E4E70821D5
:103F200001200DF0F7FA28B1C0E900556060CEE736
:103F30006060E4E76060D5E738340820709B0900D2
:103F4000F89A090048340820089B0900F53D08004C
:103F5000149B0900353C08004C9B0900C032082026
:103F6000F53C0800C8320820B13C080010B54FF4F9
:103F70000041084804F01AFA0346074C9BB2204659
:103F80001A46064904F026FA2046BDE8104004F01F
:103F90002FBA00BF00093D00501A0E40006000100B
:103FA000014804F025BA00BF501A0E400178A9B1AB
:103FB0004FF0604202E010F8011F79B1D2F8803E64
:103FC000DB07F8D5D2F8003EDB07F4D51368002BE9
:103FD000FCD0117010F8011F0029EFD1704700BF0D
:103FE0000CB470B51B4B04461B7882B053B94FF02C
:103FF0006045D5F8003EC340DA0703D5164B1B5C7D
:104000008B4205D2002002B0BDE8704002B070477C
:10401000124E069A07AB64213046019311F0B6FBAD
:104020003278002AEED001213046A14003E010F89A
:10403000012F002AE6D0D5F8803EDB07F7D5D5F86A
:10404000003E0B42F3D055F82430002BFBD005F88E
:104050002420ECE7BC3408205034082058340820D1
:1040600070B5144686B00121204604AA02F0B2FEC3
:1040700003460221204605AA1C4602F0ABFE00239F
:104080000546049A2046A354059A4649AB540DF0C0
:1040900067FEE8B1204644490DF062FE002839D1A0
:1040A0002846424901260DF05BFEC0B901200346B7
:1040B0003F4A93552346CDE9015001213D4A0096E0
:1040C0000020FFF78DFF00203B4B187006B070BD3D
:1040D0000646284635490DF043FE0028E6D028461E
:1040E00036490DF03DFE68B3284635490DF038FEDF
:1040F000002844D0284633490DF032FE00283BD03A
:10410000284631490DF02CFE08B301200346062E47
:10411000D0D0CDE720462D490DF022FE80B12046BB
:104120002B490DF01DFE80B120462A490DF018FEE6
:1041300080B1204628490DF013FE68B90426C8E76F
:104140000226C6E702200346B2E70326C1E70420A1
:104150000346DCE70526BCE7284614490DF000FEBF
:1041600010B901200626A5E7284614490DF0F8FDF0
:1041700038B9022006269DE70320034698E7034648
:1041800096E728460E490DF0EBFD08B9062691E7A3
:1041900028460C490DF0E4FD08B10626B0E70320DF
:1041A000F4E700BF7C9B0900849B0900D09B0900B9
:1041B00050340820B09B0900BC340820D89B09006B
:1041C000E09B0900E89B0900A89B0900889B090067
:1041D000909B0900989B09009C9B090040F20112EA
:1041E00010B5074B07499A801960074802F0C6FDD1
:1041F000BDE8104001210020044B054AFFF7F0BE46
:104200005034082001010401649C0900589C0900F5
:10421000F89A09004FF0FF304FF0FF31014BC3E92E
:1042200000017047D83408200123074A03FA00F040
:10423000D2E90012014002EAE07051EA000314BF23
:1042400001200020704700BFD8340820012202FA64
:1042500000F0C243054B5968D3F800C001EAE2718F
:104260002CEA000018605960704700BFD83408205D
:1042700000487047C434082010B50D4C034622781E
:104280008AB082420B4AD2E9001002D111F4002F09
:104290000CD021F400211160132150606846237076
:1042A0008DF801308DF80010FFF77EFD0AB010BDCB
:1042B000C4340820D834082030B58DB005F04CF84F
:1042C0008DF80A0005F000FA8DF80C0005F048FAA8
:1042D0008DF80B0005F016FCADF80E0004F0B0FFF1
:1042E0001D23024602A88DF80D208DF80830FFF737
:1042F0005BFD074B0A241D68FCF7B8FC002302464F
:10430000012128460094FDF7EFFA0DB030BD00BF43
:10431000E0340820FFF7D0BFF0B51C4D01211C4A46
:1043200083B00020FFF75CFE04F090FF05F08EF9EB
:1043300005F0FEF905F01AFB05F0EAFB2C780CB14C
:1043400003B0F0BD134923460091012264211248B5
:10435000FDF7A6FA0746114E114B01220093FA21F0
:10436000234637600F48FDF79BFA0F4B37681860FC
:104370000A26FCF77BFC23460246012138460096BC
:10438000FDF7B2FA01232B7003B0F0BDD034082042
:10439000749C0900154208004C9B0900C034082099
:1043A00015430800849C0900E03408200121002006
:1043B000014B024AFFF714BE8C9C0900F89A0900D1
:1043C00010B5264882B003F05DFFC207044603D44F
:1043D000A3071FD402B010BD00230DF103011F4835
:1043E000019303F059FF1E4B012298690DF103015F
:1043F00001AB02F0CDFE019B002BE9D04FF0E02392
:104400004FF08052C3F8042DBFF34F8FBFF36F8F6F
:10441000A307DFD50024124B0122D8690DF1030157
:1044200001AB019402F098FF90B1019B4BB14FF0AA
:10443000E0234FF08052C3F8042DBFF34F8FBFF33A
:104440006F8F9DF80310054803F01EFF02B010BDEA
:104450000221024803F014FF02B010BD00080E4014
:10446000F48107200121014803F008BF00080E4035
:10447000BFF34F8F0449054BCA6802F4E06213434F
:10448000CB60BFF34F8FFEE700ED00E00400FA05BC
:104490000221014803F0F2BE00080E4070B5284B1F
:1044A00004460E4615460121264A002084B0FFF737
:1044B00097FD254B1A7882BB0121A2691970002A49
:1044C00039D0E26982B30023204A452DCDE9002688
:1044D000039303D04F2D1CD14FF4007302934FF47C
:1044E00080731B4C0820236003F016FD69461948B1
:1044F00003F09EFE174803F0BDFE164803F0B6FE1B
:104500000121144803F0BAFEF02384F8083304B004
:1045100070BD4FF400630293E1E707200E4904B039
:10452000BDE87040FFF706BC01214FF4807002F037
:1045300039FDE061C7E7602002F034FDA061C0E70B
:10454000A09C0900F89A0900E434082000BD010588
:1045500000E100E000080E40AD430800012100200A
:10456000014B024AFFF73CBDD09C0900B49C0900F6
:1045700030B54A488DB003F09DFB494B04461B788B
:104580001BB1C3073BD4A50754D4464B1B785BB182
:10459000A0046BD4610409D4E20703D5424D2B7803
:1045A000062B6CD9230414D40DB030BD3B4803F066
:1045B00071FB05463C4A3D491378384803F1010C2C
:1045C00041F8235082F800C003F076FBE207E9D5FA
:1045D000E4E70F2300242022344903A88DF8083093
:1045E00001940DF0A1FA02A801A9FFF7C1FB022274
:1045F0002D4B2A481A7003F05FFB0DB030BD00232D
:1046000001A92648029303F065FB294B0122986912
:1046100001A902AB02F0BCFD029B002BB3D04FF00E
:10462000E0234FF08052C3F8042DBFF34F8FBFF348
:104630006F8FA8E700251E4B0122D86901A902ABA4
:10464000029502F089FE20B3029B4BB14FF0E023AC
:104650004FF08052C3F8042DBFF34F8FBFF36F8F1D
:104660009DF804100D4803F02BFB8EE702220E4B41
:104670000A481A7003F020FB61048DD596E70B49B8
:10468000064801EB830103F025FB2B7801332B70E7
:1046900088E70221014803F00BFB76E70080094020
:1046A000E6340820E5340820E7340820D8810720C4
:1046B000148207200121014803F0F8BA0080094064
:1046C0000221014803F0F2BA00800940F0B52F4BF7
:1046D00007461C780E46154687B0002C3CD12C4A64
:1046E0001278002A38D1012182691970002A48D035
:1046F000FA69002A3ED0274803F080FA03212548B2
:1047000003F0D6FAC023452DCDE900632FD04F2DFD
:1047100029D14FF40073029300234FF400351E4C4F
:104720001120CDE90333059303F0F6FB69461B4ADC
:10473000184803F079FA1748256003F0B3FA1548D2
:1047400003F0ACFA0121134803F0B0FAF02384F827
:104750001133256007B0F0BD0720114907B0BDE84F
:10476000F040FFF7E7BA4FF400630293D4E7002369
:104770000293D1E701214FF4807002F013FCF8613D
:10478000B9E7602002F00EFCB861B1E7E63408201A
:10479000E53408200080094000E100E000BD01058B
:1047A0005D45080001210020014B024AFFF718BCBB
:1047B000E49C0900B49C090010B5264882B003F0BF
:1047C00079FAC207044603D4A3071FD402B010BD70
:1047D00000230DF103011F48019303F07BFA1E4BE8
:1047E000012298690DF1030101AB02F0D1FC019B9C
:1047F000002BE9D04FF0E0234FF08052C3F8042D96
:10480000BFF34F8FBFF36F8FA307DFD50024124B89
:104810000122D8690DF1030101AB019402F09CFD66
:1048200090B1019B4BB14FF0E0234FF08052C3F8A1
:10483000042DBFF34F8FBFF36F8F9DF80310054812
:1048400003F03EFA02B010BD0221024803F030FA34
:1048500002B010BD00C00940348207200121014888
:1048600003F024BA00C009400221014803F01EBA37
:1048700000C00940F0B52D4B04461E780F46154682
:1048800087B0002E3FD1012182691970002A48D0DB
:10489000E269002A3ED0264803F0B0F903212448FB
:1048A00003F006FAC023452DCDE9007328D04F2D23
:1048B00022D14FF40073029300234FF480251D4C46
:1048C0001220CDE90333059303F026FB69461A4A0B
:1048D000174803F0A9F91648256003F0E3F91448D6
:1048E00003F0DCF90121124803F0E0F9F02384F829
:1048F0001233256007B0F0BD4FF400630293DBE78D
:1049000000230293D8E707200C4907B0BDE8F04028
:10491000FFF710BA01214FF4807002F043FBE06111
:10492000B9E7602002F03EFBA061B1E7E83408205F
:1049300000C0094000E100E000BD0105A5470800F6
:1049400001210020014B024AFFF74ABBF89C0900F5
:10495000B49C090010B5264882B003F0ABF9C20739
:10496000044603D4A3071FD402B010BD00230DF1E9
:1049700003011F48019303F0ADF91E4B0122986912
:104980000DF1030101AB02F003FC019B002BE9D008
:104990004FF0E0234FF08052C3F8042DBFF34F8F48
:1049A000BFF36F8FA307DFD50024124B0122D86914
:1049B0000DF1030101AB019402F0CEFC90B1019B1B
:1049C0004BB14FF0E0234FF08052C3F8042DBFF3FA
:1049D0004F8FBFF36F8F9DF80310054803F070F9F8
:1049E00002B010BD0221024803F062F902B010BD0E
:1049F00000000A40548207200121014803F056B903
:104A000000000A400221014803F050B900000A40AA
:104A1000F0B52D4B04461E780F46154687B0002E84
:104A20003FD1012182691970002A48D0E269002A29
:104A30003ED0264803F0E2F80321244803F038F979
:104A4000C023452DCDE9007328D04F2D22D14FF43E
:104A50000073029300234FF400251D4C1320CDE971
:104A60000333059303F058FA69461A4A174803F0CE
:104A7000DBF81648256003F015F9144803F00EF929
:104A80000121124803F012F9F02384F81333256052
:104A900007B0F0BD4FF400630293DBE700230293FD
:104AA000D8E707200C4907B0BDE8F040FFF742B94E
:104AB00001214FF4807002F075FAE061B9E76020DF
:104AC00002F070FAA061B1E7E934082000000A4062
:104AD00000E100E000BD01054149080010B50446B1
:104AE000C06982B08DF8071060B10A2301220DF170
:104AF000070102F0AFFA636803B198479DF8070019
:104B000002B010BD4FF0FF30FAE700BF10B50A2326
:104B10000446C06902F09EFA20B163684BB1BDE85B
:104B2000104018470121034AFFF75AFA6368002B27
:104B3000F5D110BD0C9D09000EB430B5184D0446DA
:104B40002B6882B023B164211846FDF7C3FC28B955
:104B5000002002B0BDE8304003B0704706AB4FF410
:104B60008071059A0F48019310F010FE0D480DF06A
:104B700097F90A2302460B49E06902F06BFA48B143
:104B8000636803B19847002328681A461946FDF761
:104B900037FADDE70121044AFFF722FAF0E700BF08
:104BA000EC350820EC3408200C9D090010B5044CAD
:104BB000236803B110BD0120FDF7E6FA206010BDA7
:104BC000EC35082010B5037886B0072B01D006B06D
:104BD00010BD0C4C00F01EF823685A1C0ED09842F1
:104BE00002D0FBF7C3FD2368182268468DF8083011
:104BF0008DF800200BF058FC06B010BD0346206075
:104C0000F2E700BF7482072007200149FFF792B83E
:104C1000C54B0800084BD86BDB6B80F020001A06F0
:104C2000064BC0F34010DB6B58BF40F002001B0284
:104C300058BF40F004007047000E0E4000100E40B8
:104C400003782BB9437D1BB9074A4168914200D0D4
:104C50007047017B11F0200103D01946184604F07B
:104C600009BB012004F006BB00402106037810B503
:104C70001E2B00D010BD40780128FBD11D4C23789D
:104C8000002BF7D105F0C0F81B4A1C4B10701870B0
:104C900004281FD8DFE800F028150A03030000F0FD
:104CA000AFF908F04BF90123237010BDFEF75CFE4D
:104CB00001F018FC00F0B4FA00F040FC00F0A0F99C
:104CC000F1E7FEF751FE01F075FB00F099F908F0ED
:104CD00035F9E8E7034601210020094AFFF780F98A
:104CE0000021012005F096F800F0F8F808F026F908
:104CF000D9E700BFF0350820F1350820F23508204B
:104D00002C9D0900037810B52BB9437D1BB90D4AC2
:104D10004168914200D010BD0121047B407B2402F8
:104D200004F4F85404443F2C04EB8404CCBF08463C
:104D3000184604EB840404F09DFAA008BDE8104076
:104D400004F016BF0040390403782BB9437D1BB92A
:104D5000064A4168914200D07047C27C520702D592
:104D6000184604F023BE012004F020BE01402104B7
:104D70000820704708B5FEF709FF002001F0E0FFAA
:104D800001F00AFA01F0C2F801F096FA04F0BAF95B
:104D90001E200E49FEF7CEFF0D490020FEF7D2FE81
:104DA00000200C49FEF7C6FF0B490020FEF7CAFEA3
:104DB00000200A49FEF7BEFF09490020FEF7C2FEA7
:104DC000BDE8084000200749FEF7B4BF6D4C08005D
:104DD00000403904054D080001402104494D0800F8
:104DE00000402106414C08000378282B02D1024BD9
:104DF00082781A70704700BFF4350820037810B429
:104E00000D2B01D010BC70474368A3F17902802AB2
:104E10000ED9A3F13202452A14D8032301211846E2
:104E20002B4C2C4A23701170032110BC04F020BFBE
:104E300001232749274A0B7013701846032110BC21
:104E400004F016BFA3F1FB02B2F5AE7F03D9302BFD
:104E500003D81523E2E70B23E0E7C368A3F1790247
:104E6000802A01D80523D9E7A3F13202452A01D8C7
:104E70000723D3E7302B0BD8174B01211A78144B9B
:104E8000402A0CBF13200920124A18701170CBE77A
:104E9000FB3BB3F5AE7F0BD80F4B01211A780C4BBF
:104EA000402A0CBF112015200A4A18701170BBE768
:104EB000084B1A783AB10021054A19701078013070
:104EC000C0B21070B0E70023014A18461370ABE778
:104ED000F3350820F5350820F435082008B50D20F5
:104EE0000549FEF727FF28200449FEF723FFBDE808
:104EF000084001F029BC00BFFD4D0800E94D080045
:104F00000378282B02D1024B82781A70704700BFB9
:104F1000F7350820037810B42BB9437D1BB9344A08
:104F20004168914201D010BC7047017B427B02EB8B
:104F3000012292B2B2F5004F2ED0B2F5804F23D0AD
:104F4000B2F5005F2FD0B2F5805F2ED0B2F5006FC2
:104F50002DD0B2F5806F2CD0B2F5007F2BD0B2F5FA
:104F6000807F34D0402A41D022490A78002A3AD0A2
:104F70000020214A087013780133DBB2137003213B
:104F8000184610BC04F074BE032201201A4C1949C3
:104F9000134622700870F2E7012217481549027083
:104FA00013460A70EBE70B22EFE70522EDE7072235
:104FB000EBE70922E9E7114B01201B780E4A402B51
:104FC0000CBF112315230B4913700870D7E70B4B47
:104FD00001201B78084A402B0CBF132309230549E5
:104FE00013700870CBE704490A70C8E71522CCE7B4
:104FF00000402806F8350820F6350820F735082047
:1050000008B500200649FEF795FE28200549FEF761
:1050100091FEBDE8084000200349FEF793BD00BFA4
:10502000154F0800014F0800004028062DE9F04701
:1050300080468CB09DF85070DFF804C1DFF804E1C1
:10504000DFF804A1DFF80491414C049715468CF871
:1050500000302770AAF8000089F800108EF80020B0
:105060000C46CDE90223CDE900011E460121394B52
:10507000394A0020FEF7B4FF4FF47A7237486423B0
:10508000A0FB08104FEA901902FB19880622ADF820
:105090002C20012232481FFA88F88DF82020A0FB2E
:1050A00008204FEA501A03FB1A882E482E4B1FFA8D
:1050B00088F80793A0FB0823DB08A0FB0621A0FBD0
:1050C00005CEA0FB07C2A0FB040C03EB8300A8EBFA
:1050D000400000EB0A2000EB0930C90880B2D2087A
:1050E00000EB031001EB8103A6EB430602EB820306
:1050F000A7EB430706EB011107EB02124FEADE0EA6
:105100004FEADC0C8DF824108DF825200CEB8C0177
:105110000EEB8E02A5EB4205A4EB410440BAADF8BC
:10512000280005EB0E1E04EB0C1C07A88DF826E0EA
:105130008DF827C0FEF76EFD0CB0BDE8F08700BF0C
:1051400079820720788207207C8207207B820720D3
:105150007A8207207C9D0900489D0900D34D62108A
:105160001F85EB51CDCCCCCC2440210C037810B55D
:1051700004462BB9437D1BB90D4B42689A4200D0BF
:1051800010BD007B00F0A2F8607B00F0DBF8207C13
:1051900000F0E4F8E07B00F0C9F8207CC0F34100A7
:1051A00000F0E8F80028EBD0BDE8104009F0ECBDB5
:1051B0000340390C037810B504462BB9437D1BB965
:1051C000114B42689A4200D010BD417C007C01F036
:1051D000BDF902460D4BE07B1A8001F0ADF90246A5
:1051E0000B4BA07B1A7001F0A7F90246094B207BFC
:1051F0001A7001F0A1F90246074B607B1A7001F0AA
:105200009BF9064B187010BD0340210C7C820720CF
:105210007B82072078820720798207207A82072004
:1052200008B508490020FEF78DFC07480AF0A8FCE5
:1052300000200649FEF77EFDBDE808400020044935
:10524000FEF778BD0340390C2D5008006D51080061
:10525000B551080030B503780446222B83B001D045
:1052600003B030BD01210E4B0E4A0020FEF7B8FE00
:1052700007F058FE012168B10B4A0020FEF7B0FE8E
:105280006578A378E2782179E0880095FFF7CEFE73
:1052900003B030BD054A03B0BDE83040FEF7A0BE04
:1052A000309E0900F89A0900A09D0900B49D0900EC
:1052B000014B1878704700BFFA350820024B187868
:1052C000003818BF01207047FB35082010F003029A
:1052D000034602D0012A18BF02220D4908789042E5
:1052E00018BF0A700B4A03F0800192F800C014BF87
:1052F000012000208C4518BF1170074A03F04003BD
:10530000117818BF012099421CBF0120137070470B
:10531000FA350820FC350820FD350820024B1878A6
:10532000003818BF01207047F9350820044AC0F33F
:105330000013117899421ABF0120137000207047A2
:10534000F9350820044B00F002001A78824218BF99
:1053500018700120704700BFFE350820044AC0F3D2
:10536000C003117899421ABF0120137000207047C2
:10537000FB350820034B1A781870101A18BF01204B
:10538000704700BF7F820720014B1878704700BF2D
:105390007F8207204FF4C06070B5012408228AB0D4
:1053A000ADF81E002548264B26498DF81840047894
:1053B00025481B7809780078ADF8242043EA0102DB
:1053C00002438DF81C20214A214D1278059542F0A8
:1053D00010028DF81D2014B116228DF81F201D4AD1
:1053E000019012781C48002A14BF4FF00A0C4FF0AD
:1053F000020C04780020194D194A05EB440E16786A
:105400009EF801E0029415F814404EF0020E4CEAAA
:10541000460C144A009101218DF822E08DF820C03D
:105420008DF821408DF82300FEF7DAFD05A8FEF780
:10543000F1FB09F0A9FC0AB070BD00BFF9350820E6
:10544000FC350820FA350820FD350820FE350820F7
:105450002440390CFB3508207E820720549E090029
:105460007F820720DC9D090008B5054B1A7882422F
:1054700001D1002008BD1870FFF78CFF012008BD86
:105480007F82072003782E2B00D07047034B427891
:1054900019789142F9D01A70FFF77CBF7E820720FD
:1054A00003780B2B00D070474378054A002B18BFB8
:1054B000022311789942F6D01370FFF76BBF00BF3B
:1054C000FE350820034B1A78824200D170471870CD
:1054D000FFF760BFFB350820034B1A78824200D1EA
:1054E00070471870FFF756BFF9350820034B1A783C
:1054F000824200D170471870FFF74CBFFD3508207D
:10550000094B1A7882420ED00128187006D9022859
:1055100002D18022054B1A70FFF73CBF0022034BDB
:105520001A70FFF737BF7047FA350820FC3508209E
:10553000014B1878704700BFFD35082008B52E20B4
:105540000649FEF7F7FB22200549FEF7F3FBBDE80D
:1055500008400B200349FEF7EDBB00BF855408004F
:1055600055520800A1540800F0B585B00F46064614
:1055700006F020F80C4B04461D7804F007FFA5F157
:105580000405B5FA85F56D0902950025074B01461E
:1055900053F824403A4630460423009501940AF01B
:1055A00045F805B0F0BD00BFF2350820ACA70900F2
:1055B000F0B585B00F46064605F0FCFF0C4B0446DF
:1055C0001D7804F0E3FEA5F10305B5FA85F56D0934
:1055D00002950025074B014653F824403A463046D1
:1055E0000323009501940AF021F805B0F0BD00BF37
:1055F000F2350820F8A70900F0B585B00F46064639
:1056000005F0D8FF0C4B04461D7804F0BFFEA5F151
:105610000205B5FA85F56D0902950025074B01468F
:1056200053F824403A46304602230095019409F08D
:10563000FDFF05B0F0BD00BFF235082090A80900BD
:10564000F0B585B00F46064605F0B4FF0C4B044696
:105650001D7804F09BFEA5F10105B5FA85F56D09ED
:1056600002950025074B014653F824403A46304640
:1056700001230095019409F0D9FF05B0F0BD00BFEA
:10568000F235082044A80900F0B585B00F4606465B
:1056900005F090FF0A4B05461C7804F077FEB4FA3B
:1056A00084F4002364090294064C014654F8254012
:1056B0003A463046CDE9003409F0B8FF05B0F0BDF8
:1056C000F235082060A7090070B582B0064605F0E3
:1056D00071FF054604F064FE084B0446186809F0A3
:1056E0001FFB074B024653F82510304600918423D8
:1056F000214609F0C9FD02B070BD00BF0836082080
:105700007CA6090070B582B0064605F053FF054639
:1057100004F046FE084B0446186809F001FB074BED
:10572000024653F82510304600918323214609F0A4
:10573000ABFD02B070BD00BF043608200CAA090002
:1057400070B582B0064605F035FF054604F028FE28
:10575000084B0446186809F0E3FA074B024653F871
:105760002510304600918223214609F08DFD02B0BC
:1057700070BD00BF0C360820C0A9090070B582B00A
:10578000064605F017FF054604F00AFE084B0446DE
:10579000186809F0C5FA074B024653F82510304641
:1057A00000918023214609F06FFD02B070BD00BF5B
:1057B000003608200CAA0900F0B585B00E46054653
:1057C00005F0F8FE0E4A0F4B12781B7804469A42F9
:1057D00016BF0D4B0D4F53F8207004F0D7FD0C4B46
:1057E000014653F82430284603240025029332460C
:1057F0000223CDE90045039709F0C4FD05B0F0BDD3
:10580000F2350820F1350820DCA8090070A5090050
:1058100024A5090070B584B00E46054605F0CAFE01
:10582000044604F0B3FD094B01460393084B284698
:1058300053F8243000250324029332468223019535
:10584000009409F09FFD04B070BD00BFACA4090036
:10585000C0A909002DE9F04184B08846074605F04B
:10586000A9FE1C4B04461D7805F0A4FE0646042D37
:105870001BD8DFE805F01E22262A0300164B53F83A
:10588000205004F083FD154B039553F82430002578
:10589000032401460293424638468323CDE900455E
:1058A00009F070FD04B0BDE8F0810021012004F092
:1058B000B1FA0B4B53F82650E3E70A4B53F820504C
:1058C000DFE7094B53F82050DBE7084B53F8205033
:1058D000D7E700BFF1350820ACA709007CA6090076
:1058E00060A7090044A8090090A80900F8A70900CA
:1058F000F0B585B00F46064605F05CFE0446FFF79E
:1059000017FE0C4D0C4B002818BF1D4604F03EFD41
:1059100000230193094B014653F8243003240293DA
:105920003A46304688230395009409F02BFD05B0D4
:10593000F0BD00BF1CA5090074A5090028A9090035
:10594000F0B585B00E46054605F034FE0446FFF777
:10595000AFFCB8B10C4F0D4A012818BF174604F030
:1059600015FD0B4B014653F824302846032400252F
:10597000029332468723CDE90045039709F002FDE3
:1059800005B0F0BD034FEAE788A509002CA6090081
:10599000E0A5090080A50900F0B585B00E460546D2
:1059A00005F008FE044600F0BFFD074605F002FEC4
:1059B000012F0CBF0B4B0C4B53F8207004F0E6FC8E
:1059C0000A4B014653F8243028460324002502934D
:1059D00032468A23CDE90045039709F0D3FC05B090
:1059E000F0BD00BF14A70900C8A6090030A6090031
:1059F000F0B585B00F46064605F0DCFD0546FFF71D
:105A0000C3FCB8B10C4C0D4A012808BF144604F081
:105A1000BDFC0B4B039453F82530032400250146AD
:105A200002933A4630468923CDE9004509F0AAFCA5
:105A300005B0F0BD034CEAE770A3090058A30900C4
:105A400094A509007C9E0900F0B585B00E46054678
:105A500005F0B0FD0446FFF761FC074605F0AAFD1E
:105A6000AFB10D4B53F8207004F090FC0B4B014686
:105A700053F8243028460324002502933246862317
:105A8000CDE90045039709F07DFC05B0F0BD044B5E
:105A900053F82070E8E700BF14A70900D0A409005C
:105AA000C8A60900F0B585B00E46054605F082FD92
:105AB0000446FFF703FC074605F07CFDAFB10D4B34
:105AC00053F8207004F062FC0B4B014653F824306D
:105AD000284603240025029332468523CDE900455C
:105AE000039709F04FFC05B0F0BD044B53F820704C
:105AF000E8E700BF14A7090074A90900C8A60900B7
:105B000003782C2B00D070474378022BFBD109F08F
:105B10007FB800BFF0B5037804462C2B85B001D0C8
:105B200005B0F0BD01210020794B7A4AFEF758FA02
:105B30006578012DF4D1A678E778247909F068F822
:105B4000034678B9802CEBD12946734AFEF748FA10
:105B5000724B186809F036F9204605B0BDE8F040F0
:105B600009F024B80206DBD5A0F18002042A57D838
:105B7000DFE802F038560E280300694B1C7009F06C
:105B800037F8684B186805B0BDE8F04009F01AB95D
:105B9000334601210020CDE90074634AFEF720FA64
:105BA000872C00F09780882C07D1FFF7C1FC0028D4
:105BB0000CBF40200020FFF799FC822008F0F6FF80
:105BC0005A4BDFE756EA070302D1012C00F093801D
:105BD000022C6ED0842C2CD0524B186809F0F2F8AD
:105BE0008320BAE756EA070301D1012C46D0823C54
:105BF000082C2BD801A353F824F000BF595C0800EF
:105C0000D95B0800335C08003F5C0800A55C080015
:105C10004D5C08004D5C0800875C0800655C08006E
:105C20000021CDE901740846414A0096FEF7D8F9F3
:105C300076E7404B186809F0C5F884208DE7FFF738
:105C40003DFB002853D00020FFF73CFC334B186885
:105C500009F0B8F8802080E7344B186809F0B2F8F2
:105C600082207AE70121344A0020FEF7B9F900F0DA
:105C70005BFC002844D0002000F05AFC802008F093
:105C800095FF264B7EE7FFF77FFB0130C0B203286C
:105C900028BF0020FFF7E8FB204B186809F092F8B6
:105CA00080205AE7FFF73AFB70B30020FFF714FC9F
:105CB000CCE71B4A214B11781B788B4208D001207E
:105CC00004F0A8F84FF47A70FBF72AF903F0B0FC5F
:105CD000832042E7FFF7ECFA012806D0002808BF2E
:105CE00002252846FFF70CFC67E70025F9E70120AD
:105CF000FFF7E8FBAAE7832008F058FF094B41E7CC
:105D0000012000F015FCB9E70120FFF7E5FB9DE756
:105D1000B0A40900F89A0900809E09000036082006
:105D2000F23508200436082040B009000C3608205F
:105D3000B09E090008360820949E0900F13508201D
:105D40002DE9F04184B08846074605F033FC1C4B32
:105D500004461D7805F02EFC0646042D1BD8DFE80E
:105D600005F01E22262A0300164B53F8205004F09B
:105D70000DFB154B039553F82430002503240146F1
:105D80000293424638468423CDE9004509F0FAFAE9
:105D900004B0BDE8F0810021012004F03BF80B4B7A
:105DA00053F82650E3E70A4B53F82050DFE7094B3E
:105DB00053F82050DBE7084B53F82050D7E700BFDB
:105DC000F2350820ACA709007CA6090060A70900ED
:105DD00044A8090090A80900F8A7090010B50446D6
:105DE00000210F4A08F056FF204601210D4A08F015
:105DF00051FF204602210C4A08F04CFF20460321A7
:105E00000A4A08F047FF20460421094A08F042FFE9
:105E10002046BDE810400521064A08F03BBF00BF00
:105E2000C95608008956080041560800F95508006F
:105E3000B15508006955080010B50B4C02212068C7
:105E400008F01EFF2068032108F01AFF20680421D3
:105E500008F016FF2068052108F012FF20680621CF
:105E6000BDE8104008F00CBF0036082010B50A4C01
:105E7000237803B110BD012003F0C6FF074A084B89
:105E800002281070187002D10123237010BDFFF793
:105E9000D3FF01232370F9E7FF350820F1350820EF
:105EA000F235082010B504460021114A08F0F2FE30
:105EB000204601210F4A08F0EDFE204602210E4A3D
:105EC00008F0E8FE204603210C4A08F0E3FE2046D5
:105ED00004210B4A08F0DEFE20460521094A08F09D
:105EE000D9FE2046BDE810400621074A08F0D2BE80
:105EF0007D5708005558080015580800A55A080095
:105F0000495A0800F15908009959080010B508F0DD
:105F1000AFFE204B1860FFF761FF08F0A9FE0446B2
:105F20001D4B00211D4A186008F0B4FE20460121D7
:105F30001B4A08F0AFFE022120461A4A08F0AAFECA
:105F400008F096FE0446184B0021184A186008F025
:105F5000A1FE20460121164A08F09CFE154A0221A6
:105F6000204608F097FE08F083FE134B1860FFF7F9
:105F700099FF06F0F1FF2C201049FDF7DBFE2C20E5
:105F80000F49FDF7D7FEBDE810401E200D49FDF773
:105F9000D1BE00BF08360820043608200557080087
:105FA000415D0800B95708000C3608204157080029
:105FB00041590800F158080000360820155B080018
:105FC000015B08006D5E080008B50378352B00D032
:105FD00008BD07F071FC0028FAD008F0E9F80122AA
:105FE000024B1A70BDE8084007F06CBC1036082060
:105FF000037810B4072B01D010BC7047094B1B78F5
:106000005BB1094C2378042BF6D8013323700121AE
:106010000020064A10BCFDF7E3BF034A137010BC12
:10602000704700BF123608201136082058AA090010
:1060300038B503782BB9437D1BB90F4B42689A42A0
:1060400000D038BDC37C9B06FBD4837C8BB10B4B4B
:106050001B78042BF5D90A4C2378002BF1D10820AA
:1060600003F0D2FE01280546EBD108F0A1F8257017
:1060700038BD034A137038BD014021041136082091
:1060800010360820037810B52BB9447D1CB91B4B82
:1060900042689A4200D010BD837B5A0618D4437BD5
:1060A0005B071DD5032003F0AFFE0122144B1A70CD
:1060B0000122144B1A70144B187828B1134B18781E
:1060C00010B1104B1878A0B9BDE81040FEF7D4B855
:1060D000032003F099FE0A4A0A4B14701C70EAE789
:1060E000032003F091FE0122054B90421A70DFD18C
:1060F000E1E7002006F01CFF0120E5E70040210653
:1061000081820720808207208282072083820720E5
:10611000037810B4282B01D010BC70474378044C8E
:10612000012123700020034A10BCFDF759BF00BFB6
:106130001236082060AA090008B50378142B00D095
:1061400008BD837840789BB1012B0CD00C4B18789C
:1061500028B10C4B187810B10B4B187858B9BDE822
:106160000840FEF789B8074A054B10701878EFE72A
:10617000034B1870ECE7002006F0DAFE0120EEE792
:10618000828207208382072080820720014B1878B3
:10619000704700BF8182072008B514201049FDF721
:1061A000C9FD00200F49FDF7C5FD0F490020FDF78F
:1061B000C9FC00200D49FDF7BDFD0D490020FDF78C
:1061C000C1FC28200B49FDF7B5FD07200A49FDF762
:1061D000B1FDBDE8084035200849FDF7ABBD00BF63
:1061E0003961080085600800004021063160080020
:1061F0000140210411610800F15F0800C95F080037
:10620000037810B5242B044600D010BD6378044AEF
:1062100001210020FDF7E4FE024B62781A7010BDE8
:1062200080AA09001436082038B50C4609F0D4FCC1
:1062300000F07AF930B134B1114C237813B9114B15
:106240001B7893B938BD0F4B1C78002CFAD10C4D3C
:106250002B78002BF6D003210B2003F009FD03213E
:106260000C2003F005FD2C7038BD03210B2003F03A
:10627000FFFC03210C2003F0FBFC0123237038BD3D
:106280001336082014360820437D1BB9094B426899
:106290009A4200D07047C37B5B0607D4437C13F05F
:1062A0000C0F03D001210846FFF7BEBF00210846AE
:1062B000FFF7BABF1E40210408B507490020FDF7CB
:1062C00041FC00200549FDF735FDBDE808402420CC
:1062D0000349FDF72FBD00BF1E402104896208005D
:1062E0000162080010B5437D8AB01BB90E4B4268AD
:1062F0009A4201D00AB010BD011D142268460BF06D
:1063000013FC0A4B68460A4C0093FDF783FC0FCC44
:106310000DF1140CACE80F00236805A8CCF8003090
:10632000FDF778FC0AB010BD0340111E0540111E98
:1063300094AA0900037810B5072B00D010BDFFF711
:1063400025FF18B10122094B1A7010BD074C2378A4
:106350002BB10748FDF75EFC0648FDF75BFC0648DD
:10636000FDF758FC0023237010BD00BF8482072076
:10637000D0AA0900E4AA0900BCAA090010B5437D0F
:1063800086B01BB9094B42689A4201D006B010BDD5
:10639000074C0DF1040C0FCCACE80F00236801A8EA
:1063A000CCF80030FDF736FC06B010BD03403106D6
:1063B000A8AA090008B50B490020FDF7C3FB0A494C
:1063C0000020FDF7BFFB07200849FDF7B3FC0020C4
:1063D0000749FDF7AFFCBDE8084000200549FDF77F
:1063E000A9BC00BF034031060340111E35630800FD
:1063F0007D630800E562080010B5437D8AB01BB9D3
:106400000E4B42689A4201D00AB010BD011D142201
:1064100068460BF089FB0A4B68460A4C0093FDF76F
:10642000F9FB0FCC0DF1140CACE80F00236805A8A4
:10643000CCF80030FDF7EEFB0AB010BD0340111E92
:106440002440111EF8AA0900037810B5072B00D0CC
:1064500010BDFFF79BFEB8B90D4C237843B10D4832
:10646000FDF7D8FB0C48FDF7D5FB0C48FDF7D2FB38
:106470000B48FDF7CFFB0B48FDF7CCFB0A48FDF7B7
:10648000C9FB0023237010BD0122014B1A7010BDFF
:10649000858207205CAB090070AB090084AB090062
:1064A00020AB090034AB090048AB090010B5437DAF
:1064B00086B01BB9094B42689A4201D006B010BDA4
:1064C000074C0DF1040C0FCCACE80F00236801A8B9
:1064D000CCF80030FDF79EFB06B010BD034031063E
:1064E0000CAB090008B50B490020FDF72BFB0A494E
:1064F0000020FDF727FB07200849FDF71BFC0020C3
:106500000749FDF717FCBDE8084000200549FDF7E5
:1065100011BC00BF034031060340111E496408004E
:10652000AD640800F96308001C2003F06DBC00BFD7
:1065300001461C2003F06EBC030903EB830300F04B
:106540000F0000EB4300C0B2704700BF030903EB2C
:10655000830200F00F000B0900EB420003EB830302
:10656000C0B201F00F0101EB430100EB8000C9B2A2
:1065700000EB800001EB800080B27047054A136891
:10658000B3F57A6F02D20133136070470122024BD8
:106590001A707047183608201C360820014B1878EE
:1065A000704700BF1C36082090F834300133DBB24E
:1065B000032B88BF002380F8343000EB4303598558
:1065C00090F8293013B1013B80F82930704700BFA3
:1065D00090F82900B0FA80F040097047438E0B44D0
:1065E0005B084386704700BF438E08090A2838BFFE
:1065F0000A208B4234BFC91A591A8842D4BF0020DE
:106600000120704738B5037F04464BB190F82950FC
:1066100035B9437F022B23D0032B18D0012B00D098
:1066200038BD90F8343000EB43035B8DB3F5206F39
:10663000F6D90121206A00F0DDFA0021606A00F03D
:10664000D9FA02220523627784F8293038BD90F800
:10665000343000EB43035B8DB3F5407FE9D338BDA5
:1066600090F8343000EB43035B8DB3F5407F10D3DB
:10667000B3F5246FD4D90121006A00F0BBFA0121DF
:10668000606A00F0B7FA03220523627784F82930A4
:1066900038BD2946006A00F0ADFA2946606A00F06C
:1066A000A9FA01220523627784F8293038BD00BF9A
:1066B000437F022B06D0032B08D0012B04D04FF0D0
:1066C000FF307047406870470068704780687047C7
:1066D000F8B504468069421C01D06369FBB9002605
:1066E000134F25696B1C17D028460AF0E3FA0246BF
:1066F000E068144628440D460AF0DCFA02460B46D0
:10670000204629460AF07AFC02460B4630463946B6
:106710000AF074FC06460F4630463946F8BDB3FB16
:10672000F0F001300AF0C6FA06460F46D9E700BF7E
:106730000000F03F428D818DC38D0A44008E1344CA
:1067400018448008704700BFF0B5364D83B02C78F0
:106750000CB103B0F0BD0121334B344A2046FDF7A4
:106760003FFC334800F0FCF9324800F053FA00F0E7
:10677000E1FA0646002842D0012839D12E4A0146C6
:106780002346009202462D48FBF78AF80746FAF79F
:106790006DFA23460246314638460096FBF7A4F8C8
:1067A0000126234C2E7000F09FFA237F63B13146FF
:1067B000206A00F01FFA3146606A00F01BFA0322DB
:1067C0000523627784F8293094F85830002BC0D024
:1067D000E06D012100F00EFA0121206E00F00AFAAE
:1067E0000322052384F8592084F8653003B0F0BDF6
:1067F000214620460C4B124AFDF7F2FBD0E701225E
:106800001049034600910D481146FBF749F804462C
:10681000FAF72CFA01210246334620460091FBF795
:1068200063F8BDE71D360820C4AB0900F89A0900DB
:10683000203608205C360820016A080098AB090061
:10684000A0AB0900496808002DE9F04F85B000F0C1
:1068500085F910B905B0BDE8F08F654CFFF78EFEE5
:106860002378DBB100F01CFA624D01466148FFF766
:106870009BFE6048FFF7C6FE2846FFF7A9FEE0B979
:106880002378002B00F0AF805B4800F01DFA2378DE
:1068900083F00103237005B0BDE8F08F00F00AFA21
:1068A000544D01465448FFF77FFE5348FFF7AAFEB8
:1068B0002846FFF78DFE0028E2D005F13C00FFF7E7
:1068C00087FE0028DCD02846FFF7F2FE81462846E6
:1068D000FFF730FF074605F13C00FFF72BFF0646A8
:1068E0001FFA87F8414628461FFA86FAFFF776FE18
:1068F000514605F13C00FFF771FE41462846FFF77F
:1069000073FE8046514605F13C00FFF76DFEB8F17D
:10691000000F62D0002860D02846FFF7D9FE02465B
:1069200007FB09F0904689460AF0C4F90022824626
:106930008B46324B404649460AF036FA8046384686
:1069400089460AF0B7F902460B46404649460AF026
:1069500073F802460B46504659460AF04FFB0AF0C0
:1069600035FC4FF00102034605F13C008DF8042090
:106970000093FFF79DFE074605F13C00FFF7A8FED8
:10698000824607FB06F08B460AF094F91B4B8046C3
:1069900089460022504659460AF006FA0246304619
:1069A0000F4616460AF086F902460B46304639462F
:1069B0000AF042F802460B46404649460AF01EFBE2
:1069C0000AF004FC4FF0010202908DF80C20FFF752
:1069D000E5FD10B1684600F0B1F8052385F82930CF
:1069E00085F865304CE7034800F06EF94FE700BFCB
:1069F00098360820203608205C3608200000B04079
:106A00002DE9F04F87B000F0A9F810B907B0BDE844
:106A1000F08F444CFFF7B2FD2378B3B100F040F99A
:106A2000414D01464048FFF7BFFD2846FFF7D0FD26
:106A3000B8B923783BB33D4800F046F9237883F09A
:106A40000103237007B0BDE8F08F00F033F9364D35
:106A500001463648FFF7A8FD2846FFF7B9FD002894
:106A6000E7D005F13C00FFF7B3FD0028E1D000F0CE
:106A700061F901280BD0002100902D4B08462D4ACA
:106A8000FDF7AEFAD5E7284800F01EF9D6E728460C
:106A9000FFF750FE80462846FFF71AFE40F6E4490D
:106AA00082468B4609FB08F3234E0027A6FB0320F2
:106AB0001B1A00EB5300C00A0AF0FCF852465B4672
:106AC0000AF072F90AF082FB029005F13C008DF8A1
:106AD0000C70FFF72FFE804605F13C00FFF7F8FD34
:106AE00009FB08F380468946A6FB03269B1B06EBA1
:106AF0005303D80A0AF0DEF842464B460AF054F92E
:106B00000AF064FB8DF814700490FFF747FD28B974
:106B1000052385F8293085F865308AE702A800F05A
:106B20000DF8F5E799360820203608205C36082055
:106B3000F8AB0900D4AB0900010110000D2300B52A
:106B40008BB00146102201A88DF800300AF0ECFF4E
:106B50006846FDF729F90BB05DF804FB01F0B8BEFB
:106B60002DE9F041044600F0E5F8D0B1012810D13C
:106B70004FF0FF3340F6E4424FF47F4005210A25F1
:106B8000C4E90033C4E90232A5632261A08384F81A
:106B900029100021BDE8F0410846134B134AFDF7C8
:106BA0001FBA4FF42A7040F68C714FF0FF3546F64D
:106BB0004C5240F6E443C4E9000125612127202618
:106BC00040F2013C022501200521C4E902230A22EA
:106BD000074BC4E90876A4F81CC01D63186384F849
:106BE0002910A263BDE8F08128AC0900A0AB090020
:106BF00000100E400122430903F5001303F207734E
:106C000000F01F005B0202FA00F009B11863704740
:106C10005863704770B5044600F08CF8D0B1012875
:106C200010D14FF0FF3340F6E4424FF47F4005218E
:106C30000025C4E90033C4E90232A5632261A083C0
:106C400084F829100021BDE870400846114B124A13
:106C5000FDF7C6B94FF42A7140F68C7346F64C52D4
:106C600040F6E445C4E90013E560A2602321222236
:106C700040F201354FF0FF33C4E90812A583042127
:106C8000082505222361054B1D63196384F829201B
:106C9000A06370BD14AC0900A0AB090000100E4049
:106CA0000A2108B5024801F059FB80B208BD00BFB7
:106CB00000000C40002108B5024801F04FFB80B2F3
:106CC00008BD00BF00000C40034610B5054C93F80A
:106CD0003810204601F03EFB2046BDE8104001F090
:106CE00035BB00BF00000C4010B5104C252001F052
:106CF00013F94FF400234FF4FA3220460C4901F007
:106D0000EFFA01234FF440120021204601F010FB5E
:106D1000204601F02BFB2046002101F001FB20461C
:106D2000BDE810400A2101F015BB00BF00000C4077
:106D300000BD0105014B1878704700BF9A36082046
:106D4000014B1870704700BF9A36082010B5094CE7
:106D50000A46236853B11B6859680BF0FDF8236895
:106D600058682060003818BF012010BD02490B464A
:106D70002160F0E79C3608208C82072038B5044655
:106D8000D8B10820FAF776FF054660B1F9F740FD63
:106D900000210F4B2C601A68696055601D60F9F77F
:106DA00047FD012038BD4FF0A00383F31188BFF3E6
:106DB0006F8FBFF34F8F00BFFDE74FF0A00383F34A
:106DC0001188BFF36F8FBFF34F8F00BFFDE700BF88
:106DD0008882072000239C4613608C4521D00378CD
:106DE0001BB91EE010F8013FDBB1202BFAD103786C
:106DF000202B03D110F8013F202BFBD08BB10CF1DD
:106E0000010C6145E9D103785BB18446002104E0BF
:106E1000013111601CF8013F2BB1202BF8D101B1D9
:106E2000704700207047704793422DE9F84328BF10
:106E300013461646074688461C4633B3D0F80090E2
:106E40008368A3EB0905A54228BF2546AA4209D2BB
:106E50004FF0A00383F31188BFF36F8FBFF34F8F01
:106E600000BFFDE709EB0502934211D381692A4671
:106E7000404649440AF058FEAC4213D8BA6804EBC5
:106E800009039A4298BF9B1A3B602046BDE8F883ED
:106E90004FF0A00383F31188BFF36F8FBFF34F8FC1
:106EA00000BFFDE7A64209D24FF0A00383F311888B
:106EB000BFF36F8FBFF34F8F00BFFDE7B96908EBDA
:106EC0000500621B0AF030FED8E700BF2DE9F04153
:106ED000836847681546DE1B964228BF1646BA19D6
:106EE00093420446884609D24FF0A00383F31188E9
:106EF000BFF36F8FBFF34F8F00BFFDE7806932464E
:106F000038440AF011FEB54212D9A368AA1B9A426E
:106F100009D94FF0A00383F31188BFF36F8FBFF33C
:106F20004F8F00BFFDE7A06908EB06010AF0FCFDEA
:106F3000A3682F449F4228BFFF1A28466760BDE818
:106F4000F08100BF30B583B004460D460192ABB16D
:106F5000017FC9070ED49A4228BF1A46019282B90E
:106F60004FF0A00383F31188BFF36F8FBFF34F8FF0
:106F700000BFFDE7069A93420BD20023184603B0E8
:106F800030BD29462046FFF7A1FF0346184603B04F
:106F900030BD04220DEB0201FFF798FF019A002A91
:106FA000EFD1DDE7012A2DE9F04104460E4618D065
:106FB00068B1B4424FF0000522D24FF0A00383F332
:106FC0001188BFF36F8FBFF34F8F00BFFDE74FF006
:106FD000A00383F31188BFF36F8FBFF34F8F00BF00
:106FE000FDE7042809D84FF0A00383F31188BFF30D
:106FF0006F8FBFF34F8F00BFFDE7B4421546DCD360
:1070000004F12500FAF736FE074600B300F1240824
:1070100001342246552140460AF0FCFD804509D046
:107020004FF0A00383F31188BFF36F8FBFF34F8F2F
:1070300000BFFDE72422002138460AF0EBFD012EB7
:1070400038BF0126C7F81880BC603D77FE6038461F
:10705000BDE8F0812DE9F04387B004460E4617469F
:10706000039300296CD080B1037FDB0717D502F1B1
:107070000408424514D34FF0A00383F31188BFF3F3
:107080006F8FBFF34F8F00BFFDE74FF0A00383F377
:107090001188BFF36F8FBFF34F8F00BFFDE790469E
:1070A000039B5BB304A8FAF729F8F9F7B1FBA368CF
:1070B000256862681D44013DAD1AAB4298BFED1AC8
:1070C000A84560D90020FAF735FBD4F81490B9F13F
:1070D000000F4ED1FAF7A4F86061F9F7A9FB494611
:1070E0004A464846039BFAF7D1F9C4F8149003A91D
:1070F00004A8FAF72DF80028D7D045B9A368256869
:1071000062681D44013DAD1AAB4200D8ED1A2B4612
:107110003A4631462046CDF80080FFF713FF05467A
:1071200050B1A2686368216813445B1A9A4298BF01
:107130009B1AE2689A420DD9284607B0BDE8F08351
:107140004FF0A00383F31188BFF36F8FBFF34F8F0E
:1071500000BFFDE7F9F782FD23693BB100232069F9
:107160001A461946FAF7DAF900232361F9F7C6FE41
:10717000E2E74FF0A00383F31188BFF36F8FBFF3F3
:107180004F8F00BFFDE7F9F753FB002DB6D0BEE7E8
:10719000F0B504461D4683B0002947D000283BD0F7
:1071A000037FA668DB0758BF174600686368304452
:1071B00000F1FF30A0EB030348BF171D9E4298BFAC
:1071C0009B1B20460097FFF7BDFE064608B3A2684A
:1071D0006368216813445B1A9A4298BF9B1AE2685D
:1071E0009A4216D8EFF311874FF0A00383F311886A
:1071F000BFF36F8FBFF34F8F236943B10023206923
:107200001A4619460095FAF703FA0023236187F31B
:107210001188304603B0F0BD4FF0A00383F311880E
:10722000BFF36F8FBFF34F8F00BFFDE74FF0A00399
:1072300083F31188BFF36F8FBFF34F8F00BFFDE75C
:107240002DE9F04304460D461746994683B011B325
:10725000B8B1027F12F0010F14BF4FF004084FF0D5
:10726000000813BBA368666822681E44B61AB342BE
:1072700098BFF61A464526D80025284603B0BDE833
:10728000F0834FF0A00383F31188BFF36F8FBFF338
:107290004F8F00BFFDE74FF0A00383F31188BFF3CA
:1072A0006F8FBFF34F8F00BFFDE7F9F7B1FAA36807
:1072B000666822681E44B61AB34298BFF61AB045F3
:1072C0001CD2F9F7B5FAB8F1000F26D1294633469A
:1072D0003A462046FFF7A8FD05460028CCD0F9F72E
:1072E000BDFC63693BB1002360691A461946FAF791
:1072F00015F900236361F9F701FEBEE70020FAF7F4
:1073000019FA2669DEB14FF0A00383F31188BFF3A9
:107310006F8FBFF34F8F00BFFDE7334642462046D5
:1073200001A9A6EB0806D4F80080FFF77DFD019BBC
:107330009F4236BF00271F46C4F80080C6E7F9F712
:107340006FFF2061F9F774FA4B46324631463046FA
:10735000FAF79CF8266185E72DE9F04304460D46CF
:107360001746984685B0F9B1A0B1037F466813F07F
:10737000010F14BF04220022836801681E44761A9C
:10738000B34298BFF61AB24218D30025284605B07A
:10739000BDE8F0834FF0A00383F31188BFF36F8F34
:1073A000BFF34F8F00BFFDE74FF0A00383F31188B9
:1073B000BFF36F8FBFF34F8F00BFFDE70ABB2946B6
:1073C00033463A462046FFF72FFD05460028DCD01D
:1073D000EFF311864FF0A00383F31188BFF36F8F93
:1073E000BFF34F8F63694BB1002360691A4619469A
:1073F000CDF80080FAF70CF90023636186F3118859
:10740000C4E7334603A9D0F80090B61AFFF70CFD85
:10741000039B9F4236BF00271F46C4F80090CEE76B
:107420004FF400314FF480220A4B59605A601966BC
:1074300059655962C3F88010196F21F4003119673A
:107440001A665A655A62C3F880201A6F22F48022A5
:107450001A677047000E0E402DE9F84F4FF00209F1
:107460004FF001080B2000F057FD0C2000F054FDF8
:107470004FF480464FF40043C648C74CC0F8149000
:10748000C0F8A090C0F81080C0F8A080C0F80490A8
:10749000C0F80480C0F86090C0F85490C0F8249000
:1074A000C0F88090016F4FF4007521F00201016770
:1074B000C0F86080C0F85480C0F82480C0F8808094
:1074C000016F4FF4800C21F0010101676361C4F882
:1074D000A0302661C4F8A0606360666023666365BF
:1074E0006362C4F88030216F4FF4806A21F4004158
:1074F0002167266666656662C4F88060216F4FF476
:10750000006B21F4804121674FF080712161C4F844
:10751000A01021634FF480714FF48052C4F810C062
:10752000C4F8A0C0C4F830C04161C0F8A010056123
:10753000C0F8A05041604560416641654162C0F8B5
:107540008010016F4FF4001321F4807101674566CC
:1075500045654562C0F88050016F4FF4801721F4F3
:1075600000710167C0F814A0C0F8A0A0C0F810B066
:10757000C0F8A0B0C0F804A0C0F804B0C0F864A07F
:10758000C0F854A0C0F824A0C0F880A0016F21F476
:1075900080610167C0F864B0C0F854B0C0F824B08E
:1075A000C0F880B0016F21F4006101674261C0F84A
:1075B000A0204260026642654262C0F880204FF41B
:1075C0000052016F21F4805101670261C0F8A020D0
:1075D0004260426642654262C0F88020016F21F439
:1075E000005101676361C4F8A0306360236663657E
:1075F0006362C4F88030236F23F40013236727618C
:10760000C4F8A0706760676667656762C4F88070D9
:10761000236F23F480132367FFF702FF4FF0080E58
:107620000422C4F810904FF0200CC4F8A090C4F8C5
:107630003090C4F810804FF04009C4F8A080C4F81E
:107640003080C4F810E04FF00078C4F8A0E0C4F82F
:1076500030E02261C4F8A02022634FF480524FF43E
:107660008033C4F81090C4F8A0902261C4F8A02020
:107670002561C4F8A050C4F810C0C4F8A0C0C4F874
:107680001080C4F8A080C4F8349062636563C4F8C5
:1076900034C0C4F83480C0F814E0C0F8A0E0C0F8EA
:1076A00064E0C0F854E0C0F824E0C0F880E0026F65
:1076B0004FF4003822F0080202672561C4F8A05098
:1076C0006560256665656562C4F88050226F4FF07D
:1076D000040E2A4322674361C0F8A0304366436525
:1076E0004362C0F88030026F802122F4803202674A
:1076F0004FF400226361C4F8A0306366636563627F
:10770000C4F88030236F4FF0807523F480332367F3
:10771000C4F81480C4F8A080C0F814E0C0F8A0E059
:107720004FF4000E0761C0F8A07047630261102794
:10773000C0F8A02042630661C0F8A0604663C0F8AC
:1077400014C0C0F8A0C0C0F864C0C0F854C0C0F8ED
:1077500024C0C0F880C04FF4800C036F4FF08068E5
:1077600023F0200303674161C0F8A0104166416522
:107770004162C0F88010036F664623F08003036700
:10778000C0F810904FF48073C0F8A0900761C0F863
:10779000A07003E0000E0E4000100E40C0F810E094
:1077A000C0F8A0E0C0F810C0C0F8A0C04FF4802C12
:1077B0000561C0F8A0502261C4F8A0204FF4005227
:1077C0002161C4F8A0102261C4F8A020C4F810C040
:1077D000C4F8A0C02361C4F8A030C4F810A0C4F855
:1077E000A0A0C4F81080C4F8A080C4F810B0C4F8F9
:1077F000A0B0C0F834904763C0F834E046634563F6
:107800004FF40020606361636263C4F834C0636353
:10781000C4F834A0C4F83480C4F834B0BDE8F88F9C
:107820002DE9F84F022501240B2000F075FB0C20F8
:1078300000F072FB4FF4004A4FF48040D24B4FF4FB
:1078400000385D61C3F8A0501C61C3F8A0405D60C2
:107850005C601D665D655D62C3F880501A6F4FF411
:10786000802922F002021A671C665C655C62C3F81C
:1078700080401A6F4FF0080E22F001021A67C34AC7
:107880004FF48031C2F814A0C2F8A0A01061C2F871
:10789000A000C2F804A05060C2F860A0C2F854A0D2
:1078A000C2F824A0C2F880A0176F4FF0200C27F474
:1078B00000471767106650655062C2F88000D2F822
:1078C00070B04FF400072BF4804BC2F870B04FF04B
:1078D000807BC2F810B0C2F8A0B0C2F830B04FF44C
:1078E000800BC2F810B0C2F8A0B0C2F830B04FF4AC
:1078F000807BC3F814B0C3F8A0B04FF4007BC3F88A
:1079000010B0C3F8A0B0C3F830B04FF4806BC3F828
:1079100014B0C3F8A0B04FF4006BC3F810B0C3F8B4
:10792000A0B0C3F830B04FF4805BC3F814B0C3F814
:10793000A0B04FF4005BC3F810B0C3F8A0B0C3F818
:1079400030B0C3F81480C3F8A080C3F86480C3F8D3
:107950005480C3F82480C3F88080D3F870B02BF42F
:10796000003BC3F870B0C3F81490C3F8A090C3F8FC
:107970006490C3F85490C3F82490C3F88090D3F86F
:1079800070B02BF4802BC3F870B01561C2F8A05012
:10799000156304251461AB46C2F8A0401463C2F815
:1079A00010E0C2F8A0E0C2F830E01561C2F8A050C3
:1079B00015634FF000555D632E464FF480555563B7
:1079C0002C4640251E61C3F8A06015614FF000767B
:1079D000C2F8A0501461C2F8A0404FF400741461C2
:1079E000C2F8A040C2F810C0C2F8A0C01661C2F828
:1079F000A06055635463C2F834C056635961C3F83C
:107A0000A010596659655962C3F880101C6F4FF475
:107A1000801624F480341C675161C2F8A0105166AE
:107A200051655162C2F88010116F802421F48031B9
:107A30001167C3F814E0C3F8A0E0C3F864E0C3F82A
:107A400054E0C3F824E0C3F880E04FF4002E196F2F
:107A500021F008011967C2F81480C2F8A080C3F8A9
:107A600014B0C3F8A0B01E614FF0807BC3F8A060D3
:107A70005E63C3F810E01026C3F8A0E0C3F834E05A
:107A80001861C3F8A00058634FF48000C3F814C015
:107A9000C3F8A0C0C3F864C0C3F854C0C3F824C07E
:107AA000C3F880C0196F4FF4807821F02001196766
:107AB0005C61C3F8A0405C665C655C62C3F88040B2
:107AC000196FAC4621F0800119675761C2F8A070A8
:107AD000576657655762C2F88070116F21F4000134
:107AE00011671D61C3F8A0501E614FF40055C3F823
:107AF000A0601F61C3F8A0701861C3F8A000C3F8AC
:107B000010B0C3F8A0B0C2F810E0C2F8A0E0146151
:107B1000C2F8A0404FF4806415615946C2F8A050E5
:107B20004FF4006BC2F81090C2F8A090C2F8108019
:107B3000C2F8A0801461C2F8A0404FF080641461C4
:107B4000C2F8A040C2F810B0C2F8A0B0C3F834C068
:107B50005E635F63586359638021C2F834E05C461A
:107B600051634FF4806B4FF080615563C2F83490DD
:107B7000C2F83480C2F834B0516354634FF4001239
:107B8000C3F814A004E000BF000E0E4000100E4029
:107B9000C3F8A0A05A61C3F8A020BDE8F88F00BFC9
:107BA000B2EB011F84464FEA011012D3430803EBE6
:107BB000C202B2FBF0F24FF6FE71D308581E8842A3
:107BC00013D8120402F4E0221A430020CCF820203B
:107BD0007047C9004B0803EBC202B2FBF1F24FF64B
:107BE000FE71D308581E884201D901207047DCF885
:107BF000041041F40021CCF80410E2E770B4002333
:107C0000882524244FF480714FF40022054EC0F8DB
:107C1000E46043604362836205600460016070BC9D
:107C200002607047004153552DE9F8434FF4807CC2
:107C300000234FF088084FF0240E4FF40027DFF8A0
:107C40004C90134EC0F8E490044643600D464362E6
:107C500033608362C0F80080C0F800E0C0F800C064
:107C6000076081B10968FFF79BFF60B9D5E9013270
:107C700013432A691343EA6813436268336013436A
:107C80006360BDE8F8830120BDE8F88300415355E7
:107C9000A0360820806DC0B2704700BF402303604B
:107CA000704700BF10230360704700BF81607047BA
:107CB000C1607047406970474FF48073036070473C
:107CC00003464269920743BFC1F308010020D9610E
:107CD000012070474369DB0705D583690020C3F3A2
:107CE00008030B6070470120704700BF14490A6BFE
:107CF00022F003020A638B6E1B0758BF4FF4006328
:107D000002D504E0013B16D08A6E1207FAD50C4961
:107D10000B6B23F0700303430B63886E10F00800B5
:107D200008BF4FF4006302D007E0013B03D08A6E26
:107D30001207FAD57047012070470020704700BF36
:107D400000060E4015490B6B23F0030343F00103BB
:107D50000B638B6E1B0758BF4FF4006302D504E022
:107D6000013B16D08A6E1207FAD50C490B6B23F033
:107D7000700303430B63886E10F0080008BF4FF4D4
:107D8000006302D007E0013B03D08A6E1207FAD5E8
:107D90007047012070470020704700BF00060E406A
:107DA00015490B6B23F0700303430B638B6E1B07AA
:107DB00058BF4FF4006302D504E0013B17D08A6E30
:107DC0001007FAD50C490B6B23F0030343F00203B1
:107DD0000B63886E10F0080008BF4FF4006302D0F8
:107DE00007E0013B03D08A6E1207FAD570470120E5
:107DF00070470020704700BF00060E40184910B4BD
:107E00000B6ADA0722D500240B6A23F45C1323F0F3
:107E10007803034343F45C1343F008030B62104AF6
:107E2000936E9B03FCD5136A23F09B7323F480337A
:107E300043F45C1313623CB1136A23F45C1323F024
:107E4000010343F45C13136210BC70470A6A054BCC
:107E500001241340044A03431A430A62DFE700BFC8
:107E600000060E408600C8FF09FF3700044A136A67
:107E700023F45C1323F0780343F45C13136270471C
:107E800000060E40034A136A23F0030343F45C1315
:107E90001362704700060E4038B11049104A086A54
:107EA000104B024013430B6270470C4A0902106AE0
:107EB0008BB220F45C1121F003010B4343F45C13FB
:107EC00043F001031362936EDB07FCD5136A43F0A2
:107ED0009B7343F480331362704700BF00060E406B
:107EE000FCFFC8FE02003701024B986E00F48030A0
:107EF000704700BF00060E404FF00052014B9A62DF
:107F0000704700BF00060E40024B986E00F0020062
:107F1000704700BF00060E402C2819D81F284FF0CC
:107F200001030D4A08D89169834033EA01014FF0FB
:107F3000000010D0136170472038D2F80811834038
:107F400033EA01014FF0000004D0C2F8003170475D
:107F5000012070477047704700060E40034BC0F386
:107F600012001A6F10431867704700BF00060E40DA
:107F7000416070478160704700697047436A23F031
:107F8000FF030B434362704700EB4110D0F810022F
:107F9000704700BF8B790A781B0403F4702343F405
:107FA000800300EB4210C0F81C3270470A680B795E
:107FB000D2B210B400EB421023B3D0F80022CC7937
:107FC00022F4702242EA0442C0F800224A79CC68C6
:107FD00072B90A69C0F80442C0F80822D0F8002239
:107FE00010BC22F0E06242EA0363C0F8003270473E
:107FF0000A6944F0005442F00052C0F80442C0F84C
:108000000822EBE7C0F8003210BCC0F80432C0F818
:108010000832C0F81432C0F81832C0F81C32704769
:1080200046F2A813F0B5044603FB02F00B18013B1F
:10803000B3FBF0F3802B89B06BD84FF4FA5C0CFBE8
:1080400002FCBCEB510F64D84FF47A75082702FB91
:1080500005F54FF0FF3E3A46B1FBFCF3802B02F1F1
:10806000010006D80CFB1316764502D2174646B11E
:10807000B646C2B21A2AAC44EED105FB07F3B1FBF7
:10808000F3F3DBB2012B44D900252349A7F1080201
:1080900002EB420201EB4202D178013B1B040139A1
:1080A00001F0070103F4FE030B43917820680139C6
:1080B000090101F070010B4351781279013909026D
:1080C000013A01F4E06112030B4302F4405220F044
:1080D0000100134320608DF80450636100956946E8
:1080E00020460135FFF762FF082DF7D123680020F5
:1080F00043F00103094A236001E0904209D023695B
:1081000001309B02F9D5054BC01A18BF012009B0F8
:10811000F0BD002009B0F0BD84AC0900A0860100CC
:1081200002468B6830B503F0C070B0F1C07F14BF59
:10813000002002200C78C3F3034302EB441C4FEAF7
:10814000441EDCF80C428B7124F060444C61DCF876
:108150001442042B8C6188BFDCF8184202EB0E0C31
:1081600088BFCC6102EB0E04D4F810428C60E401AD
:10817000DCF8084248BF40F0040014F000540DD071
:10818000DCF808421B0424F060440C61012443F431
:10819000000372444C71C2F81C3230BDDCF8085246
:1081A0001B04AD0C43F4000372444C710D61C2F822
:1081B0001C3230BD0B7800EB431CDCF810225B0155
:1081C0008A6012021FD54A79BAB90A69CCF8082226
:1081D0008A6900EB030CCCF814228A790344042A40
:1081E00088BFC9694FEA024202F4702288BFCCF806
:1081F00018120020C3F81C2270470A6942F000528E
:10820000CCF80822E4E70120704700BF002330B516
:108210001C46054689B08DF804300094694628460E
:108220000134FFF7C3FE082CF7D109B030BD00BF01
:1082300030B4AC240B680246046048684FF6FE7CFC
:10824000B3FBF0F31B09581E60450BD840F2022522
:1082500050248968002013625160C2F820511460D4
:1082600030BC7047012030BC704700BF5023036012
:10827000704700BFAC230360704700BF8160704748
:10828000C16070474069704703464269920746BF24
:108290000020D961012070474369DB0743BF836930
:1082A00000200B7001207047D3060ED59306C0F84E
:1082B000B0104CBFC0F8D410C0F8D01053064CBF5B
:1082C000C0F8C010C0F8C4107047C0F8B4107047B0
:1082D000C36C0164704700BF41647047C06C704755
:1082E00070B401268446002440F20225B240B1FB5E
:1082F000F2F1CCF80060CCF80440CCF82051CCF876
:108300000441CCF81441DCF8042001391A430B0273
:108310009BB21343204670BCCCF80430704700BFBA
:108320004368090101F0100119434160704700BF23
:1083300010B40906446801F0706121431B0703F083
:1083400040531143194310BC41607047022303603E
:10835000704700BF01238B40036170470F299ABF0C
:10836000503050F821000020704700BF036C43F0EC
:1083700080730364704700BF024B80000344D3F84E
:1083800090007047001A0E40024B80000344C3F86F
:1083900090107047001A0E40014B0360704700BFF9
:1083A000050000A5406800F4E0607047084BB3FB8F
:1083B000F1F18142C1EB013306D8834204D3B0FB13
:1083C000F1F0C0F30B0070474FF6FF70704700BF2D
:1083D0000020A10710B4054CC2F30B0204EA0344C9
:1083E00014430C43446010BC704700BF0000FF0FF3
:1083F000034B984200D07047024A503B1A657047C1
:10840000501A0E40010000A54368044AC3F30B0351
:10841000DB01B3FBF1F302FB03F0704740420F00B6
:1084200000B5144A83B0D36AD90702D501219162FD
:10843000126A9A0703D502210E4A9162126ADB057D
:1084400004D54FF480720B4B9A621B6A0A4B01A948
:108450001868F9F71FFF019B4BB14FF0E0234FF075
:108460008052C3F8042DBFF34F8FBFF36F8F03B05B
:108470005DF804FB00C00840A4360820436801F002
:108480000F0123F00F03194341607047436801F463
:10849000E06123F4E063194341607047436843F4AB
:1084A00080534360704700BF0068C0F303207047EB
:1084B000C068704708B5120202F47062114316F0EA
:1084C000B3FB002008BD00BF0368090201F470611E
:1084D00023F47063194316F0A7BB00BF38B5A1F1B0
:1084E0000E03012B17D9EFF3108572B6BFF35F8F20
:1084F00000230A4CC9B22370094B03EA022211433C
:1085000041F0B44116F098FB25B901232370BFF365
:108510005F8F62B638BD4FF0FF3038BD98820720BC
:1085200000FFFF0038B504460D46064821462A469E
:10853000FFF7C0FF2A4621460348FFF7BBFF002094
:1085400038BD00BF000A0E40000C0E402DE9F04F70
:10855000434C87B024688A4604F50025A842934618
:10856000039375D3C4F17F4303F578030344C3F346
:108570000F273C4B061BF6B20193019C2046FFF7E8
:1085800093FF0246062120460592FFF79DFFBBF1AF
:10859000000F46D0B846DFF8D090C9F1040309F1C6
:1085A000FC050493C6F58072019B30495A45174675
:1085B00028BF5F468B4247D0294B196801F500213F
:1085C00001EB0824D21B93B221463246484602935F
:1085D00009F0AAFA3A46514609EB060009F0A4FA56
:1085E000029BF0191A460119484409F09DFA049BB0
:1085F0001F4A1C44A31852F8041F95421960F9D170
:10860000039B4246ABB103210198FFF767FF064683
:10861000B6B908F10103BBEB070BBA441FFA83F8A4
:10862000C0D101980599FFF74FFF002007B0BDE8C2
:10863000F08F01210198FFF751FF0646002EE8D088
:10864000304607B0BDE8F08F08F500642402B9E7B2
:10865000A0F50023C3F30F27044BC6B201938CE7A8
:10866000F08C0720000C0E40A8360820000A0E40AF
:10867000A436082030B50424844687B00D46009403
:108680000F220E210D4802AB644616F0D1FA88B9CC
:10869000042DAC4628BF4FF0040C4DB1024602A990
:1086A000231F51F8044B0132944543F8044FF8D886
:1086B00007B030BD102007B030BD00BF000A0E402B
:1086C000EFF30583FCE700BF314A136B03F00303AC
:1086D000012B2CD0023B012B1ED8136AD90138D5AF
:1086E0002C482D4B03602A4A136B03F00303022B23
:1086F0003CD02A4B26490A6B02F07002702A05D042
:108700000A6BC2F30212D34003607047244AA2FBF3
:1087100003235B0803607047224B1E485B6A13F01B
:10872000800F14BF4FF400434FF4FA43E2E7136A9B
:10873000DB010BD4126A02F07002102A21D0164B12
:1087400019491448202A18BF0B46D3E7124B114889
:10875000D0E7154B0F480360136A03F07003102B2A
:1087600012D0202BBFD10C4B0360BCE7916A036889
:10877000C1F30A4101FB0333926AD2B2B3FBF2F3B5
:10878000B8E70A4B0348B5E7084B0360ABE700BF07
:1087900000060E4094820720001BB700001C4E0EFE
:1087A000ABAAAAAA001A0E4000093D0000127A00E6
:1087B000194B984205D800231849194A0B601360D9
:1087C0007047184B984206D84FF480731349144AE7
:1087D0000B6013607047144B984209D3134B9842B7
:1087E0000DD84FF440730D490D4A0B60136070476C
:1087F0004FF4007309490A4A0B60136070470C4B31
:108800000649984294BF4FF480634FF4A063044A32
:108810000B601360704700BFBFEA2101000A0E40E1
:10882000000C0E407FF0FA020090D003FFB3C404A6
:108830007F4A5D050160704701210268530903F515
:10884000001303F2077302F01F025B0201FA02F247
:108850001A63704701210268530903F5001303F2FC
:10886000077302F01F025B0201FA02F25A637047BB
:108870000D4808B5FFF79CFF3E210020FFF70CFBD9
:10888000FFF732FB0028FBD0FFF736FB074B084A07
:108890009A62FFF739FB0028FBD00020FFF780FA2F
:1088A000BDE80840FFF710BF00BD010500060E40FF
:1088B000013F06204FF00052044B1A61C3F8A0207C
:1088C00008B11A6370475A63704700BF000E0E402C
:1088D000024BD86BC0F34070704700BF000E0E40D3
:1088E00070B53A4A3A4913780978013386B0137063
:1088F00089B9384A6846137812798DF80010934286
:1089000028BF13468DF8083007F0CEFD0120FFF791
:10891000D1FF06B070BD4FF6FF762E4C2568B542EC
:108920002DD03DBB2B4601212B4A2846FBF758FB97
:108930002846FFF7BFFF6368B34206D0002B3BD049
:10894000013B01206360FFF7B5FF0121234A0020AE
:10895000FBF746FB002368468DF800308DF80830A1
:1089600007F0A2FD4FF47A70F8F7DAFAF7F7FEFE97
:1089700006B070BD013D01202560FFF79BFF4FF65B
:10898000FF726368934210D12378217900228B42D1
:1089900028BF0B468DF800208DF80830FBF700FB50
:1089A000684607F081FD06B070BD2BB1013B012088
:1089B0006360FFF77FFFE7E70123074A19460020BE
:1089C000FBF70EFB0020FFF775FFBEE7B13708206D
:1089D000B2370820A8370820F0AC09000CAD090018
:1089E0004FF4B472014B43F820207047A837082099
:1089F000014B1870704700BFB237082070B5134D97
:108A000001210020124B134A82B0FBF7E9FA2C78BF
:108A10000CB102B070BD01260F4A23460092FA2124
:108A200032462E700D48F8F73BFF0546F8F71EF961
:108A300023460246314628460094F8F755FF4FF684
:108A4000FF72074BC3E9002202B070BDB0370820A7
:108A500028AD0900F89A0900E188080020AD090056
:108A6000A8370820F0B5264D264E297883B049B1A5
:108A70000139C9B2721C0A443346002103F8011BB4
:108A80009342FBD1002040F29F211F4A032392F81A
:108A900044C00446176C86F802C02870318007E095
:108AA0001A460130C4B2531CA445B154DBB207D3FB
:108AB000395D9F29F4D1F1540133395DDAB2F0E721
:108AC00003204FF09F0C911C0244D4B20F4AC9B24C
:108AD00006F803C017687054F8F7C8F80023024678
:108AE000009338460121F8F7FFFE2246084B05495E
:108AF00018682C70C36803B0BDE8F040184700BF89
:108B00003C3908207438082024380820C037082051
:108B1000B437082030B5037887B01D2B01D007B0DB
:108B200030BD8578C27801794479C3880020ADF8DA
:108B300004002DB99DF8040040F001008DF80400F8
:108B40002CB99DF8040040F008008DF8040029B904
:108B50009DF8041041F004018DF804102AB99DF825
:108B6000042042F002028DF80420042203A80DEB39
:108B70000201ADF8063008F0D7FF022204480023B6
:108B800002A900688DF80820F9F73AFA07B030BD5D
:108B90001C3808202DE9F04F9D4F4E2238684FF4C5
:108BA000E131436989B0984700264FF00108994D9B
:108BB000DFF8649205F13F04984B00211868F9F73B
:108BC00089FC20B1964B1B78002B40F0B581954B6A
:108BD0001B78002B40F03C813B68012298690DF125
:108BE0000B010A23FEF72CFB002800F0C88095F843
:108BF00046209DF80B300AB3022B85F8466000F042
:108C00009F80032B3AD0062B00F0AF80152B00F08D
:108C1000B1809F2B14D0FF22834B2B64013B03F8C0
:108C2000012FA342FBD140F29F23A5F8442085F8F1
:108C30004760AE6485F84C602B80CDE79F2B13D046
:108C400095F84420A2F13E01C9B2C02907D995F890
:108C5000491061B195F8451049B985F8453095F846
:108C60004830002BB8D00FE085F84680F7E7296C34
:108C70000132D2B285F844208B54F0E795F84930A0
:108C8000002BECD085F84880654B83F8008095F880
:108C90004730002B40F089802A6C95F845C092F847
:108CA00000A095F844E013468CEA0A0A02F140005D
:108CB00002EB0E0105E013F8012F98428AEA020A3E
:108CC00001D09942F7D1E6454FF008023B6840F0E9
:108CD0009480BAF1000F40F0908054490DF10C0CD3
:108CE00003C98CE8030018466146DB68984795F88D
:108CF0004830D3B1296C4B78022B01D0FE2B14D114
:108D00008B78032B00F06F8101210020484AFBF78C
:108D100067F995F84530FF2B0CBF032303330AF1A5
:108D2000010A5FFA8AFA9A45F9DDFF223E4B85F87F
:108D300046602B64013B03F8012F9C42FBD172E794
:108D4000FF22394B2B64013B03F8012F9C42FBD1DE
:108D500040F29F232B804FF48073A5F8442085F8C0
:108D6000476085F84C60AB6436E785F84A8085F843
:108D7000478074E785F84B8085F847806FE72D4A78
:108D800092F800A00AF101031370BAF1000F7FF40A
:108D900013AFF8F72BFA63283FF60EAF50460121C8
:108DA000254B264AFBF71CF906E70A220023244834
:108DB000009203211A460068F8F796FD95F84BA03B
:108DC000BAF1000F00F0E780DFF878A001219AF8EF
:108DD0000030032B00F2B3801B4A0020FBF700F9A0
:108DE00000230E4A194610681A46F9F709F99AF84D
:108DF000003001338AF8003097E714490DF10C0C6C
:108E000003C98CE8030018466146DB6898478CE785
:108E1000B4370820C837082024380820B83708207D
:108E20001838082099820720CA37082098AD090011
:108E300084AD0900BD370820FCAD0900B89A0900CF
:108E4000C0370820C43708203CAD0900A4AD090094
:108E50006E4B0022186803A9F9F776FA00283FF450
:108E6000BBAE6B4B1B78002B3FF4B6AEFF22694BB9
:108E700089F84660C9F84030013B674903F8012F83
:108E80008B42FAD1654B89F84760C9F8003040F24F
:108E90000233A9F844309DF80C30C9F84860022B21
:108EA00089F84C6089F8043040F08380DFF870B1B5
:108EB0000DF1100A5A461AF8013B01210020FBF778
:108EC0008FF899F84430A3F13D02D2B2C12A0DD9EE
:108ED0001AF8011CD9F840200133DBB289F844307C
:108EE000D15499F84530013389F8453005AB5345E5
:108EF000E0D1002299F84410D9F840300B4499F899
:108F000045105970114699F84430D9F840000133A2
:108F100010F803C0415C013281EA0C01C15499F898
:108F20004430D1B28B42F0D2013389F84430FFF79C
:108F300099FD3C4B1E704FE6FFF794FD4CE6002078
:108F4000394AFBF74DF8394B1B789BB14FF0000ABB
:108F50005346DFF8CCB0364A0121D35C00205A4694
:108F6000FBF73EF8314B0AF1010A1A785FFA8AF3EF
:108F70009A42F0D801212F4A0020FBF731F8F7F789
:108F800047FC2D4B1E702D4B1E70264B83F8008026
:108F9000F7F74EFCC9E6F7F73BFC274B83F800A038
:108FA000264B83F800A01F4B83F80080F7F740FCA6
:108FB000BBE60323012189F8053000220223DFF8F4
:108FC00054C003E0D9F840C01CF8021001331CF86B
:108FD0000300013241400CF8031099F84430D2B23A
:108FE0009342EFD2A0E70C22033104A808F09CFDC5
:108FF000022301218DF81C30114A9DF81830002001
:10900000FAF7EEFF03A802F0F7F98EE61C38082005
:109010001838082026380820633808209F0201FEEF
:1090200034AD09009982072044AD09003C3908207D
:10903000743808206C9A090020380820C4370820AA
:1090400064AD09002DE9F041DFF88C80012198F82A
:109050000030022B11D8214A0020FAF7C1FF00236B
:1090600098F800201E49013288F8002008681A4646
:10907000BDE8F0411946F8F7C3BF1A4A0020FAF7D5
:10908000AFFF194B194D18680021F8F745FF2B78F1
:1090900073B100242346164F164E0121FB5C324665
:1090A0000020FAF79DFF01342978E3B29942F4D801
:1090B0000121114A0020FAF793FFF7F7A9FB0023DB
:1090C00001210E480E4A037088F80030BDE8F041D7
:1090D0001170F7F7ADBB00BF20380820B0AD090014
:1090E000B8370820BCAD09001C3808203C390820DE
:1090F0007438082034AD09006C9A0900C437082080
:1091000099820720F0B51B4D83B02C780CB103B0C9
:10911000F0BD0126184B194A019419491A601948E3
:1091200023464FF4C8720096F7F766FC22461021DA
:109130002820F8F737FF8446134F144B324600932C
:10914000A021C7F800C023461148F8F7A9FB07463D
:10915000104B2146032230461F60F8F723FF0246DA
:109160001D200D4B0D492E701A6003B0BDE8F04074
:10917000FAF7E0BDBC370820B43708205482072036
:10918000E8AD0900958B08001C38082045900800C0
:10919000F4AD0900C0370820B8370820158B080047
:1091A00038B583784478012B17D023B90F4B104A78
:1091B0001B78147033B90F4D204600F095F82B78CA
:1091C000A34200D138BDFBF777F8012144B920460E
:1091D000094AFAF705FF2C7038BD044A1370EAE714
:1091E0000020064AFAF7FCFE2C70F5E73E3908200D
:1091F0009B8207209A8207200CAE09001CAE090052
:1092000000B503788BB0062B02D00BB05DF804FBE1
:1092100000F052F8094902460B78042B04D80133B8
:109220000B700BB05DF804FB112368468DF801202C
:109230008DF80030FAF7B8FDE7E700BF3D390820A8
:10924000014B1878704700BF9B82072008B500F0DB
:1092500055F806491020FAF76DFD002000F044F89B
:10926000BDE8084006200249FAF764BDA191080054
:109270000192080070B58AB004460E46FAF7F8FF6E
:1092800043780546A3420FD01020FAF7DFFF1023E2
:109290006C7068468DF801408DF802608DF80030E2
:1092A000FAF782FD0AB070BD1020FAF7BDFF002862
:1092B000EAD10AB070BD00BF084A094BD06B09491A
:1092C0001A7891F800C0C0F34050187042EA0003C9
:1092D00003EA0C0310400A7018437047000E0E405A
:1092E0003F390820403908204FF00072024B08B97E
:1092F0001A6370475A63704700100E404FF4001213
:109300004FF00070094B0A490861C1F8A0000863DA
:109310005A61C3F8A0205A665A655A62C3F8802081
:109320001A6F22F400121A67704700BF000E0E4039
:1093300000100E404FF48052024B08B91A63704778
:109340005A63704700100E40024BD86BC0F30030D8
:10935000704700BF00100E40034BD86B80F4805064
:10936000C0F30030704700BF00100E40084A094BA0
:10937000D06B09491A7891F800C0C0F3004018700A
:1093800042EA000303EA0C0310400A7018437047D6
:10939000000E0E404139082043390820084A094B85
:1093A000D06B09491A7891F800C0C0F300401870DA
:1093B00042EA000303EA0C0310400A7018437047A6
:1093C00000100E4042390820443908204FF48052E2
:1093D000024B1A61C3F8A020704700BF00100E4076
:1093E000F8B50378132B25D0062B00D0F8BD474ED7
:1093F0003478474B1A78002A2DD0012C6BD0002CE2
:109400004DD0444A1278002A58D12046FFF792FFE7
:10941000414D2878414D08B9FFF7E2FA2B78A34275
:10942000E4D0FAF749FF012100203D4AFAF7D8FDC0
:109430002C70F8BD3B4F4378344E374D3A6833704B
:109440002B700ABB1C46384A11789942D1D0137050
:1094500000222F4B1A702F4A12787ABB2046FFF752
:1094600069FF002CD4D12D4D2046FFF7B9FA2B7897
:10947000002BBBD00024FAF71FFF012100202B4A4C
:10948000FAF7AEFD2C70D4E7012BDBD1FFF75CFFC0
:10949000002836D000222B7814463270D3E7214AB8
:1094A0001D4D116811B12978012923D0194A12786C
:1094B0002AB90120FFF73EFF0124AAE7164D012437
:1094C000002021461A4A34701870FAF789FD2046A8
:1094D000FFF730FF9DE70F4A1478002CEED12046AD
:1094E0000E4DFFF727FF2046FFF77AFA2B78002B67
:1094F000C0D1F8BD1460074A1C701278002AD8D079
:10950000DDE72B78347838609DE700BF9C82072028
:109510004E3908204D3908209F8207209D82072060
:1095200068AE0900483908209E82072058AE09001D
:109530002CAE09000378152B00D0704743785BB13F
:10954000074B1A78002AF8D00020064918700A78CC
:1095500082F001020A70F0E70122014B1A70704795
:10956000A08207204E390820037810B5072B00D0C1
:1095700010BD184B1C78C4B1174C23686BB9174B3E
:109580001B78002BF4D0164A1378591C022B11704B
:10959000EED9BDE81040F7F7E9B8013B0121114AC7
:1095A00000202360FAF71CFDE9E7042000F02CFC02
:1095B0001E2809D8C0EB0014A400074B1C60074B01
:1095C0001B78002BD4D0DEE72146042000F022FCDB
:1095D000F3E700BF9F820720483908204D39082053
:1095E0004C39082078AE090010B503788AB0062BF4
:1095F00001D00AB010BDFFF7B9FE142402460023C3
:1096000068468DF801208DF802308DF80040FAF799
:10961000CBFBFFF7C3FE0123024668468DF80040EE
:109620008DF801208DF80230FAF7BEFB0AB010BDAC
:109630000122014B1A7070474D390820014B1878F0
:10964000704700BF9F820720FFF77EBE10B50E4C0B
:10965000FFF7BCFE0120FFF76DFE21461320FAF74D
:1096600069FB21460620FAF765FB15200749FAF742
:1096700061FB06200649FAF75DFBBDE810400720B4
:109680000449FAF757BB00BFE1930800359508007D
:10969000E9950800699508000246152300B58BB0CE
:1096A00068468DF801208DF80030FAF77DFB0BB08D
:1096B0005DF804FB4022034B08B91A6370475A63F4
:1096C000704700BF00100E40034BD86B80F0400085
:1096D000C0F38010704700BF00100E404022034BC3
:1096E0001A61C3F8A0201A63704700BF00100E4033
:1096F00038B544780B4D2046FFF7DCFF2B78A342AA
:1097000000D138BDFAF7D8FD01212CB92046064A10
:10971000FAF766FC2C7038BD0020044AFAF760FCAA
:109720002C70F8E7A1820720A4AE0900B0AE0900B2
:1097300008B5FFF7D3FF16200349FAF7FBFABDE897
:1097400008400120FFF7B6BFF19608002022034B26
:1097500008B91A6370475A63704700BF00100E4083
:10976000034BD86B80F02000C0F34010704700BF5F
:1097700000100E40024BD86BC0F34010704700BF82
:1097800000100E402022024B1A61C3F8A02070473F
:1097900000100E40014B42781A7070474F39082074
:1097A000032138B544782A4B2A4A012C11701C70C9
:1097B00040D0FFF7DFFF58B1FFF740FF0128264DEB
:1097C00011D02046FFF7C2FF2B78A3421ED138BD2F
:1097D000224B1B78002BEFD0FFF730FF01284FF012
:1097E00001041D4DEDD1FFF7B1FF2B78012BEED019
:1097F000FAF762FD1A4B1878122825D001240121AE
:109800000020184AFAF7ECFB2C7038BDFAF754FD2B
:10981000012CEFD0002CF2D1114B1B78122B02D06F
:10982000122007F013F8012100200F4AFAF7D8FBA5
:109830002C70EAE7FFF79EFF0028CDD00B4B1C7879
:10984000B4FA84F46409B7E707F000F80124D6E716
:10985000A3820720A4820720A28207205139082072
:109860004F390820D0AE0900C0AE09005039082099
:1098700070B5304A044613782BB3013B137024783B
:10988000072C00D070BD204600F0BEFA1E283FD83D
:10989000062000F0B9FA1E2835D8274B05201B7882
:1098A000FBB900F0B1FA012837D0244C2378002B03
:1098B000E8D0013BDBB223700121BDE870400020FD
:1098C0001F4AFAF78DBB0321012011701A4A1D4D62
:1098D00010701D49194A2B7008701370FFF736FF7E
:1098E000CDE700F091FA01281DD0164C2378002B0B
:1098F000C8D0013BDBB223700121BDE870400020DD
:10990000124AFAF76DBB0021062000F083FAC4E783
:109910000021204600F07EFABAE7072000F074FA32
:10992000084B1870C1E7062000F06EFA034B187060
:10993000DBE700BFA4820720A3820720513908205B
:10994000E0AE090050390820A28207200CAF0900C0
:1099500003781B2B00D070474368B3F5AF6FFAD97B
:109960000022014B1A7070475039082008B5FFF7E4
:1099700009FF17200949FAF7DDF907200849FAF726
:10998000D9F91B200749FAF7D5F928200649FAF733
:10999000D1F9BDE808400120FFF7D8BEA197080023
:1099A00071980800519908009597080030B58BB060
:1099B0000446FAF75DFC83780546A3420DD01720D4
:1099C000FAF744FC17236846AC708DF801408DF817
:1099D0000030FAF7E9F90BB030BD1720FAF724FC94
:1099E0000028ECD10BB030BD30B58BB04FF0A003E8
:1099F00083F31188BFF36F8FBFF34F8F0024154A95
:109A000015481188154B1480027823F8121084F33E
:109A10001188027812490132D2B2A1FB0251C90861
:109A200001EB8101A2EB4102027003F1140133F852
:109A3000022B8B421444FAD10A4D2B68A34207D063
:109A40001C23684601948DF80030FAF7ADF92C60BC
:109A50000BB030BD54390820563908205C39082035
:109A6000CDCCCCCC70390820F0B5224D44682B68A1
:109A700083B0A3428CBF1B1BE31A132B94BF00239C
:109A800001232BBB632C1BD92B68A3428CBF1B1B50
:109A9000E31A312B94BF002301230BB903B0F0BDAF
:109AA0004EF66021144B0120A3FB04231B09B1FBDC
:109AB000F3F100F081F8FAF7FFFB2C6003B0F0BD82
:109AC0000021084600F078F800232B6003B0F0BDB9
:109AD000204607F0EFF80022084B07F08FFA064601
:109AE0000F46074A0121CDE900670020FAF778FA0E
:109AF000C8E700BF583908201F85EB5100005940C6
:109B000038AF0900014B1868704700BF583908206A
:109B100070B5134D82B02C780CB102B070BD00F05E
:109B200069F81B200F49FAF705F90F49234601226E
:109B300000910E486421F7F7B3FE0646F7F796F852
:109B400023460246012130460094F7F7CDFE01235B
:109B5000214620462B7002B0BDE8704000F02CB8C2
:109B600052390820699A0800E999080048AF0900AD
:109B700030B58BB00446FAF77BFB83680546A342F9
:109B80000FD91B1B012B0FD01B20FAF75FFB1B23E8
:109B90006846AC6001948DF80030FAF705F90BB017
:109BA00030BDE31A012BEFD81B20FAF73DFB00284C
:109BB000EAD10BB030BD00BF10B50C460B482246B1
:109BC0000B4906F011FF0A49620820B9BDE81040B0
:109BD000064806F017BF054806F014FF2246BDE808
:109BE00010400349014806F0FFBE00BF0040094095
:109BF0007439082010B5242084B0FEF78DF90721B0
:109C0000174806F011FF2420FEF786F9002447F2DA
:109C10003053144A124801A9CDE90242019306F0DB
:109C20004FFEB8B9012310490B204FF0000C6422FD
:109C300007248B72322348600948A1F808C00A61E2
:109C4000CB600C6006F05CFE2146054806F0E8FE9D
:109C500004B010BD21462046044AFAF7C1F9E1E7F5
:109C60000040094000BD01057439082050AF0900CB
:109C700070B58AB004460E46FAF7FAFA037905463B
:109C8000A34221D01820FAF7E1FA1B2C2C7114D82A
:109C900018238DF80030002368468DF802308DF8C7
:109CA00001408DF80360FAF77FF89DF8013013B991
:109CB0000E4C23787BB90AB070BD192105220B4BDD
:109CC0008DF800101A70E6E71820FAF7ADFA0028B0
:109CD000D8D10AB070BD192368468DF80030FAF764
:109CE00063F82378013B23700AB070BD9C390820CB
:109CF00030B5184C89B023782E2B20D90A220023A6
:109D000015480321006800921A46F7F7EDFD4FF061
:109D1000170C23780121DA0800928DF8102000201A
:109D20000E4A8DF808C0FAF75BF900230C4A02A826
:109D300003928DF8113006F0B7FB09B030BD0A254B
:109D40000549002308684FF4967204210095F7F73F
:109D5000CBFDDCE7D0390820D43908206CAF0900EE
:109D6000659D08002DE9F043C0008DB0C4B231B349
:109D70000139C9B2561C154640F21E28DFF87C9006
:109D80001F4F0E4406E001333B700135B54204F12C
:109D9000010414D02F2CF8DC2A78012CE3B204F84B
:109DA000092012D02F2C3B70EDD199F82F3002A84A
:109DB000A3B1ADF80880F9F7F7FF3B78E3E701229C
:109DC000104B1A700DB0BDE8F0834FF48F7302A8EA
:109DD000ADF80830F9F7E8FF2346D4E7012389F806
:109DE0002F3005238DF8083040F22F130190ADF885
:109DF000103006F059FB0198DBE700BFA0390820BE
:109E0000D0390820D1390820014B185C704700BFB9
:109E1000A039082000B50A4A0346105C87B0884282
:109E20000BD04FF0050C6846D1548DF808308DF8F2
:109E300009108DF800C006F037FB07B05DF804FB91
:109E4000A03908207F2300B587B068468DF8003020
:109E500006F02AFB07B05DF804FB00BF70B5134C99
:109E600082B02378FBB9FF21114B03F1300203F8D4
:109E7000011F9342FBD101250E4A4FF4C871009295
:109E800000232A4625700C48F7F70AFD0B4B0446C1
:109E900018600A26F6F7EAFE002302462946204605
:109EA0000096F7F721FD02B070BD00BF9D39082074
:109EB0009F390820F19C0800F4AD0900D43908202E
:109EC0000122014B1A7070476C3B0820704700BF9D
:109ED0000378282B02D1024B42781A70704700BFDA
:109EE000483A0820037810B5232B08D0BDE810406D
:109EF0000023064A194610681A46F8F781B8014649
:109F00002822034807F010FEF0E700BF003A0820BF
:109F1000D839082005F0E8B8037810B4332B01D005
:109F200010BC7047034C0146002320680A2210BC75
:109F3000F8F766B8703B0820037810B4302B01D0D6
:109F400010BC7047034C0146002320680A2210BC55
:109F5000F8F756B80C3A082003780146292B00D0B0
:109F60007047034800230A2200680431F8F748B814
:109F70004C3A0820037810B52B2B00D010BD0446B6
:109F8000042154F8043F064A0220FAF729F805484C
:109F90002146BDE8104000230A220068F8F730B8D7
:109FA00088AF09001C3A0820037810B5342B04460A
:109FB00000D010BD0121064A0020FAF711F805492A
:109FC000002308680A22611CBDE81040F8F718B8A1
:109FD0009CAF0900043A082030B503780146182BDD
:109FE00083B001D003B030BD02226846013107F0D2
:109FF0009BFD9DF80030254CDBB1DA07217805D5B3
:10A00000C80701D5994222D19DF800309942E9D084
:10A0100001211F4A0020F9F7E3FF1E480023022216
:10A0200069460068F7F7ECFF50B39DF800302370E5
:10A03000D8E72378002BD5D0DD07D3D50022591CD3
:10A04000C9B221708DF800308DF80120D8E70025C5
:10A050000131114A8DF80410284601218DF8055070
:10A06000F9F7BEFF0B492B4608684FF0FF3201A9F4
:10A07000F7F7C6FF9DF80030002BB3D02178C5E775
:10A080000146064A0220F9F7ABFFABE7113A082078
:10A09000D0AF0900683B0820C4AF0900E0AF090059
:10A0A0002DE9F04F037801462F2B8BB002D00BB077
:10A0B000BDE8F08F037C012B00F0FE80022B40F006
:10A0C000F4800C229848043107F02EFD974C964DF1
:10A0D00026796A79297993090493C1F38107C6F334
:10A0E0008103BB4295F800C038BF3B4627784FEA52
:10A0F0001C194FEA171AD1450CF00F0C07F00F0787
:10A1000028BFD146674528BF6746C1F3011A47EA11
:10A110000917C6F30119D14538BFD14601F0030B29
:10A1200006F0030A8909B6099B00D3452CBF43EA10
:10A130000B0343EA0A038E4238BF0E4695F801E04E
:10A1400094F8018043EA091308F00F0143EA8616E8
:10A150000EF00F038B424FEA18184FEA1E1E28BF5D
:10A160000B46F04528BFF04605970599607941EA0E
:10A17000032343EA083E00F0030102F003038B428D
:10A1800038BF0B4695F802C0A77846EA03210CF0C9
:10A190000F0807F00F0398454FEA17174FEA1C1CEA
:10A1A000C0F3810628BF98466745C2F3810328BFE4
:10A1B0006746B34238BF3346C2F3011241EA8323F4
:10A1C000C0F301118A4238BF0A46049980098842C7
:10A1D00038BF084643EA023242EA8032ADF8202016
:10A1E000002295F803A094F803B04EEA08480BF05B
:10A1F0000F0348EA075C0AF00F079F4228BF1F467B
:10A200004FEA1A1A94F908304FEA1B1BDA4528BFA7
:10A21000DA469342B4BF01232B7A8DF824209DF8AF
:10A2200024204FF6FF71A8BFDB0963F3C7128DF836
:10A2300024204FF6FF724CEA076C4CEA0A77079726
:10A240003B4EBDF81C3000208B423378BDF81E1009
:10A250001CBF43F0020333709142BDF820201CBFA5
:10A2600043F00103337002929DF8242001210192F2
:10A27000079A00922F4AF9F7B3FE2A7A207A9DF8BE
:10A2800024300121019200902B4A0020F9F7A8FE0A
:10A29000307804F01BFF294900230A22086807A927
:10A2A000F7F7AEFE0BB0BDE8F08F01210020244A85
:10A2B000F9F796FE1D4C0AE71C4C0C22204604318F
:10A2C00007F032FC1F4B1B78002B3FF400AF2178C6
:10A2D000E2780B0901F00F018B4228BF0B461509EC
:10A2E000AB4228BF2B46607802F00F0100F00F054B
:10A2F0000009A84228BF28468B4228BF0B46A278F7
:10A300001609B34228BF334602F00F02934228BF1A
:10A310001346834228BF03460F2B16BF0A4A00206C
:10A32000D05C05F047FCD2E62C3A0820383A0820E9
:10A33000083A082010B0090038B00900443A082053
:10A34000F8AF0900093A082048B3090000B50378BE
:10A350008BB02A2B02D00BB05DF804FB4378182B8E
:10A36000F9D12923034A684601928DF80030F9F7A4
:10A370001BFDF0E7159F0800027803462E2A00D047
:10A38000704715205978FFF745BD00BF034B18787B
:10A390001F2802D9012210461A707047643B08201A
:10A3A000064B18781F2806D80130C0B2202808BFF5
:10A3B000012018707047022018707047643B082015
:10A3C0002DE98048A24C89B0002301224FF4FA7194
:10A3D0000094A048F7F764FA844600239E499F4CF6
:10A3E000012200919E48C4F800C0C8211E46F7F71C
:10A3F00057FA9C4F9C4D386003F0CEFF2468F6F767
:10A4000035FC33460246012120460096F7F76CFAE8
:10A410003F68F6F72BFC334602460121384600968A
:10A42000F7F762FA0221914A0846F9F7D9FDFF22AF
:10A4300005F20714A4F58473A5F8086103F8012F49
:10A44000A342FBD10023A5F80A31FFF7A9FF01467B
:10A450008548DFF81C92DFF81CB2874FDFF81CA29A
:10A46000DFF81C8204F0F8FD864BC8211868F8F765
:10A4700031F899F80160012E00F02281022E00F0DF
:10A480003F813B78002B40F0BC8000238BF80030EC
:10A490007D4B00227D491868F7F756FF00B37B4ECD
:10A4A0003368EBB102217A4A0846F9F799FD306822
:10A4B00004F0E2FB306804F009FC034680B19AF82E
:10A4C00000106948984728B10123724A3B703368ED
:10A4D0001360C9E700236F4A3B708AF800301360AD
:10A4E0006D4B5E78002E36D16C483246006805A967
:10A4F000F7F72AFF00283CD0674B9DF814201B7803
:10A50000934200F0778298F800301F2B00F2A88267
:10A510000133DEB2202E08BF012688F80060162A1B
:10A5200000F27786DFE812F04B062406FF05D80517
:10A53000B3058C0546051F05FA04D304AE04870451
:10A54000620441041B04FA03B3038C036703400352
:10A550001B03F302BD02731E4F4ADBB200930121BD
:10A560005370002013784E4AF9F73AFD0A20F6F7A7
:10A57000D7FC4C4B0022186805A9F7F7E5FE002828
:10A5800040F0E8800022484B05A918680592F7F7CB
:10A59000DBFE90B1059A82B198F800301F2B00F2D3
:10A5A0003F820133D9B2202908BF01212E4888F803
:10A5B0000010904700287FF457AF3C4B00221868EA
:10A5C00005A9F7F7C1FE002840F0E880384B0022CB
:10A5D000186805A9F7F7B8FE0246002840F0638125
:10A5E000344B05A91868F7F7AFFE002840F0B88192
:10A5F000314B1B78002B40F0CA8100232E4A137088
:10A6000032E700238BF800309AF8003001338AF8E3
:10A610000030204B1B68002B3FF43AAF1B4B02214C
:10A620001E4608461B68254AF9F7DAFC306804F034
:10A630004DFB0646002800F015829AF800100A48E3
:10A64000B04700283FF446AF01233B700CE700BF42
:10A65000C19E080054B00900CD9E0800243A08208D
:10A660005CB00900203A0820583A082064B009007C
:10A67000D8390820493A0820503A0820183A0820CA
:10A68000643B0820003A08201C3A0820143A0820AD
:10A6900004B10900543A0820283A0820683B0820F1
:10A6A000A4B209000C3A08204C3A0820703B08205C
:10A6B000043A0820443A08206C3B0820E0B0090026
:10A6C00003210220BE4AF9F78BFC9BF80030022BD5
:10A6D00054D80221BB4A0846F9F782FC95F80811C4
:10A6E00099F80230012994BFFF22AA78934200F022
:10A6F000CC8100223B788BF80020002B89D1C7E663
:10A7000003213046B04AF9F76BFC9BF80030022B6E
:10A7100000F20C8131463046AC4AF9F761FC6B79A6
:10A7200095F8081107338B420BD095F80A310BB11D
:10A73000032906D80021A64A0846F9F751FC95F8E6
:10A740000811A44801F068FA9BF8003001338BF837
:10A75000003089E698F800301F2B00F25981013350
:10A76000D9B2202908BF01219A4805AA88F800100B
:10A7700004F044FD00283FF405AF75E600210220F7
:10A78000954AF9F72DFC3B78002B3FF47EAE002371
:10A790003B708AF800308BF8003079E698F800308A
:10A7A0001F2B00F237810133D8B2202808BF0120C7
:10A7B000DDE906160023FF2285F809319DF815E032
:10A7C000864B9DF816C088F8000003F8012FA342BD
:10A7D000FBD10023A5F80A31AB8040234CF6C70219
:10A7E000EB700823A870084685F806E085F807C0D6
:10A7F0002A8085F80831039107F052FB10F0FF0022
:10A8000000F04C8195F80831039918440139C2B21F
:10A8100011F8010FE8540133DBB2934285F8083197
:10A82000F6D100233046AB54013285F8082107F0F9
:10A8300037FB10F0FF0000F02E8195F80831013E43
:10A840001844C1B216F8012FEA540133DBB28B422F
:10A8500085F80831F6D100234A1FD2B24E1C6B5442
:10A86000F6B2931DB3426A7185F8086100F0DE808C
:10A87000012100205A4AF9F7B3FB6B7995F80811CA
:10A8800007338B424ED095F80A310BB1032949D8D2
:10A8900000214F4A0846F9F7A3FB95F808114D48E7
:10A8A00001F0BAF992E69DF81530012100930020DD
:10A8B0009DF814304B4AF9F793FB98F800301F2BA2
:10A8C00000F2AA8003F1010C5FFA8CFCBCF1200FAE
:10A8D00040F09B8427204FF0010C0023FF2285F8D5
:10A8E00009319DF814103D4B9DF8156088F800C0A3
:10A8F00003F8012FA342FBD1A97131444318DB4374
:10A900002B720023A5F80A314CF6C7032B802423B1
:10A910000921EB704FF4007385F802C0EE7185F8E1
:10A920000811AB802B4801F077F99DE530460021F6
:10A930002D4AF9F755FB3B7813B100238AF8003014
:10A940002A4B1B78002B00F09A80FEF77DFE002832
:10A950007FF4CFAEF9F724FB0120FEF741F8C8E6FB
:10A9600098F800301F2B5DD80133D9B2202908BFD9
:10A970000121184805AA88F8001004F0EFFB002810
:10A980007FF472AD1A4B1B78002B3FF436AE98F86B
:10A9900000301F2B48D80133D9B2202908BF01212C
:10A9A0000C4888F8001004F057FB06460A20F6F71A
:10A9B000B7FA00230E4A1370002E3FF41EAE53E583
:10A9C00074B009007CB00900ACB00900B8B009004F
:10A9D0008CB00900583A082098B00900573A08206E
:10A9E000C4B20900D8B20900C8B00900483A08202A
:10A9F0006C3B082002223046B84E009272789DF8D7
:10AA000015100A4472700121B54AF9F7E9FAADE56B
:10AA10000221A9E60220CBE628204FF0020C5CE7D9
:10AA20000221C3E50221A4E70221B9E7E878AB7867
:10AA300002F1050C0344287903441344DBB24AB104
:10AA400006200246AA5C013080B2134460450246EB
:10AA5000DBB2F7DDDB43AB558B1C85F8083107E72C
:10AA600002265AE502219F4B08461B689E4AF9F7C9
:10AA7000B7FA9E4B3E708AF800601E6030E5F9F729
:10AA80008FFA0120FDF7ACFF5FE76B7907338B424C
:10AA90007FF44BAE55E695F80811DCE695F80821F1
:10AAA000BFE6934A01210020F9F79AFA0023FF221A
:10AAB00085F809318F4B03F8012FA342FBD106F132
:10AAC0001A03DB43AB720023A5F80A312B81122352
:10AAD0000B214CF6C702EB704FF004238648AE7092
:10AAE0002A8085F808116B6001F096F805A902220A
:10AAF0007A4807F019F801219DF81430784A00913E
:10AB00000020F9F76DFA3220F6F70AFAACE47B4A36
:10AB100001210020F9F764FA0023FF2285F80931AA
:10AB2000744B03F8012FA342FBD106F11C03DB4356
:10AB3000AB720023A5F80A314CF6C7032B80122311
:10AB40000B21EB704FF00423AE7085F808116B6099
:10AB500040F2011368482B8101F05EF8C6E7684AAD
:10AB600001210020F9F73CFA0023FF2285F8093182
:10AB7000604B03F8012FA342FBD106F11803DB431E
:10AB8000AB720023A5F80A312B8112230B214CF65E
:10AB9000C702EB705B4B5848AE702A8085F80811ED
:10ABA0006B6001F039F8A1E7574A01210020F9F75D
:10ABB00017FA0023FF2285F809314E4B03F8012FC5
:10ABC000A342FBD106F11A03DB43AB720023A5F8C5
:10ABD0000A314CF6C7032B801223EB7040F20113AD
:10ABE0000B212B81474B4448AE7085F808116B60F0
:10ABF00001F012F87AE7454A01210020F9F7F0F94F
:10AC00000023FF2285F809313A4B03F8012FA342B4
:10AC1000FBD106F11703DB43AB720023A5F80A3121
:10AC20002B8112230B214CF6C702EB70384B3248B4
:10AC3000AE702A8085F808116B6000F0EDFF55E7D3
:10AC4000344A01210020F9F7CBF90023FF2285F8CF
:10AC50000931284B03F8012FA342FBD106F1190358
:10AC6000DB43AB720023A5F80A314CF6C7032B80F7
:10AC70001223EB7040F201130B212B81244B1E4851
:10AC8000AE7085F808116B6000F0C6FF2EE7224A0F
:10AC900001210020F9F7A4F90023FF2285F80931EA
:10ACA000144B03F8012FA342FBD106F11803DB4339
:10ACB000AB720023A5F80A312B8112230B214CF62D
:10ACC000C702EB704FF401330B48AE702A8085F851
:10ACD00008116B6000F0A0FF08E700BF283A0820C9
:10ACE00090B20900143A0820F4B00900543A082040
:10ACF00064B20900573A0820583A082054B20900B3
:10AD000044B209000004000230B2090020B2090078
:10AD1000000400010CB20900DCB10900B84A0121AD
:10AD20000020F9F75DF90023FF2285F80931B54BC2
:10AD300003F8012FA342FBD106F11A03DB43AB72E8
:10AD40000023A5F80A314CF6C7030B212B801223F0
:10AD5000AE70EB7085F808114FF40133F7E6AA4A9C
:10AD600001210020F9F73CF90023FF2285F8093181
:10AD7000A44B03F8012FA342FBD106F11703DB43D9
:10AD8000AB720023A5F80A312B8112230B214CF65C
:10AD9000C702EB704FF482339C48AE702A8085F86E
:10ADA00008116B6000F038FFA0E6994A01210020ED
:10ADB000F9F716F90023FF2285F80931914B03F8C2
:10ADC000012FA342FBD106F11903DB43AB72002331
:10ADD000A5F80A314CF6C7030B212B801223AE7065
:10ADE000EB7085F808114FF48233B0E6894A0121EF
:10ADF0000020F9F7F5F80023FF2285F80931814B8F
:10AE000003F8012FA342FBD106F15603DB43AB72DB
:10AE10000023A5F80A312B8112230B214CF6C7021F
:10AE2000EB707D4B7948AE702A8085F808116B6015
:10AE300000F0F2FE5AE6794A01210020F9F7D0F835
:10AE40000023FF2285F809316E4B03F8012FA3423E
:10AE5000FBD106F15803DB43AB720023A5F80A319E
:10AE60004CF6C7032B801223EB7040F201130B2129
:10AE70002B81694B6548AE7085F808116B6000F056
:10AE8000CBFE33E6664A01210020F9F7A9F800233A
:10AE9000FF2285F809315B4B03F8012FA342FBD158
:10AEA000A6F16A03DB43AB720023A5F80A312B81BC
:10AEB00012230B214CF6C702EB705A4B5348AE706D
:10AEC0002A8085F808116B6000F0A6FE0EE6564A4F
:10AED00001210020F9F784F80023FF2285F80931C9
:10AEE000484B03F8012FA342FBD1A6F16803DB43D3
:10AEF000AB720023A5F80A314CF6C7032B8012234E
:10AF0000EB7040F201130B212B81464B3F48AE7092
:10AF100085F808116B6000F07FFEE7E5434A0121E8
:10AF20000020F9F75DF80023FF2285F80931354B41
:10AF300003F8012FA342FBD106F11E03DB43AB72E2
:10AF40000023A5F80A312B8112230B214CF6C702EE
:10AF5000EB70374B2D48AE702A8085F808116B6076
:10AF600000F05AFEC2E5334A01210020F9F738F813
:10AF70000023FF2285F80931224B03F8012FA34259
:10AF8000FBD106F12003DB43AB720023A5F80A31A5
:10AF90004CF6C7032B801223EB7040F201130B21F8
:10AFA0002B81234B1948AE7085F808116B6000F0B7
:10AFB00033FE9BE5204A01210020F9F711F8002318
:10AFC000FF2285F809310F4B03F8012FA342FBD173
:10AFD00006F11A03DB43AB720023A5F80A312B817B
:10AFE00012230B214CF6C702EB70144B0748AE70CE
:10AFF0002A8085F808116B6000F00EFE76E500BF30
:10B00000CCB10900573A0820BCB10900583A0820D1
:10B01000ACB10900A0B109000004400090B10900E2
:10B02000FCB1090000048000ECB1090084B1090002
:10B030000004080074B1090068B1090000040400AC
:10B04000774A01210020F8F7CBFF0023FF2285F883
:10B050000931744B03F8012FA342FBD106F11C0305
:10B06000DB43AB720023A5F80A314CF6C7032B80F3
:10B070001223EB7040F201130B212B816A4B6B48BA
:10B08000AE7085F808116B6000F0C6FD2EE5684AC9
:10B0900001210020F8F7A4FF0023FF2285F80931E1
:10B0A000604B03F8012FA342FBD106F13603DB43CB
:10B0B000AB720023A5F80A312B8112230B214CF629
:10B0C000C702EB705B4B5948AE702A8085F80811B7
:10B0D0006B6000F0A1FD09E5574A01210020F8F757
:10B0E0007FFF0023FF2285F809314E4B03F8012F23
:10B0F000A342FBD106F13803DB43AB720023A5F872
:10B100000A314CF6C7032B801223EB7040F2011377
:10B110000B212B81474B4548AE7085F808116B60B9
:10B1200000F07AFDE2E4454A01210020F8F758FFDB
:10B130000023FF2285F809313A4B03F8012FA3427F
:10B14000FBD106F12603DB43AB720023A5F80A31DD
:10B150002B8112230B214CF6C702EB70384B33487E
:10B16000AE702A8085F808116B6000F055FDBDE4D3
:10B17000344A01210020F8F733FF0023FF2285F82D
:10B180000931284B03F8012FA342FBD106F1280314
:10B19000DB43AB720023A5F80A314CF6C7032B80C2
:10B1A0001223EB7040F201130B212B81244B1F481B
:10B1B000AE7085F808116B6000F02EFD96E4224A0F
:10B1C00001210020F8F70CFF0023FF2285F8093148
:10B1D000144B03F8012FA342FBD106F11603DB4306
:10B1E000AB720023A5F80A312B8112230B214CF6F8
:10B1F000C702EB704FF480630C48AE702A8085F86C
:10B2000008116B6000F008FD70E42733D8B2FFF737
:10B2100064BB03210D4A0020F8F7E2FE66E400BF9C
:10B2200058B10900573A082000040400583A082091
:10B230004CB10900000420003CB1090030B1090004
:10B240000004100020B1090014B1090074B2090013
:10B25000024B00211868F6F75FBE00BF1C3A0820B9
:10B26000F0B5464D83B02C780CB103B0F0BD22464A
:10B2700002211020F6F796FE0421414B2246186069
:10B280000846F6F78FFE04213E4B2246186008461A
:10B29000F6F788FE06463C4B22460C2102201E6033
:10B2A000F6F780FE0646394B22460C2102201E602E
:10B2B000F6F778FE0221364B224618600846F6F76C
:10B2C00071FE0646334B2246092102201E60F6F726
:10B2D00069FE02268446304F23464FF448722F49B8
:10B2E000019400962E48C7F800C0F5F785FB00F0E2
:10B2F0000DFD18202B49F8F71DFD34202A49F8F7D9
:10B3000019FD2B202949F8F715FD29202849F8F7C0
:10B3100011FD23202749F8F70DFD28202649F8F7CD
:10B3200009FD2A202549F8F705FD2F202449F8F7C3
:10B3300001FD30202349F8F7FDFC33202249F8F7BE
:10B34000F9FC2E202149F8F7F5FC03F097FE0120C7
:10B35000214603222870F6F725FE4FF6FF754FF0C1
:10B36000FF311B4B1B4A18601B4B14721160196094
:10B370001C7291809D8003B0F0BD00BF103A082080
:10B38000683B08201C3A08204C3A0820443A082020
:10B39000703B0820043A08200C3A082004B3090046
:10B3A000C1A30800D99F0800A99F0800759F080045
:10B3B000599F0800E59E0800D19E08004DA3080093
:10B3C000A1A00800399F0800199F080079A3080070
:10B3D000003A0820383A08202C3A0820024629234F
:10B3E00000B58BB0684601928DF80030F8F7DCFCB0
:10B3F0000BB05DF804FB00BF00B58BB00146142212
:10B40000684606F091FB2F2368468DF80030F8F768
:10B41000CBFC0BB05DF804FB00B584468BB08DF817
:10B42000043028239DF830008DF802C08DF80110FB
:10B430009DF834C09DF838108DF803209DF83C200D
:10B440008DF8050068468DF806C08DF807108DF858
:10B4500008208DF80030F8F7A7FC0BB05DF804FB6E
:10B46000034600B503F00F038BB0BDF800C01B020C
:10B4700043F02D030CF4405C43EA813343EA0C03B0
:10B480006846ADF800308DF80220F8F78DFC0BB05F
:10B490005DF804FB0246312300B58BB068468DF899
:10B4A00001208DF80030F8F77FFC0BB05DF804FB4D
:10B4B00002462A2300B58BB068468DF801208DF82E
:10B4C0000030F8F771FC0BB05DF804FB30B50C46AA
:10B4D000154603464FF02C0C8DB00121094A019509
:10B4E00000940020ADF808C08DF80A308DF80C509B
:10B4F0008DF80B40F8F774FD02A8F8F755FC0DB075
:10B5000030BD00BF10B3090030B50C4615460346E8
:10B510004FF4967C8DB00121094A019500940020DA
:10B52000ADF808C08DF80A308DF80C508DF80B403E
:10B53000F8F756FD02A8F8F737FC0DB030BD00BF94
:10B5400024B3090010B50C4603464FF40B7C8CB0B5
:10B550000121084A00940020ADF808C08DF80A3097
:10B560008DF80B40F8F73CFD02A8F8F71DFC0CB075
:10B5700010BD00BF38B3090000B58BB001460C22E6
:10B58000684606F0D1FA332368468DF80030F8F7A4
:10B590000BFC0BB05DF804FB0246272300B58BB013
:10B5A0006846ADF802208DF80030F8F7FDFB0BB0CF
:10B5B0005DF804FB152008B5FEF726FC122800D81C
:10B5C00008BD01211520FEF725FC012008BD00BFA4
:10B5D00040F22322002300B58BB06846ADF800206E
:10B5E0008DF80230F8F7E0FB0BB05DF804FB00BF0C
:10B5F00002212DE9F04F0846BB4DBC4A91B0F8F747
:10B60000EFFCC820F5F78CFC05F1FF38002143461C
:10B61000FF2205F20714A5F8081103F8012F9C4238
:10B62000FBD10023B24FDFF8CC92DFF8CCA2A5F813
:10B630000A313A680A2390690DF117010122FBF7DC
:10B64000FFFD002800F08D809DF81710C72900F03D
:10B65000E68095F80821002A00F021816B78F02B14
:10B6600000F0888000F2838003F0FD03C82B00F017
:10B670000881501C95F80A31C0B2A9542A7885F87F
:10B680000801C72A40F087806A790732904240F06B
:10B69000B982F5F7EBFA02210346984A0846F8F713
:10B6A0009FFC95F808317BB100263346DFF850B295
:10B6B00002215A46EB5C0846F8F792FC013695F8F1
:10B6C0000821F3B29A42F3D802218E4A0846F8F7CD
:10B6D00087FC95F80821012A04D9AB781F2B01D8E3
:10B6E00089F800306B790733934205D095F80A3119
:10B6F000002B9ED0032A9CD90520F5F711FC95F864
:10B700000A31002B52D00120FDF76AF9F8F748FC06
:10B7100095F808316A78012B94BFFF21A978FF2A98
:10B7200000F08C8000204346FF22A5F8080103F8B2
:10B73000012F9C42FBD1002340F2231206A88DF872
:10B740001A10ADF81820A5F80A31F8F72DFB0A22D7
:10B750000023009203211A46DAF80000F6F7C4F835
:10B7600067E70220F5F7DCFB95F80821BAE7FF2B25
:10B770007FF47FAF0123032A85F80A3100F0A98105
:10B78000022A00F2C081501CC0B2A9542A7885F860
:10B790000801C72A06D0002285F808212A7095F8EA
:10B7A0000821A5E7002BFAD10023F8E7697995F87D
:10B7B0000831CA1D9A427CD099F8003038681F2B96
:10B7C000066973D90123FE2289F80030CDE90032E1
:10B7D0004D49F023C722B047F5F748FA99F8002001
:10B7E00003461F2A5FD90122FE2189F80020CDE9F6
:10B7F0000221F022C7210220CDE900120021434A94
:10B80000F8F7EEFB00214346FF22A5F8081103F8E4
:10B81000012F9C42FBD10023A5F80A3109E7002043
:10B820004346FF2285F8090103F8012F9C42FBD112
:10B83000002301201A46A5F80A31A6E7687995F891
:10B840000A61C21D002E00F00D81032B00F24F8112
:10B850009A4200F04C810023FF22A5F808314346AC
:10B8600003F8012F9C42FBD10023A5F80A3140F2D6
:10B87000231306A88DF81A10ADF81830F8F794FACB
:10B8800065E7002095F8093185F80A01002B40F0A2
:10B89000DD80D82900F04381501CC0B2EDE60120C4
:10B8A00095F80A3171E7D143C9B2A0E7DA43D2B2C1
:10B8B0008CE7AB78EA780B441344DBB24E1D49B1F8
:10B8C00006200246AA5C013080B21344B042024610
:10B8D000DBB2F7DDDB4329448A79DBB29A4217D029
:10B8E000022385F80B3167E77C3C082058B3090038
:10B8F000743B0820883D0820783C08206CB3090080
:10B9000078B309006C9A0900DCB30900E8B30900B8
:10B91000012299F80030386885F80B211F2B066941
:10B9200040F2D480134689F80020FE22CDE900328F
:10B93000A149FF23C722B047F5F798F999F80020ED
:10B9400003461F2A40F2BF800122FE2189F8002011
:10B95000CDE90221FF200221C722CDE900200846BF
:10B96000964AF8F73DFBEB78FF2B62D0A3F19002EB
:10B97000582A00F2D880DFE812F041013B01D600DE
:10B98000D600D600D600D600D600D600D600D60007
:10B99000D600D600D600D600D600D600D600D600F7
:10B9A000D600D600D600D600D600D600D600D600E7
:10B9B000D600D600D600D600D600D600D600D600D7
:10B9C000D600D600D600370133012F01D600D600AD
:10B9D000D600D600D600D600D6002B011A01D6001C
:10B9E000160112010E010A01D600D600D600D600BB
:10B9F000D600D600D600D600D6000201D600D6006A
:10BA0000D600D600F800D600D600D600D600D60064
:10BA1000D600D600D600D600D600D600D600D60076
:10BA2000D600D600F400D600D6005900644804F0D1
:10BA30007DF800214346FF22A5F8081103F8012FE5
:10BA40009C42FBD10023A5F80A31F2E5AA2953D084
:10BA5000D82952D085F809016B7907339A423FF40F
:10BA600018AEE6E59A427FF4F6AEAB78EA78034486
:10BA70001344DBB200F1050C48B106263246AA5C3D
:10BA80000136B6B2134466453246DBB2F7DDDB431E
:10BA900028448279DBB29A427FF4DDAE0023FF2294
:10BAA000A5F80831434603F8012F9C42FBD100233F
:10BAB000A5F80A31232306A88DF81A10ADF818301E
:10BAC000F8F772F943E6D143C9B241E7DA43D2B29B
:10BAD0002CE7AB780846DB43DBB29842E97018D01C
:10BAE000022385F80B310123D018C0B2C5E595F8C3
:10BAF0000B31012BD2D0AEE6C7210023501CC0B2BF
:10BB000085F80931B9E5AB78E878DB43DBB29842D8
:10BB1000E6D10123D018C0B285F80B31ADE5012381
:10BB200085F8093198E700210220264AF8F758FAEB
:10BB300095F808317BB100263346DFF88CB05A46C1
:10BB4000EB5C00210220F8F74BFA013695F808214A
:10BB5000F3B29A42F3D800211C4A0220F8F740FAC7
:10BB600067E7174803F09AFF63E724238DF818303E
:10BB7000AB7906A88DF81930F8F716F959E7AB79C3
:10BB8000E87900EB032080B2FFF706FD51E70C488F
:10BB900003F082FF4DE70A4803F04EFF49E70848EB
:10BBA00003F042FF45E7064803F014FF41E704486D
:10BBB00003F0FEFE3DE700BFDCB30900E8B3090077
:10BBC0007C3C082080B3090078B309006C9A090016
:10BBD000104803F0DBFE2CE70E4803F0C1FE28E717
:10BBE0000C4803F0A3FE24E70A4803F08BFE20E78D
:10BBF0000022A8791146FFF769FC1AE7A879FFF738
:10BC000057FC16E7002B3FF4CFAD03283FF641ADBC
:10BC1000C5E500BF7C3C0820F0B50D4683B0002987
:10BC20005CD00024D8274FF0AA0E4B1E421EDBB278
:10BC30002F4D18445FFA82FC12F8013FC72B42D007
:10BC4000D82B3AD02B5501348242E4B201D0FD2CDE
:10BC5000F2D9F5F70BF802210346264A0846661981
:10BC6000254F234DF8F7BCF9022115F8013B3A4660
:10BC70000846F8F7B5F9AE42F6D102211F4A084648
:10BC8000F8F7AEF91E4B224618681949C368984761
:10BC9000FF211C4B03F1FE0203F8011F9342FBD16D
:10BCA000194B1C68F4F7E2FF0023024601212046ED
:10BCB0000093F5F719FE03B0F0BD611CC9B22B5516
:10BCC0000C466B54BFE7561EF6B2611C6645C9B2FE
:10BCD000B8D02F550C4605F801E0B4E7F4F7C6FFDD
:10BCE00002210346034A08462C46F8F779F9C4E7CF
:10BCF000783B0820A0B3090078B309006C9A0900CA
:10BD0000743B0820773B0820783C0820022130B59E
:10BD1000084683B0134AF8F763F90421124A022057
:10BD2000F8F75EF9114D1248002428600225436996
:10BD30004E224FF4E131984700950E4D23464FF4C3
:10BD400048720D4901940D48F4F756FE23462246E9
:10BD5000A02100950A48F5F7A3FD0A4B186003B02F
:10BD600030BD00BFA8B30900C0B30900743B082070
:10BD7000F4810720D1B50800D0B30900F1B508005F
:10BD8000F4AD0900783C082002460B2300B58BB0C7
:10BD900068468DF801208DF802108DF80030F8F714
:10BDA00003F80BB05DF804FB02462E2300B58BB000
:10BDB00068468DF801208DF80030F7F7F5FF0BB0DD
:10BDC0005DF804FB00B58BB084468DF80430222367
:10BDD000BDF830008DF802C0ADF8060068468DF859
:10BDE00001108DF803208DF80030F7F7DDFF0BB060
:10BDF0005DF804FB2DE9F04184B004460D46FFF7E1
:10BE0000D9FB0F4E0F4A337852F82070A3B10E4B76
:10BE100053F82080FEF7BAFACDF808803378002670
:10BE2000014603932A46204617230197009603F004
:10BE30004DFB04B0BDE8F081044B53F82080E9E7E6
:10BE40001E3F0820C4CC090088C60900F0C50900BF
:10BE50002DE9F04184B004460D46FFF7ABFB0F4ED1
:10BE60000F4A337852F82070A3B10E4B53F820805C
:10BE7000FEF78CFACDF8088033780026014603934C
:10BE80002A46204616230197009603F01FFB04B0B4
:10BE9000BDE8F081044B53F82080E9E7BE3D08205F
:10BEA00094CB090088C60900F0C509002DE9F041CE
:10BEB00084B004460D46FFF77DFB0F4E0F4A3378E2
:10BEC00052F82070A3B10E4B53F82080FEF75EFAB3
:10BED000CDF8088033780026014603932A46204691
:10BEE00015230197009603F0F1FA04B0BDE8F08144
:10BEF000044B53F82080E9E7AB3D082050C8090007
:10BF000088C60900F0C509002DE9F04184B0044657
:10BF10000D46FFF74FFB0F4E0F4A337852F8207053
:10BF2000A3B10E4B53F82080FEF730FACDF808800D
:10BF300033780026014603932A46204614230197AE
:10BF4000009603F0C3FA04B0BDE8F081044B53F847
:10BF50002080E9E7A23D082004C8090088C609003E
:10BF6000F0C509002DE9F04184B004460D46FFF705
:10BF700021FB0F4E0F4A337852F82070A3B10E4BBD
:10BF800053F82080FEF702FACDF8088033780026B7
:10BF9000014603932A46204613230197009603F097
:10BFA00095FA04B0BDE8F081044B53F82080E9E72E
:10BFB000A03D08206CC7090088C60900F0C509002B
:10BFC0002DE9F04184B004460D46FFF7F3FA0F4E19
:10BFD0000F4A337852F82070A3B10E4B53F82080EB
:10BFE000FEF7D4F9CDF80880337800260146039394
:10BFF0002A46204612230197009603F067FA04B000
:10C00000BDE8F081044B53F82080E9E7A13D08200A
:10C01000B8C7090088C60900F0C509002DE9F0413C
:10C0200084B004460D46FFF7C5FA0F4E0F4A337829
:10C0300052F82070A3B10E4B53F82080FEF7A6F9FA
:10C04000CDF8088033780026014603932A4620461F
:10C0500011230197009603F039FA04B0BDE8F0818E
:10C06000044B53F82080E9E7BD3D082048CB090088
:10C0700088C60900F0C509002DE9F04184B00446E6
:10C080000D46FFF797FA0F4E0F4A337852F820709B
:10C09000A3B10E4B53F82080FEF778F9CDF8088055
:10C0A00033780026014603932A4620461023019741
:10C0B000009603F00BFA04B0BDE8F081044B53F88E
:10C0C0002080E9E71C3F082078CC090088C60900D9
:10C0D000F0C509002DE9F04184B004460D46FFF794
:10C0E00069FA0F4E0F4A337852F82070A3B10E4B05
:10C0F00053F82080FEF74AF9CDF8088033780026FF
:10C10000014603932A4620460F230197009603F029
:10C11000DDF904B0BDE8F081044B53F82080E9E775
:10C12000B33D082064CA090088C60900F0C50900AB
:10C130002DE9F04184B004460D46FFF73BFA0F4E5F
:10C140000F4A337852F82070A3B10E4B53F8208079
:10C15000FEF71CF9CDF808803378002601460393DA
:10C160002A4620460E230197009603F0AFF904B04B
:10C17000BDE8F081044B53F82080E9E7B03D08208A
:10C1800080C9090088C60900F0C509002DE9F04101
:10C1900084B004460D46FFF70DFA0F4E0F4A337870
:10C1A00052F82070A3B10E4B53F82080FEF7EEF842
:10C1B000CDF8088033780026014603932A462046AE
:10C1C0000D230197009603F081F904B0BDE8F081DA
:10C1D000044B53F82080E9E7313F08208CCE09005A
:10C1E00088C60900F0C509002DE9F04184B0044675
:10C1F0000D46FFF7DFF90F4E0F4A337852F82070E3
:10C20000A3B10E4B53F82080FEF7C0F8CDF808809C
:10C2100033780026014603932A4620460C230197D3
:10C22000009603F053F904B0BDE8F081044B53F8D5
:10C230002080E9E71B3F08202CCC090088C60900B4
:10C24000F0C509002DE9F04184B004460D46FFF722
:10C25000B1F90F4E0F4A337852F82070A3B10E4B4C
:10C2600053F82080FEF792F8CDF808803378002646
:10C27000014603932A4620460B230197009603F0BC
:10C2800025F904B0BDE8F081044B53F82080E9E7BC
:10C29000193F0820E0CB090088C60900F0C5090055
:10C2A0002DE9F04184B00E460546FFF783F9104BA7
:10C2B00004461F78FFF77EF9B7B10E4B53F8208084
:10C2C000FEF764F80C4B014653F824300024019328
:10C2D0003246284601230397CDF80880009403F0E6
:10C2E000F5F804B0BDE8F081044B53F82080E7E78F
:10C2F0001D3F082088C6090008D00900F0C50900C4
:10C30000F0B585B004460D46FFF754F90E4B0F4AC1
:10C310001B7852F8206093B90D4B53F82070FEF74C
:10C3200035F82A4601460025204603240A23CDE994
:10C3300000450397029603F025F805B0F0BD054BC4
:10C3400053F82070EBE700BFAF3D082034C9090067
:10C350009CC80900E8C8090070B584B00E460546BF
:10C36000FFF728F90446FEF711F8094B014603933D
:10C37000084B284653F82430002503240293324604
:10C380000F230195009402F0FDFF04B070BD00BFC3
:10C39000F4C209005CC20900F0B585B00E4605463E
:10C3A000FFF708F90446FFF705F90E4B1B68ABB120
:10C3B0000D4B53F82070FDF7E9FF0C4B014653F885
:10C3C0002430284601240025029332460423CDE977
:10C3D0000045039702F0D6FF05B0F0BD044B53F8BB
:10C3E0002070E8E7B83D082038D10900C0C4090032
:10C3F000A4C50900F0B585B00E460546FFF7DAF88A
:10C400000446FFF7D7F80E4B1B68ABB10D4B53F842
:10C410002070FDF7BBFF0C4B014653F82430284633
:10C4200001240025029332460323CDE900450397FA
:10C4300002F0A8FF05B0F0BD044B53F82070E8E708
:10C44000A43D082038D1090010C20900A4C5090084
:10C4500070B584B00E460546FFF7ACF80446FDF70C
:10C4600095FF084B324603930026012301462846D8
:10C47000054D019655F824400093029402F082FF86
:10C4800004B070BD84970900BCCF090070B584B0BA
:10C490000E460546FFF78EF80446FDF777FF084B7A
:10C4A000324603930026032301462846054D019694
:10C4B00055F824400093029402F064FF04B070BD6C
:10C4C000F4C2090070CF090070B584B00E4605466D
:10C4D000FFF770F80446FDF759FF094B0146039337
:10C4E000084B284653F82430002503240293324693
:10C4F00080230195009402F045FF04B070BD00BF99
:10C50000F4C20900A0D0090070B584B00E460546FB
:10C51000FFF750F80446FDF739FF0146284600258D
:10C52000074B01950393074B324653F824300324FD
:10C5300002930094102302F025FF04B070BD00BFE9
:10C54000F4C20900A882072070B584B00E460546E3
:10C55000FFF730F80446FDF719FF094B0146039336
:10C56000084B284653F82430002503240293324612
:10C5700002230195009402F005FF04B070BD00BFD6
:10C58000F4C2090044C30900F0B587B00E46054661
:10C59000FFF710F80446FDF7F9FE63270023014674
:10C5A0002846094D32462D78CDE904370395074DCD
:10C5B000009355F8244009230194054C029403F09C
:10C5C000CDF807B0F0BD00BF2E3F0820A8CD090070
:10C5D000F4C2090070B586B00E460546FEF7EAFFC4
:10C5E0000446FDF7D3FE6323014628460125CDE925
:10C5F00004530025074B32461B7800950393064BE6
:10C6000053F82430054C01930294082303F0A6F854
:10C6100006B070BD2D3F08205CCD0900F4C20900B2
:10C62000F0B587B00E460546FEF7C4FF0446FDF799
:10C63000ADFE6327002301462846094D32462D787A
:10C64000CDE904370395074D009355F8244007239F
:10C650000194054C029403F081F807B0F0BD00BFCF
:10C66000B13D0820CCC90900F4C2090070B586B0FC
:10C670000E460546FEF79EFF0446FDF787FE632340
:10C68000014628460125CDE904530025074B3246D3
:10C690001B7800950393064B53F82430054C019307
:10C6A0000294062303F05AF806B070BDB23D08208C
:10C6B00018CA0900F4C20900F0B587B00E46054655
:10C6C000FEF778FF0446FDF761FE6327002301466D
:10C6D0002846094D32462D78CDE904370395074D9C
:10C6E000009355F8244005230194054C029403F06F
:10C6F00035F807B0F0BD00BF2F3F0820F4CD09008A
:10C70000F4C2090070B586B00E460546FEF752FF2A
:10C710000446FDF73BFE6323014628460125CDE98B
:10C7200004530025074B32461B7800950393064BB4
:10C7300053F82430054C01930294042303F00EF8BF
:10C7400006B070BD303F082040CE0900F4C2090099
:10C75000F0B587B00E460546FEF72CFF0446FDF700
:10C7600015FE6327002301462846094D32462D78E1
:10C77000CDE904370395074D009355F82440032372
:10C780000194054C029402F0E9FF07B0F0BD00BF30
:10C79000B43D0820B0CA0900F4C2090070B586B0E3
:10C7A0000E460546FEF706FF0446FDF7EFFD632340
:10C7B000014628460125CDE904530025074B3246A2
:10C7C0001B7800950393064B53F82430054C0193D6
:10C7D0000294022302F0C2FF06B070BDB53D0820EE
:10C7E000FCCA0900F4C20900F0B587B00E46054640
:10C7F000FEF7E0FE0446FDF7C9FD6327012301466D
:10C8000028460025CDE904370095074D32462D789E
:10C810000395064D55F824400194054C029402F00E
:10C820009DFF07B0F0BD00BFBF3D082010CD09003F
:10C83000F4C20900F0B587B00E460546FEF7BAFE11
:10C840000D4B04461F78FDF7A1FD324601463B26FD
:10C8500028460025CDE90456084D00972D7806237B
:10C860000395074D55F824400194064C029402F0BC
:10C8700075FF07B0F0BD00BF1D3F08202B3F08200B
:10C880000CC50900F4C20900F0B587B00E46054694
:10C89000FEF790FE0D4B04461F78FDF777FD3246FC
:10C8A0000146172628460025CDE90456084D009775
:10C8B0002D7805230395074D55F824400194064C27
:10C8C000029402F04BFF07B0F0BD00BF1D3F0820EF
:10C8D0002A3F082028C40900F4C20900F0B587B037
:10C8E0000E460546FEF766FE0D4B04461F78FDF723
:10C8F0004DFD324601460C2628460025CDE904565A
:10C90000084D00972D7803230395074D55F82440D3
:10C910000194064C029402F021FF07B0F0BD00BF65
:10C920001D3F0820F582072058C50900F4C2090000
:10C930002DE9F04186B00F460646FEF73BFE104A51
:10C94000104B054693F800801488FDF71FFD303426
:10C95000E4B20146039430460A248026CDE9044619
:10C96000094C022354F825403A460194074CCDF86F
:10C970000080029402F0F2FE06B0BDE8F08100BF34
:10C98000F68207201D3F0820ECD00900F4C2090000
:10C9900070B582B00646FEF70DFE01220A4B054631
:10C9A0001A70FDF7FDFC094B0446186802F0B8F94F
:10C9B000074B024653F825103046009103232146C9
:10C9C00002F062FC02B070BD183F0820983D0820BC
:10C9D00020C7090070B582B00646FEF7EBFD05469C
:10C9E000FDF7DEFC084B0446186802F099F9074B86
:10C9F000024653F82510304600910F23214602F0DD
:10CA000043FC02B070BD00BF903D08205CC209002D
:10CA100070B582B00646FEF7CDFD0546FDF7C0FCB9
:10CA2000084B0446186802F07BF9074B024653F89E
:10CA30002510304600910223214602F025FC02B069
:10CA400070BD00BF943D082044C3090070B582B09A
:10CA50000646FEF7AFFD0546FDF7A2FC084B04466F
:10CA6000186802F05DF9074B024653F8251030466E
:10CA700000910023214602F007FC02B070BD00BF08
:10CA80008C3D0820A88207201949037810B40A6851
:10CA9000CBB9022A0BD91346003B18BF0123003A39
:10CAA00018BF01229A4213D010BC02F06DB90323C3
:10CAB0000B600078012817D00728EDD1581E14BF4D
:10CAC000012300230EE0012B04D0072BE3D16AB928
:10CAD00010BC7047022A07D803240C60007807288E
:10CAE000DDD102200860DAE70123D8E71346E5E745
:10CAF000A43D0820027812490F2A0B680DD0072A9E
:10CB000000D07047002BFCD0581E14BF0122002219
:10CB1000003B18BF012308600AE0022BF1D8032272
:10CB20000A600278072A07D0003B18BF01230122C0
:10CB30009A42E6D002F028B901220220E8E700BFBD
:10CB4000B83D0820F0B585B00E460546FEF732FD2B
:10CB5000044602F0E5FEC0B90F4B1B78C3B90F4B7A
:10CB600053F82470FDF712FC0D4B014653F82430A6
:10CB7000284601240025029332460723CDE90045CB
:10CB8000039702F0FFFB05B0F0BD002005B0F0BD3B
:10CB9000044B53F82470E5E7A93D082090C3090031
:10CBA00054D00900DCC30900F0B585B00E46054637
:10CBB000FEF700FD0446FEF7FDFC07460220FDF7E8
:10CBC00023F901280CBF0B4B0B4B53F82770FDF7D3
:10CBD000DDFB0A4B014653F824302846012400258A
:10CBE000029332460223CDE90045039702F0CAFBC7
:10CBF00005B0F0BD3CC60900F8C2090074C40900C4
:10CC000000B587B003F004FC0B2802D807B05DF82C
:10CC100004FB03238DF80030F8F7AAF803466846B2
:10CC20008DF8083003F040FC07B05DF804FB00BF4E
:10CC300038B503781E2B00D038BD4378022BFBD1CA
:10CC4000784B1A78002AF7D1012209201A70FDF7D3
:10CC5000DBF8431EDBB2622B00F2D080724B1870FF
:10CC60000A20FDF7D1F8431EDBB2622B00F2BF8031
:10CC70006E4B18700B20FDF7C7F8632800F2B080E8
:10CC80006B4B18700C20FDF7BFF8431EDBB2622B14
:10CC900000F29F80674B18700D20FDF7B5F86328F0
:10CCA00000F29080644B18700E20FDF7ADF8431E23
:10CCB000DBB2622B7FD8614B18700F20FDF7A4F810
:10CCC000632871D85E4B18701020FDF79DF8431E45
:10CCD000DBB2622B61D85B4B18701120FDF794F822
:10CCE000632853D8584B18701220FDF78DF801288F
:10CCF00045D8564B18701320FDF786F80346544C60
:10CD000014202370FDF780F82378524D00EA0302C7
:10CD1000FF2A287079D0504C03F001054F4A257046
:10CD20004F49C3F340041470C3F380054D4A0D709E
:10CD30004D4CC3F3C0011170C3F300154B4925706E
:10CD40004B4AC3F340140C70C3F380154949157066
:10CD5000494A00F00105494C0D70C0F340011170C3
:10CD6000DB0947492370474AC0F38004464B0C70E7
:10CD7000C0F3C001C0F300101170187038BD00215D
:10CD8000324B12201970FDF745F8B4E731212E4BD4
:10CD900011201970FDF73EF8A6E70321294B10205A
:10CDA0001970FDF737F898E70021254B0F2019700F
:10CDB000FDF730F888E70321204B0E201970FDF7AE
:10CDC00029F87AE719211C4B0D201970FDF722F87C
:10CDD0006AE70221174B0C201970FDF71BF85BE77F
:10CDE0003221134B0B201970FDF714F84AE7062186
:10CDF0000E4B0A201970FDF70DF83BE70F210A4B87
:10CE000009201970FDF706F82AE700211320217088
:10CE10002970FCF7FFFF14202978FCF7FBFF23782B
:10CE2000287878E71A3F0820BF3D0820B53D082044
:10CE3000B43D0820303F08202F3F0820B23D082095
:10CE4000B13D08202D3F08202E3F0820AF3D08208F
:10CE5000AD3D0820AE3D0820193F08201B3F0820AB
:10CE6000313F0820B03D0820B33D08201C3F08207A
:10CE7000BD3D0820A03D0820A23D0820A13D08207E
:10CE8000AB3D0820BE3D08201E3F082003782DE959
:10CE9000F0430A2B01D0BDE8F0831D4D90F804C08B
:10CEA0002C781C4E644590F801E08278C178B0F887
:10CEB0000680338816D001231748184C07788F4214
:10CEC00018BF012327789742154F10D0A6F800808D
:10CED00085F800C00170227087F800E0BDE8F043DB
:10CEE00001F052BFB8EB030318BF0123E4E797F842
:10CEF0000090F145EAD1A6F8008085F800C00170E5
:10CF0000227087F800E0002BE8D1BDE8F08300BF75
:10CF1000F5820720F6820720F48207202A3F0820A6
:10CF20002B3F0820014B1878704700BF1D3F082099
:10CF3000014B1870704700BF1D3F082008B5044B17
:10CF40000521186801F09CFE0122024B1A7008BDF1
:10CF5000943D0820AA3D082008B5044B0421186818
:10CF600001F08EFE0122024B1A7008BD943D08208C
:10CF7000BC3D0820830718D100EB800300EBC30001
:10CF8000A0EB8020C0F38D0242EA803292B2B2F56B
:10CF9000247F1FFA80FC17D2030343EA1C139BB2C1
:10CFA000A32B8CBF0023012300E0002302390929B1
:10CFB00008D8DFE801F00B07050705070705070597
:10CFC0001E2070471F2070470123EFE7002B14BF7E
:10CFD0001D201C20704700BF2DE9F04186B00F4690
:10CFE0000646FEF7E7FA164A164B92F800801A88B2
:10CFF000154B05461C78154B1978F4B11046FFF710
:10D00000B9FF844228BF0446E4B2FDF7BFF9039498
:10D010000146002430461F26CDE904460C4C04236B
:10D0200054F825403A4601940A4CCDF80080029409
:10D0300002F094FB06B0BDE8F0810124E5E700BFF3
:10D040001D3F0820F6820720F4820720F582072082
:10D05000A8C20900F4C209002DE9F0430378044690
:10D060002C2B89B002D009B0BDE8F0834378022BA5
:10D07000F9D101F0CDFD0F2800F09280A0F110034E
:10D08000DBB26F2B1CD90328EDD1A578E478F3F738
:10D09000EDFD0346AC48AD4A009001210020CDE9EA
:10D0A0000145F6F79DFFAA4B1B785A1E082A00F28D
:10D0B0004481DFE802F06E676059524B443D0C003A
:10D0C000A178E07809B0BDE8F04301F0B3BCA14B12
:10D0D000214610201C70FCF79DFEDFF87C829F4FDC
:10D0E00098F800309E4E04933B789E4D039333781E
:10D0F0009D4C02932B780121019323889B4A009336
:10D100000020914BF6F76CFF98F800C03B7832781E
:10D1100029782088CDF800C002F038FD944B1868BB
:10D1200001F050FE032009B0BDE8F04301F03EBD20
:10D13000904B214610201C70FCF76CFECDE78E4B07
:10D1400021460F201C70FCF765FEC6E78B4B21467D
:10D150000E201C70FCF75EFEBFE7894B21460D20B8
:10D160001C70FCF757FEB8E7864B21460C201C705C
:10D17000FCF750FEB1E7844B21460B201C70FCF7F6
:10D1800049FEAAE7814B21460A201C70FCF742FEAB
:10D19000A3E77F4B214609201C70FCF73BFE9CE770
:10D1A000E578A478F3F762FD03467A48674A009071
:10D1B00001210020CDE90154F6F712FF644B1B78E2
:10D1C0009A1E042A00F2A580DFE802F0826B483242
:10D1D0000300654E634C624FDFF880812B460121CE
:10D1E0006D4A0020DFF87091F6F7FAFE3388217857
:10D1F0003A7898F8000089F80050CDE90305CDE9A8
:10D20000011200930121634B584A0020F6F7E8FE13
:10D2100099F8005098F800303A78217830880095D5
:10D2200002F0B4FC5D4B186801F0CCFD0F207AE7EA
:10D23000DFF828814C4E4B4C494FDFF81C912B46B0
:10D240000121574A0020F6F7CBFE284688F8005007
:10D25000338821783A7899F80050CEE7424E414C15
:10D260002B46012100204F4AF6F7BAFE3388277873
:10D27000002D3CD0184639460793FFF77BFEA842A5
:10D2800028BF2846C0B20246079B3946DFF8CC804B
:10D29000334FDFF8C490387099F8005098F80000C8
:10D2A000ABE7304C2B46012100203F4AF6F798FEB1
:10D2B0002570FDB129462C4E294F3388DFF89C801C
:10D2C000DFF894903A7898F8000099F8005094E7C5
:10D2D00005F5FA652B4601210020234E214C334AE7
:10D2E000F6F77EFEABB21E4F21783380E6E70122CF
:10D2F0001046CAE701211C4E194FDFF86080DFF8A5
:10D30000589033883A7898F8000099F800502170C6
:10D3100073E7154E134C124FDFF84080DFF838905A
:10D320000121234A0020F6F75BFE338821783A7802
:10D3300098F8000099F800505FE701211C4A00208E
:10D34000F6F74EFEC9E600BFB0C1090004B40900FB
:10D35000AC3D08202E3F08202B3F08202A3F082004
:10D36000F4820720F5820720F68207208CB409009A
:10D37000983D08202D3F0820B13D0820B23D0820EF
:10D380002F3F0820303F0820B43D0820B53D08203D
:10D39000BF3D0820D0C1090060B40900903D0820BD
:10D3A00050B409003CB4090028B4090014B40900C1
:10D3B00074B409002DE9F0411A4B82B0187070B3B3
:10D3C000194C2088A0F5FA63362B28D8174D2978F8
:10D3D0004B1E0B2B23D8164F3E7806B3FFF7CAFD22
:10D3E000B04228BF3046C3B29E4218D8114E33789F
:10D3F000172B14D8DFF8408098F800303B2B0ED85C
:10D4000001210E4B0E4A0020F6F7EAFD2488307801
:10D410002B783A7898F800100094FEF7D3FC02B00D
:10D42000BDE8F0811D3F0820F6820720F582072025
:10D43000F48207202A3F08202B3F0820F4C109006E
:10D44000D0B4090070B5037804462C2B84B001D009
:10D4500004B070BD43789BB1012BF9D101F0D8FB2A
:10D460000F281CD90306F3D494F904302279002B39
:10D47000EEDBE178A07804B0BDE8704001F034BA8A
:10D480008478002CE4D101F0D3FB204601F08EFB20
:10D490009E4B186804B0BDE8704001F093BC01F0E9
:10D4A000B7FB0F2809D8DFE800F01313505D080818
:10D4B0000808080808080808082DE0782579A378E6
:10D4C0000121CDE90005924A0020F6F789FDBFE76A
:10D4D000A078E178247950EA010501D1012C07D028
:10D4E0000F2C00F24F81022C36D000F25081AFD0C9
:10D4F000864B186801F066FC002004B0BDE870405F
:10D5000001F054BBA578E6782479F3F7AFFB814AA4
:10D510000346CDE9002501210020CDE902647E4AC1
:10D52000F6F75EFD0F2D93D1012C00F03F81072C03
:10D5300000F05481794D2B78A34289D0012100203D
:10D54000774AF6F74DFD2C7082E7A378022B03D1C2
:10D5500024790F2C00F02481724B186801F032FC02
:10D560000220CAE7A578E6782479F3F77FFB6E4AB4
:10D570000346CDE9002501210020CDE90264664A79
:10D58000F6F72EFD032D7FF463AFA4F10A030D2BF4
:10D59000D0D8DFE813F0660094004B00EB00A10048
:10D5A000AE0059007A006D0087003E003100240073
:10D5B0000E005E4A137883F001031370002B00F015
:10D5C0003F815B4B197841F0100114201970FCF772
:10D5D00021FC584B186801F0F5FB03208DE7564AF3
:10D5E000137883F001031370002B00F02E81504B51
:10D5F000197841F00801E8E7504A137883F00103F5
:10D600001370002B00F02681494B197841F004017A
:10D61000DBE74B4A137883F001031370002B00F013
:10D620000581434B197841F00201CEE7454A137852
:10D6300083F001031370002B00F01681424B197820
:10D6400041F002011320C1E7404A137883F001033F
:10D650001370002B00F0E5803B4B197841F020015E
:10D66000F0E73B4B12201978B1FA81F14909ADE797
:10D67000384A137883F001031370002B00F0CC803C
:10D68000314B197841F08001DCE7334A137883F09D
:10D6900001031370002B00F0E2802B4B197841F04E
:10D6A0004001CFE72D4A137883F001031370002B5C
:10D6B00000F0C1801E4B197841F0010185E7284A2E
:10D6C000137883F001031370002B00F0D7801E4BFA
:10D6D000197841F00101B5E7224A137883F001037C
:10D6E0001370002B00F0C580174B197841F008012A
:10D6F000A8E71D4A137883F001031370002B00F094
:10D70000C280114B197841F010019BE78C3D082035
:10D710004CB5090098C10900E4B40900AC3D0820EB
:10D7200034B50900943D082080C109001E3F08203F
:10D73000AE3D0820983D0820BE3D0820AB3D0820A6
:10D74000A23D08201B3F0820AD3D08201C3F0820BB
:10D75000AF3D0820A13D0820BD3D0820A03D082088
:10D76000193F0820B03D0820B33D0820484A1378EF
:10D7700083F001031370002B49D0464B197841F018
:10D7800004015FE722063FF563AE224673E6032CF1
:10D790007FF45EAE404B186801F014FB2046ACE607
:10D7A0003E4B186801F00EFB2046A6E63C4E214693
:10D7B0003C4A33780020F6F713FC307880F0010003
:10D7C000FFF7F8FD21463378374A0020F6F708FCCA
:10D7D000324B186801F0F6FA28468EE60121002047
:10D7E000324AF6F7FDFB324B197881F001011970CE
:10D7F00049B100210846FEF7C7FA284B186801F026
:10D80000E1FA0F2079E60120FEF7BEFAF5E7214B99
:10D81000197801F0FB0115E71E4B197801F07F0123
:10D8200010E71C4B197801F0DF010BE7214B197849
:10D8300001F0FD01C9E61F4B197801F0FE01C4E6B5
:10D840001C4B197801F0EF01BFE61A4B197801F073
:10D85000F701BAE6174B197801F0FB01B5E60D4B5D
:10D86000197801F0BF01EDE60A4B197801F0FD01CE
:10D87000E8E6084B197801F0F701E3E6054B197863
:10D8800001F0FE01DEE6034B197801F0EF01D9E665
:10D89000313F0820AD3D0820983D0820903D0820EC
:10D8A0001D3F0820FCB409001CB5090024B509007F
:10D8B000A93D0820AE3D0820014B1878704700BFF5
:10D8C000183F08200022014B1A707047183F0820AB
:10D8D00010B5044600213C4A01F0DCF92046012144
:10D8E0003A4A01F0D7F920460221394A01F0D2F92B
:10D8F00020460321374A01F0CDF920460421364A5B
:10D9000001F0C8F920460521344A01F0C3F9204648
:10D910000621334A01F0BEF920460721314A01F0C1
:10D92000B9F920460821304A01F0B4F9204609210E
:10D930002E4A01F0AFF920460A212D4A01F0AAF93A
:10D9400020460B212B4A01F0A5F920460C212A4A3A
:10D9500001F0A0F920460D21284A01F09BF920464C
:10D960000E21274A01F096F920460F21254A01F0A1
:10D9700091F920461021244A01F08CF9204611210A
:10D98000224A01F087F920461221214A01F082F94A
:10D99000204613211F4A01F07DF9204614211E4A1A
:10D9A00001F078F9204615211C4A01F073F9204650
:10D9B00016211B4A01F06EF92046BDE810401721E0
:10D9C000184A01F067B900BF91C90800E9C708000B
:10D9D0009DC7080051C7080005C70800B9C6080060
:10D9E0006DC6080021C60800D5C5080089C5080015
:10D9F00001C3080045C20800E9C108008DC1080044
:10DA000031C10800D5C0080079C008001DC0080059
:10DA1000C1BF080065BF080009BF0800ADBE08000F
:10DA200051BE0800F5BD08002DE9F041FDF7C2FD2B
:10DA3000002607467E4C7F4B204653F827802670F1
:10DA400004F02EFA02464146C2F1630220467A4DA6
:10DA500004F054FA794B7A491A7828462E7004F06B
:10DA60005DF9204604F01CFA02462946C2F1640220
:10DA7000204604F043FA204604F012FA02467149A7
:10DA8000C2F16402204604F039FA6F4B6C491A78EF
:10DA900028462E7004F042F9204604F001FA0246AE
:10DAA0002946C2F16402204604F028FA204604F018
:10DAB000F7F902466549C2F16402204604F01EFAF5
:10DAC000634B5F491A7828462E7004F027F92046E8
:10DAD00004F0E6F902462946C2F16402204604F049
:10DAE0000DFA204604F0DCF902465649C2F1640200
:10DAF000204604F003FA574B51491A7828462E70F5
:10DB000004F00CF9204604F0CBF902462946C2F194
:10DB10006402204604F0F2F9204604F0C1F90246FE
:10DB20004A49C2F16402204604F0E8F94A4B4449EC
:10DB30001A7828462E7004F0F1F8204604F0B0F967
:10DB400002462946C2F16402204604F0D7F9204675
:10DB500004F0A6F902463B49C2F16402204604F0F3
:10DB6000CDF93E4B36491A7828462E7004F0D6F887
:10DB7000204604F095F902462946C2F16402204687
:10DB800004F0BCF9204604F08BF902463449C2F196
:10DB90006402204604F0B2F9324B29491A7828462B
:10DBA0002E7004F0BBF8204604F07AF902462946AC
:10DBB000C2F16402204604F0A1F9204604F070F995
:10DBC00002462049C2F16402204604F097F9264B30
:10DBD0001B491A7828462E7004F0A0F8204604F05D
:10DBE0005FF902462946C2F16402204604F086F934
:10DBF000204604F055F902461C492046C2F1640251
:10DC000004F07CF91A4B1B787BB91A4B204653F869
:10DC1000275004F045F9024629462046C2F1640225
:10DC200004F06CF90248BDE8F081134BEEE700BF49
:10DC3000B43E0820D4C60900203F0820B53D082086
:10DC40006CB5090070B50900B43D082074B5090031
:10DC5000303F08202F3F0820B23D0820B13D08206A
:10DC60007CB509002D3F08202E3F082080B5090013
:10DC7000AF3D08209CC80900E8C809002DE9F04F15
:10DC800087B0FDF797FC00226A4E6B4D337804464F
:10DC9000DFF8A8B12A70002B40F0AE809BF800207E
:10DCA000674F002A00F09680664BDFF89C81DFF812
:10DCB0009C91DFF89CA10493664B0393664B0293FF
:10DCC000664B0593664A5C4852F82410019104F0B3
:10DCD000E7F802460199C2F1F202574804F00EF942
:10DCE0003278002A40F0CC809BF80030002B40F0C6
:10DCF000E3803B78002B40F0FA8098F80030002B4E
:10DD000040F0118199F80030002B40F028819AF8FA
:10DD10000030002B40F03F81049B1B78002B40F02B
:10DD20005681039B1B78002B40F06D81029B1B7872
:10DD3000002B40F08481059B1B78002B61D13E486D
:10DD400004F0AEF8034600212E26023BDBB2EA18AF
:10DD5000EE543948517004F0A3F802464149364860
:10DD6000C2F1F30204F0CAF83F4E404F3378002B63
:10DD700044D13B78DFF8F8803BB33E4B2E4853F854
:10DD8000249004F08DF8024649462B48C2F1F30274
:10DD900004F0B4F83378002B40F099813B78002BE5
:10DDA00040F07D8198F80030002B40F060812248DF
:10DDB00004F076F82E2100220238C0B22B18295424
:10DDC0005A701D4807B0BDE8F08F98F80030002B5E
:10DDD000F7D0D2E73A78DFF87080002A40F08F81E0
:10DDE00098F80020DFF86490002A00F08F81154B2E
:10DDF000DFF85CA004935FE7114F55E7DFF8708010
:10DE0000BBE71D4B0C4853F8246004F049F8024668
:10DE10003146C2F1F302084804F070F8064804F0F5
:10DE20003FF802461549C2F1F302034804F066F8D0
:10DE300085E700BF1B3F0820C03D0820313F082078
:10DE4000B03D0820A23D08201C3F0820A13D08202D
:10DE5000A03D0820AB3D0820BE3D08201E3F082005
:10DE6000D8CE090084B60900193F0820B33D082028
:10DE7000BD3D082024CF0900C4CC090084B50900A9
:10DE8000B74AB84852F8246004F00AF8024631460E
:10DE9000C2F1F302B34804F031F8B24804F000F8DC
:10DEA0000246B149AF48C2F1F30204F027F89BF8EB
:10DEB0000030002B3FF41DAFAC4BAA4853F8246050
:10DEC00003F0EEFF02463146C2F1F302A54804F02A
:10DED00015F8A44803F0E4FF0246A349A148C2F1A3
:10DEE000F30204F00BF83B78002B3FF406AFA04B95
:10DEF0009C4853F8246003F0D3FF02463146C2F138
:10DF0000F302984803F0FAFF964803F0C9FF02466F
:10DF100095499448C2F1F30203F0F0FF98F80030FD
:10DF2000002B3FF4EFAE934B8E4853F8246003F080
:10DF3000B7FF02463146C2F1F3028A4803F0DEFF22
:10DF4000884803F0ADFF024687498648C2F1F302D4
:10DF500003F0D4FF99F80030002B3FF4D8AE864B85
:10DF6000804853F8246003F09BFF02463146C2F11B
:10DF7000F3027C4803F0C2FF7A4803F091FF0246A7
:10DF800079497848C2F1F30203F0B8FF9AF80030FB
:10DF9000002B3FF4C1AE794B724853F8246003F074
:10DFA0007FFF02463146C2F1F3026E4803F0A6FF3E
:10DFB0006C4803F075FF02466B496A48C2F1F302F0
:10DFC00003F09CFF049B1B78002B3FF4AAAE6C4B24
:10DFD000644853F8246003F063FF02463146C2F1FF
:10DFE000F302604803F08AFF5E4803F059FF0246DF
:10DFF0005D495C48C2F1F30203F080FF039B1B788C
:10E00000002B3FF493AE5F4B564853F8246003F067
:10E0100047FF02463146C2F1F302524803F06EFF59
:10E02000504803F03DFF02464F494E48C2F1F3020B
:10E0300003F064FF029B1B78002B3FF47CAE524B35
:10E04000484853F8246003F02BFF02463146C2F1E2
:10E05000F302444803F052FF424803F021FF024616
:10E060004149C2F1F3023F4803F048FF63E6474BE2
:10E070003C4853F8244003F013FF02462146C2F106
:10E08000F302384803F03AFF364803F009FF02462E
:10E090003549C2F1F302334803F030FF87E63C4BC9
:10E0A000304853F8246003F0FBFE02463146C2F1CB
:10E0B000F3022C4803F022FF2A4803F0F1FE024647
:10E0C0002949C2F1F302274803F018FF6AE6314BF1
:10E0D000244853F8246003F0E3FE02463146C2F1BF
:10E0E000F302204803F00AFF1E4803F0D9FE02465F
:10E0F0001D49C2F1F3021B4803F000FF4EE6264B18
:10E10000DFF89890DFF898A00493D5E599F80020FF
:10E11000DFF88CA07AB9204B9AF800200493002AEB
:10E120007FF4CAAD1A781F4B03933AB11E4B02938A
:10E130001E4B0593C6E5184B0493BDE51A781A4BA0
:10E14000029312B1194B0593BCE51A78174B05934E
:10E15000002A7FF4B7AD1A78002A3FF405AEB1E586
:10E160002CCC0900C03D082084B509008CCE0900E4
:10E1700080C9090078CC0900B8C709006CC709003C
:10E1800004C8090050C8090094CB090048CB090015
:10E1900064CA0900E0CB0900A23D0820A13D082087
:10E1A000A03D0820AB3D0820BE3D08201E3F0820B2
:10E1B000332330B5144A85B01278ADF804308DF8A9
:10E1C0000620FFF731FC0290FFF758FD0546029844
:10E1D00003F066FE0446284603F062FEC4F1F30431
:10E1E000E4B2A04207D92E222B1903F8012C03F820
:10E1F000022C03F8032C002301A82B550395FDF7EF
:10E20000BBF905B030BD00BFBF3D082010B50446C6
:10E210000021144A00F03EFD20460121124A00F080
:10E2200039FD20460221114A00F034FD2046032129
:10E230000F4A00F02FFD204604210E4A00F02AFD6F
:10E24000204605210C4A00F025FD204606210B4AF8
:10E2500000F020FD2046BDE810400721084A00F0EC
:10E2600019BD00BFD5C90800A1C2080031C9080006
:10E27000DDC80800D9CF080089C8080035C80800E3
:10E2800045CB080010B5044600211F4A00F002FDEE
:10E29000012120461D4A00F0FDFC022120461C4AB7
:10E2A00000F0F8FC032120461A4A00F0F3FC042198
:10E2B0002046194A00F0EEFC05212046174A00F0DE
:10E2C000E9FC174B1B7833B9164B1B7863B9164B17
:10E2D0001B7893B910BD154B0521186800F0D0FCD0
:10E2E000104B1B78002BF2D0104B0421186800F063
:10E2F000C7FC0D4B1B78002BECD0BDE810400B4B3E
:10E300000321186800F0BCBC11CA080051C4080001
:10E31000A9CB0800F5C3080099C3080059C3080039
:10E32000AA3D0820BC3D0820A83D0820943D0820B7
:10E3300010B504460021114A00F0ACFC0121204632
:10E340000F4A00F0A7FC022120460E4A00F0A2FC72
:10E35000032120460C4A00F09DFC042120460B4A74
:10E3600000F098FC0A4B1B7803B910BD094B032140
:10E37000BDE81040186800F083BC00BF4DCA08001B
:10E3800049C5080009C50800C9C408008DC40800B3
:10E390002C3F08208C3D082038B52C202649F5F765
:10E3A000C9FC264C2C202649F5F7C4FC0A20254937
:10E3B000F5F7C0FC21460020F5F7BCFC224D2146B4
:10E3C0000120F5F7B7FC21460720F5F7B3FC2946F5
:10E3D0000F20F5F7AFFC29460720F5F7ABFC072027
:10E3E0001A49F5F7A7FC1A491E20F5F7A3FC00F01F
:10E3F0003FFC184B1860FFF79BFF00F039FC164BF1
:10E400001860FFF73FFF00F033FC144B1860FFF774
:10E41000FDFE00F02DFC124B186000F021FB00F017
:10E4200027FC104B1860FFF753FA00F011FCBDE811
:10E43000384000F0DFBC00BF45D4080089CA08009E
:10E4400059D008008DCE0800F5CA080001CC08009C
:10E4500031CC08008C3D0820943D0820903D0820D8
:10E460009C3D0820983D082070B584B00E460546B6
:10E47000FDF7A0F80446FBF789FF094B014603931B
:10E48000084B284653F824300025032402933246D3
:10E490000A230195009400F075FF04B070BD00BF21
:10E4A00090DE090094DE0900F0B585B00E46054601
:10E4B000FDF780F80446FDF77DF807460020FBF7DE
:10E4C000A3FC00F0FD0001280CBF0B4B0B4B53F8D5
:10E4D0002770FBF75BFF0A4B014653F824302846B0
:10E4E00003240025029332460923CDE90045039712
:10E4F00000F048FF05B0F0BDA8E00900ECE309001A
:10E5000084E40900F0B585B00E460546FDF752F8E3
:10E510000446FDF74FF807460020FBF775FC01386D
:10E52000012894BF0B4B0C4B53F82770FBF72EFFC1
:10E530000A4B014653F82430284603240025029351
:10E5400032460823CDE90045039700F01BFF05B0D4
:10E55000F0BD00BFD0E409002CDF0900E4DB0900B6
:10E56000F0B585B00F460646FDF724F80446FDF7E2
:10E5700021F8054601F04CFF0B2849D8DFE800F0F0
:10E580001C2024282C3034383C404406214B53F8BE
:10E590002550FBF7FBFE204B039553F82430002554
:10E5A0000324014602933A4630460623CDE900454E
:10E5B00000F0E8FE05B0F0BD184B53F82550E8E731
:10E5C000174B53F82550E4E7164B53F82550E0E776
:10E5D000154B53F82550DCE7144B53F82550D8E77A
:10E5E000134B53F82550D4E7124B53F82550D0E77E
:10E5F000114B53F82550CCE7104B53F82550C8E782
:10E600000F4B53F82550C4E70E4B53F82550C0E785
:10E610000D4DBEE744DE09005CE0090054E309004B
:10E62000ACDD0900E0DE090014DD090098DB09001B
:10E63000C8DC09001CE50900F8DD0900BCE209009E
:10E6400060DD090068E5090090DE0900F0B585B0DD
:10E650000E460546FCF7AEFF0446FCF7ABFF074647
:10E660000520FBF7D1FBA8B1012817D10F4B53F8B8
:10E670002770FBF78BFE0E4B0146284653F82450BB
:10E680000323002432468DE83800039700F07AFE19
:10E6900005B0F0BD074B53F82770EAE7054B0021A2
:10E6A000052053F82770FBF7B5FBE2E77CDC090097
:10E6B000A0E3090040E109002DE9F04184B00746DC
:10E6C0008846FCF777FF144B06461D78F5B9FCF732
:10E6D00071FF04460320FBF797FB01280CBF0F4B8B
:10E6E0000F4B53F82440FBF751FE039403240D4BCA
:10E6F000014653F8263042460293384601230195DD
:10E70000009400F03FFE04B0BDE8F081002103203A
:10E71000FBF780FB0125DAE73B3F0820C4DF090057
:10E7200010E0090078DF09002DE9F04385B0884644
:10E730000746FCF73FFF05460820FBF765FB114B3A
:10E74000114A1E78044652F825901EB9012815D0AA
:10E75000344601E000240126FBF718FECDE90294BF
:10E760000A4C014654F82540072342463846009695
:10E77000019400F0ABFE05B0BDE8F083044B53F804
:10E780002590E9E73C3F0820D8E1090008E30900AB
:10E7900070E209002DE9F04186B00F460646FCF70D
:10E7A00009FF05460720FBF72FFB80460520FBF7F6
:10E7B0002BFB0446FBF7EAFD013C18BF0124009443
:10E7C00000243C2304940A4C014654F82540059348
:10E7D0000294084C3A4654F8254030460523CDF8BB
:10E7E0000C80019400F0BAFF06B0BDE8F08100BFD4
:10E7F00038E409008CE109002DE9F04186B00F46AC
:10E800000646FCF7D7FE05460620FBF7FDFA8046D4
:10E810000520FBF7F9FA0446FBF7B8FD013C18BFE9
:10E820000124009400243C2304940A4C014654F82B
:10E83000254005930294084C3A4654F8254030464A
:10E840000423CDF80C80019400F088FF06B0BDE8E9
:10E85000F08100BF38E4090024E20900F0B587B078
:10E860000F460646FCF7A6FE04460420FBF7CCFA4A
:10E870000546FBF78BFD0B4B039553F824301E2503
:10E880000293094B014653F824403A460194002470
:10E8900030460223CDE90445009400F05FFF07B045
:10E8A000F0BD00BFF4E0090030DC090070B582B0B3
:10E8B0000646FCF77FFE0546FBF772FD084B044653
:10E8C000186800F02DFA074B024653F82510304621
:10E8D00000911023214600F0D7FC02B070BD00BFAC
:10E8E000343F0820A882072000B587B090B11028D7
:10E8F0001AD007B05DF804FB0020FBF785FA431E31
:10E90000DBB2032B73D8424AD15C0020FBF782FABA
:10E9100001F020FF3F4B186800F054FA102007B0B8
:10E920005DF804EB00F042B9531E092B16D801A183
:10E9300051F823F063E908005DE908007DE908006B
:10E940005DE908005DE9080089E90800ADE9080013
:10E95000F9E80800C5E90800D9E908002E4B1A704B
:10E96000D8E70320FBF750FA014603200131C9B272
:10E97000022908BF0021FBF74DFACBE70520FBF782
:10E9800043FA01460520F1E701F042FD0346013359
:10E99000DBB20C2B4FF0030228BF002368468DF832
:10E9A00000208DF8083001F07FFDB3E70820FBF769
:10E9B0002BFA014601394FF0080018BF0121FBF77F
:10E9C00029FAA7E70020FBF71FFA431EDBB2032B4F
:10E9D00015D8124AD15C98E70121114B114A002049
:10E9E000F5F7FEFAFBF72EFAFAF722FE92E701217D
:10E9F00000200D4B0D4AF5F7F3FA032185E70121BD
:10EA000000200B4B094AF5F7EBFA03217DE700BF25
:10EA100044DB0900343F0820393F082048DB090067
:10EA20004CDB0900F89A090080DB090084D1090059
:10EA300064DB0900094B01461B78042B04D0052B2D
:10EA400008D0022B03D070470620FBF7E3B904205F
:10EA5000FBF7E0B90720FBF7DDB900BF393F08201D
:10EA600010B5414C0021414A206000F013F901210A
:10EA70003F4A206800F00EF902213E4A206800F06B
:10EA800009F903213C4A206800F004F904213B4ABB
:10EA9000206800F0FFF80521394A206800F0FAF8F4
:10EAA0000621384A206800F0F5F80721364A206828
:10EAB00000F0F0F80821354A206800F0EBF8092151
:10EAC000334A206800F0E6F80A21324A206800F054
:10EAD000E1F8314B1B786BB9304B1B7893B9304B55
:10EAE0001B78BBB92F4B1B7823BB2F4B1B78002BFC
:10EAF0002CD110BD0721206800F0C2F8274B1B78ED
:10EB0000002BECD00121206800F0BAF8244B1B78D0
:10EB1000002BE7D00321206800F0B2F80421206820
:10EB200000F0AEF80521206800F0AAF81D4B1B7814
:10EB3000002BDAD00121206800F0A2F80221206821
:10EB400000F09EF8184B1B78002BD2D020680621CD
:10EB500000F096F82068082100F092F8206809215A
:10EB6000BDE8104000F08CB8343F0820ADE8080044
:10EB7000B9E608005DE808004DE60800F9E708007E
:10EB800095E7080061E5080029E7080005E50800A9
:10EB9000A9E4080069E408003C3F08203B3F082046
:10EBA0003D3F08203A3F0820383F08200D490E4AD3
:10EBB000B1F9003002EB030C1CF801CC84450AD0FB
:10EBC000092BD05402DC01330B8070470021074A27
:10EBD0000846F5F705BA23B9013382F800C00B8067
:10EBE000704770473E3F0820F8820720B4E50900CF
:10EBF000054AB2F90030002B02DD013B1BB2138045
:10EC0000FF21024AD15470473E3F0820F882072076
:10EC1000054BB3F90030002B04DD044A013B1BB265
:10EC2000D05C7047FF2070473E3F0820F8820720E5
:10EC3000FF21054B03F10A0203F8011B9342FBD1AC
:10EC40000022024B1A807047F88207203E3F0820BE
:10EC5000FF21054B03F10A0203F8011B9342FBD18C
:10EC60000022024B1A807047F88207203E3F08209E
:10EC70008C21012002F04EBC08B100238360704754
:10EC800030B10122036802FA01F123EA01030360B3
:10EC9000704700BF10B470B120290ED8012300EBDB
:10ECA000810C4468CCF80C20026803FA01F10C4393
:10ECB0001143C0E9001410BC70470021024A084605
:10ECC00010BCF5F78DB900BFDCE5090038B5044686
:10ECD0008068E0B14FF0010C656800EB0C0204F1B4
:10ECE000080E511E0CFA01F10D4207D0236819429B
:10ECF00004D05EF82200A26008B138BDA2601F2ACD
:10ED000002F1010301D81A46EBE7002038BD234683
:10ED10000121024AF5F764F9A068DBE7F4E5090090
:10ED2000012330B586469C460020DEF804100EF123
:10ED30000C050CFA03F2114208D0DEF80040224222
:10ED400004D055F82320441C02B1E0B20133202B3B
:10ED5000EFD130BD10B50A4C8AB0236873B12B22B5
:10ED6000684601938DF80020F5F71EF86846F5F720
:10ED70001BF800232168034A236011600AB010BD0C
:10ED8000443F0820403F082030B583B0FCF760FACC
:10ED9000094A0A4B126805241A60FCF759FA084B15
:10EDA0001D68F1F763FF0023024601212846009405
:10EDB000F2F79AFD03B030BD403F0820443F0820E1
:10EDC000483F082030B5094B83B01860FCF740FA83
:10EDD000074B05241D68F1F749FF00230246012176
:10EDE00028460094F2F780FD03B030BD443F082070
:10EDF000483F0820002300B5064A83B000924FF434
:10EE0000FA711A460448F2F74BFD044B186003B040
:10EE10005DF804FB55ED080000E60900483F0820B6
:10EE200003781B2B02D1024B42681A60704700BF67
:10EE3000503F08200378072B00D07047034A13780F
:10EE4000002BFAD0013B1370704700BF02830720EC
:10EE500038B503780446102B00D038BD8378012BD9
:10EE600016D01BB90E4B1B78002BF6D10D4D6278D6
:10EE70002B789A4201D12B7038BD01210A4A00201B
:10EE8000F5F7AEF80948FCF7A9FA63782B70F3E7B9
:10EE9000034A044D137062782B789A42EBD0ECE76A
:10EEA0004C3F08200383072008E6090035F00800DE
:10EEB00038B503780446172B00D038BD084D42788A
:10EEC0002B789A4201D12B7038BD0121054A0020D0
:10EED000F5F786F80448FCF781FA63782B70F3E7BE
:10EEE0000683072020E6090035F0080038B50378CE
:10EEF0000446162B00D038BD084D42782B789A4234
:10EF000001D12B7038BD0121054A0020F5F768F8C2
:10EF10000448FCF763FA63782B70F3E70583072056
:10EF200034E6090035F0080038B503780446132BA1
:10EF300000D038BD0E4D42782B789A4208D12B7004
:10EF4000FAF782FB0028F4D00A220A4B1A7038BD67
:10EF50000121094A0020F5F743F80848FCF73EFA7A
:10EF600063782B70FAF770FB0028E2D0ECE700BF63
:10EF7000048307200283072048E6090035F00800D3
:10EF800000234FF0FF0C10B500F2071280F8093192
:10EF9000431E03F801CF9342FBD1C724C8224FF090
:10EFA000100C002304701F4C42701F4A80F803C0ED
:10EFB00094F800C012789C4580F80A3180F80B3133
:10EFC000037112BF4FF0020C4FF0630C612381708C
:10EFD0000AB943F0060C154B1B780BB94CF0080C22
:10EFE000134A01F1150312686344C2F307210B446D
:10EFF000D2B213442033DB434FF0000E027280F88C
:10F0000006C020224FF0050CC1710C21C37280F89C
:10F0100005C080F809E0827280F80811FCF7FCFD59
:10F02000012010BD048307200683072003830720E7
:10F03000503F082010B5074B1C781CB1BDE81040AC
:10F04000FFF79EBFF4F7ACFF0120F9F7C9FC20469B
:10F0500010BD00BF0283072010B5074B1C781CB100
:10F06000BDE81040FFF78CBFF4F79AFF0120F9F7D5
:10F07000B7FC204610BD00BF0283072008B513204F
:10F080000C49F4F757FE10200B49F4F753FE1720F4
:10F090000A49F4F74FFE16200949F4F74BFE1B20EE
:10F0A0000849F4F747FEBDE8084007200649F4F791
:10F0B00041BE00BF29EF080051EE0800B1EE080084
:10F0C000EDEE080021EE080035EE0800044A034684
:10F0D0001178814200D1704702481370FCF77EB965
:10F0E000543F082059F1080000234FF0FF0C10B5E1
:10F0F00000F2071280F80931431E03F801CF934252
:10F10000FBD1144B002293F800C04FF0C70E0CEB5C
:10F1100001031D3380F807C0DB434FF0C80C81703A
:10F1200043720A21032380F801C002244FF0180C17
:10F13000047280F80A2180F80B2180F800E0027147
:10F14000827180F8081180F803C04371FCF764FDF8
:10F15000012010BD543F0820FFF7C6BF00234FF029
:10F16000FF0C10B580F8093100F2071E431E03F8AA
:10F1700001CF9E45FBD1817001F12703C7210170AA
:10F18000C821417019214FF0000EC1700E2180F886
:10F190000BE180F804E041711178DBB281715478A1
:10F1A00080F80AE1C47194780472D47880F80AE097
:10F1B0004472547980F80CE0C472127A80F80EC060
:10F1C000427380F80FC080F810C080F811C080F83A
:10F1D00012E080F813E0821D00F1130C01E012F838
:10F1E000011F0B446245DBB2F9D1DB4315210375E6
:10F1F00080F80811FCF710FD012010BD002310B5A8
:10F200004FF0FF0E80F8093100F2071C431E03F88F
:10F2100001EF6345FBD1C724817004704FF0000CEF
:10F220001A2401F12203C8214FF0080E417080F822
:10F230000BC180F804C0C47080F80AC15478DBB2F6
:10F2400084719478811DC471D47800F10E0C04721D
:10F2500014794472547984729479C472D4790473A1
:10F26000127A80F805E0427311F8012B13446145CE
:10F27000DBB2F9D1DB430F21837380F80811FCF76F
:10F28000CBFC012010BD00BF4FF0000C70B5FF2477
:10F290000546049E80F809C100F2071E00F1FF3CFC
:10F2A0000CF8014FE645FBD12A71AA71EB710822D7
:10F2B0000023A97085F808213021C72285F80A317A
:10F2C00085F80B316B71C8233046E9702A706B707A
:10F2D00002F0E6FD10F0FF004ED095F80831721EE6
:10F2E0001844C0B212F8014F591CEC54CBB28342FF
:10F2F00085F80831F6D10026431FDBB2411CC9B2A4
:10F300009C1D8C422E541A4685F808116B7118D03A
:10F3100007328A4210D095F80A310BB103290BD875
:10F320000021174A0846F4F75BFE284695F80811B5
:10F33000FCF772FC002070BD2846FCF76DFC012034
:10F3400070BDEC78AA785E1D22442C7922441A44C0
:10F35000D2B24BB106231C462C5D01339BB2224432
:10F360009E421C46D2B2F7DAD24302306A54C1B28E
:10F370006A7985F80811CBE795F80801BBE700BF6B
:10F380008CB009004FF0000C2DE9F843FF24DDE9B3
:10F390000A7605469DF820909DF8248080F809C1E2
:10F3A00000F2071E00F1FF3C0CF8014FE645FBD1CF
:10F3B0002A71EB7109220023A97085F80A31C7214F
:10F3C00085F80B316B7185F80821CA233022384645
:10F3D00085F8069085F808802970EA706B7002F055
:10F3E0005FFD10F0FF0069D095F808317A1E1844CF
:10F3F000C1B212F8014F581CEC54C3B28B4285F8CD
:10F400000831F6D100224B1C6A54304685F8083189
:10F4100002F046FD10F0FF0053D095F80831721E3F
:10F420001844C0B212F8014F591CEC54CBB28342BD
:10F4300085F80831F6D10026431FDBB2411CC9B262
:10F440009C1D8C422E541A4685F808116B711AD0F7
:10F4500007328A4211D095F80A310BB103290CD832
:10F460000021194A0846F4F7BBFD284695F8081113
:10F47000FCF7D2FB0020BDE8F8832846FCF7CCFB64
:10F480000120BDE8F883EC78AA785E1D22442C792F
:10F4900022441A44D2B24BB106231C462C5D0133E0
:10F4A0009BB22244B3421C46D2B2F7DDD2430230B3
:10F4B0006A54C1B26A7985F80811C9E795F808114C
:10F4C000A0E795F80801B6E78CB009004FF0000CF2
:10F4D0002DE9F843FF24DDE9098705469DF82090D2
:10F4E0009DF82C6080F809C100F2071E00F1FF3C76
:10F4F0000CF8014FE645FBD1EB71002385F80A318A
:10F5000085F80B316B71CA236B703023A9702A7197
:10F51000C7210922EB700423404685F80890297022
:10F5200085F80821AB7102F0BBFC10F0FF0074D02D
:10F5300095F8083108F1FF321844C1B212F8014FB2
:10F54000581CEC54C3B28B4285F80831F6D1002226
:10F550004B1C6A54384685F8083102F0A1FC10F0C3
:10F56000FF005DD095F80831791E1844C2B211F839
:10F57000014F581CEC54C3B2934285F80831F6D1C0
:10F580004FF0000CD31EDBB2D11CC9B2571C941C27
:10F5900003F1060EFFB2E4B28E4505F802C018462C
:10F5A00005F807C02E5585F808116B711AD0073081
:10F5B000884211D095F80A310BB103290CD80021EB
:10F5C000194A0846F4F70CFD284695F80811FCF78F
:10F5D00023FB0020BDE8F8832846FCF71DFB012033
:10F5E000BDE8F883EC78A8785E1D20442C7920448F
:10F5F0001844C0B24BB106231C462C5D01339BB2AC
:10F600002044B3421C46C0B2F7DDC0430432685404
:10F61000D1B2687985F80811C9E795F8081196E71D
:10F6200095F80821ACE700BF8CB009004FF0000C42
:10F630002DE9F041FF2405469DF81880079E9DF8AE
:10F64000207080F809C100F2071E00F1FF3C0CF8A1
:10F65000014FE645FBD1EB7100232A7185F80A3191
:10F66000092285F80B316B710523A97085F80821F3
:10F67000C721CA22AB713023304685F80880297033
:10F680006A70EB7002F00CFC10F0FF0060D095F88F
:10F690000831711E1844C2B211F8014F581CEC54C5
:10F6A000C3B2934285F80831F6D14FF0000C931E97
:10F6B000DBB2111DC9B202F1010E961CD41C03F17C
:10F6C00006085FFA8EFEF6B2E4B2884505F802C07D
:10F6D000184605F80EC005F806C02F5585F8081124
:10F6E0006B711AD00730884211D095F80A310BB1EE
:10F6F00003290CD80021184A0846F4F771FC284663
:10F7000095F80811FCF788FA0020BDE8F08128463A
:10F71000FCF782FA0120BDE8F081EC78A8785E1D44
:10F7200020442C7920441844C0B24BB106231C4617
:10F730002C5D01339BB220449E421C46C0B2F7DAD6
:10F74000C04305326854D1B2687985F80811C9E719
:10F7500095F80821A9E700BF8CB009004FF0000C14
:10F760002DE9F84FFF24DDE90B6582469DF828B0AE
:10F770009DF834709DF838909DF83C8080F809C160
:10F7800000F2071E00F1FF3C0CF8014FE645FBD1EB
:10F790008AF8073000238AF80A318AF80B318AF890
:10F7A0000530CA238AF8013030238AF80330062353
:10F7B0008AF804208AF80630C722092330468AF8DE
:10F7C00002108AF808B08AF800208AF8083102F09E
:10F7D00067FB10F0FF0000F08D809AF80831013EC1
:10F7E0001844C2B216F8010F591C0AF80300CBB234
:10F7F00093428AF80831F5D100230AF80230013229
:10F8000028468AF8082102F04BFB10F0FF0074D064
:10F810009AF80831013D1844C2B215F8010F591C7D
:10F820000AF80300CBB293428AF80831F5D10021DF
:10F83000531C02F1020CD61C151D541DDBB2E4B2A0
:10F840005FFA8CFCF6B2EDB20AF802100AF8031067
:10F850000AF80C900AF806100AF805800AF8041055
:10F86000D11DC9B2901D9C1DC0B28C420AF8007017
:10F8700018468AF808118AF805301AD007308842ED
:10F8800011D09AF80A310BB103290CD800211C4A77
:10F890000846F4F7A5FB50469AF80811FCF7BCF9A6
:10F8A0000020BDE8F88F5046FCF7B6F90120BDE80E
:10F8B000F88F9AF803409AF802005D1D20449AF8E8
:10F8C000044020441844C0B253B106231C461AF821
:10F8D000044001339BB220449D421C46C0B2F6DA7C
:10F8E000C04308320AF80100D1B29AF805008AF83C
:10F8F0000811C3E79AF808217EE79AF8082196E7ED
:10F900008CB0090010B5847A82B004F5FA64437AA9
:10F91000027AC17980790094FCF754FA02B010BDE4
:10F92000014B1878704700BF553F082038B58379E0
:10F93000044603B138BD0121064D074B0220074A9A
:10F940002970F4F74DFB217AE079BDE83840FCF7E7
:10F950001BBA00BF553F082078E6090060E60900A1
:10F9600010B50446074AA37901210020F4F738FBBB
:10F97000A379BDE810401A2B96BF034A0120D05C42
:10F98000FCF712BA8CE60900A0E6090010B5427B2C
:10F99000037B84B0C47A817ACDE90232437A027A59
:10F9A000CDE900148179C079FBF736FD04B010BDB4
:10F9B00010B5044601210020054AF4F711FBA37994
:10F9C000022B00D010BDE079BDE81040FBF762BD0E
:10F9D000BCE60900252300B58BB08DF8003000F19E
:10F9E000240110F8063F0DF101028DF8013000E00E
:10F9F0008BB110F8013F884202F8013FF8D1002195
:10FA0000084A0846F4F7ECFA2E2242F62E638DF8E7
:10FA10001D20ADF81E306846F4F7C6F90BB05DF84E
:10FA200004FB00BFC4E609008379027AC17903F0C0
:10FA30000F00FBF715BD00BF262300B58BB08DF876
:10FA40000030837900F125018DF8013010F8073F6F
:10FA50000DF102028DF8023000E0A3B110F8013F71
:10FA6000884202F8013FF8D100210A4A0846F4F71B
:10FA7000B7FA2E2142F62E6200238DF81D10ADF844
:10FA80001E208DF820306846F4F78EF90BB05DF833
:10FA900004FB00BFC4E60900704700BF70B505460F
:10FAA000012100201E4A8AB0F4F79AFA95F808312D
:10FAB00073B1002423461B4E0121EB5C324600202B
:10FAC000F4F78EFA013495F80811E3B29942F3D8AD
:10FAD00001210020144AF4F783FAA87968B9E9797A
:10FAE0002A7A11B982B1012A04D00AB0BDE8704067
:10FAF000FBF70ABDFFF77CF8A879E9792A7A0AB002
:10FB0000BDE87040FBF700BDFFF772F8352368468B
:10FB10008DF80030F4F748F9A879E9792A7AE4E712
:10FB2000E4E6090078B309006C9A090070B505464F
:10FB3000012100200F4AF4F753FA95F8083173B108
:10FB4000002423460C4E0121EB5C32460020F4F7E2
:10FB500047FA013495F80811E3B29942F3D801212C
:10FB60000020064AF4F73CFAE979A879BDE870402C
:10FB7000FBF7E8BCE4E6090078B309006C9A0900D9
:10FB8000014B1860704700BF583F082030B4074C45
:10FB90009DF8085024681CB1A446029530BC60470B
:10FBA0002146204630BC024AF4F71ABA583F0820D2
:10FBB000F0E60900064B187018B9064B588018700B
:10FBC00070470222034B400058801A70704700BFF4
:10FBD0005D3F0820603F0820014B187000F002B81C
:10FBE0005C3F08204FF48042024B08B11A63704713
:10FBF0005A637047000E0E402DE9F041DFF8848013
:10FC000098F80030022B12D801211F4A0020F4F787
:10FC1000E7F9002398F800201C49013288F80020F9
:10FC200008681A46BDE8F0411946F2F7E9B9184DDF
:10FC300001210020174AF4F7D3F92B7873B100247F
:10FC40002346154F154E0121FB5C32460020F4F788
:10FC5000C7F901342978E3B29942F4D80121104A56
:10FC60000020F4F7BDF9F0F7D3FD002301210D4882
:10FC70000D4A037088F80030BDE8F0411170F0F7CC
:10FC8000D7BD00BFD03F0820B0AD0900643F0820B9
:10FC9000EC400820BCAD09002440082034AD090028
:10FCA0006C9A0900783F082007830720F0B5264D9D
:10FCB000264E297883B049B10139C9B2721C0A4471
:10FCC0003346002103F8011B9342FBD1002040F290
:10FCD0009F211F4A032392F844C00446176C86F8FC
:10FCE00002C02870318007E01A460130C4B2531CAC
:10FCF000A445B154DBB207D3395D9F29F4D1F15447
:10FD00000133395DDAB2F0E703204FF09F0C911C0C
:10FD10000244D4B20F4AC9B206F803C0176870543F
:10FD2000F0F7A4FF00230246009338460121F1F7C3
:10FD3000DBFD2246084B054918682C70C36803B0E8
:10FD4000BDE8F040184700BFEC40082024400820E0
:10FD5000D43F0820743F08206C3F08202DE9F04F65
:10FD6000A34E4E2230684FF4E13143698DB098477D
:10FD700000274FF00109DFF87CA29F4D0AF13F0BED
:10FD800005F13F049D4B00211868F2F7A3FB804664
:10FD9000002840F066819A4B1B78002B40F08A8146
:10FDA0003368012298690DF117010A23F7F748FA21
:10FDB000002800F0358195F846209DF817300AB3E9
:10FDC000022B85F8467000F0F480032B3AD0062B06
:10FDD00000F00481152B00F006819F2B14D0FF2228
:10FDE000884B2B64013B03F8012F9C42FBD140F26E
:10FDF0009F23A5F8442085F84770AF6485F84C70C0
:10FE00002B80CDE79F2B13D095F84420A2F13E0123
:10FE1000C9B2C02907D995F8491061B195F84510C4
:10FE200049B985F8453095F84830002BB8D00FE037
:10FE300085F84690F7E7296C0132D2B285F8442064
:10FE40008B54F0E795F84930002BECD085F84890BA
:10FE500095F84730002B40F007812A6C95F845E073
:10FE600092F8008095F844C013468EEA080802F123
:10FE7000400002EB0C0105E013F8012F834288EAF1
:10FE8000020801D08B42F7D1E6454FF008023368F3
:10FE900040F0DC80B8F1000F40F0D8805A490DF1F5
:10FEA000180C03C98CE8030018466146DB689847C4
:10FEB00095F8483093B12A6C1378591E16290DD83D
:10FEC000DFE801F0730C6F420C0C0C0C0C0C0C0CEA
:10FED0000C0C0C0C0C0C0C0C0C6842004B4A012155
:10FEE0000020F4F77DF895F845300121FF2B0CBF79
:10FEF0000322DA1C039295F8482008BF00230092E1
:10FF00000020434AF4F76CF80023424AEB5C0121DD
:10FF10000020F4F765F808F10108039A5FFA88F801
:10FF2000424543463B4AF1DA012100203A4AF4F7C0
:10FF300057F8FF22334B85F846702B64013B03F8DA
:10FF4000012FA342FBD152E7D2F80120039295F88A
:10FF500044208AB12F4A03E02B6C2E4A13F8083054
:10FF600001210020F4F73CF808F1010895F844302D
:10FF70005FFA88F84345EFD801210020264AF4F7BC
:10FF80002FF8039B002BD4D02A6C9179507907323B
:10FF90009847CEE75078003818BF012000F08EFA5D
:10FFA000C7E753781D4A1370C3E7507800F09CFAF6
:10FFB000BFE7FF22134B2B64013B03F8012F9C4248
:10FFC000FBD140F29F232B804FF48073A5F844208F
:10FFD00085F8477085F84C70AB64E1E685F84A9087
:10FFE00085F847901FE785F84B9085F847901AE70A
:10FFF0006C3F0820D43F08207C3F0820643F082045
:0200000290006C
:10000000078307207E3F082098AD090084AD0900D2
:1000100018E7090034AD09006C9A0900713F082007
:10002000C54A92F8008008F101031370B8F1000F7F
:100030007FF4A8AEF1F7DAF863283FF6A3AE4046A6
:100040000121BE4BBE4AF3F7CBFF9BE6BD490DF144
:10005000180C03C98CE8030018466146DB68984712
:1000600067E7FFF723FE9BE60A220023B6480092CB
:1000700003211A460068F1F737FC95F84B80B8F178
:10008000000F00F09080B14A012113789046032BB5
:100090005ED8AF4A0020F3F7A3FF0023AD4A19460C
:1000A00010681A46F1F7ACFF98F80030013388F871
:1000B00000303EE7A84B024606A91868F2F744F95B
:1000C00000283FF46DAEFF22A44B8AF84680CAF8A0
:1000D0004030013B03F8012F9B45FBD140F29F23A9
:1000E000AAF800304FF48073AAF844309DF8183015
:1000F0008AF84770CAF848708AF84C708AF802305B
:10010000182B1AD8DFE813F05E01190019003A0124
:10011000E100B700190019001900190019001900B1
:100120001900190019001900190019001900190007
:1001300019001900190081005D0083F001038AF89D
:1001400003308AF84490FFF7B1FD854B1F7027E616
:100150000020844AF3F744FF834B1B7893B14FF0A0
:1001600000084346814A82490020CB5C0121F3F715
:1001700037FF7D4B08F1010819785FFA88F399423F
:100180007A4AF0D801217B4A0020F3F729FFF0F7E3
:100190003FFB794B1F706D4B1F70714B83F80090C4
:1001A000F0F746FBC5E6F0F733FB734B83F80080AE
:1001B000664B83F800806A4B83F80090F0F738FBB9
:1001C000B7E640F20122AAF8442002229DF820005E
:1001D0008AF804208AF80300002101225F4802E027
:1001E000DAF84000435C013210F802C0013183EAC2
:1001F0000C0383549AF84420C9B28A42F0D20132E7
:100200008AF84420FFF752FD9FE740F20672AAF8F1
:10021000442007229DF8200007998AF807009DF8DE
:1002200021008AF803108AF80800080A8AF80400F6
:10023000080C090E8AF809208AF805004FF0000C16
:10024000062246488AF8061003E0DAF8400010F863
:100250000C300132815C0CF1010C4B4083549AF854
:1002600044205FFA8CFC6245EFD201328AF84420C8
:10027000FFF71CFD69E740F20232AAF8442003228E
:100280009DF820108AF805208AF803109DF82110A7
:100290004FF0000C022231488AF8041003E0DAF82B
:1002A000400010F80C300132815C0CF1010C4B4025
:1002B00083549AF844205FFA8CFC6245EFD20132F5
:1002C0008AF84420FFF7F2FC3FE740F20672AAF8F2
:1002D000442007229DF8200007998AF807009DF81E
:1002E00021008AF803108AF80800080A8AF8040036
:1002F000080C090E8AF809208AF805004FF0000C56
:10030000062216488AF8061003E0DAF8400010F8D2
:100310000C300132815C0CF1010C4B4083549AF893
:1003200044205FFA8CFC6245EFD201328AF8442007
:10033000FFF7BCFC09E700BF703F082034E7090065
:10034000B89A0900A4AD0900743F0820783F08203E
:100350003CAD0900643F0820CC3F0820D63F082070
:100360000783072044AD0900EC40082034AD0900A4
:10037000244008206C9A0900D03F082040F2012256
:10038000AAF8442002229DF820008AF804208AF866
:100390000300002101221D4802E0DAF84000435C1E
:1003A000013210F802C0013183EA0C0383549AF839
:1003B0004420C9B28A42F0D201328AF84420FFF7C1
:1003C00075FCC2E640F20122AAF8442002229DF800
:1003D00020008AF804208AF80300194601220B48FD
:1003E00002E0DAF84000C15C013210F802C00133CB
:1003F00081EA0C0181549AF84420DBB29A42F0D28F
:1004000001328AF84420FFF751FC9EE6D63F0820CF
:10041000014B1878704700BF713F0820F0B5184DA8
:1004200083B02C780CB103B0F0BD0126154B164AF1
:10043000019416491A60164823464FF4C872009674
:10044000F0F7DAFA224618212820F1F7ABFD8446AE
:10045000104F114B22460093A021C7F800C023463D
:100460000E48F1F71DFA07460D4B21460322304690
:100470001F60F1F797FD0B4B2E70186003B0F0BDB5
:10048000683F08206C3F08203482072028E70900D5
:100490005DFD0800CC3F0820F9FB0800F4AD090021
:1004A000743F0820643F08200146034800230222CD
:1004B0000068F1F7A5BD00BFCC3F0820074A1070C7
:1004C00010B9074B1B7813B10120F9F7E5B8054BBC
:1004D0001B78002BF8D1F9F7DFB800BFED400820FA
:1004E000EE400820EF40082000F04403442B70B594
:1004F000044600F0F080002B00F0DC8004F077056B
:10050000032D00F08580824B1A78002A68D1814E35
:100510003378002B68D0042B00F2DB8008BF032364
:100520004FF001014FF0030008BF337000F016F9DF
:1005300001210020784AF3F753FD3378013B3370F3
:100540000021764B764A1B78117023B9754B1878C9
:10055000002800F0D4800120F9F79EF8402D01D04A
:10056000042D61D10121084600F0F8F80121002096
:100570006D4AF3F735FD302D5CD0012600210220B5
:1005800000F0ECF8694B202D1E7066D13146684AA8
:100590000020F3F725FD3146072000F0DFF80021A9
:1005A000062000F0DBF80021042000F0D7F800213D
:1005B000052000F0D3F804F08804802C19D0002125
:1005C000082000F0CBF8082C1CD101210020594A4A
:1005D000F3F706FDBDE870400121092000F0BEB828
:1005E00000224C491A700A700021032000F0B6F86E
:1005F000A6E701210020504AF3F7F2FC0121082070
:1006000000F0ACF8BDE870400021092000F0A6B869
:10061000404E01213378042B63D80020474AF3F77A
:10062000DFFC3378013333700021012000F096F8AD
:10063000302DA2D10121424A00203C4DF3F7D0FCDD
:100640000121022000F08AF82B78002B5AD10021DA
:10065000072000F083F80021A2E70021072000F026
:100660007DF8102D06D131460020364AF3F7B8FC4C
:10067000314695E70021062000F070F8022D09D1DF
:100680003146314A0020F3F7ABFC3146042000F03C
:1006900065F88CE70021042000F060F8012D86D178
:1006A00029462A4A0020F3F79BFC2946052000F042
:1006B00055F880E7194A1B4912780B702AB9184B74
:1006C000187810B9F8F7E8FF18E70120F8F7E4FF09
:1006D00014E7327034E70120124B1870F8F7DCFF92
:1006E0000CE71B4A0020F3F77BFC01200C4B187031
:1006F000F8F7D2FF0021012000F030F898E7F8F772
:10070000CBFF2BE7122000F0A1F800232B709EE70F
:10071000098307200A83072058E70900ED400820D5
:10072000EE400820EF40082060E70900088307201A
:1007300070E709009CE7090090E7090044E7090019
:1007400068E7090078E7090080E7090088E7090001
:100750004CE70900704700BF704700BFF8B5092893
:1007600040D8DFE800F00B12181E24292F34390579
:100770004FF40062324B31B11A63F8BD4FF40022DE
:100780002F4B0029F8D15A63F8BD4FF080722D4BE2
:100790000029F8D0F0E74FF48022294B0029F2D04D
:1007A000EAE74FF48072264B0029ECD0E4E7802280
:1007B000234B0029E7D0DFE74FF40052204B0029FC
:1007C000E1D0D9E740221F4B0029DCD0D4E710222A
:1007D0001C4B0029D7D0CFE74FF48062184B00297B
:1007E000D1D0C9E703460121174A0020F3F7F8FBEF
:1007F000402510234FF400044FF480004FF0807127
:10080000104A4FF4002655634FF4802E5363802521
:1008100054634FF4807750634FF4005451634FF4A6
:1008200080604FF08061064B4FF400625E635D6351
:100830005C63C3F834E05F6358635963A3E700BFA8
:1008400000100E40000E0E40A8E7090002461F23CC
:1008500000B58BB068468DF801208DF80030F3F7B5
:10086000A3FA0BB05DF804FB4FF0000CF0B5134C8D
:100870008DB00DF1040E754607460E460FCCAEE85E
:100880000F000FCCAEE80F0094E807008EE80700D9
:1008900055F8043BB6FBF3F3B3FBF7F3B3F5807FF6
:1008A00008D90CF1010CBCF10B0FF1D14FF6FF7020
:1008B0000DB0F0BD43EA0C200DB0F0BDBCE709005F
:1008C00070B50C680D46064644B120468968FFF7AE
:1008D000CBFF4FF6FF73984204460CD0686840B1D6
:1008E000A968FFF7C1FF4FF6FF72904205D044EAB6
:1008F000004434600024204670BD0446FBE700BF7E
:100900004B68F0B4D1E903768C8A0A8903F00F03AF
:1009100023438C7A8D7D134343EA4423CC7D43EA01
:1009200005430A6843EA44430C7E43EA844300EBF0
:100930004214C4F80032C4F80472C4F80C621DB149
:10094000D1F81A30C4F81832CC7F8B7F9440934092
:1009500043EA0443836491F8213091F820409340A6
:10096000944044EA03440123446491F822409340B4
:1009700034B3046A1C43046291F824404FF0FF0C26
:10098000012C846E0CBF1C439C43846691F8254067
:10099000012C846E0CBF44EA034324EA0343032A78
:1009A000836612D891F82330C46ED20093400CFABB
:1009B00002F224EA02021A43C266F0BC0020704729
:1009C000046A24EA03040462D6E791F82330043A67
:1009D000046FD20093400CFA02F224EA02021A4396
:1009E0000267F0BC00207047CB68934207D80B68C1
:1009F0000A6100EB4313C3F81022002070474FF642
:100A0000FF7070470B69934207D30B68CA6000EB15
:100A10004313C3F80822002070474FF6FF70704759
:100A200001238B404360704701238B4083607047F4
:100A300081F0004102E000BF83F0004330B54FEA8F
:100A400041044FEA430594EA050F08BF90EA020FFC
:100A50001FBF54EA000C55EA020C7FEA645C7FEA8F
:100A6000655C00F0E2804FEA5454D4EB5555B8BFB2
:100A70006D420CDD2C4480EA020281EA030382EA23
:100A8000000083EA010180EA020281EA0303362DB5
:100A900088BF30BD11F0004F4FEA01314FF4801C88
:100AA0004CEA113102D0404261EB410113F0004F9A
:100AB0004FEA03334CEA133302D0524263EB430351
:100AC00094EA050F00F0A780A4F10104D5F1200EEF
:100AD0000DDB02FA0EFC22FA05F2801841F100014A
:100AE00003FA0EF2801843FA05F359410EE0A5F11E
:100AF00020050EF1200E012A03FA0EFC28BF4CF04F
:100B0000020C43FA05F3C01851EBE37101F0004504
:100B100007D54FF0000EDCF1000C7EEB00006EEB11
:100B20000101B1F5801F1BD3B1F5001F0CD349089B
:100B30005FEA30004FEA3C0C04F101044FEA4452F2
:100B400012F5800F80F09A80BCF1004F08BF5FEA79
:100B5000500C50F1000041EB045141EA050130BD59
:100B60005FEA4C0C404141EB0101013C28BFB1F56B
:100B7000801FE9D291F0000F04BF01460020B1FAB6
:100B800081F308BF2033A3F10B03B3F120020CDA89
:100B90000C3208DD02F1140CC2F10C0201FA0CF067
:100BA00021FA02F10CE002F11402D8BFC2F1200CCC
:100BB00001FA02F120FA0CFCDCBF41EA0C01904082
:100BC000E41AA2BF01EB0451294330BD6FEA0404CB
:100BD0001F3C1CDA0C340EDC04F11404C4F12002B6
:100BE00020FA04F001FA02F340EA030021FA04F3C8
:100BF00045EA030130BDC4F10C04C4F1200220FA1F
:100C000002F001FA04F340EA0300294630BD21FA5C
:100C100004F0294630BD94F0000F83F4801306BF22
:100C200081F480110134013D4EE77FEA645C18BF16
:100C30007FEA655C29D094EA050F08BF90EA020FAD
:100C400005D054EA000C04BF1946104630BD91EAA5
:100C5000030F1EBF0021002030BD5FEA545C05D1A8
:100C60004000494128BF41F0004130BD14F58004E7
:100C70003CBF01F5801130BD01F0004545F0FE415B
:100C800041F470014FF0000030BD7FEA645C1ABF90
:100C9000194610467FEA655C1CBF0B46024650EAC7
:100CA000013406BF52EA033591EA030F41F40021F3
:100CB00030BD00BF90F0000F04BF0021704730B579
:100CC0004FF4806404F132044FF000054FF000014E
:100CD00050E700BF90F0000F04BF0021704730B50F
:100CE0004FF4806404F1320410F0004548BF4042E4
:100CF0004FF000013EE700BF42004FEAE2014FEA39
:100D000031014FEA02701FBF12F07F4393F07F4F13
:100D100081F06051704732F07F4208BF704793F016
:100D20007F4F04BF41F40021704730B54FF4607429
:100D300001F0004521F000411CE700BF50EA01022C
:100D400008BF704730B54FF000050AE050EA0102D5
:100D500008BF704730B511F0004502D5404261EB45
:100D600041014FF4806404F132045FEA915C3FF486
:100D7000D8AE4FF003025FEADC0C18BF03325FEA23
:100D8000DC0C18BF033202EBDC02C2F1200300FAD4
:100D900003FC20FA02F001FA03FE40EA0E0021FAF9
:100DA00002F11444BDE600BF70B54FF0FF0C4CF4E7
:100DB000E06C1CEA11541DBF1CEA135594EA0C0F99
:100DC00095EA0C0F00F0DEF82C4481EA030621EAD4
:100DD0004C5123EA4C5350EA013518BF52EA03350F
:100DE00041F4801143F4801338D0A0FB02CE4FF0C1
:100DF0000005E1FB02E506F00042E0FB03E54FF0F1
:100E00000006E1FB03569CF0000F18BF4EF0010EE8
:100E1000A4F1FF04B6F5007F64F5407404D25FEAE4
:100E20004E0E6D4146EB060642EAC62141EA555197
:100E30004FEAC52040EA5E504FEACE2EB4F1FD0CD9
:100E400088BFBCF5E06F1ED8BEF1004F08BF5FEA57
:100E5000500E50F1000041EB045170BD06F0004609
:100E600046EA010140EA020081EA0301B4EB5C04B6
:100E7000C2BFD4EB0C0541EA045170BD41F48011AE
:100E80004FF0000E013C00F3AB8014F1360FDEBFD3
:100E9000002001F0004170BDC4F10004203C35DAAF
:100EA0000C341BDC04F11404C4F1200500FA05F332
:100EB00020FA04F001FA05F240EA020001F00042D3
:100EC00021F0004110EBD37021FA04F642EB060149
:100ED0005EEA430E08BF20EAD37070BDC4F10C0473
:100EE000C4F1200500FA04F320FA05F001FA04F237
:100EF00040EA020001F0004110EBD37041F1000123
:100F00005EEA430E08BF20EAD37070BDC4F120052D
:100F100000FA05F24EEA020E20FA04F301FA05F295
:100F200043EA020321FA04F001F0004121FA04F23D
:100F300020EA020000EBD3705EEA430E08BF20EA0D
:100F4000D37070BD94F0000F0FD101F00046400047
:100F500041EB010111F4801F08BF013CF7D041EAC9
:100F6000060195F0000F18BF704703F000465200CD
:100F700043EB030313F4801F08BF013DF7D043EA9E
:100F80000603704794EA0C0F0CEA135518BF95EA54
:100F90000C0F0CD050EA410618BF52EA4306D1D1DB
:100FA00081EA030101F000414FF0000070BD50EAFA
:100FB000410606BF1046194652EA430619D094EA84
:100FC0000C0F02D150EA013613D195EA0C0F05D16E
:100FD00052EA03361CBF104619460AD181EA0301C2
:100FE00001F0004141F0FE4141F470014FF000007A
:100FF00070BD41F0FE4141F4780170BD70B54FF015
:10100000FF0C4CF4E06C1CEA11541DBF1CEA135594
:1010100094EA0C0F95EA0C0F00F0A7F8A4EB050476
:1010200081EA030E52EA03354FEA013100F088806D
:101030004FEA03334FF0805545EA131343EA126336
:101040004FEA022245EA111545EA10654FEA0026EB
:101050000EF000419D4208BF964244F1FD0404F5A4
:10106000407402D25B084FEA3202B61A65EB030500
:101070005B084FEA32024FF480104FF4002CB6EBBD
:10108000020E75EB030E22BFB61A754640EA0C003D
:101090005B084FEA3202B6EB020E75EB030E22BF7D
:1010A000B61A754640EA5C005B084FEA3202B6EBBE
:1010B000020E75EB030E22BFB61A754640EA9C007D
:1010C0005B084FEA3202B6EB020E75EB030E22BF4D
:1010D000B61A754640EADC0055EA060E18D04FEA0B
:1010E000051545EA16754FEA06164FEAC30343EAAB
:1010F00052734FEAC2025FEA1C1CC0D111F4801F78
:101100000BD141EA00014FF000004FF0004CB6E770
:1011100011F4801F04BF01430020B4F1FD0C88BF0F
:10112000BCF5E06F3FF6AFAEB5EB030C04BFB6EB1A
:10113000020C5FEA500C50F1000041EB045170BD0D
:101140000EF0004E4EEA113114EB5C04C2BFD4EB3A
:101150000C0541EA045170BD41F480114FF0000EBE
:10116000013C90E645EA060E8DE60CEA135594EA3A
:101170000C0F08BF95EA0C0F3FF43BAF94EA0C0F3D
:101180000AD150EA01347FF434AF95EA0C0F7FF4B2
:1011900025AF104619462CE795EA0C0F06D152EA06
:1011A00003353FF4FDAE1046194622E750EA4106EA
:1011B00018BF52EA43067FF4C5AE50EA41047FF4FB
:1011C0000DAF52EA43057FF4EBAE12E74A0011D2AD
:1011D00012F5001211D20DD56FF47873B3EB625291
:1011E0000ED44FEAC12343F0004343EA505323FA9D
:1011F00002F070474FF00000704750EA013002D112
:101200004FF0FF3070474FF00000704753B94AB9B4
:10121000002908BF00281CBF4FF0FF314FF0FF30FE
:1012200000F076B9ADF1080C6DE904CE00F006F8D7
:10123000DDF804E0DDE9022304B070472DE9F04752
:10124000089E0D4604468846002B4DD18A4294469E
:1012500068D9B2FA82F252B101FA02F3C2F1200166
:1012600020FA01F10CFA02FC41EA030894404FEA2B
:101270001C41B8FBF1F71FFA8CFE01FB178807FB36
:101280000EF0230C43EA084398420AD91CEB0303EF
:1012900007F1FF3580F01E81984240F21B81023F2A
:1012A00063441B1AB3FBF1F001FB103300FB0EFE8D
:1012B000A4B244EA0344A6450AD91CEB040400F195
:1012C000FF3380F00981A64540F20681644402386C
:1012D0000021A4EB0E0440EA07401EB10023D440D5
:1012E000C6E90043BDE8F0878B4208D9002E00F024
:1012F000EE800021C6E900050846BDE8F087B3FA94
:1013000083F100294AD1AB4202D3824200F2FC8031
:10131000841A65EB030301209846002EE2D0C6E94B
:101320000048DFE702B9FFDEB2FA82F2002A40F09D
:101330009180A1EB0C0001214FEA1C471FFA8CFEA3
:10134000B0FBF7F307FB1300250C45EA00450EFB45
:1013500003F0A84208D91CEB050503F1FF3802D2BF
:10136000A84200F2CE8043462D1AB5FBF7F007FBEA
:1013700010550EFB00FEA4B244EA0544A64508D968
:101380001CEB040400F1FF3502D2A64500F2B68042
:101390002846A4EB0E0440EA03409EE7C1F1200773
:1013A0008B4022FA07FC4CEA030C25FA07FA4FEAB5
:1013B0001C49BAFBF9F820FA07F309FB18AA8D407B
:1013C0001FFA8CFE1D4300FA01F308FB0EF02C0CF3
:1013D00044EA0A44A04202FA01F20BD91CEB0404CD
:1013E00008F1FF3A80F08880A04240F28580A8F1A1
:1013F00002086444241AB4FBF9F009FB104400FB12
:101400000EFEADB245EA0444A64508D91CEB04041F
:1014100000F1FF356CD2A6456AD90238644440EA2F
:101420000840A0FB0295A4EB0E04AC42C846AE46B1
:1014300056D353D0002E69D0B3EB080264EB0E04F0
:1014400022FA01F304FA07F71F43CC40C6E90074FF
:10145000002147E70CFA02FCC2F1200125FA01F352
:101460004FEA1C4720FA01F195400D43B3FBF7F119
:1014700007FB11331FFA8CFE280C40EA034001FBE6
:101480000EF3834204FA02F408D91CEB000001F1C8
:10149000FF382FD283422DD902396044C01AB0FBE5
:1014A000F7F307FB1300ADB245EA004503FB0EF06E
:1014B000A84208D91CEB050503F1FF3816D2A84253
:1014C00014D9023B6544281A43EA014138E7314602
:1014D000304607E72F46E4E61846F9E64B45A9D221
:1014E000B9EB020865EB0C0E0138A3E74346EAE7C7
:1014F000284694E74146D1E7D0467BE7644402386A
:1015000047E7023B65442FE7084606E73146E9E630
:10151000704700BF03460A4602490868194600F0B2
:1015200003B800BF0C83072010B502FB01F100F0E7
:101530004FF8044668B150F8042C22F00302043A34
:10154000242A18D8132A06D802460023C2E90033F9
:101550009360204610BD00231B2AC0E900330FD939
:10156000242AC0E9023311BF00F11002036100F127
:1015700018024361E9E7002100F04CFB204610BD52
:1015800000F10802E1E700BF70B50D4E0D4D761B6E
:10159000B61006D0002455F8043B01349847A64203
:1015A000F9D1094E094D0DF02DFB761BB61006D072
:1015B000002455F8043B01349847A642F9D170BD88
:1015C00010EC090010EC090018EC090010EC0900FF
:1015D0002DE9F04F01F10B05162D064683B025D8F5
:1015E000102900F2B88000F067FB102518224FF098
:1015F000020CB54F3A445368A2F108018B4200F047
:10160000B7805A68D96822F003021A449C683046B1
:10161000E1608C60516803F1080441F00101516000
:1016200000F050FB204603B0BDE8F08F35F0070511
:1016300000F19180A94200F28E8000F03DFBB5F5EB
:10164000FC7FC0F094816B0A00F08C80042B00F2C8
:101650006A81AB0903F1390C03F138044FEACC007D
:10166000994F384443680838984206D10CE0002965
:1016700080F22681DB68984206D05A6822F0030285
:10168000511B0F29F3DDA4463C69DFF840E27445A5
:101690007AD0626822F00302531B0F2B00F376818D
:1016A000002BC7E904EE80F26781B2F5007F80F07D
:1016B00019810121D30852090B4491407A6857F8E7
:1016C00033000A4307EBC3010839A060E1607A6088
:1016D00047F83340C46001214FEAAC03994091427E
:1016E00059D8114206D12CF0030C490011420CF1DB
:1016F000040CFAD007EBCC0948466446D0F80C80BD
:10170000404508D11CE1002B80F22181D8F80C80E3
:10171000404500F01581D8F8042022F00302531B45
:101720000F2BF0DD08EB050145F00105C8F804506A
:101730003046D8E90264F460A66043F00104C7E9CA
:1017400004114C60C1E902EE48F8023000F0BAFA28
:1017500008F1080402E00C2300243360204603B0A3
:10176000BDE8F08F4FF400704FF0400C3F2477E756
:10177000D3689A4208BF0CF1020C7FF442AF3C6977
:10178000DFF848E1744584D101217A684FEAAC035F
:1017900099409142A5D9BC68636823F003094D457F
:1017A00003D8A9EB05030F2B7ADCDFF824B1494BF2
:1017B000DBF800201B6801322B4404EB090A00F01F
:1017C0002F8103F580530F3323F47F6828F00F082F
:1017D0004146304600F090FA411C024600F0EF808E
:1017E000824500F2EA803C4B196841440846196082
:1017F00000F04981DBF80010019301311BBFA2EB1F
:101800000A0A5044CBF80020186012F0070B00F0D1
:101810001181CBF108010A44CBF580519044083185
:10182000A1EB0801C1F30B0A51463046009200F0CB
:1018300063FA421CDDE9002300F04B81801A00EBC3
:101840000A08196848F001005144BC42BA601960A6
:10185000506000F02481B9F10F0F40F222814FF067
:10186000050E6068A9F10C0C2CF0070C00F00100CB
:1018700040EA0C006060BCF10F0F04EB0C00C0E903
:1018800001EE00F22E8114465068144B1A688A4209
:1018900038BF1960124B1A688A4238BF196090E04D
:1018A000621943F0010345F0010565603046BA60F6
:1018B0000834536000F006FA204603B0BDE8F08F0C
:1018C000D9681A44A2E600BF38870720408707205E
:1018D000408B072020410820F040082018410820B4
:1018E0001C410820B2F5206F4FEA52235FD3142B1E
:1018F00000F2B18003F15C01C9005B3378187958BC
:101900000838884200F08F804B6823F0030393422D
:1019100002D989688842F7D1C8687A68C4E9021098
:101920008460CC60D7E6142B59D9542B00F29B80ED
:101930002B0B03F16F0C03F16E044FEACC008FE622
:101940000134A30700F108007FF4D8AE53E0444609
:1019500042445368D8F80C1043F00103536054F824
:10196000083F3046D9608B6000F0ACF9F6E64FEAEC
:10197000D50C05F108023CE622445368304643F09A
:101980000103536000F09EF90834E7E6611945F061
:101990000105656043F00105C7E904113046C1E95E
:1019A00002EE4D60A35000F08DF90834D6E693099D
:1019B00003F13901C9003833A0E7BC425ED0BC68EE
:1019C000606820F003084545A8EB050302D80F2BFB
:1019D0003FF766AF304600F075F90024BEE603F12C
:1019E0005C0C03F15B044FEACC0039E659F8083986
:1019F0004B4540F095801CF0030F0CF1FF3CF5D1F6
:101A00007B6823EA01037B60490099423FF6C3AE3D
:101A100011B9C0E6490004341942FBD0A44669E676
:101A200003F11008D4E601229B109A407B681A4308
:101A30007A6073E702EB08014942C1F30B0A514691
:101A40003046009200F058F9431CDDE900237FF492
:101A5000F5AEDA46F5E6542B26D8130B03F16F01E9
:101A6000C9006E334AE7B3F5AA7F26D8EB0B03F122
:101A7000780C03F177044FEACC00F1E5294B1868A4
:101A800040441860B6E6CAF30B0CBCF1000F7FF4BB
:101A9000B1AEBC68C84448F001006060F5E6144689
:101AA000F3E60123536095E7B3F5AA7F24D8D30B5F
:101AB00003F17801C900773320E740F25452934292
:101AC00024D8AB0C03F17D0C03F17C044FEACC006D
:101AD000C6E5ABF1080BD8444FF0000AA8EB0208AA
:101AE000AFE604F108013046009305F0BFF8BC688A
:101AF000009B60681968C8E640F254518B420BD8CD
:101B0000930C03F17D01C9007C33F7E64FF47E703E
:101B10004FF07F0C7E24A3E54FF47E717E23EDE62B
:101B20007B6871E7F0400820844641EA000313F027
:101B3000030349D1403A23D30B6803604B684360E9
:101B40008B688360CB68C3600B6903614B69436139
:101B50008B698361CB69C3610B6A03624B6A436221
:101B60008B6A8362CB6AC3620B6B03634B6B436309
:101B70008B6B8363CB6BC36340304031403ADBD225
:101B800030320BD30B6803604B6843608B68836013
:101B9000CB68C36010301031103AF3D20C3205D349
:101BA00051F8043B40F8043B043AF9D2043208D01F
:101BB000D2071CBF11F8013B00F8013B01D30B8891
:101BC00003806046704700BF082A13D38B07B1D04B
:101BD00010F00303AED0C3F10403D21ADB071CBF1D
:101BE00011F8013B00F8013BA4D331F8023B20F887
:101BF000023B9FE7043AD9D3013A11F8013B00F8C0
